{
	"6 занятие/Auction+.sol": {
		"Auction": {
			"abi": [
				{
					"inputs": [
						{
							"internalType": "string",
							"name": "_item",
							"type": "string"
						},
						{
							"internalType": "uint256",
							"name": "_startingCost",
							"type": "uint256"
						},
						{
							"internalType": "uint256",
							"name": "_bidStep",
							"type": "uint256"
						},
						{
							"internalType": "uint256",
							"name": "_maxParticipants",
							"type": "uint256"
						},
						{
							"internalType": "uint256",
							"name": "_stepTime",
							"type": "uint256"
						}
					],
					"stateMutability": "nonpayable",
					"type": "constructor"
				},
				{
					"inputs": [],
					"name": "Bid",
					"outputs": [],
					"stateMutability": "payable",
					"type": "function"
				},
				{
					"inputs": [],
					"name": "BidStep",
					"outputs": [
						{
							"internalType": "uint256",
							"name": "",
							"type": "uint256"
						}
					],
					"stateMutability": "view",
					"type": "function"
				},
				{
					"inputs": [],
					"name": "CurrentCost",
					"outputs": [
						{
							"internalType": "uint256",
							"name": "",
							"type": "uint256"
						}
					],
					"stateMutability": "view",
					"type": "function"
				},
				{
					"inputs": [],
					"name": "CurrentParticipantsAmount",
					"outputs": [
						{
							"internalType": "uint256",
							"name": "",
							"type": "uint256"
						}
					],
					"stateMutability": "view",
					"type": "function"
				},
				{
					"inputs": [],
					"name": "EndAuction",
					"outputs": [],
					"stateMutability": "nonpayable",
					"type": "function"
				},
				{
					"inputs": [],
					"name": "GetBidHistory",
					"outputs": [
						{
							"components": [
								{
									"internalType": "address",
									"name": "bidder",
									"type": "address"
								},
								{
									"internalType": "uint256",
									"name": "amount",
									"type": "uint256"
								},
								{
									"internalType": "uint256",
									"name": "timestamp",
									"type": "uint256"
								}
							],
							"internalType": "struct Auction.BidRecord[]",
							"name": "",
							"type": "tuple[]"
						}
					],
					"stateMutability": "view",
					"type": "function"
				},
				{
					"inputs": [],
					"name": "GetItem",
					"outputs": [
						{
							"internalType": "string",
							"name": "",
							"type": "string"
						}
					],
					"stateMutability": "view",
					"type": "function"
				},
				{
					"inputs": [
						{
							"internalType": "address",
							"name": "account",
							"type": "address"
						}
					],
					"name": "GetPermission",
					"outputs": [],
					"stateMutability": "nonpayable",
					"type": "function"
				},
				{
					"inputs": [],
					"name": "HasEnded",
					"outputs": [
						{
							"internalType": "bool",
							"name": "",
							"type": "bool"
						}
					],
					"stateMutability": "view",
					"type": "function"
				},
				{
					"inputs": [],
					"name": "HasStarted",
					"outputs": [
						{
							"internalType": "bool",
							"name": "",
							"type": "bool"
						}
					],
					"stateMutability": "view",
					"type": "function"
				},
				{
					"inputs": [],
					"name": "Item",
					"outputs": [
						{
							"internalType": "string",
							"name": "",
							"type": "string"
						}
					],
					"stateMutability": "view",
					"type": "function"
				},
				{
					"inputs": [],
					"name": "MaxParticipants",
					"outputs": [
						{
							"internalType": "uint256",
							"name": "",
							"type": "uint256"
						}
					],
					"stateMutability": "view",
					"type": "function"
				},
				{
					"inputs": [],
					"name": "Refund",
					"outputs": [],
					"stateMutability": "nonpayable",
					"type": "function"
				},
				{
					"inputs": [],
					"name": "SELLER",
					"outputs": [
						{
							"internalType": "address",
							"name": "",
							"type": "address"
						}
					],
					"stateMutability": "view",
					"type": "function"
				},
				{
					"inputs": [],
					"name": "StartAuction",
					"outputs": [],
					"stateMutability": "nonpayable",
					"type": "function"
				},
				{
					"inputs": [],
					"name": "StartTime",
					"outputs": [
						{
							"internalType": "uint256",
							"name": "",
							"type": "uint256"
						}
					],
					"stateMutability": "view",
					"type": "function"
				},
				{
					"inputs": [],
					"name": "StartingCost",
					"outputs": [
						{
							"internalType": "uint256",
							"name": "",
							"type": "uint256"
						}
					],
					"stateMutability": "view",
					"type": "function"
				},
				{
					"inputs": [],
					"name": "StepTime",
					"outputs": [
						{
							"internalType": "uint256",
							"name": "",
							"type": "uint256"
						}
					],
					"stateMutability": "view",
					"type": "function"
				},
				{
					"inputs": [],
					"name": "Winner",
					"outputs": [
						{
							"internalType": "address",
							"name": "",
							"type": "address"
						}
					],
					"stateMutability": "view",
					"type": "function"
				}
			],
			"devdoc": {
				"kind": "dev",
				"methods": {},
				"version": 1
			},
			"evm": {
				"assembly": "    /* \"6 \\xd0\\xb7\\xd0\\xb0\\xd0\\xbd\\xd1\\x8f\\xd1\\x82\\xd0\\xb8\\xd0\\xb5/Auction+.sol\":115:4633  contract Auction{... */\n  mstore(0x40, 0xa0)\n    /* \"6 \\xd0\\xb7\\xd0\\xb0\\xd0\\xbd\\xd1\\x8f\\xd1\\x82\\xd0\\xb8\\xd0\\xb5/Auction+.sol\":712:1128  constructor(string memory _item,... */\n  callvalue\n  dup1\n  iszero\n  tag_1\n  jumpi\n  0x00\n  dup1\n  revert\ntag_1:\n  pop\n  mload(0x40)\n  sub(codesize, bytecodeSize)\n  dup1\n  bytecodeSize\n  dup4\n  codecopy\n  dup2\n  dup2\n  add\n  0x40\n  mstore\n  dup2\n  add\n  swap1\n  tag_2\n  swap2\n  swap1\n  tag_3\n  jump\t// in\ntag_2:\n    /* \"6 \\xd0\\xb7\\xd0\\xb0\\xd0\\xbd\\xd1\\x8f\\xd1\\x82\\xd0\\xb8\\xd0\\xb5/Auction+.sol\":906:916  msg.sender */\n  caller\n    /* \"6 \\xd0\\xb7\\xd0\\xb0\\xd0\\xbd\\xd1\\x8f\\xd1\\x82\\xd0\\xb8\\xd0\\xb5/Auction+.sol\":897:916  SELLER = msg.sender */\n  0xffffffffffffffffffffffffffffffffffffffff\n  and\n  0x80\n  dup2\n  0xffffffffffffffffffffffffffffffffffffffff\n  and\n  dup2\n  mstore\n  pop\n  pop\n    /* \"6 \\xd0\\xb7\\xd0\\xb0\\xd0\\xbd\\xd1\\x8f\\xd1\\x82\\xd0\\xb8\\xd0\\xb5/Auction+.sol\":934:939  _item */\n  dup5\n    /* \"6 \\xd0\\xb7\\xd0\\xb0\\xd0\\xbd\\xd1\\x8f\\xd1\\x82\\xd0\\xb8\\xd0\\xb5/Auction+.sol\":927:931  Item */\n  0x00\n    /* \"6 \\xd0\\xb7\\xd0\\xb0\\xd0\\xbd\\xd1\\x8f\\xd1\\x82\\xd0\\xb8\\xd0\\xb5/Auction+.sol\":927:939  Item = _item */\n  swap1\n  dup2\n  tag_6\n  swap2\n  swap1\n  tag_7\n  jump\t// in\ntag_6:\n  pop\n    /* \"6 \\xd0\\xb7\\xd0\\xb0\\xd0\\xbd\\xd1\\x8f\\xd1\\x82\\xd0\\xb8\\xd0\\xb5/Auction+.sol\":965:978  _startingCost */\n  dup4\n    /* \"6 \\xd0\\xb7\\xd0\\xb0\\xd0\\xbd\\xd1\\x8f\\xd1\\x82\\xd0\\xb8\\xd0\\xb5/Auction+.sol\":950:962  StartingCost */\n  0x03\n    /* \"6 \\xd0\\xb7\\xd0\\xb0\\xd0\\xbd\\xd1\\x8f\\xd1\\x82\\xd0\\xb8\\xd0\\xb5/Auction+.sol\":950:978  StartingCost = _startingCost */\n  dup2\n  swap1\n  sstore\n  pop\n    /* \"6 \\xd0\\xb7\\xd0\\xb0\\xd0\\xbd\\xd1\\x8f\\xd1\\x82\\xd0\\xb8\\xd0\\xb5/Auction+.sol\":1003:1015  StartingCost */\n  sload(0x03)\n    /* \"6 \\xd0\\xb7\\xd0\\xb0\\xd0\\xbd\\xd1\\x8f\\xd1\\x82\\xd0\\xb8\\xd0\\xb5/Auction+.sol\":989:1000  CurrentCost */\n  0x05\n    /* \"6 \\xd0\\xb7\\xd0\\xb0\\xd0\\xbd\\xd1\\x8f\\xd1\\x82\\xd0\\xb8\\xd0\\xb5/Auction+.sol\":989:1015  CurrentCost = StartingCost */\n  dup2\n  swap1\n  sstore\n  pop\n    /* \"6 \\xd0\\xb7\\xd0\\xb0\\xd0\\xbd\\xd1\\x8f\\xd1\\x82\\xd0\\xb8\\xd0\\xb5/Auction+.sol\":1036:1044  _bidStep */\n  dup3\n    /* \"6 \\xd0\\xb7\\xd0\\xb0\\xd0\\xbd\\xd1\\x8f\\xd1\\x82\\xd0\\xb8\\xd0\\xb5/Auction+.sol\":1026:1033  BidStep */\n  0x04\n    /* \"6 \\xd0\\xb7\\xd0\\xb0\\xd0\\xbd\\xd1\\x8f\\xd1\\x82\\xd0\\xb8\\xd0\\xb5/Auction+.sol\":1026:1044  BidStep = _bidStep */\n  dup2\n  swap1\n  sstore\n  pop\n    /* \"6 \\xd0\\xb7\\xd0\\xb0\\xd0\\xbd\\xd1\\x8f\\xd1\\x82\\xd0\\xb8\\xd0\\xb5/Auction+.sol\":1073:1089  _maxParticipants */\n  dup2\n    /* \"6 \\xd0\\xb7\\xd0\\xb0\\xd0\\xbd\\xd1\\x8f\\xd1\\x82\\xd0\\xb8\\xd0\\xb5/Auction+.sol\":1055:1070  MaxParticipants */\n  0x0a\n    /* \"6 \\xd0\\xb7\\xd0\\xb0\\xd0\\xbd\\xd1\\x8f\\xd1\\x82\\xd0\\xb8\\xd0\\xb5/Auction+.sol\":1055:1089  MaxParticipants = _maxParticipants */\n  dup2\n  swap1\n  sstore\n  pop\n    /* \"6 \\xd0\\xb7\\xd0\\xb0\\xd0\\xbd\\xd1\\x8f\\xd1\\x82\\xd0\\xb8\\xd0\\xb5/Auction+.sol\":1111:1120  _stepTime */\n  dup1\n    /* \"6 \\xd0\\xb7\\xd0\\xb0\\xd0\\xbd\\xd1\\x8f\\xd1\\x82\\xd0\\xb8\\xd0\\xb5/Auction+.sol\":1100:1108  StepTime */\n  0x08\n    /* \"6 \\xd0\\xb7\\xd0\\xb0\\xd0\\xbd\\xd1\\x8f\\xd1\\x82\\xd0\\xb8\\xd0\\xb5/Auction+.sol\":1100:1120  StepTime = _stepTime */\n  dup2\n  swap1\n  sstore\n  pop\n    /* \"6 \\xd0\\xb7\\xd0\\xb0\\xd0\\xbd\\xd1\\x8f\\xd1\\x82\\xd0\\xb8\\xd0\\xb5/Auction+.sol\":712:1128  constructor(string memory _item,... */\n  pop\n  pop\n  pop\n  pop\n  pop\n    /* \"6 \\xd0\\xb7\\xd0\\xb0\\xd0\\xbd\\xd1\\x8f\\xd1\\x82\\xd0\\xb8\\xd0\\xb5/Auction+.sol\":115:4633  contract Auction{... */\n  jump(tag_8)\n    /* \"#utility.yul\":7:82   */\ntag_9:\n    /* \"#utility.yul\":40:46   */\n  0x00\n    /* \"#utility.yul\":73:75   */\n  0x40\n    /* \"#utility.yul\":67:76   */\n  mload\n    /* \"#utility.yul\":57:76   */\n  swap1\n  pop\n    /* \"#utility.yul\":7:82   */\n  swap1\n  jump\t// out\n    /* \"#utility.yul\":88:205   */\ntag_10:\n    /* \"#utility.yul\":197:198   */\n  0x00\n    /* \"#utility.yul\":194:195   */\n  dup1\n    /* \"#utility.yul\":187:199   */\n  revert\n    /* \"#utility.yul\":211:328   */\ntag_11:\n    /* \"#utility.yul\":320:321   */\n  0x00\n    /* \"#utility.yul\":317:318   */\n  dup1\n    /* \"#utility.yul\":310:322   */\n  revert\n    /* \"#utility.yul\":334:451   */\ntag_12:\n    /* \"#utility.yul\":443:444   */\n  0x00\n    /* \"#utility.yul\":440:441   */\n  dup1\n    /* \"#utility.yul\":433:445   */\n  revert\n    /* \"#utility.yul\":457:574   */\ntag_13:\n    /* \"#utility.yul\":566:567   */\n  0x00\n    /* \"#utility.yul\":563:564   */\n  dup1\n    /* \"#utility.yul\":556:568   */\n  revert\n    /* \"#utility.yul\":580:682   */\ntag_14:\n    /* \"#utility.yul\":621:627   */\n  0x00\n    /* \"#utility.yul\":672:674   */\n  0x1f\n    /* \"#utility.yul\":668:675   */\n  not\n    /* \"#utility.yul\":663:665   */\n  0x1f\n    /* \"#utility.yul\":656:661   */\n  dup4\n    /* \"#utility.yul\":652:666   */\n  add\n    /* \"#utility.yul\":648:676   */\n  and\n    /* \"#utility.yul\":638:676   */\n  swap1\n  pop\n    /* \"#utility.yul\":580:682   */\n  swap2\n  swap1\n  pop\n  jump\t// out\n    /* \"#utility.yul\":688:868   */\ntag_15:\n    /* \"#utility.yul\":736:813   */\n  0x4e487b7100000000000000000000000000000000000000000000000000000000\n    /* \"#utility.yul\":733:734   */\n  0x00\n    /* \"#utility.yul\":726:814   */\n  mstore\n    /* \"#utility.yul\":833:837   */\n  0x41\n    /* \"#utility.yul\":830:831   */\n  0x04\n    /* \"#utility.yul\":823:838   */\n  mstore\n    /* \"#utility.yul\":857:861   */\n  0x24\n    /* \"#utility.yul\":854:855   */\n  0x00\n    /* \"#utility.yul\":847:862   */\n  revert\n    /* \"#utility.yul\":874:1155   */\ntag_16:\n    /* \"#utility.yul\":957:984   */\n  tag_52\n    /* \"#utility.yul\":979:983   */\n  dup3\n    /* \"#utility.yul\":957:984   */\n  tag_14\n  jump\t// in\ntag_52:\n    /* \"#utility.yul\":949:955   */\n  dup2\n    /* \"#utility.yul\":945:985   */\n  add\n    /* \"#utility.yul\":1087:1093   */\n  dup2\n    /* \"#utility.yul\":1075:1085   */\n  dup2\n    /* \"#utility.yul\":1072:1094   */\n  lt\n    /* \"#utility.yul\":1051:1069   */\n  0xffffffffffffffff\n    /* \"#utility.yul\":1039:1049   */\n  dup3\n    /* \"#utility.yul\":1036:1070   */\n  gt\n    /* \"#utility.yul\":1033:1095   */\n  or\n    /* \"#utility.yul\":1030:1118   */\n  iszero\n  tag_53\n  jumpi\n    /* \"#utility.yul\":1098:1116   */\n  tag_54\n  tag_15\n  jump\t// in\ntag_54:\n    /* \"#utility.yul\":1030:1118   */\ntag_53:\n    /* \"#utility.yul\":1138:1148   */\n  dup1\n    /* \"#utility.yul\":1134:1136   */\n  0x40\n    /* \"#utility.yul\":1127:1149   */\n  mstore\n    /* \"#utility.yul\":917:1155   */\n  pop\n    /* \"#utility.yul\":874:1155   */\n  pop\n  pop\n  jump\t// out\n    /* \"#utility.yul\":1161:1290   */\ntag_17:\n    /* \"#utility.yul\":1195:1201   */\n  0x00\n    /* \"#utility.yul\":1222:1242   */\n  tag_56\n  tag_9\n  jump\t// in\ntag_56:\n    /* \"#utility.yul\":1212:1242   */\n  swap1\n  pop\n    /* \"#utility.yul\":1251:1284   */\n  tag_57\n    /* \"#utility.yul\":1279:1283   */\n  dup3\n    /* \"#utility.yul\":1271:1277   */\n  dup3\n    /* \"#utility.yul\":1251:1284   */\n  tag_16\n  jump\t// in\ntag_57:\n    /* \"#utility.yul\":1161:1290   */\n  swap2\n  swap1\n  pop\n  jump\t// out\n    /* \"#utility.yul\":1296:1604   */\ntag_18:\n    /* \"#utility.yul\":1358:1362   */\n  0x00\n    /* \"#utility.yul\":1448:1466   */\n  0xffffffffffffffff\n    /* \"#utility.yul\":1440:1446   */\n  dup3\n    /* \"#utility.yul\":1437:1467   */\n  gt\n    /* \"#utility.yul\":1434:1490   */\n  iszero\n  tag_59\n  jumpi\n    /* \"#utility.yul\":1470:1488   */\n  tag_60\n  tag_15\n  jump\t// in\ntag_60:\n    /* \"#utility.yul\":1434:1490   */\ntag_59:\n    /* \"#utility.yul\":1508:1537   */\n  tag_61\n    /* \"#utility.yul\":1530:1536   */\n  dup3\n    /* \"#utility.yul\":1508:1537   */\n  tag_14\n  jump\t// in\ntag_61:\n    /* \"#utility.yul\":1500:1537   */\n  swap1\n  pop\n    /* \"#utility.yul\":1592:1596   */\n  0x20\n    /* \"#utility.yul\":1586:1590   */\n  dup2\n    /* \"#utility.yul\":1582:1597   */\n  add\n    /* \"#utility.yul\":1574:1597   */\n  swap1\n  pop\n    /* \"#utility.yul\":1296:1604   */\n  swap2\n  swap1\n  pop\n  jump\t// out\n    /* \"#utility.yul\":1610:1749   */\ntag_19:\n    /* \"#utility.yul\":1699:1705   */\n  dup3\n    /* \"#utility.yul\":1694:1697   */\n  dup2\n    /* \"#utility.yul\":1689:1692   */\n  dup4\n    /* \"#utility.yul\":1683:1706   */\n  mcopy\n    /* \"#utility.yul\":1740:1741   */\n  0x00\n    /* \"#utility.yul\":1731:1737   */\n  dup4\n    /* \"#utility.yul\":1726:1729   */\n  dup4\n    /* \"#utility.yul\":1722:1738   */\n  add\n    /* \"#utility.yul\":1715:1742   */\n  mstore\n    /* \"#utility.yul\":1610:1749   */\n  pop\n  pop\n  pop\n  jump\t// out\n    /* \"#utility.yul\":1755:2189   */\ntag_20:\n    /* \"#utility.yul\":1844:1849   */\n  0x00\n    /* \"#utility.yul\":1869:1935   */\n  tag_64\n    /* \"#utility.yul\":1885:1934   */\n  tag_65\n    /* \"#utility.yul\":1927:1933   */\n  dup5\n    /* \"#utility.yul\":1885:1934   */\n  tag_18\n  jump\t// in\ntag_65:\n    /* \"#utility.yul\":1869:1935   */\n  tag_17\n  jump\t// in\ntag_64:\n    /* \"#utility.yul\":1860:1935   */\n  swap1\n  pop\n    /* \"#utility.yul\":1958:1964   */\n  dup3\n    /* \"#utility.yul\":1951:1956   */\n  dup2\n    /* \"#utility.yul\":1944:1965   */\n  mstore\n    /* \"#utility.yul\":1996:2000   */\n  0x20\n    /* \"#utility.yul\":1989:1994   */\n  dup2\n    /* \"#utility.yul\":1985:2001   */\n  add\n    /* \"#utility.yul\":2034:2037   */\n  dup5\n    /* \"#utility.yul\":2025:2031   */\n  dup5\n    /* \"#utility.yul\":2020:2023   */\n  dup5\n    /* \"#utility.yul\":2016:2032   */\n  add\n    /* \"#utility.yul\":2013:2038   */\n  gt\n    /* \"#utility.yul\":2010:2122   */\n  iszero\n  tag_66\n  jumpi\n    /* \"#utility.yul\":2041:2120   */\n  tag_67\n  tag_13\n  jump\t// in\ntag_67:\n    /* \"#utility.yul\":2010:2122   */\ntag_66:\n    /* \"#utility.yul\":2131:2183   */\n  tag_68\n    /* \"#utility.yul\":2176:2182   */\n  dup5\n    /* \"#utility.yul\":2171:2174   */\n  dup3\n    /* \"#utility.yul\":2166:2169   */\n  dup6\n    /* \"#utility.yul\":2131:2183   */\n  tag_19\n  jump\t// in\ntag_68:\n    /* \"#utility.yul\":1850:2189   */\n  pop\n    /* \"#utility.yul\":1755:2189   */\n  swap4\n  swap3\n  pop\n  pop\n  pop\n  jump\t// out\n    /* \"#utility.yul\":2209:2564   */\ntag_21:\n    /* \"#utility.yul\":2276:2281   */\n  0x00\n    /* \"#utility.yul\":2325:2328   */\n  dup3\n    /* \"#utility.yul\":2318:2322   */\n  0x1f\n    /* \"#utility.yul\":2310:2316   */\n  dup4\n    /* \"#utility.yul\":2306:2323   */\n  add\n    /* \"#utility.yul\":2302:2329   */\n  slt\n    /* \"#utility.yul\":2292:2414   */\n  tag_70\n  jumpi\n    /* \"#utility.yul\":2333:2412   */\n  tag_71\n  tag_12\n  jump\t// in\ntag_71:\n    /* \"#utility.yul\":2292:2414   */\ntag_70:\n    /* \"#utility.yul\":2443:2449   */\n  dup2\n    /* \"#utility.yul\":2437:2450   */\n  mload\n    /* \"#utility.yul\":2468:2558   */\n  tag_72\n    /* \"#utility.yul\":2554:2557   */\n  dup5\n    /* \"#utility.yul\":2546:2552   */\n  dup3\n    /* \"#utility.yul\":2539:2543   */\n  0x20\n    /* \"#utility.yul\":2531:2537   */\n  dup7\n    /* \"#utility.yul\":2527:2544   */\n  add\n    /* \"#utility.yul\":2468:2558   */\n  tag_20\n  jump\t// in\ntag_72:\n    /* \"#utility.yul\":2459:2558   */\n  swap2\n  pop\n    /* \"#utility.yul\":2282:2564   */\n  pop\n    /* \"#utility.yul\":2209:2564   */\n  swap3\n  swap2\n  pop\n  pop\n  jump\t// out\n    /* \"#utility.yul\":2570:2647   */\ntag_22:\n    /* \"#utility.yul\":2607:2614   */\n  0x00\n    /* \"#utility.yul\":2636:2641   */\n  dup2\n    /* \"#utility.yul\":2625:2641   */\n  swap1\n  pop\n    /* \"#utility.yul\":2570:2647   */\n  swap2\n  swap1\n  pop\n  jump\t// out\n    /* \"#utility.yul\":2653:2775   */\ntag_23:\n    /* \"#utility.yul\":2726:2750   */\n  tag_75\n    /* \"#utility.yul\":2744:2749   */\n  dup2\n    /* \"#utility.yul\":2726:2750   */\n  tag_22\n  jump\t// in\ntag_75:\n    /* \"#utility.yul\":2719:2724   */\n  dup2\n    /* \"#utility.yul\":2716:2751   */\n  eq\n    /* \"#utility.yul\":2706:2769   */\n  tag_76\n  jumpi\n    /* \"#utility.yul\":2765:2766   */\n  0x00\n    /* \"#utility.yul\":2762:2763   */\n  dup1\n    /* \"#utility.yul\":2755:2767   */\n  revert\n    /* \"#utility.yul\":2706:2769   */\ntag_76:\n    /* \"#utility.yul\":2653:2775   */\n  pop\n  jump\t// out\n    /* \"#utility.yul\":2781:2924   */\ntag_24:\n    /* \"#utility.yul\":2838:2843   */\n  0x00\n    /* \"#utility.yul\":2869:2875   */\n  dup2\n    /* \"#utility.yul\":2863:2876   */\n  mload\n    /* \"#utility.yul\":2854:2876   */\n  swap1\n  pop\n    /* \"#utility.yul\":2885:2918   */\n  tag_78\n    /* \"#utility.yul\":2912:2917   */\n  dup2\n    /* \"#utility.yul\":2885:2918   */\n  tag_23\n  jump\t// in\ntag_78:\n    /* \"#utility.yul\":2781:2924   */\n  swap3\n  swap2\n  pop\n  pop\n  jump\t// out\n    /* \"#utility.yul\":2930:4080   */\ntag_3:\n    /* \"#utility.yul\":3046:3052   */\n  0x00\n    /* \"#utility.yul\":3054:3060   */\n  dup1\n    /* \"#utility.yul\":3062:3068   */\n  0x00\n    /* \"#utility.yul\":3070:3076   */\n  dup1\n    /* \"#utility.yul\":3078:3084   */\n  0x00\n    /* \"#utility.yul\":3127:3130   */\n  0xa0\n    /* \"#utility.yul\":3115:3124   */\n  dup7\n    /* \"#utility.yul\":3106:3113   */\n  dup9\n    /* \"#utility.yul\":3102:3125   */\n  sub\n    /* \"#utility.yul\":3098:3131   */\n  slt\n    /* \"#utility.yul\":3095:3215   */\n  iszero\n  tag_80\n  jumpi\n    /* \"#utility.yul\":3134:3213   */\n  tag_81\n  tag_10\n  jump\t// in\ntag_81:\n    /* \"#utility.yul\":3095:3215   */\ntag_80:\n    /* \"#utility.yul\":3275:3276   */\n  0x00\n    /* \"#utility.yul\":3264:3273   */\n  dup7\n    /* \"#utility.yul\":3260:3277   */\n  add\n    /* \"#utility.yul\":3254:3278   */\n  mload\n    /* \"#utility.yul\":3305:3323   */\n  0xffffffffffffffff\n    /* \"#utility.yul\":3297:3303   */\n  dup2\n    /* \"#utility.yul\":3294:3324   */\n  gt\n    /* \"#utility.yul\":3291:3408   */\n  iszero\n  tag_82\n  jumpi\n    /* \"#utility.yul\":3327:3406   */\n  tag_83\n  tag_11\n  jump\t// in\ntag_83:\n    /* \"#utility.yul\":3291:3408   */\ntag_82:\n    /* \"#utility.yul\":3432:3506   */\n  tag_84\n    /* \"#utility.yul\":3498:3505   */\n  dup9\n    /* \"#utility.yul\":3489:3495   */\n  dup3\n    /* \"#utility.yul\":3478:3487   */\n  dup10\n    /* \"#utility.yul\":3474:3496   */\n  add\n    /* \"#utility.yul\":3432:3506   */\n  tag_21\n  jump\t// in\ntag_84:\n    /* \"#utility.yul\":3422:3506   */\n  swap6\n  pop\n    /* \"#utility.yul\":3225:3516   */\n  pop\n    /* \"#utility.yul\":3555:3557   */\n  0x20\n    /* \"#utility.yul\":3581:3645   */\n  tag_85\n    /* \"#utility.yul\":3637:3644   */\n  dup9\n    /* \"#utility.yul\":3628:3634   */\n  dup3\n    /* \"#utility.yul\":3617:3626   */\n  dup10\n    /* \"#utility.yul\":3613:3635   */\n  add\n    /* \"#utility.yul\":3581:3645   */\n  tag_24\n  jump\t// in\ntag_85:\n    /* \"#utility.yul\":3571:3645   */\n  swap5\n  pop\n    /* \"#utility.yul\":3526:3655   */\n  pop\n    /* \"#utility.yul\":3694:3696   */\n  0x40\n    /* \"#utility.yul\":3720:3784   */\n  tag_86\n    /* \"#utility.yul\":3776:3783   */\n  dup9\n    /* \"#utility.yul\":3767:3773   */\n  dup3\n    /* \"#utility.yul\":3756:3765   */\n  dup10\n    /* \"#utility.yul\":3752:3774   */\n  add\n    /* \"#utility.yul\":3720:3784   */\n  tag_24\n  jump\t// in\ntag_86:\n    /* \"#utility.yul\":3710:3784   */\n  swap4\n  pop\n    /* \"#utility.yul\":3665:3794   */\n  pop\n    /* \"#utility.yul\":3833:3835   */\n  0x60\n    /* \"#utility.yul\":3859:3923   */\n  tag_87\n    /* \"#utility.yul\":3915:3922   */\n  dup9\n    /* \"#utility.yul\":3906:3912   */\n  dup3\n    /* \"#utility.yul\":3895:3904   */\n  dup10\n    /* \"#utility.yul\":3891:3913   */\n  add\n    /* \"#utility.yul\":3859:3923   */\n  tag_24\n  jump\t// in\ntag_87:\n    /* \"#utility.yul\":3849:3923   */\n  swap3\n  pop\n    /* \"#utility.yul\":3804:3933   */\n  pop\n    /* \"#utility.yul\":3972:3975   */\n  0x80\n    /* \"#utility.yul\":3999:4063   */\n  tag_88\n    /* \"#utility.yul\":4055:4062   */\n  dup9\n    /* \"#utility.yul\":4046:4052   */\n  dup3\n    /* \"#utility.yul\":4035:4044   */\n  dup10\n    /* \"#utility.yul\":4031:4053   */\n  add\n    /* \"#utility.yul\":3999:4063   */\n  tag_24\n  jump\t// in\ntag_88:\n    /* \"#utility.yul\":3989:4063   */\n  swap2\n  pop\n    /* \"#utility.yul\":3943:4073   */\n  pop\n    /* \"#utility.yul\":2930:4080   */\n  swap3\n  swap6\n  pop\n  swap3\n  swap6\n  swap1\n  swap4\n  pop\n  jump\t// out\n    /* \"#utility.yul\":4086:4185   */\ntag_25:\n    /* \"#utility.yul\":4138:4144   */\n  0x00\n    /* \"#utility.yul\":4172:4177   */\n  dup2\n    /* \"#utility.yul\":4166:4178   */\n  mload\n    /* \"#utility.yul\":4156:4178   */\n  swap1\n  pop\n    /* \"#utility.yul\":4086:4185   */\n  swap2\n  swap1\n  pop\n  jump\t// out\n    /* \"#utility.yul\":4191:4371   */\ntag_26:\n    /* \"#utility.yul\":4239:4316   */\n  0x4e487b7100000000000000000000000000000000000000000000000000000000\n    /* \"#utility.yul\":4236:4237   */\n  0x00\n    /* \"#utility.yul\":4229:4317   */\n  mstore\n    /* \"#utility.yul\":4336:4340   */\n  0x22\n    /* \"#utility.yul\":4333:4334   */\n  0x04\n    /* \"#utility.yul\":4326:4341   */\n  mstore\n    /* \"#utility.yul\":4360:4364   */\n  0x24\n    /* \"#utility.yul\":4357:4358   */\n  0x00\n    /* \"#utility.yul\":4350:4365   */\n  revert\n    /* \"#utility.yul\":4377:4697   */\ntag_27:\n    /* \"#utility.yul\":4421:4427   */\n  0x00\n    /* \"#utility.yul\":4458:4459   */\n  0x02\n    /* \"#utility.yul\":4452:4456   */\n  dup3\n    /* \"#utility.yul\":4448:4460   */\n  div\n    /* \"#utility.yul\":4438:4460   */\n  swap1\n  pop\n    /* \"#utility.yul\":4505:4506   */\n  0x01\n    /* \"#utility.yul\":4499:4503   */\n  dup3\n    /* \"#utility.yul\":4495:4507   */\n  and\n    /* \"#utility.yul\":4526:4544   */\n  dup1\n    /* \"#utility.yul\":4516:4597   */\n  tag_92\n  jumpi\n    /* \"#utility.yul\":4582:4586   */\n  0x7f\n    /* \"#utility.yul\":4574:4580   */\n  dup3\n    /* \"#utility.yul\":4570:4587   */\n  and\n    /* \"#utility.yul\":4560:4587   */\n  swap2\n  pop\n    /* \"#utility.yul\":4516:4597   */\ntag_92:\n    /* \"#utility.yul\":4644:4646   */\n  0x20\n    /* \"#utility.yul\":4636:4642   */\n  dup3\n    /* \"#utility.yul\":4633:4647   */\n  lt\n    /* \"#utility.yul\":4613:4631   */\n  dup2\n    /* \"#utility.yul\":4610:4648   */\n  sub\n    /* \"#utility.yul\":4607:4691   */\n  tag_93\n  jumpi\n    /* \"#utility.yul\":4663:4681   */\n  tag_94\n  tag_26\n  jump\t// in\ntag_94:\n    /* \"#utility.yul\":4607:4691   */\ntag_93:\n    /* \"#utility.yul\":4428:4697   */\n  pop\n    /* \"#utility.yul\":4377:4697   */\n  swap2\n  swap1\n  pop\n  jump\t// out\n    /* \"#utility.yul\":4703:4844   */\ntag_28:\n    /* \"#utility.yul\":4752:4756   */\n  0x00\n    /* \"#utility.yul\":4775:4778   */\n  dup2\n    /* \"#utility.yul\":4767:4778   */\n  swap1\n  pop\n    /* \"#utility.yul\":4798:4801   */\n  dup2\n    /* \"#utility.yul\":4795:4796   */\n  0x00\n    /* \"#utility.yul\":4788:4802   */\n  mstore\n    /* \"#utility.yul\":4832:4836   */\n  0x20\n    /* \"#utility.yul\":4829:4830   */\n  0x00\n    /* \"#utility.yul\":4819:4837   */\n  keccak256\n    /* \"#utility.yul\":4811:4837   */\n  swap1\n  pop\n    /* \"#utility.yul\":4703:4844   */\n  swap2\n  swap1\n  pop\n  jump\t// out\n    /* \"#utility.yul\":4850:4943   */\ntag_29:\n    /* \"#utility.yul\":4887:4893   */\n  0x00\n    /* \"#utility.yul\":4934:4936   */\n  0x20\n    /* \"#utility.yul\":4929:4931   */\n  0x1f\n    /* \"#utility.yul\":4922:4927   */\n  dup4\n    /* \"#utility.yul\":4918:4932   */\n  add\n    /* \"#utility.yul\":4914:4937   */\n  div\n    /* \"#utility.yul\":4904:4937   */\n  swap1\n  pop\n    /* \"#utility.yul\":4850:4943   */\n  swap2\n  swap1\n  pop\n  jump\t// out\n    /* \"#utility.yul\":4949:5056   */\ntag_30:\n    /* \"#utility.yul\":4993:5001   */\n  0x00\n    /* \"#utility.yul\":5043:5048   */\n  dup3\n    /* \"#utility.yul\":5037:5041   */\n  dup3\n    /* \"#utility.yul\":5033:5049   */\n  shl\n    /* \"#utility.yul\":5012:5049   */\n  swap1\n  pop\n    /* \"#utility.yul\":4949:5056   */\n  swap3\n  swap2\n  pop\n  pop\n  jump\t// out\n    /* \"#utility.yul\":5062:5455   */\ntag_31:\n    /* \"#utility.yul\":5131:5137   */\n  0x00\n    /* \"#utility.yul\":5181:5182   */\n  0x08\n    /* \"#utility.yul\":5169:5179   */\n  dup4\n    /* \"#utility.yul\":5165:5183   */\n  mul\n    /* \"#utility.yul\":5204:5301   */\n  tag_99\n    /* \"#utility.yul\":5234:5300   */\n  0xffffffffffffffffffffffffffffffffffffffffffffffffffffffffffffffff\n    /* \"#utility.yul\":5223:5232   */\n  dup3\n    /* \"#utility.yul\":5204:5301   */\n  tag_30\n  jump\t// in\ntag_99:\n    /* \"#utility.yul\":5322:5361   */\n  tag_100\n    /* \"#utility.yul\":5352:5360   */\n  dup7\n    /* \"#utility.yul\":5341:5350   */\n  dup4\n    /* \"#utility.yul\":5322:5361   */\n  tag_30\n  jump\t// in\ntag_100:\n    /* \"#utility.yul\":5310:5361   */\n  swap6\n  pop\n    /* \"#utility.yul\":5394:5398   */\n  dup1\n    /* \"#utility.yul\":5390:5399   */\n  not\n    /* \"#utility.yul\":5383:5388   */\n  dup5\n    /* \"#utility.yul\":5379:5400   */\n  and\n    /* \"#utility.yul\":5370:5400   */\n  swap4\n  pop\n    /* \"#utility.yul\":5443:5447   */\n  dup1\n    /* \"#utility.yul\":5433:5441   */\n  dup7\n    /* \"#utility.yul\":5429:5448   */\n  and\n    /* \"#utility.yul\":5422:5427   */\n  dup5\n    /* \"#utility.yul\":5419:5449   */\n  or\n    /* \"#utility.yul\":5409:5449   */\n  swap3\n  pop\n    /* \"#utility.yul\":5138:5455   */\n  pop\n  pop\n    /* \"#utility.yul\":5062:5455   */\n  swap4\n  swap3\n  pop\n  pop\n  pop\n  jump\t// out\n    /* \"#utility.yul\":5461:5521   */\ntag_32:\n    /* \"#utility.yul\":5489:5492   */\n  0x00\n    /* \"#utility.yul\":5510:5515   */\n  dup2\n    /* \"#utility.yul\":5503:5515   */\n  swap1\n  pop\n    /* \"#utility.yul\":5461:5521   */\n  swap2\n  swap1\n  pop\n  jump\t// out\n    /* \"#utility.yul\":5527:5669   */\ntag_33:\n    /* \"#utility.yul\":5577:5586   */\n  0x00\n    /* \"#utility.yul\":5610:5663   */\n  tag_103\n    /* \"#utility.yul\":5628:5662   */\n  tag_104\n    /* \"#utility.yul\":5637:5661   */\n  tag_105\n    /* \"#utility.yul\":5655:5660   */\n  dup5\n    /* \"#utility.yul\":5637:5661   */\n  tag_22\n  jump\t// in\ntag_105:\n    /* \"#utility.yul\":5628:5662   */\n  tag_32\n  jump\t// in\ntag_104:\n    /* \"#utility.yul\":5610:5663   */\n  tag_22\n  jump\t// in\ntag_103:\n    /* \"#utility.yul\":5597:5663   */\n  swap1\n  pop\n    /* \"#utility.yul\":5527:5669   */\n  swap2\n  swap1\n  pop\n  jump\t// out\n    /* \"#utility.yul\":5675:5750   */\ntag_34:\n    /* \"#utility.yul\":5718:5721   */\n  0x00\n    /* \"#utility.yul\":5739:5744   */\n  dup2\n    /* \"#utility.yul\":5732:5744   */\n  swap1\n  pop\n    /* \"#utility.yul\":5675:5750   */\n  swap2\n  swap1\n  pop\n  jump\t// out\n    /* \"#utility.yul\":5756:6025   */\ntag_35:\n    /* \"#utility.yul\":5866:5905   */\n  tag_108\n    /* \"#utility.yul\":5897:5904   */\n  dup4\n    /* \"#utility.yul\":5866:5905   */\n  tag_33\n  jump\t// in\ntag_108:\n    /* \"#utility.yul\":5927:6018   */\n  tag_109\n    /* \"#utility.yul\":5976:6017   */\n  tag_110\n    /* \"#utility.yul\":6000:6016   */\n  dup3\n    /* \"#utility.yul\":5976:6017   */\n  tag_34\n  jump\t// in\ntag_110:\n    /* \"#utility.yul\":5968:5974   */\n  dup5\n    /* \"#utility.yul\":5961:5965   */\n  dup5\n    /* \"#utility.yul\":5955:5966   */\n  sload\n    /* \"#utility.yul\":5927:6018   */\n  tag_31\n  jump\t// in\ntag_109:\n    /* \"#utility.yul\":5921:5925   */\n  dup3\n    /* \"#utility.yul\":5914:6019   */\n  sstore\n    /* \"#utility.yul\":5832:6025   */\n  pop\n    /* \"#utility.yul\":5756:6025   */\n  pop\n  pop\n  pop\n  jump\t// out\n    /* \"#utility.yul\":6031:6104   */\ntag_36:\n    /* \"#utility.yul\":6076:6079   */\n  0x00\n    /* \"#utility.yul\":6031:6104   */\n  swap1\n  jump\t// out\n    /* \"#utility.yul\":6110:6299   */\ntag_37:\n    /* \"#utility.yul\":6187:6219   */\n  tag_113\n  tag_36\n  jump\t// in\ntag_113:\n    /* \"#utility.yul\":6228:6293   */\n  tag_114\n    /* \"#utility.yul\":6286:6292   */\n  dup2\n    /* \"#utility.yul\":6278:6284   */\n  dup5\n    /* \"#utility.yul\":6272:6276   */\n  dup5\n    /* \"#utility.yul\":6228:6293   */\n  tag_35\n  jump\t// in\ntag_114:\n    /* \"#utility.yul\":6163:6299   */\n  pop\n    /* \"#utility.yul\":6110:6299   */\n  pop\n  pop\n  jump\t// out\n    /* \"#utility.yul\":6305:6491   */\ntag_38:\n    /* \"#utility.yul\":6365:6485   */\ntag_116:\n    /* \"#utility.yul\":6382:6385   */\n  dup2\n    /* \"#utility.yul\":6375:6380   */\n  dup2\n    /* \"#utility.yul\":6372:6386   */\n  lt\n    /* \"#utility.yul\":6365:6485   */\n  iszero\n  tag_118\n  jumpi\n    /* \"#utility.yul\":6436:6475   */\n  tag_119\n    /* \"#utility.yul\":6473:6474   */\n  0x00\n    /* \"#utility.yul\":6466:6471   */\n  dup3\n    /* \"#utility.yul\":6436:6475   */\n  tag_37\n  jump\t// in\ntag_119:\n    /* \"#utility.yul\":6409:6410   */\n  0x01\n    /* \"#utility.yul\":6402:6407   */\n  dup2\n    /* \"#utility.yul\":6398:6411   */\n  add\n    /* \"#utility.yul\":6389:6411   */\n  swap1\n  pop\n    /* \"#utility.yul\":6365:6485   */\n  jump(tag_116)\ntag_118:\n    /* \"#utility.yul\":6305:6491   */\n  pop\n  pop\n  jump\t// out\n    /* \"#utility.yul\":6497:7040   */\ntag_39:\n    /* \"#utility.yul\":6598:6600   */\n  0x1f\n    /* \"#utility.yul\":6593:6596   */\n  dup3\n    /* \"#utility.yul\":6590:6601   */\n  gt\n    /* \"#utility.yul\":6587:7033   */\n  iszero\n  tag_121\n  jumpi\n    /* \"#utility.yul\":6632:6670   */\n  tag_122\n    /* \"#utility.yul\":6664:6669   */\n  dup2\n    /* \"#utility.yul\":6632:6670   */\n  tag_28\n  jump\t// in\ntag_122:\n    /* \"#utility.yul\":6716:6745   */\n  tag_123\n    /* \"#utility.yul\":6734:6744   */\n  dup5\n    /* \"#utility.yul\":6716:6745   */\n  tag_29\n  jump\t// in\ntag_123:\n    /* \"#utility.yul\":6706:6714   */\n  dup2\n    /* \"#utility.yul\":6702:6746   */\n  add\n    /* \"#utility.yul\":6899:6901   */\n  0x20\n    /* \"#utility.yul\":6887:6897   */\n  dup6\n    /* \"#utility.yul\":6884:6902   */\n  lt\n    /* \"#utility.yul\":6881:6930   */\n  iszero\n  tag_124\n  jumpi\n    /* \"#utility.yul\":6920:6928   */\n  dup2\n    /* \"#utility.yul\":6905:6928   */\n  swap1\n  pop\n    /* \"#utility.yul\":6881:6930   */\ntag_124:\n    /* \"#utility.yul\":6943:7023   */\n  tag_125\n    /* \"#utility.yul\":6999:7021   */\n  tag_126\n    /* \"#utility.yul\":7017:7020   */\n  dup6\n    /* \"#utility.yul\":6999:7021   */\n  tag_29\n  jump\t// in\ntag_126:\n    /* \"#utility.yul\":6989:6997   */\n  dup4\n    /* \"#utility.yul\":6985:7022   */\n  add\n    /* \"#utility.yul\":6972:6983   */\n  dup3\n    /* \"#utility.yul\":6943:7023   */\n  tag_38\n  jump\t// in\ntag_125:\n    /* \"#utility.yul\":6602:7033   */\n  pop\n  pop\n    /* \"#utility.yul\":6587:7033   */\ntag_121:\n    /* \"#utility.yul\":6497:7040   */\n  pop\n  pop\n  pop\n  jump\t// out\n    /* \"#utility.yul\":7046:7163   */\ntag_40:\n    /* \"#utility.yul\":7100:7108   */\n  0x00\n    /* \"#utility.yul\":7150:7155   */\n  dup3\n    /* \"#utility.yul\":7144:7148   */\n  dup3\n    /* \"#utility.yul\":7140:7156   */\n  shr\n    /* \"#utility.yul\":7119:7156   */\n  swap1\n  pop\n    /* \"#utility.yul\":7046:7163   */\n  swap3\n  swap2\n  pop\n  pop\n  jump\t// out\n    /* \"#utility.yul\":7169:7338   */\ntag_41:\n    /* \"#utility.yul\":7213:7219   */\n  0x00\n    /* \"#utility.yul\":7246:7297   */\n  tag_129\n    /* \"#utility.yul\":7294:7295   */\n  0x00\n    /* \"#utility.yul\":7290:7296   */\n  not\n    /* \"#utility.yul\":7282:7287   */\n  dup5\n    /* \"#utility.yul\":7279:7280   */\n  0x08\n    /* \"#utility.yul\":7275:7288   */\n  mul\n    /* \"#utility.yul\":7246:7297   */\n  tag_40\n  jump\t// in\ntag_129:\n    /* \"#utility.yul\":7242:7298   */\n  not\n    /* \"#utility.yul\":7327:7331   */\n  dup1\n    /* \"#utility.yul\":7321:7325   */\n  dup4\n    /* \"#utility.yul\":7317:7332   */\n  and\n    /* \"#utility.yul\":7307:7332   */\n  swap2\n  pop\n    /* \"#utility.yul\":7220:7338   */\n  pop\n    /* \"#utility.yul\":7169:7338   */\n  swap3\n  swap2\n  pop\n  pop\n  jump\t// out\n    /* \"#utility.yul\":7343:7638   */\ntag_42:\n    /* \"#utility.yul\":7419:7423   */\n  0x00\n    /* \"#utility.yul\":7565:7594   */\n  tag_131\n    /* \"#utility.yul\":7590:7593   */\n  dup4\n    /* \"#utility.yul\":7584:7588   */\n  dup4\n    /* \"#utility.yul\":7565:7594   */\n  tag_41\n  jump\t// in\ntag_131:\n    /* \"#utility.yul\":7557:7594   */\n  swap2\n  pop\n    /* \"#utility.yul\":7627:7630   */\n  dup3\n    /* \"#utility.yul\":7624:7625   */\n  0x02\n    /* \"#utility.yul\":7620:7631   */\n  mul\n    /* \"#utility.yul\":7614:7618   */\n  dup3\n    /* \"#utility.yul\":7611:7632   */\n  or\n    /* \"#utility.yul\":7603:7632   */\n  swap1\n  pop\n    /* \"#utility.yul\":7343:7638   */\n  swap3\n  swap2\n  pop\n  pop\n  jump\t// out\n    /* \"#utility.yul\":7643:9038   */\ntag_7:\n    /* \"#utility.yul\":7760:7797   */\n  tag_133\n    /* \"#utility.yul\":7793:7796   */\n  dup3\n    /* \"#utility.yul\":7760:7797   */\n  tag_25\n  jump\t// in\ntag_133:\n    /* \"#utility.yul\":7862:7880   */\n  0xffffffffffffffff\n    /* \"#utility.yul\":7854:7860   */\n  dup2\n    /* \"#utility.yul\":7851:7881   */\n  gt\n    /* \"#utility.yul\":7848:7904   */\n  iszero\n  tag_134\n  jumpi\n    /* \"#utility.yul\":7884:7902   */\n  tag_135\n  tag_15\n  jump\t// in\ntag_135:\n    /* \"#utility.yul\":7848:7904   */\ntag_134:\n    /* \"#utility.yul\":7928:7966   */\n  tag_136\n    /* \"#utility.yul\":7960:7964   */\n  dup3\n    /* \"#utility.yul\":7954:7965   */\n  sload\n    /* \"#utility.yul\":7928:7966   */\n  tag_27\n  jump\t// in\ntag_136:\n    /* \"#utility.yul\":8013:8080   */\n  tag_137\n    /* \"#utility.yul\":8073:8079   */\n  dup3\n    /* \"#utility.yul\":8065:8071   */\n  dup3\n    /* \"#utility.yul\":8059:8063   */\n  dup6\n    /* \"#utility.yul\":8013:8080   */\n  tag_39\n  jump\t// in\ntag_137:\n    /* \"#utility.yul\":8107:8108   */\n  0x00\n    /* \"#utility.yul\":8131:8135   */\n  0x20\n    /* \"#utility.yul\":8118:8135   */\n  swap1\n  pop\n    /* \"#utility.yul\":8163:8165   */\n  0x1f\n    /* \"#utility.yul\":8155:8161   */\n  dup4\n    /* \"#utility.yul\":8152:8166   */\n  gt\n    /* \"#utility.yul\":8180:8181   */\n  0x01\n    /* \"#utility.yul\":8175:8793   */\n  dup2\n  eq\n  tag_139\n  jumpi\n    /* \"#utility.yul\":8837:8838   */\n  0x00\n    /* \"#utility.yul\":8854:8860   */\n  dup5\n    /* \"#utility.yul\":8851:8928   */\n  iszero\n  tag_140\n  jumpi\n    /* \"#utility.yul\":8903:8912   */\n  dup3\n    /* \"#utility.yul\":8898:8901   */\n  dup8\n    /* \"#utility.yul\":8894:8913   */\n  add\n    /* \"#utility.yul\":8888:8914   */\n  mload\n    /* \"#utility.yul\":8879:8914   */\n  swap1\n  pop\n    /* \"#utility.yul\":8851:8928   */\ntag_140:\n    /* \"#utility.yul\":8954:9021   */\n  tag_141\n    /* \"#utility.yul\":9014:9020   */\n  dup6\n    /* \"#utility.yul\":9007:9012   */\n  dup3\n    /* \"#utility.yul\":8954:9021   */\n  tag_42\n  jump\t// in\ntag_141:\n    /* \"#utility.yul\":8948:8952   */\n  dup7\n    /* \"#utility.yul\":8941:9022   */\n  sstore\n    /* \"#utility.yul\":8810:9032   */\n  pop\n    /* \"#utility.yul\":8145:9032   */\n  jump(tag_138)\n    /* \"#utility.yul\":8175:8793   */\ntag_139:\n    /* \"#utility.yul\":8227:8231   */\n  0x1f\n    /* \"#utility.yul\":8223:8232   */\n  not\n    /* \"#utility.yul\":8215:8221   */\n  dup5\n    /* \"#utility.yul\":8211:8233   */\n  and\n    /* \"#utility.yul\":8261:8298   */\n  tag_142\n    /* \"#utility.yul\":8293:8297   */\n  dup7\n    /* \"#utility.yul\":8261:8298   */\n  tag_28\n  jump\t// in\ntag_142:\n    /* \"#utility.yul\":8320:8321   */\n  0x00\n    /* \"#utility.yul\":8334:8542   */\ntag_143:\n    /* \"#utility.yul\":8348:8355   */\n  dup3\n    /* \"#utility.yul\":8345:8346   */\n  dup2\n    /* \"#utility.yul\":8342:8356   */\n  lt\n    /* \"#utility.yul\":8334:8542   */\n  iszero\n  tag_145\n  jumpi\n    /* \"#utility.yul\":8427:8436   */\n  dup5\n    /* \"#utility.yul\":8422:8425   */\n  dup10\n    /* \"#utility.yul\":8418:8437   */\n  add\n    /* \"#utility.yul\":8412:8438   */\n  mload\n    /* \"#utility.yul\":8404:8410   */\n  dup3\n    /* \"#utility.yul\":8397:8439   */\n  sstore\n    /* \"#utility.yul\":8478:8479   */\n  0x01\n    /* \"#utility.yul\":8470:8476   */\n  dup3\n    /* \"#utility.yul\":8466:8480   */\n  add\n    /* \"#utility.yul\":8456:8480   */\n  swap2\n  pop\n    /* \"#utility.yul\":8525:8527   */\n  0x20\n    /* \"#utility.yul\":8514:8523   */\n  dup6\n    /* \"#utility.yul\":8510:8528   */\n  add\n    /* \"#utility.yul\":8497:8528   */\n  swap5\n  pop\n    /* \"#utility.yul\":8371:8375   */\n  0x20\n    /* \"#utility.yul\":8368:8369   */\n  dup2\n    /* \"#utility.yul\":8364:8376   */\n  add\n    /* \"#utility.yul\":8359:8376   */\n  swap1\n  pop\n    /* \"#utility.yul\":8334:8542   */\n  jump(tag_143)\ntag_145:\n    /* \"#utility.yul\":8570:8576   */\n  dup7\n    /* \"#utility.yul\":8561:8568   */\n  dup4\n    /* \"#utility.yul\":8558:8577   */\n  lt\n    /* \"#utility.yul\":8555:8734   */\n  iszero\n  tag_146\n  jumpi\n    /* \"#utility.yul\":8628:8637   */\n  dup5\n    /* \"#utility.yul\":8623:8626   */\n  dup10\n    /* \"#utility.yul\":8619:8638   */\n  add\n    /* \"#utility.yul\":8613:8639   */\n  mload\n    /* \"#utility.yul\":8671:8719   */\n  tag_147\n    /* \"#utility.yul\":8713:8717   */\n  0x1f\n    /* \"#utility.yul\":8705:8711   */\n  dup10\n    /* \"#utility.yul\":8701:8718   */\n  and\n    /* \"#utility.yul\":8690:8699   */\n  dup3\n    /* \"#utility.yul\":8671:8719   */\n  tag_41\n  jump\t// in\ntag_147:\n    /* \"#utility.yul\":8663:8669   */\n  dup4\n    /* \"#utility.yul\":8656:8720   */\n  sstore\n    /* \"#utility.yul\":8578:8734   */\n  pop\n    /* \"#utility.yul\":8555:8734   */\ntag_146:\n    /* \"#utility.yul\":8780:8781   */\n  0x01\n    /* \"#utility.yul\":8776:8777   */\n  0x02\n    /* \"#utility.yul\":8768:8774   */\n  dup9\n    /* \"#utility.yul\":8764:8778   */\n  mul\n    /* \"#utility.yul\":8760:8782   */\n  add\n    /* \"#utility.yul\":8754:8758   */\n  dup9\n    /* \"#utility.yul\":8747:8783   */\n  sstore\n    /* \"#utility.yul\":8182:8793   */\n  pop\n  pop\n  pop\n    /* \"#utility.yul\":8145:9032   */\ntag_138:\n  pop\n    /* \"#utility.yul\":7735:9038   */\n  pop\n  pop\n  pop\n    /* \"#utility.yul\":7643:9038   */\n  pop\n  pop\n  jump\t// out\n    /* \"6 \\xd0\\xb7\\xd0\\xb0\\xd0\\xbd\\xd1\\x8f\\xd1\\x82\\xd0\\xb8\\xd0\\xb5/Auction+.sol\":115:4633  contract Auction{... */\ntag_8:\n  mload(0x80)\n  codecopy(0x00, dataOffset(sub_0), dataSize(sub_0))\n  0x00\n  assignImmutable(\"0xd2f8f61201b2b11a78d6e866abc9c3db2ae8631fa656bfe5cb53668255367afb\")\n  return(0x00, dataSize(sub_0))\nstop\n\nsub_0: assembly {\n        /* \"6 \\xd0\\xb7\\xd0\\xb0\\xd0\\xbd\\xd1\\x8f\\xd1\\x82\\xd0\\xb8\\xd0\\xb5/Auction+.sol\":115:4633  contract Auction{... */\n      mstore(0x40, 0x80)\n      jumpi(tag_1, lt(calldatasize, 0x04))\n      shr(0xe0, calldataload(0x00))\n      dup1\n      0xb2b98ed2\n      gt\n      tag_21\n      jumpi\n      dup1\n      0xd295ebf0\n      gt\n      tag_22\n      jumpi\n      dup1\n      0xd295ebf0\n      eq\n      tag_16\n      jumpi\n      dup1\n      0xd8346cdf\n      eq\n      tag_17\n      jumpi\n      dup1\n      0xde4b1e42\n      eq\n      tag_18\n      jumpi\n      dup1\n      0xfc4a4a1e\n      eq\n      tag_19\n      jumpi\n      dup1\n      0xfc505be9\n      eq\n      tag_20\n      jumpi\n      jump(tag_1)\n    tag_22:\n      dup1\n      0xb2b98ed2\n      eq\n      tag_11\n      jumpi\n      dup1\n      0xbca93eba\n      eq\n      tag_12\n      jumpi\n      dup1\n      0xcbb12c2d\n      eq\n      tag_13\n      jumpi\n      dup1\n      0xd0b1bfd0\n      eq\n      tag_14\n      jumpi\n      dup1\n      0xd1ee49c2\n      eq\n      tag_15\n      jumpi\n      jump(tag_1)\n    tag_21:\n      dup1\n      0x6a7798ee\n      gt\n      tag_23\n      jumpi\n      dup1\n      0x6a7798ee\n      eq\n      tag_6\n      jumpi\n      dup1\n      0x6a7a67f0\n      eq\n      tag_7\n      jumpi\n      dup1\n      0x6e6452cb\n      eq\n      tag_8\n      jumpi\n      dup1\n      0x85d679f9\n      eq\n      tag_9\n      jumpi\n      dup1\n      0x8611e07b\n      eq\n      tag_10\n      jumpi\n      jump(tag_1)\n    tag_23:\n      dup1\n      0x0cbb94e0\n      eq\n      tag_2\n      jumpi\n      dup1\n      0x38699c7f\n      eq\n      tag_3\n      jumpi\n      dup1\n      0x54a8882d\n      eq\n      tag_4\n      jumpi\n      dup1\n      0x5d268629\n      eq\n      tag_5\n      jumpi\n    tag_1:\n      0x00\n      dup1\n      revert\n        /* \"6 \\xd0\\xb7\\xd0\\xb0\\xd0\\xbd\\xd1\\x8f\\xd1\\x82\\xd0\\xb8\\xd0\\xb5/Auction+.sol\":417:437  bool public HasEnded */\n    tag_2:\n      callvalue\n      dup1\n      iszero\n      tag_24\n      jumpi\n      0x00\n      dup1\n      revert\n    tag_24:\n      pop\n      tag_25\n      tag_26\n      jump\t// in\n    tag_25:\n      mload(0x40)\n      tag_27\n      swap2\n      swap1\n      tag_28\n      jump\t// in\n    tag_27:\n      mload(0x40)\n      dup1\n      swap2\n      sub\n      swap1\n      return\n        /* \"6 \\xd0\\xb7\\xd0\\xb0\\xd0\\xbd\\xd1\\x8f\\xd1\\x82\\xd0\\xb8\\xd0\\xb5/Auction+.sol\":301:325  uint public StartingCost */\n    tag_3:\n      callvalue\n      dup1\n      iszero\n      tag_29\n      jumpi\n      0x00\n      dup1\n      revert\n    tag_29:\n      pop\n      tag_30\n      tag_31\n      jump\t// in\n    tag_30:\n      mload(0x40)\n      tag_32\n      swap2\n      swap1\n      tag_33\n      jump\t// in\n    tag_32:\n      mload(0x40)\n      dup1\n      swap2\n      sub\n      swap1\n      return\n        /* \"6 \\xd0\\xb7\\xd0\\xb0\\xd0\\xbd\\xd1\\x8f\\xd1\\x82\\xd0\\xb8\\xd0\\xb5/Auction+.sol\":358:381  uint public CurrentCost */\n    tag_4:\n      callvalue\n      dup1\n      iszero\n      tag_34\n      jumpi\n      0x00\n      dup1\n      revert\n    tag_34:\n      pop\n      tag_35\n      tag_36\n      jump\t// in\n    tag_35:\n      mload(0x40)\n      tag_37\n      swap2\n      swap1\n      tag_33\n      jump\t// in\n    tag_37:\n      mload(0x40)\n      dup1\n      swap2\n      sub\n      swap1\n      return\n        /* \"6 \\xd0\\xb7\\xd0\\xb0\\xd0\\xbd\\xd1\\x8f\\xd1\\x82\\xd0\\xb8\\xd0\\xb5/Auction+.sol\":3986:4269  function Refund() public {... */\n    tag_5:\n      callvalue\n      dup1\n      iszero\n      tag_38\n      jumpi\n      0x00\n      dup1\n      revert\n    tag_38:\n      pop\n      tag_39\n      tag_40\n      jump\t// in\n    tag_39:\n      stop\n        /* \"6 \\xd0\\xb7\\xd0\\xb0\\xd0\\xbd\\xd1\\x8f\\xd1\\x82\\xd0\\xb8\\xd0\\xb5/Auction+.sol\":3561:3817  function EndAuction() public OnlyOwner {... */\n    tag_6:\n      callvalue\n      dup1\n      iszero\n      tag_41\n      jumpi\n      0x00\n      dup1\n      revert\n    tag_41:\n      pop\n      tag_42\n      tag_43\n      jump\t// in\n    tag_42:\n      stop\n        /* \"6 \\xd0\\xb7\\xd0\\xb0\\xd0\\xbd\\xd1\\x8f\\xd1\\x82\\xd0\\xb8\\xd0\\xb5/Auction+.sol\":174:192  string public Item */\n    tag_7:\n      callvalue\n      dup1\n      iszero\n      tag_44\n      jumpi\n      0x00\n      dup1\n      revert\n    tag_44:\n      pop\n      tag_45\n      tag_46\n      jump\t// in\n    tag_45:\n      mload(0x40)\n      tag_47\n      swap2\n      swap1\n      tag_48\n      jump\t// in\n    tag_47:\n      mload(0x40)\n      dup1\n      swap2\n      sub\n      swap1\n      return\n        /* \"6 \\xd0\\xb7\\xd0\\xb0\\xd0\\xbd\\xd1\\x8f\\xd1\\x82\\xd0\\xb8\\xd0\\xb5/Auction+.sol\":2036:2756  function Bid() public payable {... */\n    tag_8:\n      tag_49\n      tag_50\n      jump\t// in\n    tag_49:\n      stop\n        /* \"6 \\xd0\\xb7\\xd0\\xb0\\xd0\\xbd\\xd1\\x8f\\xd1\\x82\\xd0\\xb8\\xd0\\xb5/Auction+.sol\":3217:3421  function GetItem() public view returns (string memory){... */\n    tag_9:\n      callvalue\n      dup1\n      iszero\n      tag_51\n      jumpi\n      0x00\n      dup1\n      revert\n    tag_51:\n      pop\n      tag_52\n      tag_53\n      jump\t// in\n    tag_52:\n      mload(0x40)\n      tag_54\n      swap2\n      swap1\n      tag_48\n      jump\t// in\n    tag_54:\n      mload(0x40)\n      dup1\n      swap2\n      sub\n      swap1\n      return\n        /* \"6 \\xd0\\xb7\\xd0\\xb0\\xd0\\xbd\\xd1\\x8f\\xd1\\x82\\xd0\\xb8\\xd0\\xb5/Auction+.sol\":332:351  uint public BidStep */\n    tag_10:\n      callvalue\n      dup1\n      iszero\n      tag_55\n      jumpi\n      0x00\n      dup1\n      revert\n    tag_55:\n      pop\n      tag_56\n      tag_57\n      jump\t// in\n    tag_56:\n      mload(0x40)\n      tag_58\n      swap2\n      swap1\n      tag_33\n      jump\t// in\n    tag_58:\n      mload(0x40)\n      dup1\n      swap2\n      sub\n      swap1\n      return\n        /* \"6 \\xd0\\xb7\\xd0\\xb0\\xd0\\xbd\\xd1\\x8f\\xd1\\x82\\xd0\\xb8\\xd0\\xb5/Auction+.sol\":273:294  address public Winner */\n    tag_11:\n      callvalue\n      dup1\n      iszero\n      tag_59\n      jumpi\n      0x00\n      dup1\n      revert\n    tag_59:\n      pop\n      tag_60\n      tag_61\n      jump\t// in\n    tag_60:\n      mload(0x40)\n      tag_62\n      swap2\n      swap1\n      tag_63\n      jump\t// in\n    tag_62:\n      mload(0x40)\n      dup1\n      swap2\n      sub\n      swap1\n      return\n        /* \"6 \\xd0\\xb7\\xd0\\xb0\\xd0\\xbd\\xd1\\x8f\\xd1\\x82\\xd0\\xb8\\xd0\\xb5/Auction+.sol\":199:230  address public immutable SELLER */\n    tag_12:\n      callvalue\n      dup1\n      iszero\n      tag_64\n      jumpi\n      0x00\n      dup1\n      revert\n    tag_64:\n      pop\n      tag_65\n      tag_66\n      jump\t// in\n    tag_65:\n      mload(0x40)\n      tag_67\n      swap2\n      swap1\n      tag_63\n      jump\t// in\n    tag_67:\n      mload(0x40)\n      dup1\n      swap2\n      sub\n      swap1\n      return\n        /* \"6 \\xd0\\xb7\\xd0\\xb0\\xd0\\xbd\\xd1\\x8f\\xd1\\x82\\xd0\\xb8\\xd0\\xb5/Auction+.sol\":472:492  uint public StepTime */\n    tag_13:\n      callvalue\n      dup1\n      iszero\n      tag_68\n      jumpi\n      0x00\n      dup1\n      revert\n    tag_68:\n      pop\n      tag_69\n      tag_70\n      jump\t// in\n    tag_69:\n      mload(0x40)\n      tag_71\n      swap2\n      swap1\n      tag_33\n      jump\t// in\n    tag_71:\n      mload(0x40)\n      dup1\n      swap2\n      sub\n      swap1\n      return\n        /* \"6 \\xd0\\xb7\\xd0\\xb0\\xd0\\xbd\\xd1\\x8f\\xd1\\x82\\xd0\\xb8\\xd0\\xb5/Auction+.sol\":568:605  uint public CurrentParticipantsAmount */\n    tag_14:\n      callvalue\n      dup1\n      iszero\n      tag_72\n      jumpi\n      0x00\n      dup1\n      revert\n    tag_72:\n      pop\n      tag_73\n      tag_74\n      jump\t// in\n    tag_73:\n      mload(0x40)\n      tag_75\n      swap2\n      swap1\n      tag_33\n      jump\t// in\n    tag_75:\n      mload(0x40)\n      dup1\n      swap2\n      sub\n      swap1\n      return\n        /* \"6 \\xd0\\xb7\\xd0\\xb0\\xd0\\xbd\\xd1\\x8f\\xd1\\x82\\xd0\\xb8\\xd0\\xb5/Auction+.sol\":4529:4630  function GetBidHistory() public view returns (BidRecord[] memory){... */\n    tag_15:\n      callvalue\n      dup1\n      iszero\n      tag_76\n      jumpi\n      0x00\n      dup1\n      revert\n    tag_76:\n      pop\n      tag_77\n      tag_78\n      jump\t// in\n    tag_77:\n      mload(0x40)\n      tag_79\n      swap2\n      swap1\n      tag_80\n      jump\t// in\n    tag_79:\n      mload(0x40)\n      dup1\n      swap2\n      sub\n      swap1\n      return\n        /* \"6 \\xd0\\xb7\\xd0\\xb0\\xd0\\xbd\\xd1\\x8f\\xd1\\x82\\xd0\\xb8\\xd0\\xb5/Auction+.sol\":1748:2028  function StartAuction() public OnlyOwner {... */\n    tag_16:\n      callvalue\n      dup1\n      iszero\n      tag_81\n      jumpi\n      0x00\n      dup1\n      revert\n    tag_81:\n      pop\n      tag_82\n      tag_83\n      jump\t// in\n    tag_82:\n      stop\n        /* \"6 \\xd0\\xb7\\xd0\\xb0\\xd0\\xbd\\xd1\\x8f\\xd1\\x82\\xd0\\xb8\\xd0\\xb5/Auction+.sol\":1502:1740  function GetPermission(address account) public OnlyOwner {... */\n    tag_17:\n      callvalue\n      dup1\n      iszero\n      tag_84\n      jumpi\n      0x00\n      dup1\n      revert\n    tag_84:\n      pop\n      tag_85\n      0x04\n      dup1\n      calldatasize\n      sub\n      dup2\n      add\n      swap1\n      tag_86\n      swap2\n      swap1\n      tag_87\n      jump\t// in\n    tag_86:\n      tag_88\n      jump\t// in\n    tag_85:\n      stop\n        /* \"6 \\xd0\\xb7\\xd0\\xb0\\xd0\\xbd\\xd1\\x8f\\xd1\\x82\\xd0\\xb8\\xd0\\xb5/Auction+.sol\":534:561  uint public MaxParticipants */\n    tag_18:\n      callvalue\n      dup1\n      iszero\n      tag_89\n      jumpi\n      0x00\n      dup1\n      revert\n    tag_89:\n      pop\n      tag_90\n      tag_91\n      jump\t// in\n    tag_90:\n      mload(0x40)\n      tag_92\n      swap2\n      swap1\n      tag_33\n      jump\t// in\n    tag_92:\n      mload(0x40)\n      dup1\n      swap2\n      sub\n      swap1\n      return\n        /* \"6 \\xd0\\xb7\\xd0\\xb0\\xd0\\xbd\\xd1\\x8f\\xd1\\x82\\xd0\\xb8\\xd0\\xb5/Auction+.sol\":444:465  uint public StartTime */\n    tag_19:\n      callvalue\n      dup1\n      iszero\n      tag_93\n      jumpi\n      0x00\n      dup1\n      revert\n    tag_93:\n      pop\n      tag_94\n      tag_95\n      jump\t// in\n    tag_94:\n      mload(0x40)\n      tag_96\n      swap2\n      swap1\n      tag_33\n      jump\t// in\n    tag_96:\n      mload(0x40)\n      dup1\n      swap2\n      sub\n      swap1\n      return\n        /* \"6 \\xd0\\xb7\\xd0\\xb0\\xd0\\xbd\\xd1\\x8f\\xd1\\x82\\xd0\\xb8\\xd0\\xb5/Auction+.sol\":388:410  bool public HasStarted */\n    tag_20:\n      callvalue\n      dup1\n      iszero\n      tag_97\n      jumpi\n      0x00\n      dup1\n      revert\n    tag_97:\n      pop\n      tag_98\n      tag_99\n      jump\t// in\n    tag_98:\n      mload(0x40)\n      tag_100\n      swap2\n      swap1\n      tag_28\n      jump\t// in\n    tag_100:\n      mload(0x40)\n      dup1\n      swap2\n      sub\n      swap1\n      return\n        /* \"6 \\xd0\\xb7\\xd0\\xb0\\xd0\\xbd\\xd1\\x8f\\xd1\\x82\\xd0\\xb8\\xd0\\xb5/Auction+.sol\":417:437  bool public HasEnded */\n    tag_26:\n      0x06\n      0x01\n      swap1\n      sload\n      swap1\n      0x0100\n      exp\n      swap1\n      div\n      0xff\n      and\n      dup2\n      jump\t// out\n        /* \"6 \\xd0\\xb7\\xd0\\xb0\\xd0\\xbd\\xd1\\x8f\\xd1\\x82\\xd0\\xb8\\xd0\\xb5/Auction+.sol\":301:325  uint public StartingCost */\n    tag_31:\n      sload(0x03)\n      dup2\n      jump\t// out\n        /* \"6 \\xd0\\xb7\\xd0\\xb0\\xd0\\xbd\\xd1\\x8f\\xd1\\x82\\xd0\\xb8\\xd0\\xb5/Auction+.sol\":358:381  uint public CurrentCost */\n    tag_36:\n      sload(0x05)\n      dup2\n      jump\t// out\n        /* \"6 \\xd0\\xb7\\xd0\\xb0\\xd0\\xbd\\xd1\\x8f\\xd1\\x82\\xd0\\xb8\\xd0\\xb5/Auction+.sol\":3986:4269  function Refund() public {... */\n    tag_40:\n        /* \"6 \\xd0\\xb7\\xd0\\xb0\\xd0\\xbd\\xd1\\x8f\\xd1\\x82\\xd0\\xb8\\xd0\\xb5/Auction+.sol\":4030:4038  HasEnded */\n      0x06\n      0x01\n      swap1\n      sload\n      swap1\n      0x0100\n      exp\n      swap1\n      div\n      0xff\n      and\n        /* \"6 \\xd0\\xb7\\xd0\\xb0\\xd0\\xbd\\xd1\\x8f\\xd1\\x82\\xd0\\xb8\\xd0\\xb5/Auction+.sol\":4022:4073  require(HasEnded, \"The auction has not ended yet.\") */\n      tag_102\n      jumpi\n      mload(0x40)\n      0x08c379a000000000000000000000000000000000000000000000000000000000\n      dup2\n      mstore\n      0x04\n      add\n      tag_103\n      swap1\n      tag_104\n      jump\t// in\n    tag_103:\n      mload(0x40)\n      dup1\n      swap2\n      sub\n      swap1\n      revert\n    tag_102:\n        /* \"6 \\xd0\\xb7\\xd0\\xb0\\xd0\\xbd\\xd1\\x8f\\xd1\\x82\\xd0\\xb8\\xd0\\xb5/Auction+.sol\":4106:4112  Winner */\n      0x02\n      0x00\n      swap1\n      sload\n      swap1\n      0x0100\n      exp\n      swap1\n      div\n      0xffffffffffffffffffffffffffffffffffffffff\n      and\n        /* \"6 \\xd0\\xb7\\xd0\\xb0\\xd0\\xbd\\xd1\\x8f\\xd1\\x82\\xd0\\xb8\\xd0\\xb5/Auction+.sol\":4092:4112  msg.sender != Winner */\n      0xffffffffffffffffffffffffffffffffffffffff\n      and\n        /* \"6 \\xd0\\xb7\\xd0\\xb0\\xd0\\xbd\\xd1\\x8f\\xd1\\x82\\xd0\\xb8\\xd0\\xb5/Auction+.sol\":4092:4102  msg.sender */\n      caller\n        /* \"6 \\xd0\\xb7\\xd0\\xb0\\xd0\\xbd\\xd1\\x8f\\xd1\\x82\\xd0\\xb8\\xd0\\xb5/Auction+.sol\":4092:4112  msg.sender != Winner */\n      0xffffffffffffffffffffffffffffffffffffffff\n      and\n      sub\n        /* \"6 \\xd0\\xb7\\xd0\\xb0\\xd0\\xbd\\xd1\\x8f\\xd1\\x82\\xd0\\xb8\\xd0\\xb5/Auction+.sol\":4084:4142  require(msg.sender != Winner, \"The winner cannot refund.\") */\n      tag_105\n      jumpi\n      mload(0x40)\n      0x08c379a000000000000000000000000000000000000000000000000000000000\n      dup2\n      mstore\n      0x04\n      add\n      tag_106\n      swap1\n      tag_107\n      jump\t// in\n    tag_106:\n      mload(0x40)\n      dup1\n      swap2\n      sub\n      swap1\n      revert\n    tag_105:\n        /* \"6 \\xd0\\xb7\\xd0\\xb0\\xd0\\xbd\\xd1\\x8f\\xd1\\x82\\xd0\\xb8\\xd0\\xb5/Auction+.sol\":4153:4164  uint amount */\n      0x00\n        /* \"6 \\xd0\\xb7\\xd0\\xb0\\xd0\\xbd\\xd1\\x8f\\xd1\\x82\\xd0\\xb8\\xd0\\xb5/Auction+.sol\":4167:4171  Bids */\n      0x0d\n        /* \"6 \\xd0\\xb7\\xd0\\xb0\\xd0\\xbd\\xd1\\x8f\\xd1\\x82\\xd0\\xb8\\xd0\\xb5/Auction+.sol\":4167:4183  Bids[msg.sender] */\n      0x00\n        /* \"6 \\xd0\\xb7\\xd0\\xb0\\xd0\\xbd\\xd1\\x8f\\xd1\\x82\\xd0\\xb8\\xd0\\xb5/Auction+.sol\":4172:4182  msg.sender */\n      caller\n        /* \"6 \\xd0\\xb7\\xd0\\xb0\\xd0\\xbd\\xd1\\x8f\\xd1\\x82\\xd0\\xb8\\xd0\\xb5/Auction+.sol\":4167:4183  Bids[msg.sender] */\n      0xffffffffffffffffffffffffffffffffffffffff\n      and\n      0xffffffffffffffffffffffffffffffffffffffff\n      and\n      dup2\n      mstore\n      0x20\n      add\n      swap1\n      dup2\n      mstore\n      0x20\n      add\n      0x00\n      keccak256\n      sload\n        /* \"6 \\xd0\\xb7\\xd0\\xb0\\xd0\\xbd\\xd1\\x8f\\xd1\\x82\\xd0\\xb8\\xd0\\xb5/Auction+.sol\":4153:4183  uint amount = Bids[msg.sender] */\n      swap1\n      pop\n        /* \"6 \\xd0\\xb7\\xd0\\xb0\\xd0\\xbd\\xd1\\x8f\\xd1\\x82\\xd0\\xb8\\xd0\\xb5/Auction+.sol\":4213:4214  0 */\n      0x00\n        /* \"6 \\xd0\\xb7\\xd0\\xb0\\xd0\\xbd\\xd1\\x8f\\xd1\\x82\\xd0\\xb8\\xd0\\xb5/Auction+.sol\":4194:4198  Bids */\n      0x0d\n        /* \"6 \\xd0\\xb7\\xd0\\xb0\\xd0\\xbd\\xd1\\x8f\\xd1\\x82\\xd0\\xb8\\xd0\\xb5/Auction+.sol\":4194:4210  Bids[msg.sender] */\n      0x00\n        /* \"6 \\xd0\\xb7\\xd0\\xb0\\xd0\\xbd\\xd1\\x8f\\xd1\\x82\\xd0\\xb8\\xd0\\xb5/Auction+.sol\":4199:4209  msg.sender */\n      caller\n        /* \"6 \\xd0\\xb7\\xd0\\xb0\\xd0\\xbd\\xd1\\x8f\\xd1\\x82\\xd0\\xb8\\xd0\\xb5/Auction+.sol\":4194:4210  Bids[msg.sender] */\n      0xffffffffffffffffffffffffffffffffffffffff\n      and\n      0xffffffffffffffffffffffffffffffffffffffff\n      and\n      dup2\n      mstore\n      0x20\n      add\n      swap1\n      dup2\n      mstore\n      0x20\n      add\n      0x00\n      keccak256\n        /* \"6 \\xd0\\xb7\\xd0\\xb0\\xd0\\xbd\\xd1\\x8f\\xd1\\x82\\xd0\\xb8\\xd0\\xb5/Auction+.sol\":4194:4214  Bids[msg.sender] = 0 */\n      dup2\n      swap1\n      sstore\n      pop\n        /* \"6 \\xd0\\xb7\\xd0\\xb0\\xd0\\xbd\\xd1\\x8f\\xd1\\x82\\xd0\\xb8\\xd0\\xb5/Auction+.sol\":4233:4243  msg.sender */\n      caller\n        /* \"6 \\xd0\\xb7\\xd0\\xb0\\xd0\\xbd\\xd1\\x8f\\xd1\\x82\\xd0\\xb8\\xd0\\xb5/Auction+.sol\":4225:4253  payable(msg.sender).transfer */\n      0xffffffffffffffffffffffffffffffffffffffff\n      and\n        /* \"6 \\xd0\\xb7\\xd0\\xb0\\xd0\\xbd\\xd1\\x8f\\xd1\\x82\\xd0\\xb8\\xd0\\xb5/Auction+.sol\":4225:4261  payable(msg.sender).transfer(amount) */\n      0x08fc\n        /* \"6 \\xd0\\xb7\\xd0\\xb0\\xd0\\xbd\\xd1\\x8f\\xd1\\x82\\xd0\\xb8\\xd0\\xb5/Auction+.sol\":4254:4260  amount */\n      dup3\n        /* \"6 \\xd0\\xb7\\xd0\\xb0\\xd0\\xbd\\xd1\\x8f\\xd1\\x82\\xd0\\xb8\\xd0\\xb5/Auction+.sol\":4225:4261  payable(msg.sender).transfer(amount) */\n      swap1\n      dup2\n      iszero\n      mul\n      swap1\n      mload(0x40)\n      0x00\n      mload(0x40)\n      dup1\n      dup4\n      sub\n      dup2\n      dup6\n      dup9\n      dup9\n      call\n      swap4\n      pop\n      pop\n      pop\n      pop\n      iszero\n      dup1\n      iszero\n      tag_109\n      jumpi\n      returndatasize\n      0x00\n      dup1\n      returndatacopy\n      revert(0x00, returndatasize)\n    tag_109:\n      pop\n        /* \"6 \\xd0\\xb7\\xd0\\xb0\\xd0\\xbd\\xd1\\x8f\\xd1\\x82\\xd0\\xb8\\xd0\\xb5/Auction+.sol\":4011:4269  {... */\n      pop\n        /* \"6 \\xd0\\xb7\\xd0\\xb0\\xd0\\xbd\\xd1\\x8f\\xd1\\x82\\xd0\\xb8\\xd0\\xb5/Auction+.sol\":3986:4269  function Refund() public {... */\n      jump\t// out\n        /* \"6 \\xd0\\xb7\\xd0\\xb0\\xd0\\xbd\\xd1\\x8f\\xd1\\x82\\xd0\\xb8\\xd0\\xb5/Auction+.sol\":3561:3817  function EndAuction() public OnlyOwner {... */\n    tag_43:\n        /* \"6 \\xd0\\xb7\\xd0\\xb0\\xd0\\xbd\\xd1\\x8f\\xd1\\x82\\xd0\\xb8\\xd0\\xb5/Auction+.sol\":1189:1195  SELLER */\n      immutable(\"0xd2f8f61201b2b11a78d6e866abc9c3db2ae8631fa656bfe5cb53668255367afb\")\n        /* \"6 \\xd0\\xb7\\xd0\\xb0\\xd0\\xbd\\xd1\\x8f\\xd1\\x82\\xd0\\xb8\\xd0\\xb5/Auction+.sol\":1175:1195  msg.sender == SELLER */\n      0xffffffffffffffffffffffffffffffffffffffff\n      and\n        /* \"6 \\xd0\\xb7\\xd0\\xb0\\xd0\\xbd\\xd1\\x8f\\xd1\\x82\\xd0\\xb8\\xd0\\xb5/Auction+.sol\":1175:1185  msg.sender */\n      caller\n        /* \"6 \\xd0\\xb7\\xd0\\xb0\\xd0\\xbd\\xd1\\x8f\\xd1\\x82\\xd0\\xb8\\xd0\\xb5/Auction+.sol\":1175:1195  msg.sender == SELLER */\n      0xffffffffffffffffffffffffffffffffffffffff\n      and\n      eq\n        /* \"6 \\xd0\\xb7\\xd0\\xb0\\xd0\\xbd\\xd1\\x8f\\xd1\\x82\\xd0\\xb8\\xd0\\xb5/Auction+.sol\":1167:1223  require(msg.sender == SELLER, \"You are not the seller.\") */\n      tag_111\n      jumpi\n      mload(0x40)\n      0x08c379a000000000000000000000000000000000000000000000000000000000\n      dup2\n      mstore\n      0x04\n      add\n      tag_112\n      swap1\n      tag_113\n      jump\t// in\n    tag_112:\n      mload(0x40)\n      dup1\n      swap2\n      sub\n      swap1\n      revert\n    tag_111:\n        /* \"6 \\xd0\\xb7\\xd0\\xb0\\xd0\\xbd\\xd1\\x8f\\xd1\\x82\\xd0\\xb8\\xd0\\xb5/Auction+.sol\":3619:3629  HasStarted */\n      0x06\n      0x00\n      swap1\n      sload\n      swap1\n      0x0100\n      exp\n      swap1\n      div\n      0xff\n      and\n        /* \"6 \\xd0\\xb7\\xd0\\xb0\\xd0\\xbd\\xd1\\x8f\\xd1\\x82\\xd0\\xb8\\xd0\\xb5/Auction+.sol\":3611:3666  require(HasStarted, \"The auction has not started yet.\") */\n      tag_115\n      jumpi\n      mload(0x40)\n      0x08c379a000000000000000000000000000000000000000000000000000000000\n      dup2\n      mstore\n      0x04\n      add\n      tag_116\n      swap1\n      tag_117\n      jump\t// in\n    tag_116:\n      mload(0x40)\n      dup1\n      swap2\n      sub\n      swap1\n      revert\n    tag_115:\n        /* \"6 \\xd0\\xb7\\xd0\\xb0\\xd0\\xbd\\xd1\\x8f\\xd1\\x82\\xd0\\xb8\\xd0\\xb5/Auction+.sol\":3686:3694  HasEnded */\n      0x06\n      0x01\n      swap1\n      sload\n      swap1\n      0x0100\n      exp\n      swap1\n      div\n      0xff\n      and\n        /* \"6 \\xd0\\xb7\\xd0\\xb0\\xd0\\xbd\\xd1\\x8f\\xd1\\x82\\xd0\\xb8\\xd0\\xb5/Auction+.sol\":3685:3694  !HasEnded */\n      iszero\n        /* \"6 \\xd0\\xb7\\xd0\\xb0\\xd0\\xbd\\xd1\\x8f\\xd1\\x82\\xd0\\xb8\\xd0\\xb5/Auction+.sol\":3677:3729  require(!HasEnded, \"The auction has already ended.\") */\n      tag_118\n      jumpi\n      mload(0x40)\n      0x08c379a000000000000000000000000000000000000000000000000000000000\n      dup2\n      mstore\n      0x04\n      add\n      tag_119\n      swap1\n      tag_120\n      jump\t// in\n    tag_119:\n      mload(0x40)\n      dup1\n      swap2\n      sub\n      swap1\n      revert\n    tag_118:\n        /* \"6 \\xd0\\xb7\\xd0\\xb0\\xd0\\xbd\\xd1\\x8f\\xd1\\x82\\xd0\\xb8\\xd0\\xb5/Auction+.sol\":3751:3755  true */\n      0x01\n        /* \"6 \\xd0\\xb7\\xd0\\xb0\\xd0\\xbd\\xd1\\x8f\\xd1\\x82\\xd0\\xb8\\xd0\\xb5/Auction+.sol\":3740:3748  HasEnded */\n      0x06\n      0x01\n        /* \"6 \\xd0\\xb7\\xd0\\xb0\\xd0\\xbd\\xd1\\x8f\\xd1\\x82\\xd0\\xb8\\xd0\\xb5/Auction+.sol\":3740:3755  HasEnded = true */\n      0x0100\n      exp\n      dup2\n      sload\n      dup2\n      0xff\n      mul\n      not\n      and\n      swap1\n      dup4\n      iszero\n      iszero\n      mul\n      or\n      swap1\n      sstore\n      pop\n        /* \"6 \\xd0\\xb7\\xd0\\xb0\\xd0\\xbd\\xd1\\x8f\\xd1\\x82\\xd0\\xb8\\xd0\\xb5/Auction+.sol\":3775:3788  HighestBidder */\n      0x01\n      0x00\n      swap1\n      sload\n      swap1\n      0x0100\n      exp\n      swap1\n      div\n      0xffffffffffffffffffffffffffffffffffffffff\n      and\n        /* \"6 \\xd0\\xb7\\xd0\\xb0\\xd0\\xbd\\xd1\\x8f\\xd1\\x82\\xd0\\xb8\\xd0\\xb5/Auction+.sol\":3766:3772  Winner */\n      0x02\n      0x00\n        /* \"6 \\xd0\\xb7\\xd0\\xb0\\xd0\\xbd\\xd1\\x8f\\xd1\\x82\\xd0\\xb8\\xd0\\xb5/Auction+.sol\":3766:3788  Winner = HighestBidder */\n      0x0100\n      exp\n      dup2\n      sload\n      dup2\n      0xffffffffffffffffffffffffffffffffffffffff\n      mul\n      not\n      and\n      swap1\n      dup4\n      0xffffffffffffffffffffffffffffffffffffffff\n      and\n      mul\n      or\n      swap1\n      sstore\n      pop\n        /* \"6 \\xd0\\xb7\\xd0\\xb0\\xd0\\xbd\\xd1\\x8f\\xd1\\x82\\xd0\\xb8\\xd0\\xb5/Auction+.sol\":3799:3809  Withdraw() */\n      tag_121\n        /* \"6 \\xd0\\xb7\\xd0\\xb0\\xd0\\xbd\\xd1\\x8f\\xd1\\x82\\xd0\\xb8\\xd0\\xb5/Auction+.sol\":3799:3807  Withdraw */\n      tag_122\n        /* \"6 \\xd0\\xb7\\xd0\\xb0\\xd0\\xbd\\xd1\\x8f\\xd1\\x82\\xd0\\xb8\\xd0\\xb5/Auction+.sol\":3799:3809  Withdraw() */\n      jump\t// in\n    tag_121:\n      pop\n        /* \"6 \\xd0\\xb7\\xd0\\xb0\\xd0\\xbd\\xd1\\x8f\\xd1\\x82\\xd0\\xb8\\xd0\\xb5/Auction+.sol\":3561:3817  function EndAuction() public OnlyOwner {... */\n      jump\t// out\n        /* \"6 \\xd0\\xb7\\xd0\\xb0\\xd0\\xbd\\xd1\\x8f\\xd1\\x82\\xd0\\xb8\\xd0\\xb5/Auction+.sol\":174:192  string public Item */\n    tag_46:\n      0x00\n      dup1\n      sload\n      tag_123\n      swap1\n      tag_124\n      jump\t// in\n    tag_123:\n      dup1\n      0x1f\n      add\n      0x20\n      dup1\n      swap2\n      div\n      mul\n      0x20\n      add\n      mload(0x40)\n      swap1\n      dup2\n      add\n      0x40\n      mstore\n      dup1\n      swap3\n      swap2\n      swap1\n      dup2\n      dup2\n      mstore\n      0x20\n      add\n      dup3\n      dup1\n      sload\n      tag_125\n      swap1\n      tag_124\n      jump\t// in\n    tag_125:\n      dup1\n      iszero\n      tag_126\n      jumpi\n      dup1\n      0x1f\n      lt\n      tag_127\n      jumpi\n      0x0100\n      dup1\n      dup4\n      sload\n      div\n      mul\n      dup4\n      mstore\n      swap2\n      0x20\n      add\n      swap2\n      jump(tag_126)\n    tag_127:\n      dup3\n      add\n      swap2\n      swap1\n      0x00\n      mstore\n      keccak256(0x00, 0x20)\n      swap1\n    tag_128:\n      dup2\n      sload\n      dup2\n      mstore\n      swap1\n      0x01\n      add\n      swap1\n      0x20\n      add\n      dup1\n      dup4\n      gt\n      tag_128\n      jumpi\n      dup3\n      swap1\n      sub\n      0x1f\n      and\n      dup3\n      add\n      swap2\n    tag_126:\n      pop\n      pop\n      pop\n      pop\n      pop\n      dup2\n      jump\t// out\n        /* \"6 \\xd0\\xb7\\xd0\\xb0\\xd0\\xbd\\xd1\\x8f\\xd1\\x82\\xd0\\xb8\\xd0\\xb5/Auction+.sol\":2036:2756  function Bid() public payable {... */\n    tag_50:\n        /* \"6 \\xd0\\xb7\\xd0\\xb0\\xd0\\xbd\\xd1\\x8f\\xd1\\x82\\xd0\\xb8\\xd0\\xb5/Auction+.sol\":2086:2094  HasEnded */\n      0x06\n      0x01\n      swap1\n      sload\n      swap1\n      0x0100\n      exp\n      swap1\n      div\n      0xff\n      and\n        /* \"6 \\xd0\\xb7\\xd0\\xb0\\xd0\\xbd\\xd1\\x8f\\xd1\\x82\\xd0\\xb8\\xd0\\xb5/Auction+.sol\":2085:2094  !HasEnded */\n      iszero\n        /* \"6 \\xd0\\xb7\\xd0\\xb0\\xd0\\xbd\\xd1\\x8f\\xd1\\x82\\xd0\\xb8\\xd0\\xb5/Auction+.sol\":2077:2126  require(!HasEnded, \"The auction has been ended.\") */\n      tag_130\n      jumpi\n      mload(0x40)\n      0x08c379a000000000000000000000000000000000000000000000000000000000\n      dup2\n      mstore\n      0x04\n      add\n      tag_131\n      swap1\n      tag_132\n      jump\t// in\n    tag_131:\n      mload(0x40)\n      dup1\n      swap2\n      sub\n      swap1\n      revert\n    tag_130:\n        /* \"6 \\xd0\\xb7\\xd0\\xb0\\xd0\\xbd\\xd1\\x8f\\xd1\\x82\\xd0\\xb8\\xd0\\xb5/Auction+.sol\":2172:2176  true */\n      0x01\n        /* \"6 \\xd0\\xb7\\xd0\\xb0\\xd0\\xbd\\xd1\\x8f\\xd1\\x82\\xd0\\xb8\\xd0\\xb5/Auction+.sol\":2145:2176  Permissions[msg.sender] == true */\n      iszero\n      iszero\n        /* \"6 \\xd0\\xb7\\xd0\\xb0\\xd0\\xbd\\xd1\\x8f\\xd1\\x82\\xd0\\xb8\\xd0\\xb5/Auction+.sol\":2145:2156  Permissions */\n      0x0c\n        /* \"6 \\xd0\\xb7\\xd0\\xb0\\xd0\\xbd\\xd1\\x8f\\xd1\\x82\\xd0\\xb8\\xd0\\xb5/Auction+.sol\":2145:2168  Permissions[msg.sender] */\n      0x00\n        /* \"6 \\xd0\\xb7\\xd0\\xb0\\xd0\\xbd\\xd1\\x8f\\xd1\\x82\\xd0\\xb8\\xd0\\xb5/Auction+.sol\":2157:2167  msg.sender */\n      caller\n        /* \"6 \\xd0\\xb7\\xd0\\xb0\\xd0\\xbd\\xd1\\x8f\\xd1\\x82\\xd0\\xb8\\xd0\\xb5/Auction+.sol\":2145:2168  Permissions[msg.sender] */\n      0xffffffffffffffffffffffffffffffffffffffff\n      and\n      0xffffffffffffffffffffffffffffffffffffffff\n      and\n      dup2\n      mstore\n      0x20\n      add\n      swap1\n      dup2\n      mstore\n      0x20\n      add\n      0x00\n      keccak256\n      0x00\n      swap1\n      sload\n      swap1\n      0x0100\n      exp\n      swap1\n      div\n      0xff\n      and\n        /* \"6 \\xd0\\xb7\\xd0\\xb0\\xd0\\xbd\\xd1\\x8f\\xd1\\x82\\xd0\\xb8\\xd0\\xb5/Auction+.sol\":2145:2176  Permissions[msg.sender] == true */\n      iszero\n      iszero\n      eq\n        /* \"6 \\xd0\\xb7\\xd0\\xb0\\xd0\\xbd\\xd1\\x8f\\xd1\\x82\\xd0\\xb8\\xd0\\xb5/Auction+.sol\":2137:2205  require(Permissions[msg.sender] == true, \"You have no permissions.\") */\n      tag_133\n      jumpi\n      mload(0x40)\n      0x08c379a000000000000000000000000000000000000000000000000000000000\n      dup2\n      mstore\n      0x04\n      add\n      tag_134\n      swap1\n      tag_135\n      jump\t// in\n    tag_134:\n      mload(0x40)\n      dup1\n      swap2\n      sub\n      swap1\n      revert\n    tag_133:\n        /* \"6 \\xd0\\xb7\\xd0\\xb0\\xd0\\xbd\\xd1\\x8f\\xd1\\x82\\xd0\\xb8\\xd0\\xb5/Auction+.sol\":2251:2258  BidStep */\n      sload(0x04)\n        /* \"6 \\xd0\\xb7\\xd0\\xb0\\xd0\\xbd\\xd1\\x8f\\xd1\\x82\\xd0\\xb8\\xd0\\xb5/Auction+.sol\":2237:2248  CurrentCost */\n      sload(0x05)\n        /* \"6 \\xd0\\xb7\\xd0\\xb0\\xd0\\xbd\\xd1\\x8f\\xd1\\x82\\xd0\\xb8\\xd0\\xb5/Auction+.sol\":2237:2258  CurrentCost + BidStep */\n      tag_136\n      swap2\n      swap1\n      tag_137\n      jump\t// in\n    tag_136:\n        /* \"6 \\xd0\\xb7\\xd0\\xb0\\xd0\\xbd\\xd1\\x8f\\xd1\\x82\\xd0\\xb8\\xd0\\xb5/Auction+.sol\":2224:2233  msg.value */\n      callvalue\n        /* \"6 \\xd0\\xb7\\xd0\\xb0\\xd0\\xbd\\xd1\\x8f\\xd1\\x82\\xd0\\xb8\\xd0\\xb5/Auction+.sol\":2224:2258  msg.value == CurrentCost + BidStep */\n      eq\n        /* \"6 \\xd0\\xb7\\xd0\\xb0\\xd0\\xbd\\xd1\\x8f\\xd1\\x82\\xd0\\xb8\\xd0\\xb5/Auction+.sol\":2332:2366  (CurrentCost + BidStep).toString() */\n      tag_138\n        /* \"6 \\xd0\\xb7\\xd0\\xb0\\xd0\\xbd\\xd1\\x8f\\xd1\\x82\\xd0\\xb8\\xd0\\xb5/Auction+.sol\":2347:2354  BidStep */\n      sload(0x04)\n        /* \"6 \\xd0\\xb7\\xd0\\xb0\\xd0\\xbd\\xd1\\x8f\\xd1\\x82\\xd0\\xb8\\xd0\\xb5/Auction+.sol\":2333:2344  CurrentCost */\n      sload(0x05)\n        /* \"6 \\xd0\\xb7\\xd0\\xb0\\xd0\\xbd\\xd1\\x8f\\xd1\\x82\\xd0\\xb8\\xd0\\xb5/Auction+.sol\":2333:2354  CurrentCost + BidStep */\n      tag_139\n      swap2\n      swap1\n      tag_137\n      jump\t// in\n    tag_139:\n        /* \"6 \\xd0\\xb7\\xd0\\xb0\\xd0\\xbd\\xd1\\x8f\\xd1\\x82\\xd0\\xb8\\xd0\\xb5/Auction+.sol\":2332:2364  (CurrentCost + BidStep).toString */\n      tag_140\n        /* \"6 \\xd0\\xb7\\xd0\\xb0\\xd0\\xbd\\xd1\\x8f\\xd1\\x82\\xd0\\xb8\\xd0\\xb5/Auction+.sol\":2332:2366  (CurrentCost + BidStep).toString() */\n      jump\t// in\n    tag_138:\n        /* \"6 \\xd0\\xb7\\xd0\\xb0\\xd0\\xbd\\xd1\\x8f\\xd1\\x82\\xd0\\xb8\\xd0\\xb5/Auction+.sol\":2273:2367  string.concat(\"Not enough ether. Current cost plus bid: \", (CurrentCost + BidStep).toString()) */\n      add(0x20, mload(0x40))\n      tag_141\n      swap2\n      swap1\n      tag_142\n      jump\t// in\n    tag_141:\n      mload(0x40)\n      0x20\n      dup2\n      dup4\n      sub\n      sub\n      dup2\n      mstore\n      swap1\n      0x40\n      mstore\n        /* \"6 \\xd0\\xb7\\xd0\\xb0\\xd0\\xbd\\xd1\\x8f\\xd1\\x82\\xd0\\xb8\\xd0\\xb5/Auction+.sol\":2216:2368  require(msg.value == CurrentCost + BidStep,... */\n      swap1\n      tag_143\n      jumpi\n      mload(0x40)\n      0x08c379a000000000000000000000000000000000000000000000000000000000\n      dup2\n      mstore\n      0x04\n      add\n      tag_144\n      swap2\n      swap1\n      tag_48\n      jump\t// in\n    tag_144:\n      mload(0x40)\n      dup1\n      swap2\n      sub\n      swap1\n      revert\n    tag_143:\n      pop\n        /* \"6 \\xd0\\xb7\\xd0\\xb0\\xd0\\xbd\\xd1\\x8f\\xd1\\x82\\xd0\\xb8\\xd0\\xb5/Auction+.sol\":2399:2408  msg.value */\n      callvalue\n        /* \"6 \\xd0\\xb7\\xd0\\xb0\\xd0\\xbd\\xd1\\x8f\\xd1\\x82\\xd0\\xb8\\xd0\\xb5/Auction+.sol\":2379:2383  Bids */\n      0x0d\n        /* \"6 \\xd0\\xb7\\xd0\\xb0\\xd0\\xbd\\xd1\\x8f\\xd1\\x82\\xd0\\xb8\\xd0\\xb5/Auction+.sol\":2379:2395  Bids[msg.sender] */\n      0x00\n        /* \"6 \\xd0\\xb7\\xd0\\xb0\\xd0\\xbd\\xd1\\x8f\\xd1\\x82\\xd0\\xb8\\xd0\\xb5/Auction+.sol\":2384:2394  msg.sender */\n      caller\n        /* \"6 \\xd0\\xb7\\xd0\\xb0\\xd0\\xbd\\xd1\\x8f\\xd1\\x82\\xd0\\xb8\\xd0\\xb5/Auction+.sol\":2379:2395  Bids[msg.sender] */\n      0xffffffffffffffffffffffffffffffffffffffff\n      and\n      0xffffffffffffffffffffffffffffffffffffffff\n      and\n      dup2\n      mstore\n      0x20\n      add\n      swap1\n      dup2\n      mstore\n      0x20\n      add\n      0x00\n      keccak256\n      0x00\n        /* \"6 \\xd0\\xb7\\xd0\\xb0\\xd0\\xbd\\xd1\\x8f\\xd1\\x82\\xd0\\xb8\\xd0\\xb5/Auction+.sol\":2379:2408  Bids[msg.sender] += msg.value */\n      dup3\n      dup3\n      sload\n      tag_145\n      swap2\n      swap1\n      tag_137\n      jump\t// in\n    tag_145:\n      swap3\n      pop\n      pop\n      dup2\n      swap1\n      sstore\n      pop\n        /* \"6 \\xd0\\xb7\\xd0\\xb0\\xd0\\xbd\\xd1\\x8f\\xd1\\x82\\xd0\\xb8\\xd0\\xb5/Auction+.sol\":2488:2498  msg.sender */\n      caller\n        /* \"6 \\xd0\\xb7\\xd0\\xb0\\xd0\\xbd\\xd1\\x8f\\xd1\\x82\\xd0\\xb8\\xd0\\xb5/Auction+.sol\":2472:2485  HighestBidder */\n      0x01\n      0x00\n        /* \"6 \\xd0\\xb7\\xd0\\xb0\\xd0\\xbd\\xd1\\x8f\\xd1\\x82\\xd0\\xb8\\xd0\\xb5/Auction+.sol\":2472:2498  HighestBidder = msg.sender */\n      0x0100\n      exp\n      dup2\n      sload\n      dup2\n      0xffffffffffffffffffffffffffffffffffffffff\n      mul\n      not\n      and\n      swap1\n      dup4\n      0xffffffffffffffffffffffffffffffffffffffff\n      and\n      mul\n      or\n      swap1\n      sstore\n      pop\n        /* \"6 \\xd0\\xb7\\xd0\\xb0\\xd0\\xbd\\xd1\\x8f\\xd1\\x82\\xd0\\xb8\\xd0\\xb5/Auction+.sol\":2524:2531  BidStep */\n      sload(0x04)\n        /* \"6 \\xd0\\xb7\\xd0\\xb0\\xd0\\xbd\\xd1\\x8f\\xd1\\x82\\xd0\\xb8\\xd0\\xb5/Auction+.sol\":2509:2520  CurrentCost */\n      0x05\n      0x00\n        /* \"6 \\xd0\\xb7\\xd0\\xb0\\xd0\\xbd\\xd1\\x8f\\xd1\\x82\\xd0\\xb8\\xd0\\xb5/Auction+.sol\":2509:2531  CurrentCost += BidStep */\n      dup3\n      dup3\n      sload\n      tag_146\n      swap2\n      swap1\n      tag_137\n      jump\t// in\n    tag_146:\n      swap3\n      pop\n      pop\n      dup2\n      swap1\n      sstore\n      pop\n        /* \"6 \\xd0\\xb7\\xd0\\xb0\\xd0\\xbd\\xd1\\x8f\\xd1\\x82\\xd0\\xb8\\xd0\\xb5/Auction+.sol\":2560:2575  block.timestamp */\n      timestamp\n        /* \"6 \\xd0\\xb7\\xd0\\xb0\\xd0\\xbd\\xd1\\x8f\\xd1\\x82\\xd0\\xb8\\xd0\\xb5/Auction+.sol\":2542:2557  PreviousBidTime */\n      0x09\n        /* \"6 \\xd0\\xb7\\xd0\\xb0\\xd0\\xbd\\xd1\\x8f\\xd1\\x82\\xd0\\xb8\\xd0\\xb5/Auction+.sol\":2542:2575  PreviousBidTime = block.timestamp */\n      dup2\n      swap1\n      sstore\n      pop\n        /* \"6 \\xd0\\xb7\\xd0\\xb0\\xd0\\xbd\\xd1\\x8f\\xd1\\x82\\xd0\\xb8\\xd0\\xb5/Auction+.sol\":2586:2596  BidHistory */\n      0x0e\n        /* \"6 \\xd0\\xb7\\xd0\\xb0\\xd0\\xbd\\xd1\\x8f\\xd1\\x82\\xd0\\xb8\\xd0\\xb5/Auction+.sol\":2602:2651  BidRecord(msg.sender, msg.value, block.timestamp) */\n      mload(0x40)\n      dup1\n      0x60\n      add\n      0x40\n      mstore\n      dup1\n        /* \"6 \\xd0\\xb7\\xd0\\xb0\\xd0\\xbd\\xd1\\x8f\\xd1\\x82\\xd0\\xb8\\xd0\\xb5/Auction+.sol\":2612:2622  msg.sender */\n      caller\n        /* \"6 \\xd0\\xb7\\xd0\\xb0\\xd0\\xbd\\xd1\\x8f\\xd1\\x82\\xd0\\xb8\\xd0\\xb5/Auction+.sol\":2602:2651  BidRecord(msg.sender, msg.value, block.timestamp) */\n      0xffffffffffffffffffffffffffffffffffffffff\n      and\n      dup2\n      mstore\n      0x20\n      add\n        /* \"6 \\xd0\\xb7\\xd0\\xb0\\xd0\\xbd\\xd1\\x8f\\xd1\\x82\\xd0\\xb8\\xd0\\xb5/Auction+.sol\":2624:2633  msg.value */\n      callvalue\n        /* \"6 \\xd0\\xb7\\xd0\\xb0\\xd0\\xbd\\xd1\\x8f\\xd1\\x82\\xd0\\xb8\\xd0\\xb5/Auction+.sol\":2602:2651  BidRecord(msg.sender, msg.value, block.timestamp) */\n      dup2\n      mstore\n      0x20\n      add\n        /* \"6 \\xd0\\xb7\\xd0\\xb0\\xd0\\xbd\\xd1\\x8f\\xd1\\x82\\xd0\\xb8\\xd0\\xb5/Auction+.sol\":2635:2650  block.timestamp */\n      timestamp\n        /* \"6 \\xd0\\xb7\\xd0\\xb0\\xd0\\xbd\\xd1\\x8f\\xd1\\x82\\xd0\\xb8\\xd0\\xb5/Auction+.sol\":2602:2651  BidRecord(msg.sender, msg.value, block.timestamp) */\n      dup2\n      mstore\n      pop\n        /* \"6 \\xd0\\xb7\\xd0\\xb0\\xd0\\xbd\\xd1\\x8f\\xd1\\x82\\xd0\\xb8\\xd0\\xb5/Auction+.sol\":2586:2652  BidHistory.push(BidRecord(msg.sender, msg.value, block.timestamp)) */\n      swap1\n      dup1\n      0x01\n      dup2\n      sload\n      add\n      dup1\n      dup3\n      sstore\n      dup1\n      swap2\n      pop\n      pop\n      0x01\n      swap1\n      sub\n      swap1\n      0x00\n      mstore\n      keccak256(0x00, 0x20)\n      swap1\n      0x03\n      mul\n      add\n      0x00\n      swap1\n      swap2\n      swap1\n      swap2\n      swap1\n      swap2\n      pop\n      0x00\n      dup3\n      add\n      mload\n      dup2\n      0x00\n      add\n      exp(0x0100, 0x00)\n      dup2\n      sload\n      dup2\n      0xffffffffffffffffffffffffffffffffffffffff\n      mul\n      not\n      and\n      swap1\n      dup4\n      0xffffffffffffffffffffffffffffffffffffffff\n      and\n      mul\n      or\n      swap1\n      sstore\n      pop\n      0x20\n      dup3\n      add\n      mload\n      dup2\n      0x01\n      add\n      sstore\n      0x40\n      dup3\n      add\n      mload\n      dup2\n      0x02\n      add\n      sstore\n      pop\n      pop\n        /* \"6 \\xd0\\xb7\\xd0\\xb0\\xd0\\xbd\\xd1\\x8f\\xd1\\x82\\xd0\\xb8\\xd0\\xb5/Auction+.sol\":2728:2748  CheckTimeAndWinner() */\n      tag_148\n        /* \"6 \\xd0\\xb7\\xd0\\xb0\\xd0\\xbd\\xd1\\x8f\\xd1\\x82\\xd0\\xb8\\xd0\\xb5/Auction+.sol\":2728:2746  CheckTimeAndWinner */\n      tag_149\n        /* \"6 \\xd0\\xb7\\xd0\\xb0\\xd0\\xbd\\xd1\\x8f\\xd1\\x82\\xd0\\xb8\\xd0\\xb5/Auction+.sol\":2728:2748  CheckTimeAndWinner() */\n      jump\t// in\n    tag_148:\n        /* \"6 \\xd0\\xb7\\xd0\\xb0\\xd0\\xbd\\xd1\\x8f\\xd1\\x82\\xd0\\xb8\\xd0\\xb5/Auction+.sol\":2036:2756  function Bid() public payable {... */\n      jump\t// out\n        /* \"6 \\xd0\\xb7\\xd0\\xb0\\xd0\\xbd\\xd1\\x8f\\xd1\\x82\\xd0\\xb8\\xd0\\xb5/Auction+.sol\":3217:3421  function GetItem() public view returns (string memory){... */\n    tag_53:\n        /* \"6 \\xd0\\xb7\\xd0\\xb0\\xd0\\xbd\\xd1\\x8f\\xd1\\x82\\xd0\\xb8\\xd0\\xb5/Auction+.sol\":3257:3270  string memory */\n      0x60\n        /* \"6 \\xd0\\xb7\\xd0\\xb0\\xd0\\xbd\\xd1\\x8f\\xd1\\x82\\xd0\\xb8\\xd0\\xb5/Auction+.sol\":3304:3310  Winner */\n      0x02\n      0x00\n      swap1\n      sload\n      swap1\n      0x0100\n      exp\n      swap1\n      div\n      0xffffffffffffffffffffffffffffffffffffffff\n      and\n        /* \"6 \\xd0\\xb7\\xd0\\xb0\\xd0\\xbd\\xd1\\x8f\\xd1\\x82\\xd0\\xb8\\xd0\\xb5/Auction+.sol\":3290:3310  msg.sender == Winner */\n      0xffffffffffffffffffffffffffffffffffffffff\n      and\n        /* \"6 \\xd0\\xb7\\xd0\\xb0\\xd0\\xbd\\xd1\\x8f\\xd1\\x82\\xd0\\xb8\\xd0\\xb5/Auction+.sol\":3290:3300  msg.sender */\n      caller\n        /* \"6 \\xd0\\xb7\\xd0\\xb0\\xd0\\xbd\\xd1\\x8f\\xd1\\x82\\xd0\\xb8\\xd0\\xb5/Auction+.sol\":3290:3310  msg.sender == Winner */\n      0xffffffffffffffffffffffffffffffffffffffff\n      and\n      eq\n        /* \"6 \\xd0\\xb7\\xd0\\xb0\\xd0\\xbd\\xd1\\x8f\\xd1\\x82\\xd0\\xb8\\xd0\\xb5/Auction+.sol\":3282:3338  require(msg.sender == Winner, \"You are not the winner.\") */\n      tag_151\n      jumpi\n      mload(0x40)\n      0x08c379a000000000000000000000000000000000000000000000000000000000\n      dup2\n      mstore\n      0x04\n      add\n      tag_152\n      swap1\n      tag_153\n      jump\t// in\n    tag_152:\n      mload(0x40)\n      dup1\n      swap2\n      sub\n      swap1\n      revert\n    tag_151:\n        /* \"6 \\xd0\\xb7\\xd0\\xb0\\xd0\\xbd\\xd1\\x8f\\xd1\\x82\\xd0\\xb8\\xd0\\xb5/Auction+.sol\":3349:3413  return \"Congratulations! You are the winner. Here is your item.\" */\n      mload(0x40)\n      dup1\n      0x60\n      add\n      0x40\n      mstore\n      dup1\n      0x37\n      dup2\n      mstore\n      0x20\n      add\n      data_3f3a72287baeabafaf55376bb21d602820b9bc4e8c38516cd64d0d42e962a73e\n      0x37\n      swap2\n      codecopy\n      swap1\n      pop\n        /* \"6 \\xd0\\xb7\\xd0\\xb0\\xd0\\xbd\\xd1\\x8f\\xd1\\x82\\xd0\\xb8\\xd0\\xb5/Auction+.sol\":3217:3421  function GetItem() public view returns (string memory){... */\n      swap1\n      jump\t// out\n        /* \"6 \\xd0\\xb7\\xd0\\xb0\\xd0\\xbd\\xd1\\x8f\\xd1\\x82\\xd0\\xb8\\xd0\\xb5/Auction+.sol\":332:351  uint public BidStep */\n    tag_57:\n      sload(0x04)\n      dup2\n      jump\t// out\n        /* \"6 \\xd0\\xb7\\xd0\\xb0\\xd0\\xbd\\xd1\\x8f\\xd1\\x82\\xd0\\xb8\\xd0\\xb5/Auction+.sol\":273:294  address public Winner */\n    tag_61:\n      0x02\n      0x00\n      swap1\n      sload\n      swap1\n      0x0100\n      exp\n      swap1\n      div\n      0xffffffffffffffffffffffffffffffffffffffff\n      and\n      dup2\n      jump\t// out\n        /* \"6 \\xd0\\xb7\\xd0\\xb0\\xd0\\xbd\\xd1\\x8f\\xd1\\x82\\xd0\\xb8\\xd0\\xb5/Auction+.sol\":199:230  address public immutable SELLER */\n    tag_66:\n      immutable(\"0xd2f8f61201b2b11a78d6e866abc9c3db2ae8631fa656bfe5cb53668255367afb\")\n      dup2\n      jump\t// out\n        /* \"6 \\xd0\\xb7\\xd0\\xb0\\xd0\\xbd\\xd1\\x8f\\xd1\\x82\\xd0\\xb8\\xd0\\xb5/Auction+.sol\":472:492  uint public StepTime */\n    tag_70:\n      sload(0x08)\n      dup2\n      jump\t// out\n        /* \"6 \\xd0\\xb7\\xd0\\xb0\\xd0\\xbd\\xd1\\x8f\\xd1\\x82\\xd0\\xb8\\xd0\\xb5/Auction+.sol\":568:605  uint public CurrentParticipantsAmount */\n    tag_74:\n      sload(0x0b)\n      dup2\n      jump\t// out\n        /* \"6 \\xd0\\xb7\\xd0\\xb0\\xd0\\xbd\\xd1\\x8f\\xd1\\x82\\xd0\\xb8\\xd0\\xb5/Auction+.sol\":4529:4630  function GetBidHistory() public view returns (BidRecord[] memory){... */\n    tag_78:\n        /* \"6 \\xd0\\xb7\\xd0\\xb0\\xd0\\xbd\\xd1\\x8f\\xd1\\x82\\xd0\\xb8\\xd0\\xb5/Auction+.sol\":4575:4593  BidRecord[] memory */\n      0x60\n        /* \"6 \\xd0\\xb7\\xd0\\xb0\\xd0\\xbd\\xd1\\x8f\\xd1\\x82\\xd0\\xb8\\xd0\\xb5/Auction+.sol\":4612:4622  BidHistory */\n      0x0e\n        /* \"6 \\xd0\\xb7\\xd0\\xb0\\xd0\\xbd\\xd1\\x8f\\xd1\\x82\\xd0\\xb8\\xd0\\xb5/Auction+.sol\":4605:4622  return BidHistory */\n      dup1\n      sload\n      dup1\n      0x20\n      mul\n      0x20\n      add\n      mload(0x40)\n      swap1\n      dup2\n      add\n      0x40\n      mstore\n      dup1\n      swap3\n      swap2\n      swap1\n      dup2\n      dup2\n      mstore\n      0x20\n      add\n      0x00\n      swap1\n    tag_155:\n      dup3\n      dup3\n      lt\n      iszero\n      tag_156\n      jumpi\n      dup4\n      dup3\n      swap1\n      0x00\n      mstore\n      keccak256(0x00, 0x20)\n      swap1\n      0x03\n      mul\n      add\n      mload(0x40)\n      dup1\n      0x60\n      add\n      0x40\n      mstore\n      swap1\n      dup2\n      0x00\n      dup3\n      add\n      0x00\n      swap1\n      sload\n      swap1\n      0x0100\n      exp\n      swap1\n      div\n      0xffffffffffffffffffffffffffffffffffffffff\n      and\n      0xffffffffffffffffffffffffffffffffffffffff\n      and\n      0xffffffffffffffffffffffffffffffffffffffff\n      and\n      dup2\n      mstore\n      0x20\n      add\n      0x01\n      dup3\n      add\n      sload\n      dup2\n      mstore\n      0x20\n      add\n      0x02\n      dup3\n      add\n      sload\n      dup2\n      mstore\n      pop\n      pop\n      dup2\n      mstore\n      0x20\n      add\n      swap1\n      0x01\n      add\n      swap1\n      jump(tag_155)\n    tag_156:\n      pop\n      pop\n      pop\n      pop\n      swap1\n      pop\n        /* \"6 \\xd0\\xb7\\xd0\\xb0\\xd0\\xbd\\xd1\\x8f\\xd1\\x82\\xd0\\xb8\\xd0\\xb5/Auction+.sol\":4529:4630  function GetBidHistory() public view returns (BidRecord[] memory){... */\n      swap1\n      jump\t// out\n        /* \"6 \\xd0\\xb7\\xd0\\xb0\\xd0\\xbd\\xd1\\x8f\\xd1\\x82\\xd0\\xb8\\xd0\\xb5/Auction+.sol\":1748:2028  function StartAuction() public OnlyOwner {... */\n    tag_83:\n        /* \"6 \\xd0\\xb7\\xd0\\xb0\\xd0\\xbd\\xd1\\x8f\\xd1\\x82\\xd0\\xb8\\xd0\\xb5/Auction+.sol\":1189:1195  SELLER */\n      immutable(\"0xd2f8f61201b2b11a78d6e866abc9c3db2ae8631fa656bfe5cb53668255367afb\")\n        /* \"6 \\xd0\\xb7\\xd0\\xb0\\xd0\\xbd\\xd1\\x8f\\xd1\\x82\\xd0\\xb8\\xd0\\xb5/Auction+.sol\":1175:1195  msg.sender == SELLER */\n      0xffffffffffffffffffffffffffffffffffffffff\n      and\n        /* \"6 \\xd0\\xb7\\xd0\\xb0\\xd0\\xbd\\xd1\\x8f\\xd1\\x82\\xd0\\xb8\\xd0\\xb5/Auction+.sol\":1175:1185  msg.sender */\n      caller\n        /* \"6 \\xd0\\xb7\\xd0\\xb0\\xd0\\xbd\\xd1\\x8f\\xd1\\x82\\xd0\\xb8\\xd0\\xb5/Auction+.sol\":1175:1195  msg.sender == SELLER */\n      0xffffffffffffffffffffffffffffffffffffffff\n      and\n      eq\n        /* \"6 \\xd0\\xb7\\xd0\\xb0\\xd0\\xbd\\xd1\\x8f\\xd1\\x82\\xd0\\xb8\\xd0\\xb5/Auction+.sol\":1167:1223  require(msg.sender == SELLER, \"You are not the seller.\") */\n      tag_159\n      jumpi\n      mload(0x40)\n      0x08c379a000000000000000000000000000000000000000000000000000000000\n      dup2\n      mstore\n      0x04\n      add\n      tag_160\n      swap1\n      tag_113\n      jump\t// in\n    tag_160:\n      mload(0x40)\n      dup1\n      swap2\n      sub\n      swap1\n      revert\n    tag_159:\n        /* \"6 \\xd0\\xb7\\xd0\\xb0\\xd0\\xbd\\xd1\\x8f\\xd1\\x82\\xd0\\xb8\\xd0\\xb5/Auction+.sol\":1809:1817  HasEnded */\n      0x06\n      0x01\n      swap1\n      sload\n      swap1\n      0x0100\n      exp\n      swap1\n      div\n      0xff\n      and\n        /* \"6 \\xd0\\xb7\\xd0\\xb0\\xd0\\xbd\\xd1\\x8f\\xd1\\x82\\xd0\\xb8\\xd0\\xb5/Auction+.sol\":1808:1817  !HasEnded */\n      iszero\n        /* \"6 \\xd0\\xb7\\xd0\\xb0\\xd0\\xbd\\xd1\\x8f\\xd1\\x82\\xd0\\xb8\\xd0\\xb5/Auction+.sol\":1800:1849  require(!HasEnded, \"The auction has been ended.\") */\n      tag_162\n      jumpi\n      mload(0x40)\n      0x08c379a000000000000000000000000000000000000000000000000000000000\n      dup2\n      mstore\n      0x04\n      add\n      tag_163\n      swap1\n      tag_132\n      jump\t// in\n    tag_163:\n      mload(0x40)\n      dup1\n      swap2\n      sub\n      swap1\n      revert\n    tag_162:\n        /* \"6 \\xd0\\xb7\\xd0\\xb0\\xd0\\xbd\\xd1\\x8f\\xd1\\x82\\xd0\\xb8\\xd0\\xb5/Auction+.sol\":1869:1879  HasStarted */\n      0x06\n      0x00\n      swap1\n      sload\n      swap1\n      0x0100\n      exp\n      swap1\n      div\n      0xff\n      and\n        /* \"6 \\xd0\\xb7\\xd0\\xb0\\xd0\\xbd\\xd1\\x8f\\xd1\\x82\\xd0\\xb8\\xd0\\xb5/Auction+.sol\":1868:1879  !HasStarted */\n      iszero\n        /* \"6 \\xd0\\xb7\\xd0\\xb0\\xd0\\xbd\\xd1\\x8f\\xd1\\x82\\xd0\\xb8\\xd0\\xb5/Auction+.sol\":1860:1916  require(!HasStarted, \"The auction has already started.\") */\n      tag_164\n      jumpi\n      mload(0x40)\n      0x08c379a000000000000000000000000000000000000000000000000000000000\n      dup2\n      mstore\n      0x04\n      add\n      tag_165\n      swap1\n      tag_166\n      jump\t// in\n    tag_165:\n      mload(0x40)\n      dup1\n      swap2\n      sub\n      swap1\n      revert\n    tag_164:\n        /* \"6 \\xd0\\xb7\\xd0\\xb0\\xd0\\xbd\\xd1\\x8f\\xd1\\x82\\xd0\\xb8\\xd0\\xb5/Auction+.sol\":1940:1944  true */\n      0x01\n        /* \"6 \\xd0\\xb7\\xd0\\xb0\\xd0\\xbd\\xd1\\x8f\\xd1\\x82\\xd0\\xb8\\xd0\\xb5/Auction+.sol\":1927:1937  HasStarted */\n      0x06\n      0x00\n        /* \"6 \\xd0\\xb7\\xd0\\xb0\\xd0\\xbd\\xd1\\x8f\\xd1\\x82\\xd0\\xb8\\xd0\\xb5/Auction+.sol\":1927:1944  HasStarted = true */\n      0x0100\n      exp\n      dup2\n      sload\n      dup2\n      0xff\n      mul\n      not\n      and\n      swap1\n      dup4\n      iszero\n      iszero\n      mul\n      or\n      swap1\n      sstore\n      pop\n        /* \"6 \\xd0\\xb7\\xd0\\xb0\\xd0\\xbd\\xd1\\x8f\\xd1\\x82\\xd0\\xb8\\xd0\\xb5/Auction+.sol\":1967:1982  block.timestamp */\n      timestamp\n        /* \"6 \\xd0\\xb7\\xd0\\xb0\\xd0\\xbd\\xd1\\x8f\\xd1\\x82\\xd0\\xb8\\xd0\\xb5/Auction+.sol\":1955:1964  StartTime */\n      0x07\n        /* \"6 \\xd0\\xb7\\xd0\\xb0\\xd0\\xbd\\xd1\\x8f\\xd1\\x82\\xd0\\xb8\\xd0\\xb5/Auction+.sol\":1955:1982  StartTime = block.timestamp */\n      dup2\n      swap1\n      sstore\n      pop\n        /* \"6 \\xd0\\xb7\\xd0\\xb0\\xd0\\xbd\\xd1\\x8f\\xd1\\x82\\xd0\\xb8\\xd0\\xb5/Auction+.sol\":2011:2020  StartTime */\n      sload(0x07)\n        /* \"6 \\xd0\\xb7\\xd0\\xb0\\xd0\\xbd\\xd1\\x8f\\xd1\\x82\\xd0\\xb8\\xd0\\xb5/Auction+.sol\":1993:2008  PreviousBidTime */\n      0x09\n        /* \"6 \\xd0\\xb7\\xd0\\xb0\\xd0\\xbd\\xd1\\x8f\\xd1\\x82\\xd0\\xb8\\xd0\\xb5/Auction+.sol\":1993:2020  PreviousBidTime = StartTime */\n      dup2\n      swap1\n      sstore\n      pop\n        /* \"6 \\xd0\\xb7\\xd0\\xb0\\xd0\\xbd\\xd1\\x8f\\xd1\\x82\\xd0\\xb8\\xd0\\xb5/Auction+.sol\":1748:2028  function StartAuction() public OnlyOwner {... */\n      jump\t// out\n        /* \"6 \\xd0\\xb7\\xd0\\xb0\\xd0\\xbd\\xd1\\x8f\\xd1\\x82\\xd0\\xb8\\xd0\\xb5/Auction+.sol\":1502:1740  function GetPermission(address account) public OnlyOwner {... */\n    tag_88:\n        /* \"6 \\xd0\\xb7\\xd0\\xb0\\xd0\\xbd\\xd1\\x8f\\xd1\\x82\\xd0\\xb8\\xd0\\xb5/Auction+.sol\":1189:1195  SELLER */\n      immutable(\"0xd2f8f61201b2b11a78d6e866abc9c3db2ae8631fa656bfe5cb53668255367afb\")\n        /* \"6 \\xd0\\xb7\\xd0\\xb0\\xd0\\xbd\\xd1\\x8f\\xd1\\x82\\xd0\\xb8\\xd0\\xb5/Auction+.sol\":1175:1195  msg.sender == SELLER */\n      0xffffffffffffffffffffffffffffffffffffffff\n      and\n        /* \"6 \\xd0\\xb7\\xd0\\xb0\\xd0\\xbd\\xd1\\x8f\\xd1\\x82\\xd0\\xb8\\xd0\\xb5/Auction+.sol\":1175:1185  msg.sender */\n      caller\n        /* \"6 \\xd0\\xb7\\xd0\\xb0\\xd0\\xbd\\xd1\\x8f\\xd1\\x82\\xd0\\xb8\\xd0\\xb5/Auction+.sol\":1175:1195  msg.sender == SELLER */\n      0xffffffffffffffffffffffffffffffffffffffff\n      and\n      eq\n        /* \"6 \\xd0\\xb7\\xd0\\xb0\\xd0\\xbd\\xd1\\x8f\\xd1\\x82\\xd0\\xb8\\xd0\\xb5/Auction+.sol\":1167:1223  require(msg.sender == SELLER, \"You are not the seller.\") */\n      tag_168\n      jumpi\n      mload(0x40)\n      0x08c379a000000000000000000000000000000000000000000000000000000000\n      dup2\n      mstore\n      0x04\n      add\n      tag_169\n      swap1\n      tag_113\n      jump\t// in\n    tag_169:\n      mload(0x40)\n      dup1\n      swap2\n      sub\n      swap1\n      revert\n    tag_168:\n        /* \"6 \\xd0\\xb7\\xd0\\xb0\\xd0\\xbd\\xd1\\x8f\\xd1\\x82\\xd0\\xb8\\xd0\\xb5/Auction+.sol\":1606:1621  MaxParticipants */\n      sload(0x0a)\n        /* \"6 \\xd0\\xb7\\xd0\\xb0\\xd0\\xbd\\xd1\\x8f\\xd1\\x82\\xd0\\xb8\\xd0\\xb5/Auction+.sol\":1578:1603  CurrentParticipantsAmount */\n      sload(0x0b)\n        /* \"6 \\xd0\\xb7\\xd0\\xb0\\xd0\\xbd\\xd1\\x8f\\xd1\\x82\\xd0\\xb8\\xd0\\xb5/Auction+.sol\":1578:1621  CurrentParticipantsAmount < MaxParticipants */\n      lt\n        /* \"6 \\xd0\\xb7\\xd0\\xb0\\xd0\\xbd\\xd1\\x8f\\xd1\\x82\\xd0\\xb8\\xd0\\xb5/Auction+.sol\":1570:1653  require(CurrentParticipantsAmount < MaxParticipants, \"Max limit for participants.\") */\n      tag_171\n      jumpi\n      mload(0x40)\n      0x08c379a000000000000000000000000000000000000000000000000000000000\n      dup2\n      mstore\n      0x04\n      add\n      tag_172\n      swap1\n      tag_173\n      jump\t// in\n    tag_172:\n      mload(0x40)\n      dup1\n      swap2\n      sub\n      swap1\n      revert\n    tag_171:\n        /* \"6 \\xd0\\xb7\\xd0\\xb0\\xd0\\xbd\\xd1\\x8f\\xd1\\x82\\xd0\\xb8\\xd0\\xb5/Auction+.sol\":1687:1691  true */\n      0x01\n        /* \"6 \\xd0\\xb7\\xd0\\xb0\\xd0\\xbd\\xd1\\x8f\\xd1\\x82\\xd0\\xb8\\xd0\\xb5/Auction+.sol\":1664:1675  Permissions */\n      0x0c\n        /* \"6 \\xd0\\xb7\\xd0\\xb0\\xd0\\xbd\\xd1\\x8f\\xd1\\x82\\xd0\\xb8\\xd0\\xb5/Auction+.sol\":1664:1684  Permissions[account] */\n      0x00\n        /* \"6 \\xd0\\xb7\\xd0\\xb0\\xd0\\xbd\\xd1\\x8f\\xd1\\x82\\xd0\\xb8\\xd0\\xb5/Auction+.sol\":1676:1683  account */\n      dup4\n        /* \"6 \\xd0\\xb7\\xd0\\xb0\\xd0\\xbd\\xd1\\x8f\\xd1\\x82\\xd0\\xb8\\xd0\\xb5/Auction+.sol\":1664:1684  Permissions[account] */\n      0xffffffffffffffffffffffffffffffffffffffff\n      and\n      0xffffffffffffffffffffffffffffffffffffffff\n      and\n      dup2\n      mstore\n      0x20\n      add\n      swap1\n      dup2\n      mstore\n      0x20\n      add\n      0x00\n      keccak256\n      0x00\n        /* \"6 \\xd0\\xb7\\xd0\\xb0\\xd0\\xbd\\xd1\\x8f\\xd1\\x82\\xd0\\xb8\\xd0\\xb5/Auction+.sol\":1664:1691  Permissions[account] = true */\n      0x0100\n      exp\n      dup2\n      sload\n      dup2\n      0xff\n      mul\n      not\n      and\n      swap1\n      dup4\n      iszero\n      iszero\n      mul\n      or\n      swap1\n      sstore\n      pop\n        /* \"6 \\xd0\\xb7\\xd0\\xb0\\xd0\\xbd\\xd1\\x8f\\xd1\\x82\\xd0\\xb8\\xd0\\xb5/Auction+.sol\":1731:1732  1 */\n      0x01\n        /* \"6 \\xd0\\xb7\\xd0\\xb0\\xd0\\xbd\\xd1\\x8f\\xd1\\x82\\xd0\\xb8\\xd0\\xb5/Auction+.sol\":1702:1727  CurrentParticipantsAmount */\n      0x0b\n      0x00\n        /* \"6 \\xd0\\xb7\\xd0\\xb0\\xd0\\xbd\\xd1\\x8f\\xd1\\x82\\xd0\\xb8\\xd0\\xb5/Auction+.sol\":1702:1732  CurrentParticipantsAmount += 1 */\n      dup3\n      dup3\n      sload\n      tag_174\n      swap2\n      swap1\n      tag_137\n      jump\t// in\n    tag_174:\n      swap3\n      pop\n      pop\n      dup2\n      swap1\n      sstore\n      pop\n        /* \"6 \\xd0\\xb7\\xd0\\xb0\\xd0\\xbd\\xd1\\x8f\\xd1\\x82\\xd0\\xb8\\xd0\\xb5/Auction+.sol\":1502:1740  function GetPermission(address account) public OnlyOwner {... */\n      pop\n      jump\t// out\n        /* \"6 \\xd0\\xb7\\xd0\\xb0\\xd0\\xbd\\xd1\\x8f\\xd1\\x82\\xd0\\xb8\\xd0\\xb5/Auction+.sol\":534:561  uint public MaxParticipants */\n    tag_91:\n      sload(0x0a)\n      dup2\n      jump\t// out\n        /* \"6 \\xd0\\xb7\\xd0\\xb0\\xd0\\xbd\\xd1\\x8f\\xd1\\x82\\xd0\\xb8\\xd0\\xb5/Auction+.sol\":444:465  uint public StartTime */\n    tag_95:\n      sload(0x07)\n      dup2\n      jump\t// out\n        /* \"6 \\xd0\\xb7\\xd0\\xb0\\xd0\\xbd\\xd1\\x8f\\xd1\\x82\\xd0\\xb8\\xd0\\xb5/Auction+.sol\":388:410  bool public HasStarted */\n    tag_99:\n      0x06\n      0x00\n      swap1\n      sload\n      swap1\n      0x0100\n      exp\n      swap1\n      div\n      0xff\n      and\n      dup2\n      jump\t// out\n        /* \"6 \\xd0\\xb7\\xd0\\xb0\\xd0\\xbd\\xd1\\x8f\\xd1\\x82\\xd0\\xb8\\xd0\\xb5/Auction+.sol\":2982:3209  function Withdraw() private returns (bool) {... */\n    tag_122:\n        /* \"6 \\xd0\\xb7\\xd0\\xb0\\xd0\\xbd\\xd1\\x8f\\xd1\\x82\\xd0\\xb8\\xd0\\xb5/Auction+.sol\":3019:3023  bool */\n      0x00\n        /* \"6 \\xd0\\xb7\\xd0\\xb0\\xd0\\xbd\\xd1\\x8f\\xd1\\x82\\xd0\\xb8\\xd0\\xb5/Auction+.sol\":3065:3066  0 */\n      dup1\n        /* \"6 \\xd0\\xb7\\xd0\\xb0\\xd0\\xbd\\xd1\\x8f\\xd1\\x82\\xd0\\xb8\\xd0\\xb5/Auction+.sol\":3040:3067  HighestBidder != address(0) */\n      0xffffffffffffffffffffffffffffffffffffffff\n      and\n        /* \"6 \\xd0\\xb7\\xd0\\xb0\\xd0\\xbd\\xd1\\x8f\\xd1\\x82\\xd0\\xb8\\xd0\\xb5/Auction+.sol\":3040:3053  HighestBidder */\n      0x01\n      0x00\n      swap1\n      sload\n      swap1\n      0x0100\n      exp\n      swap1\n      div\n      0xffffffffffffffffffffffffffffffffffffffff\n      and\n        /* \"6 \\xd0\\xb7\\xd0\\xb0\\xd0\\xbd\\xd1\\x8f\\xd1\\x82\\xd0\\xb8\\xd0\\xb5/Auction+.sol\":3040:3067  HighestBidder != address(0) */\n      0xffffffffffffffffffffffffffffffffffffffff\n      and\n      eq\n      iszero\n        /* \"6 \\xd0\\xb7\\xd0\\xb0\\xd0\\xbd\\xd1\\x8f\\xd1\\x82\\xd0\\xb8\\xd0\\xb5/Auction+.sol\":3040:3080  HighestBidder != address(0) && !HasEnded */\n      dup1\n      iszero\n      tag_176\n      jumpi\n      pop\n        /* \"6 \\xd0\\xb7\\xd0\\xb0\\xd0\\xbd\\xd1\\x8f\\xd1\\x82\\xd0\\xb8\\xd0\\xb5/Auction+.sol\":3072:3080  HasEnded */\n      0x06\n      0x01\n      swap1\n      sload\n      swap1\n      0x0100\n      exp\n      swap1\n      div\n      0xff\n      and\n        /* \"6 \\xd0\\xb7\\xd0\\xb0\\xd0\\xbd\\xd1\\x8f\\xd1\\x82\\xd0\\xb8\\xd0\\xb5/Auction+.sol\":3071:3080  !HasEnded */\n      iszero\n        /* \"6 \\xd0\\xb7\\xd0\\xb0\\xd0\\xbd\\xd1\\x8f\\xd1\\x82\\xd0\\xb8\\xd0\\xb5/Auction+.sol\":3040:3080  HighestBidder != address(0) && !HasEnded */\n    tag_176:\n        /* \"6 \\xd0\\xb7\\xd0\\xb0\\xd0\\xbd\\xd1\\x8f\\xd1\\x82\\xd0\\xb8\\xd0\\xb5/Auction+.sol\":3036:3179  if (HighestBidder != address(0) && !HasEnded) {... */\n      iszero\n      tag_177\n      jumpi\n        /* \"6 \\xd0\\xb7\\xd0\\xb0\\xd0\\xbd\\xd1\\x8f\\xd1\\x82\\xd0\\xb8\\xd0\\xb5/Auction+.sol\":3105:3118  HighestBidder */\n      0x01\n      0x00\n      swap1\n      sload\n      swap1\n      0x0100\n      exp\n      swap1\n      div\n      0xffffffffffffffffffffffffffffffffffffffff\n      and\n        /* \"6 \\xd0\\xb7\\xd0\\xb0\\xd0\\xbd\\xd1\\x8f\\xd1\\x82\\xd0\\xb8\\xd0\\xb5/Auction+.sol\":3097:3128  payable(HighestBidder).transfer */\n      0xffffffffffffffffffffffffffffffffffffffff\n      and\n        /* \"6 \\xd0\\xb7\\xd0\\xb0\\xd0\\xbd\\xd1\\x8f\\xd1\\x82\\xd0\\xb8\\xd0\\xb5/Auction+.sol\":3097:3141  payable(HighestBidder).transfer(CurrentCost) */\n      0x08fc\n        /* \"6 \\xd0\\xb7\\xd0\\xb0\\xd0\\xbd\\xd1\\x8f\\xd1\\x82\\xd0\\xb8\\xd0\\xb5/Auction+.sol\":3129:3140  CurrentCost */\n      sload(0x05)\n        /* \"6 \\xd0\\xb7\\xd0\\xb0\\xd0\\xbd\\xd1\\x8f\\xd1\\x82\\xd0\\xb8\\xd0\\xb5/Auction+.sol\":3097:3141  payable(HighestBidder).transfer(CurrentCost) */\n      swap1\n      dup2\n      iszero\n      mul\n      swap1\n      mload(0x40)\n      0x00\n      mload(0x40)\n      dup1\n      dup4\n      sub\n      dup2\n      dup6\n      dup9\n      dup9\n      call\n      swap4\n      pop\n      pop\n      pop\n      pop\n      iszero\n      dup1\n      iszero\n      tag_179\n      jumpi\n      returndatasize\n      0x00\n      dup1\n      returndatacopy\n      revert(0x00, returndatasize)\n    tag_179:\n      pop\n        /* \"6 \\xd0\\xb7\\xd0\\xb0\\xd0\\xbd\\xd1\\x8f\\xd1\\x82\\xd0\\xb8\\xd0\\xb5/Auction+.sol\":3163:3167  true */\n      0x01\n        /* \"6 \\xd0\\xb7\\xd0\\xb0\\xd0\\xbd\\xd1\\x8f\\xd1\\x82\\xd0\\xb8\\xd0\\xb5/Auction+.sol\":3156:3167  return true */\n      swap1\n      pop\n      jump(tag_175)\n        /* \"6 \\xd0\\xb7\\xd0\\xb0\\xd0\\xbd\\xd1\\x8f\\xd1\\x82\\xd0\\xb8\\xd0\\xb5/Auction+.sol\":3036:3179  if (HighestBidder != address(0) && !HasEnded) {... */\n    tag_177:\n        /* \"6 \\xd0\\xb7\\xd0\\xb0\\xd0\\xbd\\xd1\\x8f\\xd1\\x82\\xd0\\xb8\\xd0\\xb5/Auction+.sol\":3196:3201  false */\n      0x00\n        /* \"6 \\xd0\\xb7\\xd0\\xb0\\xd0\\xbd\\xd1\\x8f\\xd1\\x82\\xd0\\xb8\\xd0\\xb5/Auction+.sol\":3189:3201  return false */\n      swap1\n      pop\n        /* \"6 \\xd0\\xb7\\xd0\\xb0\\xd0\\xbd\\xd1\\x8f\\xd1\\x82\\xd0\\xb8\\xd0\\xb5/Auction+.sol\":2982:3209  function Withdraw() private returns (bool) {... */\n    tag_175:\n      swap1\n      jump\t// out\n        /* \"@openzeppelin/contracts/utils/Strings.sol\":637:1269  function toString(uint256 value) internal pure returns (string memory) {... */\n    tag_140:\n        /* \"@openzeppelin/contracts/utils/Strings.sol\":693:706  string memory */\n      0x60\n        /* \"@openzeppelin/contracts/utils/Strings.sol\":742:756  uint256 length */\n      0x00\n        /* \"@openzeppelin/contracts/utils/Strings.sol\":779:780  1 */\n      0x01\n        /* \"@openzeppelin/contracts/utils/Strings.sol\":759:776  Math.log10(value) */\n      tag_181\n        /* \"@openzeppelin/contracts/utils/Strings.sol\":770:775  value */\n      dup5\n        /* \"@openzeppelin/contracts/utils/Strings.sol\":759:769  Math.log10 */\n      tag_182\n        /* \"@openzeppelin/contracts/utils/Strings.sol\":759:776  Math.log10(value) */\n      jump\t// in\n    tag_181:\n        /* \"@openzeppelin/contracts/utils/Strings.sol\":759:780  Math.log10(value) + 1 */\n      add\n        /* \"@openzeppelin/contracts/utils/Strings.sol\":742:780  uint256 length = Math.log10(value) + 1 */\n      swap1\n      pop\n        /* \"@openzeppelin/contracts/utils/Strings.sol\":794:814  string memory buffer */\n      0x00\n        /* \"@openzeppelin/contracts/utils/Strings.sol\":828:834  length */\n      dup2\n        /* \"@openzeppelin/contracts/utils/Strings.sol\":817:835  new string(length) */\n      0xffffffffffffffff\n      dup2\n      gt\n      iszero\n      tag_183\n      jumpi\n      tag_184\n      tag_185\n      jump\t// in\n    tag_184:\n    tag_183:\n      mload(0x40)\n      swap1\n      dup1\n      dup3\n      mstore\n      dup1\n      0x1f\n      add\n      not(0x1f)\n      and\n      0x20\n      add\n      dup3\n      add\n      0x40\n      mstore\n      dup1\n      iszero\n      tag_186\n      jumpi\n      dup2\n      0x20\n      add\n      0x01\n      dup3\n      mul\n      dup1\n      calldatasize\n      dup4\n      calldatacopy\n      dup1\n      dup3\n      add\n      swap2\n      pop\n      pop\n      swap1\n      pop\n    tag_186:\n      pop\n        /* \"@openzeppelin/contracts/utils/Strings.sol\":794:835  string memory buffer = new string(length) */\n      swap1\n      pop\n        /* \"@openzeppelin/contracts/utils/Strings.sol\":849:860  uint256 ptr */\n      0x00\n        /* \"@openzeppelin/contracts/utils/Strings.sol\":944:950  length */\n      dup3\n        /* \"@openzeppelin/contracts/utils/Strings.sol\":940:942  32 */\n      0x20\n        /* \"@openzeppelin/contracts/utils/Strings.sol\":936:951  add(32, length) */\n      add\n        /* \"@openzeppelin/contracts/utils/Strings.sol\":928:934  buffer */\n      dup3\n        /* \"@openzeppelin/contracts/utils/Strings.sol\":924:952  add(buffer, add(32, length)) */\n      add\n        /* \"@openzeppelin/contracts/utils/Strings.sol\":917:952  ptr := add(buffer, add(32, length)) */\n      swap1\n      pop\n        /* \"@openzeppelin/contracts/utils/Strings.sol\":979:1226  while (true) {... */\n    tag_187:\n        /* \"@openzeppelin/contracts/utils/Strings.sol\":986:990  true */\n      0x01\n        /* \"@openzeppelin/contracts/utils/Strings.sol\":979:1226  while (true) {... */\n      iszero\n      tag_188\n      jumpi\n        /* \"@openzeppelin/contracts/utils/Strings.sol\":1010:1015  ptr-- */\n      dup1\n      dup1\n      0x01\n      swap1\n      sub\n      swap2\n      pop\n      pop\n        /* \"@openzeppelin/contracts/utils/Strings.sol\":1114:1124  HEX_DIGITS */\n      0x3031323334353637383961626364656600000000000000000000000000000000\n        /* \"@openzeppelin/contracts/utils/Strings.sol\":1109:1111  10 */\n      0x0a\n        /* \"@openzeppelin/contracts/utils/Strings.sol\":1102:1107  value */\n      dup7\n        /* \"@openzeppelin/contracts/utils/Strings.sol\":1098:1112  mod(value, 10) */\n      mod\n        /* \"@openzeppelin/contracts/utils/Strings.sol\":1093:1125  byte(mod(value, 10), HEX_DIGITS) */\n      byte\n        /* \"@openzeppelin/contracts/utils/Strings.sol\":1088:1091  ptr */\n      dup2\n        /* \"@openzeppelin/contracts/utils/Strings.sol\":1080:1126  mstore8(ptr, byte(mod(value, 10), HEX_DIGITS)) */\n      mstore8\n        /* \"@openzeppelin/contracts/utils/Strings.sol\":1170:1172  10 */\n      0x0a\n        /* \"@openzeppelin/contracts/utils/Strings.sol\":1161:1172  value /= 10 */\n      dup6\n      dup2\n      tag_189\n      jumpi\n      tag_190\n      tag_191\n      jump\t// in\n    tag_190:\n    tag_189:\n      div\n      swap5\n      pop\n        /* \"@openzeppelin/contracts/utils/Strings.sol\":1203:1204  0 */\n      0x00\n        /* \"@openzeppelin/contracts/utils/Strings.sol\":1194:1199  value */\n      dup6\n        /* \"@openzeppelin/contracts/utils/Strings.sol\":1194:1204  value == 0 */\n      sub\n        /* \"@openzeppelin/contracts/utils/Strings.sol\":979:1226  while (true) {... */\n      tag_187\n        /* \"@openzeppelin/contracts/utils/Strings.sol\":1190:1211  if (value == 0) break */\n      jumpi\n        /* \"@openzeppelin/contracts/utils/Strings.sol\":979:1226  while (true) {... */\n    tag_188:\n        /* \"@openzeppelin/contracts/utils/Strings.sol\":1246:1252  buffer */\n      dup2\n        /* \"@openzeppelin/contracts/utils/Strings.sol\":1239:1252  return buffer */\n      swap4\n      pop\n      pop\n      pop\n      pop\n        /* \"@openzeppelin/contracts/utils/Strings.sol\":637:1269  function toString(uint256 value) internal pure returns (string memory) {... */\n      swap2\n      swap1\n      pop\n      jump\t// out\n        /* \"6 \\xd0\\xb7\\xd0\\xb0\\xd0\\xbd\\xd1\\x8f\\xd1\\x82\\xd0\\xb8\\xd0\\xb5/Auction+.sol\":2764:2974  function CheckTimeAndWinner() private {... */\n    tag_149:\n        /* \"6 \\xd0\\xb7\\xd0\\xb0\\xd0\\xbd\\xd1\\x8f\\xd1\\x82\\xd0\\xb8\\xd0\\xb5/Auction+.sol\":2854:2862  StepTime */\n      sload(0x08)\n        /* \"6 \\xd0\\xb7\\xd0\\xb0\\xd0\\xbd\\xd1\\x8f\\xd1\\x82\\xd0\\xb8\\xd0\\xb5/Auction+.sol\":2836:2851  PreviousBidTime */\n      sload(0x09)\n        /* \"6 \\xd0\\xb7\\xd0\\xb0\\xd0\\xbd\\xd1\\x8f\\xd1\\x82\\xd0\\xb8\\xd0\\xb5/Auction+.sol\":2836:2862  PreviousBidTime + StepTime */\n      tag_194\n      swap2\n      swap1\n      tag_137\n      jump\t// in\n    tag_194:\n        /* \"6 \\xd0\\xb7\\xd0\\xb0\\xd0\\xbd\\xd1\\x8f\\xd1\\x82\\xd0\\xb8\\xd0\\xb5/Auction+.sol\":2817:2832  block.timestamp */\n      timestamp\n        /* \"6 \\xd0\\xb7\\xd0\\xb0\\xd0\\xbd\\xd1\\x8f\\xd1\\x82\\xd0\\xb8\\xd0\\xb5/Auction+.sol\":2817:2862  block.timestamp >= PreviousBidTime + StepTime */\n      lt\n        /* \"6 \\xd0\\xb7\\xd0\\xb0\\xd0\\xbd\\xd1\\x8f\\xd1\\x82\\xd0\\xb8\\xd0\\xb5/Auction+.sol\":2813:2967  if (block.timestamp >= PreviousBidTime + StepTime){... */\n      tag_195\n      jumpi\n        /* \"6 \\xd0\\xb7\\xd0\\xb0\\xd0\\xbd\\xd1\\x8f\\xd1\\x82\\xd0\\xb8\\xd0\\xb5/Auction+.sol\":2889:2893  true */\n      0x01\n        /* \"6 \\xd0\\xb7\\xd0\\xb0\\xd0\\xbd\\xd1\\x8f\\xd1\\x82\\xd0\\xb8\\xd0\\xb5/Auction+.sol\":2878:2886  HasEnded */\n      0x06\n      0x01\n        /* \"6 \\xd0\\xb7\\xd0\\xb0\\xd0\\xbd\\xd1\\x8f\\xd1\\x82\\xd0\\xb8\\xd0\\xb5/Auction+.sol\":2878:2893  HasEnded = true */\n      0x0100\n      exp\n      dup2\n      sload\n      dup2\n      0xff\n      mul\n      not\n      and\n      swap1\n      dup4\n      iszero\n      iszero\n      mul\n      or\n      swap1\n      sstore\n      pop\n        /* \"6 \\xd0\\xb7\\xd0\\xb0\\xd0\\xbd\\xd1\\x8f\\xd1\\x82\\xd0\\xb8\\xd0\\xb5/Auction+.sol\":2917:2930  HighestBidder */\n      0x01\n      0x00\n      swap1\n      sload\n      swap1\n      0x0100\n      exp\n      swap1\n      div\n      0xffffffffffffffffffffffffffffffffffffffff\n      and\n        /* \"6 \\xd0\\xb7\\xd0\\xb0\\xd0\\xbd\\xd1\\x8f\\xd1\\x82\\xd0\\xb8\\xd0\\xb5/Auction+.sol\":2908:2914  Winner */\n      0x02\n      0x00\n        /* \"6 \\xd0\\xb7\\xd0\\xb0\\xd0\\xbd\\xd1\\x8f\\xd1\\x82\\xd0\\xb8\\xd0\\xb5/Auction+.sol\":2908:2930  Winner = HighestBidder */\n      0x0100\n      exp\n      dup2\n      sload\n      dup2\n      0xffffffffffffffffffffffffffffffffffffffff\n      mul\n      not\n      and\n      swap1\n      dup4\n      0xffffffffffffffffffffffffffffffffffffffff\n      and\n      mul\n      or\n      swap1\n      sstore\n      pop\n        /* \"6 \\xd0\\xb7\\xd0\\xb0\\xd0\\xbd\\xd1\\x8f\\xd1\\x82\\xd0\\xb8\\xd0\\xb5/Auction+.sol\":2945:2955  Withdraw() */\n      tag_196\n        /* \"6 \\xd0\\xb7\\xd0\\xb0\\xd0\\xbd\\xd1\\x8f\\xd1\\x82\\xd0\\xb8\\xd0\\xb5/Auction+.sol\":2945:2953  Withdraw */\n      tag_122\n        /* \"6 \\xd0\\xb7\\xd0\\xb0\\xd0\\xbd\\xd1\\x8f\\xd1\\x82\\xd0\\xb8\\xd0\\xb5/Auction+.sol\":2945:2955  Withdraw() */\n      jump\t// in\n    tag_196:\n      pop\n        /* \"6 \\xd0\\xb7\\xd0\\xb0\\xd0\\xbd\\xd1\\x8f\\xd1\\x82\\xd0\\xb8\\xd0\\xb5/Auction+.sol\":2813:2967  if (block.timestamp >= PreviousBidTime + StepTime){... */\n    tag_195:\n        /* \"6 \\xd0\\xb7\\xd0\\xb0\\xd0\\xbd\\xd1\\x8f\\xd1\\x82\\xd0\\xb8\\xd0\\xb5/Auction+.sol\":2764:2974  function CheckTimeAndWinner() private {... */\n      jump\t// out\n        /* \"@openzeppelin/contracts/utils/math/Math.sol\":25316:26232  function log10(uint256 value) internal pure returns (uint256) {... */\n    tag_182:\n        /* \"@openzeppelin/contracts/utils/math/Math.sol\":25369:25376  uint256 */\n      0x00\n        /* \"@openzeppelin/contracts/utils/math/Math.sol\":25388:25402  uint256 result */\n      dup1\n        /* \"@openzeppelin/contracts/utils/math/Math.sol\":25405:25406  0 */\n      0x00\n        /* \"@openzeppelin/contracts/utils/math/Math.sol\":25388:25406  uint256 result = 0 */\n      swap1\n      pop\n        /* \"@openzeppelin/contracts/utils/math/Math.sol\":25453:25461  10 ** 64 */\n      0x184f03e93ff9f4daa797ed6e38ed64bf6a1f010000000000000000\n        /* \"@openzeppelin/contracts/utils/math/Math.sol\":25444:25449  value */\n      dup4\n        /* \"@openzeppelin/contracts/utils/math/Math.sol\":25444:25461  value >= 10 ** 64 */\n      lt\n        /* \"@openzeppelin/contracts/utils/math/Math.sol\":25440:25543  if (value >= 10 ** 64) {... */\n      tag_198\n      jumpi\n        /* \"@openzeppelin/contracts/utils/math/Math.sol\":25490:25498  10 ** 64 */\n      0x184f03e93ff9f4daa797ed6e38ed64bf6a1f010000000000000000\n        /* \"@openzeppelin/contracts/utils/math/Math.sol\":25481:25498  value /= 10 ** 64 */\n      dup4\n      dup2\n      tag_199\n      jumpi\n      tag_200\n      tag_191\n      jump\t// in\n    tag_200:\n    tag_199:\n      div\n      swap3\n      pop\n        /* \"@openzeppelin/contracts/utils/math/Math.sol\":25526:25528  64 */\n      0x40\n        /* \"@openzeppelin/contracts/utils/math/Math.sol\":25516:25528  result += 64 */\n      dup2\n      add\n      swap1\n      pop\n        /* \"@openzeppelin/contracts/utils/math/Math.sol\":25440:25543  if (value >= 10 ** 64) {... */\n    tag_198:\n        /* \"@openzeppelin/contracts/utils/math/Math.sol\":25569:25577  10 ** 32 */\n      0x04ee2d6d415b85acef8100000000\n        /* \"@openzeppelin/contracts/utils/math/Math.sol\":25560:25565  value */\n      dup4\n        /* \"@openzeppelin/contracts/utils/math/Math.sol\":25560:25577  value >= 10 ** 32 */\n      lt\n        /* \"@openzeppelin/contracts/utils/math/Math.sol\":25556:25659  if (value >= 10 ** 32) {... */\n      tag_201\n      jumpi\n        /* \"@openzeppelin/contracts/utils/math/Math.sol\":25606:25614  10 ** 32 */\n      0x04ee2d6d415b85acef8100000000\n        /* \"@openzeppelin/contracts/utils/math/Math.sol\":25597:25614  value /= 10 ** 32 */\n      dup4\n      dup2\n      tag_202\n      jumpi\n      tag_203\n      tag_191\n      jump\t// in\n    tag_203:\n    tag_202:\n      div\n      swap3\n      pop\n        /* \"@openzeppelin/contracts/utils/math/Math.sol\":25642:25644  32 */\n      0x20\n        /* \"@openzeppelin/contracts/utils/math/Math.sol\":25632:25644  result += 32 */\n      dup2\n      add\n      swap1\n      pop\n        /* \"@openzeppelin/contracts/utils/math/Math.sol\":25556:25659  if (value >= 10 ** 32) {... */\n    tag_201:\n        /* \"@openzeppelin/contracts/utils/math/Math.sol\":25685:25693  10 ** 16 */\n      0x2386f26fc10000\n        /* \"@openzeppelin/contracts/utils/math/Math.sol\":25676:25681  value */\n      dup4\n        /* \"@openzeppelin/contracts/utils/math/Math.sol\":25676:25693  value >= 10 ** 16 */\n      lt\n        /* \"@openzeppelin/contracts/utils/math/Math.sol\":25672:25775  if (value >= 10 ** 16) {... */\n      tag_204\n      jumpi\n        /* \"@openzeppelin/contracts/utils/math/Math.sol\":25722:25730  10 ** 16 */\n      0x2386f26fc10000\n        /* \"@openzeppelin/contracts/utils/math/Math.sol\":25713:25730  value /= 10 ** 16 */\n      dup4\n      dup2\n      tag_205\n      jumpi\n      tag_206\n      tag_191\n      jump\t// in\n    tag_206:\n    tag_205:\n      div\n      swap3\n      pop\n        /* \"@openzeppelin/contracts/utils/math/Math.sol\":25758:25760  16 */\n      0x10\n        /* \"@openzeppelin/contracts/utils/math/Math.sol\":25748:25760  result += 16 */\n      dup2\n      add\n      swap1\n      pop\n        /* \"@openzeppelin/contracts/utils/math/Math.sol\":25672:25775  if (value >= 10 ** 16) {... */\n    tag_204:\n        /* \"@openzeppelin/contracts/utils/math/Math.sol\":25801:25808  10 ** 8 */\n      0x05f5e100\n        /* \"@openzeppelin/contracts/utils/math/Math.sol\":25792:25797  value */\n      dup4\n        /* \"@openzeppelin/contracts/utils/math/Math.sol\":25792:25808  value >= 10 ** 8 */\n      lt\n        /* \"@openzeppelin/contracts/utils/math/Math.sol\":25788:25888  if (value >= 10 ** 8) {... */\n      tag_207\n      jumpi\n        /* \"@openzeppelin/contracts/utils/math/Math.sol\":25837:25844  10 ** 8 */\n      0x05f5e100\n        /* \"@openzeppelin/contracts/utils/math/Math.sol\":25828:25844  value /= 10 ** 8 */\n      dup4\n      dup2\n      tag_208\n      jumpi\n      tag_209\n      tag_191\n      jump\t// in\n    tag_209:\n    tag_208:\n      div\n      swap3\n      pop\n        /* \"@openzeppelin/contracts/utils/math/Math.sol\":25872:25873  8 */\n      0x08\n        /* \"@openzeppelin/contracts/utils/math/Math.sol\":25862:25873  result += 8 */\n      dup2\n      add\n      swap1\n      pop\n        /* \"@openzeppelin/contracts/utils/math/Math.sol\":25788:25888  if (value >= 10 ** 8) {... */\n    tag_207:\n        /* \"@openzeppelin/contracts/utils/math/Math.sol\":25914:25921  10 ** 4 */\n      0x2710\n        /* \"@openzeppelin/contracts/utils/math/Math.sol\":25905:25910  value */\n      dup4\n        /* \"@openzeppelin/contracts/utils/math/Math.sol\":25905:25921  value >= 10 ** 4 */\n      lt\n        /* \"@openzeppelin/contracts/utils/math/Math.sol\":25901:26001  if (value >= 10 ** 4) {... */\n      tag_210\n      jumpi\n        /* \"@openzeppelin/contracts/utils/math/Math.sol\":25950:25957  10 ** 4 */\n      0x2710\n        /* \"@openzeppelin/contracts/utils/math/Math.sol\":25941:25957  value /= 10 ** 4 */\n      dup4\n      dup2\n      tag_211\n      jumpi\n      tag_212\n      tag_191\n      jump\t// in\n    tag_212:\n    tag_211:\n      div\n      swap3\n      pop\n        /* \"@openzeppelin/contracts/utils/math/Math.sol\":25985:25986  4 */\n      0x04\n        /* \"@openzeppelin/contracts/utils/math/Math.sol\":25975:25986  result += 4 */\n      dup2\n      add\n      swap1\n      pop\n        /* \"@openzeppelin/contracts/utils/math/Math.sol\":25901:26001  if (value >= 10 ** 4) {... */\n    tag_210:\n        /* \"@openzeppelin/contracts/utils/math/Math.sol\":26027:26034  10 ** 2 */\n      0x64\n        /* \"@openzeppelin/contracts/utils/math/Math.sol\":26018:26023  value */\n      dup4\n        /* \"@openzeppelin/contracts/utils/math/Math.sol\":26018:26034  value >= 10 ** 2 */\n      lt\n        /* \"@openzeppelin/contracts/utils/math/Math.sol\":26014:26114  if (value >= 10 ** 2) {... */\n      tag_213\n      jumpi\n        /* \"@openzeppelin/contracts/utils/math/Math.sol\":26063:26070  10 ** 2 */\n      0x64\n        /* \"@openzeppelin/contracts/utils/math/Math.sol\":26054:26070  value /= 10 ** 2 */\n      dup4\n      dup2\n      tag_214\n      jumpi\n      tag_215\n      tag_191\n      jump\t// in\n    tag_215:\n    tag_214:\n      div\n      swap3\n      pop\n        /* \"@openzeppelin/contracts/utils/math/Math.sol\":26098:26099  2 */\n      0x02\n        /* \"@openzeppelin/contracts/utils/math/Math.sol\":26088:26099  result += 2 */\n      dup2\n      add\n      swap1\n      pop\n        /* \"@openzeppelin/contracts/utils/math/Math.sol\":26014:26114  if (value >= 10 ** 2) {... */\n    tag_213:\n        /* \"@openzeppelin/contracts/utils/math/Math.sol\":26140:26147  10 ** 1 */\n      0x0a\n        /* \"@openzeppelin/contracts/utils/math/Math.sol\":26131:26136  value */\n      dup4\n        /* \"@openzeppelin/contracts/utils/math/Math.sol\":26131:26147  value >= 10 ** 1 */\n      lt\n        /* \"@openzeppelin/contracts/utils/math/Math.sol\":26127:26193  if (value >= 10 ** 1) {... */\n      tag_216\n      jumpi\n        /* \"@openzeppelin/contracts/utils/math/Math.sol\":26177:26178  1 */\n      0x01\n        /* \"@openzeppelin/contracts/utils/math/Math.sol\":26167:26178  result += 1 */\n      dup2\n      add\n      swap1\n      pop\n        /* \"@openzeppelin/contracts/utils/math/Math.sol\":26127:26193  if (value >= 10 ** 1) {... */\n    tag_216:\n        /* \"@openzeppelin/contracts/utils/math/Math.sol\":26219:26225  result */\n      dup1\n        /* \"@openzeppelin/contracts/utils/math/Math.sol\":26212:26225  return result */\n      swap2\n      pop\n      pop\n        /* \"@openzeppelin/contracts/utils/math/Math.sol\":25316:26232  function log10(uint256 value) internal pure returns (uint256) {... */\n      swap2\n      swap1\n      pop\n      jump\t// out\n        /* \"#utility.yul\":7:97   */\n    tag_217:\n        /* \"#utility.yul\":41:48   */\n      0x00\n        /* \"#utility.yul\":84:89   */\n      dup2\n        /* \"#utility.yul\":77:90   */\n      iszero\n        /* \"#utility.yul\":70:91   */\n      iszero\n        /* \"#utility.yul\":59:91   */\n      swap1\n      pop\n        /* \"#utility.yul\":7:97   */\n      swap2\n      swap1\n      pop\n      jump\t// out\n        /* \"#utility.yul\":103:212   */\n    tag_218:\n        /* \"#utility.yul\":184:205   */\n      tag_272\n        /* \"#utility.yul\":199:204   */\n      dup2\n        /* \"#utility.yul\":184:205   */\n      tag_217\n      jump\t// in\n    tag_272:\n        /* \"#utility.yul\":179:182   */\n      dup3\n        /* \"#utility.yul\":172:206   */\n      mstore\n        /* \"#utility.yul\":103:212   */\n      pop\n      pop\n      jump\t// out\n        /* \"#utility.yul\":218:428   */\n    tag_28:\n        /* \"#utility.yul\":305:309   */\n      0x00\n        /* \"#utility.yul\":343:345   */\n      0x20\n        /* \"#utility.yul\":332:341   */\n      dup3\n        /* \"#utility.yul\":328:346   */\n      add\n        /* \"#utility.yul\":320:346   */\n      swap1\n      pop\n        /* \"#utility.yul\":356:421   */\n      tag_274\n        /* \"#utility.yul\":418:419   */\n      0x00\n        /* \"#utility.yul\":407:416   */\n      dup4\n        /* \"#utility.yul\":403:420   */\n      add\n        /* \"#utility.yul\":394:400   */\n      dup5\n        /* \"#utility.yul\":356:421   */\n      tag_218\n      jump\t// in\n    tag_274:\n        /* \"#utility.yul\":218:428   */\n      swap3\n      swap2\n      pop\n      pop\n      jump\t// out\n        /* \"#utility.yul\":434:511   */\n    tag_219:\n        /* \"#utility.yul\":471:478   */\n      0x00\n        /* \"#utility.yul\":500:505   */\n      dup2\n        /* \"#utility.yul\":489:505   */\n      swap1\n      pop\n        /* \"#utility.yul\":434:511   */\n      swap2\n      swap1\n      pop\n      jump\t// out\n        /* \"#utility.yul\":517:635   */\n    tag_220:\n        /* \"#utility.yul\":604:628   */\n      tag_277\n        /* \"#utility.yul\":622:627   */\n      dup2\n        /* \"#utility.yul\":604:628   */\n      tag_219\n      jump\t// in\n    tag_277:\n        /* \"#utility.yul\":599:602   */\n      dup3\n        /* \"#utility.yul\":592:629   */\n      mstore\n        /* \"#utility.yul\":517:635   */\n      pop\n      pop\n      jump\t// out\n        /* \"#utility.yul\":641:863   */\n    tag_33:\n        /* \"#utility.yul\":734:738   */\n      0x00\n        /* \"#utility.yul\":772:774   */\n      0x20\n        /* \"#utility.yul\":761:770   */\n      dup3\n        /* \"#utility.yul\":757:775   */\n      add\n        /* \"#utility.yul\":749:775   */\n      swap1\n      pop\n        /* \"#utility.yul\":785:856   */\n      tag_279\n        /* \"#utility.yul\":853:854   */\n      0x00\n        /* \"#utility.yul\":842:851   */\n      dup4\n        /* \"#utility.yul\":838:855   */\n      add\n        /* \"#utility.yul\":829:835   */\n      dup5\n        /* \"#utility.yul\":785:856   */\n      tag_220\n      jump\t// in\n    tag_279:\n        /* \"#utility.yul\":641:863   */\n      swap3\n      swap2\n      pop\n      pop\n      jump\t// out\n        /* \"#utility.yul\":869:968   */\n    tag_221:\n        /* \"#utility.yul\":921:927   */\n      0x00\n        /* \"#utility.yul\":955:960   */\n      dup2\n        /* \"#utility.yul\":949:961   */\n      mload\n        /* \"#utility.yul\":939:961   */\n      swap1\n      pop\n        /* \"#utility.yul\":869:968   */\n      swap2\n      swap1\n      pop\n      jump\t// out\n        /* \"#utility.yul\":974:1143   */\n    tag_222:\n        /* \"#utility.yul\":1058:1069   */\n      0x00\n        /* \"#utility.yul\":1092:1098   */\n      dup3\n        /* \"#utility.yul\":1087:1090   */\n      dup3\n        /* \"#utility.yul\":1080:1099   */\n      mstore\n        /* \"#utility.yul\":1132:1136   */\n      0x20\n        /* \"#utility.yul\":1127:1130   */\n      dup3\n        /* \"#utility.yul\":1123:1137   */\n      add\n        /* \"#utility.yul\":1108:1137   */\n      swap1\n      pop\n        /* \"#utility.yul\":974:1143   */\n      swap3\n      swap2\n      pop\n      pop\n      jump\t// out\n        /* \"#utility.yul\":1149:1288   */\n    tag_223:\n        /* \"#utility.yul\":1238:1244   */\n      dup3\n        /* \"#utility.yul\":1233:1236   */\n      dup2\n        /* \"#utility.yul\":1228:1231   */\n      dup4\n        /* \"#utility.yul\":1222:1245   */\n      mcopy\n        /* \"#utility.yul\":1279:1280   */\n      0x00\n        /* \"#utility.yul\":1270:1276   */\n      dup4\n        /* \"#utility.yul\":1265:1268   */\n      dup4\n        /* \"#utility.yul\":1261:1277   */\n      add\n        /* \"#utility.yul\":1254:1281   */\n      mstore\n        /* \"#utility.yul\":1149:1288   */\n      pop\n      pop\n      pop\n      jump\t// out\n        /* \"#utility.yul\":1294:1396   */\n    tag_224:\n        /* \"#utility.yul\":1335:1341   */\n      0x00\n        /* \"#utility.yul\":1386:1388   */\n      0x1f\n        /* \"#utility.yul\":1382:1389   */\n      not\n        /* \"#utility.yul\":1377:1379   */\n      0x1f\n        /* \"#utility.yul\":1370:1375   */\n      dup4\n        /* \"#utility.yul\":1366:1380   */\n      add\n        /* \"#utility.yul\":1362:1390   */\n      and\n        /* \"#utility.yul\":1352:1390   */\n      swap1\n      pop\n        /* \"#utility.yul\":1294:1396   */\n      swap2\n      swap1\n      pop\n      jump\t// out\n        /* \"#utility.yul\":1402:1779   */\n    tag_225:\n        /* \"#utility.yul\":1490:1493   */\n      0x00\n        /* \"#utility.yul\":1518:1557   */\n      tag_285\n        /* \"#utility.yul\":1551:1556   */\n      dup3\n        /* \"#utility.yul\":1518:1557   */\n      tag_221\n      jump\t// in\n    tag_285:\n        /* \"#utility.yul\":1573:1644   */\n      tag_286\n        /* \"#utility.yul\":1637:1643   */\n      dup2\n        /* \"#utility.yul\":1632:1635   */\n      dup6\n        /* \"#utility.yul\":1573:1644   */\n      tag_222\n      jump\t// in\n    tag_286:\n        /* \"#utility.yul\":1566:1644   */\n      swap4\n      pop\n        /* \"#utility.yul\":1653:1718   */\n      tag_287\n        /* \"#utility.yul\":1711:1717   */\n      dup2\n        /* \"#utility.yul\":1706:1709   */\n      dup6\n        /* \"#utility.yul\":1699:1703   */\n      0x20\n        /* \"#utility.yul\":1692:1697   */\n      dup7\n        /* \"#utility.yul\":1688:1704   */\n      add\n        /* \"#utility.yul\":1653:1718   */\n      tag_223\n      jump\t// in\n    tag_287:\n        /* \"#utility.yul\":1743:1772   */\n      tag_288\n        /* \"#utility.yul\":1765:1771   */\n      dup2\n        /* \"#utility.yul\":1743:1772   */\n      tag_224\n      jump\t// in\n    tag_288:\n        /* \"#utility.yul\":1738:1741   */\n      dup5\n        /* \"#utility.yul\":1734:1773   */\n      add\n        /* \"#utility.yul\":1727:1773   */\n      swap2\n      pop\n        /* \"#utility.yul\":1494:1779   */\n      pop\n        /* \"#utility.yul\":1402:1779   */\n      swap3\n      swap2\n      pop\n      pop\n      jump\t// out\n        /* \"#utility.yul\":1785:2098   */\n    tag_48:\n        /* \"#utility.yul\":1898:1902   */\n      0x00\n        /* \"#utility.yul\":1936:1938   */\n      0x20\n        /* \"#utility.yul\":1925:1934   */\n      dup3\n        /* \"#utility.yul\":1921:1939   */\n      add\n        /* \"#utility.yul\":1913:1939   */\n      swap1\n      pop\n        /* \"#utility.yul\":1985:1994   */\n      dup2\n        /* \"#utility.yul\":1979:1983   */\n      dup2\n        /* \"#utility.yul\":1975:1995   */\n      sub\n        /* \"#utility.yul\":1971:1972   */\n      0x00\n        /* \"#utility.yul\":1960:1969   */\n      dup4\n        /* \"#utility.yul\":1956:1973   */\n      add\n        /* \"#utility.yul\":1949:1996   */\n      mstore\n        /* \"#utility.yul\":2013:2091   */\n      tag_290\n        /* \"#utility.yul\":2086:2090   */\n      dup2\n        /* \"#utility.yul\":2077:2083   */\n      dup5\n        /* \"#utility.yul\":2013:2091   */\n      tag_225\n      jump\t// in\n    tag_290:\n        /* \"#utility.yul\":2005:2091   */\n      swap1\n      pop\n        /* \"#utility.yul\":1785:2098   */\n      swap3\n      swap2\n      pop\n      pop\n      jump\t// out\n        /* \"#utility.yul\":2104:2230   */\n    tag_226:\n        /* \"#utility.yul\":2141:2148   */\n      0x00\n        /* \"#utility.yul\":2181:2223   */\n      0xffffffffffffffffffffffffffffffffffffffff\n        /* \"#utility.yul\":2174:2179   */\n      dup3\n        /* \"#utility.yul\":2170:2224   */\n      and\n        /* \"#utility.yul\":2159:2224   */\n      swap1\n      pop\n        /* \"#utility.yul\":2104:2230   */\n      swap2\n      swap1\n      pop\n      jump\t// out\n        /* \"#utility.yul\":2236:2332   */\n    tag_227:\n        /* \"#utility.yul\":2273:2280   */\n      0x00\n        /* \"#utility.yul\":2302:2326   */\n      tag_293\n        /* \"#utility.yul\":2320:2325   */\n      dup3\n        /* \"#utility.yul\":2302:2326   */\n      tag_226\n      jump\t// in\n    tag_293:\n        /* \"#utility.yul\":2291:2326   */\n      swap1\n      pop\n        /* \"#utility.yul\":2236:2332   */\n      swap2\n      swap1\n      pop\n      jump\t// out\n        /* \"#utility.yul\":2338:2456   */\n    tag_228:\n        /* \"#utility.yul\":2425:2449   */\n      tag_295\n        /* \"#utility.yul\":2443:2448   */\n      dup2\n        /* \"#utility.yul\":2425:2449   */\n      tag_227\n      jump\t// in\n    tag_295:\n        /* \"#utility.yul\":2420:2423   */\n      dup3\n        /* \"#utility.yul\":2413:2450   */\n      mstore\n        /* \"#utility.yul\":2338:2456   */\n      pop\n      pop\n      jump\t// out\n        /* \"#utility.yul\":2462:2684   */\n    tag_63:\n        /* \"#utility.yul\":2555:2559   */\n      0x00\n        /* \"#utility.yul\":2593:2595   */\n      0x20\n        /* \"#utility.yul\":2582:2591   */\n      dup3\n        /* \"#utility.yul\":2578:2596   */\n      add\n        /* \"#utility.yul\":2570:2596   */\n      swap1\n      pop\n        /* \"#utility.yul\":2606:2677   */\n      tag_297\n        /* \"#utility.yul\":2674:2675   */\n      0x00\n        /* \"#utility.yul\":2663:2672   */\n      dup4\n        /* \"#utility.yul\":2659:2676   */\n      add\n        /* \"#utility.yul\":2650:2656   */\n      dup5\n        /* \"#utility.yul\":2606:2677   */\n      tag_228\n      jump\t// in\n    tag_297:\n        /* \"#utility.yul\":2462:2684   */\n      swap3\n      swap2\n      pop\n      pop\n      jump\t// out\n        /* \"#utility.yul\":2690:2830   */\n    tag_229:\n        /* \"#utility.yul\":2783:2789   */\n      0x00\n        /* \"#utility.yul\":2817:2822   */\n      dup2\n        /* \"#utility.yul\":2811:2823   */\n      mload\n        /* \"#utility.yul\":2801:2823   */\n      swap1\n      pop\n        /* \"#utility.yul\":2690:2830   */\n      swap2\n      swap1\n      pop\n      jump\t// out\n        /* \"#utility.yul\":2836:3046   */\n    tag_230:\n        /* \"#utility.yul\":2961:2972   */\n      0x00\n        /* \"#utility.yul\":2995:3001   */\n      dup3\n        /* \"#utility.yul\":2990:2993   */\n      dup3\n        /* \"#utility.yul\":2983:3002   */\n      mstore\n        /* \"#utility.yul\":3035:3039   */\n      0x20\n        /* \"#utility.yul\":3030:3033   */\n      dup3\n        /* \"#utility.yul\":3026:3040   */\n      add\n        /* \"#utility.yul\":3011:3040   */\n      swap1\n      pop\n        /* \"#utility.yul\":2836:3046   */\n      swap3\n      swap2\n      pop\n      pop\n      jump\t// out\n        /* \"#utility.yul\":3052:3210   */\n    tag_231:\n        /* \"#utility.yul\":3145:3149   */\n      0x00\n        /* \"#utility.yul\":3168:3171   */\n      dup2\n        /* \"#utility.yul\":3160:3171   */\n      swap1\n      pop\n        /* \"#utility.yul\":3198:3202   */\n      0x20\n        /* \"#utility.yul\":3193:3196   */\n      dup3\n        /* \"#utility.yul\":3189:3203   */\n      add\n        /* \"#utility.yul\":3181:3203   */\n      swap1\n      pop\n        /* \"#utility.yul\":3052:3210   */\n      swap2\n      swap1\n      pop\n      jump\t// out\n        /* \"#utility.yul\":3216:3324   */\n    tag_232:\n        /* \"#utility.yul\":3293:3317   */\n      tag_302\n        /* \"#utility.yul\":3311:3316   */\n      dup2\n        /* \"#utility.yul\":3293:3317   */\n      tag_227\n      jump\t// in\n    tag_302:\n        /* \"#utility.yul\":3288:3291   */\n      dup3\n        /* \"#utility.yul\":3281:3318   */\n      mstore\n        /* \"#utility.yul\":3216:3324   */\n      pop\n      pop\n      jump\t// out\n        /* \"#utility.yul\":3330:3438   */\n    tag_233:\n        /* \"#utility.yul\":3407:3431   */\n      tag_304\n        /* \"#utility.yul\":3425:3430   */\n      dup2\n        /* \"#utility.yul\":3407:3431   */\n      tag_219\n      jump\t// in\n    tag_304:\n        /* \"#utility.yul\":3402:3405   */\n      dup3\n        /* \"#utility.yul\":3395:3432   */\n      mstore\n        /* \"#utility.yul\":3330:3438   */\n      pop\n      pop\n      jump\t// out\n        /* \"#utility.yul\":3504:4186   */\n    tag_234:\n        /* \"#utility.yul\":3643:3647   */\n      0x60\n        /* \"#utility.yul\":3638:3641   */\n      dup3\n        /* \"#utility.yul\":3634:3648   */\n      add\n        /* \"#utility.yul\":3732:3736   */\n      0x00\n        /* \"#utility.yul\":3725:3730   */\n      dup3\n        /* \"#utility.yul\":3721:3737   */\n      add\n        /* \"#utility.yul\":3715:3738   */\n      mload\n        /* \"#utility.yul\":3751:3814   */\n      tag_306\n        /* \"#utility.yul\":3808:3812   */\n      0x00\n        /* \"#utility.yul\":3803:3806   */\n      dup6\n        /* \"#utility.yul\":3799:3813   */\n      add\n        /* \"#utility.yul\":3785:3797   */\n      dup3\n        /* \"#utility.yul\":3751:3814   */\n      tag_232\n      jump\t// in\n    tag_306:\n        /* \"#utility.yul\":3658:3824   */\n      pop\n        /* \"#utility.yul\":3908:3912   */\n      0x20\n        /* \"#utility.yul\":3901:3906   */\n      dup3\n        /* \"#utility.yul\":3897:3913   */\n      add\n        /* \"#utility.yul\":3891:3914   */\n      mload\n        /* \"#utility.yul\":3927:3990   */\n      tag_307\n        /* \"#utility.yul\":3984:3988   */\n      0x20\n        /* \"#utility.yul\":3979:3982   */\n      dup6\n        /* \"#utility.yul\":3975:3989   */\n      add\n        /* \"#utility.yul\":3961:3973   */\n      dup3\n        /* \"#utility.yul\":3927:3990   */\n      tag_233\n      jump\t// in\n    tag_307:\n        /* \"#utility.yul\":3834:4000   */\n      pop\n        /* \"#utility.yul\":4087:4091   */\n      0x40\n        /* \"#utility.yul\":4080:4085   */\n      dup3\n        /* \"#utility.yul\":4076:4092   */\n      add\n        /* \"#utility.yul\":4070:4093   */\n      mload\n        /* \"#utility.yul\":4106:4169   */\n      tag_308\n        /* \"#utility.yul\":4163:4167   */\n      0x40\n        /* \"#utility.yul\":4158:4161   */\n      dup6\n        /* \"#utility.yul\":4154:4168   */\n      add\n        /* \"#utility.yul\":4140:4152   */\n      dup3\n        /* \"#utility.yul\":4106:4169   */\n      tag_233\n      jump\t// in\n    tag_308:\n        /* \"#utility.yul\":4010:4179   */\n      pop\n        /* \"#utility.yul\":3612:4186   */\n      pop\n        /* \"#utility.yul\":3504:4186   */\n      pop\n      pop\n      jump\t// out\n        /* \"#utility.yul\":4192:4475   */\n    tag_235:\n        /* \"#utility.yul\":4313:4323   */\n      0x00\n        /* \"#utility.yul\":4334:4432   */\n      tag_310\n        /* \"#utility.yul\":4428:4431   */\n      dup4\n        /* \"#utility.yul\":4420:4426   */\n      dup4\n        /* \"#utility.yul\":4334:4432   */\n      tag_234\n      jump\t// in\n    tag_310:\n        /* \"#utility.yul\":4464:4468   */\n      0x60\n        /* \"#utility.yul\":4459:4462   */\n      dup4\n        /* \"#utility.yul\":4455:4469   */\n      add\n        /* \"#utility.yul\":4441:4469   */\n      swap1\n      pop\n        /* \"#utility.yul\":4192:4475   */\n      swap3\n      swap2\n      pop\n      pop\n      jump\t// out\n        /* \"#utility.yul\":4481:4620   */\n    tag_236:\n        /* \"#utility.yul\":4577:4581   */\n      0x00\n        /* \"#utility.yul\":4609:4613   */\n      0x20\n        /* \"#utility.yul\":4604:4607   */\n      dup3\n        /* \"#utility.yul\":4600:4614   */\n      add\n        /* \"#utility.yul\":4592:4614   */\n      swap1\n      pop\n        /* \"#utility.yul\":4481:4620   */\n      swap2\n      swap1\n      pop\n      jump\t// out\n        /* \"#utility.yul\":4690:5630   */\n    tag_237:\n        /* \"#utility.yul\":4861:4864   */\n      0x00\n        /* \"#utility.yul\":4890:4970   */\n      tag_313\n        /* \"#utility.yul\":4964:4969   */\n      dup3\n        /* \"#utility.yul\":4890:4970   */\n      tag_229\n      jump\t// in\n    tag_313:\n        /* \"#utility.yul\":4986:5098   */\n      tag_314\n        /* \"#utility.yul\":5091:5097   */\n      dup2\n        /* \"#utility.yul\":5086:5089   */\n      dup6\n        /* \"#utility.yul\":4986:5098   */\n      tag_230\n      jump\t// in\n    tag_314:\n        /* \"#utility.yul\":4979:5098   */\n      swap4\n      pop\n        /* \"#utility.yul\":5122:5204   */\n      tag_315\n        /* \"#utility.yul\":5198:5203   */\n      dup4\n        /* \"#utility.yul\":5122:5204   */\n      tag_231\n      jump\t// in\n    tag_315:\n        /* \"#utility.yul\":5227:5234   */\n      dup1\n        /* \"#utility.yul\":5258:5259   */\n      0x00\n        /* \"#utility.yul\":5243:5605   */\n    tag_316:\n        /* \"#utility.yul\":5268:5274   */\n      dup4\n        /* \"#utility.yul\":5265:5266   */\n      dup2\n        /* \"#utility.yul\":5262:5275   */\n      lt\n        /* \"#utility.yul\":5243:5605   */\n      iszero\n      tag_318\n      jumpi\n        /* \"#utility.yul\":5344:5350   */\n      dup2\n        /* \"#utility.yul\":5338:5351   */\n      mload\n        /* \"#utility.yul\":5371:5486   */\n      tag_319\n        /* \"#utility.yul\":5482:5485   */\n      dup9\n        /* \"#utility.yul\":5467:5480   */\n      dup3\n        /* \"#utility.yul\":5371:5486   */\n      tag_235\n      jump\t// in\n    tag_319:\n        /* \"#utility.yul\":5364:5486   */\n      swap8\n      pop\n        /* \"#utility.yul\":5509:5595   */\n      tag_320\n        /* \"#utility.yul\":5588:5594   */\n      dup4\n        /* \"#utility.yul\":5509:5595   */\n      tag_236\n      jump\t// in\n    tag_320:\n        /* \"#utility.yul\":5499:5595   */\n      swap3\n      pop\n        /* \"#utility.yul\":5303:5605   */\n      pop\n        /* \"#utility.yul\":5290:5291   */\n      0x01\n        /* \"#utility.yul\":5287:5288   */\n      dup2\n        /* \"#utility.yul\":5283:5292   */\n      add\n        /* \"#utility.yul\":5278:5292   */\n      swap1\n      pop\n        /* \"#utility.yul\":5243:5605   */\n      jump(tag_316)\n    tag_318:\n        /* \"#utility.yul\":5247:5261   */\n      pop\n        /* \"#utility.yul\":5621:5624   */\n      dup6\n        /* \"#utility.yul\":5614:5624   */\n      swap4\n      pop\n        /* \"#utility.yul\":4866:5630   */\n      pop\n      pop\n      pop\n        /* \"#utility.yul\":4690:5630   */\n      swap3\n      swap2\n      pop\n      pop\n      jump\t// out\n        /* \"#utility.yul\":5636:6113   */\n    tag_80:\n        /* \"#utility.yul\":5831:5835   */\n      0x00\n        /* \"#utility.yul\":5869:5871   */\n      0x20\n        /* \"#utility.yul\":5858:5867   */\n      dup3\n        /* \"#utility.yul\":5854:5872   */\n      add\n        /* \"#utility.yul\":5846:5872   */\n      swap1\n      pop\n        /* \"#utility.yul\":5918:5927   */\n      dup2\n        /* \"#utility.yul\":5912:5916   */\n      dup2\n        /* \"#utility.yul\":5908:5928   */\n      sub\n        /* \"#utility.yul\":5904:5905   */\n      0x00\n        /* \"#utility.yul\":5893:5902   */\n      dup4\n        /* \"#utility.yul\":5889:5906   */\n      add\n        /* \"#utility.yul\":5882:5929   */\n      mstore\n        /* \"#utility.yul\":5946:6106   */\n      tag_322\n        /* \"#utility.yul\":6101:6105   */\n      dup2\n        /* \"#utility.yul\":6092:6098   */\n      dup5\n        /* \"#utility.yul\":5946:6106   */\n      tag_237\n      jump\t// in\n    tag_322:\n        /* \"#utility.yul\":5938:6106   */\n      swap1\n      pop\n        /* \"#utility.yul\":5636:6113   */\n      swap3\n      swap2\n      pop\n      pop\n      jump\t// out\n        /* \"#utility.yul\":6200:6317   */\n    tag_239:\n        /* \"#utility.yul\":6309:6310   */\n      0x00\n        /* \"#utility.yul\":6306:6307   */\n      dup1\n        /* \"#utility.yul\":6299:6311   */\n      revert\n        /* \"#utility.yul\":6446:6568   */\n    tag_241:\n        /* \"#utility.yul\":6519:6543   */\n      tag_327\n        /* \"#utility.yul\":6537:6542   */\n      dup2\n        /* \"#utility.yul\":6519:6543   */\n      tag_227\n      jump\t// in\n    tag_327:\n        /* \"#utility.yul\":6512:6517   */\n      dup2\n        /* \"#utility.yul\":6509:6544   */\n      eq\n        /* \"#utility.yul\":6499:6562   */\n      tag_328\n      jumpi\n        /* \"#utility.yul\":6558:6559   */\n      0x00\n        /* \"#utility.yul\":6555:6556   */\n      dup1\n        /* \"#utility.yul\":6548:6560   */\n      revert\n        /* \"#utility.yul\":6499:6562   */\n    tag_328:\n        /* \"#utility.yul\":6446:6568   */\n      pop\n      jump\t// out\n        /* \"#utility.yul\":6574:6713   */\n    tag_242:\n        /* \"#utility.yul\":6620:6625   */\n      0x00\n        /* \"#utility.yul\":6658:6664   */\n      dup2\n        /* \"#utility.yul\":6645:6665   */\n      calldataload\n        /* \"#utility.yul\":6636:6665   */\n      swap1\n      pop\n        /* \"#utility.yul\":6674:6707   */\n      tag_330\n        /* \"#utility.yul\":6701:6706   */\n      dup2\n        /* \"#utility.yul\":6674:6707   */\n      tag_241\n      jump\t// in\n    tag_330:\n        /* \"#utility.yul\":6574:6713   */\n      swap3\n      swap2\n      pop\n      pop\n      jump\t// out\n        /* \"#utility.yul\":6719:7048   */\n    tag_87:\n        /* \"#utility.yul\":6778:6784   */\n      0x00\n        /* \"#utility.yul\":6827:6829   */\n      0x20\n        /* \"#utility.yul\":6815:6824   */\n      dup3\n        /* \"#utility.yul\":6806:6813   */\n      dup5\n        /* \"#utility.yul\":6802:6825   */\n      sub\n        /* \"#utility.yul\":6798:6830   */\n      slt\n        /* \"#utility.yul\":6795:6914   */\n      iszero\n      tag_332\n      jumpi\n        /* \"#utility.yul\":6833:6912   */\n      tag_333\n      tag_239\n      jump\t// in\n    tag_333:\n        /* \"#utility.yul\":6795:6914   */\n    tag_332:\n        /* \"#utility.yul\":6953:6954   */\n      0x00\n        /* \"#utility.yul\":6978:7031   */\n      tag_334\n        /* \"#utility.yul\":7023:7030   */\n      dup5\n        /* \"#utility.yul\":7014:7020   */\n      dup3\n        /* \"#utility.yul\":7003:7012   */\n      dup6\n        /* \"#utility.yul\":6999:7021   */\n      add\n        /* \"#utility.yul\":6978:7031   */\n      tag_242\n      jump\t// in\n    tag_334:\n        /* \"#utility.yul\":6968:7031   */\n      swap2\n      pop\n        /* \"#utility.yul\":6924:7041   */\n      pop\n        /* \"#utility.yul\":6719:7048   */\n      swap3\n      swap2\n      pop\n      pop\n      jump\t// out\n        /* \"#utility.yul\":7054:7234   */\n    tag_243:\n        /* \"#utility.yul\":7194:7226   */\n      0x5468652061756374696f6e20686173206e6f7420656e646564207965742e0000\n        /* \"#utility.yul\":7190:7191   */\n      0x00\n        /* \"#utility.yul\":7182:7188   */\n      dup3\n        /* \"#utility.yul\":7178:7192   */\n      add\n        /* \"#utility.yul\":7171:7227   */\n      mstore\n        /* \"#utility.yul\":7054:7234   */\n      pop\n      jump\t// out\n        /* \"#utility.yul\":7240:7606   */\n    tag_244:\n        /* \"#utility.yul\":7382:7385   */\n      0x00\n        /* \"#utility.yul\":7403:7470   */\n      tag_337\n        /* \"#utility.yul\":7467:7469   */\n      0x1e\n        /* \"#utility.yul\":7462:7465   */\n      dup4\n        /* \"#utility.yul\":7403:7470   */\n      tag_222\n      jump\t// in\n    tag_337:\n        /* \"#utility.yul\":7396:7470   */\n      swap2\n      pop\n        /* \"#utility.yul\":7479:7572   */\n      tag_338\n        /* \"#utility.yul\":7568:7571   */\n      dup3\n        /* \"#utility.yul\":7479:7572   */\n      tag_243\n      jump\t// in\n    tag_338:\n        /* \"#utility.yul\":7597:7599   */\n      0x20\n        /* \"#utility.yul\":7592:7595   */\n      dup3\n        /* \"#utility.yul\":7588:7600   */\n      add\n        /* \"#utility.yul\":7581:7600   */\n      swap1\n      pop\n        /* \"#utility.yul\":7240:7606   */\n      swap2\n      swap1\n      pop\n      jump\t// out\n        /* \"#utility.yul\":7612:8031   */\n    tag_104:\n        /* \"#utility.yul\":7778:7782   */\n      0x00\n        /* \"#utility.yul\":7816:7818   */\n      0x20\n        /* \"#utility.yul\":7805:7814   */\n      dup3\n        /* \"#utility.yul\":7801:7819   */\n      add\n        /* \"#utility.yul\":7793:7819   */\n      swap1\n      pop\n        /* \"#utility.yul\":7865:7874   */\n      dup2\n        /* \"#utility.yul\":7859:7863   */\n      dup2\n        /* \"#utility.yul\":7855:7875   */\n      sub\n        /* \"#utility.yul\":7851:7852   */\n      0x00\n        /* \"#utility.yul\":7840:7849   */\n      dup4\n        /* \"#utility.yul\":7836:7853   */\n      add\n        /* \"#utility.yul\":7829:7876   */\n      mstore\n        /* \"#utility.yul\":7893:8024   */\n      tag_340\n        /* \"#utility.yul\":8019:8023   */\n      dup2\n        /* \"#utility.yul\":7893:8024   */\n      tag_244\n      jump\t// in\n    tag_340:\n        /* \"#utility.yul\":7885:8024   */\n      swap1\n      pop\n        /* \"#utility.yul\":7612:8031   */\n      swap2\n      swap1\n      pop\n      jump\t// out\n        /* \"#utility.yul\":8037:8212   */\n    tag_245:\n        /* \"#utility.yul\":8177:8204   */\n      0x5468652077696e6e65722063616e6e6f7420726566756e642e00000000000000\n        /* \"#utility.yul\":8173:8174   */\n      0x00\n        /* \"#utility.yul\":8165:8171   */\n      dup3\n        /* \"#utility.yul\":8161:8175   */\n      add\n        /* \"#utility.yul\":8154:8205   */\n      mstore\n        /* \"#utility.yul\":8037:8212   */\n      pop\n      jump\t// out\n        /* \"#utility.yul\":8218:8584   */\n    tag_246:\n        /* \"#utility.yul\":8360:8363   */\n      0x00\n        /* \"#utility.yul\":8381:8448   */\n      tag_343\n        /* \"#utility.yul\":8445:8447   */\n      0x19\n        /* \"#utility.yul\":8440:8443   */\n      dup4\n        /* \"#utility.yul\":8381:8448   */\n      tag_222\n      jump\t// in\n    tag_343:\n        /* \"#utility.yul\":8374:8448   */\n      swap2\n      pop\n        /* \"#utility.yul\":8457:8550   */\n      tag_344\n        /* \"#utility.yul\":8546:8549   */\n      dup3\n        /* \"#utility.yul\":8457:8550   */\n      tag_245\n      jump\t// in\n    tag_344:\n        /* \"#utility.yul\":8575:8577   */\n      0x20\n        /* \"#utility.yul\":8570:8573   */\n      dup3\n        /* \"#utility.yul\":8566:8578   */\n      add\n        /* \"#utility.yul\":8559:8578   */\n      swap1\n      pop\n        /* \"#utility.yul\":8218:8584   */\n      swap2\n      swap1\n      pop\n      jump\t// out\n        /* \"#utility.yul\":8590:9009   */\n    tag_107:\n        /* \"#utility.yul\":8756:8760   */\n      0x00\n        /* \"#utility.yul\":8794:8796   */\n      0x20\n        /* \"#utility.yul\":8783:8792   */\n      dup3\n        /* \"#utility.yul\":8779:8797   */\n      add\n        /* \"#utility.yul\":8771:8797   */\n      swap1\n      pop\n        /* \"#utility.yul\":8843:8852   */\n      dup2\n        /* \"#utility.yul\":8837:8841   */\n      dup2\n        /* \"#utility.yul\":8833:8853   */\n      sub\n        /* \"#utility.yul\":8829:8830   */\n      0x00\n        /* \"#utility.yul\":8818:8827   */\n      dup4\n        /* \"#utility.yul\":8814:8831   */\n      add\n        /* \"#utility.yul\":8807:8854   */\n      mstore\n        /* \"#utility.yul\":8871:9002   */\n      tag_346\n        /* \"#utility.yul\":8997:9001   */\n      dup2\n        /* \"#utility.yul\":8871:9002   */\n      tag_246\n      jump\t// in\n    tag_346:\n        /* \"#utility.yul\":8863:9002   */\n      swap1\n      pop\n        /* \"#utility.yul\":8590:9009   */\n      swap2\n      swap1\n      pop\n      jump\t// out\n        /* \"#utility.yul\":9015:9188   */\n    tag_247:\n        /* \"#utility.yul\":9155:9180   */\n      0x596f7520617265206e6f74207468652073656c6c65722e000000000000000000\n        /* \"#utility.yul\":9151:9152   */\n      0x00\n        /* \"#utility.yul\":9143:9149   */\n      dup3\n        /* \"#utility.yul\":9139:9153   */\n      add\n        /* \"#utility.yul\":9132:9181   */\n      mstore\n        /* \"#utility.yul\":9015:9188   */\n      pop\n      jump\t// out\n        /* \"#utility.yul\":9194:9560   */\n    tag_248:\n        /* \"#utility.yul\":9336:9339   */\n      0x00\n        /* \"#utility.yul\":9357:9424   */\n      tag_349\n        /* \"#utility.yul\":9421:9423   */\n      0x17\n        /* \"#utility.yul\":9416:9419   */\n      dup4\n        /* \"#utility.yul\":9357:9424   */\n      tag_222\n      jump\t// in\n    tag_349:\n        /* \"#utility.yul\":9350:9424   */\n      swap2\n      pop\n        /* \"#utility.yul\":9433:9526   */\n      tag_350\n        /* \"#utility.yul\":9522:9525   */\n      dup3\n        /* \"#utility.yul\":9433:9526   */\n      tag_247\n      jump\t// in\n    tag_350:\n        /* \"#utility.yul\":9551:9553   */\n      0x20\n        /* \"#utility.yul\":9546:9549   */\n      dup3\n        /* \"#utility.yul\":9542:9554   */\n      add\n        /* \"#utility.yul\":9535:9554   */\n      swap1\n      pop\n        /* \"#utility.yul\":9194:9560   */\n      swap2\n      swap1\n      pop\n      jump\t// out\n        /* \"#utility.yul\":9566:9985   */\n    tag_113:\n        /* \"#utility.yul\":9732:9736   */\n      0x00\n        /* \"#utility.yul\":9770:9772   */\n      0x20\n        /* \"#utility.yul\":9759:9768   */\n      dup3\n        /* \"#utility.yul\":9755:9773   */\n      add\n        /* \"#utility.yul\":9747:9773   */\n      swap1\n      pop\n        /* \"#utility.yul\":9819:9828   */\n      dup2\n        /* \"#utility.yul\":9813:9817   */\n      dup2\n        /* \"#utility.yul\":9809:9829   */\n      sub\n        /* \"#utility.yul\":9805:9806   */\n      0x00\n        /* \"#utility.yul\":9794:9803   */\n      dup4\n        /* \"#utility.yul\":9790:9807   */\n      add\n        /* \"#utility.yul\":9783:9830   */\n      mstore\n        /* \"#utility.yul\":9847:9978   */\n      tag_352\n        /* \"#utility.yul\":9973:9977   */\n      dup2\n        /* \"#utility.yul\":9847:9978   */\n      tag_248\n      jump\t// in\n    tag_352:\n        /* \"#utility.yul\":9839:9978   */\n      swap1\n      pop\n        /* \"#utility.yul\":9566:9985   */\n      swap2\n      swap1\n      pop\n      jump\t// out\n        /* \"#utility.yul\":9991:10173   */\n    tag_249:\n        /* \"#utility.yul\":10131:10165   */\n      0x5468652061756374696f6e20686173206e6f742073746172746564207965742e\n        /* \"#utility.yul\":10127:10128   */\n      0x00\n        /* \"#utility.yul\":10119:10125   */\n      dup3\n        /* \"#utility.yul\":10115:10129   */\n      add\n        /* \"#utility.yul\":10108:10166   */\n      mstore\n        /* \"#utility.yul\":9991:10173   */\n      pop\n      jump\t// out\n        /* \"#utility.yul\":10179:10545   */\n    tag_250:\n        /* \"#utility.yul\":10321:10324   */\n      0x00\n        /* \"#utility.yul\":10342:10409   */\n      tag_355\n        /* \"#utility.yul\":10406:10408   */\n      0x20\n        /* \"#utility.yul\":10401:10404   */\n      dup4\n        /* \"#utility.yul\":10342:10409   */\n      tag_222\n      jump\t// in\n    tag_355:\n        /* \"#utility.yul\":10335:10409   */\n      swap2\n      pop\n        /* \"#utility.yul\":10418:10511   */\n      tag_356\n        /* \"#utility.yul\":10507:10510   */\n      dup3\n        /* \"#utility.yul\":10418:10511   */\n      tag_249\n      jump\t// in\n    tag_356:\n        /* \"#utility.yul\":10536:10538   */\n      0x20\n        /* \"#utility.yul\":10531:10534   */\n      dup3\n        /* \"#utility.yul\":10527:10539   */\n      add\n        /* \"#utility.yul\":10520:10539   */\n      swap1\n      pop\n        /* \"#utility.yul\":10179:10545   */\n      swap2\n      swap1\n      pop\n      jump\t// out\n        /* \"#utility.yul\":10551:10970   */\n    tag_117:\n        /* \"#utility.yul\":10717:10721   */\n      0x00\n        /* \"#utility.yul\":10755:10757   */\n      0x20\n        /* \"#utility.yul\":10744:10753   */\n      dup3\n        /* \"#utility.yul\":10740:10758   */\n      add\n        /* \"#utility.yul\":10732:10758   */\n      swap1\n      pop\n        /* \"#utility.yul\":10804:10813   */\n      dup2\n        /* \"#utility.yul\":10798:10802   */\n      dup2\n        /* \"#utility.yul\":10794:10814   */\n      sub\n        /* \"#utility.yul\":10790:10791   */\n      0x00\n        /* \"#utility.yul\":10779:10788   */\n      dup4\n        /* \"#utility.yul\":10775:10792   */\n      add\n        /* \"#utility.yul\":10768:10815   */\n      mstore\n        /* \"#utility.yul\":10832:10963   */\n      tag_358\n        /* \"#utility.yul\":10958:10962   */\n      dup2\n        /* \"#utility.yul\":10832:10963   */\n      tag_250\n      jump\t// in\n    tag_358:\n        /* \"#utility.yul\":10824:10963   */\n      swap1\n      pop\n        /* \"#utility.yul\":10551:10970   */\n      swap2\n      swap1\n      pop\n      jump\t// out\n        /* \"#utility.yul\":10976:11156   */\n    tag_251:\n        /* \"#utility.yul\":11116:11148   */\n      0x5468652061756374696f6e2068617320616c726561647920656e6465642e0000\n        /* \"#utility.yul\":11112:11113   */\n      0x00\n        /* \"#utility.yul\":11104:11110   */\n      dup3\n        /* \"#utility.yul\":11100:11114   */\n      add\n        /* \"#utility.yul\":11093:11149   */\n      mstore\n        /* \"#utility.yul\":10976:11156   */\n      pop\n      jump\t// out\n        /* \"#utility.yul\":11162:11528   */\n    tag_252:\n        /* \"#utility.yul\":11304:11307   */\n      0x00\n        /* \"#utility.yul\":11325:11392   */\n      tag_361\n        /* \"#utility.yul\":11389:11391   */\n      0x1e\n        /* \"#utility.yul\":11384:11387   */\n      dup4\n        /* \"#utility.yul\":11325:11392   */\n      tag_222\n      jump\t// in\n    tag_361:\n        /* \"#utility.yul\":11318:11392   */\n      swap2\n      pop\n        /* \"#utility.yul\":11401:11494   */\n      tag_362\n        /* \"#utility.yul\":11490:11493   */\n      dup3\n        /* \"#utility.yul\":11401:11494   */\n      tag_251\n      jump\t// in\n    tag_362:\n        /* \"#utility.yul\":11519:11521   */\n      0x20\n        /* \"#utility.yul\":11514:11517   */\n      dup3\n        /* \"#utility.yul\":11510:11522   */\n      add\n        /* \"#utility.yul\":11503:11522   */\n      swap1\n      pop\n        /* \"#utility.yul\":11162:11528   */\n      swap2\n      swap1\n      pop\n      jump\t// out\n        /* \"#utility.yul\":11534:11953   */\n    tag_120:\n        /* \"#utility.yul\":11700:11704   */\n      0x00\n        /* \"#utility.yul\":11738:11740   */\n      0x20\n        /* \"#utility.yul\":11727:11736   */\n      dup3\n        /* \"#utility.yul\":11723:11741   */\n      add\n        /* \"#utility.yul\":11715:11741   */\n      swap1\n      pop\n        /* \"#utility.yul\":11787:11796   */\n      dup2\n        /* \"#utility.yul\":11781:11785   */\n      dup2\n        /* \"#utility.yul\":11777:11797   */\n      sub\n        /* \"#utility.yul\":11773:11774   */\n      0x00\n        /* \"#utility.yul\":11762:11771   */\n      dup4\n        /* \"#utility.yul\":11758:11775   */\n      add\n        /* \"#utility.yul\":11751:11798   */\n      mstore\n        /* \"#utility.yul\":11815:11946   */\n      tag_364\n        /* \"#utility.yul\":11941:11945   */\n      dup2\n        /* \"#utility.yul\":11815:11946   */\n      tag_252\n      jump\t// in\n    tag_364:\n        /* \"#utility.yul\":11807:11946   */\n      swap1\n      pop\n        /* \"#utility.yul\":11534:11953   */\n      swap2\n      swap1\n      pop\n      jump\t// out\n        /* \"#utility.yul\":11959:12139   */\n    tag_253:\n        /* \"#utility.yul\":12007:12084   */\n      0x4e487b7100000000000000000000000000000000000000000000000000000000\n        /* \"#utility.yul\":12004:12005   */\n      0x00\n        /* \"#utility.yul\":11997:12085   */\n      mstore\n        /* \"#utility.yul\":12104:12108   */\n      0x22\n        /* \"#utility.yul\":12101:12102   */\n      0x04\n        /* \"#utility.yul\":12094:12109   */\n      mstore\n        /* \"#utility.yul\":12128:12132   */\n      0x24\n        /* \"#utility.yul\":12125:12126   */\n      0x00\n        /* \"#utility.yul\":12118:12133   */\n      revert\n        /* \"#utility.yul\":12145:12465   */\n    tag_124:\n        /* \"#utility.yul\":12189:12195   */\n      0x00\n        /* \"#utility.yul\":12226:12227   */\n      0x02\n        /* \"#utility.yul\":12220:12224   */\n      dup3\n        /* \"#utility.yul\":12216:12228   */\n      div\n        /* \"#utility.yul\":12206:12228   */\n      swap1\n      pop\n        /* \"#utility.yul\":12273:12274   */\n      0x01\n        /* \"#utility.yul\":12267:12271   */\n      dup3\n        /* \"#utility.yul\":12263:12275   */\n      and\n        /* \"#utility.yul\":12294:12312   */\n      dup1\n        /* \"#utility.yul\":12284:12365   */\n      tag_367\n      jumpi\n        /* \"#utility.yul\":12350:12354   */\n      0x7f\n        /* \"#utility.yul\":12342:12348   */\n      dup3\n        /* \"#utility.yul\":12338:12355   */\n      and\n        /* \"#utility.yul\":12328:12355   */\n      swap2\n      pop\n        /* \"#utility.yul\":12284:12365   */\n    tag_367:\n        /* \"#utility.yul\":12412:12414   */\n      0x20\n        /* \"#utility.yul\":12404:12410   */\n      dup3\n        /* \"#utility.yul\":12401:12415   */\n      lt\n        /* \"#utility.yul\":12381:12399   */\n      dup2\n        /* \"#utility.yul\":12378:12416   */\n      sub\n        /* \"#utility.yul\":12375:12459   */\n      tag_368\n      jumpi\n        /* \"#utility.yul\":12431:12449   */\n      tag_369\n      tag_253\n      jump\t// in\n    tag_369:\n        /* \"#utility.yul\":12375:12459   */\n    tag_368:\n        /* \"#utility.yul\":12196:12465   */\n      pop\n        /* \"#utility.yul\":12145:12465   */\n      swap2\n      swap1\n      pop\n      jump\t// out\n        /* \"#utility.yul\":12471:12648   */\n    tag_254:\n        /* \"#utility.yul\":12611:12640   */\n      0x5468652061756374696f6e20686173206265656e20656e6465642e0000000000\n        /* \"#utility.yul\":12607:12608   */\n      0x00\n        /* \"#utility.yul\":12599:12605   */\n      dup3\n        /* \"#utility.yul\":12595:12609   */\n      add\n        /* \"#utility.yul\":12588:12641   */\n      mstore\n        /* \"#utility.yul\":12471:12648   */\n      pop\n      jump\t// out\n        /* \"#utility.yul\":12654:13020   */\n    tag_255:\n        /* \"#utility.yul\":12796:12799   */\n      0x00\n        /* \"#utility.yul\":12817:12884   */\n      tag_372\n        /* \"#utility.yul\":12881:12883   */\n      0x1b\n        /* \"#utility.yul\":12876:12879   */\n      dup4\n        /* \"#utility.yul\":12817:12884   */\n      tag_222\n      jump\t// in\n    tag_372:\n        /* \"#utility.yul\":12810:12884   */\n      swap2\n      pop\n        /* \"#utility.yul\":12893:12986   */\n      tag_373\n        /* \"#utility.yul\":12982:12985   */\n      dup3\n        /* \"#utility.yul\":12893:12986   */\n      tag_254\n      jump\t// in\n    tag_373:\n        /* \"#utility.yul\":13011:13013   */\n      0x20\n        /* \"#utility.yul\":13006:13009   */\n      dup3\n        /* \"#utility.yul\":13002:13014   */\n      add\n        /* \"#utility.yul\":12995:13014   */\n      swap1\n      pop\n        /* \"#utility.yul\":12654:13020   */\n      swap2\n      swap1\n      pop\n      jump\t// out\n        /* \"#utility.yul\":13026:13445   */\n    tag_132:\n        /* \"#utility.yul\":13192:13196   */\n      0x00\n        /* \"#utility.yul\":13230:13232   */\n      0x20\n        /* \"#utility.yul\":13219:13228   */\n      dup3\n        /* \"#utility.yul\":13215:13233   */\n      add\n        /* \"#utility.yul\":13207:13233   */\n      swap1\n      pop\n        /* \"#utility.yul\":13279:13288   */\n      dup2\n        /* \"#utility.yul\":13273:13277   */\n      dup2\n        /* \"#utility.yul\":13269:13289   */\n      sub\n        /* \"#utility.yul\":13265:13266   */\n      0x00\n        /* \"#utility.yul\":13254:13263   */\n      dup4\n        /* \"#utility.yul\":13250:13267   */\n      add\n        /* \"#utility.yul\":13243:13290   */\n      mstore\n        /* \"#utility.yul\":13307:13438   */\n      tag_375\n        /* \"#utility.yul\":13433:13437   */\n      dup2\n        /* \"#utility.yul\":13307:13438   */\n      tag_255\n      jump\t// in\n    tag_375:\n        /* \"#utility.yul\":13299:13438   */\n      swap1\n      pop\n        /* \"#utility.yul\":13026:13445   */\n      swap2\n      swap1\n      pop\n      jump\t// out\n        /* \"#utility.yul\":13451:13625   */\n    tag_256:\n        /* \"#utility.yul\":13591:13617   */\n      0x596f752068617665206e6f207065726d697373696f6e732e0000000000000000\n        /* \"#utility.yul\":13587:13588   */\n      0x00\n        /* \"#utility.yul\":13579:13585   */\n      dup3\n        /* \"#utility.yul\":13575:13589   */\n      add\n        /* \"#utility.yul\":13568:13618   */\n      mstore\n        /* \"#utility.yul\":13451:13625   */\n      pop\n      jump\t// out\n        /* \"#utility.yul\":13631:13997   */\n    tag_257:\n        /* \"#utility.yul\":13773:13776   */\n      0x00\n        /* \"#utility.yul\":13794:13861   */\n      tag_378\n        /* \"#utility.yul\":13858:13860   */\n      0x18\n        /* \"#utility.yul\":13853:13856   */\n      dup4\n        /* \"#utility.yul\":13794:13861   */\n      tag_222\n      jump\t// in\n    tag_378:\n        /* \"#utility.yul\":13787:13861   */\n      swap2\n      pop\n        /* \"#utility.yul\":13870:13963   */\n      tag_379\n        /* \"#utility.yul\":13959:13962   */\n      dup3\n        /* \"#utility.yul\":13870:13963   */\n      tag_256\n      jump\t// in\n    tag_379:\n        /* \"#utility.yul\":13988:13990   */\n      0x20\n        /* \"#utility.yul\":13983:13986   */\n      dup3\n        /* \"#utility.yul\":13979:13991   */\n      add\n        /* \"#utility.yul\":13972:13991   */\n      swap1\n      pop\n        /* \"#utility.yul\":13631:13997   */\n      swap2\n      swap1\n      pop\n      jump\t// out\n        /* \"#utility.yul\":14003:14422   */\n    tag_135:\n        /* \"#utility.yul\":14169:14173   */\n      0x00\n        /* \"#utility.yul\":14207:14209   */\n      0x20\n        /* \"#utility.yul\":14196:14205   */\n      dup3\n        /* \"#utility.yul\":14192:14210   */\n      add\n        /* \"#utility.yul\":14184:14210   */\n      swap1\n      pop\n        /* \"#utility.yul\":14256:14265   */\n      dup2\n        /* \"#utility.yul\":14250:14254   */\n      dup2\n        /* \"#utility.yul\":14246:14266   */\n      sub\n        /* \"#utility.yul\":14242:14243   */\n      0x00\n        /* \"#utility.yul\":14231:14240   */\n      dup4\n        /* \"#utility.yul\":14227:14244   */\n      add\n        /* \"#utility.yul\":14220:14267   */\n      mstore\n        /* \"#utility.yul\":14284:14415   */\n      tag_381\n        /* \"#utility.yul\":14410:14414   */\n      dup2\n        /* \"#utility.yul\":14284:14415   */\n      tag_257\n      jump\t// in\n    tag_381:\n        /* \"#utility.yul\":14276:14415   */\n      swap1\n      pop\n        /* \"#utility.yul\":14003:14422   */\n      swap2\n      swap1\n      pop\n      jump\t// out\n        /* \"#utility.yul\":14428:14608   */\n    tag_258:\n        /* \"#utility.yul\":14476:14553   */\n      0x4e487b7100000000000000000000000000000000000000000000000000000000\n        /* \"#utility.yul\":14473:14474   */\n      0x00\n        /* \"#utility.yul\":14466:14554   */\n      mstore\n        /* \"#utility.yul\":14573:14577   */\n      0x11\n        /* \"#utility.yul\":14570:14571   */\n      0x04\n        /* \"#utility.yul\":14563:14578   */\n      mstore\n        /* \"#utility.yul\":14597:14601   */\n      0x24\n        /* \"#utility.yul\":14594:14595   */\n      0x00\n        /* \"#utility.yul\":14587:14602   */\n      revert\n        /* \"#utility.yul\":14614:14805   */\n    tag_137:\n        /* \"#utility.yul\":14654:14657   */\n      0x00\n        /* \"#utility.yul\":14673:14693   */\n      tag_384\n        /* \"#utility.yul\":14691:14692   */\n      dup3\n        /* \"#utility.yul\":14673:14693   */\n      tag_219\n      jump\t// in\n    tag_384:\n        /* \"#utility.yul\":14668:14693   */\n      swap2\n      pop\n        /* \"#utility.yul\":14707:14727   */\n      tag_385\n        /* \"#utility.yul\":14725:14726   */\n      dup4\n        /* \"#utility.yul\":14707:14727   */\n      tag_219\n      jump\t// in\n    tag_385:\n        /* \"#utility.yul\":14702:14727   */\n      swap3\n      pop\n        /* \"#utility.yul\":14750:14751   */\n      dup3\n        /* \"#utility.yul\":14747:14748   */\n      dup3\n        /* \"#utility.yul\":14743:14752   */\n      add\n        /* \"#utility.yul\":14736:14752   */\n      swap1\n      pop\n        /* \"#utility.yul\":14771:14774   */\n      dup1\n        /* \"#utility.yul\":14768:14769   */\n      dup3\n        /* \"#utility.yul\":14765:14775   */\n      gt\n        /* \"#utility.yul\":14762:14798   */\n      iszero\n      tag_386\n      jumpi\n        /* \"#utility.yul\":14778:14796   */\n      tag_387\n      tag_258\n      jump\t// in\n    tag_387:\n        /* \"#utility.yul\":14762:14798   */\n    tag_386:\n        /* \"#utility.yul\":14614:14805   */\n      swap3\n      swap2\n      pop\n      pop\n      jump\t// out\n        /* \"#utility.yul\":14811:14959   */\n    tag_259:\n        /* \"#utility.yul\":14913:14924   */\n      0x00\n        /* \"#utility.yul\":14950:14953   */\n      dup2\n        /* \"#utility.yul\":14935:14953   */\n      swap1\n      pop\n        /* \"#utility.yul\":14811:14959   */\n      swap3\n      swap2\n      pop\n      pop\n      jump\t// out\n        /* \"#utility.yul\":14965:15193   */\n    tag_260:\n        /* \"#utility.yul\":15105:15139   */\n      0x4e6f7420656e6f7567682065746865722e2043757272656e7420636f73742070\n        /* \"#utility.yul\":15101:15102   */\n      0x00\n        /* \"#utility.yul\":15093:15099   */\n      dup3\n        /* \"#utility.yul\":15089:15103   */\n      add\n        /* \"#utility.yul\":15082:15140   */\n      mstore\n        /* \"#utility.yul\":15174:15185   */\n      0x6c7573206269643a200000000000000000000000000000000000000000000000\n        /* \"#utility.yul\":15169:15171   */\n      0x20\n        /* \"#utility.yul\":15161:15167   */\n      dup3\n        /* \"#utility.yul\":15157:15172   */\n      add\n        /* \"#utility.yul\":15150:15186   */\n      mstore\n        /* \"#utility.yul\":14965:15193   */\n      pop\n      jump\t// out\n        /* \"#utility.yul\":15199:15601   */\n    tag_261:\n        /* \"#utility.yul\":15359:15362   */\n      0x00\n        /* \"#utility.yul\":15380:15465   */\n      tag_391\n        /* \"#utility.yul\":15462:15464   */\n      0x29\n        /* \"#utility.yul\":15457:15460   */\n      dup4\n        /* \"#utility.yul\":15380:15465   */\n      tag_259\n      jump\t// in\n    tag_391:\n        /* \"#utility.yul\":15373:15465   */\n      swap2\n      pop\n        /* \"#utility.yul\":15474:15567   */\n      tag_392\n        /* \"#utility.yul\":15563:15566   */\n      dup3\n        /* \"#utility.yul\":15474:15567   */\n      tag_260\n      jump\t// in\n    tag_392:\n        /* \"#utility.yul\":15592:15594   */\n      0x29\n        /* \"#utility.yul\":15587:15590   */\n      dup3\n        /* \"#utility.yul\":15583:15595   */\n      add\n        /* \"#utility.yul\":15576:15595   */\n      swap1\n      pop\n        /* \"#utility.yul\":15199:15601   */\n      swap2\n      swap1\n      pop\n      jump\t// out\n        /* \"#utility.yul\":15607:15997   */\n    tag_262:\n        /* \"#utility.yul\":15713:15716   */\n      0x00\n        /* \"#utility.yul\":15741:15780   */\n      tag_394\n        /* \"#utility.yul\":15774:15779   */\n      dup3\n        /* \"#utility.yul\":15741:15780   */\n      tag_221\n      jump\t// in\n    tag_394:\n        /* \"#utility.yul\":15796:15885   */\n      tag_395\n        /* \"#utility.yul\":15878:15884   */\n      dup2\n        /* \"#utility.yul\":15873:15876   */\n      dup6\n        /* \"#utility.yul\":15796:15885   */\n      tag_259\n      jump\t// in\n    tag_395:\n        /* \"#utility.yul\":15789:15885   */\n      swap4\n      pop\n        /* \"#utility.yul\":15894:15959   */\n      tag_396\n        /* \"#utility.yul\":15952:15958   */\n      dup2\n        /* \"#utility.yul\":15947:15950   */\n      dup6\n        /* \"#utility.yul\":15940:15944   */\n      0x20\n        /* \"#utility.yul\":15933:15938   */\n      dup7\n        /* \"#utility.yul\":15929:15945   */\n      add\n        /* \"#utility.yul\":15894:15959   */\n      tag_223\n      jump\t// in\n    tag_396:\n        /* \"#utility.yul\":15984:15990   */\n      dup1\n        /* \"#utility.yul\":15979:15982   */\n      dup5\n        /* \"#utility.yul\":15975:15991   */\n      add\n        /* \"#utility.yul\":15968:15991   */\n      swap2\n      pop\n        /* \"#utility.yul\":15717:15997   */\n      pop\n        /* \"#utility.yul\":15607:15997   */\n      swap3\n      swap2\n      pop\n      pop\n      jump\t// out\n        /* \"#utility.yul\":16003:16544   */\n    tag_142:\n        /* \"#utility.yul\":16236:16239   */\n      0x00\n        /* \"#utility.yul\":16258:16406   */\n      tag_398\n        /* \"#utility.yul\":16402:16405   */\n      dup3\n        /* \"#utility.yul\":16258:16406   */\n      tag_261\n      jump\t// in\n    tag_398:\n        /* \"#utility.yul\":16251:16406   */\n      swap2\n      pop\n        /* \"#utility.yul\":16423:16518   */\n      tag_399\n        /* \"#utility.yul\":16514:16517   */\n      dup3\n        /* \"#utility.yul\":16505:16511   */\n      dup5\n        /* \"#utility.yul\":16423:16518   */\n      tag_262\n      jump\t// in\n    tag_399:\n        /* \"#utility.yul\":16416:16518   */\n      swap2\n      pop\n        /* \"#utility.yul\":16535:16538   */\n      dup2\n        /* \"#utility.yul\":16528:16538   */\n      swap1\n      pop\n        /* \"#utility.yul\":16003:16544   */\n      swap3\n      swap2\n      pop\n      pop\n      jump\t// out\n        /* \"#utility.yul\":16550:16723   */\n    tag_263:\n        /* \"#utility.yul\":16690:16715   */\n      0x596f7520617265206e6f74207468652077696e6e65722e000000000000000000\n        /* \"#utility.yul\":16686:16687   */\n      0x00\n        /* \"#utility.yul\":16678:16684   */\n      dup3\n        /* \"#utility.yul\":16674:16688   */\n      add\n        /* \"#utility.yul\":16667:16716   */\n      mstore\n        /* \"#utility.yul\":16550:16723   */\n      pop\n      jump\t// out\n        /* \"#utility.yul\":16729:17095   */\n    tag_264:\n        /* \"#utility.yul\":16871:16874   */\n      0x00\n        /* \"#utility.yul\":16892:16959   */\n      tag_402\n        /* \"#utility.yul\":16956:16958   */\n      0x17\n        /* \"#utility.yul\":16951:16954   */\n      dup4\n        /* \"#utility.yul\":16892:16959   */\n      tag_222\n      jump\t// in\n    tag_402:\n        /* \"#utility.yul\":16885:16959   */\n      swap2\n      pop\n        /* \"#utility.yul\":16968:17061   */\n      tag_403\n        /* \"#utility.yul\":17057:17060   */\n      dup3\n        /* \"#utility.yul\":16968:17061   */\n      tag_263\n      jump\t// in\n    tag_403:\n        /* \"#utility.yul\":17086:17088   */\n      0x20\n        /* \"#utility.yul\":17081:17084   */\n      dup3\n        /* \"#utility.yul\":17077:17089   */\n      add\n        /* \"#utility.yul\":17070:17089   */\n      swap1\n      pop\n        /* \"#utility.yul\":16729:17095   */\n      swap2\n      swap1\n      pop\n      jump\t// out\n        /* \"#utility.yul\":17101:17520   */\n    tag_153:\n        /* \"#utility.yul\":17267:17271   */\n      0x00\n        /* \"#utility.yul\":17305:17307   */\n      0x20\n        /* \"#utility.yul\":17294:17303   */\n      dup3\n        /* \"#utility.yul\":17290:17308   */\n      add\n        /* \"#utility.yul\":17282:17308   */\n      swap1\n      pop\n        /* \"#utility.yul\":17354:17363   */\n      dup2\n        /* \"#utility.yul\":17348:17352   */\n      dup2\n        /* \"#utility.yul\":17344:17364   */\n      sub\n        /* \"#utility.yul\":17340:17341   */\n      0x00\n        /* \"#utility.yul\":17329:17338   */\n      dup4\n        /* \"#utility.yul\":17325:17342   */\n      add\n        /* \"#utility.yul\":17318:17365   */\n      mstore\n        /* \"#utility.yul\":17382:17513   */\n      tag_405\n        /* \"#utility.yul\":17508:17512   */\n      dup2\n        /* \"#utility.yul\":17382:17513   */\n      tag_264\n      jump\t// in\n    tag_405:\n        /* \"#utility.yul\":17374:17513   */\n      swap1\n      pop\n        /* \"#utility.yul\":17101:17520   */\n      swap2\n      swap1\n      pop\n      jump\t// out\n        /* \"#utility.yul\":17526:17708   */\n    tag_265:\n        /* \"#utility.yul\":17666:17700   */\n      0x5468652061756374696f6e2068617320616c726561647920737461727465642e\n        /* \"#utility.yul\":17662:17663   */\n      0x00\n        /* \"#utility.yul\":17654:17660   */\n      dup3\n        /* \"#utility.yul\":17650:17664   */\n      add\n        /* \"#utility.yul\":17643:17701   */\n      mstore\n        /* \"#utility.yul\":17526:17708   */\n      pop\n      jump\t// out\n        /* \"#utility.yul\":17714:18080   */\n    tag_266:\n        /* \"#utility.yul\":17856:17859   */\n      0x00\n        /* \"#utility.yul\":17877:17944   */\n      tag_408\n        /* \"#utility.yul\":17941:17943   */\n      0x20\n        /* \"#utility.yul\":17936:17939   */\n      dup4\n        /* \"#utility.yul\":17877:17944   */\n      tag_222\n      jump\t// in\n    tag_408:\n        /* \"#utility.yul\":17870:17944   */\n      swap2\n      pop\n        /* \"#utility.yul\":17953:18046   */\n      tag_409\n        /* \"#utility.yul\":18042:18045   */\n      dup3\n        /* \"#utility.yul\":17953:18046   */\n      tag_265\n      jump\t// in\n    tag_409:\n        /* \"#utility.yul\":18071:18073   */\n      0x20\n        /* \"#utility.yul\":18066:18069   */\n      dup3\n        /* \"#utility.yul\":18062:18074   */\n      add\n        /* \"#utility.yul\":18055:18074   */\n      swap1\n      pop\n        /* \"#utility.yul\":17714:18080   */\n      swap2\n      swap1\n      pop\n      jump\t// out\n        /* \"#utility.yul\":18086:18505   */\n    tag_166:\n        /* \"#utility.yul\":18252:18256   */\n      0x00\n        /* \"#utility.yul\":18290:18292   */\n      0x20\n        /* \"#utility.yul\":18279:18288   */\n      dup3\n        /* \"#utility.yul\":18275:18293   */\n      add\n        /* \"#utility.yul\":18267:18293   */\n      swap1\n      pop\n        /* \"#utility.yul\":18339:18348   */\n      dup2\n        /* \"#utility.yul\":18333:18337   */\n      dup2\n        /* \"#utility.yul\":18329:18349   */\n      sub\n        /* \"#utility.yul\":18325:18326   */\n      0x00\n        /* \"#utility.yul\":18314:18323   */\n      dup4\n        /* \"#utility.yul\":18310:18327   */\n      add\n        /* \"#utility.yul\":18303:18350   */\n      mstore\n        /* \"#utility.yul\":18367:18498   */\n      tag_411\n        /* \"#utility.yul\":18493:18497   */\n      dup2\n        /* \"#utility.yul\":18367:18498   */\n      tag_266\n      jump\t// in\n    tag_411:\n        /* \"#utility.yul\":18359:18498   */\n      swap1\n      pop\n        /* \"#utility.yul\":18086:18505   */\n      swap2\n      swap1\n      pop\n      jump\t// out\n        /* \"#utility.yul\":18511:18688   */\n    tag_267:\n        /* \"#utility.yul\":18651:18680   */\n      0x4d6178206c696d697420666f72207061727469636970616e74732e0000000000\n        /* \"#utility.yul\":18647:18648   */\n      0x00\n        /* \"#utility.yul\":18639:18645   */\n      dup3\n        /* \"#utility.yul\":18635:18649   */\n      add\n        /* \"#utility.yul\":18628:18681   */\n      mstore\n        /* \"#utility.yul\":18511:18688   */\n      pop\n      jump\t// out\n        /* \"#utility.yul\":18694:19060   */\n    tag_268:\n        /* \"#utility.yul\":18836:18839   */\n      0x00\n        /* \"#utility.yul\":18857:18924   */\n      tag_414\n        /* \"#utility.yul\":18921:18923   */\n      0x1b\n        /* \"#utility.yul\":18916:18919   */\n      dup4\n        /* \"#utility.yul\":18857:18924   */\n      tag_222\n      jump\t// in\n    tag_414:\n        /* \"#utility.yul\":18850:18924   */\n      swap2\n      pop\n        /* \"#utility.yul\":18933:19026   */\n      tag_415\n        /* \"#utility.yul\":19022:19025   */\n      dup3\n        /* \"#utility.yul\":18933:19026   */\n      tag_267\n      jump\t// in\n    tag_415:\n        /* \"#utility.yul\":19051:19053   */\n      0x20\n        /* \"#utility.yul\":19046:19049   */\n      dup3\n        /* \"#utility.yul\":19042:19054   */\n      add\n        /* \"#utility.yul\":19035:19054   */\n      swap1\n      pop\n        /* \"#utility.yul\":18694:19060   */\n      swap2\n      swap1\n      pop\n      jump\t// out\n        /* \"#utility.yul\":19066:19485   */\n    tag_173:\n        /* \"#utility.yul\":19232:19236   */\n      0x00\n        /* \"#utility.yul\":19270:19272   */\n      0x20\n        /* \"#utility.yul\":19259:19268   */\n      dup3\n        /* \"#utility.yul\":19255:19273   */\n      add\n        /* \"#utility.yul\":19247:19273   */\n      swap1\n      pop\n        /* \"#utility.yul\":19319:19328   */\n      dup2\n        /* \"#utility.yul\":19313:19317   */\n      dup2\n        /* \"#utility.yul\":19309:19329   */\n      sub\n        /* \"#utility.yul\":19305:19306   */\n      0x00\n        /* \"#utility.yul\":19294:19303   */\n      dup4\n        /* \"#utility.yul\":19290:19307   */\n      add\n        /* \"#utility.yul\":19283:19330   */\n      mstore\n        /* \"#utility.yul\":19347:19478   */\n      tag_417\n        /* \"#utility.yul\":19473:19477   */\n      dup2\n        /* \"#utility.yul\":19347:19478   */\n      tag_268\n      jump\t// in\n    tag_417:\n        /* \"#utility.yul\":19339:19478   */\n      swap1\n      pop\n        /* \"#utility.yul\":19066:19485   */\n      swap2\n      swap1\n      pop\n      jump\t// out\n        /* \"#utility.yul\":19491:19671   */\n    tag_185:\n        /* \"#utility.yul\":19539:19616   */\n      0x4e487b7100000000000000000000000000000000000000000000000000000000\n        /* \"#utility.yul\":19536:19537   */\n      0x00\n        /* \"#utility.yul\":19529:19617   */\n      mstore\n        /* \"#utility.yul\":19636:19640   */\n      0x41\n        /* \"#utility.yul\":19633:19634   */\n      0x04\n        /* \"#utility.yul\":19626:19641   */\n      mstore\n        /* \"#utility.yul\":19660:19664   */\n      0x24\n        /* \"#utility.yul\":19657:19658   */\n      0x00\n        /* \"#utility.yul\":19650:19665   */\n      revert\n        /* \"#utility.yul\":19677:19857   */\n    tag_191:\n        /* \"#utility.yul\":19725:19802   */\n      0x4e487b7100000000000000000000000000000000000000000000000000000000\n        /* \"#utility.yul\":19722:19723   */\n      0x00\n        /* \"#utility.yul\":19715:19803   */\n      mstore\n        /* \"#utility.yul\":19822:19826   */\n      0x12\n        /* \"#utility.yul\":19819:19820   */\n      0x04\n        /* \"#utility.yul\":19812:19827   */\n      mstore\n        /* \"#utility.yul\":19846:19850   */\n      0x24\n        /* \"#utility.yul\":19843:19844   */\n      0x00\n        /* \"#utility.yul\":19836:19851   */\n      revert\n    stop\n    data_3f3a72287baeabafaf55376bb21d602820b9bc4e8c38516cd64d0d42e962a73e 436f6e67726174756c6174696f6e732120596f7520617265207468652077696e6e65722e204865726520697320796f7572206974656d2e\n\n    auxdata: 0xa2646970667358221220e1c519a4c1ea85df8b3bfab51d154c46d407858711e785c1ead17cfb6c51199464736f6c634300081a0033\n}\n",
				"bytecode": {
					"linkReferences": {},
					"object": "60a060405234801561000f575f80fd5b506040516121c23803806121c283398181016040528101906100319190610223565b3373ffffffffffffffffffffffffffffffffffffffff1660808173ffffffffffffffffffffffffffffffffffffffff1681525050845f908161007391906104ba565b50836003819055506003546005819055508260048190555081600a81905550806008819055505050505050610589565b5f604051905090565b5f80fd5b5f80fd5b5f80fd5b5f80fd5b5f601f19601f8301169050919050565b7f4e487b71000000000000000000000000000000000000000000000000000000005f52604160045260245ffd5b610102826100bc565b810181811067ffffffffffffffff82111715610121576101206100cc565b5b80604052505050565b5f6101336100a3565b905061013f82826100f9565b919050565b5f67ffffffffffffffff82111561015e5761015d6100cc565b5b610167826100bc565b9050602081019050919050565b8281835e5f83830152505050565b5f61019461018f84610144565b61012a565b9050828152602081018484840111156101b0576101af6100b8565b5b6101bb848285610174565b509392505050565b5f82601f8301126101d7576101d66100b4565b5b81516101e7848260208601610182565b91505092915050565b5f819050919050565b610202816101f0565b811461020c575f80fd5b50565b5f8151905061021d816101f9565b92915050565b5f805f805f60a0868803121561023c5761023b6100ac565b5b5f86015167ffffffffffffffff811115610259576102586100b0565b5b610265888289016101c3565b95505060206102768882890161020f565b94505060406102878882890161020f565b93505060606102988882890161020f565b92505060806102a98882890161020f565b9150509295509295909350565b5f81519050919050565b7f4e487b71000000000000000000000000000000000000000000000000000000005f52602260045260245ffd5b5f600282049050600182168061030457607f821691505b602082108103610317576103166102c0565b5b50919050565b5f819050815f5260205f209050919050565b5f6020601f8301049050919050565b5f82821b905092915050565b5f600883026103797fffffffffffffffffffffffffffffffffffffffffffffffffffffffffffffffff8261033e565b610383868361033e565b95508019841693508086168417925050509392505050565b5f819050919050565b5f6103be6103b96103b4846101f0565b61039b565b6101f0565b9050919050565b5f819050919050565b6103d7836103a4565b6103eb6103e3826103c5565b84845461034a565b825550505050565b5f90565b6103ff6103f3565b61040a8184846103ce565b505050565b5b8181101561042d576104225f826103f7565b600181019050610410565b5050565b601f821115610472576104438161031d565b61044c8461032f565b8101602085101561045b578190505b61046f6104678561032f565b83018261040f565b50505b505050565b5f82821c905092915050565b5f6104925f1984600802610477565b1980831691505092915050565b5f6104aa8383610483565b9150826002028217905092915050565b6104c3826102b6565b67ffffffffffffffff8111156104dc576104db6100cc565b5b6104e682546102ed565b6104f1828285610431565b5f60209050601f831160018114610522575f8415610510578287015190505b61051a858261049f565b865550610581565b601f1984166105308661031d565b5f5b8281101561055757848901518255600182019150602085019450602081019050610532565b868310156105745784890151610570601f891682610483565b8355505b6001600288020188555050505b505050505050565b608051611c0c6105b65f395f81816105a001528181610b9401528181610c880152610de10152611c0c5ff3fe608060405260043610610113575f3560e01c8063b2b98ed21161009f578063d295ebf011610063578063d295ebf01461031b578063d8346cdf14610331578063de4b1e4214610359578063fc4a4a1e14610383578063fc505be9146103ad57610113565b8063b2b98ed214610249578063bca93eba14610273578063cbb12c2d1461029d578063d0b1bfd0146102c7578063d1ee49c2146102f157610113565b80636a7798ee116100e65780636a7798ee146101ab5780636a7a67f0146101c15780636e6452cb146101eb57806385d679f9146101f55780638611e07b1461021f57610113565b80630cbb94e01461011757806338699c7f1461014157806354a8882d1461016b5780635d26862914610195575b5f80fd5b348015610122575f80fd5b5061012b6103d7565b60405161013891906112fc565b60405180910390f35b34801561014c575f80fd5b506101556103ea565b604051610162919061132d565b60405180910390f35b348015610176575f80fd5b5061017f6103f0565b60405161018c919061132d565b60405180910390f35b3480156101a0575f80fd5b506101a96103f6565b005b3480156101b6575f80fd5b506101bf61059e565b005b3480156101cc575f80fd5b506101d5610751565b6040516101e291906113b6565b60405180910390f35b6101f36107dc565b005b348015610200575f80fd5b50610209610ab8565b60405161021691906113b6565b60405180910390f35b34801561022a575f80fd5b50610233610b67565b604051610240919061132d565b60405180910390f35b348015610254575f80fd5b5061025d610b6d565b60405161026a9190611415565b60405180910390f35b34801561027e575f80fd5b50610287610b92565b6040516102949190611415565b60405180910390f35b3480156102a8575f80fd5b506102b1610bb6565b6040516102be919061132d565b60405180910390f35b3480156102d2575f80fd5b506102db610bbc565b6040516102e8919061132d565b60405180910390f35b3480156102fc575f80fd5b50610305610bc2565b6040516103129190611534565b60405180910390f35b348015610326575f80fd5b5061032f610c86565b005b34801561033c575f80fd5b5061035760048036038101906103529190611582565b610ddf565b005b348015610364575f80fd5b5061036d610f24565b60405161037a919061132d565b60405180910390f35b34801561038e575f80fd5b50610397610f2a565b6040516103a4919061132d565b60405180910390f35b3480156103b8575f80fd5b506103c1610f30565b6040516103ce91906112fc565b60405180910390f35b600660019054906101000a900460ff1681565b60035481565b60055481565b600660019054906101000a900460ff16610445576040517f08c379a000000000000000000000000000000000000000000000000000000000815260040161043c906115f7565b60405180910390fd5b60025f9054906101000a900473ffffffffffffffffffffffffffffffffffffffff1673ffffffffffffffffffffffffffffffffffffffff163373ffffffffffffffffffffffffffffffffffffffff16036104d4576040517f08c379a00000000000000000000000000000000000000000000000000000000081526004016104cb9061165f565b60405180910390fd5b5f600d5f3373ffffffffffffffffffffffffffffffffffffffff1673ffffffffffffffffffffffffffffffffffffffff1681526020019081526020015f205490505f600d5f3373ffffffffffffffffffffffffffffffffffffffff1673ffffffffffffffffffffffffffffffffffffffff1681526020019081526020015f20819055503373ffffffffffffffffffffffffffffffffffffffff166108fc8290811502906040515f60405180830381858888f1935050505015801561059a573d5f803e3d5ffd5b5050565b7f000000000000000000000000000000000000000000000000000000000000000073ffffffffffffffffffffffffffffffffffffffff163373ffffffffffffffffffffffffffffffffffffffff161461062c576040517f08c379a0000000000000000000000000000000000000000000000000000000008152600401610623906116c7565b60405180910390fd5b60065f9054906101000a900460ff1661067a576040517f08c379a00000000000000000000000000000000000000000000000000000000081526004016106719061172f565b60405180910390fd5b600660019054906101000a900460ff16156106ca576040517f08c379a00000000000000000000000000000000000000000000000000000000081526004016106c190611797565b60405180910390fd5b6001600660016101000a81548160ff02191690831515021790555060015f9054906101000a900473ffffffffffffffffffffffffffffffffffffffff1660025f6101000a81548173ffffffffffffffffffffffffffffffffffffffff021916908373ffffffffffffffffffffffffffffffffffffffff16021790555061074e610f42565b50565b5f805461075d906117e2565b80601f0160208091040260200160405190810160405280929190818152602001828054610789906117e2565b80156107d45780601f106107ab576101008083540402835291602001916107d4565b820191905f5260205f20905b8154815290600101906020018083116107b757829003601f168201915b505050505081565b600660019054906101000a900460ff161561082c576040517f08c379a00000000000000000000000000000000000000000000000000000000081526004016108239061185c565b60405180910390fd5b60011515600c5f3373ffffffffffffffffffffffffffffffffffffffff1673ffffffffffffffffffffffffffffffffffffffff1681526020019081526020015f205f9054906101000a900460ff161515146108bc576040517f08c379a00000000000000000000000000000000000000000000000000000000081526004016108b3906118c4565b60405180910390fd5b6004546005546108cc919061190f565b34146108e66004546005546108e1919061190f565b611029565b6040516020016108f691906119ec565b60405160208183030381529060405290610946576040517f08c379a000000000000000000000000000000000000000000000000000000000815260040161093d91906113b6565b60405180910390fd5b5034600d5f3373ffffffffffffffffffffffffffffffffffffffff1673ffffffffffffffffffffffffffffffffffffffff1681526020019081526020015f205f828254610993919061190f565b925050819055503360015f6101000a81548173ffffffffffffffffffffffffffffffffffffffff021916908373ffffffffffffffffffffffffffffffffffffffff16021790555060045460055f8282546109ed919061190f565b9250508190555042600981905550600e60405180606001604052803373ffffffffffffffffffffffffffffffffffffffff16815260200134815260200142815250908060018154018082558091505060019003905f5260205f2090600302015f909190919091505f820151815f015f6101000a81548173ffffffffffffffffffffffffffffffffffffffff021916908373ffffffffffffffffffffffffffffffffffffffff16021790555060208201518160010155604082015181600201555050610ab66110f3565b565b606060025f9054906101000a900473ffffffffffffffffffffffffffffffffffffffff1673ffffffffffffffffffffffffffffffffffffffff163373ffffffffffffffffffffffffffffffffffffffff1614610b49576040517f08c379a0000000000000000000000000000000000000000000000000000000008152600401610b4090611a57565b60405180910390fd5b604051806060016040528060378152602001611ba060379139905090565b60045481565b60025f9054906101000a900473ffffffffffffffffffffffffffffffffffffffff1681565b7f000000000000000000000000000000000000000000000000000000000000000081565b60085481565b600b5481565b6060600e805480602002602001604051908101604052809291908181526020015f905b82821015610c7d578382905f5260205f2090600302016040518060600160405290815f82015f9054906101000a900473ffffffffffffffffffffffffffffffffffffffff1673ffffffffffffffffffffffffffffffffffffffff1673ffffffffffffffffffffffffffffffffffffffff1681526020016001820154815260200160028201548152505081526020019060010190610be5565b50505050905090565b7f000000000000000000000000000000000000000000000000000000000000000073ffffffffffffffffffffffffffffffffffffffff163373ffffffffffffffffffffffffffffffffffffffff1614610d14576040517f08c379a0000000000000000000000000000000000000000000000000000000008152600401610d0b906116c7565b60405180910390fd5b600660019054906101000a900460ff1615610d64576040517f08c379a0000000000000000000000000000000000000000000000000000000008152600401610d5b9061185c565b60405180910390fd5b60065f9054906101000a900460ff1615610db3576040517f08c379a0000000000000000000000000000000000000000000000000000000008152600401610daa90611abf565b60405180910390fd5b600160065f6101000a81548160ff02191690831515021790555042600781905550600754600981905550565b7f000000000000000000000000000000000000000000000000000000000000000073ffffffffffffffffffffffffffffffffffffffff163373ffffffffffffffffffffffffffffffffffffffff1614610e6d576040517f08c379a0000000000000000000000000000000000000000000000000000000008152600401610e64906116c7565b60405180910390fd5b600a54600b5410610eb3576040517f08c379a0000000000000000000000000000000000000000000000000000000008152600401610eaa90611b27565b60405180910390fd5b6001600c5f8373ffffffffffffffffffffffffffffffffffffffff1673ffffffffffffffffffffffffffffffffffffffff1681526020019081526020015f205f6101000a81548160ff0219169083151502179055506001600b5f828254610f1a919061190f565b9250508190555050565b600a5481565b60075481565b60065f9054906101000a900460ff1681565b5f8073ffffffffffffffffffffffffffffffffffffffff1660015f9054906101000a900473ffffffffffffffffffffffffffffffffffffffff1673ffffffffffffffffffffffffffffffffffffffff1614158015610fad5750600660019054906101000a900460ff16155b156110225760015f9054906101000a900473ffffffffffffffffffffffffffffffffffffffff1673ffffffffffffffffffffffffffffffffffffffff166108fc60055490811502906040515f60405180830381858888f19350505050158015611018573d5f803e3d5ffd5b5060019050611026565b5f90505b90565b60605f600161103784611191565b0190505f8167ffffffffffffffff81111561105557611054611b45565b5b6040519080825280601f01601f1916602001820160405280156110875781602001600182028036833780820191505090505b5090505f82602001820190505b6001156110e8578080600190039150507f3031323334353637383961626364656600000000000000000000000000000000600a86061a8153600a85816110dd576110dc611b72565b5b0494505f8503611094575b819350505050919050565b600854600954611103919061190f565b421061118f576001600660016101000a81548160ff02191690831515021790555060015f9054906101000a900473ffffffffffffffffffffffffffffffffffffffff1660025f6101000a81548173ffffffffffffffffffffffffffffffffffffffff021916908373ffffffffffffffffffffffffffffffffffffffff16021790555061118d610f42565b505b565b5f805f90507a184f03e93ff9f4daa797ed6e38ed64bf6a1f01000000000000000083106111ed577a184f03e93ff9f4daa797ed6e38ed64bf6a1f01000000000000000083816111e3576111e2611b72565b5b0492506040810190505b6d04ee2d6d415b85acef8100000000831061122a576d04ee2d6d415b85acef810000000083816112205761121f611b72565b5b0492506020810190505b662386f26fc10000831061125957662386f26fc10000838161124f5761124e611b72565b5b0492506010810190505b6305f5e1008310611282576305f5e100838161127857611277611b72565b5b0492506008810190505b61271083106112a757612710838161129d5761129c611b72565b5b0492506004810190505b606483106112ca57606483816112c0576112bf611b72565b5b0492506002810190505b600a83106112d9576001810190505b80915050919050565b5f8115159050919050565b6112f6816112e2565b82525050565b5f60208201905061130f5f8301846112ed565b92915050565b5f819050919050565b61132781611315565b82525050565b5f6020820190506113405f83018461131e565b92915050565b5f81519050919050565b5f82825260208201905092915050565b8281835e5f83830152505050565b5f601f19601f8301169050919050565b5f61138882611346565b6113928185611350565b93506113a2818560208601611360565b6113ab8161136e565b840191505092915050565b5f6020820190508181035f8301526113ce818461137e565b905092915050565b5f73ffffffffffffffffffffffffffffffffffffffff82169050919050565b5f6113ff826113d6565b9050919050565b61140f816113f5565b82525050565b5f6020820190506114285f830184611406565b92915050565b5f81519050919050565b5f82825260208201905092915050565b5f819050602082019050919050565b611460816113f5565b82525050565b61146f81611315565b82525050565b606082015f8201516114895f850182611457565b50602082015161149c6020850182611466565b5060408201516114af6040850182611466565b50505050565b5f6114c08383611475565b60608301905092915050565b5f602082019050919050565b5f6114e28261142e565b6114ec8185611438565b93506114f783611448565b805f5b8381101561152757815161150e88826114b5565b9750611519836114cc565b9250506001810190506114fa565b5085935050505092915050565b5f6020820190508181035f83015261154c81846114d8565b905092915050565b5f80fd5b611561816113f5565b811461156b575f80fd5b50565b5f8135905061157c81611558565b92915050565b5f6020828403121561159757611596611554565b5b5f6115a48482850161156e565b91505092915050565b7f5468652061756374696f6e20686173206e6f7420656e646564207965742e00005f82015250565b5f6115e1601e83611350565b91506115ec826115ad565b602082019050919050565b5f6020820190508181035f83015261160e816115d5565b9050919050565b7f5468652077696e6e65722063616e6e6f7420726566756e642e000000000000005f82015250565b5f611649601983611350565b915061165482611615565b602082019050919050565b5f6020820190508181035f8301526116768161163d565b9050919050565b7f596f7520617265206e6f74207468652073656c6c65722e0000000000000000005f82015250565b5f6116b1601783611350565b91506116bc8261167d565b602082019050919050565b5f6020820190508181035f8301526116de816116a5565b9050919050565b7f5468652061756374696f6e20686173206e6f742073746172746564207965742e5f82015250565b5f611719602083611350565b9150611724826116e5565b602082019050919050565b5f6020820190508181035f8301526117468161170d565b9050919050565b7f5468652061756374696f6e2068617320616c726561647920656e6465642e00005f82015250565b5f611781601e83611350565b915061178c8261174d565b602082019050919050565b5f6020820190508181035f8301526117ae81611775565b9050919050565b7f4e487b71000000000000000000000000000000000000000000000000000000005f52602260045260245ffd5b5f60028204905060018216806117f957607f821691505b60208210810361180c5761180b6117b5565b5b50919050565b7f5468652061756374696f6e20686173206265656e20656e6465642e00000000005f82015250565b5f611846601b83611350565b915061185182611812565b602082019050919050565b5f6020820190508181035f8301526118738161183a565b9050919050565b7f596f752068617665206e6f207065726d697373696f6e732e00000000000000005f82015250565b5f6118ae601883611350565b91506118b98261187a565b602082019050919050565b5f6020820190508181035f8301526118db816118a2565b9050919050565b7f4e487b71000000000000000000000000000000000000000000000000000000005f52601160045260245ffd5b5f61191982611315565b915061192483611315565b925082820190508082111561193c5761193b6118e2565b5b92915050565b5f81905092915050565b7f4e6f7420656e6f7567682065746865722e2043757272656e7420636f737420705f8201527f6c7573206269643a200000000000000000000000000000000000000000000000602082015250565b5f6119a6602983611942565b91506119b18261194c565b602982019050919050565b5f6119c682611346565b6119d08185611942565b93506119e0818560208601611360565b80840191505092915050565b5f6119f68261199a565b9150611a0282846119bc565b915081905092915050565b7f596f7520617265206e6f74207468652077696e6e65722e0000000000000000005f82015250565b5f611a41601783611350565b9150611a4c82611a0d565b602082019050919050565b5f6020820190508181035f830152611a6e81611a35565b9050919050565b7f5468652061756374696f6e2068617320616c726561647920737461727465642e5f82015250565b5f611aa9602083611350565b9150611ab482611a75565b602082019050919050565b5f6020820190508181035f830152611ad681611a9d565b9050919050565b7f4d6178206c696d697420666f72207061727469636970616e74732e00000000005f82015250565b5f611b11601b83611350565b9150611b1c82611add565b602082019050919050565b5f6020820190508181035f830152611b3e81611b05565b9050919050565b7f4e487b71000000000000000000000000000000000000000000000000000000005f52604160045260245ffd5b7f4e487b71000000000000000000000000000000000000000000000000000000005f52601260045260245ffdfe436f6e67726174756c6174696f6e732120596f7520617265207468652077696e6e65722e204865726520697320796f7572206974656d2ea2646970667358221220e1c519a4c1ea85df8b3bfab51d154c46d407858711e785c1ead17cfb6c51199464736f6c634300081a0033",
					"opcodes": "PUSH1 0xA0 PUSH1 0x40 MSTORE CALLVALUE DUP1 ISZERO PUSH2 0xF JUMPI PUSH0 DUP1 REVERT JUMPDEST POP PUSH1 0x40 MLOAD PUSH2 0x21C2 CODESIZE SUB DUP1 PUSH2 0x21C2 DUP4 CODECOPY DUP2 DUP2 ADD PUSH1 0x40 MSTORE DUP2 ADD SWAP1 PUSH2 0x31 SWAP2 SWAP1 PUSH2 0x223 JUMP JUMPDEST CALLER PUSH20 0xFFFFFFFFFFFFFFFFFFFFFFFFFFFFFFFFFFFFFFFF AND PUSH1 0x80 DUP2 PUSH20 0xFFFFFFFFFFFFFFFFFFFFFFFFFFFFFFFFFFFFFFFF AND DUP2 MSTORE POP POP DUP5 PUSH0 SWAP1 DUP2 PUSH2 0x73 SWAP2 SWAP1 PUSH2 0x4BA JUMP JUMPDEST POP DUP4 PUSH1 0x3 DUP2 SWAP1 SSTORE POP PUSH1 0x3 SLOAD PUSH1 0x5 DUP2 SWAP1 SSTORE POP DUP3 PUSH1 0x4 DUP2 SWAP1 SSTORE POP DUP2 PUSH1 0xA DUP2 SWAP1 SSTORE POP DUP1 PUSH1 0x8 DUP2 SWAP1 SSTORE POP POP POP POP POP POP PUSH2 0x589 JUMP JUMPDEST PUSH0 PUSH1 0x40 MLOAD SWAP1 POP SWAP1 JUMP JUMPDEST PUSH0 DUP1 REVERT JUMPDEST PUSH0 DUP1 REVERT JUMPDEST PUSH0 DUP1 REVERT JUMPDEST PUSH0 DUP1 REVERT JUMPDEST PUSH0 PUSH1 0x1F NOT PUSH1 0x1F DUP4 ADD AND SWAP1 POP SWAP2 SWAP1 POP JUMP JUMPDEST PUSH32 0x4E487B7100000000000000000000000000000000000000000000000000000000 PUSH0 MSTORE PUSH1 0x41 PUSH1 0x4 MSTORE PUSH1 0x24 PUSH0 REVERT JUMPDEST PUSH2 0x102 DUP3 PUSH2 0xBC JUMP JUMPDEST DUP2 ADD DUP2 DUP2 LT PUSH8 0xFFFFFFFFFFFFFFFF DUP3 GT OR ISZERO PUSH2 0x121 JUMPI PUSH2 0x120 PUSH2 0xCC JUMP JUMPDEST JUMPDEST DUP1 PUSH1 0x40 MSTORE POP POP POP JUMP JUMPDEST PUSH0 PUSH2 0x133 PUSH2 0xA3 JUMP JUMPDEST SWAP1 POP PUSH2 0x13F DUP3 DUP3 PUSH2 0xF9 JUMP JUMPDEST SWAP2 SWAP1 POP JUMP JUMPDEST PUSH0 PUSH8 0xFFFFFFFFFFFFFFFF DUP3 GT ISZERO PUSH2 0x15E JUMPI PUSH2 0x15D PUSH2 0xCC JUMP JUMPDEST JUMPDEST PUSH2 0x167 DUP3 PUSH2 0xBC JUMP JUMPDEST SWAP1 POP PUSH1 0x20 DUP2 ADD SWAP1 POP SWAP2 SWAP1 POP JUMP JUMPDEST DUP3 DUP2 DUP4 MCOPY PUSH0 DUP4 DUP4 ADD MSTORE POP POP POP JUMP JUMPDEST PUSH0 PUSH2 0x194 PUSH2 0x18F DUP5 PUSH2 0x144 JUMP JUMPDEST PUSH2 0x12A JUMP JUMPDEST SWAP1 POP DUP3 DUP2 MSTORE PUSH1 0x20 DUP2 ADD DUP5 DUP5 DUP5 ADD GT ISZERO PUSH2 0x1B0 JUMPI PUSH2 0x1AF PUSH2 0xB8 JUMP JUMPDEST JUMPDEST PUSH2 0x1BB DUP5 DUP3 DUP6 PUSH2 0x174 JUMP JUMPDEST POP SWAP4 SWAP3 POP POP POP JUMP JUMPDEST PUSH0 DUP3 PUSH1 0x1F DUP4 ADD SLT PUSH2 0x1D7 JUMPI PUSH2 0x1D6 PUSH2 0xB4 JUMP JUMPDEST JUMPDEST DUP2 MLOAD PUSH2 0x1E7 DUP5 DUP3 PUSH1 0x20 DUP7 ADD PUSH2 0x182 JUMP JUMPDEST SWAP2 POP POP SWAP3 SWAP2 POP POP JUMP JUMPDEST PUSH0 DUP2 SWAP1 POP SWAP2 SWAP1 POP JUMP JUMPDEST PUSH2 0x202 DUP2 PUSH2 0x1F0 JUMP JUMPDEST DUP2 EQ PUSH2 0x20C JUMPI PUSH0 DUP1 REVERT JUMPDEST POP JUMP JUMPDEST PUSH0 DUP2 MLOAD SWAP1 POP PUSH2 0x21D DUP2 PUSH2 0x1F9 JUMP JUMPDEST SWAP3 SWAP2 POP POP JUMP JUMPDEST PUSH0 DUP1 PUSH0 DUP1 PUSH0 PUSH1 0xA0 DUP7 DUP9 SUB SLT ISZERO PUSH2 0x23C JUMPI PUSH2 0x23B PUSH2 0xAC JUMP JUMPDEST JUMPDEST PUSH0 DUP7 ADD MLOAD PUSH8 0xFFFFFFFFFFFFFFFF DUP2 GT ISZERO PUSH2 0x259 JUMPI PUSH2 0x258 PUSH2 0xB0 JUMP JUMPDEST JUMPDEST PUSH2 0x265 DUP9 DUP3 DUP10 ADD PUSH2 0x1C3 JUMP JUMPDEST SWAP6 POP POP PUSH1 0x20 PUSH2 0x276 DUP9 DUP3 DUP10 ADD PUSH2 0x20F JUMP JUMPDEST SWAP5 POP POP PUSH1 0x40 PUSH2 0x287 DUP9 DUP3 DUP10 ADD PUSH2 0x20F JUMP JUMPDEST SWAP4 POP POP PUSH1 0x60 PUSH2 0x298 DUP9 DUP3 DUP10 ADD PUSH2 0x20F JUMP JUMPDEST SWAP3 POP POP PUSH1 0x80 PUSH2 0x2A9 DUP9 DUP3 DUP10 ADD PUSH2 0x20F JUMP JUMPDEST SWAP2 POP POP SWAP3 SWAP6 POP SWAP3 SWAP6 SWAP1 SWAP4 POP JUMP JUMPDEST PUSH0 DUP2 MLOAD SWAP1 POP SWAP2 SWAP1 POP JUMP JUMPDEST PUSH32 0x4E487B7100000000000000000000000000000000000000000000000000000000 PUSH0 MSTORE PUSH1 0x22 PUSH1 0x4 MSTORE PUSH1 0x24 PUSH0 REVERT JUMPDEST PUSH0 PUSH1 0x2 DUP3 DIV SWAP1 POP PUSH1 0x1 DUP3 AND DUP1 PUSH2 0x304 JUMPI PUSH1 0x7F DUP3 AND SWAP2 POP JUMPDEST PUSH1 0x20 DUP3 LT DUP2 SUB PUSH2 0x317 JUMPI PUSH2 0x316 PUSH2 0x2C0 JUMP JUMPDEST JUMPDEST POP SWAP2 SWAP1 POP JUMP JUMPDEST PUSH0 DUP2 SWAP1 POP DUP2 PUSH0 MSTORE PUSH1 0x20 PUSH0 KECCAK256 SWAP1 POP SWAP2 SWAP1 POP JUMP JUMPDEST PUSH0 PUSH1 0x20 PUSH1 0x1F DUP4 ADD DIV SWAP1 POP SWAP2 SWAP1 POP JUMP JUMPDEST PUSH0 DUP3 DUP3 SHL SWAP1 POP SWAP3 SWAP2 POP POP JUMP JUMPDEST PUSH0 PUSH1 0x8 DUP4 MUL PUSH2 0x379 PUSH32 0xFFFFFFFFFFFFFFFFFFFFFFFFFFFFFFFFFFFFFFFFFFFFFFFFFFFFFFFFFFFFFFFF DUP3 PUSH2 0x33E JUMP JUMPDEST PUSH2 0x383 DUP7 DUP4 PUSH2 0x33E JUMP JUMPDEST SWAP6 POP DUP1 NOT DUP5 AND SWAP4 POP DUP1 DUP7 AND DUP5 OR SWAP3 POP POP POP SWAP4 SWAP3 POP POP POP JUMP JUMPDEST PUSH0 DUP2 SWAP1 POP SWAP2 SWAP1 POP JUMP JUMPDEST PUSH0 PUSH2 0x3BE PUSH2 0x3B9 PUSH2 0x3B4 DUP5 PUSH2 0x1F0 JUMP JUMPDEST PUSH2 0x39B JUMP JUMPDEST PUSH2 0x1F0 JUMP JUMPDEST SWAP1 POP SWAP2 SWAP1 POP JUMP JUMPDEST PUSH0 DUP2 SWAP1 POP SWAP2 SWAP1 POP JUMP JUMPDEST PUSH2 0x3D7 DUP4 PUSH2 0x3A4 JUMP JUMPDEST PUSH2 0x3EB PUSH2 0x3E3 DUP3 PUSH2 0x3C5 JUMP JUMPDEST DUP5 DUP5 SLOAD PUSH2 0x34A JUMP JUMPDEST DUP3 SSTORE POP POP POP POP JUMP JUMPDEST PUSH0 SWAP1 JUMP JUMPDEST PUSH2 0x3FF PUSH2 0x3F3 JUMP JUMPDEST PUSH2 0x40A DUP2 DUP5 DUP5 PUSH2 0x3CE JUMP JUMPDEST POP POP POP JUMP JUMPDEST JUMPDEST DUP2 DUP2 LT ISZERO PUSH2 0x42D JUMPI PUSH2 0x422 PUSH0 DUP3 PUSH2 0x3F7 JUMP JUMPDEST PUSH1 0x1 DUP2 ADD SWAP1 POP PUSH2 0x410 JUMP JUMPDEST POP POP JUMP JUMPDEST PUSH1 0x1F DUP3 GT ISZERO PUSH2 0x472 JUMPI PUSH2 0x443 DUP2 PUSH2 0x31D JUMP JUMPDEST PUSH2 0x44C DUP5 PUSH2 0x32F JUMP JUMPDEST DUP2 ADD PUSH1 0x20 DUP6 LT ISZERO PUSH2 0x45B JUMPI DUP2 SWAP1 POP JUMPDEST PUSH2 0x46F PUSH2 0x467 DUP6 PUSH2 0x32F JUMP JUMPDEST DUP4 ADD DUP3 PUSH2 0x40F JUMP JUMPDEST POP POP JUMPDEST POP POP POP JUMP JUMPDEST PUSH0 DUP3 DUP3 SHR SWAP1 POP SWAP3 SWAP2 POP POP JUMP JUMPDEST PUSH0 PUSH2 0x492 PUSH0 NOT DUP5 PUSH1 0x8 MUL PUSH2 0x477 JUMP JUMPDEST NOT DUP1 DUP4 AND SWAP2 POP POP SWAP3 SWAP2 POP POP JUMP JUMPDEST PUSH0 PUSH2 0x4AA DUP4 DUP4 PUSH2 0x483 JUMP JUMPDEST SWAP2 POP DUP3 PUSH1 0x2 MUL DUP3 OR SWAP1 POP SWAP3 SWAP2 POP POP JUMP JUMPDEST PUSH2 0x4C3 DUP3 PUSH2 0x2B6 JUMP JUMPDEST PUSH8 0xFFFFFFFFFFFFFFFF DUP2 GT ISZERO PUSH2 0x4DC JUMPI PUSH2 0x4DB PUSH2 0xCC JUMP JUMPDEST JUMPDEST PUSH2 0x4E6 DUP3 SLOAD PUSH2 0x2ED JUMP JUMPDEST PUSH2 0x4F1 DUP3 DUP3 DUP6 PUSH2 0x431 JUMP JUMPDEST PUSH0 PUSH1 0x20 SWAP1 POP PUSH1 0x1F DUP4 GT PUSH1 0x1 DUP2 EQ PUSH2 0x522 JUMPI PUSH0 DUP5 ISZERO PUSH2 0x510 JUMPI DUP3 DUP8 ADD MLOAD SWAP1 POP JUMPDEST PUSH2 0x51A DUP6 DUP3 PUSH2 0x49F JUMP JUMPDEST DUP7 SSTORE POP PUSH2 0x581 JUMP JUMPDEST PUSH1 0x1F NOT DUP5 AND PUSH2 0x530 DUP7 PUSH2 0x31D JUMP JUMPDEST PUSH0 JUMPDEST DUP3 DUP2 LT ISZERO PUSH2 0x557 JUMPI DUP5 DUP10 ADD MLOAD DUP3 SSTORE PUSH1 0x1 DUP3 ADD SWAP2 POP PUSH1 0x20 DUP6 ADD SWAP5 POP PUSH1 0x20 DUP2 ADD SWAP1 POP PUSH2 0x532 JUMP JUMPDEST DUP7 DUP4 LT ISZERO PUSH2 0x574 JUMPI DUP5 DUP10 ADD MLOAD PUSH2 0x570 PUSH1 0x1F DUP10 AND DUP3 PUSH2 0x483 JUMP JUMPDEST DUP4 SSTORE POP JUMPDEST PUSH1 0x1 PUSH1 0x2 DUP9 MUL ADD DUP9 SSTORE POP POP POP JUMPDEST POP POP POP POP POP POP JUMP JUMPDEST PUSH1 0x80 MLOAD PUSH2 0x1C0C PUSH2 0x5B6 PUSH0 CODECOPY PUSH0 DUP2 DUP2 PUSH2 0x5A0 ADD MSTORE DUP2 DUP2 PUSH2 0xB94 ADD MSTORE DUP2 DUP2 PUSH2 0xC88 ADD MSTORE PUSH2 0xDE1 ADD MSTORE PUSH2 0x1C0C PUSH0 RETURN INVALID PUSH1 0x80 PUSH1 0x40 MSTORE PUSH1 0x4 CALLDATASIZE LT PUSH2 0x113 JUMPI PUSH0 CALLDATALOAD PUSH1 0xE0 SHR DUP1 PUSH4 0xB2B98ED2 GT PUSH2 0x9F JUMPI DUP1 PUSH4 0xD295EBF0 GT PUSH2 0x63 JUMPI DUP1 PUSH4 0xD295EBF0 EQ PUSH2 0x31B JUMPI DUP1 PUSH4 0xD8346CDF EQ PUSH2 0x331 JUMPI DUP1 PUSH4 0xDE4B1E42 EQ PUSH2 0x359 JUMPI DUP1 PUSH4 0xFC4A4A1E EQ PUSH2 0x383 JUMPI DUP1 PUSH4 0xFC505BE9 EQ PUSH2 0x3AD JUMPI PUSH2 0x113 JUMP JUMPDEST DUP1 PUSH4 0xB2B98ED2 EQ PUSH2 0x249 JUMPI DUP1 PUSH4 0xBCA93EBA EQ PUSH2 0x273 JUMPI DUP1 PUSH4 0xCBB12C2D EQ PUSH2 0x29D JUMPI DUP1 PUSH4 0xD0B1BFD0 EQ PUSH2 0x2C7 JUMPI DUP1 PUSH4 0xD1EE49C2 EQ PUSH2 0x2F1 JUMPI PUSH2 0x113 JUMP JUMPDEST DUP1 PUSH4 0x6A7798EE GT PUSH2 0xE6 JUMPI DUP1 PUSH4 0x6A7798EE EQ PUSH2 0x1AB JUMPI DUP1 PUSH4 0x6A7A67F0 EQ PUSH2 0x1C1 JUMPI DUP1 PUSH4 0x6E6452CB EQ PUSH2 0x1EB JUMPI DUP1 PUSH4 0x85D679F9 EQ PUSH2 0x1F5 JUMPI DUP1 PUSH4 0x8611E07B EQ PUSH2 0x21F JUMPI PUSH2 0x113 JUMP JUMPDEST DUP1 PUSH4 0xCBB94E0 EQ PUSH2 0x117 JUMPI DUP1 PUSH4 0x38699C7F EQ PUSH2 0x141 JUMPI DUP1 PUSH4 0x54A8882D EQ PUSH2 0x16B JUMPI DUP1 PUSH4 0x5D268629 EQ PUSH2 0x195 JUMPI JUMPDEST PUSH0 DUP1 REVERT JUMPDEST CALLVALUE DUP1 ISZERO PUSH2 0x122 JUMPI PUSH0 DUP1 REVERT JUMPDEST POP PUSH2 0x12B PUSH2 0x3D7 JUMP JUMPDEST PUSH1 0x40 MLOAD PUSH2 0x138 SWAP2 SWAP1 PUSH2 0x12FC JUMP JUMPDEST PUSH1 0x40 MLOAD DUP1 SWAP2 SUB SWAP1 RETURN JUMPDEST CALLVALUE DUP1 ISZERO PUSH2 0x14C JUMPI PUSH0 DUP1 REVERT JUMPDEST POP PUSH2 0x155 PUSH2 0x3EA JUMP JUMPDEST PUSH1 0x40 MLOAD PUSH2 0x162 SWAP2 SWAP1 PUSH2 0x132D JUMP JUMPDEST PUSH1 0x40 MLOAD DUP1 SWAP2 SUB SWAP1 RETURN JUMPDEST CALLVALUE DUP1 ISZERO PUSH2 0x176 JUMPI PUSH0 DUP1 REVERT JUMPDEST POP PUSH2 0x17F PUSH2 0x3F0 JUMP JUMPDEST PUSH1 0x40 MLOAD PUSH2 0x18C SWAP2 SWAP1 PUSH2 0x132D JUMP JUMPDEST PUSH1 0x40 MLOAD DUP1 SWAP2 SUB SWAP1 RETURN JUMPDEST CALLVALUE DUP1 ISZERO PUSH2 0x1A0 JUMPI PUSH0 DUP1 REVERT JUMPDEST POP PUSH2 0x1A9 PUSH2 0x3F6 JUMP JUMPDEST STOP JUMPDEST CALLVALUE DUP1 ISZERO PUSH2 0x1B6 JUMPI PUSH0 DUP1 REVERT JUMPDEST POP PUSH2 0x1BF PUSH2 0x59E JUMP JUMPDEST STOP JUMPDEST CALLVALUE DUP1 ISZERO PUSH2 0x1CC JUMPI PUSH0 DUP1 REVERT JUMPDEST POP PUSH2 0x1D5 PUSH2 0x751 JUMP JUMPDEST PUSH1 0x40 MLOAD PUSH2 0x1E2 SWAP2 SWAP1 PUSH2 0x13B6 JUMP JUMPDEST PUSH1 0x40 MLOAD DUP1 SWAP2 SUB SWAP1 RETURN JUMPDEST PUSH2 0x1F3 PUSH2 0x7DC JUMP JUMPDEST STOP JUMPDEST CALLVALUE DUP1 ISZERO PUSH2 0x200 JUMPI PUSH0 DUP1 REVERT JUMPDEST POP PUSH2 0x209 PUSH2 0xAB8 JUMP JUMPDEST PUSH1 0x40 MLOAD PUSH2 0x216 SWAP2 SWAP1 PUSH2 0x13B6 JUMP JUMPDEST PUSH1 0x40 MLOAD DUP1 SWAP2 SUB SWAP1 RETURN JUMPDEST CALLVALUE DUP1 ISZERO PUSH2 0x22A JUMPI PUSH0 DUP1 REVERT JUMPDEST POP PUSH2 0x233 PUSH2 0xB67 JUMP JUMPDEST PUSH1 0x40 MLOAD PUSH2 0x240 SWAP2 SWAP1 PUSH2 0x132D JUMP JUMPDEST PUSH1 0x40 MLOAD DUP1 SWAP2 SUB SWAP1 RETURN JUMPDEST CALLVALUE DUP1 ISZERO PUSH2 0x254 JUMPI PUSH0 DUP1 REVERT JUMPDEST POP PUSH2 0x25D PUSH2 0xB6D JUMP JUMPDEST PUSH1 0x40 MLOAD PUSH2 0x26A SWAP2 SWAP1 PUSH2 0x1415 JUMP JUMPDEST PUSH1 0x40 MLOAD DUP1 SWAP2 SUB SWAP1 RETURN JUMPDEST CALLVALUE DUP1 ISZERO PUSH2 0x27E JUMPI PUSH0 DUP1 REVERT JUMPDEST POP PUSH2 0x287 PUSH2 0xB92 JUMP JUMPDEST PUSH1 0x40 MLOAD PUSH2 0x294 SWAP2 SWAP1 PUSH2 0x1415 JUMP JUMPDEST PUSH1 0x40 MLOAD DUP1 SWAP2 SUB SWAP1 RETURN JUMPDEST CALLVALUE DUP1 ISZERO PUSH2 0x2A8 JUMPI PUSH0 DUP1 REVERT JUMPDEST POP PUSH2 0x2B1 PUSH2 0xBB6 JUMP JUMPDEST PUSH1 0x40 MLOAD PUSH2 0x2BE SWAP2 SWAP1 PUSH2 0x132D JUMP JUMPDEST PUSH1 0x40 MLOAD DUP1 SWAP2 SUB SWAP1 RETURN JUMPDEST CALLVALUE DUP1 ISZERO PUSH2 0x2D2 JUMPI PUSH0 DUP1 REVERT JUMPDEST POP PUSH2 0x2DB PUSH2 0xBBC JUMP JUMPDEST PUSH1 0x40 MLOAD PUSH2 0x2E8 SWAP2 SWAP1 PUSH2 0x132D JUMP JUMPDEST PUSH1 0x40 MLOAD DUP1 SWAP2 SUB SWAP1 RETURN JUMPDEST CALLVALUE DUP1 ISZERO PUSH2 0x2FC JUMPI PUSH0 DUP1 REVERT JUMPDEST POP PUSH2 0x305 PUSH2 0xBC2 JUMP JUMPDEST PUSH1 0x40 MLOAD PUSH2 0x312 SWAP2 SWAP1 PUSH2 0x1534 JUMP JUMPDEST PUSH1 0x40 MLOAD DUP1 SWAP2 SUB SWAP1 RETURN JUMPDEST CALLVALUE DUP1 ISZERO PUSH2 0x326 JUMPI PUSH0 DUP1 REVERT JUMPDEST POP PUSH2 0x32F PUSH2 0xC86 JUMP JUMPDEST STOP JUMPDEST CALLVALUE DUP1 ISZERO PUSH2 0x33C JUMPI PUSH0 DUP1 REVERT JUMPDEST POP PUSH2 0x357 PUSH1 0x4 DUP1 CALLDATASIZE SUB DUP2 ADD SWAP1 PUSH2 0x352 SWAP2 SWAP1 PUSH2 0x1582 JUMP JUMPDEST PUSH2 0xDDF JUMP JUMPDEST STOP JUMPDEST CALLVALUE DUP1 ISZERO PUSH2 0x364 JUMPI PUSH0 DUP1 REVERT JUMPDEST POP PUSH2 0x36D PUSH2 0xF24 JUMP JUMPDEST PUSH1 0x40 MLOAD PUSH2 0x37A SWAP2 SWAP1 PUSH2 0x132D JUMP JUMPDEST PUSH1 0x40 MLOAD DUP1 SWAP2 SUB SWAP1 RETURN JUMPDEST CALLVALUE DUP1 ISZERO PUSH2 0x38E JUMPI PUSH0 DUP1 REVERT JUMPDEST POP PUSH2 0x397 PUSH2 0xF2A JUMP JUMPDEST PUSH1 0x40 MLOAD PUSH2 0x3A4 SWAP2 SWAP1 PUSH2 0x132D JUMP JUMPDEST PUSH1 0x40 MLOAD DUP1 SWAP2 SUB SWAP1 RETURN JUMPDEST CALLVALUE DUP1 ISZERO PUSH2 0x3B8 JUMPI PUSH0 DUP1 REVERT JUMPDEST POP PUSH2 0x3C1 PUSH2 0xF30 JUMP JUMPDEST PUSH1 0x40 MLOAD PUSH2 0x3CE SWAP2 SWAP1 PUSH2 0x12FC JUMP JUMPDEST PUSH1 0x40 MLOAD DUP1 SWAP2 SUB SWAP1 RETURN JUMPDEST PUSH1 0x6 PUSH1 0x1 SWAP1 SLOAD SWAP1 PUSH2 0x100 EXP SWAP1 DIV PUSH1 0xFF AND DUP2 JUMP JUMPDEST PUSH1 0x3 SLOAD DUP2 JUMP JUMPDEST PUSH1 0x5 SLOAD DUP2 JUMP JUMPDEST PUSH1 0x6 PUSH1 0x1 SWAP1 SLOAD SWAP1 PUSH2 0x100 EXP SWAP1 DIV PUSH1 0xFF AND PUSH2 0x445 JUMPI PUSH1 0x40 MLOAD PUSH32 0x8C379A000000000000000000000000000000000000000000000000000000000 DUP2 MSTORE PUSH1 0x4 ADD PUSH2 0x43C SWAP1 PUSH2 0x15F7 JUMP JUMPDEST PUSH1 0x40 MLOAD DUP1 SWAP2 SUB SWAP1 REVERT JUMPDEST PUSH1 0x2 PUSH0 SWAP1 SLOAD SWAP1 PUSH2 0x100 EXP SWAP1 DIV PUSH20 0xFFFFFFFFFFFFFFFFFFFFFFFFFFFFFFFFFFFFFFFF AND PUSH20 0xFFFFFFFFFFFFFFFFFFFFFFFFFFFFFFFFFFFFFFFF AND CALLER PUSH20 0xFFFFFFFFFFFFFFFFFFFFFFFFFFFFFFFFFFFFFFFF AND SUB PUSH2 0x4D4 JUMPI PUSH1 0x40 MLOAD PUSH32 0x8C379A000000000000000000000000000000000000000000000000000000000 DUP2 MSTORE PUSH1 0x4 ADD PUSH2 0x4CB SWAP1 PUSH2 0x165F JUMP JUMPDEST PUSH1 0x40 MLOAD DUP1 SWAP2 SUB SWAP1 REVERT JUMPDEST PUSH0 PUSH1 0xD PUSH0 CALLER PUSH20 0xFFFFFFFFFFFFFFFFFFFFFFFFFFFFFFFFFFFFFFFF AND PUSH20 0xFFFFFFFFFFFFFFFFFFFFFFFFFFFFFFFFFFFFFFFF AND DUP2 MSTORE PUSH1 0x20 ADD SWAP1 DUP2 MSTORE PUSH1 0x20 ADD PUSH0 KECCAK256 SLOAD SWAP1 POP PUSH0 PUSH1 0xD PUSH0 CALLER PUSH20 0xFFFFFFFFFFFFFFFFFFFFFFFFFFFFFFFFFFFFFFFF AND PUSH20 0xFFFFFFFFFFFFFFFFFFFFFFFFFFFFFFFFFFFFFFFF AND DUP2 MSTORE PUSH1 0x20 ADD SWAP1 DUP2 MSTORE PUSH1 0x20 ADD PUSH0 KECCAK256 DUP2 SWAP1 SSTORE POP CALLER PUSH20 0xFFFFFFFFFFFFFFFFFFFFFFFFFFFFFFFFFFFFFFFF AND PUSH2 0x8FC DUP3 SWAP1 DUP2 ISZERO MUL SWAP1 PUSH1 0x40 MLOAD PUSH0 PUSH1 0x40 MLOAD DUP1 DUP4 SUB DUP2 DUP6 DUP9 DUP9 CALL SWAP4 POP POP POP POP ISZERO DUP1 ISZERO PUSH2 0x59A JUMPI RETURNDATASIZE PUSH0 DUP1 RETURNDATACOPY RETURNDATASIZE PUSH0 REVERT JUMPDEST POP POP JUMP JUMPDEST PUSH32 0x0 PUSH20 0xFFFFFFFFFFFFFFFFFFFFFFFFFFFFFFFFFFFFFFFF AND CALLER PUSH20 0xFFFFFFFFFFFFFFFFFFFFFFFFFFFFFFFFFFFFFFFF AND EQ PUSH2 0x62C JUMPI PUSH1 0x40 MLOAD PUSH32 0x8C379A000000000000000000000000000000000000000000000000000000000 DUP2 MSTORE PUSH1 0x4 ADD PUSH2 0x623 SWAP1 PUSH2 0x16C7 JUMP JUMPDEST PUSH1 0x40 MLOAD DUP1 SWAP2 SUB SWAP1 REVERT JUMPDEST PUSH1 0x6 PUSH0 SWAP1 SLOAD SWAP1 PUSH2 0x100 EXP SWAP1 DIV PUSH1 0xFF AND PUSH2 0x67A JUMPI PUSH1 0x40 MLOAD PUSH32 0x8C379A000000000000000000000000000000000000000000000000000000000 DUP2 MSTORE PUSH1 0x4 ADD PUSH2 0x671 SWAP1 PUSH2 0x172F JUMP JUMPDEST PUSH1 0x40 MLOAD DUP1 SWAP2 SUB SWAP1 REVERT JUMPDEST PUSH1 0x6 PUSH1 0x1 SWAP1 SLOAD SWAP1 PUSH2 0x100 EXP SWAP1 DIV PUSH1 0xFF AND ISZERO PUSH2 0x6CA JUMPI PUSH1 0x40 MLOAD PUSH32 0x8C379A000000000000000000000000000000000000000000000000000000000 DUP2 MSTORE PUSH1 0x4 ADD PUSH2 0x6C1 SWAP1 PUSH2 0x1797 JUMP JUMPDEST PUSH1 0x40 MLOAD DUP1 SWAP2 SUB SWAP1 REVERT JUMPDEST PUSH1 0x1 PUSH1 0x6 PUSH1 0x1 PUSH2 0x100 EXP DUP2 SLOAD DUP2 PUSH1 0xFF MUL NOT AND SWAP1 DUP4 ISZERO ISZERO MUL OR SWAP1 SSTORE POP PUSH1 0x1 PUSH0 SWAP1 SLOAD SWAP1 PUSH2 0x100 EXP SWAP1 DIV PUSH20 0xFFFFFFFFFFFFFFFFFFFFFFFFFFFFFFFFFFFFFFFF AND PUSH1 0x2 PUSH0 PUSH2 0x100 EXP DUP2 SLOAD DUP2 PUSH20 0xFFFFFFFFFFFFFFFFFFFFFFFFFFFFFFFFFFFFFFFF MUL NOT AND SWAP1 DUP4 PUSH20 0xFFFFFFFFFFFFFFFFFFFFFFFFFFFFFFFFFFFFFFFF AND MUL OR SWAP1 SSTORE POP PUSH2 0x74E PUSH2 0xF42 JUMP JUMPDEST POP JUMP JUMPDEST PUSH0 DUP1 SLOAD PUSH2 0x75D SWAP1 PUSH2 0x17E2 JUMP JUMPDEST DUP1 PUSH1 0x1F ADD PUSH1 0x20 DUP1 SWAP2 DIV MUL PUSH1 0x20 ADD PUSH1 0x40 MLOAD SWAP1 DUP2 ADD PUSH1 0x40 MSTORE DUP1 SWAP3 SWAP2 SWAP1 DUP2 DUP2 MSTORE PUSH1 0x20 ADD DUP3 DUP1 SLOAD PUSH2 0x789 SWAP1 PUSH2 0x17E2 JUMP JUMPDEST DUP1 ISZERO PUSH2 0x7D4 JUMPI DUP1 PUSH1 0x1F LT PUSH2 0x7AB JUMPI PUSH2 0x100 DUP1 DUP4 SLOAD DIV MUL DUP4 MSTORE SWAP2 PUSH1 0x20 ADD SWAP2 PUSH2 0x7D4 JUMP JUMPDEST DUP3 ADD SWAP2 SWAP1 PUSH0 MSTORE PUSH1 0x20 PUSH0 KECCAK256 SWAP1 JUMPDEST DUP2 SLOAD DUP2 MSTORE SWAP1 PUSH1 0x1 ADD SWAP1 PUSH1 0x20 ADD DUP1 DUP4 GT PUSH2 0x7B7 JUMPI DUP3 SWAP1 SUB PUSH1 0x1F AND DUP3 ADD SWAP2 JUMPDEST POP POP POP POP POP DUP2 JUMP JUMPDEST PUSH1 0x6 PUSH1 0x1 SWAP1 SLOAD SWAP1 PUSH2 0x100 EXP SWAP1 DIV PUSH1 0xFF AND ISZERO PUSH2 0x82C JUMPI PUSH1 0x40 MLOAD PUSH32 0x8C379A000000000000000000000000000000000000000000000000000000000 DUP2 MSTORE PUSH1 0x4 ADD PUSH2 0x823 SWAP1 PUSH2 0x185C JUMP JUMPDEST PUSH1 0x40 MLOAD DUP1 SWAP2 SUB SWAP1 REVERT JUMPDEST PUSH1 0x1 ISZERO ISZERO PUSH1 0xC PUSH0 CALLER PUSH20 0xFFFFFFFFFFFFFFFFFFFFFFFFFFFFFFFFFFFFFFFF AND PUSH20 0xFFFFFFFFFFFFFFFFFFFFFFFFFFFFFFFFFFFFFFFF AND DUP2 MSTORE PUSH1 0x20 ADD SWAP1 DUP2 MSTORE PUSH1 0x20 ADD PUSH0 KECCAK256 PUSH0 SWAP1 SLOAD SWAP1 PUSH2 0x100 EXP SWAP1 DIV PUSH1 0xFF AND ISZERO ISZERO EQ PUSH2 0x8BC JUMPI PUSH1 0x40 MLOAD PUSH32 0x8C379A000000000000000000000000000000000000000000000000000000000 DUP2 MSTORE PUSH1 0x4 ADD PUSH2 0x8B3 SWAP1 PUSH2 0x18C4 JUMP JUMPDEST PUSH1 0x40 MLOAD DUP1 SWAP2 SUB SWAP1 REVERT JUMPDEST PUSH1 0x4 SLOAD PUSH1 0x5 SLOAD PUSH2 0x8CC SWAP2 SWAP1 PUSH2 0x190F JUMP JUMPDEST CALLVALUE EQ PUSH2 0x8E6 PUSH1 0x4 SLOAD PUSH1 0x5 SLOAD PUSH2 0x8E1 SWAP2 SWAP1 PUSH2 0x190F JUMP JUMPDEST PUSH2 0x1029 JUMP JUMPDEST PUSH1 0x40 MLOAD PUSH1 0x20 ADD PUSH2 0x8F6 SWAP2 SWAP1 PUSH2 0x19EC JUMP JUMPDEST PUSH1 0x40 MLOAD PUSH1 0x20 DUP2 DUP4 SUB SUB DUP2 MSTORE SWAP1 PUSH1 0x40 MSTORE SWAP1 PUSH2 0x946 JUMPI PUSH1 0x40 MLOAD PUSH32 0x8C379A000000000000000000000000000000000000000000000000000000000 DUP2 MSTORE PUSH1 0x4 ADD PUSH2 0x93D SWAP2 SWAP1 PUSH2 0x13B6 JUMP JUMPDEST PUSH1 0x40 MLOAD DUP1 SWAP2 SUB SWAP1 REVERT JUMPDEST POP CALLVALUE PUSH1 0xD PUSH0 CALLER PUSH20 0xFFFFFFFFFFFFFFFFFFFFFFFFFFFFFFFFFFFFFFFF AND PUSH20 0xFFFFFFFFFFFFFFFFFFFFFFFFFFFFFFFFFFFFFFFF AND DUP2 MSTORE PUSH1 0x20 ADD SWAP1 DUP2 MSTORE PUSH1 0x20 ADD PUSH0 KECCAK256 PUSH0 DUP3 DUP3 SLOAD PUSH2 0x993 SWAP2 SWAP1 PUSH2 0x190F JUMP JUMPDEST SWAP3 POP POP DUP2 SWAP1 SSTORE POP CALLER PUSH1 0x1 PUSH0 PUSH2 0x100 EXP DUP2 SLOAD DUP2 PUSH20 0xFFFFFFFFFFFFFFFFFFFFFFFFFFFFFFFFFFFFFFFF MUL NOT AND SWAP1 DUP4 PUSH20 0xFFFFFFFFFFFFFFFFFFFFFFFFFFFFFFFFFFFFFFFF AND MUL OR SWAP1 SSTORE POP PUSH1 0x4 SLOAD PUSH1 0x5 PUSH0 DUP3 DUP3 SLOAD PUSH2 0x9ED SWAP2 SWAP1 PUSH2 0x190F JUMP JUMPDEST SWAP3 POP POP DUP2 SWAP1 SSTORE POP TIMESTAMP PUSH1 0x9 DUP2 SWAP1 SSTORE POP PUSH1 0xE PUSH1 0x40 MLOAD DUP1 PUSH1 0x60 ADD PUSH1 0x40 MSTORE DUP1 CALLER PUSH20 0xFFFFFFFFFFFFFFFFFFFFFFFFFFFFFFFFFFFFFFFF AND DUP2 MSTORE PUSH1 0x20 ADD CALLVALUE DUP2 MSTORE PUSH1 0x20 ADD TIMESTAMP DUP2 MSTORE POP SWAP1 DUP1 PUSH1 0x1 DUP2 SLOAD ADD DUP1 DUP3 SSTORE DUP1 SWAP2 POP POP PUSH1 0x1 SWAP1 SUB SWAP1 PUSH0 MSTORE PUSH1 0x20 PUSH0 KECCAK256 SWAP1 PUSH1 0x3 MUL ADD PUSH0 SWAP1 SWAP2 SWAP1 SWAP2 SWAP1 SWAP2 POP PUSH0 DUP3 ADD MLOAD DUP2 PUSH0 ADD PUSH0 PUSH2 0x100 EXP DUP2 SLOAD DUP2 PUSH20 0xFFFFFFFFFFFFFFFFFFFFFFFFFFFFFFFFFFFFFFFF MUL NOT AND SWAP1 DUP4 PUSH20 0xFFFFFFFFFFFFFFFFFFFFFFFFFFFFFFFFFFFFFFFF AND MUL OR SWAP1 SSTORE POP PUSH1 0x20 DUP3 ADD MLOAD DUP2 PUSH1 0x1 ADD SSTORE PUSH1 0x40 DUP3 ADD MLOAD DUP2 PUSH1 0x2 ADD SSTORE POP POP PUSH2 0xAB6 PUSH2 0x10F3 JUMP JUMPDEST JUMP JUMPDEST PUSH1 0x60 PUSH1 0x2 PUSH0 SWAP1 SLOAD SWAP1 PUSH2 0x100 EXP SWAP1 DIV PUSH20 0xFFFFFFFFFFFFFFFFFFFFFFFFFFFFFFFFFFFFFFFF AND PUSH20 0xFFFFFFFFFFFFFFFFFFFFFFFFFFFFFFFFFFFFFFFF AND CALLER PUSH20 0xFFFFFFFFFFFFFFFFFFFFFFFFFFFFFFFFFFFFFFFF AND EQ PUSH2 0xB49 JUMPI PUSH1 0x40 MLOAD PUSH32 0x8C379A000000000000000000000000000000000000000000000000000000000 DUP2 MSTORE PUSH1 0x4 ADD PUSH2 0xB40 SWAP1 PUSH2 0x1A57 JUMP JUMPDEST PUSH1 0x40 MLOAD DUP1 SWAP2 SUB SWAP1 REVERT JUMPDEST PUSH1 0x40 MLOAD DUP1 PUSH1 0x60 ADD PUSH1 0x40 MSTORE DUP1 PUSH1 0x37 DUP2 MSTORE PUSH1 0x20 ADD PUSH2 0x1BA0 PUSH1 0x37 SWAP2 CODECOPY SWAP1 POP SWAP1 JUMP JUMPDEST PUSH1 0x4 SLOAD DUP2 JUMP JUMPDEST PUSH1 0x2 PUSH0 SWAP1 SLOAD SWAP1 PUSH2 0x100 EXP SWAP1 DIV PUSH20 0xFFFFFFFFFFFFFFFFFFFFFFFFFFFFFFFFFFFFFFFF AND DUP2 JUMP JUMPDEST PUSH32 0x0 DUP2 JUMP JUMPDEST PUSH1 0x8 SLOAD DUP2 JUMP JUMPDEST PUSH1 0xB SLOAD DUP2 JUMP JUMPDEST PUSH1 0x60 PUSH1 0xE DUP1 SLOAD DUP1 PUSH1 0x20 MUL PUSH1 0x20 ADD PUSH1 0x40 MLOAD SWAP1 DUP2 ADD PUSH1 0x40 MSTORE DUP1 SWAP3 SWAP2 SWAP1 DUP2 DUP2 MSTORE PUSH1 0x20 ADD PUSH0 SWAP1 JUMPDEST DUP3 DUP3 LT ISZERO PUSH2 0xC7D JUMPI DUP4 DUP3 SWAP1 PUSH0 MSTORE PUSH1 0x20 PUSH0 KECCAK256 SWAP1 PUSH1 0x3 MUL ADD PUSH1 0x40 MLOAD DUP1 PUSH1 0x60 ADD PUSH1 0x40 MSTORE SWAP1 DUP2 PUSH0 DUP3 ADD PUSH0 SWAP1 SLOAD SWAP1 PUSH2 0x100 EXP SWAP1 DIV PUSH20 0xFFFFFFFFFFFFFFFFFFFFFFFFFFFFFFFFFFFFFFFF AND PUSH20 0xFFFFFFFFFFFFFFFFFFFFFFFFFFFFFFFFFFFFFFFF AND PUSH20 0xFFFFFFFFFFFFFFFFFFFFFFFFFFFFFFFFFFFFFFFF AND DUP2 MSTORE PUSH1 0x20 ADD PUSH1 0x1 DUP3 ADD SLOAD DUP2 MSTORE PUSH1 0x20 ADD PUSH1 0x2 DUP3 ADD SLOAD DUP2 MSTORE POP POP DUP2 MSTORE PUSH1 0x20 ADD SWAP1 PUSH1 0x1 ADD SWAP1 PUSH2 0xBE5 JUMP JUMPDEST POP POP POP POP SWAP1 POP SWAP1 JUMP JUMPDEST PUSH32 0x0 PUSH20 0xFFFFFFFFFFFFFFFFFFFFFFFFFFFFFFFFFFFFFFFF AND CALLER PUSH20 0xFFFFFFFFFFFFFFFFFFFFFFFFFFFFFFFFFFFFFFFF AND EQ PUSH2 0xD14 JUMPI PUSH1 0x40 MLOAD PUSH32 0x8C379A000000000000000000000000000000000000000000000000000000000 DUP2 MSTORE PUSH1 0x4 ADD PUSH2 0xD0B SWAP1 PUSH2 0x16C7 JUMP JUMPDEST PUSH1 0x40 MLOAD DUP1 SWAP2 SUB SWAP1 REVERT JUMPDEST PUSH1 0x6 PUSH1 0x1 SWAP1 SLOAD SWAP1 PUSH2 0x100 EXP SWAP1 DIV PUSH1 0xFF AND ISZERO PUSH2 0xD64 JUMPI PUSH1 0x40 MLOAD PUSH32 0x8C379A000000000000000000000000000000000000000000000000000000000 DUP2 MSTORE PUSH1 0x4 ADD PUSH2 0xD5B SWAP1 PUSH2 0x185C JUMP JUMPDEST PUSH1 0x40 MLOAD DUP1 SWAP2 SUB SWAP1 REVERT JUMPDEST PUSH1 0x6 PUSH0 SWAP1 SLOAD SWAP1 PUSH2 0x100 EXP SWAP1 DIV PUSH1 0xFF AND ISZERO PUSH2 0xDB3 JUMPI PUSH1 0x40 MLOAD PUSH32 0x8C379A000000000000000000000000000000000000000000000000000000000 DUP2 MSTORE PUSH1 0x4 ADD PUSH2 0xDAA SWAP1 PUSH2 0x1ABF JUMP JUMPDEST PUSH1 0x40 MLOAD DUP1 SWAP2 SUB SWAP1 REVERT JUMPDEST PUSH1 0x1 PUSH1 0x6 PUSH0 PUSH2 0x100 EXP DUP2 SLOAD DUP2 PUSH1 0xFF MUL NOT AND SWAP1 DUP4 ISZERO ISZERO MUL OR SWAP1 SSTORE POP TIMESTAMP PUSH1 0x7 DUP2 SWAP1 SSTORE POP PUSH1 0x7 SLOAD PUSH1 0x9 DUP2 SWAP1 SSTORE POP JUMP JUMPDEST PUSH32 0x0 PUSH20 0xFFFFFFFFFFFFFFFFFFFFFFFFFFFFFFFFFFFFFFFF AND CALLER PUSH20 0xFFFFFFFFFFFFFFFFFFFFFFFFFFFFFFFFFFFFFFFF AND EQ PUSH2 0xE6D JUMPI PUSH1 0x40 MLOAD PUSH32 0x8C379A000000000000000000000000000000000000000000000000000000000 DUP2 MSTORE PUSH1 0x4 ADD PUSH2 0xE64 SWAP1 PUSH2 0x16C7 JUMP JUMPDEST PUSH1 0x40 MLOAD DUP1 SWAP2 SUB SWAP1 REVERT JUMPDEST PUSH1 0xA SLOAD PUSH1 0xB SLOAD LT PUSH2 0xEB3 JUMPI PUSH1 0x40 MLOAD PUSH32 0x8C379A000000000000000000000000000000000000000000000000000000000 DUP2 MSTORE PUSH1 0x4 ADD PUSH2 0xEAA SWAP1 PUSH2 0x1B27 JUMP JUMPDEST PUSH1 0x40 MLOAD DUP1 SWAP2 SUB SWAP1 REVERT JUMPDEST PUSH1 0x1 PUSH1 0xC PUSH0 DUP4 PUSH20 0xFFFFFFFFFFFFFFFFFFFFFFFFFFFFFFFFFFFFFFFF AND PUSH20 0xFFFFFFFFFFFFFFFFFFFFFFFFFFFFFFFFFFFFFFFF AND DUP2 MSTORE PUSH1 0x20 ADD SWAP1 DUP2 MSTORE PUSH1 0x20 ADD PUSH0 KECCAK256 PUSH0 PUSH2 0x100 EXP DUP2 SLOAD DUP2 PUSH1 0xFF MUL NOT AND SWAP1 DUP4 ISZERO ISZERO MUL OR SWAP1 SSTORE POP PUSH1 0x1 PUSH1 0xB PUSH0 DUP3 DUP3 SLOAD PUSH2 0xF1A SWAP2 SWAP1 PUSH2 0x190F JUMP JUMPDEST SWAP3 POP POP DUP2 SWAP1 SSTORE POP POP JUMP JUMPDEST PUSH1 0xA SLOAD DUP2 JUMP JUMPDEST PUSH1 0x7 SLOAD DUP2 JUMP JUMPDEST PUSH1 0x6 PUSH0 SWAP1 SLOAD SWAP1 PUSH2 0x100 EXP SWAP1 DIV PUSH1 0xFF AND DUP2 JUMP JUMPDEST PUSH0 DUP1 PUSH20 0xFFFFFFFFFFFFFFFFFFFFFFFFFFFFFFFFFFFFFFFF AND PUSH1 0x1 PUSH0 SWAP1 SLOAD SWAP1 PUSH2 0x100 EXP SWAP1 DIV PUSH20 0xFFFFFFFFFFFFFFFFFFFFFFFFFFFFFFFFFFFFFFFF AND PUSH20 0xFFFFFFFFFFFFFFFFFFFFFFFFFFFFFFFFFFFFFFFF AND EQ ISZERO DUP1 ISZERO PUSH2 0xFAD JUMPI POP PUSH1 0x6 PUSH1 0x1 SWAP1 SLOAD SWAP1 PUSH2 0x100 EXP SWAP1 DIV PUSH1 0xFF AND ISZERO JUMPDEST ISZERO PUSH2 0x1022 JUMPI PUSH1 0x1 PUSH0 SWAP1 SLOAD SWAP1 PUSH2 0x100 EXP SWAP1 DIV PUSH20 0xFFFFFFFFFFFFFFFFFFFFFFFFFFFFFFFFFFFFFFFF AND PUSH20 0xFFFFFFFFFFFFFFFFFFFFFFFFFFFFFFFFFFFFFFFF AND PUSH2 0x8FC PUSH1 0x5 SLOAD SWAP1 DUP2 ISZERO MUL SWAP1 PUSH1 0x40 MLOAD PUSH0 PUSH1 0x40 MLOAD DUP1 DUP4 SUB DUP2 DUP6 DUP9 DUP9 CALL SWAP4 POP POP POP POP ISZERO DUP1 ISZERO PUSH2 0x1018 JUMPI RETURNDATASIZE PUSH0 DUP1 RETURNDATACOPY RETURNDATASIZE PUSH0 REVERT JUMPDEST POP PUSH1 0x1 SWAP1 POP PUSH2 0x1026 JUMP JUMPDEST PUSH0 SWAP1 POP JUMPDEST SWAP1 JUMP JUMPDEST PUSH1 0x60 PUSH0 PUSH1 0x1 PUSH2 0x1037 DUP5 PUSH2 0x1191 JUMP JUMPDEST ADD SWAP1 POP PUSH0 DUP2 PUSH8 0xFFFFFFFFFFFFFFFF DUP2 GT ISZERO PUSH2 0x1055 JUMPI PUSH2 0x1054 PUSH2 0x1B45 JUMP JUMPDEST JUMPDEST PUSH1 0x40 MLOAD SWAP1 DUP1 DUP3 MSTORE DUP1 PUSH1 0x1F ADD PUSH1 0x1F NOT AND PUSH1 0x20 ADD DUP3 ADD PUSH1 0x40 MSTORE DUP1 ISZERO PUSH2 0x1087 JUMPI DUP2 PUSH1 0x20 ADD PUSH1 0x1 DUP3 MUL DUP1 CALLDATASIZE DUP4 CALLDATACOPY DUP1 DUP3 ADD SWAP2 POP POP SWAP1 POP JUMPDEST POP SWAP1 POP PUSH0 DUP3 PUSH1 0x20 ADD DUP3 ADD SWAP1 POP JUMPDEST PUSH1 0x1 ISZERO PUSH2 0x10E8 JUMPI DUP1 DUP1 PUSH1 0x1 SWAP1 SUB SWAP2 POP POP PUSH32 0x3031323334353637383961626364656600000000000000000000000000000000 PUSH1 0xA DUP7 MOD BYTE DUP2 MSTORE8 PUSH1 0xA DUP6 DUP2 PUSH2 0x10DD JUMPI PUSH2 0x10DC PUSH2 0x1B72 JUMP JUMPDEST JUMPDEST DIV SWAP5 POP PUSH0 DUP6 SUB PUSH2 0x1094 JUMPI JUMPDEST DUP2 SWAP4 POP POP POP POP SWAP2 SWAP1 POP JUMP JUMPDEST PUSH1 0x8 SLOAD PUSH1 0x9 SLOAD PUSH2 0x1103 SWAP2 SWAP1 PUSH2 0x190F JUMP JUMPDEST TIMESTAMP LT PUSH2 0x118F JUMPI PUSH1 0x1 PUSH1 0x6 PUSH1 0x1 PUSH2 0x100 EXP DUP2 SLOAD DUP2 PUSH1 0xFF MUL NOT AND SWAP1 DUP4 ISZERO ISZERO MUL OR SWAP1 SSTORE POP PUSH1 0x1 PUSH0 SWAP1 SLOAD SWAP1 PUSH2 0x100 EXP SWAP1 DIV PUSH20 0xFFFFFFFFFFFFFFFFFFFFFFFFFFFFFFFFFFFFFFFF AND PUSH1 0x2 PUSH0 PUSH2 0x100 EXP DUP2 SLOAD DUP2 PUSH20 0xFFFFFFFFFFFFFFFFFFFFFFFFFFFFFFFFFFFFFFFF MUL NOT AND SWAP1 DUP4 PUSH20 0xFFFFFFFFFFFFFFFFFFFFFFFFFFFFFFFFFFFFFFFF AND MUL OR SWAP1 SSTORE POP PUSH2 0x118D PUSH2 0xF42 JUMP JUMPDEST POP JUMPDEST JUMP JUMPDEST PUSH0 DUP1 PUSH0 SWAP1 POP PUSH27 0x184F03E93FF9F4DAA797ED6E38ED64BF6A1F010000000000000000 DUP4 LT PUSH2 0x11ED JUMPI PUSH27 0x184F03E93FF9F4DAA797ED6E38ED64BF6A1F010000000000000000 DUP4 DUP2 PUSH2 0x11E3 JUMPI PUSH2 0x11E2 PUSH2 0x1B72 JUMP JUMPDEST JUMPDEST DIV SWAP3 POP PUSH1 0x40 DUP2 ADD SWAP1 POP JUMPDEST PUSH14 0x4EE2D6D415B85ACEF8100000000 DUP4 LT PUSH2 0x122A JUMPI PUSH14 0x4EE2D6D415B85ACEF8100000000 DUP4 DUP2 PUSH2 0x1220 JUMPI PUSH2 0x121F PUSH2 0x1B72 JUMP JUMPDEST JUMPDEST DIV SWAP3 POP PUSH1 0x20 DUP2 ADD SWAP1 POP JUMPDEST PUSH7 0x2386F26FC10000 DUP4 LT PUSH2 0x1259 JUMPI PUSH7 0x2386F26FC10000 DUP4 DUP2 PUSH2 0x124F JUMPI PUSH2 0x124E PUSH2 0x1B72 JUMP JUMPDEST JUMPDEST DIV SWAP3 POP PUSH1 0x10 DUP2 ADD SWAP1 POP JUMPDEST PUSH4 0x5F5E100 DUP4 LT PUSH2 0x1282 JUMPI PUSH4 0x5F5E100 DUP4 DUP2 PUSH2 0x1278 JUMPI PUSH2 0x1277 PUSH2 0x1B72 JUMP JUMPDEST JUMPDEST DIV SWAP3 POP PUSH1 0x8 DUP2 ADD SWAP1 POP JUMPDEST PUSH2 0x2710 DUP4 LT PUSH2 0x12A7 JUMPI PUSH2 0x2710 DUP4 DUP2 PUSH2 0x129D JUMPI PUSH2 0x129C PUSH2 0x1B72 JUMP JUMPDEST JUMPDEST DIV SWAP3 POP PUSH1 0x4 DUP2 ADD SWAP1 POP JUMPDEST PUSH1 0x64 DUP4 LT PUSH2 0x12CA JUMPI PUSH1 0x64 DUP4 DUP2 PUSH2 0x12C0 JUMPI PUSH2 0x12BF PUSH2 0x1B72 JUMP JUMPDEST JUMPDEST DIV SWAP3 POP PUSH1 0x2 DUP2 ADD SWAP1 POP JUMPDEST PUSH1 0xA DUP4 LT PUSH2 0x12D9 JUMPI PUSH1 0x1 DUP2 ADD SWAP1 POP JUMPDEST DUP1 SWAP2 POP POP SWAP2 SWAP1 POP JUMP JUMPDEST PUSH0 DUP2 ISZERO ISZERO SWAP1 POP SWAP2 SWAP1 POP JUMP JUMPDEST PUSH2 0x12F6 DUP2 PUSH2 0x12E2 JUMP JUMPDEST DUP3 MSTORE POP POP JUMP JUMPDEST PUSH0 PUSH1 0x20 DUP3 ADD SWAP1 POP PUSH2 0x130F PUSH0 DUP4 ADD DUP5 PUSH2 0x12ED JUMP JUMPDEST SWAP3 SWAP2 POP POP JUMP JUMPDEST PUSH0 DUP2 SWAP1 POP SWAP2 SWAP1 POP JUMP JUMPDEST PUSH2 0x1327 DUP2 PUSH2 0x1315 JUMP JUMPDEST DUP3 MSTORE POP POP JUMP JUMPDEST PUSH0 PUSH1 0x20 DUP3 ADD SWAP1 POP PUSH2 0x1340 PUSH0 DUP4 ADD DUP5 PUSH2 0x131E JUMP JUMPDEST SWAP3 SWAP2 POP POP JUMP JUMPDEST PUSH0 DUP2 MLOAD SWAP1 POP SWAP2 SWAP1 POP JUMP JUMPDEST PUSH0 DUP3 DUP3 MSTORE PUSH1 0x20 DUP3 ADD SWAP1 POP SWAP3 SWAP2 POP POP JUMP JUMPDEST DUP3 DUP2 DUP4 MCOPY PUSH0 DUP4 DUP4 ADD MSTORE POP POP POP JUMP JUMPDEST PUSH0 PUSH1 0x1F NOT PUSH1 0x1F DUP4 ADD AND SWAP1 POP SWAP2 SWAP1 POP JUMP JUMPDEST PUSH0 PUSH2 0x1388 DUP3 PUSH2 0x1346 JUMP JUMPDEST PUSH2 0x1392 DUP2 DUP6 PUSH2 0x1350 JUMP JUMPDEST SWAP4 POP PUSH2 0x13A2 DUP2 DUP6 PUSH1 0x20 DUP7 ADD PUSH2 0x1360 JUMP JUMPDEST PUSH2 0x13AB DUP2 PUSH2 0x136E JUMP JUMPDEST DUP5 ADD SWAP2 POP POP SWAP3 SWAP2 POP POP JUMP JUMPDEST PUSH0 PUSH1 0x20 DUP3 ADD SWAP1 POP DUP2 DUP2 SUB PUSH0 DUP4 ADD MSTORE PUSH2 0x13CE DUP2 DUP5 PUSH2 0x137E JUMP JUMPDEST SWAP1 POP SWAP3 SWAP2 POP POP JUMP JUMPDEST PUSH0 PUSH20 0xFFFFFFFFFFFFFFFFFFFFFFFFFFFFFFFFFFFFFFFF DUP3 AND SWAP1 POP SWAP2 SWAP1 POP JUMP JUMPDEST PUSH0 PUSH2 0x13FF DUP3 PUSH2 0x13D6 JUMP JUMPDEST SWAP1 POP SWAP2 SWAP1 POP JUMP JUMPDEST PUSH2 0x140F DUP2 PUSH2 0x13F5 JUMP JUMPDEST DUP3 MSTORE POP POP JUMP JUMPDEST PUSH0 PUSH1 0x20 DUP3 ADD SWAP1 POP PUSH2 0x1428 PUSH0 DUP4 ADD DUP5 PUSH2 0x1406 JUMP JUMPDEST SWAP3 SWAP2 POP POP JUMP JUMPDEST PUSH0 DUP2 MLOAD SWAP1 POP SWAP2 SWAP1 POP JUMP JUMPDEST PUSH0 DUP3 DUP3 MSTORE PUSH1 0x20 DUP3 ADD SWAP1 POP SWAP3 SWAP2 POP POP JUMP JUMPDEST PUSH0 DUP2 SWAP1 POP PUSH1 0x20 DUP3 ADD SWAP1 POP SWAP2 SWAP1 POP JUMP JUMPDEST PUSH2 0x1460 DUP2 PUSH2 0x13F5 JUMP JUMPDEST DUP3 MSTORE POP POP JUMP JUMPDEST PUSH2 0x146F DUP2 PUSH2 0x1315 JUMP JUMPDEST DUP3 MSTORE POP POP JUMP JUMPDEST PUSH1 0x60 DUP3 ADD PUSH0 DUP3 ADD MLOAD PUSH2 0x1489 PUSH0 DUP6 ADD DUP3 PUSH2 0x1457 JUMP JUMPDEST POP PUSH1 0x20 DUP3 ADD MLOAD PUSH2 0x149C PUSH1 0x20 DUP6 ADD DUP3 PUSH2 0x1466 JUMP JUMPDEST POP PUSH1 0x40 DUP3 ADD MLOAD PUSH2 0x14AF PUSH1 0x40 DUP6 ADD DUP3 PUSH2 0x1466 JUMP JUMPDEST POP POP POP POP JUMP JUMPDEST PUSH0 PUSH2 0x14C0 DUP4 DUP4 PUSH2 0x1475 JUMP JUMPDEST PUSH1 0x60 DUP4 ADD SWAP1 POP SWAP3 SWAP2 POP POP JUMP JUMPDEST PUSH0 PUSH1 0x20 DUP3 ADD SWAP1 POP SWAP2 SWAP1 POP JUMP JUMPDEST PUSH0 PUSH2 0x14E2 DUP3 PUSH2 0x142E JUMP JUMPDEST PUSH2 0x14EC DUP2 DUP6 PUSH2 0x1438 JUMP JUMPDEST SWAP4 POP PUSH2 0x14F7 DUP4 PUSH2 0x1448 JUMP JUMPDEST DUP1 PUSH0 JUMPDEST DUP4 DUP2 LT ISZERO PUSH2 0x1527 JUMPI DUP2 MLOAD PUSH2 0x150E DUP9 DUP3 PUSH2 0x14B5 JUMP JUMPDEST SWAP8 POP PUSH2 0x1519 DUP4 PUSH2 0x14CC JUMP JUMPDEST SWAP3 POP POP PUSH1 0x1 DUP2 ADD SWAP1 POP PUSH2 0x14FA JUMP JUMPDEST POP DUP6 SWAP4 POP POP POP POP SWAP3 SWAP2 POP POP JUMP JUMPDEST PUSH0 PUSH1 0x20 DUP3 ADD SWAP1 POP DUP2 DUP2 SUB PUSH0 DUP4 ADD MSTORE PUSH2 0x154C DUP2 DUP5 PUSH2 0x14D8 JUMP JUMPDEST SWAP1 POP SWAP3 SWAP2 POP POP JUMP JUMPDEST PUSH0 DUP1 REVERT JUMPDEST PUSH2 0x1561 DUP2 PUSH2 0x13F5 JUMP JUMPDEST DUP2 EQ PUSH2 0x156B JUMPI PUSH0 DUP1 REVERT JUMPDEST POP JUMP JUMPDEST PUSH0 DUP2 CALLDATALOAD SWAP1 POP PUSH2 0x157C DUP2 PUSH2 0x1558 JUMP JUMPDEST SWAP3 SWAP2 POP POP JUMP JUMPDEST PUSH0 PUSH1 0x20 DUP3 DUP5 SUB SLT ISZERO PUSH2 0x1597 JUMPI PUSH2 0x1596 PUSH2 0x1554 JUMP JUMPDEST JUMPDEST PUSH0 PUSH2 0x15A4 DUP5 DUP3 DUP6 ADD PUSH2 0x156E JUMP JUMPDEST SWAP2 POP POP SWAP3 SWAP2 POP POP JUMP JUMPDEST PUSH32 0x5468652061756374696F6E20686173206E6F7420656E646564207965742E0000 PUSH0 DUP3 ADD MSTORE POP JUMP JUMPDEST PUSH0 PUSH2 0x15E1 PUSH1 0x1E DUP4 PUSH2 0x1350 JUMP JUMPDEST SWAP2 POP PUSH2 0x15EC DUP3 PUSH2 0x15AD JUMP JUMPDEST PUSH1 0x20 DUP3 ADD SWAP1 POP SWAP2 SWAP1 POP JUMP JUMPDEST PUSH0 PUSH1 0x20 DUP3 ADD SWAP1 POP DUP2 DUP2 SUB PUSH0 DUP4 ADD MSTORE PUSH2 0x160E DUP2 PUSH2 0x15D5 JUMP JUMPDEST SWAP1 POP SWAP2 SWAP1 POP JUMP JUMPDEST PUSH32 0x5468652077696E6E65722063616E6E6F7420726566756E642E00000000000000 PUSH0 DUP3 ADD MSTORE POP JUMP JUMPDEST PUSH0 PUSH2 0x1649 PUSH1 0x19 DUP4 PUSH2 0x1350 JUMP JUMPDEST SWAP2 POP PUSH2 0x1654 DUP3 PUSH2 0x1615 JUMP JUMPDEST PUSH1 0x20 DUP3 ADD SWAP1 POP SWAP2 SWAP1 POP JUMP JUMPDEST PUSH0 PUSH1 0x20 DUP3 ADD SWAP1 POP DUP2 DUP2 SUB PUSH0 DUP4 ADD MSTORE PUSH2 0x1676 DUP2 PUSH2 0x163D JUMP JUMPDEST SWAP1 POP SWAP2 SWAP1 POP JUMP JUMPDEST PUSH32 0x596F7520617265206E6F74207468652073656C6C65722E000000000000000000 PUSH0 DUP3 ADD MSTORE POP JUMP JUMPDEST PUSH0 PUSH2 0x16B1 PUSH1 0x17 DUP4 PUSH2 0x1350 JUMP JUMPDEST SWAP2 POP PUSH2 0x16BC DUP3 PUSH2 0x167D JUMP JUMPDEST PUSH1 0x20 DUP3 ADD SWAP1 POP SWAP2 SWAP1 POP JUMP JUMPDEST PUSH0 PUSH1 0x20 DUP3 ADD SWAP1 POP DUP2 DUP2 SUB PUSH0 DUP4 ADD MSTORE PUSH2 0x16DE DUP2 PUSH2 0x16A5 JUMP JUMPDEST SWAP1 POP SWAP2 SWAP1 POP JUMP JUMPDEST PUSH32 0x5468652061756374696F6E20686173206E6F742073746172746564207965742E PUSH0 DUP3 ADD MSTORE POP JUMP JUMPDEST PUSH0 PUSH2 0x1719 PUSH1 0x20 DUP4 PUSH2 0x1350 JUMP JUMPDEST SWAP2 POP PUSH2 0x1724 DUP3 PUSH2 0x16E5 JUMP JUMPDEST PUSH1 0x20 DUP3 ADD SWAP1 POP SWAP2 SWAP1 POP JUMP JUMPDEST PUSH0 PUSH1 0x20 DUP3 ADD SWAP1 POP DUP2 DUP2 SUB PUSH0 DUP4 ADD MSTORE PUSH2 0x1746 DUP2 PUSH2 0x170D JUMP JUMPDEST SWAP1 POP SWAP2 SWAP1 POP JUMP JUMPDEST PUSH32 0x5468652061756374696F6E2068617320616C726561647920656E6465642E0000 PUSH0 DUP3 ADD MSTORE POP JUMP JUMPDEST PUSH0 PUSH2 0x1781 PUSH1 0x1E DUP4 PUSH2 0x1350 JUMP JUMPDEST SWAP2 POP PUSH2 0x178C DUP3 PUSH2 0x174D JUMP JUMPDEST PUSH1 0x20 DUP3 ADD SWAP1 POP SWAP2 SWAP1 POP JUMP JUMPDEST PUSH0 PUSH1 0x20 DUP3 ADD SWAP1 POP DUP2 DUP2 SUB PUSH0 DUP4 ADD MSTORE PUSH2 0x17AE DUP2 PUSH2 0x1775 JUMP JUMPDEST SWAP1 POP SWAP2 SWAP1 POP JUMP JUMPDEST PUSH32 0x4E487B7100000000000000000000000000000000000000000000000000000000 PUSH0 MSTORE PUSH1 0x22 PUSH1 0x4 MSTORE PUSH1 0x24 PUSH0 REVERT JUMPDEST PUSH0 PUSH1 0x2 DUP3 DIV SWAP1 POP PUSH1 0x1 DUP3 AND DUP1 PUSH2 0x17F9 JUMPI PUSH1 0x7F DUP3 AND SWAP2 POP JUMPDEST PUSH1 0x20 DUP3 LT DUP2 SUB PUSH2 0x180C JUMPI PUSH2 0x180B PUSH2 0x17B5 JUMP JUMPDEST JUMPDEST POP SWAP2 SWAP1 POP JUMP JUMPDEST PUSH32 0x5468652061756374696F6E20686173206265656E20656E6465642E0000000000 PUSH0 DUP3 ADD MSTORE POP JUMP JUMPDEST PUSH0 PUSH2 0x1846 PUSH1 0x1B DUP4 PUSH2 0x1350 JUMP JUMPDEST SWAP2 POP PUSH2 0x1851 DUP3 PUSH2 0x1812 JUMP JUMPDEST PUSH1 0x20 DUP3 ADD SWAP1 POP SWAP2 SWAP1 POP JUMP JUMPDEST PUSH0 PUSH1 0x20 DUP3 ADD SWAP1 POP DUP2 DUP2 SUB PUSH0 DUP4 ADD MSTORE PUSH2 0x1873 DUP2 PUSH2 0x183A JUMP JUMPDEST SWAP1 POP SWAP2 SWAP1 POP JUMP JUMPDEST PUSH32 0x596F752068617665206E6F207065726D697373696F6E732E0000000000000000 PUSH0 DUP3 ADD MSTORE POP JUMP JUMPDEST PUSH0 PUSH2 0x18AE PUSH1 0x18 DUP4 PUSH2 0x1350 JUMP JUMPDEST SWAP2 POP PUSH2 0x18B9 DUP3 PUSH2 0x187A JUMP JUMPDEST PUSH1 0x20 DUP3 ADD SWAP1 POP SWAP2 SWAP1 POP JUMP JUMPDEST PUSH0 PUSH1 0x20 DUP3 ADD SWAP1 POP DUP2 DUP2 SUB PUSH0 DUP4 ADD MSTORE PUSH2 0x18DB DUP2 PUSH2 0x18A2 JUMP JUMPDEST SWAP1 POP SWAP2 SWAP1 POP JUMP JUMPDEST PUSH32 0x4E487B7100000000000000000000000000000000000000000000000000000000 PUSH0 MSTORE PUSH1 0x11 PUSH1 0x4 MSTORE PUSH1 0x24 PUSH0 REVERT JUMPDEST PUSH0 PUSH2 0x1919 DUP3 PUSH2 0x1315 JUMP JUMPDEST SWAP2 POP PUSH2 0x1924 DUP4 PUSH2 0x1315 JUMP JUMPDEST SWAP3 POP DUP3 DUP3 ADD SWAP1 POP DUP1 DUP3 GT ISZERO PUSH2 0x193C JUMPI PUSH2 0x193B PUSH2 0x18E2 JUMP JUMPDEST JUMPDEST SWAP3 SWAP2 POP POP JUMP JUMPDEST PUSH0 DUP2 SWAP1 POP SWAP3 SWAP2 POP POP JUMP JUMPDEST PUSH32 0x4E6F7420656E6F7567682065746865722E2043757272656E7420636F73742070 PUSH0 DUP3 ADD MSTORE PUSH32 0x6C7573206269643A200000000000000000000000000000000000000000000000 PUSH1 0x20 DUP3 ADD MSTORE POP JUMP JUMPDEST PUSH0 PUSH2 0x19A6 PUSH1 0x29 DUP4 PUSH2 0x1942 JUMP JUMPDEST SWAP2 POP PUSH2 0x19B1 DUP3 PUSH2 0x194C JUMP JUMPDEST PUSH1 0x29 DUP3 ADD SWAP1 POP SWAP2 SWAP1 POP JUMP JUMPDEST PUSH0 PUSH2 0x19C6 DUP3 PUSH2 0x1346 JUMP JUMPDEST PUSH2 0x19D0 DUP2 DUP6 PUSH2 0x1942 JUMP JUMPDEST SWAP4 POP PUSH2 0x19E0 DUP2 DUP6 PUSH1 0x20 DUP7 ADD PUSH2 0x1360 JUMP JUMPDEST DUP1 DUP5 ADD SWAP2 POP POP SWAP3 SWAP2 POP POP JUMP JUMPDEST PUSH0 PUSH2 0x19F6 DUP3 PUSH2 0x199A JUMP JUMPDEST SWAP2 POP PUSH2 0x1A02 DUP3 DUP5 PUSH2 0x19BC JUMP JUMPDEST SWAP2 POP DUP2 SWAP1 POP SWAP3 SWAP2 POP POP JUMP JUMPDEST PUSH32 0x596F7520617265206E6F74207468652077696E6E65722E000000000000000000 PUSH0 DUP3 ADD MSTORE POP JUMP JUMPDEST PUSH0 PUSH2 0x1A41 PUSH1 0x17 DUP4 PUSH2 0x1350 JUMP JUMPDEST SWAP2 POP PUSH2 0x1A4C DUP3 PUSH2 0x1A0D JUMP JUMPDEST PUSH1 0x20 DUP3 ADD SWAP1 POP SWAP2 SWAP1 POP JUMP JUMPDEST PUSH0 PUSH1 0x20 DUP3 ADD SWAP1 POP DUP2 DUP2 SUB PUSH0 DUP4 ADD MSTORE PUSH2 0x1A6E DUP2 PUSH2 0x1A35 JUMP JUMPDEST SWAP1 POP SWAP2 SWAP1 POP JUMP JUMPDEST PUSH32 0x5468652061756374696F6E2068617320616C726561647920737461727465642E PUSH0 DUP3 ADD MSTORE POP JUMP JUMPDEST PUSH0 PUSH2 0x1AA9 PUSH1 0x20 DUP4 PUSH2 0x1350 JUMP JUMPDEST SWAP2 POP PUSH2 0x1AB4 DUP3 PUSH2 0x1A75 JUMP JUMPDEST PUSH1 0x20 DUP3 ADD SWAP1 POP SWAP2 SWAP1 POP JUMP JUMPDEST PUSH0 PUSH1 0x20 DUP3 ADD SWAP1 POP DUP2 DUP2 SUB PUSH0 DUP4 ADD MSTORE PUSH2 0x1AD6 DUP2 PUSH2 0x1A9D JUMP JUMPDEST SWAP1 POP SWAP2 SWAP1 POP JUMP JUMPDEST PUSH32 0x4D6178206C696D697420666F72207061727469636970616E74732E0000000000 PUSH0 DUP3 ADD MSTORE POP JUMP JUMPDEST PUSH0 PUSH2 0x1B11 PUSH1 0x1B DUP4 PUSH2 0x1350 JUMP JUMPDEST SWAP2 POP PUSH2 0x1B1C DUP3 PUSH2 0x1ADD JUMP JUMPDEST PUSH1 0x20 DUP3 ADD SWAP1 POP SWAP2 SWAP1 POP JUMP JUMPDEST PUSH0 PUSH1 0x20 DUP3 ADD SWAP1 POP DUP2 DUP2 SUB PUSH0 DUP4 ADD MSTORE PUSH2 0x1B3E DUP2 PUSH2 0x1B05 JUMP JUMPDEST SWAP1 POP SWAP2 SWAP1 POP JUMP JUMPDEST PUSH32 0x4E487B7100000000000000000000000000000000000000000000000000000000 PUSH0 MSTORE PUSH1 0x41 PUSH1 0x4 MSTORE PUSH1 0x24 PUSH0 REVERT JUMPDEST PUSH32 0x4E487B7100000000000000000000000000000000000000000000000000000000 PUSH0 MSTORE PUSH1 0x12 PUSH1 0x4 MSTORE PUSH1 0x24 PUSH0 REVERT INVALID NUMBER PUSH16 0x6E67726174756C6174696F6E73212059 PUSH16 0x7520617265207468652077696E6E6572 0x2E KECCAK256 BASEFEE PUSH6 0x726520697320 PUSH26 0x6F7572206974656D2EA2646970667358221220E1C519A4C1EA85 0xDF DUP12 EXTCODESIZE STATICCALL 0xB5 SAR ISZERO 0x4C CHAINID 0xD4 SMOD DUP6 DUP8 GT 0xE7 DUP6 0xC1 0xEA 0xD1 PUSH29 0xFB6C51199464736F6C634300081A003300000000000000000000000000 "
				},
				"gasEstimates": {
					"creation": {
						"codeDepositCost": "1436000",
						"executionCost": "infinite",
						"totalCost": "infinite"
					},
					"external": {
						"Bid()": "infinite",
						"BidStep()": "2536",
						"CurrentCost()": "2493",
						"CurrentParticipantsAmount()": "2514",
						"EndAuction()": "infinite",
						"GetBidHistory()": "infinite",
						"GetItem()": "infinite",
						"GetPermission(address)": "infinite",
						"HasEnded()": "2541",
						"HasStarted()": "2576",
						"Item()": "infinite",
						"MaxParticipants()": "2491",
						"Refund()": "infinite",
						"SELLER()": "infinite",
						"StartAuction()": "infinite",
						"StartTime()": "2513",
						"StartingCost()": "2471",
						"StepTime()": "2492",
						"Winner()": "2531"
					},
					"internal": {
						"CheckTimeAndWinner()": "infinite",
						"Withdraw()": "infinite"
					}
				},
				"methodIdentifiers": {
					"Bid()": "6e6452cb",
					"BidStep()": "8611e07b",
					"CurrentCost()": "54a8882d",
					"CurrentParticipantsAmount()": "d0b1bfd0",
					"EndAuction()": "6a7798ee",
					"GetBidHistory()": "d1ee49c2",
					"GetItem()": "85d679f9",
					"GetPermission(address)": "d8346cdf",
					"HasEnded()": "0cbb94e0",
					"HasStarted()": "fc505be9",
					"Item()": "6a7a67f0",
					"MaxParticipants()": "de4b1e42",
					"Refund()": "5d268629",
					"SELLER()": "bca93eba",
					"StartAuction()": "d295ebf0",
					"StartTime()": "fc4a4a1e",
					"StartingCost()": "38699c7f",
					"StepTime()": "cbb12c2d",
					"Winner()": "b2b98ed2"
				}
			},
			"storageLayout": {
				"storage": [
					{
						"astId": 7,
						"contract": "6 занятие/Auction+.sol:Auction",
						"label": "Item",
						"offset": 0,
						"slot": "0",
						"type": "t_string_storage"
					},
					{
						"astId": 11,
						"contract": "6 занятие/Auction+.sol:Auction",
						"label": "HighestBidder",
						"offset": 0,
						"slot": "1",
						"type": "t_address"
					},
					{
						"astId": 13,
						"contract": "6 занятие/Auction+.sol:Auction",
						"label": "Winner",
						"offset": 0,
						"slot": "2",
						"type": "t_address"
					},
					{
						"astId": 15,
						"contract": "6 занятие/Auction+.sol:Auction",
						"label": "StartingCost",
						"offset": 0,
						"slot": "3",
						"type": "t_uint256"
					},
					{
						"astId": 17,
						"contract": "6 занятие/Auction+.sol:Auction",
						"label": "BidStep",
						"offset": 0,
						"slot": "4",
						"type": "t_uint256"
					},
					{
						"astId": 19,
						"contract": "6 занятие/Auction+.sol:Auction",
						"label": "CurrentCost",
						"offset": 0,
						"slot": "5",
						"type": "t_uint256"
					},
					{
						"astId": 21,
						"contract": "6 занятие/Auction+.sol:Auction",
						"label": "HasStarted",
						"offset": 0,
						"slot": "6",
						"type": "t_bool"
					},
					{
						"astId": 23,
						"contract": "6 занятие/Auction+.sol:Auction",
						"label": "HasEnded",
						"offset": 1,
						"slot": "6",
						"type": "t_bool"
					},
					{
						"astId": 25,
						"contract": "6 занятие/Auction+.sol:Auction",
						"label": "StartTime",
						"offset": 0,
						"slot": "7",
						"type": "t_uint256"
					},
					{
						"astId": 27,
						"contract": "6 занятие/Auction+.sol:Auction",
						"label": "StepTime",
						"offset": 0,
						"slot": "8",
						"type": "t_uint256"
					},
					{
						"astId": 29,
						"contract": "6 занятие/Auction+.sol:Auction",
						"label": "PreviousBidTime",
						"offset": 0,
						"slot": "9",
						"type": "t_uint256"
					},
					{
						"astId": 31,
						"contract": "6 занятие/Auction+.sol:Auction",
						"label": "MaxParticipants",
						"offset": 0,
						"slot": "10",
						"type": "t_uint256"
					},
					{
						"astId": 33,
						"contract": "6 занятие/Auction+.sol:Auction",
						"label": "CurrentParticipantsAmount",
						"offset": 0,
						"slot": "11",
						"type": "t_uint256"
					},
					{
						"astId": 37,
						"contract": "6 занятие/Auction+.sol:Auction",
						"label": "Permissions",
						"offset": 0,
						"slot": "12",
						"type": "t_mapping(t_address,t_bool)"
					},
					{
						"astId": 41,
						"contract": "6 занятие/Auction+.sol:Auction",
						"label": "Bids",
						"offset": 0,
						"slot": "13",
						"type": "t_mapping(t_address,t_uint256)"
					},
					{
						"astId": 399,
						"contract": "6 занятие/Auction+.sol:Auction",
						"label": "BidHistory",
						"offset": 0,
						"slot": "14",
						"type": "t_array(t_struct(BidRecord)395_storage)dyn_storage"
					}
				],
				"types": {
					"t_address": {
						"encoding": "inplace",
						"label": "address",
						"numberOfBytes": "20"
					},
					"t_array(t_struct(BidRecord)395_storage)dyn_storage": {
						"base": "t_struct(BidRecord)395_storage",
						"encoding": "dynamic_array",
						"label": "struct Auction.BidRecord[]",
						"numberOfBytes": "32"
					},
					"t_bool": {
						"encoding": "inplace",
						"label": "bool",
						"numberOfBytes": "1"
					},
					"t_mapping(t_address,t_bool)": {
						"encoding": "mapping",
						"key": "t_address",
						"label": "mapping(address => bool)",
						"numberOfBytes": "32",
						"value": "t_bool"
					},
					"t_mapping(t_address,t_uint256)": {
						"encoding": "mapping",
						"key": "t_address",
						"label": "mapping(address => uint256)",
						"numberOfBytes": "32",
						"value": "t_uint256"
					},
					"t_string_storage": {
						"encoding": "bytes",
						"label": "string",
						"numberOfBytes": "32"
					},
					"t_struct(BidRecord)395_storage": {
						"encoding": "inplace",
						"label": "struct Auction.BidRecord",
						"members": [
							{
								"astId": 390,
								"contract": "6 занятие/Auction+.sol:Auction",
								"label": "bidder",
								"offset": 0,
								"slot": "0",
								"type": "t_address"
							},
							{
								"astId": 392,
								"contract": "6 занятие/Auction+.sol:Auction",
								"label": "amount",
								"offset": 0,
								"slot": "1",
								"type": "t_uint256"
							},
							{
								"astId": 394,
								"contract": "6 занятие/Auction+.sol:Auction",
								"label": "timestamp",
								"offset": 0,
								"slot": "2",
								"type": "t_uint256"
							}
						],
						"numberOfBytes": "96"
					},
					"t_uint256": {
						"encoding": "inplace",
						"label": "uint256",
						"numberOfBytes": "32"
					}
				}
			},
			"userdoc": {
				"kind": "user",
				"methods": {},
				"version": 1
			}
		}
	}
}