{
	"7 занятие/Bonds.sol": {
		"Bonds": {
			"abi": [
				{
					"inputs": [],
					"stateMutability": "nonpayable",
					"type": "constructor"
				},
				{
					"anonymous": false,
					"inputs": [
						{
							"indexed": false,
							"internalType": "uint256",
							"name": "totalBonds",
							"type": "uint256"
						},
						{
							"indexed": false,
							"internalType": "uint256",
							"name": "bondPrice",
							"type": "uint256"
						},
						{
							"indexed": false,
							"internalType": "uint256",
							"name": "interestRate",
							"type": "uint256"
						},
						{
							"indexed": false,
							"internalType": "uint256",
							"name": "maturityDate",
							"type": "uint256"
						}
					],
					"name": "BondsIssued",
					"type": "event"
				},
				{
					"anonymous": false,
					"inputs": [
						{
							"indexed": true,
							"internalType": "address",
							"name": "buyer",
							"type": "address"
						},
						{
							"indexed": false,
							"internalType": "uint256",
							"name": "amount",
							"type": "uint256"
						}
					],
					"name": "BondsPurchased",
					"type": "event"
				},
				{
					"anonymous": false,
					"inputs": [
						{
							"indexed": true,
							"internalType": "address",
							"name": "holder",
							"type": "address"
						},
						{
							"indexed": false,
							"internalType": "uint256",
							"name": "amount",
							"type": "uint256"
						}
					],
					"name": "BondsRedeemed",
					"type": "event"
				},
				{
					"inputs": [],
					"name": "bondPrice",
					"outputs": [
						{
							"internalType": "uint256",
							"name": "",
							"type": "uint256"
						}
					],
					"stateMutability": "view",
					"type": "function"
				},
				{
					"inputs": [
						{
							"internalType": "address",
							"name": "investor",
							"type": "address"
						}
					],
					"name": "calculateRedemptionAmount",
					"outputs": [
						{
							"internalType": "uint256",
							"name": "totalAmount",
							"type": "uint256"
						},
						{
							"internalType": "uint256",
							"name": "interest",
							"type": "uint256"
						},
						{
							"internalType": "uint256",
							"name": "totalPayout",
							"type": "uint256"
						}
					],
					"stateMutability": "view",
					"type": "function"
				},
				{
					"inputs": [],
					"name": "calculateTotalPayout",
					"outputs": [
						{
							"internalType": "uint256",
							"name": "totalPayout",
							"type": "uint256"
						}
					],
					"stateMutability": "view",
					"type": "function"
				},
				{
					"inputs": [],
					"name": "interestRate",
					"outputs": [
						{
							"internalType": "uint256",
							"name": "",
							"type": "uint256"
						}
					],
					"stateMutability": "view",
					"type": "function"
				},
				{
					"inputs": [],
					"name": "isIssued",
					"outputs": [
						{
							"internalType": "bool",
							"name": "",
							"type": "bool"
						}
					],
					"stateMutability": "view",
					"type": "function"
				},
				{
					"inputs": [],
					"name": "issuanceDate",
					"outputs": [
						{
							"internalType": "uint256",
							"name": "",
							"type": "uint256"
						}
					],
					"stateMutability": "view",
					"type": "function"
				},
				{
					"inputs": [
						{
							"internalType": "uint256",
							"name": "_totalBonds",
							"type": "uint256"
						},
						{
							"internalType": "uint256",
							"name": "_bondPrice",
							"type": "uint256"
						},
						{
							"internalType": "uint256",
							"name": "_interestRate",
							"type": "uint256"
						},
						{
							"internalType": "uint256",
							"name": "_maturityDate",
							"type": "uint256"
						}
					],
					"name": "issueBonds",
					"outputs": [],
					"stateMutability": "nonpayable",
					"type": "function"
				},
				{
					"inputs": [],
					"name": "issuer",
					"outputs": [
						{
							"internalType": "address",
							"name": "",
							"type": "address"
						}
					],
					"stateMutability": "view",
					"type": "function"
				},
				{
					"inputs": [],
					"name": "maturityDate",
					"outputs": [
						{
							"internalType": "uint256",
							"name": "",
							"type": "uint256"
						}
					],
					"stateMutability": "view",
					"type": "function"
				},
				{
					"inputs": [],
					"name": "purchaseBonds",
					"outputs": [],
					"stateMutability": "payable",
					"type": "function"
				},
				{
					"inputs": [],
					"name": "redeemBonds",
					"outputs": [],
					"stateMutability": "nonpayable",
					"type": "function"
				},
				{
					"inputs": [],
					"name": "totalBonds",
					"outputs": [
						{
							"internalType": "uint256",
							"name": "",
							"type": "uint256"
						}
					],
					"stateMutability": "view",
					"type": "function"
				},
				{
					"inputs": [],
					"name": "totalInvested",
					"outputs": [
						{
							"internalType": "uint256",
							"name": "",
							"type": "uint256"
						}
					],
					"stateMutability": "view",
					"type": "function"
				},
				{
					"inputs": [],
					"name": "transferToContract",
					"outputs": [],
					"stateMutability": "payable",
					"type": "function"
				},
				{
					"inputs": [],
					"name": "withdrawFundsBeforeMaturity",
					"outputs": [],
					"stateMutability": "nonpayable",
					"type": "function"
				},
				{
					"inputs": [],
					"name": "withdrawRemainingFunds",
					"outputs": [],
					"stateMutability": "nonpayable",
					"type": "function"
				},
				{
					"inputs": [],
					"name": "withdrawRemainingFundsAfterOneMonth",
					"outputs": [],
					"stateMutability": "nonpayable",
					"type": "function"
				},
				{
					"stateMutability": "payable",
					"type": "receive"
				}
			],
			"devdoc": {
				"kind": "dev",
				"methods": {},
				"version": 1
			},
			"evm": {
				"assembly": "    /* \"7 \\xd0\\xb7\\xd0\\xb0\\xd0\\xbd\\xd1\\x8f\\xd1\\x82\\xd0\\xb8\\xd0\\xb5/Bonds.sol\":115:8925  contract Bonds {... */\n  mstore(0x40, 0x80)\n    /* \"7 \\xd0\\xb7\\xd0\\xb0\\xd0\\xbd\\xd1\\x8f\\xd1\\x82\\xd0\\xb8\\xd0\\xb5/Bonds.sol\":2381:2433  constructor() {... */\n  callvalue\n  dup1\n  iszero\n  tag_1\n  jumpi\n  0x00\n  dup1\n  revert\ntag_1:\n  pop\n    /* \"7 \\xd0\\xb7\\xd0\\xb0\\xd0\\xbd\\xd1\\x8f\\xd1\\x82\\xd0\\xb8\\xd0\\xb5/Bonds.sol\":2415:2425  msg.sender */\n  caller\n    /* \"7 \\xd0\\xb7\\xd0\\xb0\\xd0\\xbd\\xd1\\x8f\\xd1\\x82\\xd0\\xb8\\xd0\\xb5/Bonds.sol\":2406:2412  issuer */\n  0x00\n  dup1\n    /* \"7 \\xd0\\xb7\\xd0\\xb0\\xd0\\xbd\\xd1\\x8f\\xd1\\x82\\xd0\\xb8\\xd0\\xb5/Bonds.sol\":2406:2425  issuer = msg.sender */\n  0x0100\n  exp\n  dup2\n  sload\n  dup2\n  0xffffffffffffffffffffffffffffffffffffffff\n  mul\n  not\n  and\n  swap1\n  dup4\n  0xffffffffffffffffffffffffffffffffffffffff\n  and\n  mul\n  or\n  swap1\n  sstore\n  pop\n    /* \"7 \\xd0\\xb7\\xd0\\xb0\\xd0\\xbd\\xd1\\x8f\\xd1\\x82\\xd0\\xb8\\xd0\\xb5/Bonds.sol\":115:8925  contract Bonds {... */\n  dataSize(sub_0)\n  dup1\n  dataOffset(sub_0)\n  0x00\n  codecopy\n  0x00\n  return\nstop\n\nsub_0: assembly {\n        /* \"7 \\xd0\\xb7\\xd0\\xb0\\xd0\\xbd\\xd1\\x8f\\xd1\\x82\\xd0\\xb8\\xd0\\xb5/Bonds.sol\":115:8925  contract Bonds {... */\n      mstore(0x40, 0x80)\n      jumpi(tag_1, lt(calldatasize, 0x04))\n      shr(0xe0, calldataload(0x00))\n      dup1\n      0xa766bc98\n      gt\n      tag_20\n      jumpi\n      dup1\n      0xd59624b4\n      gt\n      tag_21\n      jumpi\n      dup1\n      0xd59624b4\n      eq\n      tag_15\n      jumpi\n      dup1\n      0xd7ccfb0b\n      eq\n      tag_16\n      jumpi\n      dup1\n      0xe84a011a\n      eq\n      tag_17\n      jumpi\n      dup1\n      0xef86ce8e\n      eq\n      tag_18\n      jumpi\n      dup1\n      0xf263c470\n      eq\n      tag_19\n      jumpi\n      jump(tag_2)\n    tag_21:\n      dup1\n      0xa766bc98\n      eq\n      tag_11\n      jumpi\n      dup1\n      0xcb7cad2a\n      eq\n      tag_12\n      jumpi\n      dup1\n      0xd33ce61a\n      eq\n      tag_13\n      jumpi\n      dup1\n      0xd44d7034\n      eq\n      tag_14\n      jumpi\n      jump(tag_2)\n    tag_20:\n      dup1\n      0x5216aeec\n      gt\n      tag_22\n      jumpi\n      dup1\n      0x5216aeec\n      eq\n      tag_7\n      jumpi\n      dup1\n      0x7c221bc5\n      eq\n      tag_8\n      jumpi\n      dup1\n      0x7c3a00fd\n      eq\n      tag_9\n      jumpi\n      dup1\n      0x89585083\n      eq\n      tag_10\n      jumpi\n      jump(tag_2)\n    tag_22:\n      dup1\n      0x12cccb34\n      eq\n      tag_3\n      jumpi\n      dup1\n      0x1d143848\n      eq\n      tag_4\n      jumpi\n      dup1\n      0x28d36cfc\n      eq\n      tag_5\n      jumpi\n      dup1\n      0x3d31841b\n      eq\n      tag_6\n      jumpi\n      jump(tag_2)\n    tag_1:\n      jumpi(tag_2, calldatasize)\n      stop\n    tag_2:\n      0x00\n      dup1\n      revert\n        /* \"7 \\xd0\\xb7\\xd0\\xb0\\xd0\\xbd\\xd1\\x8f\\xd1\\x82\\xd0\\xb8\\xd0\\xb5/Bonds.sol\":5759:5895  function transferToContract() external payable onlyIssuer {... */\n    tag_3:\n      tag_25\n      tag_26\n      jump\t// in\n    tag_25:\n      stop\n        /* \"7 \\xd0\\xb7\\xd0\\xb0\\xd0\\xbd\\xd1\\x8f\\xd1\\x82\\xd0\\xb8\\xd0\\xb5/Bonds.sol\":171:192  address public issuer */\n    tag_4:\n      callvalue\n      dup1\n      iszero\n      tag_27\n      jumpi\n      0x00\n      dup1\n      revert\n    tag_27:\n      pop\n      tag_28\n      tag_29\n      jump\t// in\n    tag_28:\n      mload(0x40)\n      tag_30\n      swap2\n      swap1\n      tag_31\n      jump\t// in\n    tag_30:\n      mload(0x40)\n      dup1\n      swap2\n      sub\n      swap1\n      return\n        /* \"7 \\xd0\\xb7\\xd0\\xb0\\xd0\\xbd\\xd1\\x8f\\xd1\\x82\\xd0\\xb8\\xd0\\xb5/Bonds.sol\":6051:6538  function calculateRedemptionAmount(address investor) public view returns (uint256 totalAmount, uint256 interest, uint256 totalPayout) {... */\n    tag_5:\n      callvalue\n      dup1\n      iszero\n      tag_32\n      jumpi\n      0x00\n      dup1\n      revert\n    tag_32:\n      pop\n      tag_33\n      0x04\n      dup1\n      calldatasize\n      sub\n      dup2\n      add\n      swap1\n      tag_34\n      swap2\n      swap1\n      tag_35\n      jump\t// in\n    tag_34:\n      tag_36\n      jump\t// in\n    tag_33:\n      mload(0x40)\n      tag_37\n      swap4\n      swap3\n      swap2\n      swap1\n      tag_38\n      jump\t// in\n    tag_37:\n      mload(0x40)\n      dup1\n      swap2\n      sub\n      swap1\n      return\n        /* \"7 \\xd0\\xb7\\xd0\\xb0\\xd0\\xbd\\xd1\\x8f\\xd1\\x82\\xd0\\xb8\\xd0\\xb5/Bonds.sol\":3489:4297  function purchaseBonds() external payable onlyBeforeMaturity {... */\n    tag_6:\n      tag_39\n      tag_40\n      jump\t// in\n    tag_39:\n      stop\n        /* \"7 \\xd0\\xb7\\xd0\\xb0\\xd0\\xbd\\xd1\\x8f\\xd1\\x82\\xd0\\xb8\\xd0\\xb5/Bonds.sol\":609:637  uint256 public totalInvested */\n    tag_7:\n      callvalue\n      dup1\n      iszero\n      tag_41\n      jumpi\n      0x00\n      dup1\n      revert\n    tag_41:\n      pop\n      tag_42\n      tag_43\n      jump\t// in\n    tag_42:\n      mload(0x40)\n      tag_44\n      swap2\n      swap1\n      tag_45\n      jump\t// in\n    tag_44:\n      mload(0x40)\n      dup1\n      swap2\n      sub\n      swap1\n      return\n        /* \"7 \\xd0\\xb7\\xd0\\xb0\\xd0\\xbd\\xd1\\x8f\\xd1\\x82\\xd0\\xb8\\xd0\\xb5/Bonds.sol\":8396:8885  function withdrawRemainingFundsAfterOneMonth() external onlyIssuer {... */\n    tag_8:\n      callvalue\n      dup1\n      iszero\n      tag_46\n      jumpi\n      0x00\n      dup1\n      revert\n    tag_46:\n      pop\n      tag_47\n      tag_48\n      jump\t// in\n    tag_47:\n      stop\n        /* \"7 \\xd0\\xb7\\xd0\\xb0\\xd0\\xbd\\xd1\\x8f\\xd1\\x82\\xd0\\xb8\\xd0\\xb5/Bonds.sol\":375:402  uint256 public interestRate */\n    tag_9:\n      callvalue\n      dup1\n      iszero\n      tag_49\n      jumpi\n      0x00\n      dup1\n      revert\n    tag_49:\n      pop\n      tag_50\n      tag_51\n      jump\t// in\n    tag_50:\n      mload(0x40)\n      tag_52\n      swap2\n      swap1\n      tag_45\n      jump\t// in\n    tag_52:\n      mload(0x40)\n      dup1\n      swap2\n      sub\n      swap1\n      return\n        /* \"7 \\xd0\\xb7\\xd0\\xb0\\xd0\\xbd\\xd1\\x8f\\xd1\\x82\\xd0\\xb8\\xd0\\xb5/Bonds.sol\":2523:3341  function issueBonds(uint256 _totalBonds, uint256 _bondPrice, uint256 _interestRate, uint256 _maturityDate) external onlyIssuer {... */\n    tag_10:\n      callvalue\n      dup1\n      iszero\n      tag_53\n      jumpi\n      0x00\n      dup1\n      revert\n    tag_53:\n      pop\n      tag_54\n      0x04\n      dup1\n      calldatasize\n      sub\n      dup2\n      add\n      swap1\n      tag_55\n      swap2\n      swap1\n      tag_56\n      jump\t// in\n    tag_55:\n      tag_57\n      jump\t// in\n    tag_54:\n      stop\n        /* \"7 \\xd0\\xb7\\xd0\\xb0\\xd0\\xbd\\xd1\\x8f\\xd1\\x82\\xd0\\xb8\\xd0\\xb5/Bonds.sol\":446:473  uint256 public issuanceDate */\n    tag_11:\n      callvalue\n      dup1\n      iszero\n      tag_58\n      jumpi\n      0x00\n      dup1\n      revert\n    tag_58:\n      pop\n      tag_59\n      tag_60\n      jump\t// in\n    tag_59:\n      mload(0x40)\n      tag_61\n      swap2\n      swap1\n      tag_45\n      jump\t// in\n    tag_61:\n      mload(0x40)\n      dup1\n      swap2\n      sub\n      swap1\n      return\n        /* \"7 \\xd0\\xb7\\xd0\\xb0\\xd0\\xbd\\xd1\\x8f\\xd1\\x82\\xd0\\xb8\\xd0\\xb5/Bonds.sol\":4939:5635  function calculateTotalPayout() public view onlyIssuer returns (uint256 totalPayout) {... */\n    tag_12:\n      callvalue\n      dup1\n      iszero\n      tag_62\n      jumpi\n      0x00\n      dup1\n      revert\n    tag_62:\n      pop\n      tag_63\n      tag_64\n      jump\t// in\n    tag_63:\n      mload(0x40)\n      tag_65\n      swap2\n      swap1\n      tag_45\n      jump\t// in\n    tag_65:\n      mload(0x40)\n      dup1\n      swap2\n      sub\n      swap1\n      return\n        /* \"7 \\xd0\\xb7\\xd0\\xb0\\xd0\\xbd\\xd1\\x8f\\xd1\\x82\\xd0\\xb8\\xd0\\xb5/Bonds.sol\":679:699  bool public isIssued */\n    tag_13:\n      callvalue\n      dup1\n      iszero\n      tag_66\n      jumpi\n      0x00\n      dup1\n      revert\n    tag_66:\n      pop\n      tag_67\n      tag_68\n      jump\t// in\n    tag_67:\n      mload(0x40)\n      tag_69\n      swap2\n      swap1\n      tag_70\n      jump\t// in\n    tag_69:\n      mload(0x40)\n      dup1\n      swap2\n      sub\n      swap1\n      return\n        /* \"7 \\xd0\\xb7\\xd0\\xb0\\xd0\\xbd\\xd1\\x8f\\xd1\\x82\\xd0\\xb8\\xd0\\xb5/Bonds.sol\":4483:4755  function withdrawFundsBeforeMaturity() external onlyIssuer onlyBeforeMaturity {... */\n    tag_14:\n      callvalue\n      dup1\n      iszero\n      tag_71\n      jumpi\n      0x00\n      dup1\n      revert\n    tag_71:\n      pop\n      tag_72\n      tag_73\n      jump\t// in\n    tag_72:\n      stop\n        /* \"7 \\xd0\\xb7\\xd0\\xb0\\xd0\\xbd\\xd1\\x8f\\xd1\\x82\\xd0\\xb8\\xd0\\xb5/Bonds.sol\":526:553  uint256 public maturityDate */\n    tag_15:\n      callvalue\n      dup1\n      iszero\n      tag_74\n      jumpi\n      0x00\n      dup1\n      revert\n    tag_74:\n      pop\n      tag_75\n      tag_76\n      jump\t// in\n    tag_75:\n      mload(0x40)\n      tag_77\n      swap2\n      swap1\n      tag_45\n      jump\t// in\n    tag_77:\n      mload(0x40)\n      dup1\n      swap2\n      sub\n      swap1\n      return\n        /* \"7 \\xd0\\xb7\\xd0\\xb0\\xd0\\xbd\\xd1\\x8f\\xd1\\x82\\xd0\\xb8\\xd0\\xb5/Bonds.sol\":292:316  uint256 public bondPrice */\n    tag_16:\n      callvalue\n      dup1\n      iszero\n      tag_78\n      jumpi\n      0x00\n      dup1\n      revert\n    tag_78:\n      pop\n      tag_79\n      tag_80\n      jump\t// in\n    tag_79:\n      mload(0x40)\n      tag_81\n      swap2\n      swap1\n      tag_45\n      jump\t// in\n    tag_81:\n      mload(0x40)\n      dup1\n      swap2\n      sub\n      swap1\n      return\n        /* \"7 \\xd0\\xb7\\xd0\\xb0\\xd0\\xbd\\xd1\\x8f\\xd1\\x82\\xd0\\xb8\\xd0\\xb5/Bonds.sol\":6727:7402  function redeemBonds() external onlyAfterMaturity {... */\n    tag_17:\n      callvalue\n      dup1\n      iszero\n      tag_82\n      jumpi\n      0x00\n      dup1\n      revert\n    tag_82:\n      pop\n      tag_83\n      tag_84\n      jump\t// in\n    tag_83:\n      stop\n        /* \"7 \\xd0\\xb7\\xd0\\xb0\\xd0\\xbd\\xd1\\x8f\\xd1\\x82\\xd0\\xb8\\xd0\\xb5/Bonds.sol\":7617:8153  function withdrawRemainingFunds() external onlyIssuer {... */\n    tag_18:\n      callvalue\n      dup1\n      iszero\n      tag_85\n      jumpi\n      0x00\n      dup1\n      revert\n    tag_85:\n      pop\n      tag_86\n      tag_87\n      jump\t// in\n    tag_86:\n      stop\n        /* \"7 \\xd0\\xb7\\xd0\\xb0\\xd0\\xbd\\xd1\\x8f\\xd1\\x82\\xd0\\xb8\\xd0\\xb5/Bonds.sol\":217:242  uint256 public totalBonds */\n    tag_19:\n      callvalue\n      dup1\n      iszero\n      tag_88\n      jumpi\n      0x00\n      dup1\n      revert\n    tag_88:\n      pop\n      tag_89\n      tag_90\n      jump\t// in\n    tag_89:\n      mload(0x40)\n      tag_91\n      swap2\n      swap1\n      tag_45\n      jump\t// in\n    tag_91:\n      mload(0x40)\n      dup1\n      swap2\n      sub\n      swap1\n      return\n        /* \"7 \\xd0\\xb7\\xd0\\xb0\\xd0\\xbd\\xd1\\x8f\\xd1\\x82\\xd0\\xb8\\xd0\\xb5/Bonds.sol\":5759:5895  function transferToContract() external payable onlyIssuer {... */\n    tag_26:\n        /* \"7 \\xd0\\xb7\\xd0\\xb0\\xd0\\xbd\\xd1\\x8f\\xd1\\x82\\xd0\\xb8\\xd0\\xb5/Bonds.sol\":1781:1787  issuer */\n      0x00\n      dup1\n      sload\n      swap1\n      0x0100\n      exp\n      swap1\n      div\n      0xffffffffffffffffffffffffffffffffffffffff\n      and\n        /* \"7 \\xd0\\xb7\\xd0\\xb0\\xd0\\xbd\\xd1\\x8f\\xd1\\x82\\xd0\\xb8\\xd0\\xb5/Bonds.sol\":1767:1787  msg.sender == issuer */\n      0xffffffffffffffffffffffffffffffffffffffff\n      and\n        /* \"7 \\xd0\\xb7\\xd0\\xb0\\xd0\\xbd\\xd1\\x8f\\xd1\\x82\\xd0\\xb8\\xd0\\xb5/Bonds.sol\":1767:1777  msg.sender */\n      caller\n        /* \"7 \\xd0\\xb7\\xd0\\xb0\\xd0\\xbd\\xd1\\x8f\\xd1\\x82\\xd0\\xb8\\xd0\\xb5/Bonds.sol\":1767:1787  msg.sender == issuer */\n      0xffffffffffffffffffffffffffffffffffffffff\n      and\n      eq\n        /* \"7 \\xd0\\xb7\\xd0\\xb0\\xd0\\xbd\\xd1\\x8f\\xd1\\x82\\xd0\\xb8\\xd0\\xb5/Bonds.sol\":1759:1827  require(msg.sender == issuer, \"Only issuer can call this function.\") */\n      tag_93\n      jumpi\n      mload(0x40)\n      0x08c379a000000000000000000000000000000000000000000000000000000000\n      dup2\n      mstore\n      0x04\n      add\n      tag_94\n      swap1\n      tag_95\n      jump\t// in\n    tag_94:\n      mload(0x40)\n      dup1\n      swap2\n      sub\n      swap1\n      revert\n    tag_93:\n        /* \"7 \\xd0\\xb7\\xd0\\xb0\\xd0\\xbd\\xd1\\x8f\\xd1\\x82\\xd0\\xb8\\xd0\\xb5/Bonds.sol\":5848:5849  0 */\n      0x00\n        /* \"7 \\xd0\\xb7\\xd0\\xb0\\xd0\\xbd\\xd1\\x8f\\xd1\\x82\\xd0\\xb8\\xd0\\xb5/Bonds.sol\":5836:5845  msg.value */\n      callvalue\n        /* \"7 \\xd0\\xb7\\xd0\\xb0\\xd0\\xbd\\xd1\\x8f\\xd1\\x82\\xd0\\xb8\\xd0\\xb5/Bonds.sol\":5836:5849  msg.value > 0 */\n      gt\n        /* \"7 \\xd0\\xb7\\xd0\\xb0\\xd0\\xbd\\xd1\\x8f\\xd1\\x82\\xd0\\xb8\\xd0\\xb5/Bonds.sol\":5828:5887  require(msg.value > 0, \"Amount must be greater than zero.\") */\n      tag_97\n      jumpi\n      mload(0x40)\n      0x08c379a000000000000000000000000000000000000000000000000000000000\n      dup2\n      mstore\n      0x04\n      add\n      tag_98\n      swap1\n      tag_99\n      jump\t// in\n    tag_98:\n      mload(0x40)\n      dup1\n      swap2\n      sub\n      swap1\n      revert\n    tag_97:\n        /* \"7 \\xd0\\xb7\\xd0\\xb0\\xd0\\xbd\\xd1\\x8f\\xd1\\x82\\xd0\\xb8\\xd0\\xb5/Bonds.sol\":5759:5895  function transferToContract() external payable onlyIssuer {... */\n      jump\t// out\n        /* \"7 \\xd0\\xb7\\xd0\\xb0\\xd0\\xbd\\xd1\\x8f\\xd1\\x82\\xd0\\xb8\\xd0\\xb5/Bonds.sol\":171:192  address public issuer */\n    tag_29:\n      0x00\n      dup1\n      sload\n      swap1\n      0x0100\n      exp\n      swap1\n      div\n      0xffffffffffffffffffffffffffffffffffffffff\n      and\n      dup2\n      jump\t// out\n        /* \"7 \\xd0\\xb7\\xd0\\xb0\\xd0\\xbd\\xd1\\x8f\\xd1\\x82\\xd0\\xb8\\xd0\\xb5/Bonds.sol\":6051:6538  function calculateRedemptionAmount(address investor) public view returns (uint256 totalAmount, uint256 interest, uint256 totalPayout) {... */\n    tag_36:\n        /* \"7 \\xd0\\xb7\\xd0\\xb0\\xd0\\xbd\\xd1\\x8f\\xd1\\x82\\xd0\\xb8\\xd0\\xb5/Bonds.sol\":6125:6144  uint256 totalAmount */\n      0x00\n        /* \"7 \\xd0\\xb7\\xd0\\xb0\\xd0\\xbd\\xd1\\x8f\\xd1\\x82\\xd0\\xb8\\xd0\\xb5/Bonds.sol\":6146:6162  uint256 interest */\n      dup1\n        /* \"7 \\xd0\\xb7\\xd0\\xb0\\xd0\\xbd\\xd1\\x8f\\xd1\\x82\\xd0\\xb8\\xd0\\xb5/Bonds.sol\":6164:6183  uint256 totalPayout */\n      0x00\n        /* \"7 \\xd0\\xb7\\xd0\\xb0\\xd0\\xbd\\xd1\\x8f\\xd1\\x82\\xd0\\xb8\\xd0\\xb5/Bonds.sol\":6196:6210  uint256 amount */\n      dup1\n        /* \"7 \\xd0\\xb7\\xd0\\xb0\\xd0\\xbd\\xd1\\x8f\\xd1\\x82\\xd0\\xb8\\xd0\\xb5/Bonds.sol\":6213:6224  bondHolders */\n      0x08\n        /* \"7 \\xd0\\xb7\\xd0\\xb0\\xd0\\xbd\\xd1\\x8f\\xd1\\x82\\xd0\\xb8\\xd0\\xb5/Bonds.sol\":6213:6234  bondHolders[investor] */\n      0x00\n        /* \"7 \\xd0\\xb7\\xd0\\xb0\\xd0\\xbd\\xd1\\x8f\\xd1\\x82\\xd0\\xb8\\xd0\\xb5/Bonds.sol\":6225:6233  investor */\n      dup7\n        /* \"7 \\xd0\\xb7\\xd0\\xb0\\xd0\\xbd\\xd1\\x8f\\xd1\\x82\\xd0\\xb8\\xd0\\xb5/Bonds.sol\":6213:6234  bondHolders[investor] */\n      0xffffffffffffffffffffffffffffffffffffffff\n      and\n      0xffffffffffffffffffffffffffffffffffffffff\n      and\n      dup2\n      mstore\n      0x20\n      add\n      swap1\n      dup2\n      mstore\n      0x20\n      add\n      0x00\n      keccak256\n      sload\n        /* \"7 \\xd0\\xb7\\xd0\\xb0\\xd0\\xbd\\xd1\\x8f\\xd1\\x82\\xd0\\xb8\\xd0\\xb5/Bonds.sol\":6196:6234  uint256 amount = bondHolders[investor] */\n      swap1\n      pop\n        /* \"7 \\xd0\\xb7\\xd0\\xb0\\xd0\\xbd\\xd1\\x8f\\xd1\\x82\\xd0\\xb8\\xd0\\xb5/Bonds.sol\":6262:6263  0 */\n      0x00\n        /* \"7 \\xd0\\xb7\\xd0\\xb0\\xd0\\xbd\\xd1\\x8f\\xd1\\x82\\xd0\\xb8\\xd0\\xb5/Bonds.sol\":6253:6259  amount */\n      dup2\n        /* \"7 \\xd0\\xb7\\xd0\\xb0\\xd0\\xbd\\xd1\\x8f\\xd1\\x82\\xd0\\xb8\\xd0\\xb5/Bonds.sol\":6253:6263  amount > 0 */\n      gt\n        /* \"7 \\xd0\\xb7\\xd0\\xb0\\xd0\\xbd\\xd1\\x8f\\xd1\\x82\\xd0\\xb8\\xd0\\xb5/Bonds.sol\":6245:6300  require(amount > 0, \"You do not have bonds to redeem.\") */\n      tag_101\n      jumpi\n      mload(0x40)\n      0x08c379a000000000000000000000000000000000000000000000000000000000\n      dup2\n      mstore\n      0x04\n      add\n      tag_102\n      swap1\n      tag_103\n      jump\t// in\n    tag_102:\n      mload(0x40)\n      dup1\n      swap2\n      sub\n      swap1\n      revert\n    tag_101:\n        /* \"7 \\xd0\\xb7\\xd0\\xb0\\xd0\\xbd\\xd1\\x8f\\xd1\\x82\\xd0\\xb8\\xd0\\xb5/Bonds.sol\":6336:6345  bondPrice */\n      sload(0x02)\n        /* \"7 \\xd0\\xb7\\xd0\\xb0\\xd0\\xbd\\xd1\\x8f\\xd1\\x82\\xd0\\xb8\\xd0\\xb5/Bonds.sol\":6327:6333  amount */\n      dup2\n        /* \"7 \\xd0\\xb7\\xd0\\xb0\\xd0\\xbd\\xd1\\x8f\\xd1\\x82\\xd0\\xb8\\xd0\\xb5/Bonds.sol\":6327:6345  amount * bondPrice */\n      tag_104\n      swap2\n      swap1\n      tag_105\n      jump\t// in\n    tag_104:\n        /* \"7 \\xd0\\xb7\\xd0\\xb0\\xd0\\xbd\\xd1\\x8f\\xd1\\x82\\xd0\\xb8\\xd0\\xb5/Bonds.sol\":6313:6345  totalAmount = amount * bondPrice */\n      swap4\n      pop\n        /* \"7 \\xd0\\xb7\\xd0\\xb0\\xd0\\xbd\\xd1\\x8f\\xd1\\x82\\xd0\\xb8\\xd0\\xb5/Bonds.sol\":6431:6443  1 days * 100 */\n      0x83d600\n        /* \"7 \\xd0\\xb7\\xd0\\xb0\\xd0\\xbd\\xd1\\x8f\\xd1\\x82\\xd0\\xb8\\xd0\\xb5/Bonds.sol\":6413:6425  issuanceDate */\n      sload(0x04)\n        /* \"7 \\xd0\\xb7\\xd0\\xb0\\xd0\\xbd\\xd1\\x8f\\xd1\\x82\\xd0\\xb8\\xd0\\xb5/Bonds.sol\":6398:6410  maturityDate */\n      sload(0x05)\n        /* \"7 \\xd0\\xb7\\xd0\\xb0\\xd0\\xbd\\xd1\\x8f\\xd1\\x82\\xd0\\xb8\\xd0\\xb5/Bonds.sol\":6398:6425  maturityDate - issuanceDate */\n      tag_106\n      swap2\n      swap1\n      tag_107\n      jump\t// in\n    tag_106:\n        /* \"7 \\xd0\\xb7\\xd0\\xb0\\xd0\\xbd\\xd1\\x8f\\xd1\\x82\\xd0\\xb8\\xd0\\xb5/Bonds.sol\":6382:6394  interestRate */\n      sload(0x03)\n        /* \"7 \\xd0\\xb7\\xd0\\xb0\\xd0\\xbd\\xd1\\x8f\\xd1\\x82\\xd0\\xb8\\xd0\\xb5/Bonds.sol\":6368:6379  totalAmount */\n      dup7\n        /* \"7 \\xd0\\xb7\\xd0\\xb0\\xd0\\xbd\\xd1\\x8f\\xd1\\x82\\xd0\\xb8\\xd0\\xb5/Bonds.sol\":6368:6394  totalAmount * interestRate */\n      tag_108\n      swap2\n      swap1\n      tag_105\n      jump\t// in\n    tag_108:\n        /* \"7 \\xd0\\xb7\\xd0\\xb0\\xd0\\xbd\\xd1\\x8f\\xd1\\x82\\xd0\\xb8\\xd0\\xb5/Bonds.sol\":6368:6426  totalAmount * interestRate * (maturityDate - issuanceDate) */\n      tag_109\n      swap2\n      swap1\n      tag_105\n      jump\t// in\n    tag_109:\n        /* \"7 \\xd0\\xb7\\xd0\\xb0\\xd0\\xbd\\xd1\\x8f\\xd1\\x82\\xd0\\xb8\\xd0\\xb5/Bonds.sol\":6367:6444  (totalAmount * interestRate * (maturityDate - issuanceDate)) / (1 days * 100) */\n      tag_110\n      swap2\n      swap1\n      tag_111\n      jump\t// in\n    tag_110:\n        /* \"7 \\xd0\\xb7\\xd0\\xb0\\xd0\\xbd\\xd1\\x8f\\xd1\\x82\\xd0\\xb8\\xd0\\xb5/Bonds.sol\":6356:6444  interest = (totalAmount * interestRate * (maturityDate - issuanceDate)) / (1 days * 100) */\n      swap3\n      pop\n        /* \"7 \\xd0\\xb7\\xd0\\xb0\\xd0\\xbd\\xd1\\x8f\\xd1\\x82\\xd0\\xb8\\xd0\\xb5/Bonds.sol\":6522:6530  interest */\n      dup3\n        /* \"7 \\xd0\\xb7\\xd0\\xb0\\xd0\\xbd\\xd1\\x8f\\xd1\\x82\\xd0\\xb8\\xd0\\xb5/Bonds.sol\":6508:6519  totalAmount */\n      dup5\n        /* \"7 \\xd0\\xb7\\xd0\\xb0\\xd0\\xbd\\xd1\\x8f\\xd1\\x82\\xd0\\xb8\\xd0\\xb5/Bonds.sol\":6508:6530  totalAmount + interest */\n      tag_112\n      swap2\n      swap1\n      tag_113\n      jump\t// in\n    tag_112:\n        /* \"7 \\xd0\\xb7\\xd0\\xb0\\xd0\\xbd\\xd1\\x8f\\xd1\\x82\\xd0\\xb8\\xd0\\xb5/Bonds.sol\":6494:6530  totalPayout = totalAmount + interest */\n      swap2\n      pop\n        /* \"7 \\xd0\\xb7\\xd0\\xb0\\xd0\\xbd\\xd1\\x8f\\xd1\\x82\\xd0\\xb8\\xd0\\xb5/Bonds.sol\":6185:6538  {... */\n      pop\n        /* \"7 \\xd0\\xb7\\xd0\\xb0\\xd0\\xbd\\xd1\\x8f\\xd1\\x82\\xd0\\xb8\\xd0\\xb5/Bonds.sol\":6051:6538  function calculateRedemptionAmount(address investor) public view returns (uint256 totalAmount, uint256 interest, uint256 totalPayout) {... */\n      swap2\n      swap4\n      swap1\n      swap3\n      pop\n      jump\t// out\n        /* \"7 \\xd0\\xb7\\xd0\\xb0\\xd0\\xbd\\xd1\\x8f\\xd1\\x82\\xd0\\xb8\\xd0\\xb5/Bonds.sol\":3489:4297  function purchaseBonds() external payable onlyBeforeMaturity {... */\n    tag_40:\n        /* \"7 \\xd0\\xb7\\xd0\\xb0\\xd0\\xbd\\xd1\\x8f\\xd1\\x82\\xd0\\xb8\\xd0\\xb5/Bonds.sol\":2037:2049  maturityDate */\n      sload(0x05)\n        /* \"7 \\xd0\\xb7\\xd0\\xb0\\xd0\\xbd\\xd1\\x8f\\xd1\\x82\\xd0\\xb8\\xd0\\xb5/Bonds.sol\":2019:2034  block.timestamp */\n      timestamp\n        /* \"7 \\xd0\\xb7\\xd0\\xb0\\xd0\\xbd\\xd1\\x8f\\xd1\\x82\\xd0\\xb8\\xd0\\xb5/Bonds.sol\":2019:2049  block.timestamp < maturityDate */\n      lt\n        /* \"7 \\xd0\\xb7\\xd0\\xb0\\xd0\\xbd\\xd1\\x8f\\xd1\\x82\\xd0\\xb8\\xd0\\xb5/Bonds.sol\":2011:2081  require(block.timestamp < maturityDate, \"Bond sale period has ended.\") */\n      tag_115\n      jumpi\n      mload(0x40)\n      0x08c379a000000000000000000000000000000000000000000000000000000000\n      dup2\n      mstore\n      0x04\n      add\n      tag_116\n      swap1\n      tag_117\n      jump\t// in\n    tag_116:\n      mload(0x40)\n      dup1\n      swap2\n      sub\n      swap1\n      revert\n    tag_115:\n        /* \"7 \\xd0\\xb7\\xd0\\xb0\\xd0\\xbd\\xd1\\x8f\\xd1\\x82\\xd0\\xb8\\xd0\\xb5/Bonds.sol\":3581:3582  0 */\n      0x00\n        /* \"7 \\xd0\\xb7\\xd0\\xb0\\xd0\\xbd\\xd1\\x8f\\xd1\\x82\\xd0\\xb8\\xd0\\xb5/Bonds.sol\":3569:3578  msg.value */\n      callvalue\n        /* \"7 \\xd0\\xb7\\xd0\\xb0\\xd0\\xbd\\xd1\\x8f\\xd1\\x82\\xd0\\xb8\\xd0\\xb5/Bonds.sol\":3569:3582  msg.value > 0 */\n      gt\n        /* \"7 \\xd0\\xb7\\xd0\\xb0\\xd0\\xbd\\xd1\\x8f\\xd1\\x82\\xd0\\xb8\\xd0\\xb5/Bonds.sol\":3561:3620  require(msg.value > 0, \"Amount must be greater than zero.\") */\n      tag_119\n      jumpi\n      mload(0x40)\n      0x08c379a000000000000000000000000000000000000000000000000000000000\n      dup2\n      mstore\n      0x04\n      add\n      tag_120\n      swap1\n      tag_99\n      jump\t// in\n    tag_120:\n      mload(0x40)\n      dup1\n      swap2\n      sub\n      swap1\n      revert\n    tag_119:\n        /* \"7 \\xd0\\xb7\\xd0\\xb0\\xd0\\xbd\\xd1\\x8f\\xd1\\x82\\xd0\\xb8\\xd0\\xb5/Bonds.sol\":3631:3645  uint256 amount */\n      0x00\n        /* \"7 \\xd0\\xb7\\xd0\\xb0\\xd0\\xbd\\xd1\\x8f\\xd1\\x82\\xd0\\xb8\\xd0\\xb5/Bonds.sol\":3660:3669  bondPrice */\n      sload(0x02)\n        /* \"7 \\xd0\\xb7\\xd0\\xb0\\xd0\\xbd\\xd1\\x8f\\xd1\\x82\\xd0\\xb8\\xd0\\xb5/Bonds.sol\":3648:3657  msg.value */\n      callvalue\n        /* \"7 \\xd0\\xb7\\xd0\\xb0\\xd0\\xbd\\xd1\\x8f\\xd1\\x82\\xd0\\xb8\\xd0\\xb5/Bonds.sol\":3648:3669  msg.value / bondPrice */\n      tag_121\n      swap2\n      swap1\n      tag_111\n      jump\t// in\n    tag_121:\n        /* \"7 \\xd0\\xb7\\xd0\\xb0\\xd0\\xbd\\xd1\\x8f\\xd1\\x82\\xd0\\xb8\\xd0\\xb5/Bonds.sol\":3631:3669  uint256 amount = msg.value / bondPrice */\n      swap1\n      pop\n        /* \"7 \\xd0\\xb7\\xd0\\xb0\\xd0\\xbd\\xd1\\x8f\\xd1\\x82\\xd0\\xb8\\xd0\\xb5/Bonds.sol\":3697:3698  0 */\n      0x00\n        /* \"7 \\xd0\\xb7\\xd0\\xb0\\xd0\\xbd\\xd1\\x8f\\xd1\\x82\\xd0\\xb8\\xd0\\xb5/Bonds.sol\":3688:3694  amount */\n      dup2\n        /* \"7 \\xd0\\xb7\\xd0\\xb0\\xd0\\xbd\\xd1\\x8f\\xd1\\x82\\xd0\\xb8\\xd0\\xb5/Bonds.sol\":3688:3698  amount > 0 */\n      gt\n        /* \"7 \\xd0\\xb7\\xd0\\xb0\\xd0\\xbd\\xd1\\x8f\\xd1\\x82\\xd0\\xb8\\xd0\\xb5/Bonds.sol\":3680:3734  require(amount > 0, \"Insufficient funds to purchase.\") */\n      tag_122\n      jumpi\n      mload(0x40)\n      0x08c379a000000000000000000000000000000000000000000000000000000000\n      dup2\n      mstore\n      0x04\n      add\n      tag_123\n      swap1\n      tag_124\n      jump\t// in\n    tag_123:\n      mload(0x40)\n      dup1\n      swap2\n      sub\n      swap1\n      revert\n    tag_122:\n        /* \"7 \\xd0\\xb7\\xd0\\xb0\\xd0\\xbd\\xd1\\x8f\\xd1\\x82\\xd0\\xb8\\xd0\\xb5/Bonds.sol\":3767:3773  amount */\n      dup1\n        /* \"7 \\xd0\\xb7\\xd0\\xb0\\xd0\\xbd\\xd1\\x8f\\xd1\\x82\\xd0\\xb8\\xd0\\xb5/Bonds.sol\":3753:3763  totalBonds */\n      sload(0x01)\n        /* \"7 \\xd0\\xb7\\xd0\\xb0\\xd0\\xbd\\xd1\\x8f\\xd1\\x82\\xd0\\xb8\\xd0\\xb5/Bonds.sol\":3753:3773  totalBonds >= amount */\n      lt\n      iszero\n        /* \"7 \\xd0\\xb7\\xd0\\xb0\\xd0\\xbd\\xd1\\x8f\\xd1\\x82\\xd0\\xb8\\xd0\\xb5/Bonds.sol\":3847:3868  totalBonds.toString() */\n      tag_125\n        /* \"7 \\xd0\\xb7\\xd0\\xb0\\xd0\\xbd\\xd1\\x8f\\xd1\\x82\\xd0\\xb8\\xd0\\xb5/Bonds.sol\":3847:3857  totalBonds */\n      sload(0x01)\n        /* \"7 \\xd0\\xb7\\xd0\\xb0\\xd0\\xbd\\xd1\\x8f\\xd1\\x82\\xd0\\xb8\\xd0\\xb5/Bonds.sol\":3847:3866  totalBonds.toString */\n      tag_126\n        /* \"7 \\xd0\\xb7\\xd0\\xb0\\xd0\\xbd\\xd1\\x8f\\xd1\\x82\\xd0\\xb8\\xd0\\xb5/Bonds.sol\":3847:3868  totalBonds.toString() */\n      jump\t// in\n    tag_125:\n        /* \"7 \\xd0\\xb7\\xd0\\xb0\\xd0\\xbd\\xd1\\x8f\\xd1\\x82\\xd0\\xb8\\xd0\\xb5/Bonds.sol\":3782:3869  abi.encodePacked(\"Insufficient bonds to buy. Available bonds: \", totalBonds.toString()) */\n      add(0x20, mload(0x40))\n      tag_127\n      swap2\n      swap1\n      tag_128\n      jump\t// in\n    tag_127:\n      mload(0x40)\n      0x20\n      dup2\n      dup4\n      sub\n      sub\n      dup2\n      mstore\n      swap1\n      0x40\n      mstore\n        /* \"7 \\xd0\\xb7\\xd0\\xb0\\xd0\\xbd\\xd1\\x8f\\xd1\\x82\\xd0\\xb8\\xd0\\xb5/Bonds.sol\":3745:3871  require(totalBonds >= amount, string(abi.encodePacked(\"Insufficient bonds to buy. Available bonds: \", totalBonds.toString()))) */\n      swap1\n      tag_129\n      jumpi\n      mload(0x40)\n      0x08c379a000000000000000000000000000000000000000000000000000000000\n      dup2\n      mstore\n      0x04\n      add\n      tag_130\n      swap2\n      swap1\n      tag_131\n      jump\t// in\n    tag_130:\n      mload(0x40)\n      dup1\n      swap2\n      sub\n      swap1\n      revert\n    tag_129:\n      pop\n        /* \"7 \\xd0\\xb7\\xd0\\xb0\\xd0\\xbd\\xd1\\x8f\\xd1\\x82\\xd0\\xb8\\xd0\\xb5/Bonds.sol\":3889:3900  hasInvested */\n      0x09\n        /* \"7 \\xd0\\xb7\\xd0\\xb0\\xd0\\xbd\\xd1\\x8f\\xd1\\x82\\xd0\\xb8\\xd0\\xb5/Bonds.sol\":3889:3912  hasInvested[msg.sender] */\n      0x00\n        /* \"7 \\xd0\\xb7\\xd0\\xb0\\xd0\\xbd\\xd1\\x8f\\xd1\\x82\\xd0\\xb8\\xd0\\xb5/Bonds.sol\":3901:3911  msg.sender */\n      caller\n        /* \"7 \\xd0\\xb7\\xd0\\xb0\\xd0\\xbd\\xd1\\x8f\\xd1\\x82\\xd0\\xb8\\xd0\\xb5/Bonds.sol\":3889:3912  hasInvested[msg.sender] */\n      0xffffffffffffffffffffffffffffffffffffffff\n      and\n      0xffffffffffffffffffffffffffffffffffffffff\n      and\n      dup2\n      mstore\n      0x20\n      add\n      swap1\n      dup2\n      mstore\n      0x20\n      add\n      0x00\n      keccak256\n      0x00\n      swap1\n      sload\n      swap1\n      0x0100\n      exp\n      swap1\n      div\n      0xff\n      and\n        /* \"7 \\xd0\\xb7\\xd0\\xb0\\xd0\\xbd\\xd1\\x8f\\xd1\\x82\\xd0\\xb8\\xd0\\xb5/Bonds.sol\":3884:4124  if (!hasInvested[msg.sender]) { // Проверка на добавление инвестора в список... */\n      tag_132\n      jumpi\n        /* \"7 \\xd0\\xb7\\xd0\\xb0\\xd0\\xbd\\xd1\\x8f\\xd1\\x82\\xd0\\xb8\\xd0\\xb5/Bonds.sol\":4010:4019  investors */\n      0x0a\n        /* \"7 \\xd0\\xb7\\xd0\\xb0\\xd0\\xbd\\xd1\\x8f\\xd1\\x82\\xd0\\xb8\\xd0\\xb5/Bonds.sol\":4025:4035  msg.sender */\n      caller\n        /* \"7 \\xd0\\xb7\\xd0\\xb0\\xd0\\xbd\\xd1\\x8f\\xd1\\x82\\xd0\\xb8\\xd0\\xb5/Bonds.sol\":4010:4036  investors.push(msg.sender) */\n      swap1\n      dup1\n      0x01\n      dup2\n      sload\n      add\n      dup1\n      dup3\n      sstore\n      dup1\n      swap2\n      pop\n      pop\n      0x01\n      swap1\n      sub\n      swap1\n      0x00\n      mstore\n      keccak256(0x00, 0x20)\n      add\n      0x00\n      swap1\n      swap2\n      swap1\n      swap2\n      swap1\n      swap2\n      0x0100\n      exp\n      dup2\n      sload\n      dup2\n      0xffffffffffffffffffffffffffffffffffffffff\n      mul\n      not\n      and\n      swap1\n      dup4\n      0xffffffffffffffffffffffffffffffffffffffff\n      and\n      mul\n      or\n      swap1\n      sstore\n      pop\n        /* \"7 \\xd0\\xb7\\xd0\\xb0\\xd0\\xbd\\xd1\\x8f\\xd1\\x82\\xd0\\xb8\\xd0\\xb5/Bonds.sol\":4077:4081  true */\n      0x01\n        /* \"7 \\xd0\\xb7\\xd0\\xb0\\xd0\\xbd\\xd1\\x8f\\xd1\\x82\\xd0\\xb8\\xd0\\xb5/Bonds.sol\":4051:4062  hasInvested */\n      0x09\n        /* \"7 \\xd0\\xb7\\xd0\\xb0\\xd0\\xbd\\xd1\\x8f\\xd1\\x82\\xd0\\xb8\\xd0\\xb5/Bonds.sol\":4051:4074  hasInvested[msg.sender] */\n      0x00\n        /* \"7 \\xd0\\xb7\\xd0\\xb0\\xd0\\xbd\\xd1\\x8f\\xd1\\x82\\xd0\\xb8\\xd0\\xb5/Bonds.sol\":4063:4073  msg.sender */\n      caller\n        /* \"7 \\xd0\\xb7\\xd0\\xb0\\xd0\\xbd\\xd1\\x8f\\xd1\\x82\\xd0\\xb8\\xd0\\xb5/Bonds.sol\":4051:4074  hasInvested[msg.sender] */\n      0xffffffffffffffffffffffffffffffffffffffff\n      and\n      0xffffffffffffffffffffffffffffffffffffffff\n      and\n      dup2\n      mstore\n      0x20\n      add\n      swap1\n      dup2\n      mstore\n      0x20\n      add\n      0x00\n      keccak256\n      0x00\n        /* \"7 \\xd0\\xb7\\xd0\\xb0\\xd0\\xbd\\xd1\\x8f\\xd1\\x82\\xd0\\xb8\\xd0\\xb5/Bonds.sol\":4051:4081  hasInvested[msg.sender] = true */\n      0x0100\n      exp\n      dup2\n      sload\n      dup2\n      0xff\n      mul\n      not\n      and\n      swap1\n      dup4\n      iszero\n      iszero\n      mul\n      or\n      swap1\n      sstore\n      pop\n        /* \"7 \\xd0\\xb7\\xd0\\xb0\\xd0\\xbd\\xd1\\x8f\\xd1\\x82\\xd0\\xb8\\xd0\\xb5/Bonds.sol\":4096:4110  totalInvestors */\n      0x0b\n      0x00\n        /* \"7 \\xd0\\xb7\\xd0\\xb0\\xd0\\xbd\\xd1\\x8f\\xd1\\x82\\xd0\\xb8\\xd0\\xb5/Bonds.sol\":4096:4112  totalInvestors++ */\n      dup2\n      sload\n      dup1\n      swap3\n      swap2\n      swap1\n      tag_134\n      swap1\n      tag_135\n      jump\t// in\n    tag_134:\n      swap2\n      swap1\n      pop\n      sstore\n      pop\n        /* \"7 \\xd0\\xb7\\xd0\\xb0\\xd0\\xbd\\xd1\\x8f\\xd1\\x82\\xd0\\xb8\\xd0\\xb5/Bonds.sol\":3884:4124  if (!hasInvested[msg.sender]) { // Проверка на добавление инвестора в список... */\n    tag_132:\n        /* \"7 \\xd0\\xb7\\xd0\\xb0\\xd0\\xbd\\xd1\\x8f\\xd1\\x82\\xd0\\xb8\\xd0\\xb5/Bonds.sol\":4163:4169  amount */\n      dup1\n        /* \"7 \\xd0\\xb7\\xd0\\xb0\\xd0\\xbd\\xd1\\x8f\\xd1\\x82\\xd0\\xb8\\xd0\\xb5/Bonds.sol\":4136:4147  bondHolders */\n      0x08\n        /* \"7 \\xd0\\xb7\\xd0\\xb0\\xd0\\xbd\\xd1\\x8f\\xd1\\x82\\xd0\\xb8\\xd0\\xb5/Bonds.sol\":4136:4159  bondHolders[msg.sender] */\n      0x00\n        /* \"7 \\xd0\\xb7\\xd0\\xb0\\xd0\\xbd\\xd1\\x8f\\xd1\\x82\\xd0\\xb8\\xd0\\xb5/Bonds.sol\":4148:4158  msg.sender */\n      caller\n        /* \"7 \\xd0\\xb7\\xd0\\xb0\\xd0\\xbd\\xd1\\x8f\\xd1\\x82\\xd0\\xb8\\xd0\\xb5/Bonds.sol\":4136:4159  bondHolders[msg.sender] */\n      0xffffffffffffffffffffffffffffffffffffffff\n      and\n      0xffffffffffffffffffffffffffffffffffffffff\n      and\n      dup2\n      mstore\n      0x20\n      add\n      swap1\n      dup2\n      mstore\n      0x20\n      add\n      0x00\n      keccak256\n      0x00\n        /* \"7 \\xd0\\xb7\\xd0\\xb0\\xd0\\xbd\\xd1\\x8f\\xd1\\x82\\xd0\\xb8\\xd0\\xb5/Bonds.sol\":4136:4169  bondHolders[msg.sender] += amount */\n      dup3\n      dup3\n      sload\n      tag_136\n      swap2\n      swap1\n      tag_113\n      jump\t// in\n    tag_136:\n      swap3\n      pop\n      pop\n      dup2\n      swap1\n      sstore\n      pop\n        /* \"7 \\xd0\\xb7\\xd0\\xb0\\xd0\\xbd\\xd1\\x8f\\xd1\\x82\\xd0\\xb8\\xd0\\xb5/Bonds.sol\":4194:4200  amount */\n      dup1\n        /* \"7 \\xd0\\xb7\\xd0\\xb0\\xd0\\xbd\\xd1\\x8f\\xd1\\x82\\xd0\\xb8\\xd0\\xb5/Bonds.sol\":4180:4190  totalBonds */\n      0x01\n      0x00\n        /* \"7 \\xd0\\xb7\\xd0\\xb0\\xd0\\xbd\\xd1\\x8f\\xd1\\x82\\xd0\\xb8\\xd0\\xb5/Bonds.sol\":4180:4200  totalBonds -= amount */\n      dup3\n      dup3\n      sload\n      tag_137\n      swap2\n      swap1\n      tag_107\n      jump\t// in\n    tag_137:\n      swap3\n      pop\n      pop\n      dup2\n      swap1\n      sstore\n      pop\n        /* \"7 \\xd0\\xb7\\xd0\\xb0\\xd0\\xbd\\xd1\\x8f\\xd1\\x82\\xd0\\xb8\\xd0\\xb5/Bonds.sol\":4228:4237  msg.value */\n      callvalue\n        /* \"7 \\xd0\\xb7\\xd0\\xb0\\xd0\\xbd\\xd1\\x8f\\xd1\\x82\\xd0\\xb8\\xd0\\xb5/Bonds.sol\":4211:4224  totalInvested */\n      0x06\n      0x00\n        /* \"7 \\xd0\\xb7\\xd0\\xb0\\xd0\\xbd\\xd1\\x8f\\xd1\\x82\\xd0\\xb8\\xd0\\xb5/Bonds.sol\":4211:4237  totalInvested += msg.value */\n      dup3\n      dup3\n      sload\n      tag_138\n      swap2\n      swap1\n      tag_113\n      jump\t// in\n    tag_138:\n      swap3\n      pop\n      pop\n      dup2\n      swap1\n      sstore\n      pop\n        /* \"7 \\xd0\\xb7\\xd0\\xb0\\xd0\\xbd\\xd1\\x8f\\xd1\\x82\\xd0\\xb8\\xd0\\xb5/Bonds.sol\":4270:4280  msg.sender */\n      caller\n        /* \"7 \\xd0\\xb7\\xd0\\xb0\\xd0\\xbd\\xd1\\x8f\\xd1\\x82\\xd0\\xb8\\xd0\\xb5/Bonds.sol\":4255:4289  BondsPurchased(msg.sender, amount) */\n      0xffffffffffffffffffffffffffffffffffffffff\n      and\n      0x72e04af5dfda760cfed5e6556215ddc010133900aa0b75cefa0883038f37eae2\n        /* \"7 \\xd0\\xb7\\xd0\\xb0\\xd0\\xbd\\xd1\\x8f\\xd1\\x82\\xd0\\xb8\\xd0\\xb5/Bonds.sol\":4282:4288  amount */\n      dup3\n        /* \"7 \\xd0\\xb7\\xd0\\xb0\\xd0\\xbd\\xd1\\x8f\\xd1\\x82\\xd0\\xb8\\xd0\\xb5/Bonds.sol\":4255:4289  BondsPurchased(msg.sender, amount) */\n      mload(0x40)\n      tag_139\n      swap2\n      swap1\n      tag_45\n      jump\t// in\n    tag_139:\n      mload(0x40)\n      dup1\n      swap2\n      sub\n      swap1\n      log2\n        /* \"7 \\xd0\\xb7\\xd0\\xb0\\xd0\\xbd\\xd1\\x8f\\xd1\\x82\\xd0\\xb8\\xd0\\xb5/Bonds.sol\":3550:4297  {... */\n      pop\n        /* \"7 \\xd0\\xb7\\xd0\\xb0\\xd0\\xbd\\xd1\\x8f\\xd1\\x82\\xd0\\xb8\\xd0\\xb5/Bonds.sol\":3489:4297  function purchaseBonds() external payable onlyBeforeMaturity {... */\n      jump\t// out\n        /* \"7 \\xd0\\xb7\\xd0\\xb0\\xd0\\xbd\\xd1\\x8f\\xd1\\x82\\xd0\\xb8\\xd0\\xb5/Bonds.sol\":609:637  uint256 public totalInvested */\n    tag_43:\n      sload(0x06)\n      dup2\n      jump\t// out\n        /* \"7 \\xd0\\xb7\\xd0\\xb0\\xd0\\xbd\\xd1\\x8f\\xd1\\x82\\xd0\\xb8\\xd0\\xb5/Bonds.sol\":8396:8885  function withdrawRemainingFundsAfterOneMonth() external onlyIssuer {... */\n    tag_48:\n        /* \"7 \\xd0\\xb7\\xd0\\xb0\\xd0\\xbd\\xd1\\x8f\\xd1\\x82\\xd0\\xb8\\xd0\\xb5/Bonds.sol\":1781:1787  issuer */\n      0x00\n      dup1\n      sload\n      swap1\n      0x0100\n      exp\n      swap1\n      div\n      0xffffffffffffffffffffffffffffffffffffffff\n      and\n        /* \"7 \\xd0\\xb7\\xd0\\xb0\\xd0\\xbd\\xd1\\x8f\\xd1\\x82\\xd0\\xb8\\xd0\\xb5/Bonds.sol\":1767:1787  msg.sender == issuer */\n      0xffffffffffffffffffffffffffffffffffffffff\n      and\n        /* \"7 \\xd0\\xb7\\xd0\\xb0\\xd0\\xbd\\xd1\\x8f\\xd1\\x82\\xd0\\xb8\\xd0\\xb5/Bonds.sol\":1767:1777  msg.sender */\n      caller\n        /* \"7 \\xd0\\xb7\\xd0\\xb0\\xd0\\xbd\\xd1\\x8f\\xd1\\x82\\xd0\\xb8\\xd0\\xb5/Bonds.sol\":1767:1787  msg.sender == issuer */\n      0xffffffffffffffffffffffffffffffffffffffff\n      and\n      eq\n        /* \"7 \\xd0\\xb7\\xd0\\xb0\\xd0\\xbd\\xd1\\x8f\\xd1\\x82\\xd0\\xb8\\xd0\\xb5/Bonds.sol\":1759:1827  require(msg.sender == issuer, \"Only issuer can call this function.\") */\n      tag_141\n      jumpi\n      mload(0x40)\n      0x08c379a000000000000000000000000000000000000000000000000000000000\n      dup2\n      mstore\n      0x04\n      add\n      tag_142\n      swap1\n      tag_95\n      jump\t// in\n    tag_142:\n      mload(0x40)\n      dup1\n      swap2\n      sub\n      swap1\n      revert\n    tag_141:\n        /* \"7 \\xd0\\xb7\\xd0\\xb0\\xd0\\xbd\\xd1\\x8f\\xd1\\x82\\xd0\\xb8\\xd0\\xb5/Bonds.sol\":8505:8517  maturityDate */\n      sload(0x05)\n        /* \"7 \\xd0\\xb7\\xd0\\xb0\\xd0\\xbd\\xd1\\x8f\\xd1\\x82\\xd0\\xb8\\xd0\\xb5/Bonds.sol\":8486:8501  block.timestamp */\n      timestamp\n        /* \"7 \\xd0\\xb7\\xd0\\xb0\\xd0\\xbd\\xd1\\x8f\\xd1\\x82\\xd0\\xb8\\xd0\\xb5/Bonds.sol\":8486:8517  block.timestamp >= maturityDate */\n      lt\n      iszero\n        /* \"7 \\xd0\\xb7\\xd0\\xb0\\xd0\\xbd\\xd1\\x8f\\xd1\\x82\\xd0\\xb8\\xd0\\xb5/Bonds.sol\":8478:8561  require(block.timestamp >= maturityDate, \"Bond redemption period has not started.\") */\n      tag_144\n      jumpi\n      mload(0x40)\n      0x08c379a000000000000000000000000000000000000000000000000000000000\n      dup2\n      mstore\n      0x04\n      add\n      tag_145\n      swap1\n      tag_146\n      jump\t// in\n    tag_145:\n      mload(0x40)\n      dup1\n      swap2\n      sub\n      swap1\n      revert\n    tag_144:\n        /* \"7 \\xd0\\xb7\\xd0\\xb0\\xd0\\xbd\\xd1\\x8f\\xd1\\x82\\xd0\\xb8\\xd0\\xb5/Bonds.sol\":8618:8625  30 days */\n      0x278d00\n        /* \"7 \\xd0\\xb7\\xd0\\xb0\\xd0\\xbd\\xd1\\x8f\\xd1\\x82\\xd0\\xb8\\xd0\\xb5/Bonds.sol\":8603:8615  maturityDate */\n      sload(0x05)\n        /* \"7 \\xd0\\xb7\\xd0\\xb0\\xd0\\xbd\\xd1\\x8f\\xd1\\x82\\xd0\\xb8\\xd0\\xb5/Bonds.sol\":8603:8625  maturityDate + 30 days */\n      tag_147\n      swap2\n      swap1\n      tag_113\n      jump\t// in\n    tag_147:\n        /* \"7 \\xd0\\xb7\\xd0\\xb0\\xd0\\xbd\\xd1\\x8f\\xd1\\x82\\xd0\\xb8\\xd0\\xb5/Bonds.sol\":8584:8599  block.timestamp */\n      timestamp\n        /* \"7 \\xd0\\xb7\\xd0\\xb0\\xd0\\xbd\\xd1\\x8f\\xd1\\x82\\xd0\\xb8\\xd0\\xb5/Bonds.sol\":8584:8625  block.timestamp >= maturityDate + 30 days */\n      lt\n      iszero\n        /* \"7 \\xd0\\xb7\\xd0\\xb0\\xd0\\xbd\\xd1\\x8f\\xd1\\x82\\xd0\\xb8\\xd0\\xb5/Bonds.sol\":8576:8670  require(block.timestamp >= maturityDate + 30 days, \"One month has not passed since maturity.\") */\n      tag_148\n      jumpi\n      mload(0x40)\n      0x08c379a000000000000000000000000000000000000000000000000000000000\n      dup2\n      mstore\n      0x04\n      add\n      tag_149\n      swap1\n      tag_150\n      jump\t// in\n    tag_149:\n      mload(0x40)\n      dup1\n      swap2\n      sub\n      swap1\n      revert\n    tag_148:\n        /* \"7 \\xd0\\xb7\\xd0\\xb0\\xd0\\xbd\\xd1\\x8f\\xd1\\x82\\xd0\\xb8\\xd0\\xb5/Bonds.sol\":8687:8711  uint256 remainingBalance */\n      0x00\n        /* \"7 \\xd0\\xb7\\xd0\\xb0\\xd0\\xbd\\xd1\\x8f\\xd1\\x82\\xd0\\xb8\\xd0\\xb5/Bonds.sol\":8714:8735  address(this).balance */\n      selfbalance\n        /* \"7 \\xd0\\xb7\\xd0\\xb0\\xd0\\xbd\\xd1\\x8f\\xd1\\x82\\xd0\\xb8\\xd0\\xb5/Bonds.sol\":8687:8735  uint256 remainingBalance = address(this).balance */\n      swap1\n      pop\n        /* \"7 \\xd0\\xb7\\xd0\\xb0\\xd0\\xbd\\xd1\\x8f\\xd1\\x82\\xd0\\xb8\\xd0\\xb5/Bonds.sol\":8777:8778  0 */\n      0x00\n        /* \"7 \\xd0\\xb7\\xd0\\xb0\\xd0\\xbd\\xd1\\x8f\\xd1\\x82\\xd0\\xb8\\xd0\\xb5/Bonds.sol\":8758:8774  remainingBalance */\n      dup2\n        /* \"7 \\xd0\\xb7\\xd0\\xb0\\xd0\\xbd\\xd1\\x8f\\xd1\\x82\\xd0\\xb8\\xd0\\xb5/Bonds.sol\":8758:8778  remainingBalance > 0 */\n      gt\n        /* \"7 \\xd0\\xb7\\xd0\\xb0\\xd0\\xbd\\xd1\\x8f\\xd1\\x82\\xd0\\xb8\\xd0\\xb5/Bonds.sol\":8750:8814  require(remainingBalance > 0, \"Insufficient funds to withdraw.\") */\n      tag_151\n      jumpi\n      mload(0x40)\n      0x08c379a000000000000000000000000000000000000000000000000000000000\n      dup2\n      mstore\n      0x04\n      add\n      tag_152\n      swap1\n      tag_153\n      jump\t// in\n    tag_152:\n      mload(0x40)\n      dup1\n      swap2\n      sub\n      swap1\n      revert\n    tag_151:\n        /* \"7 \\xd0\\xb7\\xd0\\xb0\\xd0\\xbd\\xd1\\x8f\\xd1\\x82\\xd0\\xb8\\xd0\\xb5/Bonds.sol\":8839:8845  issuer */\n      0x00\n      dup1\n      sload\n      swap1\n      0x0100\n      exp\n      swap1\n      div\n      0xffffffffffffffffffffffffffffffffffffffff\n      and\n        /* \"7 \\xd0\\xb7\\xd0\\xb0\\xd0\\xbd\\xd1\\x8f\\xd1\\x82\\xd0\\xb8\\xd0\\xb5/Bonds.sol\":8831:8855  payable(issuer).transfer */\n      0xffffffffffffffffffffffffffffffffffffffff\n      and\n        /* \"7 \\xd0\\xb7\\xd0\\xb0\\xd0\\xbd\\xd1\\x8f\\xd1\\x82\\xd0\\xb8\\xd0\\xb5/Bonds.sol\":8831:8873  payable(issuer).transfer(remainingBalance) */\n      0x08fc\n        /* \"7 \\xd0\\xb7\\xd0\\xb0\\xd0\\xbd\\xd1\\x8f\\xd1\\x82\\xd0\\xb8\\xd0\\xb5/Bonds.sol\":8856:8872  remainingBalance */\n      dup3\n        /* \"7 \\xd0\\xb7\\xd0\\xb0\\xd0\\xbd\\xd1\\x8f\\xd1\\x82\\xd0\\xb8\\xd0\\xb5/Bonds.sol\":8831:8873  payable(issuer).transfer(remainingBalance) */\n      swap1\n      dup2\n      iszero\n      mul\n      swap1\n      mload(0x40)\n      0x00\n      mload(0x40)\n      dup1\n      dup4\n      sub\n      dup2\n      dup6\n      dup9\n      dup9\n      call\n      swap4\n      pop\n      pop\n      pop\n      pop\n      iszero\n      dup1\n      iszero\n      tag_155\n      jumpi\n      returndatasize\n      0x00\n      dup1\n      returndatacopy\n      revert(0x00, returndatasize)\n    tag_155:\n      pop\n        /* \"7 \\xd0\\xb7\\xd0\\xb0\\xd0\\xbd\\xd1\\x8f\\xd1\\x82\\xd0\\xb8\\xd0\\xb5/Bonds.sol\":8463:8885  {... */\n      pop\n        /* \"7 \\xd0\\xb7\\xd0\\xb0\\xd0\\xbd\\xd1\\x8f\\xd1\\x82\\xd0\\xb8\\xd0\\xb5/Bonds.sol\":8396:8885  function withdrawRemainingFundsAfterOneMonth() external onlyIssuer {... */\n      jump\t// out\n        /* \"7 \\xd0\\xb7\\xd0\\xb0\\xd0\\xbd\\xd1\\x8f\\xd1\\x82\\xd0\\xb8\\xd0\\xb5/Bonds.sol\":375:402  uint256 public interestRate */\n    tag_51:\n      sload(0x03)\n      dup2\n      jump\t// out\n        /* \"7 \\xd0\\xb7\\xd0\\xb0\\xd0\\xbd\\xd1\\x8f\\xd1\\x82\\xd0\\xb8\\xd0\\xb5/Bonds.sol\":2523:3341  function issueBonds(uint256 _totalBonds, uint256 _bondPrice, uint256 _interestRate, uint256 _maturityDate) external onlyIssuer {... */\n    tag_57:\n        /* \"7 \\xd0\\xb7\\xd0\\xb0\\xd0\\xbd\\xd1\\x8f\\xd1\\x82\\xd0\\xb8\\xd0\\xb5/Bonds.sol\":1781:1787  issuer */\n      0x00\n      dup1\n      sload\n      swap1\n      0x0100\n      exp\n      swap1\n      div\n      0xffffffffffffffffffffffffffffffffffffffff\n      and\n        /* \"7 \\xd0\\xb7\\xd0\\xb0\\xd0\\xbd\\xd1\\x8f\\xd1\\x82\\xd0\\xb8\\xd0\\xb5/Bonds.sol\":1767:1787  msg.sender == issuer */\n      0xffffffffffffffffffffffffffffffffffffffff\n      and\n        /* \"7 \\xd0\\xb7\\xd0\\xb0\\xd0\\xbd\\xd1\\x8f\\xd1\\x82\\xd0\\xb8\\xd0\\xb5/Bonds.sol\":1767:1777  msg.sender */\n      caller\n        /* \"7 \\xd0\\xb7\\xd0\\xb0\\xd0\\xbd\\xd1\\x8f\\xd1\\x82\\xd0\\xb8\\xd0\\xb5/Bonds.sol\":1767:1787  msg.sender == issuer */\n      0xffffffffffffffffffffffffffffffffffffffff\n      and\n      eq\n        /* \"7 \\xd0\\xb7\\xd0\\xb0\\xd0\\xbd\\xd1\\x8f\\xd1\\x82\\xd0\\xb8\\xd0\\xb5/Bonds.sol\":1759:1827  require(msg.sender == issuer, \"Only issuer can call this function.\") */\n      tag_157\n      jumpi\n      mload(0x40)\n      0x08c379a000000000000000000000000000000000000000000000000000000000\n      dup2\n      mstore\n      0x04\n      add\n      tag_158\n      swap1\n      tag_95\n      jump\t// in\n    tag_158:\n      mload(0x40)\n      dup1\n      swap2\n      sub\n      swap1\n      revert\n    tag_157:\n        /* \"7 \\xd0\\xb7\\xd0\\xb0\\xd0\\xbd\\xd1\\x8f\\xd1\\x82\\xd0\\xb8\\xd0\\xb5/Bonds.sol\":2670:2678  isIssued */\n      0x07\n      0x00\n      swap1\n      sload\n      swap1\n      0x0100\n      exp\n      swap1\n      div\n      0xff\n      and\n        /* \"7 \\xd0\\xb7\\xd0\\xb0\\xd0\\xbd\\xd1\\x8f\\xd1\\x82\\xd0\\xb8\\xd0\\xb5/Bonds.sol\":2669:2678  !isIssued */\n      iszero\n        /* \"7 \\xd0\\xb7\\xd0\\xb0\\xd0\\xbd\\xd1\\x8f\\xd1\\x82\\xd0\\xb8\\xd0\\xb5/Bonds.sol\":2661:2704  require(!isIssued, \"Bonds already issued.\") */\n      tag_160\n      jumpi\n      mload(0x40)\n      0x08c379a000000000000000000000000000000000000000000000000000000000\n      dup2\n      mstore\n      0x04\n      add\n      tag_161\n      swap1\n      tag_162\n      jump\t// in\n    tag_161:\n      mload(0x40)\n      dup1\n      swap2\n      sub\n      swap1\n      revert\n    tag_160:\n        /* \"7 \\xd0\\xb7\\xd0\\xb0\\xd0\\xbd\\xd1\\x8f\\xd1\\x82\\xd0\\xb8\\xd0\\xb5/Bonds.sol\":2737:2738  0 */\n      0x00\n        /* \"7 \\xd0\\xb7\\xd0\\xb0\\xd0\\xbd\\xd1\\x8f\\xd1\\x82\\xd0\\xb8\\xd0\\xb5/Bonds.sol\":2723:2734  _totalBonds */\n      dup5\n        /* \"7 \\xd0\\xb7\\xd0\\xb0\\xd0\\xbd\\xd1\\x8f\\xd1\\x82\\xd0\\xb8\\xd0\\xb5/Bonds.sol\":2723:2738  _totalBonds > 0 */\n      gt\n        /* \"7 \\xd0\\xb7\\xd0\\xb0\\xd0\\xbd\\xd1\\x8f\\xd1\\x82\\xd0\\xb8\\xd0\\xb5/Bonds.sol\":2715:2781  require(_totalBonds > 0, \"Total bonds must be greater than zero.\") */\n      tag_163\n      jumpi\n      mload(0x40)\n      0x08c379a000000000000000000000000000000000000000000000000000000000\n      dup2\n      mstore\n      0x04\n      add\n      tag_164\n      swap1\n      tag_165\n      jump\t// in\n    tag_164:\n      mload(0x40)\n      dup1\n      swap2\n      sub\n      swap1\n      revert\n    tag_163:\n        /* \"7 \\xd0\\xb7\\xd0\\xb0\\xd0\\xbd\\xd1\\x8f\\xd1\\x82\\xd0\\xb8\\xd0\\xb5/Bonds.sol\":2813:2814  0 */\n      0x00\n        /* \"7 \\xd0\\xb7\\xd0\\xb0\\xd0\\xbd\\xd1\\x8f\\xd1\\x82\\xd0\\xb8\\xd0\\xb5/Bonds.sol\":2800:2810  _bondPrice */\n      dup4\n        /* \"7 \\xd0\\xb7\\xd0\\xb0\\xd0\\xbd\\xd1\\x8f\\xd1\\x82\\xd0\\xb8\\xd0\\xb5/Bonds.sol\":2800:2814  _bondPrice > 0 */\n      gt\n        /* \"7 \\xd0\\xb7\\xd0\\xb0\\xd0\\xbd\\xd1\\x8f\\xd1\\x82\\xd0\\xb8\\xd0\\xb5/Bonds.sol\":2792:2856  require(_bondPrice > 0, \"Bond price must be greater than zero.\") */\n      tag_166\n      jumpi\n      mload(0x40)\n      0x08c379a000000000000000000000000000000000000000000000000000000000\n      dup2\n      mstore\n      0x04\n      add\n      tag_167\n      swap1\n      tag_168\n      jump\t// in\n    tag_167:\n      mload(0x40)\n      dup1\n      swap2\n      sub\n      swap1\n      revert\n    tag_166:\n        /* \"7 \\xd0\\xb7\\xd0\\xb0\\xd0\\xbd\\xd1\\x8f\\xd1\\x82\\xd0\\xb8\\xd0\\xb5/Bonds.sol\":2891:2892  0 */\n      0x00\n        /* \"7 \\xd0\\xb7\\xd0\\xb0\\xd0\\xbd\\xd1\\x8f\\xd1\\x82\\xd0\\xb8\\xd0\\xb5/Bonds.sol\":2875:2888  _interestRate */\n      dup3\n        /* \"7 \\xd0\\xb7\\xd0\\xb0\\xd0\\xbd\\xd1\\x8f\\xd1\\x82\\xd0\\xb8\\xd0\\xb5/Bonds.sol\":2875:2892  _interestRate > 0 */\n      gt\n        /* \"7 \\xd0\\xb7\\xd0\\xb0\\xd0\\xbd\\xd1\\x8f\\xd1\\x82\\xd0\\xb8\\xd0\\xb5/Bonds.sol\":2867:2937  require(_interestRate > 0, \"Interest rate must be greater than zero.\") */\n      tag_169\n      jumpi\n      mload(0x40)\n      0x08c379a000000000000000000000000000000000000000000000000000000000\n      dup2\n      mstore\n      0x04\n      add\n      tag_170\n      swap1\n      tag_171\n      jump\t// in\n    tag_170:\n      mload(0x40)\n      dup1\n      swap2\n      sub\n      swap1\n      revert\n    tag_169:\n        /* \"7 \\xd0\\xb7\\xd0\\xb0\\xd0\\xbd\\xd1\\x8f\\xd1\\x82\\xd0\\xb8\\xd0\\xb5/Bonds.sol\":2972:2987  block.timestamp */\n      timestamp\n        /* \"7 \\xd0\\xb7\\xd0\\xb0\\xd0\\xbd\\xd1\\x8f\\xd1\\x82\\xd0\\xb8\\xd0\\xb5/Bonds.sol\":2956:2969  _maturityDate */\n      dup2\n        /* \"7 \\xd0\\xb7\\xd0\\xb0\\xd0\\xbd\\xd1\\x8f\\xd1\\x82\\xd0\\xb8\\xd0\\xb5/Bonds.sol\":2956:2987  _maturityDate > block.timestamp */\n      gt\n        /* \"7 \\xd0\\xb7\\xd0\\xb0\\xd0\\xbd\\xd1\\x8f\\xd1\\x82\\xd0\\xb8\\xd0\\xb5/Bonds.sol\":2948:3028  require(_maturityDate > block.timestamp, \"Maturity date must be in the future.\") */\n      tag_172\n      jumpi\n      mload(0x40)\n      0x08c379a000000000000000000000000000000000000000000000000000000000\n      dup2\n      mstore\n      0x04\n      add\n      tag_173\n      swap1\n      tag_174\n      jump\t// in\n    tag_173:\n      mload(0x40)\n      dup1\n      swap2\n      sub\n      swap1\n      revert\n    tag_172:\n        /* \"7 \\xd0\\xb7\\xd0\\xb0\\xd0\\xbd\\xd1\\x8f\\xd1\\x82\\xd0\\xb8\\xd0\\xb5/Bonds.sol\":3054:3065  _totalBonds */\n      dup4\n        /* \"7 \\xd0\\xb7\\xd0\\xb0\\xd0\\xbd\\xd1\\x8f\\xd1\\x82\\xd0\\xb8\\xd0\\xb5/Bonds.sol\":3041:3051  totalBonds */\n      0x01\n        /* \"7 \\xd0\\xb7\\xd0\\xb0\\xd0\\xbd\\xd1\\x8f\\xd1\\x82\\xd0\\xb8\\xd0\\xb5/Bonds.sol\":3041:3065  totalBonds = _totalBonds */\n      dup2\n      swap1\n      sstore\n      pop\n        /* \"7 \\xd0\\xb7\\xd0\\xb0\\xd0\\xbd\\xd1\\x8f\\xd1\\x82\\xd0\\xb8\\xd0\\xb5/Bonds.sol\":3101:3108  1 ether */\n      0x0de0b6b3a7640000\n        /* \"7 \\xd0\\xb7\\xd0\\xb0\\xd0\\xbd\\xd1\\x8f\\xd1\\x82\\xd0\\xb8\\xd0\\xb5/Bonds.sol\":3088:3098  _bondPrice */\n      dup4\n        /* \"7 \\xd0\\xb7\\xd0\\xb0\\xd0\\xbd\\xd1\\x8f\\xd1\\x82\\xd0\\xb8\\xd0\\xb5/Bonds.sol\":3088:3108  _bondPrice * 1 ether */\n      tag_175\n      swap2\n      swap1\n      tag_105\n      jump\t// in\n    tag_175:\n        /* \"7 \\xd0\\xb7\\xd0\\xb0\\xd0\\xbd\\xd1\\x8f\\xd1\\x82\\xd0\\xb8\\xd0\\xb5/Bonds.sol\":3076:3085  bondPrice */\n      0x02\n        /* \"7 \\xd0\\xb7\\xd0\\xb0\\xd0\\xbd\\xd1\\x8f\\xd1\\x82\\xd0\\xb8\\xd0\\xb5/Bonds.sol\":3076:3108  bondPrice = _bondPrice * 1 ether */\n      dup2\n      swap1\n      sstore\n      pop\n        /* \"7 \\xd0\\xb7\\xd0\\xb0\\xd0\\xbd\\xd1\\x8f\\xd1\\x82\\xd0\\xb8\\xd0\\xb5/Bonds.sol\":3134:3147  _interestRate */\n      dup2\n        /* \"7 \\xd0\\xb7\\xd0\\xb0\\xd0\\xbd\\xd1\\x8f\\xd1\\x82\\xd0\\xb8\\xd0\\xb5/Bonds.sol\":3119:3131  interestRate */\n      0x03\n        /* \"7 \\xd0\\xb7\\xd0\\xb0\\xd0\\xbd\\xd1\\x8f\\xd1\\x82\\xd0\\xb8\\xd0\\xb5/Bonds.sol\":3119:3147  interestRate = _interestRate */\n      dup2\n      swap1\n      sstore\n      pop\n        /* \"7 \\xd0\\xb7\\xd0\\xb0\\xd0\\xbd\\xd1\\x8f\\xd1\\x82\\xd0\\xb8\\xd0\\xb5/Bonds.sol\":3173:3186  _maturityDate */\n      dup1\n        /* \"7 \\xd0\\xb7\\xd0\\xb0\\xd0\\xbd\\xd1\\x8f\\xd1\\x82\\xd0\\xb8\\xd0\\xb5/Bonds.sol\":3158:3170  maturityDate */\n      0x05\n        /* \"7 \\xd0\\xb7\\xd0\\xb0\\xd0\\xbd\\xd1\\x8f\\xd1\\x82\\xd0\\xb8\\xd0\\xb5/Bonds.sol\":3158:3186  maturityDate = _maturityDate */\n      dup2\n      swap1\n      sstore\n      pop\n        /* \"7 \\xd0\\xb7\\xd0\\xb0\\xd0\\xbd\\xd1\\x8f\\xd1\\x82\\xd0\\xb8\\xd0\\xb5/Bonds.sol\":3212:3227  block.timestamp */\n      timestamp\n        /* \"7 \\xd0\\xb7\\xd0\\xb0\\xd0\\xbd\\xd1\\x8f\\xd1\\x82\\xd0\\xb8\\xd0\\xb5/Bonds.sol\":3197:3209  issuanceDate */\n      0x04\n        /* \"7 \\xd0\\xb7\\xd0\\xb0\\xd0\\xbd\\xd1\\x8f\\xd1\\x82\\xd0\\xb8\\xd0\\xb5/Bonds.sol\":3197:3227  issuanceDate = block.timestamp */\n      dup2\n      swap1\n      sstore\n      pop\n        /* \"7 \\xd0\\xb7\\xd0\\xb0\\xd0\\xbd\\xd1\\x8f\\xd1\\x82\\xd0\\xb8\\xd0\\xb5/Bonds.sol\":3249:3253  true */\n      0x01\n        /* \"7 \\xd0\\xb7\\xd0\\xb0\\xd0\\xbd\\xd1\\x8f\\xd1\\x82\\xd0\\xb8\\xd0\\xb5/Bonds.sol\":3238:3246  isIssued */\n      0x07\n      0x00\n        /* \"7 \\xd0\\xb7\\xd0\\xb0\\xd0\\xbd\\xd1\\x8f\\xd1\\x82\\xd0\\xb8\\xd0\\xb5/Bonds.sol\":3238:3253  isIssued = true */\n      0x0100\n      exp\n      dup2\n      sload\n      dup2\n      0xff\n      mul\n      not\n      and\n      swap1\n      dup4\n      iszero\n      iszero\n      mul\n      or\n      swap1\n      sstore\n      pop\n        /* \"7 \\xd0\\xb7\\xd0\\xb0\\xd0\\xbd\\xd1\\x8f\\xd1\\x82\\xd0\\xb8\\xd0\\xb5/Bonds.sol\":3271:3333  BondsIssued(totalBonds, bondPrice, interestRate, maturityDate) */\n      0xc4ede3fcf855dc4685871bc70cbff3b97f484d31f715ab9a3ac2d7b14776e2c6\n        /* \"7 \\xd0\\xb7\\xd0\\xb0\\xd0\\xbd\\xd1\\x8f\\xd1\\x82\\xd0\\xb8\\xd0\\xb5/Bonds.sol\":3283:3293  totalBonds */\n      sload(0x01)\n        /* \"7 \\xd0\\xb7\\xd0\\xb0\\xd0\\xbd\\xd1\\x8f\\xd1\\x82\\xd0\\xb8\\xd0\\xb5/Bonds.sol\":3295:3304  bondPrice */\n      sload(0x02)\n        /* \"7 \\xd0\\xb7\\xd0\\xb0\\xd0\\xbd\\xd1\\x8f\\xd1\\x82\\xd0\\xb8\\xd0\\xb5/Bonds.sol\":3306:3318  interestRate */\n      sload(0x03)\n        /* \"7 \\xd0\\xb7\\xd0\\xb0\\xd0\\xbd\\xd1\\x8f\\xd1\\x82\\xd0\\xb8\\xd0\\xb5/Bonds.sol\":3320:3332  maturityDate */\n      sload(0x05)\n        /* \"7 \\xd0\\xb7\\xd0\\xb0\\xd0\\xbd\\xd1\\x8f\\xd1\\x82\\xd0\\xb8\\xd0\\xb5/Bonds.sol\":3271:3333  BondsIssued(totalBonds, bondPrice, interestRate, maturityDate) */\n      mload(0x40)\n      tag_176\n      swap5\n      swap4\n      swap3\n      swap2\n      swap1\n      tag_177\n      jump\t// in\n    tag_176:\n      mload(0x40)\n      dup1\n      swap2\n      sub\n      swap1\n      log1\n        /* \"7 \\xd0\\xb7\\xd0\\xb0\\xd0\\xbd\\xd1\\x8f\\xd1\\x82\\xd0\\xb8\\xd0\\xb5/Bonds.sol\":2523:3341  function issueBonds(uint256 _totalBonds, uint256 _bondPrice, uint256 _interestRate, uint256 _maturityDate) external onlyIssuer {... */\n      pop\n      pop\n      pop\n      pop\n      jump\t// out\n        /* \"7 \\xd0\\xb7\\xd0\\xb0\\xd0\\xbd\\xd1\\x8f\\xd1\\x82\\xd0\\xb8\\xd0\\xb5/Bonds.sol\":446:473  uint256 public issuanceDate */\n    tag_60:\n      sload(0x04)\n      dup2\n      jump\t// out\n        /* \"7 \\xd0\\xb7\\xd0\\xb0\\xd0\\xbd\\xd1\\x8f\\xd1\\x82\\xd0\\xb8\\xd0\\xb5/Bonds.sol\":4939:5635  function calculateTotalPayout() public view onlyIssuer returns (uint256 totalPayout) {... */\n    tag_64:\n        /* \"7 \\xd0\\xb7\\xd0\\xb0\\xd0\\xbd\\xd1\\x8f\\xd1\\x82\\xd0\\xb8\\xd0\\xb5/Bonds.sol\":5003:5022  uint256 totalPayout */\n      0x00\n        /* \"7 \\xd0\\xb7\\xd0\\xb0\\xd0\\xbd\\xd1\\x8f\\xd1\\x82\\xd0\\xb8\\xd0\\xb5/Bonds.sol\":1781:1787  issuer */\n      dup1\n      0x00\n      swap1\n      sload\n      swap1\n      0x0100\n      exp\n      swap1\n      div\n      0xffffffffffffffffffffffffffffffffffffffff\n      and\n        /* \"7 \\xd0\\xb7\\xd0\\xb0\\xd0\\xbd\\xd1\\x8f\\xd1\\x82\\xd0\\xb8\\xd0\\xb5/Bonds.sol\":1767:1787  msg.sender == issuer */\n      0xffffffffffffffffffffffffffffffffffffffff\n      and\n        /* \"7 \\xd0\\xb7\\xd0\\xb0\\xd0\\xbd\\xd1\\x8f\\xd1\\x82\\xd0\\xb8\\xd0\\xb5/Bonds.sol\":1767:1777  msg.sender */\n      caller\n        /* \"7 \\xd0\\xb7\\xd0\\xb0\\xd0\\xbd\\xd1\\x8f\\xd1\\x82\\xd0\\xb8\\xd0\\xb5/Bonds.sol\":1767:1787  msg.sender == issuer */\n      0xffffffffffffffffffffffffffffffffffffffff\n      and\n      eq\n        /* \"7 \\xd0\\xb7\\xd0\\xb0\\xd0\\xbd\\xd1\\x8f\\xd1\\x82\\xd0\\xb8\\xd0\\xb5/Bonds.sol\":1759:1827  require(msg.sender == issuer, \"Only issuer can call this function.\") */\n      tag_179\n      jumpi\n      mload(0x40)\n      0x08c379a000000000000000000000000000000000000000000000000000000000\n      dup2\n      mstore\n      0x04\n      add\n      tag_180\n      swap1\n      tag_95\n      jump\t// in\n    tag_180:\n      mload(0x40)\n      dup1\n      swap2\n      sub\n      swap1\n      revert\n    tag_179:\n        /* \"7 \\xd0\\xb7\\xd0\\xb0\\xd0\\xbd\\xd1\\x8f\\xd1\\x82\\xd0\\xb8\\xd0\\xb5/Bonds.sol\":5062:5074  maturityDate */\n      sload(0x05)\n        /* \"7 \\xd0\\xb7\\xd0\\xb0\\xd0\\xbd\\xd1\\x8f\\xd1\\x82\\xd0\\xb8\\xd0\\xb5/Bonds.sol\":5043:5058  block.timestamp */\n      timestamp\n        /* \"7 \\xd0\\xb7\\xd0\\xb0\\xd0\\xbd\\xd1\\x8f\\xd1\\x82\\xd0\\xb8\\xd0\\xb5/Bonds.sol\":5043:5074  block.timestamp >= maturityDate */\n      lt\n      iszero\n        /* \"7 \\xd0\\xb7\\xd0\\xb0\\xd0\\xbd\\xd1\\x8f\\xd1\\x82\\xd0\\xb8\\xd0\\xb5/Bonds.sol\":5035:5118  require(block.timestamp >= maturityDate, \"Bond redemption period has not started.\") */\n      tag_182\n      jumpi\n      mload(0x40)\n      0x08c379a000000000000000000000000000000000000000000000000000000000\n      dup2\n      mstore\n      0x04\n      add\n      tag_183\n      swap1\n      tag_146\n      jump\t// in\n    tag_183:\n      mload(0x40)\n      dup1\n      swap2\n      sub\n      swap1\n      revert\n    tag_182:\n        /* \"7 \\xd0\\xb7\\xd0\\xb0\\xd0\\xbd\\xd1\\x8f\\xd1\\x82\\xd0\\xb8\\xd0\\xb5/Bonds.sol\":5145:5146  0 */\n      0x00\n        /* \"7 \\xd0\\xb7\\xd0\\xb0\\xd0\\xbd\\xd1\\x8f\\xd1\\x82\\xd0\\xb8\\xd0\\xb5/Bonds.sol\":5131:5146  totalPayout = 0 */\n      swap1\n      pop\n        /* \"7 \\xd0\\xb7\\xd0\\xb0\\xd0\\xbd\\xd1\\x8f\\xd1\\x82\\xd0\\xb8\\xd0\\xb5/Bonds.sol\":5162:5171  uint256 i */\n      0x00\n        /* \"7 \\xd0\\xb7\\xd0\\xb0\\xd0\\xbd\\xd1\\x8f\\xd1\\x82\\xd0\\xb8\\xd0\\xb5/Bonds.sol\":5157:5628  for (uint256 i = 0; i < totalInvestors; i++) {... */\n    tag_184:\n        /* \"7 \\xd0\\xb7\\xd0\\xb0\\xd0\\xbd\\xd1\\x8f\\xd1\\x82\\xd0\\xb8\\xd0\\xb5/Bonds.sol\":5181:5195  totalInvestors */\n      sload(0x0b)\n        /* \"7 \\xd0\\xb7\\xd0\\xb0\\xd0\\xbd\\xd1\\x8f\\xd1\\x82\\xd0\\xb8\\xd0\\xb5/Bonds.sol\":5177:5178  i */\n      dup2\n        /* \"7 \\xd0\\xb7\\xd0\\xb0\\xd0\\xbd\\xd1\\x8f\\xd1\\x82\\xd0\\xb8\\xd0\\xb5/Bonds.sol\":5177:5195  i < totalInvestors */\n      lt\n        /* \"7 \\xd0\\xb7\\xd0\\xb0\\xd0\\xbd\\xd1\\x8f\\xd1\\x82\\xd0\\xb8\\xd0\\xb5/Bonds.sol\":5157:5628  for (uint256 i = 0; i < totalInvestors; i++) {... */\n      iszero\n      tag_185\n      jumpi\n        /* \"7 \\xd0\\xb7\\xd0\\xb0\\xd0\\xbd\\xd1\\x8f\\xd1\\x82\\xd0\\xb8\\xd0\\xb5/Bonds.sol\":5217:5233  address investor */\n      0x00\n        /* \"7 \\xd0\\xb7\\xd0\\xb0\\xd0\\xbd\\xd1\\x8f\\xd1\\x82\\xd0\\xb8\\xd0\\xb5/Bonds.sol\":5236:5245  investors */\n      0x0a\n        /* \"7 \\xd0\\xb7\\xd0\\xb0\\xd0\\xbd\\xd1\\x8f\\xd1\\x82\\xd0\\xb8\\xd0\\xb5/Bonds.sol\":5246:5247  i */\n      dup3\n        /* \"7 \\xd0\\xb7\\xd0\\xb0\\xd0\\xbd\\xd1\\x8f\\xd1\\x82\\xd0\\xb8\\xd0\\xb5/Bonds.sol\":5236:5248  investors[i] */\n      dup2\n      sload\n      dup2\n      lt\n      tag_187\n      jumpi\n      tag_188\n      tag_189\n      jump\t// in\n    tag_188:\n    tag_187:\n      swap1\n      0x00\n      mstore\n      keccak256(0x00, 0x20)\n      add\n      0x00\n      swap1\n      sload\n      swap1\n      0x0100\n      exp\n      swap1\n      div\n      0xffffffffffffffffffffffffffffffffffffffff\n      and\n        /* \"7 \\xd0\\xb7\\xd0\\xb0\\xd0\\xbd\\xd1\\x8f\\xd1\\x82\\xd0\\xb8\\xd0\\xb5/Bonds.sol\":5217:5248  address investor = investors[i] */\n      swap1\n      pop\n        /* \"7 \\xd0\\xb7\\xd0\\xb0\\xd0\\xbd\\xd1\\x8f\\xd1\\x82\\xd0\\xb8\\xd0\\xb5/Bonds.sol\":5263:5277  uint256 amount */\n      0x00\n        /* \"7 \\xd0\\xb7\\xd0\\xb0\\xd0\\xbd\\xd1\\x8f\\xd1\\x82\\xd0\\xb8\\xd0\\xb5/Bonds.sol\":5280:5291  bondHolders */\n      0x08\n        /* \"7 \\xd0\\xb7\\xd0\\xb0\\xd0\\xbd\\xd1\\x8f\\xd1\\x82\\xd0\\xb8\\xd0\\xb5/Bonds.sol\":5280:5301  bondHolders[investor] */\n      0x00\n        /* \"7 \\xd0\\xb7\\xd0\\xb0\\xd0\\xbd\\xd1\\x8f\\xd1\\x82\\xd0\\xb8\\xd0\\xb5/Bonds.sol\":5292:5300  investor */\n      dup4\n        /* \"7 \\xd0\\xb7\\xd0\\xb0\\xd0\\xbd\\xd1\\x8f\\xd1\\x82\\xd0\\xb8\\xd0\\xb5/Bonds.sol\":5280:5301  bondHolders[investor] */\n      0xffffffffffffffffffffffffffffffffffffffff\n      and\n      0xffffffffffffffffffffffffffffffffffffffff\n      and\n      dup2\n      mstore\n      0x20\n      add\n      swap1\n      dup2\n      mstore\n      0x20\n      add\n      0x00\n      keccak256\n      sload\n        /* \"7 \\xd0\\xb7\\xd0\\xb0\\xd0\\xbd\\xd1\\x8f\\xd1\\x82\\xd0\\xb8\\xd0\\xb5/Bonds.sol\":5263:5301  uint256 amount = bondHolders[investor] */\n      swap1\n      pop\n        /* \"7 \\xd0\\xb7\\xd0\\xb0\\xd0\\xbd\\xd1\\x8f\\xd1\\x82\\xd0\\xb8\\xd0\\xb5/Bonds.sol\":5329:5330  0 */\n      0x00\n        /* \"7 \\xd0\\xb7\\xd0\\xb0\\xd0\\xbd\\xd1\\x8f\\xd1\\x82\\xd0\\xb8\\xd0\\xb5/Bonds.sol\":5320:5326  amount */\n      dup2\n        /* \"7 \\xd0\\xb7\\xd0\\xb0\\xd0\\xbd\\xd1\\x8f\\xd1\\x82\\xd0\\xb8\\xd0\\xb5/Bonds.sol\":5320:5330  amount > 0 */\n      gt\n        /* \"7 \\xd0\\xb7\\xd0\\xb0\\xd0\\xbd\\xd1\\x8f\\xd1\\x82\\xd0\\xb8\\xd0\\xb5/Bonds.sol\":5316:5617  if (amount > 0) {... */\n      iszero\n      tag_191\n      jumpi\n        /* \"7 \\xd0\\xb7\\xd0\\xb0\\xd0\\xbd\\xd1\\x8f\\xd1\\x82\\xd0\\xb8\\xd0\\xb5/Bonds.sol\":5351:5370  uint256 totalAmount */\n      0x00\n        /* \"7 \\xd0\\xb7\\xd0\\xb0\\xd0\\xbd\\xd1\\x8f\\xd1\\x82\\xd0\\xb8\\xd0\\xb5/Bonds.sol\":5382:5391  bondPrice */\n      sload(0x02)\n        /* \"7 \\xd0\\xb7\\xd0\\xb0\\xd0\\xbd\\xd1\\x8f\\xd1\\x82\\xd0\\xb8\\xd0\\xb5/Bonds.sol\":5373:5379  amount */\n      dup3\n        /* \"7 \\xd0\\xb7\\xd0\\xb0\\xd0\\xbd\\xd1\\x8f\\xd1\\x82\\xd0\\xb8\\xd0\\xb5/Bonds.sol\":5373:5391  amount * bondPrice */\n      tag_192\n      swap2\n      swap1\n      tag_105\n      jump\t// in\n    tag_192:\n        /* \"7 \\xd0\\xb7\\xd0\\xb0\\xd0\\xbd\\xd1\\x8f\\xd1\\x82\\xd0\\xb8\\xd0\\xb5/Bonds.sol\":5351:5391  uint256 totalAmount = amount * bondPrice */\n      swap1\n      pop\n        /* \"7 \\xd0\\xb7\\xd0\\xb0\\xd0\\xbd\\xd1\\x8f\\xd1\\x82\\xd0\\xb8\\xd0\\xb5/Bonds.sol\":5410:5426  uint256 interest */\n      0x00\n        /* \"7 \\xd0\\xb7\\xd0\\xb0\\xd0\\xbd\\xd1\\x8f\\xd1\\x82\\xd0\\xb8\\xd0\\xb5/Bonds.sol\":5493:5505  1 days * 100 */\n      0x83d600\n        /* \"7 \\xd0\\xb7\\xd0\\xb0\\xd0\\xbd\\xd1\\x8f\\xd1\\x82\\xd0\\xb8\\xd0\\xb5/Bonds.sol\":5475:5487  issuanceDate */\n      sload(0x04)\n        /* \"7 \\xd0\\xb7\\xd0\\xb0\\xd0\\xbd\\xd1\\x8f\\xd1\\x82\\xd0\\xb8\\xd0\\xb5/Bonds.sol\":5460:5472  maturityDate */\n      sload(0x05)\n        /* \"7 \\xd0\\xb7\\xd0\\xb0\\xd0\\xbd\\xd1\\x8f\\xd1\\x82\\xd0\\xb8\\xd0\\xb5/Bonds.sol\":5460:5487  maturityDate - issuanceDate */\n      tag_193\n      swap2\n      swap1\n      tag_107\n      jump\t// in\n    tag_193:\n        /* \"7 \\xd0\\xb7\\xd0\\xb0\\xd0\\xbd\\xd1\\x8f\\xd1\\x82\\xd0\\xb8\\xd0\\xb5/Bonds.sol\":5444:5456  interestRate */\n      sload(0x03)\n        /* \"7 \\xd0\\xb7\\xd0\\xb0\\xd0\\xbd\\xd1\\x8f\\xd1\\x82\\xd0\\xb8\\xd0\\xb5/Bonds.sol\":5430:5441  totalAmount */\n      dup5\n        /* \"7 \\xd0\\xb7\\xd0\\xb0\\xd0\\xbd\\xd1\\x8f\\xd1\\x82\\xd0\\xb8\\xd0\\xb5/Bonds.sol\":5430:5456  totalAmount * interestRate */\n      tag_194\n      swap2\n      swap1\n      tag_105\n      jump\t// in\n    tag_194:\n        /* \"7 \\xd0\\xb7\\xd0\\xb0\\xd0\\xbd\\xd1\\x8f\\xd1\\x82\\xd0\\xb8\\xd0\\xb5/Bonds.sol\":5430:5488  totalAmount * interestRate * (maturityDate - issuanceDate) */\n      tag_195\n      swap2\n      swap1\n      tag_105\n      jump\t// in\n    tag_195:\n        /* \"7 \\xd0\\xb7\\xd0\\xb0\\xd0\\xbd\\xd1\\x8f\\xd1\\x82\\xd0\\xb8\\xd0\\xb5/Bonds.sol\":5429:5506  (totalAmount * interestRate * (maturityDate - issuanceDate)) / (1 days * 100) */\n      tag_196\n      swap2\n      swap1\n      tag_111\n      jump\t// in\n    tag_196:\n        /* \"7 \\xd0\\xb7\\xd0\\xb0\\xd0\\xbd\\xd1\\x8f\\xd1\\x82\\xd0\\xb8\\xd0\\xb5/Bonds.sol\":5410:5506  uint256 interest = (totalAmount * interestRate * (maturityDate - issuanceDate)) / (1 days * 100) */\n      swap1\n      pop\n        /* \"7 \\xd0\\xb7\\xd0\\xb0\\xd0\\xbd\\xd1\\x8f\\xd1\\x82\\xd0\\xb8\\xd0\\xb5/Bonds.sol\":5593:5601  interest */\n      dup1\n        /* \"7 \\xd0\\xb7\\xd0\\xb0\\xd0\\xbd\\xd1\\x8f\\xd1\\x82\\xd0\\xb8\\xd0\\xb5/Bonds.sol\":5579:5590  totalAmount */\n      dup3\n        /* \"7 \\xd0\\xb7\\xd0\\xb0\\xd0\\xbd\\xd1\\x8f\\xd1\\x82\\xd0\\xb8\\xd0\\xb5/Bonds.sol\":5579:5601  totalAmount + interest */\n      tag_197\n      swap2\n      swap1\n      tag_113\n      jump\t// in\n    tag_197:\n        /* \"7 \\xd0\\xb7\\xd0\\xb0\\xd0\\xbd\\xd1\\x8f\\xd1\\x82\\xd0\\xb8\\xd0\\xb5/Bonds.sol\":5564:5601  totalPayout += totalAmount + interest */\n      dup7\n      tag_198\n      swap2\n      swap1\n      tag_113\n      jump\t// in\n    tag_198:\n      swap6\n      pop\n        /* \"7 \\xd0\\xb7\\xd0\\xb0\\xd0\\xbd\\xd1\\x8f\\xd1\\x82\\xd0\\xb8\\xd0\\xb5/Bonds.sol\":5332:5617  {... */\n      pop\n      pop\n        /* \"7 \\xd0\\xb7\\xd0\\xb0\\xd0\\xbd\\xd1\\x8f\\xd1\\x82\\xd0\\xb8\\xd0\\xb5/Bonds.sol\":5316:5617  if (amount > 0) {... */\n    tag_191:\n        /* \"7 \\xd0\\xb7\\xd0\\xb0\\xd0\\xbd\\xd1\\x8f\\xd1\\x82\\xd0\\xb8\\xd0\\xb5/Bonds.sol\":5202:5628  {... */\n      pop\n      pop\n        /* \"7 \\xd0\\xb7\\xd0\\xb0\\xd0\\xbd\\xd1\\x8f\\xd1\\x82\\xd0\\xb8\\xd0\\xb5/Bonds.sol\":5197:5200  i++ */\n      dup1\n      dup1\n      0x01\n      add\n      swap2\n      pop\n      pop\n        /* \"7 \\xd0\\xb7\\xd0\\xb0\\xd0\\xbd\\xd1\\x8f\\xd1\\x82\\xd0\\xb8\\xd0\\xb5/Bonds.sol\":5157:5628  for (uint256 i = 0; i < totalInvestors; i++) {... */\n      jump(tag_184)\n    tag_185:\n      pop\n        /* \"7 \\xd0\\xb7\\xd0\\xb0\\xd0\\xbd\\xd1\\x8f\\xd1\\x82\\xd0\\xb8\\xd0\\xb5/Bonds.sol\":4939:5635  function calculateTotalPayout() public view onlyIssuer returns (uint256 totalPayout) {... */\n      swap1\n      jump\t// out\n        /* \"7 \\xd0\\xb7\\xd0\\xb0\\xd0\\xbd\\xd1\\x8f\\xd1\\x82\\xd0\\xb8\\xd0\\xb5/Bonds.sol\":679:699  bool public isIssued */\n    tag_68:\n      0x07\n      0x00\n      swap1\n      sload\n      swap1\n      0x0100\n      exp\n      swap1\n      div\n      0xff\n      and\n      dup2\n      jump\t// out\n        /* \"7 \\xd0\\xb7\\xd0\\xb0\\xd0\\xbd\\xd1\\x8f\\xd1\\x82\\xd0\\xb8\\xd0\\xb5/Bonds.sol\":4483:4755  function withdrawFundsBeforeMaturity() external onlyIssuer onlyBeforeMaturity {... */\n    tag_73:\n        /* \"7 \\xd0\\xb7\\xd0\\xb0\\xd0\\xbd\\xd1\\x8f\\xd1\\x82\\xd0\\xb8\\xd0\\xb5/Bonds.sol\":1781:1787  issuer */\n      0x00\n      dup1\n      sload\n      swap1\n      0x0100\n      exp\n      swap1\n      div\n      0xffffffffffffffffffffffffffffffffffffffff\n      and\n        /* \"7 \\xd0\\xb7\\xd0\\xb0\\xd0\\xbd\\xd1\\x8f\\xd1\\x82\\xd0\\xb8\\xd0\\xb5/Bonds.sol\":1767:1787  msg.sender == issuer */\n      0xffffffffffffffffffffffffffffffffffffffff\n      and\n        /* \"7 \\xd0\\xb7\\xd0\\xb0\\xd0\\xbd\\xd1\\x8f\\xd1\\x82\\xd0\\xb8\\xd0\\xb5/Bonds.sol\":1767:1777  msg.sender */\n      caller\n        /* \"7 \\xd0\\xb7\\xd0\\xb0\\xd0\\xbd\\xd1\\x8f\\xd1\\x82\\xd0\\xb8\\xd0\\xb5/Bonds.sol\":1767:1787  msg.sender == issuer */\n      0xffffffffffffffffffffffffffffffffffffffff\n      and\n      eq\n        /* \"7 \\xd0\\xb7\\xd0\\xb0\\xd0\\xbd\\xd1\\x8f\\xd1\\x82\\xd0\\xb8\\xd0\\xb5/Bonds.sol\":1759:1827  require(msg.sender == issuer, \"Only issuer can call this function.\") */\n      tag_200\n      jumpi\n      mload(0x40)\n      0x08c379a000000000000000000000000000000000000000000000000000000000\n      dup2\n      mstore\n      0x04\n      add\n      tag_201\n      swap1\n      tag_95\n      jump\t// in\n    tag_201:\n      mload(0x40)\n      dup1\n      swap2\n      sub\n      swap1\n      revert\n    tag_200:\n        /* \"7 \\xd0\\xb7\\xd0\\xb0\\xd0\\xbd\\xd1\\x8f\\xd1\\x82\\xd0\\xb8\\xd0\\xb5/Bonds.sol\":2037:2049  maturityDate */\n      sload(0x05)\n        /* \"7 \\xd0\\xb7\\xd0\\xb0\\xd0\\xbd\\xd1\\x8f\\xd1\\x82\\xd0\\xb8\\xd0\\xb5/Bonds.sol\":2019:2034  block.timestamp */\n      timestamp\n        /* \"7 \\xd0\\xb7\\xd0\\xb0\\xd0\\xbd\\xd1\\x8f\\xd1\\x82\\xd0\\xb8\\xd0\\xb5/Bonds.sol\":2019:2049  block.timestamp < maturityDate */\n      lt\n        /* \"7 \\xd0\\xb7\\xd0\\xb0\\xd0\\xbd\\xd1\\x8f\\xd1\\x82\\xd0\\xb8\\xd0\\xb5/Bonds.sol\":2011:2081  require(block.timestamp < maturityDate, \"Bond sale period has ended.\") */\n      tag_203\n      jumpi\n      mload(0x40)\n      0x08c379a000000000000000000000000000000000000000000000000000000000\n      dup2\n      mstore\n      0x04\n      add\n      tag_204\n      swap1\n      tag_117\n      jump\t// in\n    tag_204:\n      mload(0x40)\n      dup1\n      swap2\n      sub\n      swap1\n      revert\n    tag_203:\n        /* \"7 \\xd0\\xb7\\xd0\\xb0\\xd0\\xbd\\xd1\\x8f\\xd1\\x82\\xd0\\xb8\\xd0\\xb5/Bonds.sol\":4572:4595  uint256 contractBalance */\n      0x00\n        /* \"7 \\xd0\\xb7\\xd0\\xb0\\xd0\\xbd\\xd1\\x8f\\xd1\\x82\\xd0\\xb8\\xd0\\xb5/Bonds.sol\":4598:4619  address(this).balance */\n      selfbalance\n        /* \"7 \\xd0\\xb7\\xd0\\xb0\\xd0\\xbd\\xd1\\x8f\\xd1\\x82\\xd0\\xb8\\xd0\\xb5/Bonds.sol\":4572:4619  uint256 contractBalance = address(this).balance */\n      swap1\n      pop\n        /* \"7 \\xd0\\xb7\\xd0\\xb0\\xd0\\xbd\\xd1\\x8f\\xd1\\x82\\xd0\\xb8\\xd0\\xb5/Bonds.sol\":4656:4657  0 */\n      0x00\n        /* \"7 \\xd0\\xb7\\xd0\\xb0\\xd0\\xbd\\xd1\\x8f\\xd1\\x82\\xd0\\xb8\\xd0\\xb5/Bonds.sol\":4638:4653  contractBalance */\n      dup2\n        /* \"7 \\xd0\\xb7\\xd0\\xb0\\xd0\\xbd\\xd1\\x8f\\xd1\\x82\\xd0\\xb8\\xd0\\xb5/Bonds.sol\":4638:4657  contractBalance > 0 */\n      gt\n        /* \"7 \\xd0\\xb7\\xd0\\xb0\\xd0\\xbd\\xd1\\x8f\\xd1\\x82\\xd0\\xb8\\xd0\\xb5/Bonds.sol\":4630:4693  require(contractBalance > 0, \"No funds available to withdraw.\") */\n      tag_206\n      jumpi\n      mload(0x40)\n      0x08c379a000000000000000000000000000000000000000000000000000000000\n      dup2\n      mstore\n      0x04\n      add\n      tag_207\n      swap1\n      tag_208\n      jump\t// in\n    tag_207:\n      mload(0x40)\n      dup1\n      swap2\n      sub\n      swap1\n      revert\n    tag_206:\n        /* \"7 \\xd0\\xb7\\xd0\\xb0\\xd0\\xbd\\xd1\\x8f\\xd1\\x82\\xd0\\xb8\\xd0\\xb5/Bonds.sol\":4714:4720  issuer */\n      0x00\n      dup1\n      sload\n      swap1\n      0x0100\n      exp\n      swap1\n      div\n      0xffffffffffffffffffffffffffffffffffffffff\n      and\n        /* \"7 \\xd0\\xb7\\xd0\\xb0\\xd0\\xbd\\xd1\\x8f\\xd1\\x82\\xd0\\xb8\\xd0\\xb5/Bonds.sol\":4706:4730  payable(issuer).transfer */\n      0xffffffffffffffffffffffffffffffffffffffff\n      and\n        /* \"7 \\xd0\\xb7\\xd0\\xb0\\xd0\\xbd\\xd1\\x8f\\xd1\\x82\\xd0\\xb8\\xd0\\xb5/Bonds.sol\":4706:4747  payable(issuer).transfer(contractBalance) */\n      0x08fc\n        /* \"7 \\xd0\\xb7\\xd0\\xb0\\xd0\\xbd\\xd1\\x8f\\xd1\\x82\\xd0\\xb8\\xd0\\xb5/Bonds.sol\":4731:4746  contractBalance */\n      dup3\n        /* \"7 \\xd0\\xb7\\xd0\\xb0\\xd0\\xbd\\xd1\\x8f\\xd1\\x82\\xd0\\xb8\\xd0\\xb5/Bonds.sol\":4706:4747  payable(issuer).transfer(contractBalance) */\n      swap1\n      dup2\n      iszero\n      mul\n      swap1\n      mload(0x40)\n      0x00\n      mload(0x40)\n      dup1\n      dup4\n      sub\n      dup2\n      dup6\n      dup9\n      dup9\n      call\n      swap4\n      pop\n      pop\n      pop\n      pop\n      iszero\n      dup1\n      iszero\n      tag_210\n      jumpi\n      returndatasize\n      0x00\n      dup1\n      returndatacopy\n      revert(0x00, returndatasize)\n    tag_210:\n      pop\n        /* \"7 \\xd0\\xb7\\xd0\\xb0\\xd0\\xbd\\xd1\\x8f\\xd1\\x82\\xd0\\xb8\\xd0\\xb5/Bonds.sol\":4561:4755  {... */\n      pop\n        /* \"7 \\xd0\\xb7\\xd0\\xb0\\xd0\\xbd\\xd1\\x8f\\xd1\\x82\\xd0\\xb8\\xd0\\xb5/Bonds.sol\":4483:4755  function withdrawFundsBeforeMaturity() external onlyIssuer onlyBeforeMaturity {... */\n      jump\t// out\n        /* \"7 \\xd0\\xb7\\xd0\\xb0\\xd0\\xbd\\xd1\\x8f\\xd1\\x82\\xd0\\xb8\\xd0\\xb5/Bonds.sol\":526:553  uint256 public maturityDate */\n    tag_76:\n      sload(0x05)\n      dup2\n      jump\t// out\n        /* \"7 \\xd0\\xb7\\xd0\\xb0\\xd0\\xbd\\xd1\\x8f\\xd1\\x82\\xd0\\xb8\\xd0\\xb5/Bonds.sol\":292:316  uint256 public bondPrice */\n    tag_80:\n      sload(0x02)\n      dup2\n      jump\t// out\n        /* \"7 \\xd0\\xb7\\xd0\\xb0\\xd0\\xbd\\xd1\\x8f\\xd1\\x82\\xd0\\xb8\\xd0\\xb5/Bonds.sol\":6727:7402  function redeemBonds() external onlyAfterMaturity {... */\n    tag_84:\n        /* \"7 \\xd0\\xb7\\xd0\\xb0\\xd0\\xbd\\xd1\\x8f\\xd1\\x82\\xd0\\xb8\\xd0\\xb5/Bonds.sol\":2297:2309  maturityDate */\n      sload(0x05)\n        /* \"7 \\xd0\\xb7\\xd0\\xb0\\xd0\\xbd\\xd1\\x8f\\xd1\\x82\\xd0\\xb8\\xd0\\xb5/Bonds.sol\":2278:2293  block.timestamp */\n      timestamp\n        /* \"7 \\xd0\\xb7\\xd0\\xb0\\xd0\\xbd\\xd1\\x8f\\xd1\\x82\\xd0\\xb8\\xd0\\xb5/Bonds.sol\":2278:2309  block.timestamp >= maturityDate */\n      lt\n      iszero\n        /* \"7 \\xd0\\xb7\\xd0\\xb0\\xd0\\xbd\\xd1\\x8f\\xd1\\x82\\xd0\\xb8\\xd0\\xb5/Bonds.sol\":2270:2353  require(block.timestamp >= maturityDate, \"Bond redemption period has not started.\") */\n      tag_212\n      jumpi\n      mload(0x40)\n      0x08c379a000000000000000000000000000000000000000000000000000000000\n      dup2\n      mstore\n      0x04\n      add\n      tag_213\n      swap1\n      tag_146\n      jump\t// in\n    tag_213:\n      mload(0x40)\n      dup1\n      swap2\n      sub\n      swap1\n      revert\n    tag_212:\n        /* \"7 \\xd0\\xb7\\xd0\\xb0\\xd0\\xbd\\xd1\\x8f\\xd1\\x82\\xd0\\xb8\\xd0\\xb5/Bonds.sol\":6788:6802  uint256 amount */\n      0x00\n        /* \"7 \\xd0\\xb7\\xd0\\xb0\\xd0\\xbd\\xd1\\x8f\\xd1\\x82\\xd0\\xb8\\xd0\\xb5/Bonds.sol\":6805:6816  bondHolders */\n      0x08\n        /* \"7 \\xd0\\xb7\\xd0\\xb0\\xd0\\xbd\\xd1\\x8f\\xd1\\x82\\xd0\\xb8\\xd0\\xb5/Bonds.sol\":6805:6828  bondHolders[msg.sender] */\n      0x00\n        /* \"7 \\xd0\\xb7\\xd0\\xb0\\xd0\\xbd\\xd1\\x8f\\xd1\\x82\\xd0\\xb8\\xd0\\xb5/Bonds.sol\":6817:6827  msg.sender */\n      caller\n        /* \"7 \\xd0\\xb7\\xd0\\xb0\\xd0\\xbd\\xd1\\x8f\\xd1\\x82\\xd0\\xb8\\xd0\\xb5/Bonds.sol\":6805:6828  bondHolders[msg.sender] */\n      0xffffffffffffffffffffffffffffffffffffffff\n      and\n      0xffffffffffffffffffffffffffffffffffffffff\n      and\n      dup2\n      mstore\n      0x20\n      add\n      swap1\n      dup2\n      mstore\n      0x20\n      add\n      0x00\n      keccak256\n      sload\n        /* \"7 \\xd0\\xb7\\xd0\\xb0\\xd0\\xbd\\xd1\\x8f\\xd1\\x82\\xd0\\xb8\\xd0\\xb5/Bonds.sol\":6788:6828  uint256 amount = bondHolders[msg.sender] */\n      swap1\n      pop\n        /* \"7 \\xd0\\xb7\\xd0\\xb0\\xd0\\xbd\\xd1\\x8f\\xd1\\x82\\xd0\\xb8\\xd0\\xb5/Bonds.sol\":6856:6857  0 */\n      0x00\n        /* \"7 \\xd0\\xb7\\xd0\\xb0\\xd0\\xbd\\xd1\\x8f\\xd1\\x82\\xd0\\xb8\\xd0\\xb5/Bonds.sol\":6847:6853  amount */\n      dup2\n        /* \"7 \\xd0\\xb7\\xd0\\xb0\\xd0\\xbd\\xd1\\x8f\\xd1\\x82\\xd0\\xb8\\xd0\\xb5/Bonds.sol\":6847:6857  amount > 0 */\n      gt\n        /* \"7 \\xd0\\xb7\\xd0\\xb0\\xd0\\xbd\\xd1\\x8f\\xd1\\x82\\xd0\\xb8\\xd0\\xb5/Bonds.sol\":6839:6894  require(amount > 0, \"You do not have bonds to redeem.\") */\n      tag_215\n      jumpi\n      mload(0x40)\n      0x08c379a000000000000000000000000000000000000000000000000000000000\n      dup2\n      mstore\n      0x04\n      add\n      tag_216\n      swap1\n      tag_103\n      jump\t// in\n    tag_216:\n      mload(0x40)\n      dup1\n      swap2\n      sub\n      swap1\n      revert\n    tag_215:\n        /* \"7 \\xd0\\xb7\\xd0\\xb0\\xd0\\xbd\\xd1\\x8f\\xd1\\x82\\xd0\\xb8\\xd0\\xb5/Bonds.sol\":6907:6926  uint256 totalAmount */\n      0x00\n        /* \"7 \\xd0\\xb7\\xd0\\xb0\\xd0\\xbd\\xd1\\x8f\\xd1\\x82\\xd0\\xb8\\xd0\\xb5/Bonds.sol\":6938:6947  bondPrice */\n      sload(0x02)\n        /* \"7 \\xd0\\xb7\\xd0\\xb0\\xd0\\xbd\\xd1\\x8f\\xd1\\x82\\xd0\\xb8\\xd0\\xb5/Bonds.sol\":6929:6935  amount */\n      dup3\n        /* \"7 \\xd0\\xb7\\xd0\\xb0\\xd0\\xbd\\xd1\\x8f\\xd1\\x82\\xd0\\xb8\\xd0\\xb5/Bonds.sol\":6929:6947  amount * bondPrice */\n      tag_217\n      swap2\n      swap1\n      tag_105\n      jump\t// in\n    tag_217:\n        /* \"7 \\xd0\\xb7\\xd0\\xb0\\xd0\\xbd\\xd1\\x8f\\xd1\\x82\\xd0\\xb8\\xd0\\xb5/Bonds.sol\":6907:6947  uint256 totalAmount = amount * bondPrice */\n      swap1\n      pop\n        /* \"7 \\xd0\\xb7\\xd0\\xb0\\xd0\\xbd\\xd1\\x8f\\xd1\\x82\\xd0\\xb8\\xd0\\xb5/Bonds.sol\":6958:6974  uint256 interest */\n      0x00\n        /* \"7 \\xd0\\xb7\\xd0\\xb0\\xd0\\xbd\\xd1\\x8f\\xd1\\x82\\xd0\\xb8\\xd0\\xb5/Bonds.sol\":7041:7053  1 days * 100 */\n      0x83d600\n        /* \"7 \\xd0\\xb7\\xd0\\xb0\\xd0\\xbd\\xd1\\x8f\\xd1\\x82\\xd0\\xb8\\xd0\\xb5/Bonds.sol\":7023:7035  issuanceDate */\n      sload(0x04)\n        /* \"7 \\xd0\\xb7\\xd0\\xb0\\xd0\\xbd\\xd1\\x8f\\xd1\\x82\\xd0\\xb8\\xd0\\xb5/Bonds.sol\":7008:7020  maturityDate */\n      sload(0x05)\n        /* \"7 \\xd0\\xb7\\xd0\\xb0\\xd0\\xbd\\xd1\\x8f\\xd1\\x82\\xd0\\xb8\\xd0\\xb5/Bonds.sol\":7008:7035  maturityDate - issuanceDate */\n      tag_218\n      swap2\n      swap1\n      tag_107\n      jump\t// in\n    tag_218:\n        /* \"7 \\xd0\\xb7\\xd0\\xb0\\xd0\\xbd\\xd1\\x8f\\xd1\\x82\\xd0\\xb8\\xd0\\xb5/Bonds.sol\":6992:7004  interestRate */\n      sload(0x03)\n        /* \"7 \\xd0\\xb7\\xd0\\xb0\\xd0\\xbd\\xd1\\x8f\\xd1\\x82\\xd0\\xb8\\xd0\\xb5/Bonds.sol\":6978:6989  totalAmount */\n      dup5\n        /* \"7 \\xd0\\xb7\\xd0\\xb0\\xd0\\xbd\\xd1\\x8f\\xd1\\x82\\xd0\\xb8\\xd0\\xb5/Bonds.sol\":6978:7004  totalAmount * interestRate */\n      tag_219\n      swap2\n      swap1\n      tag_105\n      jump\t// in\n    tag_219:\n        /* \"7 \\xd0\\xb7\\xd0\\xb0\\xd0\\xbd\\xd1\\x8f\\xd1\\x82\\xd0\\xb8\\xd0\\xb5/Bonds.sol\":6978:7036  totalAmount * interestRate * (maturityDate - issuanceDate) */\n      tag_220\n      swap2\n      swap1\n      tag_105\n      jump\t// in\n    tag_220:\n        /* \"7 \\xd0\\xb7\\xd0\\xb0\\xd0\\xbd\\xd1\\x8f\\xd1\\x82\\xd0\\xb8\\xd0\\xb5/Bonds.sol\":6977:7054  (totalAmount * interestRate * (maturityDate - issuanceDate)) / (1 days * 100) */\n      tag_221\n      swap2\n      swap1\n      tag_111\n      jump\t// in\n    tag_221:\n        /* \"7 \\xd0\\xb7\\xd0\\xb0\\xd0\\xbd\\xd1\\x8f\\xd1\\x82\\xd0\\xb8\\xd0\\xb5/Bonds.sol\":6958:7054  uint256 interest = (totalAmount * interestRate * (maturityDate - issuanceDate)) / (1 days * 100) */\n      swap1\n      pop\n        /* \"7 \\xd0\\xb7\\xd0\\xb0\\xd0\\xbd\\xd1\\x8f\\xd1\\x82\\xd0\\xb8\\xd0\\xb5/Bonds.sol\":7104:7123  uint256 totalPayout */\n      0x00\n        /* \"7 \\xd0\\xb7\\xd0\\xb0\\xd0\\xbd\\xd1\\x8f\\xd1\\x82\\xd0\\xb8\\xd0\\xb5/Bonds.sol\":7140:7148  interest */\n      dup2\n        /* \"7 \\xd0\\xb7\\xd0\\xb0\\xd0\\xbd\\xd1\\x8f\\xd1\\x82\\xd0\\xb8\\xd0\\xb5/Bonds.sol\":7126:7137  totalAmount */\n      dup4\n        /* \"7 \\xd0\\xb7\\xd0\\xb0\\xd0\\xbd\\xd1\\x8f\\xd1\\x82\\xd0\\xb8\\xd0\\xb5/Bonds.sol\":7126:7148  totalAmount + interest */\n      tag_222\n      swap2\n      swap1\n      tag_113\n      jump\t// in\n    tag_222:\n        /* \"7 \\xd0\\xb7\\xd0\\xb0\\xd0\\xbd\\xd1\\x8f\\xd1\\x82\\xd0\\xb8\\xd0\\xb5/Bonds.sol\":7104:7148  uint256 totalPayout = totalAmount + interest */\n      swap1\n      pop\n        /* \"7 \\xd0\\xb7\\xd0\\xb0\\xd0\\xbd\\xd1\\x8f\\xd1\\x82\\xd0\\xb8\\xd0\\xb5/Bonds.sol\":7194:7205  totalPayout */\n      dup1\n        /* \"7 \\xd0\\xb7\\xd0\\xb0\\xd0\\xbd\\xd1\\x8f\\xd1\\x82\\xd0\\xb8\\xd0\\xb5/Bonds.sol\":7169:7190  address(this).balance */\n      selfbalance\n        /* \"7 \\xd0\\xb7\\xd0\\xb0\\xd0\\xbd\\xd1\\x8f\\xd1\\x82\\xd0\\xb8\\xd0\\xb5/Bonds.sol\":7169:7205  address(this).balance >= totalPayout */\n      lt\n      iszero\n        /* \"7 \\xd0\\xb7\\xd0\\xb0\\xd0\\xbd\\xd1\\x8f\\xd1\\x82\\xd0\\xb8\\xd0\\xb5/Bonds.sol\":7161:7251  require(address(this).balance >= totalPayout, \"Insufficient contract balance for payout.\") */\n      tag_223\n      jumpi\n      mload(0x40)\n      0x08c379a000000000000000000000000000000000000000000000000000000000\n      dup2\n      mstore\n      0x04\n      add\n      tag_224\n      swap1\n      tag_225\n      jump\t// in\n    tag_224:\n      mload(0x40)\n      dup1\n      swap2\n      sub\n      swap1\n      revert\n    tag_223:\n        /* \"7 \\xd0\\xb7\\xd0\\xb0\\xd0\\xbd\\xd1\\x8f\\xd1\\x82\\xd0\\xb8\\xd0\\xb5/Bonds.sol\":7290:7291  0 */\n      0x00\n        /* \"7 \\xd0\\xb7\\xd0\\xb0\\xd0\\xbd\\xd1\\x8f\\xd1\\x82\\xd0\\xb8\\xd0\\xb5/Bonds.sol\":7264:7275  bondHolders */\n      0x08\n        /* \"7 \\xd0\\xb7\\xd0\\xb0\\xd0\\xbd\\xd1\\x8f\\xd1\\x82\\xd0\\xb8\\xd0\\xb5/Bonds.sol\":7264:7287  bondHolders[msg.sender] */\n      0x00\n        /* \"7 \\xd0\\xb7\\xd0\\xb0\\xd0\\xbd\\xd1\\x8f\\xd1\\x82\\xd0\\xb8\\xd0\\xb5/Bonds.sol\":7276:7286  msg.sender */\n      caller\n        /* \"7 \\xd0\\xb7\\xd0\\xb0\\xd0\\xbd\\xd1\\x8f\\xd1\\x82\\xd0\\xb8\\xd0\\xb5/Bonds.sol\":7264:7287  bondHolders[msg.sender] */\n      0xffffffffffffffffffffffffffffffffffffffff\n      and\n      0xffffffffffffffffffffffffffffffffffffffff\n      and\n      dup2\n      mstore\n      0x20\n      add\n      swap1\n      dup2\n      mstore\n      0x20\n      add\n      0x00\n      keccak256\n        /* \"7 \\xd0\\xb7\\xd0\\xb0\\xd0\\xbd\\xd1\\x8f\\xd1\\x82\\xd0\\xb8\\xd0\\xb5/Bonds.sol\":7264:7291  bondHolders[msg.sender] = 0 */\n      dup2\n      swap1\n      sstore\n      pop\n        /* \"7 \\xd0\\xb7\\xd0\\xb0\\xd0\\xbd\\xd1\\x8f\\xd1\\x82\\xd0\\xb8\\xd0\\xb5/Bonds.sol\":7310:7320  msg.sender */\n      caller\n        /* \"7 \\xd0\\xb7\\xd0\\xb0\\xd0\\xbd\\xd1\\x8f\\xd1\\x82\\xd0\\xb8\\xd0\\xb5/Bonds.sol\":7302:7330  payable(msg.sender).transfer */\n      0xffffffffffffffffffffffffffffffffffffffff\n      and\n        /* \"7 \\xd0\\xb7\\xd0\\xb0\\xd0\\xbd\\xd1\\x8f\\xd1\\x82\\xd0\\xb8\\xd0\\xb5/Bonds.sol\":7302:7343  payable(msg.sender).transfer(totalPayout) */\n      0x08fc\n        /* \"7 \\xd0\\xb7\\xd0\\xb0\\xd0\\xbd\\xd1\\x8f\\xd1\\x82\\xd0\\xb8\\xd0\\xb5/Bonds.sol\":7331:7342  totalPayout */\n      dup3\n        /* \"7 \\xd0\\xb7\\xd0\\xb0\\xd0\\xbd\\xd1\\x8f\\xd1\\x82\\xd0\\xb8\\xd0\\xb5/Bonds.sol\":7302:7343  payable(msg.sender).transfer(totalPayout) */\n      swap1\n      dup2\n      iszero\n      mul\n      swap1\n      mload(0x40)\n      0x00\n      mload(0x40)\n      dup1\n      dup4\n      sub\n      dup2\n      dup6\n      dup9\n      dup9\n      call\n      swap4\n      pop\n      pop\n      pop\n      pop\n      iszero\n      dup1\n      iszero\n      tag_227\n      jumpi\n      returndatasize\n      0x00\n      dup1\n      returndatacopy\n      revert(0x00, returndatasize)\n    tag_227:\n      pop\n        /* \"7 \\xd0\\xb7\\xd0\\xb0\\xd0\\xbd\\xd1\\x8f\\xd1\\x82\\xd0\\xb8\\xd0\\xb5/Bonds.sol\":7375:7385  msg.sender */\n      caller\n        /* \"7 \\xd0\\xb7\\xd0\\xb0\\xd0\\xbd\\xd1\\x8f\\xd1\\x82\\xd0\\xb8\\xd0\\xb5/Bonds.sol\":7361:7394  BondsRedeemed(msg.sender, amount) */\n      0xffffffffffffffffffffffffffffffffffffffff\n      and\n      0x9288b6de588c2ef664548c899db8a71f78097bdf2a031408e9bceff697cbf94f\n        /* \"7 \\xd0\\xb7\\xd0\\xb0\\xd0\\xbd\\xd1\\x8f\\xd1\\x82\\xd0\\xb8\\xd0\\xb5/Bonds.sol\":7387:7393  amount */\n      dup6\n        /* \"7 \\xd0\\xb7\\xd0\\xb0\\xd0\\xbd\\xd1\\x8f\\xd1\\x82\\xd0\\xb8\\xd0\\xb5/Bonds.sol\":7361:7394  BondsRedeemed(msg.sender, amount) */\n      mload(0x40)\n      tag_228\n      swap2\n      swap1\n      tag_45\n      jump\t// in\n    tag_228:\n      mload(0x40)\n      dup1\n      swap2\n      sub\n      swap1\n      log2\n        /* \"7 \\xd0\\xb7\\xd0\\xb0\\xd0\\xbd\\xd1\\x8f\\xd1\\x82\\xd0\\xb8\\xd0\\xb5/Bonds.sol\":6777:7402  {... */\n      pop\n      pop\n      pop\n      pop\n        /* \"7 \\xd0\\xb7\\xd0\\xb0\\xd0\\xbd\\xd1\\x8f\\xd1\\x82\\xd0\\xb8\\xd0\\xb5/Bonds.sol\":6727:7402  function redeemBonds() external onlyAfterMaturity {... */\n      jump\t// out\n        /* \"7 \\xd0\\xb7\\xd0\\xb0\\xd0\\xbd\\xd1\\x8f\\xd1\\x82\\xd0\\xb8\\xd0\\xb5/Bonds.sol\":7617:8153  function withdrawRemainingFunds() external onlyIssuer {... */\n    tag_87:\n        /* \"7 \\xd0\\xb7\\xd0\\xb0\\xd0\\xbd\\xd1\\x8f\\xd1\\x82\\xd0\\xb8\\xd0\\xb5/Bonds.sol\":1781:1787  issuer */\n      0x00\n      dup1\n      sload\n      swap1\n      0x0100\n      exp\n      swap1\n      div\n      0xffffffffffffffffffffffffffffffffffffffff\n      and\n        /* \"7 \\xd0\\xb7\\xd0\\xb0\\xd0\\xbd\\xd1\\x8f\\xd1\\x82\\xd0\\xb8\\xd0\\xb5/Bonds.sol\":1767:1787  msg.sender == issuer */\n      0xffffffffffffffffffffffffffffffffffffffff\n      and\n        /* \"7 \\xd0\\xb7\\xd0\\xb0\\xd0\\xbd\\xd1\\x8f\\xd1\\x82\\xd0\\xb8\\xd0\\xb5/Bonds.sol\":1767:1777  msg.sender */\n      caller\n        /* \"7 \\xd0\\xb7\\xd0\\xb0\\xd0\\xbd\\xd1\\x8f\\xd1\\x82\\xd0\\xb8\\xd0\\xb5/Bonds.sol\":1767:1787  msg.sender == issuer */\n      0xffffffffffffffffffffffffffffffffffffffff\n      and\n      eq\n        /* \"7 \\xd0\\xb7\\xd0\\xb0\\xd0\\xbd\\xd1\\x8f\\xd1\\x82\\xd0\\xb8\\xd0\\xb5/Bonds.sol\":1759:1827  require(msg.sender == issuer, \"Only issuer can call this function.\") */\n      tag_230\n      jumpi\n      mload(0x40)\n      0x08c379a000000000000000000000000000000000000000000000000000000000\n      dup2\n      mstore\n      0x04\n      add\n      tag_231\n      swap1\n      tag_95\n      jump\t// in\n    tag_231:\n      mload(0x40)\n      dup1\n      swap2\n      sub\n      swap1\n      revert\n    tag_230:\n        /* \"7 \\xd0\\xb7\\xd0\\xb0\\xd0\\xbd\\xd1\\x8f\\xd1\\x82\\xd0\\xb8\\xd0\\xb5/Bonds.sol\":7709:7721  maturityDate */\n      sload(0x05)\n        /* \"7 \\xd0\\xb7\\xd0\\xb0\\xd0\\xbd\\xd1\\x8f\\xd1\\x82\\xd0\\xb8\\xd0\\xb5/Bonds.sol\":7690:7705  block.timestamp */\n      timestamp\n        /* \"7 \\xd0\\xb7\\xd0\\xb0\\xd0\\xbd\\xd1\\x8f\\xd1\\x82\\xd0\\xb8\\xd0\\xb5/Bonds.sol\":7690:7721  block.timestamp >= maturityDate */\n      lt\n      iszero\n        /* \"7 \\xd0\\xb7\\xd0\\xb0\\xd0\\xbd\\xd1\\x8f\\xd1\\x82\\xd0\\xb8\\xd0\\xb5/Bonds.sol\":7682:7765  require(block.timestamp >= maturityDate, \"Bond redemption period has not started.\") */\n      tag_233\n      jumpi\n      mload(0x40)\n      0x08c379a000000000000000000000000000000000000000000000000000000000\n      dup2\n      mstore\n      0x04\n      add\n      tag_234\n      swap1\n      tag_146\n      jump\t// in\n    tag_234:\n      mload(0x40)\n      dup1\n      swap2\n      sub\n      swap1\n      revert\n    tag_233:\n        /* \"7 \\xd0\\xb7\\xd0\\xb0\\xd0\\xbd\\xd1\\x8f\\xd1\\x82\\xd0\\xb8\\xd0\\xb5/Bonds.sol\":7781:7790  uint256 i */\n      0x00\n        /* \"7 \\xd0\\xb7\\xd0\\xb0\\xd0\\xbd\\xd1\\x8f\\xd1\\x82\\xd0\\xb8\\xd0\\xb5/Bonds.sol\":7776:7955  for (uint256 i = 0; i < investors.length; i++) {... */\n    tag_235:\n        /* \"7 \\xd0\\xb7\\xd0\\xb0\\xd0\\xbd\\xd1\\x8f\\xd1\\x82\\xd0\\xb8\\xd0\\xb5/Bonds.sol\":7800:7809  investors */\n      0x0a\n        /* \"7 \\xd0\\xb7\\xd0\\xb0\\xd0\\xbd\\xd1\\x8f\\xd1\\x82\\xd0\\xb8\\xd0\\xb5/Bonds.sol\":7800:7816  investors.length */\n      dup1\n      sload\n      swap1\n      pop\n        /* \"7 \\xd0\\xb7\\xd0\\xb0\\xd0\\xbd\\xd1\\x8f\\xd1\\x82\\xd0\\xb8\\xd0\\xb5/Bonds.sol\":7796:7797  i */\n      dup2\n        /* \"7 \\xd0\\xb7\\xd0\\xb0\\xd0\\xbd\\xd1\\x8f\\xd1\\x82\\xd0\\xb8\\xd0\\xb5/Bonds.sol\":7796:7816  i < investors.length */\n      lt\n        /* \"7 \\xd0\\xb7\\xd0\\xb0\\xd0\\xbd\\xd1\\x8f\\xd1\\x82\\xd0\\xb8\\xd0\\xb5/Bonds.sol\":7776:7955  for (uint256 i = 0; i < investors.length; i++) {... */\n      iszero\n      tag_236\n      jumpi\n        /* \"7 \\xd0\\xb7\\xd0\\xb0\\xd0\\xbd\\xd1\\x8f\\xd1\\x82\\xd0\\xb8\\xd0\\xb5/Bonds.sol\":7875:7876  0 */\n      0x00\n        /* \"7 \\xd0\\xb7\\xd0\\xb0\\xd0\\xbd\\xd1\\x8f\\xd1\\x82\\xd0\\xb8\\xd0\\xb5/Bonds.sol\":7846:7857  bondHolders */\n      0x08\n        /* \"7 \\xd0\\xb7\\xd0\\xb0\\xd0\\xbd\\xd1\\x8f\\xd1\\x82\\xd0\\xb8\\xd0\\xb5/Bonds.sol\":7846:7871  bondHolders[investors[i]] */\n      0x00\n        /* \"7 \\xd0\\xb7\\xd0\\xb0\\xd0\\xbd\\xd1\\x8f\\xd1\\x82\\xd0\\xb8\\xd0\\xb5/Bonds.sol\":7858:7867  investors */\n      0x0a\n        /* \"7 \\xd0\\xb7\\xd0\\xb0\\xd0\\xbd\\xd1\\x8f\\xd1\\x82\\xd0\\xb8\\xd0\\xb5/Bonds.sol\":7868:7869  i */\n      dup5\n        /* \"7 \\xd0\\xb7\\xd0\\xb0\\xd0\\xbd\\xd1\\x8f\\xd1\\x82\\xd0\\xb8\\xd0\\xb5/Bonds.sol\":7858:7870  investors[i] */\n      dup2\n      sload\n      dup2\n      lt\n      tag_238\n      jumpi\n      tag_239\n      tag_189\n      jump\t// in\n    tag_239:\n    tag_238:\n      swap1\n      0x00\n      mstore\n      keccak256(0x00, 0x20)\n      add\n      0x00\n      swap1\n      sload\n      swap1\n      0x0100\n      exp\n      swap1\n      div\n      0xffffffffffffffffffffffffffffffffffffffff\n      and\n        /* \"7 \\xd0\\xb7\\xd0\\xb0\\xd0\\xbd\\xd1\\x8f\\xd1\\x82\\xd0\\xb8\\xd0\\xb5/Bonds.sol\":7846:7871  bondHolders[investors[i]] */\n      0xffffffffffffffffffffffffffffffffffffffff\n      and\n      0xffffffffffffffffffffffffffffffffffffffff\n      and\n      dup2\n      mstore\n      0x20\n      add\n      swap1\n      dup2\n      mstore\n      0x20\n      add\n      0x00\n      keccak256\n      sload\n        /* \"7 \\xd0\\xb7\\xd0\\xb0\\xd0\\xbd\\xd1\\x8f\\xd1\\x82\\xd0\\xb8\\xd0\\xb5/Bonds.sol\":7846:7876  bondHolders[investors[i]] == 0 */\n      eq\n        /* \"7 \\xd0\\xb7\\xd0\\xb0\\xd0\\xbd\\xd1\\x8f\\xd1\\x82\\xd0\\xb8\\xd0\\xb5/Bonds.sol\":7838:7943  require(bondHolders[investors[i]] == 0, \"All bonds must be redeemed before withdrawing remaining funds.\") */\n      tag_241\n      jumpi\n      mload(0x40)\n      0x08c379a000000000000000000000000000000000000000000000000000000000\n      dup2\n      mstore\n      0x04\n      add\n      tag_242\n      swap1\n      tag_243\n      jump\t// in\n    tag_242:\n      mload(0x40)\n      dup1\n      swap2\n      sub\n      swap1\n      revert\n    tag_241:\n        /* \"7 \\xd0\\xb7\\xd0\\xb0\\xd0\\xbd\\xd1\\x8f\\xd1\\x82\\xd0\\xb8\\xd0\\xb5/Bonds.sol\":7818:7821  i++ */\n      dup1\n      dup1\n      0x01\n      add\n      swap2\n      pop\n      pop\n        /* \"7 \\xd0\\xb7\\xd0\\xb0\\xd0\\xbd\\xd1\\x8f\\xd1\\x82\\xd0\\xb8\\xd0\\xb5/Bonds.sol\":7776:7955  for (uint256 i = 0; i < investors.length; i++) {... */\n      jump(tag_235)\n    tag_236:\n      pop\n        /* \"7 \\xd0\\xb7\\xd0\\xb0\\xd0\\xbd\\xd1\\x8f\\xd1\\x82\\xd0\\xb8\\xd0\\xb5/Bonds.sol\":7967:7991  uint256 remainingBalance */\n      0x00\n        /* \"7 \\xd0\\xb7\\xd0\\xb0\\xd0\\xbd\\xd1\\x8f\\xd1\\x82\\xd0\\xb8\\xd0\\xb5/Bonds.sol\":7994:8015  address(this).balance */\n      selfbalance\n        /* \"7 \\xd0\\xb7\\xd0\\xb0\\xd0\\xbd\\xd1\\x8f\\xd1\\x82\\xd0\\xb8\\xd0\\xb5/Bonds.sol\":7967:8015  uint256 remainingBalance = address(this).balance */\n      swap1\n      pop\n        /* \"7 \\xd0\\xb7\\xd0\\xb0\\xd0\\xbd\\xd1\\x8f\\xd1\\x82\\xd0\\xb8\\xd0\\xb5/Bonds.sol\":8053:8054  0 */\n      0x00\n        /* \"7 \\xd0\\xb7\\xd0\\xb0\\xd0\\xbd\\xd1\\x8f\\xd1\\x82\\xd0\\xb8\\xd0\\xb5/Bonds.sol\":8034:8050  remainingBalance */\n      dup2\n        /* \"7 \\xd0\\xb7\\xd0\\xb0\\xd0\\xbd\\xd1\\x8f\\xd1\\x82\\xd0\\xb8\\xd0\\xb5/Bonds.sol\":8034:8054  remainingBalance > 0 */\n      gt\n        /* \"7 \\xd0\\xb7\\xd0\\xb0\\xd0\\xbd\\xd1\\x8f\\xd1\\x82\\xd0\\xb8\\xd0\\xb5/Bonds.sol\":8026:8090  require(remainingBalance > 0, \"Insufficient funds to withdraw.\") */\n      tag_244\n      jumpi\n      mload(0x40)\n      0x08c379a000000000000000000000000000000000000000000000000000000000\n      dup2\n      mstore\n      0x04\n      add\n      tag_245\n      swap1\n      tag_153\n      jump\t// in\n    tag_245:\n      mload(0x40)\n      dup1\n      swap2\n      sub\n      swap1\n      revert\n    tag_244:\n        /* \"7 \\xd0\\xb7\\xd0\\xb0\\xd0\\xbd\\xd1\\x8f\\xd1\\x82\\xd0\\xb8\\xd0\\xb5/Bonds.sol\":8111:8117  issuer */\n      0x00\n      dup1\n      sload\n      swap1\n      0x0100\n      exp\n      swap1\n      div\n      0xffffffffffffffffffffffffffffffffffffffff\n      and\n        /* \"7 \\xd0\\xb7\\xd0\\xb0\\xd0\\xbd\\xd1\\x8f\\xd1\\x82\\xd0\\xb8\\xd0\\xb5/Bonds.sol\":8103:8127  payable(issuer).transfer */\n      0xffffffffffffffffffffffffffffffffffffffff\n      and\n        /* \"7 \\xd0\\xb7\\xd0\\xb0\\xd0\\xbd\\xd1\\x8f\\xd1\\x82\\xd0\\xb8\\xd0\\xb5/Bonds.sol\":8103:8145  payable(issuer).transfer(remainingBalance) */\n      0x08fc\n        /* \"7 \\xd0\\xb7\\xd0\\xb0\\xd0\\xbd\\xd1\\x8f\\xd1\\x82\\xd0\\xb8\\xd0\\xb5/Bonds.sol\":8128:8144  remainingBalance */\n      dup3\n        /* \"7 \\xd0\\xb7\\xd0\\xb0\\xd0\\xbd\\xd1\\x8f\\xd1\\x82\\xd0\\xb8\\xd0\\xb5/Bonds.sol\":8103:8145  payable(issuer).transfer(remainingBalance) */\n      swap1\n      dup2\n      iszero\n      mul\n      swap1\n      mload(0x40)\n      0x00\n      mload(0x40)\n      dup1\n      dup4\n      sub\n      dup2\n      dup6\n      dup9\n      dup9\n      call\n      swap4\n      pop\n      pop\n      pop\n      pop\n      iszero\n      dup1\n      iszero\n      tag_247\n      jumpi\n      returndatasize\n      0x00\n      dup1\n      returndatacopy\n      revert(0x00, returndatasize)\n    tag_247:\n      pop\n        /* \"7 \\xd0\\xb7\\xd0\\xb0\\xd0\\xbd\\xd1\\x8f\\xd1\\x82\\xd0\\xb8\\xd0\\xb5/Bonds.sol\":7671:8153  {... */\n      pop\n        /* \"7 \\xd0\\xb7\\xd0\\xb0\\xd0\\xbd\\xd1\\x8f\\xd1\\x82\\xd0\\xb8\\xd0\\xb5/Bonds.sol\":7617:8153  function withdrawRemainingFunds() external onlyIssuer {... */\n      jump\t// out\n        /* \"7 \\xd0\\xb7\\xd0\\xb0\\xd0\\xbd\\xd1\\x8f\\xd1\\x82\\xd0\\xb8\\xd0\\xb5/Bonds.sol\":217:242  uint256 public totalBonds */\n    tag_90:\n      sload(0x01)\n      dup2\n      jump\t// out\n        /* \"@openzeppelin/contracts/utils/Strings.sol\":637:1269  function toString(uint256 value) internal pure returns (string memory) {... */\n    tag_126:\n        /* \"@openzeppelin/contracts/utils/Strings.sol\":693:706  string memory */\n      0x60\n        /* \"@openzeppelin/contracts/utils/Strings.sol\":742:756  uint256 length */\n      0x00\n        /* \"@openzeppelin/contracts/utils/Strings.sol\":779:780  1 */\n      0x01\n        /* \"@openzeppelin/contracts/utils/Strings.sol\":759:776  Math.log10(value) */\n      tag_249\n        /* \"@openzeppelin/contracts/utils/Strings.sol\":770:775  value */\n      dup5\n        /* \"@openzeppelin/contracts/utils/Strings.sol\":759:769  Math.log10 */\n      tag_250\n        /* \"@openzeppelin/contracts/utils/Strings.sol\":759:776  Math.log10(value) */\n      jump\t// in\n    tag_249:\n        /* \"@openzeppelin/contracts/utils/Strings.sol\":759:780  Math.log10(value) + 1 */\n      add\n        /* \"@openzeppelin/contracts/utils/Strings.sol\":742:780  uint256 length = Math.log10(value) + 1 */\n      swap1\n      pop\n        /* \"@openzeppelin/contracts/utils/Strings.sol\":794:814  string memory buffer */\n      0x00\n        /* \"@openzeppelin/contracts/utils/Strings.sol\":828:834  length */\n      dup2\n        /* \"@openzeppelin/contracts/utils/Strings.sol\":817:835  new string(length) */\n      0xffffffffffffffff\n      dup2\n      gt\n      iszero\n      tag_251\n      jumpi\n      tag_252\n      tag_253\n      jump\t// in\n    tag_252:\n    tag_251:\n      mload(0x40)\n      swap1\n      dup1\n      dup3\n      mstore\n      dup1\n      0x1f\n      add\n      not(0x1f)\n      and\n      0x20\n      add\n      dup3\n      add\n      0x40\n      mstore\n      dup1\n      iszero\n      tag_254\n      jumpi\n      dup2\n      0x20\n      add\n      0x01\n      dup3\n      mul\n      dup1\n      calldatasize\n      dup4\n      calldatacopy\n      dup1\n      dup3\n      add\n      swap2\n      pop\n      pop\n      swap1\n      pop\n    tag_254:\n      pop\n        /* \"@openzeppelin/contracts/utils/Strings.sol\":794:835  string memory buffer = new string(length) */\n      swap1\n      pop\n        /* \"@openzeppelin/contracts/utils/Strings.sol\":849:860  uint256 ptr */\n      0x00\n        /* \"@openzeppelin/contracts/utils/Strings.sol\":944:950  length */\n      dup3\n        /* \"@openzeppelin/contracts/utils/Strings.sol\":940:942  32 */\n      0x20\n        /* \"@openzeppelin/contracts/utils/Strings.sol\":936:951  add(32, length) */\n      add\n        /* \"@openzeppelin/contracts/utils/Strings.sol\":928:934  buffer */\n      dup3\n        /* \"@openzeppelin/contracts/utils/Strings.sol\":924:952  add(buffer, add(32, length)) */\n      add\n        /* \"@openzeppelin/contracts/utils/Strings.sol\":917:952  ptr := add(buffer, add(32, length)) */\n      swap1\n      pop\n        /* \"@openzeppelin/contracts/utils/Strings.sol\":979:1226  while (true) {... */\n    tag_255:\n        /* \"@openzeppelin/contracts/utils/Strings.sol\":986:990  true */\n      0x01\n        /* \"@openzeppelin/contracts/utils/Strings.sol\":979:1226  while (true) {... */\n      iszero\n      tag_256\n      jumpi\n        /* \"@openzeppelin/contracts/utils/Strings.sol\":1010:1015  ptr-- */\n      dup1\n      dup1\n      0x01\n      swap1\n      sub\n      swap2\n      pop\n      pop\n        /* \"@openzeppelin/contracts/utils/Strings.sol\":1114:1124  HEX_DIGITS */\n      0x3031323334353637383961626364656600000000000000000000000000000000\n        /* \"@openzeppelin/contracts/utils/Strings.sol\":1109:1111  10 */\n      0x0a\n        /* \"@openzeppelin/contracts/utils/Strings.sol\":1102:1107  value */\n      dup7\n        /* \"@openzeppelin/contracts/utils/Strings.sol\":1098:1112  mod(value, 10) */\n      mod\n        /* \"@openzeppelin/contracts/utils/Strings.sol\":1093:1125  byte(mod(value, 10), HEX_DIGITS) */\n      byte\n        /* \"@openzeppelin/contracts/utils/Strings.sol\":1088:1091  ptr */\n      dup2\n        /* \"@openzeppelin/contracts/utils/Strings.sol\":1080:1126  mstore8(ptr, byte(mod(value, 10), HEX_DIGITS)) */\n      mstore8\n        /* \"@openzeppelin/contracts/utils/Strings.sol\":1170:1172  10 */\n      0x0a\n        /* \"@openzeppelin/contracts/utils/Strings.sol\":1161:1172  value /= 10 */\n      dup6\n      dup2\n      tag_257\n      jumpi\n      tag_258\n      tag_259\n      jump\t// in\n    tag_258:\n    tag_257:\n      div\n      swap5\n      pop\n        /* \"@openzeppelin/contracts/utils/Strings.sol\":1203:1204  0 */\n      0x00\n        /* \"@openzeppelin/contracts/utils/Strings.sol\":1194:1199  value */\n      dup6\n        /* \"@openzeppelin/contracts/utils/Strings.sol\":1194:1204  value == 0 */\n      sub\n        /* \"@openzeppelin/contracts/utils/Strings.sol\":979:1226  while (true) {... */\n      tag_255\n        /* \"@openzeppelin/contracts/utils/Strings.sol\":1190:1211  if (value == 0) break */\n      jumpi\n        /* \"@openzeppelin/contracts/utils/Strings.sol\":979:1226  while (true) {... */\n    tag_256:\n        /* \"@openzeppelin/contracts/utils/Strings.sol\":1246:1252  buffer */\n      dup2\n        /* \"@openzeppelin/contracts/utils/Strings.sol\":1239:1252  return buffer */\n      swap4\n      pop\n      pop\n      pop\n      pop\n        /* \"@openzeppelin/contracts/utils/Strings.sol\":637:1269  function toString(uint256 value) internal pure returns (string memory) {... */\n      swap2\n      swap1\n      pop\n      jump\t// out\n        /* \"@openzeppelin/contracts/utils/math/Math.sol\":25316:26232  function log10(uint256 value) internal pure returns (uint256) {... */\n    tag_250:\n        /* \"@openzeppelin/contracts/utils/math/Math.sol\":25369:25376  uint256 */\n      0x00\n        /* \"@openzeppelin/contracts/utils/math/Math.sol\":25388:25402  uint256 result */\n      dup1\n        /* \"@openzeppelin/contracts/utils/math/Math.sol\":25405:25406  0 */\n      0x00\n        /* \"@openzeppelin/contracts/utils/math/Math.sol\":25388:25406  uint256 result = 0 */\n      swap1\n      pop\n        /* \"@openzeppelin/contracts/utils/math/Math.sol\":25453:25461  10 ** 64 */\n      0x184f03e93ff9f4daa797ed6e38ed64bf6a1f010000000000000000\n        /* \"@openzeppelin/contracts/utils/math/Math.sol\":25444:25449  value */\n      dup4\n        /* \"@openzeppelin/contracts/utils/math/Math.sol\":25444:25461  value >= 10 ** 64 */\n      lt\n        /* \"@openzeppelin/contracts/utils/math/Math.sol\":25440:25543  if (value >= 10 ** 64) {... */\n      tag_262\n      jumpi\n        /* \"@openzeppelin/contracts/utils/math/Math.sol\":25490:25498  10 ** 64 */\n      0x184f03e93ff9f4daa797ed6e38ed64bf6a1f010000000000000000\n        /* \"@openzeppelin/contracts/utils/math/Math.sol\":25481:25498  value /= 10 ** 64 */\n      dup4\n      dup2\n      tag_263\n      jumpi\n      tag_264\n      tag_259\n      jump\t// in\n    tag_264:\n    tag_263:\n      div\n      swap3\n      pop\n        /* \"@openzeppelin/contracts/utils/math/Math.sol\":25526:25528  64 */\n      0x40\n        /* \"@openzeppelin/contracts/utils/math/Math.sol\":25516:25528  result += 64 */\n      dup2\n      add\n      swap1\n      pop\n        /* \"@openzeppelin/contracts/utils/math/Math.sol\":25440:25543  if (value >= 10 ** 64) {... */\n    tag_262:\n        /* \"@openzeppelin/contracts/utils/math/Math.sol\":25569:25577  10 ** 32 */\n      0x04ee2d6d415b85acef8100000000\n        /* \"@openzeppelin/contracts/utils/math/Math.sol\":25560:25565  value */\n      dup4\n        /* \"@openzeppelin/contracts/utils/math/Math.sol\":25560:25577  value >= 10 ** 32 */\n      lt\n        /* \"@openzeppelin/contracts/utils/math/Math.sol\":25556:25659  if (value >= 10 ** 32) {... */\n      tag_265\n      jumpi\n        /* \"@openzeppelin/contracts/utils/math/Math.sol\":25606:25614  10 ** 32 */\n      0x04ee2d6d415b85acef8100000000\n        /* \"@openzeppelin/contracts/utils/math/Math.sol\":25597:25614  value /= 10 ** 32 */\n      dup4\n      dup2\n      tag_266\n      jumpi\n      tag_267\n      tag_259\n      jump\t// in\n    tag_267:\n    tag_266:\n      div\n      swap3\n      pop\n        /* \"@openzeppelin/contracts/utils/math/Math.sol\":25642:25644  32 */\n      0x20\n        /* \"@openzeppelin/contracts/utils/math/Math.sol\":25632:25644  result += 32 */\n      dup2\n      add\n      swap1\n      pop\n        /* \"@openzeppelin/contracts/utils/math/Math.sol\":25556:25659  if (value >= 10 ** 32) {... */\n    tag_265:\n        /* \"@openzeppelin/contracts/utils/math/Math.sol\":25685:25693  10 ** 16 */\n      0x2386f26fc10000\n        /* \"@openzeppelin/contracts/utils/math/Math.sol\":25676:25681  value */\n      dup4\n        /* \"@openzeppelin/contracts/utils/math/Math.sol\":25676:25693  value >= 10 ** 16 */\n      lt\n        /* \"@openzeppelin/contracts/utils/math/Math.sol\":25672:25775  if (value >= 10 ** 16) {... */\n      tag_268\n      jumpi\n        /* \"@openzeppelin/contracts/utils/math/Math.sol\":25722:25730  10 ** 16 */\n      0x2386f26fc10000\n        /* \"@openzeppelin/contracts/utils/math/Math.sol\":25713:25730  value /= 10 ** 16 */\n      dup4\n      dup2\n      tag_269\n      jumpi\n      tag_270\n      tag_259\n      jump\t// in\n    tag_270:\n    tag_269:\n      div\n      swap3\n      pop\n        /* \"@openzeppelin/contracts/utils/math/Math.sol\":25758:25760  16 */\n      0x10\n        /* \"@openzeppelin/contracts/utils/math/Math.sol\":25748:25760  result += 16 */\n      dup2\n      add\n      swap1\n      pop\n        /* \"@openzeppelin/contracts/utils/math/Math.sol\":25672:25775  if (value >= 10 ** 16) {... */\n    tag_268:\n        /* \"@openzeppelin/contracts/utils/math/Math.sol\":25801:25808  10 ** 8 */\n      0x05f5e100\n        /* \"@openzeppelin/contracts/utils/math/Math.sol\":25792:25797  value */\n      dup4\n        /* \"@openzeppelin/contracts/utils/math/Math.sol\":25792:25808  value >= 10 ** 8 */\n      lt\n        /* \"@openzeppelin/contracts/utils/math/Math.sol\":25788:25888  if (value >= 10 ** 8) {... */\n      tag_271\n      jumpi\n        /* \"@openzeppelin/contracts/utils/math/Math.sol\":25837:25844  10 ** 8 */\n      0x05f5e100\n        /* \"@openzeppelin/contracts/utils/math/Math.sol\":25828:25844  value /= 10 ** 8 */\n      dup4\n      dup2\n      tag_272\n      jumpi\n      tag_273\n      tag_259\n      jump\t// in\n    tag_273:\n    tag_272:\n      div\n      swap3\n      pop\n        /* \"@openzeppelin/contracts/utils/math/Math.sol\":25872:25873  8 */\n      0x08\n        /* \"@openzeppelin/contracts/utils/math/Math.sol\":25862:25873  result += 8 */\n      dup2\n      add\n      swap1\n      pop\n        /* \"@openzeppelin/contracts/utils/math/Math.sol\":25788:25888  if (value >= 10 ** 8) {... */\n    tag_271:\n        /* \"@openzeppelin/contracts/utils/math/Math.sol\":25914:25921  10 ** 4 */\n      0x2710\n        /* \"@openzeppelin/contracts/utils/math/Math.sol\":25905:25910  value */\n      dup4\n        /* \"@openzeppelin/contracts/utils/math/Math.sol\":25905:25921  value >= 10 ** 4 */\n      lt\n        /* \"@openzeppelin/contracts/utils/math/Math.sol\":25901:26001  if (value >= 10 ** 4) {... */\n      tag_274\n      jumpi\n        /* \"@openzeppelin/contracts/utils/math/Math.sol\":25950:25957  10 ** 4 */\n      0x2710\n        /* \"@openzeppelin/contracts/utils/math/Math.sol\":25941:25957  value /= 10 ** 4 */\n      dup4\n      dup2\n      tag_275\n      jumpi\n      tag_276\n      tag_259\n      jump\t// in\n    tag_276:\n    tag_275:\n      div\n      swap3\n      pop\n        /* \"@openzeppelin/contracts/utils/math/Math.sol\":25985:25986  4 */\n      0x04\n        /* \"@openzeppelin/contracts/utils/math/Math.sol\":25975:25986  result += 4 */\n      dup2\n      add\n      swap1\n      pop\n        /* \"@openzeppelin/contracts/utils/math/Math.sol\":25901:26001  if (value >= 10 ** 4) {... */\n    tag_274:\n        /* \"@openzeppelin/contracts/utils/math/Math.sol\":26027:26034  10 ** 2 */\n      0x64\n        /* \"@openzeppelin/contracts/utils/math/Math.sol\":26018:26023  value */\n      dup4\n        /* \"@openzeppelin/contracts/utils/math/Math.sol\":26018:26034  value >= 10 ** 2 */\n      lt\n        /* \"@openzeppelin/contracts/utils/math/Math.sol\":26014:26114  if (value >= 10 ** 2) {... */\n      tag_277\n      jumpi\n        /* \"@openzeppelin/contracts/utils/math/Math.sol\":26063:26070  10 ** 2 */\n      0x64\n        /* \"@openzeppelin/contracts/utils/math/Math.sol\":26054:26070  value /= 10 ** 2 */\n      dup4\n      dup2\n      tag_278\n      jumpi\n      tag_279\n      tag_259\n      jump\t// in\n    tag_279:\n    tag_278:\n      div\n      swap3\n      pop\n        /* \"@openzeppelin/contracts/utils/math/Math.sol\":26098:26099  2 */\n      0x02\n        /* \"@openzeppelin/contracts/utils/math/Math.sol\":26088:26099  result += 2 */\n      dup2\n      add\n      swap1\n      pop\n        /* \"@openzeppelin/contracts/utils/math/Math.sol\":26014:26114  if (value >= 10 ** 2) {... */\n    tag_277:\n        /* \"@openzeppelin/contracts/utils/math/Math.sol\":26140:26147  10 ** 1 */\n      0x0a\n        /* \"@openzeppelin/contracts/utils/math/Math.sol\":26131:26136  value */\n      dup4\n        /* \"@openzeppelin/contracts/utils/math/Math.sol\":26131:26147  value >= 10 ** 1 */\n      lt\n        /* \"@openzeppelin/contracts/utils/math/Math.sol\":26127:26193  if (value >= 10 ** 1) {... */\n      tag_280\n      jumpi\n        /* \"@openzeppelin/contracts/utils/math/Math.sol\":26177:26178  1 */\n      0x01\n        /* \"@openzeppelin/contracts/utils/math/Math.sol\":26167:26178  result += 1 */\n      dup2\n      add\n      swap1\n      pop\n        /* \"@openzeppelin/contracts/utils/math/Math.sol\":26127:26193  if (value >= 10 ** 1) {... */\n    tag_280:\n        /* \"@openzeppelin/contracts/utils/math/Math.sol\":26219:26225  result */\n      dup1\n        /* \"@openzeppelin/contracts/utils/math/Math.sol\":26212:26225  return result */\n      swap2\n      pop\n      pop\n        /* \"@openzeppelin/contracts/utils/math/Math.sol\":25316:26232  function log10(uint256 value) internal pure returns (uint256) {... */\n      swap2\n      swap1\n      pop\n      jump\t// out\n        /* \"#utility.yul\":7:133   */\n    tag_281:\n        /* \"#utility.yul\":44:51   */\n      0x00\n        /* \"#utility.yul\":84:126   */\n      0xffffffffffffffffffffffffffffffffffffffff\n        /* \"#utility.yul\":77:82   */\n      dup3\n        /* \"#utility.yul\":73:127   */\n      and\n        /* \"#utility.yul\":62:127   */\n      swap1\n      pop\n        /* \"#utility.yul\":7:133   */\n      swap2\n      swap1\n      pop\n      jump\t// out\n        /* \"#utility.yul\":139:235   */\n    tag_282:\n        /* \"#utility.yul\":176:183   */\n      0x00\n        /* \"#utility.yul\":205:229   */\n      tag_340\n        /* \"#utility.yul\":223:228   */\n      dup3\n        /* \"#utility.yul\":205:229   */\n      tag_281\n      jump\t// in\n    tag_340:\n        /* \"#utility.yul\":194:229   */\n      swap1\n      pop\n        /* \"#utility.yul\":139:235   */\n      swap2\n      swap1\n      pop\n      jump\t// out\n        /* \"#utility.yul\":241:359   */\n    tag_283:\n        /* \"#utility.yul\":328:352   */\n      tag_342\n        /* \"#utility.yul\":346:351   */\n      dup2\n        /* \"#utility.yul\":328:352   */\n      tag_282\n      jump\t// in\n    tag_342:\n        /* \"#utility.yul\":323:326   */\n      dup3\n        /* \"#utility.yul\":316:353   */\n      mstore\n        /* \"#utility.yul\":241:359   */\n      pop\n      pop\n      jump\t// out\n        /* \"#utility.yul\":365:587   */\n    tag_31:\n        /* \"#utility.yul\":458:462   */\n      0x00\n        /* \"#utility.yul\":496:498   */\n      0x20\n        /* \"#utility.yul\":485:494   */\n      dup3\n        /* \"#utility.yul\":481:499   */\n      add\n        /* \"#utility.yul\":473:499   */\n      swap1\n      pop\n        /* \"#utility.yul\":509:580   */\n      tag_344\n        /* \"#utility.yul\":577:578   */\n      0x00\n        /* \"#utility.yul\":566:575   */\n      dup4\n        /* \"#utility.yul\":562:579   */\n      add\n        /* \"#utility.yul\":553:559   */\n      dup5\n        /* \"#utility.yul\":509:580   */\n      tag_283\n      jump\t// in\n    tag_344:\n        /* \"#utility.yul\":365:587   */\n      swap3\n      swap2\n      pop\n      pop\n      jump\t// out\n        /* \"#utility.yul\":674:791   */\n    tag_285:\n        /* \"#utility.yul\":783:784   */\n      0x00\n        /* \"#utility.yul\":780:781   */\n      dup1\n        /* \"#utility.yul\":773:785   */\n      revert\n        /* \"#utility.yul\":920:1042   */\n    tag_287:\n        /* \"#utility.yul\":993:1017   */\n      tag_349\n        /* \"#utility.yul\":1011:1016   */\n      dup2\n        /* \"#utility.yul\":993:1017   */\n      tag_282\n      jump\t// in\n    tag_349:\n        /* \"#utility.yul\":986:991   */\n      dup2\n        /* \"#utility.yul\":983:1018   */\n      eq\n        /* \"#utility.yul\":973:1036   */\n      tag_350\n      jumpi\n        /* \"#utility.yul\":1032:1033   */\n      0x00\n        /* \"#utility.yul\":1029:1030   */\n      dup1\n        /* \"#utility.yul\":1022:1034   */\n      revert\n        /* \"#utility.yul\":973:1036   */\n    tag_350:\n        /* \"#utility.yul\":920:1042   */\n      pop\n      jump\t// out\n        /* \"#utility.yul\":1048:1187   */\n    tag_288:\n        /* \"#utility.yul\":1094:1099   */\n      0x00\n        /* \"#utility.yul\":1132:1138   */\n      dup2\n        /* \"#utility.yul\":1119:1139   */\n      calldataload\n        /* \"#utility.yul\":1110:1139   */\n      swap1\n      pop\n        /* \"#utility.yul\":1148:1181   */\n      tag_352\n        /* \"#utility.yul\":1175:1180   */\n      dup2\n        /* \"#utility.yul\":1148:1181   */\n      tag_287\n      jump\t// in\n    tag_352:\n        /* \"#utility.yul\":1048:1187   */\n      swap3\n      swap2\n      pop\n      pop\n      jump\t// out\n        /* \"#utility.yul\":1193:1522   */\n    tag_35:\n        /* \"#utility.yul\":1252:1258   */\n      0x00\n        /* \"#utility.yul\":1301:1303   */\n      0x20\n        /* \"#utility.yul\":1289:1298   */\n      dup3\n        /* \"#utility.yul\":1280:1287   */\n      dup5\n        /* \"#utility.yul\":1276:1299   */\n      sub\n        /* \"#utility.yul\":1272:1304   */\n      slt\n        /* \"#utility.yul\":1269:1388   */\n      iszero\n      tag_354\n      jumpi\n        /* \"#utility.yul\":1307:1386   */\n      tag_355\n      tag_285\n      jump\t// in\n    tag_355:\n        /* \"#utility.yul\":1269:1388   */\n    tag_354:\n        /* \"#utility.yul\":1427:1428   */\n      0x00\n        /* \"#utility.yul\":1452:1505   */\n      tag_356\n        /* \"#utility.yul\":1497:1504   */\n      dup5\n        /* \"#utility.yul\":1488:1494   */\n      dup3\n        /* \"#utility.yul\":1477:1486   */\n      dup6\n        /* \"#utility.yul\":1473:1495   */\n      add\n        /* \"#utility.yul\":1452:1505   */\n      tag_288\n      jump\t// in\n    tag_356:\n        /* \"#utility.yul\":1442:1505   */\n      swap2\n      pop\n        /* \"#utility.yul\":1398:1515   */\n      pop\n        /* \"#utility.yul\":1193:1522   */\n      swap3\n      swap2\n      pop\n      pop\n      jump\t// out\n        /* \"#utility.yul\":1528:1605   */\n    tag_289:\n        /* \"#utility.yul\":1565:1572   */\n      0x00\n        /* \"#utility.yul\":1594:1599   */\n      dup2\n        /* \"#utility.yul\":1583:1599   */\n      swap1\n      pop\n        /* \"#utility.yul\":1528:1605   */\n      swap2\n      swap1\n      pop\n      jump\t// out\n        /* \"#utility.yul\":1611:1729   */\n    tag_290:\n        /* \"#utility.yul\":1698:1722   */\n      tag_359\n        /* \"#utility.yul\":1716:1721   */\n      dup2\n        /* \"#utility.yul\":1698:1722   */\n      tag_289\n      jump\t// in\n    tag_359:\n        /* \"#utility.yul\":1693:1696   */\n      dup3\n        /* \"#utility.yul\":1686:1723   */\n      mstore\n        /* \"#utility.yul\":1611:1729   */\n      pop\n      pop\n      jump\t// out\n        /* \"#utility.yul\":1735:2177   */\n    tag_38:\n        /* \"#utility.yul\":1884:1888   */\n      0x00\n        /* \"#utility.yul\":1922:1924   */\n      0x60\n        /* \"#utility.yul\":1911:1920   */\n      dup3\n        /* \"#utility.yul\":1907:1925   */\n      add\n        /* \"#utility.yul\":1899:1925   */\n      swap1\n      pop\n        /* \"#utility.yul\":1935:2006   */\n      tag_361\n        /* \"#utility.yul\":2003:2004   */\n      0x00\n        /* \"#utility.yul\":1992:2001   */\n      dup4\n        /* \"#utility.yul\":1988:2005   */\n      add\n        /* \"#utility.yul\":1979:1985   */\n      dup7\n        /* \"#utility.yul\":1935:2006   */\n      tag_290\n      jump\t// in\n    tag_361:\n        /* \"#utility.yul\":2016:2088   */\n      tag_362\n        /* \"#utility.yul\":2084:2086   */\n      0x20\n        /* \"#utility.yul\":2073:2082   */\n      dup4\n        /* \"#utility.yul\":2069:2087   */\n      add\n        /* \"#utility.yul\":2060:2066   */\n      dup6\n        /* \"#utility.yul\":2016:2088   */\n      tag_290\n      jump\t// in\n    tag_362:\n        /* \"#utility.yul\":2098:2170   */\n      tag_363\n        /* \"#utility.yul\":2166:2168   */\n      0x40\n        /* \"#utility.yul\":2155:2164   */\n      dup4\n        /* \"#utility.yul\":2151:2169   */\n      add\n        /* \"#utility.yul\":2142:2148   */\n      dup5\n        /* \"#utility.yul\":2098:2170   */\n      tag_290\n      jump\t// in\n    tag_363:\n        /* \"#utility.yul\":1735:2177   */\n      swap5\n      swap4\n      pop\n      pop\n      pop\n      pop\n      jump\t// out\n        /* \"#utility.yul\":2183:2405   */\n    tag_45:\n        /* \"#utility.yul\":2276:2280   */\n      0x00\n        /* \"#utility.yul\":2314:2316   */\n      0x20\n        /* \"#utility.yul\":2303:2312   */\n      dup3\n        /* \"#utility.yul\":2299:2317   */\n      add\n        /* \"#utility.yul\":2291:2317   */\n      swap1\n      pop\n        /* \"#utility.yul\":2327:2398   */\n      tag_365\n        /* \"#utility.yul\":2395:2396   */\n      0x00\n        /* \"#utility.yul\":2384:2393   */\n      dup4\n        /* \"#utility.yul\":2380:2397   */\n      add\n        /* \"#utility.yul\":2371:2377   */\n      dup5\n        /* \"#utility.yul\":2327:2398   */\n      tag_290\n      jump\t// in\n    tag_365:\n        /* \"#utility.yul\":2183:2405   */\n      swap3\n      swap2\n      pop\n      pop\n      jump\t// out\n        /* \"#utility.yul\":2411:2533   */\n    tag_291:\n        /* \"#utility.yul\":2484:2508   */\n      tag_367\n        /* \"#utility.yul\":2502:2507   */\n      dup2\n        /* \"#utility.yul\":2484:2508   */\n      tag_289\n      jump\t// in\n    tag_367:\n        /* \"#utility.yul\":2477:2482   */\n      dup2\n        /* \"#utility.yul\":2474:2509   */\n      eq\n        /* \"#utility.yul\":2464:2527   */\n      tag_368\n      jumpi\n        /* \"#utility.yul\":2523:2524   */\n      0x00\n        /* \"#utility.yul\":2520:2521   */\n      dup1\n        /* \"#utility.yul\":2513:2525   */\n      revert\n        /* \"#utility.yul\":2464:2527   */\n    tag_368:\n        /* \"#utility.yul\":2411:2533   */\n      pop\n      jump\t// out\n        /* \"#utility.yul\":2539:2678   */\n    tag_292:\n        /* \"#utility.yul\":2585:2590   */\n      0x00\n        /* \"#utility.yul\":2623:2629   */\n      dup2\n        /* \"#utility.yul\":2610:2630   */\n      calldataload\n        /* \"#utility.yul\":2601:2630   */\n      swap1\n      pop\n        /* \"#utility.yul\":2639:2672   */\n      tag_370\n        /* \"#utility.yul\":2666:2671   */\n      dup2\n        /* \"#utility.yul\":2639:2672   */\n      tag_291\n      jump\t// in\n    tag_370:\n        /* \"#utility.yul\":2539:2678   */\n      swap3\n      swap2\n      pop\n      pop\n      jump\t// out\n        /* \"#utility.yul\":2684:3449   */\n    tag_56:\n        /* \"#utility.yul\":2770:2776   */\n      0x00\n        /* \"#utility.yul\":2778:2784   */\n      dup1\n        /* \"#utility.yul\":2786:2792   */\n      0x00\n        /* \"#utility.yul\":2794:2800   */\n      dup1\n        /* \"#utility.yul\":2843:2846   */\n      0x80\n        /* \"#utility.yul\":2831:2840   */\n      dup6\n        /* \"#utility.yul\":2822:2829   */\n      dup8\n        /* \"#utility.yul\":2818:2841   */\n      sub\n        /* \"#utility.yul\":2814:2847   */\n      slt\n        /* \"#utility.yul\":2811:2931   */\n      iszero\n      tag_372\n      jumpi\n        /* \"#utility.yul\":2850:2929   */\n      tag_373\n      tag_285\n      jump\t// in\n    tag_373:\n        /* \"#utility.yul\":2811:2931   */\n    tag_372:\n        /* \"#utility.yul\":2970:2971   */\n      0x00\n        /* \"#utility.yul\":2995:3048   */\n      tag_374\n        /* \"#utility.yul\":3040:3047   */\n      dup8\n        /* \"#utility.yul\":3031:3037   */\n      dup3\n        /* \"#utility.yul\":3020:3029   */\n      dup9\n        /* \"#utility.yul\":3016:3038   */\n      add\n        /* \"#utility.yul\":2995:3048   */\n      tag_292\n      jump\t// in\n    tag_374:\n        /* \"#utility.yul\":2985:3048   */\n      swap5\n      pop\n        /* \"#utility.yul\":2941:3058   */\n      pop\n        /* \"#utility.yul\":3097:3099   */\n      0x20\n        /* \"#utility.yul\":3123:3176   */\n      tag_375\n        /* \"#utility.yul\":3168:3175   */\n      dup8\n        /* \"#utility.yul\":3159:3165   */\n      dup3\n        /* \"#utility.yul\":3148:3157   */\n      dup9\n        /* \"#utility.yul\":3144:3166   */\n      add\n        /* \"#utility.yul\":3123:3176   */\n      tag_292\n      jump\t// in\n    tag_375:\n        /* \"#utility.yul\":3113:3176   */\n      swap4\n      pop\n        /* \"#utility.yul\":3068:3186   */\n      pop\n        /* \"#utility.yul\":3225:3227   */\n      0x40\n        /* \"#utility.yul\":3251:3304   */\n      tag_376\n        /* \"#utility.yul\":3296:3303   */\n      dup8\n        /* \"#utility.yul\":3287:3293   */\n      dup3\n        /* \"#utility.yul\":3276:3285   */\n      dup9\n        /* \"#utility.yul\":3272:3294   */\n      add\n        /* \"#utility.yul\":3251:3304   */\n      tag_292\n      jump\t// in\n    tag_376:\n        /* \"#utility.yul\":3241:3304   */\n      swap3\n      pop\n        /* \"#utility.yul\":3196:3314   */\n      pop\n        /* \"#utility.yul\":3353:3355   */\n      0x60\n        /* \"#utility.yul\":3379:3432   */\n      tag_377\n        /* \"#utility.yul\":3424:3431   */\n      dup8\n        /* \"#utility.yul\":3415:3421   */\n      dup3\n        /* \"#utility.yul\":3404:3413   */\n      dup9\n        /* \"#utility.yul\":3400:3422   */\n      add\n        /* \"#utility.yul\":3379:3432   */\n      tag_292\n      jump\t// in\n    tag_377:\n        /* \"#utility.yul\":3369:3432   */\n      swap2\n      pop\n        /* \"#utility.yul\":3324:3442   */\n      pop\n        /* \"#utility.yul\":2684:3449   */\n      swap3\n      swap6\n      swap2\n      swap5\n      pop\n      swap3\n      pop\n      jump\t// out\n        /* \"#utility.yul\":3455:3545   */\n    tag_293:\n        /* \"#utility.yul\":3489:3496   */\n      0x00\n        /* \"#utility.yul\":3532:3537   */\n      dup2\n        /* \"#utility.yul\":3525:3538   */\n      iszero\n        /* \"#utility.yul\":3518:3539   */\n      iszero\n        /* \"#utility.yul\":3507:3539   */\n      swap1\n      pop\n        /* \"#utility.yul\":3455:3545   */\n      swap2\n      swap1\n      pop\n      jump\t// out\n        /* \"#utility.yul\":3551:3660   */\n    tag_294:\n        /* \"#utility.yul\":3632:3653   */\n      tag_380\n        /* \"#utility.yul\":3647:3652   */\n      dup2\n        /* \"#utility.yul\":3632:3653   */\n      tag_293\n      jump\t// in\n    tag_380:\n        /* \"#utility.yul\":3627:3630   */\n      dup3\n        /* \"#utility.yul\":3620:3654   */\n      mstore\n        /* \"#utility.yul\":3551:3660   */\n      pop\n      pop\n      jump\t// out\n        /* \"#utility.yul\":3666:3876   */\n    tag_70:\n        /* \"#utility.yul\":3753:3757   */\n      0x00\n        /* \"#utility.yul\":3791:3793   */\n      0x20\n        /* \"#utility.yul\":3780:3789   */\n      dup3\n        /* \"#utility.yul\":3776:3794   */\n      add\n        /* \"#utility.yul\":3768:3794   */\n      swap1\n      pop\n        /* \"#utility.yul\":3804:3869   */\n      tag_382\n        /* \"#utility.yul\":3866:3867   */\n      0x00\n        /* \"#utility.yul\":3855:3864   */\n      dup4\n        /* \"#utility.yul\":3851:3868   */\n      add\n        /* \"#utility.yul\":3842:3848   */\n      dup5\n        /* \"#utility.yul\":3804:3869   */\n      tag_294\n      jump\t// in\n    tag_382:\n        /* \"#utility.yul\":3666:3876   */\n      swap3\n      swap2\n      pop\n      pop\n      jump\t// out\n        /* \"#utility.yul\":3882:4051   */\n    tag_295:\n        /* \"#utility.yul\":3966:3977   */\n      0x00\n        /* \"#utility.yul\":4000:4006   */\n      dup3\n        /* \"#utility.yul\":3995:3998   */\n      dup3\n        /* \"#utility.yul\":3988:4007   */\n      mstore\n        /* \"#utility.yul\":4040:4044   */\n      0x20\n        /* \"#utility.yul\":4035:4038   */\n      dup3\n        /* \"#utility.yul\":4031:4045   */\n      add\n        /* \"#utility.yul\":4016:4045   */\n      swap1\n      pop\n        /* \"#utility.yul\":3882:4051   */\n      swap3\n      swap2\n      pop\n      pop\n      jump\t// out\n        /* \"#utility.yul\":4057:4279   */\n    tag_296:\n        /* \"#utility.yul\":4197:4231   */\n      0x4f6e6c79206973737565722063616e2063616c6c20746869732066756e637469\n        /* \"#utility.yul\":4193:4194   */\n      0x00\n        /* \"#utility.yul\":4185:4191   */\n      dup3\n        /* \"#utility.yul\":4181:4195   */\n      add\n        /* \"#utility.yul\":4174:4232   */\n      mstore\n        /* \"#utility.yul\":4266:4271   */\n      0x6f6e2e0000000000000000000000000000000000000000000000000000000000\n        /* \"#utility.yul\":4261:4263   */\n      0x20\n        /* \"#utility.yul\":4253:4259   */\n      dup3\n        /* \"#utility.yul\":4249:4264   */\n      add\n        /* \"#utility.yul\":4242:4272   */\n      mstore\n        /* \"#utility.yul\":4057:4279   */\n      pop\n      jump\t// out\n        /* \"#utility.yul\":4285:4651   */\n    tag_297:\n        /* \"#utility.yul\":4427:4430   */\n      0x00\n        /* \"#utility.yul\":4448:4515   */\n      tag_386\n        /* \"#utility.yul\":4512:4514   */\n      0x23\n        /* \"#utility.yul\":4507:4510   */\n      dup4\n        /* \"#utility.yul\":4448:4515   */\n      tag_295\n      jump\t// in\n    tag_386:\n        /* \"#utility.yul\":4441:4515   */\n      swap2\n      pop\n        /* \"#utility.yul\":4524:4617   */\n      tag_387\n        /* \"#utility.yul\":4613:4616   */\n      dup3\n        /* \"#utility.yul\":4524:4617   */\n      tag_296\n      jump\t// in\n    tag_387:\n        /* \"#utility.yul\":4642:4644   */\n      0x40\n        /* \"#utility.yul\":4637:4640   */\n      dup3\n        /* \"#utility.yul\":4633:4645   */\n      add\n        /* \"#utility.yul\":4626:4645   */\n      swap1\n      pop\n        /* \"#utility.yul\":4285:4651   */\n      swap2\n      swap1\n      pop\n      jump\t// out\n        /* \"#utility.yul\":4657:5076   */\n    tag_95:\n        /* \"#utility.yul\":4823:4827   */\n      0x00\n        /* \"#utility.yul\":4861:4863   */\n      0x20\n        /* \"#utility.yul\":4850:4859   */\n      dup3\n        /* \"#utility.yul\":4846:4864   */\n      add\n        /* \"#utility.yul\":4838:4864   */\n      swap1\n      pop\n        /* \"#utility.yul\":4910:4919   */\n      dup2\n        /* \"#utility.yul\":4904:4908   */\n      dup2\n        /* \"#utility.yul\":4900:4920   */\n      sub\n        /* \"#utility.yul\":4896:4897   */\n      0x00\n        /* \"#utility.yul\":4885:4894   */\n      dup4\n        /* \"#utility.yul\":4881:4898   */\n      add\n        /* \"#utility.yul\":4874:4921   */\n      mstore\n        /* \"#utility.yul\":4938:5069   */\n      tag_389\n        /* \"#utility.yul\":5064:5068   */\n      dup2\n        /* \"#utility.yul\":4938:5069   */\n      tag_297\n      jump\t// in\n    tag_389:\n        /* \"#utility.yul\":4930:5069   */\n      swap1\n      pop\n        /* \"#utility.yul\":4657:5076   */\n      swap2\n      swap1\n      pop\n      jump\t// out\n        /* \"#utility.yul\":5082:5302   */\n    tag_298:\n        /* \"#utility.yul\":5222:5256   */\n      0x416d6f756e74206d7573742062652067726561746572207468616e207a65726f\n        /* \"#utility.yul\":5218:5219   */\n      0x00\n        /* \"#utility.yul\":5210:5216   */\n      dup3\n        /* \"#utility.yul\":5206:5220   */\n      add\n        /* \"#utility.yul\":5199:5257   */\n      mstore\n        /* \"#utility.yul\":5291:5294   */\n      0x2e00000000000000000000000000000000000000000000000000000000000000\n        /* \"#utility.yul\":5286:5288   */\n      0x20\n        /* \"#utility.yul\":5278:5284   */\n      dup3\n        /* \"#utility.yul\":5274:5289   */\n      add\n        /* \"#utility.yul\":5267:5295   */\n      mstore\n        /* \"#utility.yul\":5082:5302   */\n      pop\n      jump\t// out\n        /* \"#utility.yul\":5308:5674   */\n    tag_299:\n        /* \"#utility.yul\":5450:5453   */\n      0x00\n        /* \"#utility.yul\":5471:5538   */\n      tag_392\n        /* \"#utility.yul\":5535:5537   */\n      0x21\n        /* \"#utility.yul\":5530:5533   */\n      dup4\n        /* \"#utility.yul\":5471:5538   */\n      tag_295\n      jump\t// in\n    tag_392:\n        /* \"#utility.yul\":5464:5538   */\n      swap2\n      pop\n        /* \"#utility.yul\":5547:5640   */\n      tag_393\n        /* \"#utility.yul\":5636:5639   */\n      dup3\n        /* \"#utility.yul\":5547:5640   */\n      tag_298\n      jump\t// in\n    tag_393:\n        /* \"#utility.yul\":5665:5667   */\n      0x40\n        /* \"#utility.yul\":5660:5663   */\n      dup3\n        /* \"#utility.yul\":5656:5668   */\n      add\n        /* \"#utility.yul\":5649:5668   */\n      swap1\n      pop\n        /* \"#utility.yul\":5308:5674   */\n      swap2\n      swap1\n      pop\n      jump\t// out\n        /* \"#utility.yul\":5680:6099   */\n    tag_99:\n        /* \"#utility.yul\":5846:5850   */\n      0x00\n        /* \"#utility.yul\":5884:5886   */\n      0x20\n        /* \"#utility.yul\":5873:5882   */\n      dup3\n        /* \"#utility.yul\":5869:5887   */\n      add\n        /* \"#utility.yul\":5861:5887   */\n      swap1\n      pop\n        /* \"#utility.yul\":5933:5942   */\n      dup2\n        /* \"#utility.yul\":5927:5931   */\n      dup2\n        /* \"#utility.yul\":5923:5943   */\n      sub\n        /* \"#utility.yul\":5919:5920   */\n      0x00\n        /* \"#utility.yul\":5908:5917   */\n      dup4\n        /* \"#utility.yul\":5904:5921   */\n      add\n        /* \"#utility.yul\":5897:5944   */\n      mstore\n        /* \"#utility.yul\":5961:6092   */\n      tag_395\n        /* \"#utility.yul\":6087:6091   */\n      dup2\n        /* \"#utility.yul\":5961:6092   */\n      tag_299\n      jump\t// in\n    tag_395:\n        /* \"#utility.yul\":5953:6092   */\n      swap1\n      pop\n        /* \"#utility.yul\":5680:6099   */\n      swap2\n      swap1\n      pop\n      jump\t// out\n        /* \"#utility.yul\":6105:6287   */\n    tag_300:\n        /* \"#utility.yul\":6245:6279   */\n      0x596f7520646f206e6f74206861766520626f6e647320746f2072656465656d2e\n        /* \"#utility.yul\":6241:6242   */\n      0x00\n        /* \"#utility.yul\":6233:6239   */\n      dup3\n        /* \"#utility.yul\":6229:6243   */\n      add\n        /* \"#utility.yul\":6222:6280   */\n      mstore\n        /* \"#utility.yul\":6105:6287   */\n      pop\n      jump\t// out\n        /* \"#utility.yul\":6293:6659   */\n    tag_301:\n        /* \"#utility.yul\":6435:6438   */\n      0x00\n        /* \"#utility.yul\":6456:6523   */\n      tag_398\n        /* \"#utility.yul\":6520:6522   */\n      0x20\n        /* \"#utility.yul\":6515:6518   */\n      dup4\n        /* \"#utility.yul\":6456:6523   */\n      tag_295\n      jump\t// in\n    tag_398:\n        /* \"#utility.yul\":6449:6523   */\n      swap2\n      pop\n        /* \"#utility.yul\":6532:6625   */\n      tag_399\n        /* \"#utility.yul\":6621:6624   */\n      dup3\n        /* \"#utility.yul\":6532:6625   */\n      tag_300\n      jump\t// in\n    tag_399:\n        /* \"#utility.yul\":6650:6652   */\n      0x20\n        /* \"#utility.yul\":6645:6648   */\n      dup3\n        /* \"#utility.yul\":6641:6653   */\n      add\n        /* \"#utility.yul\":6634:6653   */\n      swap1\n      pop\n        /* \"#utility.yul\":6293:6659   */\n      swap2\n      swap1\n      pop\n      jump\t// out\n        /* \"#utility.yul\":6665:7084   */\n    tag_103:\n        /* \"#utility.yul\":6831:6835   */\n      0x00\n        /* \"#utility.yul\":6869:6871   */\n      0x20\n        /* \"#utility.yul\":6858:6867   */\n      dup3\n        /* \"#utility.yul\":6854:6872   */\n      add\n        /* \"#utility.yul\":6846:6872   */\n      swap1\n      pop\n        /* \"#utility.yul\":6918:6927   */\n      dup2\n        /* \"#utility.yul\":6912:6916   */\n      dup2\n        /* \"#utility.yul\":6908:6928   */\n      sub\n        /* \"#utility.yul\":6904:6905   */\n      0x00\n        /* \"#utility.yul\":6893:6902   */\n      dup4\n        /* \"#utility.yul\":6889:6906   */\n      add\n        /* \"#utility.yul\":6882:6929   */\n      mstore\n        /* \"#utility.yul\":6946:7077   */\n      tag_401\n        /* \"#utility.yul\":7072:7076   */\n      dup2\n        /* \"#utility.yul\":6946:7077   */\n      tag_301\n      jump\t// in\n    tag_401:\n        /* \"#utility.yul\":6938:7077   */\n      swap1\n      pop\n        /* \"#utility.yul\":6665:7084   */\n      swap2\n      swap1\n      pop\n      jump\t// out\n        /* \"#utility.yul\":7090:7270   */\n    tag_302:\n        /* \"#utility.yul\":7138:7215   */\n      0x4e487b7100000000000000000000000000000000000000000000000000000000\n        /* \"#utility.yul\":7135:7136   */\n      0x00\n        /* \"#utility.yul\":7128:7216   */\n      mstore\n        /* \"#utility.yul\":7235:7239   */\n      0x11\n        /* \"#utility.yul\":7232:7233   */\n      0x04\n        /* \"#utility.yul\":7225:7240   */\n      mstore\n        /* \"#utility.yul\":7259:7263   */\n      0x24\n        /* \"#utility.yul\":7256:7257   */\n      0x00\n        /* \"#utility.yul\":7249:7264   */\n      revert\n        /* \"#utility.yul\":7276:7686   */\n    tag_105:\n        /* \"#utility.yul\":7316:7323   */\n      0x00\n        /* \"#utility.yul\":7339:7359   */\n      tag_404\n        /* \"#utility.yul\":7357:7358   */\n      dup3\n        /* \"#utility.yul\":7339:7359   */\n      tag_289\n      jump\t// in\n    tag_404:\n        /* \"#utility.yul\":7334:7359   */\n      swap2\n      pop\n        /* \"#utility.yul\":7373:7393   */\n      tag_405\n        /* \"#utility.yul\":7391:7392   */\n      dup4\n        /* \"#utility.yul\":7373:7393   */\n      tag_289\n      jump\t// in\n    tag_405:\n        /* \"#utility.yul\":7368:7393   */\n      swap3\n      pop\n        /* \"#utility.yul\":7428:7429   */\n      dup3\n        /* \"#utility.yul\":7425:7426   */\n      dup3\n        /* \"#utility.yul\":7421:7430   */\n      mul\n        /* \"#utility.yul\":7450:7480   */\n      tag_406\n        /* \"#utility.yul\":7468:7479   */\n      dup2\n        /* \"#utility.yul\":7450:7480   */\n      tag_289\n      jump\t// in\n    tag_406:\n        /* \"#utility.yul\":7439:7480   */\n      swap2\n      pop\n        /* \"#utility.yul\":7629:7630   */\n      dup3\n        /* \"#utility.yul\":7620:7627   */\n      dup3\n        /* \"#utility.yul\":7616:7631   */\n      div\n        /* \"#utility.yul\":7613:7614   */\n      dup5\n        /* \"#utility.yul\":7610:7632   */\n      eq\n        /* \"#utility.yul\":7590:7591   */\n      dup4\n        /* \"#utility.yul\":7583:7592   */\n      iszero\n        /* \"#utility.yul\":7563:7646   */\n      or\n        /* \"#utility.yul\":7540:7679   */\n      tag_407\n      jumpi\n        /* \"#utility.yul\":7659:7677   */\n      tag_408\n      tag_302\n      jump\t// in\n    tag_408:\n        /* \"#utility.yul\":7540:7679   */\n    tag_407:\n        /* \"#utility.yul\":7324:7686   */\n      pop\n        /* \"#utility.yul\":7276:7686   */\n      swap3\n      swap2\n      pop\n      pop\n      jump\t// out\n        /* \"#utility.yul\":7692:7886   */\n    tag_107:\n        /* \"#utility.yul\":7732:7736   */\n      0x00\n        /* \"#utility.yul\":7752:7772   */\n      tag_410\n        /* \"#utility.yul\":7770:7771   */\n      dup3\n        /* \"#utility.yul\":7752:7772   */\n      tag_289\n      jump\t// in\n    tag_410:\n        /* \"#utility.yul\":7747:7772   */\n      swap2\n      pop\n        /* \"#utility.yul\":7786:7806   */\n      tag_411\n        /* \"#utility.yul\":7804:7805   */\n      dup4\n        /* \"#utility.yul\":7786:7806   */\n      tag_289\n      jump\t// in\n    tag_411:\n        /* \"#utility.yul\":7781:7806   */\n      swap3\n      pop\n        /* \"#utility.yul\":7830:7831   */\n      dup3\n        /* \"#utility.yul\":7827:7828   */\n      dup3\n        /* \"#utility.yul\":7823:7832   */\n      sub\n        /* \"#utility.yul\":7815:7832   */\n      swap1\n      pop\n        /* \"#utility.yul\":7854:7855   */\n      dup2\n        /* \"#utility.yul\":7848:7852   */\n      dup2\n        /* \"#utility.yul\":7845:7856   */\n      gt\n        /* \"#utility.yul\":7842:7879   */\n      iszero\n      tag_412\n      jumpi\n        /* \"#utility.yul\":7859:7877   */\n      tag_413\n      tag_302\n      jump\t// in\n    tag_413:\n        /* \"#utility.yul\":7842:7879   */\n    tag_412:\n        /* \"#utility.yul\":7692:7886   */\n      swap3\n      swap2\n      pop\n      pop\n      jump\t// out\n        /* \"#utility.yul\":7892:8072   */\n    tag_259:\n        /* \"#utility.yul\":7940:8017   */\n      0x4e487b7100000000000000000000000000000000000000000000000000000000\n        /* \"#utility.yul\":7937:7938   */\n      0x00\n        /* \"#utility.yul\":7930:8018   */\n      mstore\n        /* \"#utility.yul\":8037:8041   */\n      0x12\n        /* \"#utility.yul\":8034:8035   */\n      0x04\n        /* \"#utility.yul\":8027:8042   */\n      mstore\n        /* \"#utility.yul\":8061:8065   */\n      0x24\n        /* \"#utility.yul\":8058:8059   */\n      0x00\n        /* \"#utility.yul\":8051:8066   */\n      revert\n        /* \"#utility.yul\":8078:8263   */\n    tag_111:\n        /* \"#utility.yul\":8118:8119   */\n      0x00\n        /* \"#utility.yul\":8135:8155   */\n      tag_416\n        /* \"#utility.yul\":8153:8154   */\n      dup3\n        /* \"#utility.yul\":8135:8155   */\n      tag_289\n      jump\t// in\n    tag_416:\n        /* \"#utility.yul\":8130:8155   */\n      swap2\n      pop\n        /* \"#utility.yul\":8169:8189   */\n      tag_417\n        /* \"#utility.yul\":8187:8188   */\n      dup4\n        /* \"#utility.yul\":8169:8189   */\n      tag_289\n      jump\t// in\n    tag_417:\n        /* \"#utility.yul\":8164:8189   */\n      swap3\n      pop\n        /* \"#utility.yul\":8208:8209   */\n      dup3\n        /* \"#utility.yul\":8198:8233   */\n      tag_418\n      jumpi\n        /* \"#utility.yul\":8213:8231   */\n      tag_419\n      tag_259\n      jump\t// in\n    tag_419:\n        /* \"#utility.yul\":8198:8233   */\n    tag_418:\n        /* \"#utility.yul\":8255:8256   */\n      dup3\n        /* \"#utility.yul\":8252:8253   */\n      dup3\n        /* \"#utility.yul\":8248:8257   */\n      div\n        /* \"#utility.yul\":8243:8257   */\n      swap1\n      pop\n        /* \"#utility.yul\":8078:8263   */\n      swap3\n      swap2\n      pop\n      pop\n      jump\t// out\n        /* \"#utility.yul\":8269:8460   */\n    tag_113:\n        /* \"#utility.yul\":8309:8312   */\n      0x00\n        /* \"#utility.yul\":8328:8348   */\n      tag_421\n        /* \"#utility.yul\":8346:8347   */\n      dup3\n        /* \"#utility.yul\":8328:8348   */\n      tag_289\n      jump\t// in\n    tag_421:\n        /* \"#utility.yul\":8323:8348   */\n      swap2\n      pop\n        /* \"#utility.yul\":8362:8382   */\n      tag_422\n        /* \"#utility.yul\":8380:8381   */\n      dup4\n        /* \"#utility.yul\":8362:8382   */\n      tag_289\n      jump\t// in\n    tag_422:\n        /* \"#utility.yul\":8357:8382   */\n      swap3\n      pop\n        /* \"#utility.yul\":8405:8406   */\n      dup3\n        /* \"#utility.yul\":8402:8403   */\n      dup3\n        /* \"#utility.yul\":8398:8407   */\n      add\n        /* \"#utility.yul\":8391:8407   */\n      swap1\n      pop\n        /* \"#utility.yul\":8426:8429   */\n      dup1\n        /* \"#utility.yul\":8423:8424   */\n      dup3\n        /* \"#utility.yul\":8420:8430   */\n      gt\n        /* \"#utility.yul\":8417:8453   */\n      iszero\n      tag_423\n      jumpi\n        /* \"#utility.yul\":8433:8451   */\n      tag_424\n      tag_302\n      jump\t// in\n    tag_424:\n        /* \"#utility.yul\":8417:8453   */\n    tag_423:\n        /* \"#utility.yul\":8269:8460   */\n      swap3\n      swap2\n      pop\n      pop\n      jump\t// out\n        /* \"#utility.yul\":8466:8643   */\n    tag_303:\n        /* \"#utility.yul\":8606:8635   */\n      0x426f6e642073616c6520706572696f642068617320656e6465642e0000000000\n        /* \"#utility.yul\":8602:8603   */\n      0x00\n        /* \"#utility.yul\":8594:8600   */\n      dup3\n        /* \"#utility.yul\":8590:8604   */\n      add\n        /* \"#utility.yul\":8583:8636   */\n      mstore\n        /* \"#utility.yul\":8466:8643   */\n      pop\n      jump\t// out\n        /* \"#utility.yul\":8649:9015   */\n    tag_304:\n        /* \"#utility.yul\":8791:8794   */\n      0x00\n        /* \"#utility.yul\":8812:8879   */\n      tag_427\n        /* \"#utility.yul\":8876:8878   */\n      0x1b\n        /* \"#utility.yul\":8871:8874   */\n      dup4\n        /* \"#utility.yul\":8812:8879   */\n      tag_295\n      jump\t// in\n    tag_427:\n        /* \"#utility.yul\":8805:8879   */\n      swap2\n      pop\n        /* \"#utility.yul\":8888:8981   */\n      tag_428\n        /* \"#utility.yul\":8977:8980   */\n      dup3\n        /* \"#utility.yul\":8888:8981   */\n      tag_303\n      jump\t// in\n    tag_428:\n        /* \"#utility.yul\":9006:9008   */\n      0x20\n        /* \"#utility.yul\":9001:9004   */\n      dup3\n        /* \"#utility.yul\":8997:9009   */\n      add\n        /* \"#utility.yul\":8990:9009   */\n      swap1\n      pop\n        /* \"#utility.yul\":8649:9015   */\n      swap2\n      swap1\n      pop\n      jump\t// out\n        /* \"#utility.yul\":9021:9440   */\n    tag_117:\n        /* \"#utility.yul\":9187:9191   */\n      0x00\n        /* \"#utility.yul\":9225:9227   */\n      0x20\n        /* \"#utility.yul\":9214:9223   */\n      dup3\n        /* \"#utility.yul\":9210:9228   */\n      add\n        /* \"#utility.yul\":9202:9228   */\n      swap1\n      pop\n        /* \"#utility.yul\":9274:9283   */\n      dup2\n        /* \"#utility.yul\":9268:9272   */\n      dup2\n        /* \"#utility.yul\":9264:9284   */\n      sub\n        /* \"#utility.yul\":9260:9261   */\n      0x00\n        /* \"#utility.yul\":9249:9258   */\n      dup4\n        /* \"#utility.yul\":9245:9262   */\n      add\n        /* \"#utility.yul\":9238:9285   */\n      mstore\n        /* \"#utility.yul\":9302:9433   */\n      tag_430\n        /* \"#utility.yul\":9428:9432   */\n      dup2\n        /* \"#utility.yul\":9302:9433   */\n      tag_304\n      jump\t// in\n    tag_430:\n        /* \"#utility.yul\":9294:9433   */\n      swap1\n      pop\n        /* \"#utility.yul\":9021:9440   */\n      swap2\n      swap1\n      pop\n      jump\t// out\n        /* \"#utility.yul\":9446:9627   */\n    tag_305:\n        /* \"#utility.yul\":9586:9619   */\n      0x496e73756666696369656e742066756e647320746f2070757263686173652e00\n        /* \"#utility.yul\":9582:9583   */\n      0x00\n        /* \"#utility.yul\":9574:9580   */\n      dup3\n        /* \"#utility.yul\":9570:9584   */\n      add\n        /* \"#utility.yul\":9563:9620   */\n      mstore\n        /* \"#utility.yul\":9446:9627   */\n      pop\n      jump\t// out\n        /* \"#utility.yul\":9633:9999   */\n    tag_306:\n        /* \"#utility.yul\":9775:9778   */\n      0x00\n        /* \"#utility.yul\":9796:9863   */\n      tag_433\n        /* \"#utility.yul\":9860:9862   */\n      0x1f\n        /* \"#utility.yul\":9855:9858   */\n      dup4\n        /* \"#utility.yul\":9796:9863   */\n      tag_295\n      jump\t// in\n    tag_433:\n        /* \"#utility.yul\":9789:9863   */\n      swap2\n      pop\n        /* \"#utility.yul\":9872:9965   */\n      tag_434\n        /* \"#utility.yul\":9961:9964   */\n      dup3\n        /* \"#utility.yul\":9872:9965   */\n      tag_305\n      jump\t// in\n    tag_434:\n        /* \"#utility.yul\":9990:9992   */\n      0x20\n        /* \"#utility.yul\":9985:9988   */\n      dup3\n        /* \"#utility.yul\":9981:9993   */\n      add\n        /* \"#utility.yul\":9974:9993   */\n      swap1\n      pop\n        /* \"#utility.yul\":9633:9999   */\n      swap2\n      swap1\n      pop\n      jump\t// out\n        /* \"#utility.yul\":10005:10424   */\n    tag_124:\n        /* \"#utility.yul\":10171:10175   */\n      0x00\n        /* \"#utility.yul\":10209:10211   */\n      0x20\n        /* \"#utility.yul\":10198:10207   */\n      dup3\n        /* \"#utility.yul\":10194:10212   */\n      add\n        /* \"#utility.yul\":10186:10212   */\n      swap1\n      pop\n        /* \"#utility.yul\":10258:10267   */\n      dup2\n        /* \"#utility.yul\":10252:10256   */\n      dup2\n        /* \"#utility.yul\":10248:10268   */\n      sub\n        /* \"#utility.yul\":10244:10245   */\n      0x00\n        /* \"#utility.yul\":10233:10242   */\n      dup4\n        /* \"#utility.yul\":10229:10246   */\n      add\n        /* \"#utility.yul\":10222:10269   */\n      mstore\n        /* \"#utility.yul\":10286:10417   */\n      tag_436\n        /* \"#utility.yul\":10412:10416   */\n      dup2\n        /* \"#utility.yul\":10286:10417   */\n      tag_306\n      jump\t// in\n    tag_436:\n        /* \"#utility.yul\":10278:10417   */\n      swap1\n      pop\n        /* \"#utility.yul\":10005:10424   */\n      swap2\n      swap1\n      pop\n      jump\t// out\n        /* \"#utility.yul\":10430:10578   */\n    tag_307:\n        /* \"#utility.yul\":10532:10543   */\n      0x00\n        /* \"#utility.yul\":10569:10572   */\n      dup2\n        /* \"#utility.yul\":10554:10572   */\n      swap1\n      pop\n        /* \"#utility.yul\":10430:10578   */\n      swap3\n      swap2\n      pop\n      pop\n      jump\t// out\n        /* \"#utility.yul\":10584:10815   */\n    tag_308:\n        /* \"#utility.yul\":10724:10758   */\n      0x496e73756666696369656e7420626f6e647320746f206275792e20417661696c\n        /* \"#utility.yul\":10720:10721   */\n      0x00\n        /* \"#utility.yul\":10712:10718   */\n      dup3\n        /* \"#utility.yul\":10708:10722   */\n      add\n        /* \"#utility.yul\":10701:10759   */\n      mstore\n        /* \"#utility.yul\":10793:10807   */\n      0x61626c6520626f6e64733a200000000000000000000000000000000000000000\n        /* \"#utility.yul\":10788:10790   */\n      0x20\n        /* \"#utility.yul\":10780:10786   */\n      dup3\n        /* \"#utility.yul\":10776:10791   */\n      add\n        /* \"#utility.yul\":10769:10808   */\n      mstore\n        /* \"#utility.yul\":10584:10815   */\n      pop\n      jump\t// out\n        /* \"#utility.yul\":10821:11223   */\n    tag_309:\n        /* \"#utility.yul\":10981:10984   */\n      0x00\n        /* \"#utility.yul\":11002:11087   */\n      tag_440\n        /* \"#utility.yul\":11084:11086   */\n      0x2c\n        /* \"#utility.yul\":11079:11082   */\n      dup4\n        /* \"#utility.yul\":11002:11087   */\n      tag_307\n      jump\t// in\n    tag_440:\n        /* \"#utility.yul\":10995:11087   */\n      swap2\n      pop\n        /* \"#utility.yul\":11096:11189   */\n      tag_441\n        /* \"#utility.yul\":11185:11188   */\n      dup3\n        /* \"#utility.yul\":11096:11189   */\n      tag_308\n      jump\t// in\n    tag_441:\n        /* \"#utility.yul\":11214:11216   */\n      0x2c\n        /* \"#utility.yul\":11209:11212   */\n      dup3\n        /* \"#utility.yul\":11205:11217   */\n      add\n        /* \"#utility.yul\":11198:11217   */\n      swap1\n      pop\n        /* \"#utility.yul\":10821:11223   */\n      swap2\n      swap1\n      pop\n      jump\t// out\n        /* \"#utility.yul\":11229:11328   */\n    tag_310:\n        /* \"#utility.yul\":11281:11287   */\n      0x00\n        /* \"#utility.yul\":11315:11320   */\n      dup2\n        /* \"#utility.yul\":11309:11321   */\n      mload\n        /* \"#utility.yul\":11299:11321   */\n      swap1\n      pop\n        /* \"#utility.yul\":11229:11328   */\n      swap2\n      swap1\n      pop\n      jump\t// out\n        /* \"#utility.yul\":11334:11473   */\n    tag_311:\n        /* \"#utility.yul\":11423:11429   */\n      dup3\n        /* \"#utility.yul\":11418:11421   */\n      dup2\n        /* \"#utility.yul\":11413:11416   */\n      dup4\n        /* \"#utility.yul\":11407:11430   */\n      mcopy\n        /* \"#utility.yul\":11464:11465   */\n      0x00\n        /* \"#utility.yul\":11455:11461   */\n      dup4\n        /* \"#utility.yul\":11450:11453   */\n      dup4\n        /* \"#utility.yul\":11446:11462   */\n      add\n        /* \"#utility.yul\":11439:11466   */\n      mstore\n        /* \"#utility.yul\":11334:11473   */\n      pop\n      pop\n      pop\n      jump\t// out\n        /* \"#utility.yul\":11479:11869   */\n    tag_312:\n        /* \"#utility.yul\":11585:11588   */\n      0x00\n        /* \"#utility.yul\":11613:11652   */\n      tag_445\n        /* \"#utility.yul\":11646:11651   */\n      dup3\n        /* \"#utility.yul\":11613:11652   */\n      tag_310\n      jump\t// in\n    tag_445:\n        /* \"#utility.yul\":11668:11757   */\n      tag_446\n        /* \"#utility.yul\":11750:11756   */\n      dup2\n        /* \"#utility.yul\":11745:11748   */\n      dup6\n        /* \"#utility.yul\":11668:11757   */\n      tag_307\n      jump\t// in\n    tag_446:\n        /* \"#utility.yul\":11661:11757   */\n      swap4\n      pop\n        /* \"#utility.yul\":11766:11831   */\n      tag_447\n        /* \"#utility.yul\":11824:11830   */\n      dup2\n        /* \"#utility.yul\":11819:11822   */\n      dup6\n        /* \"#utility.yul\":11812:11816   */\n      0x20\n        /* \"#utility.yul\":11805:11810   */\n      dup7\n        /* \"#utility.yul\":11801:11817   */\n      add\n        /* \"#utility.yul\":11766:11831   */\n      tag_311\n      jump\t// in\n    tag_447:\n        /* \"#utility.yul\":11856:11862   */\n      dup1\n        /* \"#utility.yul\":11851:11854   */\n      dup5\n        /* \"#utility.yul\":11847:11863   */\n      add\n        /* \"#utility.yul\":11840:11863   */\n      swap2\n      pop\n        /* \"#utility.yul\":11589:11869   */\n      pop\n        /* \"#utility.yul\":11479:11869   */\n      swap3\n      swap2\n      pop\n      pop\n      jump\t// out\n        /* \"#utility.yul\":11875:12416   */\n    tag_128:\n        /* \"#utility.yul\":12108:12111   */\n      0x00\n        /* \"#utility.yul\":12130:12278   */\n      tag_449\n        /* \"#utility.yul\":12274:12277   */\n      dup3\n        /* \"#utility.yul\":12130:12278   */\n      tag_309\n      jump\t// in\n    tag_449:\n        /* \"#utility.yul\":12123:12278   */\n      swap2\n      pop\n        /* \"#utility.yul\":12295:12390   */\n      tag_450\n        /* \"#utility.yul\":12386:12389   */\n      dup3\n        /* \"#utility.yul\":12377:12383   */\n      dup5\n        /* \"#utility.yul\":12295:12390   */\n      tag_312\n      jump\t// in\n    tag_450:\n        /* \"#utility.yul\":12288:12390   */\n      swap2\n      pop\n        /* \"#utility.yul\":12407:12410   */\n      dup2\n        /* \"#utility.yul\":12400:12410   */\n      swap1\n      pop\n        /* \"#utility.yul\":11875:12416   */\n      swap3\n      swap2\n      pop\n      pop\n      jump\t// out\n        /* \"#utility.yul\":12422:12524   */\n    tag_313:\n        /* \"#utility.yul\":12463:12469   */\n      0x00\n        /* \"#utility.yul\":12514:12516   */\n      0x1f\n        /* \"#utility.yul\":12510:12517   */\n      not\n        /* \"#utility.yul\":12505:12507   */\n      0x1f\n        /* \"#utility.yul\":12498:12503   */\n      dup4\n        /* \"#utility.yul\":12494:12508   */\n      add\n        /* \"#utility.yul\":12490:12518   */\n      and\n        /* \"#utility.yul\":12480:12518   */\n      swap1\n      pop\n        /* \"#utility.yul\":12422:12524   */\n      swap2\n      swap1\n      pop\n      jump\t// out\n        /* \"#utility.yul\":12530:12907   */\n    tag_314:\n        /* \"#utility.yul\":12618:12621   */\n      0x00\n        /* \"#utility.yul\":12646:12685   */\n      tag_453\n        /* \"#utility.yul\":12679:12684   */\n      dup3\n        /* \"#utility.yul\":12646:12685   */\n      tag_310\n      jump\t// in\n    tag_453:\n        /* \"#utility.yul\":12701:12772   */\n      tag_454\n        /* \"#utility.yul\":12765:12771   */\n      dup2\n        /* \"#utility.yul\":12760:12763   */\n      dup6\n        /* \"#utility.yul\":12701:12772   */\n      tag_295\n      jump\t// in\n    tag_454:\n        /* \"#utility.yul\":12694:12772   */\n      swap4\n      pop\n        /* \"#utility.yul\":12781:12846   */\n      tag_455\n        /* \"#utility.yul\":12839:12845   */\n      dup2\n        /* \"#utility.yul\":12834:12837   */\n      dup6\n        /* \"#utility.yul\":12827:12831   */\n      0x20\n        /* \"#utility.yul\":12820:12825   */\n      dup7\n        /* \"#utility.yul\":12816:12832   */\n      add\n        /* \"#utility.yul\":12781:12846   */\n      tag_311\n      jump\t// in\n    tag_455:\n        /* \"#utility.yul\":12871:12900   */\n      tag_456\n        /* \"#utility.yul\":12893:12899   */\n      dup2\n        /* \"#utility.yul\":12871:12900   */\n      tag_313\n      jump\t// in\n    tag_456:\n        /* \"#utility.yul\":12866:12869   */\n      dup5\n        /* \"#utility.yul\":12862:12901   */\n      add\n        /* \"#utility.yul\":12855:12901   */\n      swap2\n      pop\n        /* \"#utility.yul\":12622:12907   */\n      pop\n        /* \"#utility.yul\":12530:12907   */\n      swap3\n      swap2\n      pop\n      pop\n      jump\t// out\n        /* \"#utility.yul\":12913:13226   */\n    tag_131:\n        /* \"#utility.yul\":13026:13030   */\n      0x00\n        /* \"#utility.yul\":13064:13066   */\n      0x20\n        /* \"#utility.yul\":13053:13062   */\n      dup3\n        /* \"#utility.yul\":13049:13067   */\n      add\n        /* \"#utility.yul\":13041:13067   */\n      swap1\n      pop\n        /* \"#utility.yul\":13113:13122   */\n      dup2\n        /* \"#utility.yul\":13107:13111   */\n      dup2\n        /* \"#utility.yul\":13103:13123   */\n      sub\n        /* \"#utility.yul\":13099:13100   */\n      0x00\n        /* \"#utility.yul\":13088:13097   */\n      dup4\n        /* \"#utility.yul\":13084:13101   */\n      add\n        /* \"#utility.yul\":13077:13124   */\n      mstore\n        /* \"#utility.yul\":13141:13219   */\n      tag_458\n        /* \"#utility.yul\":13214:13218   */\n      dup2\n        /* \"#utility.yul\":13205:13211   */\n      dup5\n        /* \"#utility.yul\":13141:13219   */\n      tag_314\n      jump\t// in\n    tag_458:\n        /* \"#utility.yul\":13133:13219   */\n      swap1\n      pop\n        /* \"#utility.yul\":12913:13226   */\n      swap3\n      swap2\n      pop\n      pop\n      jump\t// out\n        /* \"#utility.yul\":13232:13465   */\n    tag_135:\n        /* \"#utility.yul\":13271:13274   */\n      0x00\n        /* \"#utility.yul\":13294:13318   */\n      tag_460\n        /* \"#utility.yul\":13312:13317   */\n      dup3\n        /* \"#utility.yul\":13294:13318   */\n      tag_289\n      jump\t// in\n    tag_460:\n        /* \"#utility.yul\":13285:13318   */\n      swap2\n      pop\n        /* \"#utility.yul\":13340:13406   */\n      0xffffffffffffffffffffffffffffffffffffffffffffffffffffffffffffffff\n        /* \"#utility.yul\":13333:13338   */\n      dup3\n        /* \"#utility.yul\":13330:13407   */\n      sub\n        /* \"#utility.yul\":13327:13430   */\n      tag_461\n      jumpi\n        /* \"#utility.yul\":13410:13428   */\n      tag_462\n      tag_302\n      jump\t// in\n    tag_462:\n        /* \"#utility.yul\":13327:13430   */\n    tag_461:\n        /* \"#utility.yul\":13457:13458   */\n      0x01\n        /* \"#utility.yul\":13450:13455   */\n      dup3\n        /* \"#utility.yul\":13446:13459   */\n      add\n        /* \"#utility.yul\":13439:13459   */\n      swap1\n      pop\n        /* \"#utility.yul\":13232:13465   */\n      swap2\n      swap1\n      pop\n      jump\t// out\n        /* \"#utility.yul\":13471:13697   */\n    tag_315:\n        /* \"#utility.yul\":13611:13645   */\n      0x426f6e6420726564656d7074696f6e20706572696f6420686173206e6f742073\n        /* \"#utility.yul\":13607:13608   */\n      0x00\n        /* \"#utility.yul\":13599:13605   */\n      dup3\n        /* \"#utility.yul\":13595:13609   */\n      add\n        /* \"#utility.yul\":13588:13646   */\n      mstore\n        /* \"#utility.yul\":13680:13689   */\n      0x7461727465642e00000000000000000000000000000000000000000000000000\n        /* \"#utility.yul\":13675:13677   */\n      0x20\n        /* \"#utility.yul\":13667:13673   */\n      dup3\n        /* \"#utility.yul\":13663:13678   */\n      add\n        /* \"#utility.yul\":13656:13690   */\n      mstore\n        /* \"#utility.yul\":13471:13697   */\n      pop\n      jump\t// out\n        /* \"#utility.yul\":13703:14069   */\n    tag_316:\n        /* \"#utility.yul\":13845:13848   */\n      0x00\n        /* \"#utility.yul\":13866:13933   */\n      tag_465\n        /* \"#utility.yul\":13930:13932   */\n      0x27\n        /* \"#utility.yul\":13925:13928   */\n      dup4\n        /* \"#utility.yul\":13866:13933   */\n      tag_295\n      jump\t// in\n    tag_465:\n        /* \"#utility.yul\":13859:13933   */\n      swap2\n      pop\n        /* \"#utility.yul\":13942:14035   */\n      tag_466\n        /* \"#utility.yul\":14031:14034   */\n      dup3\n        /* \"#utility.yul\":13942:14035   */\n      tag_315\n      jump\t// in\n    tag_466:\n        /* \"#utility.yul\":14060:14062   */\n      0x40\n        /* \"#utility.yul\":14055:14058   */\n      dup3\n        /* \"#utility.yul\":14051:14063   */\n      add\n        /* \"#utility.yul\":14044:14063   */\n      swap1\n      pop\n        /* \"#utility.yul\":13703:14069   */\n      swap2\n      swap1\n      pop\n      jump\t// out\n        /* \"#utility.yul\":14075:14494   */\n    tag_146:\n        /* \"#utility.yul\":14241:14245   */\n      0x00\n        /* \"#utility.yul\":14279:14281   */\n      0x20\n        /* \"#utility.yul\":14268:14277   */\n      dup3\n        /* \"#utility.yul\":14264:14282   */\n      add\n        /* \"#utility.yul\":14256:14282   */\n      swap1\n      pop\n        /* \"#utility.yul\":14328:14337   */\n      dup2\n        /* \"#utility.yul\":14322:14326   */\n      dup2\n        /* \"#utility.yul\":14318:14338   */\n      sub\n        /* \"#utility.yul\":14314:14315   */\n      0x00\n        /* \"#utility.yul\":14303:14312   */\n      dup4\n        /* \"#utility.yul\":14299:14316   */\n      add\n        /* \"#utility.yul\":14292:14339   */\n      mstore\n        /* \"#utility.yul\":14356:14487   */\n      tag_468\n        /* \"#utility.yul\":14482:14486   */\n      dup2\n        /* \"#utility.yul\":14356:14487   */\n      tag_316\n      jump\t// in\n    tag_468:\n        /* \"#utility.yul\":14348:14487   */\n      swap1\n      pop\n        /* \"#utility.yul\":14075:14494   */\n      swap2\n      swap1\n      pop\n      jump\t// out\n        /* \"#utility.yul\":14500:14727   */\n    tag_317:\n        /* \"#utility.yul\":14640:14674   */\n      0x4f6e65206d6f6e746820686173206e6f74207061737365642073696e6365206d\n        /* \"#utility.yul\":14636:14637   */\n      0x00\n        /* \"#utility.yul\":14628:14634   */\n      dup3\n        /* \"#utility.yul\":14624:14638   */\n      add\n        /* \"#utility.yul\":14617:14675   */\n      mstore\n        /* \"#utility.yul\":14709:14719   */\n      0x617475726974792e000000000000000000000000000000000000000000000000\n        /* \"#utility.yul\":14704:14706   */\n      0x20\n        /* \"#utility.yul\":14696:14702   */\n      dup3\n        /* \"#utility.yul\":14692:14707   */\n      add\n        /* \"#utility.yul\":14685:14720   */\n      mstore\n        /* \"#utility.yul\":14500:14727   */\n      pop\n      jump\t// out\n        /* \"#utility.yul\":14733:15099   */\n    tag_318:\n        /* \"#utility.yul\":14875:14878   */\n      0x00\n        /* \"#utility.yul\":14896:14963   */\n      tag_471\n        /* \"#utility.yul\":14960:14962   */\n      0x28\n        /* \"#utility.yul\":14955:14958   */\n      dup4\n        /* \"#utility.yul\":14896:14963   */\n      tag_295\n      jump\t// in\n    tag_471:\n        /* \"#utility.yul\":14889:14963   */\n      swap2\n      pop\n        /* \"#utility.yul\":14972:15065   */\n      tag_472\n        /* \"#utility.yul\":15061:15064   */\n      dup3\n        /* \"#utility.yul\":14972:15065   */\n      tag_317\n      jump\t// in\n    tag_472:\n        /* \"#utility.yul\":15090:15092   */\n      0x40\n        /* \"#utility.yul\":15085:15088   */\n      dup3\n        /* \"#utility.yul\":15081:15093   */\n      add\n        /* \"#utility.yul\":15074:15093   */\n      swap1\n      pop\n        /* \"#utility.yul\":14733:15099   */\n      swap2\n      swap1\n      pop\n      jump\t// out\n        /* \"#utility.yul\":15105:15524   */\n    tag_150:\n        /* \"#utility.yul\":15271:15275   */\n      0x00\n        /* \"#utility.yul\":15309:15311   */\n      0x20\n        /* \"#utility.yul\":15298:15307   */\n      dup3\n        /* \"#utility.yul\":15294:15312   */\n      add\n        /* \"#utility.yul\":15286:15312   */\n      swap1\n      pop\n        /* \"#utility.yul\":15358:15367   */\n      dup2\n        /* \"#utility.yul\":15352:15356   */\n      dup2\n        /* \"#utility.yul\":15348:15368   */\n      sub\n        /* \"#utility.yul\":15344:15345   */\n      0x00\n        /* \"#utility.yul\":15333:15342   */\n      dup4\n        /* \"#utility.yul\":15329:15346   */\n      add\n        /* \"#utility.yul\":15322:15369   */\n      mstore\n        /* \"#utility.yul\":15386:15517   */\n      tag_474\n        /* \"#utility.yul\":15512:15516   */\n      dup2\n        /* \"#utility.yul\":15386:15517   */\n      tag_318\n      jump\t// in\n    tag_474:\n        /* \"#utility.yul\":15378:15517   */\n      swap1\n      pop\n        /* \"#utility.yul\":15105:15524   */\n      swap2\n      swap1\n      pop\n      jump\t// out\n        /* \"#utility.yul\":15530:15711   */\n    tag_319:\n        /* \"#utility.yul\":15670:15703   */\n      0x496e73756666696369656e742066756e647320746f2077697468647261772e00\n        /* \"#utility.yul\":15666:15667   */\n      0x00\n        /* \"#utility.yul\":15658:15664   */\n      dup3\n        /* \"#utility.yul\":15654:15668   */\n      add\n        /* \"#utility.yul\":15647:15704   */\n      mstore\n        /* \"#utility.yul\":15530:15711   */\n      pop\n      jump\t// out\n        /* \"#utility.yul\":15717:16083   */\n    tag_320:\n        /* \"#utility.yul\":15859:15862   */\n      0x00\n        /* \"#utility.yul\":15880:15947   */\n      tag_477\n        /* \"#utility.yul\":15944:15946   */\n      0x1f\n        /* \"#utility.yul\":15939:15942   */\n      dup4\n        /* \"#utility.yul\":15880:15947   */\n      tag_295\n      jump\t// in\n    tag_477:\n        /* \"#utility.yul\":15873:15947   */\n      swap2\n      pop\n        /* \"#utility.yul\":15956:16049   */\n      tag_478\n        /* \"#utility.yul\":16045:16048   */\n      dup3\n        /* \"#utility.yul\":15956:16049   */\n      tag_319\n      jump\t// in\n    tag_478:\n        /* \"#utility.yul\":16074:16076   */\n      0x20\n        /* \"#utility.yul\":16069:16072   */\n      dup3\n        /* \"#utility.yul\":16065:16077   */\n      add\n        /* \"#utility.yul\":16058:16077   */\n      swap1\n      pop\n        /* \"#utility.yul\":15717:16083   */\n      swap2\n      swap1\n      pop\n      jump\t// out\n        /* \"#utility.yul\":16089:16508   */\n    tag_153:\n        /* \"#utility.yul\":16255:16259   */\n      0x00\n        /* \"#utility.yul\":16293:16295   */\n      0x20\n        /* \"#utility.yul\":16282:16291   */\n      dup3\n        /* \"#utility.yul\":16278:16296   */\n      add\n        /* \"#utility.yul\":16270:16296   */\n      swap1\n      pop\n        /* \"#utility.yul\":16342:16351   */\n      dup2\n        /* \"#utility.yul\":16336:16340   */\n      dup2\n        /* \"#utility.yul\":16332:16352   */\n      sub\n        /* \"#utility.yul\":16328:16329   */\n      0x00\n        /* \"#utility.yul\":16317:16326   */\n      dup4\n        /* \"#utility.yul\":16313:16330   */\n      add\n        /* \"#utility.yul\":16306:16353   */\n      mstore\n        /* \"#utility.yul\":16370:16501   */\n      tag_480\n        /* \"#utility.yul\":16496:16500   */\n      dup2\n        /* \"#utility.yul\":16370:16501   */\n      tag_320\n      jump\t// in\n    tag_480:\n        /* \"#utility.yul\":16362:16501   */\n      swap1\n      pop\n        /* \"#utility.yul\":16089:16508   */\n      swap2\n      swap1\n      pop\n      jump\t// out\n        /* \"#utility.yul\":16514:16685   */\n    tag_321:\n        /* \"#utility.yul\":16654:16677   */\n      0x426f6e647320616c7265616479206973737565642e0000000000000000000000\n        /* \"#utility.yul\":16650:16651   */\n      0x00\n        /* \"#utility.yul\":16642:16648   */\n      dup3\n        /* \"#utility.yul\":16638:16652   */\n      add\n        /* \"#utility.yul\":16631:16678   */\n      mstore\n        /* \"#utility.yul\":16514:16685   */\n      pop\n      jump\t// out\n        /* \"#utility.yul\":16691:17057   */\n    tag_322:\n        /* \"#utility.yul\":16833:16836   */\n      0x00\n        /* \"#utility.yul\":16854:16921   */\n      tag_483\n        /* \"#utility.yul\":16918:16920   */\n      0x15\n        /* \"#utility.yul\":16913:16916   */\n      dup4\n        /* \"#utility.yul\":16854:16921   */\n      tag_295\n      jump\t// in\n    tag_483:\n        /* \"#utility.yul\":16847:16921   */\n      swap2\n      pop\n        /* \"#utility.yul\":16930:17023   */\n      tag_484\n        /* \"#utility.yul\":17019:17022   */\n      dup3\n        /* \"#utility.yul\":16930:17023   */\n      tag_321\n      jump\t// in\n    tag_484:\n        /* \"#utility.yul\":17048:17050   */\n      0x20\n        /* \"#utility.yul\":17043:17046   */\n      dup3\n        /* \"#utility.yul\":17039:17051   */\n      add\n        /* \"#utility.yul\":17032:17051   */\n      swap1\n      pop\n        /* \"#utility.yul\":16691:17057   */\n      swap2\n      swap1\n      pop\n      jump\t// out\n        /* \"#utility.yul\":17063:17482   */\n    tag_162:\n        /* \"#utility.yul\":17229:17233   */\n      0x00\n        /* \"#utility.yul\":17267:17269   */\n      0x20\n        /* \"#utility.yul\":17256:17265   */\n      dup3\n        /* \"#utility.yul\":17252:17270   */\n      add\n        /* \"#utility.yul\":17244:17270   */\n      swap1\n      pop\n        /* \"#utility.yul\":17316:17325   */\n      dup2\n        /* \"#utility.yul\":17310:17314   */\n      dup2\n        /* \"#utility.yul\":17306:17326   */\n      sub\n        /* \"#utility.yul\":17302:17303   */\n      0x00\n        /* \"#utility.yul\":17291:17300   */\n      dup4\n        /* \"#utility.yul\":17287:17304   */\n      add\n        /* \"#utility.yul\":17280:17327   */\n      mstore\n        /* \"#utility.yul\":17344:17475   */\n      tag_486\n        /* \"#utility.yul\":17470:17474   */\n      dup2\n        /* \"#utility.yul\":17344:17475   */\n      tag_322\n      jump\t// in\n    tag_486:\n        /* \"#utility.yul\":17336:17475   */\n      swap1\n      pop\n        /* \"#utility.yul\":17063:17482   */\n      swap2\n      swap1\n      pop\n      jump\t// out\n        /* \"#utility.yul\":17488:17713   */\n    tag_323:\n        /* \"#utility.yul\":17628:17662   */\n      0x546f74616c20626f6e6473206d7573742062652067726561746572207468616e\n        /* \"#utility.yul\":17624:17625   */\n      0x00\n        /* \"#utility.yul\":17616:17622   */\n      dup3\n        /* \"#utility.yul\":17612:17626   */\n      add\n        /* \"#utility.yul\":17605:17663   */\n      mstore\n        /* \"#utility.yul\":17697:17705   */\n      0x207a65726f2e0000000000000000000000000000000000000000000000000000\n        /* \"#utility.yul\":17692:17694   */\n      0x20\n        /* \"#utility.yul\":17684:17690   */\n      dup3\n        /* \"#utility.yul\":17680:17695   */\n      add\n        /* \"#utility.yul\":17673:17706   */\n      mstore\n        /* \"#utility.yul\":17488:17713   */\n      pop\n      jump\t// out\n        /* \"#utility.yul\":17719:18085   */\n    tag_324:\n        /* \"#utility.yul\":17861:17864   */\n      0x00\n        /* \"#utility.yul\":17882:17949   */\n      tag_489\n        /* \"#utility.yul\":17946:17948   */\n      0x26\n        /* \"#utility.yul\":17941:17944   */\n      dup4\n        /* \"#utility.yul\":17882:17949   */\n      tag_295\n      jump\t// in\n    tag_489:\n        /* \"#utility.yul\":17875:17949   */\n      swap2\n      pop\n        /* \"#utility.yul\":17958:18051   */\n      tag_490\n        /* \"#utility.yul\":18047:18050   */\n      dup3\n        /* \"#utility.yul\":17958:18051   */\n      tag_323\n      jump\t// in\n    tag_490:\n        /* \"#utility.yul\":18076:18078   */\n      0x40\n        /* \"#utility.yul\":18071:18074   */\n      dup3\n        /* \"#utility.yul\":18067:18079   */\n      add\n        /* \"#utility.yul\":18060:18079   */\n      swap1\n      pop\n        /* \"#utility.yul\":17719:18085   */\n      swap2\n      swap1\n      pop\n      jump\t// out\n        /* \"#utility.yul\":18091:18510   */\n    tag_165:\n        /* \"#utility.yul\":18257:18261   */\n      0x00\n        /* \"#utility.yul\":18295:18297   */\n      0x20\n        /* \"#utility.yul\":18284:18293   */\n      dup3\n        /* \"#utility.yul\":18280:18298   */\n      add\n        /* \"#utility.yul\":18272:18298   */\n      swap1\n      pop\n        /* \"#utility.yul\":18344:18353   */\n      dup2\n        /* \"#utility.yul\":18338:18342   */\n      dup2\n        /* \"#utility.yul\":18334:18354   */\n      sub\n        /* \"#utility.yul\":18330:18331   */\n      0x00\n        /* \"#utility.yul\":18319:18328   */\n      dup4\n        /* \"#utility.yul\":18315:18332   */\n      add\n        /* \"#utility.yul\":18308:18355   */\n      mstore\n        /* \"#utility.yul\":18372:18503   */\n      tag_492\n        /* \"#utility.yul\":18498:18502   */\n      dup2\n        /* \"#utility.yul\":18372:18503   */\n      tag_324\n      jump\t// in\n    tag_492:\n        /* \"#utility.yul\":18364:18503   */\n      swap1\n      pop\n        /* \"#utility.yul\":18091:18510   */\n      swap2\n      swap1\n      pop\n      jump\t// out\n        /* \"#utility.yul\":18516:18740   */\n    tag_325:\n        /* \"#utility.yul\":18656:18690   */\n      0x426f6e64207072696365206d7573742062652067726561746572207468616e20\n        /* \"#utility.yul\":18652:18653   */\n      0x00\n        /* \"#utility.yul\":18644:18650   */\n      dup3\n        /* \"#utility.yul\":18640:18654   */\n      add\n        /* \"#utility.yul\":18633:18691   */\n      mstore\n        /* \"#utility.yul\":18725:18732   */\n      0x7a65726f2e000000000000000000000000000000000000000000000000000000\n        /* \"#utility.yul\":18720:18722   */\n      0x20\n        /* \"#utility.yul\":18712:18718   */\n      dup3\n        /* \"#utility.yul\":18708:18723   */\n      add\n        /* \"#utility.yul\":18701:18733   */\n      mstore\n        /* \"#utility.yul\":18516:18740   */\n      pop\n      jump\t// out\n        /* \"#utility.yul\":18746:19112   */\n    tag_326:\n        /* \"#utility.yul\":18888:18891   */\n      0x00\n        /* \"#utility.yul\":18909:18976   */\n      tag_495\n        /* \"#utility.yul\":18973:18975   */\n      0x25\n        /* \"#utility.yul\":18968:18971   */\n      dup4\n        /* \"#utility.yul\":18909:18976   */\n      tag_295\n      jump\t// in\n    tag_495:\n        /* \"#utility.yul\":18902:18976   */\n      swap2\n      pop\n        /* \"#utility.yul\":18985:19078   */\n      tag_496\n        /* \"#utility.yul\":19074:19077   */\n      dup3\n        /* \"#utility.yul\":18985:19078   */\n      tag_325\n      jump\t// in\n    tag_496:\n        /* \"#utility.yul\":19103:19105   */\n      0x40\n        /* \"#utility.yul\":19098:19101   */\n      dup3\n        /* \"#utility.yul\":19094:19106   */\n      add\n        /* \"#utility.yul\":19087:19106   */\n      swap1\n      pop\n        /* \"#utility.yul\":18746:19112   */\n      swap2\n      swap1\n      pop\n      jump\t// out\n        /* \"#utility.yul\":19118:19537   */\n    tag_168:\n        /* \"#utility.yul\":19284:19288   */\n      0x00\n        /* \"#utility.yul\":19322:19324   */\n      0x20\n        /* \"#utility.yul\":19311:19320   */\n      dup3\n        /* \"#utility.yul\":19307:19325   */\n      add\n        /* \"#utility.yul\":19299:19325   */\n      swap1\n      pop\n        /* \"#utility.yul\":19371:19380   */\n      dup2\n        /* \"#utility.yul\":19365:19369   */\n      dup2\n        /* \"#utility.yul\":19361:19381   */\n      sub\n        /* \"#utility.yul\":19357:19358   */\n      0x00\n        /* \"#utility.yul\":19346:19355   */\n      dup4\n        /* \"#utility.yul\":19342:19359   */\n      add\n        /* \"#utility.yul\":19335:19382   */\n      mstore\n        /* \"#utility.yul\":19399:19530   */\n      tag_498\n        /* \"#utility.yul\":19525:19529   */\n      dup2\n        /* \"#utility.yul\":19399:19530   */\n      tag_326\n      jump\t// in\n    tag_498:\n        /* \"#utility.yul\":19391:19530   */\n      swap1\n      pop\n        /* \"#utility.yul\":19118:19537   */\n      swap2\n      swap1\n      pop\n      jump\t// out\n        /* \"#utility.yul\":19543:19770   */\n    tag_327:\n        /* \"#utility.yul\":19683:19717   */\n      0x496e7465726573742072617465206d7573742062652067726561746572207468\n        /* \"#utility.yul\":19679:19680   */\n      0x00\n        /* \"#utility.yul\":19671:19677   */\n      dup3\n        /* \"#utility.yul\":19667:19681   */\n      add\n        /* \"#utility.yul\":19660:19718   */\n      mstore\n        /* \"#utility.yul\":19752:19762   */\n      0x616e207a65726f2e000000000000000000000000000000000000000000000000\n        /* \"#utility.yul\":19747:19749   */\n      0x20\n        /* \"#utility.yul\":19739:19745   */\n      dup3\n        /* \"#utility.yul\":19735:19750   */\n      add\n        /* \"#utility.yul\":19728:19763   */\n      mstore\n        /* \"#utility.yul\":19543:19770   */\n      pop\n      jump\t// out\n        /* \"#utility.yul\":19776:20142   */\n    tag_328:\n        /* \"#utility.yul\":19918:19921   */\n      0x00\n        /* \"#utility.yul\":19939:20006   */\n      tag_501\n        /* \"#utility.yul\":20003:20005   */\n      0x28\n        /* \"#utility.yul\":19998:20001   */\n      dup4\n        /* \"#utility.yul\":19939:20006   */\n      tag_295\n      jump\t// in\n    tag_501:\n        /* \"#utility.yul\":19932:20006   */\n      swap2\n      pop\n        /* \"#utility.yul\":20015:20108   */\n      tag_502\n        /* \"#utility.yul\":20104:20107   */\n      dup3\n        /* \"#utility.yul\":20015:20108   */\n      tag_327\n      jump\t// in\n    tag_502:\n        /* \"#utility.yul\":20133:20135   */\n      0x40\n        /* \"#utility.yul\":20128:20131   */\n      dup3\n        /* \"#utility.yul\":20124:20136   */\n      add\n        /* \"#utility.yul\":20117:20136   */\n      swap1\n      pop\n        /* \"#utility.yul\":19776:20142   */\n      swap2\n      swap1\n      pop\n      jump\t// out\n        /* \"#utility.yul\":20148:20567   */\n    tag_171:\n        /* \"#utility.yul\":20314:20318   */\n      0x00\n        /* \"#utility.yul\":20352:20354   */\n      0x20\n        /* \"#utility.yul\":20341:20350   */\n      dup3\n        /* \"#utility.yul\":20337:20355   */\n      add\n        /* \"#utility.yul\":20329:20355   */\n      swap1\n      pop\n        /* \"#utility.yul\":20401:20410   */\n      dup2\n        /* \"#utility.yul\":20395:20399   */\n      dup2\n        /* \"#utility.yul\":20391:20411   */\n      sub\n        /* \"#utility.yul\":20387:20388   */\n      0x00\n        /* \"#utility.yul\":20376:20385   */\n      dup4\n        /* \"#utility.yul\":20372:20389   */\n      add\n        /* \"#utility.yul\":20365:20412   */\n      mstore\n        /* \"#utility.yul\":20429:20560   */\n      tag_504\n        /* \"#utility.yul\":20555:20559   */\n      dup2\n        /* \"#utility.yul\":20429:20560   */\n      tag_328\n      jump\t// in\n    tag_504:\n        /* \"#utility.yul\":20421:20560   */\n      swap1\n      pop\n        /* \"#utility.yul\":20148:20567   */\n      swap2\n      swap1\n      pop\n      jump\t// out\n        /* \"#utility.yul\":20573:20796   */\n    tag_329:\n        /* \"#utility.yul\":20713:20747   */\n      0x4d617475726974792064617465206d75737420626520696e2074686520667574\n        /* \"#utility.yul\":20709:20710   */\n      0x00\n        /* \"#utility.yul\":20701:20707   */\n      dup3\n        /* \"#utility.yul\":20697:20711   */\n      add\n        /* \"#utility.yul\":20690:20748   */\n      mstore\n        /* \"#utility.yul\":20782:20788   */\n      0x7572652e00000000000000000000000000000000000000000000000000000000\n        /* \"#utility.yul\":20777:20779   */\n      0x20\n        /* \"#utility.yul\":20769:20775   */\n      dup3\n        /* \"#utility.yul\":20765:20780   */\n      add\n        /* \"#utility.yul\":20758:20789   */\n      mstore\n        /* \"#utility.yul\":20573:20796   */\n      pop\n      jump\t// out\n        /* \"#utility.yul\":20802:21168   */\n    tag_330:\n        /* \"#utility.yul\":20944:20947   */\n      0x00\n        /* \"#utility.yul\":20965:21032   */\n      tag_507\n        /* \"#utility.yul\":21029:21031   */\n      0x24\n        /* \"#utility.yul\":21024:21027   */\n      dup4\n        /* \"#utility.yul\":20965:21032   */\n      tag_295\n      jump\t// in\n    tag_507:\n        /* \"#utility.yul\":20958:21032   */\n      swap2\n      pop\n        /* \"#utility.yul\":21041:21134   */\n      tag_508\n        /* \"#utility.yul\":21130:21133   */\n      dup3\n        /* \"#utility.yul\":21041:21134   */\n      tag_329\n      jump\t// in\n    tag_508:\n        /* \"#utility.yul\":21159:21161   */\n      0x40\n        /* \"#utility.yul\":21154:21157   */\n      dup3\n        /* \"#utility.yul\":21150:21162   */\n      add\n        /* \"#utility.yul\":21143:21162   */\n      swap1\n      pop\n        /* \"#utility.yul\":20802:21168   */\n      swap2\n      swap1\n      pop\n      jump\t// out\n        /* \"#utility.yul\":21174:21593   */\n    tag_174:\n        /* \"#utility.yul\":21340:21344   */\n      0x00\n        /* \"#utility.yul\":21378:21380   */\n      0x20\n        /* \"#utility.yul\":21367:21376   */\n      dup3\n        /* \"#utility.yul\":21363:21381   */\n      add\n        /* \"#utility.yul\":21355:21381   */\n      swap1\n      pop\n        /* \"#utility.yul\":21427:21436   */\n      dup2\n        /* \"#utility.yul\":21421:21425   */\n      dup2\n        /* \"#utility.yul\":21417:21437   */\n      sub\n        /* \"#utility.yul\":21413:21414   */\n      0x00\n        /* \"#utility.yul\":21402:21411   */\n      dup4\n        /* \"#utility.yul\":21398:21415   */\n      add\n        /* \"#utility.yul\":21391:21438   */\n      mstore\n        /* \"#utility.yul\":21455:21586   */\n      tag_510\n        /* \"#utility.yul\":21581:21585   */\n      dup2\n        /* \"#utility.yul\":21455:21586   */\n      tag_330\n      jump\t// in\n    tag_510:\n        /* \"#utility.yul\":21447:21586   */\n      swap1\n      pop\n        /* \"#utility.yul\":21174:21593   */\n      swap2\n      swap1\n      pop\n      jump\t// out\n        /* \"#utility.yul\":21599:22152   */\n    tag_177:\n        /* \"#utility.yul\":21776:21780   */\n      0x00\n        /* \"#utility.yul\":21814:21817   */\n      0x80\n        /* \"#utility.yul\":21803:21812   */\n      dup3\n        /* \"#utility.yul\":21799:21818   */\n      add\n        /* \"#utility.yul\":21791:21818   */\n      swap1\n      pop\n        /* \"#utility.yul\":21828:21899   */\n      tag_512\n        /* \"#utility.yul\":21896:21897   */\n      0x00\n        /* \"#utility.yul\":21885:21894   */\n      dup4\n        /* \"#utility.yul\":21881:21898   */\n      add\n        /* \"#utility.yul\":21872:21878   */\n      dup8\n        /* \"#utility.yul\":21828:21899   */\n      tag_290\n      jump\t// in\n    tag_512:\n        /* \"#utility.yul\":21909:21981   */\n      tag_513\n        /* \"#utility.yul\":21977:21979   */\n      0x20\n        /* \"#utility.yul\":21966:21975   */\n      dup4\n        /* \"#utility.yul\":21962:21980   */\n      add\n        /* \"#utility.yul\":21953:21959   */\n      dup7\n        /* \"#utility.yul\":21909:21981   */\n      tag_290\n      jump\t// in\n    tag_513:\n        /* \"#utility.yul\":21991:22063   */\n      tag_514\n        /* \"#utility.yul\":22059:22061   */\n      0x40\n        /* \"#utility.yul\":22048:22057   */\n      dup4\n        /* \"#utility.yul\":22044:22062   */\n      add\n        /* \"#utility.yul\":22035:22041   */\n      dup6\n        /* \"#utility.yul\":21991:22063   */\n      tag_290\n      jump\t// in\n    tag_514:\n        /* \"#utility.yul\":22073:22145   */\n      tag_515\n        /* \"#utility.yul\":22141:22143   */\n      0x60\n        /* \"#utility.yul\":22130:22139   */\n      dup4\n        /* \"#utility.yul\":22126:22144   */\n      add\n        /* \"#utility.yul\":22117:22123   */\n      dup5\n        /* \"#utility.yul\":22073:22145   */\n      tag_290\n      jump\t// in\n    tag_515:\n        /* \"#utility.yul\":21599:22152   */\n      swap6\n      swap5\n      pop\n      pop\n      pop\n      pop\n      pop\n      jump\t// out\n        /* \"#utility.yul\":22158:22338   */\n    tag_189:\n        /* \"#utility.yul\":22206:22283   */\n      0x4e487b7100000000000000000000000000000000000000000000000000000000\n        /* \"#utility.yul\":22203:22204   */\n      0x00\n        /* \"#utility.yul\":22196:22284   */\n      mstore\n        /* \"#utility.yul\":22303:22307   */\n      0x32\n        /* \"#utility.yul\":22300:22301   */\n      0x04\n        /* \"#utility.yul\":22293:22308   */\n      mstore\n        /* \"#utility.yul\":22327:22331   */\n      0x24\n        /* \"#utility.yul\":22324:22325   */\n      0x00\n        /* \"#utility.yul\":22317:22332   */\n      revert\n        /* \"#utility.yul\":22344:22525   */\n    tag_331:\n        /* \"#utility.yul\":22484:22517   */\n      0x4e6f2066756e647320617661696c61626c6520746f2077697468647261772e00\n        /* \"#utility.yul\":22480:22481   */\n      0x00\n        /* \"#utility.yul\":22472:22478   */\n      dup3\n        /* \"#utility.yul\":22468:22482   */\n      add\n        /* \"#utility.yul\":22461:22518   */\n      mstore\n        /* \"#utility.yul\":22344:22525   */\n      pop\n      jump\t// out\n        /* \"#utility.yul\":22531:22897   */\n    tag_332:\n        /* \"#utility.yul\":22673:22676   */\n      0x00\n        /* \"#utility.yul\":22694:22761   */\n      tag_519\n        /* \"#utility.yul\":22758:22760   */\n      0x1f\n        /* \"#utility.yul\":22753:22756   */\n      dup4\n        /* \"#utility.yul\":22694:22761   */\n      tag_295\n      jump\t// in\n    tag_519:\n        /* \"#utility.yul\":22687:22761   */\n      swap2\n      pop\n        /* \"#utility.yul\":22770:22863   */\n      tag_520\n        /* \"#utility.yul\":22859:22862   */\n      dup3\n        /* \"#utility.yul\":22770:22863   */\n      tag_331\n      jump\t// in\n    tag_520:\n        /* \"#utility.yul\":22888:22890   */\n      0x20\n        /* \"#utility.yul\":22883:22886   */\n      dup3\n        /* \"#utility.yul\":22879:22891   */\n      add\n        /* \"#utility.yul\":22872:22891   */\n      swap1\n      pop\n        /* \"#utility.yul\":22531:22897   */\n      swap2\n      swap1\n      pop\n      jump\t// out\n        /* \"#utility.yul\":22903:23322   */\n    tag_208:\n        /* \"#utility.yul\":23069:23073   */\n      0x00\n        /* \"#utility.yul\":23107:23109   */\n      0x20\n        /* \"#utility.yul\":23096:23105   */\n      dup3\n        /* \"#utility.yul\":23092:23110   */\n      add\n        /* \"#utility.yul\":23084:23110   */\n      swap1\n      pop\n        /* \"#utility.yul\":23156:23165   */\n      dup2\n        /* \"#utility.yul\":23150:23154   */\n      dup2\n        /* \"#utility.yul\":23146:23166   */\n      sub\n        /* \"#utility.yul\":23142:23143   */\n      0x00\n        /* \"#utility.yul\":23131:23140   */\n      dup4\n        /* \"#utility.yul\":23127:23144   */\n      add\n        /* \"#utility.yul\":23120:23167   */\n      mstore\n        /* \"#utility.yul\":23184:23315   */\n      tag_522\n        /* \"#utility.yul\":23310:23314   */\n      dup2\n        /* \"#utility.yul\":23184:23315   */\n      tag_332\n      jump\t// in\n    tag_522:\n        /* \"#utility.yul\":23176:23315   */\n      swap1\n      pop\n        /* \"#utility.yul\":22903:23322   */\n      swap2\n      swap1\n      pop\n      jump\t// out\n        /* \"#utility.yul\":23328:23556   */\n    tag_333:\n        /* \"#utility.yul\":23468:23502   */\n      0x496e73756666696369656e7420636f6e74726163742062616c616e636520666f\n        /* \"#utility.yul\":23464:23465   */\n      0x00\n        /* \"#utility.yul\":23456:23462   */\n      dup3\n        /* \"#utility.yul\":23452:23466   */\n      add\n        /* \"#utility.yul\":23445:23503   */\n      mstore\n        /* \"#utility.yul\":23537:23548   */\n      0x72207061796f75742e0000000000000000000000000000000000000000000000\n        /* \"#utility.yul\":23532:23534   */\n      0x20\n        /* \"#utility.yul\":23524:23530   */\n      dup3\n        /* \"#utility.yul\":23520:23535   */\n      add\n        /* \"#utility.yul\":23513:23549   */\n      mstore\n        /* \"#utility.yul\":23328:23556   */\n      pop\n      jump\t// out\n        /* \"#utility.yul\":23562:23928   */\n    tag_334:\n        /* \"#utility.yul\":23704:23707   */\n      0x00\n        /* \"#utility.yul\":23725:23792   */\n      tag_525\n        /* \"#utility.yul\":23789:23791   */\n      0x29\n        /* \"#utility.yul\":23784:23787   */\n      dup4\n        /* \"#utility.yul\":23725:23792   */\n      tag_295\n      jump\t// in\n    tag_525:\n        /* \"#utility.yul\":23718:23792   */\n      swap2\n      pop\n        /* \"#utility.yul\":23801:23894   */\n      tag_526\n        /* \"#utility.yul\":23890:23893   */\n      dup3\n        /* \"#utility.yul\":23801:23894   */\n      tag_333\n      jump\t// in\n    tag_526:\n        /* \"#utility.yul\":23919:23921   */\n      0x40\n        /* \"#utility.yul\":23914:23917   */\n      dup3\n        /* \"#utility.yul\":23910:23922   */\n      add\n        /* \"#utility.yul\":23903:23922   */\n      swap1\n      pop\n        /* \"#utility.yul\":23562:23928   */\n      swap2\n      swap1\n      pop\n      jump\t// out\n        /* \"#utility.yul\":23934:24353   */\n    tag_225:\n        /* \"#utility.yul\":24100:24104   */\n      0x00\n        /* \"#utility.yul\":24138:24140   */\n      0x20\n        /* \"#utility.yul\":24127:24136   */\n      dup3\n        /* \"#utility.yul\":24123:24141   */\n      add\n        /* \"#utility.yul\":24115:24141   */\n      swap1\n      pop\n        /* \"#utility.yul\":24187:24196   */\n      dup2\n        /* \"#utility.yul\":24181:24185   */\n      dup2\n        /* \"#utility.yul\":24177:24197   */\n      sub\n        /* \"#utility.yul\":24173:24174   */\n      0x00\n        /* \"#utility.yul\":24162:24171   */\n      dup4\n        /* \"#utility.yul\":24158:24175   */\n      add\n        /* \"#utility.yul\":24151:24198   */\n      mstore\n        /* \"#utility.yul\":24215:24346   */\n      tag_528\n        /* \"#utility.yul\":24341:24345   */\n      dup2\n        /* \"#utility.yul\":24215:24346   */\n      tag_334\n      jump\t// in\n    tag_528:\n        /* \"#utility.yul\":24207:24346   */\n      swap1\n      pop\n        /* \"#utility.yul\":23934:24353   */\n      swap2\n      swap1\n      pop\n      jump\t// out\n        /* \"#utility.yul\":24359:24608   */\n    tag_335:\n        /* \"#utility.yul\":24499:24533   */\n      0x416c6c20626f6e6473206d7573742062652072656465656d6564206265666f72\n        /* \"#utility.yul\":24495:24496   */\n      0x00\n        /* \"#utility.yul\":24487:24493   */\n      dup3\n        /* \"#utility.yul\":24483:24497   */\n      add\n        /* \"#utility.yul\":24476:24534   */\n      mstore\n        /* \"#utility.yul\":24568:24600   */\n      0x65207769746864726177696e672072656d61696e696e672066756e64732e0000\n        /* \"#utility.yul\":24563:24565   */\n      0x20\n        /* \"#utility.yul\":24555:24561   */\n      dup3\n        /* \"#utility.yul\":24551:24566   */\n      add\n        /* \"#utility.yul\":24544:24601   */\n      mstore\n        /* \"#utility.yul\":24359:24608   */\n      pop\n      jump\t// out\n        /* \"#utility.yul\":24614:24980   */\n    tag_336:\n        /* \"#utility.yul\":24756:24759   */\n      0x00\n        /* \"#utility.yul\":24777:24844   */\n      tag_531\n        /* \"#utility.yul\":24841:24843   */\n      0x3e\n        /* \"#utility.yul\":24836:24839   */\n      dup4\n        /* \"#utility.yul\":24777:24844   */\n      tag_295\n      jump\t// in\n    tag_531:\n        /* \"#utility.yul\":24770:24844   */\n      swap2\n      pop\n        /* \"#utility.yul\":24853:24946   */\n      tag_532\n        /* \"#utility.yul\":24942:24945   */\n      dup3\n        /* \"#utility.yul\":24853:24946   */\n      tag_335\n      jump\t// in\n    tag_532:\n        /* \"#utility.yul\":24971:24973   */\n      0x40\n        /* \"#utility.yul\":24966:24969   */\n      dup3\n        /* \"#utility.yul\":24962:24974   */\n      add\n        /* \"#utility.yul\":24955:24974   */\n      swap1\n      pop\n        /* \"#utility.yul\":24614:24980   */\n      swap2\n      swap1\n      pop\n      jump\t// out\n        /* \"#utility.yul\":24986:25405   */\n    tag_243:\n        /* \"#utility.yul\":25152:25156   */\n      0x00\n        /* \"#utility.yul\":25190:25192   */\n      0x20\n        /* \"#utility.yul\":25179:25188   */\n      dup3\n        /* \"#utility.yul\":25175:25193   */\n      add\n        /* \"#utility.yul\":25167:25193   */\n      swap1\n      pop\n        /* \"#utility.yul\":25239:25248   */\n      dup2\n        /* \"#utility.yul\":25233:25237   */\n      dup2\n        /* \"#utility.yul\":25229:25249   */\n      sub\n        /* \"#utility.yul\":25225:25226   */\n      0x00\n        /* \"#utility.yul\":25214:25223   */\n      dup4\n        /* \"#utility.yul\":25210:25227   */\n      add\n        /* \"#utility.yul\":25203:25250   */\n      mstore\n        /* \"#utility.yul\":25267:25398   */\n      tag_534\n        /* \"#utility.yul\":25393:25397   */\n      dup2\n        /* \"#utility.yul\":25267:25398   */\n      tag_336\n      jump\t// in\n    tag_534:\n        /* \"#utility.yul\":25259:25398   */\n      swap1\n      pop\n        /* \"#utility.yul\":24986:25405   */\n      swap2\n      swap1\n      pop\n      jump\t// out\n        /* \"#utility.yul\":25411:25591   */\n    tag_253:\n        /* \"#utility.yul\":25459:25536   */\n      0x4e487b7100000000000000000000000000000000000000000000000000000000\n        /* \"#utility.yul\":25456:25457   */\n      0x00\n        /* \"#utility.yul\":25449:25537   */\n      mstore\n        /* \"#utility.yul\":25556:25560   */\n      0x41\n        /* \"#utility.yul\":25553:25554   */\n      0x04\n        /* \"#utility.yul\":25546:25561   */\n      mstore\n        /* \"#utility.yul\":25580:25584   */\n      0x24\n        /* \"#utility.yul\":25577:25578   */\n      0x00\n        /* \"#utility.yul\":25570:25585   */\n      revert\n\n    auxdata: 0xa264697066735822122015acd325dfc54d12cf9be1a4a74c2345ea19bf9a24803ab218731a9f0dfad00c64736f6c634300081a0033\n}\n",
				"bytecode": {
					"linkReferences": {},
					"object": "6080604052348015600e575f80fd5b50335f806101000a81548173ffffffffffffffffffffffffffffffffffffffff021916908373ffffffffffffffffffffffffffffffffffffffff1602179055506124798061005b5f395ff3fe608060405260043610610101575f3560e01c8063a766bc9811610094578063d59624b411610063578063d59624b4146102ae578063d7ccfb0b146102d8578063e84a011a14610302578063ef86ce8e14610318578063f263c4701461032e57610108565b8063a766bc981461021a578063cb7cad2a14610244578063d33ce61a1461026e578063d44d70341461029857610108565b80635216aeec116100d05780635216aeec146101885780637c221bc5146101b25780637c3a00fd146101c857806389585083146101f257610108565b806312cccb341461010c5780631d1438481461011657806328d36cfc146101405780633d31841b1461017e57610108565b3661010857005b5f80fd5b610114610358565b005b348015610121575f80fd5b5061012a610429565b604051610137919061173e565b60405180910390f35b34801561014b575f80fd5b5061016660048036038101906101619190611785565b61044c565b604051610175939291906117c8565b60405180910390f35b610186610530565b005b348015610193575f80fd5b5061019c61086a565b6040516101a991906117fd565b60405180910390f35b3480156101bd575f80fd5b506101c6610870565b005b3480156101d3575f80fd5b506101dc610a41565b6040516101e991906117fd565b60405180910390f35b3480156101fd575f80fd5b5061021860048036038101906102139190611840565b610a47565b005b348015610225575f80fd5b5061022e610cc6565b60405161023b91906117fd565b60405180910390f35b34801561024f575f80fd5b50610258610ccc565b60405161026591906117fd565b60405180910390f35b348015610279575f80fd5b50610282610eb0565b60405161028f91906118be565b60405180910390f35b3480156102a3575f80fd5b506102ac610ec2565b005b3480156102b9575f80fd5b506102c261103f565b6040516102cf91906117fd565b60405180910390f35b3480156102e3575f80fd5b506102ec611045565b6040516102f991906117fd565b60405180910390f35b34801561030d575f80fd5b5061031661104b565b005b348015610323575f80fd5b5061032c611289565b005b348015610339575f80fd5b506103426114de565b60405161034f91906117fd565b60405180910390f35b5f8054906101000a900473ffffffffffffffffffffffffffffffffffffffff1673ffffffffffffffffffffffffffffffffffffffff163373ffffffffffffffffffffffffffffffffffffffff16146103e5576040517f08c379a00000000000000000000000000000000000000000000000000000000081526004016103dc90611957565b60405180910390fd5b5f3411610427576040517f08c379a000000000000000000000000000000000000000000000000000000000815260040161041e906119e5565b60405180910390fd5b565b5f8054906101000a900473ffffffffffffffffffffffffffffffffffffffff1681565b5f805f8060085f8673ffffffffffffffffffffffffffffffffffffffff1673ffffffffffffffffffffffffffffffffffffffff1681526020019081526020015f205490505f81116104d2576040517f08c379a00000000000000000000000000000000000000000000000000000000081526004016104c990611a4d565b60405180910390fd5b600254816104e09190611a98565b93506283d6006004546005546104f69190611ad9565b600354866105049190611a98565b61050e9190611a98565b6105189190611b39565b925082846105269190611b69565b9150509193909250565b6005544210610574576040517f08c379a000000000000000000000000000000000000000000000000000000000815260040161056b90611be6565b60405180910390fd5b5f34116105b6576040517f08c379a00000000000000000000000000000000000000000000000000000000081526004016105ad906119e5565b60405180910390fd5b5f600254346105c59190611b39565b90505f8111610609576040517f08c379a000000000000000000000000000000000000000000000000000000000815260040161060090611c4e565b60405180910390fd5b80600154101561061a6001546114e4565b60405160200161062a9190611d2e565b6040516020818303038152906040529061067a576040517f08c379a00000000000000000000000000000000000000000000000000000000081526004016106719190611d97565b60405180910390fd5b5060095f3373ffffffffffffffffffffffffffffffffffffffff1673ffffffffffffffffffffffffffffffffffffffff1681526020019081526020015f205f9054906101000a900460ff1661079657600a33908060018154018082558091505060019003905f5260205f20015f9091909190916101000a81548173ffffffffffffffffffffffffffffffffffffffff021916908373ffffffffffffffffffffffffffffffffffffffff160217905550600160095f3373ffffffffffffffffffffffffffffffffffffffff1673ffffffffffffffffffffffffffffffffffffffff1681526020019081526020015f205f6101000a81548160ff021916908315150217905550600b5f81548092919061079090611db7565b91905055505b8060085f3373ffffffffffffffffffffffffffffffffffffffff1673ffffffffffffffffffffffffffffffffffffffff1681526020019081526020015f205f8282546107e29190611b69565b925050819055508060015f8282546107fa9190611ad9565b925050819055503460065f8282546108129190611b69565b925050819055503373ffffffffffffffffffffffffffffffffffffffff167f72e04af5dfda760cfed5e6556215ddc010133900aa0b75cefa0883038f37eae28260405161085f91906117fd565b60405180910390a250565b60065481565b5f8054906101000a900473ffffffffffffffffffffffffffffffffffffffff1673ffffffffffffffffffffffffffffffffffffffff163373ffffffffffffffffffffffffffffffffffffffff16146108fd576040517f08c379a00000000000000000000000000000000000000000000000000000000081526004016108f490611957565b60405180910390fd5b600554421015610942576040517f08c379a000000000000000000000000000000000000000000000000000000000815260040161093990611e6e565b60405180910390fd5b62278d006005546109539190611b69565b421015610995576040517f08c379a000000000000000000000000000000000000000000000000000000000815260040161098c90611efc565b60405180910390fd5b5f4790505f81116109db576040517f08c379a00000000000000000000000000000000000000000000000000000000081526004016109d290611f64565b60405180910390fd5b5f8054906101000a900473ffffffffffffffffffffffffffffffffffffffff1673ffffffffffffffffffffffffffffffffffffffff166108fc8290811502906040515f60405180830381858888f19350505050158015610a3d573d5f803e3d5ffd5b5050565b60035481565b5f8054906101000a900473ffffffffffffffffffffffffffffffffffffffff1673ffffffffffffffffffffffffffffffffffffffff163373ffffffffffffffffffffffffffffffffffffffff1614610ad4576040517f08c379a0000000000000000000000000000000000000000000000000000000008152600401610acb90611957565b60405180910390fd5b60075f9054906101000a900460ff1615610b23576040517f08c379a0000000000000000000000000000000000000000000000000000000008152600401610b1a90611fcc565b60405180910390fd5b5f8411610b65576040517f08c379a0000000000000000000000000000000000000000000000000000000008152600401610b5c9061205a565b60405180910390fd5b5f8311610ba7576040517f08c379a0000000000000000000000000000000000000000000000000000000008152600401610b9e906120e8565b60405180910390fd5b5f8211610be9576040517f08c379a0000000000000000000000000000000000000000000000000000000008152600401610be090612176565b60405180910390fd5b428111610c2b576040517f08c379a0000000000000000000000000000000000000000000000000000000008152600401610c2290612204565b60405180910390fd5b83600181905550670de0b6b3a764000083610c469190611a98565b600281905550816003819055508060058190555042600481905550600160075f6101000a81548160ff0219169083151502179055507fc4ede3fcf855dc4685871bc70cbff3b97f484d31f715ab9a3ac2d7b14776e2c6600154600254600354600554604051610cb89493929190612222565b60405180910390a150505050565b60045481565b5f805f9054906101000a900473ffffffffffffffffffffffffffffffffffffffff1673ffffffffffffffffffffffffffffffffffffffff163373ffffffffffffffffffffffffffffffffffffffff1614610d5b576040517f08c379a0000000000000000000000000000000000000000000000000000000008152600401610d5290611957565b60405180910390fd5b600554421015610da0576040517f08c379a0000000000000000000000000000000000000000000000000000000008152600401610d9790611e6e565b60405180910390fd5b5f90505f5b600b54811015610eac575f600a8281548110610dc457610dc3612265565b5b905f5260205f20015f9054906101000a900473ffffffffffffffffffffffffffffffffffffffff1690505f60085f8373ffffffffffffffffffffffffffffffffffffffff1673ffffffffffffffffffffffffffffffffffffffff1681526020019081526020015f205490505f811115610e9d575f60025482610e469190611a98565b90505f6283d600600454600554610e5d9190611ad9565b60035484610e6b9190611a98565b610e759190611a98565b610e7f9190611b39565b90508082610e8d9190611b69565b86610e989190611b69565b955050505b50508080600101915050610da5565b5090565b60075f9054906101000a900460ff1681565b5f8054906101000a900473ffffffffffffffffffffffffffffffffffffffff1673ffffffffffffffffffffffffffffffffffffffff163373ffffffffffffffffffffffffffffffffffffffff1614610f4f576040517f08c379a0000000000000000000000000000000000000000000000000000000008152600401610f4690611957565b60405180910390fd5b6005544210610f93576040517f08c379a0000000000000000000000000000000000000000000000000000000008152600401610f8a90611be6565b60405180910390fd5b5f4790505f8111610fd9576040517f08c379a0000000000000000000000000000000000000000000000000000000008152600401610fd0906122dc565b60405180910390fd5b5f8054906101000a900473ffffffffffffffffffffffffffffffffffffffff1673ffffffffffffffffffffffffffffffffffffffff166108fc8290811502906040515f60405180830381858888f1935050505015801561103b573d5f803e3d5ffd5b5050565b60055481565b60025481565b600554421015611090576040517f08c379a000000000000000000000000000000000000000000000000000000000815260040161108790611e6e565b60405180910390fd5b5f60085f3373ffffffffffffffffffffffffffffffffffffffff1673ffffffffffffffffffffffffffffffffffffffff1681526020019081526020015f205490505f8111611113576040517f08c379a000000000000000000000000000000000000000000000000000000000815260040161110a90611a4d565b60405180910390fd5b5f600254826111229190611a98565b90505f6283d6006004546005546111399190611ad9565b600354846111479190611a98565b6111519190611a98565b61115b9190611b39565b90505f818361116a9190611b69565b9050804710156111af576040517f08c379a00000000000000000000000000000000000000000000000000000000081526004016111a69061236a565b60405180910390fd5b5f60085f3373ffffffffffffffffffffffffffffffffffffffff1673ffffffffffffffffffffffffffffffffffffffff1681526020019081526020015f20819055503373ffffffffffffffffffffffffffffffffffffffff166108fc8290811502906040515f60405180830381858888f19350505050158015611234573d5f803e3d5ffd5b503373ffffffffffffffffffffffffffffffffffffffff167f9288b6de588c2ef664548c899db8a71f78097bdf2a031408e9bceff697cbf94f8560405161127b91906117fd565b60405180910390a250505050565b5f8054906101000a900473ffffffffffffffffffffffffffffffffffffffff1673ffffffffffffffffffffffffffffffffffffffff163373ffffffffffffffffffffffffffffffffffffffff1614611316576040517f08c379a000000000000000000000000000000000000000000000000000000000815260040161130d90611957565b60405180910390fd5b60055442101561135b576040517f08c379a000000000000000000000000000000000000000000000000000000000815260040161135290611e6e565b60405180910390fd5b5f5b600a80549050811015611431575f60085f600a848154811061138257611381612265565b5b905f5260205f20015f9054906101000a900473ffffffffffffffffffffffffffffffffffffffff1673ffffffffffffffffffffffffffffffffffffffff1673ffffffffffffffffffffffffffffffffffffffff1681526020019081526020015f205414611424576040517f08c379a000000000000000000000000000000000000000000000000000000000815260040161141b906123f8565b60405180910390fd5b808060010191505061135d565b505f4790505f8111611478576040517f08c379a000000000000000000000000000000000000000000000000000000000815260040161146f90611f64565b60405180910390fd5b5f8054906101000a900473ffffffffffffffffffffffffffffffffffffffff1673ffffffffffffffffffffffffffffffffffffffff166108fc8290811502906040515f60405180830381858888f193505050501580156114da573d5f803e3d5ffd5b5050565b60015481565b60605f60016114f2846115ae565b0190505f8167ffffffffffffffff8111156115105761150f612416565b5b6040519080825280601f01601f1916602001820160405280156115425781602001600182028036833780820191505090505b5090505f82602001820190505b6001156115a3578080600190039150507f3031323334353637383961626364656600000000000000000000000000000000600a86061a8153600a858161159857611597611b0c565b5b0494505f850361154f575b819350505050919050565b5f805f90507a184f03e93ff9f4daa797ed6e38ed64bf6a1f010000000000000000831061160a577a184f03e93ff9f4daa797ed6e38ed64bf6a1f0100000000000000008381611600576115ff611b0c565b5b0492506040810190505b6d04ee2d6d415b85acef81000000008310611647576d04ee2d6d415b85acef8100000000838161163d5761163c611b0c565b5b0492506020810190505b662386f26fc10000831061167657662386f26fc10000838161166c5761166b611b0c565b5b0492506010810190505b6305f5e100831061169f576305f5e100838161169557611694611b0c565b5b0492506008810190505b61271083106116c45761271083816116ba576116b9611b0c565b5b0492506004810190505b606483106116e757606483816116dd576116dc611b0c565b5b0492506002810190505b600a83106116f6576001810190505b80915050919050565b5f73ffffffffffffffffffffffffffffffffffffffff82169050919050565b5f611728826116ff565b9050919050565b6117388161171e565b82525050565b5f6020820190506117515f83018461172f565b92915050565b5f80fd5b6117648161171e565b811461176e575f80fd5b50565b5f8135905061177f8161175b565b92915050565b5f6020828403121561179a57611799611757565b5b5f6117a784828501611771565b91505092915050565b5f819050919050565b6117c2816117b0565b82525050565b5f6060820190506117db5f8301866117b9565b6117e860208301856117b9565b6117f560408301846117b9565b949350505050565b5f6020820190506118105f8301846117b9565b92915050565b61181f816117b0565b8114611829575f80fd5b50565b5f8135905061183a81611816565b92915050565b5f805f806080858703121561185857611857611757565b5b5f6118658782880161182c565b94505060206118768782880161182c565b93505060406118878782880161182c565b92505060606118988782880161182c565b91505092959194509250565b5f8115159050919050565b6118b8816118a4565b82525050565b5f6020820190506118d15f8301846118af565b92915050565b5f82825260208201905092915050565b7f4f6e6c79206973737565722063616e2063616c6c20746869732066756e6374695f8201527f6f6e2e0000000000000000000000000000000000000000000000000000000000602082015250565b5f6119416023836118d7565b915061194c826118e7565b604082019050919050565b5f6020820190508181035f83015261196e81611935565b9050919050565b7f416d6f756e74206d7573742062652067726561746572207468616e207a65726f5f8201527f2e00000000000000000000000000000000000000000000000000000000000000602082015250565b5f6119cf6021836118d7565b91506119da82611975565b604082019050919050565b5f6020820190508181035f8301526119fc816119c3565b9050919050565b7f596f7520646f206e6f74206861766520626f6e647320746f2072656465656d2e5f82015250565b5f611a376020836118d7565b9150611a4282611a03565b602082019050919050565b5f6020820190508181035f830152611a6481611a2b565b9050919050565b7f4e487b71000000000000000000000000000000000000000000000000000000005f52601160045260245ffd5b5f611aa2826117b0565b9150611aad836117b0565b9250828202611abb816117b0565b91508282048414831517611ad257611ad1611a6b565b5b5092915050565b5f611ae3826117b0565b9150611aee836117b0565b9250828203905081811115611b0657611b05611a6b565b5b92915050565b7f4e487b71000000000000000000000000000000000000000000000000000000005f52601260045260245ffd5b5f611b43826117b0565b9150611b4e836117b0565b925082611b5e57611b5d611b0c565b5b828204905092915050565b5f611b73826117b0565b9150611b7e836117b0565b9250828201905080821115611b9657611b95611a6b565b5b92915050565b7f426f6e642073616c6520706572696f642068617320656e6465642e00000000005f82015250565b5f611bd0601b836118d7565b9150611bdb82611b9c565b602082019050919050565b5f6020820190508181035f830152611bfd81611bc4565b9050919050565b7f496e73756666696369656e742066756e647320746f2070757263686173652e005f82015250565b5f611c38601f836118d7565b9150611c4382611c04565b602082019050919050565b5f6020820190508181035f830152611c6581611c2c565b9050919050565b5f81905092915050565b7f496e73756666696369656e7420626f6e647320746f206275792e20417661696c5f8201527f61626c6520626f6e64733a200000000000000000000000000000000000000000602082015250565b5f611cd0602c83611c6c565b9150611cdb82611c76565b602c82019050919050565b5f81519050919050565b8281835e5f83830152505050565b5f611d0882611ce6565b611d128185611c6c565b9350611d22818560208601611cf0565b80840191505092915050565b5f611d3882611cc4565b9150611d448284611cfe565b915081905092915050565b5f601f19601f8301169050919050565b5f611d6982611ce6565b611d7381856118d7565b9350611d83818560208601611cf0565b611d8c81611d4f565b840191505092915050565b5f6020820190508181035f830152611daf8184611d5f565b905092915050565b5f611dc1826117b0565b91507fffffffffffffffffffffffffffffffffffffffffffffffffffffffffffffffff8203611df357611df2611a6b565b5b600182019050919050565b7f426f6e6420726564656d7074696f6e20706572696f6420686173206e6f7420735f8201527f7461727465642e00000000000000000000000000000000000000000000000000602082015250565b5f611e586027836118d7565b9150611e6382611dfe565b604082019050919050565b5f6020820190508181035f830152611e8581611e4c565b9050919050565b7f4f6e65206d6f6e746820686173206e6f74207061737365642073696e6365206d5f8201527f617475726974792e000000000000000000000000000000000000000000000000602082015250565b5f611ee66028836118d7565b9150611ef182611e8c565b604082019050919050565b5f6020820190508181035f830152611f1381611eda565b9050919050565b7f496e73756666696369656e742066756e647320746f2077697468647261772e005f82015250565b5f611f4e601f836118d7565b9150611f5982611f1a565b602082019050919050565b5f6020820190508181035f830152611f7b81611f42565b9050919050565b7f426f6e647320616c7265616479206973737565642e00000000000000000000005f82015250565b5f611fb66015836118d7565b9150611fc182611f82565b602082019050919050565b5f6020820190508181035f830152611fe381611faa565b9050919050565b7f546f74616c20626f6e6473206d7573742062652067726561746572207468616e5f8201527f207a65726f2e0000000000000000000000000000000000000000000000000000602082015250565b5f6120446026836118d7565b915061204f82611fea565b604082019050919050565b5f6020820190508181035f83015261207181612038565b9050919050565b7f426f6e64207072696365206d7573742062652067726561746572207468616e205f8201527f7a65726f2e000000000000000000000000000000000000000000000000000000602082015250565b5f6120d26025836118d7565b91506120dd82612078565b604082019050919050565b5f6020820190508181035f8301526120ff816120c6565b9050919050565b7f496e7465726573742072617465206d75737420626520677265617465722074685f8201527f616e207a65726f2e000000000000000000000000000000000000000000000000602082015250565b5f6121606028836118d7565b915061216b82612106565b604082019050919050565b5f6020820190508181035f83015261218d81612154565b9050919050565b7f4d617475726974792064617465206d75737420626520696e20746865206675745f8201527f7572652e00000000000000000000000000000000000000000000000000000000602082015250565b5f6121ee6024836118d7565b91506121f982612194565b604082019050919050565b5f6020820190508181035f83015261221b816121e2565b9050919050565b5f6080820190506122355f8301876117b9565b61224260208301866117b9565b61224f60408301856117b9565b61225c60608301846117b9565b95945050505050565b7f4e487b71000000000000000000000000000000000000000000000000000000005f52603260045260245ffd5b7f4e6f2066756e647320617661696c61626c6520746f2077697468647261772e005f82015250565b5f6122c6601f836118d7565b91506122d182612292565b602082019050919050565b5f6020820190508181035f8301526122f3816122ba565b9050919050565b7f496e73756666696369656e7420636f6e74726163742062616c616e636520666f5f8201527f72207061796f75742e0000000000000000000000000000000000000000000000602082015250565b5f6123546029836118d7565b915061235f826122fa565b604082019050919050565b5f6020820190508181035f83015261238181612348565b9050919050565b7f416c6c20626f6e6473206d7573742062652072656465656d6564206265666f725f8201527f65207769746864726177696e672072656d61696e696e672066756e64732e0000602082015250565b5f6123e2603e836118d7565b91506123ed82612388565b604082019050919050565b5f6020820190508181035f83015261240f816123d6565b9050919050565b7f4e487b71000000000000000000000000000000000000000000000000000000005f52604160045260245ffdfea264697066735822122015acd325dfc54d12cf9be1a4a74c2345ea19bf9a24803ab218731a9f0dfad00c64736f6c634300081a0033",
					"opcodes": "PUSH1 0x80 PUSH1 0x40 MSTORE CALLVALUE DUP1 ISZERO PUSH1 0xE JUMPI PUSH0 DUP1 REVERT JUMPDEST POP CALLER PUSH0 DUP1 PUSH2 0x100 EXP DUP2 SLOAD DUP2 PUSH20 0xFFFFFFFFFFFFFFFFFFFFFFFFFFFFFFFFFFFFFFFF MUL NOT AND SWAP1 DUP4 PUSH20 0xFFFFFFFFFFFFFFFFFFFFFFFFFFFFFFFFFFFFFFFF AND MUL OR SWAP1 SSTORE POP PUSH2 0x2479 DUP1 PUSH2 0x5B PUSH0 CODECOPY PUSH0 RETURN INVALID PUSH1 0x80 PUSH1 0x40 MSTORE PUSH1 0x4 CALLDATASIZE LT PUSH2 0x101 JUMPI PUSH0 CALLDATALOAD PUSH1 0xE0 SHR DUP1 PUSH4 0xA766BC98 GT PUSH2 0x94 JUMPI DUP1 PUSH4 0xD59624B4 GT PUSH2 0x63 JUMPI DUP1 PUSH4 0xD59624B4 EQ PUSH2 0x2AE JUMPI DUP1 PUSH4 0xD7CCFB0B EQ PUSH2 0x2D8 JUMPI DUP1 PUSH4 0xE84A011A EQ PUSH2 0x302 JUMPI DUP1 PUSH4 0xEF86CE8E EQ PUSH2 0x318 JUMPI DUP1 PUSH4 0xF263C470 EQ PUSH2 0x32E JUMPI PUSH2 0x108 JUMP JUMPDEST DUP1 PUSH4 0xA766BC98 EQ PUSH2 0x21A JUMPI DUP1 PUSH4 0xCB7CAD2A EQ PUSH2 0x244 JUMPI DUP1 PUSH4 0xD33CE61A EQ PUSH2 0x26E JUMPI DUP1 PUSH4 0xD44D7034 EQ PUSH2 0x298 JUMPI PUSH2 0x108 JUMP JUMPDEST DUP1 PUSH4 0x5216AEEC GT PUSH2 0xD0 JUMPI DUP1 PUSH4 0x5216AEEC EQ PUSH2 0x188 JUMPI DUP1 PUSH4 0x7C221BC5 EQ PUSH2 0x1B2 JUMPI DUP1 PUSH4 0x7C3A00FD EQ PUSH2 0x1C8 JUMPI DUP1 PUSH4 0x89585083 EQ PUSH2 0x1F2 JUMPI PUSH2 0x108 JUMP JUMPDEST DUP1 PUSH4 0x12CCCB34 EQ PUSH2 0x10C JUMPI DUP1 PUSH4 0x1D143848 EQ PUSH2 0x116 JUMPI DUP1 PUSH4 0x28D36CFC EQ PUSH2 0x140 JUMPI DUP1 PUSH4 0x3D31841B EQ PUSH2 0x17E JUMPI PUSH2 0x108 JUMP JUMPDEST CALLDATASIZE PUSH2 0x108 JUMPI STOP JUMPDEST PUSH0 DUP1 REVERT JUMPDEST PUSH2 0x114 PUSH2 0x358 JUMP JUMPDEST STOP JUMPDEST CALLVALUE DUP1 ISZERO PUSH2 0x121 JUMPI PUSH0 DUP1 REVERT JUMPDEST POP PUSH2 0x12A PUSH2 0x429 JUMP JUMPDEST PUSH1 0x40 MLOAD PUSH2 0x137 SWAP2 SWAP1 PUSH2 0x173E JUMP JUMPDEST PUSH1 0x40 MLOAD DUP1 SWAP2 SUB SWAP1 RETURN JUMPDEST CALLVALUE DUP1 ISZERO PUSH2 0x14B JUMPI PUSH0 DUP1 REVERT JUMPDEST POP PUSH2 0x166 PUSH1 0x4 DUP1 CALLDATASIZE SUB DUP2 ADD SWAP1 PUSH2 0x161 SWAP2 SWAP1 PUSH2 0x1785 JUMP JUMPDEST PUSH2 0x44C JUMP JUMPDEST PUSH1 0x40 MLOAD PUSH2 0x175 SWAP4 SWAP3 SWAP2 SWAP1 PUSH2 0x17C8 JUMP JUMPDEST PUSH1 0x40 MLOAD DUP1 SWAP2 SUB SWAP1 RETURN JUMPDEST PUSH2 0x186 PUSH2 0x530 JUMP JUMPDEST STOP JUMPDEST CALLVALUE DUP1 ISZERO PUSH2 0x193 JUMPI PUSH0 DUP1 REVERT JUMPDEST POP PUSH2 0x19C PUSH2 0x86A JUMP JUMPDEST PUSH1 0x40 MLOAD PUSH2 0x1A9 SWAP2 SWAP1 PUSH2 0x17FD JUMP JUMPDEST PUSH1 0x40 MLOAD DUP1 SWAP2 SUB SWAP1 RETURN JUMPDEST CALLVALUE DUP1 ISZERO PUSH2 0x1BD JUMPI PUSH0 DUP1 REVERT JUMPDEST POP PUSH2 0x1C6 PUSH2 0x870 JUMP JUMPDEST STOP JUMPDEST CALLVALUE DUP1 ISZERO PUSH2 0x1D3 JUMPI PUSH0 DUP1 REVERT JUMPDEST POP PUSH2 0x1DC PUSH2 0xA41 JUMP JUMPDEST PUSH1 0x40 MLOAD PUSH2 0x1E9 SWAP2 SWAP1 PUSH2 0x17FD JUMP JUMPDEST PUSH1 0x40 MLOAD DUP1 SWAP2 SUB SWAP1 RETURN JUMPDEST CALLVALUE DUP1 ISZERO PUSH2 0x1FD JUMPI PUSH0 DUP1 REVERT JUMPDEST POP PUSH2 0x218 PUSH1 0x4 DUP1 CALLDATASIZE SUB DUP2 ADD SWAP1 PUSH2 0x213 SWAP2 SWAP1 PUSH2 0x1840 JUMP JUMPDEST PUSH2 0xA47 JUMP JUMPDEST STOP JUMPDEST CALLVALUE DUP1 ISZERO PUSH2 0x225 JUMPI PUSH0 DUP1 REVERT JUMPDEST POP PUSH2 0x22E PUSH2 0xCC6 JUMP JUMPDEST PUSH1 0x40 MLOAD PUSH2 0x23B SWAP2 SWAP1 PUSH2 0x17FD JUMP JUMPDEST PUSH1 0x40 MLOAD DUP1 SWAP2 SUB SWAP1 RETURN JUMPDEST CALLVALUE DUP1 ISZERO PUSH2 0x24F JUMPI PUSH0 DUP1 REVERT JUMPDEST POP PUSH2 0x258 PUSH2 0xCCC JUMP JUMPDEST PUSH1 0x40 MLOAD PUSH2 0x265 SWAP2 SWAP1 PUSH2 0x17FD JUMP JUMPDEST PUSH1 0x40 MLOAD DUP1 SWAP2 SUB SWAP1 RETURN JUMPDEST CALLVALUE DUP1 ISZERO PUSH2 0x279 JUMPI PUSH0 DUP1 REVERT JUMPDEST POP PUSH2 0x282 PUSH2 0xEB0 JUMP JUMPDEST PUSH1 0x40 MLOAD PUSH2 0x28F SWAP2 SWAP1 PUSH2 0x18BE JUMP JUMPDEST PUSH1 0x40 MLOAD DUP1 SWAP2 SUB SWAP1 RETURN JUMPDEST CALLVALUE DUP1 ISZERO PUSH2 0x2A3 JUMPI PUSH0 DUP1 REVERT JUMPDEST POP PUSH2 0x2AC PUSH2 0xEC2 JUMP JUMPDEST STOP JUMPDEST CALLVALUE DUP1 ISZERO PUSH2 0x2B9 JUMPI PUSH0 DUP1 REVERT JUMPDEST POP PUSH2 0x2C2 PUSH2 0x103F JUMP JUMPDEST PUSH1 0x40 MLOAD PUSH2 0x2CF SWAP2 SWAP1 PUSH2 0x17FD JUMP JUMPDEST PUSH1 0x40 MLOAD DUP1 SWAP2 SUB SWAP1 RETURN JUMPDEST CALLVALUE DUP1 ISZERO PUSH2 0x2E3 JUMPI PUSH0 DUP1 REVERT JUMPDEST POP PUSH2 0x2EC PUSH2 0x1045 JUMP JUMPDEST PUSH1 0x40 MLOAD PUSH2 0x2F9 SWAP2 SWAP1 PUSH2 0x17FD JUMP JUMPDEST PUSH1 0x40 MLOAD DUP1 SWAP2 SUB SWAP1 RETURN JUMPDEST CALLVALUE DUP1 ISZERO PUSH2 0x30D JUMPI PUSH0 DUP1 REVERT JUMPDEST POP PUSH2 0x316 PUSH2 0x104B JUMP JUMPDEST STOP JUMPDEST CALLVALUE DUP1 ISZERO PUSH2 0x323 JUMPI PUSH0 DUP1 REVERT JUMPDEST POP PUSH2 0x32C PUSH2 0x1289 JUMP JUMPDEST STOP JUMPDEST CALLVALUE DUP1 ISZERO PUSH2 0x339 JUMPI PUSH0 DUP1 REVERT JUMPDEST POP PUSH2 0x342 PUSH2 0x14DE JUMP JUMPDEST PUSH1 0x40 MLOAD PUSH2 0x34F SWAP2 SWAP1 PUSH2 0x17FD JUMP JUMPDEST PUSH1 0x40 MLOAD DUP1 SWAP2 SUB SWAP1 RETURN JUMPDEST PUSH0 DUP1 SLOAD SWAP1 PUSH2 0x100 EXP SWAP1 DIV PUSH20 0xFFFFFFFFFFFFFFFFFFFFFFFFFFFFFFFFFFFFFFFF AND PUSH20 0xFFFFFFFFFFFFFFFFFFFFFFFFFFFFFFFFFFFFFFFF AND CALLER PUSH20 0xFFFFFFFFFFFFFFFFFFFFFFFFFFFFFFFFFFFFFFFF AND EQ PUSH2 0x3E5 JUMPI PUSH1 0x40 MLOAD PUSH32 0x8C379A000000000000000000000000000000000000000000000000000000000 DUP2 MSTORE PUSH1 0x4 ADD PUSH2 0x3DC SWAP1 PUSH2 0x1957 JUMP JUMPDEST PUSH1 0x40 MLOAD DUP1 SWAP2 SUB SWAP1 REVERT JUMPDEST PUSH0 CALLVALUE GT PUSH2 0x427 JUMPI PUSH1 0x40 MLOAD PUSH32 0x8C379A000000000000000000000000000000000000000000000000000000000 DUP2 MSTORE PUSH1 0x4 ADD PUSH2 0x41E SWAP1 PUSH2 0x19E5 JUMP JUMPDEST PUSH1 0x40 MLOAD DUP1 SWAP2 SUB SWAP1 REVERT JUMPDEST JUMP JUMPDEST PUSH0 DUP1 SLOAD SWAP1 PUSH2 0x100 EXP SWAP1 DIV PUSH20 0xFFFFFFFFFFFFFFFFFFFFFFFFFFFFFFFFFFFFFFFF AND DUP2 JUMP JUMPDEST PUSH0 DUP1 PUSH0 DUP1 PUSH1 0x8 PUSH0 DUP7 PUSH20 0xFFFFFFFFFFFFFFFFFFFFFFFFFFFFFFFFFFFFFFFF AND PUSH20 0xFFFFFFFFFFFFFFFFFFFFFFFFFFFFFFFFFFFFFFFF AND DUP2 MSTORE PUSH1 0x20 ADD SWAP1 DUP2 MSTORE PUSH1 0x20 ADD PUSH0 KECCAK256 SLOAD SWAP1 POP PUSH0 DUP2 GT PUSH2 0x4D2 JUMPI PUSH1 0x40 MLOAD PUSH32 0x8C379A000000000000000000000000000000000000000000000000000000000 DUP2 MSTORE PUSH1 0x4 ADD PUSH2 0x4C9 SWAP1 PUSH2 0x1A4D JUMP JUMPDEST PUSH1 0x40 MLOAD DUP1 SWAP2 SUB SWAP1 REVERT JUMPDEST PUSH1 0x2 SLOAD DUP2 PUSH2 0x4E0 SWAP2 SWAP1 PUSH2 0x1A98 JUMP JUMPDEST SWAP4 POP PUSH3 0x83D600 PUSH1 0x4 SLOAD PUSH1 0x5 SLOAD PUSH2 0x4F6 SWAP2 SWAP1 PUSH2 0x1AD9 JUMP JUMPDEST PUSH1 0x3 SLOAD DUP7 PUSH2 0x504 SWAP2 SWAP1 PUSH2 0x1A98 JUMP JUMPDEST PUSH2 0x50E SWAP2 SWAP1 PUSH2 0x1A98 JUMP JUMPDEST PUSH2 0x518 SWAP2 SWAP1 PUSH2 0x1B39 JUMP JUMPDEST SWAP3 POP DUP3 DUP5 PUSH2 0x526 SWAP2 SWAP1 PUSH2 0x1B69 JUMP JUMPDEST SWAP2 POP POP SWAP2 SWAP4 SWAP1 SWAP3 POP JUMP JUMPDEST PUSH1 0x5 SLOAD TIMESTAMP LT PUSH2 0x574 JUMPI PUSH1 0x40 MLOAD PUSH32 0x8C379A000000000000000000000000000000000000000000000000000000000 DUP2 MSTORE PUSH1 0x4 ADD PUSH2 0x56B SWAP1 PUSH2 0x1BE6 JUMP JUMPDEST PUSH1 0x40 MLOAD DUP1 SWAP2 SUB SWAP1 REVERT JUMPDEST PUSH0 CALLVALUE GT PUSH2 0x5B6 JUMPI PUSH1 0x40 MLOAD PUSH32 0x8C379A000000000000000000000000000000000000000000000000000000000 DUP2 MSTORE PUSH1 0x4 ADD PUSH2 0x5AD SWAP1 PUSH2 0x19E5 JUMP JUMPDEST PUSH1 0x40 MLOAD DUP1 SWAP2 SUB SWAP1 REVERT JUMPDEST PUSH0 PUSH1 0x2 SLOAD CALLVALUE PUSH2 0x5C5 SWAP2 SWAP1 PUSH2 0x1B39 JUMP JUMPDEST SWAP1 POP PUSH0 DUP2 GT PUSH2 0x609 JUMPI PUSH1 0x40 MLOAD PUSH32 0x8C379A000000000000000000000000000000000000000000000000000000000 DUP2 MSTORE PUSH1 0x4 ADD PUSH2 0x600 SWAP1 PUSH2 0x1C4E JUMP JUMPDEST PUSH1 0x40 MLOAD DUP1 SWAP2 SUB SWAP1 REVERT JUMPDEST DUP1 PUSH1 0x1 SLOAD LT ISZERO PUSH2 0x61A PUSH1 0x1 SLOAD PUSH2 0x14E4 JUMP JUMPDEST PUSH1 0x40 MLOAD PUSH1 0x20 ADD PUSH2 0x62A SWAP2 SWAP1 PUSH2 0x1D2E JUMP JUMPDEST PUSH1 0x40 MLOAD PUSH1 0x20 DUP2 DUP4 SUB SUB DUP2 MSTORE SWAP1 PUSH1 0x40 MSTORE SWAP1 PUSH2 0x67A JUMPI PUSH1 0x40 MLOAD PUSH32 0x8C379A000000000000000000000000000000000000000000000000000000000 DUP2 MSTORE PUSH1 0x4 ADD PUSH2 0x671 SWAP2 SWAP1 PUSH2 0x1D97 JUMP JUMPDEST PUSH1 0x40 MLOAD DUP1 SWAP2 SUB SWAP1 REVERT JUMPDEST POP PUSH1 0x9 PUSH0 CALLER PUSH20 0xFFFFFFFFFFFFFFFFFFFFFFFFFFFFFFFFFFFFFFFF AND PUSH20 0xFFFFFFFFFFFFFFFFFFFFFFFFFFFFFFFFFFFFFFFF AND DUP2 MSTORE PUSH1 0x20 ADD SWAP1 DUP2 MSTORE PUSH1 0x20 ADD PUSH0 KECCAK256 PUSH0 SWAP1 SLOAD SWAP1 PUSH2 0x100 EXP SWAP1 DIV PUSH1 0xFF AND PUSH2 0x796 JUMPI PUSH1 0xA CALLER SWAP1 DUP1 PUSH1 0x1 DUP2 SLOAD ADD DUP1 DUP3 SSTORE DUP1 SWAP2 POP POP PUSH1 0x1 SWAP1 SUB SWAP1 PUSH0 MSTORE PUSH1 0x20 PUSH0 KECCAK256 ADD PUSH0 SWAP1 SWAP2 SWAP1 SWAP2 SWAP1 SWAP2 PUSH2 0x100 EXP DUP2 SLOAD DUP2 PUSH20 0xFFFFFFFFFFFFFFFFFFFFFFFFFFFFFFFFFFFFFFFF MUL NOT AND SWAP1 DUP4 PUSH20 0xFFFFFFFFFFFFFFFFFFFFFFFFFFFFFFFFFFFFFFFF AND MUL OR SWAP1 SSTORE POP PUSH1 0x1 PUSH1 0x9 PUSH0 CALLER PUSH20 0xFFFFFFFFFFFFFFFFFFFFFFFFFFFFFFFFFFFFFFFF AND PUSH20 0xFFFFFFFFFFFFFFFFFFFFFFFFFFFFFFFFFFFFFFFF AND DUP2 MSTORE PUSH1 0x20 ADD SWAP1 DUP2 MSTORE PUSH1 0x20 ADD PUSH0 KECCAK256 PUSH0 PUSH2 0x100 EXP DUP2 SLOAD DUP2 PUSH1 0xFF MUL NOT AND SWAP1 DUP4 ISZERO ISZERO MUL OR SWAP1 SSTORE POP PUSH1 0xB PUSH0 DUP2 SLOAD DUP1 SWAP3 SWAP2 SWAP1 PUSH2 0x790 SWAP1 PUSH2 0x1DB7 JUMP JUMPDEST SWAP2 SWAP1 POP SSTORE POP JUMPDEST DUP1 PUSH1 0x8 PUSH0 CALLER PUSH20 0xFFFFFFFFFFFFFFFFFFFFFFFFFFFFFFFFFFFFFFFF AND PUSH20 0xFFFFFFFFFFFFFFFFFFFFFFFFFFFFFFFFFFFFFFFF AND DUP2 MSTORE PUSH1 0x20 ADD SWAP1 DUP2 MSTORE PUSH1 0x20 ADD PUSH0 KECCAK256 PUSH0 DUP3 DUP3 SLOAD PUSH2 0x7E2 SWAP2 SWAP1 PUSH2 0x1B69 JUMP JUMPDEST SWAP3 POP POP DUP2 SWAP1 SSTORE POP DUP1 PUSH1 0x1 PUSH0 DUP3 DUP3 SLOAD PUSH2 0x7FA SWAP2 SWAP1 PUSH2 0x1AD9 JUMP JUMPDEST SWAP3 POP POP DUP2 SWAP1 SSTORE POP CALLVALUE PUSH1 0x6 PUSH0 DUP3 DUP3 SLOAD PUSH2 0x812 SWAP2 SWAP1 PUSH2 0x1B69 JUMP JUMPDEST SWAP3 POP POP DUP2 SWAP1 SSTORE POP CALLER PUSH20 0xFFFFFFFFFFFFFFFFFFFFFFFFFFFFFFFFFFFFFFFF AND PUSH32 0x72E04AF5DFDA760CFED5E6556215DDC010133900AA0B75CEFA0883038F37EAE2 DUP3 PUSH1 0x40 MLOAD PUSH2 0x85F SWAP2 SWAP1 PUSH2 0x17FD JUMP JUMPDEST PUSH1 0x40 MLOAD DUP1 SWAP2 SUB SWAP1 LOG2 POP JUMP JUMPDEST PUSH1 0x6 SLOAD DUP2 JUMP JUMPDEST PUSH0 DUP1 SLOAD SWAP1 PUSH2 0x100 EXP SWAP1 DIV PUSH20 0xFFFFFFFFFFFFFFFFFFFFFFFFFFFFFFFFFFFFFFFF AND PUSH20 0xFFFFFFFFFFFFFFFFFFFFFFFFFFFFFFFFFFFFFFFF AND CALLER PUSH20 0xFFFFFFFFFFFFFFFFFFFFFFFFFFFFFFFFFFFFFFFF AND EQ PUSH2 0x8FD JUMPI PUSH1 0x40 MLOAD PUSH32 0x8C379A000000000000000000000000000000000000000000000000000000000 DUP2 MSTORE PUSH1 0x4 ADD PUSH2 0x8F4 SWAP1 PUSH2 0x1957 JUMP JUMPDEST PUSH1 0x40 MLOAD DUP1 SWAP2 SUB SWAP1 REVERT JUMPDEST PUSH1 0x5 SLOAD TIMESTAMP LT ISZERO PUSH2 0x942 JUMPI PUSH1 0x40 MLOAD PUSH32 0x8C379A000000000000000000000000000000000000000000000000000000000 DUP2 MSTORE PUSH1 0x4 ADD PUSH2 0x939 SWAP1 PUSH2 0x1E6E JUMP JUMPDEST PUSH1 0x40 MLOAD DUP1 SWAP2 SUB SWAP1 REVERT JUMPDEST PUSH3 0x278D00 PUSH1 0x5 SLOAD PUSH2 0x953 SWAP2 SWAP1 PUSH2 0x1B69 JUMP JUMPDEST TIMESTAMP LT ISZERO PUSH2 0x995 JUMPI PUSH1 0x40 MLOAD PUSH32 0x8C379A000000000000000000000000000000000000000000000000000000000 DUP2 MSTORE PUSH1 0x4 ADD PUSH2 0x98C SWAP1 PUSH2 0x1EFC JUMP JUMPDEST PUSH1 0x40 MLOAD DUP1 SWAP2 SUB SWAP1 REVERT JUMPDEST PUSH0 SELFBALANCE SWAP1 POP PUSH0 DUP2 GT PUSH2 0x9DB JUMPI PUSH1 0x40 MLOAD PUSH32 0x8C379A000000000000000000000000000000000000000000000000000000000 DUP2 MSTORE PUSH1 0x4 ADD PUSH2 0x9D2 SWAP1 PUSH2 0x1F64 JUMP JUMPDEST PUSH1 0x40 MLOAD DUP1 SWAP2 SUB SWAP1 REVERT JUMPDEST PUSH0 DUP1 SLOAD SWAP1 PUSH2 0x100 EXP SWAP1 DIV PUSH20 0xFFFFFFFFFFFFFFFFFFFFFFFFFFFFFFFFFFFFFFFF AND PUSH20 0xFFFFFFFFFFFFFFFFFFFFFFFFFFFFFFFFFFFFFFFF AND PUSH2 0x8FC DUP3 SWAP1 DUP2 ISZERO MUL SWAP1 PUSH1 0x40 MLOAD PUSH0 PUSH1 0x40 MLOAD DUP1 DUP4 SUB DUP2 DUP6 DUP9 DUP9 CALL SWAP4 POP POP POP POP ISZERO DUP1 ISZERO PUSH2 0xA3D JUMPI RETURNDATASIZE PUSH0 DUP1 RETURNDATACOPY RETURNDATASIZE PUSH0 REVERT JUMPDEST POP POP JUMP JUMPDEST PUSH1 0x3 SLOAD DUP2 JUMP JUMPDEST PUSH0 DUP1 SLOAD SWAP1 PUSH2 0x100 EXP SWAP1 DIV PUSH20 0xFFFFFFFFFFFFFFFFFFFFFFFFFFFFFFFFFFFFFFFF AND PUSH20 0xFFFFFFFFFFFFFFFFFFFFFFFFFFFFFFFFFFFFFFFF AND CALLER PUSH20 0xFFFFFFFFFFFFFFFFFFFFFFFFFFFFFFFFFFFFFFFF AND EQ PUSH2 0xAD4 JUMPI PUSH1 0x40 MLOAD PUSH32 0x8C379A000000000000000000000000000000000000000000000000000000000 DUP2 MSTORE PUSH1 0x4 ADD PUSH2 0xACB SWAP1 PUSH2 0x1957 JUMP JUMPDEST PUSH1 0x40 MLOAD DUP1 SWAP2 SUB SWAP1 REVERT JUMPDEST PUSH1 0x7 PUSH0 SWAP1 SLOAD SWAP1 PUSH2 0x100 EXP SWAP1 DIV PUSH1 0xFF AND ISZERO PUSH2 0xB23 JUMPI PUSH1 0x40 MLOAD PUSH32 0x8C379A000000000000000000000000000000000000000000000000000000000 DUP2 MSTORE PUSH1 0x4 ADD PUSH2 0xB1A SWAP1 PUSH2 0x1FCC JUMP JUMPDEST PUSH1 0x40 MLOAD DUP1 SWAP2 SUB SWAP1 REVERT JUMPDEST PUSH0 DUP5 GT PUSH2 0xB65 JUMPI PUSH1 0x40 MLOAD PUSH32 0x8C379A000000000000000000000000000000000000000000000000000000000 DUP2 MSTORE PUSH1 0x4 ADD PUSH2 0xB5C SWAP1 PUSH2 0x205A JUMP JUMPDEST PUSH1 0x40 MLOAD DUP1 SWAP2 SUB SWAP1 REVERT JUMPDEST PUSH0 DUP4 GT PUSH2 0xBA7 JUMPI PUSH1 0x40 MLOAD PUSH32 0x8C379A000000000000000000000000000000000000000000000000000000000 DUP2 MSTORE PUSH1 0x4 ADD PUSH2 0xB9E SWAP1 PUSH2 0x20E8 JUMP JUMPDEST PUSH1 0x40 MLOAD DUP1 SWAP2 SUB SWAP1 REVERT JUMPDEST PUSH0 DUP3 GT PUSH2 0xBE9 JUMPI PUSH1 0x40 MLOAD PUSH32 0x8C379A000000000000000000000000000000000000000000000000000000000 DUP2 MSTORE PUSH1 0x4 ADD PUSH2 0xBE0 SWAP1 PUSH2 0x2176 JUMP JUMPDEST PUSH1 0x40 MLOAD DUP1 SWAP2 SUB SWAP1 REVERT JUMPDEST TIMESTAMP DUP2 GT PUSH2 0xC2B JUMPI PUSH1 0x40 MLOAD PUSH32 0x8C379A000000000000000000000000000000000000000000000000000000000 DUP2 MSTORE PUSH1 0x4 ADD PUSH2 0xC22 SWAP1 PUSH2 0x2204 JUMP JUMPDEST PUSH1 0x40 MLOAD DUP1 SWAP2 SUB SWAP1 REVERT JUMPDEST DUP4 PUSH1 0x1 DUP2 SWAP1 SSTORE POP PUSH8 0xDE0B6B3A7640000 DUP4 PUSH2 0xC46 SWAP2 SWAP1 PUSH2 0x1A98 JUMP JUMPDEST PUSH1 0x2 DUP2 SWAP1 SSTORE POP DUP2 PUSH1 0x3 DUP2 SWAP1 SSTORE POP DUP1 PUSH1 0x5 DUP2 SWAP1 SSTORE POP TIMESTAMP PUSH1 0x4 DUP2 SWAP1 SSTORE POP PUSH1 0x1 PUSH1 0x7 PUSH0 PUSH2 0x100 EXP DUP2 SLOAD DUP2 PUSH1 0xFF MUL NOT AND SWAP1 DUP4 ISZERO ISZERO MUL OR SWAP1 SSTORE POP PUSH32 0xC4EDE3FCF855DC4685871BC70CBFF3B97F484D31F715AB9A3AC2D7B14776E2C6 PUSH1 0x1 SLOAD PUSH1 0x2 SLOAD PUSH1 0x3 SLOAD PUSH1 0x5 SLOAD PUSH1 0x40 MLOAD PUSH2 0xCB8 SWAP5 SWAP4 SWAP3 SWAP2 SWAP1 PUSH2 0x2222 JUMP JUMPDEST PUSH1 0x40 MLOAD DUP1 SWAP2 SUB SWAP1 LOG1 POP POP POP POP JUMP JUMPDEST PUSH1 0x4 SLOAD DUP2 JUMP JUMPDEST PUSH0 DUP1 PUSH0 SWAP1 SLOAD SWAP1 PUSH2 0x100 EXP SWAP1 DIV PUSH20 0xFFFFFFFFFFFFFFFFFFFFFFFFFFFFFFFFFFFFFFFF AND PUSH20 0xFFFFFFFFFFFFFFFFFFFFFFFFFFFFFFFFFFFFFFFF AND CALLER PUSH20 0xFFFFFFFFFFFFFFFFFFFFFFFFFFFFFFFFFFFFFFFF AND EQ PUSH2 0xD5B JUMPI PUSH1 0x40 MLOAD PUSH32 0x8C379A000000000000000000000000000000000000000000000000000000000 DUP2 MSTORE PUSH1 0x4 ADD PUSH2 0xD52 SWAP1 PUSH2 0x1957 JUMP JUMPDEST PUSH1 0x40 MLOAD DUP1 SWAP2 SUB SWAP1 REVERT JUMPDEST PUSH1 0x5 SLOAD TIMESTAMP LT ISZERO PUSH2 0xDA0 JUMPI PUSH1 0x40 MLOAD PUSH32 0x8C379A000000000000000000000000000000000000000000000000000000000 DUP2 MSTORE PUSH1 0x4 ADD PUSH2 0xD97 SWAP1 PUSH2 0x1E6E JUMP JUMPDEST PUSH1 0x40 MLOAD DUP1 SWAP2 SUB SWAP1 REVERT JUMPDEST PUSH0 SWAP1 POP PUSH0 JUMPDEST PUSH1 0xB SLOAD DUP2 LT ISZERO PUSH2 0xEAC JUMPI PUSH0 PUSH1 0xA DUP3 DUP2 SLOAD DUP2 LT PUSH2 0xDC4 JUMPI PUSH2 0xDC3 PUSH2 0x2265 JUMP JUMPDEST JUMPDEST SWAP1 PUSH0 MSTORE PUSH1 0x20 PUSH0 KECCAK256 ADD PUSH0 SWAP1 SLOAD SWAP1 PUSH2 0x100 EXP SWAP1 DIV PUSH20 0xFFFFFFFFFFFFFFFFFFFFFFFFFFFFFFFFFFFFFFFF AND SWAP1 POP PUSH0 PUSH1 0x8 PUSH0 DUP4 PUSH20 0xFFFFFFFFFFFFFFFFFFFFFFFFFFFFFFFFFFFFFFFF AND PUSH20 0xFFFFFFFFFFFFFFFFFFFFFFFFFFFFFFFFFFFFFFFF AND DUP2 MSTORE PUSH1 0x20 ADD SWAP1 DUP2 MSTORE PUSH1 0x20 ADD PUSH0 KECCAK256 SLOAD SWAP1 POP PUSH0 DUP2 GT ISZERO PUSH2 0xE9D JUMPI PUSH0 PUSH1 0x2 SLOAD DUP3 PUSH2 0xE46 SWAP2 SWAP1 PUSH2 0x1A98 JUMP JUMPDEST SWAP1 POP PUSH0 PUSH3 0x83D600 PUSH1 0x4 SLOAD PUSH1 0x5 SLOAD PUSH2 0xE5D SWAP2 SWAP1 PUSH2 0x1AD9 JUMP JUMPDEST PUSH1 0x3 SLOAD DUP5 PUSH2 0xE6B SWAP2 SWAP1 PUSH2 0x1A98 JUMP JUMPDEST PUSH2 0xE75 SWAP2 SWAP1 PUSH2 0x1A98 JUMP JUMPDEST PUSH2 0xE7F SWAP2 SWAP1 PUSH2 0x1B39 JUMP JUMPDEST SWAP1 POP DUP1 DUP3 PUSH2 0xE8D SWAP2 SWAP1 PUSH2 0x1B69 JUMP JUMPDEST DUP7 PUSH2 0xE98 SWAP2 SWAP1 PUSH2 0x1B69 JUMP JUMPDEST SWAP6 POP POP POP JUMPDEST POP POP DUP1 DUP1 PUSH1 0x1 ADD SWAP2 POP POP PUSH2 0xDA5 JUMP JUMPDEST POP SWAP1 JUMP JUMPDEST PUSH1 0x7 PUSH0 SWAP1 SLOAD SWAP1 PUSH2 0x100 EXP SWAP1 DIV PUSH1 0xFF AND DUP2 JUMP JUMPDEST PUSH0 DUP1 SLOAD SWAP1 PUSH2 0x100 EXP SWAP1 DIV PUSH20 0xFFFFFFFFFFFFFFFFFFFFFFFFFFFFFFFFFFFFFFFF AND PUSH20 0xFFFFFFFFFFFFFFFFFFFFFFFFFFFFFFFFFFFFFFFF AND CALLER PUSH20 0xFFFFFFFFFFFFFFFFFFFFFFFFFFFFFFFFFFFFFFFF AND EQ PUSH2 0xF4F JUMPI PUSH1 0x40 MLOAD PUSH32 0x8C379A000000000000000000000000000000000000000000000000000000000 DUP2 MSTORE PUSH1 0x4 ADD PUSH2 0xF46 SWAP1 PUSH2 0x1957 JUMP JUMPDEST PUSH1 0x40 MLOAD DUP1 SWAP2 SUB SWAP1 REVERT JUMPDEST PUSH1 0x5 SLOAD TIMESTAMP LT PUSH2 0xF93 JUMPI PUSH1 0x40 MLOAD PUSH32 0x8C379A000000000000000000000000000000000000000000000000000000000 DUP2 MSTORE PUSH1 0x4 ADD PUSH2 0xF8A SWAP1 PUSH2 0x1BE6 JUMP JUMPDEST PUSH1 0x40 MLOAD DUP1 SWAP2 SUB SWAP1 REVERT JUMPDEST PUSH0 SELFBALANCE SWAP1 POP PUSH0 DUP2 GT PUSH2 0xFD9 JUMPI PUSH1 0x40 MLOAD PUSH32 0x8C379A000000000000000000000000000000000000000000000000000000000 DUP2 MSTORE PUSH1 0x4 ADD PUSH2 0xFD0 SWAP1 PUSH2 0x22DC JUMP JUMPDEST PUSH1 0x40 MLOAD DUP1 SWAP2 SUB SWAP1 REVERT JUMPDEST PUSH0 DUP1 SLOAD SWAP1 PUSH2 0x100 EXP SWAP1 DIV PUSH20 0xFFFFFFFFFFFFFFFFFFFFFFFFFFFFFFFFFFFFFFFF AND PUSH20 0xFFFFFFFFFFFFFFFFFFFFFFFFFFFFFFFFFFFFFFFF AND PUSH2 0x8FC DUP3 SWAP1 DUP2 ISZERO MUL SWAP1 PUSH1 0x40 MLOAD PUSH0 PUSH1 0x40 MLOAD DUP1 DUP4 SUB DUP2 DUP6 DUP9 DUP9 CALL SWAP4 POP POP POP POP ISZERO DUP1 ISZERO PUSH2 0x103B JUMPI RETURNDATASIZE PUSH0 DUP1 RETURNDATACOPY RETURNDATASIZE PUSH0 REVERT JUMPDEST POP POP JUMP JUMPDEST PUSH1 0x5 SLOAD DUP2 JUMP JUMPDEST PUSH1 0x2 SLOAD DUP2 JUMP JUMPDEST PUSH1 0x5 SLOAD TIMESTAMP LT ISZERO PUSH2 0x1090 JUMPI PUSH1 0x40 MLOAD PUSH32 0x8C379A000000000000000000000000000000000000000000000000000000000 DUP2 MSTORE PUSH1 0x4 ADD PUSH2 0x1087 SWAP1 PUSH2 0x1E6E JUMP JUMPDEST PUSH1 0x40 MLOAD DUP1 SWAP2 SUB SWAP1 REVERT JUMPDEST PUSH0 PUSH1 0x8 PUSH0 CALLER PUSH20 0xFFFFFFFFFFFFFFFFFFFFFFFFFFFFFFFFFFFFFFFF AND PUSH20 0xFFFFFFFFFFFFFFFFFFFFFFFFFFFFFFFFFFFFFFFF AND DUP2 MSTORE PUSH1 0x20 ADD SWAP1 DUP2 MSTORE PUSH1 0x20 ADD PUSH0 KECCAK256 SLOAD SWAP1 POP PUSH0 DUP2 GT PUSH2 0x1113 JUMPI PUSH1 0x40 MLOAD PUSH32 0x8C379A000000000000000000000000000000000000000000000000000000000 DUP2 MSTORE PUSH1 0x4 ADD PUSH2 0x110A SWAP1 PUSH2 0x1A4D JUMP JUMPDEST PUSH1 0x40 MLOAD DUP1 SWAP2 SUB SWAP1 REVERT JUMPDEST PUSH0 PUSH1 0x2 SLOAD DUP3 PUSH2 0x1122 SWAP2 SWAP1 PUSH2 0x1A98 JUMP JUMPDEST SWAP1 POP PUSH0 PUSH3 0x83D600 PUSH1 0x4 SLOAD PUSH1 0x5 SLOAD PUSH2 0x1139 SWAP2 SWAP1 PUSH2 0x1AD9 JUMP JUMPDEST PUSH1 0x3 SLOAD DUP5 PUSH2 0x1147 SWAP2 SWAP1 PUSH2 0x1A98 JUMP JUMPDEST PUSH2 0x1151 SWAP2 SWAP1 PUSH2 0x1A98 JUMP JUMPDEST PUSH2 0x115B SWAP2 SWAP1 PUSH2 0x1B39 JUMP JUMPDEST SWAP1 POP PUSH0 DUP2 DUP4 PUSH2 0x116A SWAP2 SWAP1 PUSH2 0x1B69 JUMP JUMPDEST SWAP1 POP DUP1 SELFBALANCE LT ISZERO PUSH2 0x11AF JUMPI PUSH1 0x40 MLOAD PUSH32 0x8C379A000000000000000000000000000000000000000000000000000000000 DUP2 MSTORE PUSH1 0x4 ADD PUSH2 0x11A6 SWAP1 PUSH2 0x236A JUMP JUMPDEST PUSH1 0x40 MLOAD DUP1 SWAP2 SUB SWAP1 REVERT JUMPDEST PUSH0 PUSH1 0x8 PUSH0 CALLER PUSH20 0xFFFFFFFFFFFFFFFFFFFFFFFFFFFFFFFFFFFFFFFF AND PUSH20 0xFFFFFFFFFFFFFFFFFFFFFFFFFFFFFFFFFFFFFFFF AND DUP2 MSTORE PUSH1 0x20 ADD SWAP1 DUP2 MSTORE PUSH1 0x20 ADD PUSH0 KECCAK256 DUP2 SWAP1 SSTORE POP CALLER PUSH20 0xFFFFFFFFFFFFFFFFFFFFFFFFFFFFFFFFFFFFFFFF AND PUSH2 0x8FC DUP3 SWAP1 DUP2 ISZERO MUL SWAP1 PUSH1 0x40 MLOAD PUSH0 PUSH1 0x40 MLOAD DUP1 DUP4 SUB DUP2 DUP6 DUP9 DUP9 CALL SWAP4 POP POP POP POP ISZERO DUP1 ISZERO PUSH2 0x1234 JUMPI RETURNDATASIZE PUSH0 DUP1 RETURNDATACOPY RETURNDATASIZE PUSH0 REVERT JUMPDEST POP CALLER PUSH20 0xFFFFFFFFFFFFFFFFFFFFFFFFFFFFFFFFFFFFFFFF AND PUSH32 0x9288B6DE588C2EF664548C899DB8A71F78097BDF2A031408E9BCEFF697CBF94F DUP6 PUSH1 0x40 MLOAD PUSH2 0x127B SWAP2 SWAP1 PUSH2 0x17FD JUMP JUMPDEST PUSH1 0x40 MLOAD DUP1 SWAP2 SUB SWAP1 LOG2 POP POP POP POP JUMP JUMPDEST PUSH0 DUP1 SLOAD SWAP1 PUSH2 0x100 EXP SWAP1 DIV PUSH20 0xFFFFFFFFFFFFFFFFFFFFFFFFFFFFFFFFFFFFFFFF AND PUSH20 0xFFFFFFFFFFFFFFFFFFFFFFFFFFFFFFFFFFFFFFFF AND CALLER PUSH20 0xFFFFFFFFFFFFFFFFFFFFFFFFFFFFFFFFFFFFFFFF AND EQ PUSH2 0x1316 JUMPI PUSH1 0x40 MLOAD PUSH32 0x8C379A000000000000000000000000000000000000000000000000000000000 DUP2 MSTORE PUSH1 0x4 ADD PUSH2 0x130D SWAP1 PUSH2 0x1957 JUMP JUMPDEST PUSH1 0x40 MLOAD DUP1 SWAP2 SUB SWAP1 REVERT JUMPDEST PUSH1 0x5 SLOAD TIMESTAMP LT ISZERO PUSH2 0x135B JUMPI PUSH1 0x40 MLOAD PUSH32 0x8C379A000000000000000000000000000000000000000000000000000000000 DUP2 MSTORE PUSH1 0x4 ADD PUSH2 0x1352 SWAP1 PUSH2 0x1E6E JUMP JUMPDEST PUSH1 0x40 MLOAD DUP1 SWAP2 SUB SWAP1 REVERT JUMPDEST PUSH0 JUMPDEST PUSH1 0xA DUP1 SLOAD SWAP1 POP DUP2 LT ISZERO PUSH2 0x1431 JUMPI PUSH0 PUSH1 0x8 PUSH0 PUSH1 0xA DUP5 DUP2 SLOAD DUP2 LT PUSH2 0x1382 JUMPI PUSH2 0x1381 PUSH2 0x2265 JUMP JUMPDEST JUMPDEST SWAP1 PUSH0 MSTORE PUSH1 0x20 PUSH0 KECCAK256 ADD PUSH0 SWAP1 SLOAD SWAP1 PUSH2 0x100 EXP SWAP1 DIV PUSH20 0xFFFFFFFFFFFFFFFFFFFFFFFFFFFFFFFFFFFFFFFF AND PUSH20 0xFFFFFFFFFFFFFFFFFFFFFFFFFFFFFFFFFFFFFFFF AND PUSH20 0xFFFFFFFFFFFFFFFFFFFFFFFFFFFFFFFFFFFFFFFF AND DUP2 MSTORE PUSH1 0x20 ADD SWAP1 DUP2 MSTORE PUSH1 0x20 ADD PUSH0 KECCAK256 SLOAD EQ PUSH2 0x1424 JUMPI PUSH1 0x40 MLOAD PUSH32 0x8C379A000000000000000000000000000000000000000000000000000000000 DUP2 MSTORE PUSH1 0x4 ADD PUSH2 0x141B SWAP1 PUSH2 0x23F8 JUMP JUMPDEST PUSH1 0x40 MLOAD DUP1 SWAP2 SUB SWAP1 REVERT JUMPDEST DUP1 DUP1 PUSH1 0x1 ADD SWAP2 POP POP PUSH2 0x135D JUMP JUMPDEST POP PUSH0 SELFBALANCE SWAP1 POP PUSH0 DUP2 GT PUSH2 0x1478 JUMPI PUSH1 0x40 MLOAD PUSH32 0x8C379A000000000000000000000000000000000000000000000000000000000 DUP2 MSTORE PUSH1 0x4 ADD PUSH2 0x146F SWAP1 PUSH2 0x1F64 JUMP JUMPDEST PUSH1 0x40 MLOAD DUP1 SWAP2 SUB SWAP1 REVERT JUMPDEST PUSH0 DUP1 SLOAD SWAP1 PUSH2 0x100 EXP SWAP1 DIV PUSH20 0xFFFFFFFFFFFFFFFFFFFFFFFFFFFFFFFFFFFFFFFF AND PUSH20 0xFFFFFFFFFFFFFFFFFFFFFFFFFFFFFFFFFFFFFFFF AND PUSH2 0x8FC DUP3 SWAP1 DUP2 ISZERO MUL SWAP1 PUSH1 0x40 MLOAD PUSH0 PUSH1 0x40 MLOAD DUP1 DUP4 SUB DUP2 DUP6 DUP9 DUP9 CALL SWAP4 POP POP POP POP ISZERO DUP1 ISZERO PUSH2 0x14DA JUMPI RETURNDATASIZE PUSH0 DUP1 RETURNDATACOPY RETURNDATASIZE PUSH0 REVERT JUMPDEST POP POP JUMP JUMPDEST PUSH1 0x1 SLOAD DUP2 JUMP JUMPDEST PUSH1 0x60 PUSH0 PUSH1 0x1 PUSH2 0x14F2 DUP5 PUSH2 0x15AE JUMP JUMPDEST ADD SWAP1 POP PUSH0 DUP2 PUSH8 0xFFFFFFFFFFFFFFFF DUP2 GT ISZERO PUSH2 0x1510 JUMPI PUSH2 0x150F PUSH2 0x2416 JUMP JUMPDEST JUMPDEST PUSH1 0x40 MLOAD SWAP1 DUP1 DUP3 MSTORE DUP1 PUSH1 0x1F ADD PUSH1 0x1F NOT AND PUSH1 0x20 ADD DUP3 ADD PUSH1 0x40 MSTORE DUP1 ISZERO PUSH2 0x1542 JUMPI DUP2 PUSH1 0x20 ADD PUSH1 0x1 DUP3 MUL DUP1 CALLDATASIZE DUP4 CALLDATACOPY DUP1 DUP3 ADD SWAP2 POP POP SWAP1 POP JUMPDEST POP SWAP1 POP PUSH0 DUP3 PUSH1 0x20 ADD DUP3 ADD SWAP1 POP JUMPDEST PUSH1 0x1 ISZERO PUSH2 0x15A3 JUMPI DUP1 DUP1 PUSH1 0x1 SWAP1 SUB SWAP2 POP POP PUSH32 0x3031323334353637383961626364656600000000000000000000000000000000 PUSH1 0xA DUP7 MOD BYTE DUP2 MSTORE8 PUSH1 0xA DUP6 DUP2 PUSH2 0x1598 JUMPI PUSH2 0x1597 PUSH2 0x1B0C JUMP JUMPDEST JUMPDEST DIV SWAP5 POP PUSH0 DUP6 SUB PUSH2 0x154F JUMPI JUMPDEST DUP2 SWAP4 POP POP POP POP SWAP2 SWAP1 POP JUMP JUMPDEST PUSH0 DUP1 PUSH0 SWAP1 POP PUSH27 0x184F03E93FF9F4DAA797ED6E38ED64BF6A1F010000000000000000 DUP4 LT PUSH2 0x160A JUMPI PUSH27 0x184F03E93FF9F4DAA797ED6E38ED64BF6A1F010000000000000000 DUP4 DUP2 PUSH2 0x1600 JUMPI PUSH2 0x15FF PUSH2 0x1B0C JUMP JUMPDEST JUMPDEST DIV SWAP3 POP PUSH1 0x40 DUP2 ADD SWAP1 POP JUMPDEST PUSH14 0x4EE2D6D415B85ACEF8100000000 DUP4 LT PUSH2 0x1647 JUMPI PUSH14 0x4EE2D6D415B85ACEF8100000000 DUP4 DUP2 PUSH2 0x163D JUMPI PUSH2 0x163C PUSH2 0x1B0C JUMP JUMPDEST JUMPDEST DIV SWAP3 POP PUSH1 0x20 DUP2 ADD SWAP1 POP JUMPDEST PUSH7 0x2386F26FC10000 DUP4 LT PUSH2 0x1676 JUMPI PUSH7 0x2386F26FC10000 DUP4 DUP2 PUSH2 0x166C JUMPI PUSH2 0x166B PUSH2 0x1B0C JUMP JUMPDEST JUMPDEST DIV SWAP3 POP PUSH1 0x10 DUP2 ADD SWAP1 POP JUMPDEST PUSH4 0x5F5E100 DUP4 LT PUSH2 0x169F JUMPI PUSH4 0x5F5E100 DUP4 DUP2 PUSH2 0x1695 JUMPI PUSH2 0x1694 PUSH2 0x1B0C JUMP JUMPDEST JUMPDEST DIV SWAP3 POP PUSH1 0x8 DUP2 ADD SWAP1 POP JUMPDEST PUSH2 0x2710 DUP4 LT PUSH2 0x16C4 JUMPI PUSH2 0x2710 DUP4 DUP2 PUSH2 0x16BA JUMPI PUSH2 0x16B9 PUSH2 0x1B0C JUMP JUMPDEST JUMPDEST DIV SWAP3 POP PUSH1 0x4 DUP2 ADD SWAP1 POP JUMPDEST PUSH1 0x64 DUP4 LT PUSH2 0x16E7 JUMPI PUSH1 0x64 DUP4 DUP2 PUSH2 0x16DD JUMPI PUSH2 0x16DC PUSH2 0x1B0C JUMP JUMPDEST JUMPDEST DIV SWAP3 POP PUSH1 0x2 DUP2 ADD SWAP1 POP JUMPDEST PUSH1 0xA DUP4 LT PUSH2 0x16F6 JUMPI PUSH1 0x1 DUP2 ADD SWAP1 POP JUMPDEST DUP1 SWAP2 POP POP SWAP2 SWAP1 POP JUMP JUMPDEST PUSH0 PUSH20 0xFFFFFFFFFFFFFFFFFFFFFFFFFFFFFFFFFFFFFFFF DUP3 AND SWAP1 POP SWAP2 SWAP1 POP JUMP JUMPDEST PUSH0 PUSH2 0x1728 DUP3 PUSH2 0x16FF JUMP JUMPDEST SWAP1 POP SWAP2 SWAP1 POP JUMP JUMPDEST PUSH2 0x1738 DUP2 PUSH2 0x171E JUMP JUMPDEST DUP3 MSTORE POP POP JUMP JUMPDEST PUSH0 PUSH1 0x20 DUP3 ADD SWAP1 POP PUSH2 0x1751 PUSH0 DUP4 ADD DUP5 PUSH2 0x172F JUMP JUMPDEST SWAP3 SWAP2 POP POP JUMP JUMPDEST PUSH0 DUP1 REVERT JUMPDEST PUSH2 0x1764 DUP2 PUSH2 0x171E JUMP JUMPDEST DUP2 EQ PUSH2 0x176E JUMPI PUSH0 DUP1 REVERT JUMPDEST POP JUMP JUMPDEST PUSH0 DUP2 CALLDATALOAD SWAP1 POP PUSH2 0x177F DUP2 PUSH2 0x175B JUMP JUMPDEST SWAP3 SWAP2 POP POP JUMP JUMPDEST PUSH0 PUSH1 0x20 DUP3 DUP5 SUB SLT ISZERO PUSH2 0x179A JUMPI PUSH2 0x1799 PUSH2 0x1757 JUMP JUMPDEST JUMPDEST PUSH0 PUSH2 0x17A7 DUP5 DUP3 DUP6 ADD PUSH2 0x1771 JUMP JUMPDEST SWAP2 POP POP SWAP3 SWAP2 POP POP JUMP JUMPDEST PUSH0 DUP2 SWAP1 POP SWAP2 SWAP1 POP JUMP JUMPDEST PUSH2 0x17C2 DUP2 PUSH2 0x17B0 JUMP JUMPDEST DUP3 MSTORE POP POP JUMP JUMPDEST PUSH0 PUSH1 0x60 DUP3 ADD SWAP1 POP PUSH2 0x17DB PUSH0 DUP4 ADD DUP7 PUSH2 0x17B9 JUMP JUMPDEST PUSH2 0x17E8 PUSH1 0x20 DUP4 ADD DUP6 PUSH2 0x17B9 JUMP JUMPDEST PUSH2 0x17F5 PUSH1 0x40 DUP4 ADD DUP5 PUSH2 0x17B9 JUMP JUMPDEST SWAP5 SWAP4 POP POP POP POP JUMP JUMPDEST PUSH0 PUSH1 0x20 DUP3 ADD SWAP1 POP PUSH2 0x1810 PUSH0 DUP4 ADD DUP5 PUSH2 0x17B9 JUMP JUMPDEST SWAP3 SWAP2 POP POP JUMP JUMPDEST PUSH2 0x181F DUP2 PUSH2 0x17B0 JUMP JUMPDEST DUP2 EQ PUSH2 0x1829 JUMPI PUSH0 DUP1 REVERT JUMPDEST POP JUMP JUMPDEST PUSH0 DUP2 CALLDATALOAD SWAP1 POP PUSH2 0x183A DUP2 PUSH2 0x1816 JUMP JUMPDEST SWAP3 SWAP2 POP POP JUMP JUMPDEST PUSH0 DUP1 PUSH0 DUP1 PUSH1 0x80 DUP6 DUP8 SUB SLT ISZERO PUSH2 0x1858 JUMPI PUSH2 0x1857 PUSH2 0x1757 JUMP JUMPDEST JUMPDEST PUSH0 PUSH2 0x1865 DUP8 DUP3 DUP9 ADD PUSH2 0x182C JUMP JUMPDEST SWAP5 POP POP PUSH1 0x20 PUSH2 0x1876 DUP8 DUP3 DUP9 ADD PUSH2 0x182C JUMP JUMPDEST SWAP4 POP POP PUSH1 0x40 PUSH2 0x1887 DUP8 DUP3 DUP9 ADD PUSH2 0x182C JUMP JUMPDEST SWAP3 POP POP PUSH1 0x60 PUSH2 0x1898 DUP8 DUP3 DUP9 ADD PUSH2 0x182C JUMP JUMPDEST SWAP2 POP POP SWAP3 SWAP6 SWAP2 SWAP5 POP SWAP3 POP JUMP JUMPDEST PUSH0 DUP2 ISZERO ISZERO SWAP1 POP SWAP2 SWAP1 POP JUMP JUMPDEST PUSH2 0x18B8 DUP2 PUSH2 0x18A4 JUMP JUMPDEST DUP3 MSTORE POP POP JUMP JUMPDEST PUSH0 PUSH1 0x20 DUP3 ADD SWAP1 POP PUSH2 0x18D1 PUSH0 DUP4 ADD DUP5 PUSH2 0x18AF JUMP JUMPDEST SWAP3 SWAP2 POP POP JUMP JUMPDEST PUSH0 DUP3 DUP3 MSTORE PUSH1 0x20 DUP3 ADD SWAP1 POP SWAP3 SWAP2 POP POP JUMP JUMPDEST PUSH32 0x4F6E6C79206973737565722063616E2063616C6C20746869732066756E637469 PUSH0 DUP3 ADD MSTORE PUSH32 0x6F6E2E0000000000000000000000000000000000000000000000000000000000 PUSH1 0x20 DUP3 ADD MSTORE POP JUMP JUMPDEST PUSH0 PUSH2 0x1941 PUSH1 0x23 DUP4 PUSH2 0x18D7 JUMP JUMPDEST SWAP2 POP PUSH2 0x194C DUP3 PUSH2 0x18E7 JUMP JUMPDEST PUSH1 0x40 DUP3 ADD SWAP1 POP SWAP2 SWAP1 POP JUMP JUMPDEST PUSH0 PUSH1 0x20 DUP3 ADD SWAP1 POP DUP2 DUP2 SUB PUSH0 DUP4 ADD MSTORE PUSH2 0x196E DUP2 PUSH2 0x1935 JUMP JUMPDEST SWAP1 POP SWAP2 SWAP1 POP JUMP JUMPDEST PUSH32 0x416D6F756E74206D7573742062652067726561746572207468616E207A65726F PUSH0 DUP3 ADD MSTORE PUSH32 0x2E00000000000000000000000000000000000000000000000000000000000000 PUSH1 0x20 DUP3 ADD MSTORE POP JUMP JUMPDEST PUSH0 PUSH2 0x19CF PUSH1 0x21 DUP4 PUSH2 0x18D7 JUMP JUMPDEST SWAP2 POP PUSH2 0x19DA DUP3 PUSH2 0x1975 JUMP JUMPDEST PUSH1 0x40 DUP3 ADD SWAP1 POP SWAP2 SWAP1 POP JUMP JUMPDEST PUSH0 PUSH1 0x20 DUP3 ADD SWAP1 POP DUP2 DUP2 SUB PUSH0 DUP4 ADD MSTORE PUSH2 0x19FC DUP2 PUSH2 0x19C3 JUMP JUMPDEST SWAP1 POP SWAP2 SWAP1 POP JUMP JUMPDEST PUSH32 0x596F7520646F206E6F74206861766520626F6E647320746F2072656465656D2E PUSH0 DUP3 ADD MSTORE POP JUMP JUMPDEST PUSH0 PUSH2 0x1A37 PUSH1 0x20 DUP4 PUSH2 0x18D7 JUMP JUMPDEST SWAP2 POP PUSH2 0x1A42 DUP3 PUSH2 0x1A03 JUMP JUMPDEST PUSH1 0x20 DUP3 ADD SWAP1 POP SWAP2 SWAP1 POP JUMP JUMPDEST PUSH0 PUSH1 0x20 DUP3 ADD SWAP1 POP DUP2 DUP2 SUB PUSH0 DUP4 ADD MSTORE PUSH2 0x1A64 DUP2 PUSH2 0x1A2B JUMP JUMPDEST SWAP1 POP SWAP2 SWAP1 POP JUMP JUMPDEST PUSH32 0x4E487B7100000000000000000000000000000000000000000000000000000000 PUSH0 MSTORE PUSH1 0x11 PUSH1 0x4 MSTORE PUSH1 0x24 PUSH0 REVERT JUMPDEST PUSH0 PUSH2 0x1AA2 DUP3 PUSH2 0x17B0 JUMP JUMPDEST SWAP2 POP PUSH2 0x1AAD DUP4 PUSH2 0x17B0 JUMP JUMPDEST SWAP3 POP DUP3 DUP3 MUL PUSH2 0x1ABB DUP2 PUSH2 0x17B0 JUMP JUMPDEST SWAP2 POP DUP3 DUP3 DIV DUP5 EQ DUP4 ISZERO OR PUSH2 0x1AD2 JUMPI PUSH2 0x1AD1 PUSH2 0x1A6B JUMP JUMPDEST JUMPDEST POP SWAP3 SWAP2 POP POP JUMP JUMPDEST PUSH0 PUSH2 0x1AE3 DUP3 PUSH2 0x17B0 JUMP JUMPDEST SWAP2 POP PUSH2 0x1AEE DUP4 PUSH2 0x17B0 JUMP JUMPDEST SWAP3 POP DUP3 DUP3 SUB SWAP1 POP DUP2 DUP2 GT ISZERO PUSH2 0x1B06 JUMPI PUSH2 0x1B05 PUSH2 0x1A6B JUMP JUMPDEST JUMPDEST SWAP3 SWAP2 POP POP JUMP JUMPDEST PUSH32 0x4E487B7100000000000000000000000000000000000000000000000000000000 PUSH0 MSTORE PUSH1 0x12 PUSH1 0x4 MSTORE PUSH1 0x24 PUSH0 REVERT JUMPDEST PUSH0 PUSH2 0x1B43 DUP3 PUSH2 0x17B0 JUMP JUMPDEST SWAP2 POP PUSH2 0x1B4E DUP4 PUSH2 0x17B0 JUMP JUMPDEST SWAP3 POP DUP3 PUSH2 0x1B5E JUMPI PUSH2 0x1B5D PUSH2 0x1B0C JUMP JUMPDEST JUMPDEST DUP3 DUP3 DIV SWAP1 POP SWAP3 SWAP2 POP POP JUMP JUMPDEST PUSH0 PUSH2 0x1B73 DUP3 PUSH2 0x17B0 JUMP JUMPDEST SWAP2 POP PUSH2 0x1B7E DUP4 PUSH2 0x17B0 JUMP JUMPDEST SWAP3 POP DUP3 DUP3 ADD SWAP1 POP DUP1 DUP3 GT ISZERO PUSH2 0x1B96 JUMPI PUSH2 0x1B95 PUSH2 0x1A6B JUMP JUMPDEST JUMPDEST SWAP3 SWAP2 POP POP JUMP JUMPDEST PUSH32 0x426F6E642073616C6520706572696F642068617320656E6465642E0000000000 PUSH0 DUP3 ADD MSTORE POP JUMP JUMPDEST PUSH0 PUSH2 0x1BD0 PUSH1 0x1B DUP4 PUSH2 0x18D7 JUMP JUMPDEST SWAP2 POP PUSH2 0x1BDB DUP3 PUSH2 0x1B9C JUMP JUMPDEST PUSH1 0x20 DUP3 ADD SWAP1 POP SWAP2 SWAP1 POP JUMP JUMPDEST PUSH0 PUSH1 0x20 DUP3 ADD SWAP1 POP DUP2 DUP2 SUB PUSH0 DUP4 ADD MSTORE PUSH2 0x1BFD DUP2 PUSH2 0x1BC4 JUMP JUMPDEST SWAP1 POP SWAP2 SWAP1 POP JUMP JUMPDEST PUSH32 0x496E73756666696369656E742066756E647320746F2070757263686173652E00 PUSH0 DUP3 ADD MSTORE POP JUMP JUMPDEST PUSH0 PUSH2 0x1C38 PUSH1 0x1F DUP4 PUSH2 0x18D7 JUMP JUMPDEST SWAP2 POP PUSH2 0x1C43 DUP3 PUSH2 0x1C04 JUMP JUMPDEST PUSH1 0x20 DUP3 ADD SWAP1 POP SWAP2 SWAP1 POP JUMP JUMPDEST PUSH0 PUSH1 0x20 DUP3 ADD SWAP1 POP DUP2 DUP2 SUB PUSH0 DUP4 ADD MSTORE PUSH2 0x1C65 DUP2 PUSH2 0x1C2C JUMP JUMPDEST SWAP1 POP SWAP2 SWAP1 POP JUMP JUMPDEST PUSH0 DUP2 SWAP1 POP SWAP3 SWAP2 POP POP JUMP JUMPDEST PUSH32 0x496E73756666696369656E7420626F6E647320746F206275792E20417661696C PUSH0 DUP3 ADD MSTORE PUSH32 0x61626C6520626F6E64733A200000000000000000000000000000000000000000 PUSH1 0x20 DUP3 ADD MSTORE POP JUMP JUMPDEST PUSH0 PUSH2 0x1CD0 PUSH1 0x2C DUP4 PUSH2 0x1C6C JUMP JUMPDEST SWAP2 POP PUSH2 0x1CDB DUP3 PUSH2 0x1C76 JUMP JUMPDEST PUSH1 0x2C DUP3 ADD SWAP1 POP SWAP2 SWAP1 POP JUMP JUMPDEST PUSH0 DUP2 MLOAD SWAP1 POP SWAP2 SWAP1 POP JUMP JUMPDEST DUP3 DUP2 DUP4 MCOPY PUSH0 DUP4 DUP4 ADD MSTORE POP POP POP JUMP JUMPDEST PUSH0 PUSH2 0x1D08 DUP3 PUSH2 0x1CE6 JUMP JUMPDEST PUSH2 0x1D12 DUP2 DUP6 PUSH2 0x1C6C JUMP JUMPDEST SWAP4 POP PUSH2 0x1D22 DUP2 DUP6 PUSH1 0x20 DUP7 ADD PUSH2 0x1CF0 JUMP JUMPDEST DUP1 DUP5 ADD SWAP2 POP POP SWAP3 SWAP2 POP POP JUMP JUMPDEST PUSH0 PUSH2 0x1D38 DUP3 PUSH2 0x1CC4 JUMP JUMPDEST SWAP2 POP PUSH2 0x1D44 DUP3 DUP5 PUSH2 0x1CFE JUMP JUMPDEST SWAP2 POP DUP2 SWAP1 POP SWAP3 SWAP2 POP POP JUMP JUMPDEST PUSH0 PUSH1 0x1F NOT PUSH1 0x1F DUP4 ADD AND SWAP1 POP SWAP2 SWAP1 POP JUMP JUMPDEST PUSH0 PUSH2 0x1D69 DUP3 PUSH2 0x1CE6 JUMP JUMPDEST PUSH2 0x1D73 DUP2 DUP6 PUSH2 0x18D7 JUMP JUMPDEST SWAP4 POP PUSH2 0x1D83 DUP2 DUP6 PUSH1 0x20 DUP7 ADD PUSH2 0x1CF0 JUMP JUMPDEST PUSH2 0x1D8C DUP2 PUSH2 0x1D4F JUMP JUMPDEST DUP5 ADD SWAP2 POP POP SWAP3 SWAP2 POP POP JUMP JUMPDEST PUSH0 PUSH1 0x20 DUP3 ADD SWAP1 POP DUP2 DUP2 SUB PUSH0 DUP4 ADD MSTORE PUSH2 0x1DAF DUP2 DUP5 PUSH2 0x1D5F JUMP JUMPDEST SWAP1 POP SWAP3 SWAP2 POP POP JUMP JUMPDEST PUSH0 PUSH2 0x1DC1 DUP3 PUSH2 0x17B0 JUMP JUMPDEST SWAP2 POP PUSH32 0xFFFFFFFFFFFFFFFFFFFFFFFFFFFFFFFFFFFFFFFFFFFFFFFFFFFFFFFFFFFFFFFF DUP3 SUB PUSH2 0x1DF3 JUMPI PUSH2 0x1DF2 PUSH2 0x1A6B JUMP JUMPDEST JUMPDEST PUSH1 0x1 DUP3 ADD SWAP1 POP SWAP2 SWAP1 POP JUMP JUMPDEST PUSH32 0x426F6E6420726564656D7074696F6E20706572696F6420686173206E6F742073 PUSH0 DUP3 ADD MSTORE PUSH32 0x7461727465642E00000000000000000000000000000000000000000000000000 PUSH1 0x20 DUP3 ADD MSTORE POP JUMP JUMPDEST PUSH0 PUSH2 0x1E58 PUSH1 0x27 DUP4 PUSH2 0x18D7 JUMP JUMPDEST SWAP2 POP PUSH2 0x1E63 DUP3 PUSH2 0x1DFE JUMP JUMPDEST PUSH1 0x40 DUP3 ADD SWAP1 POP SWAP2 SWAP1 POP JUMP JUMPDEST PUSH0 PUSH1 0x20 DUP3 ADD SWAP1 POP DUP2 DUP2 SUB PUSH0 DUP4 ADD MSTORE PUSH2 0x1E85 DUP2 PUSH2 0x1E4C JUMP JUMPDEST SWAP1 POP SWAP2 SWAP1 POP JUMP JUMPDEST PUSH32 0x4F6E65206D6F6E746820686173206E6F74207061737365642073696E6365206D PUSH0 DUP3 ADD MSTORE PUSH32 0x617475726974792E000000000000000000000000000000000000000000000000 PUSH1 0x20 DUP3 ADD MSTORE POP JUMP JUMPDEST PUSH0 PUSH2 0x1EE6 PUSH1 0x28 DUP4 PUSH2 0x18D7 JUMP JUMPDEST SWAP2 POP PUSH2 0x1EF1 DUP3 PUSH2 0x1E8C JUMP JUMPDEST PUSH1 0x40 DUP3 ADD SWAP1 POP SWAP2 SWAP1 POP JUMP JUMPDEST PUSH0 PUSH1 0x20 DUP3 ADD SWAP1 POP DUP2 DUP2 SUB PUSH0 DUP4 ADD MSTORE PUSH2 0x1F13 DUP2 PUSH2 0x1EDA JUMP JUMPDEST SWAP1 POP SWAP2 SWAP1 POP JUMP JUMPDEST PUSH32 0x496E73756666696369656E742066756E647320746F2077697468647261772E00 PUSH0 DUP3 ADD MSTORE POP JUMP JUMPDEST PUSH0 PUSH2 0x1F4E PUSH1 0x1F DUP4 PUSH2 0x18D7 JUMP JUMPDEST SWAP2 POP PUSH2 0x1F59 DUP3 PUSH2 0x1F1A JUMP JUMPDEST PUSH1 0x20 DUP3 ADD SWAP1 POP SWAP2 SWAP1 POP JUMP JUMPDEST PUSH0 PUSH1 0x20 DUP3 ADD SWAP1 POP DUP2 DUP2 SUB PUSH0 DUP4 ADD MSTORE PUSH2 0x1F7B DUP2 PUSH2 0x1F42 JUMP JUMPDEST SWAP1 POP SWAP2 SWAP1 POP JUMP JUMPDEST PUSH32 0x426F6E647320616C7265616479206973737565642E0000000000000000000000 PUSH0 DUP3 ADD MSTORE POP JUMP JUMPDEST PUSH0 PUSH2 0x1FB6 PUSH1 0x15 DUP4 PUSH2 0x18D7 JUMP JUMPDEST SWAP2 POP PUSH2 0x1FC1 DUP3 PUSH2 0x1F82 JUMP JUMPDEST PUSH1 0x20 DUP3 ADD SWAP1 POP SWAP2 SWAP1 POP JUMP JUMPDEST PUSH0 PUSH1 0x20 DUP3 ADD SWAP1 POP DUP2 DUP2 SUB PUSH0 DUP4 ADD MSTORE PUSH2 0x1FE3 DUP2 PUSH2 0x1FAA JUMP JUMPDEST SWAP1 POP SWAP2 SWAP1 POP JUMP JUMPDEST PUSH32 0x546F74616C20626F6E6473206D7573742062652067726561746572207468616E PUSH0 DUP3 ADD MSTORE PUSH32 0x207A65726F2E0000000000000000000000000000000000000000000000000000 PUSH1 0x20 DUP3 ADD MSTORE POP JUMP JUMPDEST PUSH0 PUSH2 0x2044 PUSH1 0x26 DUP4 PUSH2 0x18D7 JUMP JUMPDEST SWAP2 POP PUSH2 0x204F DUP3 PUSH2 0x1FEA JUMP JUMPDEST PUSH1 0x40 DUP3 ADD SWAP1 POP SWAP2 SWAP1 POP JUMP JUMPDEST PUSH0 PUSH1 0x20 DUP3 ADD SWAP1 POP DUP2 DUP2 SUB PUSH0 DUP4 ADD MSTORE PUSH2 0x2071 DUP2 PUSH2 0x2038 JUMP JUMPDEST SWAP1 POP SWAP2 SWAP1 POP JUMP JUMPDEST PUSH32 0x426F6E64207072696365206D7573742062652067726561746572207468616E20 PUSH0 DUP3 ADD MSTORE PUSH32 0x7A65726F2E000000000000000000000000000000000000000000000000000000 PUSH1 0x20 DUP3 ADD MSTORE POP JUMP JUMPDEST PUSH0 PUSH2 0x20D2 PUSH1 0x25 DUP4 PUSH2 0x18D7 JUMP JUMPDEST SWAP2 POP PUSH2 0x20DD DUP3 PUSH2 0x2078 JUMP JUMPDEST PUSH1 0x40 DUP3 ADD SWAP1 POP SWAP2 SWAP1 POP JUMP JUMPDEST PUSH0 PUSH1 0x20 DUP3 ADD SWAP1 POP DUP2 DUP2 SUB PUSH0 DUP4 ADD MSTORE PUSH2 0x20FF DUP2 PUSH2 0x20C6 JUMP JUMPDEST SWAP1 POP SWAP2 SWAP1 POP JUMP JUMPDEST PUSH32 0x496E7465726573742072617465206D7573742062652067726561746572207468 PUSH0 DUP3 ADD MSTORE PUSH32 0x616E207A65726F2E000000000000000000000000000000000000000000000000 PUSH1 0x20 DUP3 ADD MSTORE POP JUMP JUMPDEST PUSH0 PUSH2 0x2160 PUSH1 0x28 DUP4 PUSH2 0x18D7 JUMP JUMPDEST SWAP2 POP PUSH2 0x216B DUP3 PUSH2 0x2106 JUMP JUMPDEST PUSH1 0x40 DUP3 ADD SWAP1 POP SWAP2 SWAP1 POP JUMP JUMPDEST PUSH0 PUSH1 0x20 DUP3 ADD SWAP1 POP DUP2 DUP2 SUB PUSH0 DUP4 ADD MSTORE PUSH2 0x218D DUP2 PUSH2 0x2154 JUMP JUMPDEST SWAP1 POP SWAP2 SWAP1 POP JUMP JUMPDEST PUSH32 0x4D617475726974792064617465206D75737420626520696E2074686520667574 PUSH0 DUP3 ADD MSTORE PUSH32 0x7572652E00000000000000000000000000000000000000000000000000000000 PUSH1 0x20 DUP3 ADD MSTORE POP JUMP JUMPDEST PUSH0 PUSH2 0x21EE PUSH1 0x24 DUP4 PUSH2 0x18D7 JUMP JUMPDEST SWAP2 POP PUSH2 0x21F9 DUP3 PUSH2 0x2194 JUMP JUMPDEST PUSH1 0x40 DUP3 ADD SWAP1 POP SWAP2 SWAP1 POP JUMP JUMPDEST PUSH0 PUSH1 0x20 DUP3 ADD SWAP1 POP DUP2 DUP2 SUB PUSH0 DUP4 ADD MSTORE PUSH2 0x221B DUP2 PUSH2 0x21E2 JUMP JUMPDEST SWAP1 POP SWAP2 SWAP1 POP JUMP JUMPDEST PUSH0 PUSH1 0x80 DUP3 ADD SWAP1 POP PUSH2 0x2235 PUSH0 DUP4 ADD DUP8 PUSH2 0x17B9 JUMP JUMPDEST PUSH2 0x2242 PUSH1 0x20 DUP4 ADD DUP7 PUSH2 0x17B9 JUMP JUMPDEST PUSH2 0x224F PUSH1 0x40 DUP4 ADD DUP6 PUSH2 0x17B9 JUMP JUMPDEST PUSH2 0x225C PUSH1 0x60 DUP4 ADD DUP5 PUSH2 0x17B9 JUMP JUMPDEST SWAP6 SWAP5 POP POP POP POP POP JUMP JUMPDEST PUSH32 0x4E487B7100000000000000000000000000000000000000000000000000000000 PUSH0 MSTORE PUSH1 0x32 PUSH1 0x4 MSTORE PUSH1 0x24 PUSH0 REVERT JUMPDEST PUSH32 0x4E6F2066756E647320617661696C61626C6520746F2077697468647261772E00 PUSH0 DUP3 ADD MSTORE POP JUMP JUMPDEST PUSH0 PUSH2 0x22C6 PUSH1 0x1F DUP4 PUSH2 0x18D7 JUMP JUMPDEST SWAP2 POP PUSH2 0x22D1 DUP3 PUSH2 0x2292 JUMP JUMPDEST PUSH1 0x20 DUP3 ADD SWAP1 POP SWAP2 SWAP1 POP JUMP JUMPDEST PUSH0 PUSH1 0x20 DUP3 ADD SWAP1 POP DUP2 DUP2 SUB PUSH0 DUP4 ADD MSTORE PUSH2 0x22F3 DUP2 PUSH2 0x22BA JUMP JUMPDEST SWAP1 POP SWAP2 SWAP1 POP JUMP JUMPDEST PUSH32 0x496E73756666696369656E7420636F6E74726163742062616C616E636520666F PUSH0 DUP3 ADD MSTORE PUSH32 0x72207061796F75742E0000000000000000000000000000000000000000000000 PUSH1 0x20 DUP3 ADD MSTORE POP JUMP JUMPDEST PUSH0 PUSH2 0x2354 PUSH1 0x29 DUP4 PUSH2 0x18D7 JUMP JUMPDEST SWAP2 POP PUSH2 0x235F DUP3 PUSH2 0x22FA JUMP JUMPDEST PUSH1 0x40 DUP3 ADD SWAP1 POP SWAP2 SWAP1 POP JUMP JUMPDEST PUSH0 PUSH1 0x20 DUP3 ADD SWAP1 POP DUP2 DUP2 SUB PUSH0 DUP4 ADD MSTORE PUSH2 0x2381 DUP2 PUSH2 0x2348 JUMP JUMPDEST SWAP1 POP SWAP2 SWAP1 POP JUMP JUMPDEST PUSH32 0x416C6C20626F6E6473206D7573742062652072656465656D6564206265666F72 PUSH0 DUP3 ADD MSTORE PUSH32 0x65207769746864726177696E672072656D61696E696E672066756E64732E0000 PUSH1 0x20 DUP3 ADD MSTORE POP JUMP JUMPDEST PUSH0 PUSH2 0x23E2 PUSH1 0x3E DUP4 PUSH2 0x18D7 JUMP JUMPDEST SWAP2 POP PUSH2 0x23ED DUP3 PUSH2 0x2388 JUMP JUMPDEST PUSH1 0x40 DUP3 ADD SWAP1 POP SWAP2 SWAP1 POP JUMP JUMPDEST PUSH0 PUSH1 0x20 DUP3 ADD SWAP1 POP DUP2 DUP2 SUB PUSH0 DUP4 ADD MSTORE PUSH2 0x240F DUP2 PUSH2 0x23D6 JUMP JUMPDEST SWAP1 POP SWAP2 SWAP1 POP JUMP JUMPDEST PUSH32 0x4E487B7100000000000000000000000000000000000000000000000000000000 PUSH0 MSTORE PUSH1 0x41 PUSH1 0x4 MSTORE PUSH1 0x24 PUSH0 REVERT INVALID LOG2 PUSH5 0x6970667358 0x22 SLT KECCAK256 ISZERO 0xAC 0xD3 0x25 0xDF 0xC5 0x4D SLT 0xCF SWAP12 0xE1 LOG4 0xA7 0x4C 0x23 GASLIMIT 0xEA NOT 0xBF SWAP11 0x24 DUP1 GASPRICE 0xB2 XOR PUSH20 0x1A9F0DFAD00C64736F6C634300081A0033000000 "
				},
				"gasEstimates": {
					"creation": {
						"codeDepositCost": "1867400",
						"executionCost": "26232",
						"totalCost": "1893632"
					},
					"external": {
						"bondPrice()": "2469",
						"calculateRedemptionAmount(address)": "infinite",
						"calculateTotalPayout()": "infinite",
						"interestRate()": "2492",
						"isIssued()": "2533",
						"issuanceDate()": "2448",
						"issueBonds(uint256,uint256,uint256,uint256)": "infinite",
						"issuer()": "2551",
						"maturityDate()": "2447",
						"purchaseBonds()": "infinite",
						"redeemBonds()": "infinite",
						"totalBonds()": "2535",
						"totalInvested()": "2448",
						"transferToContract()": "2632",
						"withdrawFundsBeforeMaturity()": "infinite",
						"withdrawRemainingFunds()": "infinite",
						"withdrawRemainingFundsAfterOneMonth()": "infinite"
					}
				},
				"methodIdentifiers": {
					"bondPrice()": "d7ccfb0b",
					"calculateRedemptionAmount(address)": "28d36cfc",
					"calculateTotalPayout()": "cb7cad2a",
					"interestRate()": "7c3a00fd",
					"isIssued()": "d33ce61a",
					"issuanceDate()": "a766bc98",
					"issueBonds(uint256,uint256,uint256,uint256)": "89585083",
					"issuer()": "1d143848",
					"maturityDate()": "d59624b4",
					"purchaseBonds()": "3d31841b",
					"redeemBonds()": "e84a011a",
					"totalBonds()": "f263c470",
					"totalInvested()": "5216aeec",
					"transferToContract()": "12cccb34",
					"withdrawFundsBeforeMaturity()": "d44d7034",
					"withdrawRemainingFunds()": "ef86ce8e",
					"withdrawRemainingFundsAfterOneMonth()": "7c221bc5"
				}
			},
			"storageLayout": {
				"storage": [
					{
						"astId": 7,
						"contract": "7 занятие/Bonds.sol:Bonds",
						"label": "issuer",
						"offset": 0,
						"slot": "0",
						"type": "t_address"
					},
					{
						"astId": 9,
						"contract": "7 занятие/Bonds.sol:Bonds",
						"label": "totalBonds",
						"offset": 0,
						"slot": "1",
						"type": "t_uint256"
					},
					{
						"astId": 11,
						"contract": "7 занятие/Bonds.sol:Bonds",
						"label": "bondPrice",
						"offset": 0,
						"slot": "2",
						"type": "t_uint256"
					},
					{
						"astId": 13,
						"contract": "7 занятие/Bonds.sol:Bonds",
						"label": "interestRate",
						"offset": 0,
						"slot": "3",
						"type": "t_uint256"
					},
					{
						"astId": 15,
						"contract": "7 занятие/Bonds.sol:Bonds",
						"label": "issuanceDate",
						"offset": 0,
						"slot": "4",
						"type": "t_uint256"
					},
					{
						"astId": 17,
						"contract": "7 занятие/Bonds.sol:Bonds",
						"label": "maturityDate",
						"offset": 0,
						"slot": "5",
						"type": "t_uint256"
					},
					{
						"astId": 19,
						"contract": "7 занятие/Bonds.sol:Bonds",
						"label": "totalInvested",
						"offset": 0,
						"slot": "6",
						"type": "t_uint256"
					},
					{
						"astId": 21,
						"contract": "7 занятие/Bonds.sol:Bonds",
						"label": "isIssued",
						"offset": 0,
						"slot": "7",
						"type": "t_bool"
					},
					{
						"astId": 25,
						"contract": "7 занятие/Bonds.sol:Bonds",
						"label": "bondHolders",
						"offset": 0,
						"slot": "8",
						"type": "t_mapping(t_address,t_uint256)"
					},
					{
						"astId": 29,
						"contract": "7 занятие/Bonds.sol:Bonds",
						"label": "hasInvested",
						"offset": 0,
						"slot": "9",
						"type": "t_mapping(t_address,t_bool)"
					},
					{
						"astId": 32,
						"contract": "7 занятие/Bonds.sol:Bonds",
						"label": "investors",
						"offset": 0,
						"slot": "10",
						"type": "t_array(t_address)dyn_storage"
					},
					{
						"astId": 34,
						"contract": "7 занятие/Bonds.sol:Bonds",
						"label": "totalInvestors",
						"offset": 0,
						"slot": "11",
						"type": "t_uint256"
					}
				],
				"types": {
					"t_address": {
						"encoding": "inplace",
						"label": "address",
						"numberOfBytes": "20"
					},
					"t_array(t_address)dyn_storage": {
						"base": "t_address",
						"encoding": "dynamic_array",
						"label": "address[]",
						"numberOfBytes": "32"
					},
					"t_bool": {
						"encoding": "inplace",
						"label": "bool",
						"numberOfBytes": "1"
					},
					"t_mapping(t_address,t_bool)": {
						"encoding": "mapping",
						"key": "t_address",
						"label": "mapping(address => bool)",
						"numberOfBytes": "32",
						"value": "t_bool"
					},
					"t_mapping(t_address,t_uint256)": {
						"encoding": "mapping",
						"key": "t_address",
						"label": "mapping(address => uint256)",
						"numberOfBytes": "32",
						"value": "t_uint256"
					},
					"t_uint256": {
						"encoding": "inplace",
						"label": "uint256",
						"numberOfBytes": "32"
					}
				}
			},
			"userdoc": {
				"kind": "user",
				"methods": {},
				"version": 1
			}
		}
	}
}