{
	"7 занятие/Bonds.sol": {
		"Bonds": {
			"abi": [
				{
					"inputs": [],
					"stateMutability": "nonpayable",
					"type": "constructor"
				},
				{
					"anonymous": false,
					"inputs": [
						{
							"indexed": false,
							"internalType": "uint256",
							"name": "totalBonds",
							"type": "uint256"
						},
						{
							"indexed": false,
							"internalType": "uint256",
							"name": "bondPrice",
							"type": "uint256"
						},
						{
							"indexed": false,
							"internalType": "uint256",
							"name": "interestRate",
							"type": "uint256"
						},
						{
							"indexed": false,
							"internalType": "uint256",
							"name": "maturityDate",
							"type": "uint256"
						}
					],
					"name": "BondsIssued",
					"type": "event"
				},
				{
					"anonymous": false,
					"inputs": [
						{
							"indexed": true,
							"internalType": "address",
							"name": "buyer",
							"type": "address"
						},
						{
							"indexed": false,
							"internalType": "uint256",
							"name": "amount",
							"type": "uint256"
						}
					],
					"name": "BondsPurchased",
					"type": "event"
				},
				{
					"anonymous": false,
					"inputs": [
						{
							"indexed": true,
							"internalType": "address",
							"name": "holder",
							"type": "address"
						},
						{
							"indexed": false,
							"internalType": "uint256",
							"name": "amount",
							"type": "uint256"
						}
					],
					"name": "BondsRedeemed",
					"type": "event"
				},
				{
					"inputs": [],
					"name": "bondPrice",
					"outputs": [
						{
							"internalType": "uint256",
							"name": "",
							"type": "uint256"
						}
					],
					"stateMutability": "view",
					"type": "function"
				},
				{
					"inputs": [
						{
							"internalType": "address",
							"name": "investor",
							"type": "address"
						}
					],
					"name": "calculateRedemptionAmount",
					"outputs": [
						{
							"internalType": "uint256",
							"name": "totalAmount",
							"type": "uint256"
						},
						{
							"internalType": "uint256",
							"name": "interest",
							"type": "uint256"
						},
						{
							"internalType": "uint256",
							"name": "totalPayout",
							"type": "uint256"
						}
					],
					"stateMutability": "view",
					"type": "function"
				},
				{
					"inputs": [],
					"name": "calculateTotalPayout",
					"outputs": [
						{
							"internalType": "uint256",
							"name": "totalPayout",
							"type": "uint256"
						}
					],
					"stateMutability": "view",
					"type": "function"
				},
				{
					"inputs": [],
					"name": "interestRate",
					"outputs": [
						{
							"internalType": "uint256",
							"name": "",
							"type": "uint256"
						}
					],
					"stateMutability": "view",
					"type": "function"
				},
				{
					"inputs": [],
					"name": "isIssued",
					"outputs": [
						{
							"internalType": "bool",
							"name": "",
							"type": "bool"
						}
					],
					"stateMutability": "view",
					"type": "function"
				},
				{
					"inputs": [],
					"name": "issuanceDate",
					"outputs": [
						{
							"internalType": "uint256",
							"name": "",
							"type": "uint256"
						}
					],
					"stateMutability": "view",
					"type": "function"
				},
				{
					"inputs": [
						{
							"internalType": "uint256",
							"name": "_totalBonds",
							"type": "uint256"
						},
						{
							"internalType": "uint256",
							"name": "_bondPrice",
							"type": "uint256"
						},
						{
							"internalType": "uint256",
							"name": "_interestRate",
							"type": "uint256"
						},
						{
							"internalType": "uint256",
							"name": "_maturityDate",
							"type": "uint256"
						}
					],
					"name": "issueBonds",
					"outputs": [],
					"stateMutability": "nonpayable",
					"type": "function"
				},
				{
					"inputs": [],
					"name": "issuer",
					"outputs": [
						{
							"internalType": "address",
							"name": "",
							"type": "address"
						}
					],
					"stateMutability": "view",
					"type": "function"
				},
				{
					"inputs": [],
					"name": "maturityDate",
					"outputs": [
						{
							"internalType": "uint256",
							"name": "",
							"type": "uint256"
						}
					],
					"stateMutability": "view",
					"type": "function"
				},
				{
					"inputs": [],
					"name": "purchaseBonds",
					"outputs": [],
					"stateMutability": "payable",
					"type": "function"
				},
				{
					"inputs": [],
					"name": "redeemBonds",
					"outputs": [],
					"stateMutability": "nonpayable",
					"type": "function"
				},
				{
					"inputs": [],
					"name": "totalBonds",
					"outputs": [
						{
							"internalType": "uint256",
							"name": "",
							"type": "uint256"
						}
					],
					"stateMutability": "view",
					"type": "function"
				},
				{
					"inputs": [],
					"name": "totalInvested",
					"outputs": [
						{
							"internalType": "uint256",
							"name": "",
							"type": "uint256"
						}
					],
					"stateMutability": "view",
					"type": "function"
				},
				{
					"inputs": [],
					"name": "transferToContract",
					"outputs": [],
					"stateMutability": "payable",
					"type": "function"
				},
				{
					"inputs": [],
					"name": "withdrawRemainingFunds",
					"outputs": [],
					"stateMutability": "nonpayable",
					"type": "function"
				},
				{
					"inputs": [],
					"name": "withdrawRemainingFundsAfterOneMonth",
					"outputs": [],
					"stateMutability": "nonpayable",
					"type": "function"
				},
				{
					"stateMutability": "payable",
					"type": "receive"
				}
			],
			"devdoc": {
				"kind": "dev",
				"methods": {},
				"version": 1
			},
			"evm": {
				"assembly": "    /* \"7 \\xd0\\xb7\\xd0\\xb0\\xd0\\xbd\\xd1\\x8f\\xd1\\x82\\xd0\\xb8\\xd0\\xb5/Bonds.sol\":115:8466  contract Bonds {... */\n  mstore(0x40, 0x80)\n    /* \"7 \\xd0\\xb7\\xd0\\xb0\\xd0\\xbd\\xd1\\x8f\\xd1\\x82\\xd0\\xb8\\xd0\\xb5/Bonds.sol\":2380:2432  constructor() {... */\n  callvalue\n  dup1\n  iszero\n  tag_1\n  jumpi\n  0x00\n  dup1\n  revert\ntag_1:\n  pop\n    /* \"7 \\xd0\\xb7\\xd0\\xb0\\xd0\\xbd\\xd1\\x8f\\xd1\\x82\\xd0\\xb8\\xd0\\xb5/Bonds.sol\":2414:2424  msg.sender */\n  caller\n    /* \"7 \\xd0\\xb7\\xd0\\xb0\\xd0\\xbd\\xd1\\x8f\\xd1\\x82\\xd0\\xb8\\xd0\\xb5/Bonds.sol\":2405:2411  issuer */\n  0x00\n  dup1\n    /* \"7 \\xd0\\xb7\\xd0\\xb0\\xd0\\xbd\\xd1\\x8f\\xd1\\x82\\xd0\\xb8\\xd0\\xb5/Bonds.sol\":2405:2424  issuer = msg.sender */\n  0x0100\n  exp\n  dup2\n  sload\n  dup2\n  0xffffffffffffffffffffffffffffffffffffffff\n  mul\n  not\n  and\n  swap1\n  dup4\n  0xffffffffffffffffffffffffffffffffffffffff\n  and\n  mul\n  or\n  swap1\n  sstore\n  pop\n    /* \"7 \\xd0\\xb7\\xd0\\xb0\\xd0\\xbd\\xd1\\x8f\\xd1\\x82\\xd0\\xb8\\xd0\\xb5/Bonds.sol\":115:8466  contract Bonds {... */\n  dataSize(sub_0)\n  dup1\n  dataOffset(sub_0)\n  0x00\n  codecopy\n  0x00\n  return\nstop\n\nsub_0: assembly {\n        /* \"7 \\xd0\\xb7\\xd0\\xb0\\xd0\\xbd\\xd1\\x8f\\xd1\\x82\\xd0\\xb8\\xd0\\xb5/Bonds.sol\":115:8466  contract Bonds {... */\n      mstore(0x40, 0x80)\n      jumpi(tag_1, lt(calldatasize, 0x04))\n      shr(0xe0, calldataload(0x00))\n      dup1\n      0xa766bc98\n      gt\n      tag_19\n      jumpi\n      dup1\n      0xd7ccfb0b\n      gt\n      tag_20\n      jumpi\n      dup1\n      0xd7ccfb0b\n      eq\n      tag_15\n      jumpi\n      dup1\n      0xe84a011a\n      eq\n      tag_16\n      jumpi\n      dup1\n      0xef86ce8e\n      eq\n      tag_17\n      jumpi\n      dup1\n      0xf263c470\n      eq\n      tag_18\n      jumpi\n      jump(tag_2)\n    tag_20:\n      dup1\n      0xa766bc98\n      eq\n      tag_11\n      jumpi\n      dup1\n      0xcb7cad2a\n      eq\n      tag_12\n      jumpi\n      dup1\n      0xd33ce61a\n      eq\n      tag_13\n      jumpi\n      dup1\n      0xd59624b4\n      eq\n      tag_14\n      jumpi\n      jump(tag_2)\n    tag_19:\n      dup1\n      0x5216aeec\n      gt\n      tag_21\n      jumpi\n      dup1\n      0x5216aeec\n      eq\n      tag_7\n      jumpi\n      dup1\n      0x7c221bc5\n      eq\n      tag_8\n      jumpi\n      dup1\n      0x7c3a00fd\n      eq\n      tag_9\n      jumpi\n      dup1\n      0x89585083\n      eq\n      tag_10\n      jumpi\n      jump(tag_2)\n    tag_21:\n      dup1\n      0x12cccb34\n      eq\n      tag_3\n      jumpi\n      dup1\n      0x1d143848\n      eq\n      tag_4\n      jumpi\n      dup1\n      0x28d36cfc\n      eq\n      tag_5\n      jumpi\n      dup1\n      0x3d31841b\n      eq\n      tag_6\n      jumpi\n      jump(tag_2)\n    tag_1:\n      jumpi(tag_2, calldatasize)\n      stop\n    tag_2:\n      0x00\n      dup1\n      revert\n        /* \"7 \\xd0\\xb7\\xd0\\xb0\\xd0\\xbd\\xd1\\x8f\\xd1\\x82\\xd0\\xb8\\xd0\\xb5/Bonds.sol\":5300:5436  function transferToContract() external payable onlyIssuer {... */\n    tag_3:\n      tag_24\n      tag_25\n      jump\t// in\n    tag_24:\n      stop\n        /* \"7 \\xd0\\xb7\\xd0\\xb0\\xd0\\xbd\\xd1\\x8f\\xd1\\x82\\xd0\\xb8\\xd0\\xb5/Bonds.sol\":171:192  address public issuer */\n    tag_4:\n      callvalue\n      dup1\n      iszero\n      tag_26\n      jumpi\n      0x00\n      dup1\n      revert\n    tag_26:\n      pop\n      tag_27\n      tag_28\n      jump\t// in\n    tag_27:\n      mload(0x40)\n      tag_29\n      swap2\n      swap1\n      tag_30\n      jump\t// in\n    tag_29:\n      mload(0x40)\n      dup1\n      swap2\n      sub\n      swap1\n      return\n        /* \"7 \\xd0\\xb7\\xd0\\xb0\\xd0\\xbd\\xd1\\x8f\\xd1\\x82\\xd0\\xb8\\xd0\\xb5/Bonds.sol\":5592:6079  function calculateRedemptionAmount(address investor) public view returns (uint256 totalAmount, uint256 interest, uint256 totalPayout) {... */\n    tag_5:\n      callvalue\n      dup1\n      iszero\n      tag_31\n      jumpi\n      0x00\n      dup1\n      revert\n    tag_31:\n      pop\n      tag_32\n      0x04\n      dup1\n      calldatasize\n      sub\n      dup2\n      add\n      swap1\n      tag_33\n      swap2\n      swap1\n      tag_34\n      jump\t// in\n    tag_33:\n      tag_35\n      jump\t// in\n    tag_32:\n      mload(0x40)\n      tag_36\n      swap4\n      swap3\n      swap2\n      swap1\n      tag_37\n      jump\t// in\n    tag_36:\n      mload(0x40)\n      dup1\n      swap2\n      sub\n      swap1\n      return\n        /* \"7 \\xd0\\xb7\\xd0\\xb0\\xd0\\xbd\\xd1\\x8f\\xd1\\x82\\xd0\\xb8\\xd0\\xb5/Bonds.sol\":3488:4296  function purchaseBonds() external payable onlyBeforeMaturity {... */\n    tag_6:\n      tag_38\n      tag_39\n      jump\t// in\n    tag_38:\n      stop\n        /* \"7 \\xd0\\xb7\\xd0\\xb0\\xd0\\xbd\\xd1\\x8f\\xd1\\x82\\xd0\\xb8\\xd0\\xb5/Bonds.sol\":609:637  uint256 public totalInvested */\n    tag_7:\n      callvalue\n      dup1\n      iszero\n      tag_40\n      jumpi\n      0x00\n      dup1\n      revert\n    tag_40:\n      pop\n      tag_41\n      tag_42\n      jump\t// in\n    tag_41:\n      mload(0x40)\n      tag_43\n      swap2\n      swap1\n      tag_44\n      jump\t// in\n    tag_43:\n      mload(0x40)\n      dup1\n      swap2\n      sub\n      swap1\n      return\n        /* \"7 \\xd0\\xb7\\xd0\\xb0\\xd0\\xbd\\xd1\\x8f\\xd1\\x82\\xd0\\xb8\\xd0\\xb5/Bonds.sol\":7937:8426  function withdrawRemainingFundsAfterOneMonth() external onlyIssuer {... */\n    tag_8:\n      callvalue\n      dup1\n      iszero\n      tag_45\n      jumpi\n      0x00\n      dup1\n      revert\n    tag_45:\n      pop\n      tag_46\n      tag_47\n      jump\t// in\n    tag_46:\n      stop\n        /* \"7 \\xd0\\xb7\\xd0\\xb0\\xd0\\xbd\\xd1\\x8f\\xd1\\x82\\xd0\\xb8\\xd0\\xb5/Bonds.sol\":375:402  uint256 public interestRate */\n    tag_9:\n      callvalue\n      dup1\n      iszero\n      tag_48\n      jumpi\n      0x00\n      dup1\n      revert\n    tag_48:\n      pop\n      tag_49\n      tag_50\n      jump\t// in\n    tag_49:\n      mload(0x40)\n      tag_51\n      swap2\n      swap1\n      tag_44\n      jump\t// in\n    tag_51:\n      mload(0x40)\n      dup1\n      swap2\n      sub\n      swap1\n      return\n        /* \"7 \\xd0\\xb7\\xd0\\xb0\\xd0\\xbd\\xd1\\x8f\\xd1\\x82\\xd0\\xb8\\xd0\\xb5/Bonds.sol\":2522:3340  function issueBonds(uint256 _totalBonds, uint256 _bondPrice, uint256 _interestRate, uint256 _maturityDate) external onlyIssuer {... */\n    tag_10:\n      callvalue\n      dup1\n      iszero\n      tag_52\n      jumpi\n      0x00\n      dup1\n      revert\n    tag_52:\n      pop\n      tag_53\n      0x04\n      dup1\n      calldatasize\n      sub\n      dup2\n      add\n      swap1\n      tag_54\n      swap2\n      swap1\n      tag_55\n      jump\t// in\n    tag_54:\n      tag_56\n      jump\t// in\n    tag_53:\n      stop\n        /* \"7 \\xd0\\xb7\\xd0\\xb0\\xd0\\xbd\\xd1\\x8f\\xd1\\x82\\xd0\\xb8\\xd0\\xb5/Bonds.sol\":446:473  uint256 public issuanceDate */\n    tag_11:\n      callvalue\n      dup1\n      iszero\n      tag_57\n      jumpi\n      0x00\n      dup1\n      revert\n    tag_57:\n      pop\n      tag_58\n      tag_59\n      jump\t// in\n    tag_58:\n      mload(0x40)\n      tag_60\n      swap2\n      swap1\n      tag_44\n      jump\t// in\n    tag_60:\n      mload(0x40)\n      dup1\n      swap2\n      sub\n      swap1\n      return\n        /* \"7 \\xd0\\xb7\\xd0\\xb0\\xd0\\xbd\\xd1\\x8f\\xd1\\x82\\xd0\\xb8\\xd0\\xb5/Bonds.sol\":4480:5176  function calculateTotalPayout() public view onlyIssuer returns (uint256 totalPayout) {... */\n    tag_12:\n      callvalue\n      dup1\n      iszero\n      tag_61\n      jumpi\n      0x00\n      dup1\n      revert\n    tag_61:\n      pop\n      tag_62\n      tag_63\n      jump\t// in\n    tag_62:\n      mload(0x40)\n      tag_64\n      swap2\n      swap1\n      tag_44\n      jump\t// in\n    tag_64:\n      mload(0x40)\n      dup1\n      swap2\n      sub\n      swap1\n      return\n        /* \"7 \\xd0\\xb7\\xd0\\xb0\\xd0\\xbd\\xd1\\x8f\\xd1\\x82\\xd0\\xb8\\xd0\\xb5/Bonds.sol\":679:699  bool public isIssued */\n    tag_13:\n      callvalue\n      dup1\n      iszero\n      tag_65\n      jumpi\n      0x00\n      dup1\n      revert\n    tag_65:\n      pop\n      tag_66\n      tag_67\n      jump\t// in\n    tag_66:\n      mload(0x40)\n      tag_68\n      swap2\n      swap1\n      tag_69\n      jump\t// in\n    tag_68:\n      mload(0x40)\n      dup1\n      swap2\n      sub\n      swap1\n      return\n        /* \"7 \\xd0\\xb7\\xd0\\xb0\\xd0\\xbd\\xd1\\x8f\\xd1\\x82\\xd0\\xb8\\xd0\\xb5/Bonds.sol\":526:553  uint256 public maturityDate */\n    tag_14:\n      callvalue\n      dup1\n      iszero\n      tag_70\n      jumpi\n      0x00\n      dup1\n      revert\n    tag_70:\n      pop\n      tag_71\n      tag_72\n      jump\t// in\n    tag_71:\n      mload(0x40)\n      tag_73\n      swap2\n      swap1\n      tag_44\n      jump\t// in\n    tag_73:\n      mload(0x40)\n      dup1\n      swap2\n      sub\n      swap1\n      return\n        /* \"7 \\xd0\\xb7\\xd0\\xb0\\xd0\\xbd\\xd1\\x8f\\xd1\\x82\\xd0\\xb8\\xd0\\xb5/Bonds.sol\":292:316  uint256 public bondPrice */\n    tag_15:\n      callvalue\n      dup1\n      iszero\n      tag_74\n      jumpi\n      0x00\n      dup1\n      revert\n    tag_74:\n      pop\n      tag_75\n      tag_76\n      jump\t// in\n    tag_75:\n      mload(0x40)\n      tag_77\n      swap2\n      swap1\n      tag_44\n      jump\t// in\n    tag_77:\n      mload(0x40)\n      dup1\n      swap2\n      sub\n      swap1\n      return\n        /* \"7 \\xd0\\xb7\\xd0\\xb0\\xd0\\xbd\\xd1\\x8f\\xd1\\x82\\xd0\\xb8\\xd0\\xb5/Bonds.sol\":6268:6943  function redeemBonds() external onlyAfterMaturity {... */\n    tag_16:\n      callvalue\n      dup1\n      iszero\n      tag_78\n      jumpi\n      0x00\n      dup1\n      revert\n    tag_78:\n      pop\n      tag_79\n      tag_80\n      jump\t// in\n    tag_79:\n      stop\n        /* \"7 \\xd0\\xb7\\xd0\\xb0\\xd0\\xbd\\xd1\\x8f\\xd1\\x82\\xd0\\xb8\\xd0\\xb5/Bonds.sol\":7158:7694  function withdrawRemainingFunds() external onlyIssuer {... */\n    tag_17:\n      callvalue\n      dup1\n      iszero\n      tag_81\n      jumpi\n      0x00\n      dup1\n      revert\n    tag_81:\n      pop\n      tag_82\n      tag_83\n      jump\t// in\n    tag_82:\n      stop\n        /* \"7 \\xd0\\xb7\\xd0\\xb0\\xd0\\xbd\\xd1\\x8f\\xd1\\x82\\xd0\\xb8\\xd0\\xb5/Bonds.sol\":217:242  uint256 public totalBonds */\n    tag_18:\n      callvalue\n      dup1\n      iszero\n      tag_84\n      jumpi\n      0x00\n      dup1\n      revert\n    tag_84:\n      pop\n      tag_85\n      tag_86\n      jump\t// in\n    tag_85:\n      mload(0x40)\n      tag_87\n      swap2\n      swap1\n      tag_44\n      jump\t// in\n    tag_87:\n      mload(0x40)\n      dup1\n      swap2\n      sub\n      swap1\n      return\n        /* \"7 \\xd0\\xb7\\xd0\\xb0\\xd0\\xbd\\xd1\\x8f\\xd1\\x82\\xd0\\xb8\\xd0\\xb5/Bonds.sol\":5300:5436  function transferToContract() external payable onlyIssuer {... */\n    tag_25:\n        /* \"7 \\xd0\\xb7\\xd0\\xb0\\xd0\\xbd\\xd1\\x8f\\xd1\\x82\\xd0\\xb8\\xd0\\xb5/Bonds.sol\":1780:1786  issuer */\n      0x00\n      dup1\n      sload\n      swap1\n      0x0100\n      exp\n      swap1\n      div\n      0xffffffffffffffffffffffffffffffffffffffff\n      and\n        /* \"7 \\xd0\\xb7\\xd0\\xb0\\xd0\\xbd\\xd1\\x8f\\xd1\\x82\\xd0\\xb8\\xd0\\xb5/Bonds.sol\":1766:1786  msg.sender == issuer */\n      0xffffffffffffffffffffffffffffffffffffffff\n      and\n        /* \"7 \\xd0\\xb7\\xd0\\xb0\\xd0\\xbd\\xd1\\x8f\\xd1\\x82\\xd0\\xb8\\xd0\\xb5/Bonds.sol\":1766:1776  msg.sender */\n      caller\n        /* \"7 \\xd0\\xb7\\xd0\\xb0\\xd0\\xbd\\xd1\\x8f\\xd1\\x82\\xd0\\xb8\\xd0\\xb5/Bonds.sol\":1766:1786  msg.sender == issuer */\n      0xffffffffffffffffffffffffffffffffffffffff\n      and\n      eq\n        /* \"7 \\xd0\\xb7\\xd0\\xb0\\xd0\\xbd\\xd1\\x8f\\xd1\\x82\\xd0\\xb8\\xd0\\xb5/Bonds.sol\":1758:1826  require(msg.sender == issuer, \"Only issuer can call this function.\") */\n      tag_89\n      jumpi\n      mload(0x40)\n      0x08c379a000000000000000000000000000000000000000000000000000000000\n      dup2\n      mstore\n      0x04\n      add\n      tag_90\n      swap1\n      tag_91\n      jump\t// in\n    tag_90:\n      mload(0x40)\n      dup1\n      swap2\n      sub\n      swap1\n      revert\n    tag_89:\n        /* \"7 \\xd0\\xb7\\xd0\\xb0\\xd0\\xbd\\xd1\\x8f\\xd1\\x82\\xd0\\xb8\\xd0\\xb5/Bonds.sol\":5389:5390  0 */\n      0x00\n        /* \"7 \\xd0\\xb7\\xd0\\xb0\\xd0\\xbd\\xd1\\x8f\\xd1\\x82\\xd0\\xb8\\xd0\\xb5/Bonds.sol\":5377:5386  msg.value */\n      callvalue\n        /* \"7 \\xd0\\xb7\\xd0\\xb0\\xd0\\xbd\\xd1\\x8f\\xd1\\x82\\xd0\\xb8\\xd0\\xb5/Bonds.sol\":5377:5390  msg.value > 0 */\n      gt\n        /* \"7 \\xd0\\xb7\\xd0\\xb0\\xd0\\xbd\\xd1\\x8f\\xd1\\x82\\xd0\\xb8\\xd0\\xb5/Bonds.sol\":5369:5428  require(msg.value > 0, \"Amount must be greater than zero.\") */\n      tag_93\n      jumpi\n      mload(0x40)\n      0x08c379a000000000000000000000000000000000000000000000000000000000\n      dup2\n      mstore\n      0x04\n      add\n      tag_94\n      swap1\n      tag_95\n      jump\t// in\n    tag_94:\n      mload(0x40)\n      dup1\n      swap2\n      sub\n      swap1\n      revert\n    tag_93:\n        /* \"7 \\xd0\\xb7\\xd0\\xb0\\xd0\\xbd\\xd1\\x8f\\xd1\\x82\\xd0\\xb8\\xd0\\xb5/Bonds.sol\":5300:5436  function transferToContract() external payable onlyIssuer {... */\n      jump\t// out\n        /* \"7 \\xd0\\xb7\\xd0\\xb0\\xd0\\xbd\\xd1\\x8f\\xd1\\x82\\xd0\\xb8\\xd0\\xb5/Bonds.sol\":171:192  address public issuer */\n    tag_28:\n      0x00\n      dup1\n      sload\n      swap1\n      0x0100\n      exp\n      swap1\n      div\n      0xffffffffffffffffffffffffffffffffffffffff\n      and\n      dup2\n      jump\t// out\n        /* \"7 \\xd0\\xb7\\xd0\\xb0\\xd0\\xbd\\xd1\\x8f\\xd1\\x82\\xd0\\xb8\\xd0\\xb5/Bonds.sol\":5592:6079  function calculateRedemptionAmount(address investor) public view returns (uint256 totalAmount, uint256 interest, uint256 totalPayout) {... */\n    tag_35:\n        /* \"7 \\xd0\\xb7\\xd0\\xb0\\xd0\\xbd\\xd1\\x8f\\xd1\\x82\\xd0\\xb8\\xd0\\xb5/Bonds.sol\":5666:5685  uint256 totalAmount */\n      0x00\n        /* \"7 \\xd0\\xb7\\xd0\\xb0\\xd0\\xbd\\xd1\\x8f\\xd1\\x82\\xd0\\xb8\\xd0\\xb5/Bonds.sol\":5687:5703  uint256 interest */\n      dup1\n        /* \"7 \\xd0\\xb7\\xd0\\xb0\\xd0\\xbd\\xd1\\x8f\\xd1\\x82\\xd0\\xb8\\xd0\\xb5/Bonds.sol\":5705:5724  uint256 totalPayout */\n      0x00\n        /* \"7 \\xd0\\xb7\\xd0\\xb0\\xd0\\xbd\\xd1\\x8f\\xd1\\x82\\xd0\\xb8\\xd0\\xb5/Bonds.sol\":5737:5751  uint256 amount */\n      dup1\n        /* \"7 \\xd0\\xb7\\xd0\\xb0\\xd0\\xbd\\xd1\\x8f\\xd1\\x82\\xd0\\xb8\\xd0\\xb5/Bonds.sol\":5754:5765  bondHolders */\n      0x08\n        /* \"7 \\xd0\\xb7\\xd0\\xb0\\xd0\\xbd\\xd1\\x8f\\xd1\\x82\\xd0\\xb8\\xd0\\xb5/Bonds.sol\":5754:5775  bondHolders[investor] */\n      0x00\n        /* \"7 \\xd0\\xb7\\xd0\\xb0\\xd0\\xbd\\xd1\\x8f\\xd1\\x82\\xd0\\xb8\\xd0\\xb5/Bonds.sol\":5766:5774  investor */\n      dup7\n        /* \"7 \\xd0\\xb7\\xd0\\xb0\\xd0\\xbd\\xd1\\x8f\\xd1\\x82\\xd0\\xb8\\xd0\\xb5/Bonds.sol\":5754:5775  bondHolders[investor] */\n      0xffffffffffffffffffffffffffffffffffffffff\n      and\n      0xffffffffffffffffffffffffffffffffffffffff\n      and\n      dup2\n      mstore\n      0x20\n      add\n      swap1\n      dup2\n      mstore\n      0x20\n      add\n      0x00\n      keccak256\n      sload\n        /* \"7 \\xd0\\xb7\\xd0\\xb0\\xd0\\xbd\\xd1\\x8f\\xd1\\x82\\xd0\\xb8\\xd0\\xb5/Bonds.sol\":5737:5775  uint256 amount = bondHolders[investor] */\n      swap1\n      pop\n        /* \"7 \\xd0\\xb7\\xd0\\xb0\\xd0\\xbd\\xd1\\x8f\\xd1\\x82\\xd0\\xb8\\xd0\\xb5/Bonds.sol\":5803:5804  0 */\n      0x00\n        /* \"7 \\xd0\\xb7\\xd0\\xb0\\xd0\\xbd\\xd1\\x8f\\xd1\\x82\\xd0\\xb8\\xd0\\xb5/Bonds.sol\":5794:5800  amount */\n      dup2\n        /* \"7 \\xd0\\xb7\\xd0\\xb0\\xd0\\xbd\\xd1\\x8f\\xd1\\x82\\xd0\\xb8\\xd0\\xb5/Bonds.sol\":5794:5804  amount > 0 */\n      gt\n        /* \"7 \\xd0\\xb7\\xd0\\xb0\\xd0\\xbd\\xd1\\x8f\\xd1\\x82\\xd0\\xb8\\xd0\\xb5/Bonds.sol\":5786:5841  require(amount > 0, \"You do not have bonds to redeem.\") */\n      tag_97\n      jumpi\n      mload(0x40)\n      0x08c379a000000000000000000000000000000000000000000000000000000000\n      dup2\n      mstore\n      0x04\n      add\n      tag_98\n      swap1\n      tag_99\n      jump\t// in\n    tag_98:\n      mload(0x40)\n      dup1\n      swap2\n      sub\n      swap1\n      revert\n    tag_97:\n        /* \"7 \\xd0\\xb7\\xd0\\xb0\\xd0\\xbd\\xd1\\x8f\\xd1\\x82\\xd0\\xb8\\xd0\\xb5/Bonds.sol\":5877:5886  bondPrice */\n      sload(0x02)\n        /* \"7 \\xd0\\xb7\\xd0\\xb0\\xd0\\xbd\\xd1\\x8f\\xd1\\x82\\xd0\\xb8\\xd0\\xb5/Bonds.sol\":5868:5874  amount */\n      dup2\n        /* \"7 \\xd0\\xb7\\xd0\\xb0\\xd0\\xbd\\xd1\\x8f\\xd1\\x82\\xd0\\xb8\\xd0\\xb5/Bonds.sol\":5868:5886  amount * bondPrice */\n      tag_100\n      swap2\n      swap1\n      tag_101\n      jump\t// in\n    tag_100:\n        /* \"7 \\xd0\\xb7\\xd0\\xb0\\xd0\\xbd\\xd1\\x8f\\xd1\\x82\\xd0\\xb8\\xd0\\xb5/Bonds.sol\":5854:5886  totalAmount = amount * bondPrice */\n      swap4\n      pop\n        /* \"7 \\xd0\\xb7\\xd0\\xb0\\xd0\\xbd\\xd1\\x8f\\xd1\\x82\\xd0\\xb8\\xd0\\xb5/Bonds.sol\":5972:5984  1 days * 100 */\n      0x83d600\n        /* \"7 \\xd0\\xb7\\xd0\\xb0\\xd0\\xbd\\xd1\\x8f\\xd1\\x82\\xd0\\xb8\\xd0\\xb5/Bonds.sol\":5954:5966  issuanceDate */\n      sload(0x04)\n        /* \"7 \\xd0\\xb7\\xd0\\xb0\\xd0\\xbd\\xd1\\x8f\\xd1\\x82\\xd0\\xb8\\xd0\\xb5/Bonds.sol\":5939:5951  maturityDate */\n      sload(0x05)\n        /* \"7 \\xd0\\xb7\\xd0\\xb0\\xd0\\xbd\\xd1\\x8f\\xd1\\x82\\xd0\\xb8\\xd0\\xb5/Bonds.sol\":5939:5966  maturityDate - issuanceDate */\n      tag_102\n      swap2\n      swap1\n      tag_103\n      jump\t// in\n    tag_102:\n        /* \"7 \\xd0\\xb7\\xd0\\xb0\\xd0\\xbd\\xd1\\x8f\\xd1\\x82\\xd0\\xb8\\xd0\\xb5/Bonds.sol\":5923:5935  interestRate */\n      sload(0x03)\n        /* \"7 \\xd0\\xb7\\xd0\\xb0\\xd0\\xbd\\xd1\\x8f\\xd1\\x82\\xd0\\xb8\\xd0\\xb5/Bonds.sol\":5909:5920  totalAmount */\n      dup7\n        /* \"7 \\xd0\\xb7\\xd0\\xb0\\xd0\\xbd\\xd1\\x8f\\xd1\\x82\\xd0\\xb8\\xd0\\xb5/Bonds.sol\":5909:5935  totalAmount * interestRate */\n      tag_104\n      swap2\n      swap1\n      tag_101\n      jump\t// in\n    tag_104:\n        /* \"7 \\xd0\\xb7\\xd0\\xb0\\xd0\\xbd\\xd1\\x8f\\xd1\\x82\\xd0\\xb8\\xd0\\xb5/Bonds.sol\":5909:5967  totalAmount * interestRate * (maturityDate - issuanceDate) */\n      tag_105\n      swap2\n      swap1\n      tag_101\n      jump\t// in\n    tag_105:\n        /* \"7 \\xd0\\xb7\\xd0\\xb0\\xd0\\xbd\\xd1\\x8f\\xd1\\x82\\xd0\\xb8\\xd0\\xb5/Bonds.sol\":5908:5985  (totalAmount * interestRate * (maturityDate - issuanceDate)) / (1 days * 100) */\n      tag_106\n      swap2\n      swap1\n      tag_107\n      jump\t// in\n    tag_106:\n        /* \"7 \\xd0\\xb7\\xd0\\xb0\\xd0\\xbd\\xd1\\x8f\\xd1\\x82\\xd0\\xb8\\xd0\\xb5/Bonds.sol\":5897:5985  interest = (totalAmount * interestRate * (maturityDate - issuanceDate)) / (1 days * 100) */\n      swap3\n      pop\n        /* \"7 \\xd0\\xb7\\xd0\\xb0\\xd0\\xbd\\xd1\\x8f\\xd1\\x82\\xd0\\xb8\\xd0\\xb5/Bonds.sol\":6063:6071  interest */\n      dup3\n        /* \"7 \\xd0\\xb7\\xd0\\xb0\\xd0\\xbd\\xd1\\x8f\\xd1\\x82\\xd0\\xb8\\xd0\\xb5/Bonds.sol\":6049:6060  totalAmount */\n      dup5\n        /* \"7 \\xd0\\xb7\\xd0\\xb0\\xd0\\xbd\\xd1\\x8f\\xd1\\x82\\xd0\\xb8\\xd0\\xb5/Bonds.sol\":6049:6071  totalAmount + interest */\n      tag_108\n      swap2\n      swap1\n      tag_109\n      jump\t// in\n    tag_108:\n        /* \"7 \\xd0\\xb7\\xd0\\xb0\\xd0\\xbd\\xd1\\x8f\\xd1\\x82\\xd0\\xb8\\xd0\\xb5/Bonds.sol\":6035:6071  totalPayout = totalAmount + interest */\n      swap2\n      pop\n        /* \"7 \\xd0\\xb7\\xd0\\xb0\\xd0\\xbd\\xd1\\x8f\\xd1\\x82\\xd0\\xb8\\xd0\\xb5/Bonds.sol\":5726:6079  {... */\n      pop\n        /* \"7 \\xd0\\xb7\\xd0\\xb0\\xd0\\xbd\\xd1\\x8f\\xd1\\x82\\xd0\\xb8\\xd0\\xb5/Bonds.sol\":5592:6079  function calculateRedemptionAmount(address investor) public view returns (uint256 totalAmount, uint256 interest, uint256 totalPayout) {... */\n      swap2\n      swap4\n      swap1\n      swap3\n      pop\n      jump\t// out\n        /* \"7 \\xd0\\xb7\\xd0\\xb0\\xd0\\xbd\\xd1\\x8f\\xd1\\x82\\xd0\\xb8\\xd0\\xb5/Bonds.sol\":3488:4296  function purchaseBonds() external payable onlyBeforeMaturity {... */\n    tag_39:\n        /* \"7 \\xd0\\xb7\\xd0\\xb0\\xd0\\xbd\\xd1\\x8f\\xd1\\x82\\xd0\\xb8\\xd0\\xb5/Bonds.sol\":2036:2048  maturityDate */\n      sload(0x05)\n        /* \"7 \\xd0\\xb7\\xd0\\xb0\\xd0\\xbd\\xd1\\x8f\\xd1\\x82\\xd0\\xb8\\xd0\\xb5/Bonds.sol\":2018:2033  block.timestamp */\n      timestamp\n        /* \"7 \\xd0\\xb7\\xd0\\xb0\\xd0\\xbd\\xd1\\x8f\\xd1\\x82\\xd0\\xb8\\xd0\\xb5/Bonds.sol\":2018:2048  block.timestamp < maturityDate */\n      lt\n        /* \"7 \\xd0\\xb7\\xd0\\xb0\\xd0\\xbd\\xd1\\x8f\\xd1\\x82\\xd0\\xb8\\xd0\\xb5/Bonds.sol\":2010:2080  require(block.timestamp < maturityDate, \"Bond sale period has ended.\") */\n      tag_111\n      jumpi\n      mload(0x40)\n      0x08c379a000000000000000000000000000000000000000000000000000000000\n      dup2\n      mstore\n      0x04\n      add\n      tag_112\n      swap1\n      tag_113\n      jump\t// in\n    tag_112:\n      mload(0x40)\n      dup1\n      swap2\n      sub\n      swap1\n      revert\n    tag_111:\n        /* \"7 \\xd0\\xb7\\xd0\\xb0\\xd0\\xbd\\xd1\\x8f\\xd1\\x82\\xd0\\xb8\\xd0\\xb5/Bonds.sol\":3580:3581  0 */\n      0x00\n        /* \"7 \\xd0\\xb7\\xd0\\xb0\\xd0\\xbd\\xd1\\x8f\\xd1\\x82\\xd0\\xb8\\xd0\\xb5/Bonds.sol\":3568:3577  msg.value */\n      callvalue\n        /* \"7 \\xd0\\xb7\\xd0\\xb0\\xd0\\xbd\\xd1\\x8f\\xd1\\x82\\xd0\\xb8\\xd0\\xb5/Bonds.sol\":3568:3581  msg.value > 0 */\n      gt\n        /* \"7 \\xd0\\xb7\\xd0\\xb0\\xd0\\xbd\\xd1\\x8f\\xd1\\x82\\xd0\\xb8\\xd0\\xb5/Bonds.sol\":3560:3619  require(msg.value > 0, \"Amount must be greater than zero.\") */\n      tag_115\n      jumpi\n      mload(0x40)\n      0x08c379a000000000000000000000000000000000000000000000000000000000\n      dup2\n      mstore\n      0x04\n      add\n      tag_116\n      swap1\n      tag_95\n      jump\t// in\n    tag_116:\n      mload(0x40)\n      dup1\n      swap2\n      sub\n      swap1\n      revert\n    tag_115:\n        /* \"7 \\xd0\\xb7\\xd0\\xb0\\xd0\\xbd\\xd1\\x8f\\xd1\\x82\\xd0\\xb8\\xd0\\xb5/Bonds.sol\":3630:3644  uint256 amount */\n      0x00\n        /* \"7 \\xd0\\xb7\\xd0\\xb0\\xd0\\xbd\\xd1\\x8f\\xd1\\x82\\xd0\\xb8\\xd0\\xb5/Bonds.sol\":3659:3668  bondPrice */\n      sload(0x02)\n        /* \"7 \\xd0\\xb7\\xd0\\xb0\\xd0\\xbd\\xd1\\x8f\\xd1\\x82\\xd0\\xb8\\xd0\\xb5/Bonds.sol\":3647:3656  msg.value */\n      callvalue\n        /* \"7 \\xd0\\xb7\\xd0\\xb0\\xd0\\xbd\\xd1\\x8f\\xd1\\x82\\xd0\\xb8\\xd0\\xb5/Bonds.sol\":3647:3668  msg.value / bondPrice */\n      tag_117\n      swap2\n      swap1\n      tag_107\n      jump\t// in\n    tag_117:\n        /* \"7 \\xd0\\xb7\\xd0\\xb0\\xd0\\xbd\\xd1\\x8f\\xd1\\x82\\xd0\\xb8\\xd0\\xb5/Bonds.sol\":3630:3668  uint256 amount = msg.value / bondPrice */\n      swap1\n      pop\n        /* \"7 \\xd0\\xb7\\xd0\\xb0\\xd0\\xbd\\xd1\\x8f\\xd1\\x82\\xd0\\xb8\\xd0\\xb5/Bonds.sol\":3696:3697  0 */\n      0x00\n        /* \"7 \\xd0\\xb7\\xd0\\xb0\\xd0\\xbd\\xd1\\x8f\\xd1\\x82\\xd0\\xb8\\xd0\\xb5/Bonds.sol\":3687:3693  amount */\n      dup2\n        /* \"7 \\xd0\\xb7\\xd0\\xb0\\xd0\\xbd\\xd1\\x8f\\xd1\\x82\\xd0\\xb8\\xd0\\xb5/Bonds.sol\":3687:3697  amount > 0 */\n      gt\n        /* \"7 \\xd0\\xb7\\xd0\\xb0\\xd0\\xbd\\xd1\\x8f\\xd1\\x82\\xd0\\xb8\\xd0\\xb5/Bonds.sol\":3679:3733  require(amount > 0, \"Insufficient funds to purchase.\") */\n      tag_118\n      jumpi\n      mload(0x40)\n      0x08c379a000000000000000000000000000000000000000000000000000000000\n      dup2\n      mstore\n      0x04\n      add\n      tag_119\n      swap1\n      tag_120\n      jump\t// in\n    tag_119:\n      mload(0x40)\n      dup1\n      swap2\n      sub\n      swap1\n      revert\n    tag_118:\n        /* \"7 \\xd0\\xb7\\xd0\\xb0\\xd0\\xbd\\xd1\\x8f\\xd1\\x82\\xd0\\xb8\\xd0\\xb5/Bonds.sol\":3766:3772  amount */\n      dup1\n        /* \"7 \\xd0\\xb7\\xd0\\xb0\\xd0\\xbd\\xd1\\x8f\\xd1\\x82\\xd0\\xb8\\xd0\\xb5/Bonds.sol\":3752:3762  totalBonds */\n      sload(0x01)\n        /* \"7 \\xd0\\xb7\\xd0\\xb0\\xd0\\xbd\\xd1\\x8f\\xd1\\x82\\xd0\\xb8\\xd0\\xb5/Bonds.sol\":3752:3772  totalBonds >= amount */\n      lt\n      iszero\n        /* \"7 \\xd0\\xb7\\xd0\\xb0\\xd0\\xbd\\xd1\\x8f\\xd1\\x82\\xd0\\xb8\\xd0\\xb5/Bonds.sol\":3846:3867  totalBonds.toString() */\n      tag_121\n        /* \"7 \\xd0\\xb7\\xd0\\xb0\\xd0\\xbd\\xd1\\x8f\\xd1\\x82\\xd0\\xb8\\xd0\\xb5/Bonds.sol\":3846:3856  totalBonds */\n      sload(0x01)\n        /* \"7 \\xd0\\xb7\\xd0\\xb0\\xd0\\xbd\\xd1\\x8f\\xd1\\x82\\xd0\\xb8\\xd0\\xb5/Bonds.sol\":3846:3865  totalBonds.toString */\n      tag_122\n        /* \"7 \\xd0\\xb7\\xd0\\xb0\\xd0\\xbd\\xd1\\x8f\\xd1\\x82\\xd0\\xb8\\xd0\\xb5/Bonds.sol\":3846:3867  totalBonds.toString() */\n      jump\t// in\n    tag_121:\n        /* \"7 \\xd0\\xb7\\xd0\\xb0\\xd0\\xbd\\xd1\\x8f\\xd1\\x82\\xd0\\xb8\\xd0\\xb5/Bonds.sol\":3781:3868  abi.encodePacked(\"Insufficient bonds to buy. Available bonds: \", totalBonds.toString()) */\n      add(0x20, mload(0x40))\n      tag_123\n      swap2\n      swap1\n      tag_124\n      jump\t// in\n    tag_123:\n      mload(0x40)\n      0x20\n      dup2\n      dup4\n      sub\n      sub\n      dup2\n      mstore\n      swap1\n      0x40\n      mstore\n        /* \"7 \\xd0\\xb7\\xd0\\xb0\\xd0\\xbd\\xd1\\x8f\\xd1\\x82\\xd0\\xb8\\xd0\\xb5/Bonds.sol\":3744:3870  require(totalBonds >= amount, string(abi.encodePacked(\"Insufficient bonds to buy. Available bonds: \", totalBonds.toString()))) */\n      swap1\n      tag_125\n      jumpi\n      mload(0x40)\n      0x08c379a000000000000000000000000000000000000000000000000000000000\n      dup2\n      mstore\n      0x04\n      add\n      tag_126\n      swap2\n      swap1\n      tag_127\n      jump\t// in\n    tag_126:\n      mload(0x40)\n      dup1\n      swap2\n      sub\n      swap1\n      revert\n    tag_125:\n      pop\n        /* \"7 \\xd0\\xb7\\xd0\\xb0\\xd0\\xbd\\xd1\\x8f\\xd1\\x82\\xd0\\xb8\\xd0\\xb5/Bonds.sol\":3888:3899  hasInvested */\n      0x09\n        /* \"7 \\xd0\\xb7\\xd0\\xb0\\xd0\\xbd\\xd1\\x8f\\xd1\\x82\\xd0\\xb8\\xd0\\xb5/Bonds.sol\":3888:3911  hasInvested[msg.sender] */\n      0x00\n        /* \"7 \\xd0\\xb7\\xd0\\xb0\\xd0\\xbd\\xd1\\x8f\\xd1\\x82\\xd0\\xb8\\xd0\\xb5/Bonds.sol\":3900:3910  msg.sender */\n      caller\n        /* \"7 \\xd0\\xb7\\xd0\\xb0\\xd0\\xbd\\xd1\\x8f\\xd1\\x82\\xd0\\xb8\\xd0\\xb5/Bonds.sol\":3888:3911  hasInvested[msg.sender] */\n      0xffffffffffffffffffffffffffffffffffffffff\n      and\n      0xffffffffffffffffffffffffffffffffffffffff\n      and\n      dup2\n      mstore\n      0x20\n      add\n      swap1\n      dup2\n      mstore\n      0x20\n      add\n      0x00\n      keccak256\n      0x00\n      swap1\n      sload\n      swap1\n      0x0100\n      exp\n      swap1\n      div\n      0xff\n      and\n        /* \"7 \\xd0\\xb7\\xd0\\xb0\\xd0\\xbd\\xd1\\x8f\\xd1\\x82\\xd0\\xb8\\xd0\\xb5/Bonds.sol\":3883:4123  if (!hasInvested[msg.sender]) { // Проверка на добавление инвестора в список... */\n      tag_128\n      jumpi\n        /* \"7 \\xd0\\xb7\\xd0\\xb0\\xd0\\xbd\\xd1\\x8f\\xd1\\x82\\xd0\\xb8\\xd0\\xb5/Bonds.sol\":4009:4018  investors */\n      0x0a\n        /* \"7 \\xd0\\xb7\\xd0\\xb0\\xd0\\xbd\\xd1\\x8f\\xd1\\x82\\xd0\\xb8\\xd0\\xb5/Bonds.sol\":4024:4034  msg.sender */\n      caller\n        /* \"7 \\xd0\\xb7\\xd0\\xb0\\xd0\\xbd\\xd1\\x8f\\xd1\\x82\\xd0\\xb8\\xd0\\xb5/Bonds.sol\":4009:4035  investors.push(msg.sender) */\n      swap1\n      dup1\n      0x01\n      dup2\n      sload\n      add\n      dup1\n      dup3\n      sstore\n      dup1\n      swap2\n      pop\n      pop\n      0x01\n      swap1\n      sub\n      swap1\n      0x00\n      mstore\n      keccak256(0x00, 0x20)\n      add\n      0x00\n      swap1\n      swap2\n      swap1\n      swap2\n      swap1\n      swap2\n      0x0100\n      exp\n      dup2\n      sload\n      dup2\n      0xffffffffffffffffffffffffffffffffffffffff\n      mul\n      not\n      and\n      swap1\n      dup4\n      0xffffffffffffffffffffffffffffffffffffffff\n      and\n      mul\n      or\n      swap1\n      sstore\n      pop\n        /* \"7 \\xd0\\xb7\\xd0\\xb0\\xd0\\xbd\\xd1\\x8f\\xd1\\x82\\xd0\\xb8\\xd0\\xb5/Bonds.sol\":4076:4080  true */\n      0x01\n        /* \"7 \\xd0\\xb7\\xd0\\xb0\\xd0\\xbd\\xd1\\x8f\\xd1\\x82\\xd0\\xb8\\xd0\\xb5/Bonds.sol\":4050:4061  hasInvested */\n      0x09\n        /* \"7 \\xd0\\xb7\\xd0\\xb0\\xd0\\xbd\\xd1\\x8f\\xd1\\x82\\xd0\\xb8\\xd0\\xb5/Bonds.sol\":4050:4073  hasInvested[msg.sender] */\n      0x00\n        /* \"7 \\xd0\\xb7\\xd0\\xb0\\xd0\\xbd\\xd1\\x8f\\xd1\\x82\\xd0\\xb8\\xd0\\xb5/Bonds.sol\":4062:4072  msg.sender */\n      caller\n        /* \"7 \\xd0\\xb7\\xd0\\xb0\\xd0\\xbd\\xd1\\x8f\\xd1\\x82\\xd0\\xb8\\xd0\\xb5/Bonds.sol\":4050:4073  hasInvested[msg.sender] */\n      0xffffffffffffffffffffffffffffffffffffffff\n      and\n      0xffffffffffffffffffffffffffffffffffffffff\n      and\n      dup2\n      mstore\n      0x20\n      add\n      swap1\n      dup2\n      mstore\n      0x20\n      add\n      0x00\n      keccak256\n      0x00\n        /* \"7 \\xd0\\xb7\\xd0\\xb0\\xd0\\xbd\\xd1\\x8f\\xd1\\x82\\xd0\\xb8\\xd0\\xb5/Bonds.sol\":4050:4080  hasInvested[msg.sender] = true */\n      0x0100\n      exp\n      dup2\n      sload\n      dup2\n      0xff\n      mul\n      not\n      and\n      swap1\n      dup4\n      iszero\n      iszero\n      mul\n      or\n      swap1\n      sstore\n      pop\n        /* \"7 \\xd0\\xb7\\xd0\\xb0\\xd0\\xbd\\xd1\\x8f\\xd1\\x82\\xd0\\xb8\\xd0\\xb5/Bonds.sol\":4095:4109  totalInvestors */\n      0x0b\n      0x00\n        /* \"7 \\xd0\\xb7\\xd0\\xb0\\xd0\\xbd\\xd1\\x8f\\xd1\\x82\\xd0\\xb8\\xd0\\xb5/Bonds.sol\":4095:4111  totalInvestors++ */\n      dup2\n      sload\n      dup1\n      swap3\n      swap2\n      swap1\n      tag_130\n      swap1\n      tag_131\n      jump\t// in\n    tag_130:\n      swap2\n      swap1\n      pop\n      sstore\n      pop\n        /* \"7 \\xd0\\xb7\\xd0\\xb0\\xd0\\xbd\\xd1\\x8f\\xd1\\x82\\xd0\\xb8\\xd0\\xb5/Bonds.sol\":3883:4123  if (!hasInvested[msg.sender]) { // Проверка на добавление инвестора в список... */\n    tag_128:\n        /* \"7 \\xd0\\xb7\\xd0\\xb0\\xd0\\xbd\\xd1\\x8f\\xd1\\x82\\xd0\\xb8\\xd0\\xb5/Bonds.sol\":4162:4168  amount */\n      dup1\n        /* \"7 \\xd0\\xb7\\xd0\\xb0\\xd0\\xbd\\xd1\\x8f\\xd1\\x82\\xd0\\xb8\\xd0\\xb5/Bonds.sol\":4135:4146  bondHolders */\n      0x08\n        /* \"7 \\xd0\\xb7\\xd0\\xb0\\xd0\\xbd\\xd1\\x8f\\xd1\\x82\\xd0\\xb8\\xd0\\xb5/Bonds.sol\":4135:4158  bondHolders[msg.sender] */\n      0x00\n        /* \"7 \\xd0\\xb7\\xd0\\xb0\\xd0\\xbd\\xd1\\x8f\\xd1\\x82\\xd0\\xb8\\xd0\\xb5/Bonds.sol\":4147:4157  msg.sender */\n      caller\n        /* \"7 \\xd0\\xb7\\xd0\\xb0\\xd0\\xbd\\xd1\\x8f\\xd1\\x82\\xd0\\xb8\\xd0\\xb5/Bonds.sol\":4135:4158  bondHolders[msg.sender] */\n      0xffffffffffffffffffffffffffffffffffffffff\n      and\n      0xffffffffffffffffffffffffffffffffffffffff\n      and\n      dup2\n      mstore\n      0x20\n      add\n      swap1\n      dup2\n      mstore\n      0x20\n      add\n      0x00\n      keccak256\n      0x00\n        /* \"7 \\xd0\\xb7\\xd0\\xb0\\xd0\\xbd\\xd1\\x8f\\xd1\\x82\\xd0\\xb8\\xd0\\xb5/Bonds.sol\":4135:4168  bondHolders[msg.sender] += amount */\n      dup3\n      dup3\n      sload\n      tag_132\n      swap2\n      swap1\n      tag_109\n      jump\t// in\n    tag_132:\n      swap3\n      pop\n      pop\n      dup2\n      swap1\n      sstore\n      pop\n        /* \"7 \\xd0\\xb7\\xd0\\xb0\\xd0\\xbd\\xd1\\x8f\\xd1\\x82\\xd0\\xb8\\xd0\\xb5/Bonds.sol\":4193:4199  amount */\n      dup1\n        /* \"7 \\xd0\\xb7\\xd0\\xb0\\xd0\\xbd\\xd1\\x8f\\xd1\\x82\\xd0\\xb8\\xd0\\xb5/Bonds.sol\":4179:4189  totalBonds */\n      0x01\n      0x00\n        /* \"7 \\xd0\\xb7\\xd0\\xb0\\xd0\\xbd\\xd1\\x8f\\xd1\\x82\\xd0\\xb8\\xd0\\xb5/Bonds.sol\":4179:4199  totalBonds -= amount */\n      dup3\n      dup3\n      sload\n      tag_133\n      swap2\n      swap1\n      tag_103\n      jump\t// in\n    tag_133:\n      swap3\n      pop\n      pop\n      dup2\n      swap1\n      sstore\n      pop\n        /* \"7 \\xd0\\xb7\\xd0\\xb0\\xd0\\xbd\\xd1\\x8f\\xd1\\x82\\xd0\\xb8\\xd0\\xb5/Bonds.sol\":4227:4236  msg.value */\n      callvalue\n        /* \"7 \\xd0\\xb7\\xd0\\xb0\\xd0\\xbd\\xd1\\x8f\\xd1\\x82\\xd0\\xb8\\xd0\\xb5/Bonds.sol\":4210:4223  totalInvested */\n      0x06\n      0x00\n        /* \"7 \\xd0\\xb7\\xd0\\xb0\\xd0\\xbd\\xd1\\x8f\\xd1\\x82\\xd0\\xb8\\xd0\\xb5/Bonds.sol\":4210:4236  totalInvested += msg.value */\n      dup3\n      dup3\n      sload\n      tag_134\n      swap2\n      swap1\n      tag_109\n      jump\t// in\n    tag_134:\n      swap3\n      pop\n      pop\n      dup2\n      swap1\n      sstore\n      pop\n        /* \"7 \\xd0\\xb7\\xd0\\xb0\\xd0\\xbd\\xd1\\x8f\\xd1\\x82\\xd0\\xb8\\xd0\\xb5/Bonds.sol\":4269:4279  msg.sender */\n      caller\n        /* \"7 \\xd0\\xb7\\xd0\\xb0\\xd0\\xbd\\xd1\\x8f\\xd1\\x82\\xd0\\xb8\\xd0\\xb5/Bonds.sol\":4254:4288  BondsPurchased(msg.sender, amount) */\n      0xffffffffffffffffffffffffffffffffffffffff\n      and\n      0x72e04af5dfda760cfed5e6556215ddc010133900aa0b75cefa0883038f37eae2\n        /* \"7 \\xd0\\xb7\\xd0\\xb0\\xd0\\xbd\\xd1\\x8f\\xd1\\x82\\xd0\\xb8\\xd0\\xb5/Bonds.sol\":4281:4287  amount */\n      dup3\n        /* \"7 \\xd0\\xb7\\xd0\\xb0\\xd0\\xbd\\xd1\\x8f\\xd1\\x82\\xd0\\xb8\\xd0\\xb5/Bonds.sol\":4254:4288  BondsPurchased(msg.sender, amount) */\n      mload(0x40)\n      tag_135\n      swap2\n      swap1\n      tag_44\n      jump\t// in\n    tag_135:\n      mload(0x40)\n      dup1\n      swap2\n      sub\n      swap1\n      log2\n        /* \"7 \\xd0\\xb7\\xd0\\xb0\\xd0\\xbd\\xd1\\x8f\\xd1\\x82\\xd0\\xb8\\xd0\\xb5/Bonds.sol\":3549:4296  {... */\n      pop\n        /* \"7 \\xd0\\xb7\\xd0\\xb0\\xd0\\xbd\\xd1\\x8f\\xd1\\x82\\xd0\\xb8\\xd0\\xb5/Bonds.sol\":3488:4296  function purchaseBonds() external payable onlyBeforeMaturity {... */\n      jump\t// out\n        /* \"7 \\xd0\\xb7\\xd0\\xb0\\xd0\\xbd\\xd1\\x8f\\xd1\\x82\\xd0\\xb8\\xd0\\xb5/Bonds.sol\":609:637  uint256 public totalInvested */\n    tag_42:\n      sload(0x06)\n      dup2\n      jump\t// out\n        /* \"7 \\xd0\\xb7\\xd0\\xb0\\xd0\\xbd\\xd1\\x8f\\xd1\\x82\\xd0\\xb8\\xd0\\xb5/Bonds.sol\":7937:8426  function withdrawRemainingFundsAfterOneMonth() external onlyIssuer {... */\n    tag_47:\n        /* \"7 \\xd0\\xb7\\xd0\\xb0\\xd0\\xbd\\xd1\\x8f\\xd1\\x82\\xd0\\xb8\\xd0\\xb5/Bonds.sol\":1780:1786  issuer */\n      0x00\n      dup1\n      sload\n      swap1\n      0x0100\n      exp\n      swap1\n      div\n      0xffffffffffffffffffffffffffffffffffffffff\n      and\n        /* \"7 \\xd0\\xb7\\xd0\\xb0\\xd0\\xbd\\xd1\\x8f\\xd1\\x82\\xd0\\xb8\\xd0\\xb5/Bonds.sol\":1766:1786  msg.sender == issuer */\n      0xffffffffffffffffffffffffffffffffffffffff\n      and\n        /* \"7 \\xd0\\xb7\\xd0\\xb0\\xd0\\xbd\\xd1\\x8f\\xd1\\x82\\xd0\\xb8\\xd0\\xb5/Bonds.sol\":1766:1776  msg.sender */\n      caller\n        /* \"7 \\xd0\\xb7\\xd0\\xb0\\xd0\\xbd\\xd1\\x8f\\xd1\\x82\\xd0\\xb8\\xd0\\xb5/Bonds.sol\":1766:1786  msg.sender == issuer */\n      0xffffffffffffffffffffffffffffffffffffffff\n      and\n      eq\n        /* \"7 \\xd0\\xb7\\xd0\\xb0\\xd0\\xbd\\xd1\\x8f\\xd1\\x82\\xd0\\xb8\\xd0\\xb5/Bonds.sol\":1758:1826  require(msg.sender == issuer, \"Only issuer can call this function.\") */\n      tag_137\n      jumpi\n      mload(0x40)\n      0x08c379a000000000000000000000000000000000000000000000000000000000\n      dup2\n      mstore\n      0x04\n      add\n      tag_138\n      swap1\n      tag_91\n      jump\t// in\n    tag_138:\n      mload(0x40)\n      dup1\n      swap2\n      sub\n      swap1\n      revert\n    tag_137:\n        /* \"7 \\xd0\\xb7\\xd0\\xb0\\xd0\\xbd\\xd1\\x8f\\xd1\\x82\\xd0\\xb8\\xd0\\xb5/Bonds.sol\":8046:8058  maturityDate */\n      sload(0x05)\n        /* \"7 \\xd0\\xb7\\xd0\\xb0\\xd0\\xbd\\xd1\\x8f\\xd1\\x82\\xd0\\xb8\\xd0\\xb5/Bonds.sol\":8027:8042  block.timestamp */\n      timestamp\n        /* \"7 \\xd0\\xb7\\xd0\\xb0\\xd0\\xbd\\xd1\\x8f\\xd1\\x82\\xd0\\xb8\\xd0\\xb5/Bonds.sol\":8027:8058  block.timestamp >= maturityDate */\n      lt\n      iszero\n        /* \"7 \\xd0\\xb7\\xd0\\xb0\\xd0\\xbd\\xd1\\x8f\\xd1\\x82\\xd0\\xb8\\xd0\\xb5/Bonds.sol\":8019:8102  require(block.timestamp >= maturityDate, \"Bond redemption period has not started.\") */\n      tag_140\n      jumpi\n      mload(0x40)\n      0x08c379a000000000000000000000000000000000000000000000000000000000\n      dup2\n      mstore\n      0x04\n      add\n      tag_141\n      swap1\n      tag_142\n      jump\t// in\n    tag_141:\n      mload(0x40)\n      dup1\n      swap2\n      sub\n      swap1\n      revert\n    tag_140:\n        /* \"7 \\xd0\\xb7\\xd0\\xb0\\xd0\\xbd\\xd1\\x8f\\xd1\\x82\\xd0\\xb8\\xd0\\xb5/Bonds.sol\":8159:8166  30 days */\n      0x278d00\n        /* \"7 \\xd0\\xb7\\xd0\\xb0\\xd0\\xbd\\xd1\\x8f\\xd1\\x82\\xd0\\xb8\\xd0\\xb5/Bonds.sol\":8144:8156  maturityDate */\n      sload(0x05)\n        /* \"7 \\xd0\\xb7\\xd0\\xb0\\xd0\\xbd\\xd1\\x8f\\xd1\\x82\\xd0\\xb8\\xd0\\xb5/Bonds.sol\":8144:8166  maturityDate + 30 days */\n      tag_143\n      swap2\n      swap1\n      tag_109\n      jump\t// in\n    tag_143:\n        /* \"7 \\xd0\\xb7\\xd0\\xb0\\xd0\\xbd\\xd1\\x8f\\xd1\\x82\\xd0\\xb8\\xd0\\xb5/Bonds.sol\":8125:8140  block.timestamp */\n      timestamp\n        /* \"7 \\xd0\\xb7\\xd0\\xb0\\xd0\\xbd\\xd1\\x8f\\xd1\\x82\\xd0\\xb8\\xd0\\xb5/Bonds.sol\":8125:8166  block.timestamp >= maturityDate + 30 days */\n      lt\n      iszero\n        /* \"7 \\xd0\\xb7\\xd0\\xb0\\xd0\\xbd\\xd1\\x8f\\xd1\\x82\\xd0\\xb8\\xd0\\xb5/Bonds.sol\":8117:8211  require(block.timestamp >= maturityDate + 30 days, \"One month has not passed since maturity.\") */\n      tag_144\n      jumpi\n      mload(0x40)\n      0x08c379a000000000000000000000000000000000000000000000000000000000\n      dup2\n      mstore\n      0x04\n      add\n      tag_145\n      swap1\n      tag_146\n      jump\t// in\n    tag_145:\n      mload(0x40)\n      dup1\n      swap2\n      sub\n      swap1\n      revert\n    tag_144:\n        /* \"7 \\xd0\\xb7\\xd0\\xb0\\xd0\\xbd\\xd1\\x8f\\xd1\\x82\\xd0\\xb8\\xd0\\xb5/Bonds.sol\":8228:8252  uint256 remainingBalance */\n      0x00\n        /* \"7 \\xd0\\xb7\\xd0\\xb0\\xd0\\xbd\\xd1\\x8f\\xd1\\x82\\xd0\\xb8\\xd0\\xb5/Bonds.sol\":8255:8276  address(this).balance */\n      selfbalance\n        /* \"7 \\xd0\\xb7\\xd0\\xb0\\xd0\\xbd\\xd1\\x8f\\xd1\\x82\\xd0\\xb8\\xd0\\xb5/Bonds.sol\":8228:8276  uint256 remainingBalance = address(this).balance */\n      swap1\n      pop\n        /* \"7 \\xd0\\xb7\\xd0\\xb0\\xd0\\xbd\\xd1\\x8f\\xd1\\x82\\xd0\\xb8\\xd0\\xb5/Bonds.sol\":8318:8319  0 */\n      0x00\n        /* \"7 \\xd0\\xb7\\xd0\\xb0\\xd0\\xbd\\xd1\\x8f\\xd1\\x82\\xd0\\xb8\\xd0\\xb5/Bonds.sol\":8299:8315  remainingBalance */\n      dup2\n        /* \"7 \\xd0\\xb7\\xd0\\xb0\\xd0\\xbd\\xd1\\x8f\\xd1\\x82\\xd0\\xb8\\xd0\\xb5/Bonds.sol\":8299:8319  remainingBalance > 0 */\n      gt\n        /* \"7 \\xd0\\xb7\\xd0\\xb0\\xd0\\xbd\\xd1\\x8f\\xd1\\x82\\xd0\\xb8\\xd0\\xb5/Bonds.sol\":8291:8355  require(remainingBalance > 0, \"Insufficient funds to withdraw.\") */\n      tag_147\n      jumpi\n      mload(0x40)\n      0x08c379a000000000000000000000000000000000000000000000000000000000\n      dup2\n      mstore\n      0x04\n      add\n      tag_148\n      swap1\n      tag_149\n      jump\t// in\n    tag_148:\n      mload(0x40)\n      dup1\n      swap2\n      sub\n      swap1\n      revert\n    tag_147:\n        /* \"7 \\xd0\\xb7\\xd0\\xb0\\xd0\\xbd\\xd1\\x8f\\xd1\\x82\\xd0\\xb8\\xd0\\xb5/Bonds.sol\":8380:8386  issuer */\n      0x00\n      dup1\n      sload\n      swap1\n      0x0100\n      exp\n      swap1\n      div\n      0xffffffffffffffffffffffffffffffffffffffff\n      and\n        /* \"7 \\xd0\\xb7\\xd0\\xb0\\xd0\\xbd\\xd1\\x8f\\xd1\\x82\\xd0\\xb8\\xd0\\xb5/Bonds.sol\":8372:8396  payable(issuer).transfer */\n      0xffffffffffffffffffffffffffffffffffffffff\n      and\n        /* \"7 \\xd0\\xb7\\xd0\\xb0\\xd0\\xbd\\xd1\\x8f\\xd1\\x82\\xd0\\xb8\\xd0\\xb5/Bonds.sol\":8372:8414  payable(issuer).transfer(remainingBalance) */\n      0x08fc\n        /* \"7 \\xd0\\xb7\\xd0\\xb0\\xd0\\xbd\\xd1\\x8f\\xd1\\x82\\xd0\\xb8\\xd0\\xb5/Bonds.sol\":8397:8413  remainingBalance */\n      dup3\n        /* \"7 \\xd0\\xb7\\xd0\\xb0\\xd0\\xbd\\xd1\\x8f\\xd1\\x82\\xd0\\xb8\\xd0\\xb5/Bonds.sol\":8372:8414  payable(issuer).transfer(remainingBalance) */\n      swap1\n      dup2\n      iszero\n      mul\n      swap1\n      mload(0x40)\n      0x00\n      mload(0x40)\n      dup1\n      dup4\n      sub\n      dup2\n      dup6\n      dup9\n      dup9\n      call\n      swap4\n      pop\n      pop\n      pop\n      pop\n      iszero\n      dup1\n      iszero\n      tag_151\n      jumpi\n      returndatasize\n      0x00\n      dup1\n      returndatacopy\n      revert(0x00, returndatasize)\n    tag_151:\n      pop\n        /* \"7 \\xd0\\xb7\\xd0\\xb0\\xd0\\xbd\\xd1\\x8f\\xd1\\x82\\xd0\\xb8\\xd0\\xb5/Bonds.sol\":8004:8426  {... */\n      pop\n        /* \"7 \\xd0\\xb7\\xd0\\xb0\\xd0\\xbd\\xd1\\x8f\\xd1\\x82\\xd0\\xb8\\xd0\\xb5/Bonds.sol\":7937:8426  function withdrawRemainingFundsAfterOneMonth() external onlyIssuer {... */\n      jump\t// out\n        /* \"7 \\xd0\\xb7\\xd0\\xb0\\xd0\\xbd\\xd1\\x8f\\xd1\\x82\\xd0\\xb8\\xd0\\xb5/Bonds.sol\":375:402  uint256 public interestRate */\n    tag_50:\n      sload(0x03)\n      dup2\n      jump\t// out\n        /* \"7 \\xd0\\xb7\\xd0\\xb0\\xd0\\xbd\\xd1\\x8f\\xd1\\x82\\xd0\\xb8\\xd0\\xb5/Bonds.sol\":2522:3340  function issueBonds(uint256 _totalBonds, uint256 _bondPrice, uint256 _interestRate, uint256 _maturityDate) external onlyIssuer {... */\n    tag_56:\n        /* \"7 \\xd0\\xb7\\xd0\\xb0\\xd0\\xbd\\xd1\\x8f\\xd1\\x82\\xd0\\xb8\\xd0\\xb5/Bonds.sol\":1780:1786  issuer */\n      0x00\n      dup1\n      sload\n      swap1\n      0x0100\n      exp\n      swap1\n      div\n      0xffffffffffffffffffffffffffffffffffffffff\n      and\n        /* \"7 \\xd0\\xb7\\xd0\\xb0\\xd0\\xbd\\xd1\\x8f\\xd1\\x82\\xd0\\xb8\\xd0\\xb5/Bonds.sol\":1766:1786  msg.sender == issuer */\n      0xffffffffffffffffffffffffffffffffffffffff\n      and\n        /* \"7 \\xd0\\xb7\\xd0\\xb0\\xd0\\xbd\\xd1\\x8f\\xd1\\x82\\xd0\\xb8\\xd0\\xb5/Bonds.sol\":1766:1776  msg.sender */\n      caller\n        /* \"7 \\xd0\\xb7\\xd0\\xb0\\xd0\\xbd\\xd1\\x8f\\xd1\\x82\\xd0\\xb8\\xd0\\xb5/Bonds.sol\":1766:1786  msg.sender == issuer */\n      0xffffffffffffffffffffffffffffffffffffffff\n      and\n      eq\n        /* \"7 \\xd0\\xb7\\xd0\\xb0\\xd0\\xbd\\xd1\\x8f\\xd1\\x82\\xd0\\xb8\\xd0\\xb5/Bonds.sol\":1758:1826  require(msg.sender == issuer, \"Only issuer can call this function.\") */\n      tag_153\n      jumpi\n      mload(0x40)\n      0x08c379a000000000000000000000000000000000000000000000000000000000\n      dup2\n      mstore\n      0x04\n      add\n      tag_154\n      swap1\n      tag_91\n      jump\t// in\n    tag_154:\n      mload(0x40)\n      dup1\n      swap2\n      sub\n      swap1\n      revert\n    tag_153:\n        /* \"7 \\xd0\\xb7\\xd0\\xb0\\xd0\\xbd\\xd1\\x8f\\xd1\\x82\\xd0\\xb8\\xd0\\xb5/Bonds.sol\":2669:2677  isIssued */\n      0x07\n      0x00\n      swap1\n      sload\n      swap1\n      0x0100\n      exp\n      swap1\n      div\n      0xff\n      and\n        /* \"7 \\xd0\\xb7\\xd0\\xb0\\xd0\\xbd\\xd1\\x8f\\xd1\\x82\\xd0\\xb8\\xd0\\xb5/Bonds.sol\":2668:2677  !isIssued */\n      iszero\n        /* \"7 \\xd0\\xb7\\xd0\\xb0\\xd0\\xbd\\xd1\\x8f\\xd1\\x82\\xd0\\xb8\\xd0\\xb5/Bonds.sol\":2660:2703  require(!isIssued, \"Bonds already issued.\") */\n      tag_156\n      jumpi\n      mload(0x40)\n      0x08c379a000000000000000000000000000000000000000000000000000000000\n      dup2\n      mstore\n      0x04\n      add\n      tag_157\n      swap1\n      tag_158\n      jump\t// in\n    tag_157:\n      mload(0x40)\n      dup1\n      swap2\n      sub\n      swap1\n      revert\n    tag_156:\n        /* \"7 \\xd0\\xb7\\xd0\\xb0\\xd0\\xbd\\xd1\\x8f\\xd1\\x82\\xd0\\xb8\\xd0\\xb5/Bonds.sol\":2736:2737  0 */\n      0x00\n        /* \"7 \\xd0\\xb7\\xd0\\xb0\\xd0\\xbd\\xd1\\x8f\\xd1\\x82\\xd0\\xb8\\xd0\\xb5/Bonds.sol\":2722:2733  _totalBonds */\n      dup5\n        /* \"7 \\xd0\\xb7\\xd0\\xb0\\xd0\\xbd\\xd1\\x8f\\xd1\\x82\\xd0\\xb8\\xd0\\xb5/Bonds.sol\":2722:2737  _totalBonds > 0 */\n      gt\n        /* \"7 \\xd0\\xb7\\xd0\\xb0\\xd0\\xbd\\xd1\\x8f\\xd1\\x82\\xd0\\xb8\\xd0\\xb5/Bonds.sol\":2714:2780  require(_totalBonds > 0, \"Total bonds must be greater than zero.\") */\n      tag_159\n      jumpi\n      mload(0x40)\n      0x08c379a000000000000000000000000000000000000000000000000000000000\n      dup2\n      mstore\n      0x04\n      add\n      tag_160\n      swap1\n      tag_161\n      jump\t// in\n    tag_160:\n      mload(0x40)\n      dup1\n      swap2\n      sub\n      swap1\n      revert\n    tag_159:\n        /* \"7 \\xd0\\xb7\\xd0\\xb0\\xd0\\xbd\\xd1\\x8f\\xd1\\x82\\xd0\\xb8\\xd0\\xb5/Bonds.sol\":2812:2813  0 */\n      0x00\n        /* \"7 \\xd0\\xb7\\xd0\\xb0\\xd0\\xbd\\xd1\\x8f\\xd1\\x82\\xd0\\xb8\\xd0\\xb5/Bonds.sol\":2799:2809  _bondPrice */\n      dup4\n        /* \"7 \\xd0\\xb7\\xd0\\xb0\\xd0\\xbd\\xd1\\x8f\\xd1\\x82\\xd0\\xb8\\xd0\\xb5/Bonds.sol\":2799:2813  _bondPrice > 0 */\n      gt\n        /* \"7 \\xd0\\xb7\\xd0\\xb0\\xd0\\xbd\\xd1\\x8f\\xd1\\x82\\xd0\\xb8\\xd0\\xb5/Bonds.sol\":2791:2855  require(_bondPrice > 0, \"Bond price must be greater than zero.\") */\n      tag_162\n      jumpi\n      mload(0x40)\n      0x08c379a000000000000000000000000000000000000000000000000000000000\n      dup2\n      mstore\n      0x04\n      add\n      tag_163\n      swap1\n      tag_164\n      jump\t// in\n    tag_163:\n      mload(0x40)\n      dup1\n      swap2\n      sub\n      swap1\n      revert\n    tag_162:\n        /* \"7 \\xd0\\xb7\\xd0\\xb0\\xd0\\xbd\\xd1\\x8f\\xd1\\x82\\xd0\\xb8\\xd0\\xb5/Bonds.sol\":2890:2891  0 */\n      0x00\n        /* \"7 \\xd0\\xb7\\xd0\\xb0\\xd0\\xbd\\xd1\\x8f\\xd1\\x82\\xd0\\xb8\\xd0\\xb5/Bonds.sol\":2874:2887  _interestRate */\n      dup3\n        /* \"7 \\xd0\\xb7\\xd0\\xb0\\xd0\\xbd\\xd1\\x8f\\xd1\\x82\\xd0\\xb8\\xd0\\xb5/Bonds.sol\":2874:2891  _interestRate > 0 */\n      gt\n        /* \"7 \\xd0\\xb7\\xd0\\xb0\\xd0\\xbd\\xd1\\x8f\\xd1\\x82\\xd0\\xb8\\xd0\\xb5/Bonds.sol\":2866:2936  require(_interestRate > 0, \"Interest rate must be greater than zero.\") */\n      tag_165\n      jumpi\n      mload(0x40)\n      0x08c379a000000000000000000000000000000000000000000000000000000000\n      dup2\n      mstore\n      0x04\n      add\n      tag_166\n      swap1\n      tag_167\n      jump\t// in\n    tag_166:\n      mload(0x40)\n      dup1\n      swap2\n      sub\n      swap1\n      revert\n    tag_165:\n        /* \"7 \\xd0\\xb7\\xd0\\xb0\\xd0\\xbd\\xd1\\x8f\\xd1\\x82\\xd0\\xb8\\xd0\\xb5/Bonds.sol\":2971:2986  block.timestamp */\n      timestamp\n        /* \"7 \\xd0\\xb7\\xd0\\xb0\\xd0\\xbd\\xd1\\x8f\\xd1\\x82\\xd0\\xb8\\xd0\\xb5/Bonds.sol\":2955:2968  _maturityDate */\n      dup2\n        /* \"7 \\xd0\\xb7\\xd0\\xb0\\xd0\\xbd\\xd1\\x8f\\xd1\\x82\\xd0\\xb8\\xd0\\xb5/Bonds.sol\":2955:2986  _maturityDate > block.timestamp */\n      gt\n        /* \"7 \\xd0\\xb7\\xd0\\xb0\\xd0\\xbd\\xd1\\x8f\\xd1\\x82\\xd0\\xb8\\xd0\\xb5/Bonds.sol\":2947:3027  require(_maturityDate > block.timestamp, \"Maturity date must be in the future.\") */\n      tag_168\n      jumpi\n      mload(0x40)\n      0x08c379a000000000000000000000000000000000000000000000000000000000\n      dup2\n      mstore\n      0x04\n      add\n      tag_169\n      swap1\n      tag_170\n      jump\t// in\n    tag_169:\n      mload(0x40)\n      dup1\n      swap2\n      sub\n      swap1\n      revert\n    tag_168:\n        /* \"7 \\xd0\\xb7\\xd0\\xb0\\xd0\\xbd\\xd1\\x8f\\xd1\\x82\\xd0\\xb8\\xd0\\xb5/Bonds.sol\":3053:3064  _totalBonds */\n      dup4\n        /* \"7 \\xd0\\xb7\\xd0\\xb0\\xd0\\xbd\\xd1\\x8f\\xd1\\x82\\xd0\\xb8\\xd0\\xb5/Bonds.sol\":3040:3050  totalBonds */\n      0x01\n        /* \"7 \\xd0\\xb7\\xd0\\xb0\\xd0\\xbd\\xd1\\x8f\\xd1\\x82\\xd0\\xb8\\xd0\\xb5/Bonds.sol\":3040:3064  totalBonds = _totalBonds */\n      dup2\n      swap1\n      sstore\n      pop\n        /* \"7 \\xd0\\xb7\\xd0\\xb0\\xd0\\xbd\\xd1\\x8f\\xd1\\x82\\xd0\\xb8\\xd0\\xb5/Bonds.sol\":3100:3107  1 ether */\n      0x0de0b6b3a7640000\n        /* \"7 \\xd0\\xb7\\xd0\\xb0\\xd0\\xbd\\xd1\\x8f\\xd1\\x82\\xd0\\xb8\\xd0\\xb5/Bonds.sol\":3087:3097  _bondPrice */\n      dup4\n        /* \"7 \\xd0\\xb7\\xd0\\xb0\\xd0\\xbd\\xd1\\x8f\\xd1\\x82\\xd0\\xb8\\xd0\\xb5/Bonds.sol\":3087:3107  _bondPrice * 1 ether */\n      tag_171\n      swap2\n      swap1\n      tag_101\n      jump\t// in\n    tag_171:\n        /* \"7 \\xd0\\xb7\\xd0\\xb0\\xd0\\xbd\\xd1\\x8f\\xd1\\x82\\xd0\\xb8\\xd0\\xb5/Bonds.sol\":3075:3084  bondPrice */\n      0x02\n        /* \"7 \\xd0\\xb7\\xd0\\xb0\\xd0\\xbd\\xd1\\x8f\\xd1\\x82\\xd0\\xb8\\xd0\\xb5/Bonds.sol\":3075:3107  bondPrice = _bondPrice * 1 ether */\n      dup2\n      swap1\n      sstore\n      pop\n        /* \"7 \\xd0\\xb7\\xd0\\xb0\\xd0\\xbd\\xd1\\x8f\\xd1\\x82\\xd0\\xb8\\xd0\\xb5/Bonds.sol\":3133:3146  _interestRate */\n      dup2\n        /* \"7 \\xd0\\xb7\\xd0\\xb0\\xd0\\xbd\\xd1\\x8f\\xd1\\x82\\xd0\\xb8\\xd0\\xb5/Bonds.sol\":3118:3130  interestRate */\n      0x03\n        /* \"7 \\xd0\\xb7\\xd0\\xb0\\xd0\\xbd\\xd1\\x8f\\xd1\\x82\\xd0\\xb8\\xd0\\xb5/Bonds.sol\":3118:3146  interestRate = _interestRate */\n      dup2\n      swap1\n      sstore\n      pop\n        /* \"7 \\xd0\\xb7\\xd0\\xb0\\xd0\\xbd\\xd1\\x8f\\xd1\\x82\\xd0\\xb8\\xd0\\xb5/Bonds.sol\":3172:3185  _maturityDate */\n      dup1\n        /* \"7 \\xd0\\xb7\\xd0\\xb0\\xd0\\xbd\\xd1\\x8f\\xd1\\x82\\xd0\\xb8\\xd0\\xb5/Bonds.sol\":3157:3169  maturityDate */\n      0x05\n        /* \"7 \\xd0\\xb7\\xd0\\xb0\\xd0\\xbd\\xd1\\x8f\\xd1\\x82\\xd0\\xb8\\xd0\\xb5/Bonds.sol\":3157:3185  maturityDate = _maturityDate */\n      dup2\n      swap1\n      sstore\n      pop\n        /* \"7 \\xd0\\xb7\\xd0\\xb0\\xd0\\xbd\\xd1\\x8f\\xd1\\x82\\xd0\\xb8\\xd0\\xb5/Bonds.sol\":3211:3226  block.timestamp */\n      timestamp\n        /* \"7 \\xd0\\xb7\\xd0\\xb0\\xd0\\xbd\\xd1\\x8f\\xd1\\x82\\xd0\\xb8\\xd0\\xb5/Bonds.sol\":3196:3208  issuanceDate */\n      0x04\n        /* \"7 \\xd0\\xb7\\xd0\\xb0\\xd0\\xbd\\xd1\\x8f\\xd1\\x82\\xd0\\xb8\\xd0\\xb5/Bonds.sol\":3196:3226  issuanceDate = block.timestamp */\n      dup2\n      swap1\n      sstore\n      pop\n        /* \"7 \\xd0\\xb7\\xd0\\xb0\\xd0\\xbd\\xd1\\x8f\\xd1\\x82\\xd0\\xb8\\xd0\\xb5/Bonds.sol\":3248:3252  true */\n      0x01\n        /* \"7 \\xd0\\xb7\\xd0\\xb0\\xd0\\xbd\\xd1\\x8f\\xd1\\x82\\xd0\\xb8\\xd0\\xb5/Bonds.sol\":3237:3245  isIssued */\n      0x07\n      0x00\n        /* \"7 \\xd0\\xb7\\xd0\\xb0\\xd0\\xbd\\xd1\\x8f\\xd1\\x82\\xd0\\xb8\\xd0\\xb5/Bonds.sol\":3237:3252  isIssued = true */\n      0x0100\n      exp\n      dup2\n      sload\n      dup2\n      0xff\n      mul\n      not\n      and\n      swap1\n      dup4\n      iszero\n      iszero\n      mul\n      or\n      swap1\n      sstore\n      pop\n        /* \"7 \\xd0\\xb7\\xd0\\xb0\\xd0\\xbd\\xd1\\x8f\\xd1\\x82\\xd0\\xb8\\xd0\\xb5/Bonds.sol\":3270:3332  BondsIssued(totalBonds, bondPrice, interestRate, maturityDate) */\n      0xc4ede3fcf855dc4685871bc70cbff3b97f484d31f715ab9a3ac2d7b14776e2c6\n        /* \"7 \\xd0\\xb7\\xd0\\xb0\\xd0\\xbd\\xd1\\x8f\\xd1\\x82\\xd0\\xb8\\xd0\\xb5/Bonds.sol\":3282:3292  totalBonds */\n      sload(0x01)\n        /* \"7 \\xd0\\xb7\\xd0\\xb0\\xd0\\xbd\\xd1\\x8f\\xd1\\x82\\xd0\\xb8\\xd0\\xb5/Bonds.sol\":3294:3303  bondPrice */\n      sload(0x02)\n        /* \"7 \\xd0\\xb7\\xd0\\xb0\\xd0\\xbd\\xd1\\x8f\\xd1\\x82\\xd0\\xb8\\xd0\\xb5/Bonds.sol\":3305:3317  interestRate */\n      sload(0x03)\n        /* \"7 \\xd0\\xb7\\xd0\\xb0\\xd0\\xbd\\xd1\\x8f\\xd1\\x82\\xd0\\xb8\\xd0\\xb5/Bonds.sol\":3319:3331  maturityDate */\n      sload(0x05)\n        /* \"7 \\xd0\\xb7\\xd0\\xb0\\xd0\\xbd\\xd1\\x8f\\xd1\\x82\\xd0\\xb8\\xd0\\xb5/Bonds.sol\":3270:3332  BondsIssued(totalBonds, bondPrice, interestRate, maturityDate) */\n      mload(0x40)\n      tag_172\n      swap5\n      swap4\n      swap3\n      swap2\n      swap1\n      tag_173\n      jump\t// in\n    tag_172:\n      mload(0x40)\n      dup1\n      swap2\n      sub\n      swap1\n      log1\n        /* \"7 \\xd0\\xb7\\xd0\\xb0\\xd0\\xbd\\xd1\\x8f\\xd1\\x82\\xd0\\xb8\\xd0\\xb5/Bonds.sol\":2522:3340  function issueBonds(uint256 _totalBonds, uint256 _bondPrice, uint256 _interestRate, uint256 _maturityDate) external onlyIssuer {... */\n      pop\n      pop\n      pop\n      pop\n      jump\t// out\n        /* \"7 \\xd0\\xb7\\xd0\\xb0\\xd0\\xbd\\xd1\\x8f\\xd1\\x82\\xd0\\xb8\\xd0\\xb5/Bonds.sol\":446:473  uint256 public issuanceDate */\n    tag_59:\n      sload(0x04)\n      dup2\n      jump\t// out\n        /* \"7 \\xd0\\xb7\\xd0\\xb0\\xd0\\xbd\\xd1\\x8f\\xd1\\x82\\xd0\\xb8\\xd0\\xb5/Bonds.sol\":4480:5176  function calculateTotalPayout() public view onlyIssuer returns (uint256 totalPayout) {... */\n    tag_63:\n        /* \"7 \\xd0\\xb7\\xd0\\xb0\\xd0\\xbd\\xd1\\x8f\\xd1\\x82\\xd0\\xb8\\xd0\\xb5/Bonds.sol\":4544:4563  uint256 totalPayout */\n      0x00\n        /* \"7 \\xd0\\xb7\\xd0\\xb0\\xd0\\xbd\\xd1\\x8f\\xd1\\x82\\xd0\\xb8\\xd0\\xb5/Bonds.sol\":1780:1786  issuer */\n      dup1\n      0x00\n      swap1\n      sload\n      swap1\n      0x0100\n      exp\n      swap1\n      div\n      0xffffffffffffffffffffffffffffffffffffffff\n      and\n        /* \"7 \\xd0\\xb7\\xd0\\xb0\\xd0\\xbd\\xd1\\x8f\\xd1\\x82\\xd0\\xb8\\xd0\\xb5/Bonds.sol\":1766:1786  msg.sender == issuer */\n      0xffffffffffffffffffffffffffffffffffffffff\n      and\n        /* \"7 \\xd0\\xb7\\xd0\\xb0\\xd0\\xbd\\xd1\\x8f\\xd1\\x82\\xd0\\xb8\\xd0\\xb5/Bonds.sol\":1766:1776  msg.sender */\n      caller\n        /* \"7 \\xd0\\xb7\\xd0\\xb0\\xd0\\xbd\\xd1\\x8f\\xd1\\x82\\xd0\\xb8\\xd0\\xb5/Bonds.sol\":1766:1786  msg.sender == issuer */\n      0xffffffffffffffffffffffffffffffffffffffff\n      and\n      eq\n        /* \"7 \\xd0\\xb7\\xd0\\xb0\\xd0\\xbd\\xd1\\x8f\\xd1\\x82\\xd0\\xb8\\xd0\\xb5/Bonds.sol\":1758:1826  require(msg.sender == issuer, \"Only issuer can call this function.\") */\n      tag_175\n      jumpi\n      mload(0x40)\n      0x08c379a000000000000000000000000000000000000000000000000000000000\n      dup2\n      mstore\n      0x04\n      add\n      tag_176\n      swap1\n      tag_91\n      jump\t// in\n    tag_176:\n      mload(0x40)\n      dup1\n      swap2\n      sub\n      swap1\n      revert\n    tag_175:\n        /* \"7 \\xd0\\xb7\\xd0\\xb0\\xd0\\xbd\\xd1\\x8f\\xd1\\x82\\xd0\\xb8\\xd0\\xb5/Bonds.sol\":4603:4615  maturityDate */\n      sload(0x05)\n        /* \"7 \\xd0\\xb7\\xd0\\xb0\\xd0\\xbd\\xd1\\x8f\\xd1\\x82\\xd0\\xb8\\xd0\\xb5/Bonds.sol\":4584:4599  block.timestamp */\n      timestamp\n        /* \"7 \\xd0\\xb7\\xd0\\xb0\\xd0\\xbd\\xd1\\x8f\\xd1\\x82\\xd0\\xb8\\xd0\\xb5/Bonds.sol\":4584:4615  block.timestamp >= maturityDate */\n      lt\n      iszero\n        /* \"7 \\xd0\\xb7\\xd0\\xb0\\xd0\\xbd\\xd1\\x8f\\xd1\\x82\\xd0\\xb8\\xd0\\xb5/Bonds.sol\":4576:4659  require(block.timestamp >= maturityDate, \"Bond redemption period has not started.\") */\n      tag_178\n      jumpi\n      mload(0x40)\n      0x08c379a000000000000000000000000000000000000000000000000000000000\n      dup2\n      mstore\n      0x04\n      add\n      tag_179\n      swap1\n      tag_142\n      jump\t// in\n    tag_179:\n      mload(0x40)\n      dup1\n      swap2\n      sub\n      swap1\n      revert\n    tag_178:\n        /* \"7 \\xd0\\xb7\\xd0\\xb0\\xd0\\xbd\\xd1\\x8f\\xd1\\x82\\xd0\\xb8\\xd0\\xb5/Bonds.sol\":4686:4687  0 */\n      0x00\n        /* \"7 \\xd0\\xb7\\xd0\\xb0\\xd0\\xbd\\xd1\\x8f\\xd1\\x82\\xd0\\xb8\\xd0\\xb5/Bonds.sol\":4672:4687  totalPayout = 0 */\n      swap1\n      pop\n        /* \"7 \\xd0\\xb7\\xd0\\xb0\\xd0\\xbd\\xd1\\x8f\\xd1\\x82\\xd0\\xb8\\xd0\\xb5/Bonds.sol\":4703:4712  uint256 i */\n      0x00\n        /* \"7 \\xd0\\xb7\\xd0\\xb0\\xd0\\xbd\\xd1\\x8f\\xd1\\x82\\xd0\\xb8\\xd0\\xb5/Bonds.sol\":4698:5169  for (uint256 i = 0; i < totalInvestors; i++) {... */\n    tag_180:\n        /* \"7 \\xd0\\xb7\\xd0\\xb0\\xd0\\xbd\\xd1\\x8f\\xd1\\x82\\xd0\\xb8\\xd0\\xb5/Bonds.sol\":4722:4736  totalInvestors */\n      sload(0x0b)\n        /* \"7 \\xd0\\xb7\\xd0\\xb0\\xd0\\xbd\\xd1\\x8f\\xd1\\x82\\xd0\\xb8\\xd0\\xb5/Bonds.sol\":4718:4719  i */\n      dup2\n        /* \"7 \\xd0\\xb7\\xd0\\xb0\\xd0\\xbd\\xd1\\x8f\\xd1\\x82\\xd0\\xb8\\xd0\\xb5/Bonds.sol\":4718:4736  i < totalInvestors */\n      lt\n        /* \"7 \\xd0\\xb7\\xd0\\xb0\\xd0\\xbd\\xd1\\x8f\\xd1\\x82\\xd0\\xb8\\xd0\\xb5/Bonds.sol\":4698:5169  for (uint256 i = 0; i < totalInvestors; i++) {... */\n      iszero\n      tag_181\n      jumpi\n        /* \"7 \\xd0\\xb7\\xd0\\xb0\\xd0\\xbd\\xd1\\x8f\\xd1\\x82\\xd0\\xb8\\xd0\\xb5/Bonds.sol\":4758:4774  address investor */\n      0x00\n        /* \"7 \\xd0\\xb7\\xd0\\xb0\\xd0\\xbd\\xd1\\x8f\\xd1\\x82\\xd0\\xb8\\xd0\\xb5/Bonds.sol\":4777:4786  investors */\n      0x0a\n        /* \"7 \\xd0\\xb7\\xd0\\xb0\\xd0\\xbd\\xd1\\x8f\\xd1\\x82\\xd0\\xb8\\xd0\\xb5/Bonds.sol\":4787:4788  i */\n      dup3\n        /* \"7 \\xd0\\xb7\\xd0\\xb0\\xd0\\xbd\\xd1\\x8f\\xd1\\x82\\xd0\\xb8\\xd0\\xb5/Bonds.sol\":4777:4789  investors[i] */\n      dup2\n      sload\n      dup2\n      lt\n      tag_183\n      jumpi\n      tag_184\n      tag_185\n      jump\t// in\n    tag_184:\n    tag_183:\n      swap1\n      0x00\n      mstore\n      keccak256(0x00, 0x20)\n      add\n      0x00\n      swap1\n      sload\n      swap1\n      0x0100\n      exp\n      swap1\n      div\n      0xffffffffffffffffffffffffffffffffffffffff\n      and\n        /* \"7 \\xd0\\xb7\\xd0\\xb0\\xd0\\xbd\\xd1\\x8f\\xd1\\x82\\xd0\\xb8\\xd0\\xb5/Bonds.sol\":4758:4789  address investor = investors[i] */\n      swap1\n      pop\n        /* \"7 \\xd0\\xb7\\xd0\\xb0\\xd0\\xbd\\xd1\\x8f\\xd1\\x82\\xd0\\xb8\\xd0\\xb5/Bonds.sol\":4804:4818  uint256 amount */\n      0x00\n        /* \"7 \\xd0\\xb7\\xd0\\xb0\\xd0\\xbd\\xd1\\x8f\\xd1\\x82\\xd0\\xb8\\xd0\\xb5/Bonds.sol\":4821:4832  bondHolders */\n      0x08\n        /* \"7 \\xd0\\xb7\\xd0\\xb0\\xd0\\xbd\\xd1\\x8f\\xd1\\x82\\xd0\\xb8\\xd0\\xb5/Bonds.sol\":4821:4842  bondHolders[investor] */\n      0x00\n        /* \"7 \\xd0\\xb7\\xd0\\xb0\\xd0\\xbd\\xd1\\x8f\\xd1\\x82\\xd0\\xb8\\xd0\\xb5/Bonds.sol\":4833:4841  investor */\n      dup4\n        /* \"7 \\xd0\\xb7\\xd0\\xb0\\xd0\\xbd\\xd1\\x8f\\xd1\\x82\\xd0\\xb8\\xd0\\xb5/Bonds.sol\":4821:4842  bondHolders[investor] */\n      0xffffffffffffffffffffffffffffffffffffffff\n      and\n      0xffffffffffffffffffffffffffffffffffffffff\n      and\n      dup2\n      mstore\n      0x20\n      add\n      swap1\n      dup2\n      mstore\n      0x20\n      add\n      0x00\n      keccak256\n      sload\n        /* \"7 \\xd0\\xb7\\xd0\\xb0\\xd0\\xbd\\xd1\\x8f\\xd1\\x82\\xd0\\xb8\\xd0\\xb5/Bonds.sol\":4804:4842  uint256 amount = bondHolders[investor] */\n      swap1\n      pop\n        /* \"7 \\xd0\\xb7\\xd0\\xb0\\xd0\\xbd\\xd1\\x8f\\xd1\\x82\\xd0\\xb8\\xd0\\xb5/Bonds.sol\":4870:4871  0 */\n      0x00\n        /* \"7 \\xd0\\xb7\\xd0\\xb0\\xd0\\xbd\\xd1\\x8f\\xd1\\x82\\xd0\\xb8\\xd0\\xb5/Bonds.sol\":4861:4867  amount */\n      dup2\n        /* \"7 \\xd0\\xb7\\xd0\\xb0\\xd0\\xbd\\xd1\\x8f\\xd1\\x82\\xd0\\xb8\\xd0\\xb5/Bonds.sol\":4861:4871  amount > 0 */\n      gt\n        /* \"7 \\xd0\\xb7\\xd0\\xb0\\xd0\\xbd\\xd1\\x8f\\xd1\\x82\\xd0\\xb8\\xd0\\xb5/Bonds.sol\":4857:5158  if (amount > 0) {... */\n      iszero\n      tag_187\n      jumpi\n        /* \"7 \\xd0\\xb7\\xd0\\xb0\\xd0\\xbd\\xd1\\x8f\\xd1\\x82\\xd0\\xb8\\xd0\\xb5/Bonds.sol\":4892:4911  uint256 totalAmount */\n      0x00\n        /* \"7 \\xd0\\xb7\\xd0\\xb0\\xd0\\xbd\\xd1\\x8f\\xd1\\x82\\xd0\\xb8\\xd0\\xb5/Bonds.sol\":4923:4932  bondPrice */\n      sload(0x02)\n        /* \"7 \\xd0\\xb7\\xd0\\xb0\\xd0\\xbd\\xd1\\x8f\\xd1\\x82\\xd0\\xb8\\xd0\\xb5/Bonds.sol\":4914:4920  amount */\n      dup3\n        /* \"7 \\xd0\\xb7\\xd0\\xb0\\xd0\\xbd\\xd1\\x8f\\xd1\\x82\\xd0\\xb8\\xd0\\xb5/Bonds.sol\":4914:4932  amount * bondPrice */\n      tag_188\n      swap2\n      swap1\n      tag_101\n      jump\t// in\n    tag_188:\n        /* \"7 \\xd0\\xb7\\xd0\\xb0\\xd0\\xbd\\xd1\\x8f\\xd1\\x82\\xd0\\xb8\\xd0\\xb5/Bonds.sol\":4892:4932  uint256 totalAmount = amount * bondPrice */\n      swap1\n      pop\n        /* \"7 \\xd0\\xb7\\xd0\\xb0\\xd0\\xbd\\xd1\\x8f\\xd1\\x82\\xd0\\xb8\\xd0\\xb5/Bonds.sol\":4951:4967  uint256 interest */\n      0x00\n        /* \"7 \\xd0\\xb7\\xd0\\xb0\\xd0\\xbd\\xd1\\x8f\\xd1\\x82\\xd0\\xb8\\xd0\\xb5/Bonds.sol\":5034:5046  1 days * 100 */\n      0x83d600\n        /* \"7 \\xd0\\xb7\\xd0\\xb0\\xd0\\xbd\\xd1\\x8f\\xd1\\x82\\xd0\\xb8\\xd0\\xb5/Bonds.sol\":5016:5028  issuanceDate */\n      sload(0x04)\n        /* \"7 \\xd0\\xb7\\xd0\\xb0\\xd0\\xbd\\xd1\\x8f\\xd1\\x82\\xd0\\xb8\\xd0\\xb5/Bonds.sol\":5001:5013  maturityDate */\n      sload(0x05)\n        /* \"7 \\xd0\\xb7\\xd0\\xb0\\xd0\\xbd\\xd1\\x8f\\xd1\\x82\\xd0\\xb8\\xd0\\xb5/Bonds.sol\":5001:5028  maturityDate - issuanceDate */\n      tag_189\n      swap2\n      swap1\n      tag_103\n      jump\t// in\n    tag_189:\n        /* \"7 \\xd0\\xb7\\xd0\\xb0\\xd0\\xbd\\xd1\\x8f\\xd1\\x82\\xd0\\xb8\\xd0\\xb5/Bonds.sol\":4985:4997  interestRate */\n      sload(0x03)\n        /* \"7 \\xd0\\xb7\\xd0\\xb0\\xd0\\xbd\\xd1\\x8f\\xd1\\x82\\xd0\\xb8\\xd0\\xb5/Bonds.sol\":4971:4982  totalAmount */\n      dup5\n        /* \"7 \\xd0\\xb7\\xd0\\xb0\\xd0\\xbd\\xd1\\x8f\\xd1\\x82\\xd0\\xb8\\xd0\\xb5/Bonds.sol\":4971:4997  totalAmount * interestRate */\n      tag_190\n      swap2\n      swap1\n      tag_101\n      jump\t// in\n    tag_190:\n        /* \"7 \\xd0\\xb7\\xd0\\xb0\\xd0\\xbd\\xd1\\x8f\\xd1\\x82\\xd0\\xb8\\xd0\\xb5/Bonds.sol\":4971:5029  totalAmount * interestRate * (maturityDate - issuanceDate) */\n      tag_191\n      swap2\n      swap1\n      tag_101\n      jump\t// in\n    tag_191:\n        /* \"7 \\xd0\\xb7\\xd0\\xb0\\xd0\\xbd\\xd1\\x8f\\xd1\\x82\\xd0\\xb8\\xd0\\xb5/Bonds.sol\":4970:5047  (totalAmount * interestRate * (maturityDate - issuanceDate)) / (1 days * 100) */\n      tag_192\n      swap2\n      swap1\n      tag_107\n      jump\t// in\n    tag_192:\n        /* \"7 \\xd0\\xb7\\xd0\\xb0\\xd0\\xbd\\xd1\\x8f\\xd1\\x82\\xd0\\xb8\\xd0\\xb5/Bonds.sol\":4951:5047  uint256 interest = (totalAmount * interestRate * (maturityDate - issuanceDate)) / (1 days * 100) */\n      swap1\n      pop\n        /* \"7 \\xd0\\xb7\\xd0\\xb0\\xd0\\xbd\\xd1\\x8f\\xd1\\x82\\xd0\\xb8\\xd0\\xb5/Bonds.sol\":5134:5142  interest */\n      dup1\n        /* \"7 \\xd0\\xb7\\xd0\\xb0\\xd0\\xbd\\xd1\\x8f\\xd1\\x82\\xd0\\xb8\\xd0\\xb5/Bonds.sol\":5120:5131  totalAmount */\n      dup3\n        /* \"7 \\xd0\\xb7\\xd0\\xb0\\xd0\\xbd\\xd1\\x8f\\xd1\\x82\\xd0\\xb8\\xd0\\xb5/Bonds.sol\":5120:5142  totalAmount + interest */\n      tag_193\n      swap2\n      swap1\n      tag_109\n      jump\t// in\n    tag_193:\n        /* \"7 \\xd0\\xb7\\xd0\\xb0\\xd0\\xbd\\xd1\\x8f\\xd1\\x82\\xd0\\xb8\\xd0\\xb5/Bonds.sol\":5105:5142  totalPayout += totalAmount + interest */\n      dup7\n      tag_194\n      swap2\n      swap1\n      tag_109\n      jump\t// in\n    tag_194:\n      swap6\n      pop\n        /* \"7 \\xd0\\xb7\\xd0\\xb0\\xd0\\xbd\\xd1\\x8f\\xd1\\x82\\xd0\\xb8\\xd0\\xb5/Bonds.sol\":4873:5158  {... */\n      pop\n      pop\n        /* \"7 \\xd0\\xb7\\xd0\\xb0\\xd0\\xbd\\xd1\\x8f\\xd1\\x82\\xd0\\xb8\\xd0\\xb5/Bonds.sol\":4857:5158  if (amount > 0) {... */\n    tag_187:\n        /* \"7 \\xd0\\xb7\\xd0\\xb0\\xd0\\xbd\\xd1\\x8f\\xd1\\x82\\xd0\\xb8\\xd0\\xb5/Bonds.sol\":4743:5169  {... */\n      pop\n      pop\n        /* \"7 \\xd0\\xb7\\xd0\\xb0\\xd0\\xbd\\xd1\\x8f\\xd1\\x82\\xd0\\xb8\\xd0\\xb5/Bonds.sol\":4738:4741  i++ */\n      dup1\n      dup1\n      0x01\n      add\n      swap2\n      pop\n      pop\n        /* \"7 \\xd0\\xb7\\xd0\\xb0\\xd0\\xbd\\xd1\\x8f\\xd1\\x82\\xd0\\xb8\\xd0\\xb5/Bonds.sol\":4698:5169  for (uint256 i = 0; i < totalInvestors; i++) {... */\n      jump(tag_180)\n    tag_181:\n      pop\n        /* \"7 \\xd0\\xb7\\xd0\\xb0\\xd0\\xbd\\xd1\\x8f\\xd1\\x82\\xd0\\xb8\\xd0\\xb5/Bonds.sol\":4480:5176  function calculateTotalPayout() public view onlyIssuer returns (uint256 totalPayout) {... */\n      swap1\n      jump\t// out\n        /* \"7 \\xd0\\xb7\\xd0\\xb0\\xd0\\xbd\\xd1\\x8f\\xd1\\x82\\xd0\\xb8\\xd0\\xb5/Bonds.sol\":679:699  bool public isIssued */\n    tag_67:\n      0x07\n      0x00\n      swap1\n      sload\n      swap1\n      0x0100\n      exp\n      swap1\n      div\n      0xff\n      and\n      dup2\n      jump\t// out\n        /* \"7 \\xd0\\xb7\\xd0\\xb0\\xd0\\xbd\\xd1\\x8f\\xd1\\x82\\xd0\\xb8\\xd0\\xb5/Bonds.sol\":526:553  uint256 public maturityDate */\n    tag_72:\n      sload(0x05)\n      dup2\n      jump\t// out\n        /* \"7 \\xd0\\xb7\\xd0\\xb0\\xd0\\xbd\\xd1\\x8f\\xd1\\x82\\xd0\\xb8\\xd0\\xb5/Bonds.sol\":292:316  uint256 public bondPrice */\n    tag_76:\n      sload(0x02)\n      dup2\n      jump\t// out\n        /* \"7 \\xd0\\xb7\\xd0\\xb0\\xd0\\xbd\\xd1\\x8f\\xd1\\x82\\xd0\\xb8\\xd0\\xb5/Bonds.sol\":6268:6943  function redeemBonds() external onlyAfterMaturity {... */\n    tag_80:\n        /* \"7 \\xd0\\xb7\\xd0\\xb0\\xd0\\xbd\\xd1\\x8f\\xd1\\x82\\xd0\\xb8\\xd0\\xb5/Bonds.sol\":2296:2308  maturityDate */\n      sload(0x05)\n        /* \"7 \\xd0\\xb7\\xd0\\xb0\\xd0\\xbd\\xd1\\x8f\\xd1\\x82\\xd0\\xb8\\xd0\\xb5/Bonds.sol\":2277:2292  block.timestamp */\n      timestamp\n        /* \"7 \\xd0\\xb7\\xd0\\xb0\\xd0\\xbd\\xd1\\x8f\\xd1\\x82\\xd0\\xb8\\xd0\\xb5/Bonds.sol\":2277:2308  block.timestamp >= maturityDate */\n      lt\n      iszero\n        /* \"7 \\xd0\\xb7\\xd0\\xb0\\xd0\\xbd\\xd1\\x8f\\xd1\\x82\\xd0\\xb8\\xd0\\xb5/Bonds.sol\":2269:2352  require(block.timestamp >= maturityDate, \"Bond redemption period has not started.\") */\n      tag_196\n      jumpi\n      mload(0x40)\n      0x08c379a000000000000000000000000000000000000000000000000000000000\n      dup2\n      mstore\n      0x04\n      add\n      tag_197\n      swap1\n      tag_142\n      jump\t// in\n    tag_197:\n      mload(0x40)\n      dup1\n      swap2\n      sub\n      swap1\n      revert\n    tag_196:\n        /* \"7 \\xd0\\xb7\\xd0\\xb0\\xd0\\xbd\\xd1\\x8f\\xd1\\x82\\xd0\\xb8\\xd0\\xb5/Bonds.sol\":6329:6343  uint256 amount */\n      0x00\n        /* \"7 \\xd0\\xb7\\xd0\\xb0\\xd0\\xbd\\xd1\\x8f\\xd1\\x82\\xd0\\xb8\\xd0\\xb5/Bonds.sol\":6346:6357  bondHolders */\n      0x08\n        /* \"7 \\xd0\\xb7\\xd0\\xb0\\xd0\\xbd\\xd1\\x8f\\xd1\\x82\\xd0\\xb8\\xd0\\xb5/Bonds.sol\":6346:6369  bondHolders[msg.sender] */\n      0x00\n        /* \"7 \\xd0\\xb7\\xd0\\xb0\\xd0\\xbd\\xd1\\x8f\\xd1\\x82\\xd0\\xb8\\xd0\\xb5/Bonds.sol\":6358:6368  msg.sender */\n      caller\n        /* \"7 \\xd0\\xb7\\xd0\\xb0\\xd0\\xbd\\xd1\\x8f\\xd1\\x82\\xd0\\xb8\\xd0\\xb5/Bonds.sol\":6346:6369  bondHolders[msg.sender] */\n      0xffffffffffffffffffffffffffffffffffffffff\n      and\n      0xffffffffffffffffffffffffffffffffffffffff\n      and\n      dup2\n      mstore\n      0x20\n      add\n      swap1\n      dup2\n      mstore\n      0x20\n      add\n      0x00\n      keccak256\n      sload\n        /* \"7 \\xd0\\xb7\\xd0\\xb0\\xd0\\xbd\\xd1\\x8f\\xd1\\x82\\xd0\\xb8\\xd0\\xb5/Bonds.sol\":6329:6369  uint256 amount = bondHolders[msg.sender] */\n      swap1\n      pop\n        /* \"7 \\xd0\\xb7\\xd0\\xb0\\xd0\\xbd\\xd1\\x8f\\xd1\\x82\\xd0\\xb8\\xd0\\xb5/Bonds.sol\":6397:6398  0 */\n      0x00\n        /* \"7 \\xd0\\xb7\\xd0\\xb0\\xd0\\xbd\\xd1\\x8f\\xd1\\x82\\xd0\\xb8\\xd0\\xb5/Bonds.sol\":6388:6394  amount */\n      dup2\n        /* \"7 \\xd0\\xb7\\xd0\\xb0\\xd0\\xbd\\xd1\\x8f\\xd1\\x82\\xd0\\xb8\\xd0\\xb5/Bonds.sol\":6388:6398  amount > 0 */\n      gt\n        /* \"7 \\xd0\\xb7\\xd0\\xb0\\xd0\\xbd\\xd1\\x8f\\xd1\\x82\\xd0\\xb8\\xd0\\xb5/Bonds.sol\":6380:6435  require(amount > 0, \"You do not have bonds to redeem.\") */\n      tag_199\n      jumpi\n      mload(0x40)\n      0x08c379a000000000000000000000000000000000000000000000000000000000\n      dup2\n      mstore\n      0x04\n      add\n      tag_200\n      swap1\n      tag_99\n      jump\t// in\n    tag_200:\n      mload(0x40)\n      dup1\n      swap2\n      sub\n      swap1\n      revert\n    tag_199:\n        /* \"7 \\xd0\\xb7\\xd0\\xb0\\xd0\\xbd\\xd1\\x8f\\xd1\\x82\\xd0\\xb8\\xd0\\xb5/Bonds.sol\":6448:6467  uint256 totalAmount */\n      0x00\n        /* \"7 \\xd0\\xb7\\xd0\\xb0\\xd0\\xbd\\xd1\\x8f\\xd1\\x82\\xd0\\xb8\\xd0\\xb5/Bonds.sol\":6479:6488  bondPrice */\n      sload(0x02)\n        /* \"7 \\xd0\\xb7\\xd0\\xb0\\xd0\\xbd\\xd1\\x8f\\xd1\\x82\\xd0\\xb8\\xd0\\xb5/Bonds.sol\":6470:6476  amount */\n      dup3\n        /* \"7 \\xd0\\xb7\\xd0\\xb0\\xd0\\xbd\\xd1\\x8f\\xd1\\x82\\xd0\\xb8\\xd0\\xb5/Bonds.sol\":6470:6488  amount * bondPrice */\n      tag_201\n      swap2\n      swap1\n      tag_101\n      jump\t// in\n    tag_201:\n        /* \"7 \\xd0\\xb7\\xd0\\xb0\\xd0\\xbd\\xd1\\x8f\\xd1\\x82\\xd0\\xb8\\xd0\\xb5/Bonds.sol\":6448:6488  uint256 totalAmount = amount * bondPrice */\n      swap1\n      pop\n        /* \"7 \\xd0\\xb7\\xd0\\xb0\\xd0\\xbd\\xd1\\x8f\\xd1\\x82\\xd0\\xb8\\xd0\\xb5/Bonds.sol\":6499:6515  uint256 interest */\n      0x00\n        /* \"7 \\xd0\\xb7\\xd0\\xb0\\xd0\\xbd\\xd1\\x8f\\xd1\\x82\\xd0\\xb8\\xd0\\xb5/Bonds.sol\":6582:6594  1 days * 100 */\n      0x83d600\n        /* \"7 \\xd0\\xb7\\xd0\\xb0\\xd0\\xbd\\xd1\\x8f\\xd1\\x82\\xd0\\xb8\\xd0\\xb5/Bonds.sol\":6564:6576  issuanceDate */\n      sload(0x04)\n        /* \"7 \\xd0\\xb7\\xd0\\xb0\\xd0\\xbd\\xd1\\x8f\\xd1\\x82\\xd0\\xb8\\xd0\\xb5/Bonds.sol\":6549:6561  maturityDate */\n      sload(0x05)\n        /* \"7 \\xd0\\xb7\\xd0\\xb0\\xd0\\xbd\\xd1\\x8f\\xd1\\x82\\xd0\\xb8\\xd0\\xb5/Bonds.sol\":6549:6576  maturityDate - issuanceDate */\n      tag_202\n      swap2\n      swap1\n      tag_103\n      jump\t// in\n    tag_202:\n        /* \"7 \\xd0\\xb7\\xd0\\xb0\\xd0\\xbd\\xd1\\x8f\\xd1\\x82\\xd0\\xb8\\xd0\\xb5/Bonds.sol\":6533:6545  interestRate */\n      sload(0x03)\n        /* \"7 \\xd0\\xb7\\xd0\\xb0\\xd0\\xbd\\xd1\\x8f\\xd1\\x82\\xd0\\xb8\\xd0\\xb5/Bonds.sol\":6519:6530  totalAmount */\n      dup5\n        /* \"7 \\xd0\\xb7\\xd0\\xb0\\xd0\\xbd\\xd1\\x8f\\xd1\\x82\\xd0\\xb8\\xd0\\xb5/Bonds.sol\":6519:6545  totalAmount * interestRate */\n      tag_203\n      swap2\n      swap1\n      tag_101\n      jump\t// in\n    tag_203:\n        /* \"7 \\xd0\\xb7\\xd0\\xb0\\xd0\\xbd\\xd1\\x8f\\xd1\\x82\\xd0\\xb8\\xd0\\xb5/Bonds.sol\":6519:6577  totalAmount * interestRate * (maturityDate - issuanceDate) */\n      tag_204\n      swap2\n      swap1\n      tag_101\n      jump\t// in\n    tag_204:\n        /* \"7 \\xd0\\xb7\\xd0\\xb0\\xd0\\xbd\\xd1\\x8f\\xd1\\x82\\xd0\\xb8\\xd0\\xb5/Bonds.sol\":6518:6595  (totalAmount * interestRate * (maturityDate - issuanceDate)) / (1 days * 100) */\n      tag_205\n      swap2\n      swap1\n      tag_107\n      jump\t// in\n    tag_205:\n        /* \"7 \\xd0\\xb7\\xd0\\xb0\\xd0\\xbd\\xd1\\x8f\\xd1\\x82\\xd0\\xb8\\xd0\\xb5/Bonds.sol\":6499:6595  uint256 interest = (totalAmount * interestRate * (maturityDate - issuanceDate)) / (1 days * 100) */\n      swap1\n      pop\n        /* \"7 \\xd0\\xb7\\xd0\\xb0\\xd0\\xbd\\xd1\\x8f\\xd1\\x82\\xd0\\xb8\\xd0\\xb5/Bonds.sol\":6645:6664  uint256 totalPayout */\n      0x00\n        /* \"7 \\xd0\\xb7\\xd0\\xb0\\xd0\\xbd\\xd1\\x8f\\xd1\\x82\\xd0\\xb8\\xd0\\xb5/Bonds.sol\":6681:6689  interest */\n      dup2\n        /* \"7 \\xd0\\xb7\\xd0\\xb0\\xd0\\xbd\\xd1\\x8f\\xd1\\x82\\xd0\\xb8\\xd0\\xb5/Bonds.sol\":6667:6678  totalAmount */\n      dup4\n        /* \"7 \\xd0\\xb7\\xd0\\xb0\\xd0\\xbd\\xd1\\x8f\\xd1\\x82\\xd0\\xb8\\xd0\\xb5/Bonds.sol\":6667:6689  totalAmount + interest */\n      tag_206\n      swap2\n      swap1\n      tag_109\n      jump\t// in\n    tag_206:\n        /* \"7 \\xd0\\xb7\\xd0\\xb0\\xd0\\xbd\\xd1\\x8f\\xd1\\x82\\xd0\\xb8\\xd0\\xb5/Bonds.sol\":6645:6689  uint256 totalPayout = totalAmount + interest */\n      swap1\n      pop\n        /* \"7 \\xd0\\xb7\\xd0\\xb0\\xd0\\xbd\\xd1\\x8f\\xd1\\x82\\xd0\\xb8\\xd0\\xb5/Bonds.sol\":6735:6746  totalPayout */\n      dup1\n        /* \"7 \\xd0\\xb7\\xd0\\xb0\\xd0\\xbd\\xd1\\x8f\\xd1\\x82\\xd0\\xb8\\xd0\\xb5/Bonds.sol\":6710:6731  address(this).balance */\n      selfbalance\n        /* \"7 \\xd0\\xb7\\xd0\\xb0\\xd0\\xbd\\xd1\\x8f\\xd1\\x82\\xd0\\xb8\\xd0\\xb5/Bonds.sol\":6710:6746  address(this).balance >= totalPayout */\n      lt\n      iszero\n        /* \"7 \\xd0\\xb7\\xd0\\xb0\\xd0\\xbd\\xd1\\x8f\\xd1\\x82\\xd0\\xb8\\xd0\\xb5/Bonds.sol\":6702:6792  require(address(this).balance >= totalPayout, \"Insufficient contract balance for payout.\") */\n      tag_207\n      jumpi\n      mload(0x40)\n      0x08c379a000000000000000000000000000000000000000000000000000000000\n      dup2\n      mstore\n      0x04\n      add\n      tag_208\n      swap1\n      tag_209\n      jump\t// in\n    tag_208:\n      mload(0x40)\n      dup1\n      swap2\n      sub\n      swap1\n      revert\n    tag_207:\n        /* \"7 \\xd0\\xb7\\xd0\\xb0\\xd0\\xbd\\xd1\\x8f\\xd1\\x82\\xd0\\xb8\\xd0\\xb5/Bonds.sol\":6831:6832  0 */\n      0x00\n        /* \"7 \\xd0\\xb7\\xd0\\xb0\\xd0\\xbd\\xd1\\x8f\\xd1\\x82\\xd0\\xb8\\xd0\\xb5/Bonds.sol\":6805:6816  bondHolders */\n      0x08\n        /* \"7 \\xd0\\xb7\\xd0\\xb0\\xd0\\xbd\\xd1\\x8f\\xd1\\x82\\xd0\\xb8\\xd0\\xb5/Bonds.sol\":6805:6828  bondHolders[msg.sender] */\n      0x00\n        /* \"7 \\xd0\\xb7\\xd0\\xb0\\xd0\\xbd\\xd1\\x8f\\xd1\\x82\\xd0\\xb8\\xd0\\xb5/Bonds.sol\":6817:6827  msg.sender */\n      caller\n        /* \"7 \\xd0\\xb7\\xd0\\xb0\\xd0\\xbd\\xd1\\x8f\\xd1\\x82\\xd0\\xb8\\xd0\\xb5/Bonds.sol\":6805:6828  bondHolders[msg.sender] */\n      0xffffffffffffffffffffffffffffffffffffffff\n      and\n      0xffffffffffffffffffffffffffffffffffffffff\n      and\n      dup2\n      mstore\n      0x20\n      add\n      swap1\n      dup2\n      mstore\n      0x20\n      add\n      0x00\n      keccak256\n        /* \"7 \\xd0\\xb7\\xd0\\xb0\\xd0\\xbd\\xd1\\x8f\\xd1\\x82\\xd0\\xb8\\xd0\\xb5/Bonds.sol\":6805:6832  bondHolders[msg.sender] = 0 */\n      dup2\n      swap1\n      sstore\n      pop\n        /* \"7 \\xd0\\xb7\\xd0\\xb0\\xd0\\xbd\\xd1\\x8f\\xd1\\x82\\xd0\\xb8\\xd0\\xb5/Bonds.sol\":6851:6861  msg.sender */\n      caller\n        /* \"7 \\xd0\\xb7\\xd0\\xb0\\xd0\\xbd\\xd1\\x8f\\xd1\\x82\\xd0\\xb8\\xd0\\xb5/Bonds.sol\":6843:6871  payable(msg.sender).transfer */\n      0xffffffffffffffffffffffffffffffffffffffff\n      and\n        /* \"7 \\xd0\\xb7\\xd0\\xb0\\xd0\\xbd\\xd1\\x8f\\xd1\\x82\\xd0\\xb8\\xd0\\xb5/Bonds.sol\":6843:6884  payable(msg.sender).transfer(totalPayout) */\n      0x08fc\n        /* \"7 \\xd0\\xb7\\xd0\\xb0\\xd0\\xbd\\xd1\\x8f\\xd1\\x82\\xd0\\xb8\\xd0\\xb5/Bonds.sol\":6872:6883  totalPayout */\n      dup3\n        /* \"7 \\xd0\\xb7\\xd0\\xb0\\xd0\\xbd\\xd1\\x8f\\xd1\\x82\\xd0\\xb8\\xd0\\xb5/Bonds.sol\":6843:6884  payable(msg.sender).transfer(totalPayout) */\n      swap1\n      dup2\n      iszero\n      mul\n      swap1\n      mload(0x40)\n      0x00\n      mload(0x40)\n      dup1\n      dup4\n      sub\n      dup2\n      dup6\n      dup9\n      dup9\n      call\n      swap4\n      pop\n      pop\n      pop\n      pop\n      iszero\n      dup1\n      iszero\n      tag_211\n      jumpi\n      returndatasize\n      0x00\n      dup1\n      returndatacopy\n      revert(0x00, returndatasize)\n    tag_211:\n      pop\n        /* \"7 \\xd0\\xb7\\xd0\\xb0\\xd0\\xbd\\xd1\\x8f\\xd1\\x82\\xd0\\xb8\\xd0\\xb5/Bonds.sol\":6916:6926  msg.sender */\n      caller\n        /* \"7 \\xd0\\xb7\\xd0\\xb0\\xd0\\xbd\\xd1\\x8f\\xd1\\x82\\xd0\\xb8\\xd0\\xb5/Bonds.sol\":6902:6935  BondsRedeemed(msg.sender, amount) */\n      0xffffffffffffffffffffffffffffffffffffffff\n      and\n      0x9288b6de588c2ef664548c899db8a71f78097bdf2a031408e9bceff697cbf94f\n        /* \"7 \\xd0\\xb7\\xd0\\xb0\\xd0\\xbd\\xd1\\x8f\\xd1\\x82\\xd0\\xb8\\xd0\\xb5/Bonds.sol\":6928:6934  amount */\n      dup6\n        /* \"7 \\xd0\\xb7\\xd0\\xb0\\xd0\\xbd\\xd1\\x8f\\xd1\\x82\\xd0\\xb8\\xd0\\xb5/Bonds.sol\":6902:6935  BondsRedeemed(msg.sender, amount) */\n      mload(0x40)\n      tag_212\n      swap2\n      swap1\n      tag_44\n      jump\t// in\n    tag_212:\n      mload(0x40)\n      dup1\n      swap2\n      sub\n      swap1\n      log2\n        /* \"7 \\xd0\\xb7\\xd0\\xb0\\xd0\\xbd\\xd1\\x8f\\xd1\\x82\\xd0\\xb8\\xd0\\xb5/Bonds.sol\":6318:6943  {... */\n      pop\n      pop\n      pop\n      pop\n        /* \"7 \\xd0\\xb7\\xd0\\xb0\\xd0\\xbd\\xd1\\x8f\\xd1\\x82\\xd0\\xb8\\xd0\\xb5/Bonds.sol\":6268:6943  function redeemBonds() external onlyAfterMaturity {... */\n      jump\t// out\n        /* \"7 \\xd0\\xb7\\xd0\\xb0\\xd0\\xbd\\xd1\\x8f\\xd1\\x82\\xd0\\xb8\\xd0\\xb5/Bonds.sol\":7158:7694  function withdrawRemainingFunds() external onlyIssuer {... */\n    tag_83:\n        /* \"7 \\xd0\\xb7\\xd0\\xb0\\xd0\\xbd\\xd1\\x8f\\xd1\\x82\\xd0\\xb8\\xd0\\xb5/Bonds.sol\":1780:1786  issuer */\n      0x00\n      dup1\n      sload\n      swap1\n      0x0100\n      exp\n      swap1\n      div\n      0xffffffffffffffffffffffffffffffffffffffff\n      and\n        /* \"7 \\xd0\\xb7\\xd0\\xb0\\xd0\\xbd\\xd1\\x8f\\xd1\\x82\\xd0\\xb8\\xd0\\xb5/Bonds.sol\":1766:1786  msg.sender == issuer */\n      0xffffffffffffffffffffffffffffffffffffffff\n      and\n        /* \"7 \\xd0\\xb7\\xd0\\xb0\\xd0\\xbd\\xd1\\x8f\\xd1\\x82\\xd0\\xb8\\xd0\\xb5/Bonds.sol\":1766:1776  msg.sender */\n      caller\n        /* \"7 \\xd0\\xb7\\xd0\\xb0\\xd0\\xbd\\xd1\\x8f\\xd1\\x82\\xd0\\xb8\\xd0\\xb5/Bonds.sol\":1766:1786  msg.sender == issuer */\n      0xffffffffffffffffffffffffffffffffffffffff\n      and\n      eq\n        /* \"7 \\xd0\\xb7\\xd0\\xb0\\xd0\\xbd\\xd1\\x8f\\xd1\\x82\\xd0\\xb8\\xd0\\xb5/Bonds.sol\":1758:1826  require(msg.sender == issuer, \"Only issuer can call this function.\") */\n      tag_214\n      jumpi\n      mload(0x40)\n      0x08c379a000000000000000000000000000000000000000000000000000000000\n      dup2\n      mstore\n      0x04\n      add\n      tag_215\n      swap1\n      tag_91\n      jump\t// in\n    tag_215:\n      mload(0x40)\n      dup1\n      swap2\n      sub\n      swap1\n      revert\n    tag_214:\n        /* \"7 \\xd0\\xb7\\xd0\\xb0\\xd0\\xbd\\xd1\\x8f\\xd1\\x82\\xd0\\xb8\\xd0\\xb5/Bonds.sol\":7250:7262  maturityDate */\n      sload(0x05)\n        /* \"7 \\xd0\\xb7\\xd0\\xb0\\xd0\\xbd\\xd1\\x8f\\xd1\\x82\\xd0\\xb8\\xd0\\xb5/Bonds.sol\":7231:7246  block.timestamp */\n      timestamp\n        /* \"7 \\xd0\\xb7\\xd0\\xb0\\xd0\\xbd\\xd1\\x8f\\xd1\\x82\\xd0\\xb8\\xd0\\xb5/Bonds.sol\":7231:7262  block.timestamp >= maturityDate */\n      lt\n      iszero\n        /* \"7 \\xd0\\xb7\\xd0\\xb0\\xd0\\xbd\\xd1\\x8f\\xd1\\x82\\xd0\\xb8\\xd0\\xb5/Bonds.sol\":7223:7306  require(block.timestamp >= maturityDate, \"Bond redemption period has not started.\") */\n      tag_217\n      jumpi\n      mload(0x40)\n      0x08c379a000000000000000000000000000000000000000000000000000000000\n      dup2\n      mstore\n      0x04\n      add\n      tag_218\n      swap1\n      tag_142\n      jump\t// in\n    tag_218:\n      mload(0x40)\n      dup1\n      swap2\n      sub\n      swap1\n      revert\n    tag_217:\n        /* \"7 \\xd0\\xb7\\xd0\\xb0\\xd0\\xbd\\xd1\\x8f\\xd1\\x82\\xd0\\xb8\\xd0\\xb5/Bonds.sol\":7322:7331  uint256 i */\n      0x00\n        /* \"7 \\xd0\\xb7\\xd0\\xb0\\xd0\\xbd\\xd1\\x8f\\xd1\\x82\\xd0\\xb8\\xd0\\xb5/Bonds.sol\":7317:7496  for (uint256 i = 0; i < investors.length; i++) {... */\n    tag_219:\n        /* \"7 \\xd0\\xb7\\xd0\\xb0\\xd0\\xbd\\xd1\\x8f\\xd1\\x82\\xd0\\xb8\\xd0\\xb5/Bonds.sol\":7341:7350  investors */\n      0x0a\n        /* \"7 \\xd0\\xb7\\xd0\\xb0\\xd0\\xbd\\xd1\\x8f\\xd1\\x82\\xd0\\xb8\\xd0\\xb5/Bonds.sol\":7341:7357  investors.length */\n      dup1\n      sload\n      swap1\n      pop\n        /* \"7 \\xd0\\xb7\\xd0\\xb0\\xd0\\xbd\\xd1\\x8f\\xd1\\x82\\xd0\\xb8\\xd0\\xb5/Bonds.sol\":7337:7338  i */\n      dup2\n        /* \"7 \\xd0\\xb7\\xd0\\xb0\\xd0\\xbd\\xd1\\x8f\\xd1\\x82\\xd0\\xb8\\xd0\\xb5/Bonds.sol\":7337:7357  i < investors.length */\n      lt\n        /* \"7 \\xd0\\xb7\\xd0\\xb0\\xd0\\xbd\\xd1\\x8f\\xd1\\x82\\xd0\\xb8\\xd0\\xb5/Bonds.sol\":7317:7496  for (uint256 i = 0; i < investors.length; i++) {... */\n      iszero\n      tag_220\n      jumpi\n        /* \"7 \\xd0\\xb7\\xd0\\xb0\\xd0\\xbd\\xd1\\x8f\\xd1\\x82\\xd0\\xb8\\xd0\\xb5/Bonds.sol\":7416:7417  0 */\n      0x00\n        /* \"7 \\xd0\\xb7\\xd0\\xb0\\xd0\\xbd\\xd1\\x8f\\xd1\\x82\\xd0\\xb8\\xd0\\xb5/Bonds.sol\":7387:7398  bondHolders */\n      0x08\n        /* \"7 \\xd0\\xb7\\xd0\\xb0\\xd0\\xbd\\xd1\\x8f\\xd1\\x82\\xd0\\xb8\\xd0\\xb5/Bonds.sol\":7387:7412  bondHolders[investors[i]] */\n      0x00\n        /* \"7 \\xd0\\xb7\\xd0\\xb0\\xd0\\xbd\\xd1\\x8f\\xd1\\x82\\xd0\\xb8\\xd0\\xb5/Bonds.sol\":7399:7408  investors */\n      0x0a\n        /* \"7 \\xd0\\xb7\\xd0\\xb0\\xd0\\xbd\\xd1\\x8f\\xd1\\x82\\xd0\\xb8\\xd0\\xb5/Bonds.sol\":7409:7410  i */\n      dup5\n        /* \"7 \\xd0\\xb7\\xd0\\xb0\\xd0\\xbd\\xd1\\x8f\\xd1\\x82\\xd0\\xb8\\xd0\\xb5/Bonds.sol\":7399:7411  investors[i] */\n      dup2\n      sload\n      dup2\n      lt\n      tag_222\n      jumpi\n      tag_223\n      tag_185\n      jump\t// in\n    tag_223:\n    tag_222:\n      swap1\n      0x00\n      mstore\n      keccak256(0x00, 0x20)\n      add\n      0x00\n      swap1\n      sload\n      swap1\n      0x0100\n      exp\n      swap1\n      div\n      0xffffffffffffffffffffffffffffffffffffffff\n      and\n        /* \"7 \\xd0\\xb7\\xd0\\xb0\\xd0\\xbd\\xd1\\x8f\\xd1\\x82\\xd0\\xb8\\xd0\\xb5/Bonds.sol\":7387:7412  bondHolders[investors[i]] */\n      0xffffffffffffffffffffffffffffffffffffffff\n      and\n      0xffffffffffffffffffffffffffffffffffffffff\n      and\n      dup2\n      mstore\n      0x20\n      add\n      swap1\n      dup2\n      mstore\n      0x20\n      add\n      0x00\n      keccak256\n      sload\n        /* \"7 \\xd0\\xb7\\xd0\\xb0\\xd0\\xbd\\xd1\\x8f\\xd1\\x82\\xd0\\xb8\\xd0\\xb5/Bonds.sol\":7387:7417  bondHolders[investors[i]] == 0 */\n      eq\n        /* \"7 \\xd0\\xb7\\xd0\\xb0\\xd0\\xbd\\xd1\\x8f\\xd1\\x82\\xd0\\xb8\\xd0\\xb5/Bonds.sol\":7379:7484  require(bondHolders[investors[i]] == 0, \"All bonds must be redeemed before withdrawing remaining funds.\") */\n      tag_225\n      jumpi\n      mload(0x40)\n      0x08c379a000000000000000000000000000000000000000000000000000000000\n      dup2\n      mstore\n      0x04\n      add\n      tag_226\n      swap1\n      tag_227\n      jump\t// in\n    tag_226:\n      mload(0x40)\n      dup1\n      swap2\n      sub\n      swap1\n      revert\n    tag_225:\n        /* \"7 \\xd0\\xb7\\xd0\\xb0\\xd0\\xbd\\xd1\\x8f\\xd1\\x82\\xd0\\xb8\\xd0\\xb5/Bonds.sol\":7359:7362  i++ */\n      dup1\n      dup1\n      0x01\n      add\n      swap2\n      pop\n      pop\n        /* \"7 \\xd0\\xb7\\xd0\\xb0\\xd0\\xbd\\xd1\\x8f\\xd1\\x82\\xd0\\xb8\\xd0\\xb5/Bonds.sol\":7317:7496  for (uint256 i = 0; i < investors.length; i++) {... */\n      jump(tag_219)\n    tag_220:\n      pop\n        /* \"7 \\xd0\\xb7\\xd0\\xb0\\xd0\\xbd\\xd1\\x8f\\xd1\\x82\\xd0\\xb8\\xd0\\xb5/Bonds.sol\":7508:7532  uint256 remainingBalance */\n      0x00\n        /* \"7 \\xd0\\xb7\\xd0\\xb0\\xd0\\xbd\\xd1\\x8f\\xd1\\x82\\xd0\\xb8\\xd0\\xb5/Bonds.sol\":7535:7556  address(this).balance */\n      selfbalance\n        /* \"7 \\xd0\\xb7\\xd0\\xb0\\xd0\\xbd\\xd1\\x8f\\xd1\\x82\\xd0\\xb8\\xd0\\xb5/Bonds.sol\":7508:7556  uint256 remainingBalance = address(this).balance */\n      swap1\n      pop\n        /* \"7 \\xd0\\xb7\\xd0\\xb0\\xd0\\xbd\\xd1\\x8f\\xd1\\x82\\xd0\\xb8\\xd0\\xb5/Bonds.sol\":7594:7595  0 */\n      0x00\n        /* \"7 \\xd0\\xb7\\xd0\\xb0\\xd0\\xbd\\xd1\\x8f\\xd1\\x82\\xd0\\xb8\\xd0\\xb5/Bonds.sol\":7575:7591  remainingBalance */\n      dup2\n        /* \"7 \\xd0\\xb7\\xd0\\xb0\\xd0\\xbd\\xd1\\x8f\\xd1\\x82\\xd0\\xb8\\xd0\\xb5/Bonds.sol\":7575:7595  remainingBalance > 0 */\n      gt\n        /* \"7 \\xd0\\xb7\\xd0\\xb0\\xd0\\xbd\\xd1\\x8f\\xd1\\x82\\xd0\\xb8\\xd0\\xb5/Bonds.sol\":7567:7631  require(remainingBalance > 0, \"Insufficient funds to withdraw.\") */\n      tag_228\n      jumpi\n      mload(0x40)\n      0x08c379a000000000000000000000000000000000000000000000000000000000\n      dup2\n      mstore\n      0x04\n      add\n      tag_229\n      swap1\n      tag_149\n      jump\t// in\n    tag_229:\n      mload(0x40)\n      dup1\n      swap2\n      sub\n      swap1\n      revert\n    tag_228:\n        /* \"7 \\xd0\\xb7\\xd0\\xb0\\xd0\\xbd\\xd1\\x8f\\xd1\\x82\\xd0\\xb8\\xd0\\xb5/Bonds.sol\":7652:7658  issuer */\n      0x00\n      dup1\n      sload\n      swap1\n      0x0100\n      exp\n      swap1\n      div\n      0xffffffffffffffffffffffffffffffffffffffff\n      and\n        /* \"7 \\xd0\\xb7\\xd0\\xb0\\xd0\\xbd\\xd1\\x8f\\xd1\\x82\\xd0\\xb8\\xd0\\xb5/Bonds.sol\":7644:7668  payable(issuer).transfer */\n      0xffffffffffffffffffffffffffffffffffffffff\n      and\n        /* \"7 \\xd0\\xb7\\xd0\\xb0\\xd0\\xbd\\xd1\\x8f\\xd1\\x82\\xd0\\xb8\\xd0\\xb5/Bonds.sol\":7644:7686  payable(issuer).transfer(remainingBalance) */\n      0x08fc\n        /* \"7 \\xd0\\xb7\\xd0\\xb0\\xd0\\xbd\\xd1\\x8f\\xd1\\x82\\xd0\\xb8\\xd0\\xb5/Bonds.sol\":7669:7685  remainingBalance */\n      dup3\n        /* \"7 \\xd0\\xb7\\xd0\\xb0\\xd0\\xbd\\xd1\\x8f\\xd1\\x82\\xd0\\xb8\\xd0\\xb5/Bonds.sol\":7644:7686  payable(issuer).transfer(remainingBalance) */\n      swap1\n      dup2\n      iszero\n      mul\n      swap1\n      mload(0x40)\n      0x00\n      mload(0x40)\n      dup1\n      dup4\n      sub\n      dup2\n      dup6\n      dup9\n      dup9\n      call\n      swap4\n      pop\n      pop\n      pop\n      pop\n      iszero\n      dup1\n      iszero\n      tag_231\n      jumpi\n      returndatasize\n      0x00\n      dup1\n      returndatacopy\n      revert(0x00, returndatasize)\n    tag_231:\n      pop\n        /* \"7 \\xd0\\xb7\\xd0\\xb0\\xd0\\xbd\\xd1\\x8f\\xd1\\x82\\xd0\\xb8\\xd0\\xb5/Bonds.sol\":7212:7694  {... */\n      pop\n        /* \"7 \\xd0\\xb7\\xd0\\xb0\\xd0\\xbd\\xd1\\x8f\\xd1\\x82\\xd0\\xb8\\xd0\\xb5/Bonds.sol\":7158:7694  function withdrawRemainingFunds() external onlyIssuer {... */\n      jump\t// out\n        /* \"7 \\xd0\\xb7\\xd0\\xb0\\xd0\\xbd\\xd1\\x8f\\xd1\\x82\\xd0\\xb8\\xd0\\xb5/Bonds.sol\":217:242  uint256 public totalBonds */\n    tag_86:\n      sload(0x01)\n      dup2\n      jump\t// out\n        /* \"@openzeppelin/contracts/utils/Strings.sol\":637:1269  function toString(uint256 value) internal pure returns (string memory) {... */\n    tag_122:\n        /* \"@openzeppelin/contracts/utils/Strings.sol\":693:706  string memory */\n      0x60\n        /* \"@openzeppelin/contracts/utils/Strings.sol\":742:756  uint256 length */\n      0x00\n        /* \"@openzeppelin/contracts/utils/Strings.sol\":779:780  1 */\n      0x01\n        /* \"@openzeppelin/contracts/utils/Strings.sol\":759:776  Math.log10(value) */\n      tag_233\n        /* \"@openzeppelin/contracts/utils/Strings.sol\":770:775  value */\n      dup5\n        /* \"@openzeppelin/contracts/utils/Strings.sol\":759:769  Math.log10 */\n      tag_234\n        /* \"@openzeppelin/contracts/utils/Strings.sol\":759:776  Math.log10(value) */\n      jump\t// in\n    tag_233:\n        /* \"@openzeppelin/contracts/utils/Strings.sol\":759:780  Math.log10(value) + 1 */\n      add\n        /* \"@openzeppelin/contracts/utils/Strings.sol\":742:780  uint256 length = Math.log10(value) + 1 */\n      swap1\n      pop\n        /* \"@openzeppelin/contracts/utils/Strings.sol\":794:814  string memory buffer */\n      0x00\n        /* \"@openzeppelin/contracts/utils/Strings.sol\":828:834  length */\n      dup2\n        /* \"@openzeppelin/contracts/utils/Strings.sol\":817:835  new string(length) */\n      0xffffffffffffffff\n      dup2\n      gt\n      iszero\n      tag_235\n      jumpi\n      tag_236\n      tag_237\n      jump\t// in\n    tag_236:\n    tag_235:\n      mload(0x40)\n      swap1\n      dup1\n      dup3\n      mstore\n      dup1\n      0x1f\n      add\n      not(0x1f)\n      and\n      0x20\n      add\n      dup3\n      add\n      0x40\n      mstore\n      dup1\n      iszero\n      tag_238\n      jumpi\n      dup2\n      0x20\n      add\n      0x01\n      dup3\n      mul\n      dup1\n      calldatasize\n      dup4\n      calldatacopy\n      dup1\n      dup3\n      add\n      swap2\n      pop\n      pop\n      swap1\n      pop\n    tag_238:\n      pop\n        /* \"@openzeppelin/contracts/utils/Strings.sol\":794:835  string memory buffer = new string(length) */\n      swap1\n      pop\n        /* \"@openzeppelin/contracts/utils/Strings.sol\":849:860  uint256 ptr */\n      0x00\n        /* \"@openzeppelin/contracts/utils/Strings.sol\":944:950  length */\n      dup3\n        /* \"@openzeppelin/contracts/utils/Strings.sol\":940:942  32 */\n      0x20\n        /* \"@openzeppelin/contracts/utils/Strings.sol\":936:951  add(32, length) */\n      add\n        /* \"@openzeppelin/contracts/utils/Strings.sol\":928:934  buffer */\n      dup3\n        /* \"@openzeppelin/contracts/utils/Strings.sol\":924:952  add(buffer, add(32, length)) */\n      add\n        /* \"@openzeppelin/contracts/utils/Strings.sol\":917:952  ptr := add(buffer, add(32, length)) */\n      swap1\n      pop\n        /* \"@openzeppelin/contracts/utils/Strings.sol\":979:1226  while (true) {... */\n    tag_239:\n        /* \"@openzeppelin/contracts/utils/Strings.sol\":986:990  true */\n      0x01\n        /* \"@openzeppelin/contracts/utils/Strings.sol\":979:1226  while (true) {... */\n      iszero\n      tag_240\n      jumpi\n        /* \"@openzeppelin/contracts/utils/Strings.sol\":1010:1015  ptr-- */\n      dup1\n      dup1\n      0x01\n      swap1\n      sub\n      swap2\n      pop\n      pop\n        /* \"@openzeppelin/contracts/utils/Strings.sol\":1114:1124  HEX_DIGITS */\n      0x3031323334353637383961626364656600000000000000000000000000000000\n        /* \"@openzeppelin/contracts/utils/Strings.sol\":1109:1111  10 */\n      0x0a\n        /* \"@openzeppelin/contracts/utils/Strings.sol\":1102:1107  value */\n      dup7\n        /* \"@openzeppelin/contracts/utils/Strings.sol\":1098:1112  mod(value, 10) */\n      mod\n        /* \"@openzeppelin/contracts/utils/Strings.sol\":1093:1125  byte(mod(value, 10), HEX_DIGITS) */\n      byte\n        /* \"@openzeppelin/contracts/utils/Strings.sol\":1088:1091  ptr */\n      dup2\n        /* \"@openzeppelin/contracts/utils/Strings.sol\":1080:1126  mstore8(ptr, byte(mod(value, 10), HEX_DIGITS)) */\n      mstore8\n        /* \"@openzeppelin/contracts/utils/Strings.sol\":1170:1172  10 */\n      0x0a\n        /* \"@openzeppelin/contracts/utils/Strings.sol\":1161:1172  value /= 10 */\n      dup6\n      dup2\n      tag_241\n      jumpi\n      tag_242\n      tag_243\n      jump\t// in\n    tag_242:\n    tag_241:\n      div\n      swap5\n      pop\n        /* \"@openzeppelin/contracts/utils/Strings.sol\":1203:1204  0 */\n      0x00\n        /* \"@openzeppelin/contracts/utils/Strings.sol\":1194:1199  value */\n      dup6\n        /* \"@openzeppelin/contracts/utils/Strings.sol\":1194:1204  value == 0 */\n      sub\n        /* \"@openzeppelin/contracts/utils/Strings.sol\":979:1226  while (true) {... */\n      tag_239\n        /* \"@openzeppelin/contracts/utils/Strings.sol\":1190:1211  if (value == 0) break */\n      jumpi\n        /* \"@openzeppelin/contracts/utils/Strings.sol\":979:1226  while (true) {... */\n    tag_240:\n        /* \"@openzeppelin/contracts/utils/Strings.sol\":1246:1252  buffer */\n      dup2\n        /* \"@openzeppelin/contracts/utils/Strings.sol\":1239:1252  return buffer */\n      swap4\n      pop\n      pop\n      pop\n      pop\n        /* \"@openzeppelin/contracts/utils/Strings.sol\":637:1269  function toString(uint256 value) internal pure returns (string memory) {... */\n      swap2\n      swap1\n      pop\n      jump\t// out\n        /* \"@openzeppelin/contracts/utils/math/Math.sol\":25316:26232  function log10(uint256 value) internal pure returns (uint256) {... */\n    tag_234:\n        /* \"@openzeppelin/contracts/utils/math/Math.sol\":25369:25376  uint256 */\n      0x00\n        /* \"@openzeppelin/contracts/utils/math/Math.sol\":25388:25402  uint256 result */\n      dup1\n        /* \"@openzeppelin/contracts/utils/math/Math.sol\":25405:25406  0 */\n      0x00\n        /* \"@openzeppelin/contracts/utils/math/Math.sol\":25388:25406  uint256 result = 0 */\n      swap1\n      pop\n        /* \"@openzeppelin/contracts/utils/math/Math.sol\":25453:25461  10 ** 64 */\n      0x184f03e93ff9f4daa797ed6e38ed64bf6a1f010000000000000000\n        /* \"@openzeppelin/contracts/utils/math/Math.sol\":25444:25449  value */\n      dup4\n        /* \"@openzeppelin/contracts/utils/math/Math.sol\":25444:25461  value >= 10 ** 64 */\n      lt\n        /* \"@openzeppelin/contracts/utils/math/Math.sol\":25440:25543  if (value >= 10 ** 64) {... */\n      tag_246\n      jumpi\n        /* \"@openzeppelin/contracts/utils/math/Math.sol\":25490:25498  10 ** 64 */\n      0x184f03e93ff9f4daa797ed6e38ed64bf6a1f010000000000000000\n        /* \"@openzeppelin/contracts/utils/math/Math.sol\":25481:25498  value /= 10 ** 64 */\n      dup4\n      dup2\n      tag_247\n      jumpi\n      tag_248\n      tag_243\n      jump\t// in\n    tag_248:\n    tag_247:\n      div\n      swap3\n      pop\n        /* \"@openzeppelin/contracts/utils/math/Math.sol\":25526:25528  64 */\n      0x40\n        /* \"@openzeppelin/contracts/utils/math/Math.sol\":25516:25528  result += 64 */\n      dup2\n      add\n      swap1\n      pop\n        /* \"@openzeppelin/contracts/utils/math/Math.sol\":25440:25543  if (value >= 10 ** 64) {... */\n    tag_246:\n        /* \"@openzeppelin/contracts/utils/math/Math.sol\":25569:25577  10 ** 32 */\n      0x04ee2d6d415b85acef8100000000\n        /* \"@openzeppelin/contracts/utils/math/Math.sol\":25560:25565  value */\n      dup4\n        /* \"@openzeppelin/contracts/utils/math/Math.sol\":25560:25577  value >= 10 ** 32 */\n      lt\n        /* \"@openzeppelin/contracts/utils/math/Math.sol\":25556:25659  if (value >= 10 ** 32) {... */\n      tag_249\n      jumpi\n        /* \"@openzeppelin/contracts/utils/math/Math.sol\":25606:25614  10 ** 32 */\n      0x04ee2d6d415b85acef8100000000\n        /* \"@openzeppelin/contracts/utils/math/Math.sol\":25597:25614  value /= 10 ** 32 */\n      dup4\n      dup2\n      tag_250\n      jumpi\n      tag_251\n      tag_243\n      jump\t// in\n    tag_251:\n    tag_250:\n      div\n      swap3\n      pop\n        /* \"@openzeppelin/contracts/utils/math/Math.sol\":25642:25644  32 */\n      0x20\n        /* \"@openzeppelin/contracts/utils/math/Math.sol\":25632:25644  result += 32 */\n      dup2\n      add\n      swap1\n      pop\n        /* \"@openzeppelin/contracts/utils/math/Math.sol\":25556:25659  if (value >= 10 ** 32) {... */\n    tag_249:\n        /* \"@openzeppelin/contracts/utils/math/Math.sol\":25685:25693  10 ** 16 */\n      0x2386f26fc10000\n        /* \"@openzeppelin/contracts/utils/math/Math.sol\":25676:25681  value */\n      dup4\n        /* \"@openzeppelin/contracts/utils/math/Math.sol\":25676:25693  value >= 10 ** 16 */\n      lt\n        /* \"@openzeppelin/contracts/utils/math/Math.sol\":25672:25775  if (value >= 10 ** 16) {... */\n      tag_252\n      jumpi\n        /* \"@openzeppelin/contracts/utils/math/Math.sol\":25722:25730  10 ** 16 */\n      0x2386f26fc10000\n        /* \"@openzeppelin/contracts/utils/math/Math.sol\":25713:25730  value /= 10 ** 16 */\n      dup4\n      dup2\n      tag_253\n      jumpi\n      tag_254\n      tag_243\n      jump\t// in\n    tag_254:\n    tag_253:\n      div\n      swap3\n      pop\n        /* \"@openzeppelin/contracts/utils/math/Math.sol\":25758:25760  16 */\n      0x10\n        /* \"@openzeppelin/contracts/utils/math/Math.sol\":25748:25760  result += 16 */\n      dup2\n      add\n      swap1\n      pop\n        /* \"@openzeppelin/contracts/utils/math/Math.sol\":25672:25775  if (value >= 10 ** 16) {... */\n    tag_252:\n        /* \"@openzeppelin/contracts/utils/math/Math.sol\":25801:25808  10 ** 8 */\n      0x05f5e100\n        /* \"@openzeppelin/contracts/utils/math/Math.sol\":25792:25797  value */\n      dup4\n        /* \"@openzeppelin/contracts/utils/math/Math.sol\":25792:25808  value >= 10 ** 8 */\n      lt\n        /* \"@openzeppelin/contracts/utils/math/Math.sol\":25788:25888  if (value >= 10 ** 8) {... */\n      tag_255\n      jumpi\n        /* \"@openzeppelin/contracts/utils/math/Math.sol\":25837:25844  10 ** 8 */\n      0x05f5e100\n        /* \"@openzeppelin/contracts/utils/math/Math.sol\":25828:25844  value /= 10 ** 8 */\n      dup4\n      dup2\n      tag_256\n      jumpi\n      tag_257\n      tag_243\n      jump\t// in\n    tag_257:\n    tag_256:\n      div\n      swap3\n      pop\n        /* \"@openzeppelin/contracts/utils/math/Math.sol\":25872:25873  8 */\n      0x08\n        /* \"@openzeppelin/contracts/utils/math/Math.sol\":25862:25873  result += 8 */\n      dup2\n      add\n      swap1\n      pop\n        /* \"@openzeppelin/contracts/utils/math/Math.sol\":25788:25888  if (value >= 10 ** 8) {... */\n    tag_255:\n        /* \"@openzeppelin/contracts/utils/math/Math.sol\":25914:25921  10 ** 4 */\n      0x2710\n        /* \"@openzeppelin/contracts/utils/math/Math.sol\":25905:25910  value */\n      dup4\n        /* \"@openzeppelin/contracts/utils/math/Math.sol\":25905:25921  value >= 10 ** 4 */\n      lt\n        /* \"@openzeppelin/contracts/utils/math/Math.sol\":25901:26001  if (value >= 10 ** 4) {... */\n      tag_258\n      jumpi\n        /* \"@openzeppelin/contracts/utils/math/Math.sol\":25950:25957  10 ** 4 */\n      0x2710\n        /* \"@openzeppelin/contracts/utils/math/Math.sol\":25941:25957  value /= 10 ** 4 */\n      dup4\n      dup2\n      tag_259\n      jumpi\n      tag_260\n      tag_243\n      jump\t// in\n    tag_260:\n    tag_259:\n      div\n      swap3\n      pop\n        /* \"@openzeppelin/contracts/utils/math/Math.sol\":25985:25986  4 */\n      0x04\n        /* \"@openzeppelin/contracts/utils/math/Math.sol\":25975:25986  result += 4 */\n      dup2\n      add\n      swap1\n      pop\n        /* \"@openzeppelin/contracts/utils/math/Math.sol\":25901:26001  if (value >= 10 ** 4) {... */\n    tag_258:\n        /* \"@openzeppelin/contracts/utils/math/Math.sol\":26027:26034  10 ** 2 */\n      0x64\n        /* \"@openzeppelin/contracts/utils/math/Math.sol\":26018:26023  value */\n      dup4\n        /* \"@openzeppelin/contracts/utils/math/Math.sol\":26018:26034  value >= 10 ** 2 */\n      lt\n        /* \"@openzeppelin/contracts/utils/math/Math.sol\":26014:26114  if (value >= 10 ** 2) {... */\n      tag_261\n      jumpi\n        /* \"@openzeppelin/contracts/utils/math/Math.sol\":26063:26070  10 ** 2 */\n      0x64\n        /* \"@openzeppelin/contracts/utils/math/Math.sol\":26054:26070  value /= 10 ** 2 */\n      dup4\n      dup2\n      tag_262\n      jumpi\n      tag_263\n      tag_243\n      jump\t// in\n    tag_263:\n    tag_262:\n      div\n      swap3\n      pop\n        /* \"@openzeppelin/contracts/utils/math/Math.sol\":26098:26099  2 */\n      0x02\n        /* \"@openzeppelin/contracts/utils/math/Math.sol\":26088:26099  result += 2 */\n      dup2\n      add\n      swap1\n      pop\n        /* \"@openzeppelin/contracts/utils/math/Math.sol\":26014:26114  if (value >= 10 ** 2) {... */\n    tag_261:\n        /* \"@openzeppelin/contracts/utils/math/Math.sol\":26140:26147  10 ** 1 */\n      0x0a\n        /* \"@openzeppelin/contracts/utils/math/Math.sol\":26131:26136  value */\n      dup4\n        /* \"@openzeppelin/contracts/utils/math/Math.sol\":26131:26147  value >= 10 ** 1 */\n      lt\n        /* \"@openzeppelin/contracts/utils/math/Math.sol\":26127:26193  if (value >= 10 ** 1) {... */\n      tag_264\n      jumpi\n        /* \"@openzeppelin/contracts/utils/math/Math.sol\":26177:26178  1 */\n      0x01\n        /* \"@openzeppelin/contracts/utils/math/Math.sol\":26167:26178  result += 1 */\n      dup2\n      add\n      swap1\n      pop\n        /* \"@openzeppelin/contracts/utils/math/Math.sol\":26127:26193  if (value >= 10 ** 1) {... */\n    tag_264:\n        /* \"@openzeppelin/contracts/utils/math/Math.sol\":26219:26225  result */\n      dup1\n        /* \"@openzeppelin/contracts/utils/math/Math.sol\":26212:26225  return result */\n      swap2\n      pop\n      pop\n        /* \"@openzeppelin/contracts/utils/math/Math.sol\":25316:26232  function log10(uint256 value) internal pure returns (uint256) {... */\n      swap2\n      swap1\n      pop\n      jump\t// out\n        /* \"#utility.yul\":7:133   */\n    tag_265:\n        /* \"#utility.yul\":44:51   */\n      0x00\n        /* \"#utility.yul\":84:126   */\n      0xffffffffffffffffffffffffffffffffffffffff\n        /* \"#utility.yul\":77:82   */\n      dup3\n        /* \"#utility.yul\":73:127   */\n      and\n        /* \"#utility.yul\":62:127   */\n      swap1\n      pop\n        /* \"#utility.yul\":7:133   */\n      swap2\n      swap1\n      pop\n      jump\t// out\n        /* \"#utility.yul\":139:235   */\n    tag_266:\n        /* \"#utility.yul\":176:183   */\n      0x00\n        /* \"#utility.yul\":205:229   */\n      tag_322\n        /* \"#utility.yul\":223:228   */\n      dup3\n        /* \"#utility.yul\":205:229   */\n      tag_265\n      jump\t// in\n    tag_322:\n        /* \"#utility.yul\":194:229   */\n      swap1\n      pop\n        /* \"#utility.yul\":139:235   */\n      swap2\n      swap1\n      pop\n      jump\t// out\n        /* \"#utility.yul\":241:359   */\n    tag_267:\n        /* \"#utility.yul\":328:352   */\n      tag_324\n        /* \"#utility.yul\":346:351   */\n      dup2\n        /* \"#utility.yul\":328:352   */\n      tag_266\n      jump\t// in\n    tag_324:\n        /* \"#utility.yul\":323:326   */\n      dup3\n        /* \"#utility.yul\":316:353   */\n      mstore\n        /* \"#utility.yul\":241:359   */\n      pop\n      pop\n      jump\t// out\n        /* \"#utility.yul\":365:587   */\n    tag_30:\n        /* \"#utility.yul\":458:462   */\n      0x00\n        /* \"#utility.yul\":496:498   */\n      0x20\n        /* \"#utility.yul\":485:494   */\n      dup3\n        /* \"#utility.yul\":481:499   */\n      add\n        /* \"#utility.yul\":473:499   */\n      swap1\n      pop\n        /* \"#utility.yul\":509:580   */\n      tag_326\n        /* \"#utility.yul\":577:578   */\n      0x00\n        /* \"#utility.yul\":566:575   */\n      dup4\n        /* \"#utility.yul\":562:579   */\n      add\n        /* \"#utility.yul\":553:559   */\n      dup5\n        /* \"#utility.yul\":509:580   */\n      tag_267\n      jump\t// in\n    tag_326:\n        /* \"#utility.yul\":365:587   */\n      swap3\n      swap2\n      pop\n      pop\n      jump\t// out\n        /* \"#utility.yul\":674:791   */\n    tag_269:\n        /* \"#utility.yul\":783:784   */\n      0x00\n        /* \"#utility.yul\":780:781   */\n      dup1\n        /* \"#utility.yul\":773:785   */\n      revert\n        /* \"#utility.yul\":920:1042   */\n    tag_271:\n        /* \"#utility.yul\":993:1017   */\n      tag_331\n        /* \"#utility.yul\":1011:1016   */\n      dup2\n        /* \"#utility.yul\":993:1017   */\n      tag_266\n      jump\t// in\n    tag_331:\n        /* \"#utility.yul\":986:991   */\n      dup2\n        /* \"#utility.yul\":983:1018   */\n      eq\n        /* \"#utility.yul\":973:1036   */\n      tag_332\n      jumpi\n        /* \"#utility.yul\":1032:1033   */\n      0x00\n        /* \"#utility.yul\":1029:1030   */\n      dup1\n        /* \"#utility.yul\":1022:1034   */\n      revert\n        /* \"#utility.yul\":973:1036   */\n    tag_332:\n        /* \"#utility.yul\":920:1042   */\n      pop\n      jump\t// out\n        /* \"#utility.yul\":1048:1187   */\n    tag_272:\n        /* \"#utility.yul\":1094:1099   */\n      0x00\n        /* \"#utility.yul\":1132:1138   */\n      dup2\n        /* \"#utility.yul\":1119:1139   */\n      calldataload\n        /* \"#utility.yul\":1110:1139   */\n      swap1\n      pop\n        /* \"#utility.yul\":1148:1181   */\n      tag_334\n        /* \"#utility.yul\":1175:1180   */\n      dup2\n        /* \"#utility.yul\":1148:1181   */\n      tag_271\n      jump\t// in\n    tag_334:\n        /* \"#utility.yul\":1048:1187   */\n      swap3\n      swap2\n      pop\n      pop\n      jump\t// out\n        /* \"#utility.yul\":1193:1522   */\n    tag_34:\n        /* \"#utility.yul\":1252:1258   */\n      0x00\n        /* \"#utility.yul\":1301:1303   */\n      0x20\n        /* \"#utility.yul\":1289:1298   */\n      dup3\n        /* \"#utility.yul\":1280:1287   */\n      dup5\n        /* \"#utility.yul\":1276:1299   */\n      sub\n        /* \"#utility.yul\":1272:1304   */\n      slt\n        /* \"#utility.yul\":1269:1388   */\n      iszero\n      tag_336\n      jumpi\n        /* \"#utility.yul\":1307:1386   */\n      tag_337\n      tag_269\n      jump\t// in\n    tag_337:\n        /* \"#utility.yul\":1269:1388   */\n    tag_336:\n        /* \"#utility.yul\":1427:1428   */\n      0x00\n        /* \"#utility.yul\":1452:1505   */\n      tag_338\n        /* \"#utility.yul\":1497:1504   */\n      dup5\n        /* \"#utility.yul\":1488:1494   */\n      dup3\n        /* \"#utility.yul\":1477:1486   */\n      dup6\n        /* \"#utility.yul\":1473:1495   */\n      add\n        /* \"#utility.yul\":1452:1505   */\n      tag_272\n      jump\t// in\n    tag_338:\n        /* \"#utility.yul\":1442:1505   */\n      swap2\n      pop\n        /* \"#utility.yul\":1398:1515   */\n      pop\n        /* \"#utility.yul\":1193:1522   */\n      swap3\n      swap2\n      pop\n      pop\n      jump\t// out\n        /* \"#utility.yul\":1528:1605   */\n    tag_273:\n        /* \"#utility.yul\":1565:1572   */\n      0x00\n        /* \"#utility.yul\":1594:1599   */\n      dup2\n        /* \"#utility.yul\":1583:1599   */\n      swap1\n      pop\n        /* \"#utility.yul\":1528:1605   */\n      swap2\n      swap1\n      pop\n      jump\t// out\n        /* \"#utility.yul\":1611:1729   */\n    tag_274:\n        /* \"#utility.yul\":1698:1722   */\n      tag_341\n        /* \"#utility.yul\":1716:1721   */\n      dup2\n        /* \"#utility.yul\":1698:1722   */\n      tag_273\n      jump\t// in\n    tag_341:\n        /* \"#utility.yul\":1693:1696   */\n      dup3\n        /* \"#utility.yul\":1686:1723   */\n      mstore\n        /* \"#utility.yul\":1611:1729   */\n      pop\n      pop\n      jump\t// out\n        /* \"#utility.yul\":1735:2177   */\n    tag_37:\n        /* \"#utility.yul\":1884:1888   */\n      0x00\n        /* \"#utility.yul\":1922:1924   */\n      0x60\n        /* \"#utility.yul\":1911:1920   */\n      dup3\n        /* \"#utility.yul\":1907:1925   */\n      add\n        /* \"#utility.yul\":1899:1925   */\n      swap1\n      pop\n        /* \"#utility.yul\":1935:2006   */\n      tag_343\n        /* \"#utility.yul\":2003:2004   */\n      0x00\n        /* \"#utility.yul\":1992:2001   */\n      dup4\n        /* \"#utility.yul\":1988:2005   */\n      add\n        /* \"#utility.yul\":1979:1985   */\n      dup7\n        /* \"#utility.yul\":1935:2006   */\n      tag_274\n      jump\t// in\n    tag_343:\n        /* \"#utility.yul\":2016:2088   */\n      tag_344\n        /* \"#utility.yul\":2084:2086   */\n      0x20\n        /* \"#utility.yul\":2073:2082   */\n      dup4\n        /* \"#utility.yul\":2069:2087   */\n      add\n        /* \"#utility.yul\":2060:2066   */\n      dup6\n        /* \"#utility.yul\":2016:2088   */\n      tag_274\n      jump\t// in\n    tag_344:\n        /* \"#utility.yul\":2098:2170   */\n      tag_345\n        /* \"#utility.yul\":2166:2168   */\n      0x40\n        /* \"#utility.yul\":2155:2164   */\n      dup4\n        /* \"#utility.yul\":2151:2169   */\n      add\n        /* \"#utility.yul\":2142:2148   */\n      dup5\n        /* \"#utility.yul\":2098:2170   */\n      tag_274\n      jump\t// in\n    tag_345:\n        /* \"#utility.yul\":1735:2177   */\n      swap5\n      swap4\n      pop\n      pop\n      pop\n      pop\n      jump\t// out\n        /* \"#utility.yul\":2183:2405   */\n    tag_44:\n        /* \"#utility.yul\":2276:2280   */\n      0x00\n        /* \"#utility.yul\":2314:2316   */\n      0x20\n        /* \"#utility.yul\":2303:2312   */\n      dup3\n        /* \"#utility.yul\":2299:2317   */\n      add\n        /* \"#utility.yul\":2291:2317   */\n      swap1\n      pop\n        /* \"#utility.yul\":2327:2398   */\n      tag_347\n        /* \"#utility.yul\":2395:2396   */\n      0x00\n        /* \"#utility.yul\":2384:2393   */\n      dup4\n        /* \"#utility.yul\":2380:2397   */\n      add\n        /* \"#utility.yul\":2371:2377   */\n      dup5\n        /* \"#utility.yul\":2327:2398   */\n      tag_274\n      jump\t// in\n    tag_347:\n        /* \"#utility.yul\":2183:2405   */\n      swap3\n      swap2\n      pop\n      pop\n      jump\t// out\n        /* \"#utility.yul\":2411:2533   */\n    tag_275:\n        /* \"#utility.yul\":2484:2508   */\n      tag_349\n        /* \"#utility.yul\":2502:2507   */\n      dup2\n        /* \"#utility.yul\":2484:2508   */\n      tag_273\n      jump\t// in\n    tag_349:\n        /* \"#utility.yul\":2477:2482   */\n      dup2\n        /* \"#utility.yul\":2474:2509   */\n      eq\n        /* \"#utility.yul\":2464:2527   */\n      tag_350\n      jumpi\n        /* \"#utility.yul\":2523:2524   */\n      0x00\n        /* \"#utility.yul\":2520:2521   */\n      dup1\n        /* \"#utility.yul\":2513:2525   */\n      revert\n        /* \"#utility.yul\":2464:2527   */\n    tag_350:\n        /* \"#utility.yul\":2411:2533   */\n      pop\n      jump\t// out\n        /* \"#utility.yul\":2539:2678   */\n    tag_276:\n        /* \"#utility.yul\":2585:2590   */\n      0x00\n        /* \"#utility.yul\":2623:2629   */\n      dup2\n        /* \"#utility.yul\":2610:2630   */\n      calldataload\n        /* \"#utility.yul\":2601:2630   */\n      swap1\n      pop\n        /* \"#utility.yul\":2639:2672   */\n      tag_352\n        /* \"#utility.yul\":2666:2671   */\n      dup2\n        /* \"#utility.yul\":2639:2672   */\n      tag_275\n      jump\t// in\n    tag_352:\n        /* \"#utility.yul\":2539:2678   */\n      swap3\n      swap2\n      pop\n      pop\n      jump\t// out\n        /* \"#utility.yul\":2684:3449   */\n    tag_55:\n        /* \"#utility.yul\":2770:2776   */\n      0x00\n        /* \"#utility.yul\":2778:2784   */\n      dup1\n        /* \"#utility.yul\":2786:2792   */\n      0x00\n        /* \"#utility.yul\":2794:2800   */\n      dup1\n        /* \"#utility.yul\":2843:2846   */\n      0x80\n        /* \"#utility.yul\":2831:2840   */\n      dup6\n        /* \"#utility.yul\":2822:2829   */\n      dup8\n        /* \"#utility.yul\":2818:2841   */\n      sub\n        /* \"#utility.yul\":2814:2847   */\n      slt\n        /* \"#utility.yul\":2811:2931   */\n      iszero\n      tag_354\n      jumpi\n        /* \"#utility.yul\":2850:2929   */\n      tag_355\n      tag_269\n      jump\t// in\n    tag_355:\n        /* \"#utility.yul\":2811:2931   */\n    tag_354:\n        /* \"#utility.yul\":2970:2971   */\n      0x00\n        /* \"#utility.yul\":2995:3048   */\n      tag_356\n        /* \"#utility.yul\":3040:3047   */\n      dup8\n        /* \"#utility.yul\":3031:3037   */\n      dup3\n        /* \"#utility.yul\":3020:3029   */\n      dup9\n        /* \"#utility.yul\":3016:3038   */\n      add\n        /* \"#utility.yul\":2995:3048   */\n      tag_276\n      jump\t// in\n    tag_356:\n        /* \"#utility.yul\":2985:3048   */\n      swap5\n      pop\n        /* \"#utility.yul\":2941:3058   */\n      pop\n        /* \"#utility.yul\":3097:3099   */\n      0x20\n        /* \"#utility.yul\":3123:3176   */\n      tag_357\n        /* \"#utility.yul\":3168:3175   */\n      dup8\n        /* \"#utility.yul\":3159:3165   */\n      dup3\n        /* \"#utility.yul\":3148:3157   */\n      dup9\n        /* \"#utility.yul\":3144:3166   */\n      add\n        /* \"#utility.yul\":3123:3176   */\n      tag_276\n      jump\t// in\n    tag_357:\n        /* \"#utility.yul\":3113:3176   */\n      swap4\n      pop\n        /* \"#utility.yul\":3068:3186   */\n      pop\n        /* \"#utility.yul\":3225:3227   */\n      0x40\n        /* \"#utility.yul\":3251:3304   */\n      tag_358\n        /* \"#utility.yul\":3296:3303   */\n      dup8\n        /* \"#utility.yul\":3287:3293   */\n      dup3\n        /* \"#utility.yul\":3276:3285   */\n      dup9\n        /* \"#utility.yul\":3272:3294   */\n      add\n        /* \"#utility.yul\":3251:3304   */\n      tag_276\n      jump\t// in\n    tag_358:\n        /* \"#utility.yul\":3241:3304   */\n      swap3\n      pop\n        /* \"#utility.yul\":3196:3314   */\n      pop\n        /* \"#utility.yul\":3353:3355   */\n      0x60\n        /* \"#utility.yul\":3379:3432   */\n      tag_359\n        /* \"#utility.yul\":3424:3431   */\n      dup8\n        /* \"#utility.yul\":3415:3421   */\n      dup3\n        /* \"#utility.yul\":3404:3413   */\n      dup9\n        /* \"#utility.yul\":3400:3422   */\n      add\n        /* \"#utility.yul\":3379:3432   */\n      tag_276\n      jump\t// in\n    tag_359:\n        /* \"#utility.yul\":3369:3432   */\n      swap2\n      pop\n        /* \"#utility.yul\":3324:3442   */\n      pop\n        /* \"#utility.yul\":2684:3449   */\n      swap3\n      swap6\n      swap2\n      swap5\n      pop\n      swap3\n      pop\n      jump\t// out\n        /* \"#utility.yul\":3455:3545   */\n    tag_277:\n        /* \"#utility.yul\":3489:3496   */\n      0x00\n        /* \"#utility.yul\":3532:3537   */\n      dup2\n        /* \"#utility.yul\":3525:3538   */\n      iszero\n        /* \"#utility.yul\":3518:3539   */\n      iszero\n        /* \"#utility.yul\":3507:3539   */\n      swap1\n      pop\n        /* \"#utility.yul\":3455:3545   */\n      swap2\n      swap1\n      pop\n      jump\t// out\n        /* \"#utility.yul\":3551:3660   */\n    tag_278:\n        /* \"#utility.yul\":3632:3653   */\n      tag_362\n        /* \"#utility.yul\":3647:3652   */\n      dup2\n        /* \"#utility.yul\":3632:3653   */\n      tag_277\n      jump\t// in\n    tag_362:\n        /* \"#utility.yul\":3627:3630   */\n      dup3\n        /* \"#utility.yul\":3620:3654   */\n      mstore\n        /* \"#utility.yul\":3551:3660   */\n      pop\n      pop\n      jump\t// out\n        /* \"#utility.yul\":3666:3876   */\n    tag_69:\n        /* \"#utility.yul\":3753:3757   */\n      0x00\n        /* \"#utility.yul\":3791:3793   */\n      0x20\n        /* \"#utility.yul\":3780:3789   */\n      dup3\n        /* \"#utility.yul\":3776:3794   */\n      add\n        /* \"#utility.yul\":3768:3794   */\n      swap1\n      pop\n        /* \"#utility.yul\":3804:3869   */\n      tag_364\n        /* \"#utility.yul\":3866:3867   */\n      0x00\n        /* \"#utility.yul\":3855:3864   */\n      dup4\n        /* \"#utility.yul\":3851:3868   */\n      add\n        /* \"#utility.yul\":3842:3848   */\n      dup5\n        /* \"#utility.yul\":3804:3869   */\n      tag_278\n      jump\t// in\n    tag_364:\n        /* \"#utility.yul\":3666:3876   */\n      swap3\n      swap2\n      pop\n      pop\n      jump\t// out\n        /* \"#utility.yul\":3882:4051   */\n    tag_279:\n        /* \"#utility.yul\":3966:3977   */\n      0x00\n        /* \"#utility.yul\":4000:4006   */\n      dup3\n        /* \"#utility.yul\":3995:3998   */\n      dup3\n        /* \"#utility.yul\":3988:4007   */\n      mstore\n        /* \"#utility.yul\":4040:4044   */\n      0x20\n        /* \"#utility.yul\":4035:4038   */\n      dup3\n        /* \"#utility.yul\":4031:4045   */\n      add\n        /* \"#utility.yul\":4016:4045   */\n      swap1\n      pop\n        /* \"#utility.yul\":3882:4051   */\n      swap3\n      swap2\n      pop\n      pop\n      jump\t// out\n        /* \"#utility.yul\":4057:4279   */\n    tag_280:\n        /* \"#utility.yul\":4197:4231   */\n      0x4f6e6c79206973737565722063616e2063616c6c20746869732066756e637469\n        /* \"#utility.yul\":4193:4194   */\n      0x00\n        /* \"#utility.yul\":4185:4191   */\n      dup3\n        /* \"#utility.yul\":4181:4195   */\n      add\n        /* \"#utility.yul\":4174:4232   */\n      mstore\n        /* \"#utility.yul\":4266:4271   */\n      0x6f6e2e0000000000000000000000000000000000000000000000000000000000\n        /* \"#utility.yul\":4261:4263   */\n      0x20\n        /* \"#utility.yul\":4253:4259   */\n      dup3\n        /* \"#utility.yul\":4249:4264   */\n      add\n        /* \"#utility.yul\":4242:4272   */\n      mstore\n        /* \"#utility.yul\":4057:4279   */\n      pop\n      jump\t// out\n        /* \"#utility.yul\":4285:4651   */\n    tag_281:\n        /* \"#utility.yul\":4427:4430   */\n      0x00\n        /* \"#utility.yul\":4448:4515   */\n      tag_368\n        /* \"#utility.yul\":4512:4514   */\n      0x23\n        /* \"#utility.yul\":4507:4510   */\n      dup4\n        /* \"#utility.yul\":4448:4515   */\n      tag_279\n      jump\t// in\n    tag_368:\n        /* \"#utility.yul\":4441:4515   */\n      swap2\n      pop\n        /* \"#utility.yul\":4524:4617   */\n      tag_369\n        /* \"#utility.yul\":4613:4616   */\n      dup3\n        /* \"#utility.yul\":4524:4617   */\n      tag_280\n      jump\t// in\n    tag_369:\n        /* \"#utility.yul\":4642:4644   */\n      0x40\n        /* \"#utility.yul\":4637:4640   */\n      dup3\n        /* \"#utility.yul\":4633:4645   */\n      add\n        /* \"#utility.yul\":4626:4645   */\n      swap1\n      pop\n        /* \"#utility.yul\":4285:4651   */\n      swap2\n      swap1\n      pop\n      jump\t// out\n        /* \"#utility.yul\":4657:5076   */\n    tag_91:\n        /* \"#utility.yul\":4823:4827   */\n      0x00\n        /* \"#utility.yul\":4861:4863   */\n      0x20\n        /* \"#utility.yul\":4850:4859   */\n      dup3\n        /* \"#utility.yul\":4846:4864   */\n      add\n        /* \"#utility.yul\":4838:4864   */\n      swap1\n      pop\n        /* \"#utility.yul\":4910:4919   */\n      dup2\n        /* \"#utility.yul\":4904:4908   */\n      dup2\n        /* \"#utility.yul\":4900:4920   */\n      sub\n        /* \"#utility.yul\":4896:4897   */\n      0x00\n        /* \"#utility.yul\":4885:4894   */\n      dup4\n        /* \"#utility.yul\":4881:4898   */\n      add\n        /* \"#utility.yul\":4874:4921   */\n      mstore\n        /* \"#utility.yul\":4938:5069   */\n      tag_371\n        /* \"#utility.yul\":5064:5068   */\n      dup2\n        /* \"#utility.yul\":4938:5069   */\n      tag_281\n      jump\t// in\n    tag_371:\n        /* \"#utility.yul\":4930:5069   */\n      swap1\n      pop\n        /* \"#utility.yul\":4657:5076   */\n      swap2\n      swap1\n      pop\n      jump\t// out\n        /* \"#utility.yul\":5082:5302   */\n    tag_282:\n        /* \"#utility.yul\":5222:5256   */\n      0x416d6f756e74206d7573742062652067726561746572207468616e207a65726f\n        /* \"#utility.yul\":5218:5219   */\n      0x00\n        /* \"#utility.yul\":5210:5216   */\n      dup3\n        /* \"#utility.yul\":5206:5220   */\n      add\n        /* \"#utility.yul\":5199:5257   */\n      mstore\n        /* \"#utility.yul\":5291:5294   */\n      0x2e00000000000000000000000000000000000000000000000000000000000000\n        /* \"#utility.yul\":5286:5288   */\n      0x20\n        /* \"#utility.yul\":5278:5284   */\n      dup3\n        /* \"#utility.yul\":5274:5289   */\n      add\n        /* \"#utility.yul\":5267:5295   */\n      mstore\n        /* \"#utility.yul\":5082:5302   */\n      pop\n      jump\t// out\n        /* \"#utility.yul\":5308:5674   */\n    tag_283:\n        /* \"#utility.yul\":5450:5453   */\n      0x00\n        /* \"#utility.yul\":5471:5538   */\n      tag_374\n        /* \"#utility.yul\":5535:5537   */\n      0x21\n        /* \"#utility.yul\":5530:5533   */\n      dup4\n        /* \"#utility.yul\":5471:5538   */\n      tag_279\n      jump\t// in\n    tag_374:\n        /* \"#utility.yul\":5464:5538   */\n      swap2\n      pop\n        /* \"#utility.yul\":5547:5640   */\n      tag_375\n        /* \"#utility.yul\":5636:5639   */\n      dup3\n        /* \"#utility.yul\":5547:5640   */\n      tag_282\n      jump\t// in\n    tag_375:\n        /* \"#utility.yul\":5665:5667   */\n      0x40\n        /* \"#utility.yul\":5660:5663   */\n      dup3\n        /* \"#utility.yul\":5656:5668   */\n      add\n        /* \"#utility.yul\":5649:5668   */\n      swap1\n      pop\n        /* \"#utility.yul\":5308:5674   */\n      swap2\n      swap1\n      pop\n      jump\t// out\n        /* \"#utility.yul\":5680:6099   */\n    tag_95:\n        /* \"#utility.yul\":5846:5850   */\n      0x00\n        /* \"#utility.yul\":5884:5886   */\n      0x20\n        /* \"#utility.yul\":5873:5882   */\n      dup3\n        /* \"#utility.yul\":5869:5887   */\n      add\n        /* \"#utility.yul\":5861:5887   */\n      swap1\n      pop\n        /* \"#utility.yul\":5933:5942   */\n      dup2\n        /* \"#utility.yul\":5927:5931   */\n      dup2\n        /* \"#utility.yul\":5923:5943   */\n      sub\n        /* \"#utility.yul\":5919:5920   */\n      0x00\n        /* \"#utility.yul\":5908:5917   */\n      dup4\n        /* \"#utility.yul\":5904:5921   */\n      add\n        /* \"#utility.yul\":5897:5944   */\n      mstore\n        /* \"#utility.yul\":5961:6092   */\n      tag_377\n        /* \"#utility.yul\":6087:6091   */\n      dup2\n        /* \"#utility.yul\":5961:6092   */\n      tag_283\n      jump\t// in\n    tag_377:\n        /* \"#utility.yul\":5953:6092   */\n      swap1\n      pop\n        /* \"#utility.yul\":5680:6099   */\n      swap2\n      swap1\n      pop\n      jump\t// out\n        /* \"#utility.yul\":6105:6287   */\n    tag_284:\n        /* \"#utility.yul\":6245:6279   */\n      0x596f7520646f206e6f74206861766520626f6e647320746f2072656465656d2e\n        /* \"#utility.yul\":6241:6242   */\n      0x00\n        /* \"#utility.yul\":6233:6239   */\n      dup3\n        /* \"#utility.yul\":6229:6243   */\n      add\n        /* \"#utility.yul\":6222:6280   */\n      mstore\n        /* \"#utility.yul\":6105:6287   */\n      pop\n      jump\t// out\n        /* \"#utility.yul\":6293:6659   */\n    tag_285:\n        /* \"#utility.yul\":6435:6438   */\n      0x00\n        /* \"#utility.yul\":6456:6523   */\n      tag_380\n        /* \"#utility.yul\":6520:6522   */\n      0x20\n        /* \"#utility.yul\":6515:6518   */\n      dup4\n        /* \"#utility.yul\":6456:6523   */\n      tag_279\n      jump\t// in\n    tag_380:\n        /* \"#utility.yul\":6449:6523   */\n      swap2\n      pop\n        /* \"#utility.yul\":6532:6625   */\n      tag_381\n        /* \"#utility.yul\":6621:6624   */\n      dup3\n        /* \"#utility.yul\":6532:6625   */\n      tag_284\n      jump\t// in\n    tag_381:\n        /* \"#utility.yul\":6650:6652   */\n      0x20\n        /* \"#utility.yul\":6645:6648   */\n      dup3\n        /* \"#utility.yul\":6641:6653   */\n      add\n        /* \"#utility.yul\":6634:6653   */\n      swap1\n      pop\n        /* \"#utility.yul\":6293:6659   */\n      swap2\n      swap1\n      pop\n      jump\t// out\n        /* \"#utility.yul\":6665:7084   */\n    tag_99:\n        /* \"#utility.yul\":6831:6835   */\n      0x00\n        /* \"#utility.yul\":6869:6871   */\n      0x20\n        /* \"#utility.yul\":6858:6867   */\n      dup3\n        /* \"#utility.yul\":6854:6872   */\n      add\n        /* \"#utility.yul\":6846:6872   */\n      swap1\n      pop\n        /* \"#utility.yul\":6918:6927   */\n      dup2\n        /* \"#utility.yul\":6912:6916   */\n      dup2\n        /* \"#utility.yul\":6908:6928   */\n      sub\n        /* \"#utility.yul\":6904:6905   */\n      0x00\n        /* \"#utility.yul\":6893:6902   */\n      dup4\n        /* \"#utility.yul\":6889:6906   */\n      add\n        /* \"#utility.yul\":6882:6929   */\n      mstore\n        /* \"#utility.yul\":6946:7077   */\n      tag_383\n        /* \"#utility.yul\":7072:7076   */\n      dup2\n        /* \"#utility.yul\":6946:7077   */\n      tag_285\n      jump\t// in\n    tag_383:\n        /* \"#utility.yul\":6938:7077   */\n      swap1\n      pop\n        /* \"#utility.yul\":6665:7084   */\n      swap2\n      swap1\n      pop\n      jump\t// out\n        /* \"#utility.yul\":7090:7270   */\n    tag_286:\n        /* \"#utility.yul\":7138:7215   */\n      0x4e487b7100000000000000000000000000000000000000000000000000000000\n        /* \"#utility.yul\":7135:7136   */\n      0x00\n        /* \"#utility.yul\":7128:7216   */\n      mstore\n        /* \"#utility.yul\":7235:7239   */\n      0x11\n        /* \"#utility.yul\":7232:7233   */\n      0x04\n        /* \"#utility.yul\":7225:7240   */\n      mstore\n        /* \"#utility.yul\":7259:7263   */\n      0x24\n        /* \"#utility.yul\":7256:7257   */\n      0x00\n        /* \"#utility.yul\":7249:7264   */\n      revert\n        /* \"#utility.yul\":7276:7686   */\n    tag_101:\n        /* \"#utility.yul\":7316:7323   */\n      0x00\n        /* \"#utility.yul\":7339:7359   */\n      tag_386\n        /* \"#utility.yul\":7357:7358   */\n      dup3\n        /* \"#utility.yul\":7339:7359   */\n      tag_273\n      jump\t// in\n    tag_386:\n        /* \"#utility.yul\":7334:7359   */\n      swap2\n      pop\n        /* \"#utility.yul\":7373:7393   */\n      tag_387\n        /* \"#utility.yul\":7391:7392   */\n      dup4\n        /* \"#utility.yul\":7373:7393   */\n      tag_273\n      jump\t// in\n    tag_387:\n        /* \"#utility.yul\":7368:7393   */\n      swap3\n      pop\n        /* \"#utility.yul\":7428:7429   */\n      dup3\n        /* \"#utility.yul\":7425:7426   */\n      dup3\n        /* \"#utility.yul\":7421:7430   */\n      mul\n        /* \"#utility.yul\":7450:7480   */\n      tag_388\n        /* \"#utility.yul\":7468:7479   */\n      dup2\n        /* \"#utility.yul\":7450:7480   */\n      tag_273\n      jump\t// in\n    tag_388:\n        /* \"#utility.yul\":7439:7480   */\n      swap2\n      pop\n        /* \"#utility.yul\":7629:7630   */\n      dup3\n        /* \"#utility.yul\":7620:7627   */\n      dup3\n        /* \"#utility.yul\":7616:7631   */\n      div\n        /* \"#utility.yul\":7613:7614   */\n      dup5\n        /* \"#utility.yul\":7610:7632   */\n      eq\n        /* \"#utility.yul\":7590:7591   */\n      dup4\n        /* \"#utility.yul\":7583:7592   */\n      iszero\n        /* \"#utility.yul\":7563:7646   */\n      or\n        /* \"#utility.yul\":7540:7679   */\n      tag_389\n      jumpi\n        /* \"#utility.yul\":7659:7677   */\n      tag_390\n      tag_286\n      jump\t// in\n    tag_390:\n        /* \"#utility.yul\":7540:7679   */\n    tag_389:\n        /* \"#utility.yul\":7324:7686   */\n      pop\n        /* \"#utility.yul\":7276:7686   */\n      swap3\n      swap2\n      pop\n      pop\n      jump\t// out\n        /* \"#utility.yul\":7692:7886   */\n    tag_103:\n        /* \"#utility.yul\":7732:7736   */\n      0x00\n        /* \"#utility.yul\":7752:7772   */\n      tag_392\n        /* \"#utility.yul\":7770:7771   */\n      dup3\n        /* \"#utility.yul\":7752:7772   */\n      tag_273\n      jump\t// in\n    tag_392:\n        /* \"#utility.yul\":7747:7772   */\n      swap2\n      pop\n        /* \"#utility.yul\":7786:7806   */\n      tag_393\n        /* \"#utility.yul\":7804:7805   */\n      dup4\n        /* \"#utility.yul\":7786:7806   */\n      tag_273\n      jump\t// in\n    tag_393:\n        /* \"#utility.yul\":7781:7806   */\n      swap3\n      pop\n        /* \"#utility.yul\":7830:7831   */\n      dup3\n        /* \"#utility.yul\":7827:7828   */\n      dup3\n        /* \"#utility.yul\":7823:7832   */\n      sub\n        /* \"#utility.yul\":7815:7832   */\n      swap1\n      pop\n        /* \"#utility.yul\":7854:7855   */\n      dup2\n        /* \"#utility.yul\":7848:7852   */\n      dup2\n        /* \"#utility.yul\":7845:7856   */\n      gt\n        /* \"#utility.yul\":7842:7879   */\n      iszero\n      tag_394\n      jumpi\n        /* \"#utility.yul\":7859:7877   */\n      tag_395\n      tag_286\n      jump\t// in\n    tag_395:\n        /* \"#utility.yul\":7842:7879   */\n    tag_394:\n        /* \"#utility.yul\":7692:7886   */\n      swap3\n      swap2\n      pop\n      pop\n      jump\t// out\n        /* \"#utility.yul\":7892:8072   */\n    tag_243:\n        /* \"#utility.yul\":7940:8017   */\n      0x4e487b7100000000000000000000000000000000000000000000000000000000\n        /* \"#utility.yul\":7937:7938   */\n      0x00\n        /* \"#utility.yul\":7930:8018   */\n      mstore\n        /* \"#utility.yul\":8037:8041   */\n      0x12\n        /* \"#utility.yul\":8034:8035   */\n      0x04\n        /* \"#utility.yul\":8027:8042   */\n      mstore\n        /* \"#utility.yul\":8061:8065   */\n      0x24\n        /* \"#utility.yul\":8058:8059   */\n      0x00\n        /* \"#utility.yul\":8051:8066   */\n      revert\n        /* \"#utility.yul\":8078:8263   */\n    tag_107:\n        /* \"#utility.yul\":8118:8119   */\n      0x00\n        /* \"#utility.yul\":8135:8155   */\n      tag_398\n        /* \"#utility.yul\":8153:8154   */\n      dup3\n        /* \"#utility.yul\":8135:8155   */\n      tag_273\n      jump\t// in\n    tag_398:\n        /* \"#utility.yul\":8130:8155   */\n      swap2\n      pop\n        /* \"#utility.yul\":8169:8189   */\n      tag_399\n        /* \"#utility.yul\":8187:8188   */\n      dup4\n        /* \"#utility.yul\":8169:8189   */\n      tag_273\n      jump\t// in\n    tag_399:\n        /* \"#utility.yul\":8164:8189   */\n      swap3\n      pop\n        /* \"#utility.yul\":8208:8209   */\n      dup3\n        /* \"#utility.yul\":8198:8233   */\n      tag_400\n      jumpi\n        /* \"#utility.yul\":8213:8231   */\n      tag_401\n      tag_243\n      jump\t// in\n    tag_401:\n        /* \"#utility.yul\":8198:8233   */\n    tag_400:\n        /* \"#utility.yul\":8255:8256   */\n      dup3\n        /* \"#utility.yul\":8252:8253   */\n      dup3\n        /* \"#utility.yul\":8248:8257   */\n      div\n        /* \"#utility.yul\":8243:8257   */\n      swap1\n      pop\n        /* \"#utility.yul\":8078:8263   */\n      swap3\n      swap2\n      pop\n      pop\n      jump\t// out\n        /* \"#utility.yul\":8269:8460   */\n    tag_109:\n        /* \"#utility.yul\":8309:8312   */\n      0x00\n        /* \"#utility.yul\":8328:8348   */\n      tag_403\n        /* \"#utility.yul\":8346:8347   */\n      dup3\n        /* \"#utility.yul\":8328:8348   */\n      tag_273\n      jump\t// in\n    tag_403:\n        /* \"#utility.yul\":8323:8348   */\n      swap2\n      pop\n        /* \"#utility.yul\":8362:8382   */\n      tag_404\n        /* \"#utility.yul\":8380:8381   */\n      dup4\n        /* \"#utility.yul\":8362:8382   */\n      tag_273\n      jump\t// in\n    tag_404:\n        /* \"#utility.yul\":8357:8382   */\n      swap3\n      pop\n        /* \"#utility.yul\":8405:8406   */\n      dup3\n        /* \"#utility.yul\":8402:8403   */\n      dup3\n        /* \"#utility.yul\":8398:8407   */\n      add\n        /* \"#utility.yul\":8391:8407   */\n      swap1\n      pop\n        /* \"#utility.yul\":8426:8429   */\n      dup1\n        /* \"#utility.yul\":8423:8424   */\n      dup3\n        /* \"#utility.yul\":8420:8430   */\n      gt\n        /* \"#utility.yul\":8417:8453   */\n      iszero\n      tag_405\n      jumpi\n        /* \"#utility.yul\":8433:8451   */\n      tag_406\n      tag_286\n      jump\t// in\n    tag_406:\n        /* \"#utility.yul\":8417:8453   */\n    tag_405:\n        /* \"#utility.yul\":8269:8460   */\n      swap3\n      swap2\n      pop\n      pop\n      jump\t// out\n        /* \"#utility.yul\":8466:8643   */\n    tag_287:\n        /* \"#utility.yul\":8606:8635   */\n      0x426f6e642073616c6520706572696f642068617320656e6465642e0000000000\n        /* \"#utility.yul\":8602:8603   */\n      0x00\n        /* \"#utility.yul\":8594:8600   */\n      dup3\n        /* \"#utility.yul\":8590:8604   */\n      add\n        /* \"#utility.yul\":8583:8636   */\n      mstore\n        /* \"#utility.yul\":8466:8643   */\n      pop\n      jump\t// out\n        /* \"#utility.yul\":8649:9015   */\n    tag_288:\n        /* \"#utility.yul\":8791:8794   */\n      0x00\n        /* \"#utility.yul\":8812:8879   */\n      tag_409\n        /* \"#utility.yul\":8876:8878   */\n      0x1b\n        /* \"#utility.yul\":8871:8874   */\n      dup4\n        /* \"#utility.yul\":8812:8879   */\n      tag_279\n      jump\t// in\n    tag_409:\n        /* \"#utility.yul\":8805:8879   */\n      swap2\n      pop\n        /* \"#utility.yul\":8888:8981   */\n      tag_410\n        /* \"#utility.yul\":8977:8980   */\n      dup3\n        /* \"#utility.yul\":8888:8981   */\n      tag_287\n      jump\t// in\n    tag_410:\n        /* \"#utility.yul\":9006:9008   */\n      0x20\n        /* \"#utility.yul\":9001:9004   */\n      dup3\n        /* \"#utility.yul\":8997:9009   */\n      add\n        /* \"#utility.yul\":8990:9009   */\n      swap1\n      pop\n        /* \"#utility.yul\":8649:9015   */\n      swap2\n      swap1\n      pop\n      jump\t// out\n        /* \"#utility.yul\":9021:9440   */\n    tag_113:\n        /* \"#utility.yul\":9187:9191   */\n      0x00\n        /* \"#utility.yul\":9225:9227   */\n      0x20\n        /* \"#utility.yul\":9214:9223   */\n      dup3\n        /* \"#utility.yul\":9210:9228   */\n      add\n        /* \"#utility.yul\":9202:9228   */\n      swap1\n      pop\n        /* \"#utility.yul\":9274:9283   */\n      dup2\n        /* \"#utility.yul\":9268:9272   */\n      dup2\n        /* \"#utility.yul\":9264:9284   */\n      sub\n        /* \"#utility.yul\":9260:9261   */\n      0x00\n        /* \"#utility.yul\":9249:9258   */\n      dup4\n        /* \"#utility.yul\":9245:9262   */\n      add\n        /* \"#utility.yul\":9238:9285   */\n      mstore\n        /* \"#utility.yul\":9302:9433   */\n      tag_412\n        /* \"#utility.yul\":9428:9432   */\n      dup2\n        /* \"#utility.yul\":9302:9433   */\n      tag_288\n      jump\t// in\n    tag_412:\n        /* \"#utility.yul\":9294:9433   */\n      swap1\n      pop\n        /* \"#utility.yul\":9021:9440   */\n      swap2\n      swap1\n      pop\n      jump\t// out\n        /* \"#utility.yul\":9446:9627   */\n    tag_289:\n        /* \"#utility.yul\":9586:9619   */\n      0x496e73756666696369656e742066756e647320746f2070757263686173652e00\n        /* \"#utility.yul\":9582:9583   */\n      0x00\n        /* \"#utility.yul\":9574:9580   */\n      dup3\n        /* \"#utility.yul\":9570:9584   */\n      add\n        /* \"#utility.yul\":9563:9620   */\n      mstore\n        /* \"#utility.yul\":9446:9627   */\n      pop\n      jump\t// out\n        /* \"#utility.yul\":9633:9999   */\n    tag_290:\n        /* \"#utility.yul\":9775:9778   */\n      0x00\n        /* \"#utility.yul\":9796:9863   */\n      tag_415\n        /* \"#utility.yul\":9860:9862   */\n      0x1f\n        /* \"#utility.yul\":9855:9858   */\n      dup4\n        /* \"#utility.yul\":9796:9863   */\n      tag_279\n      jump\t// in\n    tag_415:\n        /* \"#utility.yul\":9789:9863   */\n      swap2\n      pop\n        /* \"#utility.yul\":9872:9965   */\n      tag_416\n        /* \"#utility.yul\":9961:9964   */\n      dup3\n        /* \"#utility.yul\":9872:9965   */\n      tag_289\n      jump\t// in\n    tag_416:\n        /* \"#utility.yul\":9990:9992   */\n      0x20\n        /* \"#utility.yul\":9985:9988   */\n      dup3\n        /* \"#utility.yul\":9981:9993   */\n      add\n        /* \"#utility.yul\":9974:9993   */\n      swap1\n      pop\n        /* \"#utility.yul\":9633:9999   */\n      swap2\n      swap1\n      pop\n      jump\t// out\n        /* \"#utility.yul\":10005:10424   */\n    tag_120:\n        /* \"#utility.yul\":10171:10175   */\n      0x00\n        /* \"#utility.yul\":10209:10211   */\n      0x20\n        /* \"#utility.yul\":10198:10207   */\n      dup3\n        /* \"#utility.yul\":10194:10212   */\n      add\n        /* \"#utility.yul\":10186:10212   */\n      swap1\n      pop\n        /* \"#utility.yul\":10258:10267   */\n      dup2\n        /* \"#utility.yul\":10252:10256   */\n      dup2\n        /* \"#utility.yul\":10248:10268   */\n      sub\n        /* \"#utility.yul\":10244:10245   */\n      0x00\n        /* \"#utility.yul\":10233:10242   */\n      dup4\n        /* \"#utility.yul\":10229:10246   */\n      add\n        /* \"#utility.yul\":10222:10269   */\n      mstore\n        /* \"#utility.yul\":10286:10417   */\n      tag_418\n        /* \"#utility.yul\":10412:10416   */\n      dup2\n        /* \"#utility.yul\":10286:10417   */\n      tag_290\n      jump\t// in\n    tag_418:\n        /* \"#utility.yul\":10278:10417   */\n      swap1\n      pop\n        /* \"#utility.yul\":10005:10424   */\n      swap2\n      swap1\n      pop\n      jump\t// out\n        /* \"#utility.yul\":10430:10578   */\n    tag_291:\n        /* \"#utility.yul\":10532:10543   */\n      0x00\n        /* \"#utility.yul\":10569:10572   */\n      dup2\n        /* \"#utility.yul\":10554:10572   */\n      swap1\n      pop\n        /* \"#utility.yul\":10430:10578   */\n      swap3\n      swap2\n      pop\n      pop\n      jump\t// out\n        /* \"#utility.yul\":10584:10815   */\n    tag_292:\n        /* \"#utility.yul\":10724:10758   */\n      0x496e73756666696369656e7420626f6e647320746f206275792e20417661696c\n        /* \"#utility.yul\":10720:10721   */\n      0x00\n        /* \"#utility.yul\":10712:10718   */\n      dup3\n        /* \"#utility.yul\":10708:10722   */\n      add\n        /* \"#utility.yul\":10701:10759   */\n      mstore\n        /* \"#utility.yul\":10793:10807   */\n      0x61626c6520626f6e64733a200000000000000000000000000000000000000000\n        /* \"#utility.yul\":10788:10790   */\n      0x20\n        /* \"#utility.yul\":10780:10786   */\n      dup3\n        /* \"#utility.yul\":10776:10791   */\n      add\n        /* \"#utility.yul\":10769:10808   */\n      mstore\n        /* \"#utility.yul\":10584:10815   */\n      pop\n      jump\t// out\n        /* \"#utility.yul\":10821:11223   */\n    tag_293:\n        /* \"#utility.yul\":10981:10984   */\n      0x00\n        /* \"#utility.yul\":11002:11087   */\n      tag_422\n        /* \"#utility.yul\":11084:11086   */\n      0x2c\n        /* \"#utility.yul\":11079:11082   */\n      dup4\n        /* \"#utility.yul\":11002:11087   */\n      tag_291\n      jump\t// in\n    tag_422:\n        /* \"#utility.yul\":10995:11087   */\n      swap2\n      pop\n        /* \"#utility.yul\":11096:11189   */\n      tag_423\n        /* \"#utility.yul\":11185:11188   */\n      dup3\n        /* \"#utility.yul\":11096:11189   */\n      tag_292\n      jump\t// in\n    tag_423:\n        /* \"#utility.yul\":11214:11216   */\n      0x2c\n        /* \"#utility.yul\":11209:11212   */\n      dup3\n        /* \"#utility.yul\":11205:11217   */\n      add\n        /* \"#utility.yul\":11198:11217   */\n      swap1\n      pop\n        /* \"#utility.yul\":10821:11223   */\n      swap2\n      swap1\n      pop\n      jump\t// out\n        /* \"#utility.yul\":11229:11328   */\n    tag_294:\n        /* \"#utility.yul\":11281:11287   */\n      0x00\n        /* \"#utility.yul\":11315:11320   */\n      dup2\n        /* \"#utility.yul\":11309:11321   */\n      mload\n        /* \"#utility.yul\":11299:11321   */\n      swap1\n      pop\n        /* \"#utility.yul\":11229:11328   */\n      swap2\n      swap1\n      pop\n      jump\t// out\n        /* \"#utility.yul\":11334:11473   */\n    tag_295:\n        /* \"#utility.yul\":11423:11429   */\n      dup3\n        /* \"#utility.yul\":11418:11421   */\n      dup2\n        /* \"#utility.yul\":11413:11416   */\n      dup4\n        /* \"#utility.yul\":11407:11430   */\n      mcopy\n        /* \"#utility.yul\":11464:11465   */\n      0x00\n        /* \"#utility.yul\":11455:11461   */\n      dup4\n        /* \"#utility.yul\":11450:11453   */\n      dup4\n        /* \"#utility.yul\":11446:11462   */\n      add\n        /* \"#utility.yul\":11439:11466   */\n      mstore\n        /* \"#utility.yul\":11334:11473   */\n      pop\n      pop\n      pop\n      jump\t// out\n        /* \"#utility.yul\":11479:11869   */\n    tag_296:\n        /* \"#utility.yul\":11585:11588   */\n      0x00\n        /* \"#utility.yul\":11613:11652   */\n      tag_427\n        /* \"#utility.yul\":11646:11651   */\n      dup3\n        /* \"#utility.yul\":11613:11652   */\n      tag_294\n      jump\t// in\n    tag_427:\n        /* \"#utility.yul\":11668:11757   */\n      tag_428\n        /* \"#utility.yul\":11750:11756   */\n      dup2\n        /* \"#utility.yul\":11745:11748   */\n      dup6\n        /* \"#utility.yul\":11668:11757   */\n      tag_291\n      jump\t// in\n    tag_428:\n        /* \"#utility.yul\":11661:11757   */\n      swap4\n      pop\n        /* \"#utility.yul\":11766:11831   */\n      tag_429\n        /* \"#utility.yul\":11824:11830   */\n      dup2\n        /* \"#utility.yul\":11819:11822   */\n      dup6\n        /* \"#utility.yul\":11812:11816   */\n      0x20\n        /* \"#utility.yul\":11805:11810   */\n      dup7\n        /* \"#utility.yul\":11801:11817   */\n      add\n        /* \"#utility.yul\":11766:11831   */\n      tag_295\n      jump\t// in\n    tag_429:\n        /* \"#utility.yul\":11856:11862   */\n      dup1\n        /* \"#utility.yul\":11851:11854   */\n      dup5\n        /* \"#utility.yul\":11847:11863   */\n      add\n        /* \"#utility.yul\":11840:11863   */\n      swap2\n      pop\n        /* \"#utility.yul\":11589:11869   */\n      pop\n        /* \"#utility.yul\":11479:11869   */\n      swap3\n      swap2\n      pop\n      pop\n      jump\t// out\n        /* \"#utility.yul\":11875:12416   */\n    tag_124:\n        /* \"#utility.yul\":12108:12111   */\n      0x00\n        /* \"#utility.yul\":12130:12278   */\n      tag_431\n        /* \"#utility.yul\":12274:12277   */\n      dup3\n        /* \"#utility.yul\":12130:12278   */\n      tag_293\n      jump\t// in\n    tag_431:\n        /* \"#utility.yul\":12123:12278   */\n      swap2\n      pop\n        /* \"#utility.yul\":12295:12390   */\n      tag_432\n        /* \"#utility.yul\":12386:12389   */\n      dup3\n        /* \"#utility.yul\":12377:12383   */\n      dup5\n        /* \"#utility.yul\":12295:12390   */\n      tag_296\n      jump\t// in\n    tag_432:\n        /* \"#utility.yul\":12288:12390   */\n      swap2\n      pop\n        /* \"#utility.yul\":12407:12410   */\n      dup2\n        /* \"#utility.yul\":12400:12410   */\n      swap1\n      pop\n        /* \"#utility.yul\":11875:12416   */\n      swap3\n      swap2\n      pop\n      pop\n      jump\t// out\n        /* \"#utility.yul\":12422:12524   */\n    tag_297:\n        /* \"#utility.yul\":12463:12469   */\n      0x00\n        /* \"#utility.yul\":12514:12516   */\n      0x1f\n        /* \"#utility.yul\":12510:12517   */\n      not\n        /* \"#utility.yul\":12505:12507   */\n      0x1f\n        /* \"#utility.yul\":12498:12503   */\n      dup4\n        /* \"#utility.yul\":12494:12508   */\n      add\n        /* \"#utility.yul\":12490:12518   */\n      and\n        /* \"#utility.yul\":12480:12518   */\n      swap1\n      pop\n        /* \"#utility.yul\":12422:12524   */\n      swap2\n      swap1\n      pop\n      jump\t// out\n        /* \"#utility.yul\":12530:12907   */\n    tag_298:\n        /* \"#utility.yul\":12618:12621   */\n      0x00\n        /* \"#utility.yul\":12646:12685   */\n      tag_435\n        /* \"#utility.yul\":12679:12684   */\n      dup3\n        /* \"#utility.yul\":12646:12685   */\n      tag_294\n      jump\t// in\n    tag_435:\n        /* \"#utility.yul\":12701:12772   */\n      tag_436\n        /* \"#utility.yul\":12765:12771   */\n      dup2\n        /* \"#utility.yul\":12760:12763   */\n      dup6\n        /* \"#utility.yul\":12701:12772   */\n      tag_279\n      jump\t// in\n    tag_436:\n        /* \"#utility.yul\":12694:12772   */\n      swap4\n      pop\n        /* \"#utility.yul\":12781:12846   */\n      tag_437\n        /* \"#utility.yul\":12839:12845   */\n      dup2\n        /* \"#utility.yul\":12834:12837   */\n      dup6\n        /* \"#utility.yul\":12827:12831   */\n      0x20\n        /* \"#utility.yul\":12820:12825   */\n      dup7\n        /* \"#utility.yul\":12816:12832   */\n      add\n        /* \"#utility.yul\":12781:12846   */\n      tag_295\n      jump\t// in\n    tag_437:\n        /* \"#utility.yul\":12871:12900   */\n      tag_438\n        /* \"#utility.yul\":12893:12899   */\n      dup2\n        /* \"#utility.yul\":12871:12900   */\n      tag_297\n      jump\t// in\n    tag_438:\n        /* \"#utility.yul\":12866:12869   */\n      dup5\n        /* \"#utility.yul\":12862:12901   */\n      add\n        /* \"#utility.yul\":12855:12901   */\n      swap2\n      pop\n        /* \"#utility.yul\":12622:12907   */\n      pop\n        /* \"#utility.yul\":12530:12907   */\n      swap3\n      swap2\n      pop\n      pop\n      jump\t// out\n        /* \"#utility.yul\":12913:13226   */\n    tag_127:\n        /* \"#utility.yul\":13026:13030   */\n      0x00\n        /* \"#utility.yul\":13064:13066   */\n      0x20\n        /* \"#utility.yul\":13053:13062   */\n      dup3\n        /* \"#utility.yul\":13049:13067   */\n      add\n        /* \"#utility.yul\":13041:13067   */\n      swap1\n      pop\n        /* \"#utility.yul\":13113:13122   */\n      dup2\n        /* \"#utility.yul\":13107:13111   */\n      dup2\n        /* \"#utility.yul\":13103:13123   */\n      sub\n        /* \"#utility.yul\":13099:13100   */\n      0x00\n        /* \"#utility.yul\":13088:13097   */\n      dup4\n        /* \"#utility.yul\":13084:13101   */\n      add\n        /* \"#utility.yul\":13077:13124   */\n      mstore\n        /* \"#utility.yul\":13141:13219   */\n      tag_440\n        /* \"#utility.yul\":13214:13218   */\n      dup2\n        /* \"#utility.yul\":13205:13211   */\n      dup5\n        /* \"#utility.yul\":13141:13219   */\n      tag_298\n      jump\t// in\n    tag_440:\n        /* \"#utility.yul\":13133:13219   */\n      swap1\n      pop\n        /* \"#utility.yul\":12913:13226   */\n      swap3\n      swap2\n      pop\n      pop\n      jump\t// out\n        /* \"#utility.yul\":13232:13465   */\n    tag_131:\n        /* \"#utility.yul\":13271:13274   */\n      0x00\n        /* \"#utility.yul\":13294:13318   */\n      tag_442\n        /* \"#utility.yul\":13312:13317   */\n      dup3\n        /* \"#utility.yul\":13294:13318   */\n      tag_273\n      jump\t// in\n    tag_442:\n        /* \"#utility.yul\":13285:13318   */\n      swap2\n      pop\n        /* \"#utility.yul\":13340:13406   */\n      0xffffffffffffffffffffffffffffffffffffffffffffffffffffffffffffffff\n        /* \"#utility.yul\":13333:13338   */\n      dup3\n        /* \"#utility.yul\":13330:13407   */\n      sub\n        /* \"#utility.yul\":13327:13430   */\n      tag_443\n      jumpi\n        /* \"#utility.yul\":13410:13428   */\n      tag_444\n      tag_286\n      jump\t// in\n    tag_444:\n        /* \"#utility.yul\":13327:13430   */\n    tag_443:\n        /* \"#utility.yul\":13457:13458   */\n      0x01\n        /* \"#utility.yul\":13450:13455   */\n      dup3\n        /* \"#utility.yul\":13446:13459   */\n      add\n        /* \"#utility.yul\":13439:13459   */\n      swap1\n      pop\n        /* \"#utility.yul\":13232:13465   */\n      swap2\n      swap1\n      pop\n      jump\t// out\n        /* \"#utility.yul\":13471:13697   */\n    tag_299:\n        /* \"#utility.yul\":13611:13645   */\n      0x426f6e6420726564656d7074696f6e20706572696f6420686173206e6f742073\n        /* \"#utility.yul\":13607:13608   */\n      0x00\n        /* \"#utility.yul\":13599:13605   */\n      dup3\n        /* \"#utility.yul\":13595:13609   */\n      add\n        /* \"#utility.yul\":13588:13646   */\n      mstore\n        /* \"#utility.yul\":13680:13689   */\n      0x7461727465642e00000000000000000000000000000000000000000000000000\n        /* \"#utility.yul\":13675:13677   */\n      0x20\n        /* \"#utility.yul\":13667:13673   */\n      dup3\n        /* \"#utility.yul\":13663:13678   */\n      add\n        /* \"#utility.yul\":13656:13690   */\n      mstore\n        /* \"#utility.yul\":13471:13697   */\n      pop\n      jump\t// out\n        /* \"#utility.yul\":13703:14069   */\n    tag_300:\n        /* \"#utility.yul\":13845:13848   */\n      0x00\n        /* \"#utility.yul\":13866:13933   */\n      tag_447\n        /* \"#utility.yul\":13930:13932   */\n      0x27\n        /* \"#utility.yul\":13925:13928   */\n      dup4\n        /* \"#utility.yul\":13866:13933   */\n      tag_279\n      jump\t// in\n    tag_447:\n        /* \"#utility.yul\":13859:13933   */\n      swap2\n      pop\n        /* \"#utility.yul\":13942:14035   */\n      tag_448\n        /* \"#utility.yul\":14031:14034   */\n      dup3\n        /* \"#utility.yul\":13942:14035   */\n      tag_299\n      jump\t// in\n    tag_448:\n        /* \"#utility.yul\":14060:14062   */\n      0x40\n        /* \"#utility.yul\":14055:14058   */\n      dup3\n        /* \"#utility.yul\":14051:14063   */\n      add\n        /* \"#utility.yul\":14044:14063   */\n      swap1\n      pop\n        /* \"#utility.yul\":13703:14069   */\n      swap2\n      swap1\n      pop\n      jump\t// out\n        /* \"#utility.yul\":14075:14494   */\n    tag_142:\n        /* \"#utility.yul\":14241:14245   */\n      0x00\n        /* \"#utility.yul\":14279:14281   */\n      0x20\n        /* \"#utility.yul\":14268:14277   */\n      dup3\n        /* \"#utility.yul\":14264:14282   */\n      add\n        /* \"#utility.yul\":14256:14282   */\n      swap1\n      pop\n        /* \"#utility.yul\":14328:14337   */\n      dup2\n        /* \"#utility.yul\":14322:14326   */\n      dup2\n        /* \"#utility.yul\":14318:14338   */\n      sub\n        /* \"#utility.yul\":14314:14315   */\n      0x00\n        /* \"#utility.yul\":14303:14312   */\n      dup4\n        /* \"#utility.yul\":14299:14316   */\n      add\n        /* \"#utility.yul\":14292:14339   */\n      mstore\n        /* \"#utility.yul\":14356:14487   */\n      tag_450\n        /* \"#utility.yul\":14482:14486   */\n      dup2\n        /* \"#utility.yul\":14356:14487   */\n      tag_300\n      jump\t// in\n    tag_450:\n        /* \"#utility.yul\":14348:14487   */\n      swap1\n      pop\n        /* \"#utility.yul\":14075:14494   */\n      swap2\n      swap1\n      pop\n      jump\t// out\n        /* \"#utility.yul\":14500:14727   */\n    tag_301:\n        /* \"#utility.yul\":14640:14674   */\n      0x4f6e65206d6f6e746820686173206e6f74207061737365642073696e6365206d\n        /* \"#utility.yul\":14636:14637   */\n      0x00\n        /* \"#utility.yul\":14628:14634   */\n      dup3\n        /* \"#utility.yul\":14624:14638   */\n      add\n        /* \"#utility.yul\":14617:14675   */\n      mstore\n        /* \"#utility.yul\":14709:14719   */\n      0x617475726974792e000000000000000000000000000000000000000000000000\n        /* \"#utility.yul\":14704:14706   */\n      0x20\n        /* \"#utility.yul\":14696:14702   */\n      dup3\n        /* \"#utility.yul\":14692:14707   */\n      add\n        /* \"#utility.yul\":14685:14720   */\n      mstore\n        /* \"#utility.yul\":14500:14727   */\n      pop\n      jump\t// out\n        /* \"#utility.yul\":14733:15099   */\n    tag_302:\n        /* \"#utility.yul\":14875:14878   */\n      0x00\n        /* \"#utility.yul\":14896:14963   */\n      tag_453\n        /* \"#utility.yul\":14960:14962   */\n      0x28\n        /* \"#utility.yul\":14955:14958   */\n      dup4\n        /* \"#utility.yul\":14896:14963   */\n      tag_279\n      jump\t// in\n    tag_453:\n        /* \"#utility.yul\":14889:14963   */\n      swap2\n      pop\n        /* \"#utility.yul\":14972:15065   */\n      tag_454\n        /* \"#utility.yul\":15061:15064   */\n      dup3\n        /* \"#utility.yul\":14972:15065   */\n      tag_301\n      jump\t// in\n    tag_454:\n        /* \"#utility.yul\":15090:15092   */\n      0x40\n        /* \"#utility.yul\":15085:15088   */\n      dup3\n        /* \"#utility.yul\":15081:15093   */\n      add\n        /* \"#utility.yul\":15074:15093   */\n      swap1\n      pop\n        /* \"#utility.yul\":14733:15099   */\n      swap2\n      swap1\n      pop\n      jump\t// out\n        /* \"#utility.yul\":15105:15524   */\n    tag_146:\n        /* \"#utility.yul\":15271:15275   */\n      0x00\n        /* \"#utility.yul\":15309:15311   */\n      0x20\n        /* \"#utility.yul\":15298:15307   */\n      dup3\n        /* \"#utility.yul\":15294:15312   */\n      add\n        /* \"#utility.yul\":15286:15312   */\n      swap1\n      pop\n        /* \"#utility.yul\":15358:15367   */\n      dup2\n        /* \"#utility.yul\":15352:15356   */\n      dup2\n        /* \"#utility.yul\":15348:15368   */\n      sub\n        /* \"#utility.yul\":15344:15345   */\n      0x00\n        /* \"#utility.yul\":15333:15342   */\n      dup4\n        /* \"#utility.yul\":15329:15346   */\n      add\n        /* \"#utility.yul\":15322:15369   */\n      mstore\n        /* \"#utility.yul\":15386:15517   */\n      tag_456\n        /* \"#utility.yul\":15512:15516   */\n      dup2\n        /* \"#utility.yul\":15386:15517   */\n      tag_302\n      jump\t// in\n    tag_456:\n        /* \"#utility.yul\":15378:15517   */\n      swap1\n      pop\n        /* \"#utility.yul\":15105:15524   */\n      swap2\n      swap1\n      pop\n      jump\t// out\n        /* \"#utility.yul\":15530:15711   */\n    tag_303:\n        /* \"#utility.yul\":15670:15703   */\n      0x496e73756666696369656e742066756e647320746f2077697468647261772e00\n        /* \"#utility.yul\":15666:15667   */\n      0x00\n        /* \"#utility.yul\":15658:15664   */\n      dup3\n        /* \"#utility.yul\":15654:15668   */\n      add\n        /* \"#utility.yul\":15647:15704   */\n      mstore\n        /* \"#utility.yul\":15530:15711   */\n      pop\n      jump\t// out\n        /* \"#utility.yul\":15717:16083   */\n    tag_304:\n        /* \"#utility.yul\":15859:15862   */\n      0x00\n        /* \"#utility.yul\":15880:15947   */\n      tag_459\n        /* \"#utility.yul\":15944:15946   */\n      0x1f\n        /* \"#utility.yul\":15939:15942   */\n      dup4\n        /* \"#utility.yul\":15880:15947   */\n      tag_279\n      jump\t// in\n    tag_459:\n        /* \"#utility.yul\":15873:15947   */\n      swap2\n      pop\n        /* \"#utility.yul\":15956:16049   */\n      tag_460\n        /* \"#utility.yul\":16045:16048   */\n      dup3\n        /* \"#utility.yul\":15956:16049   */\n      tag_303\n      jump\t// in\n    tag_460:\n        /* \"#utility.yul\":16074:16076   */\n      0x20\n        /* \"#utility.yul\":16069:16072   */\n      dup3\n        /* \"#utility.yul\":16065:16077   */\n      add\n        /* \"#utility.yul\":16058:16077   */\n      swap1\n      pop\n        /* \"#utility.yul\":15717:16083   */\n      swap2\n      swap1\n      pop\n      jump\t// out\n        /* \"#utility.yul\":16089:16508   */\n    tag_149:\n        /* \"#utility.yul\":16255:16259   */\n      0x00\n        /* \"#utility.yul\":16293:16295   */\n      0x20\n        /* \"#utility.yul\":16282:16291   */\n      dup3\n        /* \"#utility.yul\":16278:16296   */\n      add\n        /* \"#utility.yul\":16270:16296   */\n      swap1\n      pop\n        /* \"#utility.yul\":16342:16351   */\n      dup2\n        /* \"#utility.yul\":16336:16340   */\n      dup2\n        /* \"#utility.yul\":16332:16352   */\n      sub\n        /* \"#utility.yul\":16328:16329   */\n      0x00\n        /* \"#utility.yul\":16317:16326   */\n      dup4\n        /* \"#utility.yul\":16313:16330   */\n      add\n        /* \"#utility.yul\":16306:16353   */\n      mstore\n        /* \"#utility.yul\":16370:16501   */\n      tag_462\n        /* \"#utility.yul\":16496:16500   */\n      dup2\n        /* \"#utility.yul\":16370:16501   */\n      tag_304\n      jump\t// in\n    tag_462:\n        /* \"#utility.yul\":16362:16501   */\n      swap1\n      pop\n        /* \"#utility.yul\":16089:16508   */\n      swap2\n      swap1\n      pop\n      jump\t// out\n        /* \"#utility.yul\":16514:16685   */\n    tag_305:\n        /* \"#utility.yul\":16654:16677   */\n      0x426f6e647320616c7265616479206973737565642e0000000000000000000000\n        /* \"#utility.yul\":16650:16651   */\n      0x00\n        /* \"#utility.yul\":16642:16648   */\n      dup3\n        /* \"#utility.yul\":16638:16652   */\n      add\n        /* \"#utility.yul\":16631:16678   */\n      mstore\n        /* \"#utility.yul\":16514:16685   */\n      pop\n      jump\t// out\n        /* \"#utility.yul\":16691:17057   */\n    tag_306:\n        /* \"#utility.yul\":16833:16836   */\n      0x00\n        /* \"#utility.yul\":16854:16921   */\n      tag_465\n        /* \"#utility.yul\":16918:16920   */\n      0x15\n        /* \"#utility.yul\":16913:16916   */\n      dup4\n        /* \"#utility.yul\":16854:16921   */\n      tag_279\n      jump\t// in\n    tag_465:\n        /* \"#utility.yul\":16847:16921   */\n      swap2\n      pop\n        /* \"#utility.yul\":16930:17023   */\n      tag_466\n        /* \"#utility.yul\":17019:17022   */\n      dup3\n        /* \"#utility.yul\":16930:17023   */\n      tag_305\n      jump\t// in\n    tag_466:\n        /* \"#utility.yul\":17048:17050   */\n      0x20\n        /* \"#utility.yul\":17043:17046   */\n      dup3\n        /* \"#utility.yul\":17039:17051   */\n      add\n        /* \"#utility.yul\":17032:17051   */\n      swap1\n      pop\n        /* \"#utility.yul\":16691:17057   */\n      swap2\n      swap1\n      pop\n      jump\t// out\n        /* \"#utility.yul\":17063:17482   */\n    tag_158:\n        /* \"#utility.yul\":17229:17233   */\n      0x00\n        /* \"#utility.yul\":17267:17269   */\n      0x20\n        /* \"#utility.yul\":17256:17265   */\n      dup3\n        /* \"#utility.yul\":17252:17270   */\n      add\n        /* \"#utility.yul\":17244:17270   */\n      swap1\n      pop\n        /* \"#utility.yul\":17316:17325   */\n      dup2\n        /* \"#utility.yul\":17310:17314   */\n      dup2\n        /* \"#utility.yul\":17306:17326   */\n      sub\n        /* \"#utility.yul\":17302:17303   */\n      0x00\n        /* \"#utility.yul\":17291:17300   */\n      dup4\n        /* \"#utility.yul\":17287:17304   */\n      add\n        /* \"#utility.yul\":17280:17327   */\n      mstore\n        /* \"#utility.yul\":17344:17475   */\n      tag_468\n        /* \"#utility.yul\":17470:17474   */\n      dup2\n        /* \"#utility.yul\":17344:17475   */\n      tag_306\n      jump\t// in\n    tag_468:\n        /* \"#utility.yul\":17336:17475   */\n      swap1\n      pop\n        /* \"#utility.yul\":17063:17482   */\n      swap2\n      swap1\n      pop\n      jump\t// out\n        /* \"#utility.yul\":17488:17713   */\n    tag_307:\n        /* \"#utility.yul\":17628:17662   */\n      0x546f74616c20626f6e6473206d7573742062652067726561746572207468616e\n        /* \"#utility.yul\":17624:17625   */\n      0x00\n        /* \"#utility.yul\":17616:17622   */\n      dup3\n        /* \"#utility.yul\":17612:17626   */\n      add\n        /* \"#utility.yul\":17605:17663   */\n      mstore\n        /* \"#utility.yul\":17697:17705   */\n      0x207a65726f2e0000000000000000000000000000000000000000000000000000\n        /* \"#utility.yul\":17692:17694   */\n      0x20\n        /* \"#utility.yul\":17684:17690   */\n      dup3\n        /* \"#utility.yul\":17680:17695   */\n      add\n        /* \"#utility.yul\":17673:17706   */\n      mstore\n        /* \"#utility.yul\":17488:17713   */\n      pop\n      jump\t// out\n        /* \"#utility.yul\":17719:18085   */\n    tag_308:\n        /* \"#utility.yul\":17861:17864   */\n      0x00\n        /* \"#utility.yul\":17882:17949   */\n      tag_471\n        /* \"#utility.yul\":17946:17948   */\n      0x26\n        /* \"#utility.yul\":17941:17944   */\n      dup4\n        /* \"#utility.yul\":17882:17949   */\n      tag_279\n      jump\t// in\n    tag_471:\n        /* \"#utility.yul\":17875:17949   */\n      swap2\n      pop\n        /* \"#utility.yul\":17958:18051   */\n      tag_472\n        /* \"#utility.yul\":18047:18050   */\n      dup3\n        /* \"#utility.yul\":17958:18051   */\n      tag_307\n      jump\t// in\n    tag_472:\n        /* \"#utility.yul\":18076:18078   */\n      0x40\n        /* \"#utility.yul\":18071:18074   */\n      dup3\n        /* \"#utility.yul\":18067:18079   */\n      add\n        /* \"#utility.yul\":18060:18079   */\n      swap1\n      pop\n        /* \"#utility.yul\":17719:18085   */\n      swap2\n      swap1\n      pop\n      jump\t// out\n        /* \"#utility.yul\":18091:18510   */\n    tag_161:\n        /* \"#utility.yul\":18257:18261   */\n      0x00\n        /* \"#utility.yul\":18295:18297   */\n      0x20\n        /* \"#utility.yul\":18284:18293   */\n      dup3\n        /* \"#utility.yul\":18280:18298   */\n      add\n        /* \"#utility.yul\":18272:18298   */\n      swap1\n      pop\n        /* \"#utility.yul\":18344:18353   */\n      dup2\n        /* \"#utility.yul\":18338:18342   */\n      dup2\n        /* \"#utility.yul\":18334:18354   */\n      sub\n        /* \"#utility.yul\":18330:18331   */\n      0x00\n        /* \"#utility.yul\":18319:18328   */\n      dup4\n        /* \"#utility.yul\":18315:18332   */\n      add\n        /* \"#utility.yul\":18308:18355   */\n      mstore\n        /* \"#utility.yul\":18372:18503   */\n      tag_474\n        /* \"#utility.yul\":18498:18502   */\n      dup2\n        /* \"#utility.yul\":18372:18503   */\n      tag_308\n      jump\t// in\n    tag_474:\n        /* \"#utility.yul\":18364:18503   */\n      swap1\n      pop\n        /* \"#utility.yul\":18091:18510   */\n      swap2\n      swap1\n      pop\n      jump\t// out\n        /* \"#utility.yul\":18516:18740   */\n    tag_309:\n        /* \"#utility.yul\":18656:18690   */\n      0x426f6e64207072696365206d7573742062652067726561746572207468616e20\n        /* \"#utility.yul\":18652:18653   */\n      0x00\n        /* \"#utility.yul\":18644:18650   */\n      dup3\n        /* \"#utility.yul\":18640:18654   */\n      add\n        /* \"#utility.yul\":18633:18691   */\n      mstore\n        /* \"#utility.yul\":18725:18732   */\n      0x7a65726f2e000000000000000000000000000000000000000000000000000000\n        /* \"#utility.yul\":18720:18722   */\n      0x20\n        /* \"#utility.yul\":18712:18718   */\n      dup3\n        /* \"#utility.yul\":18708:18723   */\n      add\n        /* \"#utility.yul\":18701:18733   */\n      mstore\n        /* \"#utility.yul\":18516:18740   */\n      pop\n      jump\t// out\n        /* \"#utility.yul\":18746:19112   */\n    tag_310:\n        /* \"#utility.yul\":18888:18891   */\n      0x00\n        /* \"#utility.yul\":18909:18976   */\n      tag_477\n        /* \"#utility.yul\":18973:18975   */\n      0x25\n        /* \"#utility.yul\":18968:18971   */\n      dup4\n        /* \"#utility.yul\":18909:18976   */\n      tag_279\n      jump\t// in\n    tag_477:\n        /* \"#utility.yul\":18902:18976   */\n      swap2\n      pop\n        /* \"#utility.yul\":18985:19078   */\n      tag_478\n        /* \"#utility.yul\":19074:19077   */\n      dup3\n        /* \"#utility.yul\":18985:19078   */\n      tag_309\n      jump\t// in\n    tag_478:\n        /* \"#utility.yul\":19103:19105   */\n      0x40\n        /* \"#utility.yul\":19098:19101   */\n      dup3\n        /* \"#utility.yul\":19094:19106   */\n      add\n        /* \"#utility.yul\":19087:19106   */\n      swap1\n      pop\n        /* \"#utility.yul\":18746:19112   */\n      swap2\n      swap1\n      pop\n      jump\t// out\n        /* \"#utility.yul\":19118:19537   */\n    tag_164:\n        /* \"#utility.yul\":19284:19288   */\n      0x00\n        /* \"#utility.yul\":19322:19324   */\n      0x20\n        /* \"#utility.yul\":19311:19320   */\n      dup3\n        /* \"#utility.yul\":19307:19325   */\n      add\n        /* \"#utility.yul\":19299:19325   */\n      swap1\n      pop\n        /* \"#utility.yul\":19371:19380   */\n      dup2\n        /* \"#utility.yul\":19365:19369   */\n      dup2\n        /* \"#utility.yul\":19361:19381   */\n      sub\n        /* \"#utility.yul\":19357:19358   */\n      0x00\n        /* \"#utility.yul\":19346:19355   */\n      dup4\n        /* \"#utility.yul\":19342:19359   */\n      add\n        /* \"#utility.yul\":19335:19382   */\n      mstore\n        /* \"#utility.yul\":19399:19530   */\n      tag_480\n        /* \"#utility.yul\":19525:19529   */\n      dup2\n        /* \"#utility.yul\":19399:19530   */\n      tag_310\n      jump\t// in\n    tag_480:\n        /* \"#utility.yul\":19391:19530   */\n      swap1\n      pop\n        /* \"#utility.yul\":19118:19537   */\n      swap2\n      swap1\n      pop\n      jump\t// out\n        /* \"#utility.yul\":19543:19770   */\n    tag_311:\n        /* \"#utility.yul\":19683:19717   */\n      0x496e7465726573742072617465206d7573742062652067726561746572207468\n        /* \"#utility.yul\":19679:19680   */\n      0x00\n        /* \"#utility.yul\":19671:19677   */\n      dup3\n        /* \"#utility.yul\":19667:19681   */\n      add\n        /* \"#utility.yul\":19660:19718   */\n      mstore\n        /* \"#utility.yul\":19752:19762   */\n      0x616e207a65726f2e000000000000000000000000000000000000000000000000\n        /* \"#utility.yul\":19747:19749   */\n      0x20\n        /* \"#utility.yul\":19739:19745   */\n      dup3\n        /* \"#utility.yul\":19735:19750   */\n      add\n        /* \"#utility.yul\":19728:19763   */\n      mstore\n        /* \"#utility.yul\":19543:19770   */\n      pop\n      jump\t// out\n        /* \"#utility.yul\":19776:20142   */\n    tag_312:\n        /* \"#utility.yul\":19918:19921   */\n      0x00\n        /* \"#utility.yul\":19939:20006   */\n      tag_483\n        /* \"#utility.yul\":20003:20005   */\n      0x28\n        /* \"#utility.yul\":19998:20001   */\n      dup4\n        /* \"#utility.yul\":19939:20006   */\n      tag_279\n      jump\t// in\n    tag_483:\n        /* \"#utility.yul\":19932:20006   */\n      swap2\n      pop\n        /* \"#utility.yul\":20015:20108   */\n      tag_484\n        /* \"#utility.yul\":20104:20107   */\n      dup3\n        /* \"#utility.yul\":20015:20108   */\n      tag_311\n      jump\t// in\n    tag_484:\n        /* \"#utility.yul\":20133:20135   */\n      0x40\n        /* \"#utility.yul\":20128:20131   */\n      dup3\n        /* \"#utility.yul\":20124:20136   */\n      add\n        /* \"#utility.yul\":20117:20136   */\n      swap1\n      pop\n        /* \"#utility.yul\":19776:20142   */\n      swap2\n      swap1\n      pop\n      jump\t// out\n        /* \"#utility.yul\":20148:20567   */\n    tag_167:\n        /* \"#utility.yul\":20314:20318   */\n      0x00\n        /* \"#utility.yul\":20352:20354   */\n      0x20\n        /* \"#utility.yul\":20341:20350   */\n      dup3\n        /* \"#utility.yul\":20337:20355   */\n      add\n        /* \"#utility.yul\":20329:20355   */\n      swap1\n      pop\n        /* \"#utility.yul\":20401:20410   */\n      dup2\n        /* \"#utility.yul\":20395:20399   */\n      dup2\n        /* \"#utility.yul\":20391:20411   */\n      sub\n        /* \"#utility.yul\":20387:20388   */\n      0x00\n        /* \"#utility.yul\":20376:20385   */\n      dup4\n        /* \"#utility.yul\":20372:20389   */\n      add\n        /* \"#utility.yul\":20365:20412   */\n      mstore\n        /* \"#utility.yul\":20429:20560   */\n      tag_486\n        /* \"#utility.yul\":20555:20559   */\n      dup2\n        /* \"#utility.yul\":20429:20560   */\n      tag_312\n      jump\t// in\n    tag_486:\n        /* \"#utility.yul\":20421:20560   */\n      swap1\n      pop\n        /* \"#utility.yul\":20148:20567   */\n      swap2\n      swap1\n      pop\n      jump\t// out\n        /* \"#utility.yul\":20573:20796   */\n    tag_313:\n        /* \"#utility.yul\":20713:20747   */\n      0x4d617475726974792064617465206d75737420626520696e2074686520667574\n        /* \"#utility.yul\":20709:20710   */\n      0x00\n        /* \"#utility.yul\":20701:20707   */\n      dup3\n        /* \"#utility.yul\":20697:20711   */\n      add\n        /* \"#utility.yul\":20690:20748   */\n      mstore\n        /* \"#utility.yul\":20782:20788   */\n      0x7572652e00000000000000000000000000000000000000000000000000000000\n        /* \"#utility.yul\":20777:20779   */\n      0x20\n        /* \"#utility.yul\":20769:20775   */\n      dup3\n        /* \"#utility.yul\":20765:20780   */\n      add\n        /* \"#utility.yul\":20758:20789   */\n      mstore\n        /* \"#utility.yul\":20573:20796   */\n      pop\n      jump\t// out\n        /* \"#utility.yul\":20802:21168   */\n    tag_314:\n        /* \"#utility.yul\":20944:20947   */\n      0x00\n        /* \"#utility.yul\":20965:21032   */\n      tag_489\n        /* \"#utility.yul\":21029:21031   */\n      0x24\n        /* \"#utility.yul\":21024:21027   */\n      dup4\n        /* \"#utility.yul\":20965:21032   */\n      tag_279\n      jump\t// in\n    tag_489:\n        /* \"#utility.yul\":20958:21032   */\n      swap2\n      pop\n        /* \"#utility.yul\":21041:21134   */\n      tag_490\n        /* \"#utility.yul\":21130:21133   */\n      dup3\n        /* \"#utility.yul\":21041:21134   */\n      tag_313\n      jump\t// in\n    tag_490:\n        /* \"#utility.yul\":21159:21161   */\n      0x40\n        /* \"#utility.yul\":21154:21157   */\n      dup3\n        /* \"#utility.yul\":21150:21162   */\n      add\n        /* \"#utility.yul\":21143:21162   */\n      swap1\n      pop\n        /* \"#utility.yul\":20802:21168   */\n      swap2\n      swap1\n      pop\n      jump\t// out\n        /* \"#utility.yul\":21174:21593   */\n    tag_170:\n        /* \"#utility.yul\":21340:21344   */\n      0x00\n        /* \"#utility.yul\":21378:21380   */\n      0x20\n        /* \"#utility.yul\":21367:21376   */\n      dup3\n        /* \"#utility.yul\":21363:21381   */\n      add\n        /* \"#utility.yul\":21355:21381   */\n      swap1\n      pop\n        /* \"#utility.yul\":21427:21436   */\n      dup2\n        /* \"#utility.yul\":21421:21425   */\n      dup2\n        /* \"#utility.yul\":21417:21437   */\n      sub\n        /* \"#utility.yul\":21413:21414   */\n      0x00\n        /* \"#utility.yul\":21402:21411   */\n      dup4\n        /* \"#utility.yul\":21398:21415   */\n      add\n        /* \"#utility.yul\":21391:21438   */\n      mstore\n        /* \"#utility.yul\":21455:21586   */\n      tag_492\n        /* \"#utility.yul\":21581:21585   */\n      dup2\n        /* \"#utility.yul\":21455:21586   */\n      tag_314\n      jump\t// in\n    tag_492:\n        /* \"#utility.yul\":21447:21586   */\n      swap1\n      pop\n        /* \"#utility.yul\":21174:21593   */\n      swap2\n      swap1\n      pop\n      jump\t// out\n        /* \"#utility.yul\":21599:22152   */\n    tag_173:\n        /* \"#utility.yul\":21776:21780   */\n      0x00\n        /* \"#utility.yul\":21814:21817   */\n      0x80\n        /* \"#utility.yul\":21803:21812   */\n      dup3\n        /* \"#utility.yul\":21799:21818   */\n      add\n        /* \"#utility.yul\":21791:21818   */\n      swap1\n      pop\n        /* \"#utility.yul\":21828:21899   */\n      tag_494\n        /* \"#utility.yul\":21896:21897   */\n      0x00\n        /* \"#utility.yul\":21885:21894   */\n      dup4\n        /* \"#utility.yul\":21881:21898   */\n      add\n        /* \"#utility.yul\":21872:21878   */\n      dup8\n        /* \"#utility.yul\":21828:21899   */\n      tag_274\n      jump\t// in\n    tag_494:\n        /* \"#utility.yul\":21909:21981   */\n      tag_495\n        /* \"#utility.yul\":21977:21979   */\n      0x20\n        /* \"#utility.yul\":21966:21975   */\n      dup4\n        /* \"#utility.yul\":21962:21980   */\n      add\n        /* \"#utility.yul\":21953:21959   */\n      dup7\n        /* \"#utility.yul\":21909:21981   */\n      tag_274\n      jump\t// in\n    tag_495:\n        /* \"#utility.yul\":21991:22063   */\n      tag_496\n        /* \"#utility.yul\":22059:22061   */\n      0x40\n        /* \"#utility.yul\":22048:22057   */\n      dup4\n        /* \"#utility.yul\":22044:22062   */\n      add\n        /* \"#utility.yul\":22035:22041   */\n      dup6\n        /* \"#utility.yul\":21991:22063   */\n      tag_274\n      jump\t// in\n    tag_496:\n        /* \"#utility.yul\":22073:22145   */\n      tag_497\n        /* \"#utility.yul\":22141:22143   */\n      0x60\n        /* \"#utility.yul\":22130:22139   */\n      dup4\n        /* \"#utility.yul\":22126:22144   */\n      add\n        /* \"#utility.yul\":22117:22123   */\n      dup5\n        /* \"#utility.yul\":22073:22145   */\n      tag_274\n      jump\t// in\n    tag_497:\n        /* \"#utility.yul\":21599:22152   */\n      swap6\n      swap5\n      pop\n      pop\n      pop\n      pop\n      pop\n      jump\t// out\n        /* \"#utility.yul\":22158:22338   */\n    tag_185:\n        /* \"#utility.yul\":22206:22283   */\n      0x4e487b7100000000000000000000000000000000000000000000000000000000\n        /* \"#utility.yul\":22203:22204   */\n      0x00\n        /* \"#utility.yul\":22196:22284   */\n      mstore\n        /* \"#utility.yul\":22303:22307   */\n      0x32\n        /* \"#utility.yul\":22300:22301   */\n      0x04\n        /* \"#utility.yul\":22293:22308   */\n      mstore\n        /* \"#utility.yul\":22327:22331   */\n      0x24\n        /* \"#utility.yul\":22324:22325   */\n      0x00\n        /* \"#utility.yul\":22317:22332   */\n      revert\n        /* \"#utility.yul\":22344:22572   */\n    tag_315:\n        /* \"#utility.yul\":22484:22518   */\n      0x496e73756666696369656e7420636f6e74726163742062616c616e636520666f\n        /* \"#utility.yul\":22480:22481   */\n      0x00\n        /* \"#utility.yul\":22472:22478   */\n      dup3\n        /* \"#utility.yul\":22468:22482   */\n      add\n        /* \"#utility.yul\":22461:22519   */\n      mstore\n        /* \"#utility.yul\":22553:22564   */\n      0x72207061796f75742e0000000000000000000000000000000000000000000000\n        /* \"#utility.yul\":22548:22550   */\n      0x20\n        /* \"#utility.yul\":22540:22546   */\n      dup3\n        /* \"#utility.yul\":22536:22551   */\n      add\n        /* \"#utility.yul\":22529:22565   */\n      mstore\n        /* \"#utility.yul\":22344:22572   */\n      pop\n      jump\t// out\n        /* \"#utility.yul\":22578:22944   */\n    tag_316:\n        /* \"#utility.yul\":22720:22723   */\n      0x00\n        /* \"#utility.yul\":22741:22808   */\n      tag_501\n        /* \"#utility.yul\":22805:22807   */\n      0x29\n        /* \"#utility.yul\":22800:22803   */\n      dup4\n        /* \"#utility.yul\":22741:22808   */\n      tag_279\n      jump\t// in\n    tag_501:\n        /* \"#utility.yul\":22734:22808   */\n      swap2\n      pop\n        /* \"#utility.yul\":22817:22910   */\n      tag_502\n        /* \"#utility.yul\":22906:22909   */\n      dup3\n        /* \"#utility.yul\":22817:22910   */\n      tag_315\n      jump\t// in\n    tag_502:\n        /* \"#utility.yul\":22935:22937   */\n      0x40\n        /* \"#utility.yul\":22930:22933   */\n      dup3\n        /* \"#utility.yul\":22926:22938   */\n      add\n        /* \"#utility.yul\":22919:22938   */\n      swap1\n      pop\n        /* \"#utility.yul\":22578:22944   */\n      swap2\n      swap1\n      pop\n      jump\t// out\n        /* \"#utility.yul\":22950:23369   */\n    tag_209:\n        /* \"#utility.yul\":23116:23120   */\n      0x00\n        /* \"#utility.yul\":23154:23156   */\n      0x20\n        /* \"#utility.yul\":23143:23152   */\n      dup3\n        /* \"#utility.yul\":23139:23157   */\n      add\n        /* \"#utility.yul\":23131:23157   */\n      swap1\n      pop\n        /* \"#utility.yul\":23203:23212   */\n      dup2\n        /* \"#utility.yul\":23197:23201   */\n      dup2\n        /* \"#utility.yul\":23193:23213   */\n      sub\n        /* \"#utility.yul\":23189:23190   */\n      0x00\n        /* \"#utility.yul\":23178:23187   */\n      dup4\n        /* \"#utility.yul\":23174:23191   */\n      add\n        /* \"#utility.yul\":23167:23214   */\n      mstore\n        /* \"#utility.yul\":23231:23362   */\n      tag_504\n        /* \"#utility.yul\":23357:23361   */\n      dup2\n        /* \"#utility.yul\":23231:23362   */\n      tag_316\n      jump\t// in\n    tag_504:\n        /* \"#utility.yul\":23223:23362   */\n      swap1\n      pop\n        /* \"#utility.yul\":22950:23369   */\n      swap2\n      swap1\n      pop\n      jump\t// out\n        /* \"#utility.yul\":23375:23624   */\n    tag_317:\n        /* \"#utility.yul\":23515:23549   */\n      0x416c6c20626f6e6473206d7573742062652072656465656d6564206265666f72\n        /* \"#utility.yul\":23511:23512   */\n      0x00\n        /* \"#utility.yul\":23503:23509   */\n      dup3\n        /* \"#utility.yul\":23499:23513   */\n      add\n        /* \"#utility.yul\":23492:23550   */\n      mstore\n        /* \"#utility.yul\":23584:23616   */\n      0x65207769746864726177696e672072656d61696e696e672066756e64732e0000\n        /* \"#utility.yul\":23579:23581   */\n      0x20\n        /* \"#utility.yul\":23571:23577   */\n      dup3\n        /* \"#utility.yul\":23567:23582   */\n      add\n        /* \"#utility.yul\":23560:23617   */\n      mstore\n        /* \"#utility.yul\":23375:23624   */\n      pop\n      jump\t// out\n        /* \"#utility.yul\":23630:23996   */\n    tag_318:\n        /* \"#utility.yul\":23772:23775   */\n      0x00\n        /* \"#utility.yul\":23793:23860   */\n      tag_507\n        /* \"#utility.yul\":23857:23859   */\n      0x3e\n        /* \"#utility.yul\":23852:23855   */\n      dup4\n        /* \"#utility.yul\":23793:23860   */\n      tag_279\n      jump\t// in\n    tag_507:\n        /* \"#utility.yul\":23786:23860   */\n      swap2\n      pop\n        /* \"#utility.yul\":23869:23962   */\n      tag_508\n        /* \"#utility.yul\":23958:23961   */\n      dup3\n        /* \"#utility.yul\":23869:23962   */\n      tag_317\n      jump\t// in\n    tag_508:\n        /* \"#utility.yul\":23987:23989   */\n      0x40\n        /* \"#utility.yul\":23982:23985   */\n      dup3\n        /* \"#utility.yul\":23978:23990   */\n      add\n        /* \"#utility.yul\":23971:23990   */\n      swap1\n      pop\n        /* \"#utility.yul\":23630:23996   */\n      swap2\n      swap1\n      pop\n      jump\t// out\n        /* \"#utility.yul\":24002:24421   */\n    tag_227:\n        /* \"#utility.yul\":24168:24172   */\n      0x00\n        /* \"#utility.yul\":24206:24208   */\n      0x20\n        /* \"#utility.yul\":24195:24204   */\n      dup3\n        /* \"#utility.yul\":24191:24209   */\n      add\n        /* \"#utility.yul\":24183:24209   */\n      swap1\n      pop\n        /* \"#utility.yul\":24255:24264   */\n      dup2\n        /* \"#utility.yul\":24249:24253   */\n      dup2\n        /* \"#utility.yul\":24245:24265   */\n      sub\n        /* \"#utility.yul\":24241:24242   */\n      0x00\n        /* \"#utility.yul\":24230:24239   */\n      dup4\n        /* \"#utility.yul\":24226:24243   */\n      add\n        /* \"#utility.yul\":24219:24266   */\n      mstore\n        /* \"#utility.yul\":24283:24414   */\n      tag_510\n        /* \"#utility.yul\":24409:24413   */\n      dup2\n        /* \"#utility.yul\":24283:24414   */\n      tag_318\n      jump\t// in\n    tag_510:\n        /* \"#utility.yul\":24275:24414   */\n      swap1\n      pop\n        /* \"#utility.yul\":24002:24421   */\n      swap2\n      swap1\n      pop\n      jump\t// out\n        /* \"#utility.yul\":24427:24607   */\n    tag_237:\n        /* \"#utility.yul\":24475:24552   */\n      0x4e487b7100000000000000000000000000000000000000000000000000000000\n        /* \"#utility.yul\":24472:24473   */\n      0x00\n        /* \"#utility.yul\":24465:24553   */\n      mstore\n        /* \"#utility.yul\":24572:24576   */\n      0x41\n        /* \"#utility.yul\":24569:24570   */\n      0x04\n        /* \"#utility.yul\":24562:24577   */\n      mstore\n        /* \"#utility.yul\":24596:24600   */\n      0x24\n        /* \"#utility.yul\":24593:24594   */\n      0x00\n        /* \"#utility.yul\":24586:24601   */\n      revert\n\n    auxdata: 0xa2646970667358221220450560c246200f1d8c2f9e15526c8a685018c7b476cf1499ee77731d7bffcbf764736f6c634300081a0033\n}\n",
				"bytecode": {
					"linkReferences": {},
					"object": "6080604052348015600e575f80fd5b50335f806101000a81548173ffffffffffffffffffffffffffffffffffffffff021916908373ffffffffffffffffffffffffffffffffffffffff1602179055506122738061005b5f395ff3fe6080604052600436106100f6575f3560e01c8063a766bc9811610089578063d7ccfb0b11610058578063d7ccfb0b146102b7578063e84a011a146102e1578063ef86ce8e146102f7578063f263c4701461030d576100fd565b8063a766bc981461020f578063cb7cad2a14610239578063d33ce61a14610263578063d59624b41461028d576100fd565b80635216aeec116100c55780635216aeec1461017d5780637c221bc5146101a75780637c3a00fd146101bd57806389585083146101e7576100fd565b806312cccb34146101015780631d1438481461010b57806328d36cfc146101355780633d31841b14610173576100fd565b366100fd57005b5f80fd5b610109610337565b005b348015610116575f80fd5b5061011f610408565b60405161012c91906115a0565b60405180910390f35b348015610140575f80fd5b5061015b600480360381019061015691906115e7565b61042b565b60405161016a9392919061162a565b60405180910390f35b61017b61050f565b005b348015610188575f80fd5b50610191610849565b60405161019e919061165f565b60405180910390f35b3480156101b2575f80fd5b506101bb61084f565b005b3480156101c8575f80fd5b506101d1610a20565b6040516101de919061165f565b60405180910390f35b3480156101f2575f80fd5b5061020d600480360381019061020891906116a2565b610a26565b005b34801561021a575f80fd5b50610223610ca5565b604051610230919061165f565b60405180910390f35b348015610244575f80fd5b5061024d610cab565b60405161025a919061165f565b60405180910390f35b34801561026e575f80fd5b50610277610e8f565b6040516102849190611720565b60405180910390f35b348015610298575f80fd5b506102a1610ea1565b6040516102ae919061165f565b60405180910390f35b3480156102c2575f80fd5b506102cb610ea7565b6040516102d8919061165f565b60405180910390f35b3480156102ec575f80fd5b506102f5610ead565b005b348015610302575f80fd5b5061030b6110eb565b005b348015610318575f80fd5b50610321611340565b60405161032e919061165f565b60405180910390f35b5f8054906101000a900473ffffffffffffffffffffffffffffffffffffffff1673ffffffffffffffffffffffffffffffffffffffff163373ffffffffffffffffffffffffffffffffffffffff16146103c4576040517f08c379a00000000000000000000000000000000000000000000000000000000081526004016103bb906117b9565b60405180910390fd5b5f3411610406576040517f08c379a00000000000000000000000000000000000000000000000000000000081526004016103fd90611847565b60405180910390fd5b565b5f8054906101000a900473ffffffffffffffffffffffffffffffffffffffff1681565b5f805f8060085f8673ffffffffffffffffffffffffffffffffffffffff1673ffffffffffffffffffffffffffffffffffffffff1681526020019081526020015f205490505f81116104b1576040517f08c379a00000000000000000000000000000000000000000000000000000000081526004016104a8906118af565b60405180910390fd5b600254816104bf91906118fa565b93506283d6006004546005546104d5919061193b565b600354866104e391906118fa565b6104ed91906118fa565b6104f7919061199b565b9250828461050591906119cb565b9150509193909250565b6005544210610553576040517f08c379a000000000000000000000000000000000000000000000000000000000815260040161054a90611a48565b60405180910390fd5b5f3411610595576040517f08c379a000000000000000000000000000000000000000000000000000000000815260040161058c90611847565b60405180910390fd5b5f600254346105a4919061199b565b90505f81116105e8576040517f08c379a00000000000000000000000000000000000000000000000000000000081526004016105df90611ab0565b60405180910390fd5b8060015410156105f9600154611346565b6040516020016106099190611b90565b60405160208183030381529060405290610659576040517f08c379a00000000000000000000000000000000000000000000000000000000081526004016106509190611bf9565b60405180910390fd5b5060095f3373ffffffffffffffffffffffffffffffffffffffff1673ffffffffffffffffffffffffffffffffffffffff1681526020019081526020015f205f9054906101000a900460ff1661077557600a33908060018154018082558091505060019003905f5260205f20015f9091909190916101000a81548173ffffffffffffffffffffffffffffffffffffffff021916908373ffffffffffffffffffffffffffffffffffffffff160217905550600160095f3373ffffffffffffffffffffffffffffffffffffffff1673ffffffffffffffffffffffffffffffffffffffff1681526020019081526020015f205f6101000a81548160ff021916908315150217905550600b5f81548092919061076f90611c19565b91905055505b8060085f3373ffffffffffffffffffffffffffffffffffffffff1673ffffffffffffffffffffffffffffffffffffffff1681526020019081526020015f205f8282546107c191906119cb565b925050819055508060015f8282546107d9919061193b565b925050819055503460065f8282546107f191906119cb565b925050819055503373ffffffffffffffffffffffffffffffffffffffff167f72e04af5dfda760cfed5e6556215ddc010133900aa0b75cefa0883038f37eae28260405161083e919061165f565b60405180910390a250565b60065481565b5f8054906101000a900473ffffffffffffffffffffffffffffffffffffffff1673ffffffffffffffffffffffffffffffffffffffff163373ffffffffffffffffffffffffffffffffffffffff16146108dc576040517f08c379a00000000000000000000000000000000000000000000000000000000081526004016108d3906117b9565b60405180910390fd5b600554421015610921576040517f08c379a000000000000000000000000000000000000000000000000000000000815260040161091890611cd0565b60405180910390fd5b62278d0060055461093291906119cb565b421015610974576040517f08c379a000000000000000000000000000000000000000000000000000000000815260040161096b90611d5e565b60405180910390fd5b5f4790505f81116109ba576040517f08c379a00000000000000000000000000000000000000000000000000000000081526004016109b190611dc6565b60405180910390fd5b5f8054906101000a900473ffffffffffffffffffffffffffffffffffffffff1673ffffffffffffffffffffffffffffffffffffffff166108fc8290811502906040515f60405180830381858888f19350505050158015610a1c573d5f803e3d5ffd5b5050565b60035481565b5f8054906101000a900473ffffffffffffffffffffffffffffffffffffffff1673ffffffffffffffffffffffffffffffffffffffff163373ffffffffffffffffffffffffffffffffffffffff1614610ab3576040517f08c379a0000000000000000000000000000000000000000000000000000000008152600401610aaa906117b9565b60405180910390fd5b60075f9054906101000a900460ff1615610b02576040517f08c379a0000000000000000000000000000000000000000000000000000000008152600401610af990611e2e565b60405180910390fd5b5f8411610b44576040517f08c379a0000000000000000000000000000000000000000000000000000000008152600401610b3b90611ebc565b60405180910390fd5b5f8311610b86576040517f08c379a0000000000000000000000000000000000000000000000000000000008152600401610b7d90611f4a565b60405180910390fd5b5f8211610bc8576040517f08c379a0000000000000000000000000000000000000000000000000000000008152600401610bbf90611fd8565b60405180910390fd5b428111610c0a576040517f08c379a0000000000000000000000000000000000000000000000000000000008152600401610c0190612066565b60405180910390fd5b83600181905550670de0b6b3a764000083610c2591906118fa565b600281905550816003819055508060058190555042600481905550600160075f6101000a81548160ff0219169083151502179055507fc4ede3fcf855dc4685871bc70cbff3b97f484d31f715ab9a3ac2d7b14776e2c6600154600254600354600554604051610c979493929190612084565b60405180910390a150505050565b60045481565b5f805f9054906101000a900473ffffffffffffffffffffffffffffffffffffffff1673ffffffffffffffffffffffffffffffffffffffff163373ffffffffffffffffffffffffffffffffffffffff1614610d3a576040517f08c379a0000000000000000000000000000000000000000000000000000000008152600401610d31906117b9565b60405180910390fd5b600554421015610d7f576040517f08c379a0000000000000000000000000000000000000000000000000000000008152600401610d7690611cd0565b60405180910390fd5b5f90505f5b600b54811015610e8b575f600a8281548110610da357610da26120c7565b5b905f5260205f20015f9054906101000a900473ffffffffffffffffffffffffffffffffffffffff1690505f60085f8373ffffffffffffffffffffffffffffffffffffffff1673ffffffffffffffffffffffffffffffffffffffff1681526020019081526020015f205490505f811115610e7c575f60025482610e2591906118fa565b90505f6283d600600454600554610e3c919061193b565b60035484610e4a91906118fa565b610e5491906118fa565b610e5e919061199b565b90508082610e6c91906119cb565b86610e7791906119cb565b955050505b50508080600101915050610d84565b5090565b60075f9054906101000a900460ff1681565b60055481565b60025481565b600554421015610ef2576040517f08c379a0000000000000000000000000000000000000000000000000000000008152600401610ee990611cd0565b60405180910390fd5b5f60085f3373ffffffffffffffffffffffffffffffffffffffff1673ffffffffffffffffffffffffffffffffffffffff1681526020019081526020015f205490505f8111610f75576040517f08c379a0000000000000000000000000000000000000000000000000000000008152600401610f6c906118af565b60405180910390fd5b5f60025482610f8491906118fa565b90505f6283d600600454600554610f9b919061193b565b60035484610fa991906118fa565b610fb391906118fa565b610fbd919061199b565b90505f8183610fcc91906119cb565b905080471015611011576040517f08c379a000000000000000000000000000000000000000000000000000000000815260040161100890612164565b60405180910390fd5b5f60085f3373ffffffffffffffffffffffffffffffffffffffff1673ffffffffffffffffffffffffffffffffffffffff1681526020019081526020015f20819055503373ffffffffffffffffffffffffffffffffffffffff166108fc8290811502906040515f60405180830381858888f19350505050158015611096573d5f803e3d5ffd5b503373ffffffffffffffffffffffffffffffffffffffff167f9288b6de588c2ef664548c899db8a71f78097bdf2a031408e9bceff697cbf94f856040516110dd919061165f565b60405180910390a250505050565b5f8054906101000a900473ffffffffffffffffffffffffffffffffffffffff1673ffffffffffffffffffffffffffffffffffffffff163373ffffffffffffffffffffffffffffffffffffffff1614611178576040517f08c379a000000000000000000000000000000000000000000000000000000000815260040161116f906117b9565b60405180910390fd5b6005544210156111bd576040517f08c379a00000000000000000000000000000000000000000000000000000000081526004016111b490611cd0565b60405180910390fd5b5f5b600a80549050811015611293575f60085f600a84815481106111e4576111e36120c7565b5b905f5260205f20015f9054906101000a900473ffffffffffffffffffffffffffffffffffffffff1673ffffffffffffffffffffffffffffffffffffffff1673ffffffffffffffffffffffffffffffffffffffff1681526020019081526020015f205414611286576040517f08c379a000000000000000000000000000000000000000000000000000000000815260040161127d906121f2565b60405180910390fd5b80806001019150506111bf565b505f4790505f81116112da576040517f08c379a00000000000000000000000000000000000000000000000000000000081526004016112d190611dc6565b60405180910390fd5b5f8054906101000a900473ffffffffffffffffffffffffffffffffffffffff1673ffffffffffffffffffffffffffffffffffffffff166108fc8290811502906040515f60405180830381858888f1935050505015801561133c573d5f803e3d5ffd5b5050565b60015481565b60605f600161135484611410565b0190505f8167ffffffffffffffff81111561137257611371612210565b5b6040519080825280601f01601f1916602001820160405280156113a45781602001600182028036833780820191505090505b5090505f82602001820190505b600115611405578080600190039150507f3031323334353637383961626364656600000000000000000000000000000000600a86061a8153600a85816113fa576113f961196e565b5b0494505f85036113b1575b819350505050919050565b5f805f90507a184f03e93ff9f4daa797ed6e38ed64bf6a1f010000000000000000831061146c577a184f03e93ff9f4daa797ed6e38ed64bf6a1f01000000000000000083816114625761146161196e565b5b0492506040810190505b6d04ee2d6d415b85acef810000000083106114a9576d04ee2d6d415b85acef8100000000838161149f5761149e61196e565b5b0492506020810190505b662386f26fc1000083106114d857662386f26fc1000083816114ce576114cd61196e565b5b0492506010810190505b6305f5e1008310611501576305f5e10083816114f7576114f661196e565b5b0492506008810190505b612710831061152657612710838161151c5761151b61196e565b5b0492506004810190505b60648310611549576064838161153f5761153e61196e565b5b0492506002810190505b600a8310611558576001810190505b80915050919050565b5f73ffffffffffffffffffffffffffffffffffffffff82169050919050565b5f61158a82611561565b9050919050565b61159a81611580565b82525050565b5f6020820190506115b35f830184611591565b92915050565b5f80fd5b6115c681611580565b81146115d0575f80fd5b50565b5f813590506115e1816115bd565b92915050565b5f602082840312156115fc576115fb6115b9565b5b5f611609848285016115d3565b91505092915050565b5f819050919050565b61162481611612565b82525050565b5f60608201905061163d5f83018661161b565b61164a602083018561161b565b611657604083018461161b565b949350505050565b5f6020820190506116725f83018461161b565b92915050565b61168181611612565b811461168b575f80fd5b50565b5f8135905061169c81611678565b92915050565b5f805f80608085870312156116ba576116b96115b9565b5b5f6116c78782880161168e565b94505060206116d88782880161168e565b93505060406116e98782880161168e565b92505060606116fa8782880161168e565b91505092959194509250565b5f8115159050919050565b61171a81611706565b82525050565b5f6020820190506117335f830184611711565b92915050565b5f82825260208201905092915050565b7f4f6e6c79206973737565722063616e2063616c6c20746869732066756e6374695f8201527f6f6e2e0000000000000000000000000000000000000000000000000000000000602082015250565b5f6117a3602383611739565b91506117ae82611749565b604082019050919050565b5f6020820190508181035f8301526117d081611797565b9050919050565b7f416d6f756e74206d7573742062652067726561746572207468616e207a65726f5f8201527f2e00000000000000000000000000000000000000000000000000000000000000602082015250565b5f611831602183611739565b915061183c826117d7565b604082019050919050565b5f6020820190508181035f83015261185e81611825565b9050919050565b7f596f7520646f206e6f74206861766520626f6e647320746f2072656465656d2e5f82015250565b5f611899602083611739565b91506118a482611865565b602082019050919050565b5f6020820190508181035f8301526118c68161188d565b9050919050565b7f4e487b71000000000000000000000000000000000000000000000000000000005f52601160045260245ffd5b5f61190482611612565b915061190f83611612565b925082820261191d81611612565b91508282048414831517611934576119336118cd565b5b5092915050565b5f61194582611612565b915061195083611612565b9250828203905081811115611968576119676118cd565b5b92915050565b7f4e487b71000000000000000000000000000000000000000000000000000000005f52601260045260245ffd5b5f6119a582611612565b91506119b083611612565b9250826119c0576119bf61196e565b5b828204905092915050565b5f6119d582611612565b91506119e083611612565b92508282019050808211156119f8576119f76118cd565b5b92915050565b7f426f6e642073616c6520706572696f642068617320656e6465642e00000000005f82015250565b5f611a32601b83611739565b9150611a3d826119fe565b602082019050919050565b5f6020820190508181035f830152611a5f81611a26565b9050919050565b7f496e73756666696369656e742066756e647320746f2070757263686173652e005f82015250565b5f611a9a601f83611739565b9150611aa582611a66565b602082019050919050565b5f6020820190508181035f830152611ac781611a8e565b9050919050565b5f81905092915050565b7f496e73756666696369656e7420626f6e647320746f206275792e20417661696c5f8201527f61626c6520626f6e64733a200000000000000000000000000000000000000000602082015250565b5f611b32602c83611ace565b9150611b3d82611ad8565b602c82019050919050565b5f81519050919050565b8281835e5f83830152505050565b5f611b6a82611b48565b611b748185611ace565b9350611b84818560208601611b52565b80840191505092915050565b5f611b9a82611b26565b9150611ba68284611b60565b915081905092915050565b5f601f19601f8301169050919050565b5f611bcb82611b48565b611bd58185611739565b9350611be5818560208601611b52565b611bee81611bb1565b840191505092915050565b5f6020820190508181035f830152611c118184611bc1565b905092915050565b5f611c2382611612565b91507fffffffffffffffffffffffffffffffffffffffffffffffffffffffffffffffff8203611c5557611c546118cd565b5b600182019050919050565b7f426f6e6420726564656d7074696f6e20706572696f6420686173206e6f7420735f8201527f7461727465642e00000000000000000000000000000000000000000000000000602082015250565b5f611cba602783611739565b9150611cc582611c60565b604082019050919050565b5f6020820190508181035f830152611ce781611cae565b9050919050565b7f4f6e65206d6f6e746820686173206e6f74207061737365642073696e6365206d5f8201527f617475726974792e000000000000000000000000000000000000000000000000602082015250565b5f611d48602883611739565b9150611d5382611cee565b604082019050919050565b5f6020820190508181035f830152611d7581611d3c565b9050919050565b7f496e73756666696369656e742066756e647320746f2077697468647261772e005f82015250565b5f611db0601f83611739565b9150611dbb82611d7c565b602082019050919050565b5f6020820190508181035f830152611ddd81611da4565b9050919050565b7f426f6e647320616c7265616479206973737565642e00000000000000000000005f82015250565b5f611e18601583611739565b9150611e2382611de4565b602082019050919050565b5f6020820190508181035f830152611e4581611e0c565b9050919050565b7f546f74616c20626f6e6473206d7573742062652067726561746572207468616e5f8201527f207a65726f2e0000000000000000000000000000000000000000000000000000602082015250565b5f611ea6602683611739565b9150611eb182611e4c565b604082019050919050565b5f6020820190508181035f830152611ed381611e9a565b9050919050565b7f426f6e64207072696365206d7573742062652067726561746572207468616e205f8201527f7a65726f2e000000000000000000000000000000000000000000000000000000602082015250565b5f611f34602583611739565b9150611f3f82611eda565b604082019050919050565b5f6020820190508181035f830152611f6181611f28565b9050919050565b7f496e7465726573742072617465206d75737420626520677265617465722074685f8201527f616e207a65726f2e000000000000000000000000000000000000000000000000602082015250565b5f611fc2602883611739565b9150611fcd82611f68565b604082019050919050565b5f6020820190508181035f830152611fef81611fb6565b9050919050565b7f4d617475726974792064617465206d75737420626520696e20746865206675745f8201527f7572652e00000000000000000000000000000000000000000000000000000000602082015250565b5f612050602483611739565b915061205b82611ff6565b604082019050919050565b5f6020820190508181035f83015261207d81612044565b9050919050565b5f6080820190506120975f83018761161b565b6120a4602083018661161b565b6120b1604083018561161b565b6120be606083018461161b565b95945050505050565b7f4e487b71000000000000000000000000000000000000000000000000000000005f52603260045260245ffd5b7f496e73756666696369656e7420636f6e74726163742062616c616e636520666f5f8201527f72207061796f75742e0000000000000000000000000000000000000000000000602082015250565b5f61214e602983611739565b9150612159826120f4565b604082019050919050565b5f6020820190508181035f83015261217b81612142565b9050919050565b7f416c6c20626f6e6473206d7573742062652072656465656d6564206265666f725f8201527f65207769746864726177696e672072656d61696e696e672066756e64732e0000602082015250565b5f6121dc603e83611739565b91506121e782612182565b604082019050919050565b5f6020820190508181035f830152612209816121d0565b9050919050565b7f4e487b71000000000000000000000000000000000000000000000000000000005f52604160045260245ffdfea2646970667358221220450560c246200f1d8c2f9e15526c8a685018c7b476cf1499ee77731d7bffcbf764736f6c634300081a0033",
					"opcodes": "PUSH1 0x80 PUSH1 0x40 MSTORE CALLVALUE DUP1 ISZERO PUSH1 0xE JUMPI PUSH0 DUP1 REVERT JUMPDEST POP CALLER PUSH0 DUP1 PUSH2 0x100 EXP DUP2 SLOAD DUP2 PUSH20 0xFFFFFFFFFFFFFFFFFFFFFFFFFFFFFFFFFFFFFFFF MUL NOT AND SWAP1 DUP4 PUSH20 0xFFFFFFFFFFFFFFFFFFFFFFFFFFFFFFFFFFFFFFFF AND MUL OR SWAP1 SSTORE POP PUSH2 0x2273 DUP1 PUSH2 0x5B PUSH0 CODECOPY PUSH0 RETURN INVALID PUSH1 0x80 PUSH1 0x40 MSTORE PUSH1 0x4 CALLDATASIZE LT PUSH2 0xF6 JUMPI PUSH0 CALLDATALOAD PUSH1 0xE0 SHR DUP1 PUSH4 0xA766BC98 GT PUSH2 0x89 JUMPI DUP1 PUSH4 0xD7CCFB0B GT PUSH2 0x58 JUMPI DUP1 PUSH4 0xD7CCFB0B EQ PUSH2 0x2B7 JUMPI DUP1 PUSH4 0xE84A011A EQ PUSH2 0x2E1 JUMPI DUP1 PUSH4 0xEF86CE8E EQ PUSH2 0x2F7 JUMPI DUP1 PUSH4 0xF263C470 EQ PUSH2 0x30D JUMPI PUSH2 0xFD JUMP JUMPDEST DUP1 PUSH4 0xA766BC98 EQ PUSH2 0x20F JUMPI DUP1 PUSH4 0xCB7CAD2A EQ PUSH2 0x239 JUMPI DUP1 PUSH4 0xD33CE61A EQ PUSH2 0x263 JUMPI DUP1 PUSH4 0xD59624B4 EQ PUSH2 0x28D JUMPI PUSH2 0xFD JUMP JUMPDEST DUP1 PUSH4 0x5216AEEC GT PUSH2 0xC5 JUMPI DUP1 PUSH4 0x5216AEEC EQ PUSH2 0x17D JUMPI DUP1 PUSH4 0x7C221BC5 EQ PUSH2 0x1A7 JUMPI DUP1 PUSH4 0x7C3A00FD EQ PUSH2 0x1BD JUMPI DUP1 PUSH4 0x89585083 EQ PUSH2 0x1E7 JUMPI PUSH2 0xFD JUMP JUMPDEST DUP1 PUSH4 0x12CCCB34 EQ PUSH2 0x101 JUMPI DUP1 PUSH4 0x1D143848 EQ PUSH2 0x10B JUMPI DUP1 PUSH4 0x28D36CFC EQ PUSH2 0x135 JUMPI DUP1 PUSH4 0x3D31841B EQ PUSH2 0x173 JUMPI PUSH2 0xFD JUMP JUMPDEST CALLDATASIZE PUSH2 0xFD JUMPI STOP JUMPDEST PUSH0 DUP1 REVERT JUMPDEST PUSH2 0x109 PUSH2 0x337 JUMP JUMPDEST STOP JUMPDEST CALLVALUE DUP1 ISZERO PUSH2 0x116 JUMPI PUSH0 DUP1 REVERT JUMPDEST POP PUSH2 0x11F PUSH2 0x408 JUMP JUMPDEST PUSH1 0x40 MLOAD PUSH2 0x12C SWAP2 SWAP1 PUSH2 0x15A0 JUMP JUMPDEST PUSH1 0x40 MLOAD DUP1 SWAP2 SUB SWAP1 RETURN JUMPDEST CALLVALUE DUP1 ISZERO PUSH2 0x140 JUMPI PUSH0 DUP1 REVERT JUMPDEST POP PUSH2 0x15B PUSH1 0x4 DUP1 CALLDATASIZE SUB DUP2 ADD SWAP1 PUSH2 0x156 SWAP2 SWAP1 PUSH2 0x15E7 JUMP JUMPDEST PUSH2 0x42B JUMP JUMPDEST PUSH1 0x40 MLOAD PUSH2 0x16A SWAP4 SWAP3 SWAP2 SWAP1 PUSH2 0x162A JUMP JUMPDEST PUSH1 0x40 MLOAD DUP1 SWAP2 SUB SWAP1 RETURN JUMPDEST PUSH2 0x17B PUSH2 0x50F JUMP JUMPDEST STOP JUMPDEST CALLVALUE DUP1 ISZERO PUSH2 0x188 JUMPI PUSH0 DUP1 REVERT JUMPDEST POP PUSH2 0x191 PUSH2 0x849 JUMP JUMPDEST PUSH1 0x40 MLOAD PUSH2 0x19E SWAP2 SWAP1 PUSH2 0x165F JUMP JUMPDEST PUSH1 0x40 MLOAD DUP1 SWAP2 SUB SWAP1 RETURN JUMPDEST CALLVALUE DUP1 ISZERO PUSH2 0x1B2 JUMPI PUSH0 DUP1 REVERT JUMPDEST POP PUSH2 0x1BB PUSH2 0x84F JUMP JUMPDEST STOP JUMPDEST CALLVALUE DUP1 ISZERO PUSH2 0x1C8 JUMPI PUSH0 DUP1 REVERT JUMPDEST POP PUSH2 0x1D1 PUSH2 0xA20 JUMP JUMPDEST PUSH1 0x40 MLOAD PUSH2 0x1DE SWAP2 SWAP1 PUSH2 0x165F JUMP JUMPDEST PUSH1 0x40 MLOAD DUP1 SWAP2 SUB SWAP1 RETURN JUMPDEST CALLVALUE DUP1 ISZERO PUSH2 0x1F2 JUMPI PUSH0 DUP1 REVERT JUMPDEST POP PUSH2 0x20D PUSH1 0x4 DUP1 CALLDATASIZE SUB DUP2 ADD SWAP1 PUSH2 0x208 SWAP2 SWAP1 PUSH2 0x16A2 JUMP JUMPDEST PUSH2 0xA26 JUMP JUMPDEST STOP JUMPDEST CALLVALUE DUP1 ISZERO PUSH2 0x21A JUMPI PUSH0 DUP1 REVERT JUMPDEST POP PUSH2 0x223 PUSH2 0xCA5 JUMP JUMPDEST PUSH1 0x40 MLOAD PUSH2 0x230 SWAP2 SWAP1 PUSH2 0x165F JUMP JUMPDEST PUSH1 0x40 MLOAD DUP1 SWAP2 SUB SWAP1 RETURN JUMPDEST CALLVALUE DUP1 ISZERO PUSH2 0x244 JUMPI PUSH0 DUP1 REVERT JUMPDEST POP PUSH2 0x24D PUSH2 0xCAB JUMP JUMPDEST PUSH1 0x40 MLOAD PUSH2 0x25A SWAP2 SWAP1 PUSH2 0x165F JUMP JUMPDEST PUSH1 0x40 MLOAD DUP1 SWAP2 SUB SWAP1 RETURN JUMPDEST CALLVALUE DUP1 ISZERO PUSH2 0x26E JUMPI PUSH0 DUP1 REVERT JUMPDEST POP PUSH2 0x277 PUSH2 0xE8F JUMP JUMPDEST PUSH1 0x40 MLOAD PUSH2 0x284 SWAP2 SWAP1 PUSH2 0x1720 JUMP JUMPDEST PUSH1 0x40 MLOAD DUP1 SWAP2 SUB SWAP1 RETURN JUMPDEST CALLVALUE DUP1 ISZERO PUSH2 0x298 JUMPI PUSH0 DUP1 REVERT JUMPDEST POP PUSH2 0x2A1 PUSH2 0xEA1 JUMP JUMPDEST PUSH1 0x40 MLOAD PUSH2 0x2AE SWAP2 SWAP1 PUSH2 0x165F JUMP JUMPDEST PUSH1 0x40 MLOAD DUP1 SWAP2 SUB SWAP1 RETURN JUMPDEST CALLVALUE DUP1 ISZERO PUSH2 0x2C2 JUMPI PUSH0 DUP1 REVERT JUMPDEST POP PUSH2 0x2CB PUSH2 0xEA7 JUMP JUMPDEST PUSH1 0x40 MLOAD PUSH2 0x2D8 SWAP2 SWAP1 PUSH2 0x165F JUMP JUMPDEST PUSH1 0x40 MLOAD DUP1 SWAP2 SUB SWAP1 RETURN JUMPDEST CALLVALUE DUP1 ISZERO PUSH2 0x2EC JUMPI PUSH0 DUP1 REVERT JUMPDEST POP PUSH2 0x2F5 PUSH2 0xEAD JUMP JUMPDEST STOP JUMPDEST CALLVALUE DUP1 ISZERO PUSH2 0x302 JUMPI PUSH0 DUP1 REVERT JUMPDEST POP PUSH2 0x30B PUSH2 0x10EB JUMP JUMPDEST STOP JUMPDEST CALLVALUE DUP1 ISZERO PUSH2 0x318 JUMPI PUSH0 DUP1 REVERT JUMPDEST POP PUSH2 0x321 PUSH2 0x1340 JUMP JUMPDEST PUSH1 0x40 MLOAD PUSH2 0x32E SWAP2 SWAP1 PUSH2 0x165F JUMP JUMPDEST PUSH1 0x40 MLOAD DUP1 SWAP2 SUB SWAP1 RETURN JUMPDEST PUSH0 DUP1 SLOAD SWAP1 PUSH2 0x100 EXP SWAP1 DIV PUSH20 0xFFFFFFFFFFFFFFFFFFFFFFFFFFFFFFFFFFFFFFFF AND PUSH20 0xFFFFFFFFFFFFFFFFFFFFFFFFFFFFFFFFFFFFFFFF AND CALLER PUSH20 0xFFFFFFFFFFFFFFFFFFFFFFFFFFFFFFFFFFFFFFFF AND EQ PUSH2 0x3C4 JUMPI PUSH1 0x40 MLOAD PUSH32 0x8C379A000000000000000000000000000000000000000000000000000000000 DUP2 MSTORE PUSH1 0x4 ADD PUSH2 0x3BB SWAP1 PUSH2 0x17B9 JUMP JUMPDEST PUSH1 0x40 MLOAD DUP1 SWAP2 SUB SWAP1 REVERT JUMPDEST PUSH0 CALLVALUE GT PUSH2 0x406 JUMPI PUSH1 0x40 MLOAD PUSH32 0x8C379A000000000000000000000000000000000000000000000000000000000 DUP2 MSTORE PUSH1 0x4 ADD PUSH2 0x3FD SWAP1 PUSH2 0x1847 JUMP JUMPDEST PUSH1 0x40 MLOAD DUP1 SWAP2 SUB SWAP1 REVERT JUMPDEST JUMP JUMPDEST PUSH0 DUP1 SLOAD SWAP1 PUSH2 0x100 EXP SWAP1 DIV PUSH20 0xFFFFFFFFFFFFFFFFFFFFFFFFFFFFFFFFFFFFFFFF AND DUP2 JUMP JUMPDEST PUSH0 DUP1 PUSH0 DUP1 PUSH1 0x8 PUSH0 DUP7 PUSH20 0xFFFFFFFFFFFFFFFFFFFFFFFFFFFFFFFFFFFFFFFF AND PUSH20 0xFFFFFFFFFFFFFFFFFFFFFFFFFFFFFFFFFFFFFFFF AND DUP2 MSTORE PUSH1 0x20 ADD SWAP1 DUP2 MSTORE PUSH1 0x20 ADD PUSH0 KECCAK256 SLOAD SWAP1 POP PUSH0 DUP2 GT PUSH2 0x4B1 JUMPI PUSH1 0x40 MLOAD PUSH32 0x8C379A000000000000000000000000000000000000000000000000000000000 DUP2 MSTORE PUSH1 0x4 ADD PUSH2 0x4A8 SWAP1 PUSH2 0x18AF JUMP JUMPDEST PUSH1 0x40 MLOAD DUP1 SWAP2 SUB SWAP1 REVERT JUMPDEST PUSH1 0x2 SLOAD DUP2 PUSH2 0x4BF SWAP2 SWAP1 PUSH2 0x18FA JUMP JUMPDEST SWAP4 POP PUSH3 0x83D600 PUSH1 0x4 SLOAD PUSH1 0x5 SLOAD PUSH2 0x4D5 SWAP2 SWAP1 PUSH2 0x193B JUMP JUMPDEST PUSH1 0x3 SLOAD DUP7 PUSH2 0x4E3 SWAP2 SWAP1 PUSH2 0x18FA JUMP JUMPDEST PUSH2 0x4ED SWAP2 SWAP1 PUSH2 0x18FA JUMP JUMPDEST PUSH2 0x4F7 SWAP2 SWAP1 PUSH2 0x199B JUMP JUMPDEST SWAP3 POP DUP3 DUP5 PUSH2 0x505 SWAP2 SWAP1 PUSH2 0x19CB JUMP JUMPDEST SWAP2 POP POP SWAP2 SWAP4 SWAP1 SWAP3 POP JUMP JUMPDEST PUSH1 0x5 SLOAD TIMESTAMP LT PUSH2 0x553 JUMPI PUSH1 0x40 MLOAD PUSH32 0x8C379A000000000000000000000000000000000000000000000000000000000 DUP2 MSTORE PUSH1 0x4 ADD PUSH2 0x54A SWAP1 PUSH2 0x1A48 JUMP JUMPDEST PUSH1 0x40 MLOAD DUP1 SWAP2 SUB SWAP1 REVERT JUMPDEST PUSH0 CALLVALUE GT PUSH2 0x595 JUMPI PUSH1 0x40 MLOAD PUSH32 0x8C379A000000000000000000000000000000000000000000000000000000000 DUP2 MSTORE PUSH1 0x4 ADD PUSH2 0x58C SWAP1 PUSH2 0x1847 JUMP JUMPDEST PUSH1 0x40 MLOAD DUP1 SWAP2 SUB SWAP1 REVERT JUMPDEST PUSH0 PUSH1 0x2 SLOAD CALLVALUE PUSH2 0x5A4 SWAP2 SWAP1 PUSH2 0x199B JUMP JUMPDEST SWAP1 POP PUSH0 DUP2 GT PUSH2 0x5E8 JUMPI PUSH1 0x40 MLOAD PUSH32 0x8C379A000000000000000000000000000000000000000000000000000000000 DUP2 MSTORE PUSH1 0x4 ADD PUSH2 0x5DF SWAP1 PUSH2 0x1AB0 JUMP JUMPDEST PUSH1 0x40 MLOAD DUP1 SWAP2 SUB SWAP1 REVERT JUMPDEST DUP1 PUSH1 0x1 SLOAD LT ISZERO PUSH2 0x5F9 PUSH1 0x1 SLOAD PUSH2 0x1346 JUMP JUMPDEST PUSH1 0x40 MLOAD PUSH1 0x20 ADD PUSH2 0x609 SWAP2 SWAP1 PUSH2 0x1B90 JUMP JUMPDEST PUSH1 0x40 MLOAD PUSH1 0x20 DUP2 DUP4 SUB SUB DUP2 MSTORE SWAP1 PUSH1 0x40 MSTORE SWAP1 PUSH2 0x659 JUMPI PUSH1 0x40 MLOAD PUSH32 0x8C379A000000000000000000000000000000000000000000000000000000000 DUP2 MSTORE PUSH1 0x4 ADD PUSH2 0x650 SWAP2 SWAP1 PUSH2 0x1BF9 JUMP JUMPDEST PUSH1 0x40 MLOAD DUP1 SWAP2 SUB SWAP1 REVERT JUMPDEST POP PUSH1 0x9 PUSH0 CALLER PUSH20 0xFFFFFFFFFFFFFFFFFFFFFFFFFFFFFFFFFFFFFFFF AND PUSH20 0xFFFFFFFFFFFFFFFFFFFFFFFFFFFFFFFFFFFFFFFF AND DUP2 MSTORE PUSH1 0x20 ADD SWAP1 DUP2 MSTORE PUSH1 0x20 ADD PUSH0 KECCAK256 PUSH0 SWAP1 SLOAD SWAP1 PUSH2 0x100 EXP SWAP1 DIV PUSH1 0xFF AND PUSH2 0x775 JUMPI PUSH1 0xA CALLER SWAP1 DUP1 PUSH1 0x1 DUP2 SLOAD ADD DUP1 DUP3 SSTORE DUP1 SWAP2 POP POP PUSH1 0x1 SWAP1 SUB SWAP1 PUSH0 MSTORE PUSH1 0x20 PUSH0 KECCAK256 ADD PUSH0 SWAP1 SWAP2 SWAP1 SWAP2 SWAP1 SWAP2 PUSH2 0x100 EXP DUP2 SLOAD DUP2 PUSH20 0xFFFFFFFFFFFFFFFFFFFFFFFFFFFFFFFFFFFFFFFF MUL NOT AND SWAP1 DUP4 PUSH20 0xFFFFFFFFFFFFFFFFFFFFFFFFFFFFFFFFFFFFFFFF AND MUL OR SWAP1 SSTORE POP PUSH1 0x1 PUSH1 0x9 PUSH0 CALLER PUSH20 0xFFFFFFFFFFFFFFFFFFFFFFFFFFFFFFFFFFFFFFFF AND PUSH20 0xFFFFFFFFFFFFFFFFFFFFFFFFFFFFFFFFFFFFFFFF AND DUP2 MSTORE PUSH1 0x20 ADD SWAP1 DUP2 MSTORE PUSH1 0x20 ADD PUSH0 KECCAK256 PUSH0 PUSH2 0x100 EXP DUP2 SLOAD DUP2 PUSH1 0xFF MUL NOT AND SWAP1 DUP4 ISZERO ISZERO MUL OR SWAP1 SSTORE POP PUSH1 0xB PUSH0 DUP2 SLOAD DUP1 SWAP3 SWAP2 SWAP1 PUSH2 0x76F SWAP1 PUSH2 0x1C19 JUMP JUMPDEST SWAP2 SWAP1 POP SSTORE POP JUMPDEST DUP1 PUSH1 0x8 PUSH0 CALLER PUSH20 0xFFFFFFFFFFFFFFFFFFFFFFFFFFFFFFFFFFFFFFFF AND PUSH20 0xFFFFFFFFFFFFFFFFFFFFFFFFFFFFFFFFFFFFFFFF AND DUP2 MSTORE PUSH1 0x20 ADD SWAP1 DUP2 MSTORE PUSH1 0x20 ADD PUSH0 KECCAK256 PUSH0 DUP3 DUP3 SLOAD PUSH2 0x7C1 SWAP2 SWAP1 PUSH2 0x19CB JUMP JUMPDEST SWAP3 POP POP DUP2 SWAP1 SSTORE POP DUP1 PUSH1 0x1 PUSH0 DUP3 DUP3 SLOAD PUSH2 0x7D9 SWAP2 SWAP1 PUSH2 0x193B JUMP JUMPDEST SWAP3 POP POP DUP2 SWAP1 SSTORE POP CALLVALUE PUSH1 0x6 PUSH0 DUP3 DUP3 SLOAD PUSH2 0x7F1 SWAP2 SWAP1 PUSH2 0x19CB JUMP JUMPDEST SWAP3 POP POP DUP2 SWAP1 SSTORE POP CALLER PUSH20 0xFFFFFFFFFFFFFFFFFFFFFFFFFFFFFFFFFFFFFFFF AND PUSH32 0x72E04AF5DFDA760CFED5E6556215DDC010133900AA0B75CEFA0883038F37EAE2 DUP3 PUSH1 0x40 MLOAD PUSH2 0x83E SWAP2 SWAP1 PUSH2 0x165F JUMP JUMPDEST PUSH1 0x40 MLOAD DUP1 SWAP2 SUB SWAP1 LOG2 POP JUMP JUMPDEST PUSH1 0x6 SLOAD DUP2 JUMP JUMPDEST PUSH0 DUP1 SLOAD SWAP1 PUSH2 0x100 EXP SWAP1 DIV PUSH20 0xFFFFFFFFFFFFFFFFFFFFFFFFFFFFFFFFFFFFFFFF AND PUSH20 0xFFFFFFFFFFFFFFFFFFFFFFFFFFFFFFFFFFFFFFFF AND CALLER PUSH20 0xFFFFFFFFFFFFFFFFFFFFFFFFFFFFFFFFFFFFFFFF AND EQ PUSH2 0x8DC JUMPI PUSH1 0x40 MLOAD PUSH32 0x8C379A000000000000000000000000000000000000000000000000000000000 DUP2 MSTORE PUSH1 0x4 ADD PUSH2 0x8D3 SWAP1 PUSH2 0x17B9 JUMP JUMPDEST PUSH1 0x40 MLOAD DUP1 SWAP2 SUB SWAP1 REVERT JUMPDEST PUSH1 0x5 SLOAD TIMESTAMP LT ISZERO PUSH2 0x921 JUMPI PUSH1 0x40 MLOAD PUSH32 0x8C379A000000000000000000000000000000000000000000000000000000000 DUP2 MSTORE PUSH1 0x4 ADD PUSH2 0x918 SWAP1 PUSH2 0x1CD0 JUMP JUMPDEST PUSH1 0x40 MLOAD DUP1 SWAP2 SUB SWAP1 REVERT JUMPDEST PUSH3 0x278D00 PUSH1 0x5 SLOAD PUSH2 0x932 SWAP2 SWAP1 PUSH2 0x19CB JUMP JUMPDEST TIMESTAMP LT ISZERO PUSH2 0x974 JUMPI PUSH1 0x40 MLOAD PUSH32 0x8C379A000000000000000000000000000000000000000000000000000000000 DUP2 MSTORE PUSH1 0x4 ADD PUSH2 0x96B SWAP1 PUSH2 0x1D5E JUMP JUMPDEST PUSH1 0x40 MLOAD DUP1 SWAP2 SUB SWAP1 REVERT JUMPDEST PUSH0 SELFBALANCE SWAP1 POP PUSH0 DUP2 GT PUSH2 0x9BA JUMPI PUSH1 0x40 MLOAD PUSH32 0x8C379A000000000000000000000000000000000000000000000000000000000 DUP2 MSTORE PUSH1 0x4 ADD PUSH2 0x9B1 SWAP1 PUSH2 0x1DC6 JUMP JUMPDEST PUSH1 0x40 MLOAD DUP1 SWAP2 SUB SWAP1 REVERT JUMPDEST PUSH0 DUP1 SLOAD SWAP1 PUSH2 0x100 EXP SWAP1 DIV PUSH20 0xFFFFFFFFFFFFFFFFFFFFFFFFFFFFFFFFFFFFFFFF AND PUSH20 0xFFFFFFFFFFFFFFFFFFFFFFFFFFFFFFFFFFFFFFFF AND PUSH2 0x8FC DUP3 SWAP1 DUP2 ISZERO MUL SWAP1 PUSH1 0x40 MLOAD PUSH0 PUSH1 0x40 MLOAD DUP1 DUP4 SUB DUP2 DUP6 DUP9 DUP9 CALL SWAP4 POP POP POP POP ISZERO DUP1 ISZERO PUSH2 0xA1C JUMPI RETURNDATASIZE PUSH0 DUP1 RETURNDATACOPY RETURNDATASIZE PUSH0 REVERT JUMPDEST POP POP JUMP JUMPDEST PUSH1 0x3 SLOAD DUP2 JUMP JUMPDEST PUSH0 DUP1 SLOAD SWAP1 PUSH2 0x100 EXP SWAP1 DIV PUSH20 0xFFFFFFFFFFFFFFFFFFFFFFFFFFFFFFFFFFFFFFFF AND PUSH20 0xFFFFFFFFFFFFFFFFFFFFFFFFFFFFFFFFFFFFFFFF AND CALLER PUSH20 0xFFFFFFFFFFFFFFFFFFFFFFFFFFFFFFFFFFFFFFFF AND EQ PUSH2 0xAB3 JUMPI PUSH1 0x40 MLOAD PUSH32 0x8C379A000000000000000000000000000000000000000000000000000000000 DUP2 MSTORE PUSH1 0x4 ADD PUSH2 0xAAA SWAP1 PUSH2 0x17B9 JUMP JUMPDEST PUSH1 0x40 MLOAD DUP1 SWAP2 SUB SWAP1 REVERT JUMPDEST PUSH1 0x7 PUSH0 SWAP1 SLOAD SWAP1 PUSH2 0x100 EXP SWAP1 DIV PUSH1 0xFF AND ISZERO PUSH2 0xB02 JUMPI PUSH1 0x40 MLOAD PUSH32 0x8C379A000000000000000000000000000000000000000000000000000000000 DUP2 MSTORE PUSH1 0x4 ADD PUSH2 0xAF9 SWAP1 PUSH2 0x1E2E JUMP JUMPDEST PUSH1 0x40 MLOAD DUP1 SWAP2 SUB SWAP1 REVERT JUMPDEST PUSH0 DUP5 GT PUSH2 0xB44 JUMPI PUSH1 0x40 MLOAD PUSH32 0x8C379A000000000000000000000000000000000000000000000000000000000 DUP2 MSTORE PUSH1 0x4 ADD PUSH2 0xB3B SWAP1 PUSH2 0x1EBC JUMP JUMPDEST PUSH1 0x40 MLOAD DUP1 SWAP2 SUB SWAP1 REVERT JUMPDEST PUSH0 DUP4 GT PUSH2 0xB86 JUMPI PUSH1 0x40 MLOAD PUSH32 0x8C379A000000000000000000000000000000000000000000000000000000000 DUP2 MSTORE PUSH1 0x4 ADD PUSH2 0xB7D SWAP1 PUSH2 0x1F4A JUMP JUMPDEST PUSH1 0x40 MLOAD DUP1 SWAP2 SUB SWAP1 REVERT JUMPDEST PUSH0 DUP3 GT PUSH2 0xBC8 JUMPI PUSH1 0x40 MLOAD PUSH32 0x8C379A000000000000000000000000000000000000000000000000000000000 DUP2 MSTORE PUSH1 0x4 ADD PUSH2 0xBBF SWAP1 PUSH2 0x1FD8 JUMP JUMPDEST PUSH1 0x40 MLOAD DUP1 SWAP2 SUB SWAP1 REVERT JUMPDEST TIMESTAMP DUP2 GT PUSH2 0xC0A JUMPI PUSH1 0x40 MLOAD PUSH32 0x8C379A000000000000000000000000000000000000000000000000000000000 DUP2 MSTORE PUSH1 0x4 ADD PUSH2 0xC01 SWAP1 PUSH2 0x2066 JUMP JUMPDEST PUSH1 0x40 MLOAD DUP1 SWAP2 SUB SWAP1 REVERT JUMPDEST DUP4 PUSH1 0x1 DUP2 SWAP1 SSTORE POP PUSH8 0xDE0B6B3A7640000 DUP4 PUSH2 0xC25 SWAP2 SWAP1 PUSH2 0x18FA JUMP JUMPDEST PUSH1 0x2 DUP2 SWAP1 SSTORE POP DUP2 PUSH1 0x3 DUP2 SWAP1 SSTORE POP DUP1 PUSH1 0x5 DUP2 SWAP1 SSTORE POP TIMESTAMP PUSH1 0x4 DUP2 SWAP1 SSTORE POP PUSH1 0x1 PUSH1 0x7 PUSH0 PUSH2 0x100 EXP DUP2 SLOAD DUP2 PUSH1 0xFF MUL NOT AND SWAP1 DUP4 ISZERO ISZERO MUL OR SWAP1 SSTORE POP PUSH32 0xC4EDE3FCF855DC4685871BC70CBFF3B97F484D31F715AB9A3AC2D7B14776E2C6 PUSH1 0x1 SLOAD PUSH1 0x2 SLOAD PUSH1 0x3 SLOAD PUSH1 0x5 SLOAD PUSH1 0x40 MLOAD PUSH2 0xC97 SWAP5 SWAP4 SWAP3 SWAP2 SWAP1 PUSH2 0x2084 JUMP JUMPDEST PUSH1 0x40 MLOAD DUP1 SWAP2 SUB SWAP1 LOG1 POP POP POP POP JUMP JUMPDEST PUSH1 0x4 SLOAD DUP2 JUMP JUMPDEST PUSH0 DUP1 PUSH0 SWAP1 SLOAD SWAP1 PUSH2 0x100 EXP SWAP1 DIV PUSH20 0xFFFFFFFFFFFFFFFFFFFFFFFFFFFFFFFFFFFFFFFF AND PUSH20 0xFFFFFFFFFFFFFFFFFFFFFFFFFFFFFFFFFFFFFFFF AND CALLER PUSH20 0xFFFFFFFFFFFFFFFFFFFFFFFFFFFFFFFFFFFFFFFF AND EQ PUSH2 0xD3A JUMPI PUSH1 0x40 MLOAD PUSH32 0x8C379A000000000000000000000000000000000000000000000000000000000 DUP2 MSTORE PUSH1 0x4 ADD PUSH2 0xD31 SWAP1 PUSH2 0x17B9 JUMP JUMPDEST PUSH1 0x40 MLOAD DUP1 SWAP2 SUB SWAP1 REVERT JUMPDEST PUSH1 0x5 SLOAD TIMESTAMP LT ISZERO PUSH2 0xD7F JUMPI PUSH1 0x40 MLOAD PUSH32 0x8C379A000000000000000000000000000000000000000000000000000000000 DUP2 MSTORE PUSH1 0x4 ADD PUSH2 0xD76 SWAP1 PUSH2 0x1CD0 JUMP JUMPDEST PUSH1 0x40 MLOAD DUP1 SWAP2 SUB SWAP1 REVERT JUMPDEST PUSH0 SWAP1 POP PUSH0 JUMPDEST PUSH1 0xB SLOAD DUP2 LT ISZERO PUSH2 0xE8B JUMPI PUSH0 PUSH1 0xA DUP3 DUP2 SLOAD DUP2 LT PUSH2 0xDA3 JUMPI PUSH2 0xDA2 PUSH2 0x20C7 JUMP JUMPDEST JUMPDEST SWAP1 PUSH0 MSTORE PUSH1 0x20 PUSH0 KECCAK256 ADD PUSH0 SWAP1 SLOAD SWAP1 PUSH2 0x100 EXP SWAP1 DIV PUSH20 0xFFFFFFFFFFFFFFFFFFFFFFFFFFFFFFFFFFFFFFFF AND SWAP1 POP PUSH0 PUSH1 0x8 PUSH0 DUP4 PUSH20 0xFFFFFFFFFFFFFFFFFFFFFFFFFFFFFFFFFFFFFFFF AND PUSH20 0xFFFFFFFFFFFFFFFFFFFFFFFFFFFFFFFFFFFFFFFF AND DUP2 MSTORE PUSH1 0x20 ADD SWAP1 DUP2 MSTORE PUSH1 0x20 ADD PUSH0 KECCAK256 SLOAD SWAP1 POP PUSH0 DUP2 GT ISZERO PUSH2 0xE7C JUMPI PUSH0 PUSH1 0x2 SLOAD DUP3 PUSH2 0xE25 SWAP2 SWAP1 PUSH2 0x18FA JUMP JUMPDEST SWAP1 POP PUSH0 PUSH3 0x83D600 PUSH1 0x4 SLOAD PUSH1 0x5 SLOAD PUSH2 0xE3C SWAP2 SWAP1 PUSH2 0x193B JUMP JUMPDEST PUSH1 0x3 SLOAD DUP5 PUSH2 0xE4A SWAP2 SWAP1 PUSH2 0x18FA JUMP JUMPDEST PUSH2 0xE54 SWAP2 SWAP1 PUSH2 0x18FA JUMP JUMPDEST PUSH2 0xE5E SWAP2 SWAP1 PUSH2 0x199B JUMP JUMPDEST SWAP1 POP DUP1 DUP3 PUSH2 0xE6C SWAP2 SWAP1 PUSH2 0x19CB JUMP JUMPDEST DUP7 PUSH2 0xE77 SWAP2 SWAP1 PUSH2 0x19CB JUMP JUMPDEST SWAP6 POP POP POP JUMPDEST POP POP DUP1 DUP1 PUSH1 0x1 ADD SWAP2 POP POP PUSH2 0xD84 JUMP JUMPDEST POP SWAP1 JUMP JUMPDEST PUSH1 0x7 PUSH0 SWAP1 SLOAD SWAP1 PUSH2 0x100 EXP SWAP1 DIV PUSH1 0xFF AND DUP2 JUMP JUMPDEST PUSH1 0x5 SLOAD DUP2 JUMP JUMPDEST PUSH1 0x2 SLOAD DUP2 JUMP JUMPDEST PUSH1 0x5 SLOAD TIMESTAMP LT ISZERO PUSH2 0xEF2 JUMPI PUSH1 0x40 MLOAD PUSH32 0x8C379A000000000000000000000000000000000000000000000000000000000 DUP2 MSTORE PUSH1 0x4 ADD PUSH2 0xEE9 SWAP1 PUSH2 0x1CD0 JUMP JUMPDEST PUSH1 0x40 MLOAD DUP1 SWAP2 SUB SWAP1 REVERT JUMPDEST PUSH0 PUSH1 0x8 PUSH0 CALLER PUSH20 0xFFFFFFFFFFFFFFFFFFFFFFFFFFFFFFFFFFFFFFFF AND PUSH20 0xFFFFFFFFFFFFFFFFFFFFFFFFFFFFFFFFFFFFFFFF AND DUP2 MSTORE PUSH1 0x20 ADD SWAP1 DUP2 MSTORE PUSH1 0x20 ADD PUSH0 KECCAK256 SLOAD SWAP1 POP PUSH0 DUP2 GT PUSH2 0xF75 JUMPI PUSH1 0x40 MLOAD PUSH32 0x8C379A000000000000000000000000000000000000000000000000000000000 DUP2 MSTORE PUSH1 0x4 ADD PUSH2 0xF6C SWAP1 PUSH2 0x18AF JUMP JUMPDEST PUSH1 0x40 MLOAD DUP1 SWAP2 SUB SWAP1 REVERT JUMPDEST PUSH0 PUSH1 0x2 SLOAD DUP3 PUSH2 0xF84 SWAP2 SWAP1 PUSH2 0x18FA JUMP JUMPDEST SWAP1 POP PUSH0 PUSH3 0x83D600 PUSH1 0x4 SLOAD PUSH1 0x5 SLOAD PUSH2 0xF9B SWAP2 SWAP1 PUSH2 0x193B JUMP JUMPDEST PUSH1 0x3 SLOAD DUP5 PUSH2 0xFA9 SWAP2 SWAP1 PUSH2 0x18FA JUMP JUMPDEST PUSH2 0xFB3 SWAP2 SWAP1 PUSH2 0x18FA JUMP JUMPDEST PUSH2 0xFBD SWAP2 SWAP1 PUSH2 0x199B JUMP JUMPDEST SWAP1 POP PUSH0 DUP2 DUP4 PUSH2 0xFCC SWAP2 SWAP1 PUSH2 0x19CB JUMP JUMPDEST SWAP1 POP DUP1 SELFBALANCE LT ISZERO PUSH2 0x1011 JUMPI PUSH1 0x40 MLOAD PUSH32 0x8C379A000000000000000000000000000000000000000000000000000000000 DUP2 MSTORE PUSH1 0x4 ADD PUSH2 0x1008 SWAP1 PUSH2 0x2164 JUMP JUMPDEST PUSH1 0x40 MLOAD DUP1 SWAP2 SUB SWAP1 REVERT JUMPDEST PUSH0 PUSH1 0x8 PUSH0 CALLER PUSH20 0xFFFFFFFFFFFFFFFFFFFFFFFFFFFFFFFFFFFFFFFF AND PUSH20 0xFFFFFFFFFFFFFFFFFFFFFFFFFFFFFFFFFFFFFFFF AND DUP2 MSTORE PUSH1 0x20 ADD SWAP1 DUP2 MSTORE PUSH1 0x20 ADD PUSH0 KECCAK256 DUP2 SWAP1 SSTORE POP CALLER PUSH20 0xFFFFFFFFFFFFFFFFFFFFFFFFFFFFFFFFFFFFFFFF AND PUSH2 0x8FC DUP3 SWAP1 DUP2 ISZERO MUL SWAP1 PUSH1 0x40 MLOAD PUSH0 PUSH1 0x40 MLOAD DUP1 DUP4 SUB DUP2 DUP6 DUP9 DUP9 CALL SWAP4 POP POP POP POP ISZERO DUP1 ISZERO PUSH2 0x1096 JUMPI RETURNDATASIZE PUSH0 DUP1 RETURNDATACOPY RETURNDATASIZE PUSH0 REVERT JUMPDEST POP CALLER PUSH20 0xFFFFFFFFFFFFFFFFFFFFFFFFFFFFFFFFFFFFFFFF AND PUSH32 0x9288B6DE588C2EF664548C899DB8A71F78097BDF2A031408E9BCEFF697CBF94F DUP6 PUSH1 0x40 MLOAD PUSH2 0x10DD SWAP2 SWAP1 PUSH2 0x165F JUMP JUMPDEST PUSH1 0x40 MLOAD DUP1 SWAP2 SUB SWAP1 LOG2 POP POP POP POP JUMP JUMPDEST PUSH0 DUP1 SLOAD SWAP1 PUSH2 0x100 EXP SWAP1 DIV PUSH20 0xFFFFFFFFFFFFFFFFFFFFFFFFFFFFFFFFFFFFFFFF AND PUSH20 0xFFFFFFFFFFFFFFFFFFFFFFFFFFFFFFFFFFFFFFFF AND CALLER PUSH20 0xFFFFFFFFFFFFFFFFFFFFFFFFFFFFFFFFFFFFFFFF AND EQ PUSH2 0x1178 JUMPI PUSH1 0x40 MLOAD PUSH32 0x8C379A000000000000000000000000000000000000000000000000000000000 DUP2 MSTORE PUSH1 0x4 ADD PUSH2 0x116F SWAP1 PUSH2 0x17B9 JUMP JUMPDEST PUSH1 0x40 MLOAD DUP1 SWAP2 SUB SWAP1 REVERT JUMPDEST PUSH1 0x5 SLOAD TIMESTAMP LT ISZERO PUSH2 0x11BD JUMPI PUSH1 0x40 MLOAD PUSH32 0x8C379A000000000000000000000000000000000000000000000000000000000 DUP2 MSTORE PUSH1 0x4 ADD PUSH2 0x11B4 SWAP1 PUSH2 0x1CD0 JUMP JUMPDEST PUSH1 0x40 MLOAD DUP1 SWAP2 SUB SWAP1 REVERT JUMPDEST PUSH0 JUMPDEST PUSH1 0xA DUP1 SLOAD SWAP1 POP DUP2 LT ISZERO PUSH2 0x1293 JUMPI PUSH0 PUSH1 0x8 PUSH0 PUSH1 0xA DUP5 DUP2 SLOAD DUP2 LT PUSH2 0x11E4 JUMPI PUSH2 0x11E3 PUSH2 0x20C7 JUMP JUMPDEST JUMPDEST SWAP1 PUSH0 MSTORE PUSH1 0x20 PUSH0 KECCAK256 ADD PUSH0 SWAP1 SLOAD SWAP1 PUSH2 0x100 EXP SWAP1 DIV PUSH20 0xFFFFFFFFFFFFFFFFFFFFFFFFFFFFFFFFFFFFFFFF AND PUSH20 0xFFFFFFFFFFFFFFFFFFFFFFFFFFFFFFFFFFFFFFFF AND PUSH20 0xFFFFFFFFFFFFFFFFFFFFFFFFFFFFFFFFFFFFFFFF AND DUP2 MSTORE PUSH1 0x20 ADD SWAP1 DUP2 MSTORE PUSH1 0x20 ADD PUSH0 KECCAK256 SLOAD EQ PUSH2 0x1286 JUMPI PUSH1 0x40 MLOAD PUSH32 0x8C379A000000000000000000000000000000000000000000000000000000000 DUP2 MSTORE PUSH1 0x4 ADD PUSH2 0x127D SWAP1 PUSH2 0x21F2 JUMP JUMPDEST PUSH1 0x40 MLOAD DUP1 SWAP2 SUB SWAP1 REVERT JUMPDEST DUP1 DUP1 PUSH1 0x1 ADD SWAP2 POP POP PUSH2 0x11BF JUMP JUMPDEST POP PUSH0 SELFBALANCE SWAP1 POP PUSH0 DUP2 GT PUSH2 0x12DA JUMPI PUSH1 0x40 MLOAD PUSH32 0x8C379A000000000000000000000000000000000000000000000000000000000 DUP2 MSTORE PUSH1 0x4 ADD PUSH2 0x12D1 SWAP1 PUSH2 0x1DC6 JUMP JUMPDEST PUSH1 0x40 MLOAD DUP1 SWAP2 SUB SWAP1 REVERT JUMPDEST PUSH0 DUP1 SLOAD SWAP1 PUSH2 0x100 EXP SWAP1 DIV PUSH20 0xFFFFFFFFFFFFFFFFFFFFFFFFFFFFFFFFFFFFFFFF AND PUSH20 0xFFFFFFFFFFFFFFFFFFFFFFFFFFFFFFFFFFFFFFFF AND PUSH2 0x8FC DUP3 SWAP1 DUP2 ISZERO MUL SWAP1 PUSH1 0x40 MLOAD PUSH0 PUSH1 0x40 MLOAD DUP1 DUP4 SUB DUP2 DUP6 DUP9 DUP9 CALL SWAP4 POP POP POP POP ISZERO DUP1 ISZERO PUSH2 0x133C JUMPI RETURNDATASIZE PUSH0 DUP1 RETURNDATACOPY RETURNDATASIZE PUSH0 REVERT JUMPDEST POP POP JUMP JUMPDEST PUSH1 0x1 SLOAD DUP2 JUMP JUMPDEST PUSH1 0x60 PUSH0 PUSH1 0x1 PUSH2 0x1354 DUP5 PUSH2 0x1410 JUMP JUMPDEST ADD SWAP1 POP PUSH0 DUP2 PUSH8 0xFFFFFFFFFFFFFFFF DUP2 GT ISZERO PUSH2 0x1372 JUMPI PUSH2 0x1371 PUSH2 0x2210 JUMP JUMPDEST JUMPDEST PUSH1 0x40 MLOAD SWAP1 DUP1 DUP3 MSTORE DUP1 PUSH1 0x1F ADD PUSH1 0x1F NOT AND PUSH1 0x20 ADD DUP3 ADD PUSH1 0x40 MSTORE DUP1 ISZERO PUSH2 0x13A4 JUMPI DUP2 PUSH1 0x20 ADD PUSH1 0x1 DUP3 MUL DUP1 CALLDATASIZE DUP4 CALLDATACOPY DUP1 DUP3 ADD SWAP2 POP POP SWAP1 POP JUMPDEST POP SWAP1 POP PUSH0 DUP3 PUSH1 0x20 ADD DUP3 ADD SWAP1 POP JUMPDEST PUSH1 0x1 ISZERO PUSH2 0x1405 JUMPI DUP1 DUP1 PUSH1 0x1 SWAP1 SUB SWAP2 POP POP PUSH32 0x3031323334353637383961626364656600000000000000000000000000000000 PUSH1 0xA DUP7 MOD BYTE DUP2 MSTORE8 PUSH1 0xA DUP6 DUP2 PUSH2 0x13FA JUMPI PUSH2 0x13F9 PUSH2 0x196E JUMP JUMPDEST JUMPDEST DIV SWAP5 POP PUSH0 DUP6 SUB PUSH2 0x13B1 JUMPI JUMPDEST DUP2 SWAP4 POP POP POP POP SWAP2 SWAP1 POP JUMP JUMPDEST PUSH0 DUP1 PUSH0 SWAP1 POP PUSH27 0x184F03E93FF9F4DAA797ED6E38ED64BF6A1F010000000000000000 DUP4 LT PUSH2 0x146C JUMPI PUSH27 0x184F03E93FF9F4DAA797ED6E38ED64BF6A1F010000000000000000 DUP4 DUP2 PUSH2 0x1462 JUMPI PUSH2 0x1461 PUSH2 0x196E JUMP JUMPDEST JUMPDEST DIV SWAP3 POP PUSH1 0x40 DUP2 ADD SWAP1 POP JUMPDEST PUSH14 0x4EE2D6D415B85ACEF8100000000 DUP4 LT PUSH2 0x14A9 JUMPI PUSH14 0x4EE2D6D415B85ACEF8100000000 DUP4 DUP2 PUSH2 0x149F JUMPI PUSH2 0x149E PUSH2 0x196E JUMP JUMPDEST JUMPDEST DIV SWAP3 POP PUSH1 0x20 DUP2 ADD SWAP1 POP JUMPDEST PUSH7 0x2386F26FC10000 DUP4 LT PUSH2 0x14D8 JUMPI PUSH7 0x2386F26FC10000 DUP4 DUP2 PUSH2 0x14CE JUMPI PUSH2 0x14CD PUSH2 0x196E JUMP JUMPDEST JUMPDEST DIV SWAP3 POP PUSH1 0x10 DUP2 ADD SWAP1 POP JUMPDEST PUSH4 0x5F5E100 DUP4 LT PUSH2 0x1501 JUMPI PUSH4 0x5F5E100 DUP4 DUP2 PUSH2 0x14F7 JUMPI PUSH2 0x14F6 PUSH2 0x196E JUMP JUMPDEST JUMPDEST DIV SWAP3 POP PUSH1 0x8 DUP2 ADD SWAP1 POP JUMPDEST PUSH2 0x2710 DUP4 LT PUSH2 0x1526 JUMPI PUSH2 0x2710 DUP4 DUP2 PUSH2 0x151C JUMPI PUSH2 0x151B PUSH2 0x196E JUMP JUMPDEST JUMPDEST DIV SWAP3 POP PUSH1 0x4 DUP2 ADD SWAP1 POP JUMPDEST PUSH1 0x64 DUP4 LT PUSH2 0x1549 JUMPI PUSH1 0x64 DUP4 DUP2 PUSH2 0x153F JUMPI PUSH2 0x153E PUSH2 0x196E JUMP JUMPDEST JUMPDEST DIV SWAP3 POP PUSH1 0x2 DUP2 ADD SWAP1 POP JUMPDEST PUSH1 0xA DUP4 LT PUSH2 0x1558 JUMPI PUSH1 0x1 DUP2 ADD SWAP1 POP JUMPDEST DUP1 SWAP2 POP POP SWAP2 SWAP1 POP JUMP JUMPDEST PUSH0 PUSH20 0xFFFFFFFFFFFFFFFFFFFFFFFFFFFFFFFFFFFFFFFF DUP3 AND SWAP1 POP SWAP2 SWAP1 POP JUMP JUMPDEST PUSH0 PUSH2 0x158A DUP3 PUSH2 0x1561 JUMP JUMPDEST SWAP1 POP SWAP2 SWAP1 POP JUMP JUMPDEST PUSH2 0x159A DUP2 PUSH2 0x1580 JUMP JUMPDEST DUP3 MSTORE POP POP JUMP JUMPDEST PUSH0 PUSH1 0x20 DUP3 ADD SWAP1 POP PUSH2 0x15B3 PUSH0 DUP4 ADD DUP5 PUSH2 0x1591 JUMP JUMPDEST SWAP3 SWAP2 POP POP JUMP JUMPDEST PUSH0 DUP1 REVERT JUMPDEST PUSH2 0x15C6 DUP2 PUSH2 0x1580 JUMP JUMPDEST DUP2 EQ PUSH2 0x15D0 JUMPI PUSH0 DUP1 REVERT JUMPDEST POP JUMP JUMPDEST PUSH0 DUP2 CALLDATALOAD SWAP1 POP PUSH2 0x15E1 DUP2 PUSH2 0x15BD JUMP JUMPDEST SWAP3 SWAP2 POP POP JUMP JUMPDEST PUSH0 PUSH1 0x20 DUP3 DUP5 SUB SLT ISZERO PUSH2 0x15FC JUMPI PUSH2 0x15FB PUSH2 0x15B9 JUMP JUMPDEST JUMPDEST PUSH0 PUSH2 0x1609 DUP5 DUP3 DUP6 ADD PUSH2 0x15D3 JUMP JUMPDEST SWAP2 POP POP SWAP3 SWAP2 POP POP JUMP JUMPDEST PUSH0 DUP2 SWAP1 POP SWAP2 SWAP1 POP JUMP JUMPDEST PUSH2 0x1624 DUP2 PUSH2 0x1612 JUMP JUMPDEST DUP3 MSTORE POP POP JUMP JUMPDEST PUSH0 PUSH1 0x60 DUP3 ADD SWAP1 POP PUSH2 0x163D PUSH0 DUP4 ADD DUP7 PUSH2 0x161B JUMP JUMPDEST PUSH2 0x164A PUSH1 0x20 DUP4 ADD DUP6 PUSH2 0x161B JUMP JUMPDEST PUSH2 0x1657 PUSH1 0x40 DUP4 ADD DUP5 PUSH2 0x161B JUMP JUMPDEST SWAP5 SWAP4 POP POP POP POP JUMP JUMPDEST PUSH0 PUSH1 0x20 DUP3 ADD SWAP1 POP PUSH2 0x1672 PUSH0 DUP4 ADD DUP5 PUSH2 0x161B JUMP JUMPDEST SWAP3 SWAP2 POP POP JUMP JUMPDEST PUSH2 0x1681 DUP2 PUSH2 0x1612 JUMP JUMPDEST DUP2 EQ PUSH2 0x168B JUMPI PUSH0 DUP1 REVERT JUMPDEST POP JUMP JUMPDEST PUSH0 DUP2 CALLDATALOAD SWAP1 POP PUSH2 0x169C DUP2 PUSH2 0x1678 JUMP JUMPDEST SWAP3 SWAP2 POP POP JUMP JUMPDEST PUSH0 DUP1 PUSH0 DUP1 PUSH1 0x80 DUP6 DUP8 SUB SLT ISZERO PUSH2 0x16BA JUMPI PUSH2 0x16B9 PUSH2 0x15B9 JUMP JUMPDEST JUMPDEST PUSH0 PUSH2 0x16C7 DUP8 DUP3 DUP9 ADD PUSH2 0x168E JUMP JUMPDEST SWAP5 POP POP PUSH1 0x20 PUSH2 0x16D8 DUP8 DUP3 DUP9 ADD PUSH2 0x168E JUMP JUMPDEST SWAP4 POP POP PUSH1 0x40 PUSH2 0x16E9 DUP8 DUP3 DUP9 ADD PUSH2 0x168E JUMP JUMPDEST SWAP3 POP POP PUSH1 0x60 PUSH2 0x16FA DUP8 DUP3 DUP9 ADD PUSH2 0x168E JUMP JUMPDEST SWAP2 POP POP SWAP3 SWAP6 SWAP2 SWAP5 POP SWAP3 POP JUMP JUMPDEST PUSH0 DUP2 ISZERO ISZERO SWAP1 POP SWAP2 SWAP1 POP JUMP JUMPDEST PUSH2 0x171A DUP2 PUSH2 0x1706 JUMP JUMPDEST DUP3 MSTORE POP POP JUMP JUMPDEST PUSH0 PUSH1 0x20 DUP3 ADD SWAP1 POP PUSH2 0x1733 PUSH0 DUP4 ADD DUP5 PUSH2 0x1711 JUMP JUMPDEST SWAP3 SWAP2 POP POP JUMP JUMPDEST PUSH0 DUP3 DUP3 MSTORE PUSH1 0x20 DUP3 ADD SWAP1 POP SWAP3 SWAP2 POP POP JUMP JUMPDEST PUSH32 0x4F6E6C79206973737565722063616E2063616C6C20746869732066756E637469 PUSH0 DUP3 ADD MSTORE PUSH32 0x6F6E2E0000000000000000000000000000000000000000000000000000000000 PUSH1 0x20 DUP3 ADD MSTORE POP JUMP JUMPDEST PUSH0 PUSH2 0x17A3 PUSH1 0x23 DUP4 PUSH2 0x1739 JUMP JUMPDEST SWAP2 POP PUSH2 0x17AE DUP3 PUSH2 0x1749 JUMP JUMPDEST PUSH1 0x40 DUP3 ADD SWAP1 POP SWAP2 SWAP1 POP JUMP JUMPDEST PUSH0 PUSH1 0x20 DUP3 ADD SWAP1 POP DUP2 DUP2 SUB PUSH0 DUP4 ADD MSTORE PUSH2 0x17D0 DUP2 PUSH2 0x1797 JUMP JUMPDEST SWAP1 POP SWAP2 SWAP1 POP JUMP JUMPDEST PUSH32 0x416D6F756E74206D7573742062652067726561746572207468616E207A65726F PUSH0 DUP3 ADD MSTORE PUSH32 0x2E00000000000000000000000000000000000000000000000000000000000000 PUSH1 0x20 DUP3 ADD MSTORE POP JUMP JUMPDEST PUSH0 PUSH2 0x1831 PUSH1 0x21 DUP4 PUSH2 0x1739 JUMP JUMPDEST SWAP2 POP PUSH2 0x183C DUP3 PUSH2 0x17D7 JUMP JUMPDEST PUSH1 0x40 DUP3 ADD SWAP1 POP SWAP2 SWAP1 POP JUMP JUMPDEST PUSH0 PUSH1 0x20 DUP3 ADD SWAP1 POP DUP2 DUP2 SUB PUSH0 DUP4 ADD MSTORE PUSH2 0x185E DUP2 PUSH2 0x1825 JUMP JUMPDEST SWAP1 POP SWAP2 SWAP1 POP JUMP JUMPDEST PUSH32 0x596F7520646F206E6F74206861766520626F6E647320746F2072656465656D2E PUSH0 DUP3 ADD MSTORE POP JUMP JUMPDEST PUSH0 PUSH2 0x1899 PUSH1 0x20 DUP4 PUSH2 0x1739 JUMP JUMPDEST SWAP2 POP PUSH2 0x18A4 DUP3 PUSH2 0x1865 JUMP JUMPDEST PUSH1 0x20 DUP3 ADD SWAP1 POP SWAP2 SWAP1 POP JUMP JUMPDEST PUSH0 PUSH1 0x20 DUP3 ADD SWAP1 POP DUP2 DUP2 SUB PUSH0 DUP4 ADD MSTORE PUSH2 0x18C6 DUP2 PUSH2 0x188D JUMP JUMPDEST SWAP1 POP SWAP2 SWAP1 POP JUMP JUMPDEST PUSH32 0x4E487B7100000000000000000000000000000000000000000000000000000000 PUSH0 MSTORE PUSH1 0x11 PUSH1 0x4 MSTORE PUSH1 0x24 PUSH0 REVERT JUMPDEST PUSH0 PUSH2 0x1904 DUP3 PUSH2 0x1612 JUMP JUMPDEST SWAP2 POP PUSH2 0x190F DUP4 PUSH2 0x1612 JUMP JUMPDEST SWAP3 POP DUP3 DUP3 MUL PUSH2 0x191D DUP2 PUSH2 0x1612 JUMP JUMPDEST SWAP2 POP DUP3 DUP3 DIV DUP5 EQ DUP4 ISZERO OR PUSH2 0x1934 JUMPI PUSH2 0x1933 PUSH2 0x18CD JUMP JUMPDEST JUMPDEST POP SWAP3 SWAP2 POP POP JUMP JUMPDEST PUSH0 PUSH2 0x1945 DUP3 PUSH2 0x1612 JUMP JUMPDEST SWAP2 POP PUSH2 0x1950 DUP4 PUSH2 0x1612 JUMP JUMPDEST SWAP3 POP DUP3 DUP3 SUB SWAP1 POP DUP2 DUP2 GT ISZERO PUSH2 0x1968 JUMPI PUSH2 0x1967 PUSH2 0x18CD JUMP JUMPDEST JUMPDEST SWAP3 SWAP2 POP POP JUMP JUMPDEST PUSH32 0x4E487B7100000000000000000000000000000000000000000000000000000000 PUSH0 MSTORE PUSH1 0x12 PUSH1 0x4 MSTORE PUSH1 0x24 PUSH0 REVERT JUMPDEST PUSH0 PUSH2 0x19A5 DUP3 PUSH2 0x1612 JUMP JUMPDEST SWAP2 POP PUSH2 0x19B0 DUP4 PUSH2 0x1612 JUMP JUMPDEST SWAP3 POP DUP3 PUSH2 0x19C0 JUMPI PUSH2 0x19BF PUSH2 0x196E JUMP JUMPDEST JUMPDEST DUP3 DUP3 DIV SWAP1 POP SWAP3 SWAP2 POP POP JUMP JUMPDEST PUSH0 PUSH2 0x19D5 DUP3 PUSH2 0x1612 JUMP JUMPDEST SWAP2 POP PUSH2 0x19E0 DUP4 PUSH2 0x1612 JUMP JUMPDEST SWAP3 POP DUP3 DUP3 ADD SWAP1 POP DUP1 DUP3 GT ISZERO PUSH2 0x19F8 JUMPI PUSH2 0x19F7 PUSH2 0x18CD JUMP JUMPDEST JUMPDEST SWAP3 SWAP2 POP POP JUMP JUMPDEST PUSH32 0x426F6E642073616C6520706572696F642068617320656E6465642E0000000000 PUSH0 DUP3 ADD MSTORE POP JUMP JUMPDEST PUSH0 PUSH2 0x1A32 PUSH1 0x1B DUP4 PUSH2 0x1739 JUMP JUMPDEST SWAP2 POP PUSH2 0x1A3D DUP3 PUSH2 0x19FE JUMP JUMPDEST PUSH1 0x20 DUP3 ADD SWAP1 POP SWAP2 SWAP1 POP JUMP JUMPDEST PUSH0 PUSH1 0x20 DUP3 ADD SWAP1 POP DUP2 DUP2 SUB PUSH0 DUP4 ADD MSTORE PUSH2 0x1A5F DUP2 PUSH2 0x1A26 JUMP JUMPDEST SWAP1 POP SWAP2 SWAP1 POP JUMP JUMPDEST PUSH32 0x496E73756666696369656E742066756E647320746F2070757263686173652E00 PUSH0 DUP3 ADD MSTORE POP JUMP JUMPDEST PUSH0 PUSH2 0x1A9A PUSH1 0x1F DUP4 PUSH2 0x1739 JUMP JUMPDEST SWAP2 POP PUSH2 0x1AA5 DUP3 PUSH2 0x1A66 JUMP JUMPDEST PUSH1 0x20 DUP3 ADD SWAP1 POP SWAP2 SWAP1 POP JUMP JUMPDEST PUSH0 PUSH1 0x20 DUP3 ADD SWAP1 POP DUP2 DUP2 SUB PUSH0 DUP4 ADD MSTORE PUSH2 0x1AC7 DUP2 PUSH2 0x1A8E JUMP JUMPDEST SWAP1 POP SWAP2 SWAP1 POP JUMP JUMPDEST PUSH0 DUP2 SWAP1 POP SWAP3 SWAP2 POP POP JUMP JUMPDEST PUSH32 0x496E73756666696369656E7420626F6E647320746F206275792E20417661696C PUSH0 DUP3 ADD MSTORE PUSH32 0x61626C6520626F6E64733A200000000000000000000000000000000000000000 PUSH1 0x20 DUP3 ADD MSTORE POP JUMP JUMPDEST PUSH0 PUSH2 0x1B32 PUSH1 0x2C DUP4 PUSH2 0x1ACE JUMP JUMPDEST SWAP2 POP PUSH2 0x1B3D DUP3 PUSH2 0x1AD8 JUMP JUMPDEST PUSH1 0x2C DUP3 ADD SWAP1 POP SWAP2 SWAP1 POP JUMP JUMPDEST PUSH0 DUP2 MLOAD SWAP1 POP SWAP2 SWAP1 POP JUMP JUMPDEST DUP3 DUP2 DUP4 MCOPY PUSH0 DUP4 DUP4 ADD MSTORE POP POP POP JUMP JUMPDEST PUSH0 PUSH2 0x1B6A DUP3 PUSH2 0x1B48 JUMP JUMPDEST PUSH2 0x1B74 DUP2 DUP6 PUSH2 0x1ACE JUMP JUMPDEST SWAP4 POP PUSH2 0x1B84 DUP2 DUP6 PUSH1 0x20 DUP7 ADD PUSH2 0x1B52 JUMP JUMPDEST DUP1 DUP5 ADD SWAP2 POP POP SWAP3 SWAP2 POP POP JUMP JUMPDEST PUSH0 PUSH2 0x1B9A DUP3 PUSH2 0x1B26 JUMP JUMPDEST SWAP2 POP PUSH2 0x1BA6 DUP3 DUP5 PUSH2 0x1B60 JUMP JUMPDEST SWAP2 POP DUP2 SWAP1 POP SWAP3 SWAP2 POP POP JUMP JUMPDEST PUSH0 PUSH1 0x1F NOT PUSH1 0x1F DUP4 ADD AND SWAP1 POP SWAP2 SWAP1 POP JUMP JUMPDEST PUSH0 PUSH2 0x1BCB DUP3 PUSH2 0x1B48 JUMP JUMPDEST PUSH2 0x1BD5 DUP2 DUP6 PUSH2 0x1739 JUMP JUMPDEST SWAP4 POP PUSH2 0x1BE5 DUP2 DUP6 PUSH1 0x20 DUP7 ADD PUSH2 0x1B52 JUMP JUMPDEST PUSH2 0x1BEE DUP2 PUSH2 0x1BB1 JUMP JUMPDEST DUP5 ADD SWAP2 POP POP SWAP3 SWAP2 POP POP JUMP JUMPDEST PUSH0 PUSH1 0x20 DUP3 ADD SWAP1 POP DUP2 DUP2 SUB PUSH0 DUP4 ADD MSTORE PUSH2 0x1C11 DUP2 DUP5 PUSH2 0x1BC1 JUMP JUMPDEST SWAP1 POP SWAP3 SWAP2 POP POP JUMP JUMPDEST PUSH0 PUSH2 0x1C23 DUP3 PUSH2 0x1612 JUMP JUMPDEST SWAP2 POP PUSH32 0xFFFFFFFFFFFFFFFFFFFFFFFFFFFFFFFFFFFFFFFFFFFFFFFFFFFFFFFFFFFFFFFF DUP3 SUB PUSH2 0x1C55 JUMPI PUSH2 0x1C54 PUSH2 0x18CD JUMP JUMPDEST JUMPDEST PUSH1 0x1 DUP3 ADD SWAP1 POP SWAP2 SWAP1 POP JUMP JUMPDEST PUSH32 0x426F6E6420726564656D7074696F6E20706572696F6420686173206E6F742073 PUSH0 DUP3 ADD MSTORE PUSH32 0x7461727465642E00000000000000000000000000000000000000000000000000 PUSH1 0x20 DUP3 ADD MSTORE POP JUMP JUMPDEST PUSH0 PUSH2 0x1CBA PUSH1 0x27 DUP4 PUSH2 0x1739 JUMP JUMPDEST SWAP2 POP PUSH2 0x1CC5 DUP3 PUSH2 0x1C60 JUMP JUMPDEST PUSH1 0x40 DUP3 ADD SWAP1 POP SWAP2 SWAP1 POP JUMP JUMPDEST PUSH0 PUSH1 0x20 DUP3 ADD SWAP1 POP DUP2 DUP2 SUB PUSH0 DUP4 ADD MSTORE PUSH2 0x1CE7 DUP2 PUSH2 0x1CAE JUMP JUMPDEST SWAP1 POP SWAP2 SWAP1 POP JUMP JUMPDEST PUSH32 0x4F6E65206D6F6E746820686173206E6F74207061737365642073696E6365206D PUSH0 DUP3 ADD MSTORE PUSH32 0x617475726974792E000000000000000000000000000000000000000000000000 PUSH1 0x20 DUP3 ADD MSTORE POP JUMP JUMPDEST PUSH0 PUSH2 0x1D48 PUSH1 0x28 DUP4 PUSH2 0x1739 JUMP JUMPDEST SWAP2 POP PUSH2 0x1D53 DUP3 PUSH2 0x1CEE JUMP JUMPDEST PUSH1 0x40 DUP3 ADD SWAP1 POP SWAP2 SWAP1 POP JUMP JUMPDEST PUSH0 PUSH1 0x20 DUP3 ADD SWAP1 POP DUP2 DUP2 SUB PUSH0 DUP4 ADD MSTORE PUSH2 0x1D75 DUP2 PUSH2 0x1D3C JUMP JUMPDEST SWAP1 POP SWAP2 SWAP1 POP JUMP JUMPDEST PUSH32 0x496E73756666696369656E742066756E647320746F2077697468647261772E00 PUSH0 DUP3 ADD MSTORE POP JUMP JUMPDEST PUSH0 PUSH2 0x1DB0 PUSH1 0x1F DUP4 PUSH2 0x1739 JUMP JUMPDEST SWAP2 POP PUSH2 0x1DBB DUP3 PUSH2 0x1D7C JUMP JUMPDEST PUSH1 0x20 DUP3 ADD SWAP1 POP SWAP2 SWAP1 POP JUMP JUMPDEST PUSH0 PUSH1 0x20 DUP3 ADD SWAP1 POP DUP2 DUP2 SUB PUSH0 DUP4 ADD MSTORE PUSH2 0x1DDD DUP2 PUSH2 0x1DA4 JUMP JUMPDEST SWAP1 POP SWAP2 SWAP1 POP JUMP JUMPDEST PUSH32 0x426F6E647320616C7265616479206973737565642E0000000000000000000000 PUSH0 DUP3 ADD MSTORE POP JUMP JUMPDEST PUSH0 PUSH2 0x1E18 PUSH1 0x15 DUP4 PUSH2 0x1739 JUMP JUMPDEST SWAP2 POP PUSH2 0x1E23 DUP3 PUSH2 0x1DE4 JUMP JUMPDEST PUSH1 0x20 DUP3 ADD SWAP1 POP SWAP2 SWAP1 POP JUMP JUMPDEST PUSH0 PUSH1 0x20 DUP3 ADD SWAP1 POP DUP2 DUP2 SUB PUSH0 DUP4 ADD MSTORE PUSH2 0x1E45 DUP2 PUSH2 0x1E0C JUMP JUMPDEST SWAP1 POP SWAP2 SWAP1 POP JUMP JUMPDEST PUSH32 0x546F74616C20626F6E6473206D7573742062652067726561746572207468616E PUSH0 DUP3 ADD MSTORE PUSH32 0x207A65726F2E0000000000000000000000000000000000000000000000000000 PUSH1 0x20 DUP3 ADD MSTORE POP JUMP JUMPDEST PUSH0 PUSH2 0x1EA6 PUSH1 0x26 DUP4 PUSH2 0x1739 JUMP JUMPDEST SWAP2 POP PUSH2 0x1EB1 DUP3 PUSH2 0x1E4C JUMP JUMPDEST PUSH1 0x40 DUP3 ADD SWAP1 POP SWAP2 SWAP1 POP JUMP JUMPDEST PUSH0 PUSH1 0x20 DUP3 ADD SWAP1 POP DUP2 DUP2 SUB PUSH0 DUP4 ADD MSTORE PUSH2 0x1ED3 DUP2 PUSH2 0x1E9A JUMP JUMPDEST SWAP1 POP SWAP2 SWAP1 POP JUMP JUMPDEST PUSH32 0x426F6E64207072696365206D7573742062652067726561746572207468616E20 PUSH0 DUP3 ADD MSTORE PUSH32 0x7A65726F2E000000000000000000000000000000000000000000000000000000 PUSH1 0x20 DUP3 ADD MSTORE POP JUMP JUMPDEST PUSH0 PUSH2 0x1F34 PUSH1 0x25 DUP4 PUSH2 0x1739 JUMP JUMPDEST SWAP2 POP PUSH2 0x1F3F DUP3 PUSH2 0x1EDA JUMP JUMPDEST PUSH1 0x40 DUP3 ADD SWAP1 POP SWAP2 SWAP1 POP JUMP JUMPDEST PUSH0 PUSH1 0x20 DUP3 ADD SWAP1 POP DUP2 DUP2 SUB PUSH0 DUP4 ADD MSTORE PUSH2 0x1F61 DUP2 PUSH2 0x1F28 JUMP JUMPDEST SWAP1 POP SWAP2 SWAP1 POP JUMP JUMPDEST PUSH32 0x496E7465726573742072617465206D7573742062652067726561746572207468 PUSH0 DUP3 ADD MSTORE PUSH32 0x616E207A65726F2E000000000000000000000000000000000000000000000000 PUSH1 0x20 DUP3 ADD MSTORE POP JUMP JUMPDEST PUSH0 PUSH2 0x1FC2 PUSH1 0x28 DUP4 PUSH2 0x1739 JUMP JUMPDEST SWAP2 POP PUSH2 0x1FCD DUP3 PUSH2 0x1F68 JUMP JUMPDEST PUSH1 0x40 DUP3 ADD SWAP1 POP SWAP2 SWAP1 POP JUMP JUMPDEST PUSH0 PUSH1 0x20 DUP3 ADD SWAP1 POP DUP2 DUP2 SUB PUSH0 DUP4 ADD MSTORE PUSH2 0x1FEF DUP2 PUSH2 0x1FB6 JUMP JUMPDEST SWAP1 POP SWAP2 SWAP1 POP JUMP JUMPDEST PUSH32 0x4D617475726974792064617465206D75737420626520696E2074686520667574 PUSH0 DUP3 ADD MSTORE PUSH32 0x7572652E00000000000000000000000000000000000000000000000000000000 PUSH1 0x20 DUP3 ADD MSTORE POP JUMP JUMPDEST PUSH0 PUSH2 0x2050 PUSH1 0x24 DUP4 PUSH2 0x1739 JUMP JUMPDEST SWAP2 POP PUSH2 0x205B DUP3 PUSH2 0x1FF6 JUMP JUMPDEST PUSH1 0x40 DUP3 ADD SWAP1 POP SWAP2 SWAP1 POP JUMP JUMPDEST PUSH0 PUSH1 0x20 DUP3 ADD SWAP1 POP DUP2 DUP2 SUB PUSH0 DUP4 ADD MSTORE PUSH2 0x207D DUP2 PUSH2 0x2044 JUMP JUMPDEST SWAP1 POP SWAP2 SWAP1 POP JUMP JUMPDEST PUSH0 PUSH1 0x80 DUP3 ADD SWAP1 POP PUSH2 0x2097 PUSH0 DUP4 ADD DUP8 PUSH2 0x161B JUMP JUMPDEST PUSH2 0x20A4 PUSH1 0x20 DUP4 ADD DUP7 PUSH2 0x161B JUMP JUMPDEST PUSH2 0x20B1 PUSH1 0x40 DUP4 ADD DUP6 PUSH2 0x161B JUMP JUMPDEST PUSH2 0x20BE PUSH1 0x60 DUP4 ADD DUP5 PUSH2 0x161B JUMP JUMPDEST SWAP6 SWAP5 POP POP POP POP POP JUMP JUMPDEST PUSH32 0x4E487B7100000000000000000000000000000000000000000000000000000000 PUSH0 MSTORE PUSH1 0x32 PUSH1 0x4 MSTORE PUSH1 0x24 PUSH0 REVERT JUMPDEST PUSH32 0x496E73756666696369656E7420636F6E74726163742062616C616E636520666F PUSH0 DUP3 ADD MSTORE PUSH32 0x72207061796F75742E0000000000000000000000000000000000000000000000 PUSH1 0x20 DUP3 ADD MSTORE POP JUMP JUMPDEST PUSH0 PUSH2 0x214E PUSH1 0x29 DUP4 PUSH2 0x1739 JUMP JUMPDEST SWAP2 POP PUSH2 0x2159 DUP3 PUSH2 0x20F4 JUMP JUMPDEST PUSH1 0x40 DUP3 ADD SWAP1 POP SWAP2 SWAP1 POP JUMP JUMPDEST PUSH0 PUSH1 0x20 DUP3 ADD SWAP1 POP DUP2 DUP2 SUB PUSH0 DUP4 ADD MSTORE PUSH2 0x217B DUP2 PUSH2 0x2142 JUMP JUMPDEST SWAP1 POP SWAP2 SWAP1 POP JUMP JUMPDEST PUSH32 0x416C6C20626F6E6473206D7573742062652072656465656D6564206265666F72 PUSH0 DUP3 ADD MSTORE PUSH32 0x65207769746864726177696E672072656D61696E696E672066756E64732E0000 PUSH1 0x20 DUP3 ADD MSTORE POP JUMP JUMPDEST PUSH0 PUSH2 0x21DC PUSH1 0x3E DUP4 PUSH2 0x1739 JUMP JUMPDEST SWAP2 POP PUSH2 0x21E7 DUP3 PUSH2 0x2182 JUMP JUMPDEST PUSH1 0x40 DUP3 ADD SWAP1 POP SWAP2 SWAP1 POP JUMP JUMPDEST PUSH0 PUSH1 0x20 DUP3 ADD SWAP1 POP DUP2 DUP2 SUB PUSH0 DUP4 ADD MSTORE PUSH2 0x2209 DUP2 PUSH2 0x21D0 JUMP JUMPDEST SWAP1 POP SWAP2 SWAP1 POP JUMP JUMPDEST PUSH32 0x4E487B7100000000000000000000000000000000000000000000000000000000 PUSH0 MSTORE PUSH1 0x41 PUSH1 0x4 MSTORE PUSH1 0x24 PUSH0 REVERT INVALID LOG2 PUSH5 0x6970667358 0x22 SLT KECCAK256 GASLIMIT SDIV PUSH1 0xC2 CHAINID KECCAK256 0xF SAR DUP13 0x2F SWAP15 ISZERO MSTORE PUSH13 0x8A685018C7B476CF1499EE7773 SAR PUSH28 0xFFCBF764736F6C634300081A00330000000000000000000000000000 "
				},
				"gasEstimates": {
					"creation": {
						"codeDepositCost": "1763800",
						"executionCost": "26118",
						"totalCost": "1789918"
					},
					"external": {
						"bondPrice()": "2447",
						"calculateRedemptionAmount(address)": "infinite",
						"calculateTotalPayout()": "infinite",
						"interestRate()": "2492",
						"isIssued()": "2533",
						"issuanceDate()": "2448",
						"issueBonds(uint256,uint256,uint256,uint256)": "infinite",
						"issuer()": "2551",
						"maturityDate()": "2514",
						"purchaseBonds()": "infinite",
						"redeemBonds()": "infinite",
						"totalBonds()": "2513",
						"totalInvested()": "2448",
						"transferToContract()": "2632",
						"withdrawRemainingFunds()": "infinite",
						"withdrawRemainingFundsAfterOneMonth()": "infinite"
					}
				},
				"methodIdentifiers": {
					"bondPrice()": "d7ccfb0b",
					"calculateRedemptionAmount(address)": "28d36cfc",
					"calculateTotalPayout()": "cb7cad2a",
					"interestRate()": "7c3a00fd",
					"isIssued()": "d33ce61a",
					"issuanceDate()": "a766bc98",
					"issueBonds(uint256,uint256,uint256,uint256)": "89585083",
					"issuer()": "1d143848",
					"maturityDate()": "d59624b4",
					"purchaseBonds()": "3d31841b",
					"redeemBonds()": "e84a011a",
					"totalBonds()": "f263c470",
					"totalInvested()": "5216aeec",
					"transferToContract()": "12cccb34",
					"withdrawRemainingFunds()": "ef86ce8e",
					"withdrawRemainingFundsAfterOneMonth()": "7c221bc5"
				}
			},
			"storageLayout": {
				"storage": [
					{
						"astId": 7,
						"contract": "7 занятие/Bonds.sol:Bonds",
						"label": "issuer",
						"offset": 0,
						"slot": "0",
						"type": "t_address"
					},
					{
						"astId": 9,
						"contract": "7 занятие/Bonds.sol:Bonds",
						"label": "totalBonds",
						"offset": 0,
						"slot": "1",
						"type": "t_uint256"
					},
					{
						"astId": 11,
						"contract": "7 занятие/Bonds.sol:Bonds",
						"label": "bondPrice",
						"offset": 0,
						"slot": "2",
						"type": "t_uint256"
					},
					{
						"astId": 13,
						"contract": "7 занятие/Bonds.sol:Bonds",
						"label": "interestRate",
						"offset": 0,
						"slot": "3",
						"type": "t_uint256"
					},
					{
						"astId": 15,
						"contract": "7 занятие/Bonds.sol:Bonds",
						"label": "issuanceDate",
						"offset": 0,
						"slot": "4",
						"type": "t_uint256"
					},
					{
						"astId": 17,
						"contract": "7 занятие/Bonds.sol:Bonds",
						"label": "maturityDate",
						"offset": 0,
						"slot": "5",
						"type": "t_uint256"
					},
					{
						"astId": 19,
						"contract": "7 занятие/Bonds.sol:Bonds",
						"label": "totalInvested",
						"offset": 0,
						"slot": "6",
						"type": "t_uint256"
					},
					{
						"astId": 21,
						"contract": "7 занятие/Bonds.sol:Bonds",
						"label": "isIssued",
						"offset": 0,
						"slot": "7",
						"type": "t_bool"
					},
					{
						"astId": 25,
						"contract": "7 занятие/Bonds.sol:Bonds",
						"label": "bondHolders",
						"offset": 0,
						"slot": "8",
						"type": "t_mapping(t_address,t_uint256)"
					},
					{
						"astId": 29,
						"contract": "7 занятие/Bonds.sol:Bonds",
						"label": "hasInvested",
						"offset": 0,
						"slot": "9",
						"type": "t_mapping(t_address,t_bool)"
					},
					{
						"astId": 32,
						"contract": "7 занятие/Bonds.sol:Bonds",
						"label": "investors",
						"offset": 0,
						"slot": "10",
						"type": "t_array(t_address)dyn_storage"
					},
					{
						"astId": 34,
						"contract": "7 занятие/Bonds.sol:Bonds",
						"label": "totalInvestors",
						"offset": 0,
						"slot": "11",
						"type": "t_uint256"
					}
				],
				"types": {
					"t_address": {
						"encoding": "inplace",
						"label": "address",
						"numberOfBytes": "20"
					},
					"t_array(t_address)dyn_storage": {
						"base": "t_address",
						"encoding": "dynamic_array",
						"label": "address[]",
						"numberOfBytes": "32"
					},
					"t_bool": {
						"encoding": "inplace",
						"label": "bool",
						"numberOfBytes": "1"
					},
					"t_mapping(t_address,t_bool)": {
						"encoding": "mapping",
						"key": "t_address",
						"label": "mapping(address => bool)",
						"numberOfBytes": "32",
						"value": "t_bool"
					},
					"t_mapping(t_address,t_uint256)": {
						"encoding": "mapping",
						"key": "t_address",
						"label": "mapping(address => uint256)",
						"numberOfBytes": "32",
						"value": "t_uint256"
					},
					"t_uint256": {
						"encoding": "inplace",
						"label": "uint256",
						"numberOfBytes": "32"
					}
				}
			},
			"userdoc": {
				"kind": "user",
				"methods": {},
				"version": 1
			}
		}
	}
}