{
	"data": {
		"bytecode": {
			"linkReferences": {},
			"object": "608060405234801561000f575f80fd5b506040516116ef3803806116ef833981810160405281019061003191906101fc565b815f908161003f919061045a565b50806001819055505f6002819055505f6003819055505f6004819055505f60055f6101000a81548160ff0219169083151502179055505050610529565b5f604051905090565b5f80fd5b5f80fd5b5f80fd5b5f80fd5b5f601f19601f8301169050919050565b7f4e487b71000000000000000000000000000000000000000000000000000000005f52604160045260245ffd5b6100db82610095565b810181811067ffffffffffffffff821117156100fa576100f96100a5565b5b80604052505050565b5f61010c61007c565b905061011882826100d2565b919050565b5f67ffffffffffffffff821115610137576101366100a5565b5b61014082610095565b9050602081019050919050565b8281835e5f83830152505050565b5f61016d6101688461011d565b610103565b90508281526020810184848401111561018957610188610091565b5b61019484828561014d565b509392505050565b5f82601f8301126101b0576101af61008d565b5b81516101c084826020860161015b565b91505092915050565b5f819050919050565b6101db816101c9565b81146101e5575f80fd5b50565b5f815190506101f6816101d2565b92915050565b5f806040838503121561021257610211610085565b5b5f83015167ffffffffffffffff81111561022f5761022e610089565b5b61023b8582860161019c565b925050602061024c858286016101e8565b9150509250929050565b5f81519050919050565b7f4e487b71000000000000000000000000000000000000000000000000000000005f52602260045260245ffd5b5f60028204905060018216806102a457607f821691505b6020821081036102b7576102b6610260565b5b50919050565b5f819050815f5260205f209050919050565b5f6020601f8301049050919050565b5f82821b905092915050565b5f600883026103197fffffffffffffffffffffffffffffffffffffffffffffffffffffffffffffffff826102de565b61032386836102de565b95508019841693508086168417925050509392505050565b5f819050919050565b5f61035e610359610354846101c9565b61033b565b6101c9565b9050919050565b5f819050919050565b61037783610344565b61038b61038382610365565b8484546102ea565b825550505050565b5f90565b61039f610393565b6103aa81848461036e565b505050565b5b818110156103cd576103c25f82610397565b6001810190506103b0565b5050565b601f821115610412576103e3816102bd565b6103ec846102cf565b810160208510156103fb578190505b61040f610407856102cf565b8301826103af565b50505b505050565b5f82821c905092915050565b5f6104325f1984600802610417565b1980831691505092915050565b5f61044a8383610423565b9150826002028217905092915050565b61046382610256565b67ffffffffffffffff81111561047c5761047b6100a5565b5b610486825461028d565b6104918282856103d1565b5f60209050601f8311600181146104c2575f84156104b0578287015190505b6104ba858261043f565b865550610521565b601f1984166104d0866102bd565b5f5b828110156104f7578489015182556001820191506020850194506020810190506104d2565b868310156105145784890151610510601f891682610423565b8355505b6001600288020188555050505b505050505050565b6111b9806105365f395ff3fe608060405234801561000f575f80fd5b50600436106100b2575f3560e01c8063753ec1031161006f578063753ec103146101545780637b28afc4146101725780637e2f693c146101905780639ef2d87a146101ae578063b906169e146101cc578063fb66c8c6146101d6576100b2565b806327448445146100b65780633466c9b2146100d457806348730735146101045780634bc98c191461012257806355d61e521461012c578063635aa8201461014a575b5f80fd5b6100be6101f4565b6040516100cb9190610a8a565b60405180910390f35b6100ee60048036038101906100e99190610b08565b61028d565b6040516100fb9190610b4d565b60405180910390f35b61010c6102aa565b6040516101199190610b7e565b60405180910390f35b61012a6102b0565b005b6101346103ff565b6040516101419190610b7e565b60405180910390f35b61015261042f565b005b61015c61057e565b6040516101699190610a8a565b60405180910390f35b61017a610609565b6040516101879190610b7e565b60405180910390f35b61019861060f565b6040516101a59190610b4d565b60405180910390f35b6101b6610621565b6040516101c39190610b7e565b60405180910390f35b6101d4610627565b005b6101de610776565b6040516101eb9190610b7e565b60405180910390f35b606060055f9054906101000a900460ff16610244576040517f08c379a000000000000000000000000000000000000000000000000000000000815260040161023b90610be1565b60405180910390fd5b5f61025060025461077c565b61025b60035461077c565b61026660045461077c565b6040516020016102799493929190610e9a565b604051602081830303815290604052905090565b6006602052805f5260405f205f915054906101000a900460ff1681565b60025481565b60055f9054906101000a900460ff16156102ff576040517f08c379a00000000000000000000000000000000000000000000000000000000081526004016102f690610f6e565b60405180910390fd5b60065f3373ffffffffffffffffffffffffffffffffffffffff1673ffffffffffffffffffffffffffffffffffffffff1681526020019081526020015f205f9054906101000a900460ff1615610389576040517f08c379a000000000000000000000000000000000000000000000000000000000815260040161038090610ffc565b60405180910390fd5b60025f81548092919061039b90611047565b9190505550600160065f3373ffffffffffffffffffffffffffffffffffffffff1673ffffffffffffffffffffffffffffffffffffffff1681526020019081526020015f205f6101000a81548160ff0219169083151502179055506103fd610846565b565b5f600454600354600254610413919061108e565b61041d919061108e565b60015461042a91906110c1565b905090565b60055f9054906101000a900460ff161561047e576040517f08c379a000000000000000000000000000000000000000000000000000000000815260040161047590610f6e565b60405180910390fd5b60065f3373ffffffffffffffffffffffffffffffffffffffff1673ffffffffffffffffffffffffffffffffffffffff1681526020019081526020015f205f9054906101000a900460ff1615610508576040517f08c379a00000000000000000000000000000000000000000000000000000000081526004016104ff90610ffc565b60405180910390fd5b60045f81548092919061051a90611047565b9190505550600160065f3373ffffffffffffffffffffffffffffffffffffffff1673ffffffffffffffffffffffffffffffffffffffff1681526020019081526020015f205f6101000a81548160ff02191690831515021790555061057c610846565b565b5f805461058a90610c80565b80601f01602080910402602001604051908101604052809291908181526020018280546105b690610c80565b80156106015780601f106105d857610100808354040283529160200191610601565b820191905f5260205f20905b8154815290600101906020018083116105e457829003601f168201915b505050505081565b60045481565b60055f9054906101000a900460ff1681565b60015481565b60055f9054906101000a900460ff1615610676576040517f08c379a000000000000000000000000000000000000000000000000000000000815260040161066d90610f6e565b60405180910390fd5b60065f3373ffffffffffffffffffffffffffffffffffffffff1673ffffffffffffffffffffffffffffffffffffffff1681526020019081526020015f205f9054906101000a900460ff1615610700576040517f08c379a00000000000000000000000000000000000000000000000000000000081526004016106f790610ffc565b60405180910390fd5b60035f81548092919061071290611047565b9190505550600160065f3373ffffffffffffffffffffffffffffffffffffffff1673ffffffffffffffffffffffffffffffffffffffff1681526020019081526020015f205f6101000a81548160ff021916908315150217905550610774610846565b565b60035481565b60605f600161078a846108c9565b0190505f8167ffffffffffffffff8111156107a8576107a76110f4565b5b6040519080825280601f01601f1916602001820160405280156107da5781602001600182028036833780820191505090505b5090505f82602001820190505b60011561083b578080600190039150507f3031323334353637383961626364656600000000000000000000000000000000600a86061a8153600a85816108305761082f611121565b5b0494505f85036107e7575b819350505050919050565b60015460045460035460025461085c919061108e565b610866919061108e565b106108c757600160055f6101000a81548160ff0219169083151502179055507f6c8af3395e52e06b82fb64d66eba89436b4db530d05c84329e3f1d1cc2bfe3456002546003546004546040516108be9392919061114e565b60405180910390a15b565b5f805f90507a184f03e93ff9f4daa797ed6e38ed64bf6a1f0100000000000000008310610925577a184f03e93ff9f4daa797ed6e38ed64bf6a1f010000000000000000838161091b5761091a611121565b5b0492506040810190505b6d04ee2d6d415b85acef81000000008310610962576d04ee2d6d415b85acef8100000000838161095857610957611121565b5b0492506020810190505b662386f26fc10000831061099157662386f26fc10000838161098757610986611121565b5b0492506010810190505b6305f5e10083106109ba576305f5e10083816109b0576109af611121565b5b0492506008810190505b61271083106109df5761271083816109d5576109d4611121565b5b0492506004810190505b60648310610a0257606483816109f8576109f7611121565b5b0492506002810190505b600a8310610a11576001810190505b80915050919050565b5f81519050919050565b5f82825260208201905092915050565b8281835e5f83830152505050565b5f601f19601f8301169050919050565b5f610a5c82610a1a565b610a668185610a24565b9350610a76818560208601610a34565b610a7f81610a42565b840191505092915050565b5f6020820190508181035f830152610aa28184610a52565b905092915050565b5f80fd5b5f73ffffffffffffffffffffffffffffffffffffffff82169050919050565b5f610ad782610aae565b9050919050565b610ae781610acd565b8114610af1575f80fd5b50565b5f81359050610b0281610ade565b92915050565b5f60208284031215610b1d57610b1c610aaa565b5b5f610b2a84828501610af4565b91505092915050565b5f8115159050919050565b610b4781610b33565b82525050565b5f602082019050610b605f830184610b3e565b92915050565b5f819050919050565b610b7881610b66565b82525050565b5f602082019050610b915f830184610b6f565b92915050565b7f537572766579206973207374696c6c206f6e676f696e670000000000000000005f82015250565b5f610bcb601783610a24565b9150610bd682610b97565b602082019050919050565b5f6020820190508181035f830152610bf881610bbf565b9050919050565b5f81905092915050565b7f50726f706f73616c3a20000000000000000000000000000000000000000000005f82015250565b5f610c3d600a83610bff565b9150610c4882610c09565b600a82019050919050565b7f4e487b71000000000000000000000000000000000000000000000000000000005f52602260045260245ffd5b5f6002820490506001821680610c9757607f821691505b602082108103610caa57610ca9610c53565b5b50919050565b5f819050815f5260205f209050919050565b5f8154610cce81610c80565b610cd88186610bff565b9450600182165f8114610cf25760018114610d0757610d39565b60ff1983168652811515820286019350610d39565b610d1085610cb0565b5f5b83811015610d3157815481890152600182019150602081019050610d12565b838801955050505b50505092915050565b7f3b200000000000000000000000000000000000000000000000000000000000005f82015250565b5f610d76600283610bff565b9150610d8182610d42565b600282019050919050565b7f537572766579205945533a2000000000000000000000000000000000000000005f82015250565b5f610dc0600c83610bff565b9150610dcb82610d8c565b600c82019050919050565b5f610de082610a1a565b610dea8185610bff565b9350610dfa818560208601610a34565b80840191505092915050565b7f537572766579204e4f3a200000000000000000000000000000000000000000005f82015250565b5f610e3a600b83610bff565b9150610e4582610e06565b600b82019050919050565b7f537572766579204e4f54205354415445443a20000000000000000000000000005f82015250565b5f610e84601383610bff565b9150610e8f82610e50565b601382019050919050565b5f610ea482610c31565b9150610eb08287610cc2565b9150610ebb82610d6a565b9150610ec682610db4565b9150610ed28286610dd6565b9150610edd82610d6a565b9150610ee882610e2e565b9150610ef48285610dd6565b9150610eff82610d6a565b9150610f0a82610e78565b9150610f168284610dd6565b915081905095945050505050565b7f5375727665792068617320616c726561647920656e64656400000000000000005f82015250565b5f610f58601883610a24565b9150610f6382610f24565b602082019050919050565b5f6020820190508181035f830152610f8581610f4c565b9050919050565b7f596f75206861766520616c72656164792074616b656e207061727420696e20745f8201527f6865207375727665790000000000000000000000000000000000000000000000602082015250565b5f610fe6602983610a24565b9150610ff182610f8c565b604082019050919050565b5f6020820190508181035f83015261101381610fda565b9050919050565b7f4e487b71000000000000000000000000000000000000000000000000000000005f52601160045260245ffd5b5f61105182610b66565b91507fffffffffffffffffffffffffffffffffffffffffffffffffffffffffffffffff82036110835761108261101a565b5b600182019050919050565b5f61109882610b66565b91506110a383610b66565b92508282019050808211156110bb576110ba61101a565b5b92915050565b5f6110cb82610b66565b91506110d683610b66565b92508282039050818111156110ee576110ed61101a565b5b92915050565b7f4e487b71000000000000000000000000000000000000000000000000000000005f52604160045260245ffd5b7f4e487b71000000000000000000000000000000000000000000000000000000005f52601260045260245ffd5b5f6060820190506111615f830186610b6f565b61116e6020830185610b6f565b61117b6040830184610b6f565b94935050505056fea2646970667358221220e0b439c61853a8b46d4affe6cc35b0a69ed9cce4d1b8f5a9e45b1045ef2e668d64736f6c634300081a0033",
			"opcodes": "PUSH1 0x80 PUSH1 0x40 MSTORE CALLVALUE DUP1 ISZERO PUSH2 0xF JUMPI PUSH0 DUP1 REVERT JUMPDEST POP PUSH1 0x40 MLOAD PUSH2 0x16EF CODESIZE SUB DUP1 PUSH2 0x16EF DUP4 CODECOPY DUP2 DUP2 ADD PUSH1 0x40 MSTORE DUP2 ADD SWAP1 PUSH2 0x31 SWAP2 SWAP1 PUSH2 0x1FC JUMP JUMPDEST DUP2 PUSH0 SWAP1 DUP2 PUSH2 0x3F SWAP2 SWAP1 PUSH2 0x45A JUMP JUMPDEST POP DUP1 PUSH1 0x1 DUP2 SWAP1 SSTORE POP PUSH0 PUSH1 0x2 DUP2 SWAP1 SSTORE POP PUSH0 PUSH1 0x3 DUP2 SWAP1 SSTORE POP PUSH0 PUSH1 0x4 DUP2 SWAP1 SSTORE POP PUSH0 PUSH1 0x5 PUSH0 PUSH2 0x100 EXP DUP2 SLOAD DUP2 PUSH1 0xFF MUL NOT AND SWAP1 DUP4 ISZERO ISZERO MUL OR SWAP1 SSTORE POP POP POP PUSH2 0x529 JUMP JUMPDEST PUSH0 PUSH1 0x40 MLOAD SWAP1 POP SWAP1 JUMP JUMPDEST PUSH0 DUP1 REVERT JUMPDEST PUSH0 DUP1 REVERT JUMPDEST PUSH0 DUP1 REVERT JUMPDEST PUSH0 DUP1 REVERT JUMPDEST PUSH0 PUSH1 0x1F NOT PUSH1 0x1F DUP4 ADD AND SWAP1 POP SWAP2 SWAP1 POP JUMP JUMPDEST PUSH32 0x4E487B7100000000000000000000000000000000000000000000000000000000 PUSH0 MSTORE PUSH1 0x41 PUSH1 0x4 MSTORE PUSH1 0x24 PUSH0 REVERT JUMPDEST PUSH2 0xDB DUP3 PUSH2 0x95 JUMP JUMPDEST DUP2 ADD DUP2 DUP2 LT PUSH8 0xFFFFFFFFFFFFFFFF DUP3 GT OR ISZERO PUSH2 0xFA JUMPI PUSH2 0xF9 PUSH2 0xA5 JUMP JUMPDEST JUMPDEST DUP1 PUSH1 0x40 MSTORE POP POP POP JUMP JUMPDEST PUSH0 PUSH2 0x10C PUSH2 0x7C JUMP JUMPDEST SWAP1 POP PUSH2 0x118 DUP3 DUP3 PUSH2 0xD2 JUMP JUMPDEST SWAP2 SWAP1 POP JUMP JUMPDEST PUSH0 PUSH8 0xFFFFFFFFFFFFFFFF DUP3 GT ISZERO PUSH2 0x137 JUMPI PUSH2 0x136 PUSH2 0xA5 JUMP JUMPDEST JUMPDEST PUSH2 0x140 DUP3 PUSH2 0x95 JUMP JUMPDEST SWAP1 POP PUSH1 0x20 DUP2 ADD SWAP1 POP SWAP2 SWAP1 POP JUMP JUMPDEST DUP3 DUP2 DUP4 MCOPY PUSH0 DUP4 DUP4 ADD MSTORE POP POP POP JUMP JUMPDEST PUSH0 PUSH2 0x16D PUSH2 0x168 DUP5 PUSH2 0x11D JUMP JUMPDEST PUSH2 0x103 JUMP JUMPDEST SWAP1 POP DUP3 DUP2 MSTORE PUSH1 0x20 DUP2 ADD DUP5 DUP5 DUP5 ADD GT ISZERO PUSH2 0x189 JUMPI PUSH2 0x188 PUSH2 0x91 JUMP JUMPDEST JUMPDEST PUSH2 0x194 DUP5 DUP3 DUP6 PUSH2 0x14D JUMP JUMPDEST POP SWAP4 SWAP3 POP POP POP JUMP JUMPDEST PUSH0 DUP3 PUSH1 0x1F DUP4 ADD SLT PUSH2 0x1B0 JUMPI PUSH2 0x1AF PUSH2 0x8D JUMP JUMPDEST JUMPDEST DUP2 MLOAD PUSH2 0x1C0 DUP5 DUP3 PUSH1 0x20 DUP7 ADD PUSH2 0x15B JUMP JUMPDEST SWAP2 POP POP SWAP3 SWAP2 POP POP JUMP JUMPDEST PUSH0 DUP2 SWAP1 POP SWAP2 SWAP1 POP JUMP JUMPDEST PUSH2 0x1DB DUP2 PUSH2 0x1C9 JUMP JUMPDEST DUP2 EQ PUSH2 0x1E5 JUMPI PUSH0 DUP1 REVERT JUMPDEST POP JUMP JUMPDEST PUSH0 DUP2 MLOAD SWAP1 POP PUSH2 0x1F6 DUP2 PUSH2 0x1D2 JUMP JUMPDEST SWAP3 SWAP2 POP POP JUMP JUMPDEST PUSH0 DUP1 PUSH1 0x40 DUP4 DUP6 SUB SLT ISZERO PUSH2 0x212 JUMPI PUSH2 0x211 PUSH2 0x85 JUMP JUMPDEST JUMPDEST PUSH0 DUP4 ADD MLOAD PUSH8 0xFFFFFFFFFFFFFFFF DUP2 GT ISZERO PUSH2 0x22F JUMPI PUSH2 0x22E PUSH2 0x89 JUMP JUMPDEST JUMPDEST PUSH2 0x23B DUP6 DUP3 DUP7 ADD PUSH2 0x19C JUMP JUMPDEST SWAP3 POP POP PUSH1 0x20 PUSH2 0x24C DUP6 DUP3 DUP7 ADD PUSH2 0x1E8 JUMP JUMPDEST SWAP2 POP POP SWAP3 POP SWAP3 SWAP1 POP JUMP JUMPDEST PUSH0 DUP2 MLOAD SWAP1 POP SWAP2 SWAP1 POP JUMP JUMPDEST PUSH32 0x4E487B7100000000000000000000000000000000000000000000000000000000 PUSH0 MSTORE PUSH1 0x22 PUSH1 0x4 MSTORE PUSH1 0x24 PUSH0 REVERT JUMPDEST PUSH0 PUSH1 0x2 DUP3 DIV SWAP1 POP PUSH1 0x1 DUP3 AND DUP1 PUSH2 0x2A4 JUMPI PUSH1 0x7F DUP3 AND SWAP2 POP JUMPDEST PUSH1 0x20 DUP3 LT DUP2 SUB PUSH2 0x2B7 JUMPI PUSH2 0x2B6 PUSH2 0x260 JUMP JUMPDEST JUMPDEST POP SWAP2 SWAP1 POP JUMP JUMPDEST PUSH0 DUP2 SWAP1 POP DUP2 PUSH0 MSTORE PUSH1 0x20 PUSH0 KECCAK256 SWAP1 POP SWAP2 SWAP1 POP JUMP JUMPDEST PUSH0 PUSH1 0x20 PUSH1 0x1F DUP4 ADD DIV SWAP1 POP SWAP2 SWAP1 POP JUMP JUMPDEST PUSH0 DUP3 DUP3 SHL SWAP1 POP SWAP3 SWAP2 POP POP JUMP JUMPDEST PUSH0 PUSH1 0x8 DUP4 MUL PUSH2 0x319 PUSH32 0xFFFFFFFFFFFFFFFFFFFFFFFFFFFFFFFFFFFFFFFFFFFFFFFFFFFFFFFFFFFFFFFF DUP3 PUSH2 0x2DE JUMP JUMPDEST PUSH2 0x323 DUP7 DUP4 PUSH2 0x2DE JUMP JUMPDEST SWAP6 POP DUP1 NOT DUP5 AND SWAP4 POP DUP1 DUP7 AND DUP5 OR SWAP3 POP POP POP SWAP4 SWAP3 POP POP POP JUMP JUMPDEST PUSH0 DUP2 SWAP1 POP SWAP2 SWAP1 POP JUMP JUMPDEST PUSH0 PUSH2 0x35E PUSH2 0x359 PUSH2 0x354 DUP5 PUSH2 0x1C9 JUMP JUMPDEST PUSH2 0x33B JUMP JUMPDEST PUSH2 0x1C9 JUMP JUMPDEST SWAP1 POP SWAP2 SWAP1 POP JUMP JUMPDEST PUSH0 DUP2 SWAP1 POP SWAP2 SWAP1 POP JUMP JUMPDEST PUSH2 0x377 DUP4 PUSH2 0x344 JUMP JUMPDEST PUSH2 0x38B PUSH2 0x383 DUP3 PUSH2 0x365 JUMP JUMPDEST DUP5 DUP5 SLOAD PUSH2 0x2EA JUMP JUMPDEST DUP3 SSTORE POP POP POP POP JUMP JUMPDEST PUSH0 SWAP1 JUMP JUMPDEST PUSH2 0x39F PUSH2 0x393 JUMP JUMPDEST PUSH2 0x3AA DUP2 DUP5 DUP5 PUSH2 0x36E JUMP JUMPDEST POP POP POP JUMP JUMPDEST JUMPDEST DUP2 DUP2 LT ISZERO PUSH2 0x3CD JUMPI PUSH2 0x3C2 PUSH0 DUP3 PUSH2 0x397 JUMP JUMPDEST PUSH1 0x1 DUP2 ADD SWAP1 POP PUSH2 0x3B0 JUMP JUMPDEST POP POP JUMP JUMPDEST PUSH1 0x1F DUP3 GT ISZERO PUSH2 0x412 JUMPI PUSH2 0x3E3 DUP2 PUSH2 0x2BD JUMP JUMPDEST PUSH2 0x3EC DUP5 PUSH2 0x2CF JUMP JUMPDEST DUP2 ADD PUSH1 0x20 DUP6 LT ISZERO PUSH2 0x3FB JUMPI DUP2 SWAP1 POP JUMPDEST PUSH2 0x40F PUSH2 0x407 DUP6 PUSH2 0x2CF JUMP JUMPDEST DUP4 ADD DUP3 PUSH2 0x3AF JUMP JUMPDEST POP POP JUMPDEST POP POP POP JUMP JUMPDEST PUSH0 DUP3 DUP3 SHR SWAP1 POP SWAP3 SWAP2 POP POP JUMP JUMPDEST PUSH0 PUSH2 0x432 PUSH0 NOT DUP5 PUSH1 0x8 MUL PUSH2 0x417 JUMP JUMPDEST NOT DUP1 DUP4 AND SWAP2 POP POP SWAP3 SWAP2 POP POP JUMP JUMPDEST PUSH0 PUSH2 0x44A DUP4 DUP4 PUSH2 0x423 JUMP JUMPDEST SWAP2 POP DUP3 PUSH1 0x2 MUL DUP3 OR SWAP1 POP SWAP3 SWAP2 POP POP JUMP JUMPDEST PUSH2 0x463 DUP3 PUSH2 0x256 JUMP JUMPDEST PUSH8 0xFFFFFFFFFFFFFFFF DUP2 GT ISZERO PUSH2 0x47C JUMPI PUSH2 0x47B PUSH2 0xA5 JUMP JUMPDEST JUMPDEST PUSH2 0x486 DUP3 SLOAD PUSH2 0x28D JUMP JUMPDEST PUSH2 0x491 DUP3 DUP3 DUP6 PUSH2 0x3D1 JUMP JUMPDEST PUSH0 PUSH1 0x20 SWAP1 POP PUSH1 0x1F DUP4 GT PUSH1 0x1 DUP2 EQ PUSH2 0x4C2 JUMPI PUSH0 DUP5 ISZERO PUSH2 0x4B0 JUMPI DUP3 DUP8 ADD MLOAD SWAP1 POP JUMPDEST PUSH2 0x4BA DUP6 DUP3 PUSH2 0x43F JUMP JUMPDEST DUP7 SSTORE POP PUSH2 0x521 JUMP JUMPDEST PUSH1 0x1F NOT DUP5 AND PUSH2 0x4D0 DUP7 PUSH2 0x2BD JUMP JUMPDEST PUSH0 JUMPDEST DUP3 DUP2 LT ISZERO PUSH2 0x4F7 JUMPI DUP5 DUP10 ADD MLOAD DUP3 SSTORE PUSH1 0x1 DUP3 ADD SWAP2 POP PUSH1 0x20 DUP6 ADD SWAP5 POP PUSH1 0x20 DUP2 ADD SWAP1 POP PUSH2 0x4D2 JUMP JUMPDEST DUP7 DUP4 LT ISZERO PUSH2 0x514 JUMPI DUP5 DUP10 ADD MLOAD PUSH2 0x510 PUSH1 0x1F DUP10 AND DUP3 PUSH2 0x423 JUMP JUMPDEST DUP4 SSTORE POP JUMPDEST PUSH1 0x1 PUSH1 0x2 DUP9 MUL ADD DUP9 SSTORE POP POP POP JUMPDEST POP POP POP POP POP POP JUMP JUMPDEST PUSH2 0x11B9 DUP1 PUSH2 0x536 PUSH0 CODECOPY PUSH0 RETURN INVALID PUSH1 0x80 PUSH1 0x40 MSTORE CALLVALUE DUP1 ISZERO PUSH2 0xF JUMPI PUSH0 DUP1 REVERT JUMPDEST POP PUSH1 0x4 CALLDATASIZE LT PUSH2 0xB2 JUMPI PUSH0 CALLDATALOAD PUSH1 0xE0 SHR DUP1 PUSH4 0x753EC103 GT PUSH2 0x6F JUMPI DUP1 PUSH4 0x753EC103 EQ PUSH2 0x154 JUMPI DUP1 PUSH4 0x7B28AFC4 EQ PUSH2 0x172 JUMPI DUP1 PUSH4 0x7E2F693C EQ PUSH2 0x190 JUMPI DUP1 PUSH4 0x9EF2D87A EQ PUSH2 0x1AE JUMPI DUP1 PUSH4 0xB906169E EQ PUSH2 0x1CC JUMPI DUP1 PUSH4 0xFB66C8C6 EQ PUSH2 0x1D6 JUMPI PUSH2 0xB2 JUMP JUMPDEST DUP1 PUSH4 0x27448445 EQ PUSH2 0xB6 JUMPI DUP1 PUSH4 0x3466C9B2 EQ PUSH2 0xD4 JUMPI DUP1 PUSH4 0x48730735 EQ PUSH2 0x104 JUMPI DUP1 PUSH4 0x4BC98C19 EQ PUSH2 0x122 JUMPI DUP1 PUSH4 0x55D61E52 EQ PUSH2 0x12C JUMPI DUP1 PUSH4 0x635AA820 EQ PUSH2 0x14A JUMPI JUMPDEST PUSH0 DUP1 REVERT JUMPDEST PUSH2 0xBE PUSH2 0x1F4 JUMP JUMPDEST PUSH1 0x40 MLOAD PUSH2 0xCB SWAP2 SWAP1 PUSH2 0xA8A JUMP JUMPDEST PUSH1 0x40 MLOAD DUP1 SWAP2 SUB SWAP1 RETURN JUMPDEST PUSH2 0xEE PUSH1 0x4 DUP1 CALLDATASIZE SUB DUP2 ADD SWAP1 PUSH2 0xE9 SWAP2 SWAP1 PUSH2 0xB08 JUMP JUMPDEST PUSH2 0x28D JUMP JUMPDEST PUSH1 0x40 MLOAD PUSH2 0xFB SWAP2 SWAP1 PUSH2 0xB4D JUMP JUMPDEST PUSH1 0x40 MLOAD DUP1 SWAP2 SUB SWAP1 RETURN JUMPDEST PUSH2 0x10C PUSH2 0x2AA JUMP JUMPDEST PUSH1 0x40 MLOAD PUSH2 0x119 SWAP2 SWAP1 PUSH2 0xB7E JUMP JUMPDEST PUSH1 0x40 MLOAD DUP1 SWAP2 SUB SWAP1 RETURN JUMPDEST PUSH2 0x12A PUSH2 0x2B0 JUMP JUMPDEST STOP JUMPDEST PUSH2 0x134 PUSH2 0x3FF JUMP JUMPDEST PUSH1 0x40 MLOAD PUSH2 0x141 SWAP2 SWAP1 PUSH2 0xB7E JUMP JUMPDEST PUSH1 0x40 MLOAD DUP1 SWAP2 SUB SWAP1 RETURN JUMPDEST PUSH2 0x152 PUSH2 0x42F JUMP JUMPDEST STOP JUMPDEST PUSH2 0x15C PUSH2 0x57E JUMP JUMPDEST PUSH1 0x40 MLOAD PUSH2 0x169 SWAP2 SWAP1 PUSH2 0xA8A JUMP JUMPDEST PUSH1 0x40 MLOAD DUP1 SWAP2 SUB SWAP1 RETURN JUMPDEST PUSH2 0x17A PUSH2 0x609 JUMP JUMPDEST PUSH1 0x40 MLOAD PUSH2 0x187 SWAP2 SWAP1 PUSH2 0xB7E JUMP JUMPDEST PUSH1 0x40 MLOAD DUP1 SWAP2 SUB SWAP1 RETURN JUMPDEST PUSH2 0x198 PUSH2 0x60F JUMP JUMPDEST PUSH1 0x40 MLOAD PUSH2 0x1A5 SWAP2 SWAP1 PUSH2 0xB4D JUMP JUMPDEST PUSH1 0x40 MLOAD DUP1 SWAP2 SUB SWAP1 RETURN JUMPDEST PUSH2 0x1B6 PUSH2 0x621 JUMP JUMPDEST PUSH1 0x40 MLOAD PUSH2 0x1C3 SWAP2 SWAP1 PUSH2 0xB7E JUMP JUMPDEST PUSH1 0x40 MLOAD DUP1 SWAP2 SUB SWAP1 RETURN JUMPDEST PUSH2 0x1D4 PUSH2 0x627 JUMP JUMPDEST STOP JUMPDEST PUSH2 0x1DE PUSH2 0x776 JUMP JUMPDEST PUSH1 0x40 MLOAD PUSH2 0x1EB SWAP2 SWAP1 PUSH2 0xB7E JUMP JUMPDEST PUSH1 0x40 MLOAD DUP1 SWAP2 SUB SWAP1 RETURN JUMPDEST PUSH1 0x60 PUSH1 0x5 PUSH0 SWAP1 SLOAD SWAP1 PUSH2 0x100 EXP SWAP1 DIV PUSH1 0xFF AND PUSH2 0x244 JUMPI PUSH1 0x40 MLOAD PUSH32 0x8C379A000000000000000000000000000000000000000000000000000000000 DUP2 MSTORE PUSH1 0x4 ADD PUSH2 0x23B SWAP1 PUSH2 0xBE1 JUMP JUMPDEST PUSH1 0x40 MLOAD DUP1 SWAP2 SUB SWAP1 REVERT JUMPDEST PUSH0 PUSH2 0x250 PUSH1 0x2 SLOAD PUSH2 0x77C JUMP JUMPDEST PUSH2 0x25B PUSH1 0x3 SLOAD PUSH2 0x77C JUMP JUMPDEST PUSH2 0x266 PUSH1 0x4 SLOAD PUSH2 0x77C JUMP JUMPDEST PUSH1 0x40 MLOAD PUSH1 0x20 ADD PUSH2 0x279 SWAP5 SWAP4 SWAP3 SWAP2 SWAP1 PUSH2 0xE9A JUMP JUMPDEST PUSH1 0x40 MLOAD PUSH1 0x20 DUP2 DUP4 SUB SUB DUP2 MSTORE SWAP1 PUSH1 0x40 MSTORE SWAP1 POP SWAP1 JUMP JUMPDEST PUSH1 0x6 PUSH1 0x20 MSTORE DUP1 PUSH0 MSTORE PUSH1 0x40 PUSH0 KECCAK256 PUSH0 SWAP2 POP SLOAD SWAP1 PUSH2 0x100 EXP SWAP1 DIV PUSH1 0xFF AND DUP2 JUMP JUMPDEST PUSH1 0x2 SLOAD DUP2 JUMP JUMPDEST PUSH1 0x5 PUSH0 SWAP1 SLOAD SWAP1 PUSH2 0x100 EXP SWAP1 DIV PUSH1 0xFF AND ISZERO PUSH2 0x2FF JUMPI PUSH1 0x40 MLOAD PUSH32 0x8C379A000000000000000000000000000000000000000000000000000000000 DUP2 MSTORE PUSH1 0x4 ADD PUSH2 0x2F6 SWAP1 PUSH2 0xF6E JUMP JUMPDEST PUSH1 0x40 MLOAD DUP1 SWAP2 SUB SWAP1 REVERT JUMPDEST PUSH1 0x6 PUSH0 CALLER PUSH20 0xFFFFFFFFFFFFFFFFFFFFFFFFFFFFFFFFFFFFFFFF AND PUSH20 0xFFFFFFFFFFFFFFFFFFFFFFFFFFFFFFFFFFFFFFFF AND DUP2 MSTORE PUSH1 0x20 ADD SWAP1 DUP2 MSTORE PUSH1 0x20 ADD PUSH0 KECCAK256 PUSH0 SWAP1 SLOAD SWAP1 PUSH2 0x100 EXP SWAP1 DIV PUSH1 0xFF AND ISZERO PUSH2 0x389 JUMPI PUSH1 0x40 MLOAD PUSH32 0x8C379A000000000000000000000000000000000000000000000000000000000 DUP2 MSTORE PUSH1 0x4 ADD PUSH2 0x380 SWAP1 PUSH2 0xFFC JUMP JUMPDEST PUSH1 0x40 MLOAD DUP1 SWAP2 SUB SWAP1 REVERT JUMPDEST PUSH1 0x2 PUSH0 DUP2 SLOAD DUP1 SWAP3 SWAP2 SWAP1 PUSH2 0x39B SWAP1 PUSH2 0x1047 JUMP JUMPDEST SWAP2 SWAP1 POP SSTORE POP PUSH1 0x1 PUSH1 0x6 PUSH0 CALLER PUSH20 0xFFFFFFFFFFFFFFFFFFFFFFFFFFFFFFFFFFFFFFFF AND PUSH20 0xFFFFFFFFFFFFFFFFFFFFFFFFFFFFFFFFFFFFFFFF AND DUP2 MSTORE PUSH1 0x20 ADD SWAP1 DUP2 MSTORE PUSH1 0x20 ADD PUSH0 KECCAK256 PUSH0 PUSH2 0x100 EXP DUP2 SLOAD DUP2 PUSH1 0xFF MUL NOT AND SWAP1 DUP4 ISZERO ISZERO MUL OR SWAP1 SSTORE POP PUSH2 0x3FD PUSH2 0x846 JUMP JUMPDEST JUMP JUMPDEST PUSH0 PUSH1 0x4 SLOAD PUSH1 0x3 SLOAD PUSH1 0x2 SLOAD PUSH2 0x413 SWAP2 SWAP1 PUSH2 0x108E JUMP JUMPDEST PUSH2 0x41D SWAP2 SWAP1 PUSH2 0x108E JUMP JUMPDEST PUSH1 0x1 SLOAD PUSH2 0x42A SWAP2 SWAP1 PUSH2 0x10C1 JUMP JUMPDEST SWAP1 POP SWAP1 JUMP JUMPDEST PUSH1 0x5 PUSH0 SWAP1 SLOAD SWAP1 PUSH2 0x100 EXP SWAP1 DIV PUSH1 0xFF AND ISZERO PUSH2 0x47E JUMPI PUSH1 0x40 MLOAD PUSH32 0x8C379A000000000000000000000000000000000000000000000000000000000 DUP2 MSTORE PUSH1 0x4 ADD PUSH2 0x475 SWAP1 PUSH2 0xF6E JUMP JUMPDEST PUSH1 0x40 MLOAD DUP1 SWAP2 SUB SWAP1 REVERT JUMPDEST PUSH1 0x6 PUSH0 CALLER PUSH20 0xFFFFFFFFFFFFFFFFFFFFFFFFFFFFFFFFFFFFFFFF AND PUSH20 0xFFFFFFFFFFFFFFFFFFFFFFFFFFFFFFFFFFFFFFFF AND DUP2 MSTORE PUSH1 0x20 ADD SWAP1 DUP2 MSTORE PUSH1 0x20 ADD PUSH0 KECCAK256 PUSH0 SWAP1 SLOAD SWAP1 PUSH2 0x100 EXP SWAP1 DIV PUSH1 0xFF AND ISZERO PUSH2 0x508 JUMPI PUSH1 0x40 MLOAD PUSH32 0x8C379A000000000000000000000000000000000000000000000000000000000 DUP2 MSTORE PUSH1 0x4 ADD PUSH2 0x4FF SWAP1 PUSH2 0xFFC JUMP JUMPDEST PUSH1 0x40 MLOAD DUP1 SWAP2 SUB SWAP1 REVERT JUMPDEST PUSH1 0x4 PUSH0 DUP2 SLOAD DUP1 SWAP3 SWAP2 SWAP1 PUSH2 0x51A SWAP1 PUSH2 0x1047 JUMP JUMPDEST SWAP2 SWAP1 POP SSTORE POP PUSH1 0x1 PUSH1 0x6 PUSH0 CALLER PUSH20 0xFFFFFFFFFFFFFFFFFFFFFFFFFFFFFFFFFFFFFFFF AND PUSH20 0xFFFFFFFFFFFFFFFFFFFFFFFFFFFFFFFFFFFFFFFF AND DUP2 MSTORE PUSH1 0x20 ADD SWAP1 DUP2 MSTORE PUSH1 0x20 ADD PUSH0 KECCAK256 PUSH0 PUSH2 0x100 EXP DUP2 SLOAD DUP2 PUSH1 0xFF MUL NOT AND SWAP1 DUP4 ISZERO ISZERO MUL OR SWAP1 SSTORE POP PUSH2 0x57C PUSH2 0x846 JUMP JUMPDEST JUMP JUMPDEST PUSH0 DUP1 SLOAD PUSH2 0x58A SWAP1 PUSH2 0xC80 JUMP JUMPDEST DUP1 PUSH1 0x1F ADD PUSH1 0x20 DUP1 SWAP2 DIV MUL PUSH1 0x20 ADD PUSH1 0x40 MLOAD SWAP1 DUP2 ADD PUSH1 0x40 MSTORE DUP1 SWAP3 SWAP2 SWAP1 DUP2 DUP2 MSTORE PUSH1 0x20 ADD DUP3 DUP1 SLOAD PUSH2 0x5B6 SWAP1 PUSH2 0xC80 JUMP JUMPDEST DUP1 ISZERO PUSH2 0x601 JUMPI DUP1 PUSH1 0x1F LT PUSH2 0x5D8 JUMPI PUSH2 0x100 DUP1 DUP4 SLOAD DIV MUL DUP4 MSTORE SWAP2 PUSH1 0x20 ADD SWAP2 PUSH2 0x601 JUMP JUMPDEST DUP3 ADD SWAP2 SWAP1 PUSH0 MSTORE PUSH1 0x20 PUSH0 KECCAK256 SWAP1 JUMPDEST DUP2 SLOAD DUP2 MSTORE SWAP1 PUSH1 0x1 ADD SWAP1 PUSH1 0x20 ADD DUP1 DUP4 GT PUSH2 0x5E4 JUMPI DUP3 SWAP1 SUB PUSH1 0x1F AND DUP3 ADD SWAP2 JUMPDEST POP POP POP POP POP DUP2 JUMP JUMPDEST PUSH1 0x4 SLOAD DUP2 JUMP JUMPDEST PUSH1 0x5 PUSH0 SWAP1 SLOAD SWAP1 PUSH2 0x100 EXP SWAP1 DIV PUSH1 0xFF AND DUP2 JUMP JUMPDEST PUSH1 0x1 SLOAD DUP2 JUMP JUMPDEST PUSH1 0x5 PUSH0 SWAP1 SLOAD SWAP1 PUSH2 0x100 EXP SWAP1 DIV PUSH1 0xFF AND ISZERO PUSH2 0x676 JUMPI PUSH1 0x40 MLOAD PUSH32 0x8C379A000000000000000000000000000000000000000000000000000000000 DUP2 MSTORE PUSH1 0x4 ADD PUSH2 0x66D SWAP1 PUSH2 0xF6E JUMP JUMPDEST PUSH1 0x40 MLOAD DUP1 SWAP2 SUB SWAP1 REVERT JUMPDEST PUSH1 0x6 PUSH0 CALLER PUSH20 0xFFFFFFFFFFFFFFFFFFFFFFFFFFFFFFFFFFFFFFFF AND PUSH20 0xFFFFFFFFFFFFFFFFFFFFFFFFFFFFFFFFFFFFFFFF AND DUP2 MSTORE PUSH1 0x20 ADD SWAP1 DUP2 MSTORE PUSH1 0x20 ADD PUSH0 KECCAK256 PUSH0 SWAP1 SLOAD SWAP1 PUSH2 0x100 EXP SWAP1 DIV PUSH1 0xFF AND ISZERO PUSH2 0x700 JUMPI PUSH1 0x40 MLOAD PUSH32 0x8C379A000000000000000000000000000000000000000000000000000000000 DUP2 MSTORE PUSH1 0x4 ADD PUSH2 0x6F7 SWAP1 PUSH2 0xFFC JUMP JUMPDEST PUSH1 0x40 MLOAD DUP1 SWAP2 SUB SWAP1 REVERT JUMPDEST PUSH1 0x3 PUSH0 DUP2 SLOAD DUP1 SWAP3 SWAP2 SWAP1 PUSH2 0x712 SWAP1 PUSH2 0x1047 JUMP JUMPDEST SWAP2 SWAP1 POP SSTORE POP PUSH1 0x1 PUSH1 0x6 PUSH0 CALLER PUSH20 0xFFFFFFFFFFFFFFFFFFFFFFFFFFFFFFFFFFFFFFFF AND PUSH20 0xFFFFFFFFFFFFFFFFFFFFFFFFFFFFFFFFFFFFFFFF AND DUP2 MSTORE PUSH1 0x20 ADD SWAP1 DUP2 MSTORE PUSH1 0x20 ADD PUSH0 KECCAK256 PUSH0 PUSH2 0x100 EXP DUP2 SLOAD DUP2 PUSH1 0xFF MUL NOT AND SWAP1 DUP4 ISZERO ISZERO MUL OR SWAP1 SSTORE POP PUSH2 0x774 PUSH2 0x846 JUMP JUMPDEST JUMP JUMPDEST PUSH1 0x3 SLOAD DUP2 JUMP JUMPDEST PUSH1 0x60 PUSH0 PUSH1 0x1 PUSH2 0x78A DUP5 PUSH2 0x8C9 JUMP JUMPDEST ADD SWAP1 POP PUSH0 DUP2 PUSH8 0xFFFFFFFFFFFFFFFF DUP2 GT ISZERO PUSH2 0x7A8 JUMPI PUSH2 0x7A7 PUSH2 0x10F4 JUMP JUMPDEST JUMPDEST PUSH1 0x40 MLOAD SWAP1 DUP1 DUP3 MSTORE DUP1 PUSH1 0x1F ADD PUSH1 0x1F NOT AND PUSH1 0x20 ADD DUP3 ADD PUSH1 0x40 MSTORE DUP1 ISZERO PUSH2 0x7DA JUMPI DUP2 PUSH1 0x20 ADD PUSH1 0x1 DUP3 MUL DUP1 CALLDATASIZE DUP4 CALLDATACOPY DUP1 DUP3 ADD SWAP2 POP POP SWAP1 POP JUMPDEST POP SWAP1 POP PUSH0 DUP3 PUSH1 0x20 ADD DUP3 ADD SWAP1 POP JUMPDEST PUSH1 0x1 ISZERO PUSH2 0x83B JUMPI DUP1 DUP1 PUSH1 0x1 SWAP1 SUB SWAP2 POP POP PUSH32 0x3031323334353637383961626364656600000000000000000000000000000000 PUSH1 0xA DUP7 MOD BYTE DUP2 MSTORE8 PUSH1 0xA DUP6 DUP2 PUSH2 0x830 JUMPI PUSH2 0x82F PUSH2 0x1121 JUMP JUMPDEST JUMPDEST DIV SWAP5 POP PUSH0 DUP6 SUB PUSH2 0x7E7 JUMPI JUMPDEST DUP2 SWAP4 POP POP POP POP SWAP2 SWAP1 POP JUMP JUMPDEST PUSH1 0x1 SLOAD PUSH1 0x4 SLOAD PUSH1 0x3 SLOAD PUSH1 0x2 SLOAD PUSH2 0x85C SWAP2 SWAP1 PUSH2 0x108E JUMP JUMPDEST PUSH2 0x866 SWAP2 SWAP1 PUSH2 0x108E JUMP JUMPDEST LT PUSH2 0x8C7 JUMPI PUSH1 0x1 PUSH1 0x5 PUSH0 PUSH2 0x100 EXP DUP2 SLOAD DUP2 PUSH1 0xFF MUL NOT AND SWAP1 DUP4 ISZERO ISZERO MUL OR SWAP1 SSTORE POP PUSH32 0x6C8AF3395E52E06B82FB64D66EBA89436B4DB530D05C84329E3F1D1CC2BFE345 PUSH1 0x2 SLOAD PUSH1 0x3 SLOAD PUSH1 0x4 SLOAD PUSH1 0x40 MLOAD PUSH2 0x8BE SWAP4 SWAP3 SWAP2 SWAP1 PUSH2 0x114E JUMP JUMPDEST PUSH1 0x40 MLOAD DUP1 SWAP2 SUB SWAP1 LOG1 JUMPDEST JUMP JUMPDEST PUSH0 DUP1 PUSH0 SWAP1 POP PUSH27 0x184F03E93FF9F4DAA797ED6E38ED64BF6A1F010000000000000000 DUP4 LT PUSH2 0x925 JUMPI PUSH27 0x184F03E93FF9F4DAA797ED6E38ED64BF6A1F010000000000000000 DUP4 DUP2 PUSH2 0x91B JUMPI PUSH2 0x91A PUSH2 0x1121 JUMP JUMPDEST JUMPDEST DIV SWAP3 POP PUSH1 0x40 DUP2 ADD SWAP1 POP JUMPDEST PUSH14 0x4EE2D6D415B85ACEF8100000000 DUP4 LT PUSH2 0x962 JUMPI PUSH14 0x4EE2D6D415B85ACEF8100000000 DUP4 DUP2 PUSH2 0x958 JUMPI PUSH2 0x957 PUSH2 0x1121 JUMP JUMPDEST JUMPDEST DIV SWAP3 POP PUSH1 0x20 DUP2 ADD SWAP1 POP JUMPDEST PUSH7 0x2386F26FC10000 DUP4 LT PUSH2 0x991 JUMPI PUSH7 0x2386F26FC10000 DUP4 DUP2 PUSH2 0x987 JUMPI PUSH2 0x986 PUSH2 0x1121 JUMP JUMPDEST JUMPDEST DIV SWAP3 POP PUSH1 0x10 DUP2 ADD SWAP1 POP JUMPDEST PUSH4 0x5F5E100 DUP4 LT PUSH2 0x9BA JUMPI PUSH4 0x5F5E100 DUP4 DUP2 PUSH2 0x9B0 JUMPI PUSH2 0x9AF PUSH2 0x1121 JUMP JUMPDEST JUMPDEST DIV SWAP3 POP PUSH1 0x8 DUP2 ADD SWAP1 POP JUMPDEST PUSH2 0x2710 DUP4 LT PUSH2 0x9DF JUMPI PUSH2 0x2710 DUP4 DUP2 PUSH2 0x9D5 JUMPI PUSH2 0x9D4 PUSH2 0x1121 JUMP JUMPDEST JUMPDEST DIV SWAP3 POP PUSH1 0x4 DUP2 ADD SWAP1 POP JUMPDEST PUSH1 0x64 DUP4 LT PUSH2 0xA02 JUMPI PUSH1 0x64 DUP4 DUP2 PUSH2 0x9F8 JUMPI PUSH2 0x9F7 PUSH2 0x1121 JUMP JUMPDEST JUMPDEST DIV SWAP3 POP PUSH1 0x2 DUP2 ADD SWAP1 POP JUMPDEST PUSH1 0xA DUP4 LT PUSH2 0xA11 JUMPI PUSH1 0x1 DUP2 ADD SWAP1 POP JUMPDEST DUP1 SWAP2 POP POP SWAP2 SWAP1 POP JUMP JUMPDEST PUSH0 DUP2 MLOAD SWAP1 POP SWAP2 SWAP1 POP JUMP JUMPDEST PUSH0 DUP3 DUP3 MSTORE PUSH1 0x20 DUP3 ADD SWAP1 POP SWAP3 SWAP2 POP POP JUMP JUMPDEST DUP3 DUP2 DUP4 MCOPY PUSH0 DUP4 DUP4 ADD MSTORE POP POP POP JUMP JUMPDEST PUSH0 PUSH1 0x1F NOT PUSH1 0x1F DUP4 ADD AND SWAP1 POP SWAP2 SWAP1 POP JUMP JUMPDEST PUSH0 PUSH2 0xA5C DUP3 PUSH2 0xA1A JUMP JUMPDEST PUSH2 0xA66 DUP2 DUP6 PUSH2 0xA24 JUMP JUMPDEST SWAP4 POP PUSH2 0xA76 DUP2 DUP6 PUSH1 0x20 DUP7 ADD PUSH2 0xA34 JUMP JUMPDEST PUSH2 0xA7F DUP2 PUSH2 0xA42 JUMP JUMPDEST DUP5 ADD SWAP2 POP POP SWAP3 SWAP2 POP POP JUMP JUMPDEST PUSH0 PUSH1 0x20 DUP3 ADD SWAP1 POP DUP2 DUP2 SUB PUSH0 DUP4 ADD MSTORE PUSH2 0xAA2 DUP2 DUP5 PUSH2 0xA52 JUMP JUMPDEST SWAP1 POP SWAP3 SWAP2 POP POP JUMP JUMPDEST PUSH0 DUP1 REVERT JUMPDEST PUSH0 PUSH20 0xFFFFFFFFFFFFFFFFFFFFFFFFFFFFFFFFFFFFFFFF DUP3 AND SWAP1 POP SWAP2 SWAP1 POP JUMP JUMPDEST PUSH0 PUSH2 0xAD7 DUP3 PUSH2 0xAAE JUMP JUMPDEST SWAP1 POP SWAP2 SWAP1 POP JUMP JUMPDEST PUSH2 0xAE7 DUP2 PUSH2 0xACD JUMP JUMPDEST DUP2 EQ PUSH2 0xAF1 JUMPI PUSH0 DUP1 REVERT JUMPDEST POP JUMP JUMPDEST PUSH0 DUP2 CALLDATALOAD SWAP1 POP PUSH2 0xB02 DUP2 PUSH2 0xADE JUMP JUMPDEST SWAP3 SWAP2 POP POP JUMP JUMPDEST PUSH0 PUSH1 0x20 DUP3 DUP5 SUB SLT ISZERO PUSH2 0xB1D JUMPI PUSH2 0xB1C PUSH2 0xAAA JUMP JUMPDEST JUMPDEST PUSH0 PUSH2 0xB2A DUP5 DUP3 DUP6 ADD PUSH2 0xAF4 JUMP JUMPDEST SWAP2 POP POP SWAP3 SWAP2 POP POP JUMP JUMPDEST PUSH0 DUP2 ISZERO ISZERO SWAP1 POP SWAP2 SWAP1 POP JUMP JUMPDEST PUSH2 0xB47 DUP2 PUSH2 0xB33 JUMP JUMPDEST DUP3 MSTORE POP POP JUMP JUMPDEST PUSH0 PUSH1 0x20 DUP3 ADD SWAP1 POP PUSH2 0xB60 PUSH0 DUP4 ADD DUP5 PUSH2 0xB3E JUMP JUMPDEST SWAP3 SWAP2 POP POP JUMP JUMPDEST PUSH0 DUP2 SWAP1 POP SWAP2 SWAP1 POP JUMP JUMPDEST PUSH2 0xB78 DUP2 PUSH2 0xB66 JUMP JUMPDEST DUP3 MSTORE POP POP JUMP JUMPDEST PUSH0 PUSH1 0x20 DUP3 ADD SWAP1 POP PUSH2 0xB91 PUSH0 DUP4 ADD DUP5 PUSH2 0xB6F JUMP JUMPDEST SWAP3 SWAP2 POP POP JUMP JUMPDEST PUSH32 0x537572766579206973207374696C6C206F6E676F696E67000000000000000000 PUSH0 DUP3 ADD MSTORE POP JUMP JUMPDEST PUSH0 PUSH2 0xBCB PUSH1 0x17 DUP4 PUSH2 0xA24 JUMP JUMPDEST SWAP2 POP PUSH2 0xBD6 DUP3 PUSH2 0xB97 JUMP JUMPDEST PUSH1 0x20 DUP3 ADD SWAP1 POP SWAP2 SWAP1 POP JUMP JUMPDEST PUSH0 PUSH1 0x20 DUP3 ADD SWAP1 POP DUP2 DUP2 SUB PUSH0 DUP4 ADD MSTORE PUSH2 0xBF8 DUP2 PUSH2 0xBBF JUMP JUMPDEST SWAP1 POP SWAP2 SWAP1 POP JUMP JUMPDEST PUSH0 DUP2 SWAP1 POP SWAP3 SWAP2 POP POP JUMP JUMPDEST PUSH32 0x50726F706F73616C3A2000000000000000000000000000000000000000000000 PUSH0 DUP3 ADD MSTORE POP JUMP JUMPDEST PUSH0 PUSH2 0xC3D PUSH1 0xA DUP4 PUSH2 0xBFF JUMP JUMPDEST SWAP2 POP PUSH2 0xC48 DUP3 PUSH2 0xC09 JUMP JUMPDEST PUSH1 0xA DUP3 ADD SWAP1 POP SWAP2 SWAP1 POP JUMP JUMPDEST PUSH32 0x4E487B7100000000000000000000000000000000000000000000000000000000 PUSH0 MSTORE PUSH1 0x22 PUSH1 0x4 MSTORE PUSH1 0x24 PUSH0 REVERT JUMPDEST PUSH0 PUSH1 0x2 DUP3 DIV SWAP1 POP PUSH1 0x1 DUP3 AND DUP1 PUSH2 0xC97 JUMPI PUSH1 0x7F DUP3 AND SWAP2 POP JUMPDEST PUSH1 0x20 DUP3 LT DUP2 SUB PUSH2 0xCAA JUMPI PUSH2 0xCA9 PUSH2 0xC53 JUMP JUMPDEST JUMPDEST POP SWAP2 SWAP1 POP JUMP JUMPDEST PUSH0 DUP2 SWAP1 POP DUP2 PUSH0 MSTORE PUSH1 0x20 PUSH0 KECCAK256 SWAP1 POP SWAP2 SWAP1 POP JUMP JUMPDEST PUSH0 DUP2 SLOAD PUSH2 0xCCE DUP2 PUSH2 0xC80 JUMP JUMPDEST PUSH2 0xCD8 DUP2 DUP7 PUSH2 0xBFF JUMP JUMPDEST SWAP5 POP PUSH1 0x1 DUP3 AND PUSH0 DUP2 EQ PUSH2 0xCF2 JUMPI PUSH1 0x1 DUP2 EQ PUSH2 0xD07 JUMPI PUSH2 0xD39 JUMP JUMPDEST PUSH1 0xFF NOT DUP4 AND DUP7 MSTORE DUP2 ISZERO ISZERO DUP3 MUL DUP7 ADD SWAP4 POP PUSH2 0xD39 JUMP JUMPDEST PUSH2 0xD10 DUP6 PUSH2 0xCB0 JUMP JUMPDEST PUSH0 JUMPDEST DUP4 DUP2 LT ISZERO PUSH2 0xD31 JUMPI DUP2 SLOAD DUP2 DUP10 ADD MSTORE PUSH1 0x1 DUP3 ADD SWAP2 POP PUSH1 0x20 DUP2 ADD SWAP1 POP PUSH2 0xD12 JUMP JUMPDEST DUP4 DUP9 ADD SWAP6 POP POP POP JUMPDEST POP POP POP SWAP3 SWAP2 POP POP JUMP JUMPDEST PUSH32 0x3B20000000000000000000000000000000000000000000000000000000000000 PUSH0 DUP3 ADD MSTORE POP JUMP JUMPDEST PUSH0 PUSH2 0xD76 PUSH1 0x2 DUP4 PUSH2 0xBFF JUMP JUMPDEST SWAP2 POP PUSH2 0xD81 DUP3 PUSH2 0xD42 JUMP JUMPDEST PUSH1 0x2 DUP3 ADD SWAP1 POP SWAP2 SWAP1 POP JUMP JUMPDEST PUSH32 0x537572766579205945533A200000000000000000000000000000000000000000 PUSH0 DUP3 ADD MSTORE POP JUMP JUMPDEST PUSH0 PUSH2 0xDC0 PUSH1 0xC DUP4 PUSH2 0xBFF JUMP JUMPDEST SWAP2 POP PUSH2 0xDCB DUP3 PUSH2 0xD8C JUMP JUMPDEST PUSH1 0xC DUP3 ADD SWAP1 POP SWAP2 SWAP1 POP JUMP JUMPDEST PUSH0 PUSH2 0xDE0 DUP3 PUSH2 0xA1A JUMP JUMPDEST PUSH2 0xDEA DUP2 DUP6 PUSH2 0xBFF JUMP JUMPDEST SWAP4 POP PUSH2 0xDFA DUP2 DUP6 PUSH1 0x20 DUP7 ADD PUSH2 0xA34 JUMP JUMPDEST DUP1 DUP5 ADD SWAP2 POP POP SWAP3 SWAP2 POP POP JUMP JUMPDEST PUSH32 0x537572766579204E4F3A20000000000000000000000000000000000000000000 PUSH0 DUP3 ADD MSTORE POP JUMP JUMPDEST PUSH0 PUSH2 0xE3A PUSH1 0xB DUP4 PUSH2 0xBFF JUMP JUMPDEST SWAP2 POP PUSH2 0xE45 DUP3 PUSH2 0xE06 JUMP JUMPDEST PUSH1 0xB DUP3 ADD SWAP1 POP SWAP2 SWAP1 POP JUMP JUMPDEST PUSH32 0x537572766579204E4F54205354415445443A2000000000000000000000000000 PUSH0 DUP3 ADD MSTORE POP JUMP JUMPDEST PUSH0 PUSH2 0xE84 PUSH1 0x13 DUP4 PUSH2 0xBFF JUMP JUMPDEST SWAP2 POP PUSH2 0xE8F DUP3 PUSH2 0xE50 JUMP JUMPDEST PUSH1 0x13 DUP3 ADD SWAP1 POP SWAP2 SWAP1 POP JUMP JUMPDEST PUSH0 PUSH2 0xEA4 DUP3 PUSH2 0xC31 JUMP JUMPDEST SWAP2 POP PUSH2 0xEB0 DUP3 DUP8 PUSH2 0xCC2 JUMP JUMPDEST SWAP2 POP PUSH2 0xEBB DUP3 PUSH2 0xD6A JUMP JUMPDEST SWAP2 POP PUSH2 0xEC6 DUP3 PUSH2 0xDB4 JUMP JUMPDEST SWAP2 POP PUSH2 0xED2 DUP3 DUP7 PUSH2 0xDD6 JUMP JUMPDEST SWAP2 POP PUSH2 0xEDD DUP3 PUSH2 0xD6A JUMP JUMPDEST SWAP2 POP PUSH2 0xEE8 DUP3 PUSH2 0xE2E JUMP JUMPDEST SWAP2 POP PUSH2 0xEF4 DUP3 DUP6 PUSH2 0xDD6 JUMP JUMPDEST SWAP2 POP PUSH2 0xEFF DUP3 PUSH2 0xD6A JUMP JUMPDEST SWAP2 POP PUSH2 0xF0A DUP3 PUSH2 0xE78 JUMP JUMPDEST SWAP2 POP PUSH2 0xF16 DUP3 DUP5 PUSH2 0xDD6 JUMP JUMPDEST SWAP2 POP DUP2 SWAP1 POP SWAP6 SWAP5 POP POP POP POP POP JUMP JUMPDEST PUSH32 0x5375727665792068617320616C726561647920656E6465640000000000000000 PUSH0 DUP3 ADD MSTORE POP JUMP JUMPDEST PUSH0 PUSH2 0xF58 PUSH1 0x18 DUP4 PUSH2 0xA24 JUMP JUMPDEST SWAP2 POP PUSH2 0xF63 DUP3 PUSH2 0xF24 JUMP JUMPDEST PUSH1 0x20 DUP3 ADD SWAP1 POP SWAP2 SWAP1 POP JUMP JUMPDEST PUSH0 PUSH1 0x20 DUP3 ADD SWAP1 POP DUP2 DUP2 SUB PUSH0 DUP4 ADD MSTORE PUSH2 0xF85 DUP2 PUSH2 0xF4C JUMP JUMPDEST SWAP1 POP SWAP2 SWAP1 POP JUMP JUMPDEST PUSH32 0x596F75206861766520616C72656164792074616B656E207061727420696E2074 PUSH0 DUP3 ADD MSTORE PUSH32 0x6865207375727665790000000000000000000000000000000000000000000000 PUSH1 0x20 DUP3 ADD MSTORE POP JUMP JUMPDEST PUSH0 PUSH2 0xFE6 PUSH1 0x29 DUP4 PUSH2 0xA24 JUMP JUMPDEST SWAP2 POP PUSH2 0xFF1 DUP3 PUSH2 0xF8C JUMP JUMPDEST PUSH1 0x40 DUP3 ADD SWAP1 POP SWAP2 SWAP1 POP JUMP JUMPDEST PUSH0 PUSH1 0x20 DUP3 ADD SWAP1 POP DUP2 DUP2 SUB PUSH0 DUP4 ADD MSTORE PUSH2 0x1013 DUP2 PUSH2 0xFDA JUMP JUMPDEST SWAP1 POP SWAP2 SWAP1 POP JUMP JUMPDEST PUSH32 0x4E487B7100000000000000000000000000000000000000000000000000000000 PUSH0 MSTORE PUSH1 0x11 PUSH1 0x4 MSTORE PUSH1 0x24 PUSH0 REVERT JUMPDEST PUSH0 PUSH2 0x1051 DUP3 PUSH2 0xB66 JUMP JUMPDEST SWAP2 POP PUSH32 0xFFFFFFFFFFFFFFFFFFFFFFFFFFFFFFFFFFFFFFFFFFFFFFFFFFFFFFFFFFFFFFFF DUP3 SUB PUSH2 0x1083 JUMPI PUSH2 0x1082 PUSH2 0x101A JUMP JUMPDEST JUMPDEST PUSH1 0x1 DUP3 ADD SWAP1 POP SWAP2 SWAP1 POP JUMP JUMPDEST PUSH0 PUSH2 0x1098 DUP3 PUSH2 0xB66 JUMP JUMPDEST SWAP2 POP PUSH2 0x10A3 DUP4 PUSH2 0xB66 JUMP JUMPDEST SWAP3 POP DUP3 DUP3 ADD SWAP1 POP DUP1 DUP3 GT ISZERO PUSH2 0x10BB JUMPI PUSH2 0x10BA PUSH2 0x101A JUMP JUMPDEST JUMPDEST SWAP3 SWAP2 POP POP JUMP JUMPDEST PUSH0 PUSH2 0x10CB DUP3 PUSH2 0xB66 JUMP JUMPDEST SWAP2 POP PUSH2 0x10D6 DUP4 PUSH2 0xB66 JUMP JUMPDEST SWAP3 POP DUP3 DUP3 SUB SWAP1 POP DUP2 DUP2 GT ISZERO PUSH2 0x10EE JUMPI PUSH2 0x10ED PUSH2 0x101A JUMP JUMPDEST JUMPDEST SWAP3 SWAP2 POP POP JUMP JUMPDEST PUSH32 0x4E487B7100000000000000000000000000000000000000000000000000000000 PUSH0 MSTORE PUSH1 0x41 PUSH1 0x4 MSTORE PUSH1 0x24 PUSH0 REVERT JUMPDEST PUSH32 0x4E487B7100000000000000000000000000000000000000000000000000000000 PUSH0 MSTORE PUSH1 0x12 PUSH1 0x4 MSTORE PUSH1 0x24 PUSH0 REVERT JUMPDEST PUSH0 PUSH1 0x60 DUP3 ADD SWAP1 POP PUSH2 0x1161 PUSH0 DUP4 ADD DUP7 PUSH2 0xB6F JUMP JUMPDEST PUSH2 0x116E PUSH1 0x20 DUP4 ADD DUP6 PUSH2 0xB6F JUMP JUMPDEST PUSH2 0x117B PUSH1 0x40 DUP4 ADD DUP5 PUSH2 0xB6F JUMP JUMPDEST SWAP5 SWAP4 POP POP POP POP JUMP INVALID LOG2 PUSH5 0x6970667358 0x22 SLT KECCAK256 0xE0 0xB4 CODECOPY 0xC6 XOR MSTORE8 0xA8 0xB4 PUSH14 0x4AFFE6CC35B0A69ED9CCE4D1B8F5 0xA9 0xE4 JUMPDEST LT GASLIMIT 0xEF 0x2E PUSH7 0x8D64736F6C6343 STOP ADDMOD BYTE STOP CALLER "
		},
		"gasEstimates": {
			"creation": {
				"codeDepositCost": "907400",
				"executionCost": "infinite",
				"totalCost": "infinite"
			},
			"external": {
				"SurveyNS()": "infinite",
				"SurveyNo()": "infinite",
				"SurveyYes()": "infinite",
				"getRemainingSurvey()": "infinite",
				"getSurveyResultsString()": "infinite",
				"hasSurvey(address)": "2856",
				"maxCount()": "2491",
				"proposal()": "infinite",
				"surveyEnded()": "2510",
				"surveyNS()": "2447",
				"surveyNo()": "2535",
				"surveyYes()": "2470"
			},
			"internal": {
				"checkSurveyEnd()": "infinite"
			}
		},
		"methodIdentifiers": {
			"SurveyNS()": "635aa820",
			"SurveyNo()": "b906169e",
			"SurveyYes()": "4bc98c19",
			"getRemainingSurvey()": "55d61e52",
			"getSurveyResultsString()": "27448445",
			"hasSurvey(address)": "3466c9b2",
			"maxCount()": "9ef2d87a",
			"proposal()": "753ec103",
			"surveyEnded()": "7e2f693c",
			"surveyNS()": "7b28afc4",
			"surveyNo()": "fb66c8c6",
			"surveyYes()": "48730735"
		}
	},
	"abi": [
		{
			"inputs": [
				{
					"internalType": "string",
					"name": "_proposal",
					"type": "string"
				},
				{
					"internalType": "uint256",
					"name": "_maxCount",
					"type": "uint256"
				}
			],
			"stateMutability": "nonpayable",
			"type": "constructor"
		},
		{
			"anonymous": false,
			"inputs": [
				{
					"indexed": false,
					"internalType": "uint256",
					"name": "surveyYes",
					"type": "uint256"
				},
				{
					"indexed": false,
					"internalType": "uint256",
					"name": "surveyNo",
					"type": "uint256"
				},
				{
					"indexed": false,
					"internalType": "uint256",
					"name": "surveyNS",
					"type": "uint256"
				}
			],
			"name": "SurveyEnded",
			"type": "event"
		},
		{
			"inputs": [],
			"name": "SurveyNS",
			"outputs": [],
			"stateMutability": "nonpayable",
			"type": "function"
		},
		{
			"inputs": [],
			"name": "SurveyNo",
			"outputs": [],
			"stateMutability": "nonpayable",
			"type": "function"
		},
		{
			"inputs": [],
			"name": "SurveyYes",
			"outputs": [],
			"stateMutability": "nonpayable",
			"type": "function"
		},
		{
			"inputs": [],
			"name": "getRemainingSurvey",
			"outputs": [
				{
					"internalType": "uint256",
					"name": "",
					"type": "uint256"
				}
			],
			"stateMutability": "view",
			"type": "function"
		},
		{
			"inputs": [],
			"name": "getSurveyResultsString",
			"outputs": [
				{
					"internalType": "string",
					"name": "",
					"type": "string"
				}
			],
			"stateMutability": "view",
			"type": "function"
		},
		{
			"inputs": [
				{
					"internalType": "address",
					"name": "",
					"type": "address"
				}
			],
			"name": "hasSurvey",
			"outputs": [
				{
					"internalType": "bool",
					"name": "",
					"type": "bool"
				}
			],
			"stateMutability": "view",
			"type": "function"
		},
		{
			"inputs": [],
			"name": "maxCount",
			"outputs": [
				{
					"internalType": "uint256",
					"name": "",
					"type": "uint256"
				}
			],
			"stateMutability": "view",
			"type": "function"
		},
		{
			"inputs": [],
			"name": "proposal",
			"outputs": [
				{
					"internalType": "string",
					"name": "",
					"type": "string"
				}
			],
			"stateMutability": "view",
			"type": "function"
		},
		{
			"inputs": [],
			"name": "surveyEnded",
			"outputs": [
				{
					"internalType": "bool",
					"name": "",
					"type": "bool"
				}
			],
			"stateMutability": "view",
			"type": "function"
		},
		{
			"inputs": [],
			"name": "surveyNS",
			"outputs": [
				{
					"internalType": "uint256",
					"name": "",
					"type": "uint256"
				}
			],
			"stateMutability": "view",
			"type": "function"
		},
		{
			"inputs": [],
			"name": "surveyNo",
			"outputs": [
				{
					"internalType": "uint256",
					"name": "",
					"type": "uint256"
				}
			],
			"stateMutability": "view",
			"type": "function"
		},
		{
			"inputs": [],
			"name": "surveyYes",
			"outputs": [
				{
					"internalType": "uint256",
					"name": "",
					"type": "uint256"
				}
			],
			"stateMutability": "view",
			"type": "function"
		}
	]
}