{
	"data": {
		"bytecode": {
			"linkReferences": {},
			"object": "60806040526001600b55348015610014575f80fd5b50604051611a93380380611a9383398181016040528101906100369190610262565b335f806101000a81548173ffffffffffffffffffffffffffffffffffffffff021916908373ffffffffffffffffffffffffffffffffffffffff16021790555086600190816100849190610557565b50856002819055504260038190555084620151806100a29190610653565b60048190555083600590816100b79190610557565b508260068190555081600790816100ce9190610557565b508060088190555050505050505050610694565b5f604051905090565b5f80fd5b5f80fd5b5f80fd5b5f80fd5b5f601f19601f8301169050919050565b7f4e487b71000000000000000000000000000000000000000000000000000000005f52604160045260245ffd5b610141826100fb565b810181811067ffffffffffffffff821117156101605761015f61010b565b5b80604052505050565b5f6101726100e2565b905061017e8282610138565b919050565b5f67ffffffffffffffff82111561019d5761019c61010b565b5b6101a6826100fb565b9050602081019050919050565b8281835e5f83830152505050565b5f6101d36101ce84610183565b610169565b9050828152602081018484840111156101ef576101ee6100f7565b5b6101fa8482856101b3565b509392505050565b5f82601f830112610216576102156100f3565b5b81516102268482602086016101c1565b91505092915050565b5f819050919050565b6102418161022f565b811461024b575f80fd5b50565b5f8151905061025c81610238565b92915050565b5f805f805f805f60e0888a03121561027d5761027c6100eb565b5b5f88015167ffffffffffffffff81111561029a576102996100ef565b5b6102a68a828b01610202565b97505060206102b78a828b0161024e565b96505060406102c88a828b0161024e565b955050606088015167ffffffffffffffff8111156102e9576102e86100ef565b5b6102f58a828b01610202565b94505060806103068a828b0161024e565b93505060a088015167ffffffffffffffff811115610327576103266100ef565b5b6103338a828b01610202565b92505060c06103448a828b0161024e565b91505092959891949750929550565b5f81519050919050565b7f4e487b71000000000000000000000000000000000000000000000000000000005f52602260045260245ffd5b5f60028204905060018216806103a157607f821691505b6020821081036103b4576103b361035d565b5b50919050565b5f819050815f5260205f209050919050565b5f6020601f8301049050919050565b5f82821b905092915050565b5f600883026104167fffffffffffffffffffffffffffffffffffffffffffffffffffffffffffffffff826103db565b61042086836103db565b95508019841693508086168417925050509392505050565b5f819050919050565b5f61045b6104566104518461022f565b610438565b61022f565b9050919050565b5f819050919050565b61047483610441565b61048861048082610462565b8484546103e7565b825550505050565b5f90565b61049c610490565b6104a781848461046b565b505050565b5b818110156104ca576104bf5f82610494565b6001810190506104ad565b5050565b601f82111561050f576104e0816103ba565b6104e9846103cc565b810160208510156104f8578190505b61050c610504856103cc565b8301826104ac565b50505b505050565b5f82821c905092915050565b5f61052f5f1984600802610514565b1980831691505092915050565b5f6105478383610520565b9150826002028217905092915050565b61056082610353565b67ffffffffffffffff8111156105795761057861010b565b5b610583825461038a565b61058e8282856104ce565b5f60209050601f8311600181146105bf575f84156105ad578287015190505b6105b7858261053c565b86555061061e565b601f1984166105cd866103ba565b5f5b828110156105f4578489015182556001820191506020850194506020810190506105cf565b86831015610611578489015161060d601f891682610520565b8355505b6001600288020188555050505b505050505050565b7f4e487b71000000000000000000000000000000000000000000000000000000005f52601160045260245ffd5b5f61065d8261022f565b91506106688361022f565b92508282026106768161022f565b9150828204841483151761068d5761068c610626565b5b5092915050565b6113f2806106a15f395ff3fe608060405260043610610054575f3560e01c806312a6361c1461005857806331e3e2fe146100745780637cbe30671461008a5780638d973564146100a0578063b2141e26146100c8578063f6c7f5fc146100d2575b5f80fd5b610072600480360381019061006d9190610a68565b6100dc565b005b34801561007f575f80fd5b5061008861031a565b005b348015610095575f80fd5b5061009e610544565b005b3480156100ab575f80fd5b506100c660048036038101906100c19190610c02565b610735565b005b6100d0610790565b005b6100da6108cf565b005b5f60018111156100ef576100ee610c5c565b5b81600181111561010257610101610c5c565b5b036101fb57600654341461014b576040517f08c379a000000000000000000000000000000000000000000000000000000000815260040161014290610ce3565b60405180910390fd5b6005600a5f3373ffffffffffffffffffffffffffffffffffffffff1673ffffffffffffffffffffffffffffffffffffffff1681526020019081526020015f205f0190816101989190610f22565b5034600a5f3373ffffffffffffffffffffffffffffffffffffffff1673ffffffffffffffffffffffffffffffffffffffff1681526020019081526020015f20600101819055503460095f8282546101ef9190611034565b92505081905550610317565b60018081111561020e5761020d610c5c565b5b81600181111561022157610220610c5c565b5b0361031657600854341461026a576040517f08c379a000000000000000000000000000000000000000000000000000000000815260040161026190610ce3565b60405180910390fd5b6007600a5f3373ffffffffffffffffffffffffffffffffffffffff1673ffffffffffffffffffffffffffffffffffffffff1681526020019081526020015f205f0190816102b79190610f22565b5034600a5f3373ffffffffffffffffffffffffffffffffffffffff1673ffffffffffffffffffffffffffffffffffffffff1681526020019081526020015f20600101819055503460095f82825461030e9190611034565b925050819055505b5b50565b5f3390505f600a5f8373ffffffffffffffffffffffffffffffffffffffff1673ffffffffffffffffffffffffffffffffffffffff1681526020019081526020015f2060010154116103a0576040517f08c379a0000000000000000000000000000000000000000000000000000000008152600401610397906110b1565b60405180910390fd5b6103a8610a0e565b6103e7576040517f08c379a00000000000000000000000000000000000000000000000000000000081526004016103de90611119565b60405180910390fd5b6103ef610a26565b1561042f576040517f08c379a0000000000000000000000000000000000000000000000000000000008152600401610426906111a7565b60405180910390fd5b8073ffffffffffffffffffffffffffffffffffffffff166108fc600a5f8473ffffffffffffffffffffffffffffffffffffffff1673ffffffffffffffffffffffffffffffffffffffff1681526020019081526020015f206001015490811502906040515f60405180830381858888f193505050501580156104b2573d5f803e3d5ffd5b508073ffffffffffffffffffffffffffffffffffffffff167fa171b6942063c6f2800ce40a780edce37baa2b618571b11eedd1e69e626e7d76600a5f8473ffffffffffffffffffffffffffffffffffffffff1673ffffffffffffffffffffffffffffffffffffffff1681526020019081526020015f206001015460405161053991906111d4565b60405180910390a250565b3373ffffffffffffffffffffffffffffffffffffffff165f8054906101000a900473ffffffffffffffffffffffffffffffffffffffff1673ffffffffffffffffffffffffffffffffffffffff16146105d1576040517f08c379a00000000000000000000000000000000000000000000000000000000081526004016105c890611237565b60405180910390fd5b6105d9610a0e565b610618576040517f08c379a000000000000000000000000000000000000000000000000000000000815260040161060f90611119565b60405180910390fd5b610620610a26565b61065f576040517f08c379a0000000000000000000000000000000000000000000000000000000008152600401610656906112c5565b60405180910390fd5b5f8054906101000a900473ffffffffffffffffffffffffffffffffffffffff1673ffffffffffffffffffffffffffffffffffffffff166108fc60095490811502906040515f60405180830381858888f193505050501580156106c3573d5f803e3d5ffd5b505f8054906101000a900473ffffffffffffffffffffffffffffffffffffffff1673ffffffffffffffffffffffffffffffffffffffff167f127fdbbd36efddec2d23c9c5f2e6880fa889ae3d4fae1b71c272869ab19e5ab560095460405161072b91906111d4565b60405180910390a2565b81600c5f600b5481526020019081526020015f205f01908161075791906112ed565b5080600c5f600b5481526020019081526020015f20600101819055506001600b5f8282546107859190611034565b925050819055505050565b60085434146107d4576040517f08c379a00000000000000000000000000000000000000000000000000000000081526004016107cb90610ce3565b60405180910390fd5b6007600a5f3373ffffffffffffffffffffffffffffffffffffffff1673ffffffffffffffffffffffffffffffffffffffff1681526020019081526020015f205f0190816108219190610f22565b5034600a5f3373ffffffffffffffffffffffffffffffffffffffff1673ffffffffffffffffffffffffffffffffffffffff1681526020019081526020015f20600101819055503460095f8282546108789190611034565b925050819055503373ffffffffffffffffffffffffffffffffffffffff167f1bb460ccaaf70fbacfec17a376f8acbd278c1405590ffcc8ebe4b88daf4f64ad346040516108c591906111d4565b60405180910390a2565b6006543414610913576040517f08c379a000000000000000000000000000000000000000000000000000000000815260040161090a90610ce3565b60405180910390fd5b6005600a5f3373ffffffffffffffffffffffffffffffffffffffff1673ffffffffffffffffffffffffffffffffffffffff1681526020019081526020015f205f0190816109609190610f22565b5034600a5f3373ffffffffffffffffffffffffffffffffffffffff1673ffffffffffffffffffffffffffffffffffffffff1681526020019081526020015f20600101819055503460095f8282546109b79190611034565b925050819055503373ffffffffffffffffffffffffffffffffffffffff167f1bb460ccaaf70fbacfec17a376f8acbd278c1405590ffcc8ebe4b88daf4f64ad34604051610a0491906111d4565b60405180910390a2565b5f600454600354610a1f9190611034565b4211905090565b5f6002546009541015905090565b5f604051905090565b5f80fd5b5f80fd5b60028110610a51575f80fd5b50565b5f81359050610a6281610a45565b92915050565b5f60208284031215610a7d57610a7c610a3d565b5b5f610a8a84828501610a54565b91505092915050565b5f80fd5b5f80fd5b5f601f19601f8301169050919050565b7f4e487b71000000000000000000000000000000000000000000000000000000005f52604160045260245ffd5b610ae182610a9b565b810181811067ffffffffffffffff82111715610b0057610aff610aab565b5b80604052505050565b5f610b12610a34565b9050610b1e8282610ad8565b919050565b5f67ffffffffffffffff821115610b3d57610b3c610aab565b5b610b4682610a9b565b9050602081019050919050565b828183375f83830152505050565b5f610b73610b6e84610b23565b610b09565b905082815260208101848484011115610b8f57610b8e610a97565b5b610b9a848285610b53565b509392505050565b5f82601f830112610bb657610bb5610a93565b5b8135610bc6848260208601610b61565b91505092915050565b5f819050919050565b610be181610bcf565b8114610beb575f80fd5b50565b5f81359050610bfc81610bd8565b92915050565b5f8060408385031215610c1857610c17610a3d565b5b5f83013567ffffffffffffffff811115610c3557610c34610a41565b5b610c4185828601610ba2565b9250506020610c5285828601610bee565b9150509250929050565b7f4e487b71000000000000000000000000000000000000000000000000000000005f52602160045260245ffd5b5f82825260208201905092915050565b7f506c6561736520636865636b2076616c75652e000000000000000000000000005f82015250565b5f610ccd601383610c89565b9150610cd882610c99565b602082019050919050565b5f6020820190508181035f830152610cfa81610cc1565b9050919050565b7f4e487b71000000000000000000000000000000000000000000000000000000005f52602260045260245ffd5b5f6002820490506001821680610d4557607f821691505b602082108103610d5857610d57610d01565b5b50919050565b5f81549050610d6c81610d2e565b9050919050565b5f819050815f5260205f209050919050565b5f819050815f5260205f209050919050565b5f6020601f8301049050919050565b5f82821b905092915050565b5f60088302610de17fffffffffffffffffffffffffffffffffffffffffffffffffffffffffffffffff82610da6565b610deb8683610da6565b95508019841693508086168417925050509392505050565b5f819050919050565b5f610e26610e21610e1c84610bcf565b610e03565b610bcf565b9050919050565b5f819050919050565b610e3f83610e0c565b610e53610e4b82610e2d565b848454610db2565b825550505050565b5f90565b610e67610e5b565b610e72818484610e36565b505050565b5b81811015610e9557610e8a5f82610e5f565b600181019050610e78565b5050565b601f821115610eda57610eab81610d73565b610eb484610d97565b81016020851015610ec3578190505b610ed7610ecf85610d97565b830182610e77565b50505b505050565b5f82821c905092915050565b5f610efa5f1984600802610edf565b1980831691505092915050565b5f610f128383610eeb565b9150826002028217905092915050565b818103610f30575050611005565b610f3982610d5e565b67ffffffffffffffff811115610f5257610f51610aab565b5b610f5c8254610d2e565b610f67828285610e99565b5f601f831160018114610f94575f8415610f82578287015490505b610f8c8582610f07565b865550610ffe565b601f198416610fa287610d85565b9650610fad86610d73565b5f5b82811015610fd457848901548255600182019150600185019450602081019050610faf565b86831015610ff15784890154610fed601f891682610eeb565b8355505b6001600288020188555050505b5050505050505b565b7f4e487b71000000000000000000000000000000000000000000000000000000005f52601160045260245ffd5b5f61103e82610bcf565b915061104983610bcf565b925082820190508082111561106157611060611007565b5b92915050565b7f536f7272792c20796f752068617665206e6f20696e766573746d656e747300005f82015250565b5f61109b601e83610c89565b91506110a682611067565b602082019050919050565b5f6020820190508181035f8301526110c88161108f565b9050919050565b7f5468652063616d706169676e206973207374696c6c20676f696e672e000000005f82015250565b5f611103601c83610c89565b915061110e826110cf565b602082019050919050565b5f6020820190508181035f830152611130816110f7565b9050919050565b7f536f7272792c207468652063616d7061696768206973207375636365737366755f8201527f6c2e000000000000000000000000000000000000000000000000000000000000602082015250565b5f611191602283610c89565b915061119c82611137565b604082019050919050565b5f6020820190508181035f8301526111be81611185565b9050919050565b6111ce81610bcf565b82525050565b5f6020820190506111e75f8301846111c5565b92915050565b7f596f7520617265206e6f7420746865206f776e65722e000000000000000000005f82015250565b5f611221601683610c89565b915061122c826111ed565b602082019050919050565b5f6020820190508181035f83015261124e81611215565b9050919050565b7f536f7272792c207468652063616d70616967682077617320756e7375636365735f8201527f7366756c2e000000000000000000000000000000000000000000000000000000602082015250565b5f6112af602583610c89565b91506112ba82611255565b604082019050919050565b5f6020820190508181035f8301526112dc816112a3565b9050919050565b5f81519050919050565b6112f6826112e3565b67ffffffffffffffff81111561130f5761130e610aab565b5b6113198254610d2e565b611324828285610e99565b5f60209050601f831160018114611355575f8415611343578287015190505b61134d8582610f07565b8655506113b4565b601f19841661136386610d73565b5f5b8281101561138a57848901518255600182019150602085019450602081019050611365565b868310156113a757848901516113a3601f891682610eeb565b8355505b6001600288020188555050505b50505050505056fea26469706673582212200f884c47e5954b8eea1a3f258b95bd3add5bf7134ab1938f5d4bf8e2904be3aa64736f6c634300081a0033",
			"opcodes": "PUSH1 0x80 PUSH1 0x40 MSTORE PUSH1 0x1 PUSH1 0xB SSTORE CALLVALUE DUP1 ISZERO PUSH2 0x14 JUMPI PUSH0 DUP1 REVERT JUMPDEST POP PUSH1 0x40 MLOAD PUSH2 0x1A93 CODESIZE SUB DUP1 PUSH2 0x1A93 DUP4 CODECOPY DUP2 DUP2 ADD PUSH1 0x40 MSTORE DUP2 ADD SWAP1 PUSH2 0x36 SWAP2 SWAP1 PUSH2 0x262 JUMP JUMPDEST CALLER PUSH0 DUP1 PUSH2 0x100 EXP DUP2 SLOAD DUP2 PUSH20 0xFFFFFFFFFFFFFFFFFFFFFFFFFFFFFFFFFFFFFFFF MUL NOT AND SWAP1 DUP4 PUSH20 0xFFFFFFFFFFFFFFFFFFFFFFFFFFFFFFFFFFFFFFFF AND MUL OR SWAP1 SSTORE POP DUP7 PUSH1 0x1 SWAP1 DUP2 PUSH2 0x84 SWAP2 SWAP1 PUSH2 0x557 JUMP JUMPDEST POP DUP6 PUSH1 0x2 DUP2 SWAP1 SSTORE POP TIMESTAMP PUSH1 0x3 DUP2 SWAP1 SSTORE POP DUP5 PUSH3 0x15180 PUSH2 0xA2 SWAP2 SWAP1 PUSH2 0x653 JUMP JUMPDEST PUSH1 0x4 DUP2 SWAP1 SSTORE POP DUP4 PUSH1 0x5 SWAP1 DUP2 PUSH2 0xB7 SWAP2 SWAP1 PUSH2 0x557 JUMP JUMPDEST POP DUP3 PUSH1 0x6 DUP2 SWAP1 SSTORE POP DUP2 PUSH1 0x7 SWAP1 DUP2 PUSH2 0xCE SWAP2 SWAP1 PUSH2 0x557 JUMP JUMPDEST POP DUP1 PUSH1 0x8 DUP2 SWAP1 SSTORE POP POP POP POP POP POP POP POP PUSH2 0x694 JUMP JUMPDEST PUSH0 PUSH1 0x40 MLOAD SWAP1 POP SWAP1 JUMP JUMPDEST PUSH0 DUP1 REVERT JUMPDEST PUSH0 DUP1 REVERT JUMPDEST PUSH0 DUP1 REVERT JUMPDEST PUSH0 DUP1 REVERT JUMPDEST PUSH0 PUSH1 0x1F NOT PUSH1 0x1F DUP4 ADD AND SWAP1 POP SWAP2 SWAP1 POP JUMP JUMPDEST PUSH32 0x4E487B7100000000000000000000000000000000000000000000000000000000 PUSH0 MSTORE PUSH1 0x41 PUSH1 0x4 MSTORE PUSH1 0x24 PUSH0 REVERT JUMPDEST PUSH2 0x141 DUP3 PUSH2 0xFB JUMP JUMPDEST DUP2 ADD DUP2 DUP2 LT PUSH8 0xFFFFFFFFFFFFFFFF DUP3 GT OR ISZERO PUSH2 0x160 JUMPI PUSH2 0x15F PUSH2 0x10B JUMP JUMPDEST JUMPDEST DUP1 PUSH1 0x40 MSTORE POP POP POP JUMP JUMPDEST PUSH0 PUSH2 0x172 PUSH2 0xE2 JUMP JUMPDEST SWAP1 POP PUSH2 0x17E DUP3 DUP3 PUSH2 0x138 JUMP JUMPDEST SWAP2 SWAP1 POP JUMP JUMPDEST PUSH0 PUSH8 0xFFFFFFFFFFFFFFFF DUP3 GT ISZERO PUSH2 0x19D JUMPI PUSH2 0x19C PUSH2 0x10B JUMP JUMPDEST JUMPDEST PUSH2 0x1A6 DUP3 PUSH2 0xFB JUMP JUMPDEST SWAP1 POP PUSH1 0x20 DUP2 ADD SWAP1 POP SWAP2 SWAP1 POP JUMP JUMPDEST DUP3 DUP2 DUP4 MCOPY PUSH0 DUP4 DUP4 ADD MSTORE POP POP POP JUMP JUMPDEST PUSH0 PUSH2 0x1D3 PUSH2 0x1CE DUP5 PUSH2 0x183 JUMP JUMPDEST PUSH2 0x169 JUMP JUMPDEST SWAP1 POP DUP3 DUP2 MSTORE PUSH1 0x20 DUP2 ADD DUP5 DUP5 DUP5 ADD GT ISZERO PUSH2 0x1EF JUMPI PUSH2 0x1EE PUSH2 0xF7 JUMP JUMPDEST JUMPDEST PUSH2 0x1FA DUP5 DUP3 DUP6 PUSH2 0x1B3 JUMP JUMPDEST POP SWAP4 SWAP3 POP POP POP JUMP JUMPDEST PUSH0 DUP3 PUSH1 0x1F DUP4 ADD SLT PUSH2 0x216 JUMPI PUSH2 0x215 PUSH2 0xF3 JUMP JUMPDEST JUMPDEST DUP2 MLOAD PUSH2 0x226 DUP5 DUP3 PUSH1 0x20 DUP7 ADD PUSH2 0x1C1 JUMP JUMPDEST SWAP2 POP POP SWAP3 SWAP2 POP POP JUMP JUMPDEST PUSH0 DUP2 SWAP1 POP SWAP2 SWAP1 POP JUMP JUMPDEST PUSH2 0x241 DUP2 PUSH2 0x22F JUMP JUMPDEST DUP2 EQ PUSH2 0x24B JUMPI PUSH0 DUP1 REVERT JUMPDEST POP JUMP JUMPDEST PUSH0 DUP2 MLOAD SWAP1 POP PUSH2 0x25C DUP2 PUSH2 0x238 JUMP JUMPDEST SWAP3 SWAP2 POP POP JUMP JUMPDEST PUSH0 DUP1 PUSH0 DUP1 PUSH0 DUP1 PUSH0 PUSH1 0xE0 DUP9 DUP11 SUB SLT ISZERO PUSH2 0x27D JUMPI PUSH2 0x27C PUSH2 0xEB JUMP JUMPDEST JUMPDEST PUSH0 DUP9 ADD MLOAD PUSH8 0xFFFFFFFFFFFFFFFF DUP2 GT ISZERO PUSH2 0x29A JUMPI PUSH2 0x299 PUSH2 0xEF JUMP JUMPDEST JUMPDEST PUSH2 0x2A6 DUP11 DUP3 DUP12 ADD PUSH2 0x202 JUMP JUMPDEST SWAP8 POP POP PUSH1 0x20 PUSH2 0x2B7 DUP11 DUP3 DUP12 ADD PUSH2 0x24E JUMP JUMPDEST SWAP7 POP POP PUSH1 0x40 PUSH2 0x2C8 DUP11 DUP3 DUP12 ADD PUSH2 0x24E JUMP JUMPDEST SWAP6 POP POP PUSH1 0x60 DUP9 ADD MLOAD PUSH8 0xFFFFFFFFFFFFFFFF DUP2 GT ISZERO PUSH2 0x2E9 JUMPI PUSH2 0x2E8 PUSH2 0xEF JUMP JUMPDEST JUMPDEST PUSH2 0x2F5 DUP11 DUP3 DUP12 ADD PUSH2 0x202 JUMP JUMPDEST SWAP5 POP POP PUSH1 0x80 PUSH2 0x306 DUP11 DUP3 DUP12 ADD PUSH2 0x24E JUMP JUMPDEST SWAP4 POP POP PUSH1 0xA0 DUP9 ADD MLOAD PUSH8 0xFFFFFFFFFFFFFFFF DUP2 GT ISZERO PUSH2 0x327 JUMPI PUSH2 0x326 PUSH2 0xEF JUMP JUMPDEST JUMPDEST PUSH2 0x333 DUP11 DUP3 DUP12 ADD PUSH2 0x202 JUMP JUMPDEST SWAP3 POP POP PUSH1 0xC0 PUSH2 0x344 DUP11 DUP3 DUP12 ADD PUSH2 0x24E JUMP JUMPDEST SWAP2 POP POP SWAP3 SWAP6 SWAP9 SWAP2 SWAP5 SWAP8 POP SWAP3 SWAP6 POP JUMP JUMPDEST PUSH0 DUP2 MLOAD SWAP1 POP SWAP2 SWAP1 POP JUMP JUMPDEST PUSH32 0x4E487B7100000000000000000000000000000000000000000000000000000000 PUSH0 MSTORE PUSH1 0x22 PUSH1 0x4 MSTORE PUSH1 0x24 PUSH0 REVERT JUMPDEST PUSH0 PUSH1 0x2 DUP3 DIV SWAP1 POP PUSH1 0x1 DUP3 AND DUP1 PUSH2 0x3A1 JUMPI PUSH1 0x7F DUP3 AND SWAP2 POP JUMPDEST PUSH1 0x20 DUP3 LT DUP2 SUB PUSH2 0x3B4 JUMPI PUSH2 0x3B3 PUSH2 0x35D JUMP JUMPDEST JUMPDEST POP SWAP2 SWAP1 POP JUMP JUMPDEST PUSH0 DUP2 SWAP1 POP DUP2 PUSH0 MSTORE PUSH1 0x20 PUSH0 KECCAK256 SWAP1 POP SWAP2 SWAP1 POP JUMP JUMPDEST PUSH0 PUSH1 0x20 PUSH1 0x1F DUP4 ADD DIV SWAP1 POP SWAP2 SWAP1 POP JUMP JUMPDEST PUSH0 DUP3 DUP3 SHL SWAP1 POP SWAP3 SWAP2 POP POP JUMP JUMPDEST PUSH0 PUSH1 0x8 DUP4 MUL PUSH2 0x416 PUSH32 0xFFFFFFFFFFFFFFFFFFFFFFFFFFFFFFFFFFFFFFFFFFFFFFFFFFFFFFFFFFFFFFFF DUP3 PUSH2 0x3DB JUMP JUMPDEST PUSH2 0x420 DUP7 DUP4 PUSH2 0x3DB JUMP JUMPDEST SWAP6 POP DUP1 NOT DUP5 AND SWAP4 POP DUP1 DUP7 AND DUP5 OR SWAP3 POP POP POP SWAP4 SWAP3 POP POP POP JUMP JUMPDEST PUSH0 DUP2 SWAP1 POP SWAP2 SWAP1 POP JUMP JUMPDEST PUSH0 PUSH2 0x45B PUSH2 0x456 PUSH2 0x451 DUP5 PUSH2 0x22F JUMP JUMPDEST PUSH2 0x438 JUMP JUMPDEST PUSH2 0x22F JUMP JUMPDEST SWAP1 POP SWAP2 SWAP1 POP JUMP JUMPDEST PUSH0 DUP2 SWAP1 POP SWAP2 SWAP1 POP JUMP JUMPDEST PUSH2 0x474 DUP4 PUSH2 0x441 JUMP JUMPDEST PUSH2 0x488 PUSH2 0x480 DUP3 PUSH2 0x462 JUMP JUMPDEST DUP5 DUP5 SLOAD PUSH2 0x3E7 JUMP JUMPDEST DUP3 SSTORE POP POP POP POP JUMP JUMPDEST PUSH0 SWAP1 JUMP JUMPDEST PUSH2 0x49C PUSH2 0x490 JUMP JUMPDEST PUSH2 0x4A7 DUP2 DUP5 DUP5 PUSH2 0x46B JUMP JUMPDEST POP POP POP JUMP JUMPDEST JUMPDEST DUP2 DUP2 LT ISZERO PUSH2 0x4CA JUMPI PUSH2 0x4BF PUSH0 DUP3 PUSH2 0x494 JUMP JUMPDEST PUSH1 0x1 DUP2 ADD SWAP1 POP PUSH2 0x4AD JUMP JUMPDEST POP POP JUMP JUMPDEST PUSH1 0x1F DUP3 GT ISZERO PUSH2 0x50F JUMPI PUSH2 0x4E0 DUP2 PUSH2 0x3BA JUMP JUMPDEST PUSH2 0x4E9 DUP5 PUSH2 0x3CC JUMP JUMPDEST DUP2 ADD PUSH1 0x20 DUP6 LT ISZERO PUSH2 0x4F8 JUMPI DUP2 SWAP1 POP JUMPDEST PUSH2 0x50C PUSH2 0x504 DUP6 PUSH2 0x3CC JUMP JUMPDEST DUP4 ADD DUP3 PUSH2 0x4AC JUMP JUMPDEST POP POP JUMPDEST POP POP POP JUMP JUMPDEST PUSH0 DUP3 DUP3 SHR SWAP1 POP SWAP3 SWAP2 POP POP JUMP JUMPDEST PUSH0 PUSH2 0x52F PUSH0 NOT DUP5 PUSH1 0x8 MUL PUSH2 0x514 JUMP JUMPDEST NOT DUP1 DUP4 AND SWAP2 POP POP SWAP3 SWAP2 POP POP JUMP JUMPDEST PUSH0 PUSH2 0x547 DUP4 DUP4 PUSH2 0x520 JUMP JUMPDEST SWAP2 POP DUP3 PUSH1 0x2 MUL DUP3 OR SWAP1 POP SWAP3 SWAP2 POP POP JUMP JUMPDEST PUSH2 0x560 DUP3 PUSH2 0x353 JUMP JUMPDEST PUSH8 0xFFFFFFFFFFFFFFFF DUP2 GT ISZERO PUSH2 0x579 JUMPI PUSH2 0x578 PUSH2 0x10B JUMP JUMPDEST JUMPDEST PUSH2 0x583 DUP3 SLOAD PUSH2 0x38A JUMP JUMPDEST PUSH2 0x58E DUP3 DUP3 DUP6 PUSH2 0x4CE JUMP JUMPDEST PUSH0 PUSH1 0x20 SWAP1 POP PUSH1 0x1F DUP4 GT PUSH1 0x1 DUP2 EQ PUSH2 0x5BF JUMPI PUSH0 DUP5 ISZERO PUSH2 0x5AD JUMPI DUP3 DUP8 ADD MLOAD SWAP1 POP JUMPDEST PUSH2 0x5B7 DUP6 DUP3 PUSH2 0x53C JUMP JUMPDEST DUP7 SSTORE POP PUSH2 0x61E JUMP JUMPDEST PUSH1 0x1F NOT DUP5 AND PUSH2 0x5CD DUP7 PUSH2 0x3BA JUMP JUMPDEST PUSH0 JUMPDEST DUP3 DUP2 LT ISZERO PUSH2 0x5F4 JUMPI DUP5 DUP10 ADD MLOAD DUP3 SSTORE PUSH1 0x1 DUP3 ADD SWAP2 POP PUSH1 0x20 DUP6 ADD SWAP5 POP PUSH1 0x20 DUP2 ADD SWAP1 POP PUSH2 0x5CF JUMP JUMPDEST DUP7 DUP4 LT ISZERO PUSH2 0x611 JUMPI DUP5 DUP10 ADD MLOAD PUSH2 0x60D PUSH1 0x1F DUP10 AND DUP3 PUSH2 0x520 JUMP JUMPDEST DUP4 SSTORE POP JUMPDEST PUSH1 0x1 PUSH1 0x2 DUP9 MUL ADD DUP9 SSTORE POP POP POP JUMPDEST POP POP POP POP POP POP JUMP JUMPDEST PUSH32 0x4E487B7100000000000000000000000000000000000000000000000000000000 PUSH0 MSTORE PUSH1 0x11 PUSH1 0x4 MSTORE PUSH1 0x24 PUSH0 REVERT JUMPDEST PUSH0 PUSH2 0x65D DUP3 PUSH2 0x22F JUMP JUMPDEST SWAP2 POP PUSH2 0x668 DUP4 PUSH2 0x22F JUMP JUMPDEST SWAP3 POP DUP3 DUP3 MUL PUSH2 0x676 DUP2 PUSH2 0x22F JUMP JUMPDEST SWAP2 POP DUP3 DUP3 DIV DUP5 EQ DUP4 ISZERO OR PUSH2 0x68D JUMPI PUSH2 0x68C PUSH2 0x626 JUMP JUMPDEST JUMPDEST POP SWAP3 SWAP2 POP POP JUMP JUMPDEST PUSH2 0x13F2 DUP1 PUSH2 0x6A1 PUSH0 CODECOPY PUSH0 RETURN INVALID PUSH1 0x80 PUSH1 0x40 MSTORE PUSH1 0x4 CALLDATASIZE LT PUSH2 0x54 JUMPI PUSH0 CALLDATALOAD PUSH1 0xE0 SHR DUP1 PUSH4 0x12A6361C EQ PUSH2 0x58 JUMPI DUP1 PUSH4 0x31E3E2FE EQ PUSH2 0x74 JUMPI DUP1 PUSH4 0x7CBE3067 EQ PUSH2 0x8A JUMPI DUP1 PUSH4 0x8D973564 EQ PUSH2 0xA0 JUMPI DUP1 PUSH4 0xB2141E26 EQ PUSH2 0xC8 JUMPI DUP1 PUSH4 0xF6C7F5FC EQ PUSH2 0xD2 JUMPI JUMPDEST PUSH0 DUP1 REVERT JUMPDEST PUSH2 0x72 PUSH1 0x4 DUP1 CALLDATASIZE SUB DUP2 ADD SWAP1 PUSH2 0x6D SWAP2 SWAP1 PUSH2 0xA68 JUMP JUMPDEST PUSH2 0xDC JUMP JUMPDEST STOP JUMPDEST CALLVALUE DUP1 ISZERO PUSH2 0x7F JUMPI PUSH0 DUP1 REVERT JUMPDEST POP PUSH2 0x88 PUSH2 0x31A JUMP JUMPDEST STOP JUMPDEST CALLVALUE DUP1 ISZERO PUSH2 0x95 JUMPI PUSH0 DUP1 REVERT JUMPDEST POP PUSH2 0x9E PUSH2 0x544 JUMP JUMPDEST STOP JUMPDEST CALLVALUE DUP1 ISZERO PUSH2 0xAB JUMPI PUSH0 DUP1 REVERT JUMPDEST POP PUSH2 0xC6 PUSH1 0x4 DUP1 CALLDATASIZE SUB DUP2 ADD SWAP1 PUSH2 0xC1 SWAP2 SWAP1 PUSH2 0xC02 JUMP JUMPDEST PUSH2 0x735 JUMP JUMPDEST STOP JUMPDEST PUSH2 0xD0 PUSH2 0x790 JUMP JUMPDEST STOP JUMPDEST PUSH2 0xDA PUSH2 0x8CF JUMP JUMPDEST STOP JUMPDEST PUSH0 PUSH1 0x1 DUP2 GT ISZERO PUSH2 0xEF JUMPI PUSH2 0xEE PUSH2 0xC5C JUMP JUMPDEST JUMPDEST DUP2 PUSH1 0x1 DUP2 GT ISZERO PUSH2 0x102 JUMPI PUSH2 0x101 PUSH2 0xC5C JUMP JUMPDEST JUMPDEST SUB PUSH2 0x1FB JUMPI PUSH1 0x6 SLOAD CALLVALUE EQ PUSH2 0x14B JUMPI PUSH1 0x40 MLOAD PUSH32 0x8C379A000000000000000000000000000000000000000000000000000000000 DUP2 MSTORE PUSH1 0x4 ADD PUSH2 0x142 SWAP1 PUSH2 0xCE3 JUMP JUMPDEST PUSH1 0x40 MLOAD DUP1 SWAP2 SUB SWAP1 REVERT JUMPDEST PUSH1 0x5 PUSH1 0xA PUSH0 CALLER PUSH20 0xFFFFFFFFFFFFFFFFFFFFFFFFFFFFFFFFFFFFFFFF AND PUSH20 0xFFFFFFFFFFFFFFFFFFFFFFFFFFFFFFFFFFFFFFFF AND DUP2 MSTORE PUSH1 0x20 ADD SWAP1 DUP2 MSTORE PUSH1 0x20 ADD PUSH0 KECCAK256 PUSH0 ADD SWAP1 DUP2 PUSH2 0x198 SWAP2 SWAP1 PUSH2 0xF22 JUMP JUMPDEST POP CALLVALUE PUSH1 0xA PUSH0 CALLER PUSH20 0xFFFFFFFFFFFFFFFFFFFFFFFFFFFFFFFFFFFFFFFF AND PUSH20 0xFFFFFFFFFFFFFFFFFFFFFFFFFFFFFFFFFFFFFFFF AND DUP2 MSTORE PUSH1 0x20 ADD SWAP1 DUP2 MSTORE PUSH1 0x20 ADD PUSH0 KECCAK256 PUSH1 0x1 ADD DUP2 SWAP1 SSTORE POP CALLVALUE PUSH1 0x9 PUSH0 DUP3 DUP3 SLOAD PUSH2 0x1EF SWAP2 SWAP1 PUSH2 0x1034 JUMP JUMPDEST SWAP3 POP POP DUP2 SWAP1 SSTORE POP PUSH2 0x317 JUMP JUMPDEST PUSH1 0x1 DUP1 DUP2 GT ISZERO PUSH2 0x20E JUMPI PUSH2 0x20D PUSH2 0xC5C JUMP JUMPDEST JUMPDEST DUP2 PUSH1 0x1 DUP2 GT ISZERO PUSH2 0x221 JUMPI PUSH2 0x220 PUSH2 0xC5C JUMP JUMPDEST JUMPDEST SUB PUSH2 0x316 JUMPI PUSH1 0x8 SLOAD CALLVALUE EQ PUSH2 0x26A JUMPI PUSH1 0x40 MLOAD PUSH32 0x8C379A000000000000000000000000000000000000000000000000000000000 DUP2 MSTORE PUSH1 0x4 ADD PUSH2 0x261 SWAP1 PUSH2 0xCE3 JUMP JUMPDEST PUSH1 0x40 MLOAD DUP1 SWAP2 SUB SWAP1 REVERT JUMPDEST PUSH1 0x7 PUSH1 0xA PUSH0 CALLER PUSH20 0xFFFFFFFFFFFFFFFFFFFFFFFFFFFFFFFFFFFFFFFF AND PUSH20 0xFFFFFFFFFFFFFFFFFFFFFFFFFFFFFFFFFFFFFFFF AND DUP2 MSTORE PUSH1 0x20 ADD SWAP1 DUP2 MSTORE PUSH1 0x20 ADD PUSH0 KECCAK256 PUSH0 ADD SWAP1 DUP2 PUSH2 0x2B7 SWAP2 SWAP1 PUSH2 0xF22 JUMP JUMPDEST POP CALLVALUE PUSH1 0xA PUSH0 CALLER PUSH20 0xFFFFFFFFFFFFFFFFFFFFFFFFFFFFFFFFFFFFFFFF AND PUSH20 0xFFFFFFFFFFFFFFFFFFFFFFFFFFFFFFFFFFFFFFFF AND DUP2 MSTORE PUSH1 0x20 ADD SWAP1 DUP2 MSTORE PUSH1 0x20 ADD PUSH0 KECCAK256 PUSH1 0x1 ADD DUP2 SWAP1 SSTORE POP CALLVALUE PUSH1 0x9 PUSH0 DUP3 DUP3 SLOAD PUSH2 0x30E SWAP2 SWAP1 PUSH2 0x1034 JUMP JUMPDEST SWAP3 POP POP DUP2 SWAP1 SSTORE POP JUMPDEST JUMPDEST POP JUMP JUMPDEST PUSH0 CALLER SWAP1 POP PUSH0 PUSH1 0xA PUSH0 DUP4 PUSH20 0xFFFFFFFFFFFFFFFFFFFFFFFFFFFFFFFFFFFFFFFF AND PUSH20 0xFFFFFFFFFFFFFFFFFFFFFFFFFFFFFFFFFFFFFFFF AND DUP2 MSTORE PUSH1 0x20 ADD SWAP1 DUP2 MSTORE PUSH1 0x20 ADD PUSH0 KECCAK256 PUSH1 0x1 ADD SLOAD GT PUSH2 0x3A0 JUMPI PUSH1 0x40 MLOAD PUSH32 0x8C379A000000000000000000000000000000000000000000000000000000000 DUP2 MSTORE PUSH1 0x4 ADD PUSH2 0x397 SWAP1 PUSH2 0x10B1 JUMP JUMPDEST PUSH1 0x40 MLOAD DUP1 SWAP2 SUB SWAP1 REVERT JUMPDEST PUSH2 0x3A8 PUSH2 0xA0E JUMP JUMPDEST PUSH2 0x3E7 JUMPI PUSH1 0x40 MLOAD PUSH32 0x8C379A000000000000000000000000000000000000000000000000000000000 DUP2 MSTORE PUSH1 0x4 ADD PUSH2 0x3DE SWAP1 PUSH2 0x1119 JUMP JUMPDEST PUSH1 0x40 MLOAD DUP1 SWAP2 SUB SWAP1 REVERT JUMPDEST PUSH2 0x3EF PUSH2 0xA26 JUMP JUMPDEST ISZERO PUSH2 0x42F JUMPI PUSH1 0x40 MLOAD PUSH32 0x8C379A000000000000000000000000000000000000000000000000000000000 DUP2 MSTORE PUSH1 0x4 ADD PUSH2 0x426 SWAP1 PUSH2 0x11A7 JUMP JUMPDEST PUSH1 0x40 MLOAD DUP1 SWAP2 SUB SWAP1 REVERT JUMPDEST DUP1 PUSH20 0xFFFFFFFFFFFFFFFFFFFFFFFFFFFFFFFFFFFFFFFF AND PUSH2 0x8FC PUSH1 0xA PUSH0 DUP5 PUSH20 0xFFFFFFFFFFFFFFFFFFFFFFFFFFFFFFFFFFFFFFFF AND PUSH20 0xFFFFFFFFFFFFFFFFFFFFFFFFFFFFFFFFFFFFFFFF AND DUP2 MSTORE PUSH1 0x20 ADD SWAP1 DUP2 MSTORE PUSH1 0x20 ADD PUSH0 KECCAK256 PUSH1 0x1 ADD SLOAD SWAP1 DUP2 ISZERO MUL SWAP1 PUSH1 0x40 MLOAD PUSH0 PUSH1 0x40 MLOAD DUP1 DUP4 SUB DUP2 DUP6 DUP9 DUP9 CALL SWAP4 POP POP POP POP ISZERO DUP1 ISZERO PUSH2 0x4B2 JUMPI RETURNDATASIZE PUSH0 DUP1 RETURNDATACOPY RETURNDATASIZE PUSH0 REVERT JUMPDEST POP DUP1 PUSH20 0xFFFFFFFFFFFFFFFFFFFFFFFFFFFFFFFFFFFFFFFF AND PUSH32 0xA171B6942063C6F2800CE40A780EDCE37BAA2B618571B11EEDD1E69E626E7D76 PUSH1 0xA PUSH0 DUP5 PUSH20 0xFFFFFFFFFFFFFFFFFFFFFFFFFFFFFFFFFFFFFFFF AND PUSH20 0xFFFFFFFFFFFFFFFFFFFFFFFFFFFFFFFFFFFFFFFF AND DUP2 MSTORE PUSH1 0x20 ADD SWAP1 DUP2 MSTORE PUSH1 0x20 ADD PUSH0 KECCAK256 PUSH1 0x1 ADD SLOAD PUSH1 0x40 MLOAD PUSH2 0x539 SWAP2 SWAP1 PUSH2 0x11D4 JUMP JUMPDEST PUSH1 0x40 MLOAD DUP1 SWAP2 SUB SWAP1 LOG2 POP JUMP JUMPDEST CALLER PUSH20 0xFFFFFFFFFFFFFFFFFFFFFFFFFFFFFFFFFFFFFFFF AND PUSH0 DUP1 SLOAD SWAP1 PUSH2 0x100 EXP SWAP1 DIV PUSH20 0xFFFFFFFFFFFFFFFFFFFFFFFFFFFFFFFFFFFFFFFF AND PUSH20 0xFFFFFFFFFFFFFFFFFFFFFFFFFFFFFFFFFFFFFFFF AND EQ PUSH2 0x5D1 JUMPI PUSH1 0x40 MLOAD PUSH32 0x8C379A000000000000000000000000000000000000000000000000000000000 DUP2 MSTORE PUSH1 0x4 ADD PUSH2 0x5C8 SWAP1 PUSH2 0x1237 JUMP JUMPDEST PUSH1 0x40 MLOAD DUP1 SWAP2 SUB SWAP1 REVERT JUMPDEST PUSH2 0x5D9 PUSH2 0xA0E JUMP JUMPDEST PUSH2 0x618 JUMPI PUSH1 0x40 MLOAD PUSH32 0x8C379A000000000000000000000000000000000000000000000000000000000 DUP2 MSTORE PUSH1 0x4 ADD PUSH2 0x60F SWAP1 PUSH2 0x1119 JUMP JUMPDEST PUSH1 0x40 MLOAD DUP1 SWAP2 SUB SWAP1 REVERT JUMPDEST PUSH2 0x620 PUSH2 0xA26 JUMP JUMPDEST PUSH2 0x65F JUMPI PUSH1 0x40 MLOAD PUSH32 0x8C379A000000000000000000000000000000000000000000000000000000000 DUP2 MSTORE PUSH1 0x4 ADD PUSH2 0x656 SWAP1 PUSH2 0x12C5 JUMP JUMPDEST PUSH1 0x40 MLOAD DUP1 SWAP2 SUB SWAP1 REVERT JUMPDEST PUSH0 DUP1 SLOAD SWAP1 PUSH2 0x100 EXP SWAP1 DIV PUSH20 0xFFFFFFFFFFFFFFFFFFFFFFFFFFFFFFFFFFFFFFFF AND PUSH20 0xFFFFFFFFFFFFFFFFFFFFFFFFFFFFFFFFFFFFFFFF AND PUSH2 0x8FC PUSH1 0x9 SLOAD SWAP1 DUP2 ISZERO MUL SWAP1 PUSH1 0x40 MLOAD PUSH0 PUSH1 0x40 MLOAD DUP1 DUP4 SUB DUP2 DUP6 DUP9 DUP9 CALL SWAP4 POP POP POP POP ISZERO DUP1 ISZERO PUSH2 0x6C3 JUMPI RETURNDATASIZE PUSH0 DUP1 RETURNDATACOPY RETURNDATASIZE PUSH0 REVERT JUMPDEST POP PUSH0 DUP1 SLOAD SWAP1 PUSH2 0x100 EXP SWAP1 DIV PUSH20 0xFFFFFFFFFFFFFFFFFFFFFFFFFFFFFFFFFFFFFFFF AND PUSH20 0xFFFFFFFFFFFFFFFFFFFFFFFFFFFFFFFFFFFFFFFF AND PUSH32 0x127FDBBD36EFDDEC2D23C9C5F2E6880FA889AE3D4FAE1B71C272869AB19E5AB5 PUSH1 0x9 SLOAD PUSH1 0x40 MLOAD PUSH2 0x72B SWAP2 SWAP1 PUSH2 0x11D4 JUMP JUMPDEST PUSH1 0x40 MLOAD DUP1 SWAP2 SUB SWAP1 LOG2 JUMP JUMPDEST DUP2 PUSH1 0xC PUSH0 PUSH1 0xB SLOAD DUP2 MSTORE PUSH1 0x20 ADD SWAP1 DUP2 MSTORE PUSH1 0x20 ADD PUSH0 KECCAK256 PUSH0 ADD SWAP1 DUP2 PUSH2 0x757 SWAP2 SWAP1 PUSH2 0x12ED JUMP JUMPDEST POP DUP1 PUSH1 0xC PUSH0 PUSH1 0xB SLOAD DUP2 MSTORE PUSH1 0x20 ADD SWAP1 DUP2 MSTORE PUSH1 0x20 ADD PUSH0 KECCAK256 PUSH1 0x1 ADD DUP2 SWAP1 SSTORE POP PUSH1 0x1 PUSH1 0xB PUSH0 DUP3 DUP3 SLOAD PUSH2 0x785 SWAP2 SWAP1 PUSH2 0x1034 JUMP JUMPDEST SWAP3 POP POP DUP2 SWAP1 SSTORE POP POP POP JUMP JUMPDEST PUSH1 0x8 SLOAD CALLVALUE EQ PUSH2 0x7D4 JUMPI PUSH1 0x40 MLOAD PUSH32 0x8C379A000000000000000000000000000000000000000000000000000000000 DUP2 MSTORE PUSH1 0x4 ADD PUSH2 0x7CB SWAP1 PUSH2 0xCE3 JUMP JUMPDEST PUSH1 0x40 MLOAD DUP1 SWAP2 SUB SWAP1 REVERT JUMPDEST PUSH1 0x7 PUSH1 0xA PUSH0 CALLER PUSH20 0xFFFFFFFFFFFFFFFFFFFFFFFFFFFFFFFFFFFFFFFF AND PUSH20 0xFFFFFFFFFFFFFFFFFFFFFFFFFFFFFFFFFFFFFFFF AND DUP2 MSTORE PUSH1 0x20 ADD SWAP1 DUP2 MSTORE PUSH1 0x20 ADD PUSH0 KECCAK256 PUSH0 ADD SWAP1 DUP2 PUSH2 0x821 SWAP2 SWAP1 PUSH2 0xF22 JUMP JUMPDEST POP CALLVALUE PUSH1 0xA PUSH0 CALLER PUSH20 0xFFFFFFFFFFFFFFFFFFFFFFFFFFFFFFFFFFFFFFFF AND PUSH20 0xFFFFFFFFFFFFFFFFFFFFFFFFFFFFFFFFFFFFFFFF AND DUP2 MSTORE PUSH1 0x20 ADD SWAP1 DUP2 MSTORE PUSH1 0x20 ADD PUSH0 KECCAK256 PUSH1 0x1 ADD DUP2 SWAP1 SSTORE POP CALLVALUE PUSH1 0x9 PUSH0 DUP3 DUP3 SLOAD PUSH2 0x878 SWAP2 SWAP1 PUSH2 0x1034 JUMP JUMPDEST SWAP3 POP POP DUP2 SWAP1 SSTORE POP CALLER PUSH20 0xFFFFFFFFFFFFFFFFFFFFFFFFFFFFFFFFFFFFFFFF AND PUSH32 0x1BB460CCAAF70FBACFEC17A376F8ACBD278C1405590FFCC8EBE4B88DAF4F64AD CALLVALUE PUSH1 0x40 MLOAD PUSH2 0x8C5 SWAP2 SWAP1 PUSH2 0x11D4 JUMP JUMPDEST PUSH1 0x40 MLOAD DUP1 SWAP2 SUB SWAP1 LOG2 JUMP JUMPDEST PUSH1 0x6 SLOAD CALLVALUE EQ PUSH2 0x913 JUMPI PUSH1 0x40 MLOAD PUSH32 0x8C379A000000000000000000000000000000000000000000000000000000000 DUP2 MSTORE PUSH1 0x4 ADD PUSH2 0x90A SWAP1 PUSH2 0xCE3 JUMP JUMPDEST PUSH1 0x40 MLOAD DUP1 SWAP2 SUB SWAP1 REVERT JUMPDEST PUSH1 0x5 PUSH1 0xA PUSH0 CALLER PUSH20 0xFFFFFFFFFFFFFFFFFFFFFFFFFFFFFFFFFFFFFFFF AND PUSH20 0xFFFFFFFFFFFFFFFFFFFFFFFFFFFFFFFFFFFFFFFF AND DUP2 MSTORE PUSH1 0x20 ADD SWAP1 DUP2 MSTORE PUSH1 0x20 ADD PUSH0 KECCAK256 PUSH0 ADD SWAP1 DUP2 PUSH2 0x960 SWAP2 SWAP1 PUSH2 0xF22 JUMP JUMPDEST POP CALLVALUE PUSH1 0xA PUSH0 CALLER PUSH20 0xFFFFFFFFFFFFFFFFFFFFFFFFFFFFFFFFFFFFFFFF AND PUSH20 0xFFFFFFFFFFFFFFFFFFFFFFFFFFFFFFFFFFFFFFFF AND DUP2 MSTORE PUSH1 0x20 ADD SWAP1 DUP2 MSTORE PUSH1 0x20 ADD PUSH0 KECCAK256 PUSH1 0x1 ADD DUP2 SWAP1 SSTORE POP CALLVALUE PUSH1 0x9 PUSH0 DUP3 DUP3 SLOAD PUSH2 0x9B7 SWAP2 SWAP1 PUSH2 0x1034 JUMP JUMPDEST SWAP3 POP POP DUP2 SWAP1 SSTORE POP CALLER PUSH20 0xFFFFFFFFFFFFFFFFFFFFFFFFFFFFFFFFFFFFFFFF AND PUSH32 0x1BB460CCAAF70FBACFEC17A376F8ACBD278C1405590FFCC8EBE4B88DAF4F64AD CALLVALUE PUSH1 0x40 MLOAD PUSH2 0xA04 SWAP2 SWAP1 PUSH2 0x11D4 JUMP JUMPDEST PUSH1 0x40 MLOAD DUP1 SWAP2 SUB SWAP1 LOG2 JUMP JUMPDEST PUSH0 PUSH1 0x4 SLOAD PUSH1 0x3 SLOAD PUSH2 0xA1F SWAP2 SWAP1 PUSH2 0x1034 JUMP JUMPDEST TIMESTAMP GT SWAP1 POP SWAP1 JUMP JUMPDEST PUSH0 PUSH1 0x2 SLOAD PUSH1 0x9 SLOAD LT ISZERO SWAP1 POP SWAP1 JUMP JUMPDEST PUSH0 PUSH1 0x40 MLOAD SWAP1 POP SWAP1 JUMP JUMPDEST PUSH0 DUP1 REVERT JUMPDEST PUSH0 DUP1 REVERT JUMPDEST PUSH1 0x2 DUP2 LT PUSH2 0xA51 JUMPI PUSH0 DUP1 REVERT JUMPDEST POP JUMP JUMPDEST PUSH0 DUP2 CALLDATALOAD SWAP1 POP PUSH2 0xA62 DUP2 PUSH2 0xA45 JUMP JUMPDEST SWAP3 SWAP2 POP POP JUMP JUMPDEST PUSH0 PUSH1 0x20 DUP3 DUP5 SUB SLT ISZERO PUSH2 0xA7D JUMPI PUSH2 0xA7C PUSH2 0xA3D JUMP JUMPDEST JUMPDEST PUSH0 PUSH2 0xA8A DUP5 DUP3 DUP6 ADD PUSH2 0xA54 JUMP JUMPDEST SWAP2 POP POP SWAP3 SWAP2 POP POP JUMP JUMPDEST PUSH0 DUP1 REVERT JUMPDEST PUSH0 DUP1 REVERT JUMPDEST PUSH0 PUSH1 0x1F NOT PUSH1 0x1F DUP4 ADD AND SWAP1 POP SWAP2 SWAP1 POP JUMP JUMPDEST PUSH32 0x4E487B7100000000000000000000000000000000000000000000000000000000 PUSH0 MSTORE PUSH1 0x41 PUSH1 0x4 MSTORE PUSH1 0x24 PUSH0 REVERT JUMPDEST PUSH2 0xAE1 DUP3 PUSH2 0xA9B JUMP JUMPDEST DUP2 ADD DUP2 DUP2 LT PUSH8 0xFFFFFFFFFFFFFFFF DUP3 GT OR ISZERO PUSH2 0xB00 JUMPI PUSH2 0xAFF PUSH2 0xAAB JUMP JUMPDEST JUMPDEST DUP1 PUSH1 0x40 MSTORE POP POP POP JUMP JUMPDEST PUSH0 PUSH2 0xB12 PUSH2 0xA34 JUMP JUMPDEST SWAP1 POP PUSH2 0xB1E DUP3 DUP3 PUSH2 0xAD8 JUMP JUMPDEST SWAP2 SWAP1 POP JUMP JUMPDEST PUSH0 PUSH8 0xFFFFFFFFFFFFFFFF DUP3 GT ISZERO PUSH2 0xB3D JUMPI PUSH2 0xB3C PUSH2 0xAAB JUMP JUMPDEST JUMPDEST PUSH2 0xB46 DUP3 PUSH2 0xA9B JUMP JUMPDEST SWAP1 POP PUSH1 0x20 DUP2 ADD SWAP1 POP SWAP2 SWAP1 POP JUMP JUMPDEST DUP3 DUP2 DUP4 CALLDATACOPY PUSH0 DUP4 DUP4 ADD MSTORE POP POP POP JUMP JUMPDEST PUSH0 PUSH2 0xB73 PUSH2 0xB6E DUP5 PUSH2 0xB23 JUMP JUMPDEST PUSH2 0xB09 JUMP JUMPDEST SWAP1 POP DUP3 DUP2 MSTORE PUSH1 0x20 DUP2 ADD DUP5 DUP5 DUP5 ADD GT ISZERO PUSH2 0xB8F JUMPI PUSH2 0xB8E PUSH2 0xA97 JUMP JUMPDEST JUMPDEST PUSH2 0xB9A DUP5 DUP3 DUP6 PUSH2 0xB53 JUMP JUMPDEST POP SWAP4 SWAP3 POP POP POP JUMP JUMPDEST PUSH0 DUP3 PUSH1 0x1F DUP4 ADD SLT PUSH2 0xBB6 JUMPI PUSH2 0xBB5 PUSH2 0xA93 JUMP JUMPDEST JUMPDEST DUP2 CALLDATALOAD PUSH2 0xBC6 DUP5 DUP3 PUSH1 0x20 DUP7 ADD PUSH2 0xB61 JUMP JUMPDEST SWAP2 POP POP SWAP3 SWAP2 POP POP JUMP JUMPDEST PUSH0 DUP2 SWAP1 POP SWAP2 SWAP1 POP JUMP JUMPDEST PUSH2 0xBE1 DUP2 PUSH2 0xBCF JUMP JUMPDEST DUP2 EQ PUSH2 0xBEB JUMPI PUSH0 DUP1 REVERT JUMPDEST POP JUMP JUMPDEST PUSH0 DUP2 CALLDATALOAD SWAP1 POP PUSH2 0xBFC DUP2 PUSH2 0xBD8 JUMP JUMPDEST SWAP3 SWAP2 POP POP JUMP JUMPDEST PUSH0 DUP1 PUSH1 0x40 DUP4 DUP6 SUB SLT ISZERO PUSH2 0xC18 JUMPI PUSH2 0xC17 PUSH2 0xA3D JUMP JUMPDEST JUMPDEST PUSH0 DUP4 ADD CALLDATALOAD PUSH8 0xFFFFFFFFFFFFFFFF DUP2 GT ISZERO PUSH2 0xC35 JUMPI PUSH2 0xC34 PUSH2 0xA41 JUMP JUMPDEST JUMPDEST PUSH2 0xC41 DUP6 DUP3 DUP7 ADD PUSH2 0xBA2 JUMP JUMPDEST SWAP3 POP POP PUSH1 0x20 PUSH2 0xC52 DUP6 DUP3 DUP7 ADD PUSH2 0xBEE JUMP JUMPDEST SWAP2 POP POP SWAP3 POP SWAP3 SWAP1 POP JUMP JUMPDEST PUSH32 0x4E487B7100000000000000000000000000000000000000000000000000000000 PUSH0 MSTORE PUSH1 0x21 PUSH1 0x4 MSTORE PUSH1 0x24 PUSH0 REVERT JUMPDEST PUSH0 DUP3 DUP3 MSTORE PUSH1 0x20 DUP3 ADD SWAP1 POP SWAP3 SWAP2 POP POP JUMP JUMPDEST PUSH32 0x506C6561736520636865636B2076616C75652E00000000000000000000000000 PUSH0 DUP3 ADD MSTORE POP JUMP JUMPDEST PUSH0 PUSH2 0xCCD PUSH1 0x13 DUP4 PUSH2 0xC89 JUMP JUMPDEST SWAP2 POP PUSH2 0xCD8 DUP3 PUSH2 0xC99 JUMP JUMPDEST PUSH1 0x20 DUP3 ADD SWAP1 POP SWAP2 SWAP1 POP JUMP JUMPDEST PUSH0 PUSH1 0x20 DUP3 ADD SWAP1 POP DUP2 DUP2 SUB PUSH0 DUP4 ADD MSTORE PUSH2 0xCFA DUP2 PUSH2 0xCC1 JUMP JUMPDEST SWAP1 POP SWAP2 SWAP1 POP JUMP JUMPDEST PUSH32 0x4E487B7100000000000000000000000000000000000000000000000000000000 PUSH0 MSTORE PUSH1 0x22 PUSH1 0x4 MSTORE PUSH1 0x24 PUSH0 REVERT JUMPDEST PUSH0 PUSH1 0x2 DUP3 DIV SWAP1 POP PUSH1 0x1 DUP3 AND DUP1 PUSH2 0xD45 JUMPI PUSH1 0x7F DUP3 AND SWAP2 POP JUMPDEST PUSH1 0x20 DUP3 LT DUP2 SUB PUSH2 0xD58 JUMPI PUSH2 0xD57 PUSH2 0xD01 JUMP JUMPDEST JUMPDEST POP SWAP2 SWAP1 POP JUMP JUMPDEST PUSH0 DUP2 SLOAD SWAP1 POP PUSH2 0xD6C DUP2 PUSH2 0xD2E JUMP JUMPDEST SWAP1 POP SWAP2 SWAP1 POP JUMP JUMPDEST PUSH0 DUP2 SWAP1 POP DUP2 PUSH0 MSTORE PUSH1 0x20 PUSH0 KECCAK256 SWAP1 POP SWAP2 SWAP1 POP JUMP JUMPDEST PUSH0 DUP2 SWAP1 POP DUP2 PUSH0 MSTORE PUSH1 0x20 PUSH0 KECCAK256 SWAP1 POP SWAP2 SWAP1 POP JUMP JUMPDEST PUSH0 PUSH1 0x20 PUSH1 0x1F DUP4 ADD DIV SWAP1 POP SWAP2 SWAP1 POP JUMP JUMPDEST PUSH0 DUP3 DUP3 SHL SWAP1 POP SWAP3 SWAP2 POP POP JUMP JUMPDEST PUSH0 PUSH1 0x8 DUP4 MUL PUSH2 0xDE1 PUSH32 0xFFFFFFFFFFFFFFFFFFFFFFFFFFFFFFFFFFFFFFFFFFFFFFFFFFFFFFFFFFFFFFFF DUP3 PUSH2 0xDA6 JUMP JUMPDEST PUSH2 0xDEB DUP7 DUP4 PUSH2 0xDA6 JUMP JUMPDEST SWAP6 POP DUP1 NOT DUP5 AND SWAP4 POP DUP1 DUP7 AND DUP5 OR SWAP3 POP POP POP SWAP4 SWAP3 POP POP POP JUMP JUMPDEST PUSH0 DUP2 SWAP1 POP SWAP2 SWAP1 POP JUMP JUMPDEST PUSH0 PUSH2 0xE26 PUSH2 0xE21 PUSH2 0xE1C DUP5 PUSH2 0xBCF JUMP JUMPDEST PUSH2 0xE03 JUMP JUMPDEST PUSH2 0xBCF JUMP JUMPDEST SWAP1 POP SWAP2 SWAP1 POP JUMP JUMPDEST PUSH0 DUP2 SWAP1 POP SWAP2 SWAP1 POP JUMP JUMPDEST PUSH2 0xE3F DUP4 PUSH2 0xE0C JUMP JUMPDEST PUSH2 0xE53 PUSH2 0xE4B DUP3 PUSH2 0xE2D JUMP JUMPDEST DUP5 DUP5 SLOAD PUSH2 0xDB2 JUMP JUMPDEST DUP3 SSTORE POP POP POP POP JUMP JUMPDEST PUSH0 SWAP1 JUMP JUMPDEST PUSH2 0xE67 PUSH2 0xE5B JUMP JUMPDEST PUSH2 0xE72 DUP2 DUP5 DUP5 PUSH2 0xE36 JUMP JUMPDEST POP POP POP JUMP JUMPDEST JUMPDEST DUP2 DUP2 LT ISZERO PUSH2 0xE95 JUMPI PUSH2 0xE8A PUSH0 DUP3 PUSH2 0xE5F JUMP JUMPDEST PUSH1 0x1 DUP2 ADD SWAP1 POP PUSH2 0xE78 JUMP JUMPDEST POP POP JUMP JUMPDEST PUSH1 0x1F DUP3 GT ISZERO PUSH2 0xEDA JUMPI PUSH2 0xEAB DUP2 PUSH2 0xD73 JUMP JUMPDEST PUSH2 0xEB4 DUP5 PUSH2 0xD97 JUMP JUMPDEST DUP2 ADD PUSH1 0x20 DUP6 LT ISZERO PUSH2 0xEC3 JUMPI DUP2 SWAP1 POP JUMPDEST PUSH2 0xED7 PUSH2 0xECF DUP6 PUSH2 0xD97 JUMP JUMPDEST DUP4 ADD DUP3 PUSH2 0xE77 JUMP JUMPDEST POP POP JUMPDEST POP POP POP JUMP JUMPDEST PUSH0 DUP3 DUP3 SHR SWAP1 POP SWAP3 SWAP2 POP POP JUMP JUMPDEST PUSH0 PUSH2 0xEFA PUSH0 NOT DUP5 PUSH1 0x8 MUL PUSH2 0xEDF JUMP JUMPDEST NOT DUP1 DUP4 AND SWAP2 POP POP SWAP3 SWAP2 POP POP JUMP JUMPDEST PUSH0 PUSH2 0xF12 DUP4 DUP4 PUSH2 0xEEB JUMP JUMPDEST SWAP2 POP DUP3 PUSH1 0x2 MUL DUP3 OR SWAP1 POP SWAP3 SWAP2 POP POP JUMP JUMPDEST DUP2 DUP2 SUB PUSH2 0xF30 JUMPI POP POP PUSH2 0x1005 JUMP JUMPDEST PUSH2 0xF39 DUP3 PUSH2 0xD5E JUMP JUMPDEST PUSH8 0xFFFFFFFFFFFFFFFF DUP2 GT ISZERO PUSH2 0xF52 JUMPI PUSH2 0xF51 PUSH2 0xAAB JUMP JUMPDEST JUMPDEST PUSH2 0xF5C DUP3 SLOAD PUSH2 0xD2E JUMP JUMPDEST PUSH2 0xF67 DUP3 DUP3 DUP6 PUSH2 0xE99 JUMP JUMPDEST PUSH0 PUSH1 0x1F DUP4 GT PUSH1 0x1 DUP2 EQ PUSH2 0xF94 JUMPI PUSH0 DUP5 ISZERO PUSH2 0xF82 JUMPI DUP3 DUP8 ADD SLOAD SWAP1 POP JUMPDEST PUSH2 0xF8C DUP6 DUP3 PUSH2 0xF07 JUMP JUMPDEST DUP7 SSTORE POP PUSH2 0xFFE JUMP JUMPDEST PUSH1 0x1F NOT DUP5 AND PUSH2 0xFA2 DUP8 PUSH2 0xD85 JUMP JUMPDEST SWAP7 POP PUSH2 0xFAD DUP7 PUSH2 0xD73 JUMP JUMPDEST PUSH0 JUMPDEST DUP3 DUP2 LT ISZERO PUSH2 0xFD4 JUMPI DUP5 DUP10 ADD SLOAD DUP3 SSTORE PUSH1 0x1 DUP3 ADD SWAP2 POP PUSH1 0x1 DUP6 ADD SWAP5 POP PUSH1 0x20 DUP2 ADD SWAP1 POP PUSH2 0xFAF JUMP JUMPDEST DUP7 DUP4 LT ISZERO PUSH2 0xFF1 JUMPI DUP5 DUP10 ADD SLOAD PUSH2 0xFED PUSH1 0x1F DUP10 AND DUP3 PUSH2 0xEEB JUMP JUMPDEST DUP4 SSTORE POP JUMPDEST PUSH1 0x1 PUSH1 0x2 DUP9 MUL ADD DUP9 SSTORE POP POP POP JUMPDEST POP POP POP POP POP POP JUMPDEST JUMP JUMPDEST PUSH32 0x4E487B7100000000000000000000000000000000000000000000000000000000 PUSH0 MSTORE PUSH1 0x11 PUSH1 0x4 MSTORE PUSH1 0x24 PUSH0 REVERT JUMPDEST PUSH0 PUSH2 0x103E DUP3 PUSH2 0xBCF JUMP JUMPDEST SWAP2 POP PUSH2 0x1049 DUP4 PUSH2 0xBCF JUMP JUMPDEST SWAP3 POP DUP3 DUP3 ADD SWAP1 POP DUP1 DUP3 GT ISZERO PUSH2 0x1061 JUMPI PUSH2 0x1060 PUSH2 0x1007 JUMP JUMPDEST JUMPDEST SWAP3 SWAP2 POP POP JUMP JUMPDEST PUSH32 0x536F7272792C20796F752068617665206E6F20696E766573746D656E74730000 PUSH0 DUP3 ADD MSTORE POP JUMP JUMPDEST PUSH0 PUSH2 0x109B PUSH1 0x1E DUP4 PUSH2 0xC89 JUMP JUMPDEST SWAP2 POP PUSH2 0x10A6 DUP3 PUSH2 0x1067 JUMP JUMPDEST PUSH1 0x20 DUP3 ADD SWAP1 POP SWAP2 SWAP1 POP JUMP JUMPDEST PUSH0 PUSH1 0x20 DUP3 ADD SWAP1 POP DUP2 DUP2 SUB PUSH0 DUP4 ADD MSTORE PUSH2 0x10C8 DUP2 PUSH2 0x108F JUMP JUMPDEST SWAP1 POP SWAP2 SWAP1 POP JUMP JUMPDEST PUSH32 0x5468652063616D706169676E206973207374696C6C20676F696E672E00000000 PUSH0 DUP3 ADD MSTORE POP JUMP JUMPDEST PUSH0 PUSH2 0x1103 PUSH1 0x1C DUP4 PUSH2 0xC89 JUMP JUMPDEST SWAP2 POP PUSH2 0x110E DUP3 PUSH2 0x10CF JUMP JUMPDEST PUSH1 0x20 DUP3 ADD SWAP1 POP SWAP2 SWAP1 POP JUMP JUMPDEST PUSH0 PUSH1 0x20 DUP3 ADD SWAP1 POP DUP2 DUP2 SUB PUSH0 DUP4 ADD MSTORE PUSH2 0x1130 DUP2 PUSH2 0x10F7 JUMP JUMPDEST SWAP1 POP SWAP2 SWAP1 POP JUMP JUMPDEST PUSH32 0x536F7272792C207468652063616D706169676820697320737563636573736675 PUSH0 DUP3 ADD MSTORE PUSH32 0x6C2E000000000000000000000000000000000000000000000000000000000000 PUSH1 0x20 DUP3 ADD MSTORE POP JUMP JUMPDEST PUSH0 PUSH2 0x1191 PUSH1 0x22 DUP4 PUSH2 0xC89 JUMP JUMPDEST SWAP2 POP PUSH2 0x119C DUP3 PUSH2 0x1137 JUMP JUMPDEST PUSH1 0x40 DUP3 ADD SWAP1 POP SWAP2 SWAP1 POP JUMP JUMPDEST PUSH0 PUSH1 0x20 DUP3 ADD SWAP1 POP DUP2 DUP2 SUB PUSH0 DUP4 ADD MSTORE PUSH2 0x11BE DUP2 PUSH2 0x1185 JUMP JUMPDEST SWAP1 POP SWAP2 SWAP1 POP JUMP JUMPDEST PUSH2 0x11CE DUP2 PUSH2 0xBCF JUMP JUMPDEST DUP3 MSTORE POP POP JUMP JUMPDEST PUSH0 PUSH1 0x20 DUP3 ADD SWAP1 POP PUSH2 0x11E7 PUSH0 DUP4 ADD DUP5 PUSH2 0x11C5 JUMP JUMPDEST SWAP3 SWAP2 POP POP JUMP JUMPDEST PUSH32 0x596F7520617265206E6F7420746865206F776E65722E00000000000000000000 PUSH0 DUP3 ADD MSTORE POP JUMP JUMPDEST PUSH0 PUSH2 0x1221 PUSH1 0x16 DUP4 PUSH2 0xC89 JUMP JUMPDEST SWAP2 POP PUSH2 0x122C DUP3 PUSH2 0x11ED JUMP JUMPDEST PUSH1 0x20 DUP3 ADD SWAP1 POP SWAP2 SWAP1 POP JUMP JUMPDEST PUSH0 PUSH1 0x20 DUP3 ADD SWAP1 POP DUP2 DUP2 SUB PUSH0 DUP4 ADD MSTORE PUSH2 0x124E DUP2 PUSH2 0x1215 JUMP JUMPDEST SWAP1 POP SWAP2 SWAP1 POP JUMP JUMPDEST PUSH32 0x536F7272792C207468652063616D70616967682077617320756E737563636573 PUSH0 DUP3 ADD MSTORE PUSH32 0x7366756C2E000000000000000000000000000000000000000000000000000000 PUSH1 0x20 DUP3 ADD MSTORE POP JUMP JUMPDEST PUSH0 PUSH2 0x12AF PUSH1 0x25 DUP4 PUSH2 0xC89 JUMP JUMPDEST SWAP2 POP PUSH2 0x12BA DUP3 PUSH2 0x1255 JUMP JUMPDEST PUSH1 0x40 DUP3 ADD SWAP1 POP SWAP2 SWAP1 POP JUMP JUMPDEST PUSH0 PUSH1 0x20 DUP3 ADD SWAP1 POP DUP2 DUP2 SUB PUSH0 DUP4 ADD MSTORE PUSH2 0x12DC DUP2 PUSH2 0x12A3 JUMP JUMPDEST SWAP1 POP SWAP2 SWAP1 POP JUMP JUMPDEST PUSH0 DUP2 MLOAD SWAP1 POP SWAP2 SWAP1 POP JUMP JUMPDEST PUSH2 0x12F6 DUP3 PUSH2 0x12E3 JUMP JUMPDEST PUSH8 0xFFFFFFFFFFFFFFFF DUP2 GT ISZERO PUSH2 0x130F JUMPI PUSH2 0x130E PUSH2 0xAAB JUMP JUMPDEST JUMPDEST PUSH2 0x1319 DUP3 SLOAD PUSH2 0xD2E JUMP JUMPDEST PUSH2 0x1324 DUP3 DUP3 DUP6 PUSH2 0xE99 JUMP JUMPDEST PUSH0 PUSH1 0x20 SWAP1 POP PUSH1 0x1F DUP4 GT PUSH1 0x1 DUP2 EQ PUSH2 0x1355 JUMPI PUSH0 DUP5 ISZERO PUSH2 0x1343 JUMPI DUP3 DUP8 ADD MLOAD SWAP1 POP JUMPDEST PUSH2 0x134D DUP6 DUP3 PUSH2 0xF07 JUMP JUMPDEST DUP7 SSTORE POP PUSH2 0x13B4 JUMP JUMPDEST PUSH1 0x1F NOT DUP5 AND PUSH2 0x1363 DUP7 PUSH2 0xD73 JUMP JUMPDEST PUSH0 JUMPDEST DUP3 DUP2 LT ISZERO PUSH2 0x138A JUMPI DUP5 DUP10 ADD MLOAD DUP3 SSTORE PUSH1 0x1 DUP3 ADD SWAP2 POP PUSH1 0x20 DUP6 ADD SWAP5 POP PUSH1 0x20 DUP2 ADD SWAP1 POP PUSH2 0x1365 JUMP JUMPDEST DUP7 DUP4 LT ISZERO PUSH2 0x13A7 JUMPI DUP5 DUP10 ADD MLOAD PUSH2 0x13A3 PUSH1 0x1F DUP10 AND DUP3 PUSH2 0xEEB JUMP JUMPDEST DUP4 SSTORE POP JUMPDEST PUSH1 0x1 PUSH1 0x2 DUP9 MUL ADD DUP9 SSTORE POP POP POP JUMPDEST POP POP POP POP POP POP JUMP INVALID LOG2 PUSH5 0x6970667358 0x22 SLT KECCAK256 0xF DUP9 0x4C SELFBALANCE 0xE5 SWAP6 0x4B DUP15 0xEA BYTE EXTCODEHASH 0x25 DUP12 SWAP6 0xBD GASPRICE 0xDD JUMPDEST 0xF7 SGT BLOBBASEFEE 0xB1 SWAP4 DUP16 TSTORE 0x4B 0xF8 0xE2 SWAP1 0x4B 0xE3 0xAA PUSH5 0x736F6C6343 STOP ADDMOD BYTE STOP CALLER "
		},
		"gasEstimates": {
			"creation": {
				"codeDepositCost": "1021200",
				"executionCost": "infinite",
				"totalCost": "infinite"
			},
			"external": {
				"AddNewProduct(string,uint256)": "infinite",
				"FundProduct1()": "infinite",
				"FundProduct2()": "infinite",
				"FundWithIfElse(uint8)": "infinite",
				"GetFunds()": "infinite",
				"WithDraw()": "infinite"
			},
			"internal": {
				"IsGoalAchieved()": "4231",
				"IsTimeEnded()": "infinite"
			}
		},
		"methodIdentifiers": {
			"AddNewProduct(string,uint256)": "8d973564",
			"FundProduct1()": "f6c7f5fc",
			"FundProduct2()": "b2141e26",
			"FundWithIfElse(uint8)": "12a6361c",
			"GetFunds()": "7cbe3067",
			"WithDraw()": "31e3e2fe"
		}
	},
	"abi": [
		{
			"inputs": [
				{
					"internalType": "string",
					"name": "name",
					"type": "string"
				},
				{
					"internalType": "uint256",
					"name": "goal",
					"type": "uint256"
				},
				{
					"internalType": "uint256",
					"name": "fundingPeriodInDays",
					"type": "uint256"
				},
				{
					"internalType": "string",
					"name": "product1",
					"type": "string"
				},
				{
					"internalType": "uint256",
					"name": "product1Price",
					"type": "uint256"
				},
				{
					"internalType": "string",
					"name": "product2",
					"type": "string"
				},
				{
					"internalType": "uint256",
					"name": "product2Price",
					"type": "uint256"
				}
			],
			"stateMutability": "nonpayable",
			"type": "constructor"
		},
		{
			"anonymous": false,
			"inputs": [
				{
					"indexed": true,
					"internalType": "address",
					"name": "owner",
					"type": "address"
				},
				{
					"indexed": false,
					"internalType": "uint256",
					"name": "totalFunds",
					"type": "uint256"
				}
			],
			"name": "CampaignSuccessful",
			"type": "event"
		},
		{
			"anonymous": false,
			"inputs": [
				{
					"indexed": true,
					"internalType": "address",
					"name": "contributor",
					"type": "address"
				},
				{
					"indexed": false,
					"internalType": "uint256",
					"name": "amount",
					"type": "uint256"
				}
			],
			"name": "ContributionReceived",
			"type": "event"
		},
		{
			"anonymous": false,
			"inputs": [
				{
					"indexed": true,
					"internalType": "address",
					"name": "contributor",
					"type": "address"
				},
				{
					"indexed": false,
					"internalType": "uint256",
					"name": "amount",
					"type": "uint256"
				}
			],
			"name": "RefundIssued",
			"type": "event"
		},
		{
			"inputs": [
				{
					"internalType": "string",
					"name": "newProductName",
					"type": "string"
				},
				{
					"internalType": "uint256",
					"name": "newProductPrice",
					"type": "uint256"
				}
			],
			"name": "AddNewProduct",
			"outputs": [],
			"stateMutability": "nonpayable",
			"type": "function"
		},
		{
			"inputs": [],
			"name": "FundProduct1",
			"outputs": [],
			"stateMutability": "payable",
			"type": "function"
		},
		{
			"inputs": [],
			"name": "FundProduct2",
			"outputs": [],
			"stateMutability": "payable",
			"type": "function"
		},
		{
			"inputs": [
				{
					"internalType": "enum Crowdfunding.Products",
					"name": "selectedProduct",
					"type": "uint8"
				}
			],
			"name": "FundWithIfElse",
			"outputs": [],
			"stateMutability": "payable",
			"type": "function"
		},
		{
			"inputs": [],
			"name": "GetFunds",
			"outputs": [],
			"stateMutability": "nonpayable",
			"type": "function"
		},
		{
			"inputs": [],
			"name": "WithDraw",
			"outputs": [],
			"stateMutability": "nonpayable",
			"type": "function"
		}
	]
}