{
	"3 занятие/primer.sol": {
		"SendMessageToOwner": {
			"abi": [
				{
					"inputs": [],
					"name": "AddOneUnit",
					"outputs": [],
					"stateMutability": "nonpayable",
					"type": "function"
				},
				{
					"inputs": [],
					"name": "Foo",
					"outputs": [],
					"stateMutability": "view",
					"type": "function"
				},
				{
					"inputs": [],
					"name": "GetCounet",
					"outputs": [
						{
							"internalType": "uint256",
							"name": "",
							"type": "uint256"
						}
					],
					"stateMutability": "view",
					"type": "function"
				},
				{
					"inputs": [
						{
							"internalType": "uint256",
							"name": "",
							"type": "uint256"
						}
					],
					"name": "Messages",
					"outputs": [
						{
							"internalType": "string",
							"name": "",
							"type": "string"
						}
					],
					"stateMutability": "view",
					"type": "function"
				},
				{
					"inputs": [
						{
							"internalType": "string",
							"name": "message",
							"type": "string"
						}
					],
					"name": "Send",
					"outputs": [],
					"stateMutability": "nonpayable",
					"type": "function"
				}
			],
			"devdoc": {
				"kind": "dev",
				"methods": {},
				"version": 1
			},
			"evm": {
				"assembly": "    /* \"3 \\xd0\\xb7\\xd0\\xb0\\xd0\\xbd\\xd1\\x8f\\xd1\\x82\\xd0\\xb8\\xd0\\xb5/primer.sol\":883:1086  contract SendMessageToOwner is OwnersInfo, CallCounter{... */\n  mstore(0x40, 0x80)\n    /* \"3 \\xd0\\xb7\\xd0\\xb0\\xd0\\xbd\\xd1\\x8f\\xd1\\x82\\xd0\\xb8\\xd0\\xb5/primer.sol\":86:153  string private _info = \"The owner of this contract is Ivan Ivanov.\" */\n  mload(0x40)\n  dup1\n  0x60\n  add\n  0x40\n  mstore\n  dup1\n  0x2a\n  dup2\n  mstore\n  0x20\n  add\n  data_103a9e23236ce6602696ba8bd20c8d1955e8c0ac70906ac0bb58a09f555e186e\n  0x2a\n  swap2\n  codecopy\n  0x00\n  swap1\n  dup2\n  tag_1\n  swap2\n  swap1\n  tag_2\n  jump\t// in\ntag_1:\n  pop\n    /* \"3 \\xd0\\xb7\\xd0\\xb0\\xd0\\xbd\\xd1\\x8f\\xd1\\x82\\xd0\\xb8\\xd0\\xb5/primer.sol\":883:1086  contract SendMessageToOwner is OwnersInfo, CallCounter{... */\n  callvalue\n  dup1\n  iszero\n  tag_3\n  jumpi\n  0x00\n  dup1\n  revert\ntag_3:\n  pop\n  jump(tag_4)\n    /* \"#utility.yul\":7:106   */\ntag_5:\n    /* \"#utility.yul\":59:65   */\n  0x00\n    /* \"#utility.yul\":93:98   */\n  dup2\n    /* \"#utility.yul\":87:99   */\n  mload\n    /* \"#utility.yul\":77:99   */\n  swap1\n  pop\n    /* \"#utility.yul\":7:106   */\n  swap2\n  swap1\n  pop\n  jump\t// out\n    /* \"#utility.yul\":112:292   */\ntag_6:\n    /* \"#utility.yul\":160:237   */\n  0x4e487b7100000000000000000000000000000000000000000000000000000000\n    /* \"#utility.yul\":157:158   */\n  0x00\n    /* \"#utility.yul\":150:238   */\n  mstore\n    /* \"#utility.yul\":257:261   */\n  0x41\n    /* \"#utility.yul\":254:255   */\n  0x04\n    /* \"#utility.yul\":247:262   */\n  mstore\n    /* \"#utility.yul\":281:285   */\n  0x24\n    /* \"#utility.yul\":278:279   */\n  0x00\n    /* \"#utility.yul\":271:286   */\n  revert\n    /* \"#utility.yul\":298:478   */\ntag_7:\n    /* \"#utility.yul\":346:423   */\n  0x4e487b7100000000000000000000000000000000000000000000000000000000\n    /* \"#utility.yul\":343:344   */\n  0x00\n    /* \"#utility.yul\":336:424   */\n  mstore\n    /* \"#utility.yul\":443:447   */\n  0x22\n    /* \"#utility.yul\":440:441   */\n  0x04\n    /* \"#utility.yul\":433:448   */\n  mstore\n    /* \"#utility.yul\":467:471   */\n  0x24\n    /* \"#utility.yul\":464:465   */\n  0x00\n    /* \"#utility.yul\":457:472   */\n  revert\n    /* \"#utility.yul\":484:804   */\ntag_8:\n    /* \"#utility.yul\":528:534   */\n  0x00\n    /* \"#utility.yul\":565:566   */\n  0x02\n    /* \"#utility.yul\":559:563   */\n  dup3\n    /* \"#utility.yul\":555:567   */\n  div\n    /* \"#utility.yul\":545:567   */\n  swap1\n  pop\n    /* \"#utility.yul\":612:613   */\n  0x01\n    /* \"#utility.yul\":606:610   */\n  dup3\n    /* \"#utility.yul\":602:614   */\n  and\n    /* \"#utility.yul\":633:651   */\n  dup1\n    /* \"#utility.yul\":623:704   */\n  tag_30\n  jumpi\n    /* \"#utility.yul\":689:693   */\n  0x7f\n    /* \"#utility.yul\":681:687   */\n  dup3\n    /* \"#utility.yul\":677:694   */\n  and\n    /* \"#utility.yul\":667:694   */\n  swap2\n  pop\n    /* \"#utility.yul\":623:704   */\ntag_30:\n    /* \"#utility.yul\":751:753   */\n  0x20\n    /* \"#utility.yul\":743:749   */\n  dup3\n    /* \"#utility.yul\":740:754   */\n  lt\n    /* \"#utility.yul\":720:738   */\n  dup2\n    /* \"#utility.yul\":717:755   */\n  sub\n    /* \"#utility.yul\":714:798   */\n  tag_31\n  jumpi\n    /* \"#utility.yul\":770:788   */\n  tag_32\n  tag_7\n  jump\t// in\ntag_32:\n    /* \"#utility.yul\":714:798   */\ntag_31:\n    /* \"#utility.yul\":535:804   */\n  pop\n    /* \"#utility.yul\":484:804   */\n  swap2\n  swap1\n  pop\n  jump\t// out\n    /* \"#utility.yul\":810:951   */\ntag_9:\n    /* \"#utility.yul\":859:863   */\n  0x00\n    /* \"#utility.yul\":882:885   */\n  dup2\n    /* \"#utility.yul\":874:885   */\n  swap1\n  pop\n    /* \"#utility.yul\":905:908   */\n  dup2\n    /* \"#utility.yul\":902:903   */\n  0x00\n    /* \"#utility.yul\":895:909   */\n  mstore\n    /* \"#utility.yul\":939:943   */\n  0x20\n    /* \"#utility.yul\":936:937   */\n  0x00\n    /* \"#utility.yul\":926:944   */\n  keccak256\n    /* \"#utility.yul\":918:944   */\n  swap1\n  pop\n    /* \"#utility.yul\":810:951   */\n  swap2\n  swap1\n  pop\n  jump\t// out\n    /* \"#utility.yul\":957:1050   */\ntag_10:\n    /* \"#utility.yul\":994:1000   */\n  0x00\n    /* \"#utility.yul\":1041:1043   */\n  0x20\n    /* \"#utility.yul\":1036:1038   */\n  0x1f\n    /* \"#utility.yul\":1029:1034   */\n  dup4\n    /* \"#utility.yul\":1025:1039   */\n  add\n    /* \"#utility.yul\":1021:1044   */\n  div\n    /* \"#utility.yul\":1011:1044   */\n  swap1\n  pop\n    /* \"#utility.yul\":957:1050   */\n  swap2\n  swap1\n  pop\n  jump\t// out\n    /* \"#utility.yul\":1056:1163   */\ntag_11:\n    /* \"#utility.yul\":1100:1108   */\n  0x00\n    /* \"#utility.yul\":1150:1155   */\n  dup3\n    /* \"#utility.yul\":1144:1148   */\n  dup3\n    /* \"#utility.yul\":1140:1156   */\n  shl\n    /* \"#utility.yul\":1119:1156   */\n  swap1\n  pop\n    /* \"#utility.yul\":1056:1163   */\n  swap3\n  swap2\n  pop\n  pop\n  jump\t// out\n    /* \"#utility.yul\":1169:1562   */\ntag_12:\n    /* \"#utility.yul\":1238:1244   */\n  0x00\n    /* \"#utility.yul\":1288:1289   */\n  0x08\n    /* \"#utility.yul\":1276:1286   */\n  dup4\n    /* \"#utility.yul\":1272:1290   */\n  mul\n    /* \"#utility.yul\":1311:1408   */\n  tag_37\n    /* \"#utility.yul\":1341:1407   */\n  0xffffffffffffffffffffffffffffffffffffffffffffffffffffffffffffffff\n    /* \"#utility.yul\":1330:1339   */\n  dup3\n    /* \"#utility.yul\":1311:1408   */\n  tag_11\n  jump\t// in\ntag_37:\n    /* \"#utility.yul\":1429:1468   */\n  tag_38\n    /* \"#utility.yul\":1459:1467   */\n  dup7\n    /* \"#utility.yul\":1448:1457   */\n  dup4\n    /* \"#utility.yul\":1429:1468   */\n  tag_11\n  jump\t// in\ntag_38:\n    /* \"#utility.yul\":1417:1468   */\n  swap6\n  pop\n    /* \"#utility.yul\":1501:1505   */\n  dup1\n    /* \"#utility.yul\":1497:1506   */\n  not\n    /* \"#utility.yul\":1490:1495   */\n  dup5\n    /* \"#utility.yul\":1486:1507   */\n  and\n    /* \"#utility.yul\":1477:1507   */\n  swap4\n  pop\n    /* \"#utility.yul\":1550:1554   */\n  dup1\n    /* \"#utility.yul\":1540:1548   */\n  dup7\n    /* \"#utility.yul\":1536:1555   */\n  and\n    /* \"#utility.yul\":1529:1534   */\n  dup5\n    /* \"#utility.yul\":1526:1556   */\n  or\n    /* \"#utility.yul\":1516:1556   */\n  swap3\n  pop\n    /* \"#utility.yul\":1245:1562   */\n  pop\n  pop\n    /* \"#utility.yul\":1169:1562   */\n  swap4\n  swap3\n  pop\n  pop\n  pop\n  jump\t// out\n    /* \"#utility.yul\":1568:1645   */\ntag_13:\n    /* \"#utility.yul\":1605:1612   */\n  0x00\n    /* \"#utility.yul\":1634:1639   */\n  dup2\n    /* \"#utility.yul\":1623:1639   */\n  swap1\n  pop\n    /* \"#utility.yul\":1568:1645   */\n  swap2\n  swap1\n  pop\n  jump\t// out\n    /* \"#utility.yul\":1651:1711   */\ntag_14:\n    /* \"#utility.yul\":1679:1682   */\n  0x00\n    /* \"#utility.yul\":1700:1705   */\n  dup2\n    /* \"#utility.yul\":1693:1705   */\n  swap1\n  pop\n    /* \"#utility.yul\":1651:1711   */\n  swap2\n  swap1\n  pop\n  jump\t// out\n    /* \"#utility.yul\":1717:1859   */\ntag_15:\n    /* \"#utility.yul\":1767:1776   */\n  0x00\n    /* \"#utility.yul\":1800:1853   */\n  tag_42\n    /* \"#utility.yul\":1818:1852   */\n  tag_43\n    /* \"#utility.yul\":1827:1851   */\n  tag_44\n    /* \"#utility.yul\":1845:1850   */\n  dup5\n    /* \"#utility.yul\":1827:1851   */\n  tag_13\n  jump\t// in\ntag_44:\n    /* \"#utility.yul\":1818:1852   */\n  tag_14\n  jump\t// in\ntag_43:\n    /* \"#utility.yul\":1800:1853   */\n  tag_13\n  jump\t// in\ntag_42:\n    /* \"#utility.yul\":1787:1853   */\n  swap1\n  pop\n    /* \"#utility.yul\":1717:1859   */\n  swap2\n  swap1\n  pop\n  jump\t// out\n    /* \"#utility.yul\":1865:1940   */\ntag_16:\n    /* \"#utility.yul\":1908:1911   */\n  0x00\n    /* \"#utility.yul\":1929:1934   */\n  dup2\n    /* \"#utility.yul\":1922:1934   */\n  swap1\n  pop\n    /* \"#utility.yul\":1865:1940   */\n  swap2\n  swap1\n  pop\n  jump\t// out\n    /* \"#utility.yul\":1946:2215   */\ntag_17:\n    /* \"#utility.yul\":2056:2095   */\n  tag_47\n    /* \"#utility.yul\":2087:2094   */\n  dup4\n    /* \"#utility.yul\":2056:2095   */\n  tag_15\n  jump\t// in\ntag_47:\n    /* \"#utility.yul\":2117:2208   */\n  tag_48\n    /* \"#utility.yul\":2166:2207   */\n  tag_49\n    /* \"#utility.yul\":2190:2206   */\n  dup3\n    /* \"#utility.yul\":2166:2207   */\n  tag_16\n  jump\t// in\ntag_49:\n    /* \"#utility.yul\":2158:2164   */\n  dup5\n    /* \"#utility.yul\":2151:2155   */\n  dup5\n    /* \"#utility.yul\":2145:2156   */\n  sload\n    /* \"#utility.yul\":2117:2208   */\n  tag_12\n  jump\t// in\ntag_48:\n    /* \"#utility.yul\":2111:2115   */\n  dup3\n    /* \"#utility.yul\":2104:2209   */\n  sstore\n    /* \"#utility.yul\":2022:2215   */\n  pop\n    /* \"#utility.yul\":1946:2215   */\n  pop\n  pop\n  pop\n  jump\t// out\n    /* \"#utility.yul\":2221:2294   */\ntag_18:\n    /* \"#utility.yul\":2266:2269   */\n  0x00\n    /* \"#utility.yul\":2221:2294   */\n  swap1\n  jump\t// out\n    /* \"#utility.yul\":2300:2489   */\ntag_19:\n    /* \"#utility.yul\":2377:2409   */\n  tag_52\n  tag_18\n  jump\t// in\ntag_52:\n    /* \"#utility.yul\":2418:2483   */\n  tag_53\n    /* \"#utility.yul\":2476:2482   */\n  dup2\n    /* \"#utility.yul\":2468:2474   */\n  dup5\n    /* \"#utility.yul\":2462:2466   */\n  dup5\n    /* \"#utility.yul\":2418:2483   */\n  tag_17\n  jump\t// in\ntag_53:\n    /* \"#utility.yul\":2353:2489   */\n  pop\n    /* \"#utility.yul\":2300:2489   */\n  pop\n  pop\n  jump\t// out\n    /* \"#utility.yul\":2495:2681   */\ntag_20:\n    /* \"#utility.yul\":2555:2675   */\ntag_55:\n    /* \"#utility.yul\":2572:2575   */\n  dup2\n    /* \"#utility.yul\":2565:2570   */\n  dup2\n    /* \"#utility.yul\":2562:2576   */\n  lt\n    /* \"#utility.yul\":2555:2675   */\n  iszero\n  tag_57\n  jumpi\n    /* \"#utility.yul\":2626:2665   */\n  tag_58\n    /* \"#utility.yul\":2663:2664   */\n  0x00\n    /* \"#utility.yul\":2656:2661   */\n  dup3\n    /* \"#utility.yul\":2626:2665   */\n  tag_19\n  jump\t// in\ntag_58:\n    /* \"#utility.yul\":2599:2600   */\n  0x01\n    /* \"#utility.yul\":2592:2597   */\n  dup2\n    /* \"#utility.yul\":2588:2601   */\n  add\n    /* \"#utility.yul\":2579:2601   */\n  swap1\n  pop\n    /* \"#utility.yul\":2555:2675   */\n  jump(tag_55)\ntag_57:\n    /* \"#utility.yul\":2495:2681   */\n  pop\n  pop\n  jump\t// out\n    /* \"#utility.yul\":2687:3230   */\ntag_21:\n    /* \"#utility.yul\":2788:2790   */\n  0x1f\n    /* \"#utility.yul\":2783:2786   */\n  dup3\n    /* \"#utility.yul\":2780:2791   */\n  gt\n    /* \"#utility.yul\":2777:3223   */\n  iszero\n  tag_60\n  jumpi\n    /* \"#utility.yul\":2822:2860   */\n  tag_61\n    /* \"#utility.yul\":2854:2859   */\n  dup2\n    /* \"#utility.yul\":2822:2860   */\n  tag_9\n  jump\t// in\ntag_61:\n    /* \"#utility.yul\":2906:2935   */\n  tag_62\n    /* \"#utility.yul\":2924:2934   */\n  dup5\n    /* \"#utility.yul\":2906:2935   */\n  tag_10\n  jump\t// in\ntag_62:\n    /* \"#utility.yul\":2896:2904   */\n  dup2\n    /* \"#utility.yul\":2892:2936   */\n  add\n    /* \"#utility.yul\":3089:3091   */\n  0x20\n    /* \"#utility.yul\":3077:3087   */\n  dup6\n    /* \"#utility.yul\":3074:3092   */\n  lt\n    /* \"#utility.yul\":3071:3120   */\n  iszero\n  tag_63\n  jumpi\n    /* \"#utility.yul\":3110:3118   */\n  dup2\n    /* \"#utility.yul\":3095:3118   */\n  swap1\n  pop\n    /* \"#utility.yul\":3071:3120   */\ntag_63:\n    /* \"#utility.yul\":3133:3213   */\n  tag_64\n    /* \"#utility.yul\":3189:3211   */\n  tag_65\n    /* \"#utility.yul\":3207:3210   */\n  dup6\n    /* \"#utility.yul\":3189:3211   */\n  tag_10\n  jump\t// in\ntag_65:\n    /* \"#utility.yul\":3179:3187   */\n  dup4\n    /* \"#utility.yul\":3175:3212   */\n  add\n    /* \"#utility.yul\":3162:3173   */\n  dup3\n    /* \"#utility.yul\":3133:3213   */\n  tag_20\n  jump\t// in\ntag_64:\n    /* \"#utility.yul\":2792:3223   */\n  pop\n  pop\n    /* \"#utility.yul\":2777:3223   */\ntag_60:\n    /* \"#utility.yul\":2687:3230   */\n  pop\n  pop\n  pop\n  jump\t// out\n    /* \"#utility.yul\":3236:3353   */\ntag_22:\n    /* \"#utility.yul\":3290:3298   */\n  0x00\n    /* \"#utility.yul\":3340:3345   */\n  dup3\n    /* \"#utility.yul\":3334:3338   */\n  dup3\n    /* \"#utility.yul\":3330:3346   */\n  shr\n    /* \"#utility.yul\":3309:3346   */\n  swap1\n  pop\n    /* \"#utility.yul\":3236:3353   */\n  swap3\n  swap2\n  pop\n  pop\n  jump\t// out\n    /* \"#utility.yul\":3359:3528   */\ntag_23:\n    /* \"#utility.yul\":3403:3409   */\n  0x00\n    /* \"#utility.yul\":3436:3487   */\n  tag_68\n    /* \"#utility.yul\":3484:3485   */\n  0x00\n    /* \"#utility.yul\":3480:3486   */\n  not\n    /* \"#utility.yul\":3472:3477   */\n  dup5\n    /* \"#utility.yul\":3469:3470   */\n  0x08\n    /* \"#utility.yul\":3465:3478   */\n  mul\n    /* \"#utility.yul\":3436:3487   */\n  tag_22\n  jump\t// in\ntag_68:\n    /* \"#utility.yul\":3432:3488   */\n  not\n    /* \"#utility.yul\":3517:3521   */\n  dup1\n    /* \"#utility.yul\":3511:3515   */\n  dup4\n    /* \"#utility.yul\":3507:3522   */\n  and\n    /* \"#utility.yul\":3497:3522   */\n  swap2\n  pop\n    /* \"#utility.yul\":3410:3528   */\n  pop\n    /* \"#utility.yul\":3359:3528   */\n  swap3\n  swap2\n  pop\n  pop\n  jump\t// out\n    /* \"#utility.yul\":3533:3828   */\ntag_24:\n    /* \"#utility.yul\":3609:3613   */\n  0x00\n    /* \"#utility.yul\":3755:3784   */\n  tag_70\n    /* \"#utility.yul\":3780:3783   */\n  dup4\n    /* \"#utility.yul\":3774:3778   */\n  dup4\n    /* \"#utility.yul\":3755:3784   */\n  tag_23\n  jump\t// in\ntag_70:\n    /* \"#utility.yul\":3747:3784   */\n  swap2\n  pop\n    /* \"#utility.yul\":3817:3820   */\n  dup3\n    /* \"#utility.yul\":3814:3815   */\n  0x02\n    /* \"#utility.yul\":3810:3821   */\n  mul\n    /* \"#utility.yul\":3804:3808   */\n  dup3\n    /* \"#utility.yul\":3801:3822   */\n  or\n    /* \"#utility.yul\":3793:3822   */\n  swap1\n  pop\n    /* \"#utility.yul\":3533:3828   */\n  swap3\n  swap2\n  pop\n  pop\n  jump\t// out\n    /* \"#utility.yul\":3833:5228   */\ntag_2:\n    /* \"#utility.yul\":3950:3987   */\n  tag_72\n    /* \"#utility.yul\":3983:3986   */\n  dup3\n    /* \"#utility.yul\":3950:3987   */\n  tag_5\n  jump\t// in\ntag_72:\n    /* \"#utility.yul\":4052:4070   */\n  0xffffffffffffffff\n    /* \"#utility.yul\":4044:4050   */\n  dup2\n    /* \"#utility.yul\":4041:4071   */\n  gt\n    /* \"#utility.yul\":4038:4094   */\n  iszero\n  tag_73\n  jumpi\n    /* \"#utility.yul\":4074:4092   */\n  tag_74\n  tag_6\n  jump\t// in\ntag_74:\n    /* \"#utility.yul\":4038:4094   */\ntag_73:\n    /* \"#utility.yul\":4118:4156   */\n  tag_75\n    /* \"#utility.yul\":4150:4154   */\n  dup3\n    /* \"#utility.yul\":4144:4155   */\n  sload\n    /* \"#utility.yul\":4118:4156   */\n  tag_8\n  jump\t// in\ntag_75:\n    /* \"#utility.yul\":4203:4270   */\n  tag_76\n    /* \"#utility.yul\":4263:4269   */\n  dup3\n    /* \"#utility.yul\":4255:4261   */\n  dup3\n    /* \"#utility.yul\":4249:4253   */\n  dup6\n    /* \"#utility.yul\":4203:4270   */\n  tag_21\n  jump\t// in\ntag_76:\n    /* \"#utility.yul\":4297:4298   */\n  0x00\n    /* \"#utility.yul\":4321:4325   */\n  0x20\n    /* \"#utility.yul\":4308:4325   */\n  swap1\n  pop\n    /* \"#utility.yul\":4353:4355   */\n  0x1f\n    /* \"#utility.yul\":4345:4351   */\n  dup4\n    /* \"#utility.yul\":4342:4356   */\n  gt\n    /* \"#utility.yul\":4370:4371   */\n  0x01\n    /* \"#utility.yul\":4365:4983   */\n  dup2\n  eq\n  tag_78\n  jumpi\n    /* \"#utility.yul\":5027:5028   */\n  0x00\n    /* \"#utility.yul\":5044:5050   */\n  dup5\n    /* \"#utility.yul\":5041:5118   */\n  iszero\n  tag_79\n  jumpi\n    /* \"#utility.yul\":5093:5102   */\n  dup3\n    /* \"#utility.yul\":5088:5091   */\n  dup8\n    /* \"#utility.yul\":5084:5103   */\n  add\n    /* \"#utility.yul\":5078:5104   */\n  mload\n    /* \"#utility.yul\":5069:5104   */\n  swap1\n  pop\n    /* \"#utility.yul\":5041:5118   */\ntag_79:\n    /* \"#utility.yul\":5144:5211   */\n  tag_80\n    /* \"#utility.yul\":5204:5210   */\n  dup6\n    /* \"#utility.yul\":5197:5202   */\n  dup3\n    /* \"#utility.yul\":5144:5211   */\n  tag_24\n  jump\t// in\ntag_80:\n    /* \"#utility.yul\":5138:5142   */\n  dup7\n    /* \"#utility.yul\":5131:5212   */\n  sstore\n    /* \"#utility.yul\":5000:5222   */\n  pop\n    /* \"#utility.yul\":4335:5222   */\n  jump(tag_77)\n    /* \"#utility.yul\":4365:4983   */\ntag_78:\n    /* \"#utility.yul\":4417:4421   */\n  0x1f\n    /* \"#utility.yul\":4413:4422   */\n  not\n    /* \"#utility.yul\":4405:4411   */\n  dup5\n    /* \"#utility.yul\":4401:4423   */\n  and\n    /* \"#utility.yul\":4451:4488   */\n  tag_81\n    /* \"#utility.yul\":4483:4487   */\n  dup7\n    /* \"#utility.yul\":4451:4488   */\n  tag_9\n  jump\t// in\ntag_81:\n    /* \"#utility.yul\":4510:4511   */\n  0x00\n    /* \"#utility.yul\":4524:4732   */\ntag_82:\n    /* \"#utility.yul\":4538:4545   */\n  dup3\n    /* \"#utility.yul\":4535:4536   */\n  dup2\n    /* \"#utility.yul\":4532:4546   */\n  lt\n    /* \"#utility.yul\":4524:4732   */\n  iszero\n  tag_84\n  jumpi\n    /* \"#utility.yul\":4617:4626   */\n  dup5\n    /* \"#utility.yul\":4612:4615   */\n  dup10\n    /* \"#utility.yul\":4608:4627   */\n  add\n    /* \"#utility.yul\":4602:4628   */\n  mload\n    /* \"#utility.yul\":4594:4600   */\n  dup3\n    /* \"#utility.yul\":4587:4629   */\n  sstore\n    /* \"#utility.yul\":4668:4669   */\n  0x01\n    /* \"#utility.yul\":4660:4666   */\n  dup3\n    /* \"#utility.yul\":4656:4670   */\n  add\n    /* \"#utility.yul\":4646:4670   */\n  swap2\n  pop\n    /* \"#utility.yul\":4715:4717   */\n  0x20\n    /* \"#utility.yul\":4704:4713   */\n  dup6\n    /* \"#utility.yul\":4700:4718   */\n  add\n    /* \"#utility.yul\":4687:4718   */\n  swap5\n  pop\n    /* \"#utility.yul\":4561:4565   */\n  0x20\n    /* \"#utility.yul\":4558:4559   */\n  dup2\n    /* \"#utility.yul\":4554:4566   */\n  add\n    /* \"#utility.yul\":4549:4566   */\n  swap1\n  pop\n    /* \"#utility.yul\":4524:4732   */\n  jump(tag_82)\ntag_84:\n    /* \"#utility.yul\":4760:4766   */\n  dup7\n    /* \"#utility.yul\":4751:4758   */\n  dup4\n    /* \"#utility.yul\":4748:4767   */\n  lt\n    /* \"#utility.yul\":4745:4924   */\n  iszero\n  tag_85\n  jumpi\n    /* \"#utility.yul\":4818:4827   */\n  dup5\n    /* \"#utility.yul\":4813:4816   */\n  dup10\n    /* \"#utility.yul\":4809:4828   */\n  add\n    /* \"#utility.yul\":4803:4829   */\n  mload\n    /* \"#utility.yul\":4861:4909   */\n  tag_86\n    /* \"#utility.yul\":4903:4907   */\n  0x1f\n    /* \"#utility.yul\":4895:4901   */\n  dup10\n    /* \"#utility.yul\":4891:4908   */\n  and\n    /* \"#utility.yul\":4880:4889   */\n  dup3\n    /* \"#utility.yul\":4861:4909   */\n  tag_23\n  jump\t// in\ntag_86:\n    /* \"#utility.yul\":4853:4859   */\n  dup4\n    /* \"#utility.yul\":4846:4910   */\n  sstore\n    /* \"#utility.yul\":4768:4924   */\n  pop\n    /* \"#utility.yul\":4745:4924   */\ntag_85:\n    /* \"#utility.yul\":4970:4971   */\n  0x01\n    /* \"#utility.yul\":4966:4967   */\n  0x02\n    /* \"#utility.yul\":4958:4964   */\n  dup9\n    /* \"#utility.yul\":4954:4968   */\n  mul\n    /* \"#utility.yul\":4950:4972   */\n  add\n    /* \"#utility.yul\":4944:4948   */\n  dup9\n    /* \"#utility.yul\":4937:4973   */\n  sstore\n    /* \"#utility.yul\":4372:4983   */\n  pop\n  pop\n  pop\n    /* \"#utility.yul\":4335:5222   */\ntag_77:\n  pop\n    /* \"#utility.yul\":3925:5228   */\n  pop\n  pop\n  pop\n    /* \"#utility.yul\":3833:5228   */\n  pop\n  pop\n  jump\t// out\n    /* \"3 \\xd0\\xb7\\xd0\\xb0\\xd0\\xbd\\xd1\\x8f\\xd1\\x82\\xd0\\xb8\\xd0\\xb5/primer.sol\":883:1086  contract SendMessageToOwner is OwnersInfo, CallCounter{... */\ntag_4:\n  dataSize(sub_0)\n  dup1\n  dataOffset(sub_0)\n  0x00\n  codecopy\n  0x00\n  return\nstop\ndata_103a9e23236ce6602696ba8bd20c8d1955e8c0ac70906ac0bb58a09f555e186e 546865206f776e6572206f66207468697320636f6e7472616374206973204976616e204976616e6f762e\n\nsub_0: assembly {\n        /* \"3 \\xd0\\xb7\\xd0\\xb0\\xd0\\xbd\\xd1\\x8f\\xd1\\x82\\xd0\\xb8\\xd0\\xb5/primer.sol\":883:1086  contract SendMessageToOwner is OwnersInfo, CallCounter{... */\n      mstore(0x40, 0x80)\n      callvalue\n      dup1\n      iszero\n      tag_1\n      jumpi\n      0x00\n      dup1\n      revert\n    tag_1:\n      pop\n      jumpi(tag_2, lt(calldatasize, 0x04))\n      shr(0xe0, calldataload(0x00))\n      dup1\n      0x01f5c6a8\n      eq\n      tag_3\n      jumpi\n      dup1\n      0x76de4381\n      eq\n      tag_4\n      jumpi\n      dup1\n      0x85a4d02e\n      eq\n      tag_5\n      jumpi\n      dup1\n      0xa893775a\n      eq\n      tag_6\n      jumpi\n      dup1\n      0xbfb4ebcf\n      eq\n      tag_7\n      jumpi\n    tag_2:\n      0x00\n      dup1\n      revert\n        /* \"3 \\xd0\\xb7\\xd0\\xb0\\xd0\\xbd\\xd1\\x8f\\xd1\\x82\\xd0\\xb8\\xd0\\xb5/primer.sol\":975:1083  function Send(string memory message) public {... */\n    tag_3:\n      tag_8\n      0x04\n      dup1\n      calldatasize\n      sub\n      dup2\n      add\n      swap1\n      tag_9\n      swap2\n      swap1\n      tag_10\n      jump\t// in\n    tag_9:\n      tag_11\n      jump\t// in\n    tag_8:\n      stop\n        /* \"3 \\xd0\\xb7\\xd0\\xb0\\xd0\\xbd\\xd1\\x8f\\xd1\\x82\\xd0\\xb8\\xd0\\xb5/primer.sol\":392:450  function AddOneUnit() public {... */\n    tag_4:\n      tag_12\n      tag_13\n      jump\t// in\n    tag_12:\n      stop\n        /* \"3 \\xd0\\xb7\\xd0\\xb0\\xd0\\xbd\\xd1\\x8f\\xd1\\x82\\xd0\\xb8\\xd0\\xb5/primer.sol\":944:968  string[] public Messages */\n    tag_5:\n      tag_14\n      0x04\n      dup1\n      calldatasize\n      sub\n      dup2\n      add\n      swap1\n      tag_15\n      swap2\n      swap1\n      tag_16\n      jump\t// in\n    tag_15:\n      tag_17\n      jump\t// in\n    tag_14:\n      mload(0x40)\n      tag_18\n      swap2\n      swap1\n      tag_19\n      jump\t// in\n    tag_18:\n      mload(0x40)\n      dup1\n      swap2\n      sub\n      swap1\n      return\n        /* \"3 \\xd0\\xb7\\xd0\\xb0\\xd0\\xbd\\xd1\\x8f\\xd1\\x82\\xd0\\xb8\\xd0\\xb5/primer.sol\":456:537  function GetCounet() public view returns (uint){... */\n    tag_6:\n      tag_20\n      tag_21\n      jump\t// in\n    tag_20:\n      mload(0x40)\n      tag_22\n      swap2\n      swap1\n      tag_23\n      jump\t// in\n    tag_22:\n      mload(0x40)\n      dup1\n      swap2\n      sub\n      swap1\n      return\n        /* \"3 \\xd0\\xb7\\xd0\\xb0\\xd0\\xbd\\xd1\\x8f\\xd1\\x82\\xd0\\xb8\\xd0\\xb5/primer.sol\":264:330  function Foo() public view {... */\n    tag_7:\n      tag_24\n      tag_25\n      jump\t// in\n    tag_24:\n      stop\n        /* \"3 \\xd0\\xb7\\xd0\\xb0\\xd0\\xbd\\xd1\\x8f\\xd1\\x82\\xd0\\xb8\\xd0\\xb5/primer.sol\":975:1083  function Send(string memory message) public {... */\n    tag_11:\n        /* \"3 \\xd0\\xb7\\xd0\\xb0\\xd0\\xbd\\xd1\\x8f\\xd1\\x82\\xd0\\xb8\\xd0\\xb5/primer.sol\":1030:1038  Messages */\n      0x02\n        /* \"3 \\xd0\\xb7\\xd0\\xb0\\xd0\\xbd\\xd1\\x8f\\xd1\\x82\\xd0\\xb8\\xd0\\xb5/primer.sol\":1044:1051  message */\n      dup2\n        /* \"3 \\xd0\\xb7\\xd0\\xb0\\xd0\\xbd\\xd1\\x8f\\xd1\\x82\\xd0\\xb8\\xd0\\xb5/primer.sol\":1030:1052  Messages.push(message) */\n      swap1\n      dup1\n      0x01\n      dup2\n      sload\n      add\n      dup1\n      dup3\n      sstore\n      dup1\n      swap2\n      pop\n      pop\n      0x01\n      swap1\n      sub\n      swap1\n      0x00\n      mstore\n      keccak256(0x00, 0x20)\n      add\n      0x00\n      swap1\n      swap2\n      swap1\n      swap2\n      swap1\n      swap2\n      pop\n      swap1\n      dup2\n      tag_28\n      swap2\n      swap1\n      tag_29\n      jump\t// in\n    tag_28:\n      pop\n        /* \"3 \\xd0\\xb7\\xd0\\xb0\\xd0\\xbd\\xd1\\x8f\\xd1\\x82\\xd0\\xb8\\xd0\\xb5/primer.sol\":1063:1075  AddOneUnit() */\n      tag_30\n        /* \"3 \\xd0\\xb7\\xd0\\xb0\\xd0\\xbd\\xd1\\x8f\\xd1\\x82\\xd0\\xb8\\xd0\\xb5/primer.sol\":1063:1073  AddOneUnit */\n      tag_13\n        /* \"3 \\xd0\\xb7\\xd0\\xb0\\xd0\\xbd\\xd1\\x8f\\xd1\\x82\\xd0\\xb8\\xd0\\xb5/primer.sol\":1063:1075  AddOneUnit() */\n      jump\t// in\n    tag_30:\n        /* \"3 \\xd0\\xb7\\xd0\\xb0\\xd0\\xbd\\xd1\\x8f\\xd1\\x82\\xd0\\xb8\\xd0\\xb5/primer.sol\":975:1083  function Send(string memory message) public {... */\n      pop\n      jump\t// out\n        /* \"3 \\xd0\\xb7\\xd0\\xb0\\xd0\\xbd\\xd1\\x8f\\xd1\\x82\\xd0\\xb8\\xd0\\xb5/primer.sol\":392:450  function AddOneUnit() public {... */\n    tag_13:\n        /* \"3 \\xd0\\xb7\\xd0\\xb0\\xd0\\xbd\\xd1\\x8f\\xd1\\x82\\xd0\\xb8\\xd0\\xb5/primer.sol\":432:440  _counter */\n      0x01\n      0x00\n        /* \"3 \\xd0\\xb7\\xd0\\xb0\\xd0\\xbd\\xd1\\x8f\\xd1\\x82\\xd0\\xb8\\xd0\\xb5/primer.sol\":432:442  _counter++ */\n      dup2\n      sload\n      dup1\n      swap3\n      swap2\n      swap1\n      tag_32\n      swap1\n      tag_33\n      jump\t// in\n    tag_32:\n      swap2\n      swap1\n      pop\n      sstore\n      pop\n        /* \"3 \\xd0\\xb7\\xd0\\xb0\\xd0\\xbd\\xd1\\x8f\\xd1\\x82\\xd0\\xb8\\xd0\\xb5/primer.sol\":392:450  function AddOneUnit() public {... */\n      jump\t// out\n        /* \"3 \\xd0\\xb7\\xd0\\xb0\\xd0\\xbd\\xd1\\x8f\\xd1\\x82\\xd0\\xb8\\xd0\\xb5/primer.sol\":944:968  string[] public Messages */\n    tag_17:\n      0x02\n      dup2\n      dup2\n      sload\n      dup2\n      lt\n      tag_34\n      jumpi\n      0x00\n      dup1\n      revert\n    tag_34:\n      swap1\n      0x00\n      mstore\n      keccak256(0x00, 0x20)\n      add\n      0x00\n      swap2\n      pop\n      swap1\n      pop\n      dup1\n      sload\n      tag_36\n      swap1\n      tag_37\n      jump\t// in\n    tag_36:\n      dup1\n      0x1f\n      add\n      0x20\n      dup1\n      swap2\n      div\n      mul\n      0x20\n      add\n      mload(0x40)\n      swap1\n      dup2\n      add\n      0x40\n      mstore\n      dup1\n      swap3\n      swap2\n      swap1\n      dup2\n      dup2\n      mstore\n      0x20\n      add\n      dup3\n      dup1\n      sload\n      tag_38\n      swap1\n      tag_37\n      jump\t// in\n    tag_38:\n      dup1\n      iszero\n      tag_39\n      jumpi\n      dup1\n      0x1f\n      lt\n      tag_40\n      jumpi\n      0x0100\n      dup1\n      dup4\n      sload\n      div\n      mul\n      dup4\n      mstore\n      swap2\n      0x20\n      add\n      swap2\n      jump(tag_39)\n    tag_40:\n      dup3\n      add\n      swap2\n      swap1\n      0x00\n      mstore\n      keccak256(0x00, 0x20)\n      swap1\n    tag_41:\n      dup2\n      sload\n      dup2\n      mstore\n      swap1\n      0x01\n      add\n      swap1\n      0x20\n      add\n      dup1\n      dup4\n      gt\n      tag_41\n      jumpi\n      dup3\n      swap1\n      sub\n      0x1f\n      and\n      dup3\n      add\n      swap2\n    tag_39:\n      pop\n      pop\n      pop\n      pop\n      pop\n      dup2\n      jump\t// out\n        /* \"3 \\xd0\\xb7\\xd0\\xb0\\xd0\\xbd\\xd1\\x8f\\xd1\\x82\\xd0\\xb8\\xd0\\xb5/primer.sol\":456:537  function GetCounet() public view returns (uint){... */\n    tag_21:\n        /* \"3 \\xd0\\xb7\\xd0\\xb0\\xd0\\xbd\\xd1\\x8f\\xd1\\x82\\xd0\\xb8\\xd0\\xb5/primer.sol\":498:502  uint */\n      0x00\n        /* \"3 \\xd0\\xb7\\xd0\\xb0\\xd0\\xbd\\xd1\\x8f\\xd1\\x82\\xd0\\xb8\\xd0\\xb5/primer.sol\":521:529  _counter */\n      sload(0x01)\n        /* \"3 \\xd0\\xb7\\xd0\\xb0\\xd0\\xbd\\xd1\\x8f\\xd1\\x82\\xd0\\xb8\\xd0\\xb5/primer.sol\":514:529  return _counter */\n      swap1\n      pop\n        /* \"3 \\xd0\\xb7\\xd0\\xb0\\xd0\\xbd\\xd1\\x8f\\xd1\\x82\\xd0\\xb8\\xd0\\xb5/primer.sol\":456:537  function GetCounet() public view returns (uint){... */\n      swap1\n      jump\t// out\n        /* \"3 \\xd0\\xb7\\xd0\\xb0\\xd0\\xbd\\xd1\\x8f\\xd1\\x82\\xd0\\xb8\\xd0\\xb5/primer.sol\":264:330  function Foo() public view {... */\n    tag_25:\n        /* \"3 \\xd0\\xb7\\xd0\\xb0\\xd0\\xbd\\xd1\\x8f\\xd1\\x82\\xd0\\xb8\\xd0\\xb5/primer.sol\":302:322  ShowInfoAboutOwner() */\n      tag_44\n        /* \"3 \\xd0\\xb7\\xd0\\xb0\\xd0\\xbd\\xd1\\x8f\\xd1\\x82\\xd0\\xb8\\xd0\\xb5/primer.sol\":302:320  ShowInfoAboutOwner */\n      tag_45\n        /* \"3 \\xd0\\xb7\\xd0\\xb0\\xd0\\xbd\\xd1\\x8f\\xd1\\x82\\xd0\\xb8\\xd0\\xb5/primer.sol\":302:322  ShowInfoAboutOwner() */\n      jump\t// in\n    tag_44:\n      pop\n        /* \"3 \\xd0\\xb7\\xd0\\xb0\\xd0\\xbd\\xd1\\x8f\\xd1\\x82\\xd0\\xb8\\xd0\\xb5/primer.sol\":264:330  function Foo() public view {... */\n      jump\t// out\n        /* \"3 \\xd0\\xb7\\xd0\\xb0\\xd0\\xbd\\xd1\\x8f\\xd1\\x82\\xd0\\xb8\\xd0\\xb5/primer.sol\":160:258  function ShowInfoAboutOwner() internal view returns (string memory){... */\n    tag_45:\n        /* \"3 \\xd0\\xb7\\xd0\\xb0\\xd0\\xbd\\xd1\\x8f\\xd1\\x82\\xd0\\xb8\\xd0\\xb5/primer.sol\":213:226  string memory */\n      0x60\n        /* \"3 \\xd0\\xb7\\xd0\\xb0\\xd0\\xbd\\xd1\\x8f\\xd1\\x82\\xd0\\xb8\\xd0\\xb5/primer.sol\":245:250  _info */\n      0x00\n        /* \"3 \\xd0\\xb7\\xd0\\xb0\\xd0\\xbd\\xd1\\x8f\\xd1\\x82\\xd0\\xb8\\xd0\\xb5/primer.sol\":238:250  return _info */\n      dup1\n      sload\n      tag_47\n      swap1\n      tag_37\n      jump\t// in\n    tag_47:\n      dup1\n      0x1f\n      add\n      0x20\n      dup1\n      swap2\n      div\n      mul\n      0x20\n      add\n      mload(0x40)\n      swap1\n      dup2\n      add\n      0x40\n      mstore\n      dup1\n      swap3\n      swap2\n      swap1\n      dup2\n      dup2\n      mstore\n      0x20\n      add\n      dup3\n      dup1\n      sload\n      tag_48\n      swap1\n      tag_37\n      jump\t// in\n    tag_48:\n      dup1\n      iszero\n      tag_49\n      jumpi\n      dup1\n      0x1f\n      lt\n      tag_50\n      jumpi\n      0x0100\n      dup1\n      dup4\n      sload\n      div\n      mul\n      dup4\n      mstore\n      swap2\n      0x20\n      add\n      swap2\n      jump(tag_49)\n    tag_50:\n      dup3\n      add\n      swap2\n      swap1\n      0x00\n      mstore\n      keccak256(0x00, 0x20)\n      swap1\n    tag_51:\n      dup2\n      sload\n      dup2\n      mstore\n      swap1\n      0x01\n      add\n      swap1\n      0x20\n      add\n      dup1\n      dup4\n      gt\n      tag_51\n      jumpi\n      dup3\n      swap1\n      sub\n      0x1f\n      and\n      dup3\n      add\n      swap2\n    tag_49:\n      pop\n      pop\n      pop\n      pop\n      pop\n      swap1\n      pop\n        /* \"3 \\xd0\\xb7\\xd0\\xb0\\xd0\\xbd\\xd1\\x8f\\xd1\\x82\\xd0\\xb8\\xd0\\xb5/primer.sol\":160:258  function ShowInfoAboutOwner() internal view returns (string memory){... */\n      swap1\n      jump\t// out\n        /* \"#utility.yul\":7:82   */\n    tag_52:\n        /* \"#utility.yul\":40:46   */\n      0x00\n        /* \"#utility.yul\":73:75   */\n      0x40\n        /* \"#utility.yul\":67:76   */\n      mload\n        /* \"#utility.yul\":57:76   */\n      swap1\n      pop\n        /* \"#utility.yul\":7:82   */\n      swap1\n      jump\t// out\n        /* \"#utility.yul\":88:205   */\n    tag_53:\n        /* \"#utility.yul\":197:198   */\n      0x00\n        /* \"#utility.yul\":194:195   */\n      dup1\n        /* \"#utility.yul\":187:199   */\n      revert\n        /* \"#utility.yul\":211:328   */\n    tag_54:\n        /* \"#utility.yul\":320:321   */\n      0x00\n        /* \"#utility.yul\":317:318   */\n      dup1\n        /* \"#utility.yul\":310:322   */\n      revert\n        /* \"#utility.yul\":334:451   */\n    tag_55:\n        /* \"#utility.yul\":443:444   */\n      0x00\n        /* \"#utility.yul\":440:441   */\n      dup1\n        /* \"#utility.yul\":433:445   */\n      revert\n        /* \"#utility.yul\":457:574   */\n    tag_56:\n        /* \"#utility.yul\":566:567   */\n      0x00\n        /* \"#utility.yul\":563:564   */\n      dup1\n        /* \"#utility.yul\":556:568   */\n      revert\n        /* \"#utility.yul\":580:682   */\n    tag_57:\n        /* \"#utility.yul\":621:627   */\n      0x00\n        /* \"#utility.yul\":672:674   */\n      0x1f\n        /* \"#utility.yul\":668:675   */\n      not\n        /* \"#utility.yul\":663:665   */\n      0x1f\n        /* \"#utility.yul\":656:661   */\n      dup4\n        /* \"#utility.yul\":652:666   */\n      add\n        /* \"#utility.yul\":648:676   */\n      and\n        /* \"#utility.yul\":638:676   */\n      swap1\n      pop\n        /* \"#utility.yul\":580:682   */\n      swap2\n      swap1\n      pop\n      jump\t// out\n        /* \"#utility.yul\":688:868   */\n    tag_58:\n        /* \"#utility.yul\":736:813   */\n      0x4e487b7100000000000000000000000000000000000000000000000000000000\n        /* \"#utility.yul\":733:734   */\n      0x00\n        /* \"#utility.yul\":726:814   */\n      mstore\n        /* \"#utility.yul\":833:837   */\n      0x41\n        /* \"#utility.yul\":830:831   */\n      0x04\n        /* \"#utility.yul\":823:838   */\n      mstore\n        /* \"#utility.yul\":857:861   */\n      0x24\n        /* \"#utility.yul\":854:855   */\n      0x00\n        /* \"#utility.yul\":847:862   */\n      revert\n        /* \"#utility.yul\":874:1155   */\n    tag_59:\n        /* \"#utility.yul\":957:984   */\n      tag_99\n        /* \"#utility.yul\":979:983   */\n      dup3\n        /* \"#utility.yul\":957:984   */\n      tag_57\n      jump\t// in\n    tag_99:\n        /* \"#utility.yul\":949:955   */\n      dup2\n        /* \"#utility.yul\":945:985   */\n      add\n        /* \"#utility.yul\":1087:1093   */\n      dup2\n        /* \"#utility.yul\":1075:1085   */\n      dup2\n        /* \"#utility.yul\":1072:1094   */\n      lt\n        /* \"#utility.yul\":1051:1069   */\n      0xffffffffffffffff\n        /* \"#utility.yul\":1039:1049   */\n      dup3\n        /* \"#utility.yul\":1036:1070   */\n      gt\n        /* \"#utility.yul\":1033:1095   */\n      or\n        /* \"#utility.yul\":1030:1118   */\n      iszero\n      tag_100\n      jumpi\n        /* \"#utility.yul\":1098:1116   */\n      tag_101\n      tag_58\n      jump\t// in\n    tag_101:\n        /* \"#utility.yul\":1030:1118   */\n    tag_100:\n        /* \"#utility.yul\":1138:1148   */\n      dup1\n        /* \"#utility.yul\":1134:1136   */\n      0x40\n        /* \"#utility.yul\":1127:1149   */\n      mstore\n        /* \"#utility.yul\":917:1155   */\n      pop\n        /* \"#utility.yul\":874:1155   */\n      pop\n      pop\n      jump\t// out\n        /* \"#utility.yul\":1161:1290   */\n    tag_60:\n        /* \"#utility.yul\":1195:1201   */\n      0x00\n        /* \"#utility.yul\":1222:1242   */\n      tag_103\n      tag_52\n      jump\t// in\n    tag_103:\n        /* \"#utility.yul\":1212:1242   */\n      swap1\n      pop\n        /* \"#utility.yul\":1251:1284   */\n      tag_104\n        /* \"#utility.yul\":1279:1283   */\n      dup3\n        /* \"#utility.yul\":1271:1277   */\n      dup3\n        /* \"#utility.yul\":1251:1284   */\n      tag_59\n      jump\t// in\n    tag_104:\n        /* \"#utility.yul\":1161:1290   */\n      swap2\n      swap1\n      pop\n      jump\t// out\n        /* \"#utility.yul\":1296:1604   */\n    tag_61:\n        /* \"#utility.yul\":1358:1362   */\n      0x00\n        /* \"#utility.yul\":1448:1466   */\n      0xffffffffffffffff\n        /* \"#utility.yul\":1440:1446   */\n      dup3\n        /* \"#utility.yul\":1437:1467   */\n      gt\n        /* \"#utility.yul\":1434:1490   */\n      iszero\n      tag_106\n      jumpi\n        /* \"#utility.yul\":1470:1488   */\n      tag_107\n      tag_58\n      jump\t// in\n    tag_107:\n        /* \"#utility.yul\":1434:1490   */\n    tag_106:\n        /* \"#utility.yul\":1508:1537   */\n      tag_108\n        /* \"#utility.yul\":1530:1536   */\n      dup3\n        /* \"#utility.yul\":1508:1537   */\n      tag_57\n      jump\t// in\n    tag_108:\n        /* \"#utility.yul\":1500:1537   */\n      swap1\n      pop\n        /* \"#utility.yul\":1592:1596   */\n      0x20\n        /* \"#utility.yul\":1586:1590   */\n      dup2\n        /* \"#utility.yul\":1582:1597   */\n      add\n        /* \"#utility.yul\":1574:1597   */\n      swap1\n      pop\n        /* \"#utility.yul\":1296:1604   */\n      swap2\n      swap1\n      pop\n      jump\t// out\n        /* \"#utility.yul\":1610:1758   */\n    tag_62:\n        /* \"#utility.yul\":1708:1714   */\n      dup3\n        /* \"#utility.yul\":1703:1706   */\n      dup2\n        /* \"#utility.yul\":1698:1701   */\n      dup4\n        /* \"#utility.yul\":1685:1715   */\n      calldatacopy\n        /* \"#utility.yul\":1749:1750   */\n      0x00\n        /* \"#utility.yul\":1740:1746   */\n      dup4\n        /* \"#utility.yul\":1735:1738   */\n      dup4\n        /* \"#utility.yul\":1731:1747   */\n      add\n        /* \"#utility.yul\":1724:1751   */\n      mstore\n        /* \"#utility.yul\":1610:1758   */\n      pop\n      pop\n      pop\n      jump\t// out\n        /* \"#utility.yul\":1764:2189   */\n    tag_63:\n        /* \"#utility.yul\":1842:1847   */\n      0x00\n        /* \"#utility.yul\":1867:1933   */\n      tag_111\n        /* \"#utility.yul\":1883:1932   */\n      tag_112\n        /* \"#utility.yul\":1925:1931   */\n      dup5\n        /* \"#utility.yul\":1883:1932   */\n      tag_61\n      jump\t// in\n    tag_112:\n        /* \"#utility.yul\":1867:1933   */\n      tag_60\n      jump\t// in\n    tag_111:\n        /* \"#utility.yul\":1858:1933   */\n      swap1\n      pop\n        /* \"#utility.yul\":1956:1962   */\n      dup3\n        /* \"#utility.yul\":1949:1954   */\n      dup2\n        /* \"#utility.yul\":1942:1963   */\n      mstore\n        /* \"#utility.yul\":1994:1998   */\n      0x20\n        /* \"#utility.yul\":1987:1992   */\n      dup2\n        /* \"#utility.yul\":1983:1999   */\n      add\n        /* \"#utility.yul\":2032:2035   */\n      dup5\n        /* \"#utility.yul\":2023:2029   */\n      dup5\n        /* \"#utility.yul\":2018:2021   */\n      dup5\n        /* \"#utility.yul\":2014:2030   */\n      add\n        /* \"#utility.yul\":2011:2036   */\n      gt\n        /* \"#utility.yul\":2008:2120   */\n      iszero\n      tag_113\n      jumpi\n        /* \"#utility.yul\":2039:2118   */\n      tag_114\n      tag_56\n      jump\t// in\n    tag_114:\n        /* \"#utility.yul\":2008:2120   */\n    tag_113:\n        /* \"#utility.yul\":2129:2183   */\n      tag_115\n        /* \"#utility.yul\":2176:2182   */\n      dup5\n        /* \"#utility.yul\":2171:2174   */\n      dup3\n        /* \"#utility.yul\":2166:2169   */\n      dup6\n        /* \"#utility.yul\":2129:2183   */\n      tag_62\n      jump\t// in\n    tag_115:\n        /* \"#utility.yul\":1848:2189   */\n      pop\n        /* \"#utility.yul\":1764:2189   */\n      swap4\n      swap3\n      pop\n      pop\n      pop\n      jump\t// out\n        /* \"#utility.yul\":2209:2549   */\n    tag_64:\n        /* \"#utility.yul\":2265:2270   */\n      0x00\n        /* \"#utility.yul\":2314:2317   */\n      dup3\n        /* \"#utility.yul\":2307:2311   */\n      0x1f\n        /* \"#utility.yul\":2299:2305   */\n      dup4\n        /* \"#utility.yul\":2295:2312   */\n      add\n        /* \"#utility.yul\":2291:2318   */\n      slt\n        /* \"#utility.yul\":2281:2403   */\n      tag_117\n      jumpi\n        /* \"#utility.yul\":2322:2401   */\n      tag_118\n      tag_55\n      jump\t// in\n    tag_118:\n        /* \"#utility.yul\":2281:2403   */\n    tag_117:\n        /* \"#utility.yul\":2439:2445   */\n      dup2\n        /* \"#utility.yul\":2426:2446   */\n      calldataload\n        /* \"#utility.yul\":2464:2543   */\n      tag_119\n        /* \"#utility.yul\":2539:2542   */\n      dup5\n        /* \"#utility.yul\":2531:2537   */\n      dup3\n        /* \"#utility.yul\":2524:2528   */\n      0x20\n        /* \"#utility.yul\":2516:2522   */\n      dup7\n        /* \"#utility.yul\":2512:2529   */\n      add\n        /* \"#utility.yul\":2464:2543   */\n      tag_63\n      jump\t// in\n    tag_119:\n        /* \"#utility.yul\":2455:2543   */\n      swap2\n      pop\n        /* \"#utility.yul\":2271:2549   */\n      pop\n        /* \"#utility.yul\":2209:2549   */\n      swap3\n      swap2\n      pop\n      pop\n      jump\t// out\n        /* \"#utility.yul\":2555:3064   */\n    tag_10:\n        /* \"#utility.yul\":2624:2630   */\n      0x00\n        /* \"#utility.yul\":2673:2675   */\n      0x20\n        /* \"#utility.yul\":2661:2670   */\n      dup3\n        /* \"#utility.yul\":2652:2659   */\n      dup5\n        /* \"#utility.yul\":2648:2671   */\n      sub\n        /* \"#utility.yul\":2644:2676   */\n      slt\n        /* \"#utility.yul\":2641:2760   */\n      iszero\n      tag_121\n      jumpi\n        /* \"#utility.yul\":2679:2758   */\n      tag_122\n      tag_53\n      jump\t// in\n    tag_122:\n        /* \"#utility.yul\":2641:2760   */\n    tag_121:\n        /* \"#utility.yul\":2827:2828   */\n      0x00\n        /* \"#utility.yul\":2816:2825   */\n      dup3\n        /* \"#utility.yul\":2812:2829   */\n      add\n        /* \"#utility.yul\":2799:2830   */\n      calldataload\n        /* \"#utility.yul\":2857:2875   */\n      0xffffffffffffffff\n        /* \"#utility.yul\":2849:2855   */\n      dup2\n        /* \"#utility.yul\":2846:2876   */\n      gt\n        /* \"#utility.yul\":2843:2960   */\n      iszero\n      tag_123\n      jumpi\n        /* \"#utility.yul\":2879:2958   */\n      tag_124\n      tag_54\n      jump\t// in\n    tag_124:\n        /* \"#utility.yul\":2843:2960   */\n    tag_123:\n        /* \"#utility.yul\":2984:3047   */\n      tag_125\n        /* \"#utility.yul\":3039:3046   */\n      dup5\n        /* \"#utility.yul\":3030:3036   */\n      dup3\n        /* \"#utility.yul\":3019:3028   */\n      dup6\n        /* \"#utility.yul\":3015:3037   */\n      add\n        /* \"#utility.yul\":2984:3047   */\n      tag_64\n      jump\t// in\n    tag_125:\n        /* \"#utility.yul\":2974:3047   */\n      swap2\n      pop\n        /* \"#utility.yul\":2770:3057   */\n      pop\n        /* \"#utility.yul\":2555:3064   */\n      swap3\n      swap2\n      pop\n      pop\n      jump\t// out\n        /* \"#utility.yul\":3070:3147   */\n    tag_65:\n        /* \"#utility.yul\":3107:3114   */\n      0x00\n        /* \"#utility.yul\":3136:3141   */\n      dup2\n        /* \"#utility.yul\":3125:3141   */\n      swap1\n      pop\n        /* \"#utility.yul\":3070:3147   */\n      swap2\n      swap1\n      pop\n      jump\t// out\n        /* \"#utility.yul\":3153:3275   */\n    tag_66:\n        /* \"#utility.yul\":3226:3250   */\n      tag_128\n        /* \"#utility.yul\":3244:3249   */\n      dup2\n        /* \"#utility.yul\":3226:3250   */\n      tag_65\n      jump\t// in\n    tag_128:\n        /* \"#utility.yul\":3219:3224   */\n      dup2\n        /* \"#utility.yul\":3216:3251   */\n      eq\n        /* \"#utility.yul\":3206:3269   */\n      tag_129\n      jumpi\n        /* \"#utility.yul\":3265:3266   */\n      0x00\n        /* \"#utility.yul\":3262:3263   */\n      dup1\n        /* \"#utility.yul\":3255:3267   */\n      revert\n        /* \"#utility.yul\":3206:3269   */\n    tag_129:\n        /* \"#utility.yul\":3153:3275   */\n      pop\n      jump\t// out\n        /* \"#utility.yul\":3281:3420   */\n    tag_67:\n        /* \"#utility.yul\":3327:3332   */\n      0x00\n        /* \"#utility.yul\":3365:3371   */\n      dup2\n        /* \"#utility.yul\":3352:3372   */\n      calldataload\n        /* \"#utility.yul\":3343:3372   */\n      swap1\n      pop\n        /* \"#utility.yul\":3381:3414   */\n      tag_131\n        /* \"#utility.yul\":3408:3413   */\n      dup2\n        /* \"#utility.yul\":3381:3414   */\n      tag_66\n      jump\t// in\n    tag_131:\n        /* \"#utility.yul\":3281:3420   */\n      swap3\n      swap2\n      pop\n      pop\n      jump\t// out\n        /* \"#utility.yul\":3426:3755   */\n    tag_16:\n        /* \"#utility.yul\":3485:3491   */\n      0x00\n        /* \"#utility.yul\":3534:3536   */\n      0x20\n        /* \"#utility.yul\":3522:3531   */\n      dup3\n        /* \"#utility.yul\":3513:3520   */\n      dup5\n        /* \"#utility.yul\":3509:3532   */\n      sub\n        /* \"#utility.yul\":3505:3537   */\n      slt\n        /* \"#utility.yul\":3502:3621   */\n      iszero\n      tag_133\n      jumpi\n        /* \"#utility.yul\":3540:3619   */\n      tag_134\n      tag_53\n      jump\t// in\n    tag_134:\n        /* \"#utility.yul\":3502:3621   */\n    tag_133:\n        /* \"#utility.yul\":3660:3661   */\n      0x00\n        /* \"#utility.yul\":3685:3738   */\n      tag_135\n        /* \"#utility.yul\":3730:3737   */\n      dup5\n        /* \"#utility.yul\":3721:3727   */\n      dup3\n        /* \"#utility.yul\":3710:3719   */\n      dup6\n        /* \"#utility.yul\":3706:3728   */\n      add\n        /* \"#utility.yul\":3685:3738   */\n      tag_67\n      jump\t// in\n    tag_135:\n        /* \"#utility.yul\":3675:3738   */\n      swap2\n      pop\n        /* \"#utility.yul\":3631:3748   */\n      pop\n        /* \"#utility.yul\":3426:3755   */\n      swap3\n      swap2\n      pop\n      pop\n      jump\t// out\n        /* \"#utility.yul\":3761:3860   */\n    tag_68:\n        /* \"#utility.yul\":3813:3819   */\n      0x00\n        /* \"#utility.yul\":3847:3852   */\n      dup2\n        /* \"#utility.yul\":3841:3853   */\n      mload\n        /* \"#utility.yul\":3831:3853   */\n      swap1\n      pop\n        /* \"#utility.yul\":3761:3860   */\n      swap2\n      swap1\n      pop\n      jump\t// out\n        /* \"#utility.yul\":3866:4035   */\n    tag_69:\n        /* \"#utility.yul\":3950:3961   */\n      0x00\n        /* \"#utility.yul\":3984:3990   */\n      dup3\n        /* \"#utility.yul\":3979:3982   */\n      dup3\n        /* \"#utility.yul\":3972:3991   */\n      mstore\n        /* \"#utility.yul\":4024:4028   */\n      0x20\n        /* \"#utility.yul\":4019:4022   */\n      dup3\n        /* \"#utility.yul\":4015:4029   */\n      add\n        /* \"#utility.yul\":4000:4029   */\n      swap1\n      pop\n        /* \"#utility.yul\":3866:4035   */\n      swap3\n      swap2\n      pop\n      pop\n      jump\t// out\n        /* \"#utility.yul\":4041:4180   */\n    tag_70:\n        /* \"#utility.yul\":4130:4136   */\n      dup3\n        /* \"#utility.yul\":4125:4128   */\n      dup2\n        /* \"#utility.yul\":4120:4123   */\n      dup4\n        /* \"#utility.yul\":4114:4137   */\n      mcopy\n        /* \"#utility.yul\":4171:4172   */\n      0x00\n        /* \"#utility.yul\":4162:4168   */\n      dup4\n        /* \"#utility.yul\":4157:4160   */\n      dup4\n        /* \"#utility.yul\":4153:4169   */\n      add\n        /* \"#utility.yul\":4146:4173   */\n      mstore\n        /* \"#utility.yul\":4041:4180   */\n      pop\n      pop\n      pop\n      jump\t// out\n        /* \"#utility.yul\":4186:4563   */\n    tag_71:\n        /* \"#utility.yul\":4274:4277   */\n      0x00\n        /* \"#utility.yul\":4302:4341   */\n      tag_140\n        /* \"#utility.yul\":4335:4340   */\n      dup3\n        /* \"#utility.yul\":4302:4341   */\n      tag_68\n      jump\t// in\n    tag_140:\n        /* \"#utility.yul\":4357:4428   */\n      tag_141\n        /* \"#utility.yul\":4421:4427   */\n      dup2\n        /* \"#utility.yul\":4416:4419   */\n      dup6\n        /* \"#utility.yul\":4357:4428   */\n      tag_69\n      jump\t// in\n    tag_141:\n        /* \"#utility.yul\":4350:4428   */\n      swap4\n      pop\n        /* \"#utility.yul\":4437:4502   */\n      tag_142\n        /* \"#utility.yul\":4495:4501   */\n      dup2\n        /* \"#utility.yul\":4490:4493   */\n      dup6\n        /* \"#utility.yul\":4483:4487   */\n      0x20\n        /* \"#utility.yul\":4476:4481   */\n      dup7\n        /* \"#utility.yul\":4472:4488   */\n      add\n        /* \"#utility.yul\":4437:4502   */\n      tag_70\n      jump\t// in\n    tag_142:\n        /* \"#utility.yul\":4527:4556   */\n      tag_143\n        /* \"#utility.yul\":4549:4555   */\n      dup2\n        /* \"#utility.yul\":4527:4556   */\n      tag_57\n      jump\t// in\n    tag_143:\n        /* \"#utility.yul\":4522:4525   */\n      dup5\n        /* \"#utility.yul\":4518:4557   */\n      add\n        /* \"#utility.yul\":4511:4557   */\n      swap2\n      pop\n        /* \"#utility.yul\":4278:4563   */\n      pop\n        /* \"#utility.yul\":4186:4563   */\n      swap3\n      swap2\n      pop\n      pop\n      jump\t// out\n        /* \"#utility.yul\":4569:4882   */\n    tag_19:\n        /* \"#utility.yul\":4682:4686   */\n      0x00\n        /* \"#utility.yul\":4720:4722   */\n      0x20\n        /* \"#utility.yul\":4709:4718   */\n      dup3\n        /* \"#utility.yul\":4705:4723   */\n      add\n        /* \"#utility.yul\":4697:4723   */\n      swap1\n      pop\n        /* \"#utility.yul\":4769:4778   */\n      dup2\n        /* \"#utility.yul\":4763:4767   */\n      dup2\n        /* \"#utility.yul\":4759:4779   */\n      sub\n        /* \"#utility.yul\":4755:4756   */\n      0x00\n        /* \"#utility.yul\":4744:4753   */\n      dup4\n        /* \"#utility.yul\":4740:4757   */\n      add\n        /* \"#utility.yul\":4733:4780   */\n      mstore\n        /* \"#utility.yul\":4797:4875   */\n      tag_145\n        /* \"#utility.yul\":4870:4874   */\n      dup2\n        /* \"#utility.yul\":4861:4867   */\n      dup5\n        /* \"#utility.yul\":4797:4875   */\n      tag_71\n      jump\t// in\n    tag_145:\n        /* \"#utility.yul\":4789:4875   */\n      swap1\n      pop\n        /* \"#utility.yul\":4569:4882   */\n      swap3\n      swap2\n      pop\n      pop\n      jump\t// out\n        /* \"#utility.yul\":4888:5006   */\n    tag_72:\n        /* \"#utility.yul\":4975:4999   */\n      tag_147\n        /* \"#utility.yul\":4993:4998   */\n      dup2\n        /* \"#utility.yul\":4975:4999   */\n      tag_65\n      jump\t// in\n    tag_147:\n        /* \"#utility.yul\":4970:4973   */\n      dup3\n        /* \"#utility.yul\":4963:5000   */\n      mstore\n        /* \"#utility.yul\":4888:5006   */\n      pop\n      pop\n      jump\t// out\n        /* \"#utility.yul\":5012:5234   */\n    tag_23:\n        /* \"#utility.yul\":5105:5109   */\n      0x00\n        /* \"#utility.yul\":5143:5145   */\n      0x20\n        /* \"#utility.yul\":5132:5141   */\n      dup3\n        /* \"#utility.yul\":5128:5146   */\n      add\n        /* \"#utility.yul\":5120:5146   */\n      swap1\n      pop\n        /* \"#utility.yul\":5156:5227   */\n      tag_149\n        /* \"#utility.yul\":5224:5225   */\n      0x00\n        /* \"#utility.yul\":5213:5222   */\n      dup4\n        /* \"#utility.yul\":5209:5226   */\n      add\n        /* \"#utility.yul\":5200:5206   */\n      dup5\n        /* \"#utility.yul\":5156:5227   */\n      tag_72\n      jump\t// in\n    tag_149:\n        /* \"#utility.yul\":5012:5234   */\n      swap3\n      swap2\n      pop\n      pop\n      jump\t// out\n        /* \"#utility.yul\":5240:5420   */\n    tag_73:\n        /* \"#utility.yul\":5288:5365   */\n      0x4e487b7100000000000000000000000000000000000000000000000000000000\n        /* \"#utility.yul\":5285:5286   */\n      0x00\n        /* \"#utility.yul\":5278:5366   */\n      mstore\n        /* \"#utility.yul\":5385:5389   */\n      0x22\n        /* \"#utility.yul\":5382:5383   */\n      0x04\n        /* \"#utility.yul\":5375:5390   */\n      mstore\n        /* \"#utility.yul\":5409:5413   */\n      0x24\n        /* \"#utility.yul\":5406:5407   */\n      0x00\n        /* \"#utility.yul\":5399:5414   */\n      revert\n        /* \"#utility.yul\":5426:5746   */\n    tag_37:\n        /* \"#utility.yul\":5470:5476   */\n      0x00\n        /* \"#utility.yul\":5507:5508   */\n      0x02\n        /* \"#utility.yul\":5501:5505   */\n      dup3\n        /* \"#utility.yul\":5497:5509   */\n      div\n        /* \"#utility.yul\":5487:5509   */\n      swap1\n      pop\n        /* \"#utility.yul\":5554:5555   */\n      0x01\n        /* \"#utility.yul\":5548:5552   */\n      dup3\n        /* \"#utility.yul\":5544:5556   */\n      and\n        /* \"#utility.yul\":5575:5593   */\n      dup1\n        /* \"#utility.yul\":5565:5646   */\n      tag_152\n      jumpi\n        /* \"#utility.yul\":5631:5635   */\n      0x7f\n        /* \"#utility.yul\":5623:5629   */\n      dup3\n        /* \"#utility.yul\":5619:5636   */\n      and\n        /* \"#utility.yul\":5609:5636   */\n      swap2\n      pop\n        /* \"#utility.yul\":5565:5646   */\n    tag_152:\n        /* \"#utility.yul\":5693:5695   */\n      0x20\n        /* \"#utility.yul\":5685:5691   */\n      dup3\n        /* \"#utility.yul\":5682:5696   */\n      lt\n        /* \"#utility.yul\":5662:5680   */\n      dup2\n        /* \"#utility.yul\":5659:5697   */\n      sub\n        /* \"#utility.yul\":5656:5740   */\n      tag_153\n      jumpi\n        /* \"#utility.yul\":5712:5730   */\n      tag_154\n      tag_73\n      jump\t// in\n    tag_154:\n        /* \"#utility.yul\":5656:5740   */\n    tag_153:\n        /* \"#utility.yul\":5477:5746   */\n      pop\n        /* \"#utility.yul\":5426:5746   */\n      swap2\n      swap1\n      pop\n      jump\t// out\n        /* \"#utility.yul\":5752:5893   */\n    tag_74:\n        /* \"#utility.yul\":5801:5805   */\n      0x00\n        /* \"#utility.yul\":5824:5827   */\n      dup2\n        /* \"#utility.yul\":5816:5827   */\n      swap1\n      pop\n        /* \"#utility.yul\":5847:5850   */\n      dup2\n        /* \"#utility.yul\":5844:5845   */\n      0x00\n        /* \"#utility.yul\":5837:5851   */\n      mstore\n        /* \"#utility.yul\":5881:5885   */\n      0x20\n        /* \"#utility.yul\":5878:5879   */\n      0x00\n        /* \"#utility.yul\":5868:5886   */\n      keccak256\n        /* \"#utility.yul\":5860:5886   */\n      swap1\n      pop\n        /* \"#utility.yul\":5752:5893   */\n      swap2\n      swap1\n      pop\n      jump\t// out\n        /* \"#utility.yul\":5899:5992   */\n    tag_75:\n        /* \"#utility.yul\":5936:5942   */\n      0x00\n        /* \"#utility.yul\":5983:5985   */\n      0x20\n        /* \"#utility.yul\":5978:5980   */\n      0x1f\n        /* \"#utility.yul\":5971:5976   */\n      dup4\n        /* \"#utility.yul\":5967:5981   */\n      add\n        /* \"#utility.yul\":5963:5986   */\n      div\n        /* \"#utility.yul\":5953:5986   */\n      swap1\n      pop\n        /* \"#utility.yul\":5899:5992   */\n      swap2\n      swap1\n      pop\n      jump\t// out\n        /* \"#utility.yul\":5998:6105   */\n    tag_76:\n        /* \"#utility.yul\":6042:6050   */\n      0x00\n        /* \"#utility.yul\":6092:6097   */\n      dup3\n        /* \"#utility.yul\":6086:6090   */\n      dup3\n        /* \"#utility.yul\":6082:6098   */\n      shl\n        /* \"#utility.yul\":6061:6098   */\n      swap1\n      pop\n        /* \"#utility.yul\":5998:6105   */\n      swap3\n      swap2\n      pop\n      pop\n      jump\t// out\n        /* \"#utility.yul\":6111:6504   */\n    tag_77:\n        /* \"#utility.yul\":6180:6186   */\n      0x00\n        /* \"#utility.yul\":6230:6231   */\n      0x08\n        /* \"#utility.yul\":6218:6228   */\n      dup4\n        /* \"#utility.yul\":6214:6232   */\n      mul\n        /* \"#utility.yul\":6253:6350   */\n      tag_159\n        /* \"#utility.yul\":6283:6349   */\n      0xffffffffffffffffffffffffffffffffffffffffffffffffffffffffffffffff\n        /* \"#utility.yul\":6272:6281   */\n      dup3\n        /* \"#utility.yul\":6253:6350   */\n      tag_76\n      jump\t// in\n    tag_159:\n        /* \"#utility.yul\":6371:6410   */\n      tag_160\n        /* \"#utility.yul\":6401:6409   */\n      dup7\n        /* \"#utility.yul\":6390:6399   */\n      dup4\n        /* \"#utility.yul\":6371:6410   */\n      tag_76\n      jump\t// in\n    tag_160:\n        /* \"#utility.yul\":6359:6410   */\n      swap6\n      pop\n        /* \"#utility.yul\":6443:6447   */\n      dup1\n        /* \"#utility.yul\":6439:6448   */\n      not\n        /* \"#utility.yul\":6432:6437   */\n      dup5\n        /* \"#utility.yul\":6428:6449   */\n      and\n        /* \"#utility.yul\":6419:6449   */\n      swap4\n      pop\n        /* \"#utility.yul\":6492:6496   */\n      dup1\n        /* \"#utility.yul\":6482:6490   */\n      dup7\n        /* \"#utility.yul\":6478:6497   */\n      and\n        /* \"#utility.yul\":6471:6476   */\n      dup5\n        /* \"#utility.yul\":6468:6498   */\n      or\n        /* \"#utility.yul\":6458:6498   */\n      swap3\n      pop\n        /* \"#utility.yul\":6187:6504   */\n      pop\n      pop\n        /* \"#utility.yul\":6111:6504   */\n      swap4\n      swap3\n      pop\n      pop\n      pop\n      jump\t// out\n        /* \"#utility.yul\":6510:6570   */\n    tag_78:\n        /* \"#utility.yul\":6538:6541   */\n      0x00\n        /* \"#utility.yul\":6559:6564   */\n      dup2\n        /* \"#utility.yul\":6552:6564   */\n      swap1\n      pop\n        /* \"#utility.yul\":6510:6570   */\n      swap2\n      swap1\n      pop\n      jump\t// out\n        /* \"#utility.yul\":6576:6718   */\n    tag_79:\n        /* \"#utility.yul\":6626:6635   */\n      0x00\n        /* \"#utility.yul\":6659:6712   */\n      tag_163\n        /* \"#utility.yul\":6677:6711   */\n      tag_164\n        /* \"#utility.yul\":6686:6710   */\n      tag_165\n        /* \"#utility.yul\":6704:6709   */\n      dup5\n        /* \"#utility.yul\":6686:6710   */\n      tag_65\n      jump\t// in\n    tag_165:\n        /* \"#utility.yul\":6677:6711   */\n      tag_78\n      jump\t// in\n    tag_164:\n        /* \"#utility.yul\":6659:6712   */\n      tag_65\n      jump\t// in\n    tag_163:\n        /* \"#utility.yul\":6646:6712   */\n      swap1\n      pop\n        /* \"#utility.yul\":6576:6718   */\n      swap2\n      swap1\n      pop\n      jump\t// out\n        /* \"#utility.yul\":6724:6799   */\n    tag_80:\n        /* \"#utility.yul\":6767:6770   */\n      0x00\n        /* \"#utility.yul\":6788:6793   */\n      dup2\n        /* \"#utility.yul\":6781:6793   */\n      swap1\n      pop\n        /* \"#utility.yul\":6724:6799   */\n      swap2\n      swap1\n      pop\n      jump\t// out\n        /* \"#utility.yul\":6805:7074   */\n    tag_81:\n        /* \"#utility.yul\":6915:6954   */\n      tag_168\n        /* \"#utility.yul\":6946:6953   */\n      dup4\n        /* \"#utility.yul\":6915:6954   */\n      tag_79\n      jump\t// in\n    tag_168:\n        /* \"#utility.yul\":6976:7067   */\n      tag_169\n        /* \"#utility.yul\":7025:7066   */\n      tag_170\n        /* \"#utility.yul\":7049:7065   */\n      dup3\n        /* \"#utility.yul\":7025:7066   */\n      tag_80\n      jump\t// in\n    tag_170:\n        /* \"#utility.yul\":7017:7023   */\n      dup5\n        /* \"#utility.yul\":7010:7014   */\n      dup5\n        /* \"#utility.yul\":7004:7015   */\n      sload\n        /* \"#utility.yul\":6976:7067   */\n      tag_77\n      jump\t// in\n    tag_169:\n        /* \"#utility.yul\":6970:6974   */\n      dup3\n        /* \"#utility.yul\":6963:7068   */\n      sstore\n        /* \"#utility.yul\":6881:7074   */\n      pop\n        /* \"#utility.yul\":6805:7074   */\n      pop\n      pop\n      pop\n      jump\t// out\n        /* \"#utility.yul\":7080:7153   */\n    tag_82:\n        /* \"#utility.yul\":7125:7128   */\n      0x00\n        /* \"#utility.yul\":7080:7153   */\n      swap1\n      jump\t// out\n        /* \"#utility.yul\":7159:7348   */\n    tag_83:\n        /* \"#utility.yul\":7236:7268   */\n      tag_173\n      tag_82\n      jump\t// in\n    tag_173:\n        /* \"#utility.yul\":7277:7342   */\n      tag_174\n        /* \"#utility.yul\":7335:7341   */\n      dup2\n        /* \"#utility.yul\":7327:7333   */\n      dup5\n        /* \"#utility.yul\":7321:7325   */\n      dup5\n        /* \"#utility.yul\":7277:7342   */\n      tag_81\n      jump\t// in\n    tag_174:\n        /* \"#utility.yul\":7212:7348   */\n      pop\n        /* \"#utility.yul\":7159:7348   */\n      pop\n      pop\n      jump\t// out\n        /* \"#utility.yul\":7354:7540   */\n    tag_84:\n        /* \"#utility.yul\":7414:7534   */\n    tag_176:\n        /* \"#utility.yul\":7431:7434   */\n      dup2\n        /* \"#utility.yul\":7424:7429   */\n      dup2\n        /* \"#utility.yul\":7421:7435   */\n      lt\n        /* \"#utility.yul\":7414:7534   */\n      iszero\n      tag_178\n      jumpi\n        /* \"#utility.yul\":7485:7524   */\n      tag_179\n        /* \"#utility.yul\":7522:7523   */\n      0x00\n        /* \"#utility.yul\":7515:7520   */\n      dup3\n        /* \"#utility.yul\":7485:7524   */\n      tag_83\n      jump\t// in\n    tag_179:\n        /* \"#utility.yul\":7458:7459   */\n      0x01\n        /* \"#utility.yul\":7451:7456   */\n      dup2\n        /* \"#utility.yul\":7447:7460   */\n      add\n        /* \"#utility.yul\":7438:7460   */\n      swap1\n      pop\n        /* \"#utility.yul\":7414:7534   */\n      jump(tag_176)\n    tag_178:\n        /* \"#utility.yul\":7354:7540   */\n      pop\n      pop\n      jump\t// out\n        /* \"#utility.yul\":7546:8089   */\n    tag_85:\n        /* \"#utility.yul\":7647:7649   */\n      0x1f\n        /* \"#utility.yul\":7642:7645   */\n      dup3\n        /* \"#utility.yul\":7639:7650   */\n      gt\n        /* \"#utility.yul\":7636:8082   */\n      iszero\n      tag_181\n      jumpi\n        /* \"#utility.yul\":7681:7719   */\n      tag_182\n        /* \"#utility.yul\":7713:7718   */\n      dup2\n        /* \"#utility.yul\":7681:7719   */\n      tag_74\n      jump\t// in\n    tag_182:\n        /* \"#utility.yul\":7765:7794   */\n      tag_183\n        /* \"#utility.yul\":7783:7793   */\n      dup5\n        /* \"#utility.yul\":7765:7794   */\n      tag_75\n      jump\t// in\n    tag_183:\n        /* \"#utility.yul\":7755:7763   */\n      dup2\n        /* \"#utility.yul\":7751:7795   */\n      add\n        /* \"#utility.yul\":7948:7950   */\n      0x20\n        /* \"#utility.yul\":7936:7946   */\n      dup6\n        /* \"#utility.yul\":7933:7951   */\n      lt\n        /* \"#utility.yul\":7930:7979   */\n      iszero\n      tag_184\n      jumpi\n        /* \"#utility.yul\":7969:7977   */\n      dup2\n        /* \"#utility.yul\":7954:7977   */\n      swap1\n      pop\n        /* \"#utility.yul\":7930:7979   */\n    tag_184:\n        /* \"#utility.yul\":7992:8072   */\n      tag_185\n        /* \"#utility.yul\":8048:8070   */\n      tag_186\n        /* \"#utility.yul\":8066:8069   */\n      dup6\n        /* \"#utility.yul\":8048:8070   */\n      tag_75\n      jump\t// in\n    tag_186:\n        /* \"#utility.yul\":8038:8046   */\n      dup4\n        /* \"#utility.yul\":8034:8071   */\n      add\n        /* \"#utility.yul\":8021:8032   */\n      dup3\n        /* \"#utility.yul\":7992:8072   */\n      tag_84\n      jump\t// in\n    tag_185:\n        /* \"#utility.yul\":7651:8082   */\n      pop\n      pop\n        /* \"#utility.yul\":7636:8082   */\n    tag_181:\n        /* \"#utility.yul\":7546:8089   */\n      pop\n      pop\n      pop\n      jump\t// out\n        /* \"#utility.yul\":8095:8212   */\n    tag_86:\n        /* \"#utility.yul\":8149:8157   */\n      0x00\n        /* \"#utility.yul\":8199:8204   */\n      dup3\n        /* \"#utility.yul\":8193:8197   */\n      dup3\n        /* \"#utility.yul\":8189:8205   */\n      shr\n        /* \"#utility.yul\":8168:8205   */\n      swap1\n      pop\n        /* \"#utility.yul\":8095:8212   */\n      swap3\n      swap2\n      pop\n      pop\n      jump\t// out\n        /* \"#utility.yul\":8218:8387   */\n    tag_87:\n        /* \"#utility.yul\":8262:8268   */\n      0x00\n        /* \"#utility.yul\":8295:8346   */\n      tag_189\n        /* \"#utility.yul\":8343:8344   */\n      0x00\n        /* \"#utility.yul\":8339:8345   */\n      not\n        /* \"#utility.yul\":8331:8336   */\n      dup5\n        /* \"#utility.yul\":8328:8329   */\n      0x08\n        /* \"#utility.yul\":8324:8337   */\n      mul\n        /* \"#utility.yul\":8295:8346   */\n      tag_86\n      jump\t// in\n    tag_189:\n        /* \"#utility.yul\":8291:8347   */\n      not\n        /* \"#utility.yul\":8376:8380   */\n      dup1\n        /* \"#utility.yul\":8370:8374   */\n      dup4\n        /* \"#utility.yul\":8366:8381   */\n      and\n        /* \"#utility.yul\":8356:8381   */\n      swap2\n      pop\n        /* \"#utility.yul\":8269:8387   */\n      pop\n        /* \"#utility.yul\":8218:8387   */\n      swap3\n      swap2\n      pop\n      pop\n      jump\t// out\n        /* \"#utility.yul\":8392:8687   */\n    tag_88:\n        /* \"#utility.yul\":8468:8472   */\n      0x00\n        /* \"#utility.yul\":8614:8643   */\n      tag_191\n        /* \"#utility.yul\":8639:8642   */\n      dup4\n        /* \"#utility.yul\":8633:8637   */\n      dup4\n        /* \"#utility.yul\":8614:8643   */\n      tag_87\n      jump\t// in\n    tag_191:\n        /* \"#utility.yul\":8606:8643   */\n      swap2\n      pop\n        /* \"#utility.yul\":8676:8679   */\n      dup3\n        /* \"#utility.yul\":8673:8674   */\n      0x02\n        /* \"#utility.yul\":8669:8680   */\n      mul\n        /* \"#utility.yul\":8663:8667   */\n      dup3\n        /* \"#utility.yul\":8660:8681   */\n      or\n        /* \"#utility.yul\":8652:8681   */\n      swap1\n      pop\n        /* \"#utility.yul\":8392:8687   */\n      swap3\n      swap2\n      pop\n      pop\n      jump\t// out\n        /* \"#utility.yul\":8692:10087   */\n    tag_29:\n        /* \"#utility.yul\":8809:8846   */\n      tag_193\n        /* \"#utility.yul\":8842:8845   */\n      dup3\n        /* \"#utility.yul\":8809:8846   */\n      tag_68\n      jump\t// in\n    tag_193:\n        /* \"#utility.yul\":8911:8929   */\n      0xffffffffffffffff\n        /* \"#utility.yul\":8903:8909   */\n      dup2\n        /* \"#utility.yul\":8900:8930   */\n      gt\n        /* \"#utility.yul\":8897:8953   */\n      iszero\n      tag_194\n      jumpi\n        /* \"#utility.yul\":8933:8951   */\n      tag_195\n      tag_58\n      jump\t// in\n    tag_195:\n        /* \"#utility.yul\":8897:8953   */\n    tag_194:\n        /* \"#utility.yul\":8977:9015   */\n      tag_196\n        /* \"#utility.yul\":9009:9013   */\n      dup3\n        /* \"#utility.yul\":9003:9014   */\n      sload\n        /* \"#utility.yul\":8977:9015   */\n      tag_37\n      jump\t// in\n    tag_196:\n        /* \"#utility.yul\":9062:9129   */\n      tag_197\n        /* \"#utility.yul\":9122:9128   */\n      dup3\n        /* \"#utility.yul\":9114:9120   */\n      dup3\n        /* \"#utility.yul\":9108:9112   */\n      dup6\n        /* \"#utility.yul\":9062:9129   */\n      tag_85\n      jump\t// in\n    tag_197:\n        /* \"#utility.yul\":9156:9157   */\n      0x00\n        /* \"#utility.yul\":9180:9184   */\n      0x20\n        /* \"#utility.yul\":9167:9184   */\n      swap1\n      pop\n        /* \"#utility.yul\":9212:9214   */\n      0x1f\n        /* \"#utility.yul\":9204:9210   */\n      dup4\n        /* \"#utility.yul\":9201:9215   */\n      gt\n        /* \"#utility.yul\":9229:9230   */\n      0x01\n        /* \"#utility.yul\":9224:9842   */\n      dup2\n      eq\n      tag_199\n      jumpi\n        /* \"#utility.yul\":9886:9887   */\n      0x00\n        /* \"#utility.yul\":9903:9909   */\n      dup5\n        /* \"#utility.yul\":9900:9977   */\n      iszero\n      tag_200\n      jumpi\n        /* \"#utility.yul\":9952:9961   */\n      dup3\n        /* \"#utility.yul\":9947:9950   */\n      dup8\n        /* \"#utility.yul\":9943:9962   */\n      add\n        /* \"#utility.yul\":9937:9963   */\n      mload\n        /* \"#utility.yul\":9928:9963   */\n      swap1\n      pop\n        /* \"#utility.yul\":9900:9977   */\n    tag_200:\n        /* \"#utility.yul\":10003:10070   */\n      tag_201\n        /* \"#utility.yul\":10063:10069   */\n      dup6\n        /* \"#utility.yul\":10056:10061   */\n      dup3\n        /* \"#utility.yul\":10003:10070   */\n      tag_88\n      jump\t// in\n    tag_201:\n        /* \"#utility.yul\":9997:10001   */\n      dup7\n        /* \"#utility.yul\":9990:10071   */\n      sstore\n        /* \"#utility.yul\":9859:10081   */\n      pop\n        /* \"#utility.yul\":9194:10081   */\n      jump(tag_198)\n        /* \"#utility.yul\":9224:9842   */\n    tag_199:\n        /* \"#utility.yul\":9276:9280   */\n      0x1f\n        /* \"#utility.yul\":9272:9281   */\n      not\n        /* \"#utility.yul\":9264:9270   */\n      dup5\n        /* \"#utility.yul\":9260:9282   */\n      and\n        /* \"#utility.yul\":9310:9347   */\n      tag_202\n        /* \"#utility.yul\":9342:9346   */\n      dup7\n        /* \"#utility.yul\":9310:9347   */\n      tag_74\n      jump\t// in\n    tag_202:\n        /* \"#utility.yul\":9369:9370   */\n      0x00\n        /* \"#utility.yul\":9383:9591   */\n    tag_203:\n        /* \"#utility.yul\":9397:9404   */\n      dup3\n        /* \"#utility.yul\":9394:9395   */\n      dup2\n        /* \"#utility.yul\":9391:9405   */\n      lt\n        /* \"#utility.yul\":9383:9591   */\n      iszero\n      tag_205\n      jumpi\n        /* \"#utility.yul\":9476:9485   */\n      dup5\n        /* \"#utility.yul\":9471:9474   */\n      dup10\n        /* \"#utility.yul\":9467:9486   */\n      add\n        /* \"#utility.yul\":9461:9487   */\n      mload\n        /* \"#utility.yul\":9453:9459   */\n      dup3\n        /* \"#utility.yul\":9446:9488   */\n      sstore\n        /* \"#utility.yul\":9527:9528   */\n      0x01\n        /* \"#utility.yul\":9519:9525   */\n      dup3\n        /* \"#utility.yul\":9515:9529   */\n      add\n        /* \"#utility.yul\":9505:9529   */\n      swap2\n      pop\n        /* \"#utility.yul\":9574:9576   */\n      0x20\n        /* \"#utility.yul\":9563:9572   */\n      dup6\n        /* \"#utility.yul\":9559:9577   */\n      add\n        /* \"#utility.yul\":9546:9577   */\n      swap5\n      pop\n        /* \"#utility.yul\":9420:9424   */\n      0x20\n        /* \"#utility.yul\":9417:9418   */\n      dup2\n        /* \"#utility.yul\":9413:9425   */\n      add\n        /* \"#utility.yul\":9408:9425   */\n      swap1\n      pop\n        /* \"#utility.yul\":9383:9591   */\n      jump(tag_203)\n    tag_205:\n        /* \"#utility.yul\":9619:9625   */\n      dup7\n        /* \"#utility.yul\":9610:9617   */\n      dup4\n        /* \"#utility.yul\":9607:9626   */\n      lt\n        /* \"#utility.yul\":9604:9783   */\n      iszero\n      tag_206\n      jumpi\n        /* \"#utility.yul\":9677:9686   */\n      dup5\n        /* \"#utility.yul\":9672:9675   */\n      dup10\n        /* \"#utility.yul\":9668:9687   */\n      add\n        /* \"#utility.yul\":9662:9688   */\n      mload\n        /* \"#utility.yul\":9720:9768   */\n      tag_207\n        /* \"#utility.yul\":9762:9766   */\n      0x1f\n        /* \"#utility.yul\":9754:9760   */\n      dup10\n        /* \"#utility.yul\":9750:9767   */\n      and\n        /* \"#utility.yul\":9739:9748   */\n      dup3\n        /* \"#utility.yul\":9720:9768   */\n      tag_87\n      jump\t// in\n    tag_207:\n        /* \"#utility.yul\":9712:9718   */\n      dup4\n        /* \"#utility.yul\":9705:9769   */\n      sstore\n        /* \"#utility.yul\":9627:9783   */\n      pop\n        /* \"#utility.yul\":9604:9783   */\n    tag_206:\n        /* \"#utility.yul\":9829:9830   */\n      0x01\n        /* \"#utility.yul\":9825:9826   */\n      0x02\n        /* \"#utility.yul\":9817:9823   */\n      dup9\n        /* \"#utility.yul\":9813:9827   */\n      mul\n        /* \"#utility.yul\":9809:9831   */\n      add\n        /* \"#utility.yul\":9803:9807   */\n      dup9\n        /* \"#utility.yul\":9796:9832   */\n      sstore\n        /* \"#utility.yul\":9231:9842   */\n      pop\n      pop\n      pop\n        /* \"#utility.yul\":9194:10081   */\n    tag_198:\n      pop\n        /* \"#utility.yul\":8784:10087   */\n      pop\n      pop\n      pop\n        /* \"#utility.yul\":8692:10087   */\n      pop\n      pop\n      jump\t// out\n        /* \"#utility.yul\":10093:10273   */\n    tag_89:\n        /* \"#utility.yul\":10141:10218   */\n      0x4e487b7100000000000000000000000000000000000000000000000000000000\n        /* \"#utility.yul\":10138:10139   */\n      0x00\n        /* \"#utility.yul\":10131:10219   */\n      mstore\n        /* \"#utility.yul\":10238:10242   */\n      0x11\n        /* \"#utility.yul\":10235:10236   */\n      0x04\n        /* \"#utility.yul\":10228:10243   */\n      mstore\n        /* \"#utility.yul\":10262:10266   */\n      0x24\n        /* \"#utility.yul\":10259:10260   */\n      0x00\n        /* \"#utility.yul\":10252:10267   */\n      revert\n        /* \"#utility.yul\":10279:10512   */\n    tag_33:\n        /* \"#utility.yul\":10318:10321   */\n      0x00\n        /* \"#utility.yul\":10341:10365   */\n      tag_210\n        /* \"#utility.yul\":10359:10364   */\n      dup3\n        /* \"#utility.yul\":10341:10365   */\n      tag_65\n      jump\t// in\n    tag_210:\n        /* \"#utility.yul\":10332:10365   */\n      swap2\n      pop\n        /* \"#utility.yul\":10387:10453   */\n      0xffffffffffffffffffffffffffffffffffffffffffffffffffffffffffffffff\n        /* \"#utility.yul\":10380:10385   */\n      dup3\n        /* \"#utility.yul\":10377:10454   */\n      sub\n        /* \"#utility.yul\":10374:10477   */\n      tag_211\n      jumpi\n        /* \"#utility.yul\":10457:10475   */\n      tag_212\n      tag_89\n      jump\t// in\n    tag_212:\n        /* \"#utility.yul\":10374:10477   */\n    tag_211:\n        /* \"#utility.yul\":10504:10505   */\n      0x01\n        /* \"#utility.yul\":10497:10502   */\n      dup3\n        /* \"#utility.yul\":10493:10506   */\n      add\n        /* \"#utility.yul\":10486:10506   */\n      swap1\n      pop\n        /* \"#utility.yul\":10279:10512   */\n      swap2\n      swap1\n      pop\n      jump\t// out\n\n    auxdata: 0xa26469706673582212206ee61a7b8d007378f6a29a4bc7fa377a42c2662fd5c9413b542b318828ea190d64736f6c634300081a0033\n}\n",
				"bytecode": {
					"linkReferences": {},
					"object": "60806040526040518060600160405280602a8152602001610bd5602a91395f908161002a9190610276565b50348015610036575f80fd5b50610345565b5f81519050919050565b7f4e487b71000000000000000000000000000000000000000000000000000000005f52604160045260245ffd5b7f4e487b71000000000000000000000000000000000000000000000000000000005f52602260045260245ffd5b5f60028204905060018216806100b757607f821691505b6020821081036100ca576100c9610073565b5b50919050565b5f819050815f5260205f209050919050565b5f6020601f8301049050919050565b5f82821b905092915050565b5f6008830261012c7fffffffffffffffffffffffffffffffffffffffffffffffffffffffffffffffff826100f1565b61013686836100f1565b95508019841693508086168417925050509392505050565b5f819050919050565b5f819050919050565b5f61017a6101756101708461014e565b610157565b61014e565b9050919050565b5f819050919050565b61019383610160565b6101a761019f82610181565b8484546100fd565b825550505050565b5f90565b6101bb6101af565b6101c681848461018a565b505050565b5b818110156101e9576101de5f826101b3565b6001810190506101cc565b5050565b601f82111561022e576101ff816100d0565b610208846100e2565b81016020851015610217578190505b61022b610223856100e2565b8301826101cb565b50505b505050565b5f82821c905092915050565b5f61024e5f1984600802610233565b1980831691505092915050565b5f610266838361023f565b9150826002028217905092915050565b61027f8261003c565b67ffffffffffffffff81111561029857610297610046565b5b6102a282546100a0565b6102ad8282856101ed565b5f60209050601f8311600181146102de575f84156102cc578287015190505b6102d6858261025b565b86555061033d565b601f1984166102ec866100d0565b5f5b82811015610313578489015182556001820191506020850194506020810190506102ee565b86831015610330578489015161032c601f89168261023f565b8355505b6001600288020188555050505b505050505050565b610883806103525f395ff3fe608060405234801561000f575f80fd5b5060043610610055575f3560e01c806301f5c6a81461005957806376de43811461007557806385a4d02e1461007f578063a893775a146100af578063bfb4ebcf146100cd575b5f80fd5b610073600480360381019061006e91906103c3565b6100d7565b005b61007d610114565b005b6100996004803603810190610094919061043d565b61012d565b6040516100a691906104c8565b60405180910390f35b6100b76101d3565b6040516100c491906104f7565b60405180910390f35b6100d56101dc565b005b600281908060018154018082558091505060019003905f5260205f20015f909190919091509081610108919061070a565b50610111610114565b50565b60015f81548092919061012690610806565b9190505550565b6002818154811061013c575f80fd5b905f5260205f20015f9150905080546101549061053d565b80601f01602080910402602001604051908101604052809291908181526020018280546101809061053d565b80156101cb5780601f106101a2576101008083540402835291602001916101cb565b820191905f5260205f20905b8154815290600101906020018083116101ae57829003601f168201915b505050505081565b5f600154905090565b6101e46101e7565b50565b60605f80546101f59061053d565b80601f01602080910402602001604051908101604052809291908181526020018280546102219061053d565b801561026c5780601f106102435761010080835404028352916020019161026c565b820191905f5260205f20905b81548152906001019060200180831161024f57829003601f168201915b5050505050905090565b5f604051905090565b5f80fd5b5f80fd5b5f80fd5b5f80fd5b5f601f19601f8301169050919050565b7f4e487b71000000000000000000000000000000000000000000000000000000005f52604160045260245ffd5b6102d58261028f565b810181811067ffffffffffffffff821117156102f4576102f361029f565b5b80604052505050565b5f610306610276565b905061031282826102cc565b919050565b5f67ffffffffffffffff8211156103315761033061029f565b5b61033a8261028f565b9050602081019050919050565b828183375f83830152505050565b5f61036761036284610317565b6102fd565b9050828152602081018484840111156103835761038261028b565b5b61038e848285610347565b509392505050565b5f82601f8301126103aa576103a9610287565b5b81356103ba848260208601610355565b91505092915050565b5f602082840312156103d8576103d761027f565b5b5f82013567ffffffffffffffff8111156103f5576103f4610283565b5b61040184828501610396565b91505092915050565b5f819050919050565b61041c8161040a565b8114610426575f80fd5b50565b5f8135905061043781610413565b92915050565b5f602082840312156104525761045161027f565b5b5f61045f84828501610429565b91505092915050565b5f81519050919050565b5f82825260208201905092915050565b8281835e5f83830152505050565b5f61049a82610468565b6104a48185610472565b93506104b4818560208601610482565b6104bd8161028f565b840191505092915050565b5f6020820190508181035f8301526104e08184610490565b905092915050565b6104f18161040a565b82525050565b5f60208201905061050a5f8301846104e8565b92915050565b7f4e487b71000000000000000000000000000000000000000000000000000000005f52602260045260245ffd5b5f600282049050600182168061055457607f821691505b60208210810361056757610566610510565b5b50919050565b5f819050815f5260205f209050919050565b5f6020601f8301049050919050565b5f82821b905092915050565b5f600883026105c97fffffffffffffffffffffffffffffffffffffffffffffffffffffffffffffffff8261058e565b6105d3868361058e565b95508019841693508086168417925050509392505050565b5f819050919050565b5f61060e6106096106048461040a565b6105eb565b61040a565b9050919050565b5f819050919050565b610627836105f4565b61063b61063382610615565b84845461059a565b825550505050565b5f90565b61064f610643565b61065a81848461061e565b505050565b5b8181101561067d576106725f82610647565b600181019050610660565b5050565b601f8211156106c2576106938161056d565b61069c8461057f565b810160208510156106ab578190505b6106bf6106b78561057f565b83018261065f565b50505b505050565b5f82821c905092915050565b5f6106e25f19846008026106c7565b1980831691505092915050565b5f6106fa83836106d3565b9150826002028217905092915050565b61071382610468565b67ffffffffffffffff81111561072c5761072b61029f565b5b610736825461053d565b610741828285610681565b5f60209050601f831160018114610772575f8415610760578287015190505b61076a85826106ef565b8655506107d1565b601f1984166107808661056d565b5f5b828110156107a757848901518255600182019150602085019450602081019050610782565b868310156107c457848901516107c0601f8916826106d3565b8355505b6001600288020188555050505b505050505050565b7f4e487b71000000000000000000000000000000000000000000000000000000005f52601160045260245ffd5b5f6108108261040a565b91507fffffffffffffffffffffffffffffffffffffffffffffffffffffffffffffffff8203610842576108416107d9565b5b60018201905091905056fea26469706673582212206ee61a7b8d007378f6a29a4bc7fa377a42c2662fd5c9413b542b318828ea190d64736f6c634300081a0033546865206f776e6572206f66207468697320636f6e7472616374206973204976616e204976616e6f762e",
					"opcodes": "PUSH1 0x80 PUSH1 0x40 MSTORE PUSH1 0x40 MLOAD DUP1 PUSH1 0x60 ADD PUSH1 0x40 MSTORE DUP1 PUSH1 0x2A DUP2 MSTORE PUSH1 0x20 ADD PUSH2 0xBD5 PUSH1 0x2A SWAP2 CODECOPY PUSH0 SWAP1 DUP2 PUSH2 0x2A SWAP2 SWAP1 PUSH2 0x276 JUMP JUMPDEST POP CALLVALUE DUP1 ISZERO PUSH2 0x36 JUMPI PUSH0 DUP1 REVERT JUMPDEST POP PUSH2 0x345 JUMP JUMPDEST PUSH0 DUP2 MLOAD SWAP1 POP SWAP2 SWAP1 POP JUMP JUMPDEST PUSH32 0x4E487B7100000000000000000000000000000000000000000000000000000000 PUSH0 MSTORE PUSH1 0x41 PUSH1 0x4 MSTORE PUSH1 0x24 PUSH0 REVERT JUMPDEST PUSH32 0x4E487B7100000000000000000000000000000000000000000000000000000000 PUSH0 MSTORE PUSH1 0x22 PUSH1 0x4 MSTORE PUSH1 0x24 PUSH0 REVERT JUMPDEST PUSH0 PUSH1 0x2 DUP3 DIV SWAP1 POP PUSH1 0x1 DUP3 AND DUP1 PUSH2 0xB7 JUMPI PUSH1 0x7F DUP3 AND SWAP2 POP JUMPDEST PUSH1 0x20 DUP3 LT DUP2 SUB PUSH2 0xCA JUMPI PUSH2 0xC9 PUSH2 0x73 JUMP JUMPDEST JUMPDEST POP SWAP2 SWAP1 POP JUMP JUMPDEST PUSH0 DUP2 SWAP1 POP DUP2 PUSH0 MSTORE PUSH1 0x20 PUSH0 KECCAK256 SWAP1 POP SWAP2 SWAP1 POP JUMP JUMPDEST PUSH0 PUSH1 0x20 PUSH1 0x1F DUP4 ADD DIV SWAP1 POP SWAP2 SWAP1 POP JUMP JUMPDEST PUSH0 DUP3 DUP3 SHL SWAP1 POP SWAP3 SWAP2 POP POP JUMP JUMPDEST PUSH0 PUSH1 0x8 DUP4 MUL PUSH2 0x12C PUSH32 0xFFFFFFFFFFFFFFFFFFFFFFFFFFFFFFFFFFFFFFFFFFFFFFFFFFFFFFFFFFFFFFFF DUP3 PUSH2 0xF1 JUMP JUMPDEST PUSH2 0x136 DUP7 DUP4 PUSH2 0xF1 JUMP JUMPDEST SWAP6 POP DUP1 NOT DUP5 AND SWAP4 POP DUP1 DUP7 AND DUP5 OR SWAP3 POP POP POP SWAP4 SWAP3 POP POP POP JUMP JUMPDEST PUSH0 DUP2 SWAP1 POP SWAP2 SWAP1 POP JUMP JUMPDEST PUSH0 DUP2 SWAP1 POP SWAP2 SWAP1 POP JUMP JUMPDEST PUSH0 PUSH2 0x17A PUSH2 0x175 PUSH2 0x170 DUP5 PUSH2 0x14E JUMP JUMPDEST PUSH2 0x157 JUMP JUMPDEST PUSH2 0x14E JUMP JUMPDEST SWAP1 POP SWAP2 SWAP1 POP JUMP JUMPDEST PUSH0 DUP2 SWAP1 POP SWAP2 SWAP1 POP JUMP JUMPDEST PUSH2 0x193 DUP4 PUSH2 0x160 JUMP JUMPDEST PUSH2 0x1A7 PUSH2 0x19F DUP3 PUSH2 0x181 JUMP JUMPDEST DUP5 DUP5 SLOAD PUSH2 0xFD JUMP JUMPDEST DUP3 SSTORE POP POP POP POP JUMP JUMPDEST PUSH0 SWAP1 JUMP JUMPDEST PUSH2 0x1BB PUSH2 0x1AF JUMP JUMPDEST PUSH2 0x1C6 DUP2 DUP5 DUP5 PUSH2 0x18A JUMP JUMPDEST POP POP POP JUMP JUMPDEST JUMPDEST DUP2 DUP2 LT ISZERO PUSH2 0x1E9 JUMPI PUSH2 0x1DE PUSH0 DUP3 PUSH2 0x1B3 JUMP JUMPDEST PUSH1 0x1 DUP2 ADD SWAP1 POP PUSH2 0x1CC JUMP JUMPDEST POP POP JUMP JUMPDEST PUSH1 0x1F DUP3 GT ISZERO PUSH2 0x22E JUMPI PUSH2 0x1FF DUP2 PUSH2 0xD0 JUMP JUMPDEST PUSH2 0x208 DUP5 PUSH2 0xE2 JUMP JUMPDEST DUP2 ADD PUSH1 0x20 DUP6 LT ISZERO PUSH2 0x217 JUMPI DUP2 SWAP1 POP JUMPDEST PUSH2 0x22B PUSH2 0x223 DUP6 PUSH2 0xE2 JUMP JUMPDEST DUP4 ADD DUP3 PUSH2 0x1CB JUMP JUMPDEST POP POP JUMPDEST POP POP POP JUMP JUMPDEST PUSH0 DUP3 DUP3 SHR SWAP1 POP SWAP3 SWAP2 POP POP JUMP JUMPDEST PUSH0 PUSH2 0x24E PUSH0 NOT DUP5 PUSH1 0x8 MUL PUSH2 0x233 JUMP JUMPDEST NOT DUP1 DUP4 AND SWAP2 POP POP SWAP3 SWAP2 POP POP JUMP JUMPDEST PUSH0 PUSH2 0x266 DUP4 DUP4 PUSH2 0x23F JUMP JUMPDEST SWAP2 POP DUP3 PUSH1 0x2 MUL DUP3 OR SWAP1 POP SWAP3 SWAP2 POP POP JUMP JUMPDEST PUSH2 0x27F DUP3 PUSH2 0x3C JUMP JUMPDEST PUSH8 0xFFFFFFFFFFFFFFFF DUP2 GT ISZERO PUSH2 0x298 JUMPI PUSH2 0x297 PUSH2 0x46 JUMP JUMPDEST JUMPDEST PUSH2 0x2A2 DUP3 SLOAD PUSH2 0xA0 JUMP JUMPDEST PUSH2 0x2AD DUP3 DUP3 DUP6 PUSH2 0x1ED JUMP JUMPDEST PUSH0 PUSH1 0x20 SWAP1 POP PUSH1 0x1F DUP4 GT PUSH1 0x1 DUP2 EQ PUSH2 0x2DE JUMPI PUSH0 DUP5 ISZERO PUSH2 0x2CC JUMPI DUP3 DUP8 ADD MLOAD SWAP1 POP JUMPDEST PUSH2 0x2D6 DUP6 DUP3 PUSH2 0x25B JUMP JUMPDEST DUP7 SSTORE POP PUSH2 0x33D JUMP JUMPDEST PUSH1 0x1F NOT DUP5 AND PUSH2 0x2EC DUP7 PUSH2 0xD0 JUMP JUMPDEST PUSH0 JUMPDEST DUP3 DUP2 LT ISZERO PUSH2 0x313 JUMPI DUP5 DUP10 ADD MLOAD DUP3 SSTORE PUSH1 0x1 DUP3 ADD SWAP2 POP PUSH1 0x20 DUP6 ADD SWAP5 POP PUSH1 0x20 DUP2 ADD SWAP1 POP PUSH2 0x2EE JUMP JUMPDEST DUP7 DUP4 LT ISZERO PUSH2 0x330 JUMPI DUP5 DUP10 ADD MLOAD PUSH2 0x32C PUSH1 0x1F DUP10 AND DUP3 PUSH2 0x23F JUMP JUMPDEST DUP4 SSTORE POP JUMPDEST PUSH1 0x1 PUSH1 0x2 DUP9 MUL ADD DUP9 SSTORE POP POP POP JUMPDEST POP POP POP POP POP POP JUMP JUMPDEST PUSH2 0x883 DUP1 PUSH2 0x352 PUSH0 CODECOPY PUSH0 RETURN INVALID PUSH1 0x80 PUSH1 0x40 MSTORE CALLVALUE DUP1 ISZERO PUSH2 0xF JUMPI PUSH0 DUP1 REVERT JUMPDEST POP PUSH1 0x4 CALLDATASIZE LT PUSH2 0x55 JUMPI PUSH0 CALLDATALOAD PUSH1 0xE0 SHR DUP1 PUSH4 0x1F5C6A8 EQ PUSH2 0x59 JUMPI DUP1 PUSH4 0x76DE4381 EQ PUSH2 0x75 JUMPI DUP1 PUSH4 0x85A4D02E EQ PUSH2 0x7F JUMPI DUP1 PUSH4 0xA893775A EQ PUSH2 0xAF JUMPI DUP1 PUSH4 0xBFB4EBCF EQ PUSH2 0xCD JUMPI JUMPDEST PUSH0 DUP1 REVERT JUMPDEST PUSH2 0x73 PUSH1 0x4 DUP1 CALLDATASIZE SUB DUP2 ADD SWAP1 PUSH2 0x6E SWAP2 SWAP1 PUSH2 0x3C3 JUMP JUMPDEST PUSH2 0xD7 JUMP JUMPDEST STOP JUMPDEST PUSH2 0x7D PUSH2 0x114 JUMP JUMPDEST STOP JUMPDEST PUSH2 0x99 PUSH1 0x4 DUP1 CALLDATASIZE SUB DUP2 ADD SWAP1 PUSH2 0x94 SWAP2 SWAP1 PUSH2 0x43D JUMP JUMPDEST PUSH2 0x12D JUMP JUMPDEST PUSH1 0x40 MLOAD PUSH2 0xA6 SWAP2 SWAP1 PUSH2 0x4C8 JUMP JUMPDEST PUSH1 0x40 MLOAD DUP1 SWAP2 SUB SWAP1 RETURN JUMPDEST PUSH2 0xB7 PUSH2 0x1D3 JUMP JUMPDEST PUSH1 0x40 MLOAD PUSH2 0xC4 SWAP2 SWAP1 PUSH2 0x4F7 JUMP JUMPDEST PUSH1 0x40 MLOAD DUP1 SWAP2 SUB SWAP1 RETURN JUMPDEST PUSH2 0xD5 PUSH2 0x1DC JUMP JUMPDEST STOP JUMPDEST PUSH1 0x2 DUP2 SWAP1 DUP1 PUSH1 0x1 DUP2 SLOAD ADD DUP1 DUP3 SSTORE DUP1 SWAP2 POP POP PUSH1 0x1 SWAP1 SUB SWAP1 PUSH0 MSTORE PUSH1 0x20 PUSH0 KECCAK256 ADD PUSH0 SWAP1 SWAP2 SWAP1 SWAP2 SWAP1 SWAP2 POP SWAP1 DUP2 PUSH2 0x108 SWAP2 SWAP1 PUSH2 0x70A JUMP JUMPDEST POP PUSH2 0x111 PUSH2 0x114 JUMP JUMPDEST POP JUMP JUMPDEST PUSH1 0x1 PUSH0 DUP2 SLOAD DUP1 SWAP3 SWAP2 SWAP1 PUSH2 0x126 SWAP1 PUSH2 0x806 JUMP JUMPDEST SWAP2 SWAP1 POP SSTORE POP JUMP JUMPDEST PUSH1 0x2 DUP2 DUP2 SLOAD DUP2 LT PUSH2 0x13C JUMPI PUSH0 DUP1 REVERT JUMPDEST SWAP1 PUSH0 MSTORE PUSH1 0x20 PUSH0 KECCAK256 ADD PUSH0 SWAP2 POP SWAP1 POP DUP1 SLOAD PUSH2 0x154 SWAP1 PUSH2 0x53D JUMP JUMPDEST DUP1 PUSH1 0x1F ADD PUSH1 0x20 DUP1 SWAP2 DIV MUL PUSH1 0x20 ADD PUSH1 0x40 MLOAD SWAP1 DUP2 ADD PUSH1 0x40 MSTORE DUP1 SWAP3 SWAP2 SWAP1 DUP2 DUP2 MSTORE PUSH1 0x20 ADD DUP3 DUP1 SLOAD PUSH2 0x180 SWAP1 PUSH2 0x53D JUMP JUMPDEST DUP1 ISZERO PUSH2 0x1CB JUMPI DUP1 PUSH1 0x1F LT PUSH2 0x1A2 JUMPI PUSH2 0x100 DUP1 DUP4 SLOAD DIV MUL DUP4 MSTORE SWAP2 PUSH1 0x20 ADD SWAP2 PUSH2 0x1CB JUMP JUMPDEST DUP3 ADD SWAP2 SWAP1 PUSH0 MSTORE PUSH1 0x20 PUSH0 KECCAK256 SWAP1 JUMPDEST DUP2 SLOAD DUP2 MSTORE SWAP1 PUSH1 0x1 ADD SWAP1 PUSH1 0x20 ADD DUP1 DUP4 GT PUSH2 0x1AE JUMPI DUP3 SWAP1 SUB PUSH1 0x1F AND DUP3 ADD SWAP2 JUMPDEST POP POP POP POP POP DUP2 JUMP JUMPDEST PUSH0 PUSH1 0x1 SLOAD SWAP1 POP SWAP1 JUMP JUMPDEST PUSH2 0x1E4 PUSH2 0x1E7 JUMP JUMPDEST POP JUMP JUMPDEST PUSH1 0x60 PUSH0 DUP1 SLOAD PUSH2 0x1F5 SWAP1 PUSH2 0x53D JUMP JUMPDEST DUP1 PUSH1 0x1F ADD PUSH1 0x20 DUP1 SWAP2 DIV MUL PUSH1 0x20 ADD PUSH1 0x40 MLOAD SWAP1 DUP2 ADD PUSH1 0x40 MSTORE DUP1 SWAP3 SWAP2 SWAP1 DUP2 DUP2 MSTORE PUSH1 0x20 ADD DUP3 DUP1 SLOAD PUSH2 0x221 SWAP1 PUSH2 0x53D JUMP JUMPDEST DUP1 ISZERO PUSH2 0x26C JUMPI DUP1 PUSH1 0x1F LT PUSH2 0x243 JUMPI PUSH2 0x100 DUP1 DUP4 SLOAD DIV MUL DUP4 MSTORE SWAP2 PUSH1 0x20 ADD SWAP2 PUSH2 0x26C JUMP JUMPDEST DUP3 ADD SWAP2 SWAP1 PUSH0 MSTORE PUSH1 0x20 PUSH0 KECCAK256 SWAP1 JUMPDEST DUP2 SLOAD DUP2 MSTORE SWAP1 PUSH1 0x1 ADD SWAP1 PUSH1 0x20 ADD DUP1 DUP4 GT PUSH2 0x24F JUMPI DUP3 SWAP1 SUB PUSH1 0x1F AND DUP3 ADD SWAP2 JUMPDEST POP POP POP POP POP SWAP1 POP SWAP1 JUMP JUMPDEST PUSH0 PUSH1 0x40 MLOAD SWAP1 POP SWAP1 JUMP JUMPDEST PUSH0 DUP1 REVERT JUMPDEST PUSH0 DUP1 REVERT JUMPDEST PUSH0 DUP1 REVERT JUMPDEST PUSH0 DUP1 REVERT JUMPDEST PUSH0 PUSH1 0x1F NOT PUSH1 0x1F DUP4 ADD AND SWAP1 POP SWAP2 SWAP1 POP JUMP JUMPDEST PUSH32 0x4E487B7100000000000000000000000000000000000000000000000000000000 PUSH0 MSTORE PUSH1 0x41 PUSH1 0x4 MSTORE PUSH1 0x24 PUSH0 REVERT JUMPDEST PUSH2 0x2D5 DUP3 PUSH2 0x28F JUMP JUMPDEST DUP2 ADD DUP2 DUP2 LT PUSH8 0xFFFFFFFFFFFFFFFF DUP3 GT OR ISZERO PUSH2 0x2F4 JUMPI PUSH2 0x2F3 PUSH2 0x29F JUMP JUMPDEST JUMPDEST DUP1 PUSH1 0x40 MSTORE POP POP POP JUMP JUMPDEST PUSH0 PUSH2 0x306 PUSH2 0x276 JUMP JUMPDEST SWAP1 POP PUSH2 0x312 DUP3 DUP3 PUSH2 0x2CC JUMP JUMPDEST SWAP2 SWAP1 POP JUMP JUMPDEST PUSH0 PUSH8 0xFFFFFFFFFFFFFFFF DUP3 GT ISZERO PUSH2 0x331 JUMPI PUSH2 0x330 PUSH2 0x29F JUMP JUMPDEST JUMPDEST PUSH2 0x33A DUP3 PUSH2 0x28F JUMP JUMPDEST SWAP1 POP PUSH1 0x20 DUP2 ADD SWAP1 POP SWAP2 SWAP1 POP JUMP JUMPDEST DUP3 DUP2 DUP4 CALLDATACOPY PUSH0 DUP4 DUP4 ADD MSTORE POP POP POP JUMP JUMPDEST PUSH0 PUSH2 0x367 PUSH2 0x362 DUP5 PUSH2 0x317 JUMP JUMPDEST PUSH2 0x2FD JUMP JUMPDEST SWAP1 POP DUP3 DUP2 MSTORE PUSH1 0x20 DUP2 ADD DUP5 DUP5 DUP5 ADD GT ISZERO PUSH2 0x383 JUMPI PUSH2 0x382 PUSH2 0x28B JUMP JUMPDEST JUMPDEST PUSH2 0x38E DUP5 DUP3 DUP6 PUSH2 0x347 JUMP JUMPDEST POP SWAP4 SWAP3 POP POP POP JUMP JUMPDEST PUSH0 DUP3 PUSH1 0x1F DUP4 ADD SLT PUSH2 0x3AA JUMPI PUSH2 0x3A9 PUSH2 0x287 JUMP JUMPDEST JUMPDEST DUP2 CALLDATALOAD PUSH2 0x3BA DUP5 DUP3 PUSH1 0x20 DUP7 ADD PUSH2 0x355 JUMP JUMPDEST SWAP2 POP POP SWAP3 SWAP2 POP POP JUMP JUMPDEST PUSH0 PUSH1 0x20 DUP3 DUP5 SUB SLT ISZERO PUSH2 0x3D8 JUMPI PUSH2 0x3D7 PUSH2 0x27F JUMP JUMPDEST JUMPDEST PUSH0 DUP3 ADD CALLDATALOAD PUSH8 0xFFFFFFFFFFFFFFFF DUP2 GT ISZERO PUSH2 0x3F5 JUMPI PUSH2 0x3F4 PUSH2 0x283 JUMP JUMPDEST JUMPDEST PUSH2 0x401 DUP5 DUP3 DUP6 ADD PUSH2 0x396 JUMP JUMPDEST SWAP2 POP POP SWAP3 SWAP2 POP POP JUMP JUMPDEST PUSH0 DUP2 SWAP1 POP SWAP2 SWAP1 POP JUMP JUMPDEST PUSH2 0x41C DUP2 PUSH2 0x40A JUMP JUMPDEST DUP2 EQ PUSH2 0x426 JUMPI PUSH0 DUP1 REVERT JUMPDEST POP JUMP JUMPDEST PUSH0 DUP2 CALLDATALOAD SWAP1 POP PUSH2 0x437 DUP2 PUSH2 0x413 JUMP JUMPDEST SWAP3 SWAP2 POP POP JUMP JUMPDEST PUSH0 PUSH1 0x20 DUP3 DUP5 SUB SLT ISZERO PUSH2 0x452 JUMPI PUSH2 0x451 PUSH2 0x27F JUMP JUMPDEST JUMPDEST PUSH0 PUSH2 0x45F DUP5 DUP3 DUP6 ADD PUSH2 0x429 JUMP JUMPDEST SWAP2 POP POP SWAP3 SWAP2 POP POP JUMP JUMPDEST PUSH0 DUP2 MLOAD SWAP1 POP SWAP2 SWAP1 POP JUMP JUMPDEST PUSH0 DUP3 DUP3 MSTORE PUSH1 0x20 DUP3 ADD SWAP1 POP SWAP3 SWAP2 POP POP JUMP JUMPDEST DUP3 DUP2 DUP4 MCOPY PUSH0 DUP4 DUP4 ADD MSTORE POP POP POP JUMP JUMPDEST PUSH0 PUSH2 0x49A DUP3 PUSH2 0x468 JUMP JUMPDEST PUSH2 0x4A4 DUP2 DUP6 PUSH2 0x472 JUMP JUMPDEST SWAP4 POP PUSH2 0x4B4 DUP2 DUP6 PUSH1 0x20 DUP7 ADD PUSH2 0x482 JUMP JUMPDEST PUSH2 0x4BD DUP2 PUSH2 0x28F JUMP JUMPDEST DUP5 ADD SWAP2 POP POP SWAP3 SWAP2 POP POP JUMP JUMPDEST PUSH0 PUSH1 0x20 DUP3 ADD SWAP1 POP DUP2 DUP2 SUB PUSH0 DUP4 ADD MSTORE PUSH2 0x4E0 DUP2 DUP5 PUSH2 0x490 JUMP JUMPDEST SWAP1 POP SWAP3 SWAP2 POP POP JUMP JUMPDEST PUSH2 0x4F1 DUP2 PUSH2 0x40A JUMP JUMPDEST DUP3 MSTORE POP POP JUMP JUMPDEST PUSH0 PUSH1 0x20 DUP3 ADD SWAP1 POP PUSH2 0x50A PUSH0 DUP4 ADD DUP5 PUSH2 0x4E8 JUMP JUMPDEST SWAP3 SWAP2 POP POP JUMP JUMPDEST PUSH32 0x4E487B7100000000000000000000000000000000000000000000000000000000 PUSH0 MSTORE PUSH1 0x22 PUSH1 0x4 MSTORE PUSH1 0x24 PUSH0 REVERT JUMPDEST PUSH0 PUSH1 0x2 DUP3 DIV SWAP1 POP PUSH1 0x1 DUP3 AND DUP1 PUSH2 0x554 JUMPI PUSH1 0x7F DUP3 AND SWAP2 POP JUMPDEST PUSH1 0x20 DUP3 LT DUP2 SUB PUSH2 0x567 JUMPI PUSH2 0x566 PUSH2 0x510 JUMP JUMPDEST JUMPDEST POP SWAP2 SWAP1 POP JUMP JUMPDEST PUSH0 DUP2 SWAP1 POP DUP2 PUSH0 MSTORE PUSH1 0x20 PUSH0 KECCAK256 SWAP1 POP SWAP2 SWAP1 POP JUMP JUMPDEST PUSH0 PUSH1 0x20 PUSH1 0x1F DUP4 ADD DIV SWAP1 POP SWAP2 SWAP1 POP JUMP JUMPDEST PUSH0 DUP3 DUP3 SHL SWAP1 POP SWAP3 SWAP2 POP POP JUMP JUMPDEST PUSH0 PUSH1 0x8 DUP4 MUL PUSH2 0x5C9 PUSH32 0xFFFFFFFFFFFFFFFFFFFFFFFFFFFFFFFFFFFFFFFFFFFFFFFFFFFFFFFFFFFFFFFF DUP3 PUSH2 0x58E JUMP JUMPDEST PUSH2 0x5D3 DUP7 DUP4 PUSH2 0x58E JUMP JUMPDEST SWAP6 POP DUP1 NOT DUP5 AND SWAP4 POP DUP1 DUP7 AND DUP5 OR SWAP3 POP POP POP SWAP4 SWAP3 POP POP POP JUMP JUMPDEST PUSH0 DUP2 SWAP1 POP SWAP2 SWAP1 POP JUMP JUMPDEST PUSH0 PUSH2 0x60E PUSH2 0x609 PUSH2 0x604 DUP5 PUSH2 0x40A JUMP JUMPDEST PUSH2 0x5EB JUMP JUMPDEST PUSH2 0x40A JUMP JUMPDEST SWAP1 POP SWAP2 SWAP1 POP JUMP JUMPDEST PUSH0 DUP2 SWAP1 POP SWAP2 SWAP1 POP JUMP JUMPDEST PUSH2 0x627 DUP4 PUSH2 0x5F4 JUMP JUMPDEST PUSH2 0x63B PUSH2 0x633 DUP3 PUSH2 0x615 JUMP JUMPDEST DUP5 DUP5 SLOAD PUSH2 0x59A JUMP JUMPDEST DUP3 SSTORE POP POP POP POP JUMP JUMPDEST PUSH0 SWAP1 JUMP JUMPDEST PUSH2 0x64F PUSH2 0x643 JUMP JUMPDEST PUSH2 0x65A DUP2 DUP5 DUP5 PUSH2 0x61E JUMP JUMPDEST POP POP POP JUMP JUMPDEST JUMPDEST DUP2 DUP2 LT ISZERO PUSH2 0x67D JUMPI PUSH2 0x672 PUSH0 DUP3 PUSH2 0x647 JUMP JUMPDEST PUSH1 0x1 DUP2 ADD SWAP1 POP PUSH2 0x660 JUMP JUMPDEST POP POP JUMP JUMPDEST PUSH1 0x1F DUP3 GT ISZERO PUSH2 0x6C2 JUMPI PUSH2 0x693 DUP2 PUSH2 0x56D JUMP JUMPDEST PUSH2 0x69C DUP5 PUSH2 0x57F JUMP JUMPDEST DUP2 ADD PUSH1 0x20 DUP6 LT ISZERO PUSH2 0x6AB JUMPI DUP2 SWAP1 POP JUMPDEST PUSH2 0x6BF PUSH2 0x6B7 DUP6 PUSH2 0x57F JUMP JUMPDEST DUP4 ADD DUP3 PUSH2 0x65F JUMP JUMPDEST POP POP JUMPDEST POP POP POP JUMP JUMPDEST PUSH0 DUP3 DUP3 SHR SWAP1 POP SWAP3 SWAP2 POP POP JUMP JUMPDEST PUSH0 PUSH2 0x6E2 PUSH0 NOT DUP5 PUSH1 0x8 MUL PUSH2 0x6C7 JUMP JUMPDEST NOT DUP1 DUP4 AND SWAP2 POP POP SWAP3 SWAP2 POP POP JUMP JUMPDEST PUSH0 PUSH2 0x6FA DUP4 DUP4 PUSH2 0x6D3 JUMP JUMPDEST SWAP2 POP DUP3 PUSH1 0x2 MUL DUP3 OR SWAP1 POP SWAP3 SWAP2 POP POP JUMP JUMPDEST PUSH2 0x713 DUP3 PUSH2 0x468 JUMP JUMPDEST PUSH8 0xFFFFFFFFFFFFFFFF DUP2 GT ISZERO PUSH2 0x72C JUMPI PUSH2 0x72B PUSH2 0x29F JUMP JUMPDEST JUMPDEST PUSH2 0x736 DUP3 SLOAD PUSH2 0x53D JUMP JUMPDEST PUSH2 0x741 DUP3 DUP3 DUP6 PUSH2 0x681 JUMP JUMPDEST PUSH0 PUSH1 0x20 SWAP1 POP PUSH1 0x1F DUP4 GT PUSH1 0x1 DUP2 EQ PUSH2 0x772 JUMPI PUSH0 DUP5 ISZERO PUSH2 0x760 JUMPI DUP3 DUP8 ADD MLOAD SWAP1 POP JUMPDEST PUSH2 0x76A DUP6 DUP3 PUSH2 0x6EF JUMP JUMPDEST DUP7 SSTORE POP PUSH2 0x7D1 JUMP JUMPDEST PUSH1 0x1F NOT DUP5 AND PUSH2 0x780 DUP7 PUSH2 0x56D JUMP JUMPDEST PUSH0 JUMPDEST DUP3 DUP2 LT ISZERO PUSH2 0x7A7 JUMPI DUP5 DUP10 ADD MLOAD DUP3 SSTORE PUSH1 0x1 DUP3 ADD SWAP2 POP PUSH1 0x20 DUP6 ADD SWAP5 POP PUSH1 0x20 DUP2 ADD SWAP1 POP PUSH2 0x782 JUMP JUMPDEST DUP7 DUP4 LT ISZERO PUSH2 0x7C4 JUMPI DUP5 DUP10 ADD MLOAD PUSH2 0x7C0 PUSH1 0x1F DUP10 AND DUP3 PUSH2 0x6D3 JUMP JUMPDEST DUP4 SSTORE POP JUMPDEST PUSH1 0x1 PUSH1 0x2 DUP9 MUL ADD DUP9 SSTORE POP POP POP JUMPDEST POP POP POP POP POP POP JUMP JUMPDEST PUSH32 0x4E487B7100000000000000000000000000000000000000000000000000000000 PUSH0 MSTORE PUSH1 0x11 PUSH1 0x4 MSTORE PUSH1 0x24 PUSH0 REVERT JUMPDEST PUSH0 PUSH2 0x810 DUP3 PUSH2 0x40A JUMP JUMPDEST SWAP2 POP PUSH32 0xFFFFFFFFFFFFFFFFFFFFFFFFFFFFFFFFFFFFFFFFFFFFFFFFFFFFFFFFFFFFFFFF DUP3 SUB PUSH2 0x842 JUMPI PUSH2 0x841 PUSH2 0x7D9 JUMP JUMPDEST JUMPDEST PUSH1 0x1 DUP3 ADD SWAP1 POP SWAP2 SWAP1 POP JUMP INVALID LOG2 PUSH5 0x6970667358 0x22 SLT KECCAK256 PUSH15 0xE61A7B8D007378F6A29A4BC7FA377A TIMESTAMP 0xC2 PUSH7 0x2FD5C9413B542B BALANCE DUP9 0x28 0xEA NOT 0xD PUSH5 0x736F6C6343 STOP ADDMOD BYTE STOP CALLER SLOAD PUSH9 0x65206F776E6572206F PUSH7 0x20746869732063 PUSH16 0x6E7472616374206973204976616E2049 PUSH23 0x616E6F762E000000000000000000000000000000000000 "
				},
				"gasEstimates": {
					"creation": {
						"codeDepositCost": "435800",
						"executionCost": "infinite",
						"totalCost": "infinite"
					},
					"external": {
						"AddOneUnit()": "24497",
						"Foo()": "infinite",
						"GetCounet()": "2476",
						"Messages(uint256)": "infinite",
						"Send(string)": "infinite"
					}
				},
				"methodIdentifiers": {
					"AddOneUnit()": "76de4381",
					"Foo()": "bfb4ebcf",
					"GetCounet()": "a893775a",
					"Messages(uint256)": "85a4d02e",
					"Send(string)": "01f5c6a8"
				}
			},
			"storageLayout": {
				"storage": [
					{
						"astId": 4,
						"contract": "3 занятие/primer.sol:SendMessageToOwner",
						"label": "_info",
						"offset": 0,
						"slot": "0",
						"type": "t_string_storage"
					},
					{
						"astId": 22,
						"contract": "3 занятие/primer.sol:SendMessageToOwner",
						"label": "_counter",
						"offset": 0,
						"slot": "1",
						"type": "t_uint256"
					},
					{
						"astId": 78,
						"contract": "3 занятие/primer.sol:SendMessageToOwner",
						"label": "Messages",
						"offset": 0,
						"slot": "2",
						"type": "t_array(t_string_storage)dyn_storage"
					}
				],
				"types": {
					"t_array(t_string_storage)dyn_storage": {
						"base": "t_string_storage",
						"encoding": "dynamic_array",
						"label": "string[]",
						"numberOfBytes": "32"
					},
					"t_string_storage": {
						"encoding": "bytes",
						"label": "string",
						"numberOfBytes": "32"
					},
					"t_uint256": {
						"encoding": "inplace",
						"label": "uint256",
						"numberOfBytes": "32"
					}
				}
			},
			"userdoc": {
				"kind": "user",
				"methods": {},
				"version": 1
			}
		}
	}
}