{
	"3 занятие/classes.sol": {
		"CircleInfo": {
			"abi": [
				{
					"inputs": [
						{
							"internalType": "uint256",
							"name": "radius",
							"type": "uint256"
						}
					],
					"name": "GetArea",
					"outputs": [
						{
							"internalType": "uint256",
							"name": "",
							"type": "uint256"
						}
					],
					"stateMutability": "nonpayable",
					"type": "function"
				},
				{
					"inputs": [],
					"name": "GetMessage",
					"outputs": [
						{
							"internalType": "string",
							"name": "",
							"type": "string"
						}
					],
					"stateMutability": "pure",
					"type": "function"
				},
				{
					"inputs": [
						{
							"internalType": "uint256",
							"name": "radius",
							"type": "uint256"
						}
					],
					"name": "GetPerimetr",
					"outputs": [
						{
							"internalType": "uint256",
							"name": "",
							"type": "uint256"
						}
					],
					"stateMutability": "nonpayable",
					"type": "function"
				},
				{
					"inputs": [],
					"name": "_area",
					"outputs": [
						{
							"internalType": "uint256",
							"name": "",
							"type": "uint256"
						}
					],
					"stateMutability": "view",
					"type": "function"
				},
				{
					"inputs": [],
					"name": "_perimetr",
					"outputs": [
						{
							"internalType": "uint256",
							"name": "",
							"type": "uint256"
						}
					],
					"stateMutability": "view",
					"type": "function"
				},
				{
					"inputs": [],
					"name": "pi",
					"outputs": [
						{
							"internalType": "uint256",
							"name": "",
							"type": "uint256"
						}
					],
					"stateMutability": "view",
					"type": "function"
				}
			],
			"devdoc": {
				"kind": "dev",
				"methods": {},
				"version": 1
			},
			"evm": {
				"assembly": "    /* \"3 \\xd0\\xb7\\xd0\\xb0\\xd0\\xbd\\xd1\\x8f\\xd1\\x82\\xd0\\xb8\\xd0\\xb5/classes.sol\":728:1214  contract CircleInfo is Main{... */\n  mstore(0x40, 0x80)\n  callvalue\n  dup1\n  iszero\n  tag_1\n  jumpi\n  0x00\n  dup1\n  revert\ntag_1:\n  pop\n  dataSize(sub_0)\n  dup1\n  dataOffset(sub_0)\n  0x00\n  codecopy\n  0x00\n  return\nstop\n\nsub_0: assembly {\n        /* \"3 \\xd0\\xb7\\xd0\\xb0\\xd0\\xbd\\xd1\\x8f\\xd1\\x82\\xd0\\xb8\\xd0\\xb5/classes.sol\":728:1214  contract CircleInfo is Main{... */\n      mstore(0x40, 0x80)\n      callvalue\n      dup1\n      iszero\n      tag_1\n      jumpi\n      0x00\n      dup1\n      revert\n    tag_1:\n      pop\n      jumpi(tag_2, lt(calldatasize, 0x04))\n      shr(0xe0, calldataload(0x00))\n      dup1\n      0x03e33b53\n      eq\n      tag_3\n      jumpi\n      dup1\n      0x291fe982\n      eq\n      tag_4\n      jumpi\n      dup1\n      0x2dd9868d\n      eq\n      tag_5\n      jumpi\n      dup1\n      0xa887477b\n      eq\n      tag_6\n      jumpi\n      dup1\n      0xe0b8e86a\n      eq\n      tag_7\n      jumpi\n      dup1\n      0xfc6c6fd4\n      eq\n      tag_8\n      jumpi\n    tag_2:\n      0x00\n      dup1\n      revert\n        /* \"3 \\xd0\\xb7\\xd0\\xb0\\xd0\\xbd\\xd1\\x8f\\xd1\\x82\\xd0\\xb8\\xd0\\xb5/classes.sol\":80:178  function GetMessage() public pure returns (string memory) {... */\n    tag_3:\n      tag_9\n      tag_10\n      jump\t// in\n    tag_9:\n      mload(0x40)\n      tag_11\n      swap2\n      swap1\n      tag_12\n      jump\t// in\n    tag_11:\n      mload(0x40)\n      dup1\n      swap2\n      sub\n      swap1\n      return\n        /* \"3 \\xd0\\xb7\\xd0\\xb0\\xd0\\xbd\\xd1\\x8f\\xd1\\x82\\xd0\\xb8\\xd0\\xb5/classes.sol\":848:1023  function GetArea(uint radius) public returns (uint) {... */\n    tag_4:\n      tag_13\n      0x04\n      dup1\n      calldatasize\n      sub\n      dup2\n      add\n      swap1\n      tag_14\n      swap2\n      swap1\n      tag_15\n      jump\t// in\n    tag_14:\n      tag_16\n      jump\t// in\n    tag_13:\n      mload(0x40)\n      tag_17\n      swap2\n      swap1\n      tag_18\n      jump\t// in\n    tag_17:\n      mload(0x40)\n      dup1\n      swap2\n      sub\n      swap1\n      return\n        /* \"3 \\xd0\\xb7\\xd0\\xb0\\xd0\\xbd\\xd1\\x8f\\xd1\\x82\\xd0\\xb8\\xd0\\xb5/classes.sol\":814:841  uint public constant pi = 3 */\n    tag_5:\n      tag_19\n      tag_20\n      jump\t// in\n    tag_19:\n      mload(0x40)\n      tag_21\n      swap2\n      swap1\n      tag_18\n      jump\t// in\n    tag_21:\n      mload(0x40)\n      dup1\n      swap2\n      sub\n      swap1\n      return\n        /* \"3 \\xd0\\xb7\\xd0\\xb0\\xd0\\xbd\\xd1\\x8f\\xd1\\x82\\xd0\\xb8\\xd0\\xb5/classes.sol\":1029:1211  function GetPerimetr(uint radius) public returns (uint) {... */\n    tag_6:\n      tag_22\n      0x04\n      dup1\n      calldatasize\n      sub\n      dup2\n      add\n      swap1\n      tag_23\n      swap2\n      swap1\n      tag_15\n      jump\t// in\n    tag_23:\n      tag_24\n      jump\t// in\n    tag_22:\n      mload(0x40)\n      tag_25\n      swap2\n      swap1\n      tag_18\n      jump\t// in\n    tag_25:\n      mload(0x40)\n      dup1\n      swap2\n      sub\n      swap1\n      return\n        /* \"3 \\xd0\\xb7\\xd0\\xb0\\xd0\\xbd\\xd1\\x8f\\xd1\\x82\\xd0\\xb8\\xd0\\xb5/classes.sol\":786:807  uint public _perimetr */\n    tag_7:\n      tag_26\n      tag_27\n      jump\t// in\n    tag_26:\n      mload(0x40)\n      tag_28\n      swap2\n      swap1\n      tag_18\n      jump\t// in\n    tag_28:\n      mload(0x40)\n      dup1\n      swap2\n      sub\n      swap1\n      return\n        /* \"3 \\xd0\\xb7\\xd0\\xb0\\xd0\\xbd\\xd1\\x8f\\xd1\\x82\\xd0\\xb8\\xd0\\xb5/classes.sol\":762:779  uint public _area */\n    tag_8:\n      tag_29\n      tag_30\n      jump\t// in\n    tag_29:\n      mload(0x40)\n      tag_31\n      swap2\n      swap1\n      tag_18\n      jump\t// in\n    tag_31:\n      mload(0x40)\n      dup1\n      swap2\n      sub\n      swap1\n      return\n        /* \"3 \\xd0\\xb7\\xd0\\xb0\\xd0\\xbd\\xd1\\x8f\\xd1\\x82\\xd0\\xb8\\xd0\\xb5/classes.sol\":80:178  function GetMessage() public pure returns (string memory) {... */\n    tag_10:\n        /* \"3 \\xd0\\xb7\\xd0\\xb0\\xd0\\xbd\\xd1\\x8f\\xd1\\x82\\xd0\\xb8\\xd0\\xb5/classes.sol\":123:136  string memory */\n      0x60\n        /* \"3 \\xd0\\xb7\\xd0\\xb0\\xd0\\xbd\\xd1\\x8f\\xd1\\x82\\xd0\\xb8\\xd0\\xb5/classes.sol\":149:170  return \"Hello world!\" */\n      mload(0x40)\n      dup1\n      0x40\n      add\n      0x40\n      mstore\n      dup1\n      0x0c\n      dup2\n      mstore\n      0x20\n      add\n      0x48656c6c6f20776f726c64210000000000000000000000000000000000000000\n      dup2\n      mstore\n      pop\n      swap1\n      pop\n        /* \"3 \\xd0\\xb7\\xd0\\xb0\\xd0\\xbd\\xd1\\x8f\\xd1\\x82\\xd0\\xb8\\xd0\\xb5/classes.sol\":80:178  function GetMessage() public pure returns (string memory) {... */\n      swap1\n      jump\t// out\n        /* \"3 \\xd0\\xb7\\xd0\\xb0\\xd0\\xbd\\xd1\\x8f\\xd1\\x82\\xd0\\xb8\\xd0\\xb5/classes.sol\":848:1023  function GetArea(uint radius) public returns (uint) {... */\n    tag_16:\n        /* \"3 \\xd0\\xb7\\xd0\\xb0\\xd0\\xbd\\xd1\\x8f\\xd1\\x82\\xd0\\xb8\\xd0\\xb5/classes.sol\":894:898  uint */\n      0x00\n        /* \"3 \\xd0\\xb7\\xd0\\xb0\\xd0\\xbd\\xd1\\x8f\\xd1\\x82\\xd0\\xb8\\xd0\\xb5/classes.sol\":928:929  0 */\n      dup1\n        /* \"3 \\xd0\\xb7\\xd0\\xb0\\xd0\\xbd\\xd1\\x8f\\xd1\\x82\\xd0\\xb8\\xd0\\xb5/classes.sol\":919:925  radius */\n      dup3\n        /* \"3 \\xd0\\xb7\\xd0\\xb0\\xd0\\xbd\\xd1\\x8f\\xd1\\x82\\xd0\\xb8\\xd0\\xb5/classes.sol\":919:929  radius > 0 */\n      gt\n        /* \"3 \\xd0\\xb7\\xd0\\xb0\\xd0\\xbd\\xd1\\x8f\\xd1\\x82\\xd0\\xb8\\xd0\\xb5/classes.sol\":911:951  require(radius > 0, \"Error! Radius < 0\") */\n      tag_34\n      jumpi\n      mload(0x40)\n      0x08c379a000000000000000000000000000000000000000000000000000000000\n      dup2\n      mstore\n      0x04\n      add\n      tag_35\n      swap1\n      tag_36\n      jump\t// in\n    tag_35:\n      mload(0x40)\n      dup1\n      swap2\n      sub\n      swap1\n      revert\n    tag_34:\n        /* \"3 \\xd0\\xb7\\xd0\\xb0\\xd0\\xbd\\xd1\\x8f\\xd1\\x82\\xd0\\xb8\\xd0\\xb5/classes.sol\":985:991  radius */\n      dup2\n        /* \"3 \\xd0\\xb7\\xd0\\xb0\\xd0\\xbd\\xd1\\x8f\\xd1\\x82\\xd0\\xb8\\xd0\\xb5/classes.sol\":976:982  radius */\n      dup3\n        /* \"3 \\xd0\\xb7\\xd0\\xb0\\xd0\\xbd\\xd1\\x8f\\xd1\\x82\\xd0\\xb8\\xd0\\xb5/classes.sol\":840:841  3 */\n      0x03\n        /* \"3 \\xd0\\xb7\\xd0\\xb0\\xd0\\xbd\\xd1\\x8f\\xd1\\x82\\xd0\\xb8\\xd0\\xb5/classes.sol\":971:982  pi * radius */\n      tag_37\n      swap2\n      swap1\n      tag_38\n      jump\t// in\n    tag_37:\n        /* \"3 \\xd0\\xb7\\xd0\\xb0\\xd0\\xbd\\xd1\\x8f\\xd1\\x82\\xd0\\xb8\\xd0\\xb5/classes.sol\":971:991  pi * radius * radius */\n      tag_39\n      swap2\n      swap1\n      tag_38\n      jump\t// in\n    tag_39:\n        /* \"3 \\xd0\\xb7\\xd0\\xb0\\xd0\\xbd\\xd1\\x8f\\xd1\\x82\\xd0\\xb8\\xd0\\xb5/classes.sol\":962:967  _area */\n      0x00\n        /* \"3 \\xd0\\xb7\\xd0\\xb0\\xd0\\xbd\\xd1\\x8f\\xd1\\x82\\xd0\\xb8\\xd0\\xb5/classes.sol\":962:992  _area = (pi * radius * radius) */\n      dup2\n      swap1\n      sstore\n      pop\n        /* \"3 \\xd0\\xb7\\xd0\\xb0\\xd0\\xbd\\xd1\\x8f\\xd1\\x82\\xd0\\xb8\\xd0\\xb5/classes.sol\":1010:1015  _area */\n      sload(0x00)\n        /* \"3 \\xd0\\xb7\\xd0\\xb0\\xd0\\xbd\\xd1\\x8f\\xd1\\x82\\xd0\\xb8\\xd0\\xb5/classes.sol\":1003:1015  return _area */\n      swap1\n      pop\n        /* \"3 \\xd0\\xb7\\xd0\\xb0\\xd0\\xbd\\xd1\\x8f\\xd1\\x82\\xd0\\xb8\\xd0\\xb5/classes.sol\":848:1023  function GetArea(uint radius) public returns (uint) {... */\n      swap2\n      swap1\n      pop\n      jump\t// out\n        /* \"3 \\xd0\\xb7\\xd0\\xb0\\xd0\\xbd\\xd1\\x8f\\xd1\\x82\\xd0\\xb8\\xd0\\xb5/classes.sol\":814:841  uint public constant pi = 3 */\n    tag_20:\n        /* \"3 \\xd0\\xb7\\xd0\\xb0\\xd0\\xbd\\xd1\\x8f\\xd1\\x82\\xd0\\xb8\\xd0\\xb5/classes.sol\":840:841  3 */\n      0x03\n        /* \"3 \\xd0\\xb7\\xd0\\xb0\\xd0\\xbd\\xd1\\x8f\\xd1\\x82\\xd0\\xb8\\xd0\\xb5/classes.sol\":814:841  uint public constant pi = 3 */\n      dup2\n      jump\t// out\n        /* \"3 \\xd0\\xb7\\xd0\\xb0\\xd0\\xbd\\xd1\\x8f\\xd1\\x82\\xd0\\xb8\\xd0\\xb5/classes.sol\":1029:1211  function GetPerimetr(uint radius) public returns (uint) {... */\n    tag_24:\n        /* \"3 \\xd0\\xb7\\xd0\\xb0\\xd0\\xbd\\xd1\\x8f\\xd1\\x82\\xd0\\xb8\\xd0\\xb5/classes.sol\":1079:1083  uint */\n      0x00\n        /* \"3 \\xd0\\xb7\\xd0\\xb0\\xd0\\xbd\\xd1\\x8f\\xd1\\x82\\xd0\\xb8\\xd0\\xb5/classes.sol\":1113:1114  0 */\n      dup1\n        /* \"3 \\xd0\\xb7\\xd0\\xb0\\xd0\\xbd\\xd1\\x8f\\xd1\\x82\\xd0\\xb8\\xd0\\xb5/classes.sol\":1104:1110  radius */\n      dup3\n        /* \"3 \\xd0\\xb7\\xd0\\xb0\\xd0\\xbd\\xd1\\x8f\\xd1\\x82\\xd0\\xb8\\xd0\\xb5/classes.sol\":1104:1114  radius > 0 */\n      gt\n        /* \"3 \\xd0\\xb7\\xd0\\xb0\\xd0\\xbd\\xd1\\x8f\\xd1\\x82\\xd0\\xb8\\xd0\\xb5/classes.sol\":1096:1136  require(radius > 0, \"Error! Radius < 0\") */\n      tag_41\n      jumpi\n      mload(0x40)\n      0x08c379a000000000000000000000000000000000000000000000000000000000\n      dup2\n      mstore\n      0x04\n      add\n      tag_42\n      swap1\n      tag_36\n      jump\t// in\n    tag_42:\n      mload(0x40)\n      dup1\n      swap2\n      sub\n      swap1\n      revert\n    tag_41:\n        /* \"3 \\xd0\\xb7\\xd0\\xb0\\xd0\\xbd\\xd1\\x8f\\xd1\\x82\\xd0\\xb8\\xd0\\xb5/classes.sol\":1169:1175  radius */\n      dup2\n        /* \"3 \\xd0\\xb7\\xd0\\xb0\\xd0\\xbd\\xd1\\x8f\\xd1\\x82\\xd0\\xb8\\xd0\\xb5/classes.sol\":840:841  3 */\n      0x03\n        /* \"3 \\xd0\\xb7\\xd0\\xb0\\xd0\\xbd\\xd1\\x8f\\xd1\\x82\\xd0\\xb8\\xd0\\xb5/classes.sol\":1160:1161  2 */\n      0x02\n        /* \"3 \\xd0\\xb7\\xd0\\xb0\\xd0\\xbd\\xd1\\x8f\\xd1\\x82\\xd0\\xb8\\xd0\\xb5/classes.sol\":1160:1166  2 * pi */\n      tag_43\n      swap2\n      swap1\n      tag_38\n      jump\t// in\n    tag_43:\n        /* \"3 \\xd0\\xb7\\xd0\\xb0\\xd0\\xbd\\xd1\\x8f\\xd1\\x82\\xd0\\xb8\\xd0\\xb5/classes.sol\":1160:1175  2 * pi * radius */\n      tag_44\n      swap2\n      swap1\n      tag_38\n      jump\t// in\n    tag_44:\n        /* \"3 \\xd0\\xb7\\xd0\\xb0\\xd0\\xbd\\xd1\\x8f\\xd1\\x82\\xd0\\xb8\\xd0\\xb5/classes.sol\":1147:1156  _perimetr */\n      0x01\n        /* \"3 \\xd0\\xb7\\xd0\\xb0\\xd0\\xbd\\xd1\\x8f\\xd1\\x82\\xd0\\xb8\\xd0\\xb5/classes.sol\":1147:1176  _perimetr = (2 * pi * radius) */\n      dup2\n      swap1\n      sstore\n      pop\n        /* \"3 \\xd0\\xb7\\xd0\\xb0\\xd0\\xbd\\xd1\\x8f\\xd1\\x82\\xd0\\xb8\\xd0\\xb5/classes.sol\":1194:1203  _perimetr */\n      sload(0x01)\n        /* \"3 \\xd0\\xb7\\xd0\\xb0\\xd0\\xbd\\xd1\\x8f\\xd1\\x82\\xd0\\xb8\\xd0\\xb5/classes.sol\":1187:1203  return _perimetr */\n      swap1\n      pop\n        /* \"3 \\xd0\\xb7\\xd0\\xb0\\xd0\\xbd\\xd1\\x8f\\xd1\\x82\\xd0\\xb8\\xd0\\xb5/classes.sol\":1029:1211  function GetPerimetr(uint radius) public returns (uint) {... */\n      swap2\n      swap1\n      pop\n      jump\t// out\n        /* \"3 \\xd0\\xb7\\xd0\\xb0\\xd0\\xbd\\xd1\\x8f\\xd1\\x82\\xd0\\xb8\\xd0\\xb5/classes.sol\":786:807  uint public _perimetr */\n    tag_27:\n      sload(0x01)\n      dup2\n      jump\t// out\n        /* \"3 \\xd0\\xb7\\xd0\\xb0\\xd0\\xbd\\xd1\\x8f\\xd1\\x82\\xd0\\xb8\\xd0\\xb5/classes.sol\":762:779  uint public _area */\n    tag_30:\n      sload(0x00)\n      dup2\n      jump\t// out\n        /* \"#utility.yul\":7:106   */\n    tag_45:\n        /* \"#utility.yul\":59:65   */\n      0x00\n        /* \"#utility.yul\":93:98   */\n      dup2\n        /* \"#utility.yul\":87:99   */\n      mload\n        /* \"#utility.yul\":77:99   */\n      swap1\n      pop\n        /* \"#utility.yul\":7:106   */\n      swap2\n      swap1\n      pop\n      jump\t// out\n        /* \"#utility.yul\":112:281   */\n    tag_46:\n        /* \"#utility.yul\":196:207   */\n      0x00\n        /* \"#utility.yul\":230:236   */\n      dup3\n        /* \"#utility.yul\":225:228   */\n      dup3\n        /* \"#utility.yul\":218:237   */\n      mstore\n        /* \"#utility.yul\":270:274   */\n      0x20\n        /* \"#utility.yul\":265:268   */\n      dup3\n        /* \"#utility.yul\":261:275   */\n      add\n        /* \"#utility.yul\":246:275   */\n      swap1\n      pop\n        /* \"#utility.yul\":112:281   */\n      swap3\n      swap2\n      pop\n      pop\n      jump\t// out\n        /* \"#utility.yul\":287:426   */\n    tag_47:\n        /* \"#utility.yul\":376:382   */\n      dup3\n        /* \"#utility.yul\":371:374   */\n      dup2\n        /* \"#utility.yul\":366:369   */\n      dup4\n        /* \"#utility.yul\":360:383   */\n      mcopy\n        /* \"#utility.yul\":417:418   */\n      0x00\n        /* \"#utility.yul\":408:414   */\n      dup4\n        /* \"#utility.yul\":403:406   */\n      dup4\n        /* \"#utility.yul\":399:415   */\n      add\n        /* \"#utility.yul\":392:419   */\n      mstore\n        /* \"#utility.yul\":287:426   */\n      pop\n      pop\n      pop\n      jump\t// out\n        /* \"#utility.yul\":432:534   */\n    tag_48:\n        /* \"#utility.yul\":473:479   */\n      0x00\n        /* \"#utility.yul\":524:526   */\n      0x1f\n        /* \"#utility.yul\":520:527   */\n      not\n        /* \"#utility.yul\":515:517   */\n      0x1f\n        /* \"#utility.yul\":508:513   */\n      dup4\n        /* \"#utility.yul\":504:518   */\n      add\n        /* \"#utility.yul\":500:528   */\n      and\n        /* \"#utility.yul\":490:528   */\n      swap1\n      pop\n        /* \"#utility.yul\":432:534   */\n      swap2\n      swap1\n      pop\n      jump\t// out\n        /* \"#utility.yul\":540:917   */\n    tag_49:\n        /* \"#utility.yul\":628:631   */\n      0x00\n        /* \"#utility.yul\":656:695   */\n      tag_66\n        /* \"#utility.yul\":689:694   */\n      dup3\n        /* \"#utility.yul\":656:695   */\n      tag_45\n      jump\t// in\n    tag_66:\n        /* \"#utility.yul\":711:782   */\n      tag_67\n        /* \"#utility.yul\":775:781   */\n      dup2\n        /* \"#utility.yul\":770:773   */\n      dup6\n        /* \"#utility.yul\":711:782   */\n      tag_46\n      jump\t// in\n    tag_67:\n        /* \"#utility.yul\":704:782   */\n      swap4\n      pop\n        /* \"#utility.yul\":791:856   */\n      tag_68\n        /* \"#utility.yul\":849:855   */\n      dup2\n        /* \"#utility.yul\":844:847   */\n      dup6\n        /* \"#utility.yul\":837:841   */\n      0x20\n        /* \"#utility.yul\":830:835   */\n      dup7\n        /* \"#utility.yul\":826:842   */\n      add\n        /* \"#utility.yul\":791:856   */\n      tag_47\n      jump\t// in\n    tag_68:\n        /* \"#utility.yul\":881:910   */\n      tag_69\n        /* \"#utility.yul\":903:909   */\n      dup2\n        /* \"#utility.yul\":881:910   */\n      tag_48\n      jump\t// in\n    tag_69:\n        /* \"#utility.yul\":876:879   */\n      dup5\n        /* \"#utility.yul\":872:911   */\n      add\n        /* \"#utility.yul\":865:911   */\n      swap2\n      pop\n        /* \"#utility.yul\":632:917   */\n      pop\n        /* \"#utility.yul\":540:917   */\n      swap3\n      swap2\n      pop\n      pop\n      jump\t// out\n        /* \"#utility.yul\":923:1236   */\n    tag_12:\n        /* \"#utility.yul\":1036:1040   */\n      0x00\n        /* \"#utility.yul\":1074:1076   */\n      0x20\n        /* \"#utility.yul\":1063:1072   */\n      dup3\n        /* \"#utility.yul\":1059:1077   */\n      add\n        /* \"#utility.yul\":1051:1077   */\n      swap1\n      pop\n        /* \"#utility.yul\":1123:1132   */\n      dup2\n        /* \"#utility.yul\":1117:1121   */\n      dup2\n        /* \"#utility.yul\":1113:1133   */\n      sub\n        /* \"#utility.yul\":1109:1110   */\n      0x00\n        /* \"#utility.yul\":1098:1107   */\n      dup4\n        /* \"#utility.yul\":1094:1111   */\n      add\n        /* \"#utility.yul\":1087:1134   */\n      mstore\n        /* \"#utility.yul\":1151:1229   */\n      tag_71\n        /* \"#utility.yul\":1224:1228   */\n      dup2\n        /* \"#utility.yul\":1215:1221   */\n      dup5\n        /* \"#utility.yul\":1151:1229   */\n      tag_49\n      jump\t// in\n    tag_71:\n        /* \"#utility.yul\":1143:1229   */\n      swap1\n      pop\n        /* \"#utility.yul\":923:1236   */\n      swap3\n      swap2\n      pop\n      pop\n      jump\t// out\n        /* \"#utility.yul\":1323:1440   */\n    tag_51:\n        /* \"#utility.yul\":1432:1433   */\n      0x00\n        /* \"#utility.yul\":1429:1430   */\n      dup1\n        /* \"#utility.yul\":1422:1434   */\n      revert\n        /* \"#utility.yul\":1569:1646   */\n    tag_53:\n        /* \"#utility.yul\":1606:1613   */\n      0x00\n        /* \"#utility.yul\":1635:1640   */\n      dup2\n        /* \"#utility.yul\":1624:1640   */\n      swap1\n      pop\n        /* \"#utility.yul\":1569:1646   */\n      swap2\n      swap1\n      pop\n      jump\t// out\n        /* \"#utility.yul\":1652:1774   */\n    tag_54:\n        /* \"#utility.yul\":1725:1749   */\n      tag_77\n        /* \"#utility.yul\":1743:1748   */\n      dup2\n        /* \"#utility.yul\":1725:1749   */\n      tag_53\n      jump\t// in\n    tag_77:\n        /* \"#utility.yul\":1718:1723   */\n      dup2\n        /* \"#utility.yul\":1715:1750   */\n      eq\n        /* \"#utility.yul\":1705:1768   */\n      tag_78\n      jumpi\n        /* \"#utility.yul\":1764:1765   */\n      0x00\n        /* \"#utility.yul\":1761:1762   */\n      dup1\n        /* \"#utility.yul\":1754:1766   */\n      revert\n        /* \"#utility.yul\":1705:1768   */\n    tag_78:\n        /* \"#utility.yul\":1652:1774   */\n      pop\n      jump\t// out\n        /* \"#utility.yul\":1780:1919   */\n    tag_55:\n        /* \"#utility.yul\":1826:1831   */\n      0x00\n        /* \"#utility.yul\":1864:1870   */\n      dup2\n        /* \"#utility.yul\":1851:1871   */\n      calldataload\n        /* \"#utility.yul\":1842:1871   */\n      swap1\n      pop\n        /* \"#utility.yul\":1880:1913   */\n      tag_80\n        /* \"#utility.yul\":1907:1912   */\n      dup2\n        /* \"#utility.yul\":1880:1913   */\n      tag_54\n      jump\t// in\n    tag_80:\n        /* \"#utility.yul\":1780:1919   */\n      swap3\n      swap2\n      pop\n      pop\n      jump\t// out\n        /* \"#utility.yul\":1925:2254   */\n    tag_15:\n        /* \"#utility.yul\":1984:1990   */\n      0x00\n        /* \"#utility.yul\":2033:2035   */\n      0x20\n        /* \"#utility.yul\":2021:2030   */\n      dup3\n        /* \"#utility.yul\":2012:2019   */\n      dup5\n        /* \"#utility.yul\":2008:2031   */\n      sub\n        /* \"#utility.yul\":2004:2036   */\n      slt\n        /* \"#utility.yul\":2001:2120   */\n      iszero\n      tag_82\n      jumpi\n        /* \"#utility.yul\":2039:2118   */\n      tag_83\n      tag_51\n      jump\t// in\n    tag_83:\n        /* \"#utility.yul\":2001:2120   */\n    tag_82:\n        /* \"#utility.yul\":2159:2160   */\n      0x00\n        /* \"#utility.yul\":2184:2237   */\n      tag_84\n        /* \"#utility.yul\":2229:2236   */\n      dup5\n        /* \"#utility.yul\":2220:2226   */\n      dup3\n        /* \"#utility.yul\":2209:2218   */\n      dup6\n        /* \"#utility.yul\":2205:2227   */\n      add\n        /* \"#utility.yul\":2184:2237   */\n      tag_55\n      jump\t// in\n    tag_84:\n        /* \"#utility.yul\":2174:2237   */\n      swap2\n      pop\n        /* \"#utility.yul\":2130:2247   */\n      pop\n        /* \"#utility.yul\":1925:2254   */\n      swap3\n      swap2\n      pop\n      pop\n      jump\t// out\n        /* \"#utility.yul\":2260:2378   */\n    tag_56:\n        /* \"#utility.yul\":2347:2371   */\n      tag_86\n        /* \"#utility.yul\":2365:2370   */\n      dup2\n        /* \"#utility.yul\":2347:2371   */\n      tag_53\n      jump\t// in\n    tag_86:\n        /* \"#utility.yul\":2342:2345   */\n      dup3\n        /* \"#utility.yul\":2335:2372   */\n      mstore\n        /* \"#utility.yul\":2260:2378   */\n      pop\n      pop\n      jump\t// out\n        /* \"#utility.yul\":2384:2606   */\n    tag_18:\n        /* \"#utility.yul\":2477:2481   */\n      0x00\n        /* \"#utility.yul\":2515:2517   */\n      0x20\n        /* \"#utility.yul\":2504:2513   */\n      dup3\n        /* \"#utility.yul\":2500:2518   */\n      add\n        /* \"#utility.yul\":2492:2518   */\n      swap1\n      pop\n        /* \"#utility.yul\":2528:2599   */\n      tag_88\n        /* \"#utility.yul\":2596:2597   */\n      0x00\n        /* \"#utility.yul\":2585:2594   */\n      dup4\n        /* \"#utility.yul\":2581:2598   */\n      add\n        /* \"#utility.yul\":2572:2578   */\n      dup5\n        /* \"#utility.yul\":2528:2599   */\n      tag_56\n      jump\t// in\n    tag_88:\n        /* \"#utility.yul\":2384:2606   */\n      swap3\n      swap2\n      pop\n      pop\n      jump\t// out\n        /* \"#utility.yul\":2612:2779   */\n    tag_57:\n        /* \"#utility.yul\":2752:2771   */\n      0x4572726f722120526164697573203c2030000000000000000000000000000000\n        /* \"#utility.yul\":2748:2749   */\n      0x00\n        /* \"#utility.yul\":2740:2746   */\n      dup3\n        /* \"#utility.yul\":2736:2750   */\n      add\n        /* \"#utility.yul\":2729:2772   */\n      mstore\n        /* \"#utility.yul\":2612:2779   */\n      pop\n      jump\t// out\n        /* \"#utility.yul\":2785:3151   */\n    tag_58:\n        /* \"#utility.yul\":2927:2930   */\n      0x00\n        /* \"#utility.yul\":2948:3015   */\n      tag_91\n        /* \"#utility.yul\":3012:3014   */\n      0x11\n        /* \"#utility.yul\":3007:3010   */\n      dup4\n        /* \"#utility.yul\":2948:3015   */\n      tag_46\n      jump\t// in\n    tag_91:\n        /* \"#utility.yul\":2941:3015   */\n      swap2\n      pop\n        /* \"#utility.yul\":3024:3117   */\n      tag_92\n        /* \"#utility.yul\":3113:3116   */\n      dup3\n        /* \"#utility.yul\":3024:3117   */\n      tag_57\n      jump\t// in\n    tag_92:\n        /* \"#utility.yul\":3142:3144   */\n      0x20\n        /* \"#utility.yul\":3137:3140   */\n      dup3\n        /* \"#utility.yul\":3133:3145   */\n      add\n        /* \"#utility.yul\":3126:3145   */\n      swap1\n      pop\n        /* \"#utility.yul\":2785:3151   */\n      swap2\n      swap1\n      pop\n      jump\t// out\n        /* \"#utility.yul\":3157:3576   */\n    tag_36:\n        /* \"#utility.yul\":3323:3327   */\n      0x00\n        /* \"#utility.yul\":3361:3363   */\n      0x20\n        /* \"#utility.yul\":3350:3359   */\n      dup3\n        /* \"#utility.yul\":3346:3364   */\n      add\n        /* \"#utility.yul\":3338:3364   */\n      swap1\n      pop\n        /* \"#utility.yul\":3410:3419   */\n      dup2\n        /* \"#utility.yul\":3404:3408   */\n      dup2\n        /* \"#utility.yul\":3400:3420   */\n      sub\n        /* \"#utility.yul\":3396:3397   */\n      0x00\n        /* \"#utility.yul\":3385:3394   */\n      dup4\n        /* \"#utility.yul\":3381:3398   */\n      add\n        /* \"#utility.yul\":3374:3421   */\n      mstore\n        /* \"#utility.yul\":3438:3569   */\n      tag_94\n        /* \"#utility.yul\":3564:3568   */\n      dup2\n        /* \"#utility.yul\":3438:3569   */\n      tag_58\n      jump\t// in\n    tag_94:\n        /* \"#utility.yul\":3430:3569   */\n      swap1\n      pop\n        /* \"#utility.yul\":3157:3576   */\n      swap2\n      swap1\n      pop\n      jump\t// out\n        /* \"#utility.yul\":3582:3762   */\n    tag_59:\n        /* \"#utility.yul\":3630:3707   */\n      0x4e487b7100000000000000000000000000000000000000000000000000000000\n        /* \"#utility.yul\":3627:3628   */\n      0x00\n        /* \"#utility.yul\":3620:3708   */\n      mstore\n        /* \"#utility.yul\":3727:3731   */\n      0x11\n        /* \"#utility.yul\":3724:3725   */\n      0x04\n        /* \"#utility.yul\":3717:3732   */\n      mstore\n        /* \"#utility.yul\":3751:3755   */\n      0x24\n        /* \"#utility.yul\":3748:3749   */\n      0x00\n        /* \"#utility.yul\":3741:3756   */\n      revert\n        /* \"#utility.yul\":3768:4178   */\n    tag_38:\n        /* \"#utility.yul\":3808:3815   */\n      0x00\n        /* \"#utility.yul\":3831:3851   */\n      tag_97\n        /* \"#utility.yul\":3849:3850   */\n      dup3\n        /* \"#utility.yul\":3831:3851   */\n      tag_53\n      jump\t// in\n    tag_97:\n        /* \"#utility.yul\":3826:3851   */\n      swap2\n      pop\n        /* \"#utility.yul\":3865:3885   */\n      tag_98\n        /* \"#utility.yul\":3883:3884   */\n      dup4\n        /* \"#utility.yul\":3865:3885   */\n      tag_53\n      jump\t// in\n    tag_98:\n        /* \"#utility.yul\":3860:3885   */\n      swap3\n      pop\n        /* \"#utility.yul\":3920:3921   */\n      dup3\n        /* \"#utility.yul\":3917:3918   */\n      dup3\n        /* \"#utility.yul\":3913:3922   */\n      mul\n        /* \"#utility.yul\":3942:3972   */\n      tag_99\n        /* \"#utility.yul\":3960:3971   */\n      dup2\n        /* \"#utility.yul\":3942:3972   */\n      tag_53\n      jump\t// in\n    tag_99:\n        /* \"#utility.yul\":3931:3972   */\n      swap2\n      pop\n        /* \"#utility.yul\":4121:4122   */\n      dup3\n        /* \"#utility.yul\":4112:4119   */\n      dup3\n        /* \"#utility.yul\":4108:4123   */\n      div\n        /* \"#utility.yul\":4105:4106   */\n      dup5\n        /* \"#utility.yul\":4102:4124   */\n      eq\n        /* \"#utility.yul\":4082:4083   */\n      dup4\n        /* \"#utility.yul\":4075:4084   */\n      iszero\n        /* \"#utility.yul\":4055:4138   */\n      or\n        /* \"#utility.yul\":4032:4171   */\n      tag_100\n      jumpi\n        /* \"#utility.yul\":4151:4169   */\n      tag_101\n      tag_59\n      jump\t// in\n    tag_101:\n        /* \"#utility.yul\":4032:4171   */\n    tag_100:\n        /* \"#utility.yul\":3816:4178   */\n      pop\n        /* \"#utility.yul\":3768:4178   */\n      swap3\n      swap2\n      pop\n      pop\n      jump\t// out\n\n    auxdata: 0xa264697066735822122024f2edece4c76a6dabce1b5fee6f2d860db6b51763d8e43cda98b25420373fe264736f6c634300081a0033\n}\n",
				"bytecode": {
					"linkReferences": {},
					"object": "6080604052348015600e575f80fd5b506104848061001c5f395ff3fe608060405234801561000f575f80fd5b5060043610610060575f3560e01c806303e33b5314610064578063291fe982146100825780632dd9868d146100b2578063a887477b146100d0578063e0b8e86a14610100578063fc6c6fd41461011e575b5f80fd5b61006c61013c565b60405161007991906102ce565b60405180910390f35b61009c60048036038101906100979190610325565b610179565b6040516100a9919061035f565b60405180910390f35b6100ba6101e2565b6040516100c7919061035f565b60405180910390f35b6100ea60048036038101906100e59190610325565b6101e7565b6040516100f7919061035f565b60405180910390f35b610108610253565b604051610115919061035f565b60405180910390f35b610126610259565b604051610133919061035f565b60405180910390f35b60606040518060400160405280600c81526020017f48656c6c6f20776f726c64210000000000000000000000000000000000000000815250905090565b5f8082116101bc576040517f08c379a00000000000000000000000000000000000000000000000000000000081526004016101b3906103c2565b60405180910390fd5b818260036101ca919061040d565b6101d4919061040d565b5f819055505f549050919050565b600381565b5f80821161022a576040517f08c379a0000000000000000000000000000000000000000000000000000000008152600401610221906103c2565b60405180910390fd5b8160036002610239919061040d565b610243919061040d565b6001819055506001549050919050565b60015481565b5f5481565b5f81519050919050565b5f82825260208201905092915050565b8281835e5f83830152505050565b5f601f19601f8301169050919050565b5f6102a08261025e565b6102aa8185610268565b93506102ba818560208601610278565b6102c381610286565b840191505092915050565b5f6020820190508181035f8301526102e68184610296565b905092915050565b5f80fd5b5f819050919050565b610304816102f2565b811461030e575f80fd5b50565b5f8135905061031f816102fb565b92915050565b5f6020828403121561033a576103396102ee565b5b5f61034784828501610311565b91505092915050565b610359816102f2565b82525050565b5f6020820190506103725f830184610350565b92915050565b7f4572726f722120526164697573203c20300000000000000000000000000000005f82015250565b5f6103ac601183610268565b91506103b782610378565b602082019050919050565b5f6020820190508181035f8301526103d9816103a0565b9050919050565b7f4e487b71000000000000000000000000000000000000000000000000000000005f52601160045260245ffd5b5f610417826102f2565b9150610422836102f2565b9250828202610430816102f2565b91508282048414831517610447576104466103e0565b5b509291505056fea264697066735822122024f2edece4c76a6dabce1b5fee6f2d860db6b51763d8e43cda98b25420373fe264736f6c634300081a0033",
					"opcodes": "PUSH1 0x80 PUSH1 0x40 MSTORE CALLVALUE DUP1 ISZERO PUSH1 0xE JUMPI PUSH0 DUP1 REVERT JUMPDEST POP PUSH2 0x484 DUP1 PUSH2 0x1C PUSH0 CODECOPY PUSH0 RETURN INVALID PUSH1 0x80 PUSH1 0x40 MSTORE CALLVALUE DUP1 ISZERO PUSH2 0xF JUMPI PUSH0 DUP1 REVERT JUMPDEST POP PUSH1 0x4 CALLDATASIZE LT PUSH2 0x60 JUMPI PUSH0 CALLDATALOAD PUSH1 0xE0 SHR DUP1 PUSH4 0x3E33B53 EQ PUSH2 0x64 JUMPI DUP1 PUSH4 0x291FE982 EQ PUSH2 0x82 JUMPI DUP1 PUSH4 0x2DD9868D EQ PUSH2 0xB2 JUMPI DUP1 PUSH4 0xA887477B EQ PUSH2 0xD0 JUMPI DUP1 PUSH4 0xE0B8E86A EQ PUSH2 0x100 JUMPI DUP1 PUSH4 0xFC6C6FD4 EQ PUSH2 0x11E JUMPI JUMPDEST PUSH0 DUP1 REVERT JUMPDEST PUSH2 0x6C PUSH2 0x13C JUMP JUMPDEST PUSH1 0x40 MLOAD PUSH2 0x79 SWAP2 SWAP1 PUSH2 0x2CE JUMP JUMPDEST PUSH1 0x40 MLOAD DUP1 SWAP2 SUB SWAP1 RETURN JUMPDEST PUSH2 0x9C PUSH1 0x4 DUP1 CALLDATASIZE SUB DUP2 ADD SWAP1 PUSH2 0x97 SWAP2 SWAP1 PUSH2 0x325 JUMP JUMPDEST PUSH2 0x179 JUMP JUMPDEST PUSH1 0x40 MLOAD PUSH2 0xA9 SWAP2 SWAP1 PUSH2 0x35F JUMP JUMPDEST PUSH1 0x40 MLOAD DUP1 SWAP2 SUB SWAP1 RETURN JUMPDEST PUSH2 0xBA PUSH2 0x1E2 JUMP JUMPDEST PUSH1 0x40 MLOAD PUSH2 0xC7 SWAP2 SWAP1 PUSH2 0x35F JUMP JUMPDEST PUSH1 0x40 MLOAD DUP1 SWAP2 SUB SWAP1 RETURN JUMPDEST PUSH2 0xEA PUSH1 0x4 DUP1 CALLDATASIZE SUB DUP2 ADD SWAP1 PUSH2 0xE5 SWAP2 SWAP1 PUSH2 0x325 JUMP JUMPDEST PUSH2 0x1E7 JUMP JUMPDEST PUSH1 0x40 MLOAD PUSH2 0xF7 SWAP2 SWAP1 PUSH2 0x35F JUMP JUMPDEST PUSH1 0x40 MLOAD DUP1 SWAP2 SUB SWAP1 RETURN JUMPDEST PUSH2 0x108 PUSH2 0x253 JUMP JUMPDEST PUSH1 0x40 MLOAD PUSH2 0x115 SWAP2 SWAP1 PUSH2 0x35F JUMP JUMPDEST PUSH1 0x40 MLOAD DUP1 SWAP2 SUB SWAP1 RETURN JUMPDEST PUSH2 0x126 PUSH2 0x259 JUMP JUMPDEST PUSH1 0x40 MLOAD PUSH2 0x133 SWAP2 SWAP1 PUSH2 0x35F JUMP JUMPDEST PUSH1 0x40 MLOAD DUP1 SWAP2 SUB SWAP1 RETURN JUMPDEST PUSH1 0x60 PUSH1 0x40 MLOAD DUP1 PUSH1 0x40 ADD PUSH1 0x40 MSTORE DUP1 PUSH1 0xC DUP2 MSTORE PUSH1 0x20 ADD PUSH32 0x48656C6C6F20776F726C64210000000000000000000000000000000000000000 DUP2 MSTORE POP SWAP1 POP SWAP1 JUMP JUMPDEST PUSH0 DUP1 DUP3 GT PUSH2 0x1BC JUMPI PUSH1 0x40 MLOAD PUSH32 0x8C379A000000000000000000000000000000000000000000000000000000000 DUP2 MSTORE PUSH1 0x4 ADD PUSH2 0x1B3 SWAP1 PUSH2 0x3C2 JUMP JUMPDEST PUSH1 0x40 MLOAD DUP1 SWAP2 SUB SWAP1 REVERT JUMPDEST DUP2 DUP3 PUSH1 0x3 PUSH2 0x1CA SWAP2 SWAP1 PUSH2 0x40D JUMP JUMPDEST PUSH2 0x1D4 SWAP2 SWAP1 PUSH2 0x40D JUMP JUMPDEST PUSH0 DUP2 SWAP1 SSTORE POP PUSH0 SLOAD SWAP1 POP SWAP2 SWAP1 POP JUMP JUMPDEST PUSH1 0x3 DUP2 JUMP JUMPDEST PUSH0 DUP1 DUP3 GT PUSH2 0x22A JUMPI PUSH1 0x40 MLOAD PUSH32 0x8C379A000000000000000000000000000000000000000000000000000000000 DUP2 MSTORE PUSH1 0x4 ADD PUSH2 0x221 SWAP1 PUSH2 0x3C2 JUMP JUMPDEST PUSH1 0x40 MLOAD DUP1 SWAP2 SUB SWAP1 REVERT JUMPDEST DUP2 PUSH1 0x3 PUSH1 0x2 PUSH2 0x239 SWAP2 SWAP1 PUSH2 0x40D JUMP JUMPDEST PUSH2 0x243 SWAP2 SWAP1 PUSH2 0x40D JUMP JUMPDEST PUSH1 0x1 DUP2 SWAP1 SSTORE POP PUSH1 0x1 SLOAD SWAP1 POP SWAP2 SWAP1 POP JUMP JUMPDEST PUSH1 0x1 SLOAD DUP2 JUMP JUMPDEST PUSH0 SLOAD DUP2 JUMP JUMPDEST PUSH0 DUP2 MLOAD SWAP1 POP SWAP2 SWAP1 POP JUMP JUMPDEST PUSH0 DUP3 DUP3 MSTORE PUSH1 0x20 DUP3 ADD SWAP1 POP SWAP3 SWAP2 POP POP JUMP JUMPDEST DUP3 DUP2 DUP4 MCOPY PUSH0 DUP4 DUP4 ADD MSTORE POP POP POP JUMP JUMPDEST PUSH0 PUSH1 0x1F NOT PUSH1 0x1F DUP4 ADD AND SWAP1 POP SWAP2 SWAP1 POP JUMP JUMPDEST PUSH0 PUSH2 0x2A0 DUP3 PUSH2 0x25E JUMP JUMPDEST PUSH2 0x2AA DUP2 DUP6 PUSH2 0x268 JUMP JUMPDEST SWAP4 POP PUSH2 0x2BA DUP2 DUP6 PUSH1 0x20 DUP7 ADD PUSH2 0x278 JUMP JUMPDEST PUSH2 0x2C3 DUP2 PUSH2 0x286 JUMP JUMPDEST DUP5 ADD SWAP2 POP POP SWAP3 SWAP2 POP POP JUMP JUMPDEST PUSH0 PUSH1 0x20 DUP3 ADD SWAP1 POP DUP2 DUP2 SUB PUSH0 DUP4 ADD MSTORE PUSH2 0x2E6 DUP2 DUP5 PUSH2 0x296 JUMP JUMPDEST SWAP1 POP SWAP3 SWAP2 POP POP JUMP JUMPDEST PUSH0 DUP1 REVERT JUMPDEST PUSH0 DUP2 SWAP1 POP SWAP2 SWAP1 POP JUMP JUMPDEST PUSH2 0x304 DUP2 PUSH2 0x2F2 JUMP JUMPDEST DUP2 EQ PUSH2 0x30E JUMPI PUSH0 DUP1 REVERT JUMPDEST POP JUMP JUMPDEST PUSH0 DUP2 CALLDATALOAD SWAP1 POP PUSH2 0x31F DUP2 PUSH2 0x2FB JUMP JUMPDEST SWAP3 SWAP2 POP POP JUMP JUMPDEST PUSH0 PUSH1 0x20 DUP3 DUP5 SUB SLT ISZERO PUSH2 0x33A JUMPI PUSH2 0x339 PUSH2 0x2EE JUMP JUMPDEST JUMPDEST PUSH0 PUSH2 0x347 DUP5 DUP3 DUP6 ADD PUSH2 0x311 JUMP JUMPDEST SWAP2 POP POP SWAP3 SWAP2 POP POP JUMP JUMPDEST PUSH2 0x359 DUP2 PUSH2 0x2F2 JUMP JUMPDEST DUP3 MSTORE POP POP JUMP JUMPDEST PUSH0 PUSH1 0x20 DUP3 ADD SWAP1 POP PUSH2 0x372 PUSH0 DUP4 ADD DUP5 PUSH2 0x350 JUMP JUMPDEST SWAP3 SWAP2 POP POP JUMP JUMPDEST PUSH32 0x4572726F722120526164697573203C2030000000000000000000000000000000 PUSH0 DUP3 ADD MSTORE POP JUMP JUMPDEST PUSH0 PUSH2 0x3AC PUSH1 0x11 DUP4 PUSH2 0x268 JUMP JUMPDEST SWAP2 POP PUSH2 0x3B7 DUP3 PUSH2 0x378 JUMP JUMPDEST PUSH1 0x20 DUP3 ADD SWAP1 POP SWAP2 SWAP1 POP JUMP JUMPDEST PUSH0 PUSH1 0x20 DUP3 ADD SWAP1 POP DUP2 DUP2 SUB PUSH0 DUP4 ADD MSTORE PUSH2 0x3D9 DUP2 PUSH2 0x3A0 JUMP JUMPDEST SWAP1 POP SWAP2 SWAP1 POP JUMP JUMPDEST PUSH32 0x4E487B7100000000000000000000000000000000000000000000000000000000 PUSH0 MSTORE PUSH1 0x11 PUSH1 0x4 MSTORE PUSH1 0x24 PUSH0 REVERT JUMPDEST PUSH0 PUSH2 0x417 DUP3 PUSH2 0x2F2 JUMP JUMPDEST SWAP2 POP PUSH2 0x422 DUP4 PUSH2 0x2F2 JUMP JUMPDEST SWAP3 POP DUP3 DUP3 MUL PUSH2 0x430 DUP2 PUSH2 0x2F2 JUMP JUMPDEST SWAP2 POP DUP3 DUP3 DIV DUP5 EQ DUP4 ISZERO OR PUSH2 0x447 JUMPI PUSH2 0x446 PUSH2 0x3E0 JUMP JUMPDEST JUMPDEST POP SWAP3 SWAP2 POP POP JUMP INVALID LOG2 PUSH5 0x6970667358 0x22 SLT KECCAK256 0x24 CALLCODE 0xED 0xEC 0xE4 0xC7 PUSH11 0x6DABCE1B5FEE6F2D860DB6 0xB5 OR PUSH4 0xD8E43CDA SWAP9 0xB2 SLOAD KECCAK256 CALLDATACOPY EXTCODEHASH 0xE2 PUSH5 0x736F6C6343 STOP ADDMOD BYTE STOP CALLER "
				},
				"gasEstimates": {
					"creation": {
						"codeDepositCost": "231200",
						"executionCost": "273",
						"totalCost": "231473"
					},
					"external": {
						"GetArea(uint256)": "infinite",
						"GetMessage()": "infinite",
						"GetPerimetr(uint256)": "infinite",
						"_area()": "2512",
						"_perimetr()": "2491",
						"pi()": "347"
					}
				},
				"methodIdentifiers": {
					"GetArea(uint256)": "291fe982",
					"GetMessage()": "03e33b53",
					"GetPerimetr(uint256)": "a887477b",
					"_area()": "fc6c6fd4",
					"_perimetr()": "e0b8e86a",
					"pi()": "2dd9868d"
				}
			},
			"storageLayout": {
				"storage": [
					{
						"astId": 82,
						"contract": "3 занятие/classes.sol:CircleInfo",
						"label": "_area",
						"offset": 0,
						"slot": "0",
						"type": "t_uint256"
					},
					{
						"astId": 84,
						"contract": "3 занятие/classes.sol:CircleInfo",
						"label": "_perimetr",
						"offset": 0,
						"slot": "1",
						"type": "t_uint256"
					}
				],
				"types": {
					"t_uint256": {
						"encoding": "inplace",
						"label": "uint256",
						"numberOfBytes": "32"
					}
				}
			},
			"userdoc": {
				"kind": "user",
				"methods": {},
				"version": 1
			}
		}
	}
}