{
	"data": {
		"bytecode": {
			"linkReferences": {},
			"object": "6080604052348015600e575f80fd5b5061044a8061001c5f395ff3fe608060405234801561000f575f80fd5b506004361061003f575f3560e01c8063910098ae1461004357806391501a0c14610073578063ce6d41de146100a3575b5f80fd5b61005d60048036038101906100589190610215565b6100c1565b60405161006a9190610262565b60405180910390f35b61008d60048036038101906100889190610215565b610138565b60405161009a9190610262565b60405180910390f35b6100ab6101a1565b6040516100b891906102eb565b60405180910390f35b5f80831180156100d057505f82115b61010f576040517f08c379a000000000000000000000000000000000000000000000000000000000815260040161010690610355565b60405180910390fd5b818361011b91906103a0565b600261012791906103d3565b600181905550600154905092915050565b5f808311801561014757505f82115b610186576040517f08c379a000000000000000000000000000000000000000000000000000000000815260040161017d90610355565b60405180910390fd5b818361019291906103d3565b5f819055505f54905092915050565b60606040518060400160405280600c81526020017f48656c6c6f20776f726c64210000000000000000000000000000000000000000815250905090565b5f80fd5b5f819050919050565b6101f4816101e2565b81146101fe575f80fd5b50565b5f8135905061020f816101eb565b92915050565b5f806040838503121561022b5761022a6101de565b5b5f61023885828601610201565b925050602061024985828601610201565b9150509250929050565b61025c816101e2565b82525050565b5f6020820190506102755f830184610253565b92915050565b5f81519050919050565b5f82825260208201905092915050565b8281835e5f83830152505050565b5f601f19601f8301169050919050565b5f6102bd8261027b565b6102c78185610285565b93506102d7818560208601610295565b6102e0816102a3565b840191505092915050565b5f6020820190508181035f83015261030381846102b3565b905092915050565b7f4572726f722120576964746820616e64206c656e677468203e203000000000005f82015250565b5f61033f601b83610285565b915061034a8261030b565b602082019050919050565b5f6020820190508181035f83015261036c81610333565b9050919050565b7f4e487b71000000000000000000000000000000000000000000000000000000005f52601160045260245ffd5b5f6103aa826101e2565b91506103b5836101e2565b92508282019050808211156103cd576103cc610373565b5b92915050565b5f6103dd826101e2565b91506103e8836101e2565b92508282026103f6816101e2565b9150828204841483151761040d5761040c610373565b5b509291505056fea2646970667358221220e7ce440a12238743060288f0a6cd8f03c966589615d0a6a97097922fc097db3664736f6c634300081a0033",
			"opcodes": "PUSH1 0x80 PUSH1 0x40 MSTORE CALLVALUE DUP1 ISZERO PUSH1 0xE JUMPI PUSH0 DUP1 REVERT JUMPDEST POP PUSH2 0x44A DUP1 PUSH2 0x1C PUSH0 CODECOPY PUSH0 RETURN INVALID PUSH1 0x80 PUSH1 0x40 MSTORE CALLVALUE DUP1 ISZERO PUSH2 0xF JUMPI PUSH0 DUP1 REVERT JUMPDEST POP PUSH1 0x4 CALLDATASIZE LT PUSH2 0x3F JUMPI PUSH0 CALLDATALOAD PUSH1 0xE0 SHR DUP1 PUSH4 0x910098AE EQ PUSH2 0x43 JUMPI DUP1 PUSH4 0x91501A0C EQ PUSH2 0x73 JUMPI DUP1 PUSH4 0xCE6D41DE EQ PUSH2 0xA3 JUMPI JUMPDEST PUSH0 DUP1 REVERT JUMPDEST PUSH2 0x5D PUSH1 0x4 DUP1 CALLDATASIZE SUB DUP2 ADD SWAP1 PUSH2 0x58 SWAP2 SWAP1 PUSH2 0x215 JUMP JUMPDEST PUSH2 0xC1 JUMP JUMPDEST PUSH1 0x40 MLOAD PUSH2 0x6A SWAP2 SWAP1 PUSH2 0x262 JUMP JUMPDEST PUSH1 0x40 MLOAD DUP1 SWAP2 SUB SWAP1 RETURN JUMPDEST PUSH2 0x8D PUSH1 0x4 DUP1 CALLDATASIZE SUB DUP2 ADD SWAP1 PUSH2 0x88 SWAP2 SWAP1 PUSH2 0x215 JUMP JUMPDEST PUSH2 0x138 JUMP JUMPDEST PUSH1 0x40 MLOAD PUSH2 0x9A SWAP2 SWAP1 PUSH2 0x262 JUMP JUMPDEST PUSH1 0x40 MLOAD DUP1 SWAP2 SUB SWAP1 RETURN JUMPDEST PUSH2 0xAB PUSH2 0x1A1 JUMP JUMPDEST PUSH1 0x40 MLOAD PUSH2 0xB8 SWAP2 SWAP1 PUSH2 0x2EB JUMP JUMPDEST PUSH1 0x40 MLOAD DUP1 SWAP2 SUB SWAP1 RETURN JUMPDEST PUSH0 DUP1 DUP4 GT DUP1 ISZERO PUSH2 0xD0 JUMPI POP PUSH0 DUP3 GT JUMPDEST PUSH2 0x10F JUMPI PUSH1 0x40 MLOAD PUSH32 0x8C379A000000000000000000000000000000000000000000000000000000000 DUP2 MSTORE PUSH1 0x4 ADD PUSH2 0x106 SWAP1 PUSH2 0x355 JUMP JUMPDEST PUSH1 0x40 MLOAD DUP1 SWAP2 SUB SWAP1 REVERT JUMPDEST DUP2 DUP4 PUSH2 0x11B SWAP2 SWAP1 PUSH2 0x3A0 JUMP JUMPDEST PUSH1 0x2 PUSH2 0x127 SWAP2 SWAP1 PUSH2 0x3D3 JUMP JUMPDEST PUSH1 0x1 DUP2 SWAP1 SSTORE POP PUSH1 0x1 SLOAD SWAP1 POP SWAP3 SWAP2 POP POP JUMP JUMPDEST PUSH0 DUP1 DUP4 GT DUP1 ISZERO PUSH2 0x147 JUMPI POP PUSH0 DUP3 GT JUMPDEST PUSH2 0x186 JUMPI PUSH1 0x40 MLOAD PUSH32 0x8C379A000000000000000000000000000000000000000000000000000000000 DUP2 MSTORE PUSH1 0x4 ADD PUSH2 0x17D SWAP1 PUSH2 0x355 JUMP JUMPDEST PUSH1 0x40 MLOAD DUP1 SWAP2 SUB SWAP1 REVERT JUMPDEST DUP2 DUP4 PUSH2 0x192 SWAP2 SWAP1 PUSH2 0x3D3 JUMP JUMPDEST PUSH0 DUP2 SWAP1 SSTORE POP PUSH0 SLOAD SWAP1 POP SWAP3 SWAP2 POP POP JUMP JUMPDEST PUSH1 0x60 PUSH1 0x40 MLOAD DUP1 PUSH1 0x40 ADD PUSH1 0x40 MSTORE DUP1 PUSH1 0xC DUP2 MSTORE PUSH1 0x20 ADD PUSH32 0x48656C6C6F20776F726C64210000000000000000000000000000000000000000 DUP2 MSTORE POP SWAP1 POP SWAP1 JUMP JUMPDEST PUSH0 DUP1 REVERT JUMPDEST PUSH0 DUP2 SWAP1 POP SWAP2 SWAP1 POP JUMP JUMPDEST PUSH2 0x1F4 DUP2 PUSH2 0x1E2 JUMP JUMPDEST DUP2 EQ PUSH2 0x1FE JUMPI PUSH0 DUP1 REVERT JUMPDEST POP JUMP JUMPDEST PUSH0 DUP2 CALLDATALOAD SWAP1 POP PUSH2 0x20F DUP2 PUSH2 0x1EB JUMP JUMPDEST SWAP3 SWAP2 POP POP JUMP JUMPDEST PUSH0 DUP1 PUSH1 0x40 DUP4 DUP6 SUB SLT ISZERO PUSH2 0x22B JUMPI PUSH2 0x22A PUSH2 0x1DE JUMP JUMPDEST JUMPDEST PUSH0 PUSH2 0x238 DUP6 DUP3 DUP7 ADD PUSH2 0x201 JUMP JUMPDEST SWAP3 POP POP PUSH1 0x20 PUSH2 0x249 DUP6 DUP3 DUP7 ADD PUSH2 0x201 JUMP JUMPDEST SWAP2 POP POP SWAP3 POP SWAP3 SWAP1 POP JUMP JUMPDEST PUSH2 0x25C DUP2 PUSH2 0x1E2 JUMP JUMPDEST DUP3 MSTORE POP POP JUMP JUMPDEST PUSH0 PUSH1 0x20 DUP3 ADD SWAP1 POP PUSH2 0x275 PUSH0 DUP4 ADD DUP5 PUSH2 0x253 JUMP JUMPDEST SWAP3 SWAP2 POP POP JUMP JUMPDEST PUSH0 DUP2 MLOAD SWAP1 POP SWAP2 SWAP1 POP JUMP JUMPDEST PUSH0 DUP3 DUP3 MSTORE PUSH1 0x20 DUP3 ADD SWAP1 POP SWAP3 SWAP2 POP POP JUMP JUMPDEST DUP3 DUP2 DUP4 MCOPY PUSH0 DUP4 DUP4 ADD MSTORE POP POP POP JUMP JUMPDEST PUSH0 PUSH1 0x1F NOT PUSH1 0x1F DUP4 ADD AND SWAP1 POP SWAP2 SWAP1 POP JUMP JUMPDEST PUSH0 PUSH2 0x2BD DUP3 PUSH2 0x27B JUMP JUMPDEST PUSH2 0x2C7 DUP2 DUP6 PUSH2 0x285 JUMP JUMPDEST SWAP4 POP PUSH2 0x2D7 DUP2 DUP6 PUSH1 0x20 DUP7 ADD PUSH2 0x295 JUMP JUMPDEST PUSH2 0x2E0 DUP2 PUSH2 0x2A3 JUMP JUMPDEST DUP5 ADD SWAP2 POP POP SWAP3 SWAP2 POP POP JUMP JUMPDEST PUSH0 PUSH1 0x20 DUP3 ADD SWAP1 POP DUP2 DUP2 SUB PUSH0 DUP4 ADD MSTORE PUSH2 0x303 DUP2 DUP5 PUSH2 0x2B3 JUMP JUMPDEST SWAP1 POP SWAP3 SWAP2 POP POP JUMP JUMPDEST PUSH32 0x4572726F722120576964746820616E64206C656E677468203E20300000000000 PUSH0 DUP3 ADD MSTORE POP JUMP JUMPDEST PUSH0 PUSH2 0x33F PUSH1 0x1B DUP4 PUSH2 0x285 JUMP JUMPDEST SWAP2 POP PUSH2 0x34A DUP3 PUSH2 0x30B JUMP JUMPDEST PUSH1 0x20 DUP3 ADD SWAP1 POP SWAP2 SWAP1 POP JUMP JUMPDEST PUSH0 PUSH1 0x20 DUP3 ADD SWAP1 POP DUP2 DUP2 SUB PUSH0 DUP4 ADD MSTORE PUSH2 0x36C DUP2 PUSH2 0x333 JUMP JUMPDEST SWAP1 POP SWAP2 SWAP1 POP JUMP JUMPDEST PUSH32 0x4E487B7100000000000000000000000000000000000000000000000000000000 PUSH0 MSTORE PUSH1 0x11 PUSH1 0x4 MSTORE PUSH1 0x24 PUSH0 REVERT JUMPDEST PUSH0 PUSH2 0x3AA DUP3 PUSH2 0x1E2 JUMP JUMPDEST SWAP2 POP PUSH2 0x3B5 DUP4 PUSH2 0x1E2 JUMP JUMPDEST SWAP3 POP DUP3 DUP3 ADD SWAP1 POP DUP1 DUP3 GT ISZERO PUSH2 0x3CD JUMPI PUSH2 0x3CC PUSH2 0x373 JUMP JUMPDEST JUMPDEST SWAP3 SWAP2 POP POP JUMP JUMPDEST PUSH0 PUSH2 0x3DD DUP3 PUSH2 0x1E2 JUMP JUMPDEST SWAP2 POP PUSH2 0x3E8 DUP4 PUSH2 0x1E2 JUMP JUMPDEST SWAP3 POP DUP3 DUP3 MUL PUSH2 0x3F6 DUP2 PUSH2 0x1E2 JUMP JUMPDEST SWAP2 POP DUP3 DUP3 DIV DUP5 EQ DUP4 ISZERO OR PUSH2 0x40D JUMPI PUSH2 0x40C PUSH2 0x373 JUMP JUMPDEST JUMPDEST POP SWAP3 SWAP2 POP POP JUMP INVALID LOG2 PUSH5 0x6970667358 0x22 SLT KECCAK256 0xE7 0xCE PREVRANDAO EXP SLT 0x23 DUP8 NUMBER MOD MUL DUP9 CREATE 0xA6 0xCD DUP16 SUB 0xC9 PUSH7 0x589615D0A6A970 SWAP8 SWAP3 0x2F 0xC0 SWAP8 0xDB CALLDATASIZE PUSH5 0x736F6C6343 STOP ADDMOD BYTE STOP CALLER "
		},
		"gasEstimates": {
			"creation": {
				"codeDepositCost": "219600",
				"executionCost": "261",
				"totalCost": "219861"
			},
			"external": {
				"getArea(uint256,uint256)": "infinite",
				"getMessage()": "infinite",
				"getPerimetr(uint256,uint256)": "infinite"
			}
		},
		"methodIdentifiers": {
			"getArea(uint256,uint256)": "91501a0c",
			"getMessage()": "ce6d41de",
			"getPerimetr(uint256,uint256)": "910098ae"
		}
	},
	"abi": [
		{
			"inputs": [
				{
					"internalType": "uint256",
					"name": "width",
					"type": "uint256"
				},
				{
					"internalType": "uint256",
					"name": "length",
					"type": "uint256"
				}
			],
			"name": "getArea",
			"outputs": [
				{
					"internalType": "uint256",
					"name": "",
					"type": "uint256"
				}
			],
			"stateMutability": "nonpayable",
			"type": "function"
		},
		{
			"inputs": [],
			"name": "getMessage",
			"outputs": [
				{
					"internalType": "string",
					"name": "",
					"type": "string"
				}
			],
			"stateMutability": "pure",
			"type": "function"
		},
		{
			"inputs": [
				{
					"internalType": "uint256",
					"name": "width",
					"type": "uint256"
				},
				{
					"internalType": "uint256",
					"name": "length",
					"type": "uint256"
				}
			],
			"name": "getPerimetr",
			"outputs": [
				{
					"internalType": "uint256",
					"name": "",
					"type": "uint256"
				}
			],
			"stateMutability": "nonpayable",
			"type": "function"
		}
	]
}