{
	"9 занятие/Завещание.sol": {
		"Bequest": {
			"abi": [
				{
					"inputs": [],
					"stateMutability": "nonpayable",
					"type": "constructor"
				},
				{
					"anonymous": false,
					"inputs": [],
					"name": "DeathNotificationCancelled",
					"type": "event"
				},
				{
					"anonymous": false,
					"inputs": [],
					"name": "DeathNotified",
					"type": "event"
				},
				{
					"anonymous": false,
					"inputs": [
						{
							"indexed": true,
							"internalType": "address",
							"name": "heir",
							"type": "address"
						},
						{
							"indexed": false,
							"internalType": "uint256",
							"name": "amount",
							"type": "uint256"
						}
					],
					"name": "FundsDeposited",
					"type": "event"
				},
				{
					"anonymous": false,
					"inputs": [
						{
							"indexed": true,
							"internalType": "address",
							"name": "heir",
							"type": "address"
						},
						{
							"indexed": false,
							"internalType": "uint256",
							"name": "amount",
							"type": "uint256"
						}
					],
					"name": "FundsWithdrawn",
					"type": "event"
				},
				{
					"anonymous": false,
					"inputs": [
						{
							"indexed": true,
							"internalType": "address",
							"name": "heir",
							"type": "address"
						},
						{
							"indexed": false,
							"internalType": "uint256",
							"name": "amount",
							"type": "uint256"
						}
					],
					"name": "InheritanceClaimed",
					"type": "event"
				},
				{
					"inputs": [],
					"name": "cancelDeathNotification",
					"outputs": [],
					"stateMutability": "nonpayable",
					"type": "function"
				},
				{
					"inputs": [],
					"name": "claimInheritance",
					"outputs": [],
					"stateMutability": "nonpayable",
					"type": "function"
				},
				{
					"inputs": [],
					"name": "contractStartTime",
					"outputs": [
						{
							"internalType": "uint256",
							"name": "",
							"type": "uint256"
						}
					],
					"stateMutability": "view",
					"type": "function"
				},
				{
					"inputs": [],
					"name": "deathNotificationTime",
					"outputs": [
						{
							"internalType": "uint256",
							"name": "",
							"type": "uint256"
						}
					],
					"stateMutability": "view",
					"type": "function"
				},
				{
					"inputs": [],
					"name": "deathNotified",
					"outputs": [
						{
							"internalType": "bool",
							"name": "",
							"type": "bool"
						}
					],
					"stateMutability": "view",
					"type": "function"
				},
				{
					"inputs": [
						{
							"internalType": "address",
							"name": "heir",
							"type": "address"
						},
						{
							"internalType": "uint256",
							"name": "amount",
							"type": "uint256"
						}
					],
					"name": "depositFunds",
					"outputs": [],
					"stateMutability": "payable",
					"type": "function"
				},
				{
					"inputs": [],
					"name": "grandmother",
					"outputs": [
						{
							"internalType": "address",
							"name": "",
							"type": "address"
						}
					],
					"stateMutability": "view",
					"type": "function"
				},
				{
					"inputs": [],
					"name": "initiateInheritanceAfter15Years",
					"outputs": [],
					"stateMutability": "nonpayable",
					"type": "function"
				},
				{
					"inputs": [],
					"name": "initiateInheritanceWithConsensus",
					"outputs": [],
					"stateMutability": "nonpayable",
					"type": "function"
				},
				{
					"inputs": [],
					"name": "notifyDeath",
					"outputs": [],
					"stateMutability": "nonpayable",
					"type": "function"
				},
				{
					"inputs": [
						{
							"internalType": "address",
							"name": "_trustee",
							"type": "address"
						}
					],
					"name": "setTrustee",
					"outputs": [],
					"stateMutability": "nonpayable",
					"type": "function"
				},
				{
					"inputs": [],
					"name": "trustee",
					"outputs": [
						{
							"internalType": "address",
							"name": "",
							"type": "address"
						}
					],
					"stateMutability": "view",
					"type": "function"
				},
				{
					"inputs": [
						{
							"internalType": "address",
							"name": "heir",
							"type": "address"
						}
					],
					"name": "viewHeirAllocation",
					"outputs": [
						{
							"internalType": "uint256",
							"name": "",
							"type": "uint256"
						}
					],
					"stateMutability": "view",
					"type": "function"
				},
				{
					"inputs": [],
					"name": "withdrawAll",
					"outputs": [],
					"stateMutability": "nonpayable",
					"type": "function"
				},
				{
					"inputs": [
						{
							"internalType": "address",
							"name": "heir",
							"type": "address"
						},
						{
							"internalType": "uint256",
							"name": "amount",
							"type": "uint256"
						}
					],
					"name": "withdrawFunds",
					"outputs": [],
					"stateMutability": "nonpayable",
					"type": "function"
				}
			],
			"devdoc": {
				"kind": "dev",
				"methods": {},
				"version": 1
			},
			"evm": {
				"assembly": "    /* \"9 \\xd0\\xb7\\xd0\\xb0\\xd0\\xbd\\xd1\\x8f\\xd1\\x82\\xd0\\xb8\\xd0\\xb5/\\xd0\\x97\\xd0\\xb0\\xd0\\xb2\\xd0\\xb5\\xd1\\x89\\xd0\\xb0\\xd0\\xbd\\xd0\\xb8\\xd0\\xb5.sol\":60:7302  contract Bequest {... */\n  mstore(0x40, 0x80)\n    /* \"9 \\xd0\\xb7\\xd0\\xb0\\xd0\\xbd\\xd1\\x8f\\xd1\\x82\\xd0\\xb8\\xd0\\xb5/\\xd0\\x97\\xd0\\xb0\\xd0\\xb2\\xd0\\xb5\\xd1\\x89\\xd0\\xb0\\xd0\\xbd\\xd0\\xb8\\xd0\\xb5.sol\":2192:2295  constructor() {... */\n  callvalue\n  dup1\n  iszero\n  tag_1\n  jumpi\n  0x00\n  dup1\n  revert\ntag_1:\n  pop\n    /* \"9 \\xd0\\xb7\\xd0\\xb0\\xd0\\xbd\\xd1\\x8f\\xd1\\x82\\xd0\\xb8\\xd0\\xb5/\\xd0\\x97\\xd0\\xb0\\xd0\\xb2\\xd0\\xb5\\xd1\\x89\\xd0\\xb0\\xd0\\xbd\\xd0\\xb8\\xd0\\xb5.sol\":2231:2241  msg.sender */\n  caller\n    /* \"9 \\xd0\\xb7\\xd0\\xb0\\xd0\\xbd\\xd1\\x8f\\xd1\\x82\\xd0\\xb8\\xd0\\xb5/\\xd0\\x97\\xd0\\xb0\\xd0\\xb2\\xd0\\xb5\\xd1\\x89\\xd0\\xb0\\xd0\\xbd\\xd0\\xb8\\xd0\\xb5.sol\":2217:2228  grandmother */\n  0x00\n  dup1\n    /* \"9 \\xd0\\xb7\\xd0\\xb0\\xd0\\xbd\\xd1\\x8f\\xd1\\x82\\xd0\\xb8\\xd0\\xb5/\\xd0\\x97\\xd0\\xb0\\xd0\\xb2\\xd0\\xb5\\xd1\\x89\\xd0\\xb0\\xd0\\xbd\\xd0\\xb8\\xd0\\xb5.sol\":2217:2241  grandmother = msg.sender */\n  0x0100\n  exp\n  dup2\n  sload\n  dup2\n  0xffffffffffffffffffffffffffffffffffffffff\n  mul\n  not\n  and\n  swap1\n  dup4\n  0xffffffffffffffffffffffffffffffffffffffff\n  and\n  mul\n  or\n  swap1\n  sstore\n  pop\n    /* \"9 \\xd0\\xb7\\xd0\\xb0\\xd0\\xbd\\xd1\\x8f\\xd1\\x82\\xd0\\xb8\\xd0\\xb5/\\xd0\\x97\\xd0\\xb0\\xd0\\xb2\\xd0\\xb5\\xd1\\x89\\xd0\\xb0\\xd0\\xbd\\xd0\\xb8\\xd0\\xb5.sol\":2272:2287  block.timestamp */\n  timestamp\n    /* \"9 \\xd0\\xb7\\xd0\\xb0\\xd0\\xbd\\xd1\\x8f\\xd1\\x82\\xd0\\xb8\\xd0\\xb5/\\xd0\\x97\\xd0\\xb0\\xd0\\xb2\\xd0\\xb5\\xd1\\x89\\xd0\\xb0\\xd0\\xbd\\xd0\\xb8\\xd0\\xb5.sol\":2252:2269  contractStartTime */\n  0x02\n    /* \"9 \\xd0\\xb7\\xd0\\xb0\\xd0\\xbd\\xd1\\x8f\\xd1\\x82\\xd0\\xb8\\xd0\\xb5/\\xd0\\x97\\xd0\\xb0\\xd0\\xb2\\xd0\\xb5\\xd1\\x89\\xd0\\xb0\\xd0\\xbd\\xd0\\xb8\\xd0\\xb5.sol\":2252:2287  contractStartTime = block.timestamp */\n  dup2\n  swap1\n  sstore\n  pop\n    /* \"9 \\xd0\\xb7\\xd0\\xb0\\xd0\\xbd\\xd1\\x8f\\xd1\\x82\\xd0\\xb8\\xd0\\xb5/\\xd0\\x97\\xd0\\xb0\\xd0\\xb2\\xd0\\xb5\\xd1\\x89\\xd0\\xb0\\xd0\\xbd\\xd0\\xb8\\xd0\\xb5.sol\":60:7302  contract Bequest {... */\n  dataSize(sub_0)\n  dup1\n  dataOffset(sub_0)\n  0x00\n  codecopy\n  0x00\n  return\nstop\n\nsub_0: assembly {\n        /* \"9 \\xd0\\xb7\\xd0\\xb0\\xd0\\xbd\\xd1\\x8f\\xd1\\x82\\xd0\\xb8\\xd0\\xb5/\\xd0\\x97\\xd0\\xb0\\xd0\\xb2\\xd0\\xb5\\xd1\\x89\\xd0\\xb0\\xd0\\xbd\\xd0\\xb8\\xd0\\xb5.sol\":60:7302  contract Bequest {... */\n      mstore(0x40, 0x80)\n      jumpi(tag_1, lt(calldatasize, 0x04))\n      shr(0xe0, calldataload(0x00))\n      dup1\n      0x9393d82e\n      gt\n      tag_17\n      jumpi\n      dup1\n      0xc19f4121\n      gt\n      tag_18\n      jumpi\n      dup1\n      0xc19f4121\n      eq\n      tag_13\n      jumpi\n      dup1\n      0xd0d1ea70\n      eq\n      tag_14\n      jumpi\n      dup1\n      0xebc392ec\n      eq\n      tag_15\n      jumpi\n      dup1\n      0xfdf97cb2\n      eq\n      tag_16\n      jumpi\n      jump(tag_1)\n    tag_18:\n      dup1\n      0x9393d82e\n      eq\n      tag_9\n      jumpi\n      dup1\n      0x93fbbe0e\n      eq\n      tag_10\n      jumpi\n      dup1\n      0x9f3c4416\n      eq\n      tag_11\n      jumpi\n      dup1\n      0xc1075329\n      eq\n      tag_12\n      jumpi\n      jump(tag_1)\n    tag_17:\n      dup1\n      0x6352849f\n      gt\n      tag_19\n      jumpi\n      dup1\n      0x6352849f\n      eq\n      tag_5\n      jumpi\n      dup1\n      0x853828b6\n      eq\n      tag_6\n      jumpi\n      dup1\n      0x904dbc86\n      eq\n      tag_7\n      jumpi\n      dup1\n      0x921b004b\n      eq\n      tag_8\n      jumpi\n      jump(tag_1)\n    tag_19:\n      dup1\n      0x0c3d5157\n      eq\n      tag_2\n      jumpi\n      dup1\n      0x47e88ce4\n      eq\n      tag_3\n      jumpi\n      dup1\n      0x4f4ae41b\n      eq\n      tag_4\n      jumpi\n    tag_1:\n      0x00\n      dup1\n      revert\n        /* \"9 \\xd0\\xb7\\xd0\\xb0\\xd0\\xbd\\xd1\\x8f\\xd1\\x82\\xd0\\xb8\\xd0\\xb5/\\xd0\\x97\\xd0\\xb0\\xd0\\xb2\\xd0\\xb5\\xd1\\x89\\xd0\\xb0\\xd0\\xbd\\xd0\\xb8\\xd0\\xb5.sol\":188:220  uint256 public contractStartTime */\n    tag_2:\n      callvalue\n      dup1\n      iszero\n      tag_20\n      jumpi\n      0x00\n      dup1\n      revert\n    tag_20:\n      pop\n      tag_21\n      tag_22\n      jump\t// in\n    tag_21:\n      mload(0x40)\n      tag_23\n      swap2\n      swap1\n      tag_24\n      jump\t// in\n    tag_23:\n      mload(0x40)\n      dup1\n      swap2\n      sub\n      swap1\n      return\n        /* \"9 \\xd0\\xb7\\xd0\\xb0\\xd0\\xbd\\xd1\\x8f\\xd1\\x82\\xd0\\xb8\\xd0\\xb5/\\xd0\\x97\\xd0\\xb0\\xd0\\xb2\\xd0\\xb5\\xd1\\x89\\xd0\\xb0\\xd0\\xbd\\xd0\\xb8\\xd0\\xb5.sol\":6684:6794  function initiateInheritanceAfter15Years() external after15Years onlyHeir {... */\n    tag_3:\n      callvalue\n      dup1\n      iszero\n      tag_25\n      jumpi\n      0x00\n      dup1\n      revert\n    tag_25:\n      pop\n      tag_26\n      tag_27\n      jump\t// in\n    tag_26:\n      stop\n        /* \"9 \\xd0\\xb7\\xd0\\xb0\\xd0\\xbd\\xd1\\x8f\\xd1\\x82\\xd0\\xb8\\xd0\\xb5/\\xd0\\x97\\xd0\\xb0\\xd0\\xb2\\xd0\\xb5\\xd1\\x89\\xd0\\xb0\\xd0\\xbd\\xd0\\xb8\\xd0\\xb5.sol\":3987:4121  function viewHeirAllocation(address heir) external view onlyGrandmother returns (uint256) {... */\n    tag_4:\n      callvalue\n      dup1\n      iszero\n      tag_28\n      jumpi\n      0x00\n      dup1\n      revert\n    tag_28:\n      pop\n      tag_29\n      0x04\n      dup1\n      calldatasize\n      sub\n      dup2\n      add\n      swap1\n      tag_30\n      swap2\n      swap1\n      tag_31\n      jump\t// in\n    tag_30:\n      tag_32\n      jump\t// in\n    tag_29:\n      mload(0x40)\n      tag_33\n      swap2\n      swap1\n      tag_24\n      jump\t// in\n    tag_33:\n      mload(0x40)\n      dup1\n      swap2\n      sub\n      swap1\n      return\n        /* \"9 \\xd0\\xb7\\xd0\\xb0\\xd0\\xbd\\xd1\\x8f\\xd1\\x82\\xd0\\xb8\\xd0\\xb5/\\xd0\\x97\\xd0\\xb0\\xd0\\xb2\\xd0\\xb5\\xd1\\x89\\xd0\\xb0\\xd0\\xbd\\xd0\\xb8\\xd0\\xb5.sol\":4879:5019  function cancelDeathNotification() external onlyTrustee {... */\n    tag_5:\n      callvalue\n      dup1\n      iszero\n      tag_34\n      jumpi\n      0x00\n      dup1\n      revert\n    tag_34:\n      pop\n      tag_35\n      tag_36\n      jump\t// in\n    tag_35:\n      stop\n        /* \"9 \\xd0\\xb7\\xd0\\xb0\\xd0\\xbd\\xd1\\x8f\\xd1\\x82\\xd0\\xb8\\xd0\\xb5/\\xd0\\x97\\xd0\\xb0\\xd0\\xb2\\xd0\\xb5\\xd1\\x89\\xd0\\xb0\\xd0\\xbd\\xd0\\xb8\\xd0\\xb5.sol\":3520:3797  function withdrawAll() external onlyGrandmother {... */\n    tag_6:\n      callvalue\n      dup1\n      iszero\n      tag_37\n      jumpi\n      0x00\n      dup1\n      revert\n    tag_37:\n      pop\n      tag_38\n      tag_39\n      jump\t// in\n    tag_38:\n      stop\n        /* \"9 \\xd0\\xb7\\xd0\\xb0\\xd0\\xbd\\xd1\\x8f\\xd1\\x82\\xd0\\xb8\\xd0\\xb5/\\xd0\\x97\\xd0\\xb0\\xd0\\xb2\\xd0\\xb5\\xd1\\x89\\xd0\\xb0\\xd0\\xbd\\xd0\\xb8\\xd0\\xb5.sol\":227:252  bool public deathNotified */\n    tag_7:\n      callvalue\n      dup1\n      iszero\n      tag_40\n      jumpi\n      0x00\n      dup1\n      revert\n    tag_40:\n      pop\n      tag_41\n      tag_42\n      jump\t// in\n    tag_41:\n      mload(0x40)\n      tag_43\n      swap2\n      swap1\n      tag_44\n      jump\t// in\n    tag_43:\n      mload(0x40)\n      dup1\n      swap2\n      sub\n      swap1\n      return\n        /* \"9 \\xd0\\xb7\\xd0\\xb0\\xd0\\xbd\\xd1\\x8f\\xd1\\x82\\xd0\\xb8\\xd0\\xb5/\\xd0\\x97\\xd0\\xb0\\xd0\\xb2\\xd0\\xb5\\xd1\\x89\\xd0\\xb0\\xd0\\xbd\\xd0\\xb8\\xd0\\xb5.sol\":2487:2852  function depositFunds(address heir, uint256 amount) external payable onlyGrandmother {... */\n    tag_8:\n      tag_45\n      0x04\n      dup1\n      calldatasize\n      sub\n      dup2\n      add\n      swap1\n      tag_46\n      swap2\n      swap1\n      tag_47\n      jump\t// in\n    tag_46:\n      tag_48\n      jump\t// in\n    tag_45:\n      stop\n        /* \"9 \\xd0\\xb7\\xd0\\xb0\\xd0\\xbd\\xd1\\x8f\\xd1\\x82\\xd0\\xb8\\xd0\\xb5/\\xd0\\x97\\xd0\\xb0\\xd0\\xb2\\xd0\\xb5\\xd1\\x89\\xd0\\xb0\\xd0\\xbd\\xd0\\xb8\\xd0\\xb5.sol\":84:110  address public grandmother */\n    tag_9:\n      callvalue\n      dup1\n      iszero\n      tag_49\n      jumpi\n      0x00\n      dup1\n      revert\n    tag_49:\n      pop\n      tag_50\n      tag_51\n      jump\t// in\n    tag_50:\n      mload(0x40)\n      tag_52\n      swap2\n      swap1\n      tag_53\n      jump\t// in\n    tag_52:\n      mload(0x40)\n      dup1\n      swap2\n      sub\n      swap1\n      return\n        /* \"9 \\xd0\\xb7\\xd0\\xb0\\xd0\\xbd\\xd1\\x8f\\xd1\\x82\\xd0\\xb8\\xd0\\xb5/\\xd0\\x97\\xd0\\xb0\\xd0\\xb2\\xd0\\xb5\\xd1\\x89\\xd0\\xb0\\xd0\\xbd\\xd0\\xb8\\xd0\\xb5.sol\":259:295  uint256 public deathNotificationTime */\n    tag_10:\n      callvalue\n      dup1\n      iszero\n      tag_54\n      jumpi\n      0x00\n      dup1\n      revert\n    tag_54:\n      pop\n      tag_55\n      tag_56\n      jump\t// in\n    tag_55:\n      mload(0x40)\n      tag_57\n      swap2\n      swap1\n      tag_24\n      jump\t// in\n    tag_57:\n      mload(0x40)\n      dup1\n      swap2\n      sub\n      swap1\n      return\n        /* \"9 \\xd0\\xb7\\xd0\\xb0\\xd0\\xbd\\xd1\\x8f\\xd1\\x82\\xd0\\xb8\\xd0\\xb5/\\xd0\\x97\\xd0\\xb0\\xd0\\xb2\\xd0\\xb5\\xd1\\x89\\xd0\\xb0\\xd0\\xbd\\xd0\\xb8\\xd0\\xb5.sol\":5234:5676  function claimInheritance() external afterDeath onlyHeir {... */\n    tag_11:\n      callvalue\n      dup1\n      iszero\n      tag_58\n      jumpi\n      0x00\n      dup1\n      revert\n    tag_58:\n      pop\n      tag_59\n      tag_60\n      jump\t// in\n    tag_59:\n      stop\n        /* \"9 \\xd0\\xb7\\xd0\\xb0\\xd0\\xbd\\xd1\\x8f\\xd1\\x82\\xd0\\xb8\\xd0\\xb5/\\xd0\\x97\\xd0\\xb0\\xd0\\xb2\\xd0\\xb5\\xd1\\x89\\xd0\\xb0\\xd0\\xbd\\xd0\\xb8\\xd0\\xb5.sol\":3048:3390  function withdrawFunds(address heir, uint256 amount) external onlyGrandmother {... */\n    tag_12:\n      callvalue\n      dup1\n      iszero\n      tag_61\n      jumpi\n      0x00\n      dup1\n      revert\n    tag_61:\n      pop\n      tag_62\n      0x04\n      dup1\n      calldatasize\n      sub\n      dup2\n      add\n      swap1\n      tag_63\n      swap2\n      swap1\n      tag_47\n      jump\t// in\n    tag_63:\n      tag_64\n      jump\t// in\n    tag_62:\n      stop\n        /* \"9 \\xd0\\xb7\\xd0\\xb0\\xd0\\xbd\\xd1\\x8f\\xd1\\x82\\xd0\\xb8\\xd0\\xb5/\\xd0\\x97\\xd0\\xb0\\xd0\\xb2\\xd0\\xb5\\xd1\\x89\\xd0\\xb0\\xd0\\xbd\\xd0\\xb8\\xd0\\xb5.sol\":4563:4727  function notifyDeath() external onlyTrustee {... */\n    tag_13:\n      callvalue\n      dup1\n      iszero\n      tag_65\n      jumpi\n      0x00\n      dup1\n      revert\n    tag_65:\n      pop\n      tag_66\n      tag_67\n      jump\t// in\n    tag_66:\n      stop\n        /* \"9 \\xd0\\xb7\\xd0\\xb0\\xd0\\xbd\\xd1\\x8f\\xd1\\x82\\xd0\\xb8\\xd0\\xb5/\\xd0\\x97\\xd0\\xb0\\xd0\\xb2\\xd0\\xb5\\xd1\\x89\\xd0\\xb0\\xd0\\xbd\\xd0\\xb8\\xd0\\xb5.sol\":4313:4413  function setTrustee(address _trustee) external onlyGrandmother {... */\n    tag_14:\n      callvalue\n      dup1\n      iszero\n      tag_68\n      jumpi\n      0x00\n      dup1\n      revert\n    tag_68:\n      pop\n      tag_69\n      0x04\n      dup1\n      calldatasize\n      sub\n      dup2\n      add\n      swap1\n      tag_70\n      swap2\n      swap1\n      tag_31\n      jump\t// in\n    tag_70:\n      tag_71\n      jump\t// in\n    tag_69:\n      stop\n        /* \"9 \\xd0\\xb7\\xd0\\xb0\\xd0\\xbd\\xd1\\x8f\\xd1\\x82\\xd0\\xb8\\xd0\\xb5/\\xd0\\x97\\xd0\\xb0\\xd0\\xb2\\xd0\\xb5\\xd1\\x89\\xd0\\xb0\\xd0\\xbd\\xd0\\xb8\\xd0\\xb5.sol\":5898:6509  function initiateInheritanceWithConsensus() external after10Years onlyHeir {... */\n    tag_15:\n      callvalue\n      dup1\n      iszero\n      tag_72\n      jumpi\n      0x00\n      dup1\n      revert\n    tag_72:\n      pop\n      tag_73\n      tag_74\n      jump\t// in\n    tag_73:\n      stop\n        /* \"9 \\xd0\\xb7\\xd0\\xb0\\xd0\\xbd\\xd1\\x8f\\xd1\\x82\\xd0\\xb8\\xd0\\xb5/\\xd0\\x97\\xd0\\xb0\\xd0\\xb2\\xd0\\xb5\\xd1\\x89\\xd0\\xb0\\xd0\\xbd\\xd0\\xb8\\xd0\\xb5.sol\":135:157  address public trustee */\n    tag_16:\n      callvalue\n      dup1\n      iszero\n      tag_75\n      jumpi\n      0x00\n      dup1\n      revert\n    tag_75:\n      pop\n      tag_76\n      tag_77\n      jump\t// in\n    tag_76:\n      mload(0x40)\n      tag_78\n      swap2\n      swap1\n      tag_53\n      jump\t// in\n    tag_78:\n      mload(0x40)\n      dup1\n      swap2\n      sub\n      swap1\n      return\n        /* \"9 \\xd0\\xb7\\xd0\\xb0\\xd0\\xbd\\xd1\\x8f\\xd1\\x82\\xd0\\xb8\\xd0\\xb5/\\xd0\\x97\\xd0\\xb0\\xd0\\xb2\\xd0\\xb5\\xd1\\x89\\xd0\\xb0\\xd0\\xbd\\xd0\\xb8\\xd0\\xb5.sol\":188:220  uint256 public contractStartTime */\n    tag_22:\n      sload(0x02)\n      dup2\n      jump\t// out\n        /* \"9 \\xd0\\xb7\\xd0\\xb0\\xd0\\xbd\\xd1\\x8f\\xd1\\x82\\xd0\\xb8\\xd0\\xb5/\\xd0\\x97\\xd0\\xb0\\xd0\\xb2\\xd0\\xb5\\xd1\\x89\\xd0\\xb0\\xd0\\xbd\\xd0\\xb8\\xd0\\xb5.sol\":6684:6794  function initiateInheritanceAfter15Years() external after15Years onlyHeir {... */\n    tag_27:\n        /* \"9 \\xd0\\xb7\\xd0\\xb0\\xd0\\xbd\\xd1\\x8f\\xd1\\x82\\xd0\\xb8\\xd0\\xb5/\\xd0\\x97\\xd0\\xb0\\xd0\\xb2\\xd0\\xb5\\xd1\\x89\\xd0\\xb0\\xd0\\xbd\\xd0\\xb8\\xd0\\xb5.sol\":1265:1278  15 * 365 days */\n      0x1c320480\n        /* \"9 \\xd0\\xb7\\xd0\\xb0\\xd0\\xbd\\xd1\\x8f\\xd1\\x82\\xd0\\xb8\\xd0\\xb5/\\xd0\\x97\\xd0\\xb0\\xd0\\xb2\\xd0\\xb5\\xd1\\x89\\xd0\\xb0\\xd0\\xbd\\xd0\\xb8\\xd0\\xb5.sol\":1245:1262  contractStartTime */\n      sload(0x02)\n        /* \"9 \\xd0\\xb7\\xd0\\xb0\\xd0\\xbd\\xd1\\x8f\\xd1\\x82\\xd0\\xb8\\xd0\\xb5/\\xd0\\x97\\xd0\\xb0\\xd0\\xb2\\xd0\\xb5\\xd1\\x89\\xd0\\xb0\\xd0\\xbd\\xd0\\xb8\\xd0\\xb5.sol\":1245:1278  contractStartTime + 15 * 365 days */\n      tag_80\n      swap2\n      swap1\n      tag_81\n      jump\t// in\n    tag_80:\n        /* \"9 \\xd0\\xb7\\xd0\\xb0\\xd0\\xbd\\xd1\\x8f\\xd1\\x82\\xd0\\xb8\\xd0\\xb5/\\xd0\\x97\\xd0\\xb0\\xd0\\xb2\\xd0\\xb5\\xd1\\x89\\xd0\\xb0\\xd0\\xbd\\xd0\\xb8\\xd0\\xb5.sol\":1226:1241  block.timestamp */\n      timestamp\n        /* \"9 \\xd0\\xb7\\xd0\\xb0\\xd0\\xbd\\xd1\\x8f\\xd1\\x82\\xd0\\xb8\\xd0\\xb5/\\xd0\\x97\\xd0\\xb0\\xd0\\xb2\\xd0\\xb5\\xd1\\x89\\xd0\\xb0\\xd0\\xbd\\xd0\\xb8\\xd0\\xb5.sol\":1226:1278  block.timestamp >= contractStartTime + 15 * 365 days */\n      lt\n      iszero\n        /* \"9 \\xd0\\xb7\\xd0\\xb0\\xd0\\xbd\\xd1\\x8f\\xd1\\x82\\xd0\\xb8\\xd0\\xb5/\\xd0\\x97\\xd0\\xb0\\xd0\\xb2\\xd0\\xb5\\xd1\\x89\\xd0\\xb0\\xd0\\xbd\\xd0\\xb8\\xd0\\xb5.sol\":1218:1308  require(block.timestamp >= contractStartTime + 15 * 365 days, \"15 years have not passed.\") */\n      tag_82\n      jumpi\n      mload(0x40)\n      0x08c379a000000000000000000000000000000000000000000000000000000000\n      dup2\n      mstore\n      0x04\n      add\n      tag_83\n      swap1\n      tag_84\n      jump\t// in\n    tag_83:\n      mload(0x40)\n      dup1\n      swap2\n      sub\n      swap1\n      revert\n    tag_82:\n        /* \"9 \\xd0\\xb7\\xd0\\xb0\\xd0\\xbd\\xd1\\x8f\\xd1\\x82\\xd0\\xb8\\xd0\\xb5/\\xd0\\x97\\xd0\\xb0\\xd0\\xb2\\xd0\\xb5\\xd1\\x89\\xd0\\xb0\\xd0\\xbd\\xd0\\xb8\\xd0\\xb5.sol\":693:694  0 */\n      0x00\n        /* \"9 \\xd0\\xb7\\xd0\\xb0\\xd0\\xbd\\xd1\\x8f\\xd1\\x82\\xd0\\xb8\\xd0\\xb5/\\xd0\\x97\\xd0\\xb0\\xd0\\xb2\\xd0\\xb5\\xd1\\x89\\xd0\\xb0\\xd0\\xbd\\xd0\\xb8\\xd0\\xb5.sol\":666:671  heirs */\n      0x05\n        /* \"9 \\xd0\\xb7\\xd0\\xb0\\xd0\\xbd\\xd1\\x8f\\xd1\\x82\\xd0\\xb8\\xd0\\xb5/\\xd0\\x97\\xd0\\xb0\\xd0\\xb2\\xd0\\xb5\\xd1\\x89\\xd0\\xb0\\xd0\\xbd\\xd0\\xb8\\xd0\\xb5.sol\":666:683  heirs[msg.sender] */\n      0x00\n        /* \"9 \\xd0\\xb7\\xd0\\xb0\\xd0\\xbd\\xd1\\x8f\\xd1\\x82\\xd0\\xb8\\xd0\\xb5/\\xd0\\x97\\xd0\\xb0\\xd0\\xb2\\xd0\\xb5\\xd1\\x89\\xd0\\xb0\\xd0\\xbd\\xd0\\xb8\\xd0\\xb5.sol\":672:682  msg.sender */\n      caller\n        /* \"9 \\xd0\\xb7\\xd0\\xb0\\xd0\\xbd\\xd1\\x8f\\xd1\\x82\\xd0\\xb8\\xd0\\xb5/\\xd0\\x97\\xd0\\xb0\\xd0\\xb2\\xd0\\xb5\\xd1\\x89\\xd0\\xb0\\xd0\\xbd\\xd0\\xb8\\xd0\\xb5.sol\":666:683  heirs[msg.sender] */\n      0xffffffffffffffffffffffffffffffffffffffff\n      and\n      0xffffffffffffffffffffffffffffffffffffffff\n      and\n      dup2\n      mstore\n      0x20\n      add\n      swap1\n      dup2\n      mstore\n      0x20\n      add\n      0x00\n      keccak256\n        /* \"9 \\xd0\\xb7\\xd0\\xb0\\xd0\\xbd\\xd1\\x8f\\xd1\\x82\\xd0\\xb8\\xd0\\xb5/\\xd0\\x97\\xd0\\xb0\\xd0\\xb2\\xd0\\xb5\\xd1\\x89\\xd0\\xb0\\xd0\\xbd\\xd0\\xb8\\xd0\\xb5.sol\":666:690  heirs[msg.sender].amount */\n      0x00\n      add\n      sload\n        /* \"9 \\xd0\\xb7\\xd0\\xb0\\xd0\\xbd\\xd1\\x8f\\xd1\\x82\\xd0\\xb8\\xd0\\xb5/\\xd0\\x97\\xd0\\xb0\\xd0\\xb2\\xd0\\xb5\\xd1\\x89\\xd0\\xb0\\xd0\\xbd\\xd0\\xb8\\xd0\\xb5.sol\":666:694  heirs[msg.sender].amount > 0 */\n      gt\n        /* \"9 \\xd0\\xb7\\xd0\\xb0\\xd0\\xbd\\xd1\\x8f\\xd1\\x82\\xd0\\xb8\\xd0\\xb5/\\xd0\\x97\\xd0\\xb0\\xd0\\xb2\\xd0\\xb5\\xd1\\x89\\xd0\\xb0\\xd0\\xbd\\xd0\\xb8\\xd0\\xb5.sol\":658:719  require(heirs[msg.sender].amount > 0, \"You are not an heir.\") */\n      tag_86\n      jumpi\n      mload(0x40)\n      0x08c379a000000000000000000000000000000000000000000000000000000000\n      dup2\n      mstore\n      0x04\n      add\n      tag_87\n      swap1\n      tag_88\n      jump\t// in\n    tag_87:\n      mload(0x40)\n      dup1\n      swap2\n      sub\n      swap1\n      revert\n    tag_86:\n        /* \"9 \\xd0\\xb7\\xd0\\xb0\\xd0\\xbd\\xd1\\x8f\\xd1\\x82\\xd0\\xb8\\xd0\\xb5/\\xd0\\x97\\xd0\\xb0\\xd0\\xb2\\xd0\\xb5\\xd1\\x89\\xd0\\xb0\\xd0\\xbd\\xd0\\xb8\\xd0\\xb5.sol\":6769:6786  distributeFunds() */\n      tag_90\n        /* \"9 \\xd0\\xb7\\xd0\\xb0\\xd0\\xbd\\xd1\\x8f\\xd1\\x82\\xd0\\xb8\\xd0\\xb5/\\xd0\\x97\\xd0\\xb0\\xd0\\xb2\\xd0\\xb5\\xd1\\x89\\xd0\\xb0\\xd0\\xbd\\xd0\\xb8\\xd0\\xb5.sol\":6769:6784  distributeFunds */\n      tag_91\n        /* \"9 \\xd0\\xb7\\xd0\\xb0\\xd0\\xbd\\xd1\\x8f\\xd1\\x82\\xd0\\xb8\\xd0\\xb5/\\xd0\\x97\\xd0\\xb0\\xd0\\xb2\\xd0\\xb5\\xd1\\x89\\xd0\\xb0\\xd0\\xbd\\xd0\\xb8\\xd0\\xb5.sol\":6769:6786  distributeFunds() */\n      jump\t// in\n    tag_90:\n        /* \"9 \\xd0\\xb7\\xd0\\xb0\\xd0\\xbd\\xd1\\x8f\\xd1\\x82\\xd0\\xb8\\xd0\\xb5/\\xd0\\x97\\xd0\\xb0\\xd0\\xb2\\xd0\\xb5\\xd1\\x89\\xd0\\xb0\\xd0\\xbd\\xd0\\xb8\\xd0\\xb5.sol\":6684:6794  function initiateInheritanceAfter15Years() external after15Years onlyHeir {... */\n      jump\t// out\n        /* \"9 \\xd0\\xb7\\xd0\\xb0\\xd0\\xbd\\xd1\\x8f\\xd1\\x82\\xd0\\xb8\\xd0\\xb5/\\xd0\\x97\\xd0\\xb0\\xd0\\xb2\\xd0\\xb5\\xd1\\x89\\xd0\\xb0\\xd0\\xbd\\xd0\\xb8\\xd0\\xb5.sol\":3987:4121  function viewHeirAllocation(address heir) external view onlyGrandmother returns (uint256) {... */\n    tag_32:\n        /* \"9 \\xd0\\xb7\\xd0\\xb0\\xd0\\xbd\\xd1\\x8f\\xd1\\x82\\xd0\\xb8\\xd0\\xb5/\\xd0\\x97\\xd0\\xb0\\xd0\\xb2\\xd0\\xb5\\xd1\\x89\\xd0\\xb0\\xd0\\xbd\\xd0\\xb8\\xd0\\xb5.sol\":4068:4075  uint256 */\n      0x00\n        /* \"9 \\xd0\\xb7\\xd0\\xb0\\xd0\\xbd\\xd1\\x8f\\xd1\\x82\\xd0\\xb8\\xd0\\xb5/\\xd0\\x97\\xd0\\xb0\\xd0\\xb2\\xd0\\xb5\\xd1\\x89\\xd0\\xb0\\xd0\\xbd\\xd0\\xb8\\xd0\\xb5.sol\":557:568  grandmother */\n      dup1\n      0x00\n      swap1\n      sload\n      swap1\n      0x0100\n      exp\n      swap1\n      div\n      0xffffffffffffffffffffffffffffffffffffffff\n      and\n        /* \"9 \\xd0\\xb7\\xd0\\xb0\\xd0\\xbd\\xd1\\x8f\\xd1\\x82\\xd0\\xb8\\xd0\\xb5/\\xd0\\x97\\xd0\\xb0\\xd0\\xb2\\xd0\\xb5\\xd1\\x89\\xd0\\xb0\\xd0\\xbd\\xd0\\xb8\\xd0\\xb5.sol\":543:568  msg.sender == grandmother */\n      0xffffffffffffffffffffffffffffffffffffffff\n      and\n        /* \"9 \\xd0\\xb7\\xd0\\xb0\\xd0\\xbd\\xd1\\x8f\\xd1\\x82\\xd0\\xb8\\xd0\\xb5/\\xd0\\x97\\xd0\\xb0\\xd0\\xb2\\xd0\\xb5\\xd1\\x89\\xd0\\xb0\\xd0\\xbd\\xd0\\xb8\\xd0\\xb5.sol\":543:553  msg.sender */\n      caller\n        /* \"9 \\xd0\\xb7\\xd0\\xb0\\xd0\\xbd\\xd1\\x8f\\xd1\\x82\\xd0\\xb8\\xd0\\xb5/\\xd0\\x97\\xd0\\xb0\\xd0\\xb2\\xd0\\xb5\\xd1\\x89\\xd0\\xb0\\xd0\\xbd\\xd0\\xb8\\xd0\\xb5.sol\":543:568  msg.sender == grandmother */\n      0xffffffffffffffffffffffffffffffffffffffff\n      and\n      eq\n        /* \"9 \\xd0\\xb7\\xd0\\xb0\\xd0\\xbd\\xd1\\x8f\\xd1\\x82\\xd0\\xb8\\xd0\\xb5/\\xd0\\x97\\xd0\\xb0\\xd0\\xb2\\xd0\\xb5\\xd1\\x89\\xd0\\xb0\\xd0\\xbd\\xd0\\xb8\\xd0\\xb5.sol\":535:599  require(msg.sender == grandmother, \"You are not a grandmother.\") */\n      tag_93\n      jumpi\n      mload(0x40)\n      0x08c379a000000000000000000000000000000000000000000000000000000000\n      dup2\n      mstore\n      0x04\n      add\n      tag_94\n      swap1\n      tag_95\n      jump\t// in\n    tag_94:\n      mload(0x40)\n      dup1\n      swap2\n      sub\n      swap1\n      revert\n    tag_93:\n        /* \"9 \\xd0\\xb7\\xd0\\xb0\\xd0\\xbd\\xd1\\x8f\\xd1\\x82\\xd0\\xb8\\xd0\\xb5/\\xd0\\x97\\xd0\\xb0\\xd0\\xb2\\xd0\\xb5\\xd1\\x89\\xd0\\xb0\\xd0\\xbd\\xd0\\xb8\\xd0\\xb5.sol\":4095:4100  heirs */\n      0x05\n        /* \"9 \\xd0\\xb7\\xd0\\xb0\\xd0\\xbd\\xd1\\x8f\\xd1\\x82\\xd0\\xb8\\xd0\\xb5/\\xd0\\x97\\xd0\\xb0\\xd0\\xb2\\xd0\\xb5\\xd1\\x89\\xd0\\xb0\\xd0\\xbd\\xd0\\xb8\\xd0\\xb5.sol\":4095:4106  heirs[heir] */\n      0x00\n        /* \"9 \\xd0\\xb7\\xd0\\xb0\\xd0\\xbd\\xd1\\x8f\\xd1\\x82\\xd0\\xb8\\xd0\\xb5/\\xd0\\x97\\xd0\\xb0\\xd0\\xb2\\xd0\\xb5\\xd1\\x89\\xd0\\xb0\\xd0\\xbd\\xd0\\xb8\\xd0\\xb5.sol\":4101:4105  heir */\n      dup4\n        /* \"9 \\xd0\\xb7\\xd0\\xb0\\xd0\\xbd\\xd1\\x8f\\xd1\\x82\\xd0\\xb8\\xd0\\xb5/\\xd0\\x97\\xd0\\xb0\\xd0\\xb2\\xd0\\xb5\\xd1\\x89\\xd0\\xb0\\xd0\\xbd\\xd0\\xb8\\xd0\\xb5.sol\":4095:4106  heirs[heir] */\n      0xffffffffffffffffffffffffffffffffffffffff\n      and\n      0xffffffffffffffffffffffffffffffffffffffff\n      and\n      dup2\n      mstore\n      0x20\n      add\n      swap1\n      dup2\n      mstore\n      0x20\n      add\n      0x00\n      keccak256\n        /* \"9 \\xd0\\xb7\\xd0\\xb0\\xd0\\xbd\\xd1\\x8f\\xd1\\x82\\xd0\\xb8\\xd0\\xb5/\\xd0\\x97\\xd0\\xb0\\xd0\\xb2\\xd0\\xb5\\xd1\\x89\\xd0\\xb0\\xd0\\xbd\\xd0\\xb8\\xd0\\xb5.sol\":4095:4113  heirs[heir].amount */\n      0x00\n      add\n      sload\n        /* \"9 \\xd0\\xb7\\xd0\\xb0\\xd0\\xbd\\xd1\\x8f\\xd1\\x82\\xd0\\xb8\\xd0\\xb5/\\xd0\\x97\\xd0\\xb0\\xd0\\xb2\\xd0\\xb5\\xd1\\x89\\xd0\\xb0\\xd0\\xbd\\xd0\\xb8\\xd0\\xb5.sol\":4088:4113  return heirs[heir].amount */\n      swap1\n      pop\n        /* \"9 \\xd0\\xb7\\xd0\\xb0\\xd0\\xbd\\xd1\\x8f\\xd1\\x82\\xd0\\xb8\\xd0\\xb5/\\xd0\\x97\\xd0\\xb0\\xd0\\xb2\\xd0\\xb5\\xd1\\x89\\xd0\\xb0\\xd0\\xbd\\xd0\\xb8\\xd0\\xb5.sol\":3987:4121  function viewHeirAllocation(address heir) external view onlyGrandmother returns (uint256) {... */\n      swap2\n      swap1\n      pop\n      jump\t// out\n        /* \"9 \\xd0\\xb7\\xd0\\xb0\\xd0\\xbd\\xd1\\x8f\\xd1\\x82\\xd0\\xb8\\xd0\\xb5/\\xd0\\x97\\xd0\\xb0\\xd0\\xb2\\xd0\\xb5\\xd1\\x89\\xd0\\xb0\\xd0\\xbd\\xd0\\xb8\\xd0\\xb5.sol\":4879:5019  function cancelDeathNotification() external onlyTrustee {... */\n    tag_36:\n        /* \"9 \\xd0\\xb7\\xd0\\xb0\\xd0\\xbd\\xd1\\x8f\\xd1\\x82\\xd0\\xb8\\xd0\\xb5/\\xd0\\x97\\xd0\\xb0\\xd0\\xb2\\xd0\\xb5\\xd1\\x89\\xd0\\xb0\\xd0\\xbd\\xd0\\xb8\\xd0\\xb5.sol\":803:810  trustee */\n      0x01\n      0x00\n      swap1\n      sload\n      swap1\n      0x0100\n      exp\n      swap1\n      div\n      0xffffffffffffffffffffffffffffffffffffffff\n      and\n        /* \"9 \\xd0\\xb7\\xd0\\xb0\\xd0\\xbd\\xd1\\x8f\\xd1\\x82\\xd0\\xb8\\xd0\\xb5/\\xd0\\x97\\xd0\\xb0\\xd0\\xb2\\xd0\\xb5\\xd1\\x89\\xd0\\xb0\\xd0\\xbd\\xd0\\xb8\\xd0\\xb5.sol\":789:810  msg.sender == trustee */\n      0xffffffffffffffffffffffffffffffffffffffff\n      and\n        /* \"9 \\xd0\\xb7\\xd0\\xb0\\xd0\\xbd\\xd1\\x8f\\xd1\\x82\\xd0\\xb8\\xd0\\xb5/\\xd0\\x97\\xd0\\xb0\\xd0\\xb2\\xd0\\xb5\\xd1\\x89\\xd0\\xb0\\xd0\\xbd\\xd0\\xb8\\xd0\\xb5.sol\":789:799  msg.sender */\n      caller\n        /* \"9 \\xd0\\xb7\\xd0\\xb0\\xd0\\xbd\\xd1\\x8f\\xd1\\x82\\xd0\\xb8\\xd0\\xb5/\\xd0\\x97\\xd0\\xb0\\xd0\\xb2\\xd0\\xb5\\xd1\\x89\\xd0\\xb0\\xd0\\xbd\\xd0\\xb8\\xd0\\xb5.sol\":789:810  msg.sender == trustee */\n      0xffffffffffffffffffffffffffffffffffffffff\n      and\n      eq\n        /* \"9 \\xd0\\xb7\\xd0\\xb0\\xd0\\xbd\\xd1\\x8f\\xd1\\x82\\xd0\\xb8\\xd0\\xb5/\\xd0\\x97\\xd0\\xb0\\xd0\\xb2\\xd0\\xb5\\xd1\\x89\\xd0\\xb0\\xd0\\xbd\\xd0\\xb8\\xd0\\xb5.sol\":781:837  require(msg.sender == trustee, \"You are not a trustee.\") */\n      tag_98\n      jumpi\n      mload(0x40)\n      0x08c379a000000000000000000000000000000000000000000000000000000000\n      dup2\n      mstore\n      0x04\n      add\n      tag_99\n      swap1\n      tag_100\n      jump\t// in\n    tag_99:\n      mload(0x40)\n      dup1\n      swap2\n      sub\n      swap1\n      revert\n    tag_98:\n        /* \"9 \\xd0\\xb7\\xd0\\xb0\\xd0\\xbd\\xd1\\x8f\\xd1\\x82\\xd0\\xb8\\xd0\\xb5/\\xd0\\x97\\xd0\\xb0\\xd0\\xb2\\xd0\\xb5\\xd1\\x89\\xd0\\xb0\\xd0\\xbd\\xd0\\xb8\\xd0\\xb5.sol\":4962:4967  false */\n      0x00\n        /* \"9 \\xd0\\xb7\\xd0\\xb0\\xd0\\xbd\\xd1\\x8f\\xd1\\x82\\xd0\\xb8\\xd0\\xb5/\\xd0\\x97\\xd0\\xb0\\xd0\\xb2\\xd0\\xb5\\xd1\\x89\\xd0\\xb0\\xd0\\xbd\\xd0\\xb8\\xd0\\xb5.sol\":4946:4959  deathNotified */\n      0x03\n      0x00\n        /* \"9 \\xd0\\xb7\\xd0\\xb0\\xd0\\xbd\\xd1\\x8f\\xd1\\x82\\xd0\\xb8\\xd0\\xb5/\\xd0\\x97\\xd0\\xb0\\xd0\\xb2\\xd0\\xb5\\xd1\\x89\\xd0\\xb0\\xd0\\xbd\\xd0\\xb8\\xd0\\xb5.sol\":4946:4967  deathNotified = false */\n      0x0100\n      exp\n      dup2\n      sload\n      dup2\n      0xff\n      mul\n      not\n      and\n      swap1\n      dup4\n      iszero\n      iszero\n      mul\n      or\n      swap1\n      sstore\n      pop\n        /* \"9 \\xd0\\xb7\\xd0\\xb0\\xd0\\xbd\\xd1\\x8f\\xd1\\x82\\xd0\\xb8\\xd0\\xb5/\\xd0\\x97\\xd0\\xb0\\xd0\\xb2\\xd0\\xb5\\xd1\\x89\\xd0\\xb0\\xd0\\xbd\\xd0\\xb8\\xd0\\xb5.sol\":4983:5011  DeathNotificationCancelled() */\n      0x5c6a09dcfca2ed928cf8915c87912084764ff0b035328700b69d6312dcd58097\n      mload(0x40)\n      mload(0x40)\n      dup1\n      swap2\n      sub\n      swap1\n      log1\n        /* \"9 \\xd0\\xb7\\xd0\\xb0\\xd0\\xbd\\xd1\\x8f\\xd1\\x82\\xd0\\xb8\\xd0\\xb5/\\xd0\\x97\\xd0\\xb0\\xd0\\xb2\\xd0\\xb5\\xd1\\x89\\xd0\\xb0\\xd0\\xbd\\xd0\\xb8\\xd0\\xb5.sol\":4879:5019  function cancelDeathNotification() external onlyTrustee {... */\n      jump\t// out\n        /* \"9 \\xd0\\xb7\\xd0\\xb0\\xd0\\xbd\\xd1\\x8f\\xd1\\x82\\xd0\\xb8\\xd0\\xb5/\\xd0\\x97\\xd0\\xb0\\xd0\\xb2\\xd0\\xb5\\xd1\\x89\\xd0\\xb0\\xd0\\xbd\\xd0\\xb8\\xd0\\xb5.sol\":3520:3797  function withdrawAll() external onlyGrandmother {... */\n    tag_39:\n        /* \"9 \\xd0\\xb7\\xd0\\xb0\\xd0\\xbd\\xd1\\x8f\\xd1\\x82\\xd0\\xb8\\xd0\\xb5/\\xd0\\x97\\xd0\\xb0\\xd0\\xb2\\xd0\\xb5\\xd1\\x89\\xd0\\xb0\\xd0\\xbd\\xd0\\xb8\\xd0\\xb5.sol\":557:568  grandmother */\n      0x00\n      dup1\n      sload\n      swap1\n      0x0100\n      exp\n      swap1\n      div\n      0xffffffffffffffffffffffffffffffffffffffff\n      and\n        /* \"9 \\xd0\\xb7\\xd0\\xb0\\xd0\\xbd\\xd1\\x8f\\xd1\\x82\\xd0\\xb8\\xd0\\xb5/\\xd0\\x97\\xd0\\xb0\\xd0\\xb2\\xd0\\xb5\\xd1\\x89\\xd0\\xb0\\xd0\\xbd\\xd0\\xb8\\xd0\\xb5.sol\":543:568  msg.sender == grandmother */\n      0xffffffffffffffffffffffffffffffffffffffff\n      and\n        /* \"9 \\xd0\\xb7\\xd0\\xb0\\xd0\\xbd\\xd1\\x8f\\xd1\\x82\\xd0\\xb8\\xd0\\xb5/\\xd0\\x97\\xd0\\xb0\\xd0\\xb2\\xd0\\xb5\\xd1\\x89\\xd0\\xb0\\xd0\\xbd\\xd0\\xb8\\xd0\\xb5.sol\":543:553  msg.sender */\n      caller\n        /* \"9 \\xd0\\xb7\\xd0\\xb0\\xd0\\xbd\\xd1\\x8f\\xd1\\x82\\xd0\\xb8\\xd0\\xb5/\\xd0\\x97\\xd0\\xb0\\xd0\\xb2\\xd0\\xb5\\xd1\\x89\\xd0\\xb0\\xd0\\xbd\\xd0\\xb8\\xd0\\xb5.sol\":543:568  msg.sender == grandmother */\n      0xffffffffffffffffffffffffffffffffffffffff\n      and\n      eq\n        /* \"9 \\xd0\\xb7\\xd0\\xb0\\xd0\\xbd\\xd1\\x8f\\xd1\\x82\\xd0\\xb8\\xd0\\xb5/\\xd0\\x97\\xd0\\xb0\\xd0\\xb2\\xd0\\xb5\\xd1\\x89\\xd0\\xb0\\xd0\\xbd\\xd0\\xb8\\xd0\\xb5.sol\":535:599  require(msg.sender == grandmother, \"You are not a grandmother.\") */\n      tag_103\n      jumpi\n      mload(0x40)\n      0x08c379a000000000000000000000000000000000000000000000000000000000\n      dup2\n      mstore\n      0x04\n      add\n      tag_104\n      swap1\n      tag_95\n      jump\t// in\n    tag_104:\n      mload(0x40)\n      dup1\n      swap2\n      sub\n      swap1\n      revert\n    tag_103:\n        /* \"9 \\xd0\\xb7\\xd0\\xb0\\xd0\\xbd\\xd1\\x8f\\xd1\\x82\\xd0\\xb8\\xd0\\xb5/\\xd0\\x97\\xd0\\xb0\\xd0\\xb2\\xd0\\xb5\\xd1\\x89\\xd0\\xb0\\xd0\\xbd\\xd0\\xb8\\xd0\\xb5.sol\":3579:3594  uint256 balance */\n      0x00\n        /* \"9 \\xd0\\xb7\\xd0\\xb0\\xd0\\xbd\\xd1\\x8f\\xd1\\x82\\xd0\\xb8\\xd0\\xb5/\\xd0\\x97\\xd0\\xb0\\xd0\\xb2\\xd0\\xb5\\xd1\\x89\\xd0\\xb0\\xd0\\xbd\\xd0\\xb8\\xd0\\xb5.sol\":3597:3618  address(this).balance */\n      selfbalance\n        /* \"9 \\xd0\\xb7\\xd0\\xb0\\xd0\\xbd\\xd1\\x8f\\xd1\\x82\\xd0\\xb8\\xd0\\xb5/\\xd0\\x97\\xd0\\xb0\\xd0\\xb2\\xd0\\xb5\\xd1\\x89\\xd0\\xb0\\xd0\\xbd\\xd0\\xb8\\xd0\\xb5.sol\":3579:3618  uint256 balance = address(this).balance */\n      swap1\n      pop\n        /* \"9 \\xd0\\xb7\\xd0\\xb0\\xd0\\xbd\\xd1\\x8f\\xd1\\x82\\xd0\\xb8\\xd0\\xb5/\\xd0\\x97\\xd0\\xb0\\xd0\\xb2\\xd0\\xb5\\xd1\\x89\\xd0\\xb0\\xd0\\xbd\\xd0\\xb8\\xd0\\xb5.sol\":3634:3643  uint256 i */\n      0x00\n        /* \"9 \\xd0\\xb7\\xd0\\xb0\\xd0\\xbd\\xd1\\x8f\\xd1\\x82\\xd0\\xb8\\xd0\\xb5/\\xd0\\x97\\xd0\\xb0\\xd0\\xb2\\xd0\\xb5\\xd1\\x89\\xd0\\xb0\\xd0\\xbd\\xd0\\xb8\\xd0\\xb5.sol\":3629:3741  for (uint256 i = 0; i < heirAddresses.length; i++) {... */\n    tag_106:\n        /* \"9 \\xd0\\xb7\\xd0\\xb0\\xd0\\xbd\\xd1\\x8f\\xd1\\x82\\xd0\\xb8\\xd0\\xb5/\\xd0\\x97\\xd0\\xb0\\xd0\\xb2\\xd0\\xb5\\xd1\\x89\\xd0\\xb0\\xd0\\xbd\\xd0\\xb8\\xd0\\xb5.sol\":3653:3666  heirAddresses */\n      0x06\n        /* \"9 \\xd0\\xb7\\xd0\\xb0\\xd0\\xbd\\xd1\\x8f\\xd1\\x82\\xd0\\xb8\\xd0\\xb5/\\xd0\\x97\\xd0\\xb0\\xd0\\xb2\\xd0\\xb5\\xd1\\x89\\xd0\\xb0\\xd0\\xbd\\xd0\\xb8\\xd0\\xb5.sol\":3653:3673  heirAddresses.length */\n      dup1\n      sload\n      swap1\n      pop\n        /* \"9 \\xd0\\xb7\\xd0\\xb0\\xd0\\xbd\\xd1\\x8f\\xd1\\x82\\xd0\\xb8\\xd0\\xb5/\\xd0\\x97\\xd0\\xb0\\xd0\\xb2\\xd0\\xb5\\xd1\\x89\\xd0\\xb0\\xd0\\xbd\\xd0\\xb8\\xd0\\xb5.sol\":3649:3650  i */\n      dup2\n        /* \"9 \\xd0\\xb7\\xd0\\xb0\\xd0\\xbd\\xd1\\x8f\\xd1\\x82\\xd0\\xb8\\xd0\\xb5/\\xd0\\x97\\xd0\\xb0\\xd0\\xb2\\xd0\\xb5\\xd1\\x89\\xd0\\xb0\\xd0\\xbd\\xd0\\xb8\\xd0\\xb5.sol\":3649:3673  i < heirAddresses.length */\n      lt\n        /* \"9 \\xd0\\xb7\\xd0\\xb0\\xd0\\xbd\\xd1\\x8f\\xd1\\x82\\xd0\\xb8\\xd0\\xb5/\\xd0\\x97\\xd0\\xb0\\xd0\\xb2\\xd0\\xb5\\xd1\\x89\\xd0\\xb0\\xd0\\xbd\\xd0\\xb8\\xd0\\xb5.sol\":3629:3741  for (uint256 i = 0; i < heirAddresses.length; i++) {... */\n      iszero\n      tag_107\n      jumpi\n        /* \"9 \\xd0\\xb7\\xd0\\xb0\\xd0\\xbd\\xd1\\x8f\\xd1\\x82\\xd0\\xb8\\xd0\\xb5/\\xd0\\x97\\xd0\\xb0\\xd0\\xb2\\xd0\\xb5\\xd1\\x89\\xd0\\xb0\\xd0\\xbd\\xd0\\xb8\\xd0\\xb5.sol\":3728:3729  0 */\n      0x00\n        /* \"9 \\xd0\\xb7\\xd0\\xb0\\xd0\\xbd\\xd1\\x8f\\xd1\\x82\\xd0\\xb8\\xd0\\xb5/\\xd0\\x97\\xd0\\xb0\\xd0\\xb2\\xd0\\xb5\\xd1\\x89\\xd0\\xb0\\xd0\\xbd\\xd0\\xb8\\xd0\\xb5.sol\":3695:3700  heirs */\n      0x05\n        /* \"9 \\xd0\\xb7\\xd0\\xb0\\xd0\\xbd\\xd1\\x8f\\xd1\\x82\\xd0\\xb8\\xd0\\xb5/\\xd0\\x97\\xd0\\xb0\\xd0\\xb2\\xd0\\xb5\\xd1\\x89\\xd0\\xb0\\xd0\\xbd\\xd0\\xb8\\xd0\\xb5.sol\":3695:3718  heirs[heirAddresses[i]] */\n      0x00\n        /* \"9 \\xd0\\xb7\\xd0\\xb0\\xd0\\xbd\\xd1\\x8f\\xd1\\x82\\xd0\\xb8\\xd0\\xb5/\\xd0\\x97\\xd0\\xb0\\xd0\\xb2\\xd0\\xb5\\xd1\\x89\\xd0\\xb0\\xd0\\xbd\\xd0\\xb8\\xd0\\xb5.sol\":3701:3714  heirAddresses */\n      0x06\n        /* \"9 \\xd0\\xb7\\xd0\\xb0\\xd0\\xbd\\xd1\\x8f\\xd1\\x82\\xd0\\xb8\\xd0\\xb5/\\xd0\\x97\\xd0\\xb0\\xd0\\xb2\\xd0\\xb5\\xd1\\x89\\xd0\\xb0\\xd0\\xbd\\xd0\\xb8\\xd0\\xb5.sol\":3715:3716  i */\n      dup5\n        /* \"9 \\xd0\\xb7\\xd0\\xb0\\xd0\\xbd\\xd1\\x8f\\xd1\\x82\\xd0\\xb8\\xd0\\xb5/\\xd0\\x97\\xd0\\xb0\\xd0\\xb2\\xd0\\xb5\\xd1\\x89\\xd0\\xb0\\xd0\\xbd\\xd0\\xb8\\xd0\\xb5.sol\":3701:3717  heirAddresses[i] */\n      dup2\n      sload\n      dup2\n      lt\n      tag_109\n      jumpi\n      tag_110\n      tag_111\n      jump\t// in\n    tag_110:\n    tag_109:\n      swap1\n      0x00\n      mstore\n      keccak256(0x00, 0x20)\n      add\n      0x00\n      swap1\n      sload\n      swap1\n      0x0100\n      exp\n      swap1\n      div\n      0xffffffffffffffffffffffffffffffffffffffff\n      and\n        /* \"9 \\xd0\\xb7\\xd0\\xb0\\xd0\\xbd\\xd1\\x8f\\xd1\\x82\\xd0\\xb8\\xd0\\xb5/\\xd0\\x97\\xd0\\xb0\\xd0\\xb2\\xd0\\xb5\\xd1\\x89\\xd0\\xb0\\xd0\\xbd\\xd0\\xb8\\xd0\\xb5.sol\":3695:3718  heirs[heirAddresses[i]] */\n      0xffffffffffffffffffffffffffffffffffffffff\n      and\n      0xffffffffffffffffffffffffffffffffffffffff\n      and\n      dup2\n      mstore\n      0x20\n      add\n      swap1\n      dup2\n      mstore\n      0x20\n      add\n      0x00\n      keccak256\n        /* \"9 \\xd0\\xb7\\xd0\\xb0\\xd0\\xbd\\xd1\\x8f\\xd1\\x82\\xd0\\xb8\\xd0\\xb5/\\xd0\\x97\\xd0\\xb0\\xd0\\xb2\\xd0\\xb5\\xd1\\x89\\xd0\\xb0\\xd0\\xbd\\xd0\\xb8\\xd0\\xb5.sol\":3695:3725  heirs[heirAddresses[i]].amount */\n      0x00\n      add\n        /* \"9 \\xd0\\xb7\\xd0\\xb0\\xd0\\xbd\\xd1\\x8f\\xd1\\x82\\xd0\\xb8\\xd0\\xb5/\\xd0\\x97\\xd0\\xb0\\xd0\\xb2\\xd0\\xb5\\xd1\\x89\\xd0\\xb0\\xd0\\xbd\\xd0\\xb8\\xd0\\xb5.sol\":3695:3729  heirs[heirAddresses[i]].amount = 0 */\n      dup2\n      swap1\n      sstore\n      pop\n        /* \"9 \\xd0\\xb7\\xd0\\xb0\\xd0\\xbd\\xd1\\x8f\\xd1\\x82\\xd0\\xb8\\xd0\\xb5/\\xd0\\x97\\xd0\\xb0\\xd0\\xb2\\xd0\\xb5\\xd1\\x89\\xd0\\xb0\\xd0\\xbd\\xd0\\xb8\\xd0\\xb5.sol\":3675:3678  i++ */\n      dup1\n      dup1\n      0x01\n      add\n      swap2\n      pop\n      pop\n        /* \"9 \\xd0\\xb7\\xd0\\xb0\\xd0\\xbd\\xd1\\x8f\\xd1\\x82\\xd0\\xb8\\xd0\\xb5/\\xd0\\x97\\xd0\\xb0\\xd0\\xb2\\xd0\\xb5\\xd1\\x89\\xd0\\xb0\\xd0\\xbd\\xd0\\xb8\\xd0\\xb5.sol\":3629:3741  for (uint256 i = 0; i < heirAddresses.length; i++) {... */\n      jump(tag_106)\n    tag_107:\n      pop\n        /* \"9 \\xd0\\xb7\\xd0\\xb0\\xd0\\xbd\\xd1\\x8f\\xd1\\x82\\xd0\\xb8\\xd0\\xb5/\\xd0\\x97\\xd0\\xb0\\xd0\\xb2\\xd0\\xb5\\xd1\\x89\\xd0\\xb0\\xd0\\xbd\\xd0\\xb8\\xd0\\xb5.sol\":3759:3770  grandmother */\n      0x00\n      dup1\n      sload\n      swap1\n      0x0100\n      exp\n      swap1\n      div\n      0xffffffffffffffffffffffffffffffffffffffff\n      and\n        /* \"9 \\xd0\\xb7\\xd0\\xb0\\xd0\\xbd\\xd1\\x8f\\xd1\\x82\\xd0\\xb8\\xd0\\xb5/\\xd0\\x97\\xd0\\xb0\\xd0\\xb2\\xd0\\xb5\\xd1\\x89\\xd0\\xb0\\xd0\\xbd\\xd0\\xb8\\xd0\\xb5.sol\":3751:3780  payable(grandmother).transfer */\n      0xffffffffffffffffffffffffffffffffffffffff\n      and\n        /* \"9 \\xd0\\xb7\\xd0\\xb0\\xd0\\xbd\\xd1\\x8f\\xd1\\x82\\xd0\\xb8\\xd0\\xb5/\\xd0\\x97\\xd0\\xb0\\xd0\\xb2\\xd0\\xb5\\xd1\\x89\\xd0\\xb0\\xd0\\xbd\\xd0\\xb8\\xd0\\xb5.sol\":3751:3789  payable(grandmother).transfer(balance) */\n      0x08fc\n        /* \"9 \\xd0\\xb7\\xd0\\xb0\\xd0\\xbd\\xd1\\x8f\\xd1\\x82\\xd0\\xb8\\xd0\\xb5/\\xd0\\x97\\xd0\\xb0\\xd0\\xb2\\xd0\\xb5\\xd1\\x89\\xd0\\xb0\\xd0\\xbd\\xd0\\xb8\\xd0\\xb5.sol\":3781:3788  balance */\n      dup3\n        /* \"9 \\xd0\\xb7\\xd0\\xb0\\xd0\\xbd\\xd1\\x8f\\xd1\\x82\\xd0\\xb8\\xd0\\xb5/\\xd0\\x97\\xd0\\xb0\\xd0\\xb2\\xd0\\xb5\\xd1\\x89\\xd0\\xb0\\xd0\\xbd\\xd0\\xb8\\xd0\\xb5.sol\":3751:3789  payable(grandmother).transfer(balance) */\n      swap1\n      dup2\n      iszero\n      mul\n      swap1\n      mload(0x40)\n      0x00\n      mload(0x40)\n      dup1\n      dup4\n      sub\n      dup2\n      dup6\n      dup9\n      dup9\n      call\n      swap4\n      pop\n      pop\n      pop\n      pop\n      iszero\n      dup1\n      iszero\n      tag_114\n      jumpi\n      returndatasize\n      0x00\n      dup1\n      returndatacopy\n      revert(0x00, returndatasize)\n    tag_114:\n      pop\n        /* \"9 \\xd0\\xb7\\xd0\\xb0\\xd0\\xbd\\xd1\\x8f\\xd1\\x82\\xd0\\xb8\\xd0\\xb5/\\xd0\\x97\\xd0\\xb0\\xd0\\xb2\\xd0\\xb5\\xd1\\x89\\xd0\\xb0\\xd0\\xbd\\xd0\\xb8\\xd0\\xb5.sol\":3568:3797  {... */\n      pop\n        /* \"9 \\xd0\\xb7\\xd0\\xb0\\xd0\\xbd\\xd1\\x8f\\xd1\\x82\\xd0\\xb8\\xd0\\xb5/\\xd0\\x97\\xd0\\xb0\\xd0\\xb2\\xd0\\xb5\\xd1\\x89\\xd0\\xb0\\xd0\\xbd\\xd0\\xb8\\xd0\\xb5.sol\":3520:3797  function withdrawAll() external onlyGrandmother {... */\n      jump\t// out\n        /* \"9 \\xd0\\xb7\\xd0\\xb0\\xd0\\xbd\\xd1\\x8f\\xd1\\x82\\xd0\\xb8\\xd0\\xb5/\\xd0\\x97\\xd0\\xb0\\xd0\\xb2\\xd0\\xb5\\xd1\\x89\\xd0\\xb0\\xd0\\xbd\\xd0\\xb8\\xd0\\xb5.sol\":227:252  bool public deathNotified */\n    tag_42:\n      0x03\n      0x00\n      swap1\n      sload\n      swap1\n      0x0100\n      exp\n      swap1\n      div\n      0xff\n      and\n      dup2\n      jump\t// out\n        /* \"9 \\xd0\\xb7\\xd0\\xb0\\xd0\\xbd\\xd1\\x8f\\xd1\\x82\\xd0\\xb8\\xd0\\xb5/\\xd0\\x97\\xd0\\xb0\\xd0\\xb2\\xd0\\xb5\\xd1\\x89\\xd0\\xb0\\xd0\\xbd\\xd0\\xb8\\xd0\\xb5.sol\":2487:2852  function depositFunds(address heir, uint256 amount) external payable onlyGrandmother {... */\n    tag_48:\n        /* \"9 \\xd0\\xb7\\xd0\\xb0\\xd0\\xbd\\xd1\\x8f\\xd1\\x82\\xd0\\xb8\\xd0\\xb5/\\xd0\\x97\\xd0\\xb0\\xd0\\xb2\\xd0\\xb5\\xd1\\x89\\xd0\\xb0\\xd0\\xbd\\xd0\\xb8\\xd0\\xb5.sol\":557:568  grandmother */\n      0x00\n      dup1\n      sload\n      swap1\n      0x0100\n      exp\n      swap1\n      div\n      0xffffffffffffffffffffffffffffffffffffffff\n      and\n        /* \"9 \\xd0\\xb7\\xd0\\xb0\\xd0\\xbd\\xd1\\x8f\\xd1\\x82\\xd0\\xb8\\xd0\\xb5/\\xd0\\x97\\xd0\\xb0\\xd0\\xb2\\xd0\\xb5\\xd1\\x89\\xd0\\xb0\\xd0\\xbd\\xd0\\xb8\\xd0\\xb5.sol\":543:568  msg.sender == grandmother */\n      0xffffffffffffffffffffffffffffffffffffffff\n      and\n        /* \"9 \\xd0\\xb7\\xd0\\xb0\\xd0\\xbd\\xd1\\x8f\\xd1\\x82\\xd0\\xb8\\xd0\\xb5/\\xd0\\x97\\xd0\\xb0\\xd0\\xb2\\xd0\\xb5\\xd1\\x89\\xd0\\xb0\\xd0\\xbd\\xd0\\xb8\\xd0\\xb5.sol\":543:553  msg.sender */\n      caller\n        /* \"9 \\xd0\\xb7\\xd0\\xb0\\xd0\\xbd\\xd1\\x8f\\xd1\\x82\\xd0\\xb8\\xd0\\xb5/\\xd0\\x97\\xd0\\xb0\\xd0\\xb2\\xd0\\xb5\\xd1\\x89\\xd0\\xb0\\xd0\\xbd\\xd0\\xb8\\xd0\\xb5.sol\":543:568  msg.sender == grandmother */\n      0xffffffffffffffffffffffffffffffffffffffff\n      and\n      eq\n        /* \"9 \\xd0\\xb7\\xd0\\xb0\\xd0\\xbd\\xd1\\x8f\\xd1\\x82\\xd0\\xb8\\xd0\\xb5/\\xd0\\x97\\xd0\\xb0\\xd0\\xb2\\xd0\\xb5\\xd1\\x89\\xd0\\xb0\\xd0\\xbd\\xd0\\xb8\\xd0\\xb5.sol\":535:599  require(msg.sender == grandmother, \"You are not a grandmother.\") */\n      tag_116\n      jumpi\n      mload(0x40)\n      0x08c379a000000000000000000000000000000000000000000000000000000000\n      dup2\n      mstore\n      0x04\n      add\n      tag_117\n      swap1\n      tag_95\n      jump\t// in\n    tag_117:\n      mload(0x40)\n      dup1\n      swap2\n      sub\n      swap1\n      revert\n    tag_116:\n        /* \"9 \\xd0\\xb7\\xd0\\xb0\\xd0\\xbd\\xd1\\x8f\\xd1\\x82\\xd0\\xb8\\xd0\\xb5/\\xd0\\x97\\xd0\\xb0\\xd0\\xb2\\xd0\\xb5\\xd1\\x89\\xd0\\xb0\\xd0\\xbd\\xd0\\xb8\\xd0\\xb5.sol\":2613:2620  1 ether */\n      0x0de0b6b3a7640000\n        /* \"9 \\xd0\\xb7\\xd0\\xb0\\xd0\\xbd\\xd1\\x8f\\xd1\\x82\\xd0\\xb8\\xd0\\xb5/\\xd0\\x97\\xd0\\xb0\\xd0\\xb2\\xd0\\xb5\\xd1\\x89\\xd0\\xb0\\xd0\\xbd\\xd0\\xb8\\xd0\\xb5.sol\":2604:2610  amount */\n      dup2\n        /* \"9 \\xd0\\xb7\\xd0\\xb0\\xd0\\xbd\\xd1\\x8f\\xd1\\x82\\xd0\\xb8\\xd0\\xb5/\\xd0\\x97\\xd0\\xb0\\xd0\\xb2\\xd0\\xb5\\xd1\\x89\\xd0\\xb0\\xd0\\xbd\\xd0\\xb8\\xd0\\xb5.sol\":2604:2620  amount * 1 ether */\n      tag_119\n      swap2\n      swap1\n      tag_120\n      jump\t// in\n    tag_119:\n        /* \"9 \\xd0\\xb7\\xd0\\xb0\\xd0\\xbd\\xd1\\x8f\\xd1\\x82\\xd0\\xb8\\xd0\\xb5/\\xd0\\x97\\xd0\\xb0\\xd0\\xb2\\xd0\\xb5\\xd1\\x89\\xd0\\xb0\\xd0\\xbd\\xd0\\xb8\\xd0\\xb5.sol\":2591:2600  msg.value */\n      callvalue\n        /* \"9 \\xd0\\xb7\\xd0\\xb0\\xd0\\xbd\\xd1\\x8f\\xd1\\x82\\xd0\\xb8\\xd0\\xb5/\\xd0\\x97\\xd0\\xb0\\xd0\\xb2\\xd0\\xb5\\xd1\\x89\\xd0\\xb0\\xd0\\xbd\\xd0\\xb8\\xd0\\xb5.sol\":2591:2620  msg.value == amount * 1 ether */\n      eq\n        /* \"9 \\xd0\\xb7\\xd0\\xb0\\xd0\\xbd\\xd1\\x8f\\xd1\\x82\\xd0\\xb8\\xd0\\xb5/\\xd0\\x97\\xd0\\xb0\\xd0\\xb2\\xd0\\xb5\\xd1\\x89\\xd0\\xb0\\xd0\\xbd\\xd0\\xb8\\xd0\\xb5.sol\":2583:2651  require(msg.value == amount * 1 ether, \"Incorrect Ether value sent\") */\n      tag_121\n      jumpi\n      mload(0x40)\n      0x08c379a000000000000000000000000000000000000000000000000000000000\n      dup2\n      mstore\n      0x04\n      add\n      tag_122\n      swap1\n      tag_123\n      jump\t// in\n    tag_122:\n      mload(0x40)\n      dup1\n      swap2\n      sub\n      swap1\n      revert\n    tag_121:\n        /* \"9 \\xd0\\xb7\\xd0\\xb0\\xd0\\xbd\\xd1\\x8f\\xd1\\x82\\xd0\\xb8\\xd0\\xb5/\\xd0\\x97\\xd0\\xb0\\xd0\\xb2\\xd0\\xb5\\xd1\\x89\\xd0\\xb0\\xd0\\xbd\\xd0\\xb8\\xd0\\xb5.sol\":2688:2689  0 */\n      0x00\n        /* \"9 \\xd0\\xb7\\xd0\\xb0\\xd0\\xbd\\xd1\\x8f\\xd1\\x82\\xd0\\xb8\\xd0\\xb5/\\xd0\\x97\\xd0\\xb0\\xd0\\xb2\\xd0\\xb5\\xd1\\x89\\xd0\\xb0\\xd0\\xbd\\xd0\\xb8\\xd0\\xb5.sol\":2666:2671  heirs */\n      0x05\n        /* \"9 \\xd0\\xb7\\xd0\\xb0\\xd0\\xbd\\xd1\\x8f\\xd1\\x82\\xd0\\xb8\\xd0\\xb5/\\xd0\\x97\\xd0\\xb0\\xd0\\xb2\\xd0\\xb5\\xd1\\x89\\xd0\\xb0\\xd0\\xbd\\xd0\\xb8\\xd0\\xb5.sol\":2666:2677  heirs[heir] */\n      0x00\n        /* \"9 \\xd0\\xb7\\xd0\\xb0\\xd0\\xbd\\xd1\\x8f\\xd1\\x82\\xd0\\xb8\\xd0\\xb5/\\xd0\\x97\\xd0\\xb0\\xd0\\xb2\\xd0\\xb5\\xd1\\x89\\xd0\\xb0\\xd0\\xbd\\xd0\\xb8\\xd0\\xb5.sol\":2672:2676  heir */\n      dup5\n        /* \"9 \\xd0\\xb7\\xd0\\xb0\\xd0\\xbd\\xd1\\x8f\\xd1\\x82\\xd0\\xb8\\xd0\\xb5/\\xd0\\x97\\xd0\\xb0\\xd0\\xb2\\xd0\\xb5\\xd1\\x89\\xd0\\xb0\\xd0\\xbd\\xd0\\xb8\\xd0\\xb5.sol\":2666:2677  heirs[heir] */\n      0xffffffffffffffffffffffffffffffffffffffff\n      and\n      0xffffffffffffffffffffffffffffffffffffffff\n      and\n      dup2\n      mstore\n      0x20\n      add\n      swap1\n      dup2\n      mstore\n      0x20\n      add\n      0x00\n      keccak256\n        /* \"9 \\xd0\\xb7\\xd0\\xb0\\xd0\\xbd\\xd1\\x8f\\xd1\\x82\\xd0\\xb8\\xd0\\xb5/\\xd0\\x97\\xd0\\xb0\\xd0\\xb2\\xd0\\xb5\\xd1\\x89\\xd0\\xb0\\xd0\\xbd\\xd0\\xb8\\xd0\\xb5.sol\":2666:2684  heirs[heir].amount */\n      0x00\n      add\n      sload\n        /* \"9 \\xd0\\xb7\\xd0\\xb0\\xd0\\xbd\\xd1\\x8f\\xd1\\x82\\xd0\\xb8\\xd0\\xb5/\\xd0\\x97\\xd0\\xb0\\xd0\\xb2\\xd0\\xb5\\xd1\\x89\\xd0\\xb0\\xd0\\xbd\\xd0\\xb8\\xd0\\xb5.sol\":2666:2689  heirs[heir].amount == 0 */\n      sub\n        /* \"9 \\xd0\\xb7\\xd0\\xb0\\xd0\\xbd\\xd1\\x8f\\xd1\\x82\\xd0\\xb8\\xd0\\xb5/\\xd0\\x97\\xd0\\xb0\\xd0\\xb2\\xd0\\xb5\\xd1\\x89\\xd0\\xb0\\xd0\\xbd\\xd0\\xb8\\xd0\\xb5.sol\":2662:2742  if (heirs[heir].amount == 0) {... */\n      tag_124\n      jumpi\n        /* \"9 \\xd0\\xb7\\xd0\\xb0\\xd0\\xbd\\xd1\\x8f\\xd1\\x82\\xd0\\xb8\\xd0\\xb5/\\xd0\\x97\\xd0\\xb0\\xd0\\xb2\\xd0\\xb5\\xd1\\x89\\xd0\\xb0\\xd0\\xbd\\xd0\\xb8\\xd0\\xb5.sol\":2706:2719  heirAddresses */\n      0x06\n        /* \"9 \\xd0\\xb7\\xd0\\xb0\\xd0\\xbd\\xd1\\x8f\\xd1\\x82\\xd0\\xb8\\xd0\\xb5/\\xd0\\x97\\xd0\\xb0\\xd0\\xb2\\xd0\\xb5\\xd1\\x89\\xd0\\xb0\\xd0\\xbd\\xd0\\xb8\\xd0\\xb5.sol\":2725:2729  heir */\n      dup3\n        /* \"9 \\xd0\\xb7\\xd0\\xb0\\xd0\\xbd\\xd1\\x8f\\xd1\\x82\\xd0\\xb8\\xd0\\xb5/\\xd0\\x97\\xd0\\xb0\\xd0\\xb2\\xd0\\xb5\\xd1\\x89\\xd0\\xb0\\xd0\\xbd\\xd0\\xb8\\xd0\\xb5.sol\":2706:2730  heirAddresses.push(heir) */\n      swap1\n      dup1\n      0x01\n      dup2\n      sload\n      add\n      dup1\n      dup3\n      sstore\n      dup1\n      swap2\n      pop\n      pop\n      0x01\n      swap1\n      sub\n      swap1\n      0x00\n      mstore\n      keccak256(0x00, 0x20)\n      add\n      0x00\n      swap1\n      swap2\n      swap1\n      swap2\n      swap1\n      swap2\n      0x0100\n      exp\n      dup2\n      sload\n      dup2\n      0xffffffffffffffffffffffffffffffffffffffff\n      mul\n      not\n      and\n      swap1\n      dup4\n      0xffffffffffffffffffffffffffffffffffffffff\n      and\n      mul\n      or\n      swap1\n      sstore\n      pop\n        /* \"9 \\xd0\\xb7\\xd0\\xb0\\xd0\\xbd\\xd1\\x8f\\xd1\\x82\\xd0\\xb8\\xd0\\xb5/\\xd0\\x97\\xd0\\xb0\\xd0\\xb2\\xd0\\xb5\\xd1\\x89\\xd0\\xb0\\xd0\\xbd\\xd0\\xb8\\xd0\\xb5.sol\":2662:2742  if (heirs[heir].amount == 0) {... */\n    tag_124:\n        /* \"9 \\xd0\\xb7\\xd0\\xb0\\xd0\\xbd\\xd1\\x8f\\xd1\\x82\\xd0\\xb8\\xd0\\xb5/\\xd0\\x97\\xd0\\xb0\\xd0\\xb2\\xd0\\xb5\\xd1\\x89\\xd0\\xb0\\xd0\\xbd\\xd0\\xb8\\xd0\\xb5.sol\":2783:2790  1 ether */\n      0x0de0b6b3a7640000\n        /* \"9 \\xd0\\xb7\\xd0\\xb0\\xd0\\xbd\\xd1\\x8f\\xd1\\x82\\xd0\\xb8\\xd0\\xb5/\\xd0\\x97\\xd0\\xb0\\xd0\\xb2\\xd0\\xb5\\xd1\\x89\\xd0\\xb0\\xd0\\xbd\\xd0\\xb8\\xd0\\xb5.sol\":2774:2780  amount */\n      dup2\n        /* \"9 \\xd0\\xb7\\xd0\\xb0\\xd0\\xbd\\xd1\\x8f\\xd1\\x82\\xd0\\xb8\\xd0\\xb5/\\xd0\\x97\\xd0\\xb0\\xd0\\xb2\\xd0\\xb5\\xd1\\x89\\xd0\\xb0\\xd0\\xbd\\xd0\\xb8\\xd0\\xb5.sol\":2774:2790  amount * 1 ether */\n      tag_126\n      swap2\n      swap1\n      tag_120\n      jump\t// in\n    tag_126:\n        /* \"9 \\xd0\\xb7\\xd0\\xb0\\xd0\\xbd\\xd1\\x8f\\xd1\\x82\\xd0\\xb8\\xd0\\xb5/\\xd0\\x97\\xd0\\xb0\\xd0\\xb2\\xd0\\xb5\\xd1\\x89\\xd0\\xb0\\xd0\\xbd\\xd0\\xb8\\xd0\\xb5.sol\":2752:2757  heirs */\n      0x05\n        /* \"9 \\xd0\\xb7\\xd0\\xb0\\xd0\\xbd\\xd1\\x8f\\xd1\\x82\\xd0\\xb8\\xd0\\xb5/\\xd0\\x97\\xd0\\xb0\\xd0\\xb2\\xd0\\xb5\\xd1\\x89\\xd0\\xb0\\xd0\\xbd\\xd0\\xb8\\xd0\\xb5.sol\":2752:2763  heirs[heir] */\n      0x00\n        /* \"9 \\xd0\\xb7\\xd0\\xb0\\xd0\\xbd\\xd1\\x8f\\xd1\\x82\\xd0\\xb8\\xd0\\xb5/\\xd0\\x97\\xd0\\xb0\\xd0\\xb2\\xd0\\xb5\\xd1\\x89\\xd0\\xb0\\xd0\\xbd\\xd0\\xb8\\xd0\\xb5.sol\":2758:2762  heir */\n      dup5\n        /* \"9 \\xd0\\xb7\\xd0\\xb0\\xd0\\xbd\\xd1\\x8f\\xd1\\x82\\xd0\\xb8\\xd0\\xb5/\\xd0\\x97\\xd0\\xb0\\xd0\\xb2\\xd0\\xb5\\xd1\\x89\\xd0\\xb0\\xd0\\xbd\\xd0\\xb8\\xd0\\xb5.sol\":2752:2763  heirs[heir] */\n      0xffffffffffffffffffffffffffffffffffffffff\n      and\n      0xffffffffffffffffffffffffffffffffffffffff\n      and\n      dup2\n      mstore\n      0x20\n      add\n      swap1\n      dup2\n      mstore\n      0x20\n      add\n      0x00\n      keccak256\n        /* \"9 \\xd0\\xb7\\xd0\\xb0\\xd0\\xbd\\xd1\\x8f\\xd1\\x82\\xd0\\xb8\\xd0\\xb5/\\xd0\\x97\\xd0\\xb0\\xd0\\xb2\\xd0\\xb5\\xd1\\x89\\xd0\\xb0\\xd0\\xbd\\xd0\\xb8\\xd0\\xb5.sol\":2752:2770  heirs[heir].amount */\n      0x00\n      add\n      0x00\n        /* \"9 \\xd0\\xb7\\xd0\\xb0\\xd0\\xbd\\xd1\\x8f\\xd1\\x82\\xd0\\xb8\\xd0\\xb5/\\xd0\\x97\\xd0\\xb0\\xd0\\xb2\\xd0\\xb5\\xd1\\x89\\xd0\\xb0\\xd0\\xbd\\xd0\\xb8\\xd0\\xb5.sol\":2752:2790  heirs[heir].amount += amount * 1 ether */\n      dup3\n      dup3\n      sload\n      tag_127\n      swap2\n      swap1\n      tag_81\n      jump\t// in\n    tag_127:\n      swap3\n      pop\n      pop\n      dup2\n      swap1\n      sstore\n      pop\n        /* \"9 \\xd0\\xb7\\xd0\\xb0\\xd0\\xbd\\xd1\\x8f\\xd1\\x82\\xd0\\xb8\\xd0\\xb5/\\xd0\\x97\\xd0\\xb0\\xd0\\xb2\\xd0\\xb5\\xd1\\x89\\xd0\\xb0\\xd0\\xbd\\xd0\\xb8\\xd0\\xb5.sol\":2821:2825  heir */\n      dup2\n        /* \"9 \\xd0\\xb7\\xd0\\xb0\\xd0\\xbd\\xd1\\x8f\\xd1\\x82\\xd0\\xb8\\xd0\\xb5/\\xd0\\x97\\xd0\\xb0\\xd0\\xb2\\xd0\\xb5\\xd1\\x89\\xd0\\xb0\\xd0\\xbd\\xd0\\xb8\\xd0\\xb5.sol\":2806:2844  FundsDeposited(heir, amount * 1 ether) */\n      0xffffffffffffffffffffffffffffffffffffffff\n      and\n      0x543ba50a5eec5e6178218e364b1d0f396157b3c8fa278522c2cb7fd99407d474\n        /* \"9 \\xd0\\xb7\\xd0\\xb0\\xd0\\xbd\\xd1\\x8f\\xd1\\x82\\xd0\\xb8\\xd0\\xb5/\\xd0\\x97\\xd0\\xb0\\xd0\\xb2\\xd0\\xb5\\xd1\\x89\\xd0\\xb0\\xd0\\xbd\\xd0\\xb8\\xd0\\xb5.sol\":2836:2843  1 ether */\n      0x0de0b6b3a7640000\n        /* \"9 \\xd0\\xb7\\xd0\\xb0\\xd0\\xbd\\xd1\\x8f\\xd1\\x82\\xd0\\xb8\\xd0\\xb5/\\xd0\\x97\\xd0\\xb0\\xd0\\xb2\\xd0\\xb5\\xd1\\x89\\xd0\\xb0\\xd0\\xbd\\xd0\\xb8\\xd0\\xb5.sol\":2827:2833  amount */\n      dup4\n        /* \"9 \\xd0\\xb7\\xd0\\xb0\\xd0\\xbd\\xd1\\x8f\\xd1\\x82\\xd0\\xb8\\xd0\\xb5/\\xd0\\x97\\xd0\\xb0\\xd0\\xb2\\xd0\\xb5\\xd1\\x89\\xd0\\xb0\\xd0\\xbd\\xd0\\xb8\\xd0\\xb5.sol\":2827:2843  amount * 1 ether */\n      tag_128\n      swap2\n      swap1\n      tag_120\n      jump\t// in\n    tag_128:\n        /* \"9 \\xd0\\xb7\\xd0\\xb0\\xd0\\xbd\\xd1\\x8f\\xd1\\x82\\xd0\\xb8\\xd0\\xb5/\\xd0\\x97\\xd0\\xb0\\xd0\\xb2\\xd0\\xb5\\xd1\\x89\\xd0\\xb0\\xd0\\xbd\\xd0\\xb8\\xd0\\xb5.sol\":2806:2844  FundsDeposited(heir, amount * 1 ether) */\n      mload(0x40)\n      tag_129\n      swap2\n      swap1\n      tag_24\n      jump\t// in\n    tag_129:\n      mload(0x40)\n      dup1\n      swap2\n      sub\n      swap1\n      log2\n        /* \"9 \\xd0\\xb7\\xd0\\xb0\\xd0\\xbd\\xd1\\x8f\\xd1\\x82\\xd0\\xb8\\xd0\\xb5/\\xd0\\x97\\xd0\\xb0\\xd0\\xb2\\xd0\\xb5\\xd1\\x89\\xd0\\xb0\\xd0\\xbd\\xd0\\xb8\\xd0\\xb5.sol\":2487:2852  function depositFunds(address heir, uint256 amount) external payable onlyGrandmother {... */\n      pop\n      pop\n      jump\t// out\n        /* \"9 \\xd0\\xb7\\xd0\\xb0\\xd0\\xbd\\xd1\\x8f\\xd1\\x82\\xd0\\xb8\\xd0\\xb5/\\xd0\\x97\\xd0\\xb0\\xd0\\xb2\\xd0\\xb5\\xd1\\x89\\xd0\\xb0\\xd0\\xbd\\xd0\\xb8\\xd0\\xb5.sol\":84:110  address public grandmother */\n    tag_51:\n      0x00\n      dup1\n      sload\n      swap1\n      0x0100\n      exp\n      swap1\n      div\n      0xffffffffffffffffffffffffffffffffffffffff\n      and\n      dup2\n      jump\t// out\n        /* \"9 \\xd0\\xb7\\xd0\\xb0\\xd0\\xbd\\xd1\\x8f\\xd1\\x82\\xd0\\xb8\\xd0\\xb5/\\xd0\\x97\\xd0\\xb0\\xd0\\xb2\\xd0\\xb5\\xd1\\x89\\xd0\\xb0\\xd0\\xbd\\xd0\\xb8\\xd0\\xb5.sol\":259:295  uint256 public deathNotificationTime */\n    tag_56:\n      sload(0x04)\n      dup2\n      jump\t// out\n        /* \"9 \\xd0\\xb7\\xd0\\xb0\\xd0\\xbd\\xd1\\x8f\\xd1\\x82\\xd0\\xb8\\xd0\\xb5/\\xd0\\x97\\xd0\\xb0\\xd0\\xb2\\xd0\\xb5\\xd1\\x89\\xd0\\xb0\\xd0\\xbd\\xd0\\xb8\\xd0\\xb5.sol\":5234:5676  function claimInheritance() external afterDeath onlyHeir {... */\n    tag_60:\n        /* \"9 \\xd0\\xb7\\xd0\\xb0\\xd0\\xbd\\xd1\\x8f\\xd1\\x82\\xd0\\xb8\\xd0\\xb5/\\xd0\\x97\\xd0\\xb0\\xd0\\xb2\\xd0\\xb5\\xd1\\x89\\xd0\\xb0\\xd0\\xbd\\xd0\\xb8\\xd0\\xb5.sol\":906:919  deathNotified */\n      0x03\n      0x00\n      swap1\n      sload\n      swap1\n      0x0100\n      exp\n      swap1\n      div\n      0xff\n      and\n        /* \"9 \\xd0\\xb7\\xd0\\xb0\\xd0\\xbd\\xd1\\x8f\\xd1\\x82\\xd0\\xb8\\xd0\\xb5/\\xd0\\x97\\xd0\\xb0\\xd0\\xb2\\xd0\\xb5\\xd1\\x89\\xd0\\xb0\\xd0\\xbd\\xd0\\xb8\\xd0\\xb5.sol\":906:973  deathNotified && block.timestamp >= deathNotificationTime + 30 days */\n      dup1\n      iszero\n      tag_131\n      jumpi\n      pop\n        /* \"9 \\xd0\\xb7\\xd0\\xb0\\xd0\\xbd\\xd1\\x8f\\xd1\\x82\\xd0\\xb8\\xd0\\xb5/\\xd0\\x97\\xd0\\xb0\\xd0\\xb2\\xd0\\xb5\\xd1\\x89\\xd0\\xb0\\xd0\\xbd\\xd0\\xb8\\xd0\\xb5.sol\":966:973  30 days */\n      0x278d00\n        /* \"9 \\xd0\\xb7\\xd0\\xb0\\xd0\\xbd\\xd1\\x8f\\xd1\\x82\\xd0\\xb8\\xd0\\xb5/\\xd0\\x97\\xd0\\xb0\\xd0\\xb2\\xd0\\xb5\\xd1\\x89\\xd0\\xb0\\xd0\\xbd\\xd0\\xb8\\xd0\\xb5.sol\":942:963  deathNotificationTime */\n      sload(0x04)\n        /* \"9 \\xd0\\xb7\\xd0\\xb0\\xd0\\xbd\\xd1\\x8f\\xd1\\x82\\xd0\\xb8\\xd0\\xb5/\\xd0\\x97\\xd0\\xb0\\xd0\\xb2\\xd0\\xb5\\xd1\\x89\\xd0\\xb0\\xd0\\xbd\\xd0\\xb8\\xd0\\xb5.sol\":942:973  deathNotificationTime + 30 days */\n      tag_132\n      swap2\n      swap1\n      tag_81\n      jump\t// in\n    tag_132:\n        /* \"9 \\xd0\\xb7\\xd0\\xb0\\xd0\\xbd\\xd1\\x8f\\xd1\\x82\\xd0\\xb8\\xd0\\xb5/\\xd0\\x97\\xd0\\xb0\\xd0\\xb2\\xd0\\xb5\\xd1\\x89\\xd0\\xb0\\xd0\\xbd\\xd0\\xb8\\xd0\\xb5.sol\":923:938  block.timestamp */\n      timestamp\n        /* \"9 \\xd0\\xb7\\xd0\\xb0\\xd0\\xbd\\xd1\\x8f\\xd1\\x82\\xd0\\xb8\\xd0\\xb5/\\xd0\\x97\\xd0\\xb0\\xd0\\xb2\\xd0\\xb5\\xd1\\x89\\xd0\\xb0\\xd0\\xbd\\xd0\\xb8\\xd0\\xb5.sol\":923:973  block.timestamp >= deathNotificationTime + 30 days */\n      lt\n      iszero\n        /* \"9 \\xd0\\xb7\\xd0\\xb0\\xd0\\xbd\\xd1\\x8f\\xd1\\x82\\xd0\\xb8\\xd0\\xb5/\\xd0\\x97\\xd0\\xb0\\xd0\\xb2\\xd0\\xb5\\xd1\\x89\\xd0\\xb0\\xd0\\xbd\\xd0\\xb8\\xd0\\xb5.sol\":906:973  deathNotified && block.timestamp >= deathNotificationTime + 30 days */\n    tag_131:\n        /* \"9 \\xd0\\xb7\\xd0\\xb0\\xd0\\xbd\\xd1\\x8f\\xd1\\x82\\xd0\\xb8\\xd0\\xb5/\\xd0\\x97\\xd0\\xb0\\xd0\\xb2\\xd0\\xb5\\xd1\\x89\\xd0\\xb0\\xd0\\xbd\\xd0\\xb8\\xd0\\xb5.sol\":898:1002  require(deathNotified && block.timestamp >= deathNotificationTime + 30 days, \"30 days have not passed.\") */\n      tag_133\n      jumpi\n      mload(0x40)\n      0x08c379a000000000000000000000000000000000000000000000000000000000\n      dup2\n      mstore\n      0x04\n      add\n      tag_134\n      swap1\n      tag_135\n      jump\t// in\n    tag_134:\n      mload(0x40)\n      dup1\n      swap2\n      sub\n      swap1\n      revert\n    tag_133:\n        /* \"9 \\xd0\\xb7\\xd0\\xb0\\xd0\\xbd\\xd1\\x8f\\xd1\\x82\\xd0\\xb8\\xd0\\xb5/\\xd0\\x97\\xd0\\xb0\\xd0\\xb2\\xd0\\xb5\\xd1\\x89\\xd0\\xb0\\xd0\\xbd\\xd0\\xb8\\xd0\\xb5.sol\":693:694  0 */\n      0x00\n        /* \"9 \\xd0\\xb7\\xd0\\xb0\\xd0\\xbd\\xd1\\x8f\\xd1\\x82\\xd0\\xb8\\xd0\\xb5/\\xd0\\x97\\xd0\\xb0\\xd0\\xb2\\xd0\\xb5\\xd1\\x89\\xd0\\xb0\\xd0\\xbd\\xd0\\xb8\\xd0\\xb5.sol\":666:671  heirs */\n      0x05\n        /* \"9 \\xd0\\xb7\\xd0\\xb0\\xd0\\xbd\\xd1\\x8f\\xd1\\x82\\xd0\\xb8\\xd0\\xb5/\\xd0\\x97\\xd0\\xb0\\xd0\\xb2\\xd0\\xb5\\xd1\\x89\\xd0\\xb0\\xd0\\xbd\\xd0\\xb8\\xd0\\xb5.sol\":666:683  heirs[msg.sender] */\n      0x00\n        /* \"9 \\xd0\\xb7\\xd0\\xb0\\xd0\\xbd\\xd1\\x8f\\xd1\\x82\\xd0\\xb8\\xd0\\xb5/\\xd0\\x97\\xd0\\xb0\\xd0\\xb2\\xd0\\xb5\\xd1\\x89\\xd0\\xb0\\xd0\\xbd\\xd0\\xb8\\xd0\\xb5.sol\":672:682  msg.sender */\n      caller\n        /* \"9 \\xd0\\xb7\\xd0\\xb0\\xd0\\xbd\\xd1\\x8f\\xd1\\x82\\xd0\\xb8\\xd0\\xb5/\\xd0\\x97\\xd0\\xb0\\xd0\\xb2\\xd0\\xb5\\xd1\\x89\\xd0\\xb0\\xd0\\xbd\\xd0\\xb8\\xd0\\xb5.sol\":666:683  heirs[msg.sender] */\n      0xffffffffffffffffffffffffffffffffffffffff\n      and\n      0xffffffffffffffffffffffffffffffffffffffff\n      and\n      dup2\n      mstore\n      0x20\n      add\n      swap1\n      dup2\n      mstore\n      0x20\n      add\n      0x00\n      keccak256\n        /* \"9 \\xd0\\xb7\\xd0\\xb0\\xd0\\xbd\\xd1\\x8f\\xd1\\x82\\xd0\\xb8\\xd0\\xb5/\\xd0\\x97\\xd0\\xb0\\xd0\\xb2\\xd0\\xb5\\xd1\\x89\\xd0\\xb0\\xd0\\xbd\\xd0\\xb8\\xd0\\xb5.sol\":666:690  heirs[msg.sender].amount */\n      0x00\n      add\n      sload\n        /* \"9 \\xd0\\xb7\\xd0\\xb0\\xd0\\xbd\\xd1\\x8f\\xd1\\x82\\xd0\\xb8\\xd0\\xb5/\\xd0\\x97\\xd0\\xb0\\xd0\\xb2\\xd0\\xb5\\xd1\\x89\\xd0\\xb0\\xd0\\xbd\\xd0\\xb8\\xd0\\xb5.sol\":666:694  heirs[msg.sender].amount > 0 */\n      gt\n        /* \"9 \\xd0\\xb7\\xd0\\xb0\\xd0\\xbd\\xd1\\x8f\\xd1\\x82\\xd0\\xb8\\xd0\\xb5/\\xd0\\x97\\xd0\\xb0\\xd0\\xb2\\xd0\\xb5\\xd1\\x89\\xd0\\xb0\\xd0\\xbd\\xd0\\xb8\\xd0\\xb5.sol\":658:719  require(heirs[msg.sender].amount > 0, \"You are not an heir.\") */\n      tag_137\n      jumpi\n      mload(0x40)\n      0x08c379a000000000000000000000000000000000000000000000000000000000\n      dup2\n      mstore\n      0x04\n      add\n      tag_138\n      swap1\n      tag_88\n      jump\t// in\n    tag_138:\n      mload(0x40)\n      dup1\n      swap2\n      sub\n      swap1\n      revert\n    tag_137:\n        /* \"9 \\xd0\\xb7\\xd0\\xb0\\xd0\\xbd\\xd1\\x8f\\xd1\\x82\\xd0\\xb8\\xd0\\xb5/\\xd0\\x97\\xd0\\xb0\\xd0\\xb2\\xd0\\xb5\\xd1\\x89\\xd0\\xb0\\xd0\\xbd\\xd0\\xb8\\xd0\\xb5.sol\":5302:5319  Heir storage heir */\n      0x00\n        /* \"9 \\xd0\\xb7\\xd0\\xb0\\xd0\\xbd\\xd1\\x8f\\xd1\\x82\\xd0\\xb8\\xd0\\xb5/\\xd0\\x97\\xd0\\xb0\\xd0\\xb2\\xd0\\xb5\\xd1\\x89\\xd0\\xb0\\xd0\\xbd\\xd0\\xb8\\xd0\\xb5.sol\":5322:5327  heirs */\n      0x05\n        /* \"9 \\xd0\\xb7\\xd0\\xb0\\xd0\\xbd\\xd1\\x8f\\xd1\\x82\\xd0\\xb8\\xd0\\xb5/\\xd0\\x97\\xd0\\xb0\\xd0\\xb2\\xd0\\xb5\\xd1\\x89\\xd0\\xb0\\xd0\\xbd\\xd0\\xb8\\xd0\\xb5.sol\":5322:5339  heirs[msg.sender] */\n      0x00\n        /* \"9 \\xd0\\xb7\\xd0\\xb0\\xd0\\xbd\\xd1\\x8f\\xd1\\x82\\xd0\\xb8\\xd0\\xb5/\\xd0\\x97\\xd0\\xb0\\xd0\\xb2\\xd0\\xb5\\xd1\\x89\\xd0\\xb0\\xd0\\xbd\\xd0\\xb8\\xd0\\xb5.sol\":5328:5338  msg.sender */\n      caller\n        /* \"9 \\xd0\\xb7\\xd0\\xb0\\xd0\\xbd\\xd1\\x8f\\xd1\\x82\\xd0\\xb8\\xd0\\xb5/\\xd0\\x97\\xd0\\xb0\\xd0\\xb2\\xd0\\xb5\\xd1\\x89\\xd0\\xb0\\xd0\\xbd\\xd0\\xb8\\xd0\\xb5.sol\":5322:5339  heirs[msg.sender] */\n      0xffffffffffffffffffffffffffffffffffffffff\n      and\n      0xffffffffffffffffffffffffffffffffffffffff\n      and\n      dup2\n      mstore\n      0x20\n      add\n      swap1\n      dup2\n      mstore\n      0x20\n      add\n      0x00\n      keccak256\n        /* \"9 \\xd0\\xb7\\xd0\\xb0\\xd0\\xbd\\xd1\\x8f\\xd1\\x82\\xd0\\xb8\\xd0\\xb5/\\xd0\\x97\\xd0\\xb0\\xd0\\xb2\\xd0\\xb5\\xd1\\x89\\xd0\\xb0\\xd0\\xbd\\xd0\\xb8\\xd0\\xb5.sol\":5302:5339  Heir storage heir = heirs[msg.sender] */\n      swap1\n      pop\n        /* \"9 \\xd0\\xb7\\xd0\\xb0\\xd0\\xbd\\xd1\\x8f\\xd1\\x82\\xd0\\xb8\\xd0\\xb5/\\xd0\\x97\\xd0\\xb0\\xd0\\xb2\\xd0\\xb5\\xd1\\x89\\xd0\\xb0\\xd0\\xbd\\xd0\\xb8\\xd0\\xb5.sol\":5372:5373  0 */\n      0x00\n        /* \"9 \\xd0\\xb7\\xd0\\xb0\\xd0\\xbd\\xd1\\x8f\\xd1\\x82\\xd0\\xb8\\xd0\\xb5/\\xd0\\x97\\xd0\\xb0\\xd0\\xb2\\xd0\\xb5\\xd1\\x89\\xd0\\xb0\\xd0\\xbd\\xd0\\xb8\\xd0\\xb5.sol\":5358:5362  heir */\n      dup2\n        /* \"9 \\xd0\\xb7\\xd0\\xb0\\xd0\\xbd\\xd1\\x8f\\xd1\\x82\\xd0\\xb8\\xd0\\xb5/\\xd0\\x97\\xd0\\xb0\\xd0\\xb2\\xd0\\xb5\\xd1\\x89\\xd0\\xb0\\xd0\\xbd\\xd0\\xb8\\xd0\\xb5.sol\":5358:5369  heir.amount */\n      0x00\n      add\n      sload\n        /* \"9 \\xd0\\xb7\\xd0\\xb0\\xd0\\xbd\\xd1\\x8f\\xd1\\x82\\xd0\\xb8\\xd0\\xb5/\\xd0\\x97\\xd0\\xb0\\xd0\\xb2\\xd0\\xb5\\xd1\\x89\\xd0\\xb0\\xd0\\xbd\\xd0\\xb8\\xd0\\xb5.sol\":5358:5373  heir.amount > 0 */\n      gt\n        /* \"9 \\xd0\\xb7\\xd0\\xb0\\xd0\\xbd\\xd1\\x8f\\xd1\\x82\\xd0\\xb8\\xd0\\xb5/\\xd0\\x97\\xd0\\xb0\\xd0\\xb2\\xd0\\xb5\\xd1\\x89\\xd0\\xb0\\xd0\\xbd\\xd0\\xb8\\xd0\\xb5.sol\":5350:5402  require(heir.amount > 0, \"No inheritance allocated\") */\n      tag_140\n      jumpi\n      mload(0x40)\n      0x08c379a000000000000000000000000000000000000000000000000000000000\n      dup2\n      mstore\n      0x04\n      add\n      tag_141\n      swap1\n      tag_142\n      jump\t// in\n    tag_141:\n      mload(0x40)\n      dup1\n      swap2\n      sub\n      swap1\n      revert\n    tag_140:\n        /* \"9 \\xd0\\xb7\\xd0\\xb0\\xd0\\xbd\\xd1\\x8f\\xd1\\x82\\xd0\\xb8\\xd0\\xb5/\\xd0\\x97\\xd0\\xb0\\xd0\\xb2\\xd0\\xb5\\xd1\\x89\\xd0\\xb0\\xd0\\xbd\\xd0\\xb8\\xd0\\xb5.sol\":5422:5426  heir */\n      dup1\n        /* \"9 \\xd0\\xb7\\xd0\\xb0\\xd0\\xbd\\xd1\\x8f\\xd1\\x82\\xd0\\xb8\\xd0\\xb5/\\xd0\\x97\\xd0\\xb0\\xd0\\xb2\\xd0\\xb5\\xd1\\x89\\xd0\\xb0\\xd0\\xbd\\xd0\\xb8\\xd0\\xb5.sol\":5422:5437  heir.hasClaimed */\n      0x01\n      add\n      0x00\n      swap1\n      sload\n      swap1\n      0x0100\n      exp\n      swap1\n      div\n      0xff\n      and\n        /* \"9 \\xd0\\xb7\\xd0\\xb0\\xd0\\xbd\\xd1\\x8f\\xd1\\x82\\xd0\\xb8\\xd0\\xb5/\\xd0\\x97\\xd0\\xb0\\xd0\\xb2\\xd0\\xb5\\xd1\\x89\\xd0\\xb0\\xd0\\xbd\\xd0\\xb8\\xd0\\xb5.sol\":5421:5437  !heir.hasClaimed */\n      iszero\n        /* \"9 \\xd0\\xb7\\xd0\\xb0\\xd0\\xbd\\xd1\\x8f\\xd1\\x82\\xd0\\xb8\\xd0\\xb5/\\xd0\\x97\\xd0\\xb0\\xd0\\xb2\\xd0\\xb5\\xd1\\x89\\xd0\\xb0\\xd0\\xbd\\xd0\\xb8\\xd0\\xb5.sol\":5413:5469  require(!heir.hasClaimed, \"Inheritance already claimed\") */\n      tag_143\n      jumpi\n      mload(0x40)\n      0x08c379a000000000000000000000000000000000000000000000000000000000\n      dup2\n      mstore\n      0x04\n      add\n      tag_144\n      swap1\n      tag_145\n      jump\t// in\n    tag_144:\n      mload(0x40)\n      dup1\n      swap2\n      sub\n      swap1\n      revert\n    tag_143:\n        /* \"9 \\xd0\\xb7\\xd0\\xb0\\xd0\\xbd\\xd1\\x8f\\xd1\\x82\\xd0\\xb8\\xd0\\xb5/\\xd0\\x97\\xd0\\xb0\\xd0\\xb2\\xd0\\xb5\\xd1\\x89\\xd0\\xb0\\xd0\\xbd\\xd0\\xb8\\xd0\\xb5.sol\":5498:5502  true */\n      0x01\n        /* \"9 \\xd0\\xb7\\xd0\\xb0\\xd0\\xbd\\xd1\\x8f\\xd1\\x82\\xd0\\xb8\\xd0\\xb5/\\xd0\\x97\\xd0\\xb0\\xd0\\xb2\\xd0\\xb5\\xd1\\x89\\xd0\\xb0\\xd0\\xbd\\xd0\\xb8\\xd0\\xb5.sol\":5480:5484  heir */\n      dup2\n        /* \"9 \\xd0\\xb7\\xd0\\xb0\\xd0\\xbd\\xd1\\x8f\\xd1\\x82\\xd0\\xb8\\xd0\\xb5/\\xd0\\x97\\xd0\\xb0\\xd0\\xb2\\xd0\\xb5\\xd1\\x89\\xd0\\xb0\\xd0\\xbd\\xd0\\xb8\\xd0\\xb5.sol\":5480:5495  heir.hasClaimed */\n      0x01\n      add\n      0x00\n        /* \"9 \\xd0\\xb7\\xd0\\xb0\\xd0\\xbd\\xd1\\x8f\\xd1\\x82\\xd0\\xb8\\xd0\\xb5/\\xd0\\x97\\xd0\\xb0\\xd0\\xb2\\xd0\\xb5\\xd1\\x89\\xd0\\xb0\\xd0\\xbd\\xd0\\xb8\\xd0\\xb5.sol\":5480:5502  heir.hasClaimed = true */\n      0x0100\n      exp\n      dup2\n      sload\n      dup2\n      0xff\n      mul\n      not\n      and\n      swap1\n      dup4\n      iszero\n      iszero\n      mul\n      or\n      swap1\n      sstore\n      pop\n        /* \"9 \\xd0\\xb7\\xd0\\xb0\\xd0\\xbd\\xd1\\x8f\\xd1\\x82\\xd0\\xb8\\xd0\\xb5/\\xd0\\x97\\xd0\\xb0\\xd0\\xb2\\xd0\\xb5\\xd1\\x89\\xd0\\xb0\\xd0\\xbd\\xd0\\xb8\\xd0\\xb5.sol\":5513:5527  uint256 amount */\n      0x00\n        /* \"9 \\xd0\\xb7\\xd0\\xb0\\xd0\\xbd\\xd1\\x8f\\xd1\\x82\\xd0\\xb8\\xd0\\xb5/\\xd0\\x97\\xd0\\xb0\\xd0\\xb2\\xd0\\xb5\\xd1\\x89\\xd0\\xb0\\xd0\\xbd\\xd0\\xb8\\xd0\\xb5.sol\":5530:5534  heir */\n      dup2\n        /* \"9 \\xd0\\xb7\\xd0\\xb0\\xd0\\xbd\\xd1\\x8f\\xd1\\x82\\xd0\\xb8\\xd0\\xb5/\\xd0\\x97\\xd0\\xb0\\xd0\\xb2\\xd0\\xb5\\xd1\\x89\\xd0\\xb0\\xd0\\xbd\\xd0\\xb8\\xd0\\xb5.sol\":5530:5541  heir.amount */\n      0x00\n      add\n      sload\n        /* \"9 \\xd0\\xb7\\xd0\\xb0\\xd0\\xbd\\xd1\\x8f\\xd1\\x82\\xd0\\xb8\\xd0\\xb5/\\xd0\\x97\\xd0\\xb0\\xd0\\xb2\\xd0\\xb5\\xd1\\x89\\xd0\\xb0\\xd0\\xbd\\xd0\\xb8\\xd0\\xb5.sol\":5513:5541  uint256 amount = heir.amount */\n      swap1\n      pop\n        /* \"9 \\xd0\\xb7\\xd0\\xb0\\xd0\\xbd\\xd1\\x8f\\xd1\\x82\\xd0\\xb8\\xd0\\xb5/\\xd0\\x97\\xd0\\xb0\\xd0\\xb2\\xd0\\xb5\\xd1\\x89\\xd0\\xb0\\xd0\\xbd\\xd0\\xb8\\xd0\\xb5.sol\":5566:5567  0 */\n      0x00\n        /* \"9 \\xd0\\xb7\\xd0\\xb0\\xd0\\xbd\\xd1\\x8f\\xd1\\x82\\xd0\\xb8\\xd0\\xb5/\\xd0\\x97\\xd0\\xb0\\xd0\\xb2\\xd0\\xb5\\xd1\\x89\\xd0\\xb0\\xd0\\xbd\\xd0\\xb8\\xd0\\xb5.sol\":5552:5556  heir */\n      dup3\n        /* \"9 \\xd0\\xb7\\xd0\\xb0\\xd0\\xbd\\xd1\\x8f\\xd1\\x82\\xd0\\xb8\\xd0\\xb5/\\xd0\\x97\\xd0\\xb0\\xd0\\xb2\\xd0\\xb5\\xd1\\x89\\xd0\\xb0\\xd0\\xbd\\xd0\\xb8\\xd0\\xb5.sol\":5552:5563  heir.amount */\n      0x00\n      add\n        /* \"9 \\xd0\\xb7\\xd0\\xb0\\xd0\\xbd\\xd1\\x8f\\xd1\\x82\\xd0\\xb8\\xd0\\xb5/\\xd0\\x97\\xd0\\xb0\\xd0\\xb2\\xd0\\xb5\\xd1\\x89\\xd0\\xb0\\xd0\\xbd\\xd0\\xb8\\xd0\\xb5.sol\":5552:5567  heir.amount = 0 */\n      dup2\n      swap1\n      sstore\n      pop\n        /* \"9 \\xd0\\xb7\\xd0\\xb0\\xd0\\xbd\\xd1\\x8f\\xd1\\x82\\xd0\\xb8\\xd0\\xb5/\\xd0\\x97\\xd0\\xb0\\xd0\\xb2\\xd0\\xb5\\xd1\\x89\\xd0\\xb0\\xd0\\xbd\\xd0\\xb8\\xd0\\xb5.sol\":5586:5596  msg.sender */\n      caller\n        /* \"9 \\xd0\\xb7\\xd0\\xb0\\xd0\\xbd\\xd1\\x8f\\xd1\\x82\\xd0\\xb8\\xd0\\xb5/\\xd0\\x97\\xd0\\xb0\\xd0\\xb2\\xd0\\xb5\\xd1\\x89\\xd0\\xb0\\xd0\\xbd\\xd0\\xb8\\xd0\\xb5.sol\":5578:5606  payable(msg.sender).transfer */\n      0xffffffffffffffffffffffffffffffffffffffff\n      and\n        /* \"9 \\xd0\\xb7\\xd0\\xb0\\xd0\\xbd\\xd1\\x8f\\xd1\\x82\\xd0\\xb8\\xd0\\xb5/\\xd0\\x97\\xd0\\xb0\\xd0\\xb2\\xd0\\xb5\\xd1\\x89\\xd0\\xb0\\xd0\\xbd\\xd0\\xb8\\xd0\\xb5.sol\":5578:5614  payable(msg.sender).transfer(amount) */\n      0x08fc\n        /* \"9 \\xd0\\xb7\\xd0\\xb0\\xd0\\xbd\\xd1\\x8f\\xd1\\x82\\xd0\\xb8\\xd0\\xb5/\\xd0\\x97\\xd0\\xb0\\xd0\\xb2\\xd0\\xb5\\xd1\\x89\\xd0\\xb0\\xd0\\xbd\\xd0\\xb8\\xd0\\xb5.sol\":5607:5613  amount */\n      dup3\n        /* \"9 \\xd0\\xb7\\xd0\\xb0\\xd0\\xbd\\xd1\\x8f\\xd1\\x82\\xd0\\xb8\\xd0\\xb5/\\xd0\\x97\\xd0\\xb0\\xd0\\xb2\\xd0\\xb5\\xd1\\x89\\xd0\\xb0\\xd0\\xbd\\xd0\\xb8\\xd0\\xb5.sol\":5578:5614  payable(msg.sender).transfer(amount) */\n      swap1\n      dup2\n      iszero\n      mul\n      swap1\n      mload(0x40)\n      0x00\n      mload(0x40)\n      dup1\n      dup4\n      sub\n      dup2\n      dup6\n      dup9\n      dup9\n      call\n      swap4\n      pop\n      pop\n      pop\n      pop\n      iszero\n      dup1\n      iszero\n      tag_147\n      jumpi\n      returndatasize\n      0x00\n      dup1\n      returndatacopy\n      revert(0x00, returndatasize)\n    tag_147:\n      pop\n        /* \"9 \\xd0\\xb7\\xd0\\xb0\\xd0\\xbd\\xd1\\x8f\\xd1\\x82\\xd0\\xb8\\xd0\\xb5/\\xd0\\x97\\xd0\\xb0\\xd0\\xb2\\xd0\\xb5\\xd1\\x89\\xd0\\xb0\\xd0\\xbd\\xd0\\xb8\\xd0\\xb5.sol\":5649:5659  msg.sender */\n      caller\n        /* \"9 \\xd0\\xb7\\xd0\\xb0\\xd0\\xbd\\xd1\\x8f\\xd1\\x82\\xd0\\xb8\\xd0\\xb5/\\xd0\\x97\\xd0\\xb0\\xd0\\xb2\\xd0\\xb5\\xd1\\x89\\xd0\\xb0\\xd0\\xbd\\xd0\\xb8\\xd0\\xb5.sol\":5630:5668  InheritanceClaimed(msg.sender, amount) */\n      0xffffffffffffffffffffffffffffffffffffffff\n      and\n      0x92a193f55349470137c2eab4bd04427f216036ec3ff6ba54aed58e17337af6a2\n        /* \"9 \\xd0\\xb7\\xd0\\xb0\\xd0\\xbd\\xd1\\x8f\\xd1\\x82\\xd0\\xb8\\xd0\\xb5/\\xd0\\x97\\xd0\\xb0\\xd0\\xb2\\xd0\\xb5\\xd1\\x89\\xd0\\xb0\\xd0\\xbd\\xd0\\xb8\\xd0\\xb5.sol\":5661:5667  amount */\n      dup3\n        /* \"9 \\xd0\\xb7\\xd0\\xb0\\xd0\\xbd\\xd1\\x8f\\xd1\\x82\\xd0\\xb8\\xd0\\xb5/\\xd0\\x97\\xd0\\xb0\\xd0\\xb2\\xd0\\xb5\\xd1\\x89\\xd0\\xb0\\xd0\\xbd\\xd0\\xb8\\xd0\\xb5.sol\":5630:5668  InheritanceClaimed(msg.sender, amount) */\n      mload(0x40)\n      tag_148\n      swap2\n      swap1\n      tag_24\n      jump\t// in\n    tag_148:\n      mload(0x40)\n      dup1\n      swap2\n      sub\n      swap1\n      log2\n        /* \"9 \\xd0\\xb7\\xd0\\xb0\\xd0\\xbd\\xd1\\x8f\\xd1\\x82\\xd0\\xb8\\xd0\\xb5/\\xd0\\x97\\xd0\\xb0\\xd0\\xb2\\xd0\\xb5\\xd1\\x89\\xd0\\xb0\\xd0\\xbd\\xd0\\xb8\\xd0\\xb5.sol\":5291:5676  {... */\n      pop\n      pop\n        /* \"9 \\xd0\\xb7\\xd0\\xb0\\xd0\\xbd\\xd1\\x8f\\xd1\\x82\\xd0\\xb8\\xd0\\xb5/\\xd0\\x97\\xd0\\xb0\\xd0\\xb2\\xd0\\xb5\\xd1\\x89\\xd0\\xb0\\xd0\\xbd\\xd0\\xb8\\xd0\\xb5.sol\":5234:5676  function claimInheritance() external afterDeath onlyHeir {... */\n      jump\t// out\n        /* \"9 \\xd0\\xb7\\xd0\\xb0\\xd0\\xbd\\xd1\\x8f\\xd1\\x82\\xd0\\xb8\\xd0\\xb5/\\xd0\\x97\\xd0\\xb0\\xd0\\xb2\\xd0\\xb5\\xd1\\x89\\xd0\\xb0\\xd0\\xbd\\xd0\\xb8\\xd0\\xb5.sol\":3048:3390  function withdrawFunds(address heir, uint256 amount) external onlyGrandmother {... */\n    tag_64:\n        /* \"9 \\xd0\\xb7\\xd0\\xb0\\xd0\\xbd\\xd1\\x8f\\xd1\\x82\\xd0\\xb8\\xd0\\xb5/\\xd0\\x97\\xd0\\xb0\\xd0\\xb2\\xd0\\xb5\\xd1\\x89\\xd0\\xb0\\xd0\\xbd\\xd0\\xb8\\xd0\\xb5.sol\":557:568  grandmother */\n      0x00\n      dup1\n      sload\n      swap1\n      0x0100\n      exp\n      swap1\n      div\n      0xffffffffffffffffffffffffffffffffffffffff\n      and\n        /* \"9 \\xd0\\xb7\\xd0\\xb0\\xd0\\xbd\\xd1\\x8f\\xd1\\x82\\xd0\\xb8\\xd0\\xb5/\\xd0\\x97\\xd0\\xb0\\xd0\\xb2\\xd0\\xb5\\xd1\\x89\\xd0\\xb0\\xd0\\xbd\\xd0\\xb8\\xd0\\xb5.sol\":543:568  msg.sender == grandmother */\n      0xffffffffffffffffffffffffffffffffffffffff\n      and\n        /* \"9 \\xd0\\xb7\\xd0\\xb0\\xd0\\xbd\\xd1\\x8f\\xd1\\x82\\xd0\\xb8\\xd0\\xb5/\\xd0\\x97\\xd0\\xb0\\xd0\\xb2\\xd0\\xb5\\xd1\\x89\\xd0\\xb0\\xd0\\xbd\\xd0\\xb8\\xd0\\xb5.sol\":543:553  msg.sender */\n      caller\n        /* \"9 \\xd0\\xb7\\xd0\\xb0\\xd0\\xbd\\xd1\\x8f\\xd1\\x82\\xd0\\xb8\\xd0\\xb5/\\xd0\\x97\\xd0\\xb0\\xd0\\xb2\\xd0\\xb5\\xd1\\x89\\xd0\\xb0\\xd0\\xbd\\xd0\\xb8\\xd0\\xb5.sol\":543:568  msg.sender == grandmother */\n      0xffffffffffffffffffffffffffffffffffffffff\n      and\n      eq\n        /* \"9 \\xd0\\xb7\\xd0\\xb0\\xd0\\xbd\\xd1\\x8f\\xd1\\x82\\xd0\\xb8\\xd0\\xb5/\\xd0\\x97\\xd0\\xb0\\xd0\\xb2\\xd0\\xb5\\xd1\\x89\\xd0\\xb0\\xd0\\xbd\\xd0\\xb8\\xd0\\xb5.sol\":535:599  require(msg.sender == grandmother, \"You are not a grandmother.\") */\n      tag_150\n      jumpi\n      mload(0x40)\n      0x08c379a000000000000000000000000000000000000000000000000000000000\n      dup2\n      mstore\n      0x04\n      add\n      tag_151\n      swap1\n      tag_95\n      jump\t// in\n    tag_151:\n      mload(0x40)\n      dup1\n      swap2\n      sub\n      swap1\n      revert\n    tag_150:\n        /* \"9 \\xd0\\xb7\\xd0\\xb0\\xd0\\xbd\\xd1\\x8f\\xd1\\x82\\xd0\\xb8\\xd0\\xb5/\\xd0\\x97\\xd0\\xb0\\xd0\\xb2\\xd0\\xb5\\xd1\\x89\\xd0\\xb0\\xd0\\xbd\\xd0\\xb8\\xd0\\xb5.sol\":3176:3183  1 ether */\n      0x0de0b6b3a7640000\n        /* \"9 \\xd0\\xb7\\xd0\\xb0\\xd0\\xbd\\xd1\\x8f\\xd1\\x82\\xd0\\xb8\\xd0\\xb5/\\xd0\\x97\\xd0\\xb0\\xd0\\xb2\\xd0\\xb5\\xd1\\x89\\xd0\\xb0\\xd0\\xbd\\xd0\\xb8\\xd0\\xb5.sol\":3167:3173  amount */\n      dup2\n        /* \"9 \\xd0\\xb7\\xd0\\xb0\\xd0\\xbd\\xd1\\x8f\\xd1\\x82\\xd0\\xb8\\xd0\\xb5/\\xd0\\x97\\xd0\\xb0\\xd0\\xb2\\xd0\\xb5\\xd1\\x89\\xd0\\xb0\\xd0\\xbd\\xd0\\xb8\\xd0\\xb5.sol\":3167:3183  amount * 1 ether */\n      tag_153\n      swap2\n      swap1\n      tag_120\n      jump\t// in\n    tag_153:\n        /* \"9 \\xd0\\xb7\\xd0\\xb0\\xd0\\xbd\\xd1\\x8f\\xd1\\x82\\xd0\\xb8\\xd0\\xb5/\\xd0\\x97\\xd0\\xb0\\xd0\\xb2\\xd0\\xb5\\xd1\\x89\\xd0\\xb0\\xd0\\xbd\\xd0\\xb8\\xd0\\xb5.sol\":3145:3150  heirs */\n      0x05\n        /* \"9 \\xd0\\xb7\\xd0\\xb0\\xd0\\xbd\\xd1\\x8f\\xd1\\x82\\xd0\\xb8\\xd0\\xb5/\\xd0\\x97\\xd0\\xb0\\xd0\\xb2\\xd0\\xb5\\xd1\\x89\\xd0\\xb0\\xd0\\xbd\\xd0\\xb8\\xd0\\xb5.sol\":3145:3156  heirs[heir] */\n      0x00\n        /* \"9 \\xd0\\xb7\\xd0\\xb0\\xd0\\xbd\\xd1\\x8f\\xd1\\x82\\xd0\\xb8\\xd0\\xb5/\\xd0\\x97\\xd0\\xb0\\xd0\\xb2\\xd0\\xb5\\xd1\\x89\\xd0\\xb0\\xd0\\xbd\\xd0\\xb8\\xd0\\xb5.sol\":3151:3155  heir */\n      dup5\n        /* \"9 \\xd0\\xb7\\xd0\\xb0\\xd0\\xbd\\xd1\\x8f\\xd1\\x82\\xd0\\xb8\\xd0\\xb5/\\xd0\\x97\\xd0\\xb0\\xd0\\xb2\\xd0\\xb5\\xd1\\x89\\xd0\\xb0\\xd0\\xbd\\xd0\\xb8\\xd0\\xb5.sol\":3145:3156  heirs[heir] */\n      0xffffffffffffffffffffffffffffffffffffffff\n      and\n      0xffffffffffffffffffffffffffffffffffffffff\n      and\n      dup2\n      mstore\n      0x20\n      add\n      swap1\n      dup2\n      mstore\n      0x20\n      add\n      0x00\n      keccak256\n        /* \"9 \\xd0\\xb7\\xd0\\xb0\\xd0\\xbd\\xd1\\x8f\\xd1\\x82\\xd0\\xb8\\xd0\\xb5/\\xd0\\x97\\xd0\\xb0\\xd0\\xb2\\xd0\\xb5\\xd1\\x89\\xd0\\xb0\\xd0\\xbd\\xd0\\xb8\\xd0\\xb5.sol\":3145:3163  heirs[heir].amount */\n      0x00\n      add\n      sload\n        /* \"9 \\xd0\\xb7\\xd0\\xb0\\xd0\\xbd\\xd1\\x8f\\xd1\\x82\\xd0\\xb8\\xd0\\xb5/\\xd0\\x97\\xd0\\xb0\\xd0\\xb2\\xd0\\xb5\\xd1\\x89\\xd0\\xb0\\xd0\\xbd\\xd0\\xb8\\xd0\\xb5.sol\":3145:3183  heirs[heir].amount >= amount * 1 ether */\n      lt\n      iszero\n        /* \"9 \\xd0\\xb7\\xd0\\xb0\\xd0\\xbd\\xd1\\x8f\\xd1\\x82\\xd0\\xb8\\xd0\\xb5/\\xd0\\x97\\xd0\\xb0\\xd0\\xb2\\xd0\\xb5\\xd1\\x89\\xd0\\xb0\\xd0\\xbd\\xd0\\xb8\\xd0\\xb5.sol\":3137:3221  require(heirs[heir].amount >= amount * 1 ether, \"The heir have insufficient Ether.\") */\n      tag_154\n      jumpi\n      mload(0x40)\n      0x08c379a000000000000000000000000000000000000000000000000000000000\n      dup2\n      mstore\n      0x04\n      add\n      tag_155\n      swap1\n      tag_156\n      jump\t// in\n    tag_155:\n      mload(0x40)\n      dup1\n      swap2\n      sub\n      swap1\n      revert\n    tag_154:\n        /* \"9 \\xd0\\xb7\\xd0\\xb0\\xd0\\xbd\\xd1\\x8f\\xd1\\x82\\xd0\\xb8\\xd0\\xb5/\\xd0\\x97\\xd0\\xb0\\xd0\\xb2\\xd0\\xb5\\xd1\\x89\\xd0\\xb0\\xd0\\xbd\\xd0\\xb8\\xd0\\xb5.sol\":3263:3270  1 ether */\n      0x0de0b6b3a7640000\n        /* \"9 \\xd0\\xb7\\xd0\\xb0\\xd0\\xbd\\xd1\\x8f\\xd1\\x82\\xd0\\xb8\\xd0\\xb5/\\xd0\\x97\\xd0\\xb0\\xd0\\xb2\\xd0\\xb5\\xd1\\x89\\xd0\\xb0\\xd0\\xbd\\xd0\\xb8\\xd0\\xb5.sol\":3254:3260  amount */\n      dup2\n        /* \"9 \\xd0\\xb7\\xd0\\xb0\\xd0\\xbd\\xd1\\x8f\\xd1\\x82\\xd0\\xb8\\xd0\\xb5/\\xd0\\x97\\xd0\\xb0\\xd0\\xb2\\xd0\\xb5\\xd1\\x89\\xd0\\xb0\\xd0\\xbd\\xd0\\xb8\\xd0\\xb5.sol\":3254:3270  amount * 1 ether */\n      tag_157\n      swap2\n      swap1\n      tag_120\n      jump\t// in\n    tag_157:\n        /* \"9 \\xd0\\xb7\\xd0\\xb0\\xd0\\xbd\\xd1\\x8f\\xd1\\x82\\xd0\\xb8\\xd0\\xb5/\\xd0\\x97\\xd0\\xb0\\xd0\\xb2\\xd0\\xb5\\xd1\\x89\\xd0\\xb0\\xd0\\xbd\\xd0\\xb8\\xd0\\xb5.sol\":3232:3237  heirs */\n      0x05\n        /* \"9 \\xd0\\xb7\\xd0\\xb0\\xd0\\xbd\\xd1\\x8f\\xd1\\x82\\xd0\\xb8\\xd0\\xb5/\\xd0\\x97\\xd0\\xb0\\xd0\\xb2\\xd0\\xb5\\xd1\\x89\\xd0\\xb0\\xd0\\xbd\\xd0\\xb8\\xd0\\xb5.sol\":3232:3243  heirs[heir] */\n      0x00\n        /* \"9 \\xd0\\xb7\\xd0\\xb0\\xd0\\xbd\\xd1\\x8f\\xd1\\x82\\xd0\\xb8\\xd0\\xb5/\\xd0\\x97\\xd0\\xb0\\xd0\\xb2\\xd0\\xb5\\xd1\\x89\\xd0\\xb0\\xd0\\xbd\\xd0\\xb8\\xd0\\xb5.sol\":3238:3242  heir */\n      dup5\n        /* \"9 \\xd0\\xb7\\xd0\\xb0\\xd0\\xbd\\xd1\\x8f\\xd1\\x82\\xd0\\xb8\\xd0\\xb5/\\xd0\\x97\\xd0\\xb0\\xd0\\xb2\\xd0\\xb5\\xd1\\x89\\xd0\\xb0\\xd0\\xbd\\xd0\\xb8\\xd0\\xb5.sol\":3232:3243  heirs[heir] */\n      0xffffffffffffffffffffffffffffffffffffffff\n      and\n      0xffffffffffffffffffffffffffffffffffffffff\n      and\n      dup2\n      mstore\n      0x20\n      add\n      swap1\n      dup2\n      mstore\n      0x20\n      add\n      0x00\n      keccak256\n        /* \"9 \\xd0\\xb7\\xd0\\xb0\\xd0\\xbd\\xd1\\x8f\\xd1\\x82\\xd0\\xb8\\xd0\\xb5/\\xd0\\x97\\xd0\\xb0\\xd0\\xb2\\xd0\\xb5\\xd1\\x89\\xd0\\xb0\\xd0\\xbd\\xd0\\xb8\\xd0\\xb5.sol\":3232:3250  heirs[heir].amount */\n      0x00\n      add\n      0x00\n        /* \"9 \\xd0\\xb7\\xd0\\xb0\\xd0\\xbd\\xd1\\x8f\\xd1\\x82\\xd0\\xb8\\xd0\\xb5/\\xd0\\x97\\xd0\\xb0\\xd0\\xb2\\xd0\\xb5\\xd1\\x89\\xd0\\xb0\\xd0\\xbd\\xd0\\xb8\\xd0\\xb5.sol\":3232:3270  heirs[heir].amount -= amount * 1 ether */\n      dup3\n      dup3\n      sload\n      tag_158\n      swap2\n      swap1\n      tag_159\n      jump\t// in\n    tag_158:\n      swap3\n      pop\n      pop\n      dup2\n      swap1\n      sstore\n      pop\n        /* \"9 \\xd0\\xb7\\xd0\\xb0\\xd0\\xbd\\xd1\\x8f\\xd1\\x82\\xd0\\xb8\\xd0\\xb5/\\xd0\\x97\\xd0\\xb0\\xd0\\xb2\\xd0\\xb5\\xd1\\x89\\xd0\\xb0\\xd0\\xbd\\xd0\\xb8\\xd0\\xb5.sol\":3289:3300  grandmother */\n      0x00\n      dup1\n      sload\n      swap1\n      0x0100\n      exp\n      swap1\n      div\n      0xffffffffffffffffffffffffffffffffffffffff\n      and\n        /* \"9 \\xd0\\xb7\\xd0\\xb0\\xd0\\xbd\\xd1\\x8f\\xd1\\x82\\xd0\\xb8\\xd0\\xb5/\\xd0\\x97\\xd0\\xb0\\xd0\\xb2\\xd0\\xb5\\xd1\\x89\\xd0\\xb0\\xd0\\xbd\\xd0\\xb8\\xd0\\xb5.sol\":3281:3310  payable(grandmother).transfer */\n      0xffffffffffffffffffffffffffffffffffffffff\n      and\n        /* \"9 \\xd0\\xb7\\xd0\\xb0\\xd0\\xbd\\xd1\\x8f\\xd1\\x82\\xd0\\xb8\\xd0\\xb5/\\xd0\\x97\\xd0\\xb0\\xd0\\xb2\\xd0\\xb5\\xd1\\x89\\xd0\\xb0\\xd0\\xbd\\xd0\\xb8\\xd0\\xb5.sol\":3281:3328  payable(grandmother).transfer(amount * 1 ether) */\n      0x08fc\n        /* \"9 \\xd0\\xb7\\xd0\\xb0\\xd0\\xbd\\xd1\\x8f\\xd1\\x82\\xd0\\xb8\\xd0\\xb5/\\xd0\\x97\\xd0\\xb0\\xd0\\xb2\\xd0\\xb5\\xd1\\x89\\xd0\\xb0\\xd0\\xbd\\xd0\\xb8\\xd0\\xb5.sol\":3320:3327  1 ether */\n      0x0de0b6b3a7640000\n        /* \"9 \\xd0\\xb7\\xd0\\xb0\\xd0\\xbd\\xd1\\x8f\\xd1\\x82\\xd0\\xb8\\xd0\\xb5/\\xd0\\x97\\xd0\\xb0\\xd0\\xb2\\xd0\\xb5\\xd1\\x89\\xd0\\xb0\\xd0\\xbd\\xd0\\xb8\\xd0\\xb5.sol\":3311:3317  amount */\n      dup4\n        /* \"9 \\xd0\\xb7\\xd0\\xb0\\xd0\\xbd\\xd1\\x8f\\xd1\\x82\\xd0\\xb8\\xd0\\xb5/\\xd0\\x97\\xd0\\xb0\\xd0\\xb2\\xd0\\xb5\\xd1\\x89\\xd0\\xb0\\xd0\\xbd\\xd0\\xb8\\xd0\\xb5.sol\":3311:3327  amount * 1 ether */\n      tag_160\n      swap2\n      swap1\n      tag_120\n      jump\t// in\n    tag_160:\n        /* \"9 \\xd0\\xb7\\xd0\\xb0\\xd0\\xbd\\xd1\\x8f\\xd1\\x82\\xd0\\xb8\\xd0\\xb5/\\xd0\\x97\\xd0\\xb0\\xd0\\xb2\\xd0\\xb5\\xd1\\x89\\xd0\\xb0\\xd0\\xbd\\xd0\\xb8\\xd0\\xb5.sol\":3281:3328  payable(grandmother).transfer(amount * 1 ether) */\n      swap1\n      dup2\n      iszero\n      mul\n      swap1\n      mload(0x40)\n      0x00\n      mload(0x40)\n      dup1\n      dup4\n      sub\n      dup2\n      dup6\n      dup9\n      dup9\n      call\n      swap4\n      pop\n      pop\n      pop\n      pop\n      iszero\n      dup1\n      iszero\n      tag_162\n      jumpi\n      returndatasize\n      0x00\n      dup1\n      returndatacopy\n      revert(0x00, returndatasize)\n    tag_162:\n      pop\n        /* \"9 \\xd0\\xb7\\xd0\\xb0\\xd0\\xbd\\xd1\\x8f\\xd1\\x82\\xd0\\xb8\\xd0\\xb5/\\xd0\\x97\\xd0\\xb0\\xd0\\xb2\\xd0\\xb5\\xd1\\x89\\xd0\\xb0\\xd0\\xbd\\xd0\\xb8\\xd0\\xb5.sol\":3359:3363  heir */\n      dup2\n        /* \"9 \\xd0\\xb7\\xd0\\xb0\\xd0\\xbd\\xd1\\x8f\\xd1\\x82\\xd0\\xb8\\xd0\\xb5/\\xd0\\x97\\xd0\\xb0\\xd0\\xb2\\xd0\\xb5\\xd1\\x89\\xd0\\xb0\\xd0\\xbd\\xd0\\xb8\\xd0\\xb5.sol\":3344:3382  FundsWithdrawn(heir, amount * 1 ether) */\n      0xffffffffffffffffffffffffffffffffffffffff\n      and\n      0xeaff4b37086828766ad3268786972c0cd24259d4c87a80f9d3963a3c3d999b0d\n        /* \"9 \\xd0\\xb7\\xd0\\xb0\\xd0\\xbd\\xd1\\x8f\\xd1\\x82\\xd0\\xb8\\xd0\\xb5/\\xd0\\x97\\xd0\\xb0\\xd0\\xb2\\xd0\\xb5\\xd1\\x89\\xd0\\xb0\\xd0\\xbd\\xd0\\xb8\\xd0\\xb5.sol\":3374:3381  1 ether */\n      0x0de0b6b3a7640000\n        /* \"9 \\xd0\\xb7\\xd0\\xb0\\xd0\\xbd\\xd1\\x8f\\xd1\\x82\\xd0\\xb8\\xd0\\xb5/\\xd0\\x97\\xd0\\xb0\\xd0\\xb2\\xd0\\xb5\\xd1\\x89\\xd0\\xb0\\xd0\\xbd\\xd0\\xb8\\xd0\\xb5.sol\":3365:3371  amount */\n      dup4\n        /* \"9 \\xd0\\xb7\\xd0\\xb0\\xd0\\xbd\\xd1\\x8f\\xd1\\x82\\xd0\\xb8\\xd0\\xb5/\\xd0\\x97\\xd0\\xb0\\xd0\\xb2\\xd0\\xb5\\xd1\\x89\\xd0\\xb0\\xd0\\xbd\\xd0\\xb8\\xd0\\xb5.sol\":3365:3381  amount * 1 ether */\n      tag_163\n      swap2\n      swap1\n      tag_120\n      jump\t// in\n    tag_163:\n        /* \"9 \\xd0\\xb7\\xd0\\xb0\\xd0\\xbd\\xd1\\x8f\\xd1\\x82\\xd0\\xb8\\xd0\\xb5/\\xd0\\x97\\xd0\\xb0\\xd0\\xb2\\xd0\\xb5\\xd1\\x89\\xd0\\xb0\\xd0\\xbd\\xd0\\xb8\\xd0\\xb5.sol\":3344:3382  FundsWithdrawn(heir, amount * 1 ether) */\n      mload(0x40)\n      tag_164\n      swap2\n      swap1\n      tag_24\n      jump\t// in\n    tag_164:\n      mload(0x40)\n      dup1\n      swap2\n      sub\n      swap1\n      log2\n        /* \"9 \\xd0\\xb7\\xd0\\xb0\\xd0\\xbd\\xd1\\x8f\\xd1\\x82\\xd0\\xb8\\xd0\\xb5/\\xd0\\x97\\xd0\\xb0\\xd0\\xb2\\xd0\\xb5\\xd1\\x89\\xd0\\xb0\\xd0\\xbd\\xd0\\xb8\\xd0\\xb5.sol\":3048:3390  function withdrawFunds(address heir, uint256 amount) external onlyGrandmother {... */\n      pop\n      pop\n      jump\t// out\n        /* \"9 \\xd0\\xb7\\xd0\\xb0\\xd0\\xbd\\xd1\\x8f\\xd1\\x82\\xd0\\xb8\\xd0\\xb5/\\xd0\\x97\\xd0\\xb0\\xd0\\xb2\\xd0\\xb5\\xd1\\x89\\xd0\\xb0\\xd0\\xbd\\xd0\\xb8\\xd0\\xb5.sol\":4563:4727  function notifyDeath() external onlyTrustee {... */\n    tag_67:\n        /* \"9 \\xd0\\xb7\\xd0\\xb0\\xd0\\xbd\\xd1\\x8f\\xd1\\x82\\xd0\\xb8\\xd0\\xb5/\\xd0\\x97\\xd0\\xb0\\xd0\\xb2\\xd0\\xb5\\xd1\\x89\\xd0\\xb0\\xd0\\xbd\\xd0\\xb8\\xd0\\xb5.sol\":803:810  trustee */\n      0x01\n      0x00\n      swap1\n      sload\n      swap1\n      0x0100\n      exp\n      swap1\n      div\n      0xffffffffffffffffffffffffffffffffffffffff\n      and\n        /* \"9 \\xd0\\xb7\\xd0\\xb0\\xd0\\xbd\\xd1\\x8f\\xd1\\x82\\xd0\\xb8\\xd0\\xb5/\\xd0\\x97\\xd0\\xb0\\xd0\\xb2\\xd0\\xb5\\xd1\\x89\\xd0\\xb0\\xd0\\xbd\\xd0\\xb8\\xd0\\xb5.sol\":789:810  msg.sender == trustee */\n      0xffffffffffffffffffffffffffffffffffffffff\n      and\n        /* \"9 \\xd0\\xb7\\xd0\\xb0\\xd0\\xbd\\xd1\\x8f\\xd1\\x82\\xd0\\xb8\\xd0\\xb5/\\xd0\\x97\\xd0\\xb0\\xd0\\xb2\\xd0\\xb5\\xd1\\x89\\xd0\\xb0\\xd0\\xbd\\xd0\\xb8\\xd0\\xb5.sol\":789:799  msg.sender */\n      caller\n        /* \"9 \\xd0\\xb7\\xd0\\xb0\\xd0\\xbd\\xd1\\x8f\\xd1\\x82\\xd0\\xb8\\xd0\\xb5/\\xd0\\x97\\xd0\\xb0\\xd0\\xb2\\xd0\\xb5\\xd1\\x89\\xd0\\xb0\\xd0\\xbd\\xd0\\xb8\\xd0\\xb5.sol\":789:810  msg.sender == trustee */\n      0xffffffffffffffffffffffffffffffffffffffff\n      and\n      eq\n        /* \"9 \\xd0\\xb7\\xd0\\xb0\\xd0\\xbd\\xd1\\x8f\\xd1\\x82\\xd0\\xb8\\xd0\\xb5/\\xd0\\x97\\xd0\\xb0\\xd0\\xb2\\xd0\\xb5\\xd1\\x89\\xd0\\xb0\\xd0\\xbd\\xd0\\xb8\\xd0\\xb5.sol\":781:837  require(msg.sender == trustee, \"You are not a trustee.\") */\n      tag_166\n      jumpi\n      mload(0x40)\n      0x08c379a000000000000000000000000000000000000000000000000000000000\n      dup2\n      mstore\n      0x04\n      add\n      tag_167\n      swap1\n      tag_100\n      jump\t// in\n    tag_167:\n      mload(0x40)\n      dup1\n      swap2\n      sub\n      swap1\n      revert\n    tag_166:\n        /* \"9 \\xd0\\xb7\\xd0\\xb0\\xd0\\xbd\\xd1\\x8f\\xd1\\x82\\xd0\\xb8\\xd0\\xb5/\\xd0\\x97\\xd0\\xb0\\xd0\\xb2\\xd0\\xb5\\xd1\\x89\\xd0\\xb0\\xd0\\xbd\\xd0\\xb8\\xd0\\xb5.sol\":4634:4638  true */\n      0x01\n        /* \"9 \\xd0\\xb7\\xd0\\xb0\\xd0\\xbd\\xd1\\x8f\\xd1\\x82\\xd0\\xb8\\xd0\\xb5/\\xd0\\x97\\xd0\\xb0\\xd0\\xb2\\xd0\\xb5\\xd1\\x89\\xd0\\xb0\\xd0\\xbd\\xd0\\xb8\\xd0\\xb5.sol\":4618:4631  deathNotified */\n      0x03\n      0x00\n        /* \"9 \\xd0\\xb7\\xd0\\xb0\\xd0\\xbd\\xd1\\x8f\\xd1\\x82\\xd0\\xb8\\xd0\\xb5/\\xd0\\x97\\xd0\\xb0\\xd0\\xb2\\xd0\\xb5\\xd1\\x89\\xd0\\xb0\\xd0\\xbd\\xd0\\xb8\\xd0\\xb5.sol\":4618:4638  deathNotified = true */\n      0x0100\n      exp\n      dup2\n      sload\n      dup2\n      0xff\n      mul\n      not\n      and\n      swap1\n      dup4\n      iszero\n      iszero\n      mul\n      or\n      swap1\n      sstore\n      pop\n        /* \"9 \\xd0\\xb7\\xd0\\xb0\\xd0\\xbd\\xd1\\x8f\\xd1\\x82\\xd0\\xb8\\xd0\\xb5/\\xd0\\x97\\xd0\\xb0\\xd0\\xb2\\xd0\\xb5\\xd1\\x89\\xd0\\xb0\\xd0\\xbd\\xd0\\xb8\\xd0\\xb5.sol\":4673:4688  block.timestamp */\n      timestamp\n        /* \"9 \\xd0\\xb7\\xd0\\xb0\\xd0\\xbd\\xd1\\x8f\\xd1\\x82\\xd0\\xb8\\xd0\\xb5/\\xd0\\x97\\xd0\\xb0\\xd0\\xb2\\xd0\\xb5\\xd1\\x89\\xd0\\xb0\\xd0\\xbd\\xd0\\xb8\\xd0\\xb5.sol\":4649:4670  deathNotificationTime */\n      0x04\n        /* \"9 \\xd0\\xb7\\xd0\\xb0\\xd0\\xbd\\xd1\\x8f\\xd1\\x82\\xd0\\xb8\\xd0\\xb5/\\xd0\\x97\\xd0\\xb0\\xd0\\xb2\\xd0\\xb5\\xd1\\x89\\xd0\\xb0\\xd0\\xbd\\xd0\\xb8\\xd0\\xb5.sol\":4649:4688  deathNotificationTime = block.timestamp */\n      dup2\n      swap1\n      sstore\n      pop\n        /* \"9 \\xd0\\xb7\\xd0\\xb0\\xd0\\xbd\\xd1\\x8f\\xd1\\x82\\xd0\\xb8\\xd0\\xb5/\\xd0\\x97\\xd0\\xb0\\xd0\\xb2\\xd0\\xb5\\xd1\\x89\\xd0\\xb0\\xd0\\xbd\\xd0\\xb8\\xd0\\xb5.sol\":4704:4719  DeathNotified() */\n      0xc208c6f0e4585e3ef24e22a8e6634ac1f5ec94e12e644f1042279b71d8aa893b\n      mload(0x40)\n      mload(0x40)\n      dup1\n      swap2\n      sub\n      swap1\n      log1\n        /* \"9 \\xd0\\xb7\\xd0\\xb0\\xd0\\xbd\\xd1\\x8f\\xd1\\x82\\xd0\\xb8\\xd0\\xb5/\\xd0\\x97\\xd0\\xb0\\xd0\\xb2\\xd0\\xb5\\xd1\\x89\\xd0\\xb0\\xd0\\xbd\\xd0\\xb8\\xd0\\xb5.sol\":4563:4727  function notifyDeath() external onlyTrustee {... */\n      jump\t// out\n        /* \"9 \\xd0\\xb7\\xd0\\xb0\\xd0\\xbd\\xd1\\x8f\\xd1\\x82\\xd0\\xb8\\xd0\\xb5/\\xd0\\x97\\xd0\\xb0\\xd0\\xb2\\xd0\\xb5\\xd1\\x89\\xd0\\xb0\\xd0\\xbd\\xd0\\xb8\\xd0\\xb5.sol\":4313:4413  function setTrustee(address _trustee) external onlyGrandmother {... */\n    tag_71:\n        /* \"9 \\xd0\\xb7\\xd0\\xb0\\xd0\\xbd\\xd1\\x8f\\xd1\\x82\\xd0\\xb8\\xd0\\xb5/\\xd0\\x97\\xd0\\xb0\\xd0\\xb2\\xd0\\xb5\\xd1\\x89\\xd0\\xb0\\xd0\\xbd\\xd0\\xb8\\xd0\\xb5.sol\":557:568  grandmother */\n      0x00\n      dup1\n      sload\n      swap1\n      0x0100\n      exp\n      swap1\n      div\n      0xffffffffffffffffffffffffffffffffffffffff\n      and\n        /* \"9 \\xd0\\xb7\\xd0\\xb0\\xd0\\xbd\\xd1\\x8f\\xd1\\x82\\xd0\\xb8\\xd0\\xb5/\\xd0\\x97\\xd0\\xb0\\xd0\\xb2\\xd0\\xb5\\xd1\\x89\\xd0\\xb0\\xd0\\xbd\\xd0\\xb8\\xd0\\xb5.sol\":543:568  msg.sender == grandmother */\n      0xffffffffffffffffffffffffffffffffffffffff\n      and\n        /* \"9 \\xd0\\xb7\\xd0\\xb0\\xd0\\xbd\\xd1\\x8f\\xd1\\x82\\xd0\\xb8\\xd0\\xb5/\\xd0\\x97\\xd0\\xb0\\xd0\\xb2\\xd0\\xb5\\xd1\\x89\\xd0\\xb0\\xd0\\xbd\\xd0\\xb8\\xd0\\xb5.sol\":543:553  msg.sender */\n      caller\n        /* \"9 \\xd0\\xb7\\xd0\\xb0\\xd0\\xbd\\xd1\\x8f\\xd1\\x82\\xd0\\xb8\\xd0\\xb5/\\xd0\\x97\\xd0\\xb0\\xd0\\xb2\\xd0\\xb5\\xd1\\x89\\xd0\\xb0\\xd0\\xbd\\xd0\\xb8\\xd0\\xb5.sol\":543:568  msg.sender == grandmother */\n      0xffffffffffffffffffffffffffffffffffffffff\n      and\n      eq\n        /* \"9 \\xd0\\xb7\\xd0\\xb0\\xd0\\xbd\\xd1\\x8f\\xd1\\x82\\xd0\\xb8\\xd0\\xb5/\\xd0\\x97\\xd0\\xb0\\xd0\\xb2\\xd0\\xb5\\xd1\\x89\\xd0\\xb0\\xd0\\xbd\\xd0\\xb8\\xd0\\xb5.sol\":535:599  require(msg.sender == grandmother, \"You are not a grandmother.\") */\n      tag_170\n      jumpi\n      mload(0x40)\n      0x08c379a000000000000000000000000000000000000000000000000000000000\n      dup2\n      mstore\n      0x04\n      add\n      tag_171\n      swap1\n      tag_95\n      jump\t// in\n    tag_171:\n      mload(0x40)\n      dup1\n      swap2\n      sub\n      swap1\n      revert\n    tag_170:\n        /* \"9 \\xd0\\xb7\\xd0\\xb0\\xd0\\xbd\\xd1\\x8f\\xd1\\x82\\xd0\\xb8\\xd0\\xb5/\\xd0\\x97\\xd0\\xb0\\xd0\\xb2\\xd0\\xb5\\xd1\\x89\\xd0\\xb0\\xd0\\xbd\\xd0\\xb8\\xd0\\xb5.sol\":4397:4405  _trustee */\n      dup1\n        /* \"9 \\xd0\\xb7\\xd0\\xb0\\xd0\\xbd\\xd1\\x8f\\xd1\\x82\\xd0\\xb8\\xd0\\xb5/\\xd0\\x97\\xd0\\xb0\\xd0\\xb2\\xd0\\xb5\\xd1\\x89\\xd0\\xb0\\xd0\\xbd\\xd0\\xb8\\xd0\\xb5.sol\":4387:4394  trustee */\n      0x01\n      0x00\n        /* \"9 \\xd0\\xb7\\xd0\\xb0\\xd0\\xbd\\xd1\\x8f\\xd1\\x82\\xd0\\xb8\\xd0\\xb5/\\xd0\\x97\\xd0\\xb0\\xd0\\xb2\\xd0\\xb5\\xd1\\x89\\xd0\\xb0\\xd0\\xbd\\xd0\\xb8\\xd0\\xb5.sol\":4387:4405  trustee = _trustee */\n      0x0100\n      exp\n      dup2\n      sload\n      dup2\n      0xffffffffffffffffffffffffffffffffffffffff\n      mul\n      not\n      and\n      swap1\n      dup4\n      0xffffffffffffffffffffffffffffffffffffffff\n      and\n      mul\n      or\n      swap1\n      sstore\n      pop\n        /* \"9 \\xd0\\xb7\\xd0\\xb0\\xd0\\xbd\\xd1\\x8f\\xd1\\x82\\xd0\\xb8\\xd0\\xb5/\\xd0\\x97\\xd0\\xb0\\xd0\\xb2\\xd0\\xb5\\xd1\\x89\\xd0\\xb0\\xd0\\xbd\\xd0\\xb8\\xd0\\xb5.sol\":4313:4413  function setTrustee(address _trustee) external onlyGrandmother {... */\n      pop\n      jump\t// out\n        /* \"9 \\xd0\\xb7\\xd0\\xb0\\xd0\\xbd\\xd1\\x8f\\xd1\\x82\\xd0\\xb8\\xd0\\xb5/\\xd0\\x97\\xd0\\xb0\\xd0\\xb2\\xd0\\xb5\\xd1\\x89\\xd0\\xb0\\xd0\\xbd\\xd0\\xb8\\xd0\\xb5.sol\":5898:6509  function initiateInheritanceWithConsensus() external after10Years onlyHeir {... */\n    tag_74:\n        /* \"9 \\xd0\\xb7\\xd0\\xb0\\xd0\\xbd\\xd1\\x8f\\xd1\\x82\\xd0\\xb8\\xd0\\xb5/\\xd0\\x97\\xd0\\xb0\\xd0\\xb2\\xd0\\xb5\\xd1\\x89\\xd0\\xb0\\xd0\\xbd\\xd0\\xb8\\xd0\\xb5.sol\":1112:1125  10 * 365 days */\n      0x12cc0300\n        /* \"9 \\xd0\\xb7\\xd0\\xb0\\xd0\\xbd\\xd1\\x8f\\xd1\\x82\\xd0\\xb8\\xd0\\xb5/\\xd0\\x97\\xd0\\xb0\\xd0\\xb2\\xd0\\xb5\\xd1\\x89\\xd0\\xb0\\xd0\\xbd\\xd0\\xb8\\xd0\\xb5.sol\":1092:1109  contractStartTime */\n      sload(0x02)\n        /* \"9 \\xd0\\xb7\\xd0\\xb0\\xd0\\xbd\\xd1\\x8f\\xd1\\x82\\xd0\\xb8\\xd0\\xb5/\\xd0\\x97\\xd0\\xb0\\xd0\\xb2\\xd0\\xb5\\xd1\\x89\\xd0\\xb0\\xd0\\xbd\\xd0\\xb8\\xd0\\xb5.sol\":1092:1125  contractStartTime + 10 * 365 days */\n      tag_174\n      swap2\n      swap1\n      tag_81\n      jump\t// in\n    tag_174:\n        /* \"9 \\xd0\\xb7\\xd0\\xb0\\xd0\\xbd\\xd1\\x8f\\xd1\\x82\\xd0\\xb8\\xd0\\xb5/\\xd0\\x97\\xd0\\xb0\\xd0\\xb2\\xd0\\xb5\\xd1\\x89\\xd0\\xb0\\xd0\\xbd\\xd0\\xb8\\xd0\\xb5.sol\":1073:1088  block.timestamp */\n      timestamp\n        /* \"9 \\xd0\\xb7\\xd0\\xb0\\xd0\\xbd\\xd1\\x8f\\xd1\\x82\\xd0\\xb8\\xd0\\xb5/\\xd0\\x97\\xd0\\xb0\\xd0\\xb2\\xd0\\xb5\\xd1\\x89\\xd0\\xb0\\xd0\\xbd\\xd0\\xb8\\xd0\\xb5.sol\":1073:1125  block.timestamp >= contractStartTime + 10 * 365 days */\n      lt\n      iszero\n        /* \"9 \\xd0\\xb7\\xd0\\xb0\\xd0\\xbd\\xd1\\x8f\\xd1\\x82\\xd0\\xb8\\xd0\\xb5/\\xd0\\x97\\xd0\\xb0\\xd0\\xb2\\xd0\\xb5\\xd1\\x89\\xd0\\xb0\\xd0\\xbd\\xd0\\xb8\\xd0\\xb5.sol\":1065:1155  require(block.timestamp >= contractStartTime + 10 * 365 days, \"10 years have not passed.\") */\n      tag_175\n      jumpi\n      mload(0x40)\n      0x08c379a000000000000000000000000000000000000000000000000000000000\n      dup2\n      mstore\n      0x04\n      add\n      tag_176\n      swap1\n      tag_177\n      jump\t// in\n    tag_176:\n      mload(0x40)\n      dup1\n      swap2\n      sub\n      swap1\n      revert\n    tag_175:\n        /* \"9 \\xd0\\xb7\\xd0\\xb0\\xd0\\xbd\\xd1\\x8f\\xd1\\x82\\xd0\\xb8\\xd0\\xb5/\\xd0\\x97\\xd0\\xb0\\xd0\\xb2\\xd0\\xb5\\xd1\\x89\\xd0\\xb0\\xd0\\xbd\\xd0\\xb8\\xd0\\xb5.sol\":693:694  0 */\n      0x00\n        /* \"9 \\xd0\\xb7\\xd0\\xb0\\xd0\\xbd\\xd1\\x8f\\xd1\\x82\\xd0\\xb8\\xd0\\xb5/\\xd0\\x97\\xd0\\xb0\\xd0\\xb2\\xd0\\xb5\\xd1\\x89\\xd0\\xb0\\xd0\\xbd\\xd0\\xb8\\xd0\\xb5.sol\":666:671  heirs */\n      0x05\n        /* \"9 \\xd0\\xb7\\xd0\\xb0\\xd0\\xbd\\xd1\\x8f\\xd1\\x82\\xd0\\xb8\\xd0\\xb5/\\xd0\\x97\\xd0\\xb0\\xd0\\xb2\\xd0\\xb5\\xd1\\x89\\xd0\\xb0\\xd0\\xbd\\xd0\\xb8\\xd0\\xb5.sol\":666:683  heirs[msg.sender] */\n      0x00\n        /* \"9 \\xd0\\xb7\\xd0\\xb0\\xd0\\xbd\\xd1\\x8f\\xd1\\x82\\xd0\\xb8\\xd0\\xb5/\\xd0\\x97\\xd0\\xb0\\xd0\\xb2\\xd0\\xb5\\xd1\\x89\\xd0\\xb0\\xd0\\xbd\\xd0\\xb8\\xd0\\xb5.sol\":672:682  msg.sender */\n      caller\n        /* \"9 \\xd0\\xb7\\xd0\\xb0\\xd0\\xbd\\xd1\\x8f\\xd1\\x82\\xd0\\xb8\\xd0\\xb5/\\xd0\\x97\\xd0\\xb0\\xd0\\xb2\\xd0\\xb5\\xd1\\x89\\xd0\\xb0\\xd0\\xbd\\xd0\\xb8\\xd0\\xb5.sol\":666:683  heirs[msg.sender] */\n      0xffffffffffffffffffffffffffffffffffffffff\n      and\n      0xffffffffffffffffffffffffffffffffffffffff\n      and\n      dup2\n      mstore\n      0x20\n      add\n      swap1\n      dup2\n      mstore\n      0x20\n      add\n      0x00\n      keccak256\n        /* \"9 \\xd0\\xb7\\xd0\\xb0\\xd0\\xbd\\xd1\\x8f\\xd1\\x82\\xd0\\xb8\\xd0\\xb5/\\xd0\\x97\\xd0\\xb0\\xd0\\xb2\\xd0\\xb5\\xd1\\x89\\xd0\\xb0\\xd0\\xbd\\xd0\\xb8\\xd0\\xb5.sol\":666:690  heirs[msg.sender].amount */\n      0x00\n      add\n      sload\n        /* \"9 \\xd0\\xb7\\xd0\\xb0\\xd0\\xbd\\xd1\\x8f\\xd1\\x82\\xd0\\xb8\\xd0\\xb5/\\xd0\\x97\\xd0\\xb0\\xd0\\xb2\\xd0\\xb5\\xd1\\x89\\xd0\\xb0\\xd0\\xbd\\xd0\\xb8\\xd0\\xb5.sol\":666:694  heirs[msg.sender].amount > 0 */\n      gt\n        /* \"9 \\xd0\\xb7\\xd0\\xb0\\xd0\\xbd\\xd1\\x8f\\xd1\\x82\\xd0\\xb8\\xd0\\xb5/\\xd0\\x97\\xd0\\xb0\\xd0\\xb2\\xd0\\xb5\\xd1\\x89\\xd0\\xb0\\xd0\\xbd\\xd0\\xb8\\xd0\\xb5.sol\":658:719  require(heirs[msg.sender].amount > 0, \"You are not an heir.\") */\n      tag_179\n      jumpi\n      mload(0x40)\n      0x08c379a000000000000000000000000000000000000000000000000000000000\n      dup2\n      mstore\n      0x04\n      add\n      tag_180\n      swap1\n      tag_88\n      jump\t// in\n    tag_180:\n      mload(0x40)\n      dup1\n      swap2\n      sub\n      swap1\n      revert\n    tag_179:\n        /* \"9 \\xd0\\xb7\\xd0\\xb0\\xd0\\xbd\\xd1\\x8f\\xd1\\x82\\xd0\\xb8\\xd0\\xb5/\\xd0\\x97\\xd0\\xb0\\xd0\\xb2\\xd0\\xb5\\xd1\\x89\\xd0\\xb0\\xd0\\xbd\\xd0\\xb8\\xd0\\xb5.sol\":5984:6003  uint256 activeHeirs */\n      0x00\n        /* \"9 \\xd0\\xb7\\xd0\\xb0\\xd0\\xbd\\xd1\\x8f\\xd1\\x82\\xd0\\xb8\\xd0\\xb5/\\xd0\\x97\\xd0\\xb0\\xd0\\xb2\\xd0\\xb5\\xd1\\x89\\xd0\\xb0\\xd0\\xbd\\xd0\\xb8\\xd0\\xb5.sol\":6018:6039  uint256 agreeingHeirs */\n      dup1\n        /* \"9 \\xd0\\xb7\\xd0\\xb0\\xd0\\xbd\\xd1\\x8f\\xd1\\x82\\xd0\\xb8\\xd0\\xb5/\\xd0\\x97\\xd0\\xb0\\xd0\\xb2\\xd0\\xb5\\xd1\\x89\\xd0\\xb0\\xd0\\xbd\\xd0\\xb8\\xd0\\xb5.sol\":6061:6070  uint256 i */\n      0x00\n        /* \"9 \\xd0\\xb7\\xd0\\xb0\\xd0\\xbd\\xd1\\x8f\\xd1\\x82\\xd0\\xb8\\xd0\\xb5/\\xd0\\x97\\xd0\\xb0\\xd0\\xb2\\xd0\\xb5\\xd1\\x89\\xd0\\xb0\\xd0\\xbd\\xd0\\xb8\\xd0\\xb5.sol\":6056:6337  for (uint256 i = 0; i < heirAddresses.length; i++) {... */\n    tag_182:\n        /* \"9 \\xd0\\xb7\\xd0\\xb0\\xd0\\xbd\\xd1\\x8f\\xd1\\x82\\xd0\\xb8\\xd0\\xb5/\\xd0\\x97\\xd0\\xb0\\xd0\\xb2\\xd0\\xb5\\xd1\\x89\\xd0\\xb0\\xd0\\xbd\\xd0\\xb8\\xd0\\xb5.sol\":6080:6093  heirAddresses */\n      0x06\n        /* \"9 \\xd0\\xb7\\xd0\\xb0\\xd0\\xbd\\xd1\\x8f\\xd1\\x82\\xd0\\xb8\\xd0\\xb5/\\xd0\\x97\\xd0\\xb0\\xd0\\xb2\\xd0\\xb5\\xd1\\x89\\xd0\\xb0\\xd0\\xbd\\xd0\\xb8\\xd0\\xb5.sol\":6080:6100  heirAddresses.length */\n      dup1\n      sload\n      swap1\n      pop\n        /* \"9 \\xd0\\xb7\\xd0\\xb0\\xd0\\xbd\\xd1\\x8f\\xd1\\x82\\xd0\\xb8\\xd0\\xb5/\\xd0\\x97\\xd0\\xb0\\xd0\\xb2\\xd0\\xb5\\xd1\\x89\\xd0\\xb0\\xd0\\xbd\\xd0\\xb8\\xd0\\xb5.sol\":6076:6077  i */\n      dup2\n        /* \"9 \\xd0\\xb7\\xd0\\xb0\\xd0\\xbd\\xd1\\x8f\\xd1\\x82\\xd0\\xb8\\xd0\\xb5/\\xd0\\x97\\xd0\\xb0\\xd0\\xb2\\xd0\\xb5\\xd1\\x89\\xd0\\xb0\\xd0\\xbd\\xd0\\xb8\\xd0\\xb5.sol\":6076:6100  i < heirAddresses.length */\n      lt\n        /* \"9 \\xd0\\xb7\\xd0\\xb0\\xd0\\xbd\\xd1\\x8f\\xd1\\x82\\xd0\\xb8\\xd0\\xb5/\\xd0\\x97\\xd0\\xb0\\xd0\\xb2\\xd0\\xb5\\xd1\\x89\\xd0\\xb0\\xd0\\xbd\\xd0\\xb8\\xd0\\xb5.sol\":6056:6337  for (uint256 i = 0; i < heirAddresses.length; i++) {... */\n      iszero\n      tag_183\n      jumpi\n        /* \"9 \\xd0\\xb7\\xd0\\xb0\\xd0\\xbd\\xd1\\x8f\\xd1\\x82\\xd0\\xb8\\xd0\\xb5/\\xd0\\x97\\xd0\\xb0\\xd0\\xb2\\xd0\\xb5\\xd1\\x89\\xd0\\xb0\\xd0\\xbd\\xd0\\xb8\\xd0\\xb5.sol\":6159:6160  0 */\n      0x00\n        /* \"9 \\xd0\\xb7\\xd0\\xb0\\xd0\\xbd\\xd1\\x8f\\xd1\\x82\\xd0\\xb8\\xd0\\xb5/\\xd0\\x97\\xd0\\xb0\\xd0\\xb2\\xd0\\xb5\\xd1\\x89\\xd0\\xb0\\xd0\\xbd\\xd0\\xb8\\xd0\\xb5.sol\":6126:6131  heirs */\n      0x05\n        /* \"9 \\xd0\\xb7\\xd0\\xb0\\xd0\\xbd\\xd1\\x8f\\xd1\\x82\\xd0\\xb8\\xd0\\xb5/\\xd0\\x97\\xd0\\xb0\\xd0\\xb2\\xd0\\xb5\\xd1\\x89\\xd0\\xb0\\xd0\\xbd\\xd0\\xb8\\xd0\\xb5.sol\":6126:6149  heirs[heirAddresses[i]] */\n      0x00\n        /* \"9 \\xd0\\xb7\\xd0\\xb0\\xd0\\xbd\\xd1\\x8f\\xd1\\x82\\xd0\\xb8\\xd0\\xb5/\\xd0\\x97\\xd0\\xb0\\xd0\\xb2\\xd0\\xb5\\xd1\\x89\\xd0\\xb0\\xd0\\xbd\\xd0\\xb8\\xd0\\xb5.sol\":6132:6145  heirAddresses */\n      0x06\n        /* \"9 \\xd0\\xb7\\xd0\\xb0\\xd0\\xbd\\xd1\\x8f\\xd1\\x82\\xd0\\xb8\\xd0\\xb5/\\xd0\\x97\\xd0\\xb0\\xd0\\xb2\\xd0\\xb5\\xd1\\x89\\xd0\\xb0\\xd0\\xbd\\xd0\\xb8\\xd0\\xb5.sol\":6146:6147  i */\n      dup5\n        /* \"9 \\xd0\\xb7\\xd0\\xb0\\xd0\\xbd\\xd1\\x8f\\xd1\\x82\\xd0\\xb8\\xd0\\xb5/\\xd0\\x97\\xd0\\xb0\\xd0\\xb2\\xd0\\xb5\\xd1\\x89\\xd0\\xb0\\xd0\\xbd\\xd0\\xb8\\xd0\\xb5.sol\":6132:6148  heirAddresses[i] */\n      dup2\n      sload\n      dup2\n      lt\n      tag_185\n      jumpi\n      tag_186\n      tag_111\n      jump\t// in\n    tag_186:\n    tag_185:\n      swap1\n      0x00\n      mstore\n      keccak256(0x00, 0x20)\n      add\n      0x00\n      swap1\n      sload\n      swap1\n      0x0100\n      exp\n      swap1\n      div\n      0xffffffffffffffffffffffffffffffffffffffff\n      and\n        /* \"9 \\xd0\\xb7\\xd0\\xb0\\xd0\\xbd\\xd1\\x8f\\xd1\\x82\\xd0\\xb8\\xd0\\xb5/\\xd0\\x97\\xd0\\xb0\\xd0\\xb2\\xd0\\xb5\\xd1\\x89\\xd0\\xb0\\xd0\\xbd\\xd0\\xb8\\xd0\\xb5.sol\":6126:6149  heirs[heirAddresses[i]] */\n      0xffffffffffffffffffffffffffffffffffffffff\n      and\n      0xffffffffffffffffffffffffffffffffffffffff\n      and\n      dup2\n      mstore\n      0x20\n      add\n      swap1\n      dup2\n      mstore\n      0x20\n      add\n      0x00\n      keccak256\n        /* \"9 \\xd0\\xb7\\xd0\\xb0\\xd0\\xbd\\xd1\\x8f\\xd1\\x82\\xd0\\xb8\\xd0\\xb5/\\xd0\\x97\\xd0\\xb0\\xd0\\xb2\\xd0\\xb5\\xd1\\x89\\xd0\\xb0\\xd0\\xbd\\xd0\\xb8\\xd0\\xb5.sol\":6126:6156  heirs[heirAddresses[i]].amount */\n      0x00\n      add\n      sload\n        /* \"9 \\xd0\\xb7\\xd0\\xb0\\xd0\\xbd\\xd1\\x8f\\xd1\\x82\\xd0\\xb8\\xd0\\xb5/\\xd0\\x97\\xd0\\xb0\\xd0\\xb2\\xd0\\xb5\\xd1\\x89\\xd0\\xb0\\xd0\\xbd\\xd0\\xb8\\xd0\\xb5.sol\":6126:6160  heirs[heirAddresses[i]].amount > 0 */\n      gt\n        /* \"9 \\xd0\\xb7\\xd0\\xb0\\xd0\\xbd\\xd1\\x8f\\xd1\\x82\\xd0\\xb8\\xd0\\xb5/\\xd0\\x97\\xd0\\xb0\\xd0\\xb2\\xd0\\xb5\\xd1\\x89\\xd0\\xb0\\xd0\\xbd\\xd0\\xb8\\xd0\\xb5.sol\":6122:6326  if (heirs[heirAddresses[i]].amount > 0) {... */\n      iszero\n      tag_188\n      jumpi\n        /* \"9 \\xd0\\xb7\\xd0\\xb0\\xd0\\xbd\\xd1\\x8f\\xd1\\x82\\xd0\\xb8\\xd0\\xb5/\\xd0\\x97\\xd0\\xb0\\xd0\\xb2\\xd0\\xb5\\xd1\\x89\\xd0\\xb0\\xd0\\xbd\\xd0\\xb8\\xd0\\xb5.sol\":6181:6194  activeHeirs++ */\n      dup3\n      dup1\n      tag_189\n      swap1\n      tag_190\n      jump\t// in\n    tag_189:\n      swap4\n      pop\n      pop\n        /* \"9 \\xd0\\xb7\\xd0\\xb0\\xd0\\xbd\\xd1\\x8f\\xd1\\x82\\xd0\\xb8\\xd0\\xb5/\\xd0\\x97\\xd0\\xb0\\xd0\\xb2\\xd0\\xb5\\xd1\\x89\\xd0\\xb0\\xd0\\xbd\\xd0\\xb8\\xd0\\xb5.sol\":6217:6222  heirs */\n      0x05\n        /* \"9 \\xd0\\xb7\\xd0\\xb0\\xd0\\xbd\\xd1\\x8f\\xd1\\x82\\xd0\\xb8\\xd0\\xb5/\\xd0\\x97\\xd0\\xb0\\xd0\\xb2\\xd0\\xb5\\xd1\\x89\\xd0\\xb0\\xd0\\xbd\\xd0\\xb8\\xd0\\xb5.sol\":6217:6240  heirs[heirAddresses[i]] */\n      0x00\n        /* \"9 \\xd0\\xb7\\xd0\\xb0\\xd0\\xbd\\xd1\\x8f\\xd1\\x82\\xd0\\xb8\\xd0\\xb5/\\xd0\\x97\\xd0\\xb0\\xd0\\xb2\\xd0\\xb5\\xd1\\x89\\xd0\\xb0\\xd0\\xbd\\xd0\\xb8\\xd0\\xb5.sol\":6223:6236  heirAddresses */\n      0x06\n        /* \"9 \\xd0\\xb7\\xd0\\xb0\\xd0\\xbd\\xd1\\x8f\\xd1\\x82\\xd0\\xb8\\xd0\\xb5/\\xd0\\x97\\xd0\\xb0\\xd0\\xb2\\xd0\\xb5\\xd1\\x89\\xd0\\xb0\\xd0\\xbd\\xd0\\xb8\\xd0\\xb5.sol\":6237:6238  i */\n      dup4\n        /* \"9 \\xd0\\xb7\\xd0\\xb0\\xd0\\xbd\\xd1\\x8f\\xd1\\x82\\xd0\\xb8\\xd0\\xb5/\\xd0\\x97\\xd0\\xb0\\xd0\\xb2\\xd0\\xb5\\xd1\\x89\\xd0\\xb0\\xd0\\xbd\\xd0\\xb8\\xd0\\xb5.sol\":6223:6239  heirAddresses[i] */\n      dup2\n      sload\n      dup2\n      lt\n      tag_191\n      jumpi\n      tag_192\n      tag_111\n      jump\t// in\n    tag_192:\n    tag_191:\n      swap1\n      0x00\n      mstore\n      keccak256(0x00, 0x20)\n      add\n      0x00\n      swap1\n      sload\n      swap1\n      0x0100\n      exp\n      swap1\n      div\n      0xffffffffffffffffffffffffffffffffffffffff\n      and\n        /* \"9 \\xd0\\xb7\\xd0\\xb0\\xd0\\xbd\\xd1\\x8f\\xd1\\x82\\xd0\\xb8\\xd0\\xb5/\\xd0\\x97\\xd0\\xb0\\xd0\\xb2\\xd0\\xb5\\xd1\\x89\\xd0\\xb0\\xd0\\xbd\\xd0\\xb8\\xd0\\xb5.sol\":6217:6240  heirs[heirAddresses[i]] */\n      0xffffffffffffffffffffffffffffffffffffffff\n      and\n      0xffffffffffffffffffffffffffffffffffffffff\n      and\n      dup2\n      mstore\n      0x20\n      add\n      swap1\n      dup2\n      mstore\n      0x20\n      add\n      0x00\n      keccak256\n        /* \"9 \\xd0\\xb7\\xd0\\xb0\\xd0\\xbd\\xd1\\x8f\\xd1\\x82\\xd0\\xb8\\xd0\\xb5/\\xd0\\x97\\xd0\\xb0\\xd0\\xb2\\xd0\\xb5\\xd1\\x89\\xd0\\xb0\\xd0\\xbd\\xd0\\xb8\\xd0\\xb5.sol\":6217:6251  heirs[heirAddresses[i]].hasClaimed */\n      0x01\n      add\n      0x00\n      swap1\n      sload\n      swap1\n      0x0100\n      exp\n      swap1\n      div\n      0xff\n      and\n        /* \"9 \\xd0\\xb7\\xd0\\xb0\\xd0\\xbd\\xd1\\x8f\\xd1\\x82\\xd0\\xb8\\xd0\\xb5/\\xd0\\x97\\xd0\\xb0\\xd0\\xb2\\xd0\\xb5\\xd1\\x89\\xd0\\xb0\\xd0\\xbd\\xd0\\xb8\\xd0\\xb5.sol\":6213:6311  if (heirs[heirAddresses[i]].hasClaimed) {... */\n      iszero\n      tag_194\n      jumpi\n        /* \"9 \\xd0\\xb7\\xd0\\xb0\\xd0\\xbd\\xd1\\x8f\\xd1\\x82\\xd0\\xb8\\xd0\\xb5/\\xd0\\x97\\xd0\\xb0\\xd0\\xb2\\xd0\\xb5\\xd1\\x89\\xd0\\xb0\\xd0\\xbd\\xd0\\xb8\\xd0\\xb5.sol\":6276:6291  agreeingHeirs++ */\n      dup2\n      dup1\n      tag_195\n      swap1\n      tag_190\n      jump\t// in\n    tag_195:\n      swap3\n      pop\n      pop\n        /* \"9 \\xd0\\xb7\\xd0\\xb0\\xd0\\xbd\\xd1\\x8f\\xd1\\x82\\xd0\\xb8\\xd0\\xb5/\\xd0\\x97\\xd0\\xb0\\xd0\\xb2\\xd0\\xb5\\xd1\\x89\\xd0\\xb0\\xd0\\xbd\\xd0\\xb8\\xd0\\xb5.sol\":6213:6311  if (heirs[heirAddresses[i]].hasClaimed) {... */\n    tag_194:\n        /* \"9 \\xd0\\xb7\\xd0\\xb0\\xd0\\xbd\\xd1\\x8f\\xd1\\x82\\xd0\\xb8\\xd0\\xb5/\\xd0\\x97\\xd0\\xb0\\xd0\\xb2\\xd0\\xb5\\xd1\\x89\\xd0\\xb0\\xd0\\xbd\\xd0\\xb8\\xd0\\xb5.sol\":6122:6326  if (heirs[heirAddresses[i]].amount > 0) {... */\n    tag_188:\n        /* \"9 \\xd0\\xb7\\xd0\\xb0\\xd0\\xbd\\xd1\\x8f\\xd1\\x82\\xd0\\xb8\\xd0\\xb5/\\xd0\\x97\\xd0\\xb0\\xd0\\xb2\\xd0\\xb5\\xd1\\x89\\xd0\\xb0\\xd0\\xbd\\xd0\\xb8\\xd0\\xb5.sol\":6102:6105  i++ */\n      dup1\n      dup1\n      0x01\n      add\n      swap2\n      pop\n      pop\n        /* \"9 \\xd0\\xb7\\xd0\\xb0\\xd0\\xbd\\xd1\\x8f\\xd1\\x82\\xd0\\xb8\\xd0\\xb5/\\xd0\\x97\\xd0\\xb0\\xd0\\xb2\\xd0\\xb5\\xd1\\x89\\xd0\\xb0\\xd0\\xbd\\xd0\\xb8\\xd0\\xb5.sol\":6056:6337  for (uint256 i = 0; i < heirAddresses.length; i++) {... */\n      jump(tag_182)\n    tag_183:\n      pop\n        /* \"9 \\xd0\\xb7\\xd0\\xb0\\xd0\\xbd\\xd1\\x8f\\xd1\\x82\\xd0\\xb8\\xd0\\xb5/\\xd0\\x97\\xd0\\xb0\\xd0\\xb2\\xd0\\xb5\\xd1\\x89\\xd0\\xb0\\xd0\\xbd\\xd0\\xb8\\xd0\\xb5.sol\":6371:6372  2 */\n      0x02\n        /* \"9 \\xd0\\xb7\\xd0\\xb0\\xd0\\xbd\\xd1\\x8f\\xd1\\x82\\xd0\\xb8\\xd0\\xb5/\\xd0\\x97\\xd0\\xb0\\xd0\\xb2\\xd0\\xb5\\xd1\\x89\\xd0\\xb0\\xd0\\xbd\\xd0\\xb8\\xd0\\xb5.sol\":6357:6368  activeHeirs */\n      dup3\n        /* \"9 \\xd0\\xb7\\xd0\\xb0\\xd0\\xbd\\xd1\\x8f\\xd1\\x82\\xd0\\xb8\\xd0\\xb5/\\xd0\\x97\\xd0\\xb0\\xd0\\xb2\\xd0\\xb5\\xd1\\x89\\xd0\\xb0\\xd0\\xbd\\xd0\\xb8\\xd0\\xb5.sol\":6357:6372  activeHeirs > 2 */\n      gt\n        /* \"9 \\xd0\\xb7\\xd0\\xb0\\xd0\\xbd\\xd1\\x8f\\xd1\\x82\\xd0\\xb8\\xd0\\xb5/\\xd0\\x97\\xd0\\xb0\\xd0\\xb2\\xd0\\xb5\\xd1\\x89\\xd0\\xb0\\xd0\\xbd\\xd0\\xb8\\xd0\\xb5.sol\":6349:6393  require(activeHeirs > 2, \"Not enough heirs\") */\n      tag_196\n      jumpi\n      mload(0x40)\n      0x08c379a000000000000000000000000000000000000000000000000000000000\n      dup2\n      mstore\n      0x04\n      add\n      tag_197\n      swap1\n      tag_198\n      jump\t// in\n    tag_197:\n      mload(0x40)\n      dup1\n      swap2\n      sub\n      swap1\n      revert\n    tag_196:\n        /* \"9 \\xd0\\xb7\\xd0\\xb0\\xd0\\xbd\\xd1\\x8f\\xd1\\x82\\xd0\\xb8\\xd0\\xb5/\\xd0\\x97\\xd0\\xb0\\xd0\\xb2\\xd0\\xb5\\xd1\\x89\\xd0\\xb0\\xd0\\xbd\\xd0\\xb8\\xd0\\xb5.sol\":6433:6444  activeHeirs */\n      dup2\n        /* \"9 \\xd0\\xb7\\xd0\\xb0\\xd0\\xbd\\xd1\\x8f\\xd1\\x82\\xd0\\xb8\\xd0\\xb5/\\xd0\\x97\\xd0\\xb0\\xd0\\xb2\\xd0\\xb5\\xd1\\x89\\xd0\\xb0\\xd0\\xbd\\xd0\\xb8\\xd0\\xb5.sol\":6428:6429  2 */\n      0x02\n        /* \"9 \\xd0\\xb7\\xd0\\xb0\\xd0\\xbd\\xd1\\x8f\\xd1\\x82\\xd0\\xb8\\xd0\\xb5/\\xd0\\x97\\xd0\\xb0\\xd0\\xb2\\xd0\\xb5\\xd1\\x89\\xd0\\xb0\\xd0\\xbd\\xd0\\xb8\\xd0\\xb5.sol\":6412:6425  agreeingHeirs */\n      dup3\n        /* \"9 \\xd0\\xb7\\xd0\\xb0\\xd0\\xbd\\xd1\\x8f\\xd1\\x82\\xd0\\xb8\\xd0\\xb5/\\xd0\\x97\\xd0\\xb0\\xd0\\xb2\\xd0\\xb5\\xd1\\x89\\xd0\\xb0\\xd0\\xbd\\xd0\\xb8\\xd0\\xb5.sol\":6412:6429  agreeingHeirs * 2 */\n      tag_199\n      swap2\n      swap1\n      tag_120\n      jump\t// in\n    tag_199:\n        /* \"9 \\xd0\\xb7\\xd0\\xb0\\xd0\\xbd\\xd1\\x8f\\xd1\\x82\\xd0\\xb8\\xd0\\xb5/\\xd0\\x97\\xd0\\xb0\\xd0\\xb2\\xd0\\xb5\\xd1\\x89\\xd0\\xb0\\xd0\\xbd\\xd0\\xb8\\xd0\\xb5.sol\":6412:6444  agreeingHeirs * 2 >= activeHeirs */\n      lt\n      iszero\n        /* \"9 \\xd0\\xb7\\xd0\\xb0\\xd0\\xbd\\xd1\\x8f\\xd1\\x82\\xd0\\xb8\\xd0\\xb5/\\xd0\\x97\\xd0\\xb0\\xd0\\xb2\\xd0\\xb5\\xd1\\x89\\xd0\\xb0\\xd0\\xbd\\xd0\\xb8\\xd0\\xb5.sol\":6404:6471  require(agreeingHeirs * 2 >= activeHeirs, \"Insufficient consensus\") */\n      tag_200\n      jumpi\n      mload(0x40)\n      0x08c379a000000000000000000000000000000000000000000000000000000000\n      dup2\n      mstore\n      0x04\n      add\n      tag_201\n      swap1\n      tag_202\n      jump\t// in\n    tag_201:\n      mload(0x40)\n      dup1\n      swap2\n      sub\n      swap1\n      revert\n    tag_200:\n        /* \"9 \\xd0\\xb7\\xd0\\xb0\\xd0\\xbd\\xd1\\x8f\\xd1\\x82\\xd0\\xb8\\xd0\\xb5/\\xd0\\x97\\xd0\\xb0\\xd0\\xb2\\xd0\\xb5\\xd1\\x89\\xd0\\xb0\\xd0\\xbd\\xd0\\xb8\\xd0\\xb5.sol\":6484:6501  distributeFunds() */\n      tag_203\n        /* \"9 \\xd0\\xb7\\xd0\\xb0\\xd0\\xbd\\xd1\\x8f\\xd1\\x82\\xd0\\xb8\\xd0\\xb5/\\xd0\\x97\\xd0\\xb0\\xd0\\xb2\\xd0\\xb5\\xd1\\x89\\xd0\\xb0\\xd0\\xbd\\xd0\\xb8\\xd0\\xb5.sol\":6484:6499  distributeFunds */\n      tag_91\n        /* \"9 \\xd0\\xb7\\xd0\\xb0\\xd0\\xbd\\xd1\\x8f\\xd1\\x82\\xd0\\xb8\\xd0\\xb5/\\xd0\\x97\\xd0\\xb0\\xd0\\xb2\\xd0\\xb5\\xd1\\x89\\xd0\\xb0\\xd0\\xbd\\xd0\\xb8\\xd0\\xb5.sol\":6484:6501  distributeFunds() */\n      jump\t// in\n    tag_203:\n        /* \"9 \\xd0\\xb7\\xd0\\xb0\\xd0\\xbd\\xd1\\x8f\\xd1\\x82\\xd0\\xb8\\xd0\\xb5/\\xd0\\x97\\xd0\\xb0\\xd0\\xb2\\xd0\\xb5\\xd1\\x89\\xd0\\xb0\\xd0\\xbd\\xd0\\xb8\\xd0\\xb5.sol\":5973:6509  {... */\n      pop\n      pop\n        /* \"9 \\xd0\\xb7\\xd0\\xb0\\xd0\\xbd\\xd1\\x8f\\xd1\\x82\\xd0\\xb8\\xd0\\xb5/\\xd0\\x97\\xd0\\xb0\\xd0\\xb2\\xd0\\xb5\\xd1\\x89\\xd0\\xb0\\xd0\\xbd\\xd0\\xb8\\xd0\\xb5.sol\":5898:6509  function initiateInheritanceWithConsensus() external after10Years onlyHeir {... */\n      jump\t// out\n        /* \"9 \\xd0\\xb7\\xd0\\xb0\\xd0\\xbd\\xd1\\x8f\\xd1\\x82\\xd0\\xb8\\xd0\\xb5/\\xd0\\x97\\xd0\\xb0\\xd0\\xb2\\xd0\\xb5\\xd1\\x89\\xd0\\xb0\\xd0\\xbd\\xd0\\xb8\\xd0\\xb5.sol\":135:157  address public trustee */\n    tag_77:\n      0x01\n      0x00\n      swap1\n      sload\n      swap1\n      0x0100\n      exp\n      swap1\n      div\n      0xffffffffffffffffffffffffffffffffffffffff\n      and\n      dup2\n      jump\t// out\n        /* \"9 \\xd0\\xb7\\xd0\\xb0\\xd0\\xbd\\xd1\\x8f\\xd1\\x82\\xd0\\xb8\\xd0\\xb5/\\xd0\\x97\\xd0\\xb0\\xd0\\xb2\\xd0\\xb5\\xd1\\x89\\xd0\\xb0\\xd0\\xbd\\xd0\\xb8\\xd0\\xb5.sol\":6802:7299  function distributeFunds() internal {... */\n    tag_91:\n        /* \"9 \\xd0\\xb7\\xd0\\xb0\\xd0\\xbd\\xd1\\x8f\\xd1\\x82\\xd0\\xb8\\xd0\\xb5/\\xd0\\x97\\xd0\\xb0\\xd0\\xb2\\xd0\\xb5\\xd1\\x89\\xd0\\xb0\\xd0\\xbd\\xd0\\xb8\\xd0\\xb5.sol\":6854:6863  uint256 i */\n      0x00\n        /* \"9 \\xd0\\xb7\\xd0\\xb0\\xd0\\xbd\\xd1\\x8f\\xd1\\x82\\xd0\\xb8\\xd0\\xb5/\\xd0\\x97\\xd0\\xb0\\xd0\\xb2\\xd0\\xb5\\xd1\\x89\\xd0\\xb0\\xd0\\xbd\\xd0\\xb8\\xd0\\xb5.sol\":6849:7292  for (uint256 i = 0; i < heirAddresses.length; i++) {... */\n    tag_205:\n        /* \"9 \\xd0\\xb7\\xd0\\xb0\\xd0\\xbd\\xd1\\x8f\\xd1\\x82\\xd0\\xb8\\xd0\\xb5/\\xd0\\x97\\xd0\\xb0\\xd0\\xb2\\xd0\\xb5\\xd1\\x89\\xd0\\xb0\\xd0\\xbd\\xd0\\xb8\\xd0\\xb5.sol\":6873:6886  heirAddresses */\n      0x06\n        /* \"9 \\xd0\\xb7\\xd0\\xb0\\xd0\\xbd\\xd1\\x8f\\xd1\\x82\\xd0\\xb8\\xd0\\xb5/\\xd0\\x97\\xd0\\xb0\\xd0\\xb2\\xd0\\xb5\\xd1\\x89\\xd0\\xb0\\xd0\\xbd\\xd0\\xb8\\xd0\\xb5.sol\":6873:6893  heirAddresses.length */\n      dup1\n      sload\n      swap1\n      pop\n        /* \"9 \\xd0\\xb7\\xd0\\xb0\\xd0\\xbd\\xd1\\x8f\\xd1\\x82\\xd0\\xb8\\xd0\\xb5/\\xd0\\x97\\xd0\\xb0\\xd0\\xb2\\xd0\\xb5\\xd1\\x89\\xd0\\xb0\\xd0\\xbd\\xd0\\xb8\\xd0\\xb5.sol\":6869:6870  i */\n      dup2\n        /* \"9 \\xd0\\xb7\\xd0\\xb0\\xd0\\xbd\\xd1\\x8f\\xd1\\x82\\xd0\\xb8\\xd0\\xb5/\\xd0\\x97\\xd0\\xb0\\xd0\\xb2\\xd0\\xb5\\xd1\\x89\\xd0\\xb0\\xd0\\xbd\\xd0\\xb8\\xd0\\xb5.sol\":6869:6893  i < heirAddresses.length */\n      lt\n        /* \"9 \\xd0\\xb7\\xd0\\xb0\\xd0\\xbd\\xd1\\x8f\\xd1\\x82\\xd0\\xb8\\xd0\\xb5/\\xd0\\x97\\xd0\\xb0\\xd0\\xb2\\xd0\\xb5\\xd1\\x89\\xd0\\xb0\\xd0\\xbd\\xd0\\xb8\\xd0\\xb5.sol\":6849:7292  for (uint256 i = 0; i < heirAddresses.length; i++) {... */\n      iszero\n      tag_206\n      jumpi\n        /* \"9 \\xd0\\xb7\\xd0\\xb0\\xd0\\xbd\\xd1\\x8f\\xd1\\x82\\xd0\\xb8\\xd0\\xb5/\\xd0\\x97\\xd0\\xb0\\xd0\\xb2\\xd0\\xb5\\xd1\\x89\\xd0\\xb0\\xd0\\xbd\\xd0\\xb8\\xd0\\xb5.sol\":6915:6932  Heir storage heir */\n      0x00\n        /* \"9 \\xd0\\xb7\\xd0\\xb0\\xd0\\xbd\\xd1\\x8f\\xd1\\x82\\xd0\\xb8\\xd0\\xb5/\\xd0\\x97\\xd0\\xb0\\xd0\\xb2\\xd0\\xb5\\xd1\\x89\\xd0\\xb0\\xd0\\xbd\\xd0\\xb8\\xd0\\xb5.sol\":6935:6940  heirs */\n      0x05\n        /* \"9 \\xd0\\xb7\\xd0\\xb0\\xd0\\xbd\\xd1\\x8f\\xd1\\x82\\xd0\\xb8\\xd0\\xb5/\\xd0\\x97\\xd0\\xb0\\xd0\\xb2\\xd0\\xb5\\xd1\\x89\\xd0\\xb0\\xd0\\xbd\\xd0\\xb8\\xd0\\xb5.sol\":6935:6958  heirs[heirAddresses[i]] */\n      0x00\n        /* \"9 \\xd0\\xb7\\xd0\\xb0\\xd0\\xbd\\xd1\\x8f\\xd1\\x82\\xd0\\xb8\\xd0\\xb5/\\xd0\\x97\\xd0\\xb0\\xd0\\xb2\\xd0\\xb5\\xd1\\x89\\xd0\\xb0\\xd0\\xbd\\xd0\\xb8\\xd0\\xb5.sol\":6941:6954  heirAddresses */\n      0x06\n        /* \"9 \\xd0\\xb7\\xd0\\xb0\\xd0\\xbd\\xd1\\x8f\\xd1\\x82\\xd0\\xb8\\xd0\\xb5/\\xd0\\x97\\xd0\\xb0\\xd0\\xb2\\xd0\\xb5\\xd1\\x89\\xd0\\xb0\\xd0\\xbd\\xd0\\xb8\\xd0\\xb5.sol\":6955:6956  i */\n      dup5\n        /* \"9 \\xd0\\xb7\\xd0\\xb0\\xd0\\xbd\\xd1\\x8f\\xd1\\x82\\xd0\\xb8\\xd0\\xb5/\\xd0\\x97\\xd0\\xb0\\xd0\\xb2\\xd0\\xb5\\xd1\\x89\\xd0\\xb0\\xd0\\xbd\\xd0\\xb8\\xd0\\xb5.sol\":6941:6957  heirAddresses[i] */\n      dup2\n      sload\n      dup2\n      lt\n      tag_208\n      jumpi\n      tag_209\n      tag_111\n      jump\t// in\n    tag_209:\n    tag_208:\n      swap1\n      0x00\n      mstore\n      keccak256(0x00, 0x20)\n      add\n      0x00\n      swap1\n      sload\n      swap1\n      0x0100\n      exp\n      swap1\n      div\n      0xffffffffffffffffffffffffffffffffffffffff\n      and\n        /* \"9 \\xd0\\xb7\\xd0\\xb0\\xd0\\xbd\\xd1\\x8f\\xd1\\x82\\xd0\\xb8\\xd0\\xb5/\\xd0\\x97\\xd0\\xb0\\xd0\\xb2\\xd0\\xb5\\xd1\\x89\\xd0\\xb0\\xd0\\xbd\\xd0\\xb8\\xd0\\xb5.sol\":6935:6958  heirs[heirAddresses[i]] */\n      0xffffffffffffffffffffffffffffffffffffffff\n      and\n      0xffffffffffffffffffffffffffffffffffffffff\n      and\n      dup2\n      mstore\n      0x20\n      add\n      swap1\n      dup2\n      mstore\n      0x20\n      add\n      0x00\n      keccak256\n        /* \"9 \\xd0\\xb7\\xd0\\xb0\\xd0\\xbd\\xd1\\x8f\\xd1\\x82\\xd0\\xb8\\xd0\\xb5/\\xd0\\x97\\xd0\\xb0\\xd0\\xb2\\xd0\\xb5\\xd1\\x89\\xd0\\xb0\\xd0\\xbd\\xd0\\xb8\\xd0\\xb5.sol\":6915:6958  Heir storage heir = heirs[heirAddresses[i]] */\n      swap1\n      pop\n        /* \"9 \\xd0\\xb7\\xd0\\xb0\\xd0\\xbd\\xd1\\x8f\\xd1\\x82\\xd0\\xb8\\xd0\\xb5/\\xd0\\x97\\xd0\\xb0\\xd0\\xb2\\xd0\\xb5\\xd1\\x89\\xd0\\xb0\\xd0\\xbd\\xd0\\xb8\\xd0\\xb5.sol\":6991:6992  0 */\n      0x00\n        /* \"9 \\xd0\\xb7\\xd0\\xb0\\xd0\\xbd\\xd1\\x8f\\xd1\\x82\\xd0\\xb8\\xd0\\xb5/\\xd0\\x97\\xd0\\xb0\\xd0\\xb2\\xd0\\xb5\\xd1\\x89\\xd0\\xb0\\xd0\\xbd\\xd0\\xb8\\xd0\\xb5.sol\":6977:6981  heir */\n      dup2\n        /* \"9 \\xd0\\xb7\\xd0\\xb0\\xd0\\xbd\\xd1\\x8f\\xd1\\x82\\xd0\\xb8\\xd0\\xb5/\\xd0\\x97\\xd0\\xb0\\xd0\\xb2\\xd0\\xb5\\xd1\\x89\\xd0\\xb0\\xd0\\xbd\\xd0\\xb8\\xd0\\xb5.sol\":6977:6988  heir.amount */\n      0x00\n      add\n      sload\n        /* \"9 \\xd0\\xb7\\xd0\\xb0\\xd0\\xbd\\xd1\\x8f\\xd1\\x82\\xd0\\xb8\\xd0\\xb5/\\xd0\\x97\\xd0\\xb0\\xd0\\xb2\\xd0\\xb5\\xd1\\x89\\xd0\\xb0\\xd0\\xbd\\xd0\\xb8\\xd0\\xb5.sol\":6977:6992  heir.amount > 0 */\n      gt\n        /* \"9 \\xd0\\xb7\\xd0\\xb0\\xd0\\xbd\\xd1\\x8f\\xd1\\x82\\xd0\\xb8\\xd0\\xb5/\\xd0\\x97\\xd0\\xb0\\xd0\\xb2\\xd0\\xb5\\xd1\\x89\\xd0\\xb0\\xd0\\xbd\\xd0\\xb8\\xd0\\xb5.sol\":6977:7012  heir.amount > 0 && !heir.hasClaimed */\n      dup1\n      iszero\n      tag_211\n      jumpi\n      pop\n        /* \"9 \\xd0\\xb7\\xd0\\xb0\\xd0\\xbd\\xd1\\x8f\\xd1\\x82\\xd0\\xb8\\xd0\\xb5/\\xd0\\x97\\xd0\\xb0\\xd0\\xb2\\xd0\\xb5\\xd1\\x89\\xd0\\xb0\\xd0\\xbd\\xd0\\xb8\\xd0\\xb5.sol\":6997:7001  heir */\n      dup1\n        /* \"9 \\xd0\\xb7\\xd0\\xb0\\xd0\\xbd\\xd1\\x8f\\xd1\\x82\\xd0\\xb8\\xd0\\xb5/\\xd0\\x97\\xd0\\xb0\\xd0\\xb2\\xd0\\xb5\\xd1\\x89\\xd0\\xb0\\xd0\\xbd\\xd0\\xb8\\xd0\\xb5.sol\":6997:7012  heir.hasClaimed */\n      0x01\n      add\n      0x00\n      swap1\n      sload\n      swap1\n      0x0100\n      exp\n      swap1\n      div\n      0xff\n      and\n        /* \"9 \\xd0\\xb7\\xd0\\xb0\\xd0\\xbd\\xd1\\x8f\\xd1\\x82\\xd0\\xb8\\xd0\\xb5/\\xd0\\x97\\xd0\\xb0\\xd0\\xb2\\xd0\\xb5\\xd1\\x89\\xd0\\xb0\\xd0\\xbd\\xd0\\xb8\\xd0\\xb5.sol\":6996:7012  !heir.hasClaimed */\n      iszero\n        /* \"9 \\xd0\\xb7\\xd0\\xb0\\xd0\\xbd\\xd1\\x8f\\xd1\\x82\\xd0\\xb8\\xd0\\xb5/\\xd0\\x97\\xd0\\xb0\\xd0\\xb2\\xd0\\xb5\\xd1\\x89\\xd0\\xb0\\xd0\\xbd\\xd0\\xb8\\xd0\\xb5.sol\":6977:7012  heir.amount > 0 && !heir.hasClaimed */\n    tag_211:\n        /* \"9 \\xd0\\xb7\\xd0\\xb0\\xd0\\xbd\\xd1\\x8f\\xd1\\x82\\xd0\\xb8\\xd0\\xb5/\\xd0\\x97\\xd0\\xb0\\xd0\\xb2\\xd0\\xb5\\xd1\\x89\\xd0\\xb0\\xd0\\xbd\\xd0\\xb8\\xd0\\xb5.sol\":6973:7281  if (heir.amount > 0 && !heir.hasClaimed) {... */\n      iszero\n      tag_212\n      jumpi\n        /* \"9 \\xd0\\xb7\\xd0\\xb0\\xd0\\xbd\\xd1\\x8f\\xd1\\x82\\xd0\\xb8\\xd0\\xb5/\\xd0\\x97\\xd0\\xb0\\xd0\\xb2\\xd0\\xb5\\xd1\\x89\\xd0\\xb0\\xd0\\xbd\\xd0\\xb8\\xd0\\xb5.sol\":7033:7047  uint256 amount */\n      0x00\n        /* \"9 \\xd0\\xb7\\xd0\\xb0\\xd0\\xbd\\xd1\\x8f\\xd1\\x82\\xd0\\xb8\\xd0\\xb5/\\xd0\\x97\\xd0\\xb0\\xd0\\xb2\\xd0\\xb5\\xd1\\x89\\xd0\\xb0\\xd0\\xbd\\xd0\\xb8\\xd0\\xb5.sol\":7050:7054  heir */\n      dup2\n        /* \"9 \\xd0\\xb7\\xd0\\xb0\\xd0\\xbd\\xd1\\x8f\\xd1\\x82\\xd0\\xb8\\xd0\\xb5/\\xd0\\x97\\xd0\\xb0\\xd0\\xb2\\xd0\\xb5\\xd1\\x89\\xd0\\xb0\\xd0\\xbd\\xd0\\xb8\\xd0\\xb5.sol\":7050:7061  heir.amount */\n      0x00\n      add\n      sload\n        /* \"9 \\xd0\\xb7\\xd0\\xb0\\xd0\\xbd\\xd1\\x8f\\xd1\\x82\\xd0\\xb8\\xd0\\xb5/\\xd0\\x97\\xd0\\xb0\\xd0\\xb2\\xd0\\xb5\\xd1\\x89\\xd0\\xb0\\xd0\\xbd\\xd0\\xb8\\xd0\\xb5.sol\":7033:7061  uint256 amount = heir.amount */\n      swap1\n      pop\n        /* \"9 \\xd0\\xb7\\xd0\\xb0\\xd0\\xbd\\xd1\\x8f\\xd1\\x82\\xd0\\xb8\\xd0\\xb5/\\xd0\\x97\\xd0\\xb0\\xd0\\xb2\\xd0\\xb5\\xd1\\x89\\xd0\\xb0\\xd0\\xbd\\xd0\\xb8\\xd0\\xb5.sol\":7094:7095  0 */\n      0x00\n        /* \"9 \\xd0\\xb7\\xd0\\xb0\\xd0\\xbd\\xd1\\x8f\\xd1\\x82\\xd0\\xb8\\xd0\\xb5/\\xd0\\x97\\xd0\\xb0\\xd0\\xb2\\xd0\\xb5\\xd1\\x89\\xd0\\xb0\\xd0\\xbd\\xd0\\xb8\\xd0\\xb5.sol\":7080:7084  heir */\n      dup3\n        /* \"9 \\xd0\\xb7\\xd0\\xb0\\xd0\\xbd\\xd1\\x8f\\xd1\\x82\\xd0\\xb8\\xd0\\xb5/\\xd0\\x97\\xd0\\xb0\\xd0\\xb2\\xd0\\xb5\\xd1\\x89\\xd0\\xb0\\xd0\\xbd\\xd0\\xb8\\xd0\\xb5.sol\":7080:7091  heir.amount */\n      0x00\n      add\n        /* \"9 \\xd0\\xb7\\xd0\\xb0\\xd0\\xbd\\xd1\\x8f\\xd1\\x82\\xd0\\xb8\\xd0\\xb5/\\xd0\\x97\\xd0\\xb0\\xd0\\xb2\\xd0\\xb5\\xd1\\x89\\xd0\\xb0\\xd0\\xbd\\xd0\\xb8\\xd0\\xb5.sol\":7080:7095  heir.amount = 0 */\n      dup2\n      swap1\n      sstore\n      pop\n        /* \"9 \\xd0\\xb7\\xd0\\xb0\\xd0\\xbd\\xd1\\x8f\\xd1\\x82\\xd0\\xb8\\xd0\\xb5/\\xd0\\x97\\xd0\\xb0\\xd0\\xb2\\xd0\\xb5\\xd1\\x89\\xd0\\xb0\\xd0\\xbd\\xd0\\xb8\\xd0\\xb5.sol\":7132:7136  true */\n      0x01\n        /* \"9 \\xd0\\xb7\\xd0\\xb0\\xd0\\xbd\\xd1\\x8f\\xd1\\x82\\xd0\\xb8\\xd0\\xb5/\\xd0\\x97\\xd0\\xb0\\xd0\\xb2\\xd0\\xb5\\xd1\\x89\\xd0\\xb0\\xd0\\xbd\\xd0\\xb8\\xd0\\xb5.sol\":7114:7118  heir */\n      dup3\n        /* \"9 \\xd0\\xb7\\xd0\\xb0\\xd0\\xbd\\xd1\\x8f\\xd1\\x82\\xd0\\xb8\\xd0\\xb5/\\xd0\\x97\\xd0\\xb0\\xd0\\xb2\\xd0\\xb5\\xd1\\x89\\xd0\\xb0\\xd0\\xbd\\xd0\\xb8\\xd0\\xb5.sol\":7114:7129  heir.hasClaimed */\n      0x01\n      add\n      0x00\n        /* \"9 \\xd0\\xb7\\xd0\\xb0\\xd0\\xbd\\xd1\\x8f\\xd1\\x82\\xd0\\xb8\\xd0\\xb5/\\xd0\\x97\\xd0\\xb0\\xd0\\xb2\\xd0\\xb5\\xd1\\x89\\xd0\\xb0\\xd0\\xbd\\xd0\\xb8\\xd0\\xb5.sol\":7114:7136  heir.hasClaimed = true */\n      0x0100\n      exp\n      dup2\n      sload\n      dup2\n      0xff\n      mul\n      not\n      and\n      swap1\n      dup4\n      iszero\n      iszero\n      mul\n      or\n      swap1\n      sstore\n      pop\n        /* \"9 \\xd0\\xb7\\xd0\\xb0\\xd0\\xbd\\xd1\\x8f\\xd1\\x82\\xd0\\xb8\\xd0\\xb5/\\xd0\\x97\\xd0\\xb0\\xd0\\xb2\\xd0\\xb5\\xd1\\x89\\xd0\\xb0\\xd0\\xbd\\xd0\\xb8\\xd0\\xb5.sol\":7163:7176  heirAddresses */\n      0x06\n        /* \"9 \\xd0\\xb7\\xd0\\xb0\\xd0\\xbd\\xd1\\x8f\\xd1\\x82\\xd0\\xb8\\xd0\\xb5/\\xd0\\x97\\xd0\\xb0\\xd0\\xb2\\xd0\\xb5\\xd1\\x89\\xd0\\xb0\\xd0\\xbd\\xd0\\xb8\\xd0\\xb5.sol\":7177:7178  i */\n      dup4\n        /* \"9 \\xd0\\xb7\\xd0\\xb0\\xd0\\xbd\\xd1\\x8f\\xd1\\x82\\xd0\\xb8\\xd0\\xb5/\\xd0\\x97\\xd0\\xb0\\xd0\\xb2\\xd0\\xb5\\xd1\\x89\\xd0\\xb0\\xd0\\xbd\\xd0\\xb8\\xd0\\xb5.sol\":7163:7179  heirAddresses[i] */\n      dup2\n      sload\n      dup2\n      lt\n      tag_213\n      jumpi\n      tag_214\n      tag_111\n      jump\t// in\n    tag_214:\n    tag_213:\n      swap1\n      0x00\n      mstore\n      keccak256(0x00, 0x20)\n      add\n      0x00\n      swap1\n      sload\n      swap1\n      0x0100\n      exp\n      swap1\n      div\n      0xffffffffffffffffffffffffffffffffffffffff\n      and\n        /* \"9 \\xd0\\xb7\\xd0\\xb0\\xd0\\xbd\\xd1\\x8f\\xd1\\x82\\xd0\\xb8\\xd0\\xb5/\\xd0\\x97\\xd0\\xb0\\xd0\\xb2\\xd0\\xb5\\xd1\\x89\\xd0\\xb0\\xd0\\xbd\\xd0\\xb8\\xd0\\xb5.sol\":7155:7189  payable(heirAddresses[i]).transfer */\n      0xffffffffffffffffffffffffffffffffffffffff\n      and\n        /* \"9 \\xd0\\xb7\\xd0\\xb0\\xd0\\xbd\\xd1\\x8f\\xd1\\x82\\xd0\\xb8\\xd0\\xb5/\\xd0\\x97\\xd0\\xb0\\xd0\\xb2\\xd0\\xb5\\xd1\\x89\\xd0\\xb0\\xd0\\xbd\\xd0\\xb8\\xd0\\xb5.sol\":7155:7197  payable(heirAddresses[i]).transfer(amount) */\n      0x08fc\n        /* \"9 \\xd0\\xb7\\xd0\\xb0\\xd0\\xbd\\xd1\\x8f\\xd1\\x82\\xd0\\xb8\\xd0\\xb5/\\xd0\\x97\\xd0\\xb0\\xd0\\xb2\\xd0\\xb5\\xd1\\x89\\xd0\\xb0\\xd0\\xbd\\xd0\\xb8\\xd0\\xb5.sol\":7190:7196  amount */\n      dup3\n        /* \"9 \\xd0\\xb7\\xd0\\xb0\\xd0\\xbd\\xd1\\x8f\\xd1\\x82\\xd0\\xb8\\xd0\\xb5/\\xd0\\x97\\xd0\\xb0\\xd0\\xb2\\xd0\\xb5\\xd1\\x89\\xd0\\xb0\\xd0\\xbd\\xd0\\xb8\\xd0\\xb5.sol\":7155:7197  payable(heirAddresses[i]).transfer(amount) */\n      swap1\n      dup2\n      iszero\n      mul\n      swap1\n      mload(0x40)\n      0x00\n      mload(0x40)\n      dup1\n      dup4\n      sub\n      dup2\n      dup6\n      dup9\n      dup9\n      call\n      swap4\n      pop\n      pop\n      pop\n      pop\n      iszero\n      dup1\n      iszero\n      tag_217\n      jumpi\n      returndatasize\n      0x00\n      dup1\n      returndatacopy\n      revert(0x00, returndatasize)\n    tag_217:\n      pop\n        /* \"9 \\xd0\\xb7\\xd0\\xb0\\xd0\\xbd\\xd1\\x8f\\xd1\\x82\\xd0\\xb8\\xd0\\xb5/\\xd0\\x97\\xd0\\xb0\\xd0\\xb2\\xd0\\xb5\\xd1\\x89\\xd0\\xb0\\xd0\\xbd\\xd0\\xb8\\xd0\\xb5.sol\":7240:7253  heirAddresses */\n      0x06\n        /* \"9 \\xd0\\xb7\\xd0\\xb0\\xd0\\xbd\\xd1\\x8f\\xd1\\x82\\xd0\\xb8\\xd0\\xb5/\\xd0\\x97\\xd0\\xb0\\xd0\\xb2\\xd0\\xb5\\xd1\\x89\\xd0\\xb0\\xd0\\xbd\\xd0\\xb8\\xd0\\xb5.sol\":7254:7255  i */\n      dup4\n        /* \"9 \\xd0\\xb7\\xd0\\xb0\\xd0\\xbd\\xd1\\x8f\\xd1\\x82\\xd0\\xb8\\xd0\\xb5/\\xd0\\x97\\xd0\\xb0\\xd0\\xb2\\xd0\\xb5\\xd1\\x89\\xd0\\xb0\\xd0\\xbd\\xd0\\xb8\\xd0\\xb5.sol\":7240:7256  heirAddresses[i] */\n      dup2\n      sload\n      dup2\n      lt\n      tag_218\n      jumpi\n      tag_219\n      tag_111\n      jump\t// in\n    tag_219:\n    tag_218:\n      swap1\n      0x00\n      mstore\n      keccak256(0x00, 0x20)\n      add\n      0x00\n      swap1\n      sload\n      swap1\n      0x0100\n      exp\n      swap1\n      div\n      0xffffffffffffffffffffffffffffffffffffffff\n      and\n        /* \"9 \\xd0\\xb7\\xd0\\xb0\\xd0\\xbd\\xd1\\x8f\\xd1\\x82\\xd0\\xb8\\xd0\\xb5/\\xd0\\x97\\xd0\\xb0\\xd0\\xb2\\xd0\\xb5\\xd1\\x89\\xd0\\xb0\\xd0\\xbd\\xd0\\xb8\\xd0\\xb5.sol\":7221:7265  InheritanceClaimed(heirAddresses[i], amount) */\n      0xffffffffffffffffffffffffffffffffffffffff\n      and\n      0x92a193f55349470137c2eab4bd04427f216036ec3ff6ba54aed58e17337af6a2\n        /* \"9 \\xd0\\xb7\\xd0\\xb0\\xd0\\xbd\\xd1\\x8f\\xd1\\x82\\xd0\\xb8\\xd0\\xb5/\\xd0\\x97\\xd0\\xb0\\xd0\\xb2\\xd0\\xb5\\xd1\\x89\\xd0\\xb0\\xd0\\xbd\\xd0\\xb8\\xd0\\xb5.sol\":7258:7264  amount */\n      dup3\n        /* \"9 \\xd0\\xb7\\xd0\\xb0\\xd0\\xbd\\xd1\\x8f\\xd1\\x82\\xd0\\xb8\\xd0\\xb5/\\xd0\\x97\\xd0\\xb0\\xd0\\xb2\\xd0\\xb5\\xd1\\x89\\xd0\\xb0\\xd0\\xbd\\xd0\\xb8\\xd0\\xb5.sol\":7221:7265  InheritanceClaimed(heirAddresses[i], amount) */\n      mload(0x40)\n      tag_221\n      swap2\n      swap1\n      tag_24\n      jump\t// in\n    tag_221:\n      mload(0x40)\n      dup1\n      swap2\n      sub\n      swap1\n      log2\n        /* \"9 \\xd0\\xb7\\xd0\\xb0\\xd0\\xbd\\xd1\\x8f\\xd1\\x82\\xd0\\xb8\\xd0\\xb5/\\xd0\\x97\\xd0\\xb0\\xd0\\xb2\\xd0\\xb5\\xd1\\x89\\xd0\\xb0\\xd0\\xbd\\xd0\\xb8\\xd0\\xb5.sol\":7014:7281  {... */\n      pop\n        /* \"9 \\xd0\\xb7\\xd0\\xb0\\xd0\\xbd\\xd1\\x8f\\xd1\\x82\\xd0\\xb8\\xd0\\xb5/\\xd0\\x97\\xd0\\xb0\\xd0\\xb2\\xd0\\xb5\\xd1\\x89\\xd0\\xb0\\xd0\\xbd\\xd0\\xb8\\xd0\\xb5.sol\":6973:7281  if (heir.amount > 0 && !heir.hasClaimed) {... */\n    tag_212:\n        /* \"9 \\xd0\\xb7\\xd0\\xb0\\xd0\\xbd\\xd1\\x8f\\xd1\\x82\\xd0\\xb8\\xd0\\xb5/\\xd0\\x97\\xd0\\xb0\\xd0\\xb2\\xd0\\xb5\\xd1\\x89\\xd0\\xb0\\xd0\\xbd\\xd0\\xb8\\xd0\\xb5.sol\":6900:7292  {... */\n      pop\n        /* \"9 \\xd0\\xb7\\xd0\\xb0\\xd0\\xbd\\xd1\\x8f\\xd1\\x82\\xd0\\xb8\\xd0\\xb5/\\xd0\\x97\\xd0\\xb0\\xd0\\xb2\\xd0\\xb5\\xd1\\x89\\xd0\\xb0\\xd0\\xbd\\xd0\\xb8\\xd0\\xb5.sol\":6895:6898  i++ */\n      dup1\n      dup1\n      0x01\n      add\n      swap2\n      pop\n      pop\n        /* \"9 \\xd0\\xb7\\xd0\\xb0\\xd0\\xbd\\xd1\\x8f\\xd1\\x82\\xd0\\xb8\\xd0\\xb5/\\xd0\\x97\\xd0\\xb0\\xd0\\xb2\\xd0\\xb5\\xd1\\x89\\xd0\\xb0\\xd0\\xbd\\xd0\\xb8\\xd0\\xb5.sol\":6849:7292  for (uint256 i = 0; i < heirAddresses.length; i++) {... */\n      jump(tag_205)\n    tag_206:\n      pop\n        /* \"9 \\xd0\\xb7\\xd0\\xb0\\xd0\\xbd\\xd1\\x8f\\xd1\\x82\\xd0\\xb8\\xd0\\xb5/\\xd0\\x97\\xd0\\xb0\\xd0\\xb2\\xd0\\xb5\\xd1\\x89\\xd0\\xb0\\xd0\\xbd\\xd0\\xb8\\xd0\\xb5.sol\":6802:7299  function distributeFunds() internal {... */\n      jump\t// out\n        /* \"#utility.yul\":7:84   */\n    tag_222:\n        /* \"#utility.yul\":44:51   */\n      0x00\n        /* \"#utility.yul\":73:78   */\n      dup2\n        /* \"#utility.yul\":62:78   */\n      swap1\n      pop\n        /* \"#utility.yul\":7:84   */\n      swap2\n      swap1\n      pop\n      jump\t// out\n        /* \"#utility.yul\":90:208   */\n    tag_223:\n        /* \"#utility.yul\":177:201   */\n      tag_265\n        /* \"#utility.yul\":195:200   */\n      dup2\n        /* \"#utility.yul\":177:201   */\n      tag_222\n      jump\t// in\n    tag_265:\n        /* \"#utility.yul\":172:175   */\n      dup3\n        /* \"#utility.yul\":165:202   */\n      mstore\n        /* \"#utility.yul\":90:208   */\n      pop\n      pop\n      jump\t// out\n        /* \"#utility.yul\":214:436   */\n    tag_24:\n        /* \"#utility.yul\":307:311   */\n      0x00\n        /* \"#utility.yul\":345:347   */\n      0x20\n        /* \"#utility.yul\":334:343   */\n      dup3\n        /* \"#utility.yul\":330:348   */\n      add\n        /* \"#utility.yul\":322:348   */\n      swap1\n      pop\n        /* \"#utility.yul\":358:429   */\n      tag_267\n        /* \"#utility.yul\":426:427   */\n      0x00\n        /* \"#utility.yul\":415:424   */\n      dup4\n        /* \"#utility.yul\":411:428   */\n      add\n        /* \"#utility.yul\":402:408   */\n      dup5\n        /* \"#utility.yul\":358:429   */\n      tag_223\n      jump\t// in\n    tag_267:\n        /* \"#utility.yul\":214:436   */\n      swap3\n      swap2\n      pop\n      pop\n      jump\t// out\n        /* \"#utility.yul\":523:640   */\n    tag_225:\n        /* \"#utility.yul\":632:633   */\n      0x00\n        /* \"#utility.yul\":629:630   */\n      dup1\n        /* \"#utility.yul\":622:634   */\n      revert\n        /* \"#utility.yul\":769:895   */\n    tag_227:\n        /* \"#utility.yul\":806:813   */\n      0x00\n        /* \"#utility.yul\":846:888   */\n      0xffffffffffffffffffffffffffffffffffffffff\n        /* \"#utility.yul\":839:844   */\n      dup3\n        /* \"#utility.yul\":835:889   */\n      and\n        /* \"#utility.yul\":824:889   */\n      swap1\n      pop\n        /* \"#utility.yul\":769:895   */\n      swap2\n      swap1\n      pop\n      jump\t// out\n        /* \"#utility.yul\":901:997   */\n    tag_228:\n        /* \"#utility.yul\":938:945   */\n      0x00\n        /* \"#utility.yul\":967:991   */\n      tag_273\n        /* \"#utility.yul\":985:990   */\n      dup3\n        /* \"#utility.yul\":967:991   */\n      tag_227\n      jump\t// in\n    tag_273:\n        /* \"#utility.yul\":956:991   */\n      swap1\n      pop\n        /* \"#utility.yul\":901:997   */\n      swap2\n      swap1\n      pop\n      jump\t// out\n        /* \"#utility.yul\":1003:1125   */\n    tag_229:\n        /* \"#utility.yul\":1076:1100   */\n      tag_275\n        /* \"#utility.yul\":1094:1099   */\n      dup2\n        /* \"#utility.yul\":1076:1100   */\n      tag_228\n      jump\t// in\n    tag_275:\n        /* \"#utility.yul\":1069:1074   */\n      dup2\n        /* \"#utility.yul\":1066:1101   */\n      eq\n        /* \"#utility.yul\":1056:1119   */\n      tag_276\n      jumpi\n        /* \"#utility.yul\":1115:1116   */\n      0x00\n        /* \"#utility.yul\":1112:1113   */\n      dup1\n        /* \"#utility.yul\":1105:1117   */\n      revert\n        /* \"#utility.yul\":1056:1119   */\n    tag_276:\n        /* \"#utility.yul\":1003:1125   */\n      pop\n      jump\t// out\n        /* \"#utility.yul\":1131:1270   */\n    tag_230:\n        /* \"#utility.yul\":1177:1182   */\n      0x00\n        /* \"#utility.yul\":1215:1221   */\n      dup2\n        /* \"#utility.yul\":1202:1222   */\n      calldataload\n        /* \"#utility.yul\":1193:1222   */\n      swap1\n      pop\n        /* \"#utility.yul\":1231:1264   */\n      tag_278\n        /* \"#utility.yul\":1258:1263   */\n      dup2\n        /* \"#utility.yul\":1231:1264   */\n      tag_229\n      jump\t// in\n    tag_278:\n        /* \"#utility.yul\":1131:1270   */\n      swap3\n      swap2\n      pop\n      pop\n      jump\t// out\n        /* \"#utility.yul\":1276:1605   */\n    tag_31:\n        /* \"#utility.yul\":1335:1341   */\n      0x00\n        /* \"#utility.yul\":1384:1386   */\n      0x20\n        /* \"#utility.yul\":1372:1381   */\n      dup3\n        /* \"#utility.yul\":1363:1370   */\n      dup5\n        /* \"#utility.yul\":1359:1382   */\n      sub\n        /* \"#utility.yul\":1355:1387   */\n      slt\n        /* \"#utility.yul\":1352:1471   */\n      iszero\n      tag_280\n      jumpi\n        /* \"#utility.yul\":1390:1469   */\n      tag_281\n      tag_225\n      jump\t// in\n    tag_281:\n        /* \"#utility.yul\":1352:1471   */\n    tag_280:\n        /* \"#utility.yul\":1510:1511   */\n      0x00\n        /* \"#utility.yul\":1535:1588   */\n      tag_282\n        /* \"#utility.yul\":1580:1587   */\n      dup5\n        /* \"#utility.yul\":1571:1577   */\n      dup3\n        /* \"#utility.yul\":1560:1569   */\n      dup6\n        /* \"#utility.yul\":1556:1578   */\n      add\n        /* \"#utility.yul\":1535:1588   */\n      tag_230\n      jump\t// in\n    tag_282:\n        /* \"#utility.yul\":1525:1588   */\n      swap2\n      pop\n        /* \"#utility.yul\":1481:1598   */\n      pop\n        /* \"#utility.yul\":1276:1605   */\n      swap3\n      swap2\n      pop\n      pop\n      jump\t// out\n        /* \"#utility.yul\":1611:1701   */\n    tag_231:\n        /* \"#utility.yul\":1645:1652   */\n      0x00\n        /* \"#utility.yul\":1688:1693   */\n      dup2\n        /* \"#utility.yul\":1681:1694   */\n      iszero\n        /* \"#utility.yul\":1674:1695   */\n      iszero\n        /* \"#utility.yul\":1663:1695   */\n      swap1\n      pop\n        /* \"#utility.yul\":1611:1701   */\n      swap2\n      swap1\n      pop\n      jump\t// out\n        /* \"#utility.yul\":1707:1816   */\n    tag_232:\n        /* \"#utility.yul\":1788:1809   */\n      tag_285\n        /* \"#utility.yul\":1803:1808   */\n      dup2\n        /* \"#utility.yul\":1788:1809   */\n      tag_231\n      jump\t// in\n    tag_285:\n        /* \"#utility.yul\":1783:1786   */\n      dup3\n        /* \"#utility.yul\":1776:1810   */\n      mstore\n        /* \"#utility.yul\":1707:1816   */\n      pop\n      pop\n      jump\t// out\n        /* \"#utility.yul\":1822:2032   */\n    tag_44:\n        /* \"#utility.yul\":1909:1913   */\n      0x00\n        /* \"#utility.yul\":1947:1949   */\n      0x20\n        /* \"#utility.yul\":1936:1945   */\n      dup3\n        /* \"#utility.yul\":1932:1950   */\n      add\n        /* \"#utility.yul\":1924:1950   */\n      swap1\n      pop\n        /* \"#utility.yul\":1960:2025   */\n      tag_287\n        /* \"#utility.yul\":2022:2023   */\n      0x00\n        /* \"#utility.yul\":2011:2020   */\n      dup4\n        /* \"#utility.yul\":2007:2024   */\n      add\n        /* \"#utility.yul\":1998:2004   */\n      dup5\n        /* \"#utility.yul\":1960:2025   */\n      tag_232\n      jump\t// in\n    tag_287:\n        /* \"#utility.yul\":1822:2032   */\n      swap3\n      swap2\n      pop\n      pop\n      jump\t// out\n        /* \"#utility.yul\":2038:2160   */\n    tag_233:\n        /* \"#utility.yul\":2111:2135   */\n      tag_289\n        /* \"#utility.yul\":2129:2134   */\n      dup2\n        /* \"#utility.yul\":2111:2135   */\n      tag_222\n      jump\t// in\n    tag_289:\n        /* \"#utility.yul\":2104:2109   */\n      dup2\n        /* \"#utility.yul\":2101:2136   */\n      eq\n        /* \"#utility.yul\":2091:2154   */\n      tag_290\n      jumpi\n        /* \"#utility.yul\":2150:2151   */\n      0x00\n        /* \"#utility.yul\":2147:2148   */\n      dup1\n        /* \"#utility.yul\":2140:2152   */\n      revert\n        /* \"#utility.yul\":2091:2154   */\n    tag_290:\n        /* \"#utility.yul\":2038:2160   */\n      pop\n      jump\t// out\n        /* \"#utility.yul\":2166:2305   */\n    tag_234:\n        /* \"#utility.yul\":2212:2217   */\n      0x00\n        /* \"#utility.yul\":2250:2256   */\n      dup2\n        /* \"#utility.yul\":2237:2257   */\n      calldataload\n        /* \"#utility.yul\":2228:2257   */\n      swap1\n      pop\n        /* \"#utility.yul\":2266:2299   */\n      tag_292\n        /* \"#utility.yul\":2293:2298   */\n      dup2\n        /* \"#utility.yul\":2266:2299   */\n      tag_233\n      jump\t// in\n    tag_292:\n        /* \"#utility.yul\":2166:2305   */\n      swap3\n      swap2\n      pop\n      pop\n      jump\t// out\n        /* \"#utility.yul\":2311:2785   */\n    tag_47:\n        /* \"#utility.yul\":2379:2385   */\n      0x00\n        /* \"#utility.yul\":2387:2393   */\n      dup1\n        /* \"#utility.yul\":2436:2438   */\n      0x40\n        /* \"#utility.yul\":2424:2433   */\n      dup4\n        /* \"#utility.yul\":2415:2422   */\n      dup6\n        /* \"#utility.yul\":2411:2434   */\n      sub\n        /* \"#utility.yul\":2407:2439   */\n      slt\n        /* \"#utility.yul\":2404:2523   */\n      iszero\n      tag_294\n      jumpi\n        /* \"#utility.yul\":2442:2521   */\n      tag_295\n      tag_225\n      jump\t// in\n    tag_295:\n        /* \"#utility.yul\":2404:2523   */\n    tag_294:\n        /* \"#utility.yul\":2562:2563   */\n      0x00\n        /* \"#utility.yul\":2587:2640   */\n      tag_296\n        /* \"#utility.yul\":2632:2639   */\n      dup6\n        /* \"#utility.yul\":2623:2629   */\n      dup3\n        /* \"#utility.yul\":2612:2621   */\n      dup7\n        /* \"#utility.yul\":2608:2630   */\n      add\n        /* \"#utility.yul\":2587:2640   */\n      tag_230\n      jump\t// in\n    tag_296:\n        /* \"#utility.yul\":2577:2640   */\n      swap3\n      pop\n        /* \"#utility.yul\":2533:2650   */\n      pop\n        /* \"#utility.yul\":2689:2691   */\n      0x20\n        /* \"#utility.yul\":2715:2768   */\n      tag_297\n        /* \"#utility.yul\":2760:2767   */\n      dup6\n        /* \"#utility.yul\":2751:2757   */\n      dup3\n        /* \"#utility.yul\":2740:2749   */\n      dup7\n        /* \"#utility.yul\":2736:2758   */\n      add\n        /* \"#utility.yul\":2715:2768   */\n      tag_234\n      jump\t// in\n    tag_297:\n        /* \"#utility.yul\":2705:2768   */\n      swap2\n      pop\n        /* \"#utility.yul\":2660:2778   */\n      pop\n        /* \"#utility.yul\":2311:2785   */\n      swap3\n      pop\n      swap3\n      swap1\n      pop\n      jump\t// out\n        /* \"#utility.yul\":2791:2909   */\n    tag_235:\n        /* \"#utility.yul\":2878:2902   */\n      tag_299\n        /* \"#utility.yul\":2896:2901   */\n      dup2\n        /* \"#utility.yul\":2878:2902   */\n      tag_228\n      jump\t// in\n    tag_299:\n        /* \"#utility.yul\":2873:2876   */\n      dup3\n        /* \"#utility.yul\":2866:2903   */\n      mstore\n        /* \"#utility.yul\":2791:2909   */\n      pop\n      pop\n      jump\t// out\n        /* \"#utility.yul\":2915:3137   */\n    tag_53:\n        /* \"#utility.yul\":3008:3012   */\n      0x00\n        /* \"#utility.yul\":3046:3048   */\n      0x20\n        /* \"#utility.yul\":3035:3044   */\n      dup3\n        /* \"#utility.yul\":3031:3049   */\n      add\n        /* \"#utility.yul\":3023:3049   */\n      swap1\n      pop\n        /* \"#utility.yul\":3059:3130   */\n      tag_301\n        /* \"#utility.yul\":3127:3128   */\n      0x00\n        /* \"#utility.yul\":3116:3125   */\n      dup4\n        /* \"#utility.yul\":3112:3129   */\n      add\n        /* \"#utility.yul\":3103:3109   */\n      dup5\n        /* \"#utility.yul\":3059:3130   */\n      tag_235\n      jump\t// in\n    tag_301:\n        /* \"#utility.yul\":2915:3137   */\n      swap3\n      swap2\n      pop\n      pop\n      jump\t// out\n        /* \"#utility.yul\":3143:3323   */\n    tag_236:\n        /* \"#utility.yul\":3191:3268   */\n      0x4e487b7100000000000000000000000000000000000000000000000000000000\n        /* \"#utility.yul\":3188:3189   */\n      0x00\n        /* \"#utility.yul\":3181:3269   */\n      mstore\n        /* \"#utility.yul\":3288:3292   */\n      0x11\n        /* \"#utility.yul\":3285:3286   */\n      0x04\n        /* \"#utility.yul\":3278:3293   */\n      mstore\n        /* \"#utility.yul\":3312:3316   */\n      0x24\n        /* \"#utility.yul\":3309:3310   */\n      0x00\n        /* \"#utility.yul\":3302:3317   */\n      revert\n        /* \"#utility.yul\":3329:3520   */\n    tag_81:\n        /* \"#utility.yul\":3369:3372   */\n      0x00\n        /* \"#utility.yul\":3388:3408   */\n      tag_304\n        /* \"#utility.yul\":3406:3407   */\n      dup3\n        /* \"#utility.yul\":3388:3408   */\n      tag_222\n      jump\t// in\n    tag_304:\n        /* \"#utility.yul\":3383:3408   */\n      swap2\n      pop\n        /* \"#utility.yul\":3422:3442   */\n      tag_305\n        /* \"#utility.yul\":3440:3441   */\n      dup4\n        /* \"#utility.yul\":3422:3442   */\n      tag_222\n      jump\t// in\n    tag_305:\n        /* \"#utility.yul\":3417:3442   */\n      swap3\n      pop\n        /* \"#utility.yul\":3465:3466   */\n      dup3\n        /* \"#utility.yul\":3462:3463   */\n      dup3\n        /* \"#utility.yul\":3458:3467   */\n      add\n        /* \"#utility.yul\":3451:3467   */\n      swap1\n      pop\n        /* \"#utility.yul\":3486:3489   */\n      dup1\n        /* \"#utility.yul\":3483:3484   */\n      dup3\n        /* \"#utility.yul\":3480:3490   */\n      gt\n        /* \"#utility.yul\":3477:3513   */\n      iszero\n      tag_306\n      jumpi\n        /* \"#utility.yul\":3493:3511   */\n      tag_307\n      tag_236\n      jump\t// in\n    tag_307:\n        /* \"#utility.yul\":3477:3513   */\n    tag_306:\n        /* \"#utility.yul\":3329:3520   */\n      swap3\n      swap2\n      pop\n      pop\n      jump\t// out\n        /* \"#utility.yul\":3526:3695   */\n    tag_237:\n        /* \"#utility.yul\":3610:3621   */\n      0x00\n        /* \"#utility.yul\":3644:3650   */\n      dup3\n        /* \"#utility.yul\":3639:3642   */\n      dup3\n        /* \"#utility.yul\":3632:3651   */\n      mstore\n        /* \"#utility.yul\":3684:3688   */\n      0x20\n        /* \"#utility.yul\":3679:3682   */\n      dup3\n        /* \"#utility.yul\":3675:3689   */\n      add\n        /* \"#utility.yul\":3660:3689   */\n      swap1\n      pop\n        /* \"#utility.yul\":3526:3695   */\n      swap3\n      swap2\n      pop\n      pop\n      jump\t// out\n        /* \"#utility.yul\":3701:3876   */\n    tag_238:\n        /* \"#utility.yul\":3841:3868   */\n      0x31352079656172732068617665206e6f74207061737365642e00000000000000\n        /* \"#utility.yul\":3837:3838   */\n      0x00\n        /* \"#utility.yul\":3829:3835   */\n      dup3\n        /* \"#utility.yul\":3825:3839   */\n      add\n        /* \"#utility.yul\":3818:3869   */\n      mstore\n        /* \"#utility.yul\":3701:3876   */\n      pop\n      jump\t// out\n        /* \"#utility.yul\":3882:4248   */\n    tag_239:\n        /* \"#utility.yul\":4024:4027   */\n      0x00\n        /* \"#utility.yul\":4045:4112   */\n      tag_311\n        /* \"#utility.yul\":4109:4111   */\n      0x19\n        /* \"#utility.yul\":4104:4107   */\n      dup4\n        /* \"#utility.yul\":4045:4112   */\n      tag_237\n      jump\t// in\n    tag_311:\n        /* \"#utility.yul\":4038:4112   */\n      swap2\n      pop\n        /* \"#utility.yul\":4121:4214   */\n      tag_312\n        /* \"#utility.yul\":4210:4213   */\n      dup3\n        /* \"#utility.yul\":4121:4214   */\n      tag_238\n      jump\t// in\n    tag_312:\n        /* \"#utility.yul\":4239:4241   */\n      0x20\n        /* \"#utility.yul\":4234:4237   */\n      dup3\n        /* \"#utility.yul\":4230:4242   */\n      add\n        /* \"#utility.yul\":4223:4242   */\n      swap1\n      pop\n        /* \"#utility.yul\":3882:4248   */\n      swap2\n      swap1\n      pop\n      jump\t// out\n        /* \"#utility.yul\":4254:4673   */\n    tag_84:\n        /* \"#utility.yul\":4420:4424   */\n      0x00\n        /* \"#utility.yul\":4458:4460   */\n      0x20\n        /* \"#utility.yul\":4447:4456   */\n      dup3\n        /* \"#utility.yul\":4443:4461   */\n      add\n        /* \"#utility.yul\":4435:4461   */\n      swap1\n      pop\n        /* \"#utility.yul\":4507:4516   */\n      dup2\n        /* \"#utility.yul\":4501:4505   */\n      dup2\n        /* \"#utility.yul\":4497:4517   */\n      sub\n        /* \"#utility.yul\":4493:4494   */\n      0x00\n        /* \"#utility.yul\":4482:4491   */\n      dup4\n        /* \"#utility.yul\":4478:4495   */\n      add\n        /* \"#utility.yul\":4471:4518   */\n      mstore\n        /* \"#utility.yul\":4535:4666   */\n      tag_314\n        /* \"#utility.yul\":4661:4665   */\n      dup2\n        /* \"#utility.yul\":4535:4666   */\n      tag_239\n      jump\t// in\n    tag_314:\n        /* \"#utility.yul\":4527:4666   */\n      swap1\n      pop\n        /* \"#utility.yul\":4254:4673   */\n      swap2\n      swap1\n      pop\n      jump\t// out\n        /* \"#utility.yul\":4679:4849   */\n    tag_240:\n        /* \"#utility.yul\":4819:4841   */\n      0x596f7520617265206e6f7420616e20686569722e000000000000000000000000\n        /* \"#utility.yul\":4815:4816   */\n      0x00\n        /* \"#utility.yul\":4807:4813   */\n      dup3\n        /* \"#utility.yul\":4803:4817   */\n      add\n        /* \"#utility.yul\":4796:4842   */\n      mstore\n        /* \"#utility.yul\":4679:4849   */\n      pop\n      jump\t// out\n        /* \"#utility.yul\":4855:5221   */\n    tag_241:\n        /* \"#utility.yul\":4997:5000   */\n      0x00\n        /* \"#utility.yul\":5018:5085   */\n      tag_317\n        /* \"#utility.yul\":5082:5084   */\n      0x14\n        /* \"#utility.yul\":5077:5080   */\n      dup4\n        /* \"#utility.yul\":5018:5085   */\n      tag_237\n      jump\t// in\n    tag_317:\n        /* \"#utility.yul\":5011:5085   */\n      swap2\n      pop\n        /* \"#utility.yul\":5094:5187   */\n      tag_318\n        /* \"#utility.yul\":5183:5186   */\n      dup3\n        /* \"#utility.yul\":5094:5187   */\n      tag_240\n      jump\t// in\n    tag_318:\n        /* \"#utility.yul\":5212:5214   */\n      0x20\n        /* \"#utility.yul\":5207:5210   */\n      dup3\n        /* \"#utility.yul\":5203:5215   */\n      add\n        /* \"#utility.yul\":5196:5215   */\n      swap1\n      pop\n        /* \"#utility.yul\":4855:5221   */\n      swap2\n      swap1\n      pop\n      jump\t// out\n        /* \"#utility.yul\":5227:5646   */\n    tag_88:\n        /* \"#utility.yul\":5393:5397   */\n      0x00\n        /* \"#utility.yul\":5431:5433   */\n      0x20\n        /* \"#utility.yul\":5420:5429   */\n      dup3\n        /* \"#utility.yul\":5416:5434   */\n      add\n        /* \"#utility.yul\":5408:5434   */\n      swap1\n      pop\n        /* \"#utility.yul\":5480:5489   */\n      dup2\n        /* \"#utility.yul\":5474:5478   */\n      dup2\n        /* \"#utility.yul\":5470:5490   */\n      sub\n        /* \"#utility.yul\":5466:5467   */\n      0x00\n        /* \"#utility.yul\":5455:5464   */\n      dup4\n        /* \"#utility.yul\":5451:5468   */\n      add\n        /* \"#utility.yul\":5444:5491   */\n      mstore\n        /* \"#utility.yul\":5508:5639   */\n      tag_320\n        /* \"#utility.yul\":5634:5638   */\n      dup2\n        /* \"#utility.yul\":5508:5639   */\n      tag_241\n      jump\t// in\n    tag_320:\n        /* \"#utility.yul\":5500:5639   */\n      swap1\n      pop\n        /* \"#utility.yul\":5227:5646   */\n      swap2\n      swap1\n      pop\n      jump\t// out\n        /* \"#utility.yul\":5652:5828   */\n    tag_242:\n        /* \"#utility.yul\":5792:5820   */\n      0x596f7520617265206e6f742061206772616e646d6f746865722e000000000000\n        /* \"#utility.yul\":5788:5789   */\n      0x00\n        /* \"#utility.yul\":5780:5786   */\n      dup3\n        /* \"#utility.yul\":5776:5790   */\n      add\n        /* \"#utility.yul\":5769:5821   */\n      mstore\n        /* \"#utility.yul\":5652:5828   */\n      pop\n      jump\t// out\n        /* \"#utility.yul\":5834:6200   */\n    tag_243:\n        /* \"#utility.yul\":5976:5979   */\n      0x00\n        /* \"#utility.yul\":5997:6064   */\n      tag_323\n        /* \"#utility.yul\":6061:6063   */\n      0x1a\n        /* \"#utility.yul\":6056:6059   */\n      dup4\n        /* \"#utility.yul\":5997:6064   */\n      tag_237\n      jump\t// in\n    tag_323:\n        /* \"#utility.yul\":5990:6064   */\n      swap2\n      pop\n        /* \"#utility.yul\":6073:6166   */\n      tag_324\n        /* \"#utility.yul\":6162:6165   */\n      dup3\n        /* \"#utility.yul\":6073:6166   */\n      tag_242\n      jump\t// in\n    tag_324:\n        /* \"#utility.yul\":6191:6193   */\n      0x20\n        /* \"#utility.yul\":6186:6189   */\n      dup3\n        /* \"#utility.yul\":6182:6194   */\n      add\n        /* \"#utility.yul\":6175:6194   */\n      swap1\n      pop\n        /* \"#utility.yul\":5834:6200   */\n      swap2\n      swap1\n      pop\n      jump\t// out\n        /* \"#utility.yul\":6206:6625   */\n    tag_95:\n        /* \"#utility.yul\":6372:6376   */\n      0x00\n        /* \"#utility.yul\":6410:6412   */\n      0x20\n        /* \"#utility.yul\":6399:6408   */\n      dup3\n        /* \"#utility.yul\":6395:6413   */\n      add\n        /* \"#utility.yul\":6387:6413   */\n      swap1\n      pop\n        /* \"#utility.yul\":6459:6468   */\n      dup2\n        /* \"#utility.yul\":6453:6457   */\n      dup2\n        /* \"#utility.yul\":6449:6469   */\n      sub\n        /* \"#utility.yul\":6445:6446   */\n      0x00\n        /* \"#utility.yul\":6434:6443   */\n      dup4\n        /* \"#utility.yul\":6430:6447   */\n      add\n        /* \"#utility.yul\":6423:6470   */\n      mstore\n        /* \"#utility.yul\":6487:6618   */\n      tag_326\n        /* \"#utility.yul\":6613:6617   */\n      dup2\n        /* \"#utility.yul\":6487:6618   */\n      tag_243\n      jump\t// in\n    tag_326:\n        /* \"#utility.yul\":6479:6618   */\n      swap1\n      pop\n        /* \"#utility.yul\":6206:6625   */\n      swap2\n      swap1\n      pop\n      jump\t// out\n        /* \"#utility.yul\":6631:6803   */\n    tag_244:\n        /* \"#utility.yul\":6771:6795   */\n      0x596f7520617265206e6f74206120747275737465652e00000000000000000000\n        /* \"#utility.yul\":6767:6768   */\n      0x00\n        /* \"#utility.yul\":6759:6765   */\n      dup3\n        /* \"#utility.yul\":6755:6769   */\n      add\n        /* \"#utility.yul\":6748:6796   */\n      mstore\n        /* \"#utility.yul\":6631:6803   */\n      pop\n      jump\t// out\n        /* \"#utility.yul\":6809:7175   */\n    tag_245:\n        /* \"#utility.yul\":6951:6954   */\n      0x00\n        /* \"#utility.yul\":6972:7039   */\n      tag_329\n        /* \"#utility.yul\":7036:7038   */\n      0x16\n        /* \"#utility.yul\":7031:7034   */\n      dup4\n        /* \"#utility.yul\":6972:7039   */\n      tag_237\n      jump\t// in\n    tag_329:\n        /* \"#utility.yul\":6965:7039   */\n      swap2\n      pop\n        /* \"#utility.yul\":7048:7141   */\n      tag_330\n        /* \"#utility.yul\":7137:7140   */\n      dup3\n        /* \"#utility.yul\":7048:7141   */\n      tag_244\n      jump\t// in\n    tag_330:\n        /* \"#utility.yul\":7166:7168   */\n      0x20\n        /* \"#utility.yul\":7161:7164   */\n      dup3\n        /* \"#utility.yul\":7157:7169   */\n      add\n        /* \"#utility.yul\":7150:7169   */\n      swap1\n      pop\n        /* \"#utility.yul\":6809:7175   */\n      swap2\n      swap1\n      pop\n      jump\t// out\n        /* \"#utility.yul\":7181:7600   */\n    tag_100:\n        /* \"#utility.yul\":7347:7351   */\n      0x00\n        /* \"#utility.yul\":7385:7387   */\n      0x20\n        /* \"#utility.yul\":7374:7383   */\n      dup3\n        /* \"#utility.yul\":7370:7388   */\n      add\n        /* \"#utility.yul\":7362:7388   */\n      swap1\n      pop\n        /* \"#utility.yul\":7434:7443   */\n      dup2\n        /* \"#utility.yul\":7428:7432   */\n      dup2\n        /* \"#utility.yul\":7424:7444   */\n      sub\n        /* \"#utility.yul\":7420:7421   */\n      0x00\n        /* \"#utility.yul\":7409:7418   */\n      dup4\n        /* \"#utility.yul\":7405:7422   */\n      add\n        /* \"#utility.yul\":7398:7445   */\n      mstore\n        /* \"#utility.yul\":7462:7593   */\n      tag_332\n        /* \"#utility.yul\":7588:7592   */\n      dup2\n        /* \"#utility.yul\":7462:7593   */\n      tag_245\n      jump\t// in\n    tag_332:\n        /* \"#utility.yul\":7454:7593   */\n      swap1\n      pop\n        /* \"#utility.yul\":7181:7600   */\n      swap2\n      swap1\n      pop\n      jump\t// out\n        /* \"#utility.yul\":7606:7786   */\n    tag_111:\n        /* \"#utility.yul\":7654:7731   */\n      0x4e487b7100000000000000000000000000000000000000000000000000000000\n        /* \"#utility.yul\":7651:7652   */\n      0x00\n        /* \"#utility.yul\":7644:7732   */\n      mstore\n        /* \"#utility.yul\":7751:7755   */\n      0x32\n        /* \"#utility.yul\":7748:7749   */\n      0x04\n        /* \"#utility.yul\":7741:7756   */\n      mstore\n        /* \"#utility.yul\":7775:7779   */\n      0x24\n        /* \"#utility.yul\":7772:7773   */\n      0x00\n        /* \"#utility.yul\":7765:7780   */\n      revert\n        /* \"#utility.yul\":7792:8202   */\n    tag_120:\n        /* \"#utility.yul\":7832:7839   */\n      0x00\n        /* \"#utility.yul\":7855:7875   */\n      tag_335\n        /* \"#utility.yul\":7873:7874   */\n      dup3\n        /* \"#utility.yul\":7855:7875   */\n      tag_222\n      jump\t// in\n    tag_335:\n        /* \"#utility.yul\":7850:7875   */\n      swap2\n      pop\n        /* \"#utility.yul\":7889:7909   */\n      tag_336\n        /* \"#utility.yul\":7907:7908   */\n      dup4\n        /* \"#utility.yul\":7889:7909   */\n      tag_222\n      jump\t// in\n    tag_336:\n        /* \"#utility.yul\":7884:7909   */\n      swap3\n      pop\n        /* \"#utility.yul\":7944:7945   */\n      dup3\n        /* \"#utility.yul\":7941:7942   */\n      dup3\n        /* \"#utility.yul\":7937:7946   */\n      mul\n        /* \"#utility.yul\":7966:7996   */\n      tag_337\n        /* \"#utility.yul\":7984:7995   */\n      dup2\n        /* \"#utility.yul\":7966:7996   */\n      tag_222\n      jump\t// in\n    tag_337:\n        /* \"#utility.yul\":7955:7996   */\n      swap2\n      pop\n        /* \"#utility.yul\":8145:8146   */\n      dup3\n        /* \"#utility.yul\":8136:8143   */\n      dup3\n        /* \"#utility.yul\":8132:8147   */\n      div\n        /* \"#utility.yul\":8129:8130   */\n      dup5\n        /* \"#utility.yul\":8126:8148   */\n      eq\n        /* \"#utility.yul\":8106:8107   */\n      dup4\n        /* \"#utility.yul\":8099:8108   */\n      iszero\n        /* \"#utility.yul\":8079:8162   */\n      or\n        /* \"#utility.yul\":8056:8195   */\n      tag_338\n      jumpi\n        /* \"#utility.yul\":8175:8193   */\n      tag_339\n      tag_236\n      jump\t// in\n    tag_339:\n        /* \"#utility.yul\":8056:8195   */\n    tag_338:\n        /* \"#utility.yul\":7840:8202   */\n      pop\n        /* \"#utility.yul\":7792:8202   */\n      swap3\n      swap2\n      pop\n      pop\n      jump\t// out\n        /* \"#utility.yul\":8208:8384   */\n    tag_246:\n        /* \"#utility.yul\":8348:8376   */\n      0x496e636f72726563742045746865722076616c75652073656e74000000000000\n        /* \"#utility.yul\":8344:8345   */\n      0x00\n        /* \"#utility.yul\":8336:8342   */\n      dup3\n        /* \"#utility.yul\":8332:8346   */\n      add\n        /* \"#utility.yul\":8325:8377   */\n      mstore\n        /* \"#utility.yul\":8208:8384   */\n      pop\n      jump\t// out\n        /* \"#utility.yul\":8390:8756   */\n    tag_247:\n        /* \"#utility.yul\":8532:8535   */\n      0x00\n        /* \"#utility.yul\":8553:8620   */\n      tag_342\n        /* \"#utility.yul\":8617:8619   */\n      0x1a\n        /* \"#utility.yul\":8612:8615   */\n      dup4\n        /* \"#utility.yul\":8553:8620   */\n      tag_237\n      jump\t// in\n    tag_342:\n        /* \"#utility.yul\":8546:8620   */\n      swap2\n      pop\n        /* \"#utility.yul\":8629:8722   */\n      tag_343\n        /* \"#utility.yul\":8718:8721   */\n      dup3\n        /* \"#utility.yul\":8629:8722   */\n      tag_246\n      jump\t// in\n    tag_343:\n        /* \"#utility.yul\":8747:8749   */\n      0x20\n        /* \"#utility.yul\":8742:8745   */\n      dup3\n        /* \"#utility.yul\":8738:8750   */\n      add\n        /* \"#utility.yul\":8731:8750   */\n      swap1\n      pop\n        /* \"#utility.yul\":8390:8756   */\n      swap2\n      swap1\n      pop\n      jump\t// out\n        /* \"#utility.yul\":8762:9181   */\n    tag_123:\n        /* \"#utility.yul\":8928:8932   */\n      0x00\n        /* \"#utility.yul\":8966:8968   */\n      0x20\n        /* \"#utility.yul\":8955:8964   */\n      dup3\n        /* \"#utility.yul\":8951:8969   */\n      add\n        /* \"#utility.yul\":8943:8969   */\n      swap1\n      pop\n        /* \"#utility.yul\":9015:9024   */\n      dup2\n        /* \"#utility.yul\":9009:9013   */\n      dup2\n        /* \"#utility.yul\":9005:9025   */\n      sub\n        /* \"#utility.yul\":9001:9002   */\n      0x00\n        /* \"#utility.yul\":8990:8999   */\n      dup4\n        /* \"#utility.yul\":8986:9003   */\n      add\n        /* \"#utility.yul\":8979:9026   */\n      mstore\n        /* \"#utility.yul\":9043:9174   */\n      tag_345\n        /* \"#utility.yul\":9169:9173   */\n      dup2\n        /* \"#utility.yul\":9043:9174   */\n      tag_247\n      jump\t// in\n    tag_345:\n        /* \"#utility.yul\":9035:9174   */\n      swap1\n      pop\n        /* \"#utility.yul\":8762:9181   */\n      swap2\n      swap1\n      pop\n      jump\t// out\n        /* \"#utility.yul\":9187:9361   */\n    tag_248:\n        /* \"#utility.yul\":9327:9353   */\n      0x333020646179732068617665206e6f74207061737365642e0000000000000000\n        /* \"#utility.yul\":9323:9324   */\n      0x00\n        /* \"#utility.yul\":9315:9321   */\n      dup3\n        /* \"#utility.yul\":9311:9325   */\n      add\n        /* \"#utility.yul\":9304:9354   */\n      mstore\n        /* \"#utility.yul\":9187:9361   */\n      pop\n      jump\t// out\n        /* \"#utility.yul\":9367:9733   */\n    tag_249:\n        /* \"#utility.yul\":9509:9512   */\n      0x00\n        /* \"#utility.yul\":9530:9597   */\n      tag_348\n        /* \"#utility.yul\":9594:9596   */\n      0x18\n        /* \"#utility.yul\":9589:9592   */\n      dup4\n        /* \"#utility.yul\":9530:9597   */\n      tag_237\n      jump\t// in\n    tag_348:\n        /* \"#utility.yul\":9523:9597   */\n      swap2\n      pop\n        /* \"#utility.yul\":9606:9699   */\n      tag_349\n        /* \"#utility.yul\":9695:9698   */\n      dup3\n        /* \"#utility.yul\":9606:9699   */\n      tag_248\n      jump\t// in\n    tag_349:\n        /* \"#utility.yul\":9724:9726   */\n      0x20\n        /* \"#utility.yul\":9719:9722   */\n      dup3\n        /* \"#utility.yul\":9715:9727   */\n      add\n        /* \"#utility.yul\":9708:9727   */\n      swap1\n      pop\n        /* \"#utility.yul\":9367:9733   */\n      swap2\n      swap1\n      pop\n      jump\t// out\n        /* \"#utility.yul\":9739:10158   */\n    tag_135:\n        /* \"#utility.yul\":9905:9909   */\n      0x00\n        /* \"#utility.yul\":9943:9945   */\n      0x20\n        /* \"#utility.yul\":9932:9941   */\n      dup3\n        /* \"#utility.yul\":9928:9946   */\n      add\n        /* \"#utility.yul\":9920:9946   */\n      swap1\n      pop\n        /* \"#utility.yul\":9992:10001   */\n      dup2\n        /* \"#utility.yul\":9986:9990   */\n      dup2\n        /* \"#utility.yul\":9982:10002   */\n      sub\n        /* \"#utility.yul\":9978:9979   */\n      0x00\n        /* \"#utility.yul\":9967:9976   */\n      dup4\n        /* \"#utility.yul\":9963:9980   */\n      add\n        /* \"#utility.yul\":9956:10003   */\n      mstore\n        /* \"#utility.yul\":10020:10151   */\n      tag_351\n        /* \"#utility.yul\":10146:10150   */\n      dup2\n        /* \"#utility.yul\":10020:10151   */\n      tag_249\n      jump\t// in\n    tag_351:\n        /* \"#utility.yul\":10012:10151   */\n      swap1\n      pop\n        /* \"#utility.yul\":9739:10158   */\n      swap2\n      swap1\n      pop\n      jump\t// out\n        /* \"#utility.yul\":10164:10338   */\n    tag_250:\n        /* \"#utility.yul\":10304:10330   */\n      0x4e6f20696e6865726974616e636520616c6c6f63617465640000000000000000\n        /* \"#utility.yul\":10300:10301   */\n      0x00\n        /* \"#utility.yul\":10292:10298   */\n      dup3\n        /* \"#utility.yul\":10288:10302   */\n      add\n        /* \"#utility.yul\":10281:10331   */\n      mstore\n        /* \"#utility.yul\":10164:10338   */\n      pop\n      jump\t// out\n        /* \"#utility.yul\":10344:10710   */\n    tag_251:\n        /* \"#utility.yul\":10486:10489   */\n      0x00\n        /* \"#utility.yul\":10507:10574   */\n      tag_354\n        /* \"#utility.yul\":10571:10573   */\n      0x18\n        /* \"#utility.yul\":10566:10569   */\n      dup4\n        /* \"#utility.yul\":10507:10574   */\n      tag_237\n      jump\t// in\n    tag_354:\n        /* \"#utility.yul\":10500:10574   */\n      swap2\n      pop\n        /* \"#utility.yul\":10583:10676   */\n      tag_355\n        /* \"#utility.yul\":10672:10675   */\n      dup3\n        /* \"#utility.yul\":10583:10676   */\n      tag_250\n      jump\t// in\n    tag_355:\n        /* \"#utility.yul\":10701:10703   */\n      0x20\n        /* \"#utility.yul\":10696:10699   */\n      dup3\n        /* \"#utility.yul\":10692:10704   */\n      add\n        /* \"#utility.yul\":10685:10704   */\n      swap1\n      pop\n        /* \"#utility.yul\":10344:10710   */\n      swap2\n      swap1\n      pop\n      jump\t// out\n        /* \"#utility.yul\":10716:11135   */\n    tag_142:\n        /* \"#utility.yul\":10882:10886   */\n      0x00\n        /* \"#utility.yul\":10920:10922   */\n      0x20\n        /* \"#utility.yul\":10909:10918   */\n      dup3\n        /* \"#utility.yul\":10905:10923   */\n      add\n        /* \"#utility.yul\":10897:10923   */\n      swap1\n      pop\n        /* \"#utility.yul\":10969:10978   */\n      dup2\n        /* \"#utility.yul\":10963:10967   */\n      dup2\n        /* \"#utility.yul\":10959:10979   */\n      sub\n        /* \"#utility.yul\":10955:10956   */\n      0x00\n        /* \"#utility.yul\":10944:10953   */\n      dup4\n        /* \"#utility.yul\":10940:10957   */\n      add\n        /* \"#utility.yul\":10933:10980   */\n      mstore\n        /* \"#utility.yul\":10997:11128   */\n      tag_357\n        /* \"#utility.yul\":11123:11127   */\n      dup2\n        /* \"#utility.yul\":10997:11128   */\n      tag_251\n      jump\t// in\n    tag_357:\n        /* \"#utility.yul\":10989:11128   */\n      swap1\n      pop\n        /* \"#utility.yul\":10716:11135   */\n      swap2\n      swap1\n      pop\n      jump\t// out\n        /* \"#utility.yul\":11141:11318   */\n    tag_252:\n        /* \"#utility.yul\":11281:11310   */\n      0x496e6865726974616e636520616c726561647920636c61696d65640000000000\n        /* \"#utility.yul\":11277:11278   */\n      0x00\n        /* \"#utility.yul\":11269:11275   */\n      dup3\n        /* \"#utility.yul\":11265:11279   */\n      add\n        /* \"#utility.yul\":11258:11311   */\n      mstore\n        /* \"#utility.yul\":11141:11318   */\n      pop\n      jump\t// out\n        /* \"#utility.yul\":11324:11690   */\n    tag_253:\n        /* \"#utility.yul\":11466:11469   */\n      0x00\n        /* \"#utility.yul\":11487:11554   */\n      tag_360\n        /* \"#utility.yul\":11551:11553   */\n      0x1b\n        /* \"#utility.yul\":11546:11549   */\n      dup4\n        /* \"#utility.yul\":11487:11554   */\n      tag_237\n      jump\t// in\n    tag_360:\n        /* \"#utility.yul\":11480:11554   */\n      swap2\n      pop\n        /* \"#utility.yul\":11563:11656   */\n      tag_361\n        /* \"#utility.yul\":11652:11655   */\n      dup3\n        /* \"#utility.yul\":11563:11656   */\n      tag_252\n      jump\t// in\n    tag_361:\n        /* \"#utility.yul\":11681:11683   */\n      0x20\n        /* \"#utility.yul\":11676:11679   */\n      dup3\n        /* \"#utility.yul\":11672:11684   */\n      add\n        /* \"#utility.yul\":11665:11684   */\n      swap1\n      pop\n        /* \"#utility.yul\":11324:11690   */\n      swap2\n      swap1\n      pop\n      jump\t// out\n        /* \"#utility.yul\":11696:12115   */\n    tag_145:\n        /* \"#utility.yul\":11862:11866   */\n      0x00\n        /* \"#utility.yul\":11900:11902   */\n      0x20\n        /* \"#utility.yul\":11889:11898   */\n      dup3\n        /* \"#utility.yul\":11885:11903   */\n      add\n        /* \"#utility.yul\":11877:11903   */\n      swap1\n      pop\n        /* \"#utility.yul\":11949:11958   */\n      dup2\n        /* \"#utility.yul\":11943:11947   */\n      dup2\n        /* \"#utility.yul\":11939:11959   */\n      sub\n        /* \"#utility.yul\":11935:11936   */\n      0x00\n        /* \"#utility.yul\":11924:11933   */\n      dup4\n        /* \"#utility.yul\":11920:11937   */\n      add\n        /* \"#utility.yul\":11913:11960   */\n      mstore\n        /* \"#utility.yul\":11977:12108   */\n      tag_363\n        /* \"#utility.yul\":12103:12107   */\n      dup2\n        /* \"#utility.yul\":11977:12108   */\n      tag_253\n      jump\t// in\n    tag_363:\n        /* \"#utility.yul\":11969:12108   */\n      swap1\n      pop\n        /* \"#utility.yul\":11696:12115   */\n      swap2\n      swap1\n      pop\n      jump\t// out\n        /* \"#utility.yul\":12121:12341   */\n    tag_254:\n        /* \"#utility.yul\":12261:12295   */\n      0x5468652068656972206861766520696e73756666696369656e74204574686572\n        /* \"#utility.yul\":12257:12258   */\n      0x00\n        /* \"#utility.yul\":12249:12255   */\n      dup3\n        /* \"#utility.yul\":12245:12259   */\n      add\n        /* \"#utility.yul\":12238:12296   */\n      mstore\n        /* \"#utility.yul\":12330:12333   */\n      0x2e00000000000000000000000000000000000000000000000000000000000000\n        /* \"#utility.yul\":12325:12327   */\n      0x20\n        /* \"#utility.yul\":12317:12323   */\n      dup3\n        /* \"#utility.yul\":12313:12328   */\n      add\n        /* \"#utility.yul\":12306:12334   */\n      mstore\n        /* \"#utility.yul\":12121:12341   */\n      pop\n      jump\t// out\n        /* \"#utility.yul\":12347:12713   */\n    tag_255:\n        /* \"#utility.yul\":12489:12492   */\n      0x00\n        /* \"#utility.yul\":12510:12577   */\n      tag_366\n        /* \"#utility.yul\":12574:12576   */\n      0x21\n        /* \"#utility.yul\":12569:12572   */\n      dup4\n        /* \"#utility.yul\":12510:12577   */\n      tag_237\n      jump\t// in\n    tag_366:\n        /* \"#utility.yul\":12503:12577   */\n      swap2\n      pop\n        /* \"#utility.yul\":12586:12679   */\n      tag_367\n        /* \"#utility.yul\":12675:12678   */\n      dup3\n        /* \"#utility.yul\":12586:12679   */\n      tag_254\n      jump\t// in\n    tag_367:\n        /* \"#utility.yul\":12704:12706   */\n      0x40\n        /* \"#utility.yul\":12699:12702   */\n      dup3\n        /* \"#utility.yul\":12695:12707   */\n      add\n        /* \"#utility.yul\":12688:12707   */\n      swap1\n      pop\n        /* \"#utility.yul\":12347:12713   */\n      swap2\n      swap1\n      pop\n      jump\t// out\n        /* \"#utility.yul\":12719:13138   */\n    tag_156:\n        /* \"#utility.yul\":12885:12889   */\n      0x00\n        /* \"#utility.yul\":12923:12925   */\n      0x20\n        /* \"#utility.yul\":12912:12921   */\n      dup3\n        /* \"#utility.yul\":12908:12926   */\n      add\n        /* \"#utility.yul\":12900:12926   */\n      swap1\n      pop\n        /* \"#utility.yul\":12972:12981   */\n      dup2\n        /* \"#utility.yul\":12966:12970   */\n      dup2\n        /* \"#utility.yul\":12962:12982   */\n      sub\n        /* \"#utility.yul\":12958:12959   */\n      0x00\n        /* \"#utility.yul\":12947:12956   */\n      dup4\n        /* \"#utility.yul\":12943:12960   */\n      add\n        /* \"#utility.yul\":12936:12983   */\n      mstore\n        /* \"#utility.yul\":13000:13131   */\n      tag_369\n        /* \"#utility.yul\":13126:13130   */\n      dup2\n        /* \"#utility.yul\":13000:13131   */\n      tag_255\n      jump\t// in\n    tag_369:\n        /* \"#utility.yul\":12992:13131   */\n      swap1\n      pop\n        /* \"#utility.yul\":12719:13138   */\n      swap2\n      swap1\n      pop\n      jump\t// out\n        /* \"#utility.yul\":13144:13338   */\n    tag_159:\n        /* \"#utility.yul\":13184:13188   */\n      0x00\n        /* \"#utility.yul\":13204:13224   */\n      tag_371\n        /* \"#utility.yul\":13222:13223   */\n      dup3\n        /* \"#utility.yul\":13204:13224   */\n      tag_222\n      jump\t// in\n    tag_371:\n        /* \"#utility.yul\":13199:13224   */\n      swap2\n      pop\n        /* \"#utility.yul\":13238:13258   */\n      tag_372\n        /* \"#utility.yul\":13256:13257   */\n      dup4\n        /* \"#utility.yul\":13238:13258   */\n      tag_222\n      jump\t// in\n    tag_372:\n        /* \"#utility.yul\":13233:13258   */\n      swap3\n      pop\n        /* \"#utility.yul\":13282:13283   */\n      dup3\n        /* \"#utility.yul\":13279:13280   */\n      dup3\n        /* \"#utility.yul\":13275:13284   */\n      sub\n        /* \"#utility.yul\":13267:13284   */\n      swap1\n      pop\n        /* \"#utility.yul\":13306:13307   */\n      dup2\n        /* \"#utility.yul\":13300:13304   */\n      dup2\n        /* \"#utility.yul\":13297:13308   */\n      gt\n        /* \"#utility.yul\":13294:13331   */\n      iszero\n      tag_373\n      jumpi\n        /* \"#utility.yul\":13311:13329   */\n      tag_374\n      tag_236\n      jump\t// in\n    tag_374:\n        /* \"#utility.yul\":13294:13331   */\n    tag_373:\n        /* \"#utility.yul\":13144:13338   */\n      swap3\n      swap2\n      pop\n      pop\n      jump\t// out\n        /* \"#utility.yul\":13344:13519   */\n    tag_256:\n        /* \"#utility.yul\":13484:13511   */\n      0x31302079656172732068617665206e6f74207061737365642e00000000000000\n        /* \"#utility.yul\":13480:13481   */\n      0x00\n        /* \"#utility.yul\":13472:13478   */\n      dup3\n        /* \"#utility.yul\":13468:13482   */\n      add\n        /* \"#utility.yul\":13461:13512   */\n      mstore\n        /* \"#utility.yul\":13344:13519   */\n      pop\n      jump\t// out\n        /* \"#utility.yul\":13525:13891   */\n    tag_257:\n        /* \"#utility.yul\":13667:13670   */\n      0x00\n        /* \"#utility.yul\":13688:13755   */\n      tag_377\n        /* \"#utility.yul\":13752:13754   */\n      0x19\n        /* \"#utility.yul\":13747:13750   */\n      dup4\n        /* \"#utility.yul\":13688:13755   */\n      tag_237\n      jump\t// in\n    tag_377:\n        /* \"#utility.yul\":13681:13755   */\n      swap2\n      pop\n        /* \"#utility.yul\":13764:13857   */\n      tag_378\n        /* \"#utility.yul\":13853:13856   */\n      dup3\n        /* \"#utility.yul\":13764:13857   */\n      tag_256\n      jump\t// in\n    tag_378:\n        /* \"#utility.yul\":13882:13884   */\n      0x20\n        /* \"#utility.yul\":13877:13880   */\n      dup3\n        /* \"#utility.yul\":13873:13885   */\n      add\n        /* \"#utility.yul\":13866:13885   */\n      swap1\n      pop\n        /* \"#utility.yul\":13525:13891   */\n      swap2\n      swap1\n      pop\n      jump\t// out\n        /* \"#utility.yul\":13897:14316   */\n    tag_177:\n        /* \"#utility.yul\":14063:14067   */\n      0x00\n        /* \"#utility.yul\":14101:14103   */\n      0x20\n        /* \"#utility.yul\":14090:14099   */\n      dup3\n        /* \"#utility.yul\":14086:14104   */\n      add\n        /* \"#utility.yul\":14078:14104   */\n      swap1\n      pop\n        /* \"#utility.yul\":14150:14159   */\n      dup2\n        /* \"#utility.yul\":14144:14148   */\n      dup2\n        /* \"#utility.yul\":14140:14160   */\n      sub\n        /* \"#utility.yul\":14136:14137   */\n      0x00\n        /* \"#utility.yul\":14125:14134   */\n      dup4\n        /* \"#utility.yul\":14121:14138   */\n      add\n        /* \"#utility.yul\":14114:14161   */\n      mstore\n        /* \"#utility.yul\":14178:14309   */\n      tag_380\n        /* \"#utility.yul\":14304:14308   */\n      dup2\n        /* \"#utility.yul\":14178:14309   */\n      tag_257\n      jump\t// in\n    tag_380:\n        /* \"#utility.yul\":14170:14309   */\n      swap1\n      pop\n        /* \"#utility.yul\":13897:14316   */\n      swap2\n      swap1\n      pop\n      jump\t// out\n        /* \"#utility.yul\":14322:14555   */\n    tag_190:\n        /* \"#utility.yul\":14361:14364   */\n      0x00\n        /* \"#utility.yul\":14384:14408   */\n      tag_382\n        /* \"#utility.yul\":14402:14407   */\n      dup3\n        /* \"#utility.yul\":14384:14408   */\n      tag_222\n      jump\t// in\n    tag_382:\n        /* \"#utility.yul\":14375:14408   */\n      swap2\n      pop\n        /* \"#utility.yul\":14430:14496   */\n      0xffffffffffffffffffffffffffffffffffffffffffffffffffffffffffffffff\n        /* \"#utility.yul\":14423:14428   */\n      dup3\n        /* \"#utility.yul\":14420:14497   */\n      sub\n        /* \"#utility.yul\":14417:14520   */\n      tag_383\n      jumpi\n        /* \"#utility.yul\":14500:14518   */\n      tag_384\n      tag_236\n      jump\t// in\n    tag_384:\n        /* \"#utility.yul\":14417:14520   */\n    tag_383:\n        /* \"#utility.yul\":14547:14548   */\n      0x01\n        /* \"#utility.yul\":14540:14545   */\n      dup3\n        /* \"#utility.yul\":14536:14549   */\n      add\n        /* \"#utility.yul\":14529:14549   */\n      swap1\n      pop\n        /* \"#utility.yul\":14322:14555   */\n      swap2\n      swap1\n      pop\n      jump\t// out\n        /* \"#utility.yul\":14561:14727   */\n    tag_258:\n        /* \"#utility.yul\":14701:14719   */\n      0x4e6f7420656e6f75676820686569727300000000000000000000000000000000\n        /* \"#utility.yul\":14697:14698   */\n      0x00\n        /* \"#utility.yul\":14689:14695   */\n      dup3\n        /* \"#utility.yul\":14685:14699   */\n      add\n        /* \"#utility.yul\":14678:14720   */\n      mstore\n        /* \"#utility.yul\":14561:14727   */\n      pop\n      jump\t// out\n        /* \"#utility.yul\":14733:15099   */\n    tag_259:\n        /* \"#utility.yul\":14875:14878   */\n      0x00\n        /* \"#utility.yul\":14896:14963   */\n      tag_387\n        /* \"#utility.yul\":14960:14962   */\n      0x10\n        /* \"#utility.yul\":14955:14958   */\n      dup4\n        /* \"#utility.yul\":14896:14963   */\n      tag_237\n      jump\t// in\n    tag_387:\n        /* \"#utility.yul\":14889:14963   */\n      swap2\n      pop\n        /* \"#utility.yul\":14972:15065   */\n      tag_388\n        /* \"#utility.yul\":15061:15064   */\n      dup3\n        /* \"#utility.yul\":14972:15065   */\n      tag_258\n      jump\t// in\n    tag_388:\n        /* \"#utility.yul\":15090:15092   */\n      0x20\n        /* \"#utility.yul\":15085:15088   */\n      dup3\n        /* \"#utility.yul\":15081:15093   */\n      add\n        /* \"#utility.yul\":15074:15093   */\n      swap1\n      pop\n        /* \"#utility.yul\":14733:15099   */\n      swap2\n      swap1\n      pop\n      jump\t// out\n        /* \"#utility.yul\":15105:15524   */\n    tag_198:\n        /* \"#utility.yul\":15271:15275   */\n      0x00\n        /* \"#utility.yul\":15309:15311   */\n      0x20\n        /* \"#utility.yul\":15298:15307   */\n      dup3\n        /* \"#utility.yul\":15294:15312   */\n      add\n        /* \"#utility.yul\":15286:15312   */\n      swap1\n      pop\n        /* \"#utility.yul\":15358:15367   */\n      dup2\n        /* \"#utility.yul\":15352:15356   */\n      dup2\n        /* \"#utility.yul\":15348:15368   */\n      sub\n        /* \"#utility.yul\":15344:15345   */\n      0x00\n        /* \"#utility.yul\":15333:15342   */\n      dup4\n        /* \"#utility.yul\":15329:15346   */\n      add\n        /* \"#utility.yul\":15322:15369   */\n      mstore\n        /* \"#utility.yul\":15386:15517   */\n      tag_390\n        /* \"#utility.yul\":15512:15516   */\n      dup2\n        /* \"#utility.yul\":15386:15517   */\n      tag_259\n      jump\t// in\n    tag_390:\n        /* \"#utility.yul\":15378:15517   */\n      swap1\n      pop\n        /* \"#utility.yul\":15105:15524   */\n      swap2\n      swap1\n      pop\n      jump\t// out\n        /* \"#utility.yul\":15530:15702   */\n    tag_260:\n        /* \"#utility.yul\":15670:15694   */\n      0x496e73756666696369656e7420636f6e73656e73757300000000000000000000\n        /* \"#utility.yul\":15666:15667   */\n      0x00\n        /* \"#utility.yul\":15658:15664   */\n      dup3\n        /* \"#utility.yul\":15654:15668   */\n      add\n        /* \"#utility.yul\":15647:15695   */\n      mstore\n        /* \"#utility.yul\":15530:15702   */\n      pop\n      jump\t// out\n        /* \"#utility.yul\":15708:16074   */\n    tag_261:\n        /* \"#utility.yul\":15850:15853   */\n      0x00\n        /* \"#utility.yul\":15871:15938   */\n      tag_393\n        /* \"#utility.yul\":15935:15937   */\n      0x16\n        /* \"#utility.yul\":15930:15933   */\n      dup4\n        /* \"#utility.yul\":15871:15938   */\n      tag_237\n      jump\t// in\n    tag_393:\n        /* \"#utility.yul\":15864:15938   */\n      swap2\n      pop\n        /* \"#utility.yul\":15947:16040   */\n      tag_394\n        /* \"#utility.yul\":16036:16039   */\n      dup3\n        /* \"#utility.yul\":15947:16040   */\n      tag_260\n      jump\t// in\n    tag_394:\n        /* \"#utility.yul\":16065:16067   */\n      0x20\n        /* \"#utility.yul\":16060:16063   */\n      dup3\n        /* \"#utility.yul\":16056:16068   */\n      add\n        /* \"#utility.yul\":16049:16068   */\n      swap1\n      pop\n        /* \"#utility.yul\":15708:16074   */\n      swap2\n      swap1\n      pop\n      jump\t// out\n        /* \"#utility.yul\":16080:16499   */\n    tag_202:\n        /* \"#utility.yul\":16246:16250   */\n      0x00\n        /* \"#utility.yul\":16284:16286   */\n      0x20\n        /* \"#utility.yul\":16273:16282   */\n      dup3\n        /* \"#utility.yul\":16269:16287   */\n      add\n        /* \"#utility.yul\":16261:16287   */\n      swap1\n      pop\n        /* \"#utility.yul\":16333:16342   */\n      dup2\n        /* \"#utility.yul\":16327:16331   */\n      dup2\n        /* \"#utility.yul\":16323:16343   */\n      sub\n        /* \"#utility.yul\":16319:16320   */\n      0x00\n        /* \"#utility.yul\":16308:16317   */\n      dup4\n        /* \"#utility.yul\":16304:16321   */\n      add\n        /* \"#utility.yul\":16297:16344   */\n      mstore\n        /* \"#utility.yul\":16361:16492   */\n      tag_396\n        /* \"#utility.yul\":16487:16491   */\n      dup2\n        /* \"#utility.yul\":16361:16492   */\n      tag_261\n      jump\t// in\n    tag_396:\n        /* \"#utility.yul\":16353:16492   */\n      swap1\n      pop\n        /* \"#utility.yul\":16080:16499   */\n      swap2\n      swap1\n      pop\n      jump\t// out\n\n    auxdata: 0xa26469706673582212206a6aa2c16c161272c044865497b44898f2015c0a52212d426b40f4a9db29daa064736f6c634300081a0033\n}\n",
				"bytecode": {
					"linkReferences": {},
					"object": "6080604052348015600e575f80fd5b50335f806101000a81548173ffffffffffffffffffffffffffffffffffffffff021916908373ffffffffffffffffffffffffffffffffffffffff16021790555042600281905550611d1d806100625f395ff3fe6080604052600436106100e7575f3560e01c80639393d82e11610089578063c19f412111610058578063c19f41211461026b578063d0d1ea7014610281578063ebc392ec146102a9578063fdf97cb2146102bf576100e7565b80639393d82e146101d957806393fbbe0e146102035780639f3c44161461022d578063c107532914610243576100e7565b80636352849f116100c55780636352849f14610167578063853828b61461017d578063904dbc8614610193578063921b004b146101bd576100e7565b80630c3d5157146100eb57806347e88ce4146101155780634f4ae41b1461012b575b5f80fd5b3480156100f6575f80fd5b506100ff6102e9565b60405161010c9190611524565b60405180910390f35b348015610120575f80fd5b506101296102ef565b005b348015610136575f80fd5b50610151600480360381019061014c919061159b565b6103ce565b60405161015e9190611524565b60405180910390f35b348015610172575f80fd5b5061017b6104a4565b005b348015610188575f80fd5b5061019161057a565b005b34801561019e575f80fd5b506101a761070d565b6040516101b491906115e0565b60405180910390f35b6101d760048036038101906101d29190611623565b61071f565b005b3480156101e4575f80fd5b506101ed610975565b6040516101fa9190611670565b60405180910390f35b34801561020e575f80fd5b50610217610998565b6040516102249190611524565b60405180910390f35b348015610238575f80fd5b5061024161099e565b005b34801561024e575f80fd5b5061026960048036038101906102649190611623565b610c20565b005b348015610276575f80fd5b5061027f610e85565b005b34801561028c575f80fd5b506102a760048036038101906102a2919061159b565b610f63565b005b3480156102b4575f80fd5b506102bd611033565b005b3480156102ca575f80fd5b506102d36112f2565b6040516102e09190611670565b60405180910390f35b60025481565b631c32048060025461030191906116b6565b421015610343576040517f08c379a000000000000000000000000000000000000000000000000000000000815260040161033a90611743565b60405180910390fd5b5f60055f3373ffffffffffffffffffffffffffffffffffffffff1673ffffffffffffffffffffffffffffffffffffffff1681526020019081526020015f205f0154116103c4576040517f08c379a00000000000000000000000000000000000000000000000000000000081526004016103bb906117ab565b60405180910390fd5b6103cc611317565b565b5f805f9054906101000a900473ffffffffffffffffffffffffffffffffffffffff1673ffffffffffffffffffffffffffffffffffffffff163373ffffffffffffffffffffffffffffffffffffffff161461045d576040517f08c379a000000000000000000000000000000000000000000000000000000000815260040161045490611813565b60405180910390fd5b60055f8373ffffffffffffffffffffffffffffffffffffffff1673ffffffffffffffffffffffffffffffffffffffff1681526020019081526020015f205f01549050919050565b60015f9054906101000a900473ffffffffffffffffffffffffffffffffffffffff1673ffffffffffffffffffffffffffffffffffffffff163373ffffffffffffffffffffffffffffffffffffffff1614610533576040517f08c379a000000000000000000000000000000000000000000000000000000000815260040161052a9061187b565b60405180910390fd5b5f60035f6101000a81548160ff0219169083151502179055507f5c6a09dcfca2ed928cf8915c87912084764ff0b035328700b69d6312dcd5809760405160405180910390a1565b5f8054906101000a900473ffffffffffffffffffffffffffffffffffffffff1673ffffffffffffffffffffffffffffffffffffffff163373ffffffffffffffffffffffffffffffffffffffff1614610607576040517f08c379a00000000000000000000000000000000000000000000000000000000081526004016105fe90611813565b60405180910390fd5b5f4790505f5b6006805490508110156106a6575f60055f6006848154811061063257610631611899565b5b905f5260205f20015f9054906101000a900473ffffffffffffffffffffffffffffffffffffffff1673ffffffffffffffffffffffffffffffffffffffff1673ffffffffffffffffffffffffffffffffffffffff1681526020019081526020015f205f0181905550808060010191505061060d565b505f8054906101000a900473ffffffffffffffffffffffffffffffffffffffff1673ffffffffffffffffffffffffffffffffffffffff166108fc8290811502906040515f60405180830381858888f19350505050158015610709573d5f803e3d5ffd5b5050565b60035f9054906101000a900460ff1681565b5f8054906101000a900473ffffffffffffffffffffffffffffffffffffffff1673ffffffffffffffffffffffffffffffffffffffff163373ffffffffffffffffffffffffffffffffffffffff16146107ac576040517f08c379a00000000000000000000000000000000000000000000000000000000081526004016107a390611813565b60405180910390fd5b670de0b6b3a7640000816107c091906118c6565b3414610801576040517f08c379a00000000000000000000000000000000000000000000000000000000081526004016107f890611951565b60405180910390fd5b5f60055f8473ffffffffffffffffffffffffffffffffffffffff1673ffffffffffffffffffffffffffffffffffffffff1681526020019081526020015f205f0154036108a857600682908060018154018082558091505060019003905f5260205f20015f9091909190916101000a81548173ffffffffffffffffffffffffffffffffffffffff021916908373ffffffffffffffffffffffffffffffffffffffff1602179055505b670de0b6b3a7640000816108bc91906118c6565b60055f8473ffffffffffffffffffffffffffffffffffffffff1673ffffffffffffffffffffffffffffffffffffffff1681526020019081526020015f205f015f82825461090991906116b6565b925050819055508173ffffffffffffffffffffffffffffffffffffffff167f543ba50a5eec5e6178218e364b1d0f396157b3c8fa278522c2cb7fd99407d474670de0b6b3a76400008361095c91906118c6565b6040516109699190611524565b60405180910390a25050565b5f8054906101000a900473ffffffffffffffffffffffffffffffffffffffff1681565b60045481565b60035f9054906101000a900460ff1680156109c9575062278d006004546109c591906116b6565b4210155b610a08576040517f08c379a00000000000000000000000000000000000000000000000000000000081526004016109ff906119b9565b60405180910390fd5b5f60055f3373ffffffffffffffffffffffffffffffffffffffff1673ffffffffffffffffffffffffffffffffffffffff1681526020019081526020015f205f015411610a89576040517f08c379a0000000000000000000000000000000000000000000000000000000008152600401610a80906117ab565b60405180910390fd5b5f60055f3373ffffffffffffffffffffffffffffffffffffffff1673ffffffffffffffffffffffffffffffffffffffff1681526020019081526020015f2090505f815f015411610b0e576040517f08c379a0000000000000000000000000000000000000000000000000000000008152600401610b0590611a21565b60405180910390fd5b806001015f9054906101000a900460ff1615610b5f576040517f08c379a0000000000000000000000000000000000000000000000000000000008152600401610b5690611a89565b60405180910390fd5b6001816001015f6101000a81548160ff0219169083151502179055505f815f015490505f825f01819055503373ffffffffffffffffffffffffffffffffffffffff166108fc8290811502906040515f60405180830381858888f19350505050158015610bcd573d5f803e3d5ffd5b503373ffffffffffffffffffffffffffffffffffffffff167f92a193f55349470137c2eab4bd04427f216036ec3ff6ba54aed58e17337af6a282604051610c149190611524565b60405180910390a25050565b5f8054906101000a900473ffffffffffffffffffffffffffffffffffffffff1673ffffffffffffffffffffffffffffffffffffffff163373ffffffffffffffffffffffffffffffffffffffff1614610cad576040517f08c379a0000000000000000000000000000000000000000000000000000000008152600401610ca490611813565b60405180910390fd5b670de0b6b3a764000081610cc191906118c6565b60055f8473ffffffffffffffffffffffffffffffffffffffff1673ffffffffffffffffffffffffffffffffffffffff1681526020019081526020015f205f01541015610d42576040517f08c379a0000000000000000000000000000000000000000000000000000000008152600401610d3990611b17565b60405180910390fd5b670de0b6b3a764000081610d5691906118c6565b60055f8473ffffffffffffffffffffffffffffffffffffffff1673ffffffffffffffffffffffffffffffffffffffff1681526020019081526020015f205f015f828254610da39190611b35565b925050819055505f8054906101000a900473ffffffffffffffffffffffffffffffffffffffff1673ffffffffffffffffffffffffffffffffffffffff166108fc670de0b6b3a764000083610df791906118c6565b90811502906040515f60405180830381858888f19350505050158015610e1f573d5f803e3d5ffd5b508173ffffffffffffffffffffffffffffffffffffffff167feaff4b37086828766ad3268786972c0cd24259d4c87a80f9d3963a3c3d999b0d670de0b6b3a764000083610e6c91906118c6565b604051610e799190611524565b60405180910390a25050565b60015f9054906101000a900473ffffffffffffffffffffffffffffffffffffffff1673ffffffffffffffffffffffffffffffffffffffff163373ffffffffffffffffffffffffffffffffffffffff1614610f14576040517f08c379a0000000000000000000000000000000000000000000000000000000008152600401610f0b9061187b565b60405180910390fd5b600160035f6101000a81548160ff021916908315150217905550426004819055507fc208c6f0e4585e3ef24e22a8e6634ac1f5ec94e12e644f1042279b71d8aa893b60405160405180910390a1565b5f8054906101000a900473ffffffffffffffffffffffffffffffffffffffff1673ffffffffffffffffffffffffffffffffffffffff163373ffffffffffffffffffffffffffffffffffffffff1614610ff0576040517f08c379a0000000000000000000000000000000000000000000000000000000008152600401610fe790611813565b60405180910390fd5b8060015f6101000a81548173ffffffffffffffffffffffffffffffffffffffff021916908373ffffffffffffffffffffffffffffffffffffffff16021790555050565b6312cc030060025461104591906116b6565b421015611087576040517f08c379a000000000000000000000000000000000000000000000000000000000815260040161107e90611bb2565b60405180910390fd5b5f60055f3373ffffffffffffffffffffffffffffffffffffffff1673ffffffffffffffffffffffffffffffffffffffff1681526020019081526020015f205f015411611108576040517f08c379a00000000000000000000000000000000000000000000000000000000081526004016110ff906117ab565b60405180910390fd5b5f805f5b600680549050811015611253575f60055f6006848154811061113157611130611899565b5b905f5260205f20015f9054906101000a900473ffffffffffffffffffffffffffffffffffffffff1673ffffffffffffffffffffffffffffffffffffffff1673ffffffffffffffffffffffffffffffffffffffff1681526020019081526020015f205f015411156112465782806111a690611bd0565b93505060055f600683815481106111c0576111bf611899565b5b905f5260205f20015f9054906101000a900473ffffffffffffffffffffffffffffffffffffffff1673ffffffffffffffffffffffffffffffffffffffff1673ffffffffffffffffffffffffffffffffffffffff1681526020019081526020015f206001015f9054906101000a900460ff161561124557818061124190611bd0565b9250505b5b808060010191505061110c565b5060028211611297576040517f08c379a000000000000000000000000000000000000000000000000000000000815260040161128e90611c61565b60405180910390fd5b816002826112a591906118c6565b10156112e6576040517f08c379a00000000000000000000000000000000000000000000000000000000081526004016112dd90611cc9565b60405180910390fd5b6112ee611317565b5050565b60015f9054906101000a900473ffffffffffffffffffffffffffffffffffffffff1681565b5f5b600680549050811015611509575f60055f6006848154811061133e5761133d611899565b5b905f5260205f20015f9054906101000a900473ffffffffffffffffffffffffffffffffffffffff1673ffffffffffffffffffffffffffffffffffffffff1673ffffffffffffffffffffffffffffffffffffffff1681526020019081526020015f2090505f815f01541180156113c15750806001015f9054906101000a900460ff16155b156114fb575f815f015490505f825f01819055506001826001015f6101000a81548160ff0219169083151502179055506006838154811061140557611404611899565b5b905f5260205f20015f9054906101000a900473ffffffffffffffffffffffffffffffffffffffff1673ffffffffffffffffffffffffffffffffffffffff166108fc8290811502906040515f60405180830381858888f1935050505015801561146f573d5f803e3d5ffd5b506006838154811061148457611483611899565b5b905f5260205f20015f9054906101000a900473ffffffffffffffffffffffffffffffffffffffff1673ffffffffffffffffffffffffffffffffffffffff167f92a193f55349470137c2eab4bd04427f216036ec3ff6ba54aed58e17337af6a2826040516114f19190611524565b60405180910390a2505b508080600101915050611319565b50565b5f819050919050565b61151e8161150c565b82525050565b5f6020820190506115375f830184611515565b92915050565b5f80fd5b5f73ffffffffffffffffffffffffffffffffffffffff82169050919050565b5f61156a82611541565b9050919050565b61157a81611560565b8114611584575f80fd5b50565b5f8135905061159581611571565b92915050565b5f602082840312156115b0576115af61153d565b5b5f6115bd84828501611587565b91505092915050565b5f8115159050919050565b6115da816115c6565b82525050565b5f6020820190506115f35f8301846115d1565b92915050565b6116028161150c565b811461160c575f80fd5b50565b5f8135905061161d816115f9565b92915050565b5f80604083850312156116395761163861153d565b5b5f61164685828601611587565b92505060206116578582860161160f565b9150509250929050565b61166a81611560565b82525050565b5f6020820190506116835f830184611661565b92915050565b7f4e487b71000000000000000000000000000000000000000000000000000000005f52601160045260245ffd5b5f6116c08261150c565b91506116cb8361150c565b92508282019050808211156116e3576116e2611689565b5b92915050565b5f82825260208201905092915050565b7f31352079656172732068617665206e6f74207061737365642e000000000000005f82015250565b5f61172d6019836116e9565b9150611738826116f9565b602082019050919050565b5f6020820190508181035f83015261175a81611721565b9050919050565b7f596f7520617265206e6f7420616e20686569722e0000000000000000000000005f82015250565b5f6117956014836116e9565b91506117a082611761565b602082019050919050565b5f6020820190508181035f8301526117c281611789565b9050919050565b7f596f7520617265206e6f742061206772616e646d6f746865722e0000000000005f82015250565b5f6117fd601a836116e9565b9150611808826117c9565b602082019050919050565b5f6020820190508181035f83015261182a816117f1565b9050919050565b7f596f7520617265206e6f74206120747275737465652e000000000000000000005f82015250565b5f6118656016836116e9565b915061187082611831565b602082019050919050565b5f6020820190508181035f83015261189281611859565b9050919050565b7f4e487b71000000000000000000000000000000000000000000000000000000005f52603260045260245ffd5b5f6118d08261150c565b91506118db8361150c565b92508282026118e98161150c565b91508282048414831517611900576118ff611689565b5b5092915050565b7f496e636f72726563742045746865722076616c75652073656e740000000000005f82015250565b5f61193b601a836116e9565b915061194682611907565b602082019050919050565b5f6020820190508181035f8301526119688161192f565b9050919050565b7f333020646179732068617665206e6f74207061737365642e00000000000000005f82015250565b5f6119a36018836116e9565b91506119ae8261196f565b602082019050919050565b5f6020820190508181035f8301526119d081611997565b9050919050565b7f4e6f20696e6865726974616e636520616c6c6f636174656400000000000000005f82015250565b5f611a0b6018836116e9565b9150611a16826119d7565b602082019050919050565b5f6020820190508181035f830152611a38816119ff565b9050919050565b7f496e6865726974616e636520616c726561647920636c61696d656400000000005f82015250565b5f611a73601b836116e9565b9150611a7e82611a3f565b602082019050919050565b5f6020820190508181035f830152611aa081611a67565b9050919050565b7f5468652068656972206861766520696e73756666696369656e742045746865725f8201527f2e00000000000000000000000000000000000000000000000000000000000000602082015250565b5f611b016021836116e9565b9150611b0c82611aa7565b604082019050919050565b5f6020820190508181035f830152611b2e81611af5565b9050919050565b5f611b3f8261150c565b9150611b4a8361150c565b9250828203905081811115611b6257611b61611689565b5b92915050565b7f31302079656172732068617665206e6f74207061737365642e000000000000005f82015250565b5f611b9c6019836116e9565b9150611ba782611b68565b602082019050919050565b5f6020820190508181035f830152611bc981611b90565b9050919050565b5f611bda8261150c565b91507fffffffffffffffffffffffffffffffffffffffffffffffffffffffffffffffff8203611c0c57611c0b611689565b5b600182019050919050565b7f4e6f7420656e6f756768206865697273000000000000000000000000000000005f82015250565b5f611c4b6010836116e9565b9150611c5682611c17565b602082019050919050565b5f6020820190508181035f830152611c7881611c3f565b9050919050565b7f496e73756666696369656e7420636f6e73656e737573000000000000000000005f82015250565b5f611cb36016836116e9565b9150611cbe82611c7f565b602082019050919050565b5f6020820190508181035f830152611ce081611ca7565b905091905056fea26469706673582212206a6aa2c16c161272c044865497b44898f2015c0a52212d426b40f4a9db29daa064736f6c634300081a0033",
					"opcodes": "PUSH1 0x80 PUSH1 0x40 MSTORE CALLVALUE DUP1 ISZERO PUSH1 0xE JUMPI PUSH0 DUP1 REVERT JUMPDEST POP CALLER PUSH0 DUP1 PUSH2 0x100 EXP DUP2 SLOAD DUP2 PUSH20 0xFFFFFFFFFFFFFFFFFFFFFFFFFFFFFFFFFFFFFFFF MUL NOT AND SWAP1 DUP4 PUSH20 0xFFFFFFFFFFFFFFFFFFFFFFFFFFFFFFFFFFFFFFFF AND MUL OR SWAP1 SSTORE POP TIMESTAMP PUSH1 0x2 DUP2 SWAP1 SSTORE POP PUSH2 0x1D1D DUP1 PUSH2 0x62 PUSH0 CODECOPY PUSH0 RETURN INVALID PUSH1 0x80 PUSH1 0x40 MSTORE PUSH1 0x4 CALLDATASIZE LT PUSH2 0xE7 JUMPI PUSH0 CALLDATALOAD PUSH1 0xE0 SHR DUP1 PUSH4 0x9393D82E GT PUSH2 0x89 JUMPI DUP1 PUSH4 0xC19F4121 GT PUSH2 0x58 JUMPI DUP1 PUSH4 0xC19F4121 EQ PUSH2 0x26B JUMPI DUP1 PUSH4 0xD0D1EA70 EQ PUSH2 0x281 JUMPI DUP1 PUSH4 0xEBC392EC EQ PUSH2 0x2A9 JUMPI DUP1 PUSH4 0xFDF97CB2 EQ PUSH2 0x2BF JUMPI PUSH2 0xE7 JUMP JUMPDEST DUP1 PUSH4 0x9393D82E EQ PUSH2 0x1D9 JUMPI DUP1 PUSH4 0x93FBBE0E EQ PUSH2 0x203 JUMPI DUP1 PUSH4 0x9F3C4416 EQ PUSH2 0x22D JUMPI DUP1 PUSH4 0xC1075329 EQ PUSH2 0x243 JUMPI PUSH2 0xE7 JUMP JUMPDEST DUP1 PUSH4 0x6352849F GT PUSH2 0xC5 JUMPI DUP1 PUSH4 0x6352849F EQ PUSH2 0x167 JUMPI DUP1 PUSH4 0x853828B6 EQ PUSH2 0x17D JUMPI DUP1 PUSH4 0x904DBC86 EQ PUSH2 0x193 JUMPI DUP1 PUSH4 0x921B004B EQ PUSH2 0x1BD JUMPI PUSH2 0xE7 JUMP JUMPDEST DUP1 PUSH4 0xC3D5157 EQ PUSH2 0xEB JUMPI DUP1 PUSH4 0x47E88CE4 EQ PUSH2 0x115 JUMPI DUP1 PUSH4 0x4F4AE41B EQ PUSH2 0x12B JUMPI JUMPDEST PUSH0 DUP1 REVERT JUMPDEST CALLVALUE DUP1 ISZERO PUSH2 0xF6 JUMPI PUSH0 DUP1 REVERT JUMPDEST POP PUSH2 0xFF PUSH2 0x2E9 JUMP JUMPDEST PUSH1 0x40 MLOAD PUSH2 0x10C SWAP2 SWAP1 PUSH2 0x1524 JUMP JUMPDEST PUSH1 0x40 MLOAD DUP1 SWAP2 SUB SWAP1 RETURN JUMPDEST CALLVALUE DUP1 ISZERO PUSH2 0x120 JUMPI PUSH0 DUP1 REVERT JUMPDEST POP PUSH2 0x129 PUSH2 0x2EF JUMP JUMPDEST STOP JUMPDEST CALLVALUE DUP1 ISZERO PUSH2 0x136 JUMPI PUSH0 DUP1 REVERT JUMPDEST POP PUSH2 0x151 PUSH1 0x4 DUP1 CALLDATASIZE SUB DUP2 ADD SWAP1 PUSH2 0x14C SWAP2 SWAP1 PUSH2 0x159B JUMP JUMPDEST PUSH2 0x3CE JUMP JUMPDEST PUSH1 0x40 MLOAD PUSH2 0x15E SWAP2 SWAP1 PUSH2 0x1524 JUMP JUMPDEST PUSH1 0x40 MLOAD DUP1 SWAP2 SUB SWAP1 RETURN JUMPDEST CALLVALUE DUP1 ISZERO PUSH2 0x172 JUMPI PUSH0 DUP1 REVERT JUMPDEST POP PUSH2 0x17B PUSH2 0x4A4 JUMP JUMPDEST STOP JUMPDEST CALLVALUE DUP1 ISZERO PUSH2 0x188 JUMPI PUSH0 DUP1 REVERT JUMPDEST POP PUSH2 0x191 PUSH2 0x57A JUMP JUMPDEST STOP JUMPDEST CALLVALUE DUP1 ISZERO PUSH2 0x19E JUMPI PUSH0 DUP1 REVERT JUMPDEST POP PUSH2 0x1A7 PUSH2 0x70D JUMP JUMPDEST PUSH1 0x40 MLOAD PUSH2 0x1B4 SWAP2 SWAP1 PUSH2 0x15E0 JUMP JUMPDEST PUSH1 0x40 MLOAD DUP1 SWAP2 SUB SWAP1 RETURN JUMPDEST PUSH2 0x1D7 PUSH1 0x4 DUP1 CALLDATASIZE SUB DUP2 ADD SWAP1 PUSH2 0x1D2 SWAP2 SWAP1 PUSH2 0x1623 JUMP JUMPDEST PUSH2 0x71F JUMP JUMPDEST STOP JUMPDEST CALLVALUE DUP1 ISZERO PUSH2 0x1E4 JUMPI PUSH0 DUP1 REVERT JUMPDEST POP PUSH2 0x1ED PUSH2 0x975 JUMP JUMPDEST PUSH1 0x40 MLOAD PUSH2 0x1FA SWAP2 SWAP1 PUSH2 0x1670 JUMP JUMPDEST PUSH1 0x40 MLOAD DUP1 SWAP2 SUB SWAP1 RETURN JUMPDEST CALLVALUE DUP1 ISZERO PUSH2 0x20E JUMPI PUSH0 DUP1 REVERT JUMPDEST POP PUSH2 0x217 PUSH2 0x998 JUMP JUMPDEST PUSH1 0x40 MLOAD PUSH2 0x224 SWAP2 SWAP1 PUSH2 0x1524 JUMP JUMPDEST PUSH1 0x40 MLOAD DUP1 SWAP2 SUB SWAP1 RETURN JUMPDEST CALLVALUE DUP1 ISZERO PUSH2 0x238 JUMPI PUSH0 DUP1 REVERT JUMPDEST POP PUSH2 0x241 PUSH2 0x99E JUMP JUMPDEST STOP JUMPDEST CALLVALUE DUP1 ISZERO PUSH2 0x24E JUMPI PUSH0 DUP1 REVERT JUMPDEST POP PUSH2 0x269 PUSH1 0x4 DUP1 CALLDATASIZE SUB DUP2 ADD SWAP1 PUSH2 0x264 SWAP2 SWAP1 PUSH2 0x1623 JUMP JUMPDEST PUSH2 0xC20 JUMP JUMPDEST STOP JUMPDEST CALLVALUE DUP1 ISZERO PUSH2 0x276 JUMPI PUSH0 DUP1 REVERT JUMPDEST POP PUSH2 0x27F PUSH2 0xE85 JUMP JUMPDEST STOP JUMPDEST CALLVALUE DUP1 ISZERO PUSH2 0x28C JUMPI PUSH0 DUP1 REVERT JUMPDEST POP PUSH2 0x2A7 PUSH1 0x4 DUP1 CALLDATASIZE SUB DUP2 ADD SWAP1 PUSH2 0x2A2 SWAP2 SWAP1 PUSH2 0x159B JUMP JUMPDEST PUSH2 0xF63 JUMP JUMPDEST STOP JUMPDEST CALLVALUE DUP1 ISZERO PUSH2 0x2B4 JUMPI PUSH0 DUP1 REVERT JUMPDEST POP PUSH2 0x2BD PUSH2 0x1033 JUMP JUMPDEST STOP JUMPDEST CALLVALUE DUP1 ISZERO PUSH2 0x2CA JUMPI PUSH0 DUP1 REVERT JUMPDEST POP PUSH2 0x2D3 PUSH2 0x12F2 JUMP JUMPDEST PUSH1 0x40 MLOAD PUSH2 0x2E0 SWAP2 SWAP1 PUSH2 0x1670 JUMP JUMPDEST PUSH1 0x40 MLOAD DUP1 SWAP2 SUB SWAP1 RETURN JUMPDEST PUSH1 0x2 SLOAD DUP2 JUMP JUMPDEST PUSH4 0x1C320480 PUSH1 0x2 SLOAD PUSH2 0x301 SWAP2 SWAP1 PUSH2 0x16B6 JUMP JUMPDEST TIMESTAMP LT ISZERO PUSH2 0x343 JUMPI PUSH1 0x40 MLOAD PUSH32 0x8C379A000000000000000000000000000000000000000000000000000000000 DUP2 MSTORE PUSH1 0x4 ADD PUSH2 0x33A SWAP1 PUSH2 0x1743 JUMP JUMPDEST PUSH1 0x40 MLOAD DUP1 SWAP2 SUB SWAP1 REVERT JUMPDEST PUSH0 PUSH1 0x5 PUSH0 CALLER PUSH20 0xFFFFFFFFFFFFFFFFFFFFFFFFFFFFFFFFFFFFFFFF AND PUSH20 0xFFFFFFFFFFFFFFFFFFFFFFFFFFFFFFFFFFFFFFFF AND DUP2 MSTORE PUSH1 0x20 ADD SWAP1 DUP2 MSTORE PUSH1 0x20 ADD PUSH0 KECCAK256 PUSH0 ADD SLOAD GT PUSH2 0x3C4 JUMPI PUSH1 0x40 MLOAD PUSH32 0x8C379A000000000000000000000000000000000000000000000000000000000 DUP2 MSTORE PUSH1 0x4 ADD PUSH2 0x3BB SWAP1 PUSH2 0x17AB JUMP JUMPDEST PUSH1 0x40 MLOAD DUP1 SWAP2 SUB SWAP1 REVERT JUMPDEST PUSH2 0x3CC PUSH2 0x1317 JUMP JUMPDEST JUMP JUMPDEST PUSH0 DUP1 PUSH0 SWAP1 SLOAD SWAP1 PUSH2 0x100 EXP SWAP1 DIV PUSH20 0xFFFFFFFFFFFFFFFFFFFFFFFFFFFFFFFFFFFFFFFF AND PUSH20 0xFFFFFFFFFFFFFFFFFFFFFFFFFFFFFFFFFFFFFFFF AND CALLER PUSH20 0xFFFFFFFFFFFFFFFFFFFFFFFFFFFFFFFFFFFFFFFF AND EQ PUSH2 0x45D JUMPI PUSH1 0x40 MLOAD PUSH32 0x8C379A000000000000000000000000000000000000000000000000000000000 DUP2 MSTORE PUSH1 0x4 ADD PUSH2 0x454 SWAP1 PUSH2 0x1813 JUMP JUMPDEST PUSH1 0x40 MLOAD DUP1 SWAP2 SUB SWAP1 REVERT JUMPDEST PUSH1 0x5 PUSH0 DUP4 PUSH20 0xFFFFFFFFFFFFFFFFFFFFFFFFFFFFFFFFFFFFFFFF AND PUSH20 0xFFFFFFFFFFFFFFFFFFFFFFFFFFFFFFFFFFFFFFFF AND DUP2 MSTORE PUSH1 0x20 ADD SWAP1 DUP2 MSTORE PUSH1 0x20 ADD PUSH0 KECCAK256 PUSH0 ADD SLOAD SWAP1 POP SWAP2 SWAP1 POP JUMP JUMPDEST PUSH1 0x1 PUSH0 SWAP1 SLOAD SWAP1 PUSH2 0x100 EXP SWAP1 DIV PUSH20 0xFFFFFFFFFFFFFFFFFFFFFFFFFFFFFFFFFFFFFFFF AND PUSH20 0xFFFFFFFFFFFFFFFFFFFFFFFFFFFFFFFFFFFFFFFF AND CALLER PUSH20 0xFFFFFFFFFFFFFFFFFFFFFFFFFFFFFFFFFFFFFFFF AND EQ PUSH2 0x533 JUMPI PUSH1 0x40 MLOAD PUSH32 0x8C379A000000000000000000000000000000000000000000000000000000000 DUP2 MSTORE PUSH1 0x4 ADD PUSH2 0x52A SWAP1 PUSH2 0x187B JUMP JUMPDEST PUSH1 0x40 MLOAD DUP1 SWAP2 SUB SWAP1 REVERT JUMPDEST PUSH0 PUSH1 0x3 PUSH0 PUSH2 0x100 EXP DUP2 SLOAD DUP2 PUSH1 0xFF MUL NOT AND SWAP1 DUP4 ISZERO ISZERO MUL OR SWAP1 SSTORE POP PUSH32 0x5C6A09DCFCA2ED928CF8915C87912084764FF0B035328700B69D6312DCD58097 PUSH1 0x40 MLOAD PUSH1 0x40 MLOAD DUP1 SWAP2 SUB SWAP1 LOG1 JUMP JUMPDEST PUSH0 DUP1 SLOAD SWAP1 PUSH2 0x100 EXP SWAP1 DIV PUSH20 0xFFFFFFFFFFFFFFFFFFFFFFFFFFFFFFFFFFFFFFFF AND PUSH20 0xFFFFFFFFFFFFFFFFFFFFFFFFFFFFFFFFFFFFFFFF AND CALLER PUSH20 0xFFFFFFFFFFFFFFFFFFFFFFFFFFFFFFFFFFFFFFFF AND EQ PUSH2 0x607 JUMPI PUSH1 0x40 MLOAD PUSH32 0x8C379A000000000000000000000000000000000000000000000000000000000 DUP2 MSTORE PUSH1 0x4 ADD PUSH2 0x5FE SWAP1 PUSH2 0x1813 JUMP JUMPDEST PUSH1 0x40 MLOAD DUP1 SWAP2 SUB SWAP1 REVERT JUMPDEST PUSH0 SELFBALANCE SWAP1 POP PUSH0 JUMPDEST PUSH1 0x6 DUP1 SLOAD SWAP1 POP DUP2 LT ISZERO PUSH2 0x6A6 JUMPI PUSH0 PUSH1 0x5 PUSH0 PUSH1 0x6 DUP5 DUP2 SLOAD DUP2 LT PUSH2 0x632 JUMPI PUSH2 0x631 PUSH2 0x1899 JUMP JUMPDEST JUMPDEST SWAP1 PUSH0 MSTORE PUSH1 0x20 PUSH0 KECCAK256 ADD PUSH0 SWAP1 SLOAD SWAP1 PUSH2 0x100 EXP SWAP1 DIV PUSH20 0xFFFFFFFFFFFFFFFFFFFFFFFFFFFFFFFFFFFFFFFF AND PUSH20 0xFFFFFFFFFFFFFFFFFFFFFFFFFFFFFFFFFFFFFFFF AND PUSH20 0xFFFFFFFFFFFFFFFFFFFFFFFFFFFFFFFFFFFFFFFF AND DUP2 MSTORE PUSH1 0x20 ADD SWAP1 DUP2 MSTORE PUSH1 0x20 ADD PUSH0 KECCAK256 PUSH0 ADD DUP2 SWAP1 SSTORE POP DUP1 DUP1 PUSH1 0x1 ADD SWAP2 POP POP PUSH2 0x60D JUMP JUMPDEST POP PUSH0 DUP1 SLOAD SWAP1 PUSH2 0x100 EXP SWAP1 DIV PUSH20 0xFFFFFFFFFFFFFFFFFFFFFFFFFFFFFFFFFFFFFFFF AND PUSH20 0xFFFFFFFFFFFFFFFFFFFFFFFFFFFFFFFFFFFFFFFF AND PUSH2 0x8FC DUP3 SWAP1 DUP2 ISZERO MUL SWAP1 PUSH1 0x40 MLOAD PUSH0 PUSH1 0x40 MLOAD DUP1 DUP4 SUB DUP2 DUP6 DUP9 DUP9 CALL SWAP4 POP POP POP POP ISZERO DUP1 ISZERO PUSH2 0x709 JUMPI RETURNDATASIZE PUSH0 DUP1 RETURNDATACOPY RETURNDATASIZE PUSH0 REVERT JUMPDEST POP POP JUMP JUMPDEST PUSH1 0x3 PUSH0 SWAP1 SLOAD SWAP1 PUSH2 0x100 EXP SWAP1 DIV PUSH1 0xFF AND DUP2 JUMP JUMPDEST PUSH0 DUP1 SLOAD SWAP1 PUSH2 0x100 EXP SWAP1 DIV PUSH20 0xFFFFFFFFFFFFFFFFFFFFFFFFFFFFFFFFFFFFFFFF AND PUSH20 0xFFFFFFFFFFFFFFFFFFFFFFFFFFFFFFFFFFFFFFFF AND CALLER PUSH20 0xFFFFFFFFFFFFFFFFFFFFFFFFFFFFFFFFFFFFFFFF AND EQ PUSH2 0x7AC JUMPI PUSH1 0x40 MLOAD PUSH32 0x8C379A000000000000000000000000000000000000000000000000000000000 DUP2 MSTORE PUSH1 0x4 ADD PUSH2 0x7A3 SWAP1 PUSH2 0x1813 JUMP JUMPDEST PUSH1 0x40 MLOAD DUP1 SWAP2 SUB SWAP1 REVERT JUMPDEST PUSH8 0xDE0B6B3A7640000 DUP2 PUSH2 0x7C0 SWAP2 SWAP1 PUSH2 0x18C6 JUMP JUMPDEST CALLVALUE EQ PUSH2 0x801 JUMPI PUSH1 0x40 MLOAD PUSH32 0x8C379A000000000000000000000000000000000000000000000000000000000 DUP2 MSTORE PUSH1 0x4 ADD PUSH2 0x7F8 SWAP1 PUSH2 0x1951 JUMP JUMPDEST PUSH1 0x40 MLOAD DUP1 SWAP2 SUB SWAP1 REVERT JUMPDEST PUSH0 PUSH1 0x5 PUSH0 DUP5 PUSH20 0xFFFFFFFFFFFFFFFFFFFFFFFFFFFFFFFFFFFFFFFF AND PUSH20 0xFFFFFFFFFFFFFFFFFFFFFFFFFFFFFFFFFFFFFFFF AND DUP2 MSTORE PUSH1 0x20 ADD SWAP1 DUP2 MSTORE PUSH1 0x20 ADD PUSH0 KECCAK256 PUSH0 ADD SLOAD SUB PUSH2 0x8A8 JUMPI PUSH1 0x6 DUP3 SWAP1 DUP1 PUSH1 0x1 DUP2 SLOAD ADD DUP1 DUP3 SSTORE DUP1 SWAP2 POP POP PUSH1 0x1 SWAP1 SUB SWAP1 PUSH0 MSTORE PUSH1 0x20 PUSH0 KECCAK256 ADD PUSH0 SWAP1 SWAP2 SWAP1 SWAP2 SWAP1 SWAP2 PUSH2 0x100 EXP DUP2 SLOAD DUP2 PUSH20 0xFFFFFFFFFFFFFFFFFFFFFFFFFFFFFFFFFFFFFFFF MUL NOT AND SWAP1 DUP4 PUSH20 0xFFFFFFFFFFFFFFFFFFFFFFFFFFFFFFFFFFFFFFFF AND MUL OR SWAP1 SSTORE POP JUMPDEST PUSH8 0xDE0B6B3A7640000 DUP2 PUSH2 0x8BC SWAP2 SWAP1 PUSH2 0x18C6 JUMP JUMPDEST PUSH1 0x5 PUSH0 DUP5 PUSH20 0xFFFFFFFFFFFFFFFFFFFFFFFFFFFFFFFFFFFFFFFF AND PUSH20 0xFFFFFFFFFFFFFFFFFFFFFFFFFFFFFFFFFFFFFFFF AND DUP2 MSTORE PUSH1 0x20 ADD SWAP1 DUP2 MSTORE PUSH1 0x20 ADD PUSH0 KECCAK256 PUSH0 ADD PUSH0 DUP3 DUP3 SLOAD PUSH2 0x909 SWAP2 SWAP1 PUSH2 0x16B6 JUMP JUMPDEST SWAP3 POP POP DUP2 SWAP1 SSTORE POP DUP2 PUSH20 0xFFFFFFFFFFFFFFFFFFFFFFFFFFFFFFFFFFFFFFFF AND PUSH32 0x543BA50A5EEC5E6178218E364B1D0F396157B3C8FA278522C2CB7FD99407D474 PUSH8 0xDE0B6B3A7640000 DUP4 PUSH2 0x95C SWAP2 SWAP1 PUSH2 0x18C6 JUMP JUMPDEST PUSH1 0x40 MLOAD PUSH2 0x969 SWAP2 SWAP1 PUSH2 0x1524 JUMP JUMPDEST PUSH1 0x40 MLOAD DUP1 SWAP2 SUB SWAP1 LOG2 POP POP JUMP JUMPDEST PUSH0 DUP1 SLOAD SWAP1 PUSH2 0x100 EXP SWAP1 DIV PUSH20 0xFFFFFFFFFFFFFFFFFFFFFFFFFFFFFFFFFFFFFFFF AND DUP2 JUMP JUMPDEST PUSH1 0x4 SLOAD DUP2 JUMP JUMPDEST PUSH1 0x3 PUSH0 SWAP1 SLOAD SWAP1 PUSH2 0x100 EXP SWAP1 DIV PUSH1 0xFF AND DUP1 ISZERO PUSH2 0x9C9 JUMPI POP PUSH3 0x278D00 PUSH1 0x4 SLOAD PUSH2 0x9C5 SWAP2 SWAP1 PUSH2 0x16B6 JUMP JUMPDEST TIMESTAMP LT ISZERO JUMPDEST PUSH2 0xA08 JUMPI PUSH1 0x40 MLOAD PUSH32 0x8C379A000000000000000000000000000000000000000000000000000000000 DUP2 MSTORE PUSH1 0x4 ADD PUSH2 0x9FF SWAP1 PUSH2 0x19B9 JUMP JUMPDEST PUSH1 0x40 MLOAD DUP1 SWAP2 SUB SWAP1 REVERT JUMPDEST PUSH0 PUSH1 0x5 PUSH0 CALLER PUSH20 0xFFFFFFFFFFFFFFFFFFFFFFFFFFFFFFFFFFFFFFFF AND PUSH20 0xFFFFFFFFFFFFFFFFFFFFFFFFFFFFFFFFFFFFFFFF AND DUP2 MSTORE PUSH1 0x20 ADD SWAP1 DUP2 MSTORE PUSH1 0x20 ADD PUSH0 KECCAK256 PUSH0 ADD SLOAD GT PUSH2 0xA89 JUMPI PUSH1 0x40 MLOAD PUSH32 0x8C379A000000000000000000000000000000000000000000000000000000000 DUP2 MSTORE PUSH1 0x4 ADD PUSH2 0xA80 SWAP1 PUSH2 0x17AB JUMP JUMPDEST PUSH1 0x40 MLOAD DUP1 SWAP2 SUB SWAP1 REVERT JUMPDEST PUSH0 PUSH1 0x5 PUSH0 CALLER PUSH20 0xFFFFFFFFFFFFFFFFFFFFFFFFFFFFFFFFFFFFFFFF AND PUSH20 0xFFFFFFFFFFFFFFFFFFFFFFFFFFFFFFFFFFFFFFFF AND DUP2 MSTORE PUSH1 0x20 ADD SWAP1 DUP2 MSTORE PUSH1 0x20 ADD PUSH0 KECCAK256 SWAP1 POP PUSH0 DUP2 PUSH0 ADD SLOAD GT PUSH2 0xB0E JUMPI PUSH1 0x40 MLOAD PUSH32 0x8C379A000000000000000000000000000000000000000000000000000000000 DUP2 MSTORE PUSH1 0x4 ADD PUSH2 0xB05 SWAP1 PUSH2 0x1A21 JUMP JUMPDEST PUSH1 0x40 MLOAD DUP1 SWAP2 SUB SWAP1 REVERT JUMPDEST DUP1 PUSH1 0x1 ADD PUSH0 SWAP1 SLOAD SWAP1 PUSH2 0x100 EXP SWAP1 DIV PUSH1 0xFF AND ISZERO PUSH2 0xB5F JUMPI PUSH1 0x40 MLOAD PUSH32 0x8C379A000000000000000000000000000000000000000000000000000000000 DUP2 MSTORE PUSH1 0x4 ADD PUSH2 0xB56 SWAP1 PUSH2 0x1A89 JUMP JUMPDEST PUSH1 0x40 MLOAD DUP1 SWAP2 SUB SWAP1 REVERT JUMPDEST PUSH1 0x1 DUP2 PUSH1 0x1 ADD PUSH0 PUSH2 0x100 EXP DUP2 SLOAD DUP2 PUSH1 0xFF MUL NOT AND SWAP1 DUP4 ISZERO ISZERO MUL OR SWAP1 SSTORE POP PUSH0 DUP2 PUSH0 ADD SLOAD SWAP1 POP PUSH0 DUP3 PUSH0 ADD DUP2 SWAP1 SSTORE POP CALLER PUSH20 0xFFFFFFFFFFFFFFFFFFFFFFFFFFFFFFFFFFFFFFFF AND PUSH2 0x8FC DUP3 SWAP1 DUP2 ISZERO MUL SWAP1 PUSH1 0x40 MLOAD PUSH0 PUSH1 0x40 MLOAD DUP1 DUP4 SUB DUP2 DUP6 DUP9 DUP9 CALL SWAP4 POP POP POP POP ISZERO DUP1 ISZERO PUSH2 0xBCD JUMPI RETURNDATASIZE PUSH0 DUP1 RETURNDATACOPY RETURNDATASIZE PUSH0 REVERT JUMPDEST POP CALLER PUSH20 0xFFFFFFFFFFFFFFFFFFFFFFFFFFFFFFFFFFFFFFFF AND PUSH32 0x92A193F55349470137C2EAB4BD04427F216036EC3FF6BA54AED58E17337AF6A2 DUP3 PUSH1 0x40 MLOAD PUSH2 0xC14 SWAP2 SWAP1 PUSH2 0x1524 JUMP JUMPDEST PUSH1 0x40 MLOAD DUP1 SWAP2 SUB SWAP1 LOG2 POP POP JUMP JUMPDEST PUSH0 DUP1 SLOAD SWAP1 PUSH2 0x100 EXP SWAP1 DIV PUSH20 0xFFFFFFFFFFFFFFFFFFFFFFFFFFFFFFFFFFFFFFFF AND PUSH20 0xFFFFFFFFFFFFFFFFFFFFFFFFFFFFFFFFFFFFFFFF AND CALLER PUSH20 0xFFFFFFFFFFFFFFFFFFFFFFFFFFFFFFFFFFFFFFFF AND EQ PUSH2 0xCAD JUMPI PUSH1 0x40 MLOAD PUSH32 0x8C379A000000000000000000000000000000000000000000000000000000000 DUP2 MSTORE PUSH1 0x4 ADD PUSH2 0xCA4 SWAP1 PUSH2 0x1813 JUMP JUMPDEST PUSH1 0x40 MLOAD DUP1 SWAP2 SUB SWAP1 REVERT JUMPDEST PUSH8 0xDE0B6B3A7640000 DUP2 PUSH2 0xCC1 SWAP2 SWAP1 PUSH2 0x18C6 JUMP JUMPDEST PUSH1 0x5 PUSH0 DUP5 PUSH20 0xFFFFFFFFFFFFFFFFFFFFFFFFFFFFFFFFFFFFFFFF AND PUSH20 0xFFFFFFFFFFFFFFFFFFFFFFFFFFFFFFFFFFFFFFFF AND DUP2 MSTORE PUSH1 0x20 ADD SWAP1 DUP2 MSTORE PUSH1 0x20 ADD PUSH0 KECCAK256 PUSH0 ADD SLOAD LT ISZERO PUSH2 0xD42 JUMPI PUSH1 0x40 MLOAD PUSH32 0x8C379A000000000000000000000000000000000000000000000000000000000 DUP2 MSTORE PUSH1 0x4 ADD PUSH2 0xD39 SWAP1 PUSH2 0x1B17 JUMP JUMPDEST PUSH1 0x40 MLOAD DUP1 SWAP2 SUB SWAP1 REVERT JUMPDEST PUSH8 0xDE0B6B3A7640000 DUP2 PUSH2 0xD56 SWAP2 SWAP1 PUSH2 0x18C6 JUMP JUMPDEST PUSH1 0x5 PUSH0 DUP5 PUSH20 0xFFFFFFFFFFFFFFFFFFFFFFFFFFFFFFFFFFFFFFFF AND PUSH20 0xFFFFFFFFFFFFFFFFFFFFFFFFFFFFFFFFFFFFFFFF AND DUP2 MSTORE PUSH1 0x20 ADD SWAP1 DUP2 MSTORE PUSH1 0x20 ADD PUSH0 KECCAK256 PUSH0 ADD PUSH0 DUP3 DUP3 SLOAD PUSH2 0xDA3 SWAP2 SWAP1 PUSH2 0x1B35 JUMP JUMPDEST SWAP3 POP POP DUP2 SWAP1 SSTORE POP PUSH0 DUP1 SLOAD SWAP1 PUSH2 0x100 EXP SWAP1 DIV PUSH20 0xFFFFFFFFFFFFFFFFFFFFFFFFFFFFFFFFFFFFFFFF AND PUSH20 0xFFFFFFFFFFFFFFFFFFFFFFFFFFFFFFFFFFFFFFFF AND PUSH2 0x8FC PUSH8 0xDE0B6B3A7640000 DUP4 PUSH2 0xDF7 SWAP2 SWAP1 PUSH2 0x18C6 JUMP JUMPDEST SWAP1 DUP2 ISZERO MUL SWAP1 PUSH1 0x40 MLOAD PUSH0 PUSH1 0x40 MLOAD DUP1 DUP4 SUB DUP2 DUP6 DUP9 DUP9 CALL SWAP4 POP POP POP POP ISZERO DUP1 ISZERO PUSH2 0xE1F JUMPI RETURNDATASIZE PUSH0 DUP1 RETURNDATACOPY RETURNDATASIZE PUSH0 REVERT JUMPDEST POP DUP2 PUSH20 0xFFFFFFFFFFFFFFFFFFFFFFFFFFFFFFFFFFFFFFFF AND PUSH32 0xEAFF4B37086828766AD3268786972C0CD24259D4C87A80F9D3963A3C3D999B0D PUSH8 0xDE0B6B3A7640000 DUP4 PUSH2 0xE6C SWAP2 SWAP1 PUSH2 0x18C6 JUMP JUMPDEST PUSH1 0x40 MLOAD PUSH2 0xE79 SWAP2 SWAP1 PUSH2 0x1524 JUMP JUMPDEST PUSH1 0x40 MLOAD DUP1 SWAP2 SUB SWAP1 LOG2 POP POP JUMP JUMPDEST PUSH1 0x1 PUSH0 SWAP1 SLOAD SWAP1 PUSH2 0x100 EXP SWAP1 DIV PUSH20 0xFFFFFFFFFFFFFFFFFFFFFFFFFFFFFFFFFFFFFFFF AND PUSH20 0xFFFFFFFFFFFFFFFFFFFFFFFFFFFFFFFFFFFFFFFF AND CALLER PUSH20 0xFFFFFFFFFFFFFFFFFFFFFFFFFFFFFFFFFFFFFFFF AND EQ PUSH2 0xF14 JUMPI PUSH1 0x40 MLOAD PUSH32 0x8C379A000000000000000000000000000000000000000000000000000000000 DUP2 MSTORE PUSH1 0x4 ADD PUSH2 0xF0B SWAP1 PUSH2 0x187B JUMP JUMPDEST PUSH1 0x40 MLOAD DUP1 SWAP2 SUB SWAP1 REVERT JUMPDEST PUSH1 0x1 PUSH1 0x3 PUSH0 PUSH2 0x100 EXP DUP2 SLOAD DUP2 PUSH1 0xFF MUL NOT AND SWAP1 DUP4 ISZERO ISZERO MUL OR SWAP1 SSTORE POP TIMESTAMP PUSH1 0x4 DUP2 SWAP1 SSTORE POP PUSH32 0xC208C6F0E4585E3EF24E22A8E6634AC1F5EC94E12E644F1042279B71D8AA893B PUSH1 0x40 MLOAD PUSH1 0x40 MLOAD DUP1 SWAP2 SUB SWAP1 LOG1 JUMP JUMPDEST PUSH0 DUP1 SLOAD SWAP1 PUSH2 0x100 EXP SWAP1 DIV PUSH20 0xFFFFFFFFFFFFFFFFFFFFFFFFFFFFFFFFFFFFFFFF AND PUSH20 0xFFFFFFFFFFFFFFFFFFFFFFFFFFFFFFFFFFFFFFFF AND CALLER PUSH20 0xFFFFFFFFFFFFFFFFFFFFFFFFFFFFFFFFFFFFFFFF AND EQ PUSH2 0xFF0 JUMPI PUSH1 0x40 MLOAD PUSH32 0x8C379A000000000000000000000000000000000000000000000000000000000 DUP2 MSTORE PUSH1 0x4 ADD PUSH2 0xFE7 SWAP1 PUSH2 0x1813 JUMP JUMPDEST PUSH1 0x40 MLOAD DUP1 SWAP2 SUB SWAP1 REVERT JUMPDEST DUP1 PUSH1 0x1 PUSH0 PUSH2 0x100 EXP DUP2 SLOAD DUP2 PUSH20 0xFFFFFFFFFFFFFFFFFFFFFFFFFFFFFFFFFFFFFFFF MUL NOT AND SWAP1 DUP4 PUSH20 0xFFFFFFFFFFFFFFFFFFFFFFFFFFFFFFFFFFFFFFFF AND MUL OR SWAP1 SSTORE POP POP JUMP JUMPDEST PUSH4 0x12CC0300 PUSH1 0x2 SLOAD PUSH2 0x1045 SWAP2 SWAP1 PUSH2 0x16B6 JUMP JUMPDEST TIMESTAMP LT ISZERO PUSH2 0x1087 JUMPI PUSH1 0x40 MLOAD PUSH32 0x8C379A000000000000000000000000000000000000000000000000000000000 DUP2 MSTORE PUSH1 0x4 ADD PUSH2 0x107E SWAP1 PUSH2 0x1BB2 JUMP JUMPDEST PUSH1 0x40 MLOAD DUP1 SWAP2 SUB SWAP1 REVERT JUMPDEST PUSH0 PUSH1 0x5 PUSH0 CALLER PUSH20 0xFFFFFFFFFFFFFFFFFFFFFFFFFFFFFFFFFFFFFFFF AND PUSH20 0xFFFFFFFFFFFFFFFFFFFFFFFFFFFFFFFFFFFFFFFF AND DUP2 MSTORE PUSH1 0x20 ADD SWAP1 DUP2 MSTORE PUSH1 0x20 ADD PUSH0 KECCAK256 PUSH0 ADD SLOAD GT PUSH2 0x1108 JUMPI PUSH1 0x40 MLOAD PUSH32 0x8C379A000000000000000000000000000000000000000000000000000000000 DUP2 MSTORE PUSH1 0x4 ADD PUSH2 0x10FF SWAP1 PUSH2 0x17AB JUMP JUMPDEST PUSH1 0x40 MLOAD DUP1 SWAP2 SUB SWAP1 REVERT JUMPDEST PUSH0 DUP1 PUSH0 JUMPDEST PUSH1 0x6 DUP1 SLOAD SWAP1 POP DUP2 LT ISZERO PUSH2 0x1253 JUMPI PUSH0 PUSH1 0x5 PUSH0 PUSH1 0x6 DUP5 DUP2 SLOAD DUP2 LT PUSH2 0x1131 JUMPI PUSH2 0x1130 PUSH2 0x1899 JUMP JUMPDEST JUMPDEST SWAP1 PUSH0 MSTORE PUSH1 0x20 PUSH0 KECCAK256 ADD PUSH0 SWAP1 SLOAD SWAP1 PUSH2 0x100 EXP SWAP1 DIV PUSH20 0xFFFFFFFFFFFFFFFFFFFFFFFFFFFFFFFFFFFFFFFF AND PUSH20 0xFFFFFFFFFFFFFFFFFFFFFFFFFFFFFFFFFFFFFFFF AND PUSH20 0xFFFFFFFFFFFFFFFFFFFFFFFFFFFFFFFFFFFFFFFF AND DUP2 MSTORE PUSH1 0x20 ADD SWAP1 DUP2 MSTORE PUSH1 0x20 ADD PUSH0 KECCAK256 PUSH0 ADD SLOAD GT ISZERO PUSH2 0x1246 JUMPI DUP3 DUP1 PUSH2 0x11A6 SWAP1 PUSH2 0x1BD0 JUMP JUMPDEST SWAP4 POP POP PUSH1 0x5 PUSH0 PUSH1 0x6 DUP4 DUP2 SLOAD DUP2 LT PUSH2 0x11C0 JUMPI PUSH2 0x11BF PUSH2 0x1899 JUMP JUMPDEST JUMPDEST SWAP1 PUSH0 MSTORE PUSH1 0x20 PUSH0 KECCAK256 ADD PUSH0 SWAP1 SLOAD SWAP1 PUSH2 0x100 EXP SWAP1 DIV PUSH20 0xFFFFFFFFFFFFFFFFFFFFFFFFFFFFFFFFFFFFFFFF AND PUSH20 0xFFFFFFFFFFFFFFFFFFFFFFFFFFFFFFFFFFFFFFFF AND PUSH20 0xFFFFFFFFFFFFFFFFFFFFFFFFFFFFFFFFFFFFFFFF AND DUP2 MSTORE PUSH1 0x20 ADD SWAP1 DUP2 MSTORE PUSH1 0x20 ADD PUSH0 KECCAK256 PUSH1 0x1 ADD PUSH0 SWAP1 SLOAD SWAP1 PUSH2 0x100 EXP SWAP1 DIV PUSH1 0xFF AND ISZERO PUSH2 0x1245 JUMPI DUP2 DUP1 PUSH2 0x1241 SWAP1 PUSH2 0x1BD0 JUMP JUMPDEST SWAP3 POP POP JUMPDEST JUMPDEST DUP1 DUP1 PUSH1 0x1 ADD SWAP2 POP POP PUSH2 0x110C JUMP JUMPDEST POP PUSH1 0x2 DUP3 GT PUSH2 0x1297 JUMPI PUSH1 0x40 MLOAD PUSH32 0x8C379A000000000000000000000000000000000000000000000000000000000 DUP2 MSTORE PUSH1 0x4 ADD PUSH2 0x128E SWAP1 PUSH2 0x1C61 JUMP JUMPDEST PUSH1 0x40 MLOAD DUP1 SWAP2 SUB SWAP1 REVERT JUMPDEST DUP2 PUSH1 0x2 DUP3 PUSH2 0x12A5 SWAP2 SWAP1 PUSH2 0x18C6 JUMP JUMPDEST LT ISZERO PUSH2 0x12E6 JUMPI PUSH1 0x40 MLOAD PUSH32 0x8C379A000000000000000000000000000000000000000000000000000000000 DUP2 MSTORE PUSH1 0x4 ADD PUSH2 0x12DD SWAP1 PUSH2 0x1CC9 JUMP JUMPDEST PUSH1 0x40 MLOAD DUP1 SWAP2 SUB SWAP1 REVERT JUMPDEST PUSH2 0x12EE PUSH2 0x1317 JUMP JUMPDEST POP POP JUMP JUMPDEST PUSH1 0x1 PUSH0 SWAP1 SLOAD SWAP1 PUSH2 0x100 EXP SWAP1 DIV PUSH20 0xFFFFFFFFFFFFFFFFFFFFFFFFFFFFFFFFFFFFFFFF AND DUP2 JUMP JUMPDEST PUSH0 JUMPDEST PUSH1 0x6 DUP1 SLOAD SWAP1 POP DUP2 LT ISZERO PUSH2 0x1509 JUMPI PUSH0 PUSH1 0x5 PUSH0 PUSH1 0x6 DUP5 DUP2 SLOAD DUP2 LT PUSH2 0x133E JUMPI PUSH2 0x133D PUSH2 0x1899 JUMP JUMPDEST JUMPDEST SWAP1 PUSH0 MSTORE PUSH1 0x20 PUSH0 KECCAK256 ADD PUSH0 SWAP1 SLOAD SWAP1 PUSH2 0x100 EXP SWAP1 DIV PUSH20 0xFFFFFFFFFFFFFFFFFFFFFFFFFFFFFFFFFFFFFFFF AND PUSH20 0xFFFFFFFFFFFFFFFFFFFFFFFFFFFFFFFFFFFFFFFF AND PUSH20 0xFFFFFFFFFFFFFFFFFFFFFFFFFFFFFFFFFFFFFFFF AND DUP2 MSTORE PUSH1 0x20 ADD SWAP1 DUP2 MSTORE PUSH1 0x20 ADD PUSH0 KECCAK256 SWAP1 POP PUSH0 DUP2 PUSH0 ADD SLOAD GT DUP1 ISZERO PUSH2 0x13C1 JUMPI POP DUP1 PUSH1 0x1 ADD PUSH0 SWAP1 SLOAD SWAP1 PUSH2 0x100 EXP SWAP1 DIV PUSH1 0xFF AND ISZERO JUMPDEST ISZERO PUSH2 0x14FB JUMPI PUSH0 DUP2 PUSH0 ADD SLOAD SWAP1 POP PUSH0 DUP3 PUSH0 ADD DUP2 SWAP1 SSTORE POP PUSH1 0x1 DUP3 PUSH1 0x1 ADD PUSH0 PUSH2 0x100 EXP DUP2 SLOAD DUP2 PUSH1 0xFF MUL NOT AND SWAP1 DUP4 ISZERO ISZERO MUL OR SWAP1 SSTORE POP PUSH1 0x6 DUP4 DUP2 SLOAD DUP2 LT PUSH2 0x1405 JUMPI PUSH2 0x1404 PUSH2 0x1899 JUMP JUMPDEST JUMPDEST SWAP1 PUSH0 MSTORE PUSH1 0x20 PUSH0 KECCAK256 ADD PUSH0 SWAP1 SLOAD SWAP1 PUSH2 0x100 EXP SWAP1 DIV PUSH20 0xFFFFFFFFFFFFFFFFFFFFFFFFFFFFFFFFFFFFFFFF AND PUSH20 0xFFFFFFFFFFFFFFFFFFFFFFFFFFFFFFFFFFFFFFFF AND PUSH2 0x8FC DUP3 SWAP1 DUP2 ISZERO MUL SWAP1 PUSH1 0x40 MLOAD PUSH0 PUSH1 0x40 MLOAD DUP1 DUP4 SUB DUP2 DUP6 DUP9 DUP9 CALL SWAP4 POP POP POP POP ISZERO DUP1 ISZERO PUSH2 0x146F JUMPI RETURNDATASIZE PUSH0 DUP1 RETURNDATACOPY RETURNDATASIZE PUSH0 REVERT JUMPDEST POP PUSH1 0x6 DUP4 DUP2 SLOAD DUP2 LT PUSH2 0x1484 JUMPI PUSH2 0x1483 PUSH2 0x1899 JUMP JUMPDEST JUMPDEST SWAP1 PUSH0 MSTORE PUSH1 0x20 PUSH0 KECCAK256 ADD PUSH0 SWAP1 SLOAD SWAP1 PUSH2 0x100 EXP SWAP1 DIV PUSH20 0xFFFFFFFFFFFFFFFFFFFFFFFFFFFFFFFFFFFFFFFF AND PUSH20 0xFFFFFFFFFFFFFFFFFFFFFFFFFFFFFFFFFFFFFFFF AND PUSH32 0x92A193F55349470137C2EAB4BD04427F216036EC3FF6BA54AED58E17337AF6A2 DUP3 PUSH1 0x40 MLOAD PUSH2 0x14F1 SWAP2 SWAP1 PUSH2 0x1524 JUMP JUMPDEST PUSH1 0x40 MLOAD DUP1 SWAP2 SUB SWAP1 LOG2 POP JUMPDEST POP DUP1 DUP1 PUSH1 0x1 ADD SWAP2 POP POP PUSH2 0x1319 JUMP JUMPDEST POP JUMP JUMPDEST PUSH0 DUP2 SWAP1 POP SWAP2 SWAP1 POP JUMP JUMPDEST PUSH2 0x151E DUP2 PUSH2 0x150C JUMP JUMPDEST DUP3 MSTORE POP POP JUMP JUMPDEST PUSH0 PUSH1 0x20 DUP3 ADD SWAP1 POP PUSH2 0x1537 PUSH0 DUP4 ADD DUP5 PUSH2 0x1515 JUMP JUMPDEST SWAP3 SWAP2 POP POP JUMP JUMPDEST PUSH0 DUP1 REVERT JUMPDEST PUSH0 PUSH20 0xFFFFFFFFFFFFFFFFFFFFFFFFFFFFFFFFFFFFFFFF DUP3 AND SWAP1 POP SWAP2 SWAP1 POP JUMP JUMPDEST PUSH0 PUSH2 0x156A DUP3 PUSH2 0x1541 JUMP JUMPDEST SWAP1 POP SWAP2 SWAP1 POP JUMP JUMPDEST PUSH2 0x157A DUP2 PUSH2 0x1560 JUMP JUMPDEST DUP2 EQ PUSH2 0x1584 JUMPI PUSH0 DUP1 REVERT JUMPDEST POP JUMP JUMPDEST PUSH0 DUP2 CALLDATALOAD SWAP1 POP PUSH2 0x1595 DUP2 PUSH2 0x1571 JUMP JUMPDEST SWAP3 SWAP2 POP POP JUMP JUMPDEST PUSH0 PUSH1 0x20 DUP3 DUP5 SUB SLT ISZERO PUSH2 0x15B0 JUMPI PUSH2 0x15AF PUSH2 0x153D JUMP JUMPDEST JUMPDEST PUSH0 PUSH2 0x15BD DUP5 DUP3 DUP6 ADD PUSH2 0x1587 JUMP JUMPDEST SWAP2 POP POP SWAP3 SWAP2 POP POP JUMP JUMPDEST PUSH0 DUP2 ISZERO ISZERO SWAP1 POP SWAP2 SWAP1 POP JUMP JUMPDEST PUSH2 0x15DA DUP2 PUSH2 0x15C6 JUMP JUMPDEST DUP3 MSTORE POP POP JUMP JUMPDEST PUSH0 PUSH1 0x20 DUP3 ADD SWAP1 POP PUSH2 0x15F3 PUSH0 DUP4 ADD DUP5 PUSH2 0x15D1 JUMP JUMPDEST SWAP3 SWAP2 POP POP JUMP JUMPDEST PUSH2 0x1602 DUP2 PUSH2 0x150C JUMP JUMPDEST DUP2 EQ PUSH2 0x160C JUMPI PUSH0 DUP1 REVERT JUMPDEST POP JUMP JUMPDEST PUSH0 DUP2 CALLDATALOAD SWAP1 POP PUSH2 0x161D DUP2 PUSH2 0x15F9 JUMP JUMPDEST SWAP3 SWAP2 POP POP JUMP JUMPDEST PUSH0 DUP1 PUSH1 0x40 DUP4 DUP6 SUB SLT ISZERO PUSH2 0x1639 JUMPI PUSH2 0x1638 PUSH2 0x153D JUMP JUMPDEST JUMPDEST PUSH0 PUSH2 0x1646 DUP6 DUP3 DUP7 ADD PUSH2 0x1587 JUMP JUMPDEST SWAP3 POP POP PUSH1 0x20 PUSH2 0x1657 DUP6 DUP3 DUP7 ADD PUSH2 0x160F JUMP JUMPDEST SWAP2 POP POP SWAP3 POP SWAP3 SWAP1 POP JUMP JUMPDEST PUSH2 0x166A DUP2 PUSH2 0x1560 JUMP JUMPDEST DUP3 MSTORE POP POP JUMP JUMPDEST PUSH0 PUSH1 0x20 DUP3 ADD SWAP1 POP PUSH2 0x1683 PUSH0 DUP4 ADD DUP5 PUSH2 0x1661 JUMP JUMPDEST SWAP3 SWAP2 POP POP JUMP JUMPDEST PUSH32 0x4E487B7100000000000000000000000000000000000000000000000000000000 PUSH0 MSTORE PUSH1 0x11 PUSH1 0x4 MSTORE PUSH1 0x24 PUSH0 REVERT JUMPDEST PUSH0 PUSH2 0x16C0 DUP3 PUSH2 0x150C JUMP JUMPDEST SWAP2 POP PUSH2 0x16CB DUP4 PUSH2 0x150C JUMP JUMPDEST SWAP3 POP DUP3 DUP3 ADD SWAP1 POP DUP1 DUP3 GT ISZERO PUSH2 0x16E3 JUMPI PUSH2 0x16E2 PUSH2 0x1689 JUMP JUMPDEST JUMPDEST SWAP3 SWAP2 POP POP JUMP JUMPDEST PUSH0 DUP3 DUP3 MSTORE PUSH1 0x20 DUP3 ADD SWAP1 POP SWAP3 SWAP2 POP POP JUMP JUMPDEST PUSH32 0x31352079656172732068617665206E6F74207061737365642E00000000000000 PUSH0 DUP3 ADD MSTORE POP JUMP JUMPDEST PUSH0 PUSH2 0x172D PUSH1 0x19 DUP4 PUSH2 0x16E9 JUMP JUMPDEST SWAP2 POP PUSH2 0x1738 DUP3 PUSH2 0x16F9 JUMP JUMPDEST PUSH1 0x20 DUP3 ADD SWAP1 POP SWAP2 SWAP1 POP JUMP JUMPDEST PUSH0 PUSH1 0x20 DUP3 ADD SWAP1 POP DUP2 DUP2 SUB PUSH0 DUP4 ADD MSTORE PUSH2 0x175A DUP2 PUSH2 0x1721 JUMP JUMPDEST SWAP1 POP SWAP2 SWAP1 POP JUMP JUMPDEST PUSH32 0x596F7520617265206E6F7420616E20686569722E000000000000000000000000 PUSH0 DUP3 ADD MSTORE POP JUMP JUMPDEST PUSH0 PUSH2 0x1795 PUSH1 0x14 DUP4 PUSH2 0x16E9 JUMP JUMPDEST SWAP2 POP PUSH2 0x17A0 DUP3 PUSH2 0x1761 JUMP JUMPDEST PUSH1 0x20 DUP3 ADD SWAP1 POP SWAP2 SWAP1 POP JUMP JUMPDEST PUSH0 PUSH1 0x20 DUP3 ADD SWAP1 POP DUP2 DUP2 SUB PUSH0 DUP4 ADD MSTORE PUSH2 0x17C2 DUP2 PUSH2 0x1789 JUMP JUMPDEST SWAP1 POP SWAP2 SWAP1 POP JUMP JUMPDEST PUSH32 0x596F7520617265206E6F742061206772616E646D6F746865722E000000000000 PUSH0 DUP3 ADD MSTORE POP JUMP JUMPDEST PUSH0 PUSH2 0x17FD PUSH1 0x1A DUP4 PUSH2 0x16E9 JUMP JUMPDEST SWAP2 POP PUSH2 0x1808 DUP3 PUSH2 0x17C9 JUMP JUMPDEST PUSH1 0x20 DUP3 ADD SWAP1 POP SWAP2 SWAP1 POP JUMP JUMPDEST PUSH0 PUSH1 0x20 DUP3 ADD SWAP1 POP DUP2 DUP2 SUB PUSH0 DUP4 ADD MSTORE PUSH2 0x182A DUP2 PUSH2 0x17F1 JUMP JUMPDEST SWAP1 POP SWAP2 SWAP1 POP JUMP JUMPDEST PUSH32 0x596F7520617265206E6F74206120747275737465652E00000000000000000000 PUSH0 DUP3 ADD MSTORE POP JUMP JUMPDEST PUSH0 PUSH2 0x1865 PUSH1 0x16 DUP4 PUSH2 0x16E9 JUMP JUMPDEST SWAP2 POP PUSH2 0x1870 DUP3 PUSH2 0x1831 JUMP JUMPDEST PUSH1 0x20 DUP3 ADD SWAP1 POP SWAP2 SWAP1 POP JUMP JUMPDEST PUSH0 PUSH1 0x20 DUP3 ADD SWAP1 POP DUP2 DUP2 SUB PUSH0 DUP4 ADD MSTORE PUSH2 0x1892 DUP2 PUSH2 0x1859 JUMP JUMPDEST SWAP1 POP SWAP2 SWAP1 POP JUMP JUMPDEST PUSH32 0x4E487B7100000000000000000000000000000000000000000000000000000000 PUSH0 MSTORE PUSH1 0x32 PUSH1 0x4 MSTORE PUSH1 0x24 PUSH0 REVERT JUMPDEST PUSH0 PUSH2 0x18D0 DUP3 PUSH2 0x150C JUMP JUMPDEST SWAP2 POP PUSH2 0x18DB DUP4 PUSH2 0x150C JUMP JUMPDEST SWAP3 POP DUP3 DUP3 MUL PUSH2 0x18E9 DUP2 PUSH2 0x150C JUMP JUMPDEST SWAP2 POP DUP3 DUP3 DIV DUP5 EQ DUP4 ISZERO OR PUSH2 0x1900 JUMPI PUSH2 0x18FF PUSH2 0x1689 JUMP JUMPDEST JUMPDEST POP SWAP3 SWAP2 POP POP JUMP JUMPDEST PUSH32 0x496E636F72726563742045746865722076616C75652073656E74000000000000 PUSH0 DUP3 ADD MSTORE POP JUMP JUMPDEST PUSH0 PUSH2 0x193B PUSH1 0x1A DUP4 PUSH2 0x16E9 JUMP JUMPDEST SWAP2 POP PUSH2 0x1946 DUP3 PUSH2 0x1907 JUMP JUMPDEST PUSH1 0x20 DUP3 ADD SWAP1 POP SWAP2 SWAP1 POP JUMP JUMPDEST PUSH0 PUSH1 0x20 DUP3 ADD SWAP1 POP DUP2 DUP2 SUB PUSH0 DUP4 ADD MSTORE PUSH2 0x1968 DUP2 PUSH2 0x192F JUMP JUMPDEST SWAP1 POP SWAP2 SWAP1 POP JUMP JUMPDEST PUSH32 0x333020646179732068617665206E6F74207061737365642E0000000000000000 PUSH0 DUP3 ADD MSTORE POP JUMP JUMPDEST PUSH0 PUSH2 0x19A3 PUSH1 0x18 DUP4 PUSH2 0x16E9 JUMP JUMPDEST SWAP2 POP PUSH2 0x19AE DUP3 PUSH2 0x196F JUMP JUMPDEST PUSH1 0x20 DUP3 ADD SWAP1 POP SWAP2 SWAP1 POP JUMP JUMPDEST PUSH0 PUSH1 0x20 DUP3 ADD SWAP1 POP DUP2 DUP2 SUB PUSH0 DUP4 ADD MSTORE PUSH2 0x19D0 DUP2 PUSH2 0x1997 JUMP JUMPDEST SWAP1 POP SWAP2 SWAP1 POP JUMP JUMPDEST PUSH32 0x4E6F20696E6865726974616E636520616C6C6F63617465640000000000000000 PUSH0 DUP3 ADD MSTORE POP JUMP JUMPDEST PUSH0 PUSH2 0x1A0B PUSH1 0x18 DUP4 PUSH2 0x16E9 JUMP JUMPDEST SWAP2 POP PUSH2 0x1A16 DUP3 PUSH2 0x19D7 JUMP JUMPDEST PUSH1 0x20 DUP3 ADD SWAP1 POP SWAP2 SWAP1 POP JUMP JUMPDEST PUSH0 PUSH1 0x20 DUP3 ADD SWAP1 POP DUP2 DUP2 SUB PUSH0 DUP4 ADD MSTORE PUSH2 0x1A38 DUP2 PUSH2 0x19FF JUMP JUMPDEST SWAP1 POP SWAP2 SWAP1 POP JUMP JUMPDEST PUSH32 0x496E6865726974616E636520616C726561647920636C61696D65640000000000 PUSH0 DUP3 ADD MSTORE POP JUMP JUMPDEST PUSH0 PUSH2 0x1A73 PUSH1 0x1B DUP4 PUSH2 0x16E9 JUMP JUMPDEST SWAP2 POP PUSH2 0x1A7E DUP3 PUSH2 0x1A3F JUMP JUMPDEST PUSH1 0x20 DUP3 ADD SWAP1 POP SWAP2 SWAP1 POP JUMP JUMPDEST PUSH0 PUSH1 0x20 DUP3 ADD SWAP1 POP DUP2 DUP2 SUB PUSH0 DUP4 ADD MSTORE PUSH2 0x1AA0 DUP2 PUSH2 0x1A67 JUMP JUMPDEST SWAP1 POP SWAP2 SWAP1 POP JUMP JUMPDEST PUSH32 0x5468652068656972206861766520696E73756666696369656E74204574686572 PUSH0 DUP3 ADD MSTORE PUSH32 0x2E00000000000000000000000000000000000000000000000000000000000000 PUSH1 0x20 DUP3 ADD MSTORE POP JUMP JUMPDEST PUSH0 PUSH2 0x1B01 PUSH1 0x21 DUP4 PUSH2 0x16E9 JUMP JUMPDEST SWAP2 POP PUSH2 0x1B0C DUP3 PUSH2 0x1AA7 JUMP JUMPDEST PUSH1 0x40 DUP3 ADD SWAP1 POP SWAP2 SWAP1 POP JUMP JUMPDEST PUSH0 PUSH1 0x20 DUP3 ADD SWAP1 POP DUP2 DUP2 SUB PUSH0 DUP4 ADD MSTORE PUSH2 0x1B2E DUP2 PUSH2 0x1AF5 JUMP JUMPDEST SWAP1 POP SWAP2 SWAP1 POP JUMP JUMPDEST PUSH0 PUSH2 0x1B3F DUP3 PUSH2 0x150C JUMP JUMPDEST SWAP2 POP PUSH2 0x1B4A DUP4 PUSH2 0x150C JUMP JUMPDEST SWAP3 POP DUP3 DUP3 SUB SWAP1 POP DUP2 DUP2 GT ISZERO PUSH2 0x1B62 JUMPI PUSH2 0x1B61 PUSH2 0x1689 JUMP JUMPDEST JUMPDEST SWAP3 SWAP2 POP POP JUMP JUMPDEST PUSH32 0x31302079656172732068617665206E6F74207061737365642E00000000000000 PUSH0 DUP3 ADD MSTORE POP JUMP JUMPDEST PUSH0 PUSH2 0x1B9C PUSH1 0x19 DUP4 PUSH2 0x16E9 JUMP JUMPDEST SWAP2 POP PUSH2 0x1BA7 DUP3 PUSH2 0x1B68 JUMP JUMPDEST PUSH1 0x20 DUP3 ADD SWAP1 POP SWAP2 SWAP1 POP JUMP JUMPDEST PUSH0 PUSH1 0x20 DUP3 ADD SWAP1 POP DUP2 DUP2 SUB PUSH0 DUP4 ADD MSTORE PUSH2 0x1BC9 DUP2 PUSH2 0x1B90 JUMP JUMPDEST SWAP1 POP SWAP2 SWAP1 POP JUMP JUMPDEST PUSH0 PUSH2 0x1BDA DUP3 PUSH2 0x150C JUMP JUMPDEST SWAP2 POP PUSH32 0xFFFFFFFFFFFFFFFFFFFFFFFFFFFFFFFFFFFFFFFFFFFFFFFFFFFFFFFFFFFFFFFF DUP3 SUB PUSH2 0x1C0C JUMPI PUSH2 0x1C0B PUSH2 0x1689 JUMP JUMPDEST JUMPDEST PUSH1 0x1 DUP3 ADD SWAP1 POP SWAP2 SWAP1 POP JUMP JUMPDEST PUSH32 0x4E6F7420656E6F75676820686569727300000000000000000000000000000000 PUSH0 DUP3 ADD MSTORE POP JUMP JUMPDEST PUSH0 PUSH2 0x1C4B PUSH1 0x10 DUP4 PUSH2 0x16E9 JUMP JUMPDEST SWAP2 POP PUSH2 0x1C56 DUP3 PUSH2 0x1C17 JUMP JUMPDEST PUSH1 0x20 DUP3 ADD SWAP1 POP SWAP2 SWAP1 POP JUMP JUMPDEST PUSH0 PUSH1 0x20 DUP3 ADD SWAP1 POP DUP2 DUP2 SUB PUSH0 DUP4 ADD MSTORE PUSH2 0x1C78 DUP2 PUSH2 0x1C3F JUMP JUMPDEST SWAP1 POP SWAP2 SWAP1 POP JUMP JUMPDEST PUSH32 0x496E73756666696369656E7420636F6E73656E73757300000000000000000000 PUSH0 DUP3 ADD MSTORE POP JUMP JUMPDEST PUSH0 PUSH2 0x1CB3 PUSH1 0x16 DUP4 PUSH2 0x16E9 JUMP JUMPDEST SWAP2 POP PUSH2 0x1CBE DUP3 PUSH2 0x1C7F JUMP JUMPDEST PUSH1 0x20 DUP3 ADD SWAP1 POP SWAP2 SWAP1 POP JUMP JUMPDEST PUSH0 PUSH1 0x20 DUP3 ADD SWAP1 POP DUP2 DUP2 SUB PUSH0 DUP4 ADD MSTORE PUSH2 0x1CE0 DUP2 PUSH2 0x1CA7 JUMP JUMPDEST SWAP1 POP SWAP2 SWAP1 POP JUMP INVALID LOG2 PUSH5 0x6970667358 0x22 SLT KECCAK256 PUSH11 0x6AA2C16C161272C0448654 SWAP8 0xB4 BASEFEE SWAP9 CALLCODE ADD TLOAD EXP MSTORE 0x21 0x2D TIMESTAMP PUSH12 0x40F4A9DB29DAA064736F6C63 NUMBER STOP ADDMOD BYTE STOP CALLER "
				},
				"gasEstimates": {
					"creation": {
						"codeDepositCost": "1490600",
						"executionCost": "47931",
						"totalCost": "1538531"
					},
					"external": {
						"cancelDeathNotification()": "27377",
						"claimInheritance()": "infinite",
						"contractStartTime()": "2449",
						"deathNotificationTime()": "2470",
						"deathNotified()": "2533",
						"depositFunds(address,uint256)": "infinite",
						"grandmother()": "2528",
						"initiateInheritanceAfter15Years()": "infinite",
						"initiateInheritanceWithConsensus()": "infinite",
						"notifyDeath()": "49490",
						"setTrustee(address)": "26925",
						"trustee()": "2596",
						"viewHeirAllocation(address)": "5071",
						"withdrawAll()": "infinite",
						"withdrawFunds(address,uint256)": "infinite"
					},
					"internal": {
						"distributeFunds()": "infinite"
					}
				},
				"methodIdentifiers": {
					"cancelDeathNotification()": "6352849f",
					"claimInheritance()": "9f3c4416",
					"contractStartTime()": "0c3d5157",
					"deathNotificationTime()": "93fbbe0e",
					"deathNotified()": "904dbc86",
					"depositFunds(address,uint256)": "921b004b",
					"grandmother()": "9393d82e",
					"initiateInheritanceAfter15Years()": "47e88ce4",
					"initiateInheritanceWithConsensus()": "ebc392ec",
					"notifyDeath()": "c19f4121",
					"setTrustee(address)": "d0d1ea70",
					"trustee()": "fdf97cb2",
					"viewHeirAllocation(address)": "4f4ae41b",
					"withdrawAll()": "853828b6",
					"withdrawFunds(address,uint256)": "c1075329"
				}
			},
			"storageLayout": {
				"storage": [
					{
						"astId": 3,
						"contract": "9 занятие/Завещание.sol:Bequest",
						"label": "grandmother",
						"offset": 0,
						"slot": "0",
						"type": "t_address"
					},
					{
						"astId": 5,
						"contract": "9 занятие/Завещание.sol:Bequest",
						"label": "trustee",
						"offset": 0,
						"slot": "1",
						"type": "t_address"
					},
					{
						"astId": 7,
						"contract": "9 занятие/Завещание.sol:Bequest",
						"label": "contractStartTime",
						"offset": 0,
						"slot": "2",
						"type": "t_uint256"
					},
					{
						"astId": 9,
						"contract": "9 занятие/Завещание.sol:Bequest",
						"label": "deathNotified",
						"offset": 0,
						"slot": "3",
						"type": "t_bool"
					},
					{
						"astId": 11,
						"contract": "9 занятие/Завещание.sol:Bequest",
						"label": "deathNotificationTime",
						"offset": 0,
						"slot": "4",
						"type": "t_uint256"
					},
					{
						"astId": 21,
						"contract": "9 занятие/Завещание.sol:Bequest",
						"label": "heirs",
						"offset": 0,
						"slot": "5",
						"type": "t_mapping(t_address,t_struct(Heir)16_storage)"
					},
					{
						"astId": 24,
						"contract": "9 занятие/Завещание.sol:Bequest",
						"label": "heirAddresses",
						"offset": 0,
						"slot": "6",
						"type": "t_array(t_address)dyn_storage"
					}
				],
				"types": {
					"t_address": {
						"encoding": "inplace",
						"label": "address",
						"numberOfBytes": "20"
					},
					"t_array(t_address)dyn_storage": {
						"base": "t_address",
						"encoding": "dynamic_array",
						"label": "address[]",
						"numberOfBytes": "32"
					},
					"t_bool": {
						"encoding": "inplace",
						"label": "bool",
						"numberOfBytes": "1"
					},
					"t_mapping(t_address,t_struct(Heir)16_storage)": {
						"encoding": "mapping",
						"key": "t_address",
						"label": "mapping(address => struct Bequest.Heir)",
						"numberOfBytes": "32",
						"value": "t_struct(Heir)16_storage"
					},
					"t_struct(Heir)16_storage": {
						"encoding": "inplace",
						"label": "struct Bequest.Heir",
						"members": [
							{
								"astId": 13,
								"contract": "9 занятие/Завещание.sol:Bequest",
								"label": "amount",
								"offset": 0,
								"slot": "0",
								"type": "t_uint256"
							},
							{
								"astId": 15,
								"contract": "9 занятие/Завещание.sol:Bequest",
								"label": "hasClaimed",
								"offset": 0,
								"slot": "1",
								"type": "t_bool"
							}
						],
						"numberOfBytes": "64"
					},
					"t_uint256": {
						"encoding": "inplace",
						"label": "uint256",
						"numberOfBytes": "32"
					}
				}
			},
			"userdoc": {
				"kind": "user",
				"methods": {},
				"version": 1
			}
		}
	}
}