{
	"data": {
		"bytecode": {
			"linkReferences": {},
			"object": "6080604052348015600e575f80fd5b50335f806101000a81548173ffffffffffffffffffffffffffffffffffffffff021916908373ffffffffffffffffffffffffffffffffffffffff1602179055506113388061005b5f395ff3fe60806040526004361061009f575f3560e01c80638958508311610063578063895850831461016e578063d33ce61a14610196578063d59624b4146101c0578063d7ccfb0b146101ea578063e84a011a14610214578063f263c4701461022a576100a6565b8063108c52a7146100aa5780631d143848146100e65780633d31841b146101105780635216aeec1461011a5780637c3a00fd14610144576100a6565b366100a657005b5f80fd5b3480156100b5575f80fd5b506100d060048036038101906100cb91906109c1565b610254565b6040516100dd9190610a04565b60405180910390f35b3480156100f1575f80fd5b506100fa610269565b6040516101079190610a2c565b60405180910390f35b61011861028c565b005b348015610125575f80fd5b5061012e61047e565b60405161013b9190610a04565b60405180910390f35b34801561014f575f80fd5b50610158610484565b6040516101659190610a04565b60405180910390f35b348015610179575f80fd5b50610194600480360381019061018f9190610a6f565b61048a565b005b3480156101a1575f80fd5b506101aa610702565b6040516101b79190610aed565b60405180910390f35b3480156101cb575f80fd5b506101d4610714565b6040516101e19190610a04565b60405180910390f35b3480156101f5575f80fd5b506101fe61071a565b60405161020b9190610a04565b60405180910390f35b34801561021f575f80fd5b50610228610720565b005b348015610235575f80fd5b5061023e61095d565b60405161024b9190610a04565b60405180910390f35b6007602052805f5260405f205f915090505481565b5f8054906101000a900473ffffffffffffffffffffffffffffffffffffffff1681565b60045442106102d0576040517f08c379a00000000000000000000000000000000000000000000000000000000081526004016102c790610b60565b60405180910390fd5b5f3411610312576040517f08c379a000000000000000000000000000000000000000000000000000000000815260040161030990610bc8565b60405180910390fd5b5f600254346103219190610c40565b90505f8111610365576040517f08c379a000000000000000000000000000000000000000000000000000000000815260040161035c90610ce0565b60405180910390fd5b8060015410156103aa576040517f08c379a00000000000000000000000000000000000000000000000000000000081526004016103a190610d48565b60405180910390fd5b8060075f3373ffffffffffffffffffffffffffffffffffffffff1673ffffffffffffffffffffffffffffffffffffffff1681526020019081526020015f205f8282546103f69190610d66565b925050819055508060015f82825461040e9190610d99565b925050819055503460055f8282546104269190610d66565b925050819055503373ffffffffffffffffffffffffffffffffffffffff167f72e04af5dfda760cfed5e6556215ddc010133900aa0b75cefa0883038f37eae2826040516104739190610a04565b60405180910390a250565b60055481565b60035481565b5f8054906101000a900473ffffffffffffffffffffffffffffffffffffffff1673ffffffffffffffffffffffffffffffffffffffff163373ffffffffffffffffffffffffffffffffffffffff1614610517576040517f08c379a000000000000000000000000000000000000000000000000000000000815260040161050e90610e3c565b60405180910390fd5b60065f9054906101000a900460ff1615610566576040517f08c379a000000000000000000000000000000000000000000000000000000000815260040161055d90610ea4565b60405180910390fd5b5f84116105a8576040517f08c379a000000000000000000000000000000000000000000000000000000000815260040161059f90610f32565b60405180910390fd5b5f83116105ea576040517f08c379a00000000000000000000000000000000000000000000000000000000081526004016105e190610fc0565b60405180910390fd5b5f821161062c576040517f08c379a00000000000000000000000000000000000000000000000000000000081526004016106239061104e565b60405180910390fd5b42811161066e576040517f08c379a0000000000000000000000000000000000000000000000000000000008152600401610665906110dc565b60405180910390fd5b83600181905550670de0b6b3a76400008361068991906110fa565b6002819055508160038190555080600481905550600160065f6101000a81548160ff0219169083151502179055507fc4ede3fcf855dc4685871bc70cbff3b97f484d31f715ab9a3ac2d7b14776e2c66001546002546003546004546040516106f4949392919061113b565b60405180910390a150505050565b60065f9054906101000a900460ff1681565b60045481565b60025481565b600454421015610765576040517f08c379a000000000000000000000000000000000000000000000000000000000815260040161075c906111ee565b60405180910390fd5b5f60075f3373ffffffffffffffffffffffffffffffffffffffff1673ffffffffffffffffffffffffffffffffffffffff1681526020019081526020015f205490505f81116107e8576040517f08c379a00000000000000000000000000000000000000000000000000000000081526004016107df90611256565b60405180910390fd5b5f600254826107f791906110fa565b90505f63bbf81e004260045461080d9190610d99565b6003548461081b91906110fa565b61082591906110fa565b61082f9190610c40565b90505f818361083e9190610d66565b905080471015610883576040517f08c379a000000000000000000000000000000000000000000000000000000000815260040161087a906112e4565b60405180910390fd5b5f60075f3373ffffffffffffffffffffffffffffffffffffffff1673ffffffffffffffffffffffffffffffffffffffff1681526020019081526020015f20819055503373ffffffffffffffffffffffffffffffffffffffff166108fc8290811502906040515f60405180830381858888f19350505050158015610908573d5f803e3d5ffd5b503373ffffffffffffffffffffffffffffffffffffffff167f9288b6de588c2ef664548c899db8a71f78097bdf2a031408e9bceff697cbf94f8560405161094f9190610a04565b60405180910390a250505050565b60015481565b5f80fd5b5f73ffffffffffffffffffffffffffffffffffffffff82169050919050565b5f61099082610967565b9050919050565b6109a081610986565b81146109aa575f80fd5b50565b5f813590506109bb81610997565b92915050565b5f602082840312156109d6576109d5610963565b5b5f6109e3848285016109ad565b91505092915050565b5f819050919050565b6109fe816109ec565b82525050565b5f602082019050610a175f8301846109f5565b92915050565b610a2681610986565b82525050565b5f602082019050610a3f5f830184610a1d565b92915050565b610a4e816109ec565b8114610a58575f80fd5b50565b5f81359050610a6981610a45565b92915050565b5f805f8060808587031215610a8757610a86610963565b5b5f610a9487828801610a5b565b9450506020610aa587828801610a5b565b9350506040610ab687828801610a5b565b9250506060610ac787828801610a5b565b91505092959194509250565b5f8115159050919050565b610ae781610ad3565b82525050565b5f602082019050610b005f830184610ade565b92915050565b5f82825260208201905092915050565b7f426f6e642073616c6520706572696f642068617320656e6465640000000000005f82015250565b5f610b4a601a83610b06565b9150610b5582610b16565b602082019050919050565b5f6020820190508181035f830152610b7781610b3e565b9050919050565b7f416d6f756e74206d7573742062652067726561746572207468616e207a65726f5f82015250565b5f610bb2602083610b06565b9150610bbd82610b7e565b602082019050919050565b5f6020820190508181035f830152610bdf81610ba6565b9050919050565b7f4e487b71000000000000000000000000000000000000000000000000000000005f52601260045260245ffd5b7f4e487b71000000000000000000000000000000000000000000000000000000005f52601160045260245ffd5b5f610c4a826109ec565b9150610c55836109ec565b925082610c6557610c64610be6565b5b828204905092915050565b7f496e73756666696369656e742045544820666f7220626f6e64207075726368615f8201527f7365000000000000000000000000000000000000000000000000000000000000602082015250565b5f610cca602283610b06565b9150610cd582610c70565b604082019050919050565b5f6020820190508181035f830152610cf781610cbe565b9050919050565b7f4e6f7420656e6f75676820626f6e647320617661696c61626c650000000000005f82015250565b5f610d32601a83610b06565b9150610d3d82610cfe565b602082019050919050565b5f6020820190508181035f830152610d5f81610d26565b9050919050565b5f610d70826109ec565b9150610d7b836109ec565b9250828201905080821115610d9357610d92610c13565b5b92915050565b5f610da3826109ec565b9150610dae836109ec565b9250828203905081811115610dc657610dc5610c13565b5b92915050565b7f4f6e6c79206973737565722063616e2063616c6c20746869732066756e6374695f8201527f6f6e000000000000000000000000000000000000000000000000000000000000602082015250565b5f610e26602283610b06565b9150610e3182610dcc565b604082019050919050565b5f6020820190508181035f830152610e5381610e1a565b9050919050565b7f426f6e647320616c7265616479206973737565640000000000000000000000005f82015250565b5f610e8e601483610b06565b9150610e9982610e5a565b602082019050919050565b5f6020820190508181035f830152610ebb81610e82565b9050919050565b7f546f74616c20626f6e6473206d7573742062652067726561746572207468616e5f8201527f207a65726f000000000000000000000000000000000000000000000000000000602082015250565b5f610f1c602583610b06565b9150610f2782610ec2565b604082019050919050565b5f6020820190508181035f830152610f4981610f10565b9050919050565b7f426f6e64207072696365206d7573742062652067726561746572207468616e205f8201527f7a65726f00000000000000000000000000000000000000000000000000000000602082015250565b5f610faa602483610b06565b9150610fb582610f50565b604082019050919050565b5f6020820190508181035f830152610fd781610f9e565b9050919050565b7f496e7465726573742072617465206d75737420626520677265617465722074685f8201527f616e207a65726f00000000000000000000000000000000000000000000000000602082015250565b5f611038602783610b06565b915061104382610fde565b604082019050919050565b5f6020820190508181035f8301526110658161102c565b9050919050565b7f4d617475726974792064617465206d75737420626520696e20746865206675745f8201527f7572650000000000000000000000000000000000000000000000000000000000602082015250565b5f6110c6602383610b06565b91506110d18261106c565b604082019050919050565b5f6020820190508181035f8301526110f3816110ba565b9050919050565b5f611104826109ec565b915061110f836109ec565b925082820261111d816109ec565b9150828204841483151761113457611133610c13565b5b5092915050565b5f60808201905061114e5f8301876109f5565b61115b60208301866109f5565b61116860408301856109f5565b61117560608301846109f5565b95945050505050565b7f426f6e6420726564656d7074696f6e20706572696f6420686173206e6f7420735f8201527f7461727465640000000000000000000000000000000000000000000000000000602082015250565b5f6111d8602683610b06565b91506111e38261117e565b604082019050919050565b5f6020820190508181035f830152611205816111cc565b9050919050565b7f4e6f20626f6e647320746f2072656465656d00000000000000000000000000005f82015250565b5f611240601283610b06565b915061124b8261120c565b602082019050919050565b5f6020820190508181035f83015261126d81611234565b9050919050565b7f496e73756666696369656e7420636f6e74726163742062616c616e636520666f5f8201527f72207061796f7574000000000000000000000000000000000000000000000000602082015250565b5f6112ce602883610b06565b91506112d982611274565b604082019050919050565b5f6020820190508181035f8301526112fb816112c2565b905091905056fea264697066735822122030e012cb7ae6f04a707beeb95f2b0b3243272954581d8fcb1d54aef92349173364736f6c634300081a0033",
			"opcodes": "PUSH1 0x80 PUSH1 0x40 MSTORE CALLVALUE DUP1 ISZERO PUSH1 0xE JUMPI PUSH0 DUP1 REVERT JUMPDEST POP CALLER PUSH0 DUP1 PUSH2 0x100 EXP DUP2 SLOAD DUP2 PUSH20 0xFFFFFFFFFFFFFFFFFFFFFFFFFFFFFFFFFFFFFFFF MUL NOT AND SWAP1 DUP4 PUSH20 0xFFFFFFFFFFFFFFFFFFFFFFFFFFFFFFFFFFFFFFFF AND MUL OR SWAP1 SSTORE POP PUSH2 0x1338 DUP1 PUSH2 0x5B PUSH0 CODECOPY PUSH0 RETURN INVALID PUSH1 0x80 PUSH1 0x40 MSTORE PUSH1 0x4 CALLDATASIZE LT PUSH2 0x9F JUMPI PUSH0 CALLDATALOAD PUSH1 0xE0 SHR DUP1 PUSH4 0x89585083 GT PUSH2 0x63 JUMPI DUP1 PUSH4 0x89585083 EQ PUSH2 0x16E JUMPI DUP1 PUSH4 0xD33CE61A EQ PUSH2 0x196 JUMPI DUP1 PUSH4 0xD59624B4 EQ PUSH2 0x1C0 JUMPI DUP1 PUSH4 0xD7CCFB0B EQ PUSH2 0x1EA JUMPI DUP1 PUSH4 0xE84A011A EQ PUSH2 0x214 JUMPI DUP1 PUSH4 0xF263C470 EQ PUSH2 0x22A JUMPI PUSH2 0xA6 JUMP JUMPDEST DUP1 PUSH4 0x108C52A7 EQ PUSH2 0xAA JUMPI DUP1 PUSH4 0x1D143848 EQ PUSH2 0xE6 JUMPI DUP1 PUSH4 0x3D31841B EQ PUSH2 0x110 JUMPI DUP1 PUSH4 0x5216AEEC EQ PUSH2 0x11A JUMPI DUP1 PUSH4 0x7C3A00FD EQ PUSH2 0x144 JUMPI PUSH2 0xA6 JUMP JUMPDEST CALLDATASIZE PUSH2 0xA6 JUMPI STOP JUMPDEST PUSH0 DUP1 REVERT JUMPDEST CALLVALUE DUP1 ISZERO PUSH2 0xB5 JUMPI PUSH0 DUP1 REVERT JUMPDEST POP PUSH2 0xD0 PUSH1 0x4 DUP1 CALLDATASIZE SUB DUP2 ADD SWAP1 PUSH2 0xCB SWAP2 SWAP1 PUSH2 0x9C1 JUMP JUMPDEST PUSH2 0x254 JUMP JUMPDEST PUSH1 0x40 MLOAD PUSH2 0xDD SWAP2 SWAP1 PUSH2 0xA04 JUMP JUMPDEST PUSH1 0x40 MLOAD DUP1 SWAP2 SUB SWAP1 RETURN JUMPDEST CALLVALUE DUP1 ISZERO PUSH2 0xF1 JUMPI PUSH0 DUP1 REVERT JUMPDEST POP PUSH2 0xFA PUSH2 0x269 JUMP JUMPDEST PUSH1 0x40 MLOAD PUSH2 0x107 SWAP2 SWAP1 PUSH2 0xA2C JUMP JUMPDEST PUSH1 0x40 MLOAD DUP1 SWAP2 SUB SWAP1 RETURN JUMPDEST PUSH2 0x118 PUSH2 0x28C JUMP JUMPDEST STOP JUMPDEST CALLVALUE DUP1 ISZERO PUSH2 0x125 JUMPI PUSH0 DUP1 REVERT JUMPDEST POP PUSH2 0x12E PUSH2 0x47E JUMP JUMPDEST PUSH1 0x40 MLOAD PUSH2 0x13B SWAP2 SWAP1 PUSH2 0xA04 JUMP JUMPDEST PUSH1 0x40 MLOAD DUP1 SWAP2 SUB SWAP1 RETURN JUMPDEST CALLVALUE DUP1 ISZERO PUSH2 0x14F JUMPI PUSH0 DUP1 REVERT JUMPDEST POP PUSH2 0x158 PUSH2 0x484 JUMP JUMPDEST PUSH1 0x40 MLOAD PUSH2 0x165 SWAP2 SWAP1 PUSH2 0xA04 JUMP JUMPDEST PUSH1 0x40 MLOAD DUP1 SWAP2 SUB SWAP1 RETURN JUMPDEST CALLVALUE DUP1 ISZERO PUSH2 0x179 JUMPI PUSH0 DUP1 REVERT JUMPDEST POP PUSH2 0x194 PUSH1 0x4 DUP1 CALLDATASIZE SUB DUP2 ADD SWAP1 PUSH2 0x18F SWAP2 SWAP1 PUSH2 0xA6F JUMP JUMPDEST PUSH2 0x48A JUMP JUMPDEST STOP JUMPDEST CALLVALUE DUP1 ISZERO PUSH2 0x1A1 JUMPI PUSH0 DUP1 REVERT JUMPDEST POP PUSH2 0x1AA PUSH2 0x702 JUMP JUMPDEST PUSH1 0x40 MLOAD PUSH2 0x1B7 SWAP2 SWAP1 PUSH2 0xAED JUMP JUMPDEST PUSH1 0x40 MLOAD DUP1 SWAP2 SUB SWAP1 RETURN JUMPDEST CALLVALUE DUP1 ISZERO PUSH2 0x1CB JUMPI PUSH0 DUP1 REVERT JUMPDEST POP PUSH2 0x1D4 PUSH2 0x714 JUMP JUMPDEST PUSH1 0x40 MLOAD PUSH2 0x1E1 SWAP2 SWAP1 PUSH2 0xA04 JUMP JUMPDEST PUSH1 0x40 MLOAD DUP1 SWAP2 SUB SWAP1 RETURN JUMPDEST CALLVALUE DUP1 ISZERO PUSH2 0x1F5 JUMPI PUSH0 DUP1 REVERT JUMPDEST POP PUSH2 0x1FE PUSH2 0x71A JUMP JUMPDEST PUSH1 0x40 MLOAD PUSH2 0x20B SWAP2 SWAP1 PUSH2 0xA04 JUMP JUMPDEST PUSH1 0x40 MLOAD DUP1 SWAP2 SUB SWAP1 RETURN JUMPDEST CALLVALUE DUP1 ISZERO PUSH2 0x21F JUMPI PUSH0 DUP1 REVERT JUMPDEST POP PUSH2 0x228 PUSH2 0x720 JUMP JUMPDEST STOP JUMPDEST CALLVALUE DUP1 ISZERO PUSH2 0x235 JUMPI PUSH0 DUP1 REVERT JUMPDEST POP PUSH2 0x23E PUSH2 0x95D JUMP JUMPDEST PUSH1 0x40 MLOAD PUSH2 0x24B SWAP2 SWAP1 PUSH2 0xA04 JUMP JUMPDEST PUSH1 0x40 MLOAD DUP1 SWAP2 SUB SWAP1 RETURN JUMPDEST PUSH1 0x7 PUSH1 0x20 MSTORE DUP1 PUSH0 MSTORE PUSH1 0x40 PUSH0 KECCAK256 PUSH0 SWAP2 POP SWAP1 POP SLOAD DUP2 JUMP JUMPDEST PUSH0 DUP1 SLOAD SWAP1 PUSH2 0x100 EXP SWAP1 DIV PUSH20 0xFFFFFFFFFFFFFFFFFFFFFFFFFFFFFFFFFFFFFFFF AND DUP2 JUMP JUMPDEST PUSH1 0x4 SLOAD TIMESTAMP LT PUSH2 0x2D0 JUMPI PUSH1 0x40 MLOAD PUSH32 0x8C379A000000000000000000000000000000000000000000000000000000000 DUP2 MSTORE PUSH1 0x4 ADD PUSH2 0x2C7 SWAP1 PUSH2 0xB60 JUMP JUMPDEST PUSH1 0x40 MLOAD DUP1 SWAP2 SUB SWAP1 REVERT JUMPDEST PUSH0 CALLVALUE GT PUSH2 0x312 JUMPI PUSH1 0x40 MLOAD PUSH32 0x8C379A000000000000000000000000000000000000000000000000000000000 DUP2 MSTORE PUSH1 0x4 ADD PUSH2 0x309 SWAP1 PUSH2 0xBC8 JUMP JUMPDEST PUSH1 0x40 MLOAD DUP1 SWAP2 SUB SWAP1 REVERT JUMPDEST PUSH0 PUSH1 0x2 SLOAD CALLVALUE PUSH2 0x321 SWAP2 SWAP1 PUSH2 0xC40 JUMP JUMPDEST SWAP1 POP PUSH0 DUP2 GT PUSH2 0x365 JUMPI PUSH1 0x40 MLOAD PUSH32 0x8C379A000000000000000000000000000000000000000000000000000000000 DUP2 MSTORE PUSH1 0x4 ADD PUSH2 0x35C SWAP1 PUSH2 0xCE0 JUMP JUMPDEST PUSH1 0x40 MLOAD DUP1 SWAP2 SUB SWAP1 REVERT JUMPDEST DUP1 PUSH1 0x1 SLOAD LT ISZERO PUSH2 0x3AA JUMPI PUSH1 0x40 MLOAD PUSH32 0x8C379A000000000000000000000000000000000000000000000000000000000 DUP2 MSTORE PUSH1 0x4 ADD PUSH2 0x3A1 SWAP1 PUSH2 0xD48 JUMP JUMPDEST PUSH1 0x40 MLOAD DUP1 SWAP2 SUB SWAP1 REVERT JUMPDEST DUP1 PUSH1 0x7 PUSH0 CALLER PUSH20 0xFFFFFFFFFFFFFFFFFFFFFFFFFFFFFFFFFFFFFFFF AND PUSH20 0xFFFFFFFFFFFFFFFFFFFFFFFFFFFFFFFFFFFFFFFF AND DUP2 MSTORE PUSH1 0x20 ADD SWAP1 DUP2 MSTORE PUSH1 0x20 ADD PUSH0 KECCAK256 PUSH0 DUP3 DUP3 SLOAD PUSH2 0x3F6 SWAP2 SWAP1 PUSH2 0xD66 JUMP JUMPDEST SWAP3 POP POP DUP2 SWAP1 SSTORE POP DUP1 PUSH1 0x1 PUSH0 DUP3 DUP3 SLOAD PUSH2 0x40E SWAP2 SWAP1 PUSH2 0xD99 JUMP JUMPDEST SWAP3 POP POP DUP2 SWAP1 SSTORE POP CALLVALUE PUSH1 0x5 PUSH0 DUP3 DUP3 SLOAD PUSH2 0x426 SWAP2 SWAP1 PUSH2 0xD66 JUMP JUMPDEST SWAP3 POP POP DUP2 SWAP1 SSTORE POP CALLER PUSH20 0xFFFFFFFFFFFFFFFFFFFFFFFFFFFFFFFFFFFFFFFF AND PUSH32 0x72E04AF5DFDA760CFED5E6556215DDC010133900AA0B75CEFA0883038F37EAE2 DUP3 PUSH1 0x40 MLOAD PUSH2 0x473 SWAP2 SWAP1 PUSH2 0xA04 JUMP JUMPDEST PUSH1 0x40 MLOAD DUP1 SWAP2 SUB SWAP1 LOG2 POP JUMP JUMPDEST PUSH1 0x5 SLOAD DUP2 JUMP JUMPDEST PUSH1 0x3 SLOAD DUP2 JUMP JUMPDEST PUSH0 DUP1 SLOAD SWAP1 PUSH2 0x100 EXP SWAP1 DIV PUSH20 0xFFFFFFFFFFFFFFFFFFFFFFFFFFFFFFFFFFFFFFFF AND PUSH20 0xFFFFFFFFFFFFFFFFFFFFFFFFFFFFFFFFFFFFFFFF AND CALLER PUSH20 0xFFFFFFFFFFFFFFFFFFFFFFFFFFFFFFFFFFFFFFFF AND EQ PUSH2 0x517 JUMPI PUSH1 0x40 MLOAD PUSH32 0x8C379A000000000000000000000000000000000000000000000000000000000 DUP2 MSTORE PUSH1 0x4 ADD PUSH2 0x50E SWAP1 PUSH2 0xE3C JUMP JUMPDEST PUSH1 0x40 MLOAD DUP1 SWAP2 SUB SWAP1 REVERT JUMPDEST PUSH1 0x6 PUSH0 SWAP1 SLOAD SWAP1 PUSH2 0x100 EXP SWAP1 DIV PUSH1 0xFF AND ISZERO PUSH2 0x566 JUMPI PUSH1 0x40 MLOAD PUSH32 0x8C379A000000000000000000000000000000000000000000000000000000000 DUP2 MSTORE PUSH1 0x4 ADD PUSH2 0x55D SWAP1 PUSH2 0xEA4 JUMP JUMPDEST PUSH1 0x40 MLOAD DUP1 SWAP2 SUB SWAP1 REVERT JUMPDEST PUSH0 DUP5 GT PUSH2 0x5A8 JUMPI PUSH1 0x40 MLOAD PUSH32 0x8C379A000000000000000000000000000000000000000000000000000000000 DUP2 MSTORE PUSH1 0x4 ADD PUSH2 0x59F SWAP1 PUSH2 0xF32 JUMP JUMPDEST PUSH1 0x40 MLOAD DUP1 SWAP2 SUB SWAP1 REVERT JUMPDEST PUSH0 DUP4 GT PUSH2 0x5EA JUMPI PUSH1 0x40 MLOAD PUSH32 0x8C379A000000000000000000000000000000000000000000000000000000000 DUP2 MSTORE PUSH1 0x4 ADD PUSH2 0x5E1 SWAP1 PUSH2 0xFC0 JUMP JUMPDEST PUSH1 0x40 MLOAD DUP1 SWAP2 SUB SWAP1 REVERT JUMPDEST PUSH0 DUP3 GT PUSH2 0x62C JUMPI PUSH1 0x40 MLOAD PUSH32 0x8C379A000000000000000000000000000000000000000000000000000000000 DUP2 MSTORE PUSH1 0x4 ADD PUSH2 0x623 SWAP1 PUSH2 0x104E JUMP JUMPDEST PUSH1 0x40 MLOAD DUP1 SWAP2 SUB SWAP1 REVERT JUMPDEST TIMESTAMP DUP2 GT PUSH2 0x66E JUMPI PUSH1 0x40 MLOAD PUSH32 0x8C379A000000000000000000000000000000000000000000000000000000000 DUP2 MSTORE PUSH1 0x4 ADD PUSH2 0x665 SWAP1 PUSH2 0x10DC JUMP JUMPDEST PUSH1 0x40 MLOAD DUP1 SWAP2 SUB SWAP1 REVERT JUMPDEST DUP4 PUSH1 0x1 DUP2 SWAP1 SSTORE POP PUSH8 0xDE0B6B3A7640000 DUP4 PUSH2 0x689 SWAP2 SWAP1 PUSH2 0x10FA JUMP JUMPDEST PUSH1 0x2 DUP2 SWAP1 SSTORE POP DUP2 PUSH1 0x3 DUP2 SWAP1 SSTORE POP DUP1 PUSH1 0x4 DUP2 SWAP1 SSTORE POP PUSH1 0x1 PUSH1 0x6 PUSH0 PUSH2 0x100 EXP DUP2 SLOAD DUP2 PUSH1 0xFF MUL NOT AND SWAP1 DUP4 ISZERO ISZERO MUL OR SWAP1 SSTORE POP PUSH32 0xC4EDE3FCF855DC4685871BC70CBFF3B97F484D31F715AB9A3AC2D7B14776E2C6 PUSH1 0x1 SLOAD PUSH1 0x2 SLOAD PUSH1 0x3 SLOAD PUSH1 0x4 SLOAD PUSH1 0x40 MLOAD PUSH2 0x6F4 SWAP5 SWAP4 SWAP3 SWAP2 SWAP1 PUSH2 0x113B JUMP JUMPDEST PUSH1 0x40 MLOAD DUP1 SWAP2 SUB SWAP1 LOG1 POP POP POP POP JUMP JUMPDEST PUSH1 0x6 PUSH0 SWAP1 SLOAD SWAP1 PUSH2 0x100 EXP SWAP1 DIV PUSH1 0xFF AND DUP2 JUMP JUMPDEST PUSH1 0x4 SLOAD DUP2 JUMP JUMPDEST PUSH1 0x2 SLOAD DUP2 JUMP JUMPDEST PUSH1 0x4 SLOAD TIMESTAMP LT ISZERO PUSH2 0x765 JUMPI PUSH1 0x40 MLOAD PUSH32 0x8C379A000000000000000000000000000000000000000000000000000000000 DUP2 MSTORE PUSH1 0x4 ADD PUSH2 0x75C SWAP1 PUSH2 0x11EE JUMP JUMPDEST PUSH1 0x40 MLOAD DUP1 SWAP2 SUB SWAP1 REVERT JUMPDEST PUSH0 PUSH1 0x7 PUSH0 CALLER PUSH20 0xFFFFFFFFFFFFFFFFFFFFFFFFFFFFFFFFFFFFFFFF AND PUSH20 0xFFFFFFFFFFFFFFFFFFFFFFFFFFFFFFFFFFFFFFFF AND DUP2 MSTORE PUSH1 0x20 ADD SWAP1 DUP2 MSTORE PUSH1 0x20 ADD PUSH0 KECCAK256 SLOAD SWAP1 POP PUSH0 DUP2 GT PUSH2 0x7E8 JUMPI PUSH1 0x40 MLOAD PUSH32 0x8C379A000000000000000000000000000000000000000000000000000000000 DUP2 MSTORE PUSH1 0x4 ADD PUSH2 0x7DF SWAP1 PUSH2 0x1256 JUMP JUMPDEST PUSH1 0x40 MLOAD DUP1 SWAP2 SUB SWAP1 REVERT JUMPDEST PUSH0 PUSH1 0x2 SLOAD DUP3 PUSH2 0x7F7 SWAP2 SWAP1 PUSH2 0x10FA JUMP JUMPDEST SWAP1 POP PUSH0 PUSH4 0xBBF81E00 TIMESTAMP PUSH1 0x4 SLOAD PUSH2 0x80D SWAP2 SWAP1 PUSH2 0xD99 JUMP JUMPDEST PUSH1 0x3 SLOAD DUP5 PUSH2 0x81B SWAP2 SWAP1 PUSH2 0x10FA JUMP JUMPDEST PUSH2 0x825 SWAP2 SWAP1 PUSH2 0x10FA JUMP JUMPDEST PUSH2 0x82F SWAP2 SWAP1 PUSH2 0xC40 JUMP JUMPDEST SWAP1 POP PUSH0 DUP2 DUP4 PUSH2 0x83E SWAP2 SWAP1 PUSH2 0xD66 JUMP JUMPDEST SWAP1 POP DUP1 SELFBALANCE LT ISZERO PUSH2 0x883 JUMPI PUSH1 0x40 MLOAD PUSH32 0x8C379A000000000000000000000000000000000000000000000000000000000 DUP2 MSTORE PUSH1 0x4 ADD PUSH2 0x87A SWAP1 PUSH2 0x12E4 JUMP JUMPDEST PUSH1 0x40 MLOAD DUP1 SWAP2 SUB SWAP1 REVERT JUMPDEST PUSH0 PUSH1 0x7 PUSH0 CALLER PUSH20 0xFFFFFFFFFFFFFFFFFFFFFFFFFFFFFFFFFFFFFFFF AND PUSH20 0xFFFFFFFFFFFFFFFFFFFFFFFFFFFFFFFFFFFFFFFF AND DUP2 MSTORE PUSH1 0x20 ADD SWAP1 DUP2 MSTORE PUSH1 0x20 ADD PUSH0 KECCAK256 DUP2 SWAP1 SSTORE POP CALLER PUSH20 0xFFFFFFFFFFFFFFFFFFFFFFFFFFFFFFFFFFFFFFFF AND PUSH2 0x8FC DUP3 SWAP1 DUP2 ISZERO MUL SWAP1 PUSH1 0x40 MLOAD PUSH0 PUSH1 0x40 MLOAD DUP1 DUP4 SUB DUP2 DUP6 DUP9 DUP9 CALL SWAP4 POP POP POP POP ISZERO DUP1 ISZERO PUSH2 0x908 JUMPI RETURNDATASIZE PUSH0 DUP1 RETURNDATACOPY RETURNDATASIZE PUSH0 REVERT JUMPDEST POP CALLER PUSH20 0xFFFFFFFFFFFFFFFFFFFFFFFFFFFFFFFFFFFFFFFF AND PUSH32 0x9288B6DE588C2EF664548C899DB8A71F78097BDF2A031408E9BCEFF697CBF94F DUP6 PUSH1 0x40 MLOAD PUSH2 0x94F SWAP2 SWAP1 PUSH2 0xA04 JUMP JUMPDEST PUSH1 0x40 MLOAD DUP1 SWAP2 SUB SWAP1 LOG2 POP POP POP POP JUMP JUMPDEST PUSH1 0x1 SLOAD DUP2 JUMP JUMPDEST PUSH0 DUP1 REVERT JUMPDEST PUSH0 PUSH20 0xFFFFFFFFFFFFFFFFFFFFFFFFFFFFFFFFFFFFFFFF DUP3 AND SWAP1 POP SWAP2 SWAP1 POP JUMP JUMPDEST PUSH0 PUSH2 0x990 DUP3 PUSH2 0x967 JUMP JUMPDEST SWAP1 POP SWAP2 SWAP1 POP JUMP JUMPDEST PUSH2 0x9A0 DUP2 PUSH2 0x986 JUMP JUMPDEST DUP2 EQ PUSH2 0x9AA JUMPI PUSH0 DUP1 REVERT JUMPDEST POP JUMP JUMPDEST PUSH0 DUP2 CALLDATALOAD SWAP1 POP PUSH2 0x9BB DUP2 PUSH2 0x997 JUMP JUMPDEST SWAP3 SWAP2 POP POP JUMP JUMPDEST PUSH0 PUSH1 0x20 DUP3 DUP5 SUB SLT ISZERO PUSH2 0x9D6 JUMPI PUSH2 0x9D5 PUSH2 0x963 JUMP JUMPDEST JUMPDEST PUSH0 PUSH2 0x9E3 DUP5 DUP3 DUP6 ADD PUSH2 0x9AD JUMP JUMPDEST SWAP2 POP POP SWAP3 SWAP2 POP POP JUMP JUMPDEST PUSH0 DUP2 SWAP1 POP SWAP2 SWAP1 POP JUMP JUMPDEST PUSH2 0x9FE DUP2 PUSH2 0x9EC JUMP JUMPDEST DUP3 MSTORE POP POP JUMP JUMPDEST PUSH0 PUSH1 0x20 DUP3 ADD SWAP1 POP PUSH2 0xA17 PUSH0 DUP4 ADD DUP5 PUSH2 0x9F5 JUMP JUMPDEST SWAP3 SWAP2 POP POP JUMP JUMPDEST PUSH2 0xA26 DUP2 PUSH2 0x986 JUMP JUMPDEST DUP3 MSTORE POP POP JUMP JUMPDEST PUSH0 PUSH1 0x20 DUP3 ADD SWAP1 POP PUSH2 0xA3F PUSH0 DUP4 ADD DUP5 PUSH2 0xA1D JUMP JUMPDEST SWAP3 SWAP2 POP POP JUMP JUMPDEST PUSH2 0xA4E DUP2 PUSH2 0x9EC JUMP JUMPDEST DUP2 EQ PUSH2 0xA58 JUMPI PUSH0 DUP1 REVERT JUMPDEST POP JUMP JUMPDEST PUSH0 DUP2 CALLDATALOAD SWAP1 POP PUSH2 0xA69 DUP2 PUSH2 0xA45 JUMP JUMPDEST SWAP3 SWAP2 POP POP JUMP JUMPDEST PUSH0 DUP1 PUSH0 DUP1 PUSH1 0x80 DUP6 DUP8 SUB SLT ISZERO PUSH2 0xA87 JUMPI PUSH2 0xA86 PUSH2 0x963 JUMP JUMPDEST JUMPDEST PUSH0 PUSH2 0xA94 DUP8 DUP3 DUP9 ADD PUSH2 0xA5B JUMP JUMPDEST SWAP5 POP POP PUSH1 0x20 PUSH2 0xAA5 DUP8 DUP3 DUP9 ADD PUSH2 0xA5B JUMP JUMPDEST SWAP4 POP POP PUSH1 0x40 PUSH2 0xAB6 DUP8 DUP3 DUP9 ADD PUSH2 0xA5B JUMP JUMPDEST SWAP3 POP POP PUSH1 0x60 PUSH2 0xAC7 DUP8 DUP3 DUP9 ADD PUSH2 0xA5B JUMP JUMPDEST SWAP2 POP POP SWAP3 SWAP6 SWAP2 SWAP5 POP SWAP3 POP JUMP JUMPDEST PUSH0 DUP2 ISZERO ISZERO SWAP1 POP SWAP2 SWAP1 POP JUMP JUMPDEST PUSH2 0xAE7 DUP2 PUSH2 0xAD3 JUMP JUMPDEST DUP3 MSTORE POP POP JUMP JUMPDEST PUSH0 PUSH1 0x20 DUP3 ADD SWAP1 POP PUSH2 0xB00 PUSH0 DUP4 ADD DUP5 PUSH2 0xADE JUMP JUMPDEST SWAP3 SWAP2 POP POP JUMP JUMPDEST PUSH0 DUP3 DUP3 MSTORE PUSH1 0x20 DUP3 ADD SWAP1 POP SWAP3 SWAP2 POP POP JUMP JUMPDEST PUSH32 0x426F6E642073616C6520706572696F642068617320656E646564000000000000 PUSH0 DUP3 ADD MSTORE POP JUMP JUMPDEST PUSH0 PUSH2 0xB4A PUSH1 0x1A DUP4 PUSH2 0xB06 JUMP JUMPDEST SWAP2 POP PUSH2 0xB55 DUP3 PUSH2 0xB16 JUMP JUMPDEST PUSH1 0x20 DUP3 ADD SWAP1 POP SWAP2 SWAP1 POP JUMP JUMPDEST PUSH0 PUSH1 0x20 DUP3 ADD SWAP1 POP DUP2 DUP2 SUB PUSH0 DUP4 ADD MSTORE PUSH2 0xB77 DUP2 PUSH2 0xB3E JUMP JUMPDEST SWAP1 POP SWAP2 SWAP1 POP JUMP JUMPDEST PUSH32 0x416D6F756E74206D7573742062652067726561746572207468616E207A65726F PUSH0 DUP3 ADD MSTORE POP JUMP JUMPDEST PUSH0 PUSH2 0xBB2 PUSH1 0x20 DUP4 PUSH2 0xB06 JUMP JUMPDEST SWAP2 POP PUSH2 0xBBD DUP3 PUSH2 0xB7E JUMP JUMPDEST PUSH1 0x20 DUP3 ADD SWAP1 POP SWAP2 SWAP1 POP JUMP JUMPDEST PUSH0 PUSH1 0x20 DUP3 ADD SWAP1 POP DUP2 DUP2 SUB PUSH0 DUP4 ADD MSTORE PUSH2 0xBDF DUP2 PUSH2 0xBA6 JUMP JUMPDEST SWAP1 POP SWAP2 SWAP1 POP JUMP JUMPDEST PUSH32 0x4E487B7100000000000000000000000000000000000000000000000000000000 PUSH0 MSTORE PUSH1 0x12 PUSH1 0x4 MSTORE PUSH1 0x24 PUSH0 REVERT JUMPDEST PUSH32 0x4E487B7100000000000000000000000000000000000000000000000000000000 PUSH0 MSTORE PUSH1 0x11 PUSH1 0x4 MSTORE PUSH1 0x24 PUSH0 REVERT JUMPDEST PUSH0 PUSH2 0xC4A DUP3 PUSH2 0x9EC JUMP JUMPDEST SWAP2 POP PUSH2 0xC55 DUP4 PUSH2 0x9EC JUMP JUMPDEST SWAP3 POP DUP3 PUSH2 0xC65 JUMPI PUSH2 0xC64 PUSH2 0xBE6 JUMP JUMPDEST JUMPDEST DUP3 DUP3 DIV SWAP1 POP SWAP3 SWAP2 POP POP JUMP JUMPDEST PUSH32 0x496E73756666696369656E742045544820666F7220626F6E6420707572636861 PUSH0 DUP3 ADD MSTORE PUSH32 0x7365000000000000000000000000000000000000000000000000000000000000 PUSH1 0x20 DUP3 ADD MSTORE POP JUMP JUMPDEST PUSH0 PUSH2 0xCCA PUSH1 0x22 DUP4 PUSH2 0xB06 JUMP JUMPDEST SWAP2 POP PUSH2 0xCD5 DUP3 PUSH2 0xC70 JUMP JUMPDEST PUSH1 0x40 DUP3 ADD SWAP1 POP SWAP2 SWAP1 POP JUMP JUMPDEST PUSH0 PUSH1 0x20 DUP3 ADD SWAP1 POP DUP2 DUP2 SUB PUSH0 DUP4 ADD MSTORE PUSH2 0xCF7 DUP2 PUSH2 0xCBE JUMP JUMPDEST SWAP1 POP SWAP2 SWAP1 POP JUMP JUMPDEST PUSH32 0x4E6F7420656E6F75676820626F6E647320617661696C61626C65000000000000 PUSH0 DUP3 ADD MSTORE POP JUMP JUMPDEST PUSH0 PUSH2 0xD32 PUSH1 0x1A DUP4 PUSH2 0xB06 JUMP JUMPDEST SWAP2 POP PUSH2 0xD3D DUP3 PUSH2 0xCFE JUMP JUMPDEST PUSH1 0x20 DUP3 ADD SWAP1 POP SWAP2 SWAP1 POP JUMP JUMPDEST PUSH0 PUSH1 0x20 DUP3 ADD SWAP1 POP DUP2 DUP2 SUB PUSH0 DUP4 ADD MSTORE PUSH2 0xD5F DUP2 PUSH2 0xD26 JUMP JUMPDEST SWAP1 POP SWAP2 SWAP1 POP JUMP JUMPDEST PUSH0 PUSH2 0xD70 DUP3 PUSH2 0x9EC JUMP JUMPDEST SWAP2 POP PUSH2 0xD7B DUP4 PUSH2 0x9EC JUMP JUMPDEST SWAP3 POP DUP3 DUP3 ADD SWAP1 POP DUP1 DUP3 GT ISZERO PUSH2 0xD93 JUMPI PUSH2 0xD92 PUSH2 0xC13 JUMP JUMPDEST JUMPDEST SWAP3 SWAP2 POP POP JUMP JUMPDEST PUSH0 PUSH2 0xDA3 DUP3 PUSH2 0x9EC JUMP JUMPDEST SWAP2 POP PUSH2 0xDAE DUP4 PUSH2 0x9EC JUMP JUMPDEST SWAP3 POP DUP3 DUP3 SUB SWAP1 POP DUP2 DUP2 GT ISZERO PUSH2 0xDC6 JUMPI PUSH2 0xDC5 PUSH2 0xC13 JUMP JUMPDEST JUMPDEST SWAP3 SWAP2 POP POP JUMP JUMPDEST PUSH32 0x4F6E6C79206973737565722063616E2063616C6C20746869732066756E637469 PUSH0 DUP3 ADD MSTORE PUSH32 0x6F6E000000000000000000000000000000000000000000000000000000000000 PUSH1 0x20 DUP3 ADD MSTORE POP JUMP JUMPDEST PUSH0 PUSH2 0xE26 PUSH1 0x22 DUP4 PUSH2 0xB06 JUMP JUMPDEST SWAP2 POP PUSH2 0xE31 DUP3 PUSH2 0xDCC JUMP JUMPDEST PUSH1 0x40 DUP3 ADD SWAP1 POP SWAP2 SWAP1 POP JUMP JUMPDEST PUSH0 PUSH1 0x20 DUP3 ADD SWAP1 POP DUP2 DUP2 SUB PUSH0 DUP4 ADD MSTORE PUSH2 0xE53 DUP2 PUSH2 0xE1A JUMP JUMPDEST SWAP1 POP SWAP2 SWAP1 POP JUMP JUMPDEST PUSH32 0x426F6E647320616C726561647920697373756564000000000000000000000000 PUSH0 DUP3 ADD MSTORE POP JUMP JUMPDEST PUSH0 PUSH2 0xE8E PUSH1 0x14 DUP4 PUSH2 0xB06 JUMP JUMPDEST SWAP2 POP PUSH2 0xE99 DUP3 PUSH2 0xE5A JUMP JUMPDEST PUSH1 0x20 DUP3 ADD SWAP1 POP SWAP2 SWAP1 POP JUMP JUMPDEST PUSH0 PUSH1 0x20 DUP3 ADD SWAP1 POP DUP2 DUP2 SUB PUSH0 DUP4 ADD MSTORE PUSH2 0xEBB DUP2 PUSH2 0xE82 JUMP JUMPDEST SWAP1 POP SWAP2 SWAP1 POP JUMP JUMPDEST PUSH32 0x546F74616C20626F6E6473206D7573742062652067726561746572207468616E PUSH0 DUP3 ADD MSTORE PUSH32 0x207A65726F000000000000000000000000000000000000000000000000000000 PUSH1 0x20 DUP3 ADD MSTORE POP JUMP JUMPDEST PUSH0 PUSH2 0xF1C PUSH1 0x25 DUP4 PUSH2 0xB06 JUMP JUMPDEST SWAP2 POP PUSH2 0xF27 DUP3 PUSH2 0xEC2 JUMP JUMPDEST PUSH1 0x40 DUP3 ADD SWAP1 POP SWAP2 SWAP1 POP JUMP JUMPDEST PUSH0 PUSH1 0x20 DUP3 ADD SWAP1 POP DUP2 DUP2 SUB PUSH0 DUP4 ADD MSTORE PUSH2 0xF49 DUP2 PUSH2 0xF10 JUMP JUMPDEST SWAP1 POP SWAP2 SWAP1 POP JUMP JUMPDEST PUSH32 0x426F6E64207072696365206D7573742062652067726561746572207468616E20 PUSH0 DUP3 ADD MSTORE PUSH32 0x7A65726F00000000000000000000000000000000000000000000000000000000 PUSH1 0x20 DUP3 ADD MSTORE POP JUMP JUMPDEST PUSH0 PUSH2 0xFAA PUSH1 0x24 DUP4 PUSH2 0xB06 JUMP JUMPDEST SWAP2 POP PUSH2 0xFB5 DUP3 PUSH2 0xF50 JUMP JUMPDEST PUSH1 0x40 DUP3 ADD SWAP1 POP SWAP2 SWAP1 POP JUMP JUMPDEST PUSH0 PUSH1 0x20 DUP3 ADD SWAP1 POP DUP2 DUP2 SUB PUSH0 DUP4 ADD MSTORE PUSH2 0xFD7 DUP2 PUSH2 0xF9E JUMP JUMPDEST SWAP1 POP SWAP2 SWAP1 POP JUMP JUMPDEST PUSH32 0x496E7465726573742072617465206D7573742062652067726561746572207468 PUSH0 DUP3 ADD MSTORE PUSH32 0x616E207A65726F00000000000000000000000000000000000000000000000000 PUSH1 0x20 DUP3 ADD MSTORE POP JUMP JUMPDEST PUSH0 PUSH2 0x1038 PUSH1 0x27 DUP4 PUSH2 0xB06 JUMP JUMPDEST SWAP2 POP PUSH2 0x1043 DUP3 PUSH2 0xFDE JUMP JUMPDEST PUSH1 0x40 DUP3 ADD SWAP1 POP SWAP2 SWAP1 POP JUMP JUMPDEST PUSH0 PUSH1 0x20 DUP3 ADD SWAP1 POP DUP2 DUP2 SUB PUSH0 DUP4 ADD MSTORE PUSH2 0x1065 DUP2 PUSH2 0x102C JUMP JUMPDEST SWAP1 POP SWAP2 SWAP1 POP JUMP JUMPDEST PUSH32 0x4D617475726974792064617465206D75737420626520696E2074686520667574 PUSH0 DUP3 ADD MSTORE PUSH32 0x7572650000000000000000000000000000000000000000000000000000000000 PUSH1 0x20 DUP3 ADD MSTORE POP JUMP JUMPDEST PUSH0 PUSH2 0x10C6 PUSH1 0x23 DUP4 PUSH2 0xB06 JUMP JUMPDEST SWAP2 POP PUSH2 0x10D1 DUP3 PUSH2 0x106C JUMP JUMPDEST PUSH1 0x40 DUP3 ADD SWAP1 POP SWAP2 SWAP1 POP JUMP JUMPDEST PUSH0 PUSH1 0x20 DUP3 ADD SWAP1 POP DUP2 DUP2 SUB PUSH0 DUP4 ADD MSTORE PUSH2 0x10F3 DUP2 PUSH2 0x10BA JUMP JUMPDEST SWAP1 POP SWAP2 SWAP1 POP JUMP JUMPDEST PUSH0 PUSH2 0x1104 DUP3 PUSH2 0x9EC JUMP JUMPDEST SWAP2 POP PUSH2 0x110F DUP4 PUSH2 0x9EC JUMP JUMPDEST SWAP3 POP DUP3 DUP3 MUL PUSH2 0x111D DUP2 PUSH2 0x9EC JUMP JUMPDEST SWAP2 POP DUP3 DUP3 DIV DUP5 EQ DUP4 ISZERO OR PUSH2 0x1134 JUMPI PUSH2 0x1133 PUSH2 0xC13 JUMP JUMPDEST JUMPDEST POP SWAP3 SWAP2 POP POP JUMP JUMPDEST PUSH0 PUSH1 0x80 DUP3 ADD SWAP1 POP PUSH2 0x114E PUSH0 DUP4 ADD DUP8 PUSH2 0x9F5 JUMP JUMPDEST PUSH2 0x115B PUSH1 0x20 DUP4 ADD DUP7 PUSH2 0x9F5 JUMP JUMPDEST PUSH2 0x1168 PUSH1 0x40 DUP4 ADD DUP6 PUSH2 0x9F5 JUMP JUMPDEST PUSH2 0x1175 PUSH1 0x60 DUP4 ADD DUP5 PUSH2 0x9F5 JUMP JUMPDEST SWAP6 SWAP5 POP POP POP POP POP JUMP JUMPDEST PUSH32 0x426F6E6420726564656D7074696F6E20706572696F6420686173206E6F742073 PUSH0 DUP3 ADD MSTORE PUSH32 0x7461727465640000000000000000000000000000000000000000000000000000 PUSH1 0x20 DUP3 ADD MSTORE POP JUMP JUMPDEST PUSH0 PUSH2 0x11D8 PUSH1 0x26 DUP4 PUSH2 0xB06 JUMP JUMPDEST SWAP2 POP PUSH2 0x11E3 DUP3 PUSH2 0x117E JUMP JUMPDEST PUSH1 0x40 DUP3 ADD SWAP1 POP SWAP2 SWAP1 POP JUMP JUMPDEST PUSH0 PUSH1 0x20 DUP3 ADD SWAP1 POP DUP2 DUP2 SUB PUSH0 DUP4 ADD MSTORE PUSH2 0x1205 DUP2 PUSH2 0x11CC JUMP JUMPDEST SWAP1 POP SWAP2 SWAP1 POP JUMP JUMPDEST PUSH32 0x4E6F20626F6E647320746F2072656465656D0000000000000000000000000000 PUSH0 DUP3 ADD MSTORE POP JUMP JUMPDEST PUSH0 PUSH2 0x1240 PUSH1 0x12 DUP4 PUSH2 0xB06 JUMP JUMPDEST SWAP2 POP PUSH2 0x124B DUP3 PUSH2 0x120C JUMP JUMPDEST PUSH1 0x20 DUP3 ADD SWAP1 POP SWAP2 SWAP1 POP JUMP JUMPDEST PUSH0 PUSH1 0x20 DUP3 ADD SWAP1 POP DUP2 DUP2 SUB PUSH0 DUP4 ADD MSTORE PUSH2 0x126D DUP2 PUSH2 0x1234 JUMP JUMPDEST SWAP1 POP SWAP2 SWAP1 POP JUMP JUMPDEST PUSH32 0x496E73756666696369656E7420636F6E74726163742062616C616E636520666F PUSH0 DUP3 ADD MSTORE PUSH32 0x72207061796F7574000000000000000000000000000000000000000000000000 PUSH1 0x20 DUP3 ADD MSTORE POP JUMP JUMPDEST PUSH0 PUSH2 0x12CE PUSH1 0x28 DUP4 PUSH2 0xB06 JUMP JUMPDEST SWAP2 POP PUSH2 0x12D9 DUP3 PUSH2 0x1274 JUMP JUMPDEST PUSH1 0x40 DUP3 ADD SWAP1 POP SWAP2 SWAP1 POP JUMP JUMPDEST PUSH0 PUSH1 0x20 DUP3 ADD SWAP1 POP DUP2 DUP2 SUB PUSH0 DUP4 ADD MSTORE PUSH2 0x12FB DUP2 PUSH2 0x12C2 JUMP JUMPDEST SWAP1 POP SWAP2 SWAP1 POP JUMP INVALID LOG2 PUSH5 0x6970667358 0x22 SLT KECCAK256 ADDRESS 0xE0 SLT 0xCB PUSH27 0xE6F04A707BEEB95F2B0B3243272954581D8FCB1D54AEF923491733 PUSH5 0x736F6C6343 STOP ADDMOD BYTE STOP CALLER "
		},
		"gasEstimates": {
			"creation": {
				"codeDepositCost": "984000",
				"executionCost": "25284",
				"totalCost": "1009284"
			},
			"external": {
				"bondHolders(address)": "2803",
				"bondPrice()": "2491",
				"interestRate()": "2514",
				"isIssued()": "2488",
				"issueBonds(uint256,uint256,uint256,uint256)": "infinite",
				"issuer()": "2528",
				"maturityDate()": "2469",
				"purchaseBonds()": "infinite",
				"redeemBonds()": "infinite",
				"totalBonds()": "2535",
				"totalInvested()": "2492"
			}
		},
		"methodIdentifiers": {
			"bondHolders(address)": "108c52a7",
			"bondPrice()": "d7ccfb0b",
			"interestRate()": "7c3a00fd",
			"isIssued()": "d33ce61a",
			"issueBonds(uint256,uint256,uint256,uint256)": "89585083",
			"issuer()": "1d143848",
			"maturityDate()": "d59624b4",
			"purchaseBonds()": "3d31841b",
			"redeemBonds()": "e84a011a",
			"totalBonds()": "f263c470",
			"totalInvested()": "5216aeec"
		}
	},
	"abi": [
		{
			"inputs": [],
			"stateMutability": "nonpayable",
			"type": "constructor"
		},
		{
			"anonymous": false,
			"inputs": [
				{
					"indexed": false,
					"internalType": "uint256",
					"name": "totalBonds",
					"type": "uint256"
				},
				{
					"indexed": false,
					"internalType": "uint256",
					"name": "bondPrice",
					"type": "uint256"
				},
				{
					"indexed": false,
					"internalType": "uint256",
					"name": "interestRate",
					"type": "uint256"
				},
				{
					"indexed": false,
					"internalType": "uint256",
					"name": "maturityDate",
					"type": "uint256"
				}
			],
			"name": "BondsIssued",
			"type": "event"
		},
		{
			"anonymous": false,
			"inputs": [
				{
					"indexed": true,
					"internalType": "address",
					"name": "buyer",
					"type": "address"
				},
				{
					"indexed": false,
					"internalType": "uint256",
					"name": "amount",
					"type": "uint256"
				}
			],
			"name": "BondsPurchased",
			"type": "event"
		},
		{
			"anonymous": false,
			"inputs": [
				{
					"indexed": true,
					"internalType": "address",
					"name": "holder",
					"type": "address"
				},
				{
					"indexed": false,
					"internalType": "uint256",
					"name": "amount",
					"type": "uint256"
				}
			],
			"name": "BondsRedeemed",
			"type": "event"
		},
		{
			"anonymous": false,
			"inputs": [
				{
					"indexed": true,
					"internalType": "address",
					"name": "issuer",
					"type": "address"
				},
				{
					"indexed": false,
					"internalType": "uint256",
					"name": "amount",
					"type": "uint256"
				}
			],
			"name": "FundsWithdrawn",
			"type": "event"
		},
		{
			"inputs": [
				{
					"internalType": "address",
					"name": "",
					"type": "address"
				}
			],
			"name": "bondHolders",
			"outputs": [
				{
					"internalType": "uint256",
					"name": "",
					"type": "uint256"
				}
			],
			"stateMutability": "view",
			"type": "function"
		},
		{
			"inputs": [],
			"name": "bondPrice",
			"outputs": [
				{
					"internalType": "uint256",
					"name": "",
					"type": "uint256"
				}
			],
			"stateMutability": "view",
			"type": "function"
		},
		{
			"inputs": [],
			"name": "interestRate",
			"outputs": [
				{
					"internalType": "uint256",
					"name": "",
					"type": "uint256"
				}
			],
			"stateMutability": "view",
			"type": "function"
		},
		{
			"inputs": [],
			"name": "isIssued",
			"outputs": [
				{
					"internalType": "bool",
					"name": "",
					"type": "bool"
				}
			],
			"stateMutability": "view",
			"type": "function"
		},
		{
			"inputs": [
				{
					"internalType": "uint256",
					"name": "_totalBonds",
					"type": "uint256"
				},
				{
					"internalType": "uint256",
					"name": "_bondPrice",
					"type": "uint256"
				},
				{
					"internalType": "uint256",
					"name": "_interestRate",
					"type": "uint256"
				},
				{
					"internalType": "uint256",
					"name": "_maturityDate",
					"type": "uint256"
				}
			],
			"name": "issueBonds",
			"outputs": [],
			"stateMutability": "nonpayable",
			"type": "function"
		},
		{
			"inputs": [],
			"name": "issuer",
			"outputs": [
				{
					"internalType": "address",
					"name": "",
					"type": "address"
				}
			],
			"stateMutability": "view",
			"type": "function"
		},
		{
			"inputs": [],
			"name": "maturityDate",
			"outputs": [
				{
					"internalType": "uint256",
					"name": "",
					"type": "uint256"
				}
			],
			"stateMutability": "view",
			"type": "function"
		},
		{
			"inputs": [],
			"name": "purchaseBonds",
			"outputs": [],
			"stateMutability": "payable",
			"type": "function"
		},
		{
			"inputs": [],
			"name": "redeemBonds",
			"outputs": [],
			"stateMutability": "nonpayable",
			"type": "function"
		},
		{
			"inputs": [],
			"name": "totalBonds",
			"outputs": [
				{
					"internalType": "uint256",
					"name": "",
					"type": "uint256"
				}
			],
			"stateMutability": "view",
			"type": "function"
		},
		{
			"inputs": [],
			"name": "totalInvested",
			"outputs": [
				{
					"internalType": "uint256",
					"name": "",
					"type": "uint256"
				}
			],
			"stateMutability": "view",
			"type": "function"
		},
		{
			"stateMutability": "payable",
			"type": "receive"
		}
	]
}