{
	"6 занятие/Auction.sol": {
		"Auction": {
			"abi": [
				{
					"inputs": [
						{
							"internalType": "string",
							"name": "_item",
							"type": "string"
						},
						{
							"internalType": "uint256",
							"name": "_startingCost",
							"type": "uint256"
						},
						{
							"internalType": "uint256",
							"name": "_bidStep",
							"type": "uint256"
						},
						{
							"internalType": "uint256",
							"name": "_maxParticipants",
							"type": "uint256"
						},
						{
							"internalType": "uint256",
							"name": "_stepTime",
							"type": "uint256"
						}
					],
					"stateMutability": "nonpayable",
					"type": "constructor"
				},
				{
					"inputs": [],
					"name": "Bid",
					"outputs": [],
					"stateMutability": "payable",
					"type": "function"
				},
				{
					"inputs": [],
					"name": "BidStep",
					"outputs": [
						{
							"internalType": "uint256",
							"name": "",
							"type": "uint256"
						}
					],
					"stateMutability": "view",
					"type": "function"
				},
				{
					"inputs": [],
					"name": "CurrentCost",
					"outputs": [
						{
							"internalType": "uint256",
							"name": "",
							"type": "uint256"
						}
					],
					"stateMutability": "view",
					"type": "function"
				},
				{
					"inputs": [],
					"name": "CurrentParticipantsAmount",
					"outputs": [
						{
							"internalType": "uint256",
							"name": "",
							"type": "uint256"
						}
					],
					"stateMutability": "view",
					"type": "function"
				},
				{
					"inputs": [],
					"name": "EndAuction",
					"outputs": [],
					"stateMutability": "nonpayable",
					"type": "function"
				},
				{
					"inputs": [],
					"name": "GetBidHistory",
					"outputs": [
						{
							"components": [
								{
									"internalType": "address",
									"name": "bidder",
									"type": "address"
								},
								{
									"internalType": "uint256",
									"name": "amount",
									"type": "uint256"
								},
								{
									"internalType": "uint256",
									"name": "timestamp",
									"type": "uint256"
								}
							],
							"internalType": "struct Auction.BidRecord[]",
							"name": "",
							"type": "tuple[]"
						}
					],
					"stateMutability": "view",
					"type": "function"
				},
				{
					"inputs": [],
					"name": "GetItem",
					"outputs": [
						{
							"internalType": "string",
							"name": "",
							"type": "string"
						}
					],
					"stateMutability": "view",
					"type": "function"
				},
				{
					"inputs": [
						{
							"internalType": "address",
							"name": "account",
							"type": "address"
						}
					],
					"name": "GetPermission",
					"outputs": [],
					"stateMutability": "nonpayable",
					"type": "function"
				},
				{
					"inputs": [],
					"name": "HasEnded",
					"outputs": [
						{
							"internalType": "bool",
							"name": "",
							"type": "bool"
						}
					],
					"stateMutability": "view",
					"type": "function"
				},
				{
					"inputs": [],
					"name": "HasStarted",
					"outputs": [
						{
							"internalType": "bool",
							"name": "",
							"type": "bool"
						}
					],
					"stateMutability": "view",
					"type": "function"
				},
				{
					"inputs": [],
					"name": "Item",
					"outputs": [
						{
							"internalType": "string",
							"name": "",
							"type": "string"
						}
					],
					"stateMutability": "view",
					"type": "function"
				},
				{
					"inputs": [],
					"name": "MaxParticipants",
					"outputs": [
						{
							"internalType": "uint256",
							"name": "",
							"type": "uint256"
						}
					],
					"stateMutability": "view",
					"type": "function"
				},
				{
					"inputs": [],
					"name": "Refund",
					"outputs": [],
					"stateMutability": "nonpayable",
					"type": "function"
				},
				{
					"inputs": [],
					"name": "SELLER",
					"outputs": [
						{
							"internalType": "address",
							"name": "",
							"type": "address"
						}
					],
					"stateMutability": "view",
					"type": "function"
				},
				{
					"inputs": [],
					"name": "StartAuction",
					"outputs": [],
					"stateMutability": "nonpayable",
					"type": "function"
				},
				{
					"inputs": [],
					"name": "StartTime",
					"outputs": [
						{
							"internalType": "uint256",
							"name": "",
							"type": "uint256"
						}
					],
					"stateMutability": "view",
					"type": "function"
				},
				{
					"inputs": [],
					"name": "StartingCost",
					"outputs": [
						{
							"internalType": "uint256",
							"name": "",
							"type": "uint256"
						}
					],
					"stateMutability": "view",
					"type": "function"
				},
				{
					"inputs": [],
					"name": "StepTime",
					"outputs": [
						{
							"internalType": "uint256",
							"name": "",
							"type": "uint256"
						}
					],
					"stateMutability": "view",
					"type": "function"
				},
				{
					"inputs": [],
					"name": "Winner",
					"outputs": [
						{
							"internalType": "address",
							"name": "",
							"type": "address"
						}
					],
					"stateMutability": "view",
					"type": "function"
				}
			],
			"devdoc": {
				"kind": "dev",
				"methods": {},
				"version": 1
			},
			"evm": {
				"assembly": "    /* \"6 \\xd0\\xb7\\xd0\\xb0\\xd0\\xbd\\xd1\\x8f\\xd1\\x82\\xd0\\xb8\\xd0\\xb5/Auction.sol\":115:4669  contract Auction{... */\n  mstore(0x40, 0xa0)\n    /* \"6 \\xd0\\xb7\\xd0\\xb0\\xd0\\xbd\\xd1\\x8f\\xd1\\x82\\xd0\\xb8\\xd0\\xb5/Auction.sol\":712:1148  constructor(string memory _item,... */\n  callvalue\n  dup1\n  iszero\n  tag_1\n  jumpi\n  0x00\n  dup1\n  revert\ntag_1:\n  pop\n  mload(0x40)\n  sub(codesize, bytecodeSize)\n  dup1\n  bytecodeSize\n  dup4\n  codecopy\n  dup2\n  dup2\n  add\n  0x40\n  mstore\n  dup2\n  add\n  swap1\n  tag_2\n  swap2\n  swap1\n  tag_3\n  jump\t// in\ntag_2:\n    /* \"6 \\xd0\\xb7\\xd0\\xb0\\xd0\\xbd\\xd1\\x8f\\xd1\\x82\\xd0\\xb8\\xd0\\xb5/Auction.sol\":906:916  msg.sender */\n  caller\n    /* \"6 \\xd0\\xb7\\xd0\\xb0\\xd0\\xbd\\xd1\\x8f\\xd1\\x82\\xd0\\xb8\\xd0\\xb5/Auction.sol\":897:916  SELLER = msg.sender */\n  0xffffffffffffffffffffffffffffffffffffffff\n  and\n  0x80\n  dup2\n  0xffffffffffffffffffffffffffffffffffffffff\n  and\n  dup2\n  mstore\n  pop\n  pop\n    /* \"6 \\xd0\\xb7\\xd0\\xb0\\xd0\\xbd\\xd1\\x8f\\xd1\\x82\\xd0\\xb8\\xd0\\xb5/Auction.sol\":934:939  _item */\n  dup5\n    /* \"6 \\xd0\\xb7\\xd0\\xb0\\xd0\\xbd\\xd1\\x8f\\xd1\\x82\\xd0\\xb8\\xd0\\xb5/Auction.sol\":927:931  Item */\n  0x00\n    /* \"6 \\xd0\\xb7\\xd0\\xb0\\xd0\\xbd\\xd1\\x8f\\xd1\\x82\\xd0\\xb8\\xd0\\xb5/Auction.sol\":927:939  Item = _item */\n  swap1\n  dup2\n  tag_6\n  swap2\n  swap1\n  tag_7\n  jump\t// in\ntag_6:\n  pop\n    /* \"6 \\xd0\\xb7\\xd0\\xb0\\xd0\\xbd\\xd1\\x8f\\xd1\\x82\\xd0\\xb8\\xd0\\xb5/Auction.sol\":981:988  1 ether */\n  0x0de0b6b3a7640000\n    /* \"6 \\xd0\\xb7\\xd0\\xb0\\xd0\\xbd\\xd1\\x8f\\xd1\\x82\\xd0\\xb8\\xd0\\xb5/Auction.sol\":965:978  _startingCost */\n  dup5\n    /* \"6 \\xd0\\xb7\\xd0\\xb0\\xd0\\xbd\\xd1\\x8f\\xd1\\x82\\xd0\\xb8\\xd0\\xb5/Auction.sol\":965:988  _startingCost * 1 ether */\n  tag_8\n  swap2\n  swap1\n  tag_9\n  jump\t// in\ntag_8:\n    /* \"6 \\xd0\\xb7\\xd0\\xb0\\xd0\\xbd\\xd1\\x8f\\xd1\\x82\\xd0\\xb8\\xd0\\xb5/Auction.sol\":950:962  StartingCost */\n  0x03\n    /* \"6 \\xd0\\xb7\\xd0\\xb0\\xd0\\xbd\\xd1\\x8f\\xd1\\x82\\xd0\\xb8\\xd0\\xb5/Auction.sol\":950:988  StartingCost = _startingCost * 1 ether */\n  dup2\n  swap1\n  sstore\n  pop\n    /* \"6 \\xd0\\xb7\\xd0\\xb0\\xd0\\xbd\\xd1\\x8f\\xd1\\x82\\xd0\\xb8\\xd0\\xb5/Auction.sol\":1013:1025  StartingCost */\n  sload(0x03)\n    /* \"6 \\xd0\\xb7\\xd0\\xb0\\xd0\\xbd\\xd1\\x8f\\xd1\\x82\\xd0\\xb8\\xd0\\xb5/Auction.sol\":999:1010  CurrentCost */\n  0x05\n    /* \"6 \\xd0\\xb7\\xd0\\xb0\\xd0\\xbd\\xd1\\x8f\\xd1\\x82\\xd0\\xb8\\xd0\\xb5/Auction.sol\":999:1025  CurrentCost = StartingCost */\n  dup2\n  swap1\n  sstore\n  pop\n    /* \"6 \\xd0\\xb7\\xd0\\xb0\\xd0\\xbd\\xd1\\x8f\\xd1\\x82\\xd0\\xb8\\xd0\\xb5/Auction.sol\":1057:1064  1 ether */\n  0x0de0b6b3a7640000\n    /* \"6 \\xd0\\xb7\\xd0\\xb0\\xd0\\xbd\\xd1\\x8f\\xd1\\x82\\xd0\\xb8\\xd0\\xb5/Auction.sol\":1046:1054  _bidStep */\n  dup4\n    /* \"6 \\xd0\\xb7\\xd0\\xb0\\xd0\\xbd\\xd1\\x8f\\xd1\\x82\\xd0\\xb8\\xd0\\xb5/Auction.sol\":1046:1064  _bidStep * 1 ether */\n  tag_10\n  swap2\n  swap1\n  tag_9\n  jump\t// in\ntag_10:\n    /* \"6 \\xd0\\xb7\\xd0\\xb0\\xd0\\xbd\\xd1\\x8f\\xd1\\x82\\xd0\\xb8\\xd0\\xb5/Auction.sol\":1036:1043  BidStep */\n  0x04\n    /* \"6 \\xd0\\xb7\\xd0\\xb0\\xd0\\xbd\\xd1\\x8f\\xd1\\x82\\xd0\\xb8\\xd0\\xb5/Auction.sol\":1036:1064  BidStep = _bidStep * 1 ether */\n  dup2\n  swap1\n  sstore\n  pop\n    /* \"6 \\xd0\\xb7\\xd0\\xb0\\xd0\\xbd\\xd1\\x8f\\xd1\\x82\\xd0\\xb8\\xd0\\xb5/Auction.sol\":1093:1109  _maxParticipants */\n  dup2\n    /* \"6 \\xd0\\xb7\\xd0\\xb0\\xd0\\xbd\\xd1\\x8f\\xd1\\x82\\xd0\\xb8\\xd0\\xb5/Auction.sol\":1075:1090  MaxParticipants */\n  0x0a\n    /* \"6 \\xd0\\xb7\\xd0\\xb0\\xd0\\xbd\\xd1\\x8f\\xd1\\x82\\xd0\\xb8\\xd0\\xb5/Auction.sol\":1075:1109  MaxParticipants = _maxParticipants */\n  dup2\n  swap1\n  sstore\n  pop\n    /* \"6 \\xd0\\xb7\\xd0\\xb0\\xd0\\xbd\\xd1\\x8f\\xd1\\x82\\xd0\\xb8\\xd0\\xb5/Auction.sol\":1131:1140  _stepTime */\n  dup1\n    /* \"6 \\xd0\\xb7\\xd0\\xb0\\xd0\\xbd\\xd1\\x8f\\xd1\\x82\\xd0\\xb8\\xd0\\xb5/Auction.sol\":1120:1128  StepTime */\n  0x08\n    /* \"6 \\xd0\\xb7\\xd0\\xb0\\xd0\\xbd\\xd1\\x8f\\xd1\\x82\\xd0\\xb8\\xd0\\xb5/Auction.sol\":1120:1140  StepTime = _stepTime */\n  dup2\n  swap1\n  sstore\n  pop\n    /* \"6 \\xd0\\xb7\\xd0\\xb0\\xd0\\xbd\\xd1\\x8f\\xd1\\x82\\xd0\\xb8\\xd0\\xb5/Auction.sol\":712:1148  constructor(string memory _item,... */\n  pop\n  pop\n  pop\n  pop\n  pop\n    /* \"6 \\xd0\\xb7\\xd0\\xb0\\xd0\\xbd\\xd1\\x8f\\xd1\\x82\\xd0\\xb8\\xd0\\xb5/Auction.sol\":115:4669  contract Auction{... */\n  jump(tag_11)\n    /* \"#utility.yul\":7:82   */\ntag_12:\n    /* \"#utility.yul\":40:46   */\n  0x00\n    /* \"#utility.yul\":73:75   */\n  0x40\n    /* \"#utility.yul\":67:76   */\n  mload\n    /* \"#utility.yul\":57:76   */\n  swap1\n  pop\n    /* \"#utility.yul\":7:82   */\n  swap1\n  jump\t// out\n    /* \"#utility.yul\":88:205   */\ntag_13:\n    /* \"#utility.yul\":197:198   */\n  0x00\n    /* \"#utility.yul\":194:195   */\n  dup1\n    /* \"#utility.yul\":187:199   */\n  revert\n    /* \"#utility.yul\":211:328   */\ntag_14:\n    /* \"#utility.yul\":320:321   */\n  0x00\n    /* \"#utility.yul\":317:318   */\n  dup1\n    /* \"#utility.yul\":310:322   */\n  revert\n    /* \"#utility.yul\":334:451   */\ntag_15:\n    /* \"#utility.yul\":443:444   */\n  0x00\n    /* \"#utility.yul\":440:441   */\n  dup1\n    /* \"#utility.yul\":433:445   */\n  revert\n    /* \"#utility.yul\":457:574   */\ntag_16:\n    /* \"#utility.yul\":566:567   */\n  0x00\n    /* \"#utility.yul\":563:564   */\n  dup1\n    /* \"#utility.yul\":556:568   */\n  revert\n    /* \"#utility.yul\":580:682   */\ntag_17:\n    /* \"#utility.yul\":621:627   */\n  0x00\n    /* \"#utility.yul\":672:674   */\n  0x1f\n    /* \"#utility.yul\":668:675   */\n  not\n    /* \"#utility.yul\":663:665   */\n  0x1f\n    /* \"#utility.yul\":656:661   */\n  dup4\n    /* \"#utility.yul\":652:666   */\n  add\n    /* \"#utility.yul\":648:676   */\n  and\n    /* \"#utility.yul\":638:676   */\n  swap1\n  pop\n    /* \"#utility.yul\":580:682   */\n  swap2\n  swap1\n  pop\n  jump\t// out\n    /* \"#utility.yul\":688:868   */\ntag_18:\n    /* \"#utility.yul\":736:813   */\n  0x4e487b7100000000000000000000000000000000000000000000000000000000\n    /* \"#utility.yul\":733:734   */\n  0x00\n    /* \"#utility.yul\":726:814   */\n  mstore\n    /* \"#utility.yul\":833:837   */\n  0x41\n    /* \"#utility.yul\":830:831   */\n  0x04\n    /* \"#utility.yul\":823:838   */\n  mstore\n    /* \"#utility.yul\":857:861   */\n  0x24\n    /* \"#utility.yul\":854:855   */\n  0x00\n    /* \"#utility.yul\":847:862   */\n  revert\n    /* \"#utility.yul\":874:1155   */\ntag_19:\n    /* \"#utility.yul\":957:984   */\n  tag_56\n    /* \"#utility.yul\":979:983   */\n  dup3\n    /* \"#utility.yul\":957:984   */\n  tag_17\n  jump\t// in\ntag_56:\n    /* \"#utility.yul\":949:955   */\n  dup2\n    /* \"#utility.yul\":945:985   */\n  add\n    /* \"#utility.yul\":1087:1093   */\n  dup2\n    /* \"#utility.yul\":1075:1085   */\n  dup2\n    /* \"#utility.yul\":1072:1094   */\n  lt\n    /* \"#utility.yul\":1051:1069   */\n  0xffffffffffffffff\n    /* \"#utility.yul\":1039:1049   */\n  dup3\n    /* \"#utility.yul\":1036:1070   */\n  gt\n    /* \"#utility.yul\":1033:1095   */\n  or\n    /* \"#utility.yul\":1030:1118   */\n  iszero\n  tag_57\n  jumpi\n    /* \"#utility.yul\":1098:1116   */\n  tag_58\n  tag_18\n  jump\t// in\ntag_58:\n    /* \"#utility.yul\":1030:1118   */\ntag_57:\n    /* \"#utility.yul\":1138:1148   */\n  dup1\n    /* \"#utility.yul\":1134:1136   */\n  0x40\n    /* \"#utility.yul\":1127:1149   */\n  mstore\n    /* \"#utility.yul\":917:1155   */\n  pop\n    /* \"#utility.yul\":874:1155   */\n  pop\n  pop\n  jump\t// out\n    /* \"#utility.yul\":1161:1290   */\ntag_20:\n    /* \"#utility.yul\":1195:1201   */\n  0x00\n    /* \"#utility.yul\":1222:1242   */\n  tag_60\n  tag_12\n  jump\t// in\ntag_60:\n    /* \"#utility.yul\":1212:1242   */\n  swap1\n  pop\n    /* \"#utility.yul\":1251:1284   */\n  tag_61\n    /* \"#utility.yul\":1279:1283   */\n  dup3\n    /* \"#utility.yul\":1271:1277   */\n  dup3\n    /* \"#utility.yul\":1251:1284   */\n  tag_19\n  jump\t// in\ntag_61:\n    /* \"#utility.yul\":1161:1290   */\n  swap2\n  swap1\n  pop\n  jump\t// out\n    /* \"#utility.yul\":1296:1604   */\ntag_21:\n    /* \"#utility.yul\":1358:1362   */\n  0x00\n    /* \"#utility.yul\":1448:1466   */\n  0xffffffffffffffff\n    /* \"#utility.yul\":1440:1446   */\n  dup3\n    /* \"#utility.yul\":1437:1467   */\n  gt\n    /* \"#utility.yul\":1434:1490   */\n  iszero\n  tag_63\n  jumpi\n    /* \"#utility.yul\":1470:1488   */\n  tag_64\n  tag_18\n  jump\t// in\ntag_64:\n    /* \"#utility.yul\":1434:1490   */\ntag_63:\n    /* \"#utility.yul\":1508:1537   */\n  tag_65\n    /* \"#utility.yul\":1530:1536   */\n  dup3\n    /* \"#utility.yul\":1508:1537   */\n  tag_17\n  jump\t// in\ntag_65:\n    /* \"#utility.yul\":1500:1537   */\n  swap1\n  pop\n    /* \"#utility.yul\":1592:1596   */\n  0x20\n    /* \"#utility.yul\":1586:1590   */\n  dup2\n    /* \"#utility.yul\":1582:1597   */\n  add\n    /* \"#utility.yul\":1574:1597   */\n  swap1\n  pop\n    /* \"#utility.yul\":1296:1604   */\n  swap2\n  swap1\n  pop\n  jump\t// out\n    /* \"#utility.yul\":1610:1749   */\ntag_22:\n    /* \"#utility.yul\":1699:1705   */\n  dup3\n    /* \"#utility.yul\":1694:1697   */\n  dup2\n    /* \"#utility.yul\":1689:1692   */\n  dup4\n    /* \"#utility.yul\":1683:1706   */\n  mcopy\n    /* \"#utility.yul\":1740:1741   */\n  0x00\n    /* \"#utility.yul\":1731:1737   */\n  dup4\n    /* \"#utility.yul\":1726:1729   */\n  dup4\n    /* \"#utility.yul\":1722:1738   */\n  add\n    /* \"#utility.yul\":1715:1742   */\n  mstore\n    /* \"#utility.yul\":1610:1749   */\n  pop\n  pop\n  pop\n  jump\t// out\n    /* \"#utility.yul\":1755:2189   */\ntag_23:\n    /* \"#utility.yul\":1844:1849   */\n  0x00\n    /* \"#utility.yul\":1869:1935   */\n  tag_68\n    /* \"#utility.yul\":1885:1934   */\n  tag_69\n    /* \"#utility.yul\":1927:1933   */\n  dup5\n    /* \"#utility.yul\":1885:1934   */\n  tag_21\n  jump\t// in\ntag_69:\n    /* \"#utility.yul\":1869:1935   */\n  tag_20\n  jump\t// in\ntag_68:\n    /* \"#utility.yul\":1860:1935   */\n  swap1\n  pop\n    /* \"#utility.yul\":1958:1964   */\n  dup3\n    /* \"#utility.yul\":1951:1956   */\n  dup2\n    /* \"#utility.yul\":1944:1965   */\n  mstore\n    /* \"#utility.yul\":1996:2000   */\n  0x20\n    /* \"#utility.yul\":1989:1994   */\n  dup2\n    /* \"#utility.yul\":1985:2001   */\n  add\n    /* \"#utility.yul\":2034:2037   */\n  dup5\n    /* \"#utility.yul\":2025:2031   */\n  dup5\n    /* \"#utility.yul\":2020:2023   */\n  dup5\n    /* \"#utility.yul\":2016:2032   */\n  add\n    /* \"#utility.yul\":2013:2038   */\n  gt\n    /* \"#utility.yul\":2010:2122   */\n  iszero\n  tag_70\n  jumpi\n    /* \"#utility.yul\":2041:2120   */\n  tag_71\n  tag_16\n  jump\t// in\ntag_71:\n    /* \"#utility.yul\":2010:2122   */\ntag_70:\n    /* \"#utility.yul\":2131:2183   */\n  tag_72\n    /* \"#utility.yul\":2176:2182   */\n  dup5\n    /* \"#utility.yul\":2171:2174   */\n  dup3\n    /* \"#utility.yul\":2166:2169   */\n  dup6\n    /* \"#utility.yul\":2131:2183   */\n  tag_22\n  jump\t// in\ntag_72:\n    /* \"#utility.yul\":1850:2189   */\n  pop\n    /* \"#utility.yul\":1755:2189   */\n  swap4\n  swap3\n  pop\n  pop\n  pop\n  jump\t// out\n    /* \"#utility.yul\":2209:2564   */\ntag_24:\n    /* \"#utility.yul\":2276:2281   */\n  0x00\n    /* \"#utility.yul\":2325:2328   */\n  dup3\n    /* \"#utility.yul\":2318:2322   */\n  0x1f\n    /* \"#utility.yul\":2310:2316   */\n  dup4\n    /* \"#utility.yul\":2306:2323   */\n  add\n    /* \"#utility.yul\":2302:2329   */\n  slt\n    /* \"#utility.yul\":2292:2414   */\n  tag_74\n  jumpi\n    /* \"#utility.yul\":2333:2412   */\n  tag_75\n  tag_15\n  jump\t// in\ntag_75:\n    /* \"#utility.yul\":2292:2414   */\ntag_74:\n    /* \"#utility.yul\":2443:2449   */\n  dup2\n    /* \"#utility.yul\":2437:2450   */\n  mload\n    /* \"#utility.yul\":2468:2558   */\n  tag_76\n    /* \"#utility.yul\":2554:2557   */\n  dup5\n    /* \"#utility.yul\":2546:2552   */\n  dup3\n    /* \"#utility.yul\":2539:2543   */\n  0x20\n    /* \"#utility.yul\":2531:2537   */\n  dup7\n    /* \"#utility.yul\":2527:2544   */\n  add\n    /* \"#utility.yul\":2468:2558   */\n  tag_23\n  jump\t// in\ntag_76:\n    /* \"#utility.yul\":2459:2558   */\n  swap2\n  pop\n    /* \"#utility.yul\":2282:2564   */\n  pop\n    /* \"#utility.yul\":2209:2564   */\n  swap3\n  swap2\n  pop\n  pop\n  jump\t// out\n    /* \"#utility.yul\":2570:2647   */\ntag_25:\n    /* \"#utility.yul\":2607:2614   */\n  0x00\n    /* \"#utility.yul\":2636:2641   */\n  dup2\n    /* \"#utility.yul\":2625:2641   */\n  swap1\n  pop\n    /* \"#utility.yul\":2570:2647   */\n  swap2\n  swap1\n  pop\n  jump\t// out\n    /* \"#utility.yul\":2653:2775   */\ntag_26:\n    /* \"#utility.yul\":2726:2750   */\n  tag_79\n    /* \"#utility.yul\":2744:2749   */\n  dup2\n    /* \"#utility.yul\":2726:2750   */\n  tag_25\n  jump\t// in\ntag_79:\n    /* \"#utility.yul\":2719:2724   */\n  dup2\n    /* \"#utility.yul\":2716:2751   */\n  eq\n    /* \"#utility.yul\":2706:2769   */\n  tag_80\n  jumpi\n    /* \"#utility.yul\":2765:2766   */\n  0x00\n    /* \"#utility.yul\":2762:2763   */\n  dup1\n    /* \"#utility.yul\":2755:2767   */\n  revert\n    /* \"#utility.yul\":2706:2769   */\ntag_80:\n    /* \"#utility.yul\":2653:2775   */\n  pop\n  jump\t// out\n    /* \"#utility.yul\":2781:2924   */\ntag_27:\n    /* \"#utility.yul\":2838:2843   */\n  0x00\n    /* \"#utility.yul\":2869:2875   */\n  dup2\n    /* \"#utility.yul\":2863:2876   */\n  mload\n    /* \"#utility.yul\":2854:2876   */\n  swap1\n  pop\n    /* \"#utility.yul\":2885:2918   */\n  tag_82\n    /* \"#utility.yul\":2912:2917   */\n  dup2\n    /* \"#utility.yul\":2885:2918   */\n  tag_26\n  jump\t// in\ntag_82:\n    /* \"#utility.yul\":2781:2924   */\n  swap3\n  swap2\n  pop\n  pop\n  jump\t// out\n    /* \"#utility.yul\":2930:4080   */\ntag_3:\n    /* \"#utility.yul\":3046:3052   */\n  0x00\n    /* \"#utility.yul\":3054:3060   */\n  dup1\n    /* \"#utility.yul\":3062:3068   */\n  0x00\n    /* \"#utility.yul\":3070:3076   */\n  dup1\n    /* \"#utility.yul\":3078:3084   */\n  0x00\n    /* \"#utility.yul\":3127:3130   */\n  0xa0\n    /* \"#utility.yul\":3115:3124   */\n  dup7\n    /* \"#utility.yul\":3106:3113   */\n  dup9\n    /* \"#utility.yul\":3102:3125   */\n  sub\n    /* \"#utility.yul\":3098:3131   */\n  slt\n    /* \"#utility.yul\":3095:3215   */\n  iszero\n  tag_84\n  jumpi\n    /* \"#utility.yul\":3134:3213   */\n  tag_85\n  tag_13\n  jump\t// in\ntag_85:\n    /* \"#utility.yul\":3095:3215   */\ntag_84:\n    /* \"#utility.yul\":3275:3276   */\n  0x00\n    /* \"#utility.yul\":3264:3273   */\n  dup7\n    /* \"#utility.yul\":3260:3277   */\n  add\n    /* \"#utility.yul\":3254:3278   */\n  mload\n    /* \"#utility.yul\":3305:3323   */\n  0xffffffffffffffff\n    /* \"#utility.yul\":3297:3303   */\n  dup2\n    /* \"#utility.yul\":3294:3324   */\n  gt\n    /* \"#utility.yul\":3291:3408   */\n  iszero\n  tag_86\n  jumpi\n    /* \"#utility.yul\":3327:3406   */\n  tag_87\n  tag_14\n  jump\t// in\ntag_87:\n    /* \"#utility.yul\":3291:3408   */\ntag_86:\n    /* \"#utility.yul\":3432:3506   */\n  tag_88\n    /* \"#utility.yul\":3498:3505   */\n  dup9\n    /* \"#utility.yul\":3489:3495   */\n  dup3\n    /* \"#utility.yul\":3478:3487   */\n  dup10\n    /* \"#utility.yul\":3474:3496   */\n  add\n    /* \"#utility.yul\":3432:3506   */\n  tag_24\n  jump\t// in\ntag_88:\n    /* \"#utility.yul\":3422:3506   */\n  swap6\n  pop\n    /* \"#utility.yul\":3225:3516   */\n  pop\n    /* \"#utility.yul\":3555:3557   */\n  0x20\n    /* \"#utility.yul\":3581:3645   */\n  tag_89\n    /* \"#utility.yul\":3637:3644   */\n  dup9\n    /* \"#utility.yul\":3628:3634   */\n  dup3\n    /* \"#utility.yul\":3617:3626   */\n  dup10\n    /* \"#utility.yul\":3613:3635   */\n  add\n    /* \"#utility.yul\":3581:3645   */\n  tag_27\n  jump\t// in\ntag_89:\n    /* \"#utility.yul\":3571:3645   */\n  swap5\n  pop\n    /* \"#utility.yul\":3526:3655   */\n  pop\n    /* \"#utility.yul\":3694:3696   */\n  0x40\n    /* \"#utility.yul\":3720:3784   */\n  tag_90\n    /* \"#utility.yul\":3776:3783   */\n  dup9\n    /* \"#utility.yul\":3767:3773   */\n  dup3\n    /* \"#utility.yul\":3756:3765   */\n  dup10\n    /* \"#utility.yul\":3752:3774   */\n  add\n    /* \"#utility.yul\":3720:3784   */\n  tag_27\n  jump\t// in\ntag_90:\n    /* \"#utility.yul\":3710:3784   */\n  swap4\n  pop\n    /* \"#utility.yul\":3665:3794   */\n  pop\n    /* \"#utility.yul\":3833:3835   */\n  0x60\n    /* \"#utility.yul\":3859:3923   */\n  tag_91\n    /* \"#utility.yul\":3915:3922   */\n  dup9\n    /* \"#utility.yul\":3906:3912   */\n  dup3\n    /* \"#utility.yul\":3895:3904   */\n  dup10\n    /* \"#utility.yul\":3891:3913   */\n  add\n    /* \"#utility.yul\":3859:3923   */\n  tag_27\n  jump\t// in\ntag_91:\n    /* \"#utility.yul\":3849:3923   */\n  swap3\n  pop\n    /* \"#utility.yul\":3804:3933   */\n  pop\n    /* \"#utility.yul\":3972:3975   */\n  0x80\n    /* \"#utility.yul\":3999:4063   */\n  tag_92\n    /* \"#utility.yul\":4055:4062   */\n  dup9\n    /* \"#utility.yul\":4046:4052   */\n  dup3\n    /* \"#utility.yul\":4035:4044   */\n  dup10\n    /* \"#utility.yul\":4031:4053   */\n  add\n    /* \"#utility.yul\":3999:4063   */\n  tag_27\n  jump\t// in\ntag_92:\n    /* \"#utility.yul\":3989:4063   */\n  swap2\n  pop\n    /* \"#utility.yul\":3943:4073   */\n  pop\n    /* \"#utility.yul\":2930:4080   */\n  swap3\n  swap6\n  pop\n  swap3\n  swap6\n  swap1\n  swap4\n  pop\n  jump\t// out\n    /* \"#utility.yul\":4086:4185   */\ntag_28:\n    /* \"#utility.yul\":4138:4144   */\n  0x00\n    /* \"#utility.yul\":4172:4177   */\n  dup2\n    /* \"#utility.yul\":4166:4178   */\n  mload\n    /* \"#utility.yul\":4156:4178   */\n  swap1\n  pop\n    /* \"#utility.yul\":4086:4185   */\n  swap2\n  swap1\n  pop\n  jump\t// out\n    /* \"#utility.yul\":4191:4371   */\ntag_29:\n    /* \"#utility.yul\":4239:4316   */\n  0x4e487b7100000000000000000000000000000000000000000000000000000000\n    /* \"#utility.yul\":4236:4237   */\n  0x00\n    /* \"#utility.yul\":4229:4317   */\n  mstore\n    /* \"#utility.yul\":4336:4340   */\n  0x22\n    /* \"#utility.yul\":4333:4334   */\n  0x04\n    /* \"#utility.yul\":4326:4341   */\n  mstore\n    /* \"#utility.yul\":4360:4364   */\n  0x24\n    /* \"#utility.yul\":4357:4358   */\n  0x00\n    /* \"#utility.yul\":4350:4365   */\n  revert\n    /* \"#utility.yul\":4377:4697   */\ntag_30:\n    /* \"#utility.yul\":4421:4427   */\n  0x00\n    /* \"#utility.yul\":4458:4459   */\n  0x02\n    /* \"#utility.yul\":4452:4456   */\n  dup3\n    /* \"#utility.yul\":4448:4460   */\n  div\n    /* \"#utility.yul\":4438:4460   */\n  swap1\n  pop\n    /* \"#utility.yul\":4505:4506   */\n  0x01\n    /* \"#utility.yul\":4499:4503   */\n  dup3\n    /* \"#utility.yul\":4495:4507   */\n  and\n    /* \"#utility.yul\":4526:4544   */\n  dup1\n    /* \"#utility.yul\":4516:4597   */\n  tag_96\n  jumpi\n    /* \"#utility.yul\":4582:4586   */\n  0x7f\n    /* \"#utility.yul\":4574:4580   */\n  dup3\n    /* \"#utility.yul\":4570:4587   */\n  and\n    /* \"#utility.yul\":4560:4587   */\n  swap2\n  pop\n    /* \"#utility.yul\":4516:4597   */\ntag_96:\n    /* \"#utility.yul\":4644:4646   */\n  0x20\n    /* \"#utility.yul\":4636:4642   */\n  dup3\n    /* \"#utility.yul\":4633:4647   */\n  lt\n    /* \"#utility.yul\":4613:4631   */\n  dup2\n    /* \"#utility.yul\":4610:4648   */\n  sub\n    /* \"#utility.yul\":4607:4691   */\n  tag_97\n  jumpi\n    /* \"#utility.yul\":4663:4681   */\n  tag_98\n  tag_29\n  jump\t// in\ntag_98:\n    /* \"#utility.yul\":4607:4691   */\ntag_97:\n    /* \"#utility.yul\":4428:4697   */\n  pop\n    /* \"#utility.yul\":4377:4697   */\n  swap2\n  swap1\n  pop\n  jump\t// out\n    /* \"#utility.yul\":4703:4844   */\ntag_31:\n    /* \"#utility.yul\":4752:4756   */\n  0x00\n    /* \"#utility.yul\":4775:4778   */\n  dup2\n    /* \"#utility.yul\":4767:4778   */\n  swap1\n  pop\n    /* \"#utility.yul\":4798:4801   */\n  dup2\n    /* \"#utility.yul\":4795:4796   */\n  0x00\n    /* \"#utility.yul\":4788:4802   */\n  mstore\n    /* \"#utility.yul\":4832:4836   */\n  0x20\n    /* \"#utility.yul\":4829:4830   */\n  0x00\n    /* \"#utility.yul\":4819:4837   */\n  keccak256\n    /* \"#utility.yul\":4811:4837   */\n  swap1\n  pop\n    /* \"#utility.yul\":4703:4844   */\n  swap2\n  swap1\n  pop\n  jump\t// out\n    /* \"#utility.yul\":4850:4943   */\ntag_32:\n    /* \"#utility.yul\":4887:4893   */\n  0x00\n    /* \"#utility.yul\":4934:4936   */\n  0x20\n    /* \"#utility.yul\":4929:4931   */\n  0x1f\n    /* \"#utility.yul\":4922:4927   */\n  dup4\n    /* \"#utility.yul\":4918:4932   */\n  add\n    /* \"#utility.yul\":4914:4937   */\n  div\n    /* \"#utility.yul\":4904:4937   */\n  swap1\n  pop\n    /* \"#utility.yul\":4850:4943   */\n  swap2\n  swap1\n  pop\n  jump\t// out\n    /* \"#utility.yul\":4949:5056   */\ntag_33:\n    /* \"#utility.yul\":4993:5001   */\n  0x00\n    /* \"#utility.yul\":5043:5048   */\n  dup3\n    /* \"#utility.yul\":5037:5041   */\n  dup3\n    /* \"#utility.yul\":5033:5049   */\n  shl\n    /* \"#utility.yul\":5012:5049   */\n  swap1\n  pop\n    /* \"#utility.yul\":4949:5056   */\n  swap3\n  swap2\n  pop\n  pop\n  jump\t// out\n    /* \"#utility.yul\":5062:5455   */\ntag_34:\n    /* \"#utility.yul\":5131:5137   */\n  0x00\n    /* \"#utility.yul\":5181:5182   */\n  0x08\n    /* \"#utility.yul\":5169:5179   */\n  dup4\n    /* \"#utility.yul\":5165:5183   */\n  mul\n    /* \"#utility.yul\":5204:5301   */\n  tag_103\n    /* \"#utility.yul\":5234:5300   */\n  0xffffffffffffffffffffffffffffffffffffffffffffffffffffffffffffffff\n    /* \"#utility.yul\":5223:5232   */\n  dup3\n    /* \"#utility.yul\":5204:5301   */\n  tag_33\n  jump\t// in\ntag_103:\n    /* \"#utility.yul\":5322:5361   */\n  tag_104\n    /* \"#utility.yul\":5352:5360   */\n  dup7\n    /* \"#utility.yul\":5341:5350   */\n  dup4\n    /* \"#utility.yul\":5322:5361   */\n  tag_33\n  jump\t// in\ntag_104:\n    /* \"#utility.yul\":5310:5361   */\n  swap6\n  pop\n    /* \"#utility.yul\":5394:5398   */\n  dup1\n    /* \"#utility.yul\":5390:5399   */\n  not\n    /* \"#utility.yul\":5383:5388   */\n  dup5\n    /* \"#utility.yul\":5379:5400   */\n  and\n    /* \"#utility.yul\":5370:5400   */\n  swap4\n  pop\n    /* \"#utility.yul\":5443:5447   */\n  dup1\n    /* \"#utility.yul\":5433:5441   */\n  dup7\n    /* \"#utility.yul\":5429:5448   */\n  and\n    /* \"#utility.yul\":5422:5427   */\n  dup5\n    /* \"#utility.yul\":5419:5449   */\n  or\n    /* \"#utility.yul\":5409:5449   */\n  swap3\n  pop\n    /* \"#utility.yul\":5138:5455   */\n  pop\n  pop\n    /* \"#utility.yul\":5062:5455   */\n  swap4\n  swap3\n  pop\n  pop\n  pop\n  jump\t// out\n    /* \"#utility.yul\":5461:5521   */\ntag_35:\n    /* \"#utility.yul\":5489:5492   */\n  0x00\n    /* \"#utility.yul\":5510:5515   */\n  dup2\n    /* \"#utility.yul\":5503:5515   */\n  swap1\n  pop\n    /* \"#utility.yul\":5461:5521   */\n  swap2\n  swap1\n  pop\n  jump\t// out\n    /* \"#utility.yul\":5527:5669   */\ntag_36:\n    /* \"#utility.yul\":5577:5586   */\n  0x00\n    /* \"#utility.yul\":5610:5663   */\n  tag_107\n    /* \"#utility.yul\":5628:5662   */\n  tag_108\n    /* \"#utility.yul\":5637:5661   */\n  tag_109\n    /* \"#utility.yul\":5655:5660   */\n  dup5\n    /* \"#utility.yul\":5637:5661   */\n  tag_25\n  jump\t// in\ntag_109:\n    /* \"#utility.yul\":5628:5662   */\n  tag_35\n  jump\t// in\ntag_108:\n    /* \"#utility.yul\":5610:5663   */\n  tag_25\n  jump\t// in\ntag_107:\n    /* \"#utility.yul\":5597:5663   */\n  swap1\n  pop\n    /* \"#utility.yul\":5527:5669   */\n  swap2\n  swap1\n  pop\n  jump\t// out\n    /* \"#utility.yul\":5675:5750   */\ntag_37:\n    /* \"#utility.yul\":5718:5721   */\n  0x00\n    /* \"#utility.yul\":5739:5744   */\n  dup2\n    /* \"#utility.yul\":5732:5744   */\n  swap1\n  pop\n    /* \"#utility.yul\":5675:5750   */\n  swap2\n  swap1\n  pop\n  jump\t// out\n    /* \"#utility.yul\":5756:6025   */\ntag_38:\n    /* \"#utility.yul\":5866:5905   */\n  tag_112\n    /* \"#utility.yul\":5897:5904   */\n  dup4\n    /* \"#utility.yul\":5866:5905   */\n  tag_36\n  jump\t// in\ntag_112:\n    /* \"#utility.yul\":5927:6018   */\n  tag_113\n    /* \"#utility.yul\":5976:6017   */\n  tag_114\n    /* \"#utility.yul\":6000:6016   */\n  dup3\n    /* \"#utility.yul\":5976:6017   */\n  tag_37\n  jump\t// in\ntag_114:\n    /* \"#utility.yul\":5968:5974   */\n  dup5\n    /* \"#utility.yul\":5961:5965   */\n  dup5\n    /* \"#utility.yul\":5955:5966   */\n  sload\n    /* \"#utility.yul\":5927:6018   */\n  tag_34\n  jump\t// in\ntag_113:\n    /* \"#utility.yul\":5921:5925   */\n  dup3\n    /* \"#utility.yul\":5914:6019   */\n  sstore\n    /* \"#utility.yul\":5832:6025   */\n  pop\n    /* \"#utility.yul\":5756:6025   */\n  pop\n  pop\n  pop\n  jump\t// out\n    /* \"#utility.yul\":6031:6104   */\ntag_39:\n    /* \"#utility.yul\":6076:6079   */\n  0x00\n    /* \"#utility.yul\":6031:6104   */\n  swap1\n  jump\t// out\n    /* \"#utility.yul\":6110:6299   */\ntag_40:\n    /* \"#utility.yul\":6187:6219   */\n  tag_117\n  tag_39\n  jump\t// in\ntag_117:\n    /* \"#utility.yul\":6228:6293   */\n  tag_118\n    /* \"#utility.yul\":6286:6292   */\n  dup2\n    /* \"#utility.yul\":6278:6284   */\n  dup5\n    /* \"#utility.yul\":6272:6276   */\n  dup5\n    /* \"#utility.yul\":6228:6293   */\n  tag_38\n  jump\t// in\ntag_118:\n    /* \"#utility.yul\":6163:6299   */\n  pop\n    /* \"#utility.yul\":6110:6299   */\n  pop\n  pop\n  jump\t// out\n    /* \"#utility.yul\":6305:6491   */\ntag_41:\n    /* \"#utility.yul\":6365:6485   */\ntag_120:\n    /* \"#utility.yul\":6382:6385   */\n  dup2\n    /* \"#utility.yul\":6375:6380   */\n  dup2\n    /* \"#utility.yul\":6372:6386   */\n  lt\n    /* \"#utility.yul\":6365:6485   */\n  iszero\n  tag_122\n  jumpi\n    /* \"#utility.yul\":6436:6475   */\n  tag_123\n    /* \"#utility.yul\":6473:6474   */\n  0x00\n    /* \"#utility.yul\":6466:6471   */\n  dup3\n    /* \"#utility.yul\":6436:6475   */\n  tag_40\n  jump\t// in\ntag_123:\n    /* \"#utility.yul\":6409:6410   */\n  0x01\n    /* \"#utility.yul\":6402:6407   */\n  dup2\n    /* \"#utility.yul\":6398:6411   */\n  add\n    /* \"#utility.yul\":6389:6411   */\n  swap1\n  pop\n    /* \"#utility.yul\":6365:6485   */\n  jump(tag_120)\ntag_122:\n    /* \"#utility.yul\":6305:6491   */\n  pop\n  pop\n  jump\t// out\n    /* \"#utility.yul\":6497:7040   */\ntag_42:\n    /* \"#utility.yul\":6598:6600   */\n  0x1f\n    /* \"#utility.yul\":6593:6596   */\n  dup3\n    /* \"#utility.yul\":6590:6601   */\n  gt\n    /* \"#utility.yul\":6587:7033   */\n  iszero\n  tag_125\n  jumpi\n    /* \"#utility.yul\":6632:6670   */\n  tag_126\n    /* \"#utility.yul\":6664:6669   */\n  dup2\n    /* \"#utility.yul\":6632:6670   */\n  tag_31\n  jump\t// in\ntag_126:\n    /* \"#utility.yul\":6716:6745   */\n  tag_127\n    /* \"#utility.yul\":6734:6744   */\n  dup5\n    /* \"#utility.yul\":6716:6745   */\n  tag_32\n  jump\t// in\ntag_127:\n    /* \"#utility.yul\":6706:6714   */\n  dup2\n    /* \"#utility.yul\":6702:6746   */\n  add\n    /* \"#utility.yul\":6899:6901   */\n  0x20\n    /* \"#utility.yul\":6887:6897   */\n  dup6\n    /* \"#utility.yul\":6884:6902   */\n  lt\n    /* \"#utility.yul\":6881:6930   */\n  iszero\n  tag_128\n  jumpi\n    /* \"#utility.yul\":6920:6928   */\n  dup2\n    /* \"#utility.yul\":6905:6928   */\n  swap1\n  pop\n    /* \"#utility.yul\":6881:6930   */\ntag_128:\n    /* \"#utility.yul\":6943:7023   */\n  tag_129\n    /* \"#utility.yul\":6999:7021   */\n  tag_130\n    /* \"#utility.yul\":7017:7020   */\n  dup6\n    /* \"#utility.yul\":6999:7021   */\n  tag_32\n  jump\t// in\ntag_130:\n    /* \"#utility.yul\":6989:6997   */\n  dup4\n    /* \"#utility.yul\":6985:7022   */\n  add\n    /* \"#utility.yul\":6972:6983   */\n  dup3\n    /* \"#utility.yul\":6943:7023   */\n  tag_41\n  jump\t// in\ntag_129:\n    /* \"#utility.yul\":6602:7033   */\n  pop\n  pop\n    /* \"#utility.yul\":6587:7033   */\ntag_125:\n    /* \"#utility.yul\":6497:7040   */\n  pop\n  pop\n  pop\n  jump\t// out\n    /* \"#utility.yul\":7046:7163   */\ntag_43:\n    /* \"#utility.yul\":7100:7108   */\n  0x00\n    /* \"#utility.yul\":7150:7155   */\n  dup3\n    /* \"#utility.yul\":7144:7148   */\n  dup3\n    /* \"#utility.yul\":7140:7156   */\n  shr\n    /* \"#utility.yul\":7119:7156   */\n  swap1\n  pop\n    /* \"#utility.yul\":7046:7163   */\n  swap3\n  swap2\n  pop\n  pop\n  jump\t// out\n    /* \"#utility.yul\":7169:7338   */\ntag_44:\n    /* \"#utility.yul\":7213:7219   */\n  0x00\n    /* \"#utility.yul\":7246:7297   */\n  tag_133\n    /* \"#utility.yul\":7294:7295   */\n  0x00\n    /* \"#utility.yul\":7290:7296   */\n  not\n    /* \"#utility.yul\":7282:7287   */\n  dup5\n    /* \"#utility.yul\":7279:7280   */\n  0x08\n    /* \"#utility.yul\":7275:7288   */\n  mul\n    /* \"#utility.yul\":7246:7297   */\n  tag_43\n  jump\t// in\ntag_133:\n    /* \"#utility.yul\":7242:7298   */\n  not\n    /* \"#utility.yul\":7327:7331   */\n  dup1\n    /* \"#utility.yul\":7321:7325   */\n  dup4\n    /* \"#utility.yul\":7317:7332   */\n  and\n    /* \"#utility.yul\":7307:7332   */\n  swap2\n  pop\n    /* \"#utility.yul\":7220:7338   */\n  pop\n    /* \"#utility.yul\":7169:7338   */\n  swap3\n  swap2\n  pop\n  pop\n  jump\t// out\n    /* \"#utility.yul\":7343:7638   */\ntag_45:\n    /* \"#utility.yul\":7419:7423   */\n  0x00\n    /* \"#utility.yul\":7565:7594   */\n  tag_135\n    /* \"#utility.yul\":7590:7593   */\n  dup4\n    /* \"#utility.yul\":7584:7588   */\n  dup4\n    /* \"#utility.yul\":7565:7594   */\n  tag_44\n  jump\t// in\ntag_135:\n    /* \"#utility.yul\":7557:7594   */\n  swap2\n  pop\n    /* \"#utility.yul\":7627:7630   */\n  dup3\n    /* \"#utility.yul\":7624:7625   */\n  0x02\n    /* \"#utility.yul\":7620:7631   */\n  mul\n    /* \"#utility.yul\":7614:7618   */\n  dup3\n    /* \"#utility.yul\":7611:7632   */\n  or\n    /* \"#utility.yul\":7603:7632   */\n  swap1\n  pop\n    /* \"#utility.yul\":7343:7638   */\n  swap3\n  swap2\n  pop\n  pop\n  jump\t// out\n    /* \"#utility.yul\":7643:9038   */\ntag_7:\n    /* \"#utility.yul\":7760:7797   */\n  tag_137\n    /* \"#utility.yul\":7793:7796   */\n  dup3\n    /* \"#utility.yul\":7760:7797   */\n  tag_28\n  jump\t// in\ntag_137:\n    /* \"#utility.yul\":7862:7880   */\n  0xffffffffffffffff\n    /* \"#utility.yul\":7854:7860   */\n  dup2\n    /* \"#utility.yul\":7851:7881   */\n  gt\n    /* \"#utility.yul\":7848:7904   */\n  iszero\n  tag_138\n  jumpi\n    /* \"#utility.yul\":7884:7902   */\n  tag_139\n  tag_18\n  jump\t// in\ntag_139:\n    /* \"#utility.yul\":7848:7904   */\ntag_138:\n    /* \"#utility.yul\":7928:7966   */\n  tag_140\n    /* \"#utility.yul\":7960:7964   */\n  dup3\n    /* \"#utility.yul\":7954:7965   */\n  sload\n    /* \"#utility.yul\":7928:7966   */\n  tag_30\n  jump\t// in\ntag_140:\n    /* \"#utility.yul\":8013:8080   */\n  tag_141\n    /* \"#utility.yul\":8073:8079   */\n  dup3\n    /* \"#utility.yul\":8065:8071   */\n  dup3\n    /* \"#utility.yul\":8059:8063   */\n  dup6\n    /* \"#utility.yul\":8013:8080   */\n  tag_42\n  jump\t// in\ntag_141:\n    /* \"#utility.yul\":8107:8108   */\n  0x00\n    /* \"#utility.yul\":8131:8135   */\n  0x20\n    /* \"#utility.yul\":8118:8135   */\n  swap1\n  pop\n    /* \"#utility.yul\":8163:8165   */\n  0x1f\n    /* \"#utility.yul\":8155:8161   */\n  dup4\n    /* \"#utility.yul\":8152:8166   */\n  gt\n    /* \"#utility.yul\":8180:8181   */\n  0x01\n    /* \"#utility.yul\":8175:8793   */\n  dup2\n  eq\n  tag_143\n  jumpi\n    /* \"#utility.yul\":8837:8838   */\n  0x00\n    /* \"#utility.yul\":8854:8860   */\n  dup5\n    /* \"#utility.yul\":8851:8928   */\n  iszero\n  tag_144\n  jumpi\n    /* \"#utility.yul\":8903:8912   */\n  dup3\n    /* \"#utility.yul\":8898:8901   */\n  dup8\n    /* \"#utility.yul\":8894:8913   */\n  add\n    /* \"#utility.yul\":8888:8914   */\n  mload\n    /* \"#utility.yul\":8879:8914   */\n  swap1\n  pop\n    /* \"#utility.yul\":8851:8928   */\ntag_144:\n    /* \"#utility.yul\":8954:9021   */\n  tag_145\n    /* \"#utility.yul\":9014:9020   */\n  dup6\n    /* \"#utility.yul\":9007:9012   */\n  dup3\n    /* \"#utility.yul\":8954:9021   */\n  tag_45\n  jump\t// in\ntag_145:\n    /* \"#utility.yul\":8948:8952   */\n  dup7\n    /* \"#utility.yul\":8941:9022   */\n  sstore\n    /* \"#utility.yul\":8810:9032   */\n  pop\n    /* \"#utility.yul\":8145:9032   */\n  jump(tag_142)\n    /* \"#utility.yul\":8175:8793   */\ntag_143:\n    /* \"#utility.yul\":8227:8231   */\n  0x1f\n    /* \"#utility.yul\":8223:8232   */\n  not\n    /* \"#utility.yul\":8215:8221   */\n  dup5\n    /* \"#utility.yul\":8211:8233   */\n  and\n    /* \"#utility.yul\":8261:8298   */\n  tag_146\n    /* \"#utility.yul\":8293:8297   */\n  dup7\n    /* \"#utility.yul\":8261:8298   */\n  tag_31\n  jump\t// in\ntag_146:\n    /* \"#utility.yul\":8320:8321   */\n  0x00\n    /* \"#utility.yul\":8334:8542   */\ntag_147:\n    /* \"#utility.yul\":8348:8355   */\n  dup3\n    /* \"#utility.yul\":8345:8346   */\n  dup2\n    /* \"#utility.yul\":8342:8356   */\n  lt\n    /* \"#utility.yul\":8334:8542   */\n  iszero\n  tag_149\n  jumpi\n    /* \"#utility.yul\":8427:8436   */\n  dup5\n    /* \"#utility.yul\":8422:8425   */\n  dup10\n    /* \"#utility.yul\":8418:8437   */\n  add\n    /* \"#utility.yul\":8412:8438   */\n  mload\n    /* \"#utility.yul\":8404:8410   */\n  dup3\n    /* \"#utility.yul\":8397:8439   */\n  sstore\n    /* \"#utility.yul\":8478:8479   */\n  0x01\n    /* \"#utility.yul\":8470:8476   */\n  dup3\n    /* \"#utility.yul\":8466:8480   */\n  add\n    /* \"#utility.yul\":8456:8480   */\n  swap2\n  pop\n    /* \"#utility.yul\":8525:8527   */\n  0x20\n    /* \"#utility.yul\":8514:8523   */\n  dup6\n    /* \"#utility.yul\":8510:8528   */\n  add\n    /* \"#utility.yul\":8497:8528   */\n  swap5\n  pop\n    /* \"#utility.yul\":8371:8375   */\n  0x20\n    /* \"#utility.yul\":8368:8369   */\n  dup2\n    /* \"#utility.yul\":8364:8376   */\n  add\n    /* \"#utility.yul\":8359:8376   */\n  swap1\n  pop\n    /* \"#utility.yul\":8334:8542   */\n  jump(tag_147)\ntag_149:\n    /* \"#utility.yul\":8570:8576   */\n  dup7\n    /* \"#utility.yul\":8561:8568   */\n  dup4\n    /* \"#utility.yul\":8558:8577   */\n  lt\n    /* \"#utility.yul\":8555:8734   */\n  iszero\n  tag_150\n  jumpi\n    /* \"#utility.yul\":8628:8637   */\n  dup5\n    /* \"#utility.yul\":8623:8626   */\n  dup10\n    /* \"#utility.yul\":8619:8638   */\n  add\n    /* \"#utility.yul\":8613:8639   */\n  mload\n    /* \"#utility.yul\":8671:8719   */\n  tag_151\n    /* \"#utility.yul\":8713:8717   */\n  0x1f\n    /* \"#utility.yul\":8705:8711   */\n  dup10\n    /* \"#utility.yul\":8701:8718   */\n  and\n    /* \"#utility.yul\":8690:8699   */\n  dup3\n    /* \"#utility.yul\":8671:8719   */\n  tag_44\n  jump\t// in\ntag_151:\n    /* \"#utility.yul\":8663:8669   */\n  dup4\n    /* \"#utility.yul\":8656:8720   */\n  sstore\n    /* \"#utility.yul\":8578:8734   */\n  pop\n    /* \"#utility.yul\":8555:8734   */\ntag_150:\n    /* \"#utility.yul\":8780:8781   */\n  0x01\n    /* \"#utility.yul\":8776:8777   */\n  0x02\n    /* \"#utility.yul\":8768:8774   */\n  dup9\n    /* \"#utility.yul\":8764:8778   */\n  mul\n    /* \"#utility.yul\":8760:8782   */\n  add\n    /* \"#utility.yul\":8754:8758   */\n  dup9\n    /* \"#utility.yul\":8747:8783   */\n  sstore\n    /* \"#utility.yul\":8182:8793   */\n  pop\n  pop\n  pop\n    /* \"#utility.yul\":8145:9032   */\ntag_142:\n  pop\n    /* \"#utility.yul\":7735:9038   */\n  pop\n  pop\n  pop\n    /* \"#utility.yul\":7643:9038   */\n  pop\n  pop\n  jump\t// out\n    /* \"#utility.yul\":9044:9224   */\ntag_46:\n    /* \"#utility.yul\":9092:9169   */\n  0x4e487b7100000000000000000000000000000000000000000000000000000000\n    /* \"#utility.yul\":9089:9090   */\n  0x00\n    /* \"#utility.yul\":9082:9170   */\n  mstore\n    /* \"#utility.yul\":9189:9193   */\n  0x11\n    /* \"#utility.yul\":9186:9187   */\n  0x04\n    /* \"#utility.yul\":9179:9194   */\n  mstore\n    /* \"#utility.yul\":9213:9217   */\n  0x24\n    /* \"#utility.yul\":9210:9211   */\n  0x00\n    /* \"#utility.yul\":9203:9218   */\n  revert\n    /* \"#utility.yul\":9230:9640   */\ntag_9:\n    /* \"#utility.yul\":9270:9277   */\n  0x00\n    /* \"#utility.yul\":9293:9313   */\n  tag_154\n    /* \"#utility.yul\":9311:9312   */\n  dup3\n    /* \"#utility.yul\":9293:9313   */\n  tag_25\n  jump\t// in\ntag_154:\n    /* \"#utility.yul\":9288:9313   */\n  swap2\n  pop\n    /* \"#utility.yul\":9327:9347   */\n  tag_155\n    /* \"#utility.yul\":9345:9346   */\n  dup4\n    /* \"#utility.yul\":9327:9347   */\n  tag_25\n  jump\t// in\ntag_155:\n    /* \"#utility.yul\":9322:9347   */\n  swap3\n  pop\n    /* \"#utility.yul\":9382:9383   */\n  dup3\n    /* \"#utility.yul\":9379:9380   */\n  dup3\n    /* \"#utility.yul\":9375:9384   */\n  mul\n    /* \"#utility.yul\":9404:9434   */\n  tag_156\n    /* \"#utility.yul\":9422:9433   */\n  dup2\n    /* \"#utility.yul\":9404:9434   */\n  tag_25\n  jump\t// in\ntag_156:\n    /* \"#utility.yul\":9393:9434   */\n  swap2\n  pop\n    /* \"#utility.yul\":9583:9584   */\n  dup3\n    /* \"#utility.yul\":9574:9581   */\n  dup3\n    /* \"#utility.yul\":9570:9585   */\n  div\n    /* \"#utility.yul\":9567:9568   */\n  dup5\n    /* \"#utility.yul\":9564:9586   */\n  eq\n    /* \"#utility.yul\":9544:9545   */\n  dup4\n    /* \"#utility.yul\":9537:9546   */\n  iszero\n    /* \"#utility.yul\":9517:9600   */\n  or\n    /* \"#utility.yul\":9494:9633   */\n  tag_157\n  jumpi\n    /* \"#utility.yul\":9613:9631   */\n  tag_158\n  tag_46\n  jump\t// in\ntag_158:\n    /* \"#utility.yul\":9494:9633   */\ntag_157:\n    /* \"#utility.yul\":9278:9640   */\n  pop\n    /* \"#utility.yul\":9230:9640   */\n  swap3\n  swap2\n  pop\n  pop\n  jump\t// out\n    /* \"6 \\xd0\\xb7\\xd0\\xb0\\xd0\\xbd\\xd1\\x8f\\xd1\\x82\\xd0\\xb8\\xd0\\xb5/Auction.sol\":115:4669  contract Auction{... */\ntag_11:\n  mload(0x80)\n  codecopy(0x00, dataOffset(sub_0), dataSize(sub_0))\n  0x00\n  assignImmutable(\"0xd2f8f61201b2b11a78d6e866abc9c3db2ae8631fa656bfe5cb53668255367afb\")\n  return(0x00, dataSize(sub_0))\nstop\n\nsub_0: assembly {\n        /* \"6 \\xd0\\xb7\\xd0\\xb0\\xd0\\xbd\\xd1\\x8f\\xd1\\x82\\xd0\\xb8\\xd0\\xb5/Auction.sol\":115:4669  contract Auction{... */\n      mstore(0x40, 0x80)\n      jumpi(tag_1, lt(calldatasize, 0x04))\n      shr(0xe0, calldataload(0x00))\n      dup1\n      0xb2b98ed2\n      gt\n      tag_21\n      jumpi\n      dup1\n      0xd295ebf0\n      gt\n      tag_22\n      jumpi\n      dup1\n      0xd295ebf0\n      eq\n      tag_16\n      jumpi\n      dup1\n      0xd8346cdf\n      eq\n      tag_17\n      jumpi\n      dup1\n      0xde4b1e42\n      eq\n      tag_18\n      jumpi\n      dup1\n      0xfc4a4a1e\n      eq\n      tag_19\n      jumpi\n      dup1\n      0xfc505be9\n      eq\n      tag_20\n      jumpi\n      jump(tag_1)\n    tag_22:\n      dup1\n      0xb2b98ed2\n      eq\n      tag_11\n      jumpi\n      dup1\n      0xbca93eba\n      eq\n      tag_12\n      jumpi\n      dup1\n      0xcbb12c2d\n      eq\n      tag_13\n      jumpi\n      dup1\n      0xd0b1bfd0\n      eq\n      tag_14\n      jumpi\n      dup1\n      0xd1ee49c2\n      eq\n      tag_15\n      jumpi\n      jump(tag_1)\n    tag_21:\n      dup1\n      0x6a7798ee\n      gt\n      tag_23\n      jumpi\n      dup1\n      0x6a7798ee\n      eq\n      tag_6\n      jumpi\n      dup1\n      0x6a7a67f0\n      eq\n      tag_7\n      jumpi\n      dup1\n      0x6e6452cb\n      eq\n      tag_8\n      jumpi\n      dup1\n      0x85d679f9\n      eq\n      tag_9\n      jumpi\n      dup1\n      0x8611e07b\n      eq\n      tag_10\n      jumpi\n      jump(tag_1)\n    tag_23:\n      dup1\n      0x0cbb94e0\n      eq\n      tag_2\n      jumpi\n      dup1\n      0x38699c7f\n      eq\n      tag_3\n      jumpi\n      dup1\n      0x54a8882d\n      eq\n      tag_4\n      jumpi\n      dup1\n      0x5d268629\n      eq\n      tag_5\n      jumpi\n    tag_1:\n      0x00\n      dup1\n      revert\n        /* \"6 \\xd0\\xb7\\xd0\\xb0\\xd0\\xbd\\xd1\\x8f\\xd1\\x82\\xd0\\xb8\\xd0\\xb5/Auction.sol\":417:437  bool public HasEnded */\n    tag_2:\n      callvalue\n      dup1\n      iszero\n      tag_24\n      jumpi\n      0x00\n      dup1\n      revert\n    tag_24:\n      pop\n      tag_25\n      tag_26\n      jump\t// in\n    tag_25:\n      mload(0x40)\n      tag_27\n      swap2\n      swap1\n      tag_28\n      jump\t// in\n    tag_27:\n      mload(0x40)\n      dup1\n      swap2\n      sub\n      swap1\n      return\n        /* \"6 \\xd0\\xb7\\xd0\\xb0\\xd0\\xbd\\xd1\\x8f\\xd1\\x82\\xd0\\xb8\\xd0\\xb5/Auction.sol\":301:325  uint public StartingCost */\n    tag_3:\n      callvalue\n      dup1\n      iszero\n      tag_29\n      jumpi\n      0x00\n      dup1\n      revert\n    tag_29:\n      pop\n      tag_30\n      tag_31\n      jump\t// in\n    tag_30:\n      mload(0x40)\n      tag_32\n      swap2\n      swap1\n      tag_33\n      jump\t// in\n    tag_32:\n      mload(0x40)\n      dup1\n      swap2\n      sub\n      swap1\n      return\n        /* \"6 \\xd0\\xb7\\xd0\\xb0\\xd0\\xbd\\xd1\\x8f\\xd1\\x82\\xd0\\xb8\\xd0\\xb5/Auction.sol\":358:381  uint public CurrentCost */\n    tag_4:\n      callvalue\n      dup1\n      iszero\n      tag_34\n      jumpi\n      0x00\n      dup1\n      revert\n    tag_34:\n      pop\n      tag_35\n      tag_36\n      jump\t// in\n    tag_35:\n      mload(0x40)\n      tag_37\n      swap2\n      swap1\n      tag_33\n      jump\t// in\n    tag_37:\n      mload(0x40)\n      dup1\n      swap2\n      sub\n      swap1\n      return\n        /* \"6 \\xd0\\xb7\\xd0\\xb0\\xd0\\xbd\\xd1\\x8f\\xd1\\x82\\xd0\\xb8\\xd0\\xb5/Auction.sol\":4018:4301  function Refund() public {... */\n    tag_5:\n      callvalue\n      dup1\n      iszero\n      tag_38\n      jumpi\n      0x00\n      dup1\n      revert\n    tag_38:\n      pop\n      tag_39\n      tag_40\n      jump\t// in\n    tag_39:\n      stop\n        /* \"6 \\xd0\\xb7\\xd0\\xb0\\xd0\\xbd\\xd1\\x8f\\xd1\\x82\\xd0\\xb8\\xd0\\xb5/Auction.sol\":3593:3849  function EndAuction() public OnlyOwner {... */\n    tag_6:\n      callvalue\n      dup1\n      iszero\n      tag_41\n      jumpi\n      0x00\n      dup1\n      revert\n    tag_41:\n      pop\n      tag_42\n      tag_43\n      jump\t// in\n    tag_42:\n      stop\n        /* \"6 \\xd0\\xb7\\xd0\\xb0\\xd0\\xbd\\xd1\\x8f\\xd1\\x82\\xd0\\xb8\\xd0\\xb5/Auction.sol\":174:192  string public Item */\n    tag_7:\n      callvalue\n      dup1\n      iszero\n      tag_44\n      jumpi\n      0x00\n      dup1\n      revert\n    tag_44:\n      pop\n      tag_45\n      tag_46\n      jump\t// in\n    tag_45:\n      mload(0x40)\n      tag_47\n      swap2\n      swap1\n      tag_48\n      jump\t// in\n    tag_47:\n      mload(0x40)\n      dup1\n      swap2\n      sub\n      swap1\n      return\n        /* \"6 \\xd0\\xb7\\xd0\\xb0\\xd0\\xbd\\xd1\\x8f\\xd1\\x82\\xd0\\xb8\\xd0\\xb5/Auction.sol\":2056:2788  function Bid() public payable {... */\n    tag_8:\n      tag_49\n      tag_50\n      jump\t// in\n    tag_49:\n      stop\n        /* \"6 \\xd0\\xb7\\xd0\\xb0\\xd0\\xbd\\xd1\\x8f\\xd1\\x82\\xd0\\xb8\\xd0\\xb5/Auction.sol\":3249:3453  function GetItem() public view returns (string memory){... */\n    tag_9:\n      callvalue\n      dup1\n      iszero\n      tag_51\n      jumpi\n      0x00\n      dup1\n      revert\n    tag_51:\n      pop\n      tag_52\n      tag_53\n      jump\t// in\n    tag_52:\n      mload(0x40)\n      tag_54\n      swap2\n      swap1\n      tag_48\n      jump\t// in\n    tag_54:\n      mload(0x40)\n      dup1\n      swap2\n      sub\n      swap1\n      return\n        /* \"6 \\xd0\\xb7\\xd0\\xb0\\xd0\\xbd\\xd1\\x8f\\xd1\\x82\\xd0\\xb8\\xd0\\xb5/Auction.sol\":332:351  uint public BidStep */\n    tag_10:\n      callvalue\n      dup1\n      iszero\n      tag_55\n      jumpi\n      0x00\n      dup1\n      revert\n    tag_55:\n      pop\n      tag_56\n      tag_57\n      jump\t// in\n    tag_56:\n      mload(0x40)\n      tag_58\n      swap2\n      swap1\n      tag_33\n      jump\t// in\n    tag_58:\n      mload(0x40)\n      dup1\n      swap2\n      sub\n      swap1\n      return\n        /* \"6 \\xd0\\xb7\\xd0\\xb0\\xd0\\xbd\\xd1\\x8f\\xd1\\x82\\xd0\\xb8\\xd0\\xb5/Auction.sol\":273:294  address public Winner */\n    tag_11:\n      callvalue\n      dup1\n      iszero\n      tag_59\n      jumpi\n      0x00\n      dup1\n      revert\n    tag_59:\n      pop\n      tag_60\n      tag_61\n      jump\t// in\n    tag_60:\n      mload(0x40)\n      tag_62\n      swap2\n      swap1\n      tag_63\n      jump\t// in\n    tag_62:\n      mload(0x40)\n      dup1\n      swap2\n      sub\n      swap1\n      return\n        /* \"6 \\xd0\\xb7\\xd0\\xb0\\xd0\\xbd\\xd1\\x8f\\xd1\\x82\\xd0\\xb8\\xd0\\xb5/Auction.sol\":199:230  address public immutable SELLER */\n    tag_12:\n      callvalue\n      dup1\n      iszero\n      tag_64\n      jumpi\n      0x00\n      dup1\n      revert\n    tag_64:\n      pop\n      tag_65\n      tag_66\n      jump\t// in\n    tag_65:\n      mload(0x40)\n      tag_67\n      swap2\n      swap1\n      tag_63\n      jump\t// in\n    tag_67:\n      mload(0x40)\n      dup1\n      swap2\n      sub\n      swap1\n      return\n        /* \"6 \\xd0\\xb7\\xd0\\xb0\\xd0\\xbd\\xd1\\x8f\\xd1\\x82\\xd0\\xb8\\xd0\\xb5/Auction.sol\":472:492  uint public StepTime */\n    tag_13:\n      callvalue\n      dup1\n      iszero\n      tag_68\n      jumpi\n      0x00\n      dup1\n      revert\n    tag_68:\n      pop\n      tag_69\n      tag_70\n      jump\t// in\n    tag_69:\n      mload(0x40)\n      tag_71\n      swap2\n      swap1\n      tag_33\n      jump\t// in\n    tag_71:\n      mload(0x40)\n      dup1\n      swap2\n      sub\n      swap1\n      return\n        /* \"6 \\xd0\\xb7\\xd0\\xb0\\xd0\\xbd\\xd1\\x8f\\xd1\\x82\\xd0\\xb8\\xd0\\xb5/Auction.sol\":568:605  uint public CurrentParticipantsAmount */\n    tag_14:\n      callvalue\n      dup1\n      iszero\n      tag_72\n      jumpi\n      0x00\n      dup1\n      revert\n    tag_72:\n      pop\n      tag_73\n      tag_74\n      jump\t// in\n    tag_73:\n      mload(0x40)\n      tag_75\n      swap2\n      swap1\n      tag_33\n      jump\t// in\n    tag_75:\n      mload(0x40)\n      dup1\n      swap2\n      sub\n      swap1\n      return\n        /* \"6 \\xd0\\xb7\\xd0\\xb0\\xd0\\xbd\\xd1\\x8f\\xd1\\x82\\xd0\\xb8\\xd0\\xb5/Auction.sol\":4565:4666  function GetBidHistory() public view returns (BidRecord[] memory){... */\n    tag_15:\n      callvalue\n      dup1\n      iszero\n      tag_76\n      jumpi\n      0x00\n      dup1\n      revert\n    tag_76:\n      pop\n      tag_77\n      tag_78\n      jump\t// in\n    tag_77:\n      mload(0x40)\n      tag_79\n      swap2\n      swap1\n      tag_80\n      jump\t// in\n    tag_79:\n      mload(0x40)\n      dup1\n      swap2\n      sub\n      swap1\n      return\n        /* \"6 \\xd0\\xb7\\xd0\\xb0\\xd0\\xbd\\xd1\\x8f\\xd1\\x82\\xd0\\xb8\\xd0\\xb5/Auction.sol\":1768:2048  function StartAuction() public OnlyOwner {... */\n    tag_16:\n      callvalue\n      dup1\n      iszero\n      tag_81\n      jumpi\n      0x00\n      dup1\n      revert\n    tag_81:\n      pop\n      tag_82\n      tag_83\n      jump\t// in\n    tag_82:\n      stop\n        /* \"6 \\xd0\\xb7\\xd0\\xb0\\xd0\\xbd\\xd1\\x8f\\xd1\\x82\\xd0\\xb8\\xd0\\xb5/Auction.sol\":1522:1760  function GetPermission(address account) public OnlyOwner {... */\n    tag_17:\n      callvalue\n      dup1\n      iszero\n      tag_84\n      jumpi\n      0x00\n      dup1\n      revert\n    tag_84:\n      pop\n      tag_85\n      0x04\n      dup1\n      calldatasize\n      sub\n      dup2\n      add\n      swap1\n      tag_86\n      swap2\n      swap1\n      tag_87\n      jump\t// in\n    tag_86:\n      tag_88\n      jump\t// in\n    tag_85:\n      stop\n        /* \"6 \\xd0\\xb7\\xd0\\xb0\\xd0\\xbd\\xd1\\x8f\\xd1\\x82\\xd0\\xb8\\xd0\\xb5/Auction.sol\":534:561  uint public MaxParticipants */\n    tag_18:\n      callvalue\n      dup1\n      iszero\n      tag_89\n      jumpi\n      0x00\n      dup1\n      revert\n    tag_89:\n      pop\n      tag_90\n      tag_91\n      jump\t// in\n    tag_90:\n      mload(0x40)\n      tag_92\n      swap2\n      swap1\n      tag_33\n      jump\t// in\n    tag_92:\n      mload(0x40)\n      dup1\n      swap2\n      sub\n      swap1\n      return\n        /* \"6 \\xd0\\xb7\\xd0\\xb0\\xd0\\xbd\\xd1\\x8f\\xd1\\x82\\xd0\\xb8\\xd0\\xb5/Auction.sol\":444:465  uint public StartTime */\n    tag_19:\n      callvalue\n      dup1\n      iszero\n      tag_93\n      jumpi\n      0x00\n      dup1\n      revert\n    tag_93:\n      pop\n      tag_94\n      tag_95\n      jump\t// in\n    tag_94:\n      mload(0x40)\n      tag_96\n      swap2\n      swap1\n      tag_33\n      jump\t// in\n    tag_96:\n      mload(0x40)\n      dup1\n      swap2\n      sub\n      swap1\n      return\n        /* \"6 \\xd0\\xb7\\xd0\\xb0\\xd0\\xbd\\xd1\\x8f\\xd1\\x82\\xd0\\xb8\\xd0\\xb5/Auction.sol\":388:410  bool public HasStarted */\n    tag_20:\n      callvalue\n      dup1\n      iszero\n      tag_97\n      jumpi\n      0x00\n      dup1\n      revert\n    tag_97:\n      pop\n      tag_98\n      tag_99\n      jump\t// in\n    tag_98:\n      mload(0x40)\n      tag_100\n      swap2\n      swap1\n      tag_28\n      jump\t// in\n    tag_100:\n      mload(0x40)\n      dup1\n      swap2\n      sub\n      swap1\n      return\n        /* \"6 \\xd0\\xb7\\xd0\\xb0\\xd0\\xbd\\xd1\\x8f\\xd1\\x82\\xd0\\xb8\\xd0\\xb5/Auction.sol\":417:437  bool public HasEnded */\n    tag_26:\n      0x06\n      0x01\n      swap1\n      sload\n      swap1\n      0x0100\n      exp\n      swap1\n      div\n      0xff\n      and\n      dup2\n      jump\t// out\n        /* \"6 \\xd0\\xb7\\xd0\\xb0\\xd0\\xbd\\xd1\\x8f\\xd1\\x82\\xd0\\xb8\\xd0\\xb5/Auction.sol\":301:325  uint public StartingCost */\n    tag_31:\n      sload(0x03)\n      dup2\n      jump\t// out\n        /* \"6 \\xd0\\xb7\\xd0\\xb0\\xd0\\xbd\\xd1\\x8f\\xd1\\x82\\xd0\\xb8\\xd0\\xb5/Auction.sol\":358:381  uint public CurrentCost */\n    tag_36:\n      sload(0x05)\n      dup2\n      jump\t// out\n        /* \"6 \\xd0\\xb7\\xd0\\xb0\\xd0\\xbd\\xd1\\x8f\\xd1\\x82\\xd0\\xb8\\xd0\\xb5/Auction.sol\":4018:4301  function Refund() public {... */\n    tag_40:\n        /* \"6 \\xd0\\xb7\\xd0\\xb0\\xd0\\xbd\\xd1\\x8f\\xd1\\x82\\xd0\\xb8\\xd0\\xb5/Auction.sol\":4062:4070  HasEnded */\n      0x06\n      0x01\n      swap1\n      sload\n      swap1\n      0x0100\n      exp\n      swap1\n      div\n      0xff\n      and\n        /* \"6 \\xd0\\xb7\\xd0\\xb0\\xd0\\xbd\\xd1\\x8f\\xd1\\x82\\xd0\\xb8\\xd0\\xb5/Auction.sol\":4054:4105  require(HasEnded, \"The auction has not ended yet.\") */\n      tag_102\n      jumpi\n      mload(0x40)\n      0x08c379a000000000000000000000000000000000000000000000000000000000\n      dup2\n      mstore\n      0x04\n      add\n      tag_103\n      swap1\n      tag_104\n      jump\t// in\n    tag_103:\n      mload(0x40)\n      dup1\n      swap2\n      sub\n      swap1\n      revert\n    tag_102:\n        /* \"6 \\xd0\\xb7\\xd0\\xb0\\xd0\\xbd\\xd1\\x8f\\xd1\\x82\\xd0\\xb8\\xd0\\xb5/Auction.sol\":4138:4144  Winner */\n      0x02\n      0x00\n      swap1\n      sload\n      swap1\n      0x0100\n      exp\n      swap1\n      div\n      0xffffffffffffffffffffffffffffffffffffffff\n      and\n        /* \"6 \\xd0\\xb7\\xd0\\xb0\\xd0\\xbd\\xd1\\x8f\\xd1\\x82\\xd0\\xb8\\xd0\\xb5/Auction.sol\":4124:4144  msg.sender != Winner */\n      0xffffffffffffffffffffffffffffffffffffffff\n      and\n        /* \"6 \\xd0\\xb7\\xd0\\xb0\\xd0\\xbd\\xd1\\x8f\\xd1\\x82\\xd0\\xb8\\xd0\\xb5/Auction.sol\":4124:4134  msg.sender */\n      caller\n        /* \"6 \\xd0\\xb7\\xd0\\xb0\\xd0\\xbd\\xd1\\x8f\\xd1\\x82\\xd0\\xb8\\xd0\\xb5/Auction.sol\":4124:4144  msg.sender != Winner */\n      0xffffffffffffffffffffffffffffffffffffffff\n      and\n      sub\n        /* \"6 \\xd0\\xb7\\xd0\\xb0\\xd0\\xbd\\xd1\\x8f\\xd1\\x82\\xd0\\xb8\\xd0\\xb5/Auction.sol\":4116:4174  require(msg.sender != Winner, \"The winner cannot refund.\") */\n      tag_105\n      jumpi\n      mload(0x40)\n      0x08c379a000000000000000000000000000000000000000000000000000000000\n      dup2\n      mstore\n      0x04\n      add\n      tag_106\n      swap1\n      tag_107\n      jump\t// in\n    tag_106:\n      mload(0x40)\n      dup1\n      swap2\n      sub\n      swap1\n      revert\n    tag_105:\n        /* \"6 \\xd0\\xb7\\xd0\\xb0\\xd0\\xbd\\xd1\\x8f\\xd1\\x82\\xd0\\xb8\\xd0\\xb5/Auction.sol\":4185:4196  uint amount */\n      0x00\n        /* \"6 \\xd0\\xb7\\xd0\\xb0\\xd0\\xbd\\xd1\\x8f\\xd1\\x82\\xd0\\xb8\\xd0\\xb5/Auction.sol\":4199:4203  Bids */\n      0x0d\n        /* \"6 \\xd0\\xb7\\xd0\\xb0\\xd0\\xbd\\xd1\\x8f\\xd1\\x82\\xd0\\xb8\\xd0\\xb5/Auction.sol\":4199:4215  Bids[msg.sender] */\n      0x00\n        /* \"6 \\xd0\\xb7\\xd0\\xb0\\xd0\\xbd\\xd1\\x8f\\xd1\\x82\\xd0\\xb8\\xd0\\xb5/Auction.sol\":4204:4214  msg.sender */\n      caller\n        /* \"6 \\xd0\\xb7\\xd0\\xb0\\xd0\\xbd\\xd1\\x8f\\xd1\\x82\\xd0\\xb8\\xd0\\xb5/Auction.sol\":4199:4215  Bids[msg.sender] */\n      0xffffffffffffffffffffffffffffffffffffffff\n      and\n      0xffffffffffffffffffffffffffffffffffffffff\n      and\n      dup2\n      mstore\n      0x20\n      add\n      swap1\n      dup2\n      mstore\n      0x20\n      add\n      0x00\n      keccak256\n      sload\n        /* \"6 \\xd0\\xb7\\xd0\\xb0\\xd0\\xbd\\xd1\\x8f\\xd1\\x82\\xd0\\xb8\\xd0\\xb5/Auction.sol\":4185:4215  uint amount = Bids[msg.sender] */\n      swap1\n      pop\n        /* \"6 \\xd0\\xb7\\xd0\\xb0\\xd0\\xbd\\xd1\\x8f\\xd1\\x82\\xd0\\xb8\\xd0\\xb5/Auction.sol\":4245:4246  0 */\n      0x00\n        /* \"6 \\xd0\\xb7\\xd0\\xb0\\xd0\\xbd\\xd1\\x8f\\xd1\\x82\\xd0\\xb8\\xd0\\xb5/Auction.sol\":4226:4230  Bids */\n      0x0d\n        /* \"6 \\xd0\\xb7\\xd0\\xb0\\xd0\\xbd\\xd1\\x8f\\xd1\\x82\\xd0\\xb8\\xd0\\xb5/Auction.sol\":4226:4242  Bids[msg.sender] */\n      0x00\n        /* \"6 \\xd0\\xb7\\xd0\\xb0\\xd0\\xbd\\xd1\\x8f\\xd1\\x82\\xd0\\xb8\\xd0\\xb5/Auction.sol\":4231:4241  msg.sender */\n      caller\n        /* \"6 \\xd0\\xb7\\xd0\\xb0\\xd0\\xbd\\xd1\\x8f\\xd1\\x82\\xd0\\xb8\\xd0\\xb5/Auction.sol\":4226:4242  Bids[msg.sender] */\n      0xffffffffffffffffffffffffffffffffffffffff\n      and\n      0xffffffffffffffffffffffffffffffffffffffff\n      and\n      dup2\n      mstore\n      0x20\n      add\n      swap1\n      dup2\n      mstore\n      0x20\n      add\n      0x00\n      keccak256\n        /* \"6 \\xd0\\xb7\\xd0\\xb0\\xd0\\xbd\\xd1\\x8f\\xd1\\x82\\xd0\\xb8\\xd0\\xb5/Auction.sol\":4226:4246  Bids[msg.sender] = 0 */\n      dup2\n      swap1\n      sstore\n      pop\n        /* \"6 \\xd0\\xb7\\xd0\\xb0\\xd0\\xbd\\xd1\\x8f\\xd1\\x82\\xd0\\xb8\\xd0\\xb5/Auction.sol\":4265:4275  msg.sender */\n      caller\n        /* \"6 \\xd0\\xb7\\xd0\\xb0\\xd0\\xbd\\xd1\\x8f\\xd1\\x82\\xd0\\xb8\\xd0\\xb5/Auction.sol\":4257:4285  payable(msg.sender).transfer */\n      0xffffffffffffffffffffffffffffffffffffffff\n      and\n        /* \"6 \\xd0\\xb7\\xd0\\xb0\\xd0\\xbd\\xd1\\x8f\\xd1\\x82\\xd0\\xb8\\xd0\\xb5/Auction.sol\":4257:4293  payable(msg.sender).transfer(amount) */\n      0x08fc\n        /* \"6 \\xd0\\xb7\\xd0\\xb0\\xd0\\xbd\\xd1\\x8f\\xd1\\x82\\xd0\\xb8\\xd0\\xb5/Auction.sol\":4286:4292  amount */\n      dup3\n        /* \"6 \\xd0\\xb7\\xd0\\xb0\\xd0\\xbd\\xd1\\x8f\\xd1\\x82\\xd0\\xb8\\xd0\\xb5/Auction.sol\":4257:4293  payable(msg.sender).transfer(amount) */\n      swap1\n      dup2\n      iszero\n      mul\n      swap1\n      mload(0x40)\n      0x00\n      mload(0x40)\n      dup1\n      dup4\n      sub\n      dup2\n      dup6\n      dup9\n      dup9\n      call\n      swap4\n      pop\n      pop\n      pop\n      pop\n      iszero\n      dup1\n      iszero\n      tag_109\n      jumpi\n      returndatasize\n      0x00\n      dup1\n      returndatacopy\n      revert(0x00, returndatasize)\n    tag_109:\n      pop\n        /* \"6 \\xd0\\xb7\\xd0\\xb0\\xd0\\xbd\\xd1\\x8f\\xd1\\x82\\xd0\\xb8\\xd0\\xb5/Auction.sol\":4043:4301  {... */\n      pop\n        /* \"6 \\xd0\\xb7\\xd0\\xb0\\xd0\\xbd\\xd1\\x8f\\xd1\\x82\\xd0\\xb8\\xd0\\xb5/Auction.sol\":4018:4301  function Refund() public {... */\n      jump\t// out\n        /* \"6 \\xd0\\xb7\\xd0\\xb0\\xd0\\xbd\\xd1\\x8f\\xd1\\x82\\xd0\\xb8\\xd0\\xb5/Auction.sol\":3593:3849  function EndAuction() public OnlyOwner {... */\n    tag_43:\n        /* \"6 \\xd0\\xb7\\xd0\\xb0\\xd0\\xbd\\xd1\\x8f\\xd1\\x82\\xd0\\xb8\\xd0\\xb5/Auction.sol\":1209:1215  SELLER */\n      immutable(\"0xd2f8f61201b2b11a78d6e866abc9c3db2ae8631fa656bfe5cb53668255367afb\")\n        /* \"6 \\xd0\\xb7\\xd0\\xb0\\xd0\\xbd\\xd1\\x8f\\xd1\\x82\\xd0\\xb8\\xd0\\xb5/Auction.sol\":1195:1215  msg.sender == SELLER */\n      0xffffffffffffffffffffffffffffffffffffffff\n      and\n        /* \"6 \\xd0\\xb7\\xd0\\xb0\\xd0\\xbd\\xd1\\x8f\\xd1\\x82\\xd0\\xb8\\xd0\\xb5/Auction.sol\":1195:1205  msg.sender */\n      caller\n        /* \"6 \\xd0\\xb7\\xd0\\xb0\\xd0\\xbd\\xd1\\x8f\\xd1\\x82\\xd0\\xb8\\xd0\\xb5/Auction.sol\":1195:1215  msg.sender == SELLER */\n      0xffffffffffffffffffffffffffffffffffffffff\n      and\n      eq\n        /* \"6 \\xd0\\xb7\\xd0\\xb0\\xd0\\xbd\\xd1\\x8f\\xd1\\x82\\xd0\\xb8\\xd0\\xb5/Auction.sol\":1187:1243  require(msg.sender == SELLER, \"You are not the seller.\") */\n      tag_111\n      jumpi\n      mload(0x40)\n      0x08c379a000000000000000000000000000000000000000000000000000000000\n      dup2\n      mstore\n      0x04\n      add\n      tag_112\n      swap1\n      tag_113\n      jump\t// in\n    tag_112:\n      mload(0x40)\n      dup1\n      swap2\n      sub\n      swap1\n      revert\n    tag_111:\n        /* \"6 \\xd0\\xb7\\xd0\\xb0\\xd0\\xbd\\xd1\\x8f\\xd1\\x82\\xd0\\xb8\\xd0\\xb5/Auction.sol\":3651:3661  HasStarted */\n      0x06\n      0x00\n      swap1\n      sload\n      swap1\n      0x0100\n      exp\n      swap1\n      div\n      0xff\n      and\n        /* \"6 \\xd0\\xb7\\xd0\\xb0\\xd0\\xbd\\xd1\\x8f\\xd1\\x82\\xd0\\xb8\\xd0\\xb5/Auction.sol\":3643:3698  require(HasStarted, \"The auction has not started yet.\") */\n      tag_115\n      jumpi\n      mload(0x40)\n      0x08c379a000000000000000000000000000000000000000000000000000000000\n      dup2\n      mstore\n      0x04\n      add\n      tag_116\n      swap1\n      tag_117\n      jump\t// in\n    tag_116:\n      mload(0x40)\n      dup1\n      swap2\n      sub\n      swap1\n      revert\n    tag_115:\n        /* \"6 \\xd0\\xb7\\xd0\\xb0\\xd0\\xbd\\xd1\\x8f\\xd1\\x82\\xd0\\xb8\\xd0\\xb5/Auction.sol\":3718:3726  HasEnded */\n      0x06\n      0x01\n      swap1\n      sload\n      swap1\n      0x0100\n      exp\n      swap1\n      div\n      0xff\n      and\n        /* \"6 \\xd0\\xb7\\xd0\\xb0\\xd0\\xbd\\xd1\\x8f\\xd1\\x82\\xd0\\xb8\\xd0\\xb5/Auction.sol\":3717:3726  !HasEnded */\n      iszero\n        /* \"6 \\xd0\\xb7\\xd0\\xb0\\xd0\\xbd\\xd1\\x8f\\xd1\\x82\\xd0\\xb8\\xd0\\xb5/Auction.sol\":3709:3761  require(!HasEnded, \"The auction has already ended.\") */\n      tag_118\n      jumpi\n      mload(0x40)\n      0x08c379a000000000000000000000000000000000000000000000000000000000\n      dup2\n      mstore\n      0x04\n      add\n      tag_119\n      swap1\n      tag_120\n      jump\t// in\n    tag_119:\n      mload(0x40)\n      dup1\n      swap2\n      sub\n      swap1\n      revert\n    tag_118:\n        /* \"6 \\xd0\\xb7\\xd0\\xb0\\xd0\\xbd\\xd1\\x8f\\xd1\\x82\\xd0\\xb8\\xd0\\xb5/Auction.sol\":3783:3787  true */\n      0x01\n        /* \"6 \\xd0\\xb7\\xd0\\xb0\\xd0\\xbd\\xd1\\x8f\\xd1\\x82\\xd0\\xb8\\xd0\\xb5/Auction.sol\":3772:3780  HasEnded */\n      0x06\n      0x01\n        /* \"6 \\xd0\\xb7\\xd0\\xb0\\xd0\\xbd\\xd1\\x8f\\xd1\\x82\\xd0\\xb8\\xd0\\xb5/Auction.sol\":3772:3787  HasEnded = true */\n      0x0100\n      exp\n      dup2\n      sload\n      dup2\n      0xff\n      mul\n      not\n      and\n      swap1\n      dup4\n      iszero\n      iszero\n      mul\n      or\n      swap1\n      sstore\n      pop\n        /* \"6 \\xd0\\xb7\\xd0\\xb0\\xd0\\xbd\\xd1\\x8f\\xd1\\x82\\xd0\\xb8\\xd0\\xb5/Auction.sol\":3807:3820  HighestBidder */\n      0x01\n      0x00\n      swap1\n      sload\n      swap1\n      0x0100\n      exp\n      swap1\n      div\n      0xffffffffffffffffffffffffffffffffffffffff\n      and\n        /* \"6 \\xd0\\xb7\\xd0\\xb0\\xd0\\xbd\\xd1\\x8f\\xd1\\x82\\xd0\\xb8\\xd0\\xb5/Auction.sol\":3798:3804  Winner */\n      0x02\n      0x00\n        /* \"6 \\xd0\\xb7\\xd0\\xb0\\xd0\\xbd\\xd1\\x8f\\xd1\\x82\\xd0\\xb8\\xd0\\xb5/Auction.sol\":3798:3820  Winner = HighestBidder */\n      0x0100\n      exp\n      dup2\n      sload\n      dup2\n      0xffffffffffffffffffffffffffffffffffffffff\n      mul\n      not\n      and\n      swap1\n      dup4\n      0xffffffffffffffffffffffffffffffffffffffff\n      and\n      mul\n      or\n      swap1\n      sstore\n      pop\n        /* \"6 \\xd0\\xb7\\xd0\\xb0\\xd0\\xbd\\xd1\\x8f\\xd1\\x82\\xd0\\xb8\\xd0\\xb5/Auction.sol\":3831:3841  Withdraw() */\n      tag_121\n        /* \"6 \\xd0\\xb7\\xd0\\xb0\\xd0\\xbd\\xd1\\x8f\\xd1\\x82\\xd0\\xb8\\xd0\\xb5/Auction.sol\":3831:3839  Withdraw */\n      tag_122\n        /* \"6 \\xd0\\xb7\\xd0\\xb0\\xd0\\xbd\\xd1\\x8f\\xd1\\x82\\xd0\\xb8\\xd0\\xb5/Auction.sol\":3831:3841  Withdraw() */\n      jump\t// in\n    tag_121:\n      pop\n        /* \"6 \\xd0\\xb7\\xd0\\xb0\\xd0\\xbd\\xd1\\x8f\\xd1\\x82\\xd0\\xb8\\xd0\\xb5/Auction.sol\":3593:3849  function EndAuction() public OnlyOwner {... */\n      jump\t// out\n        /* \"6 \\xd0\\xb7\\xd0\\xb0\\xd0\\xbd\\xd1\\x8f\\xd1\\x82\\xd0\\xb8\\xd0\\xb5/Auction.sol\":174:192  string public Item */\n    tag_46:\n      0x00\n      dup1\n      sload\n      tag_123\n      swap1\n      tag_124\n      jump\t// in\n    tag_123:\n      dup1\n      0x1f\n      add\n      0x20\n      dup1\n      swap2\n      div\n      mul\n      0x20\n      add\n      mload(0x40)\n      swap1\n      dup2\n      add\n      0x40\n      mstore\n      dup1\n      swap3\n      swap2\n      swap1\n      dup2\n      dup2\n      mstore\n      0x20\n      add\n      dup3\n      dup1\n      sload\n      tag_125\n      swap1\n      tag_124\n      jump\t// in\n    tag_125:\n      dup1\n      iszero\n      tag_126\n      jumpi\n      dup1\n      0x1f\n      lt\n      tag_127\n      jumpi\n      0x0100\n      dup1\n      dup4\n      sload\n      div\n      mul\n      dup4\n      mstore\n      swap2\n      0x20\n      add\n      swap2\n      jump(tag_126)\n    tag_127:\n      dup3\n      add\n      swap2\n      swap1\n      0x00\n      mstore\n      keccak256(0x00, 0x20)\n      swap1\n    tag_128:\n      dup2\n      sload\n      dup2\n      mstore\n      swap1\n      0x01\n      add\n      swap1\n      0x20\n      add\n      dup1\n      dup4\n      gt\n      tag_128\n      jumpi\n      dup3\n      swap1\n      sub\n      0x1f\n      and\n      dup3\n      add\n      swap2\n    tag_126:\n      pop\n      pop\n      pop\n      pop\n      pop\n      dup2\n      jump\t// out\n        /* \"6 \\xd0\\xb7\\xd0\\xb0\\xd0\\xbd\\xd1\\x8f\\xd1\\x82\\xd0\\xb8\\xd0\\xb5/Auction.sol\":2056:2788  function Bid() public payable {... */\n    tag_50:\n        /* \"6 \\xd0\\xb7\\xd0\\xb0\\xd0\\xbd\\xd1\\x8f\\xd1\\x82\\xd0\\xb8\\xd0\\xb5/Auction.sol\":2106:2114  HasEnded */\n      0x06\n      0x01\n      swap1\n      sload\n      swap1\n      0x0100\n      exp\n      swap1\n      div\n      0xff\n      and\n        /* \"6 \\xd0\\xb7\\xd0\\xb0\\xd0\\xbd\\xd1\\x8f\\xd1\\x82\\xd0\\xb8\\xd0\\xb5/Auction.sol\":2105:2114  !HasEnded */\n      iszero\n        /* \"6 \\xd0\\xb7\\xd0\\xb0\\xd0\\xbd\\xd1\\x8f\\xd1\\x82\\xd0\\xb8\\xd0\\xb5/Auction.sol\":2097:2146  require(!HasEnded, \"The auction has been ended.\") */\n      tag_130\n      jumpi\n      mload(0x40)\n      0x08c379a000000000000000000000000000000000000000000000000000000000\n      dup2\n      mstore\n      0x04\n      add\n      tag_131\n      swap1\n      tag_132\n      jump\t// in\n    tag_131:\n      mload(0x40)\n      dup1\n      swap2\n      sub\n      swap1\n      revert\n    tag_130:\n        /* \"6 \\xd0\\xb7\\xd0\\xb0\\xd0\\xbd\\xd1\\x8f\\xd1\\x82\\xd0\\xb8\\xd0\\xb5/Auction.sol\":2192:2196  true */\n      0x01\n        /* \"6 \\xd0\\xb7\\xd0\\xb0\\xd0\\xbd\\xd1\\x8f\\xd1\\x82\\xd0\\xb8\\xd0\\xb5/Auction.sol\":2165:2196  Permissions[msg.sender] == true */\n      iszero\n      iszero\n        /* \"6 \\xd0\\xb7\\xd0\\xb0\\xd0\\xbd\\xd1\\x8f\\xd1\\x82\\xd0\\xb8\\xd0\\xb5/Auction.sol\":2165:2176  Permissions */\n      0x0c\n        /* \"6 \\xd0\\xb7\\xd0\\xb0\\xd0\\xbd\\xd1\\x8f\\xd1\\x82\\xd0\\xb8\\xd0\\xb5/Auction.sol\":2165:2188  Permissions[msg.sender] */\n      0x00\n        /* \"6 \\xd0\\xb7\\xd0\\xb0\\xd0\\xbd\\xd1\\x8f\\xd1\\x82\\xd0\\xb8\\xd0\\xb5/Auction.sol\":2177:2187  msg.sender */\n      caller\n        /* \"6 \\xd0\\xb7\\xd0\\xb0\\xd0\\xbd\\xd1\\x8f\\xd1\\x82\\xd0\\xb8\\xd0\\xb5/Auction.sol\":2165:2188  Permissions[msg.sender] */\n      0xffffffffffffffffffffffffffffffffffffffff\n      and\n      0xffffffffffffffffffffffffffffffffffffffff\n      and\n      dup2\n      mstore\n      0x20\n      add\n      swap1\n      dup2\n      mstore\n      0x20\n      add\n      0x00\n      keccak256\n      0x00\n      swap1\n      sload\n      swap1\n      0x0100\n      exp\n      swap1\n      div\n      0xff\n      and\n        /* \"6 \\xd0\\xb7\\xd0\\xb0\\xd0\\xbd\\xd1\\x8f\\xd1\\x82\\xd0\\xb8\\xd0\\xb5/Auction.sol\":2165:2196  Permissions[msg.sender] == true */\n      iszero\n      iszero\n      eq\n        /* \"6 \\xd0\\xb7\\xd0\\xb0\\xd0\\xbd\\xd1\\x8f\\xd1\\x82\\xd0\\xb8\\xd0\\xb5/Auction.sol\":2157:2225  require(Permissions[msg.sender] == true, \"You have no permissions.\") */\n      tag_133\n      jumpi\n      mload(0x40)\n      0x08c379a000000000000000000000000000000000000000000000000000000000\n      dup2\n      mstore\n      0x04\n      add\n      tag_134\n      swap1\n      tag_135\n      jump\t// in\n    tag_134:\n      mload(0x40)\n      dup1\n      swap2\n      sub\n      swap1\n      revert\n    tag_133:\n        /* \"6 \\xd0\\xb7\\xd0\\xb0\\xd0\\xbd\\xd1\\x8f\\xd1\\x82\\xd0\\xb8\\xd0\\xb5/Auction.sol\":2271:2278  BidStep */\n      sload(0x04)\n        /* \"6 \\xd0\\xb7\\xd0\\xb0\\xd0\\xbd\\xd1\\x8f\\xd1\\x82\\xd0\\xb8\\xd0\\xb5/Auction.sol\":2257:2268  CurrentCost */\n      sload(0x05)\n        /* \"6 \\xd0\\xb7\\xd0\\xb0\\xd0\\xbd\\xd1\\x8f\\xd1\\x82\\xd0\\xb8\\xd0\\xb5/Auction.sol\":2257:2278  CurrentCost + BidStep */\n      tag_136\n      swap2\n      swap1\n      tag_137\n      jump\t// in\n    tag_136:\n        /* \"6 \\xd0\\xb7\\xd0\\xb0\\xd0\\xbd\\xd1\\x8f\\xd1\\x82\\xd0\\xb8\\xd0\\xb5/Auction.sol\":2244:2253  msg.value */\n      callvalue\n        /* \"6 \\xd0\\xb7\\xd0\\xb0\\xd0\\xbd\\xd1\\x8f\\xd1\\x82\\xd0\\xb8\\xd0\\xb5/Auction.sol\":2244:2278  msg.value == CurrentCost + BidStep */\n      eq\n        /* \"6 \\xd0\\xb7\\xd0\\xb0\\xd0\\xbd\\xd1\\x8f\\xd1\\x82\\xd0\\xb8\\xd0\\xb5/Auction.sol\":2352:2398  ((CurrentCost + BidStep) / 1 ether).toString() */\n      tag_138\n        /* \"6 \\xd0\\xb7\\xd0\\xb0\\xd0\\xbd\\xd1\\x8f\\xd1\\x82\\xd0\\xb8\\xd0\\xb5/Auction.sol\":2379:2386  1 ether */\n      0x0de0b6b3a7640000\n        /* \"6 \\xd0\\xb7\\xd0\\xb0\\xd0\\xbd\\xd1\\x8f\\xd1\\x82\\xd0\\xb8\\xd0\\xb5/Auction.sol\":2368:2375  BidStep */\n      sload(0x04)\n        /* \"6 \\xd0\\xb7\\xd0\\xb0\\xd0\\xbd\\xd1\\x8f\\xd1\\x82\\xd0\\xb8\\xd0\\xb5/Auction.sol\":2354:2365  CurrentCost */\n      sload(0x05)\n        /* \"6 \\xd0\\xb7\\xd0\\xb0\\xd0\\xbd\\xd1\\x8f\\xd1\\x82\\xd0\\xb8\\xd0\\xb5/Auction.sol\":2354:2375  CurrentCost + BidStep */\n      tag_139\n      swap2\n      swap1\n      tag_137\n      jump\t// in\n    tag_139:\n        /* \"6 \\xd0\\xb7\\xd0\\xb0\\xd0\\xbd\\xd1\\x8f\\xd1\\x82\\xd0\\xb8\\xd0\\xb5/Auction.sol\":2353:2386  (CurrentCost + BidStep) / 1 ether */\n      tag_140\n      swap2\n      swap1\n      tag_141\n      jump\t// in\n    tag_140:\n        /* \"6 \\xd0\\xb7\\xd0\\xb0\\xd0\\xbd\\xd1\\x8f\\xd1\\x82\\xd0\\xb8\\xd0\\xb5/Auction.sol\":2352:2396  ((CurrentCost + BidStep) / 1 ether).toString */\n      tag_142\n        /* \"6 \\xd0\\xb7\\xd0\\xb0\\xd0\\xbd\\xd1\\x8f\\xd1\\x82\\xd0\\xb8\\xd0\\xb5/Auction.sol\":2352:2398  ((CurrentCost + BidStep) / 1 ether).toString() */\n      jump\t// in\n    tag_138:\n        /* \"6 \\xd0\\xb7\\xd0\\xb0\\xd0\\xbd\\xd1\\x8f\\xd1\\x82\\xd0\\xb8\\xd0\\xb5/Auction.sol\":2293:2399  string.concat(\"Not enough ether. Current cost plus bid: \", ((CurrentCost + BidStep) / 1 ether).toString()) */\n      add(0x20, mload(0x40))\n      tag_143\n      swap2\n      swap1\n      tag_144\n      jump\t// in\n    tag_143:\n      mload(0x40)\n      0x20\n      dup2\n      dup4\n      sub\n      sub\n      dup2\n      mstore\n      swap1\n      0x40\n      mstore\n        /* \"6 \\xd0\\xb7\\xd0\\xb0\\xd0\\xbd\\xd1\\x8f\\xd1\\x82\\xd0\\xb8\\xd0\\xb5/Auction.sol\":2236:2400  require(msg.value == CurrentCost + BidStep,... */\n      swap1\n      tag_145\n      jumpi\n      mload(0x40)\n      0x08c379a000000000000000000000000000000000000000000000000000000000\n      dup2\n      mstore\n      0x04\n      add\n      tag_146\n      swap2\n      swap1\n      tag_48\n      jump\t// in\n    tag_146:\n      mload(0x40)\n      dup1\n      swap2\n      sub\n      swap1\n      revert\n    tag_145:\n      pop\n        /* \"6 \\xd0\\xb7\\xd0\\xb0\\xd0\\xbd\\xd1\\x8f\\xd1\\x82\\xd0\\xb8\\xd0\\xb5/Auction.sol\":2431:2440  msg.value */\n      callvalue\n        /* \"6 \\xd0\\xb7\\xd0\\xb0\\xd0\\xbd\\xd1\\x8f\\xd1\\x82\\xd0\\xb8\\xd0\\xb5/Auction.sol\":2411:2415  Bids */\n      0x0d\n        /* \"6 \\xd0\\xb7\\xd0\\xb0\\xd0\\xbd\\xd1\\x8f\\xd1\\x82\\xd0\\xb8\\xd0\\xb5/Auction.sol\":2411:2427  Bids[msg.sender] */\n      0x00\n        /* \"6 \\xd0\\xb7\\xd0\\xb0\\xd0\\xbd\\xd1\\x8f\\xd1\\x82\\xd0\\xb8\\xd0\\xb5/Auction.sol\":2416:2426  msg.sender */\n      caller\n        /* \"6 \\xd0\\xb7\\xd0\\xb0\\xd0\\xbd\\xd1\\x8f\\xd1\\x82\\xd0\\xb8\\xd0\\xb5/Auction.sol\":2411:2427  Bids[msg.sender] */\n      0xffffffffffffffffffffffffffffffffffffffff\n      and\n      0xffffffffffffffffffffffffffffffffffffffff\n      and\n      dup2\n      mstore\n      0x20\n      add\n      swap1\n      dup2\n      mstore\n      0x20\n      add\n      0x00\n      keccak256\n      0x00\n        /* \"6 \\xd0\\xb7\\xd0\\xb0\\xd0\\xbd\\xd1\\x8f\\xd1\\x82\\xd0\\xb8\\xd0\\xb5/Auction.sol\":2411:2440  Bids[msg.sender] += msg.value */\n      dup3\n      dup3\n      sload\n      tag_147\n      swap2\n      swap1\n      tag_137\n      jump\t// in\n    tag_147:\n      swap3\n      pop\n      pop\n      dup2\n      swap1\n      sstore\n      pop\n        /* \"6 \\xd0\\xb7\\xd0\\xb0\\xd0\\xbd\\xd1\\x8f\\xd1\\x82\\xd0\\xb8\\xd0\\xb5/Auction.sol\":2520:2530  msg.sender */\n      caller\n        /* \"6 \\xd0\\xb7\\xd0\\xb0\\xd0\\xbd\\xd1\\x8f\\xd1\\x82\\xd0\\xb8\\xd0\\xb5/Auction.sol\":2504:2517  HighestBidder */\n      0x01\n      0x00\n        /* \"6 \\xd0\\xb7\\xd0\\xb0\\xd0\\xbd\\xd1\\x8f\\xd1\\x82\\xd0\\xb8\\xd0\\xb5/Auction.sol\":2504:2530  HighestBidder = msg.sender */\n      0x0100\n      exp\n      dup2\n      sload\n      dup2\n      0xffffffffffffffffffffffffffffffffffffffff\n      mul\n      not\n      and\n      swap1\n      dup4\n      0xffffffffffffffffffffffffffffffffffffffff\n      and\n      mul\n      or\n      swap1\n      sstore\n      pop\n        /* \"6 \\xd0\\xb7\\xd0\\xb0\\xd0\\xbd\\xd1\\x8f\\xd1\\x82\\xd0\\xb8\\xd0\\xb5/Auction.sol\":2556:2563  BidStep */\n      sload(0x04)\n        /* \"6 \\xd0\\xb7\\xd0\\xb0\\xd0\\xbd\\xd1\\x8f\\xd1\\x82\\xd0\\xb8\\xd0\\xb5/Auction.sol\":2541:2552  CurrentCost */\n      0x05\n      0x00\n        /* \"6 \\xd0\\xb7\\xd0\\xb0\\xd0\\xbd\\xd1\\x8f\\xd1\\x82\\xd0\\xb8\\xd0\\xb5/Auction.sol\":2541:2563  CurrentCost += BidStep */\n      dup3\n      dup3\n      sload\n      tag_148\n      swap2\n      swap1\n      tag_137\n      jump\t// in\n    tag_148:\n      swap3\n      pop\n      pop\n      dup2\n      swap1\n      sstore\n      pop\n        /* \"6 \\xd0\\xb7\\xd0\\xb0\\xd0\\xbd\\xd1\\x8f\\xd1\\x82\\xd0\\xb8\\xd0\\xb5/Auction.sol\":2592:2607  block.timestamp */\n      timestamp\n        /* \"6 \\xd0\\xb7\\xd0\\xb0\\xd0\\xbd\\xd1\\x8f\\xd1\\x82\\xd0\\xb8\\xd0\\xb5/Auction.sol\":2574:2589  PreviousBidTime */\n      0x09\n        /* \"6 \\xd0\\xb7\\xd0\\xb0\\xd0\\xbd\\xd1\\x8f\\xd1\\x82\\xd0\\xb8\\xd0\\xb5/Auction.sol\":2574:2607  PreviousBidTime = block.timestamp */\n      dup2\n      swap1\n      sstore\n      pop\n        /* \"6 \\xd0\\xb7\\xd0\\xb0\\xd0\\xbd\\xd1\\x8f\\xd1\\x82\\xd0\\xb8\\xd0\\xb5/Auction.sol\":2618:2628  BidHistory */\n      0x0e\n        /* \"6 \\xd0\\xb7\\xd0\\xb0\\xd0\\xbd\\xd1\\x8f\\xd1\\x82\\xd0\\xb8\\xd0\\xb5/Auction.sol\":2634:2683  BidRecord(msg.sender, msg.value, block.timestamp) */\n      mload(0x40)\n      dup1\n      0x60\n      add\n      0x40\n      mstore\n      dup1\n        /* \"6 \\xd0\\xb7\\xd0\\xb0\\xd0\\xbd\\xd1\\x8f\\xd1\\x82\\xd0\\xb8\\xd0\\xb5/Auction.sol\":2644:2654  msg.sender */\n      caller\n        /* \"6 \\xd0\\xb7\\xd0\\xb0\\xd0\\xbd\\xd1\\x8f\\xd1\\x82\\xd0\\xb8\\xd0\\xb5/Auction.sol\":2634:2683  BidRecord(msg.sender, msg.value, block.timestamp) */\n      0xffffffffffffffffffffffffffffffffffffffff\n      and\n      dup2\n      mstore\n      0x20\n      add\n        /* \"6 \\xd0\\xb7\\xd0\\xb0\\xd0\\xbd\\xd1\\x8f\\xd1\\x82\\xd0\\xb8\\xd0\\xb5/Auction.sol\":2656:2665  msg.value */\n      callvalue\n        /* \"6 \\xd0\\xb7\\xd0\\xb0\\xd0\\xbd\\xd1\\x8f\\xd1\\x82\\xd0\\xb8\\xd0\\xb5/Auction.sol\":2634:2683  BidRecord(msg.sender, msg.value, block.timestamp) */\n      dup2\n      mstore\n      0x20\n      add\n        /* \"6 \\xd0\\xb7\\xd0\\xb0\\xd0\\xbd\\xd1\\x8f\\xd1\\x82\\xd0\\xb8\\xd0\\xb5/Auction.sol\":2667:2682  block.timestamp */\n      timestamp\n        /* \"6 \\xd0\\xb7\\xd0\\xb0\\xd0\\xbd\\xd1\\x8f\\xd1\\x82\\xd0\\xb8\\xd0\\xb5/Auction.sol\":2634:2683  BidRecord(msg.sender, msg.value, block.timestamp) */\n      dup2\n      mstore\n      pop\n        /* \"6 \\xd0\\xb7\\xd0\\xb0\\xd0\\xbd\\xd1\\x8f\\xd1\\x82\\xd0\\xb8\\xd0\\xb5/Auction.sol\":2618:2684  BidHistory.push(BidRecord(msg.sender, msg.value, block.timestamp)) */\n      swap1\n      dup1\n      0x01\n      dup2\n      sload\n      add\n      dup1\n      dup3\n      sstore\n      dup1\n      swap2\n      pop\n      pop\n      0x01\n      swap1\n      sub\n      swap1\n      0x00\n      mstore\n      keccak256(0x00, 0x20)\n      swap1\n      0x03\n      mul\n      add\n      0x00\n      swap1\n      swap2\n      swap1\n      swap2\n      swap1\n      swap2\n      pop\n      0x00\n      dup3\n      add\n      mload\n      dup2\n      0x00\n      add\n      exp(0x0100, 0x00)\n      dup2\n      sload\n      dup2\n      0xffffffffffffffffffffffffffffffffffffffff\n      mul\n      not\n      and\n      swap1\n      dup4\n      0xffffffffffffffffffffffffffffffffffffffff\n      and\n      mul\n      or\n      swap1\n      sstore\n      pop\n      0x20\n      dup3\n      add\n      mload\n      dup2\n      0x01\n      add\n      sstore\n      0x40\n      dup3\n      add\n      mload\n      dup2\n      0x02\n      add\n      sstore\n      pop\n      pop\n        /* \"6 \\xd0\\xb7\\xd0\\xb0\\xd0\\xbd\\xd1\\x8f\\xd1\\x82\\xd0\\xb8\\xd0\\xb5/Auction.sol\":2760:2780  CheckTimeAndWinner() */\n      tag_150\n        /* \"6 \\xd0\\xb7\\xd0\\xb0\\xd0\\xbd\\xd1\\x8f\\xd1\\x82\\xd0\\xb8\\xd0\\xb5/Auction.sol\":2760:2778  CheckTimeAndWinner */\n      tag_151\n        /* \"6 \\xd0\\xb7\\xd0\\xb0\\xd0\\xbd\\xd1\\x8f\\xd1\\x82\\xd0\\xb8\\xd0\\xb5/Auction.sol\":2760:2780  CheckTimeAndWinner() */\n      jump\t// in\n    tag_150:\n        /* \"6 \\xd0\\xb7\\xd0\\xb0\\xd0\\xbd\\xd1\\x8f\\xd1\\x82\\xd0\\xb8\\xd0\\xb5/Auction.sol\":2056:2788  function Bid() public payable {... */\n      jump\t// out\n        /* \"6 \\xd0\\xb7\\xd0\\xb0\\xd0\\xbd\\xd1\\x8f\\xd1\\x82\\xd0\\xb8\\xd0\\xb5/Auction.sol\":3249:3453  function GetItem() public view returns (string memory){... */\n    tag_53:\n        /* \"6 \\xd0\\xb7\\xd0\\xb0\\xd0\\xbd\\xd1\\x8f\\xd1\\x82\\xd0\\xb8\\xd0\\xb5/Auction.sol\":3289:3302  string memory */\n      0x60\n        /* \"6 \\xd0\\xb7\\xd0\\xb0\\xd0\\xbd\\xd1\\x8f\\xd1\\x82\\xd0\\xb8\\xd0\\xb5/Auction.sol\":3336:3342  Winner */\n      0x02\n      0x00\n      swap1\n      sload\n      swap1\n      0x0100\n      exp\n      swap1\n      div\n      0xffffffffffffffffffffffffffffffffffffffff\n      and\n        /* \"6 \\xd0\\xb7\\xd0\\xb0\\xd0\\xbd\\xd1\\x8f\\xd1\\x82\\xd0\\xb8\\xd0\\xb5/Auction.sol\":3322:3342  msg.sender == Winner */\n      0xffffffffffffffffffffffffffffffffffffffff\n      and\n        /* \"6 \\xd0\\xb7\\xd0\\xb0\\xd0\\xbd\\xd1\\x8f\\xd1\\x82\\xd0\\xb8\\xd0\\xb5/Auction.sol\":3322:3332  msg.sender */\n      caller\n        /* \"6 \\xd0\\xb7\\xd0\\xb0\\xd0\\xbd\\xd1\\x8f\\xd1\\x82\\xd0\\xb8\\xd0\\xb5/Auction.sol\":3322:3342  msg.sender == Winner */\n      0xffffffffffffffffffffffffffffffffffffffff\n      and\n      eq\n        /* \"6 \\xd0\\xb7\\xd0\\xb0\\xd0\\xbd\\xd1\\x8f\\xd1\\x82\\xd0\\xb8\\xd0\\xb5/Auction.sol\":3314:3370  require(msg.sender == Winner, \"You are not the winner.\") */\n      tag_153\n      jumpi\n      mload(0x40)\n      0x08c379a000000000000000000000000000000000000000000000000000000000\n      dup2\n      mstore\n      0x04\n      add\n      tag_154\n      swap1\n      tag_155\n      jump\t// in\n    tag_154:\n      mload(0x40)\n      dup1\n      swap2\n      sub\n      swap1\n      revert\n    tag_153:\n        /* \"6 \\xd0\\xb7\\xd0\\xb0\\xd0\\xbd\\xd1\\x8f\\xd1\\x82\\xd0\\xb8\\xd0\\xb5/Auction.sol\":3381:3445  return \"Congratulations! You are the winner. Here is your item.\" */\n      mload(0x40)\n      dup1\n      0x60\n      add\n      0x40\n      mstore\n      dup1\n      0x37\n      dup2\n      mstore\n      0x20\n      add\n      data_3f3a72287baeabafaf55376bb21d602820b9bc4e8c38516cd64d0d42e962a73e\n      0x37\n      swap2\n      codecopy\n      swap1\n      pop\n        /* \"6 \\xd0\\xb7\\xd0\\xb0\\xd0\\xbd\\xd1\\x8f\\xd1\\x82\\xd0\\xb8\\xd0\\xb5/Auction.sol\":3249:3453  function GetItem() public view returns (string memory){... */\n      swap1\n      jump\t// out\n        /* \"6 \\xd0\\xb7\\xd0\\xb0\\xd0\\xbd\\xd1\\x8f\\xd1\\x82\\xd0\\xb8\\xd0\\xb5/Auction.sol\":332:351  uint public BidStep */\n    tag_57:\n      sload(0x04)\n      dup2\n      jump\t// out\n        /* \"6 \\xd0\\xb7\\xd0\\xb0\\xd0\\xbd\\xd1\\x8f\\xd1\\x82\\xd0\\xb8\\xd0\\xb5/Auction.sol\":273:294  address public Winner */\n    tag_61:\n      0x02\n      0x00\n      swap1\n      sload\n      swap1\n      0x0100\n      exp\n      swap1\n      div\n      0xffffffffffffffffffffffffffffffffffffffff\n      and\n      dup2\n      jump\t// out\n        /* \"6 \\xd0\\xb7\\xd0\\xb0\\xd0\\xbd\\xd1\\x8f\\xd1\\x82\\xd0\\xb8\\xd0\\xb5/Auction.sol\":199:230  address public immutable SELLER */\n    tag_66:\n      immutable(\"0xd2f8f61201b2b11a78d6e866abc9c3db2ae8631fa656bfe5cb53668255367afb\")\n      dup2\n      jump\t// out\n        /* \"6 \\xd0\\xb7\\xd0\\xb0\\xd0\\xbd\\xd1\\x8f\\xd1\\x82\\xd0\\xb8\\xd0\\xb5/Auction.sol\":472:492  uint public StepTime */\n    tag_70:\n      sload(0x08)\n      dup2\n      jump\t// out\n        /* \"6 \\xd0\\xb7\\xd0\\xb0\\xd0\\xbd\\xd1\\x8f\\xd1\\x82\\xd0\\xb8\\xd0\\xb5/Auction.sol\":568:605  uint public CurrentParticipantsAmount */\n    tag_74:\n      sload(0x0b)\n      dup2\n      jump\t// out\n        /* \"6 \\xd0\\xb7\\xd0\\xb0\\xd0\\xbd\\xd1\\x8f\\xd1\\x82\\xd0\\xb8\\xd0\\xb5/Auction.sol\":4565:4666  function GetBidHistory() public view returns (BidRecord[] memory){... */\n    tag_78:\n        /* \"6 \\xd0\\xb7\\xd0\\xb0\\xd0\\xbd\\xd1\\x8f\\xd1\\x82\\xd0\\xb8\\xd0\\xb5/Auction.sol\":4611:4629  BidRecord[] memory */\n      0x60\n        /* \"6 \\xd0\\xb7\\xd0\\xb0\\xd0\\xbd\\xd1\\x8f\\xd1\\x82\\xd0\\xb8\\xd0\\xb5/Auction.sol\":4648:4658  BidHistory */\n      0x0e\n        /* \"6 \\xd0\\xb7\\xd0\\xb0\\xd0\\xbd\\xd1\\x8f\\xd1\\x82\\xd0\\xb8\\xd0\\xb5/Auction.sol\":4641:4658  return BidHistory */\n      dup1\n      sload\n      dup1\n      0x20\n      mul\n      0x20\n      add\n      mload(0x40)\n      swap1\n      dup2\n      add\n      0x40\n      mstore\n      dup1\n      swap3\n      swap2\n      swap1\n      dup2\n      dup2\n      mstore\n      0x20\n      add\n      0x00\n      swap1\n    tag_157:\n      dup3\n      dup3\n      lt\n      iszero\n      tag_158\n      jumpi\n      dup4\n      dup3\n      swap1\n      0x00\n      mstore\n      keccak256(0x00, 0x20)\n      swap1\n      0x03\n      mul\n      add\n      mload(0x40)\n      dup1\n      0x60\n      add\n      0x40\n      mstore\n      swap1\n      dup2\n      0x00\n      dup3\n      add\n      0x00\n      swap1\n      sload\n      swap1\n      0x0100\n      exp\n      swap1\n      div\n      0xffffffffffffffffffffffffffffffffffffffff\n      and\n      0xffffffffffffffffffffffffffffffffffffffff\n      and\n      0xffffffffffffffffffffffffffffffffffffffff\n      and\n      dup2\n      mstore\n      0x20\n      add\n      0x01\n      dup3\n      add\n      sload\n      dup2\n      mstore\n      0x20\n      add\n      0x02\n      dup3\n      add\n      sload\n      dup2\n      mstore\n      pop\n      pop\n      dup2\n      mstore\n      0x20\n      add\n      swap1\n      0x01\n      add\n      swap1\n      jump(tag_157)\n    tag_158:\n      pop\n      pop\n      pop\n      pop\n      swap1\n      pop\n        /* \"6 \\xd0\\xb7\\xd0\\xb0\\xd0\\xbd\\xd1\\x8f\\xd1\\x82\\xd0\\xb8\\xd0\\xb5/Auction.sol\":4565:4666  function GetBidHistory() public view returns (BidRecord[] memory){... */\n      swap1\n      jump\t// out\n        /* \"6 \\xd0\\xb7\\xd0\\xb0\\xd0\\xbd\\xd1\\x8f\\xd1\\x82\\xd0\\xb8\\xd0\\xb5/Auction.sol\":1768:2048  function StartAuction() public OnlyOwner {... */\n    tag_83:\n        /* \"6 \\xd0\\xb7\\xd0\\xb0\\xd0\\xbd\\xd1\\x8f\\xd1\\x82\\xd0\\xb8\\xd0\\xb5/Auction.sol\":1209:1215  SELLER */\n      immutable(\"0xd2f8f61201b2b11a78d6e866abc9c3db2ae8631fa656bfe5cb53668255367afb\")\n        /* \"6 \\xd0\\xb7\\xd0\\xb0\\xd0\\xbd\\xd1\\x8f\\xd1\\x82\\xd0\\xb8\\xd0\\xb5/Auction.sol\":1195:1215  msg.sender == SELLER */\n      0xffffffffffffffffffffffffffffffffffffffff\n      and\n        /* \"6 \\xd0\\xb7\\xd0\\xb0\\xd0\\xbd\\xd1\\x8f\\xd1\\x82\\xd0\\xb8\\xd0\\xb5/Auction.sol\":1195:1205  msg.sender */\n      caller\n        /* \"6 \\xd0\\xb7\\xd0\\xb0\\xd0\\xbd\\xd1\\x8f\\xd1\\x82\\xd0\\xb8\\xd0\\xb5/Auction.sol\":1195:1215  msg.sender == SELLER */\n      0xffffffffffffffffffffffffffffffffffffffff\n      and\n      eq\n        /* \"6 \\xd0\\xb7\\xd0\\xb0\\xd0\\xbd\\xd1\\x8f\\xd1\\x82\\xd0\\xb8\\xd0\\xb5/Auction.sol\":1187:1243  require(msg.sender == SELLER, \"You are not the seller.\") */\n      tag_161\n      jumpi\n      mload(0x40)\n      0x08c379a000000000000000000000000000000000000000000000000000000000\n      dup2\n      mstore\n      0x04\n      add\n      tag_162\n      swap1\n      tag_113\n      jump\t// in\n    tag_162:\n      mload(0x40)\n      dup1\n      swap2\n      sub\n      swap1\n      revert\n    tag_161:\n        /* \"6 \\xd0\\xb7\\xd0\\xb0\\xd0\\xbd\\xd1\\x8f\\xd1\\x82\\xd0\\xb8\\xd0\\xb5/Auction.sol\":1829:1837  HasEnded */\n      0x06\n      0x01\n      swap1\n      sload\n      swap1\n      0x0100\n      exp\n      swap1\n      div\n      0xff\n      and\n        /* \"6 \\xd0\\xb7\\xd0\\xb0\\xd0\\xbd\\xd1\\x8f\\xd1\\x82\\xd0\\xb8\\xd0\\xb5/Auction.sol\":1828:1837  !HasEnded */\n      iszero\n        /* \"6 \\xd0\\xb7\\xd0\\xb0\\xd0\\xbd\\xd1\\x8f\\xd1\\x82\\xd0\\xb8\\xd0\\xb5/Auction.sol\":1820:1869  require(!HasEnded, \"The auction has been ended.\") */\n      tag_164\n      jumpi\n      mload(0x40)\n      0x08c379a000000000000000000000000000000000000000000000000000000000\n      dup2\n      mstore\n      0x04\n      add\n      tag_165\n      swap1\n      tag_132\n      jump\t// in\n    tag_165:\n      mload(0x40)\n      dup1\n      swap2\n      sub\n      swap1\n      revert\n    tag_164:\n        /* \"6 \\xd0\\xb7\\xd0\\xb0\\xd0\\xbd\\xd1\\x8f\\xd1\\x82\\xd0\\xb8\\xd0\\xb5/Auction.sol\":1889:1899  HasStarted */\n      0x06\n      0x00\n      swap1\n      sload\n      swap1\n      0x0100\n      exp\n      swap1\n      div\n      0xff\n      and\n        /* \"6 \\xd0\\xb7\\xd0\\xb0\\xd0\\xbd\\xd1\\x8f\\xd1\\x82\\xd0\\xb8\\xd0\\xb5/Auction.sol\":1888:1899  !HasStarted */\n      iszero\n        /* \"6 \\xd0\\xb7\\xd0\\xb0\\xd0\\xbd\\xd1\\x8f\\xd1\\x82\\xd0\\xb8\\xd0\\xb5/Auction.sol\":1880:1936  require(!HasStarted, \"The auction has already started.\") */\n      tag_166\n      jumpi\n      mload(0x40)\n      0x08c379a000000000000000000000000000000000000000000000000000000000\n      dup2\n      mstore\n      0x04\n      add\n      tag_167\n      swap1\n      tag_168\n      jump\t// in\n    tag_167:\n      mload(0x40)\n      dup1\n      swap2\n      sub\n      swap1\n      revert\n    tag_166:\n        /* \"6 \\xd0\\xb7\\xd0\\xb0\\xd0\\xbd\\xd1\\x8f\\xd1\\x82\\xd0\\xb8\\xd0\\xb5/Auction.sol\":1960:1964  true */\n      0x01\n        /* \"6 \\xd0\\xb7\\xd0\\xb0\\xd0\\xbd\\xd1\\x8f\\xd1\\x82\\xd0\\xb8\\xd0\\xb5/Auction.sol\":1947:1957  HasStarted */\n      0x06\n      0x00\n        /* \"6 \\xd0\\xb7\\xd0\\xb0\\xd0\\xbd\\xd1\\x8f\\xd1\\x82\\xd0\\xb8\\xd0\\xb5/Auction.sol\":1947:1964  HasStarted = true */\n      0x0100\n      exp\n      dup2\n      sload\n      dup2\n      0xff\n      mul\n      not\n      and\n      swap1\n      dup4\n      iszero\n      iszero\n      mul\n      or\n      swap1\n      sstore\n      pop\n        /* \"6 \\xd0\\xb7\\xd0\\xb0\\xd0\\xbd\\xd1\\x8f\\xd1\\x82\\xd0\\xb8\\xd0\\xb5/Auction.sol\":1987:2002  block.timestamp */\n      timestamp\n        /* \"6 \\xd0\\xb7\\xd0\\xb0\\xd0\\xbd\\xd1\\x8f\\xd1\\x82\\xd0\\xb8\\xd0\\xb5/Auction.sol\":1975:1984  StartTime */\n      0x07\n        /* \"6 \\xd0\\xb7\\xd0\\xb0\\xd0\\xbd\\xd1\\x8f\\xd1\\x82\\xd0\\xb8\\xd0\\xb5/Auction.sol\":1975:2002  StartTime = block.timestamp */\n      dup2\n      swap1\n      sstore\n      pop\n        /* \"6 \\xd0\\xb7\\xd0\\xb0\\xd0\\xbd\\xd1\\x8f\\xd1\\x82\\xd0\\xb8\\xd0\\xb5/Auction.sol\":2031:2040  StartTime */\n      sload(0x07)\n        /* \"6 \\xd0\\xb7\\xd0\\xb0\\xd0\\xbd\\xd1\\x8f\\xd1\\x82\\xd0\\xb8\\xd0\\xb5/Auction.sol\":2013:2028  PreviousBidTime */\n      0x09\n        /* \"6 \\xd0\\xb7\\xd0\\xb0\\xd0\\xbd\\xd1\\x8f\\xd1\\x82\\xd0\\xb8\\xd0\\xb5/Auction.sol\":2013:2040  PreviousBidTime = StartTime */\n      dup2\n      swap1\n      sstore\n      pop\n        /* \"6 \\xd0\\xb7\\xd0\\xb0\\xd0\\xbd\\xd1\\x8f\\xd1\\x82\\xd0\\xb8\\xd0\\xb5/Auction.sol\":1768:2048  function StartAuction() public OnlyOwner {... */\n      jump\t// out\n        /* \"6 \\xd0\\xb7\\xd0\\xb0\\xd0\\xbd\\xd1\\x8f\\xd1\\x82\\xd0\\xb8\\xd0\\xb5/Auction.sol\":1522:1760  function GetPermission(address account) public OnlyOwner {... */\n    tag_88:\n        /* \"6 \\xd0\\xb7\\xd0\\xb0\\xd0\\xbd\\xd1\\x8f\\xd1\\x82\\xd0\\xb8\\xd0\\xb5/Auction.sol\":1209:1215  SELLER */\n      immutable(\"0xd2f8f61201b2b11a78d6e866abc9c3db2ae8631fa656bfe5cb53668255367afb\")\n        /* \"6 \\xd0\\xb7\\xd0\\xb0\\xd0\\xbd\\xd1\\x8f\\xd1\\x82\\xd0\\xb8\\xd0\\xb5/Auction.sol\":1195:1215  msg.sender == SELLER */\n      0xffffffffffffffffffffffffffffffffffffffff\n      and\n        /* \"6 \\xd0\\xb7\\xd0\\xb0\\xd0\\xbd\\xd1\\x8f\\xd1\\x82\\xd0\\xb8\\xd0\\xb5/Auction.sol\":1195:1205  msg.sender */\n      caller\n        /* \"6 \\xd0\\xb7\\xd0\\xb0\\xd0\\xbd\\xd1\\x8f\\xd1\\x82\\xd0\\xb8\\xd0\\xb5/Auction.sol\":1195:1215  msg.sender == SELLER */\n      0xffffffffffffffffffffffffffffffffffffffff\n      and\n      eq\n        /* \"6 \\xd0\\xb7\\xd0\\xb0\\xd0\\xbd\\xd1\\x8f\\xd1\\x82\\xd0\\xb8\\xd0\\xb5/Auction.sol\":1187:1243  require(msg.sender == SELLER, \"You are not the seller.\") */\n      tag_170\n      jumpi\n      mload(0x40)\n      0x08c379a000000000000000000000000000000000000000000000000000000000\n      dup2\n      mstore\n      0x04\n      add\n      tag_171\n      swap1\n      tag_113\n      jump\t// in\n    tag_171:\n      mload(0x40)\n      dup1\n      swap2\n      sub\n      swap1\n      revert\n    tag_170:\n        /* \"6 \\xd0\\xb7\\xd0\\xb0\\xd0\\xbd\\xd1\\x8f\\xd1\\x82\\xd0\\xb8\\xd0\\xb5/Auction.sol\":1626:1641  MaxParticipants */\n      sload(0x0a)\n        /* \"6 \\xd0\\xb7\\xd0\\xb0\\xd0\\xbd\\xd1\\x8f\\xd1\\x82\\xd0\\xb8\\xd0\\xb5/Auction.sol\":1598:1623  CurrentParticipantsAmount */\n      sload(0x0b)\n        /* \"6 \\xd0\\xb7\\xd0\\xb0\\xd0\\xbd\\xd1\\x8f\\xd1\\x82\\xd0\\xb8\\xd0\\xb5/Auction.sol\":1598:1641  CurrentParticipantsAmount < MaxParticipants */\n      lt\n        /* \"6 \\xd0\\xb7\\xd0\\xb0\\xd0\\xbd\\xd1\\x8f\\xd1\\x82\\xd0\\xb8\\xd0\\xb5/Auction.sol\":1590:1673  require(CurrentParticipantsAmount < MaxParticipants, \"Max limit for participants.\") */\n      tag_173\n      jumpi\n      mload(0x40)\n      0x08c379a000000000000000000000000000000000000000000000000000000000\n      dup2\n      mstore\n      0x04\n      add\n      tag_174\n      swap1\n      tag_175\n      jump\t// in\n    tag_174:\n      mload(0x40)\n      dup1\n      swap2\n      sub\n      swap1\n      revert\n    tag_173:\n        /* \"6 \\xd0\\xb7\\xd0\\xb0\\xd0\\xbd\\xd1\\x8f\\xd1\\x82\\xd0\\xb8\\xd0\\xb5/Auction.sol\":1707:1711  true */\n      0x01\n        /* \"6 \\xd0\\xb7\\xd0\\xb0\\xd0\\xbd\\xd1\\x8f\\xd1\\x82\\xd0\\xb8\\xd0\\xb5/Auction.sol\":1684:1695  Permissions */\n      0x0c\n        /* \"6 \\xd0\\xb7\\xd0\\xb0\\xd0\\xbd\\xd1\\x8f\\xd1\\x82\\xd0\\xb8\\xd0\\xb5/Auction.sol\":1684:1704  Permissions[account] */\n      0x00\n        /* \"6 \\xd0\\xb7\\xd0\\xb0\\xd0\\xbd\\xd1\\x8f\\xd1\\x82\\xd0\\xb8\\xd0\\xb5/Auction.sol\":1696:1703  account */\n      dup4\n        /* \"6 \\xd0\\xb7\\xd0\\xb0\\xd0\\xbd\\xd1\\x8f\\xd1\\x82\\xd0\\xb8\\xd0\\xb5/Auction.sol\":1684:1704  Permissions[account] */\n      0xffffffffffffffffffffffffffffffffffffffff\n      and\n      0xffffffffffffffffffffffffffffffffffffffff\n      and\n      dup2\n      mstore\n      0x20\n      add\n      swap1\n      dup2\n      mstore\n      0x20\n      add\n      0x00\n      keccak256\n      0x00\n        /* \"6 \\xd0\\xb7\\xd0\\xb0\\xd0\\xbd\\xd1\\x8f\\xd1\\x82\\xd0\\xb8\\xd0\\xb5/Auction.sol\":1684:1711  Permissions[account] = true */\n      0x0100\n      exp\n      dup2\n      sload\n      dup2\n      0xff\n      mul\n      not\n      and\n      swap1\n      dup4\n      iszero\n      iszero\n      mul\n      or\n      swap1\n      sstore\n      pop\n        /* \"6 \\xd0\\xb7\\xd0\\xb0\\xd0\\xbd\\xd1\\x8f\\xd1\\x82\\xd0\\xb8\\xd0\\xb5/Auction.sol\":1751:1752  1 */\n      0x01\n        /* \"6 \\xd0\\xb7\\xd0\\xb0\\xd0\\xbd\\xd1\\x8f\\xd1\\x82\\xd0\\xb8\\xd0\\xb5/Auction.sol\":1722:1747  CurrentParticipantsAmount */\n      0x0b\n      0x00\n        /* \"6 \\xd0\\xb7\\xd0\\xb0\\xd0\\xbd\\xd1\\x8f\\xd1\\x82\\xd0\\xb8\\xd0\\xb5/Auction.sol\":1722:1752  CurrentParticipantsAmount += 1 */\n      dup3\n      dup3\n      sload\n      tag_176\n      swap2\n      swap1\n      tag_137\n      jump\t// in\n    tag_176:\n      swap3\n      pop\n      pop\n      dup2\n      swap1\n      sstore\n      pop\n        /* \"6 \\xd0\\xb7\\xd0\\xb0\\xd0\\xbd\\xd1\\x8f\\xd1\\x82\\xd0\\xb8\\xd0\\xb5/Auction.sol\":1522:1760  function GetPermission(address account) public OnlyOwner {... */\n      pop\n      jump\t// out\n        /* \"6 \\xd0\\xb7\\xd0\\xb0\\xd0\\xbd\\xd1\\x8f\\xd1\\x82\\xd0\\xb8\\xd0\\xb5/Auction.sol\":534:561  uint public MaxParticipants */\n    tag_91:\n      sload(0x0a)\n      dup2\n      jump\t// out\n        /* \"6 \\xd0\\xb7\\xd0\\xb0\\xd0\\xbd\\xd1\\x8f\\xd1\\x82\\xd0\\xb8\\xd0\\xb5/Auction.sol\":444:465  uint public StartTime */\n    tag_95:\n      sload(0x07)\n      dup2\n      jump\t// out\n        /* \"6 \\xd0\\xb7\\xd0\\xb0\\xd0\\xbd\\xd1\\x8f\\xd1\\x82\\xd0\\xb8\\xd0\\xb5/Auction.sol\":388:410  bool public HasStarted */\n    tag_99:\n      0x06\n      0x00\n      swap1\n      sload\n      swap1\n      0x0100\n      exp\n      swap1\n      div\n      0xff\n      and\n      dup2\n      jump\t// out\n        /* \"6 \\xd0\\xb7\\xd0\\xb0\\xd0\\xbd\\xd1\\x8f\\xd1\\x82\\xd0\\xb8\\xd0\\xb5/Auction.sol\":3014:3241  function Withdraw() private returns (bool) {... */\n    tag_122:\n        /* \"6 \\xd0\\xb7\\xd0\\xb0\\xd0\\xbd\\xd1\\x8f\\xd1\\x82\\xd0\\xb8\\xd0\\xb5/Auction.sol\":3051:3055  bool */\n      0x00\n        /* \"6 \\xd0\\xb7\\xd0\\xb0\\xd0\\xbd\\xd1\\x8f\\xd1\\x82\\xd0\\xb8\\xd0\\xb5/Auction.sol\":3097:3098  0 */\n      dup1\n        /* \"6 \\xd0\\xb7\\xd0\\xb0\\xd0\\xbd\\xd1\\x8f\\xd1\\x82\\xd0\\xb8\\xd0\\xb5/Auction.sol\":3072:3099  HighestBidder != address(0) */\n      0xffffffffffffffffffffffffffffffffffffffff\n      and\n        /* \"6 \\xd0\\xb7\\xd0\\xb0\\xd0\\xbd\\xd1\\x8f\\xd1\\x82\\xd0\\xb8\\xd0\\xb5/Auction.sol\":3072:3085  HighestBidder */\n      0x01\n      0x00\n      swap1\n      sload\n      swap1\n      0x0100\n      exp\n      swap1\n      div\n      0xffffffffffffffffffffffffffffffffffffffff\n      and\n        /* \"6 \\xd0\\xb7\\xd0\\xb0\\xd0\\xbd\\xd1\\x8f\\xd1\\x82\\xd0\\xb8\\xd0\\xb5/Auction.sol\":3072:3099  HighestBidder != address(0) */\n      0xffffffffffffffffffffffffffffffffffffffff\n      and\n      eq\n      iszero\n        /* \"6 \\xd0\\xb7\\xd0\\xb0\\xd0\\xbd\\xd1\\x8f\\xd1\\x82\\xd0\\xb8\\xd0\\xb5/Auction.sol\":3072:3112  HighestBidder != address(0) && !HasEnded */\n      dup1\n      iszero\n      tag_178\n      jumpi\n      pop\n        /* \"6 \\xd0\\xb7\\xd0\\xb0\\xd0\\xbd\\xd1\\x8f\\xd1\\x82\\xd0\\xb8\\xd0\\xb5/Auction.sol\":3104:3112  HasEnded */\n      0x06\n      0x01\n      swap1\n      sload\n      swap1\n      0x0100\n      exp\n      swap1\n      div\n      0xff\n      and\n        /* \"6 \\xd0\\xb7\\xd0\\xb0\\xd0\\xbd\\xd1\\x8f\\xd1\\x82\\xd0\\xb8\\xd0\\xb5/Auction.sol\":3103:3112  !HasEnded */\n      iszero\n        /* \"6 \\xd0\\xb7\\xd0\\xb0\\xd0\\xbd\\xd1\\x8f\\xd1\\x82\\xd0\\xb8\\xd0\\xb5/Auction.sol\":3072:3112  HighestBidder != address(0) && !HasEnded */\n    tag_178:\n        /* \"6 \\xd0\\xb7\\xd0\\xb0\\xd0\\xbd\\xd1\\x8f\\xd1\\x82\\xd0\\xb8\\xd0\\xb5/Auction.sol\":3068:3211  if (HighestBidder != address(0) && !HasEnded) {... */\n      iszero\n      tag_179\n      jumpi\n        /* \"6 \\xd0\\xb7\\xd0\\xb0\\xd0\\xbd\\xd1\\x8f\\xd1\\x82\\xd0\\xb8\\xd0\\xb5/Auction.sol\":3137:3150  HighestBidder */\n      0x01\n      0x00\n      swap1\n      sload\n      swap1\n      0x0100\n      exp\n      swap1\n      div\n      0xffffffffffffffffffffffffffffffffffffffff\n      and\n        /* \"6 \\xd0\\xb7\\xd0\\xb0\\xd0\\xbd\\xd1\\x8f\\xd1\\x82\\xd0\\xb8\\xd0\\xb5/Auction.sol\":3129:3160  payable(HighestBidder).transfer */\n      0xffffffffffffffffffffffffffffffffffffffff\n      and\n        /* \"6 \\xd0\\xb7\\xd0\\xb0\\xd0\\xbd\\xd1\\x8f\\xd1\\x82\\xd0\\xb8\\xd0\\xb5/Auction.sol\":3129:3173  payable(HighestBidder).transfer(CurrentCost) */\n      0x08fc\n        /* \"6 \\xd0\\xb7\\xd0\\xb0\\xd0\\xbd\\xd1\\x8f\\xd1\\x82\\xd0\\xb8\\xd0\\xb5/Auction.sol\":3161:3172  CurrentCost */\n      sload(0x05)\n        /* \"6 \\xd0\\xb7\\xd0\\xb0\\xd0\\xbd\\xd1\\x8f\\xd1\\x82\\xd0\\xb8\\xd0\\xb5/Auction.sol\":3129:3173  payable(HighestBidder).transfer(CurrentCost) */\n      swap1\n      dup2\n      iszero\n      mul\n      swap1\n      mload(0x40)\n      0x00\n      mload(0x40)\n      dup1\n      dup4\n      sub\n      dup2\n      dup6\n      dup9\n      dup9\n      call\n      swap4\n      pop\n      pop\n      pop\n      pop\n      iszero\n      dup1\n      iszero\n      tag_181\n      jumpi\n      returndatasize\n      0x00\n      dup1\n      returndatacopy\n      revert(0x00, returndatasize)\n    tag_181:\n      pop\n        /* \"6 \\xd0\\xb7\\xd0\\xb0\\xd0\\xbd\\xd1\\x8f\\xd1\\x82\\xd0\\xb8\\xd0\\xb5/Auction.sol\":3195:3199  true */\n      0x01\n        /* \"6 \\xd0\\xb7\\xd0\\xb0\\xd0\\xbd\\xd1\\x8f\\xd1\\x82\\xd0\\xb8\\xd0\\xb5/Auction.sol\":3188:3199  return true */\n      swap1\n      pop\n      jump(tag_177)\n        /* \"6 \\xd0\\xb7\\xd0\\xb0\\xd0\\xbd\\xd1\\x8f\\xd1\\x82\\xd0\\xb8\\xd0\\xb5/Auction.sol\":3068:3211  if (HighestBidder != address(0) && !HasEnded) {... */\n    tag_179:\n        /* \"6 \\xd0\\xb7\\xd0\\xb0\\xd0\\xbd\\xd1\\x8f\\xd1\\x82\\xd0\\xb8\\xd0\\xb5/Auction.sol\":3228:3233  false */\n      0x00\n        /* \"6 \\xd0\\xb7\\xd0\\xb0\\xd0\\xbd\\xd1\\x8f\\xd1\\x82\\xd0\\xb8\\xd0\\xb5/Auction.sol\":3221:3233  return false */\n      swap1\n      pop\n        /* \"6 \\xd0\\xb7\\xd0\\xb0\\xd0\\xbd\\xd1\\x8f\\xd1\\x82\\xd0\\xb8\\xd0\\xb5/Auction.sol\":3014:3241  function Withdraw() private returns (bool) {... */\n    tag_177:\n      swap1\n      jump\t// out\n        /* \"@openzeppelin/contracts/utils/Strings.sol\":637:1269  function toString(uint256 value) internal pure returns (string memory) {... */\n    tag_142:\n        /* \"@openzeppelin/contracts/utils/Strings.sol\":693:706  string memory */\n      0x60\n        /* \"@openzeppelin/contracts/utils/Strings.sol\":742:756  uint256 length */\n      0x00\n        /* \"@openzeppelin/contracts/utils/Strings.sol\":779:780  1 */\n      0x01\n        /* \"@openzeppelin/contracts/utils/Strings.sol\":759:776  Math.log10(value) */\n      tag_183\n        /* \"@openzeppelin/contracts/utils/Strings.sol\":770:775  value */\n      dup5\n        /* \"@openzeppelin/contracts/utils/Strings.sol\":759:769  Math.log10 */\n      tag_184\n        /* \"@openzeppelin/contracts/utils/Strings.sol\":759:776  Math.log10(value) */\n      jump\t// in\n    tag_183:\n        /* \"@openzeppelin/contracts/utils/Strings.sol\":759:780  Math.log10(value) + 1 */\n      add\n        /* \"@openzeppelin/contracts/utils/Strings.sol\":742:780  uint256 length = Math.log10(value) + 1 */\n      swap1\n      pop\n        /* \"@openzeppelin/contracts/utils/Strings.sol\":794:814  string memory buffer */\n      0x00\n        /* \"@openzeppelin/contracts/utils/Strings.sol\":828:834  length */\n      dup2\n        /* \"@openzeppelin/contracts/utils/Strings.sol\":817:835  new string(length) */\n      0xffffffffffffffff\n      dup2\n      gt\n      iszero\n      tag_185\n      jumpi\n      tag_186\n      tag_187\n      jump\t// in\n    tag_186:\n    tag_185:\n      mload(0x40)\n      swap1\n      dup1\n      dup3\n      mstore\n      dup1\n      0x1f\n      add\n      not(0x1f)\n      and\n      0x20\n      add\n      dup3\n      add\n      0x40\n      mstore\n      dup1\n      iszero\n      tag_188\n      jumpi\n      dup2\n      0x20\n      add\n      0x01\n      dup3\n      mul\n      dup1\n      calldatasize\n      dup4\n      calldatacopy\n      dup1\n      dup3\n      add\n      swap2\n      pop\n      pop\n      swap1\n      pop\n    tag_188:\n      pop\n        /* \"@openzeppelin/contracts/utils/Strings.sol\":794:835  string memory buffer = new string(length) */\n      swap1\n      pop\n        /* \"@openzeppelin/contracts/utils/Strings.sol\":849:860  uint256 ptr */\n      0x00\n        /* \"@openzeppelin/contracts/utils/Strings.sol\":944:950  length */\n      dup3\n        /* \"@openzeppelin/contracts/utils/Strings.sol\":940:942  32 */\n      0x20\n        /* \"@openzeppelin/contracts/utils/Strings.sol\":936:951  add(32, length) */\n      add\n        /* \"@openzeppelin/contracts/utils/Strings.sol\":928:934  buffer */\n      dup3\n        /* \"@openzeppelin/contracts/utils/Strings.sol\":924:952  add(buffer, add(32, length)) */\n      add\n        /* \"@openzeppelin/contracts/utils/Strings.sol\":917:952  ptr := add(buffer, add(32, length)) */\n      swap1\n      pop\n        /* \"@openzeppelin/contracts/utils/Strings.sol\":979:1226  while (true) {... */\n    tag_189:\n        /* \"@openzeppelin/contracts/utils/Strings.sol\":986:990  true */\n      0x01\n        /* \"@openzeppelin/contracts/utils/Strings.sol\":979:1226  while (true) {... */\n      iszero\n      tag_190\n      jumpi\n        /* \"@openzeppelin/contracts/utils/Strings.sol\":1010:1015  ptr-- */\n      dup1\n      dup1\n      0x01\n      swap1\n      sub\n      swap2\n      pop\n      pop\n        /* \"@openzeppelin/contracts/utils/Strings.sol\":1114:1124  HEX_DIGITS */\n      0x3031323334353637383961626364656600000000000000000000000000000000\n        /* \"@openzeppelin/contracts/utils/Strings.sol\":1109:1111  10 */\n      0x0a\n        /* \"@openzeppelin/contracts/utils/Strings.sol\":1102:1107  value */\n      dup7\n        /* \"@openzeppelin/contracts/utils/Strings.sol\":1098:1112  mod(value, 10) */\n      mod\n        /* \"@openzeppelin/contracts/utils/Strings.sol\":1093:1125  byte(mod(value, 10), HEX_DIGITS) */\n      byte\n        /* \"@openzeppelin/contracts/utils/Strings.sol\":1088:1091  ptr */\n      dup2\n        /* \"@openzeppelin/contracts/utils/Strings.sol\":1080:1126  mstore8(ptr, byte(mod(value, 10), HEX_DIGITS)) */\n      mstore8\n        /* \"@openzeppelin/contracts/utils/Strings.sol\":1170:1172  10 */\n      0x0a\n        /* \"@openzeppelin/contracts/utils/Strings.sol\":1161:1172  value /= 10 */\n      dup6\n      dup2\n      tag_191\n      jumpi\n      tag_192\n      tag_193\n      jump\t// in\n    tag_192:\n    tag_191:\n      div\n      swap5\n      pop\n        /* \"@openzeppelin/contracts/utils/Strings.sol\":1203:1204  0 */\n      0x00\n        /* \"@openzeppelin/contracts/utils/Strings.sol\":1194:1199  value */\n      dup6\n        /* \"@openzeppelin/contracts/utils/Strings.sol\":1194:1204  value == 0 */\n      sub\n        /* \"@openzeppelin/contracts/utils/Strings.sol\":979:1226  while (true) {... */\n      tag_189\n        /* \"@openzeppelin/contracts/utils/Strings.sol\":1190:1211  if (value == 0) break */\n      jumpi\n        /* \"@openzeppelin/contracts/utils/Strings.sol\":979:1226  while (true) {... */\n    tag_190:\n        /* \"@openzeppelin/contracts/utils/Strings.sol\":1246:1252  buffer */\n      dup2\n        /* \"@openzeppelin/contracts/utils/Strings.sol\":1239:1252  return buffer */\n      swap4\n      pop\n      pop\n      pop\n      pop\n        /* \"@openzeppelin/contracts/utils/Strings.sol\":637:1269  function toString(uint256 value) internal pure returns (string memory) {... */\n      swap2\n      swap1\n      pop\n      jump\t// out\n        /* \"6 \\xd0\\xb7\\xd0\\xb0\\xd0\\xbd\\xd1\\x8f\\xd1\\x82\\xd0\\xb8\\xd0\\xb5/Auction.sol\":2796:3006  function CheckTimeAndWinner() private {... */\n    tag_151:\n        /* \"6 \\xd0\\xb7\\xd0\\xb0\\xd0\\xbd\\xd1\\x8f\\xd1\\x82\\xd0\\xb8\\xd0\\xb5/Auction.sol\":2886:2894  StepTime */\n      sload(0x08)\n        /* \"6 \\xd0\\xb7\\xd0\\xb0\\xd0\\xbd\\xd1\\x8f\\xd1\\x82\\xd0\\xb8\\xd0\\xb5/Auction.sol\":2868:2883  PreviousBidTime */\n      sload(0x09)\n        /* \"6 \\xd0\\xb7\\xd0\\xb0\\xd0\\xbd\\xd1\\x8f\\xd1\\x82\\xd0\\xb8\\xd0\\xb5/Auction.sol\":2868:2894  PreviousBidTime + StepTime */\n      tag_196\n      swap2\n      swap1\n      tag_137\n      jump\t// in\n    tag_196:\n        /* \"6 \\xd0\\xb7\\xd0\\xb0\\xd0\\xbd\\xd1\\x8f\\xd1\\x82\\xd0\\xb8\\xd0\\xb5/Auction.sol\":2849:2864  block.timestamp */\n      timestamp\n        /* \"6 \\xd0\\xb7\\xd0\\xb0\\xd0\\xbd\\xd1\\x8f\\xd1\\x82\\xd0\\xb8\\xd0\\xb5/Auction.sol\":2849:2894  block.timestamp >= PreviousBidTime + StepTime */\n      lt\n        /* \"6 \\xd0\\xb7\\xd0\\xb0\\xd0\\xbd\\xd1\\x8f\\xd1\\x82\\xd0\\xb8\\xd0\\xb5/Auction.sol\":2845:2999  if (block.timestamp >= PreviousBidTime + StepTime){... */\n      tag_197\n      jumpi\n        /* \"6 \\xd0\\xb7\\xd0\\xb0\\xd0\\xbd\\xd1\\x8f\\xd1\\x82\\xd0\\xb8\\xd0\\xb5/Auction.sol\":2921:2925  true */\n      0x01\n        /* \"6 \\xd0\\xb7\\xd0\\xb0\\xd0\\xbd\\xd1\\x8f\\xd1\\x82\\xd0\\xb8\\xd0\\xb5/Auction.sol\":2910:2918  HasEnded */\n      0x06\n      0x01\n        /* \"6 \\xd0\\xb7\\xd0\\xb0\\xd0\\xbd\\xd1\\x8f\\xd1\\x82\\xd0\\xb8\\xd0\\xb5/Auction.sol\":2910:2925  HasEnded = true */\n      0x0100\n      exp\n      dup2\n      sload\n      dup2\n      0xff\n      mul\n      not\n      and\n      swap1\n      dup4\n      iszero\n      iszero\n      mul\n      or\n      swap1\n      sstore\n      pop\n        /* \"6 \\xd0\\xb7\\xd0\\xb0\\xd0\\xbd\\xd1\\x8f\\xd1\\x82\\xd0\\xb8\\xd0\\xb5/Auction.sol\":2949:2962  HighestBidder */\n      0x01\n      0x00\n      swap1\n      sload\n      swap1\n      0x0100\n      exp\n      swap1\n      div\n      0xffffffffffffffffffffffffffffffffffffffff\n      and\n        /* \"6 \\xd0\\xb7\\xd0\\xb0\\xd0\\xbd\\xd1\\x8f\\xd1\\x82\\xd0\\xb8\\xd0\\xb5/Auction.sol\":2940:2946  Winner */\n      0x02\n      0x00\n        /* \"6 \\xd0\\xb7\\xd0\\xb0\\xd0\\xbd\\xd1\\x8f\\xd1\\x82\\xd0\\xb8\\xd0\\xb5/Auction.sol\":2940:2962  Winner = HighestBidder */\n      0x0100\n      exp\n      dup2\n      sload\n      dup2\n      0xffffffffffffffffffffffffffffffffffffffff\n      mul\n      not\n      and\n      swap1\n      dup4\n      0xffffffffffffffffffffffffffffffffffffffff\n      and\n      mul\n      or\n      swap1\n      sstore\n      pop\n        /* \"6 \\xd0\\xb7\\xd0\\xb0\\xd0\\xbd\\xd1\\x8f\\xd1\\x82\\xd0\\xb8\\xd0\\xb5/Auction.sol\":2977:2987  Withdraw() */\n      tag_198\n        /* \"6 \\xd0\\xb7\\xd0\\xb0\\xd0\\xbd\\xd1\\x8f\\xd1\\x82\\xd0\\xb8\\xd0\\xb5/Auction.sol\":2977:2985  Withdraw */\n      tag_122\n        /* \"6 \\xd0\\xb7\\xd0\\xb0\\xd0\\xbd\\xd1\\x8f\\xd1\\x82\\xd0\\xb8\\xd0\\xb5/Auction.sol\":2977:2987  Withdraw() */\n      jump\t// in\n    tag_198:\n      pop\n        /* \"6 \\xd0\\xb7\\xd0\\xb0\\xd0\\xbd\\xd1\\x8f\\xd1\\x82\\xd0\\xb8\\xd0\\xb5/Auction.sol\":2845:2999  if (block.timestamp >= PreviousBidTime + StepTime){... */\n    tag_197:\n        /* \"6 \\xd0\\xb7\\xd0\\xb0\\xd0\\xbd\\xd1\\x8f\\xd1\\x82\\xd0\\xb8\\xd0\\xb5/Auction.sol\":2796:3006  function CheckTimeAndWinner() private {... */\n      jump\t// out\n        /* \"@openzeppelin/contracts/utils/math/Math.sol\":25316:26232  function log10(uint256 value) internal pure returns (uint256) {... */\n    tag_184:\n        /* \"@openzeppelin/contracts/utils/math/Math.sol\":25369:25376  uint256 */\n      0x00\n        /* \"@openzeppelin/contracts/utils/math/Math.sol\":25388:25402  uint256 result */\n      dup1\n        /* \"@openzeppelin/contracts/utils/math/Math.sol\":25405:25406  0 */\n      0x00\n        /* \"@openzeppelin/contracts/utils/math/Math.sol\":25388:25406  uint256 result = 0 */\n      swap1\n      pop\n        /* \"@openzeppelin/contracts/utils/math/Math.sol\":25453:25461  10 ** 64 */\n      0x184f03e93ff9f4daa797ed6e38ed64bf6a1f010000000000000000\n        /* \"@openzeppelin/contracts/utils/math/Math.sol\":25444:25449  value */\n      dup4\n        /* \"@openzeppelin/contracts/utils/math/Math.sol\":25444:25461  value >= 10 ** 64 */\n      lt\n        /* \"@openzeppelin/contracts/utils/math/Math.sol\":25440:25543  if (value >= 10 ** 64) {... */\n      tag_200\n      jumpi\n        /* \"@openzeppelin/contracts/utils/math/Math.sol\":25490:25498  10 ** 64 */\n      0x184f03e93ff9f4daa797ed6e38ed64bf6a1f010000000000000000\n        /* \"@openzeppelin/contracts/utils/math/Math.sol\":25481:25498  value /= 10 ** 64 */\n      dup4\n      dup2\n      tag_201\n      jumpi\n      tag_202\n      tag_193\n      jump\t// in\n    tag_202:\n    tag_201:\n      div\n      swap3\n      pop\n        /* \"@openzeppelin/contracts/utils/math/Math.sol\":25526:25528  64 */\n      0x40\n        /* \"@openzeppelin/contracts/utils/math/Math.sol\":25516:25528  result += 64 */\n      dup2\n      add\n      swap1\n      pop\n        /* \"@openzeppelin/contracts/utils/math/Math.sol\":25440:25543  if (value >= 10 ** 64) {... */\n    tag_200:\n        /* \"@openzeppelin/contracts/utils/math/Math.sol\":25569:25577  10 ** 32 */\n      0x04ee2d6d415b85acef8100000000\n        /* \"@openzeppelin/contracts/utils/math/Math.sol\":25560:25565  value */\n      dup4\n        /* \"@openzeppelin/contracts/utils/math/Math.sol\":25560:25577  value >= 10 ** 32 */\n      lt\n        /* \"@openzeppelin/contracts/utils/math/Math.sol\":25556:25659  if (value >= 10 ** 32) {... */\n      tag_203\n      jumpi\n        /* \"@openzeppelin/contracts/utils/math/Math.sol\":25606:25614  10 ** 32 */\n      0x04ee2d6d415b85acef8100000000\n        /* \"@openzeppelin/contracts/utils/math/Math.sol\":25597:25614  value /= 10 ** 32 */\n      dup4\n      dup2\n      tag_204\n      jumpi\n      tag_205\n      tag_193\n      jump\t// in\n    tag_205:\n    tag_204:\n      div\n      swap3\n      pop\n        /* \"@openzeppelin/contracts/utils/math/Math.sol\":25642:25644  32 */\n      0x20\n        /* \"@openzeppelin/contracts/utils/math/Math.sol\":25632:25644  result += 32 */\n      dup2\n      add\n      swap1\n      pop\n        /* \"@openzeppelin/contracts/utils/math/Math.sol\":25556:25659  if (value >= 10 ** 32) {... */\n    tag_203:\n        /* \"@openzeppelin/contracts/utils/math/Math.sol\":25685:25693  10 ** 16 */\n      0x2386f26fc10000\n        /* \"@openzeppelin/contracts/utils/math/Math.sol\":25676:25681  value */\n      dup4\n        /* \"@openzeppelin/contracts/utils/math/Math.sol\":25676:25693  value >= 10 ** 16 */\n      lt\n        /* \"@openzeppelin/contracts/utils/math/Math.sol\":25672:25775  if (value >= 10 ** 16) {... */\n      tag_206\n      jumpi\n        /* \"@openzeppelin/contracts/utils/math/Math.sol\":25722:25730  10 ** 16 */\n      0x2386f26fc10000\n        /* \"@openzeppelin/contracts/utils/math/Math.sol\":25713:25730  value /= 10 ** 16 */\n      dup4\n      dup2\n      tag_207\n      jumpi\n      tag_208\n      tag_193\n      jump\t// in\n    tag_208:\n    tag_207:\n      div\n      swap3\n      pop\n        /* \"@openzeppelin/contracts/utils/math/Math.sol\":25758:25760  16 */\n      0x10\n        /* \"@openzeppelin/contracts/utils/math/Math.sol\":25748:25760  result += 16 */\n      dup2\n      add\n      swap1\n      pop\n        /* \"@openzeppelin/contracts/utils/math/Math.sol\":25672:25775  if (value >= 10 ** 16) {... */\n    tag_206:\n        /* \"@openzeppelin/contracts/utils/math/Math.sol\":25801:25808  10 ** 8 */\n      0x05f5e100\n        /* \"@openzeppelin/contracts/utils/math/Math.sol\":25792:25797  value */\n      dup4\n        /* \"@openzeppelin/contracts/utils/math/Math.sol\":25792:25808  value >= 10 ** 8 */\n      lt\n        /* \"@openzeppelin/contracts/utils/math/Math.sol\":25788:25888  if (value >= 10 ** 8) {... */\n      tag_209\n      jumpi\n        /* \"@openzeppelin/contracts/utils/math/Math.sol\":25837:25844  10 ** 8 */\n      0x05f5e100\n        /* \"@openzeppelin/contracts/utils/math/Math.sol\":25828:25844  value /= 10 ** 8 */\n      dup4\n      dup2\n      tag_210\n      jumpi\n      tag_211\n      tag_193\n      jump\t// in\n    tag_211:\n    tag_210:\n      div\n      swap3\n      pop\n        /* \"@openzeppelin/contracts/utils/math/Math.sol\":25872:25873  8 */\n      0x08\n        /* \"@openzeppelin/contracts/utils/math/Math.sol\":25862:25873  result += 8 */\n      dup2\n      add\n      swap1\n      pop\n        /* \"@openzeppelin/contracts/utils/math/Math.sol\":25788:25888  if (value >= 10 ** 8) {... */\n    tag_209:\n        /* \"@openzeppelin/contracts/utils/math/Math.sol\":25914:25921  10 ** 4 */\n      0x2710\n        /* \"@openzeppelin/contracts/utils/math/Math.sol\":25905:25910  value */\n      dup4\n        /* \"@openzeppelin/contracts/utils/math/Math.sol\":25905:25921  value >= 10 ** 4 */\n      lt\n        /* \"@openzeppelin/contracts/utils/math/Math.sol\":25901:26001  if (value >= 10 ** 4) {... */\n      tag_212\n      jumpi\n        /* \"@openzeppelin/contracts/utils/math/Math.sol\":25950:25957  10 ** 4 */\n      0x2710\n        /* \"@openzeppelin/contracts/utils/math/Math.sol\":25941:25957  value /= 10 ** 4 */\n      dup4\n      dup2\n      tag_213\n      jumpi\n      tag_214\n      tag_193\n      jump\t// in\n    tag_214:\n    tag_213:\n      div\n      swap3\n      pop\n        /* \"@openzeppelin/contracts/utils/math/Math.sol\":25985:25986  4 */\n      0x04\n        /* \"@openzeppelin/contracts/utils/math/Math.sol\":25975:25986  result += 4 */\n      dup2\n      add\n      swap1\n      pop\n        /* \"@openzeppelin/contracts/utils/math/Math.sol\":25901:26001  if (value >= 10 ** 4) {... */\n    tag_212:\n        /* \"@openzeppelin/contracts/utils/math/Math.sol\":26027:26034  10 ** 2 */\n      0x64\n        /* \"@openzeppelin/contracts/utils/math/Math.sol\":26018:26023  value */\n      dup4\n        /* \"@openzeppelin/contracts/utils/math/Math.sol\":26018:26034  value >= 10 ** 2 */\n      lt\n        /* \"@openzeppelin/contracts/utils/math/Math.sol\":26014:26114  if (value >= 10 ** 2) {... */\n      tag_215\n      jumpi\n        /* \"@openzeppelin/contracts/utils/math/Math.sol\":26063:26070  10 ** 2 */\n      0x64\n        /* \"@openzeppelin/contracts/utils/math/Math.sol\":26054:26070  value /= 10 ** 2 */\n      dup4\n      dup2\n      tag_216\n      jumpi\n      tag_217\n      tag_193\n      jump\t// in\n    tag_217:\n    tag_216:\n      div\n      swap3\n      pop\n        /* \"@openzeppelin/contracts/utils/math/Math.sol\":26098:26099  2 */\n      0x02\n        /* \"@openzeppelin/contracts/utils/math/Math.sol\":26088:26099  result += 2 */\n      dup2\n      add\n      swap1\n      pop\n        /* \"@openzeppelin/contracts/utils/math/Math.sol\":26014:26114  if (value >= 10 ** 2) {... */\n    tag_215:\n        /* \"@openzeppelin/contracts/utils/math/Math.sol\":26140:26147  10 ** 1 */\n      0x0a\n        /* \"@openzeppelin/contracts/utils/math/Math.sol\":26131:26136  value */\n      dup4\n        /* \"@openzeppelin/contracts/utils/math/Math.sol\":26131:26147  value >= 10 ** 1 */\n      lt\n        /* \"@openzeppelin/contracts/utils/math/Math.sol\":26127:26193  if (value >= 10 ** 1) {... */\n      tag_218\n      jumpi\n        /* \"@openzeppelin/contracts/utils/math/Math.sol\":26177:26178  1 */\n      0x01\n        /* \"@openzeppelin/contracts/utils/math/Math.sol\":26167:26178  result += 1 */\n      dup2\n      add\n      swap1\n      pop\n        /* \"@openzeppelin/contracts/utils/math/Math.sol\":26127:26193  if (value >= 10 ** 1) {... */\n    tag_218:\n        /* \"@openzeppelin/contracts/utils/math/Math.sol\":26219:26225  result */\n      dup1\n        /* \"@openzeppelin/contracts/utils/math/Math.sol\":26212:26225  return result */\n      swap2\n      pop\n      pop\n        /* \"@openzeppelin/contracts/utils/math/Math.sol\":25316:26232  function log10(uint256 value) internal pure returns (uint256) {... */\n      swap2\n      swap1\n      pop\n      jump\t// out\n        /* \"#utility.yul\":7:97   */\n    tag_219:\n        /* \"#utility.yul\":41:48   */\n      0x00\n        /* \"#utility.yul\":84:89   */\n      dup2\n        /* \"#utility.yul\":77:90   */\n      iszero\n        /* \"#utility.yul\":70:91   */\n      iszero\n        /* \"#utility.yul\":59:91   */\n      swap1\n      pop\n        /* \"#utility.yul\":7:97   */\n      swap2\n      swap1\n      pop\n      jump\t// out\n        /* \"#utility.yul\":103:212   */\n    tag_220:\n        /* \"#utility.yul\":184:205   */\n      tag_274\n        /* \"#utility.yul\":199:204   */\n      dup2\n        /* \"#utility.yul\":184:205   */\n      tag_219\n      jump\t// in\n    tag_274:\n        /* \"#utility.yul\":179:182   */\n      dup3\n        /* \"#utility.yul\":172:206   */\n      mstore\n        /* \"#utility.yul\":103:212   */\n      pop\n      pop\n      jump\t// out\n        /* \"#utility.yul\":218:428   */\n    tag_28:\n        /* \"#utility.yul\":305:309   */\n      0x00\n        /* \"#utility.yul\":343:345   */\n      0x20\n        /* \"#utility.yul\":332:341   */\n      dup3\n        /* \"#utility.yul\":328:346   */\n      add\n        /* \"#utility.yul\":320:346   */\n      swap1\n      pop\n        /* \"#utility.yul\":356:421   */\n      tag_276\n        /* \"#utility.yul\":418:419   */\n      0x00\n        /* \"#utility.yul\":407:416   */\n      dup4\n        /* \"#utility.yul\":403:420   */\n      add\n        /* \"#utility.yul\":394:400   */\n      dup5\n        /* \"#utility.yul\":356:421   */\n      tag_220\n      jump\t// in\n    tag_276:\n        /* \"#utility.yul\":218:428   */\n      swap3\n      swap2\n      pop\n      pop\n      jump\t// out\n        /* \"#utility.yul\":434:511   */\n    tag_221:\n        /* \"#utility.yul\":471:478   */\n      0x00\n        /* \"#utility.yul\":500:505   */\n      dup2\n        /* \"#utility.yul\":489:505   */\n      swap1\n      pop\n        /* \"#utility.yul\":434:511   */\n      swap2\n      swap1\n      pop\n      jump\t// out\n        /* \"#utility.yul\":517:635   */\n    tag_222:\n        /* \"#utility.yul\":604:628   */\n      tag_279\n        /* \"#utility.yul\":622:627   */\n      dup2\n        /* \"#utility.yul\":604:628   */\n      tag_221\n      jump\t// in\n    tag_279:\n        /* \"#utility.yul\":599:602   */\n      dup3\n        /* \"#utility.yul\":592:629   */\n      mstore\n        /* \"#utility.yul\":517:635   */\n      pop\n      pop\n      jump\t// out\n        /* \"#utility.yul\":641:863   */\n    tag_33:\n        /* \"#utility.yul\":734:738   */\n      0x00\n        /* \"#utility.yul\":772:774   */\n      0x20\n        /* \"#utility.yul\":761:770   */\n      dup3\n        /* \"#utility.yul\":757:775   */\n      add\n        /* \"#utility.yul\":749:775   */\n      swap1\n      pop\n        /* \"#utility.yul\":785:856   */\n      tag_281\n        /* \"#utility.yul\":853:854   */\n      0x00\n        /* \"#utility.yul\":842:851   */\n      dup4\n        /* \"#utility.yul\":838:855   */\n      add\n        /* \"#utility.yul\":829:835   */\n      dup5\n        /* \"#utility.yul\":785:856   */\n      tag_222\n      jump\t// in\n    tag_281:\n        /* \"#utility.yul\":641:863   */\n      swap3\n      swap2\n      pop\n      pop\n      jump\t// out\n        /* \"#utility.yul\":869:968   */\n    tag_223:\n        /* \"#utility.yul\":921:927   */\n      0x00\n        /* \"#utility.yul\":955:960   */\n      dup2\n        /* \"#utility.yul\":949:961   */\n      mload\n        /* \"#utility.yul\":939:961   */\n      swap1\n      pop\n        /* \"#utility.yul\":869:968   */\n      swap2\n      swap1\n      pop\n      jump\t// out\n        /* \"#utility.yul\":974:1143   */\n    tag_224:\n        /* \"#utility.yul\":1058:1069   */\n      0x00\n        /* \"#utility.yul\":1092:1098   */\n      dup3\n        /* \"#utility.yul\":1087:1090   */\n      dup3\n        /* \"#utility.yul\":1080:1099   */\n      mstore\n        /* \"#utility.yul\":1132:1136   */\n      0x20\n        /* \"#utility.yul\":1127:1130   */\n      dup3\n        /* \"#utility.yul\":1123:1137   */\n      add\n        /* \"#utility.yul\":1108:1137   */\n      swap1\n      pop\n        /* \"#utility.yul\":974:1143   */\n      swap3\n      swap2\n      pop\n      pop\n      jump\t// out\n        /* \"#utility.yul\":1149:1288   */\n    tag_225:\n        /* \"#utility.yul\":1238:1244   */\n      dup3\n        /* \"#utility.yul\":1233:1236   */\n      dup2\n        /* \"#utility.yul\":1228:1231   */\n      dup4\n        /* \"#utility.yul\":1222:1245   */\n      mcopy\n        /* \"#utility.yul\":1279:1280   */\n      0x00\n        /* \"#utility.yul\":1270:1276   */\n      dup4\n        /* \"#utility.yul\":1265:1268   */\n      dup4\n        /* \"#utility.yul\":1261:1277   */\n      add\n        /* \"#utility.yul\":1254:1281   */\n      mstore\n        /* \"#utility.yul\":1149:1288   */\n      pop\n      pop\n      pop\n      jump\t// out\n        /* \"#utility.yul\":1294:1396   */\n    tag_226:\n        /* \"#utility.yul\":1335:1341   */\n      0x00\n        /* \"#utility.yul\":1386:1388   */\n      0x1f\n        /* \"#utility.yul\":1382:1389   */\n      not\n        /* \"#utility.yul\":1377:1379   */\n      0x1f\n        /* \"#utility.yul\":1370:1375   */\n      dup4\n        /* \"#utility.yul\":1366:1380   */\n      add\n        /* \"#utility.yul\":1362:1390   */\n      and\n        /* \"#utility.yul\":1352:1390   */\n      swap1\n      pop\n        /* \"#utility.yul\":1294:1396   */\n      swap2\n      swap1\n      pop\n      jump\t// out\n        /* \"#utility.yul\":1402:1779   */\n    tag_227:\n        /* \"#utility.yul\":1490:1493   */\n      0x00\n        /* \"#utility.yul\":1518:1557   */\n      tag_287\n        /* \"#utility.yul\":1551:1556   */\n      dup3\n        /* \"#utility.yul\":1518:1557   */\n      tag_223\n      jump\t// in\n    tag_287:\n        /* \"#utility.yul\":1573:1644   */\n      tag_288\n        /* \"#utility.yul\":1637:1643   */\n      dup2\n        /* \"#utility.yul\":1632:1635   */\n      dup6\n        /* \"#utility.yul\":1573:1644   */\n      tag_224\n      jump\t// in\n    tag_288:\n        /* \"#utility.yul\":1566:1644   */\n      swap4\n      pop\n        /* \"#utility.yul\":1653:1718   */\n      tag_289\n        /* \"#utility.yul\":1711:1717   */\n      dup2\n        /* \"#utility.yul\":1706:1709   */\n      dup6\n        /* \"#utility.yul\":1699:1703   */\n      0x20\n        /* \"#utility.yul\":1692:1697   */\n      dup7\n        /* \"#utility.yul\":1688:1704   */\n      add\n        /* \"#utility.yul\":1653:1718   */\n      tag_225\n      jump\t// in\n    tag_289:\n        /* \"#utility.yul\":1743:1772   */\n      tag_290\n        /* \"#utility.yul\":1765:1771   */\n      dup2\n        /* \"#utility.yul\":1743:1772   */\n      tag_226\n      jump\t// in\n    tag_290:\n        /* \"#utility.yul\":1738:1741   */\n      dup5\n        /* \"#utility.yul\":1734:1773   */\n      add\n        /* \"#utility.yul\":1727:1773   */\n      swap2\n      pop\n        /* \"#utility.yul\":1494:1779   */\n      pop\n        /* \"#utility.yul\":1402:1779   */\n      swap3\n      swap2\n      pop\n      pop\n      jump\t// out\n        /* \"#utility.yul\":1785:2098   */\n    tag_48:\n        /* \"#utility.yul\":1898:1902   */\n      0x00\n        /* \"#utility.yul\":1936:1938   */\n      0x20\n        /* \"#utility.yul\":1925:1934   */\n      dup3\n        /* \"#utility.yul\":1921:1939   */\n      add\n        /* \"#utility.yul\":1913:1939   */\n      swap1\n      pop\n        /* \"#utility.yul\":1985:1994   */\n      dup2\n        /* \"#utility.yul\":1979:1983   */\n      dup2\n        /* \"#utility.yul\":1975:1995   */\n      sub\n        /* \"#utility.yul\":1971:1972   */\n      0x00\n        /* \"#utility.yul\":1960:1969   */\n      dup4\n        /* \"#utility.yul\":1956:1973   */\n      add\n        /* \"#utility.yul\":1949:1996   */\n      mstore\n        /* \"#utility.yul\":2013:2091   */\n      tag_292\n        /* \"#utility.yul\":2086:2090   */\n      dup2\n        /* \"#utility.yul\":2077:2083   */\n      dup5\n        /* \"#utility.yul\":2013:2091   */\n      tag_227\n      jump\t// in\n    tag_292:\n        /* \"#utility.yul\":2005:2091   */\n      swap1\n      pop\n        /* \"#utility.yul\":1785:2098   */\n      swap3\n      swap2\n      pop\n      pop\n      jump\t// out\n        /* \"#utility.yul\":2104:2230   */\n    tag_228:\n        /* \"#utility.yul\":2141:2148   */\n      0x00\n        /* \"#utility.yul\":2181:2223   */\n      0xffffffffffffffffffffffffffffffffffffffff\n        /* \"#utility.yul\":2174:2179   */\n      dup3\n        /* \"#utility.yul\":2170:2224   */\n      and\n        /* \"#utility.yul\":2159:2224   */\n      swap1\n      pop\n        /* \"#utility.yul\":2104:2230   */\n      swap2\n      swap1\n      pop\n      jump\t// out\n        /* \"#utility.yul\":2236:2332   */\n    tag_229:\n        /* \"#utility.yul\":2273:2280   */\n      0x00\n        /* \"#utility.yul\":2302:2326   */\n      tag_295\n        /* \"#utility.yul\":2320:2325   */\n      dup3\n        /* \"#utility.yul\":2302:2326   */\n      tag_228\n      jump\t// in\n    tag_295:\n        /* \"#utility.yul\":2291:2326   */\n      swap1\n      pop\n        /* \"#utility.yul\":2236:2332   */\n      swap2\n      swap1\n      pop\n      jump\t// out\n        /* \"#utility.yul\":2338:2456   */\n    tag_230:\n        /* \"#utility.yul\":2425:2449   */\n      tag_297\n        /* \"#utility.yul\":2443:2448   */\n      dup2\n        /* \"#utility.yul\":2425:2449   */\n      tag_229\n      jump\t// in\n    tag_297:\n        /* \"#utility.yul\":2420:2423   */\n      dup3\n        /* \"#utility.yul\":2413:2450   */\n      mstore\n        /* \"#utility.yul\":2338:2456   */\n      pop\n      pop\n      jump\t// out\n        /* \"#utility.yul\":2462:2684   */\n    tag_63:\n        /* \"#utility.yul\":2555:2559   */\n      0x00\n        /* \"#utility.yul\":2593:2595   */\n      0x20\n        /* \"#utility.yul\":2582:2591   */\n      dup3\n        /* \"#utility.yul\":2578:2596   */\n      add\n        /* \"#utility.yul\":2570:2596   */\n      swap1\n      pop\n        /* \"#utility.yul\":2606:2677   */\n      tag_299\n        /* \"#utility.yul\":2674:2675   */\n      0x00\n        /* \"#utility.yul\":2663:2672   */\n      dup4\n        /* \"#utility.yul\":2659:2676   */\n      add\n        /* \"#utility.yul\":2650:2656   */\n      dup5\n        /* \"#utility.yul\":2606:2677   */\n      tag_230\n      jump\t// in\n    tag_299:\n        /* \"#utility.yul\":2462:2684   */\n      swap3\n      swap2\n      pop\n      pop\n      jump\t// out\n        /* \"#utility.yul\":2690:2830   */\n    tag_231:\n        /* \"#utility.yul\":2783:2789   */\n      0x00\n        /* \"#utility.yul\":2817:2822   */\n      dup2\n        /* \"#utility.yul\":2811:2823   */\n      mload\n        /* \"#utility.yul\":2801:2823   */\n      swap1\n      pop\n        /* \"#utility.yul\":2690:2830   */\n      swap2\n      swap1\n      pop\n      jump\t// out\n        /* \"#utility.yul\":2836:3046   */\n    tag_232:\n        /* \"#utility.yul\":2961:2972   */\n      0x00\n        /* \"#utility.yul\":2995:3001   */\n      dup3\n        /* \"#utility.yul\":2990:2993   */\n      dup3\n        /* \"#utility.yul\":2983:3002   */\n      mstore\n        /* \"#utility.yul\":3035:3039   */\n      0x20\n        /* \"#utility.yul\":3030:3033   */\n      dup3\n        /* \"#utility.yul\":3026:3040   */\n      add\n        /* \"#utility.yul\":3011:3040   */\n      swap1\n      pop\n        /* \"#utility.yul\":2836:3046   */\n      swap3\n      swap2\n      pop\n      pop\n      jump\t// out\n        /* \"#utility.yul\":3052:3210   */\n    tag_233:\n        /* \"#utility.yul\":3145:3149   */\n      0x00\n        /* \"#utility.yul\":3168:3171   */\n      dup2\n        /* \"#utility.yul\":3160:3171   */\n      swap1\n      pop\n        /* \"#utility.yul\":3198:3202   */\n      0x20\n        /* \"#utility.yul\":3193:3196   */\n      dup3\n        /* \"#utility.yul\":3189:3203   */\n      add\n        /* \"#utility.yul\":3181:3203   */\n      swap1\n      pop\n        /* \"#utility.yul\":3052:3210   */\n      swap2\n      swap1\n      pop\n      jump\t// out\n        /* \"#utility.yul\":3216:3324   */\n    tag_234:\n        /* \"#utility.yul\":3293:3317   */\n      tag_304\n        /* \"#utility.yul\":3311:3316   */\n      dup2\n        /* \"#utility.yul\":3293:3317   */\n      tag_229\n      jump\t// in\n    tag_304:\n        /* \"#utility.yul\":3288:3291   */\n      dup3\n        /* \"#utility.yul\":3281:3318   */\n      mstore\n        /* \"#utility.yul\":3216:3324   */\n      pop\n      pop\n      jump\t// out\n        /* \"#utility.yul\":3330:3438   */\n    tag_235:\n        /* \"#utility.yul\":3407:3431   */\n      tag_306\n        /* \"#utility.yul\":3425:3430   */\n      dup2\n        /* \"#utility.yul\":3407:3431   */\n      tag_221\n      jump\t// in\n    tag_306:\n        /* \"#utility.yul\":3402:3405   */\n      dup3\n        /* \"#utility.yul\":3395:3432   */\n      mstore\n        /* \"#utility.yul\":3330:3438   */\n      pop\n      pop\n      jump\t// out\n        /* \"#utility.yul\":3504:4186   */\n    tag_236:\n        /* \"#utility.yul\":3643:3647   */\n      0x60\n        /* \"#utility.yul\":3638:3641   */\n      dup3\n        /* \"#utility.yul\":3634:3648   */\n      add\n        /* \"#utility.yul\":3732:3736   */\n      0x00\n        /* \"#utility.yul\":3725:3730   */\n      dup3\n        /* \"#utility.yul\":3721:3737   */\n      add\n        /* \"#utility.yul\":3715:3738   */\n      mload\n        /* \"#utility.yul\":3751:3814   */\n      tag_308\n        /* \"#utility.yul\":3808:3812   */\n      0x00\n        /* \"#utility.yul\":3803:3806   */\n      dup6\n        /* \"#utility.yul\":3799:3813   */\n      add\n        /* \"#utility.yul\":3785:3797   */\n      dup3\n        /* \"#utility.yul\":3751:3814   */\n      tag_234\n      jump\t// in\n    tag_308:\n        /* \"#utility.yul\":3658:3824   */\n      pop\n        /* \"#utility.yul\":3908:3912   */\n      0x20\n        /* \"#utility.yul\":3901:3906   */\n      dup3\n        /* \"#utility.yul\":3897:3913   */\n      add\n        /* \"#utility.yul\":3891:3914   */\n      mload\n        /* \"#utility.yul\":3927:3990   */\n      tag_309\n        /* \"#utility.yul\":3984:3988   */\n      0x20\n        /* \"#utility.yul\":3979:3982   */\n      dup6\n        /* \"#utility.yul\":3975:3989   */\n      add\n        /* \"#utility.yul\":3961:3973   */\n      dup3\n        /* \"#utility.yul\":3927:3990   */\n      tag_235\n      jump\t// in\n    tag_309:\n        /* \"#utility.yul\":3834:4000   */\n      pop\n        /* \"#utility.yul\":4087:4091   */\n      0x40\n        /* \"#utility.yul\":4080:4085   */\n      dup3\n        /* \"#utility.yul\":4076:4092   */\n      add\n        /* \"#utility.yul\":4070:4093   */\n      mload\n        /* \"#utility.yul\":4106:4169   */\n      tag_310\n        /* \"#utility.yul\":4163:4167   */\n      0x40\n        /* \"#utility.yul\":4158:4161   */\n      dup6\n        /* \"#utility.yul\":4154:4168   */\n      add\n        /* \"#utility.yul\":4140:4152   */\n      dup3\n        /* \"#utility.yul\":4106:4169   */\n      tag_235\n      jump\t// in\n    tag_310:\n        /* \"#utility.yul\":4010:4179   */\n      pop\n        /* \"#utility.yul\":3612:4186   */\n      pop\n        /* \"#utility.yul\":3504:4186   */\n      pop\n      pop\n      jump\t// out\n        /* \"#utility.yul\":4192:4475   */\n    tag_237:\n        /* \"#utility.yul\":4313:4323   */\n      0x00\n        /* \"#utility.yul\":4334:4432   */\n      tag_312\n        /* \"#utility.yul\":4428:4431   */\n      dup4\n        /* \"#utility.yul\":4420:4426   */\n      dup4\n        /* \"#utility.yul\":4334:4432   */\n      tag_236\n      jump\t// in\n    tag_312:\n        /* \"#utility.yul\":4464:4468   */\n      0x60\n        /* \"#utility.yul\":4459:4462   */\n      dup4\n        /* \"#utility.yul\":4455:4469   */\n      add\n        /* \"#utility.yul\":4441:4469   */\n      swap1\n      pop\n        /* \"#utility.yul\":4192:4475   */\n      swap3\n      swap2\n      pop\n      pop\n      jump\t// out\n        /* \"#utility.yul\":4481:4620   */\n    tag_238:\n        /* \"#utility.yul\":4577:4581   */\n      0x00\n        /* \"#utility.yul\":4609:4613   */\n      0x20\n        /* \"#utility.yul\":4604:4607   */\n      dup3\n        /* \"#utility.yul\":4600:4614   */\n      add\n        /* \"#utility.yul\":4592:4614   */\n      swap1\n      pop\n        /* \"#utility.yul\":4481:4620   */\n      swap2\n      swap1\n      pop\n      jump\t// out\n        /* \"#utility.yul\":4690:5630   */\n    tag_239:\n        /* \"#utility.yul\":4861:4864   */\n      0x00\n        /* \"#utility.yul\":4890:4970   */\n      tag_315\n        /* \"#utility.yul\":4964:4969   */\n      dup3\n        /* \"#utility.yul\":4890:4970   */\n      tag_231\n      jump\t// in\n    tag_315:\n        /* \"#utility.yul\":4986:5098   */\n      tag_316\n        /* \"#utility.yul\":5091:5097   */\n      dup2\n        /* \"#utility.yul\":5086:5089   */\n      dup6\n        /* \"#utility.yul\":4986:5098   */\n      tag_232\n      jump\t// in\n    tag_316:\n        /* \"#utility.yul\":4979:5098   */\n      swap4\n      pop\n        /* \"#utility.yul\":5122:5204   */\n      tag_317\n        /* \"#utility.yul\":5198:5203   */\n      dup4\n        /* \"#utility.yul\":5122:5204   */\n      tag_233\n      jump\t// in\n    tag_317:\n        /* \"#utility.yul\":5227:5234   */\n      dup1\n        /* \"#utility.yul\":5258:5259   */\n      0x00\n        /* \"#utility.yul\":5243:5605   */\n    tag_318:\n        /* \"#utility.yul\":5268:5274   */\n      dup4\n        /* \"#utility.yul\":5265:5266   */\n      dup2\n        /* \"#utility.yul\":5262:5275   */\n      lt\n        /* \"#utility.yul\":5243:5605   */\n      iszero\n      tag_320\n      jumpi\n        /* \"#utility.yul\":5344:5350   */\n      dup2\n        /* \"#utility.yul\":5338:5351   */\n      mload\n        /* \"#utility.yul\":5371:5486   */\n      tag_321\n        /* \"#utility.yul\":5482:5485   */\n      dup9\n        /* \"#utility.yul\":5467:5480   */\n      dup3\n        /* \"#utility.yul\":5371:5486   */\n      tag_237\n      jump\t// in\n    tag_321:\n        /* \"#utility.yul\":5364:5486   */\n      swap8\n      pop\n        /* \"#utility.yul\":5509:5595   */\n      tag_322\n        /* \"#utility.yul\":5588:5594   */\n      dup4\n        /* \"#utility.yul\":5509:5595   */\n      tag_238\n      jump\t// in\n    tag_322:\n        /* \"#utility.yul\":5499:5595   */\n      swap3\n      pop\n        /* \"#utility.yul\":5303:5605   */\n      pop\n        /* \"#utility.yul\":5290:5291   */\n      0x01\n        /* \"#utility.yul\":5287:5288   */\n      dup2\n        /* \"#utility.yul\":5283:5292   */\n      add\n        /* \"#utility.yul\":5278:5292   */\n      swap1\n      pop\n        /* \"#utility.yul\":5243:5605   */\n      jump(tag_318)\n    tag_320:\n        /* \"#utility.yul\":5247:5261   */\n      pop\n        /* \"#utility.yul\":5621:5624   */\n      dup6\n        /* \"#utility.yul\":5614:5624   */\n      swap4\n      pop\n        /* \"#utility.yul\":4866:5630   */\n      pop\n      pop\n      pop\n        /* \"#utility.yul\":4690:5630   */\n      swap3\n      swap2\n      pop\n      pop\n      jump\t// out\n        /* \"#utility.yul\":5636:6113   */\n    tag_80:\n        /* \"#utility.yul\":5831:5835   */\n      0x00\n        /* \"#utility.yul\":5869:5871   */\n      0x20\n        /* \"#utility.yul\":5858:5867   */\n      dup3\n        /* \"#utility.yul\":5854:5872   */\n      add\n        /* \"#utility.yul\":5846:5872   */\n      swap1\n      pop\n        /* \"#utility.yul\":5918:5927   */\n      dup2\n        /* \"#utility.yul\":5912:5916   */\n      dup2\n        /* \"#utility.yul\":5908:5928   */\n      sub\n        /* \"#utility.yul\":5904:5905   */\n      0x00\n        /* \"#utility.yul\":5893:5902   */\n      dup4\n        /* \"#utility.yul\":5889:5906   */\n      add\n        /* \"#utility.yul\":5882:5929   */\n      mstore\n        /* \"#utility.yul\":5946:6106   */\n      tag_324\n        /* \"#utility.yul\":6101:6105   */\n      dup2\n        /* \"#utility.yul\":6092:6098   */\n      dup5\n        /* \"#utility.yul\":5946:6106   */\n      tag_239\n      jump\t// in\n    tag_324:\n        /* \"#utility.yul\":5938:6106   */\n      swap1\n      pop\n        /* \"#utility.yul\":5636:6113   */\n      swap3\n      swap2\n      pop\n      pop\n      jump\t// out\n        /* \"#utility.yul\":6200:6317   */\n    tag_241:\n        /* \"#utility.yul\":6309:6310   */\n      0x00\n        /* \"#utility.yul\":6306:6307   */\n      dup1\n        /* \"#utility.yul\":6299:6311   */\n      revert\n        /* \"#utility.yul\":6446:6568   */\n    tag_243:\n        /* \"#utility.yul\":6519:6543   */\n      tag_329\n        /* \"#utility.yul\":6537:6542   */\n      dup2\n        /* \"#utility.yul\":6519:6543   */\n      tag_229\n      jump\t// in\n    tag_329:\n        /* \"#utility.yul\":6512:6517   */\n      dup2\n        /* \"#utility.yul\":6509:6544   */\n      eq\n        /* \"#utility.yul\":6499:6562   */\n      tag_330\n      jumpi\n        /* \"#utility.yul\":6558:6559   */\n      0x00\n        /* \"#utility.yul\":6555:6556   */\n      dup1\n        /* \"#utility.yul\":6548:6560   */\n      revert\n        /* \"#utility.yul\":6499:6562   */\n    tag_330:\n        /* \"#utility.yul\":6446:6568   */\n      pop\n      jump\t// out\n        /* \"#utility.yul\":6574:6713   */\n    tag_244:\n        /* \"#utility.yul\":6620:6625   */\n      0x00\n        /* \"#utility.yul\":6658:6664   */\n      dup2\n        /* \"#utility.yul\":6645:6665   */\n      calldataload\n        /* \"#utility.yul\":6636:6665   */\n      swap1\n      pop\n        /* \"#utility.yul\":6674:6707   */\n      tag_332\n        /* \"#utility.yul\":6701:6706   */\n      dup2\n        /* \"#utility.yul\":6674:6707   */\n      tag_243\n      jump\t// in\n    tag_332:\n        /* \"#utility.yul\":6574:6713   */\n      swap3\n      swap2\n      pop\n      pop\n      jump\t// out\n        /* \"#utility.yul\":6719:7048   */\n    tag_87:\n        /* \"#utility.yul\":6778:6784   */\n      0x00\n        /* \"#utility.yul\":6827:6829   */\n      0x20\n        /* \"#utility.yul\":6815:6824   */\n      dup3\n        /* \"#utility.yul\":6806:6813   */\n      dup5\n        /* \"#utility.yul\":6802:6825   */\n      sub\n        /* \"#utility.yul\":6798:6830   */\n      slt\n        /* \"#utility.yul\":6795:6914   */\n      iszero\n      tag_334\n      jumpi\n        /* \"#utility.yul\":6833:6912   */\n      tag_335\n      tag_241\n      jump\t// in\n    tag_335:\n        /* \"#utility.yul\":6795:6914   */\n    tag_334:\n        /* \"#utility.yul\":6953:6954   */\n      0x00\n        /* \"#utility.yul\":6978:7031   */\n      tag_336\n        /* \"#utility.yul\":7023:7030   */\n      dup5\n        /* \"#utility.yul\":7014:7020   */\n      dup3\n        /* \"#utility.yul\":7003:7012   */\n      dup6\n        /* \"#utility.yul\":6999:7021   */\n      add\n        /* \"#utility.yul\":6978:7031   */\n      tag_244\n      jump\t// in\n    tag_336:\n        /* \"#utility.yul\":6968:7031   */\n      swap2\n      pop\n        /* \"#utility.yul\":6924:7041   */\n      pop\n        /* \"#utility.yul\":6719:7048   */\n      swap3\n      swap2\n      pop\n      pop\n      jump\t// out\n        /* \"#utility.yul\":7054:7234   */\n    tag_245:\n        /* \"#utility.yul\":7194:7226   */\n      0x5468652061756374696f6e20686173206e6f7420656e646564207965742e0000\n        /* \"#utility.yul\":7190:7191   */\n      0x00\n        /* \"#utility.yul\":7182:7188   */\n      dup3\n        /* \"#utility.yul\":7178:7192   */\n      add\n        /* \"#utility.yul\":7171:7227   */\n      mstore\n        /* \"#utility.yul\":7054:7234   */\n      pop\n      jump\t// out\n        /* \"#utility.yul\":7240:7606   */\n    tag_246:\n        /* \"#utility.yul\":7382:7385   */\n      0x00\n        /* \"#utility.yul\":7403:7470   */\n      tag_339\n        /* \"#utility.yul\":7467:7469   */\n      0x1e\n        /* \"#utility.yul\":7462:7465   */\n      dup4\n        /* \"#utility.yul\":7403:7470   */\n      tag_224\n      jump\t// in\n    tag_339:\n        /* \"#utility.yul\":7396:7470   */\n      swap2\n      pop\n        /* \"#utility.yul\":7479:7572   */\n      tag_340\n        /* \"#utility.yul\":7568:7571   */\n      dup3\n        /* \"#utility.yul\":7479:7572   */\n      tag_245\n      jump\t// in\n    tag_340:\n        /* \"#utility.yul\":7597:7599   */\n      0x20\n        /* \"#utility.yul\":7592:7595   */\n      dup3\n        /* \"#utility.yul\":7588:7600   */\n      add\n        /* \"#utility.yul\":7581:7600   */\n      swap1\n      pop\n        /* \"#utility.yul\":7240:7606   */\n      swap2\n      swap1\n      pop\n      jump\t// out\n        /* \"#utility.yul\":7612:8031   */\n    tag_104:\n        /* \"#utility.yul\":7778:7782   */\n      0x00\n        /* \"#utility.yul\":7816:7818   */\n      0x20\n        /* \"#utility.yul\":7805:7814   */\n      dup3\n        /* \"#utility.yul\":7801:7819   */\n      add\n        /* \"#utility.yul\":7793:7819   */\n      swap1\n      pop\n        /* \"#utility.yul\":7865:7874   */\n      dup2\n        /* \"#utility.yul\":7859:7863   */\n      dup2\n        /* \"#utility.yul\":7855:7875   */\n      sub\n        /* \"#utility.yul\":7851:7852   */\n      0x00\n        /* \"#utility.yul\":7840:7849   */\n      dup4\n        /* \"#utility.yul\":7836:7853   */\n      add\n        /* \"#utility.yul\":7829:7876   */\n      mstore\n        /* \"#utility.yul\":7893:8024   */\n      tag_342\n        /* \"#utility.yul\":8019:8023   */\n      dup2\n        /* \"#utility.yul\":7893:8024   */\n      tag_246\n      jump\t// in\n    tag_342:\n        /* \"#utility.yul\":7885:8024   */\n      swap1\n      pop\n        /* \"#utility.yul\":7612:8031   */\n      swap2\n      swap1\n      pop\n      jump\t// out\n        /* \"#utility.yul\":8037:8212   */\n    tag_247:\n        /* \"#utility.yul\":8177:8204   */\n      0x5468652077696e6e65722063616e6e6f7420726566756e642e00000000000000\n        /* \"#utility.yul\":8173:8174   */\n      0x00\n        /* \"#utility.yul\":8165:8171   */\n      dup3\n        /* \"#utility.yul\":8161:8175   */\n      add\n        /* \"#utility.yul\":8154:8205   */\n      mstore\n        /* \"#utility.yul\":8037:8212   */\n      pop\n      jump\t// out\n        /* \"#utility.yul\":8218:8584   */\n    tag_248:\n        /* \"#utility.yul\":8360:8363   */\n      0x00\n        /* \"#utility.yul\":8381:8448   */\n      tag_345\n        /* \"#utility.yul\":8445:8447   */\n      0x19\n        /* \"#utility.yul\":8440:8443   */\n      dup4\n        /* \"#utility.yul\":8381:8448   */\n      tag_224\n      jump\t// in\n    tag_345:\n        /* \"#utility.yul\":8374:8448   */\n      swap2\n      pop\n        /* \"#utility.yul\":8457:8550   */\n      tag_346\n        /* \"#utility.yul\":8546:8549   */\n      dup3\n        /* \"#utility.yul\":8457:8550   */\n      tag_247\n      jump\t// in\n    tag_346:\n        /* \"#utility.yul\":8575:8577   */\n      0x20\n        /* \"#utility.yul\":8570:8573   */\n      dup3\n        /* \"#utility.yul\":8566:8578   */\n      add\n        /* \"#utility.yul\":8559:8578   */\n      swap1\n      pop\n        /* \"#utility.yul\":8218:8584   */\n      swap2\n      swap1\n      pop\n      jump\t// out\n        /* \"#utility.yul\":8590:9009   */\n    tag_107:\n        /* \"#utility.yul\":8756:8760   */\n      0x00\n        /* \"#utility.yul\":8794:8796   */\n      0x20\n        /* \"#utility.yul\":8783:8792   */\n      dup3\n        /* \"#utility.yul\":8779:8797   */\n      add\n        /* \"#utility.yul\":8771:8797   */\n      swap1\n      pop\n        /* \"#utility.yul\":8843:8852   */\n      dup2\n        /* \"#utility.yul\":8837:8841   */\n      dup2\n        /* \"#utility.yul\":8833:8853   */\n      sub\n        /* \"#utility.yul\":8829:8830   */\n      0x00\n        /* \"#utility.yul\":8818:8827   */\n      dup4\n        /* \"#utility.yul\":8814:8831   */\n      add\n        /* \"#utility.yul\":8807:8854   */\n      mstore\n        /* \"#utility.yul\":8871:9002   */\n      tag_348\n        /* \"#utility.yul\":8997:9001   */\n      dup2\n        /* \"#utility.yul\":8871:9002   */\n      tag_248\n      jump\t// in\n    tag_348:\n        /* \"#utility.yul\":8863:9002   */\n      swap1\n      pop\n        /* \"#utility.yul\":8590:9009   */\n      swap2\n      swap1\n      pop\n      jump\t// out\n        /* \"#utility.yul\":9015:9188   */\n    tag_249:\n        /* \"#utility.yul\":9155:9180   */\n      0x596f7520617265206e6f74207468652073656c6c65722e000000000000000000\n        /* \"#utility.yul\":9151:9152   */\n      0x00\n        /* \"#utility.yul\":9143:9149   */\n      dup3\n        /* \"#utility.yul\":9139:9153   */\n      add\n        /* \"#utility.yul\":9132:9181   */\n      mstore\n        /* \"#utility.yul\":9015:9188   */\n      pop\n      jump\t// out\n        /* \"#utility.yul\":9194:9560   */\n    tag_250:\n        /* \"#utility.yul\":9336:9339   */\n      0x00\n        /* \"#utility.yul\":9357:9424   */\n      tag_351\n        /* \"#utility.yul\":9421:9423   */\n      0x17\n        /* \"#utility.yul\":9416:9419   */\n      dup4\n        /* \"#utility.yul\":9357:9424   */\n      tag_224\n      jump\t// in\n    tag_351:\n        /* \"#utility.yul\":9350:9424   */\n      swap2\n      pop\n        /* \"#utility.yul\":9433:9526   */\n      tag_352\n        /* \"#utility.yul\":9522:9525   */\n      dup3\n        /* \"#utility.yul\":9433:9526   */\n      tag_249\n      jump\t// in\n    tag_352:\n        /* \"#utility.yul\":9551:9553   */\n      0x20\n        /* \"#utility.yul\":9546:9549   */\n      dup3\n        /* \"#utility.yul\":9542:9554   */\n      add\n        /* \"#utility.yul\":9535:9554   */\n      swap1\n      pop\n        /* \"#utility.yul\":9194:9560   */\n      swap2\n      swap1\n      pop\n      jump\t// out\n        /* \"#utility.yul\":9566:9985   */\n    tag_113:\n        /* \"#utility.yul\":9732:9736   */\n      0x00\n        /* \"#utility.yul\":9770:9772   */\n      0x20\n        /* \"#utility.yul\":9759:9768   */\n      dup3\n        /* \"#utility.yul\":9755:9773   */\n      add\n        /* \"#utility.yul\":9747:9773   */\n      swap1\n      pop\n        /* \"#utility.yul\":9819:9828   */\n      dup2\n        /* \"#utility.yul\":9813:9817   */\n      dup2\n        /* \"#utility.yul\":9809:9829   */\n      sub\n        /* \"#utility.yul\":9805:9806   */\n      0x00\n        /* \"#utility.yul\":9794:9803   */\n      dup4\n        /* \"#utility.yul\":9790:9807   */\n      add\n        /* \"#utility.yul\":9783:9830   */\n      mstore\n        /* \"#utility.yul\":9847:9978   */\n      tag_354\n        /* \"#utility.yul\":9973:9977   */\n      dup2\n        /* \"#utility.yul\":9847:9978   */\n      tag_250\n      jump\t// in\n    tag_354:\n        /* \"#utility.yul\":9839:9978   */\n      swap1\n      pop\n        /* \"#utility.yul\":9566:9985   */\n      swap2\n      swap1\n      pop\n      jump\t// out\n        /* \"#utility.yul\":9991:10173   */\n    tag_251:\n        /* \"#utility.yul\":10131:10165   */\n      0x5468652061756374696f6e20686173206e6f742073746172746564207965742e\n        /* \"#utility.yul\":10127:10128   */\n      0x00\n        /* \"#utility.yul\":10119:10125   */\n      dup3\n        /* \"#utility.yul\":10115:10129   */\n      add\n        /* \"#utility.yul\":10108:10166   */\n      mstore\n        /* \"#utility.yul\":9991:10173   */\n      pop\n      jump\t// out\n        /* \"#utility.yul\":10179:10545   */\n    tag_252:\n        /* \"#utility.yul\":10321:10324   */\n      0x00\n        /* \"#utility.yul\":10342:10409   */\n      tag_357\n        /* \"#utility.yul\":10406:10408   */\n      0x20\n        /* \"#utility.yul\":10401:10404   */\n      dup4\n        /* \"#utility.yul\":10342:10409   */\n      tag_224\n      jump\t// in\n    tag_357:\n        /* \"#utility.yul\":10335:10409   */\n      swap2\n      pop\n        /* \"#utility.yul\":10418:10511   */\n      tag_358\n        /* \"#utility.yul\":10507:10510   */\n      dup3\n        /* \"#utility.yul\":10418:10511   */\n      tag_251\n      jump\t// in\n    tag_358:\n        /* \"#utility.yul\":10536:10538   */\n      0x20\n        /* \"#utility.yul\":10531:10534   */\n      dup3\n        /* \"#utility.yul\":10527:10539   */\n      add\n        /* \"#utility.yul\":10520:10539   */\n      swap1\n      pop\n        /* \"#utility.yul\":10179:10545   */\n      swap2\n      swap1\n      pop\n      jump\t// out\n        /* \"#utility.yul\":10551:10970   */\n    tag_117:\n        /* \"#utility.yul\":10717:10721   */\n      0x00\n        /* \"#utility.yul\":10755:10757   */\n      0x20\n        /* \"#utility.yul\":10744:10753   */\n      dup3\n        /* \"#utility.yul\":10740:10758   */\n      add\n        /* \"#utility.yul\":10732:10758   */\n      swap1\n      pop\n        /* \"#utility.yul\":10804:10813   */\n      dup2\n        /* \"#utility.yul\":10798:10802   */\n      dup2\n        /* \"#utility.yul\":10794:10814   */\n      sub\n        /* \"#utility.yul\":10790:10791   */\n      0x00\n        /* \"#utility.yul\":10779:10788   */\n      dup4\n        /* \"#utility.yul\":10775:10792   */\n      add\n        /* \"#utility.yul\":10768:10815   */\n      mstore\n        /* \"#utility.yul\":10832:10963   */\n      tag_360\n        /* \"#utility.yul\":10958:10962   */\n      dup2\n        /* \"#utility.yul\":10832:10963   */\n      tag_252\n      jump\t// in\n    tag_360:\n        /* \"#utility.yul\":10824:10963   */\n      swap1\n      pop\n        /* \"#utility.yul\":10551:10970   */\n      swap2\n      swap1\n      pop\n      jump\t// out\n        /* \"#utility.yul\":10976:11156   */\n    tag_253:\n        /* \"#utility.yul\":11116:11148   */\n      0x5468652061756374696f6e2068617320616c726561647920656e6465642e0000\n        /* \"#utility.yul\":11112:11113   */\n      0x00\n        /* \"#utility.yul\":11104:11110   */\n      dup3\n        /* \"#utility.yul\":11100:11114   */\n      add\n        /* \"#utility.yul\":11093:11149   */\n      mstore\n        /* \"#utility.yul\":10976:11156   */\n      pop\n      jump\t// out\n        /* \"#utility.yul\":11162:11528   */\n    tag_254:\n        /* \"#utility.yul\":11304:11307   */\n      0x00\n        /* \"#utility.yul\":11325:11392   */\n      tag_363\n        /* \"#utility.yul\":11389:11391   */\n      0x1e\n        /* \"#utility.yul\":11384:11387   */\n      dup4\n        /* \"#utility.yul\":11325:11392   */\n      tag_224\n      jump\t// in\n    tag_363:\n        /* \"#utility.yul\":11318:11392   */\n      swap2\n      pop\n        /* \"#utility.yul\":11401:11494   */\n      tag_364\n        /* \"#utility.yul\":11490:11493   */\n      dup3\n        /* \"#utility.yul\":11401:11494   */\n      tag_253\n      jump\t// in\n    tag_364:\n        /* \"#utility.yul\":11519:11521   */\n      0x20\n        /* \"#utility.yul\":11514:11517   */\n      dup3\n        /* \"#utility.yul\":11510:11522   */\n      add\n        /* \"#utility.yul\":11503:11522   */\n      swap1\n      pop\n        /* \"#utility.yul\":11162:11528   */\n      swap2\n      swap1\n      pop\n      jump\t// out\n        /* \"#utility.yul\":11534:11953   */\n    tag_120:\n        /* \"#utility.yul\":11700:11704   */\n      0x00\n        /* \"#utility.yul\":11738:11740   */\n      0x20\n        /* \"#utility.yul\":11727:11736   */\n      dup3\n        /* \"#utility.yul\":11723:11741   */\n      add\n        /* \"#utility.yul\":11715:11741   */\n      swap1\n      pop\n        /* \"#utility.yul\":11787:11796   */\n      dup2\n        /* \"#utility.yul\":11781:11785   */\n      dup2\n        /* \"#utility.yul\":11777:11797   */\n      sub\n        /* \"#utility.yul\":11773:11774   */\n      0x00\n        /* \"#utility.yul\":11762:11771   */\n      dup4\n        /* \"#utility.yul\":11758:11775   */\n      add\n        /* \"#utility.yul\":11751:11798   */\n      mstore\n        /* \"#utility.yul\":11815:11946   */\n      tag_366\n        /* \"#utility.yul\":11941:11945   */\n      dup2\n        /* \"#utility.yul\":11815:11946   */\n      tag_254\n      jump\t// in\n    tag_366:\n        /* \"#utility.yul\":11807:11946   */\n      swap1\n      pop\n        /* \"#utility.yul\":11534:11953   */\n      swap2\n      swap1\n      pop\n      jump\t// out\n        /* \"#utility.yul\":11959:12139   */\n    tag_255:\n        /* \"#utility.yul\":12007:12084   */\n      0x4e487b7100000000000000000000000000000000000000000000000000000000\n        /* \"#utility.yul\":12004:12005   */\n      0x00\n        /* \"#utility.yul\":11997:12085   */\n      mstore\n        /* \"#utility.yul\":12104:12108   */\n      0x22\n        /* \"#utility.yul\":12101:12102   */\n      0x04\n        /* \"#utility.yul\":12094:12109   */\n      mstore\n        /* \"#utility.yul\":12128:12132   */\n      0x24\n        /* \"#utility.yul\":12125:12126   */\n      0x00\n        /* \"#utility.yul\":12118:12133   */\n      revert\n        /* \"#utility.yul\":12145:12465   */\n    tag_124:\n        /* \"#utility.yul\":12189:12195   */\n      0x00\n        /* \"#utility.yul\":12226:12227   */\n      0x02\n        /* \"#utility.yul\":12220:12224   */\n      dup3\n        /* \"#utility.yul\":12216:12228   */\n      div\n        /* \"#utility.yul\":12206:12228   */\n      swap1\n      pop\n        /* \"#utility.yul\":12273:12274   */\n      0x01\n        /* \"#utility.yul\":12267:12271   */\n      dup3\n        /* \"#utility.yul\":12263:12275   */\n      and\n        /* \"#utility.yul\":12294:12312   */\n      dup1\n        /* \"#utility.yul\":12284:12365   */\n      tag_369\n      jumpi\n        /* \"#utility.yul\":12350:12354   */\n      0x7f\n        /* \"#utility.yul\":12342:12348   */\n      dup3\n        /* \"#utility.yul\":12338:12355   */\n      and\n        /* \"#utility.yul\":12328:12355   */\n      swap2\n      pop\n        /* \"#utility.yul\":12284:12365   */\n    tag_369:\n        /* \"#utility.yul\":12412:12414   */\n      0x20\n        /* \"#utility.yul\":12404:12410   */\n      dup3\n        /* \"#utility.yul\":12401:12415   */\n      lt\n        /* \"#utility.yul\":12381:12399   */\n      dup2\n        /* \"#utility.yul\":12378:12416   */\n      sub\n        /* \"#utility.yul\":12375:12459   */\n      tag_370\n      jumpi\n        /* \"#utility.yul\":12431:12449   */\n      tag_371\n      tag_255\n      jump\t// in\n    tag_371:\n        /* \"#utility.yul\":12375:12459   */\n    tag_370:\n        /* \"#utility.yul\":12196:12465   */\n      pop\n        /* \"#utility.yul\":12145:12465   */\n      swap2\n      swap1\n      pop\n      jump\t// out\n        /* \"#utility.yul\":12471:12648   */\n    tag_256:\n        /* \"#utility.yul\":12611:12640   */\n      0x5468652061756374696f6e20686173206265656e20656e6465642e0000000000\n        /* \"#utility.yul\":12607:12608   */\n      0x00\n        /* \"#utility.yul\":12599:12605   */\n      dup3\n        /* \"#utility.yul\":12595:12609   */\n      add\n        /* \"#utility.yul\":12588:12641   */\n      mstore\n        /* \"#utility.yul\":12471:12648   */\n      pop\n      jump\t// out\n        /* \"#utility.yul\":12654:13020   */\n    tag_257:\n        /* \"#utility.yul\":12796:12799   */\n      0x00\n        /* \"#utility.yul\":12817:12884   */\n      tag_374\n        /* \"#utility.yul\":12881:12883   */\n      0x1b\n        /* \"#utility.yul\":12876:12879   */\n      dup4\n        /* \"#utility.yul\":12817:12884   */\n      tag_224\n      jump\t// in\n    tag_374:\n        /* \"#utility.yul\":12810:12884   */\n      swap2\n      pop\n        /* \"#utility.yul\":12893:12986   */\n      tag_375\n        /* \"#utility.yul\":12982:12985   */\n      dup3\n        /* \"#utility.yul\":12893:12986   */\n      tag_256\n      jump\t// in\n    tag_375:\n        /* \"#utility.yul\":13011:13013   */\n      0x20\n        /* \"#utility.yul\":13006:13009   */\n      dup3\n        /* \"#utility.yul\":13002:13014   */\n      add\n        /* \"#utility.yul\":12995:13014   */\n      swap1\n      pop\n        /* \"#utility.yul\":12654:13020   */\n      swap2\n      swap1\n      pop\n      jump\t// out\n        /* \"#utility.yul\":13026:13445   */\n    tag_132:\n        /* \"#utility.yul\":13192:13196   */\n      0x00\n        /* \"#utility.yul\":13230:13232   */\n      0x20\n        /* \"#utility.yul\":13219:13228   */\n      dup3\n        /* \"#utility.yul\":13215:13233   */\n      add\n        /* \"#utility.yul\":13207:13233   */\n      swap1\n      pop\n        /* \"#utility.yul\":13279:13288   */\n      dup2\n        /* \"#utility.yul\":13273:13277   */\n      dup2\n        /* \"#utility.yul\":13269:13289   */\n      sub\n        /* \"#utility.yul\":13265:13266   */\n      0x00\n        /* \"#utility.yul\":13254:13263   */\n      dup4\n        /* \"#utility.yul\":13250:13267   */\n      add\n        /* \"#utility.yul\":13243:13290   */\n      mstore\n        /* \"#utility.yul\":13307:13438   */\n      tag_377\n        /* \"#utility.yul\":13433:13437   */\n      dup2\n        /* \"#utility.yul\":13307:13438   */\n      tag_257\n      jump\t// in\n    tag_377:\n        /* \"#utility.yul\":13299:13438   */\n      swap1\n      pop\n        /* \"#utility.yul\":13026:13445   */\n      swap2\n      swap1\n      pop\n      jump\t// out\n        /* \"#utility.yul\":13451:13625   */\n    tag_258:\n        /* \"#utility.yul\":13591:13617   */\n      0x596f752068617665206e6f207065726d697373696f6e732e0000000000000000\n        /* \"#utility.yul\":13587:13588   */\n      0x00\n        /* \"#utility.yul\":13579:13585   */\n      dup3\n        /* \"#utility.yul\":13575:13589   */\n      add\n        /* \"#utility.yul\":13568:13618   */\n      mstore\n        /* \"#utility.yul\":13451:13625   */\n      pop\n      jump\t// out\n        /* \"#utility.yul\":13631:13997   */\n    tag_259:\n        /* \"#utility.yul\":13773:13776   */\n      0x00\n        /* \"#utility.yul\":13794:13861   */\n      tag_380\n        /* \"#utility.yul\":13858:13860   */\n      0x18\n        /* \"#utility.yul\":13853:13856   */\n      dup4\n        /* \"#utility.yul\":13794:13861   */\n      tag_224\n      jump\t// in\n    tag_380:\n        /* \"#utility.yul\":13787:13861   */\n      swap2\n      pop\n        /* \"#utility.yul\":13870:13963   */\n      tag_381\n        /* \"#utility.yul\":13959:13962   */\n      dup3\n        /* \"#utility.yul\":13870:13963   */\n      tag_258\n      jump\t// in\n    tag_381:\n        /* \"#utility.yul\":13988:13990   */\n      0x20\n        /* \"#utility.yul\":13983:13986   */\n      dup3\n        /* \"#utility.yul\":13979:13991   */\n      add\n        /* \"#utility.yul\":13972:13991   */\n      swap1\n      pop\n        /* \"#utility.yul\":13631:13997   */\n      swap2\n      swap1\n      pop\n      jump\t// out\n        /* \"#utility.yul\":14003:14422   */\n    tag_135:\n        /* \"#utility.yul\":14169:14173   */\n      0x00\n        /* \"#utility.yul\":14207:14209   */\n      0x20\n        /* \"#utility.yul\":14196:14205   */\n      dup3\n        /* \"#utility.yul\":14192:14210   */\n      add\n        /* \"#utility.yul\":14184:14210   */\n      swap1\n      pop\n        /* \"#utility.yul\":14256:14265   */\n      dup2\n        /* \"#utility.yul\":14250:14254   */\n      dup2\n        /* \"#utility.yul\":14246:14266   */\n      sub\n        /* \"#utility.yul\":14242:14243   */\n      0x00\n        /* \"#utility.yul\":14231:14240   */\n      dup4\n        /* \"#utility.yul\":14227:14244   */\n      add\n        /* \"#utility.yul\":14220:14267   */\n      mstore\n        /* \"#utility.yul\":14284:14415   */\n      tag_383\n        /* \"#utility.yul\":14410:14414   */\n      dup2\n        /* \"#utility.yul\":14284:14415   */\n      tag_259\n      jump\t// in\n    tag_383:\n        /* \"#utility.yul\":14276:14415   */\n      swap1\n      pop\n        /* \"#utility.yul\":14003:14422   */\n      swap2\n      swap1\n      pop\n      jump\t// out\n        /* \"#utility.yul\":14428:14608   */\n    tag_260:\n        /* \"#utility.yul\":14476:14553   */\n      0x4e487b7100000000000000000000000000000000000000000000000000000000\n        /* \"#utility.yul\":14473:14474   */\n      0x00\n        /* \"#utility.yul\":14466:14554   */\n      mstore\n        /* \"#utility.yul\":14573:14577   */\n      0x11\n        /* \"#utility.yul\":14570:14571   */\n      0x04\n        /* \"#utility.yul\":14563:14578   */\n      mstore\n        /* \"#utility.yul\":14597:14601   */\n      0x24\n        /* \"#utility.yul\":14594:14595   */\n      0x00\n        /* \"#utility.yul\":14587:14602   */\n      revert\n        /* \"#utility.yul\":14614:14805   */\n    tag_137:\n        /* \"#utility.yul\":14654:14657   */\n      0x00\n        /* \"#utility.yul\":14673:14693   */\n      tag_386\n        /* \"#utility.yul\":14691:14692   */\n      dup3\n        /* \"#utility.yul\":14673:14693   */\n      tag_221\n      jump\t// in\n    tag_386:\n        /* \"#utility.yul\":14668:14693   */\n      swap2\n      pop\n        /* \"#utility.yul\":14707:14727   */\n      tag_387\n        /* \"#utility.yul\":14725:14726   */\n      dup4\n        /* \"#utility.yul\":14707:14727   */\n      tag_221\n      jump\t// in\n    tag_387:\n        /* \"#utility.yul\":14702:14727   */\n      swap3\n      pop\n        /* \"#utility.yul\":14750:14751   */\n      dup3\n        /* \"#utility.yul\":14747:14748   */\n      dup3\n        /* \"#utility.yul\":14743:14752   */\n      add\n        /* \"#utility.yul\":14736:14752   */\n      swap1\n      pop\n        /* \"#utility.yul\":14771:14774   */\n      dup1\n        /* \"#utility.yul\":14768:14769   */\n      dup3\n        /* \"#utility.yul\":14765:14775   */\n      gt\n        /* \"#utility.yul\":14762:14798   */\n      iszero\n      tag_388\n      jumpi\n        /* \"#utility.yul\":14778:14796   */\n      tag_389\n      tag_260\n      jump\t// in\n    tag_389:\n        /* \"#utility.yul\":14762:14798   */\n    tag_388:\n        /* \"#utility.yul\":14614:14805   */\n      swap3\n      swap2\n      pop\n      pop\n      jump\t// out\n        /* \"#utility.yul\":14811:14991   */\n    tag_193:\n        /* \"#utility.yul\":14859:14936   */\n      0x4e487b7100000000000000000000000000000000000000000000000000000000\n        /* \"#utility.yul\":14856:14857   */\n      0x00\n        /* \"#utility.yul\":14849:14937   */\n      mstore\n        /* \"#utility.yul\":14956:14960   */\n      0x12\n        /* \"#utility.yul\":14953:14954   */\n      0x04\n        /* \"#utility.yul\":14946:14961   */\n      mstore\n        /* \"#utility.yul\":14980:14984   */\n      0x24\n        /* \"#utility.yul\":14977:14978   */\n      0x00\n        /* \"#utility.yul\":14970:14985   */\n      revert\n        /* \"#utility.yul\":14997:15182   */\n    tag_141:\n        /* \"#utility.yul\":15037:15038   */\n      0x00\n        /* \"#utility.yul\":15054:15074   */\n      tag_392\n        /* \"#utility.yul\":15072:15073   */\n      dup3\n        /* \"#utility.yul\":15054:15074   */\n      tag_221\n      jump\t// in\n    tag_392:\n        /* \"#utility.yul\":15049:15074   */\n      swap2\n      pop\n        /* \"#utility.yul\":15088:15108   */\n      tag_393\n        /* \"#utility.yul\":15106:15107   */\n      dup4\n        /* \"#utility.yul\":15088:15108   */\n      tag_221\n      jump\t// in\n    tag_393:\n        /* \"#utility.yul\":15083:15108   */\n      swap3\n      pop\n        /* \"#utility.yul\":15127:15128   */\n      dup3\n        /* \"#utility.yul\":15117:15152   */\n      tag_394\n      jumpi\n        /* \"#utility.yul\":15132:15150   */\n      tag_395\n      tag_193\n      jump\t// in\n    tag_395:\n        /* \"#utility.yul\":15117:15152   */\n    tag_394:\n        /* \"#utility.yul\":15174:15175   */\n      dup3\n        /* \"#utility.yul\":15171:15172   */\n      dup3\n        /* \"#utility.yul\":15167:15176   */\n      div\n        /* \"#utility.yul\":15162:15176   */\n      swap1\n      pop\n        /* \"#utility.yul\":14997:15182   */\n      swap3\n      swap2\n      pop\n      pop\n      jump\t// out\n        /* \"#utility.yul\":15188:15336   */\n    tag_261:\n        /* \"#utility.yul\":15290:15301   */\n      0x00\n        /* \"#utility.yul\":15327:15330   */\n      dup2\n        /* \"#utility.yul\":15312:15330   */\n      swap1\n      pop\n        /* \"#utility.yul\":15188:15336   */\n      swap3\n      swap2\n      pop\n      pop\n      jump\t// out\n        /* \"#utility.yul\":15342:15570   */\n    tag_262:\n        /* \"#utility.yul\":15482:15516   */\n      0x4e6f7420656e6f7567682065746865722e2043757272656e7420636f73742070\n        /* \"#utility.yul\":15478:15479   */\n      0x00\n        /* \"#utility.yul\":15470:15476   */\n      dup3\n        /* \"#utility.yul\":15466:15480   */\n      add\n        /* \"#utility.yul\":15459:15517   */\n      mstore\n        /* \"#utility.yul\":15551:15562   */\n      0x6c7573206269643a200000000000000000000000000000000000000000000000\n        /* \"#utility.yul\":15546:15548   */\n      0x20\n        /* \"#utility.yul\":15538:15544   */\n      dup3\n        /* \"#utility.yul\":15534:15549   */\n      add\n        /* \"#utility.yul\":15527:15563   */\n      mstore\n        /* \"#utility.yul\":15342:15570   */\n      pop\n      jump\t// out\n        /* \"#utility.yul\":15576:15978   */\n    tag_263:\n        /* \"#utility.yul\":15736:15739   */\n      0x00\n        /* \"#utility.yul\":15757:15842   */\n      tag_399\n        /* \"#utility.yul\":15839:15841   */\n      0x29\n        /* \"#utility.yul\":15834:15837   */\n      dup4\n        /* \"#utility.yul\":15757:15842   */\n      tag_261\n      jump\t// in\n    tag_399:\n        /* \"#utility.yul\":15750:15842   */\n      swap2\n      pop\n        /* \"#utility.yul\":15851:15944   */\n      tag_400\n        /* \"#utility.yul\":15940:15943   */\n      dup3\n        /* \"#utility.yul\":15851:15944   */\n      tag_262\n      jump\t// in\n    tag_400:\n        /* \"#utility.yul\":15969:15971   */\n      0x29\n        /* \"#utility.yul\":15964:15967   */\n      dup3\n        /* \"#utility.yul\":15960:15972   */\n      add\n        /* \"#utility.yul\":15953:15972   */\n      swap1\n      pop\n        /* \"#utility.yul\":15576:15978   */\n      swap2\n      swap1\n      pop\n      jump\t// out\n        /* \"#utility.yul\":15984:16374   */\n    tag_264:\n        /* \"#utility.yul\":16090:16093   */\n      0x00\n        /* \"#utility.yul\":16118:16157   */\n      tag_402\n        /* \"#utility.yul\":16151:16156   */\n      dup3\n        /* \"#utility.yul\":16118:16157   */\n      tag_223\n      jump\t// in\n    tag_402:\n        /* \"#utility.yul\":16173:16262   */\n      tag_403\n        /* \"#utility.yul\":16255:16261   */\n      dup2\n        /* \"#utility.yul\":16250:16253   */\n      dup6\n        /* \"#utility.yul\":16173:16262   */\n      tag_261\n      jump\t// in\n    tag_403:\n        /* \"#utility.yul\":16166:16262   */\n      swap4\n      pop\n        /* \"#utility.yul\":16271:16336   */\n      tag_404\n        /* \"#utility.yul\":16329:16335   */\n      dup2\n        /* \"#utility.yul\":16324:16327   */\n      dup6\n        /* \"#utility.yul\":16317:16321   */\n      0x20\n        /* \"#utility.yul\":16310:16315   */\n      dup7\n        /* \"#utility.yul\":16306:16322   */\n      add\n        /* \"#utility.yul\":16271:16336   */\n      tag_225\n      jump\t// in\n    tag_404:\n        /* \"#utility.yul\":16361:16367   */\n      dup1\n        /* \"#utility.yul\":16356:16359   */\n      dup5\n        /* \"#utility.yul\":16352:16368   */\n      add\n        /* \"#utility.yul\":16345:16368   */\n      swap2\n      pop\n        /* \"#utility.yul\":16094:16374   */\n      pop\n        /* \"#utility.yul\":15984:16374   */\n      swap3\n      swap2\n      pop\n      pop\n      jump\t// out\n        /* \"#utility.yul\":16380:16921   */\n    tag_144:\n        /* \"#utility.yul\":16613:16616   */\n      0x00\n        /* \"#utility.yul\":16635:16783   */\n      tag_406\n        /* \"#utility.yul\":16779:16782   */\n      dup3\n        /* \"#utility.yul\":16635:16783   */\n      tag_263\n      jump\t// in\n    tag_406:\n        /* \"#utility.yul\":16628:16783   */\n      swap2\n      pop\n        /* \"#utility.yul\":16800:16895   */\n      tag_407\n        /* \"#utility.yul\":16891:16894   */\n      dup3\n        /* \"#utility.yul\":16882:16888   */\n      dup5\n        /* \"#utility.yul\":16800:16895   */\n      tag_264\n      jump\t// in\n    tag_407:\n        /* \"#utility.yul\":16793:16895   */\n      swap2\n      pop\n        /* \"#utility.yul\":16912:16915   */\n      dup2\n        /* \"#utility.yul\":16905:16915   */\n      swap1\n      pop\n        /* \"#utility.yul\":16380:16921   */\n      swap3\n      swap2\n      pop\n      pop\n      jump\t// out\n        /* \"#utility.yul\":16927:17100   */\n    tag_265:\n        /* \"#utility.yul\":17067:17092   */\n      0x596f7520617265206e6f74207468652077696e6e65722e000000000000000000\n        /* \"#utility.yul\":17063:17064   */\n      0x00\n        /* \"#utility.yul\":17055:17061   */\n      dup3\n        /* \"#utility.yul\":17051:17065   */\n      add\n        /* \"#utility.yul\":17044:17093   */\n      mstore\n        /* \"#utility.yul\":16927:17100   */\n      pop\n      jump\t// out\n        /* \"#utility.yul\":17106:17472   */\n    tag_266:\n        /* \"#utility.yul\":17248:17251   */\n      0x00\n        /* \"#utility.yul\":17269:17336   */\n      tag_410\n        /* \"#utility.yul\":17333:17335   */\n      0x17\n        /* \"#utility.yul\":17328:17331   */\n      dup4\n        /* \"#utility.yul\":17269:17336   */\n      tag_224\n      jump\t// in\n    tag_410:\n        /* \"#utility.yul\":17262:17336   */\n      swap2\n      pop\n        /* \"#utility.yul\":17345:17438   */\n      tag_411\n        /* \"#utility.yul\":17434:17437   */\n      dup3\n        /* \"#utility.yul\":17345:17438   */\n      tag_265\n      jump\t// in\n    tag_411:\n        /* \"#utility.yul\":17463:17465   */\n      0x20\n        /* \"#utility.yul\":17458:17461   */\n      dup3\n        /* \"#utility.yul\":17454:17466   */\n      add\n        /* \"#utility.yul\":17447:17466   */\n      swap1\n      pop\n        /* \"#utility.yul\":17106:17472   */\n      swap2\n      swap1\n      pop\n      jump\t// out\n        /* \"#utility.yul\":17478:17897   */\n    tag_155:\n        /* \"#utility.yul\":17644:17648   */\n      0x00\n        /* \"#utility.yul\":17682:17684   */\n      0x20\n        /* \"#utility.yul\":17671:17680   */\n      dup3\n        /* \"#utility.yul\":17667:17685   */\n      add\n        /* \"#utility.yul\":17659:17685   */\n      swap1\n      pop\n        /* \"#utility.yul\":17731:17740   */\n      dup2\n        /* \"#utility.yul\":17725:17729   */\n      dup2\n        /* \"#utility.yul\":17721:17741   */\n      sub\n        /* \"#utility.yul\":17717:17718   */\n      0x00\n        /* \"#utility.yul\":17706:17715   */\n      dup4\n        /* \"#utility.yul\":17702:17719   */\n      add\n        /* \"#utility.yul\":17695:17742   */\n      mstore\n        /* \"#utility.yul\":17759:17890   */\n      tag_413\n        /* \"#utility.yul\":17885:17889   */\n      dup2\n        /* \"#utility.yul\":17759:17890   */\n      tag_266\n      jump\t// in\n    tag_413:\n        /* \"#utility.yul\":17751:17890   */\n      swap1\n      pop\n        /* \"#utility.yul\":17478:17897   */\n      swap2\n      swap1\n      pop\n      jump\t// out\n        /* \"#utility.yul\":17903:18085   */\n    tag_267:\n        /* \"#utility.yul\":18043:18077   */\n      0x5468652061756374696f6e2068617320616c726561647920737461727465642e\n        /* \"#utility.yul\":18039:18040   */\n      0x00\n        /* \"#utility.yul\":18031:18037   */\n      dup3\n        /* \"#utility.yul\":18027:18041   */\n      add\n        /* \"#utility.yul\":18020:18078   */\n      mstore\n        /* \"#utility.yul\":17903:18085   */\n      pop\n      jump\t// out\n        /* \"#utility.yul\":18091:18457   */\n    tag_268:\n        /* \"#utility.yul\":18233:18236   */\n      0x00\n        /* \"#utility.yul\":18254:18321   */\n      tag_416\n        /* \"#utility.yul\":18318:18320   */\n      0x20\n        /* \"#utility.yul\":18313:18316   */\n      dup4\n        /* \"#utility.yul\":18254:18321   */\n      tag_224\n      jump\t// in\n    tag_416:\n        /* \"#utility.yul\":18247:18321   */\n      swap2\n      pop\n        /* \"#utility.yul\":18330:18423   */\n      tag_417\n        /* \"#utility.yul\":18419:18422   */\n      dup3\n        /* \"#utility.yul\":18330:18423   */\n      tag_267\n      jump\t// in\n    tag_417:\n        /* \"#utility.yul\":18448:18450   */\n      0x20\n        /* \"#utility.yul\":18443:18446   */\n      dup3\n        /* \"#utility.yul\":18439:18451   */\n      add\n        /* \"#utility.yul\":18432:18451   */\n      swap1\n      pop\n        /* \"#utility.yul\":18091:18457   */\n      swap2\n      swap1\n      pop\n      jump\t// out\n        /* \"#utility.yul\":18463:18882   */\n    tag_168:\n        /* \"#utility.yul\":18629:18633   */\n      0x00\n        /* \"#utility.yul\":18667:18669   */\n      0x20\n        /* \"#utility.yul\":18656:18665   */\n      dup3\n        /* \"#utility.yul\":18652:18670   */\n      add\n        /* \"#utility.yul\":18644:18670   */\n      swap1\n      pop\n        /* \"#utility.yul\":18716:18725   */\n      dup2\n        /* \"#utility.yul\":18710:18714   */\n      dup2\n        /* \"#utility.yul\":18706:18726   */\n      sub\n        /* \"#utility.yul\":18702:18703   */\n      0x00\n        /* \"#utility.yul\":18691:18700   */\n      dup4\n        /* \"#utility.yul\":18687:18704   */\n      add\n        /* \"#utility.yul\":18680:18727   */\n      mstore\n        /* \"#utility.yul\":18744:18875   */\n      tag_419\n        /* \"#utility.yul\":18870:18874   */\n      dup2\n        /* \"#utility.yul\":18744:18875   */\n      tag_268\n      jump\t// in\n    tag_419:\n        /* \"#utility.yul\":18736:18875   */\n      swap1\n      pop\n        /* \"#utility.yul\":18463:18882   */\n      swap2\n      swap1\n      pop\n      jump\t// out\n        /* \"#utility.yul\":18888:19065   */\n    tag_269:\n        /* \"#utility.yul\":19028:19057   */\n      0x4d6178206c696d697420666f72207061727469636970616e74732e0000000000\n        /* \"#utility.yul\":19024:19025   */\n      0x00\n        /* \"#utility.yul\":19016:19022   */\n      dup3\n        /* \"#utility.yul\":19012:19026   */\n      add\n        /* \"#utility.yul\":19005:19058   */\n      mstore\n        /* \"#utility.yul\":18888:19065   */\n      pop\n      jump\t// out\n        /* \"#utility.yul\":19071:19437   */\n    tag_270:\n        /* \"#utility.yul\":19213:19216   */\n      0x00\n        /* \"#utility.yul\":19234:19301   */\n      tag_422\n        /* \"#utility.yul\":19298:19300   */\n      0x1b\n        /* \"#utility.yul\":19293:19296   */\n      dup4\n        /* \"#utility.yul\":19234:19301   */\n      tag_224\n      jump\t// in\n    tag_422:\n        /* \"#utility.yul\":19227:19301   */\n      swap2\n      pop\n        /* \"#utility.yul\":19310:19403   */\n      tag_423\n        /* \"#utility.yul\":19399:19402   */\n      dup3\n        /* \"#utility.yul\":19310:19403   */\n      tag_269\n      jump\t// in\n    tag_423:\n        /* \"#utility.yul\":19428:19430   */\n      0x20\n        /* \"#utility.yul\":19423:19426   */\n      dup3\n        /* \"#utility.yul\":19419:19431   */\n      add\n        /* \"#utility.yul\":19412:19431   */\n      swap1\n      pop\n        /* \"#utility.yul\":19071:19437   */\n      swap2\n      swap1\n      pop\n      jump\t// out\n        /* \"#utility.yul\":19443:19862   */\n    tag_175:\n        /* \"#utility.yul\":19609:19613   */\n      0x00\n        /* \"#utility.yul\":19647:19649   */\n      0x20\n        /* \"#utility.yul\":19636:19645   */\n      dup3\n        /* \"#utility.yul\":19632:19650   */\n      add\n        /* \"#utility.yul\":19624:19650   */\n      swap1\n      pop\n        /* \"#utility.yul\":19696:19705   */\n      dup2\n        /* \"#utility.yul\":19690:19694   */\n      dup2\n        /* \"#utility.yul\":19686:19706   */\n      sub\n        /* \"#utility.yul\":19682:19683   */\n      0x00\n        /* \"#utility.yul\":19671:19680   */\n      dup4\n        /* \"#utility.yul\":19667:19684   */\n      add\n        /* \"#utility.yul\":19660:19707   */\n      mstore\n        /* \"#utility.yul\":19724:19855   */\n      tag_425\n        /* \"#utility.yul\":19850:19854   */\n      dup2\n        /* \"#utility.yul\":19724:19855   */\n      tag_270\n      jump\t// in\n    tag_425:\n        /* \"#utility.yul\":19716:19855   */\n      swap1\n      pop\n        /* \"#utility.yul\":19443:19862   */\n      swap2\n      swap1\n      pop\n      jump\t// out\n        /* \"#utility.yul\":19868:20048   */\n    tag_187:\n        /* \"#utility.yul\":19916:19993   */\n      0x4e487b7100000000000000000000000000000000000000000000000000000000\n        /* \"#utility.yul\":19913:19914   */\n      0x00\n        /* \"#utility.yul\":19906:19994   */\n      mstore\n        /* \"#utility.yul\":20013:20017   */\n      0x41\n        /* \"#utility.yul\":20010:20011   */\n      0x04\n        /* \"#utility.yul\":20003:20018   */\n      mstore\n        /* \"#utility.yul\":20037:20041   */\n      0x24\n        /* \"#utility.yul\":20034:20035   */\n      0x00\n        /* \"#utility.yul\":20027:20042   */\n      revert\n    stop\n    data_3f3a72287baeabafaf55376bb21d602820b9bc4e8c38516cd64d0d42e962a73e 436f6e67726174756c6174696f6e732120596f7520617265207468652077696e6e65722e204865726520697320796f7572206974656d2e\n\n    auxdata: 0xa264697066735822122043406f74e97290efae7eeb404675d6a38b12b1f37881ac45f90391faa4ec119464736f6c634300081a0033\n}\n",
				"bytecode": {
					"linkReferences": {},
					"object": "60a060405234801561000f575f80fd5b5060405161229938038061229983398181016040528101906100319190610249565b3373ffffffffffffffffffffffffffffffffffffffff1660808173ffffffffffffffffffffffffffffffffffffffff1681525050845f908161007391906104e0565b50670de0b6b3a76400008461008891906105dc565b600381905550600354600581905550670de0b6b3a7640000836100ab91906105dc565b60048190555081600a8190555080600881905550505050505061061d565b5f604051905090565b5f80fd5b5f80fd5b5f80fd5b5f80fd5b5f601f19601f8301169050919050565b7f4e487b71000000000000000000000000000000000000000000000000000000005f52604160045260245ffd5b610128826100e2565b810181811067ffffffffffffffff82111715610147576101466100f2565b5b80604052505050565b5f6101596100c9565b9050610165828261011f565b919050565b5f67ffffffffffffffff821115610184576101836100f2565b5b61018d826100e2565b9050602081019050919050565b8281835e5f83830152505050565b5f6101ba6101b58461016a565b610150565b9050828152602081018484840111156101d6576101d56100de565b5b6101e184828561019a565b509392505050565b5f82601f8301126101fd576101fc6100da565b5b815161020d8482602086016101a8565b91505092915050565b5f819050919050565b61022881610216565b8114610232575f80fd5b50565b5f815190506102438161021f565b92915050565b5f805f805f60a08688031215610262576102616100d2565b5b5f86015167ffffffffffffffff81111561027f5761027e6100d6565b5b61028b888289016101e9565b955050602061029c88828901610235565b94505060406102ad88828901610235565b93505060606102be88828901610235565b92505060806102cf88828901610235565b9150509295509295909350565b5f81519050919050565b7f4e487b71000000000000000000000000000000000000000000000000000000005f52602260045260245ffd5b5f600282049050600182168061032a57607f821691505b60208210810361033d5761033c6102e6565b5b50919050565b5f819050815f5260205f209050919050565b5f6020601f8301049050919050565b5f82821b905092915050565b5f6008830261039f7fffffffffffffffffffffffffffffffffffffffffffffffffffffffffffffffff82610364565b6103a98683610364565b95508019841693508086168417925050509392505050565b5f819050919050565b5f6103e46103df6103da84610216565b6103c1565b610216565b9050919050565b5f819050919050565b6103fd836103ca565b610411610409826103eb565b848454610370565b825550505050565b5f90565b610425610419565b6104308184846103f4565b505050565b5b81811015610453576104485f8261041d565b600181019050610436565b5050565b601f8211156104985761046981610343565b61047284610355565b81016020851015610481578190505b61049561048d85610355565b830182610435565b50505b505050565b5f82821c905092915050565b5f6104b85f198460080261049d565b1980831691505092915050565b5f6104d083836104a9565b9150826002028217905092915050565b6104e9826102dc565b67ffffffffffffffff811115610502576105016100f2565b5b61050c8254610313565b610517828285610457565b5f60209050601f831160018114610548575f8415610536578287015190505b61054085826104c5565b8655506105a7565b601f19841661055686610343565b5f5b8281101561057d57848901518255600182019150602085019450602081019050610558565b8683101561059a5784890151610596601f8916826104a9565b8355505b6001600288020188555050505b505050505050565b7f4e487b71000000000000000000000000000000000000000000000000000000005f52601160045260245ffd5b5f6105e682610216565b91506105f183610216565b92508282026105ff81610216565b91508282048414831517610616576106156105af565b5b5092915050565b608051611c4f61064a5f395f81816105a001528181610ba701528181610c9b0152610df40152611c4f5ff3fe608060405260043610610113575f3560e01c8063b2b98ed21161009f578063d295ebf011610063578063d295ebf01461031b578063d8346cdf14610331578063de4b1e4214610359578063fc4a4a1e14610383578063fc505be9146103ad57610113565b8063b2b98ed214610249578063bca93eba14610273578063cbb12c2d1461029d578063d0b1bfd0146102c7578063d1ee49c2146102f157610113565b80636a7798ee116100e65780636a7798ee146101ab5780636a7a67f0146101c15780636e6452cb146101eb57806385d679f9146101f55780638611e07b1461021f57610113565b80630cbb94e01461011757806338699c7f1461014157806354a8882d1461016b5780635d26862914610195575b5f80fd5b348015610122575f80fd5b5061012b6103d7565b604051610138919061130f565b60405180910390f35b34801561014c575f80fd5b506101556103ea565b6040516101629190611340565b60405180910390f35b348015610176575f80fd5b5061017f6103f0565b60405161018c9190611340565b60405180910390f35b3480156101a0575f80fd5b506101a96103f6565b005b3480156101b6575f80fd5b506101bf61059e565b005b3480156101cc575f80fd5b506101d5610751565b6040516101e291906113c9565b60405180910390f35b6101f36107dc565b005b348015610200575f80fd5b50610209610acb565b60405161021691906113c9565b60405180910390f35b34801561022a575f80fd5b50610233610b7a565b6040516102409190611340565b60405180910390f35b348015610254575f80fd5b5061025d610b80565b60405161026a9190611428565b60405180910390f35b34801561027e575f80fd5b50610287610ba5565b6040516102949190611428565b60405180910390f35b3480156102a8575f80fd5b506102b1610bc9565b6040516102be9190611340565b60405180910390f35b3480156102d2575f80fd5b506102db610bcf565b6040516102e89190611340565b60405180910390f35b3480156102fc575f80fd5b50610305610bd5565b6040516103129190611547565b60405180910390f35b348015610326575f80fd5b5061032f610c99565b005b34801561033c575f80fd5b5061035760048036038101906103529190611595565b610df2565b005b348015610364575f80fd5b5061036d610f37565b60405161037a9190611340565b60405180910390f35b34801561038e575f80fd5b50610397610f3d565b6040516103a49190611340565b60405180910390f35b3480156103b8575f80fd5b506103c1610f43565b6040516103ce919061130f565b60405180910390f35b600660019054906101000a900460ff1681565b60035481565b60055481565b600660019054906101000a900460ff16610445576040517f08c379a000000000000000000000000000000000000000000000000000000000815260040161043c9061160a565b60405180910390fd5b60025f9054906101000a900473ffffffffffffffffffffffffffffffffffffffff1673ffffffffffffffffffffffffffffffffffffffff163373ffffffffffffffffffffffffffffffffffffffff16036104d4576040517f08c379a00000000000000000000000000000000000000000000000000000000081526004016104cb90611672565b60405180910390fd5b5f600d5f3373ffffffffffffffffffffffffffffffffffffffff1673ffffffffffffffffffffffffffffffffffffffff1681526020019081526020015f205490505f600d5f3373ffffffffffffffffffffffffffffffffffffffff1673ffffffffffffffffffffffffffffffffffffffff1681526020019081526020015f20819055503373ffffffffffffffffffffffffffffffffffffffff166108fc8290811502906040515f60405180830381858888f1935050505015801561059a573d5f803e3d5ffd5b5050565b7f000000000000000000000000000000000000000000000000000000000000000073ffffffffffffffffffffffffffffffffffffffff163373ffffffffffffffffffffffffffffffffffffffff161461062c576040517f08c379a0000000000000000000000000000000000000000000000000000000008152600401610623906116da565b60405180910390fd5b60065f9054906101000a900460ff1661067a576040517f08c379a000000000000000000000000000000000000000000000000000000000815260040161067190611742565b60405180910390fd5b600660019054906101000a900460ff16156106ca576040517f08c379a00000000000000000000000000000000000000000000000000000000081526004016106c1906117aa565b60405180910390fd5b6001600660016101000a81548160ff02191690831515021790555060015f9054906101000a900473ffffffffffffffffffffffffffffffffffffffff1660025f6101000a81548173ffffffffffffffffffffffffffffffffffffffff021916908373ffffffffffffffffffffffffffffffffffffffff16021790555061074e610f55565b50565b5f805461075d906117f5565b80601f0160208091040260200160405190810160405280929190818152602001828054610789906117f5565b80156107d45780601f106107ab576101008083540402835291602001916107d4565b820191905f5260205f20905b8154815290600101906020018083116107b757829003601f168201915b505050505081565b600660019054906101000a900460ff161561082c576040517f08c379a00000000000000000000000000000000000000000000000000000000081526004016108239061186f565b60405180910390fd5b60011515600c5f3373ffffffffffffffffffffffffffffffffffffffff1673ffffffffffffffffffffffffffffffffffffffff1681526020019081526020015f205f9054906101000a900460ff161515146108bc576040517f08c379a00000000000000000000000000000000000000000000000000000000081526004016108b3906118d7565b60405180910390fd5b6004546005546108cc9190611922565b34146108f9670de0b6b3a76400006004546005546108ea9190611922565b6108f49190611982565b61103c565b6040516020016109099190611a5c565b60405160208183030381529060405290610959576040517f08c379a000000000000000000000000000000000000000000000000000000000815260040161095091906113c9565b60405180910390fd5b5034600d5f3373ffffffffffffffffffffffffffffffffffffffff1673ffffffffffffffffffffffffffffffffffffffff1681526020019081526020015f205f8282546109a69190611922565b925050819055503360015f6101000a81548173ffffffffffffffffffffffffffffffffffffffff021916908373ffffffffffffffffffffffffffffffffffffffff16021790555060045460055f828254610a009190611922565b9250508190555042600981905550600e60405180606001604052803373ffffffffffffffffffffffffffffffffffffffff16815260200134815260200142815250908060018154018082558091505060019003905f5260205f2090600302015f909190919091505f820151815f015f6101000a81548173ffffffffffffffffffffffffffffffffffffffff021916908373ffffffffffffffffffffffffffffffffffffffff16021790555060208201518160010155604082015181600201555050610ac9611106565b565b606060025f9054906101000a900473ffffffffffffffffffffffffffffffffffffffff1673ffffffffffffffffffffffffffffffffffffffff163373ffffffffffffffffffffffffffffffffffffffff1614610b5c576040517f08c379a0000000000000000000000000000000000000000000000000000000008152600401610b5390611ac7565b60405180910390fd5b604051806060016040528060378152602001611be360379139905090565b60045481565b60025f9054906101000a900473ffffffffffffffffffffffffffffffffffffffff1681565b7f000000000000000000000000000000000000000000000000000000000000000081565b60085481565b600b5481565b6060600e805480602002602001604051908101604052809291908181526020015f905b82821015610c90578382905f5260205f2090600302016040518060600160405290815f82015f9054906101000a900473ffffffffffffffffffffffffffffffffffffffff1673ffffffffffffffffffffffffffffffffffffffff1673ffffffffffffffffffffffffffffffffffffffff1681526020016001820154815260200160028201548152505081526020019060010190610bf8565b50505050905090565b7f000000000000000000000000000000000000000000000000000000000000000073ffffffffffffffffffffffffffffffffffffffff163373ffffffffffffffffffffffffffffffffffffffff1614610d27576040517f08c379a0000000000000000000000000000000000000000000000000000000008152600401610d1e906116da565b60405180910390fd5b600660019054906101000a900460ff1615610d77576040517f08c379a0000000000000000000000000000000000000000000000000000000008152600401610d6e9061186f565b60405180910390fd5b60065f9054906101000a900460ff1615610dc6576040517f08c379a0000000000000000000000000000000000000000000000000000000008152600401610dbd90611b2f565b60405180910390fd5b600160065f6101000a81548160ff02191690831515021790555042600781905550600754600981905550565b7f000000000000000000000000000000000000000000000000000000000000000073ffffffffffffffffffffffffffffffffffffffff163373ffffffffffffffffffffffffffffffffffffffff1614610e80576040517f08c379a0000000000000000000000000000000000000000000000000000000008152600401610e77906116da565b60405180910390fd5b600a54600b5410610ec6576040517f08c379a0000000000000000000000000000000000000000000000000000000008152600401610ebd90611b97565b60405180910390fd5b6001600c5f8373ffffffffffffffffffffffffffffffffffffffff1673ffffffffffffffffffffffffffffffffffffffff1681526020019081526020015f205f6101000a81548160ff0219169083151502179055506001600b5f828254610f2d9190611922565b9250508190555050565b600a5481565b60075481565b60065f9054906101000a900460ff1681565b5f8073ffffffffffffffffffffffffffffffffffffffff1660015f9054906101000a900473ffffffffffffffffffffffffffffffffffffffff1673ffffffffffffffffffffffffffffffffffffffff1614158015610fc05750600660019054906101000a900460ff16155b156110355760015f9054906101000a900473ffffffffffffffffffffffffffffffffffffffff1673ffffffffffffffffffffffffffffffffffffffff166108fc60055490811502906040515f60405180830381858888f1935050505015801561102b573d5f803e3d5ffd5b5060019050611039565b5f90505b90565b60605f600161104a846111a4565b0190505f8167ffffffffffffffff81111561106857611067611bb5565b5b6040519080825280601f01601f19166020018201604052801561109a5781602001600182028036833780820191505090505b5090505f82602001820190505b6001156110fb578080600190039150507f3031323334353637383961626364656600000000000000000000000000000000600a86061a8153600a85816110f0576110ef611955565b5b0494505f85036110a7575b819350505050919050565b6008546009546111169190611922565b42106111a2576001600660016101000a81548160ff02191690831515021790555060015f9054906101000a900473ffffffffffffffffffffffffffffffffffffffff1660025f6101000a81548173ffffffffffffffffffffffffffffffffffffffff021916908373ffffffffffffffffffffffffffffffffffffffff1602179055506111a0610f55565b505b565b5f805f90507a184f03e93ff9f4daa797ed6e38ed64bf6a1f0100000000000000008310611200577a184f03e93ff9f4daa797ed6e38ed64bf6a1f01000000000000000083816111f6576111f5611955565b5b0492506040810190505b6d04ee2d6d415b85acef8100000000831061123d576d04ee2d6d415b85acef8100000000838161123357611232611955565b5b0492506020810190505b662386f26fc10000831061126c57662386f26fc10000838161126257611261611955565b5b0492506010810190505b6305f5e1008310611295576305f5e100838161128b5761128a611955565b5b0492506008810190505b61271083106112ba5761271083816112b0576112af611955565b5b0492506004810190505b606483106112dd57606483816112d3576112d2611955565b5b0492506002810190505b600a83106112ec576001810190505b80915050919050565b5f8115159050919050565b611309816112f5565b82525050565b5f6020820190506113225f830184611300565b92915050565b5f819050919050565b61133a81611328565b82525050565b5f6020820190506113535f830184611331565b92915050565b5f81519050919050565b5f82825260208201905092915050565b8281835e5f83830152505050565b5f601f19601f8301169050919050565b5f61139b82611359565b6113a58185611363565b93506113b5818560208601611373565b6113be81611381565b840191505092915050565b5f6020820190508181035f8301526113e18184611391565b905092915050565b5f73ffffffffffffffffffffffffffffffffffffffff82169050919050565b5f611412826113e9565b9050919050565b61142281611408565b82525050565b5f60208201905061143b5f830184611419565b92915050565b5f81519050919050565b5f82825260208201905092915050565b5f819050602082019050919050565b61147381611408565b82525050565b61148281611328565b82525050565b606082015f82015161149c5f85018261146a565b5060208201516114af6020850182611479565b5060408201516114c26040850182611479565b50505050565b5f6114d38383611488565b60608301905092915050565b5f602082019050919050565b5f6114f582611441565b6114ff818561144b565b935061150a8361145b565b805f5b8381101561153a57815161152188826114c8565b975061152c836114df565b92505060018101905061150d565b5085935050505092915050565b5f6020820190508181035f83015261155f81846114eb565b905092915050565b5f80fd5b61157481611408565b811461157e575f80fd5b50565b5f8135905061158f8161156b565b92915050565b5f602082840312156115aa576115a9611567565b5b5f6115b784828501611581565b91505092915050565b7f5468652061756374696f6e20686173206e6f7420656e646564207965742e00005f82015250565b5f6115f4601e83611363565b91506115ff826115c0565b602082019050919050565b5f6020820190508181035f830152611621816115e8565b9050919050565b7f5468652077696e6e65722063616e6e6f7420726566756e642e000000000000005f82015250565b5f61165c601983611363565b915061166782611628565b602082019050919050565b5f6020820190508181035f83015261168981611650565b9050919050565b7f596f7520617265206e6f74207468652073656c6c65722e0000000000000000005f82015250565b5f6116c4601783611363565b91506116cf82611690565b602082019050919050565b5f6020820190508181035f8301526116f1816116b8565b9050919050565b7f5468652061756374696f6e20686173206e6f742073746172746564207965742e5f82015250565b5f61172c602083611363565b9150611737826116f8565b602082019050919050565b5f6020820190508181035f83015261175981611720565b9050919050565b7f5468652061756374696f6e2068617320616c726561647920656e6465642e00005f82015250565b5f611794601e83611363565b915061179f82611760565b602082019050919050565b5f6020820190508181035f8301526117c181611788565b9050919050565b7f4e487b71000000000000000000000000000000000000000000000000000000005f52602260045260245ffd5b5f600282049050600182168061180c57607f821691505b60208210810361181f5761181e6117c8565b5b50919050565b7f5468652061756374696f6e20686173206265656e20656e6465642e00000000005f82015250565b5f611859601b83611363565b915061186482611825565b602082019050919050565b5f6020820190508181035f8301526118868161184d565b9050919050565b7f596f752068617665206e6f207065726d697373696f6e732e00000000000000005f82015250565b5f6118c1601883611363565b91506118cc8261188d565b602082019050919050565b5f6020820190508181035f8301526118ee816118b5565b9050919050565b7f4e487b71000000000000000000000000000000000000000000000000000000005f52601160045260245ffd5b5f61192c82611328565b915061193783611328565b925082820190508082111561194f5761194e6118f5565b5b92915050565b7f4e487b71000000000000000000000000000000000000000000000000000000005f52601260045260245ffd5b5f61198c82611328565b915061199783611328565b9250826119a7576119a6611955565b5b828204905092915050565b5f81905092915050565b7f4e6f7420656e6f7567682065746865722e2043757272656e7420636f737420705f8201527f6c7573206269643a200000000000000000000000000000000000000000000000602082015250565b5f611a166029836119b2565b9150611a21826119bc565b602982019050919050565b5f611a3682611359565b611a4081856119b2565b9350611a50818560208601611373565b80840191505092915050565b5f611a6682611a0a565b9150611a728284611a2c565b915081905092915050565b7f596f7520617265206e6f74207468652077696e6e65722e0000000000000000005f82015250565b5f611ab1601783611363565b9150611abc82611a7d565b602082019050919050565b5f6020820190508181035f830152611ade81611aa5565b9050919050565b7f5468652061756374696f6e2068617320616c726561647920737461727465642e5f82015250565b5f611b19602083611363565b9150611b2482611ae5565b602082019050919050565b5f6020820190508181035f830152611b4681611b0d565b9050919050565b7f4d6178206c696d697420666f72207061727469636970616e74732e00000000005f82015250565b5f611b81601b83611363565b9150611b8c82611b4d565b602082019050919050565b5f6020820190508181035f830152611bae81611b75565b9050919050565b7f4e487b71000000000000000000000000000000000000000000000000000000005f52604160045260245ffdfe436f6e67726174756c6174696f6e732120596f7520617265207468652077696e6e65722e204865726520697320796f7572206974656d2ea264697066735822122043406f74e97290efae7eeb404675d6a38b12b1f37881ac45f90391faa4ec119464736f6c634300081a0033",
					"opcodes": "PUSH1 0xA0 PUSH1 0x40 MSTORE CALLVALUE DUP1 ISZERO PUSH2 0xF JUMPI PUSH0 DUP1 REVERT JUMPDEST POP PUSH1 0x40 MLOAD PUSH2 0x2299 CODESIZE SUB DUP1 PUSH2 0x2299 DUP4 CODECOPY DUP2 DUP2 ADD PUSH1 0x40 MSTORE DUP2 ADD SWAP1 PUSH2 0x31 SWAP2 SWAP1 PUSH2 0x249 JUMP JUMPDEST CALLER PUSH20 0xFFFFFFFFFFFFFFFFFFFFFFFFFFFFFFFFFFFFFFFF AND PUSH1 0x80 DUP2 PUSH20 0xFFFFFFFFFFFFFFFFFFFFFFFFFFFFFFFFFFFFFFFF AND DUP2 MSTORE POP POP DUP5 PUSH0 SWAP1 DUP2 PUSH2 0x73 SWAP2 SWAP1 PUSH2 0x4E0 JUMP JUMPDEST POP PUSH8 0xDE0B6B3A7640000 DUP5 PUSH2 0x88 SWAP2 SWAP1 PUSH2 0x5DC JUMP JUMPDEST PUSH1 0x3 DUP2 SWAP1 SSTORE POP PUSH1 0x3 SLOAD PUSH1 0x5 DUP2 SWAP1 SSTORE POP PUSH8 0xDE0B6B3A7640000 DUP4 PUSH2 0xAB SWAP2 SWAP1 PUSH2 0x5DC JUMP JUMPDEST PUSH1 0x4 DUP2 SWAP1 SSTORE POP DUP2 PUSH1 0xA DUP2 SWAP1 SSTORE POP DUP1 PUSH1 0x8 DUP2 SWAP1 SSTORE POP POP POP POP POP POP PUSH2 0x61D JUMP JUMPDEST PUSH0 PUSH1 0x40 MLOAD SWAP1 POP SWAP1 JUMP JUMPDEST PUSH0 DUP1 REVERT JUMPDEST PUSH0 DUP1 REVERT JUMPDEST PUSH0 DUP1 REVERT JUMPDEST PUSH0 DUP1 REVERT JUMPDEST PUSH0 PUSH1 0x1F NOT PUSH1 0x1F DUP4 ADD AND SWAP1 POP SWAP2 SWAP1 POP JUMP JUMPDEST PUSH32 0x4E487B7100000000000000000000000000000000000000000000000000000000 PUSH0 MSTORE PUSH1 0x41 PUSH1 0x4 MSTORE PUSH1 0x24 PUSH0 REVERT JUMPDEST PUSH2 0x128 DUP3 PUSH2 0xE2 JUMP JUMPDEST DUP2 ADD DUP2 DUP2 LT PUSH8 0xFFFFFFFFFFFFFFFF DUP3 GT OR ISZERO PUSH2 0x147 JUMPI PUSH2 0x146 PUSH2 0xF2 JUMP JUMPDEST JUMPDEST DUP1 PUSH1 0x40 MSTORE POP POP POP JUMP JUMPDEST PUSH0 PUSH2 0x159 PUSH2 0xC9 JUMP JUMPDEST SWAP1 POP PUSH2 0x165 DUP3 DUP3 PUSH2 0x11F JUMP JUMPDEST SWAP2 SWAP1 POP JUMP JUMPDEST PUSH0 PUSH8 0xFFFFFFFFFFFFFFFF DUP3 GT ISZERO PUSH2 0x184 JUMPI PUSH2 0x183 PUSH2 0xF2 JUMP JUMPDEST JUMPDEST PUSH2 0x18D DUP3 PUSH2 0xE2 JUMP JUMPDEST SWAP1 POP PUSH1 0x20 DUP2 ADD SWAP1 POP SWAP2 SWAP1 POP JUMP JUMPDEST DUP3 DUP2 DUP4 MCOPY PUSH0 DUP4 DUP4 ADD MSTORE POP POP POP JUMP JUMPDEST PUSH0 PUSH2 0x1BA PUSH2 0x1B5 DUP5 PUSH2 0x16A JUMP JUMPDEST PUSH2 0x150 JUMP JUMPDEST SWAP1 POP DUP3 DUP2 MSTORE PUSH1 0x20 DUP2 ADD DUP5 DUP5 DUP5 ADD GT ISZERO PUSH2 0x1D6 JUMPI PUSH2 0x1D5 PUSH2 0xDE JUMP JUMPDEST JUMPDEST PUSH2 0x1E1 DUP5 DUP3 DUP6 PUSH2 0x19A JUMP JUMPDEST POP SWAP4 SWAP3 POP POP POP JUMP JUMPDEST PUSH0 DUP3 PUSH1 0x1F DUP4 ADD SLT PUSH2 0x1FD JUMPI PUSH2 0x1FC PUSH2 0xDA JUMP JUMPDEST JUMPDEST DUP2 MLOAD PUSH2 0x20D DUP5 DUP3 PUSH1 0x20 DUP7 ADD PUSH2 0x1A8 JUMP JUMPDEST SWAP2 POP POP SWAP3 SWAP2 POP POP JUMP JUMPDEST PUSH0 DUP2 SWAP1 POP SWAP2 SWAP1 POP JUMP JUMPDEST PUSH2 0x228 DUP2 PUSH2 0x216 JUMP JUMPDEST DUP2 EQ PUSH2 0x232 JUMPI PUSH0 DUP1 REVERT JUMPDEST POP JUMP JUMPDEST PUSH0 DUP2 MLOAD SWAP1 POP PUSH2 0x243 DUP2 PUSH2 0x21F JUMP JUMPDEST SWAP3 SWAP2 POP POP JUMP JUMPDEST PUSH0 DUP1 PUSH0 DUP1 PUSH0 PUSH1 0xA0 DUP7 DUP9 SUB SLT ISZERO PUSH2 0x262 JUMPI PUSH2 0x261 PUSH2 0xD2 JUMP JUMPDEST JUMPDEST PUSH0 DUP7 ADD MLOAD PUSH8 0xFFFFFFFFFFFFFFFF DUP2 GT ISZERO PUSH2 0x27F JUMPI PUSH2 0x27E PUSH2 0xD6 JUMP JUMPDEST JUMPDEST PUSH2 0x28B DUP9 DUP3 DUP10 ADD PUSH2 0x1E9 JUMP JUMPDEST SWAP6 POP POP PUSH1 0x20 PUSH2 0x29C DUP9 DUP3 DUP10 ADD PUSH2 0x235 JUMP JUMPDEST SWAP5 POP POP PUSH1 0x40 PUSH2 0x2AD DUP9 DUP3 DUP10 ADD PUSH2 0x235 JUMP JUMPDEST SWAP4 POP POP PUSH1 0x60 PUSH2 0x2BE DUP9 DUP3 DUP10 ADD PUSH2 0x235 JUMP JUMPDEST SWAP3 POP POP PUSH1 0x80 PUSH2 0x2CF DUP9 DUP3 DUP10 ADD PUSH2 0x235 JUMP JUMPDEST SWAP2 POP POP SWAP3 SWAP6 POP SWAP3 SWAP6 SWAP1 SWAP4 POP JUMP JUMPDEST PUSH0 DUP2 MLOAD SWAP1 POP SWAP2 SWAP1 POP JUMP JUMPDEST PUSH32 0x4E487B7100000000000000000000000000000000000000000000000000000000 PUSH0 MSTORE PUSH1 0x22 PUSH1 0x4 MSTORE PUSH1 0x24 PUSH0 REVERT JUMPDEST PUSH0 PUSH1 0x2 DUP3 DIV SWAP1 POP PUSH1 0x1 DUP3 AND DUP1 PUSH2 0x32A JUMPI PUSH1 0x7F DUP3 AND SWAP2 POP JUMPDEST PUSH1 0x20 DUP3 LT DUP2 SUB PUSH2 0x33D JUMPI PUSH2 0x33C PUSH2 0x2E6 JUMP JUMPDEST JUMPDEST POP SWAP2 SWAP1 POP JUMP JUMPDEST PUSH0 DUP2 SWAP1 POP DUP2 PUSH0 MSTORE PUSH1 0x20 PUSH0 KECCAK256 SWAP1 POP SWAP2 SWAP1 POP JUMP JUMPDEST PUSH0 PUSH1 0x20 PUSH1 0x1F DUP4 ADD DIV SWAP1 POP SWAP2 SWAP1 POP JUMP JUMPDEST PUSH0 DUP3 DUP3 SHL SWAP1 POP SWAP3 SWAP2 POP POP JUMP JUMPDEST PUSH0 PUSH1 0x8 DUP4 MUL PUSH2 0x39F PUSH32 0xFFFFFFFFFFFFFFFFFFFFFFFFFFFFFFFFFFFFFFFFFFFFFFFFFFFFFFFFFFFFFFFF DUP3 PUSH2 0x364 JUMP JUMPDEST PUSH2 0x3A9 DUP7 DUP4 PUSH2 0x364 JUMP JUMPDEST SWAP6 POP DUP1 NOT DUP5 AND SWAP4 POP DUP1 DUP7 AND DUP5 OR SWAP3 POP POP POP SWAP4 SWAP3 POP POP POP JUMP JUMPDEST PUSH0 DUP2 SWAP1 POP SWAP2 SWAP1 POP JUMP JUMPDEST PUSH0 PUSH2 0x3E4 PUSH2 0x3DF PUSH2 0x3DA DUP5 PUSH2 0x216 JUMP JUMPDEST PUSH2 0x3C1 JUMP JUMPDEST PUSH2 0x216 JUMP JUMPDEST SWAP1 POP SWAP2 SWAP1 POP JUMP JUMPDEST PUSH0 DUP2 SWAP1 POP SWAP2 SWAP1 POP JUMP JUMPDEST PUSH2 0x3FD DUP4 PUSH2 0x3CA JUMP JUMPDEST PUSH2 0x411 PUSH2 0x409 DUP3 PUSH2 0x3EB JUMP JUMPDEST DUP5 DUP5 SLOAD PUSH2 0x370 JUMP JUMPDEST DUP3 SSTORE POP POP POP POP JUMP JUMPDEST PUSH0 SWAP1 JUMP JUMPDEST PUSH2 0x425 PUSH2 0x419 JUMP JUMPDEST PUSH2 0x430 DUP2 DUP5 DUP5 PUSH2 0x3F4 JUMP JUMPDEST POP POP POP JUMP JUMPDEST JUMPDEST DUP2 DUP2 LT ISZERO PUSH2 0x453 JUMPI PUSH2 0x448 PUSH0 DUP3 PUSH2 0x41D JUMP JUMPDEST PUSH1 0x1 DUP2 ADD SWAP1 POP PUSH2 0x436 JUMP JUMPDEST POP POP JUMP JUMPDEST PUSH1 0x1F DUP3 GT ISZERO PUSH2 0x498 JUMPI PUSH2 0x469 DUP2 PUSH2 0x343 JUMP JUMPDEST PUSH2 0x472 DUP5 PUSH2 0x355 JUMP JUMPDEST DUP2 ADD PUSH1 0x20 DUP6 LT ISZERO PUSH2 0x481 JUMPI DUP2 SWAP1 POP JUMPDEST PUSH2 0x495 PUSH2 0x48D DUP6 PUSH2 0x355 JUMP JUMPDEST DUP4 ADD DUP3 PUSH2 0x435 JUMP JUMPDEST POP POP JUMPDEST POP POP POP JUMP JUMPDEST PUSH0 DUP3 DUP3 SHR SWAP1 POP SWAP3 SWAP2 POP POP JUMP JUMPDEST PUSH0 PUSH2 0x4B8 PUSH0 NOT DUP5 PUSH1 0x8 MUL PUSH2 0x49D JUMP JUMPDEST NOT DUP1 DUP4 AND SWAP2 POP POP SWAP3 SWAP2 POP POP JUMP JUMPDEST PUSH0 PUSH2 0x4D0 DUP4 DUP4 PUSH2 0x4A9 JUMP JUMPDEST SWAP2 POP DUP3 PUSH1 0x2 MUL DUP3 OR SWAP1 POP SWAP3 SWAP2 POP POP JUMP JUMPDEST PUSH2 0x4E9 DUP3 PUSH2 0x2DC JUMP JUMPDEST PUSH8 0xFFFFFFFFFFFFFFFF DUP2 GT ISZERO PUSH2 0x502 JUMPI PUSH2 0x501 PUSH2 0xF2 JUMP JUMPDEST JUMPDEST PUSH2 0x50C DUP3 SLOAD PUSH2 0x313 JUMP JUMPDEST PUSH2 0x517 DUP3 DUP3 DUP6 PUSH2 0x457 JUMP JUMPDEST PUSH0 PUSH1 0x20 SWAP1 POP PUSH1 0x1F DUP4 GT PUSH1 0x1 DUP2 EQ PUSH2 0x548 JUMPI PUSH0 DUP5 ISZERO PUSH2 0x536 JUMPI DUP3 DUP8 ADD MLOAD SWAP1 POP JUMPDEST PUSH2 0x540 DUP6 DUP3 PUSH2 0x4C5 JUMP JUMPDEST DUP7 SSTORE POP PUSH2 0x5A7 JUMP JUMPDEST PUSH1 0x1F NOT DUP5 AND PUSH2 0x556 DUP7 PUSH2 0x343 JUMP JUMPDEST PUSH0 JUMPDEST DUP3 DUP2 LT ISZERO PUSH2 0x57D JUMPI DUP5 DUP10 ADD MLOAD DUP3 SSTORE PUSH1 0x1 DUP3 ADD SWAP2 POP PUSH1 0x20 DUP6 ADD SWAP5 POP PUSH1 0x20 DUP2 ADD SWAP1 POP PUSH2 0x558 JUMP JUMPDEST DUP7 DUP4 LT ISZERO PUSH2 0x59A JUMPI DUP5 DUP10 ADD MLOAD PUSH2 0x596 PUSH1 0x1F DUP10 AND DUP3 PUSH2 0x4A9 JUMP JUMPDEST DUP4 SSTORE POP JUMPDEST PUSH1 0x1 PUSH1 0x2 DUP9 MUL ADD DUP9 SSTORE POP POP POP JUMPDEST POP POP POP POP POP POP JUMP JUMPDEST PUSH32 0x4E487B7100000000000000000000000000000000000000000000000000000000 PUSH0 MSTORE PUSH1 0x11 PUSH1 0x4 MSTORE PUSH1 0x24 PUSH0 REVERT JUMPDEST PUSH0 PUSH2 0x5E6 DUP3 PUSH2 0x216 JUMP JUMPDEST SWAP2 POP PUSH2 0x5F1 DUP4 PUSH2 0x216 JUMP JUMPDEST SWAP3 POP DUP3 DUP3 MUL PUSH2 0x5FF DUP2 PUSH2 0x216 JUMP JUMPDEST SWAP2 POP DUP3 DUP3 DIV DUP5 EQ DUP4 ISZERO OR PUSH2 0x616 JUMPI PUSH2 0x615 PUSH2 0x5AF JUMP JUMPDEST JUMPDEST POP SWAP3 SWAP2 POP POP JUMP JUMPDEST PUSH1 0x80 MLOAD PUSH2 0x1C4F PUSH2 0x64A PUSH0 CODECOPY PUSH0 DUP2 DUP2 PUSH2 0x5A0 ADD MSTORE DUP2 DUP2 PUSH2 0xBA7 ADD MSTORE DUP2 DUP2 PUSH2 0xC9B ADD MSTORE PUSH2 0xDF4 ADD MSTORE PUSH2 0x1C4F PUSH0 RETURN INVALID PUSH1 0x80 PUSH1 0x40 MSTORE PUSH1 0x4 CALLDATASIZE LT PUSH2 0x113 JUMPI PUSH0 CALLDATALOAD PUSH1 0xE0 SHR DUP1 PUSH4 0xB2B98ED2 GT PUSH2 0x9F JUMPI DUP1 PUSH4 0xD295EBF0 GT PUSH2 0x63 JUMPI DUP1 PUSH4 0xD295EBF0 EQ PUSH2 0x31B JUMPI DUP1 PUSH4 0xD8346CDF EQ PUSH2 0x331 JUMPI DUP1 PUSH4 0xDE4B1E42 EQ PUSH2 0x359 JUMPI DUP1 PUSH4 0xFC4A4A1E EQ PUSH2 0x383 JUMPI DUP1 PUSH4 0xFC505BE9 EQ PUSH2 0x3AD JUMPI PUSH2 0x113 JUMP JUMPDEST DUP1 PUSH4 0xB2B98ED2 EQ PUSH2 0x249 JUMPI DUP1 PUSH4 0xBCA93EBA EQ PUSH2 0x273 JUMPI DUP1 PUSH4 0xCBB12C2D EQ PUSH2 0x29D JUMPI DUP1 PUSH4 0xD0B1BFD0 EQ PUSH2 0x2C7 JUMPI DUP1 PUSH4 0xD1EE49C2 EQ PUSH2 0x2F1 JUMPI PUSH2 0x113 JUMP JUMPDEST DUP1 PUSH4 0x6A7798EE GT PUSH2 0xE6 JUMPI DUP1 PUSH4 0x6A7798EE EQ PUSH2 0x1AB JUMPI DUP1 PUSH4 0x6A7A67F0 EQ PUSH2 0x1C1 JUMPI DUP1 PUSH4 0x6E6452CB EQ PUSH2 0x1EB JUMPI DUP1 PUSH4 0x85D679F9 EQ PUSH2 0x1F5 JUMPI DUP1 PUSH4 0x8611E07B EQ PUSH2 0x21F JUMPI PUSH2 0x113 JUMP JUMPDEST DUP1 PUSH4 0xCBB94E0 EQ PUSH2 0x117 JUMPI DUP1 PUSH4 0x38699C7F EQ PUSH2 0x141 JUMPI DUP1 PUSH4 0x54A8882D EQ PUSH2 0x16B JUMPI DUP1 PUSH4 0x5D268629 EQ PUSH2 0x195 JUMPI JUMPDEST PUSH0 DUP1 REVERT JUMPDEST CALLVALUE DUP1 ISZERO PUSH2 0x122 JUMPI PUSH0 DUP1 REVERT JUMPDEST POP PUSH2 0x12B PUSH2 0x3D7 JUMP JUMPDEST PUSH1 0x40 MLOAD PUSH2 0x138 SWAP2 SWAP1 PUSH2 0x130F JUMP JUMPDEST PUSH1 0x40 MLOAD DUP1 SWAP2 SUB SWAP1 RETURN JUMPDEST CALLVALUE DUP1 ISZERO PUSH2 0x14C JUMPI PUSH0 DUP1 REVERT JUMPDEST POP PUSH2 0x155 PUSH2 0x3EA JUMP JUMPDEST PUSH1 0x40 MLOAD PUSH2 0x162 SWAP2 SWAP1 PUSH2 0x1340 JUMP JUMPDEST PUSH1 0x40 MLOAD DUP1 SWAP2 SUB SWAP1 RETURN JUMPDEST CALLVALUE DUP1 ISZERO PUSH2 0x176 JUMPI PUSH0 DUP1 REVERT JUMPDEST POP PUSH2 0x17F PUSH2 0x3F0 JUMP JUMPDEST PUSH1 0x40 MLOAD PUSH2 0x18C SWAP2 SWAP1 PUSH2 0x1340 JUMP JUMPDEST PUSH1 0x40 MLOAD DUP1 SWAP2 SUB SWAP1 RETURN JUMPDEST CALLVALUE DUP1 ISZERO PUSH2 0x1A0 JUMPI PUSH0 DUP1 REVERT JUMPDEST POP PUSH2 0x1A9 PUSH2 0x3F6 JUMP JUMPDEST STOP JUMPDEST CALLVALUE DUP1 ISZERO PUSH2 0x1B6 JUMPI PUSH0 DUP1 REVERT JUMPDEST POP PUSH2 0x1BF PUSH2 0x59E JUMP JUMPDEST STOP JUMPDEST CALLVALUE DUP1 ISZERO PUSH2 0x1CC JUMPI PUSH0 DUP1 REVERT JUMPDEST POP PUSH2 0x1D5 PUSH2 0x751 JUMP JUMPDEST PUSH1 0x40 MLOAD PUSH2 0x1E2 SWAP2 SWAP1 PUSH2 0x13C9 JUMP JUMPDEST PUSH1 0x40 MLOAD DUP1 SWAP2 SUB SWAP1 RETURN JUMPDEST PUSH2 0x1F3 PUSH2 0x7DC JUMP JUMPDEST STOP JUMPDEST CALLVALUE DUP1 ISZERO PUSH2 0x200 JUMPI PUSH0 DUP1 REVERT JUMPDEST POP PUSH2 0x209 PUSH2 0xACB JUMP JUMPDEST PUSH1 0x40 MLOAD PUSH2 0x216 SWAP2 SWAP1 PUSH2 0x13C9 JUMP JUMPDEST PUSH1 0x40 MLOAD DUP1 SWAP2 SUB SWAP1 RETURN JUMPDEST CALLVALUE DUP1 ISZERO PUSH2 0x22A JUMPI PUSH0 DUP1 REVERT JUMPDEST POP PUSH2 0x233 PUSH2 0xB7A JUMP JUMPDEST PUSH1 0x40 MLOAD PUSH2 0x240 SWAP2 SWAP1 PUSH2 0x1340 JUMP JUMPDEST PUSH1 0x40 MLOAD DUP1 SWAP2 SUB SWAP1 RETURN JUMPDEST CALLVALUE DUP1 ISZERO PUSH2 0x254 JUMPI PUSH0 DUP1 REVERT JUMPDEST POP PUSH2 0x25D PUSH2 0xB80 JUMP JUMPDEST PUSH1 0x40 MLOAD PUSH2 0x26A SWAP2 SWAP1 PUSH2 0x1428 JUMP JUMPDEST PUSH1 0x40 MLOAD DUP1 SWAP2 SUB SWAP1 RETURN JUMPDEST CALLVALUE DUP1 ISZERO PUSH2 0x27E JUMPI PUSH0 DUP1 REVERT JUMPDEST POP PUSH2 0x287 PUSH2 0xBA5 JUMP JUMPDEST PUSH1 0x40 MLOAD PUSH2 0x294 SWAP2 SWAP1 PUSH2 0x1428 JUMP JUMPDEST PUSH1 0x40 MLOAD DUP1 SWAP2 SUB SWAP1 RETURN JUMPDEST CALLVALUE DUP1 ISZERO PUSH2 0x2A8 JUMPI PUSH0 DUP1 REVERT JUMPDEST POP PUSH2 0x2B1 PUSH2 0xBC9 JUMP JUMPDEST PUSH1 0x40 MLOAD PUSH2 0x2BE SWAP2 SWAP1 PUSH2 0x1340 JUMP JUMPDEST PUSH1 0x40 MLOAD DUP1 SWAP2 SUB SWAP1 RETURN JUMPDEST CALLVALUE DUP1 ISZERO PUSH2 0x2D2 JUMPI PUSH0 DUP1 REVERT JUMPDEST POP PUSH2 0x2DB PUSH2 0xBCF JUMP JUMPDEST PUSH1 0x40 MLOAD PUSH2 0x2E8 SWAP2 SWAP1 PUSH2 0x1340 JUMP JUMPDEST PUSH1 0x40 MLOAD DUP1 SWAP2 SUB SWAP1 RETURN JUMPDEST CALLVALUE DUP1 ISZERO PUSH2 0x2FC JUMPI PUSH0 DUP1 REVERT JUMPDEST POP PUSH2 0x305 PUSH2 0xBD5 JUMP JUMPDEST PUSH1 0x40 MLOAD PUSH2 0x312 SWAP2 SWAP1 PUSH2 0x1547 JUMP JUMPDEST PUSH1 0x40 MLOAD DUP1 SWAP2 SUB SWAP1 RETURN JUMPDEST CALLVALUE DUP1 ISZERO PUSH2 0x326 JUMPI PUSH0 DUP1 REVERT JUMPDEST POP PUSH2 0x32F PUSH2 0xC99 JUMP JUMPDEST STOP JUMPDEST CALLVALUE DUP1 ISZERO PUSH2 0x33C JUMPI PUSH0 DUP1 REVERT JUMPDEST POP PUSH2 0x357 PUSH1 0x4 DUP1 CALLDATASIZE SUB DUP2 ADD SWAP1 PUSH2 0x352 SWAP2 SWAP1 PUSH2 0x1595 JUMP JUMPDEST PUSH2 0xDF2 JUMP JUMPDEST STOP JUMPDEST CALLVALUE DUP1 ISZERO PUSH2 0x364 JUMPI PUSH0 DUP1 REVERT JUMPDEST POP PUSH2 0x36D PUSH2 0xF37 JUMP JUMPDEST PUSH1 0x40 MLOAD PUSH2 0x37A SWAP2 SWAP1 PUSH2 0x1340 JUMP JUMPDEST PUSH1 0x40 MLOAD DUP1 SWAP2 SUB SWAP1 RETURN JUMPDEST CALLVALUE DUP1 ISZERO PUSH2 0x38E JUMPI PUSH0 DUP1 REVERT JUMPDEST POP PUSH2 0x397 PUSH2 0xF3D JUMP JUMPDEST PUSH1 0x40 MLOAD PUSH2 0x3A4 SWAP2 SWAP1 PUSH2 0x1340 JUMP JUMPDEST PUSH1 0x40 MLOAD DUP1 SWAP2 SUB SWAP1 RETURN JUMPDEST CALLVALUE DUP1 ISZERO PUSH2 0x3B8 JUMPI PUSH0 DUP1 REVERT JUMPDEST POP PUSH2 0x3C1 PUSH2 0xF43 JUMP JUMPDEST PUSH1 0x40 MLOAD PUSH2 0x3CE SWAP2 SWAP1 PUSH2 0x130F JUMP JUMPDEST PUSH1 0x40 MLOAD DUP1 SWAP2 SUB SWAP1 RETURN JUMPDEST PUSH1 0x6 PUSH1 0x1 SWAP1 SLOAD SWAP1 PUSH2 0x100 EXP SWAP1 DIV PUSH1 0xFF AND DUP2 JUMP JUMPDEST PUSH1 0x3 SLOAD DUP2 JUMP JUMPDEST PUSH1 0x5 SLOAD DUP2 JUMP JUMPDEST PUSH1 0x6 PUSH1 0x1 SWAP1 SLOAD SWAP1 PUSH2 0x100 EXP SWAP1 DIV PUSH1 0xFF AND PUSH2 0x445 JUMPI PUSH1 0x40 MLOAD PUSH32 0x8C379A000000000000000000000000000000000000000000000000000000000 DUP2 MSTORE PUSH1 0x4 ADD PUSH2 0x43C SWAP1 PUSH2 0x160A JUMP JUMPDEST PUSH1 0x40 MLOAD DUP1 SWAP2 SUB SWAP1 REVERT JUMPDEST PUSH1 0x2 PUSH0 SWAP1 SLOAD SWAP1 PUSH2 0x100 EXP SWAP1 DIV PUSH20 0xFFFFFFFFFFFFFFFFFFFFFFFFFFFFFFFFFFFFFFFF AND PUSH20 0xFFFFFFFFFFFFFFFFFFFFFFFFFFFFFFFFFFFFFFFF AND CALLER PUSH20 0xFFFFFFFFFFFFFFFFFFFFFFFFFFFFFFFFFFFFFFFF AND SUB PUSH2 0x4D4 JUMPI PUSH1 0x40 MLOAD PUSH32 0x8C379A000000000000000000000000000000000000000000000000000000000 DUP2 MSTORE PUSH1 0x4 ADD PUSH2 0x4CB SWAP1 PUSH2 0x1672 JUMP JUMPDEST PUSH1 0x40 MLOAD DUP1 SWAP2 SUB SWAP1 REVERT JUMPDEST PUSH0 PUSH1 0xD PUSH0 CALLER PUSH20 0xFFFFFFFFFFFFFFFFFFFFFFFFFFFFFFFFFFFFFFFF AND PUSH20 0xFFFFFFFFFFFFFFFFFFFFFFFFFFFFFFFFFFFFFFFF AND DUP2 MSTORE PUSH1 0x20 ADD SWAP1 DUP2 MSTORE PUSH1 0x20 ADD PUSH0 KECCAK256 SLOAD SWAP1 POP PUSH0 PUSH1 0xD PUSH0 CALLER PUSH20 0xFFFFFFFFFFFFFFFFFFFFFFFFFFFFFFFFFFFFFFFF AND PUSH20 0xFFFFFFFFFFFFFFFFFFFFFFFFFFFFFFFFFFFFFFFF AND DUP2 MSTORE PUSH1 0x20 ADD SWAP1 DUP2 MSTORE PUSH1 0x20 ADD PUSH0 KECCAK256 DUP2 SWAP1 SSTORE POP CALLER PUSH20 0xFFFFFFFFFFFFFFFFFFFFFFFFFFFFFFFFFFFFFFFF AND PUSH2 0x8FC DUP3 SWAP1 DUP2 ISZERO MUL SWAP1 PUSH1 0x40 MLOAD PUSH0 PUSH1 0x40 MLOAD DUP1 DUP4 SUB DUP2 DUP6 DUP9 DUP9 CALL SWAP4 POP POP POP POP ISZERO DUP1 ISZERO PUSH2 0x59A JUMPI RETURNDATASIZE PUSH0 DUP1 RETURNDATACOPY RETURNDATASIZE PUSH0 REVERT JUMPDEST POP POP JUMP JUMPDEST PUSH32 0x0 PUSH20 0xFFFFFFFFFFFFFFFFFFFFFFFFFFFFFFFFFFFFFFFF AND CALLER PUSH20 0xFFFFFFFFFFFFFFFFFFFFFFFFFFFFFFFFFFFFFFFF AND EQ PUSH2 0x62C JUMPI PUSH1 0x40 MLOAD PUSH32 0x8C379A000000000000000000000000000000000000000000000000000000000 DUP2 MSTORE PUSH1 0x4 ADD PUSH2 0x623 SWAP1 PUSH2 0x16DA JUMP JUMPDEST PUSH1 0x40 MLOAD DUP1 SWAP2 SUB SWAP1 REVERT JUMPDEST PUSH1 0x6 PUSH0 SWAP1 SLOAD SWAP1 PUSH2 0x100 EXP SWAP1 DIV PUSH1 0xFF AND PUSH2 0x67A JUMPI PUSH1 0x40 MLOAD PUSH32 0x8C379A000000000000000000000000000000000000000000000000000000000 DUP2 MSTORE PUSH1 0x4 ADD PUSH2 0x671 SWAP1 PUSH2 0x1742 JUMP JUMPDEST PUSH1 0x40 MLOAD DUP1 SWAP2 SUB SWAP1 REVERT JUMPDEST PUSH1 0x6 PUSH1 0x1 SWAP1 SLOAD SWAP1 PUSH2 0x100 EXP SWAP1 DIV PUSH1 0xFF AND ISZERO PUSH2 0x6CA JUMPI PUSH1 0x40 MLOAD PUSH32 0x8C379A000000000000000000000000000000000000000000000000000000000 DUP2 MSTORE PUSH1 0x4 ADD PUSH2 0x6C1 SWAP1 PUSH2 0x17AA JUMP JUMPDEST PUSH1 0x40 MLOAD DUP1 SWAP2 SUB SWAP1 REVERT JUMPDEST PUSH1 0x1 PUSH1 0x6 PUSH1 0x1 PUSH2 0x100 EXP DUP2 SLOAD DUP2 PUSH1 0xFF MUL NOT AND SWAP1 DUP4 ISZERO ISZERO MUL OR SWAP1 SSTORE POP PUSH1 0x1 PUSH0 SWAP1 SLOAD SWAP1 PUSH2 0x100 EXP SWAP1 DIV PUSH20 0xFFFFFFFFFFFFFFFFFFFFFFFFFFFFFFFFFFFFFFFF AND PUSH1 0x2 PUSH0 PUSH2 0x100 EXP DUP2 SLOAD DUP2 PUSH20 0xFFFFFFFFFFFFFFFFFFFFFFFFFFFFFFFFFFFFFFFF MUL NOT AND SWAP1 DUP4 PUSH20 0xFFFFFFFFFFFFFFFFFFFFFFFFFFFFFFFFFFFFFFFF AND MUL OR SWAP1 SSTORE POP PUSH2 0x74E PUSH2 0xF55 JUMP JUMPDEST POP JUMP JUMPDEST PUSH0 DUP1 SLOAD PUSH2 0x75D SWAP1 PUSH2 0x17F5 JUMP JUMPDEST DUP1 PUSH1 0x1F ADD PUSH1 0x20 DUP1 SWAP2 DIV MUL PUSH1 0x20 ADD PUSH1 0x40 MLOAD SWAP1 DUP2 ADD PUSH1 0x40 MSTORE DUP1 SWAP3 SWAP2 SWAP1 DUP2 DUP2 MSTORE PUSH1 0x20 ADD DUP3 DUP1 SLOAD PUSH2 0x789 SWAP1 PUSH2 0x17F5 JUMP JUMPDEST DUP1 ISZERO PUSH2 0x7D4 JUMPI DUP1 PUSH1 0x1F LT PUSH2 0x7AB JUMPI PUSH2 0x100 DUP1 DUP4 SLOAD DIV MUL DUP4 MSTORE SWAP2 PUSH1 0x20 ADD SWAP2 PUSH2 0x7D4 JUMP JUMPDEST DUP3 ADD SWAP2 SWAP1 PUSH0 MSTORE PUSH1 0x20 PUSH0 KECCAK256 SWAP1 JUMPDEST DUP2 SLOAD DUP2 MSTORE SWAP1 PUSH1 0x1 ADD SWAP1 PUSH1 0x20 ADD DUP1 DUP4 GT PUSH2 0x7B7 JUMPI DUP3 SWAP1 SUB PUSH1 0x1F AND DUP3 ADD SWAP2 JUMPDEST POP POP POP POP POP DUP2 JUMP JUMPDEST PUSH1 0x6 PUSH1 0x1 SWAP1 SLOAD SWAP1 PUSH2 0x100 EXP SWAP1 DIV PUSH1 0xFF AND ISZERO PUSH2 0x82C JUMPI PUSH1 0x40 MLOAD PUSH32 0x8C379A000000000000000000000000000000000000000000000000000000000 DUP2 MSTORE PUSH1 0x4 ADD PUSH2 0x823 SWAP1 PUSH2 0x186F JUMP JUMPDEST PUSH1 0x40 MLOAD DUP1 SWAP2 SUB SWAP1 REVERT JUMPDEST PUSH1 0x1 ISZERO ISZERO PUSH1 0xC PUSH0 CALLER PUSH20 0xFFFFFFFFFFFFFFFFFFFFFFFFFFFFFFFFFFFFFFFF AND PUSH20 0xFFFFFFFFFFFFFFFFFFFFFFFFFFFFFFFFFFFFFFFF AND DUP2 MSTORE PUSH1 0x20 ADD SWAP1 DUP2 MSTORE PUSH1 0x20 ADD PUSH0 KECCAK256 PUSH0 SWAP1 SLOAD SWAP1 PUSH2 0x100 EXP SWAP1 DIV PUSH1 0xFF AND ISZERO ISZERO EQ PUSH2 0x8BC JUMPI PUSH1 0x40 MLOAD PUSH32 0x8C379A000000000000000000000000000000000000000000000000000000000 DUP2 MSTORE PUSH1 0x4 ADD PUSH2 0x8B3 SWAP1 PUSH2 0x18D7 JUMP JUMPDEST PUSH1 0x40 MLOAD DUP1 SWAP2 SUB SWAP1 REVERT JUMPDEST PUSH1 0x4 SLOAD PUSH1 0x5 SLOAD PUSH2 0x8CC SWAP2 SWAP1 PUSH2 0x1922 JUMP JUMPDEST CALLVALUE EQ PUSH2 0x8F9 PUSH8 0xDE0B6B3A7640000 PUSH1 0x4 SLOAD PUSH1 0x5 SLOAD PUSH2 0x8EA SWAP2 SWAP1 PUSH2 0x1922 JUMP JUMPDEST PUSH2 0x8F4 SWAP2 SWAP1 PUSH2 0x1982 JUMP JUMPDEST PUSH2 0x103C JUMP JUMPDEST PUSH1 0x40 MLOAD PUSH1 0x20 ADD PUSH2 0x909 SWAP2 SWAP1 PUSH2 0x1A5C JUMP JUMPDEST PUSH1 0x40 MLOAD PUSH1 0x20 DUP2 DUP4 SUB SUB DUP2 MSTORE SWAP1 PUSH1 0x40 MSTORE SWAP1 PUSH2 0x959 JUMPI PUSH1 0x40 MLOAD PUSH32 0x8C379A000000000000000000000000000000000000000000000000000000000 DUP2 MSTORE PUSH1 0x4 ADD PUSH2 0x950 SWAP2 SWAP1 PUSH2 0x13C9 JUMP JUMPDEST PUSH1 0x40 MLOAD DUP1 SWAP2 SUB SWAP1 REVERT JUMPDEST POP CALLVALUE PUSH1 0xD PUSH0 CALLER PUSH20 0xFFFFFFFFFFFFFFFFFFFFFFFFFFFFFFFFFFFFFFFF AND PUSH20 0xFFFFFFFFFFFFFFFFFFFFFFFFFFFFFFFFFFFFFFFF AND DUP2 MSTORE PUSH1 0x20 ADD SWAP1 DUP2 MSTORE PUSH1 0x20 ADD PUSH0 KECCAK256 PUSH0 DUP3 DUP3 SLOAD PUSH2 0x9A6 SWAP2 SWAP1 PUSH2 0x1922 JUMP JUMPDEST SWAP3 POP POP DUP2 SWAP1 SSTORE POP CALLER PUSH1 0x1 PUSH0 PUSH2 0x100 EXP DUP2 SLOAD DUP2 PUSH20 0xFFFFFFFFFFFFFFFFFFFFFFFFFFFFFFFFFFFFFFFF MUL NOT AND SWAP1 DUP4 PUSH20 0xFFFFFFFFFFFFFFFFFFFFFFFFFFFFFFFFFFFFFFFF AND MUL OR SWAP1 SSTORE POP PUSH1 0x4 SLOAD PUSH1 0x5 PUSH0 DUP3 DUP3 SLOAD PUSH2 0xA00 SWAP2 SWAP1 PUSH2 0x1922 JUMP JUMPDEST SWAP3 POP POP DUP2 SWAP1 SSTORE POP TIMESTAMP PUSH1 0x9 DUP2 SWAP1 SSTORE POP PUSH1 0xE PUSH1 0x40 MLOAD DUP1 PUSH1 0x60 ADD PUSH1 0x40 MSTORE DUP1 CALLER PUSH20 0xFFFFFFFFFFFFFFFFFFFFFFFFFFFFFFFFFFFFFFFF AND DUP2 MSTORE PUSH1 0x20 ADD CALLVALUE DUP2 MSTORE PUSH1 0x20 ADD TIMESTAMP DUP2 MSTORE POP SWAP1 DUP1 PUSH1 0x1 DUP2 SLOAD ADD DUP1 DUP3 SSTORE DUP1 SWAP2 POP POP PUSH1 0x1 SWAP1 SUB SWAP1 PUSH0 MSTORE PUSH1 0x20 PUSH0 KECCAK256 SWAP1 PUSH1 0x3 MUL ADD PUSH0 SWAP1 SWAP2 SWAP1 SWAP2 SWAP1 SWAP2 POP PUSH0 DUP3 ADD MLOAD DUP2 PUSH0 ADD PUSH0 PUSH2 0x100 EXP DUP2 SLOAD DUP2 PUSH20 0xFFFFFFFFFFFFFFFFFFFFFFFFFFFFFFFFFFFFFFFF MUL NOT AND SWAP1 DUP4 PUSH20 0xFFFFFFFFFFFFFFFFFFFFFFFFFFFFFFFFFFFFFFFF AND MUL OR SWAP1 SSTORE POP PUSH1 0x20 DUP3 ADD MLOAD DUP2 PUSH1 0x1 ADD SSTORE PUSH1 0x40 DUP3 ADD MLOAD DUP2 PUSH1 0x2 ADD SSTORE POP POP PUSH2 0xAC9 PUSH2 0x1106 JUMP JUMPDEST JUMP JUMPDEST PUSH1 0x60 PUSH1 0x2 PUSH0 SWAP1 SLOAD SWAP1 PUSH2 0x100 EXP SWAP1 DIV PUSH20 0xFFFFFFFFFFFFFFFFFFFFFFFFFFFFFFFFFFFFFFFF AND PUSH20 0xFFFFFFFFFFFFFFFFFFFFFFFFFFFFFFFFFFFFFFFF AND CALLER PUSH20 0xFFFFFFFFFFFFFFFFFFFFFFFFFFFFFFFFFFFFFFFF AND EQ PUSH2 0xB5C JUMPI PUSH1 0x40 MLOAD PUSH32 0x8C379A000000000000000000000000000000000000000000000000000000000 DUP2 MSTORE PUSH1 0x4 ADD PUSH2 0xB53 SWAP1 PUSH2 0x1AC7 JUMP JUMPDEST PUSH1 0x40 MLOAD DUP1 SWAP2 SUB SWAP1 REVERT JUMPDEST PUSH1 0x40 MLOAD DUP1 PUSH1 0x60 ADD PUSH1 0x40 MSTORE DUP1 PUSH1 0x37 DUP2 MSTORE PUSH1 0x20 ADD PUSH2 0x1BE3 PUSH1 0x37 SWAP2 CODECOPY SWAP1 POP SWAP1 JUMP JUMPDEST PUSH1 0x4 SLOAD DUP2 JUMP JUMPDEST PUSH1 0x2 PUSH0 SWAP1 SLOAD SWAP1 PUSH2 0x100 EXP SWAP1 DIV PUSH20 0xFFFFFFFFFFFFFFFFFFFFFFFFFFFFFFFFFFFFFFFF AND DUP2 JUMP JUMPDEST PUSH32 0x0 DUP2 JUMP JUMPDEST PUSH1 0x8 SLOAD DUP2 JUMP JUMPDEST PUSH1 0xB SLOAD DUP2 JUMP JUMPDEST PUSH1 0x60 PUSH1 0xE DUP1 SLOAD DUP1 PUSH1 0x20 MUL PUSH1 0x20 ADD PUSH1 0x40 MLOAD SWAP1 DUP2 ADD PUSH1 0x40 MSTORE DUP1 SWAP3 SWAP2 SWAP1 DUP2 DUP2 MSTORE PUSH1 0x20 ADD PUSH0 SWAP1 JUMPDEST DUP3 DUP3 LT ISZERO PUSH2 0xC90 JUMPI DUP4 DUP3 SWAP1 PUSH0 MSTORE PUSH1 0x20 PUSH0 KECCAK256 SWAP1 PUSH1 0x3 MUL ADD PUSH1 0x40 MLOAD DUP1 PUSH1 0x60 ADD PUSH1 0x40 MSTORE SWAP1 DUP2 PUSH0 DUP3 ADD PUSH0 SWAP1 SLOAD SWAP1 PUSH2 0x100 EXP SWAP1 DIV PUSH20 0xFFFFFFFFFFFFFFFFFFFFFFFFFFFFFFFFFFFFFFFF AND PUSH20 0xFFFFFFFFFFFFFFFFFFFFFFFFFFFFFFFFFFFFFFFF AND PUSH20 0xFFFFFFFFFFFFFFFFFFFFFFFFFFFFFFFFFFFFFFFF AND DUP2 MSTORE PUSH1 0x20 ADD PUSH1 0x1 DUP3 ADD SLOAD DUP2 MSTORE PUSH1 0x20 ADD PUSH1 0x2 DUP3 ADD SLOAD DUP2 MSTORE POP POP DUP2 MSTORE PUSH1 0x20 ADD SWAP1 PUSH1 0x1 ADD SWAP1 PUSH2 0xBF8 JUMP JUMPDEST POP POP POP POP SWAP1 POP SWAP1 JUMP JUMPDEST PUSH32 0x0 PUSH20 0xFFFFFFFFFFFFFFFFFFFFFFFFFFFFFFFFFFFFFFFF AND CALLER PUSH20 0xFFFFFFFFFFFFFFFFFFFFFFFFFFFFFFFFFFFFFFFF AND EQ PUSH2 0xD27 JUMPI PUSH1 0x40 MLOAD PUSH32 0x8C379A000000000000000000000000000000000000000000000000000000000 DUP2 MSTORE PUSH1 0x4 ADD PUSH2 0xD1E SWAP1 PUSH2 0x16DA JUMP JUMPDEST PUSH1 0x40 MLOAD DUP1 SWAP2 SUB SWAP1 REVERT JUMPDEST PUSH1 0x6 PUSH1 0x1 SWAP1 SLOAD SWAP1 PUSH2 0x100 EXP SWAP1 DIV PUSH1 0xFF AND ISZERO PUSH2 0xD77 JUMPI PUSH1 0x40 MLOAD PUSH32 0x8C379A000000000000000000000000000000000000000000000000000000000 DUP2 MSTORE PUSH1 0x4 ADD PUSH2 0xD6E SWAP1 PUSH2 0x186F JUMP JUMPDEST PUSH1 0x40 MLOAD DUP1 SWAP2 SUB SWAP1 REVERT JUMPDEST PUSH1 0x6 PUSH0 SWAP1 SLOAD SWAP1 PUSH2 0x100 EXP SWAP1 DIV PUSH1 0xFF AND ISZERO PUSH2 0xDC6 JUMPI PUSH1 0x40 MLOAD PUSH32 0x8C379A000000000000000000000000000000000000000000000000000000000 DUP2 MSTORE PUSH1 0x4 ADD PUSH2 0xDBD SWAP1 PUSH2 0x1B2F JUMP JUMPDEST PUSH1 0x40 MLOAD DUP1 SWAP2 SUB SWAP1 REVERT JUMPDEST PUSH1 0x1 PUSH1 0x6 PUSH0 PUSH2 0x100 EXP DUP2 SLOAD DUP2 PUSH1 0xFF MUL NOT AND SWAP1 DUP4 ISZERO ISZERO MUL OR SWAP1 SSTORE POP TIMESTAMP PUSH1 0x7 DUP2 SWAP1 SSTORE POP PUSH1 0x7 SLOAD PUSH1 0x9 DUP2 SWAP1 SSTORE POP JUMP JUMPDEST PUSH32 0x0 PUSH20 0xFFFFFFFFFFFFFFFFFFFFFFFFFFFFFFFFFFFFFFFF AND CALLER PUSH20 0xFFFFFFFFFFFFFFFFFFFFFFFFFFFFFFFFFFFFFFFF AND EQ PUSH2 0xE80 JUMPI PUSH1 0x40 MLOAD PUSH32 0x8C379A000000000000000000000000000000000000000000000000000000000 DUP2 MSTORE PUSH1 0x4 ADD PUSH2 0xE77 SWAP1 PUSH2 0x16DA JUMP JUMPDEST PUSH1 0x40 MLOAD DUP1 SWAP2 SUB SWAP1 REVERT JUMPDEST PUSH1 0xA SLOAD PUSH1 0xB SLOAD LT PUSH2 0xEC6 JUMPI PUSH1 0x40 MLOAD PUSH32 0x8C379A000000000000000000000000000000000000000000000000000000000 DUP2 MSTORE PUSH1 0x4 ADD PUSH2 0xEBD SWAP1 PUSH2 0x1B97 JUMP JUMPDEST PUSH1 0x40 MLOAD DUP1 SWAP2 SUB SWAP1 REVERT JUMPDEST PUSH1 0x1 PUSH1 0xC PUSH0 DUP4 PUSH20 0xFFFFFFFFFFFFFFFFFFFFFFFFFFFFFFFFFFFFFFFF AND PUSH20 0xFFFFFFFFFFFFFFFFFFFFFFFFFFFFFFFFFFFFFFFF AND DUP2 MSTORE PUSH1 0x20 ADD SWAP1 DUP2 MSTORE PUSH1 0x20 ADD PUSH0 KECCAK256 PUSH0 PUSH2 0x100 EXP DUP2 SLOAD DUP2 PUSH1 0xFF MUL NOT AND SWAP1 DUP4 ISZERO ISZERO MUL OR SWAP1 SSTORE POP PUSH1 0x1 PUSH1 0xB PUSH0 DUP3 DUP3 SLOAD PUSH2 0xF2D SWAP2 SWAP1 PUSH2 0x1922 JUMP JUMPDEST SWAP3 POP POP DUP2 SWAP1 SSTORE POP POP JUMP JUMPDEST PUSH1 0xA SLOAD DUP2 JUMP JUMPDEST PUSH1 0x7 SLOAD DUP2 JUMP JUMPDEST PUSH1 0x6 PUSH0 SWAP1 SLOAD SWAP1 PUSH2 0x100 EXP SWAP1 DIV PUSH1 0xFF AND DUP2 JUMP JUMPDEST PUSH0 DUP1 PUSH20 0xFFFFFFFFFFFFFFFFFFFFFFFFFFFFFFFFFFFFFFFF AND PUSH1 0x1 PUSH0 SWAP1 SLOAD SWAP1 PUSH2 0x100 EXP SWAP1 DIV PUSH20 0xFFFFFFFFFFFFFFFFFFFFFFFFFFFFFFFFFFFFFFFF AND PUSH20 0xFFFFFFFFFFFFFFFFFFFFFFFFFFFFFFFFFFFFFFFF AND EQ ISZERO DUP1 ISZERO PUSH2 0xFC0 JUMPI POP PUSH1 0x6 PUSH1 0x1 SWAP1 SLOAD SWAP1 PUSH2 0x100 EXP SWAP1 DIV PUSH1 0xFF AND ISZERO JUMPDEST ISZERO PUSH2 0x1035 JUMPI PUSH1 0x1 PUSH0 SWAP1 SLOAD SWAP1 PUSH2 0x100 EXP SWAP1 DIV PUSH20 0xFFFFFFFFFFFFFFFFFFFFFFFFFFFFFFFFFFFFFFFF AND PUSH20 0xFFFFFFFFFFFFFFFFFFFFFFFFFFFFFFFFFFFFFFFF AND PUSH2 0x8FC PUSH1 0x5 SLOAD SWAP1 DUP2 ISZERO MUL SWAP1 PUSH1 0x40 MLOAD PUSH0 PUSH1 0x40 MLOAD DUP1 DUP4 SUB DUP2 DUP6 DUP9 DUP9 CALL SWAP4 POP POP POP POP ISZERO DUP1 ISZERO PUSH2 0x102B JUMPI RETURNDATASIZE PUSH0 DUP1 RETURNDATACOPY RETURNDATASIZE PUSH0 REVERT JUMPDEST POP PUSH1 0x1 SWAP1 POP PUSH2 0x1039 JUMP JUMPDEST PUSH0 SWAP1 POP JUMPDEST SWAP1 JUMP JUMPDEST PUSH1 0x60 PUSH0 PUSH1 0x1 PUSH2 0x104A DUP5 PUSH2 0x11A4 JUMP JUMPDEST ADD SWAP1 POP PUSH0 DUP2 PUSH8 0xFFFFFFFFFFFFFFFF DUP2 GT ISZERO PUSH2 0x1068 JUMPI PUSH2 0x1067 PUSH2 0x1BB5 JUMP JUMPDEST JUMPDEST PUSH1 0x40 MLOAD SWAP1 DUP1 DUP3 MSTORE DUP1 PUSH1 0x1F ADD PUSH1 0x1F NOT AND PUSH1 0x20 ADD DUP3 ADD PUSH1 0x40 MSTORE DUP1 ISZERO PUSH2 0x109A JUMPI DUP2 PUSH1 0x20 ADD PUSH1 0x1 DUP3 MUL DUP1 CALLDATASIZE DUP4 CALLDATACOPY DUP1 DUP3 ADD SWAP2 POP POP SWAP1 POP JUMPDEST POP SWAP1 POP PUSH0 DUP3 PUSH1 0x20 ADD DUP3 ADD SWAP1 POP JUMPDEST PUSH1 0x1 ISZERO PUSH2 0x10FB JUMPI DUP1 DUP1 PUSH1 0x1 SWAP1 SUB SWAP2 POP POP PUSH32 0x3031323334353637383961626364656600000000000000000000000000000000 PUSH1 0xA DUP7 MOD BYTE DUP2 MSTORE8 PUSH1 0xA DUP6 DUP2 PUSH2 0x10F0 JUMPI PUSH2 0x10EF PUSH2 0x1955 JUMP JUMPDEST JUMPDEST DIV SWAP5 POP PUSH0 DUP6 SUB PUSH2 0x10A7 JUMPI JUMPDEST DUP2 SWAP4 POP POP POP POP SWAP2 SWAP1 POP JUMP JUMPDEST PUSH1 0x8 SLOAD PUSH1 0x9 SLOAD PUSH2 0x1116 SWAP2 SWAP1 PUSH2 0x1922 JUMP JUMPDEST TIMESTAMP LT PUSH2 0x11A2 JUMPI PUSH1 0x1 PUSH1 0x6 PUSH1 0x1 PUSH2 0x100 EXP DUP2 SLOAD DUP2 PUSH1 0xFF MUL NOT AND SWAP1 DUP4 ISZERO ISZERO MUL OR SWAP1 SSTORE POP PUSH1 0x1 PUSH0 SWAP1 SLOAD SWAP1 PUSH2 0x100 EXP SWAP1 DIV PUSH20 0xFFFFFFFFFFFFFFFFFFFFFFFFFFFFFFFFFFFFFFFF AND PUSH1 0x2 PUSH0 PUSH2 0x100 EXP DUP2 SLOAD DUP2 PUSH20 0xFFFFFFFFFFFFFFFFFFFFFFFFFFFFFFFFFFFFFFFF MUL NOT AND SWAP1 DUP4 PUSH20 0xFFFFFFFFFFFFFFFFFFFFFFFFFFFFFFFFFFFFFFFF AND MUL OR SWAP1 SSTORE POP PUSH2 0x11A0 PUSH2 0xF55 JUMP JUMPDEST POP JUMPDEST JUMP JUMPDEST PUSH0 DUP1 PUSH0 SWAP1 POP PUSH27 0x184F03E93FF9F4DAA797ED6E38ED64BF6A1F010000000000000000 DUP4 LT PUSH2 0x1200 JUMPI PUSH27 0x184F03E93FF9F4DAA797ED6E38ED64BF6A1F010000000000000000 DUP4 DUP2 PUSH2 0x11F6 JUMPI PUSH2 0x11F5 PUSH2 0x1955 JUMP JUMPDEST JUMPDEST DIV SWAP3 POP PUSH1 0x40 DUP2 ADD SWAP1 POP JUMPDEST PUSH14 0x4EE2D6D415B85ACEF8100000000 DUP4 LT PUSH2 0x123D JUMPI PUSH14 0x4EE2D6D415B85ACEF8100000000 DUP4 DUP2 PUSH2 0x1233 JUMPI PUSH2 0x1232 PUSH2 0x1955 JUMP JUMPDEST JUMPDEST DIV SWAP3 POP PUSH1 0x20 DUP2 ADD SWAP1 POP JUMPDEST PUSH7 0x2386F26FC10000 DUP4 LT PUSH2 0x126C JUMPI PUSH7 0x2386F26FC10000 DUP4 DUP2 PUSH2 0x1262 JUMPI PUSH2 0x1261 PUSH2 0x1955 JUMP JUMPDEST JUMPDEST DIV SWAP3 POP PUSH1 0x10 DUP2 ADD SWAP1 POP JUMPDEST PUSH4 0x5F5E100 DUP4 LT PUSH2 0x1295 JUMPI PUSH4 0x5F5E100 DUP4 DUP2 PUSH2 0x128B JUMPI PUSH2 0x128A PUSH2 0x1955 JUMP JUMPDEST JUMPDEST DIV SWAP3 POP PUSH1 0x8 DUP2 ADD SWAP1 POP JUMPDEST PUSH2 0x2710 DUP4 LT PUSH2 0x12BA JUMPI PUSH2 0x2710 DUP4 DUP2 PUSH2 0x12B0 JUMPI PUSH2 0x12AF PUSH2 0x1955 JUMP JUMPDEST JUMPDEST DIV SWAP3 POP PUSH1 0x4 DUP2 ADD SWAP1 POP JUMPDEST PUSH1 0x64 DUP4 LT PUSH2 0x12DD JUMPI PUSH1 0x64 DUP4 DUP2 PUSH2 0x12D3 JUMPI PUSH2 0x12D2 PUSH2 0x1955 JUMP JUMPDEST JUMPDEST DIV SWAP3 POP PUSH1 0x2 DUP2 ADD SWAP1 POP JUMPDEST PUSH1 0xA DUP4 LT PUSH2 0x12EC JUMPI PUSH1 0x1 DUP2 ADD SWAP1 POP JUMPDEST DUP1 SWAP2 POP POP SWAP2 SWAP1 POP JUMP JUMPDEST PUSH0 DUP2 ISZERO ISZERO SWAP1 POP SWAP2 SWAP1 POP JUMP JUMPDEST PUSH2 0x1309 DUP2 PUSH2 0x12F5 JUMP JUMPDEST DUP3 MSTORE POP POP JUMP JUMPDEST PUSH0 PUSH1 0x20 DUP3 ADD SWAP1 POP PUSH2 0x1322 PUSH0 DUP4 ADD DUP5 PUSH2 0x1300 JUMP JUMPDEST SWAP3 SWAP2 POP POP JUMP JUMPDEST PUSH0 DUP2 SWAP1 POP SWAP2 SWAP1 POP JUMP JUMPDEST PUSH2 0x133A DUP2 PUSH2 0x1328 JUMP JUMPDEST DUP3 MSTORE POP POP JUMP JUMPDEST PUSH0 PUSH1 0x20 DUP3 ADD SWAP1 POP PUSH2 0x1353 PUSH0 DUP4 ADD DUP5 PUSH2 0x1331 JUMP JUMPDEST SWAP3 SWAP2 POP POP JUMP JUMPDEST PUSH0 DUP2 MLOAD SWAP1 POP SWAP2 SWAP1 POP JUMP JUMPDEST PUSH0 DUP3 DUP3 MSTORE PUSH1 0x20 DUP3 ADD SWAP1 POP SWAP3 SWAP2 POP POP JUMP JUMPDEST DUP3 DUP2 DUP4 MCOPY PUSH0 DUP4 DUP4 ADD MSTORE POP POP POP JUMP JUMPDEST PUSH0 PUSH1 0x1F NOT PUSH1 0x1F DUP4 ADD AND SWAP1 POP SWAP2 SWAP1 POP JUMP JUMPDEST PUSH0 PUSH2 0x139B DUP3 PUSH2 0x1359 JUMP JUMPDEST PUSH2 0x13A5 DUP2 DUP6 PUSH2 0x1363 JUMP JUMPDEST SWAP4 POP PUSH2 0x13B5 DUP2 DUP6 PUSH1 0x20 DUP7 ADD PUSH2 0x1373 JUMP JUMPDEST PUSH2 0x13BE DUP2 PUSH2 0x1381 JUMP JUMPDEST DUP5 ADD SWAP2 POP POP SWAP3 SWAP2 POP POP JUMP JUMPDEST PUSH0 PUSH1 0x20 DUP3 ADD SWAP1 POP DUP2 DUP2 SUB PUSH0 DUP4 ADD MSTORE PUSH2 0x13E1 DUP2 DUP5 PUSH2 0x1391 JUMP JUMPDEST SWAP1 POP SWAP3 SWAP2 POP POP JUMP JUMPDEST PUSH0 PUSH20 0xFFFFFFFFFFFFFFFFFFFFFFFFFFFFFFFFFFFFFFFF DUP3 AND SWAP1 POP SWAP2 SWAP1 POP JUMP JUMPDEST PUSH0 PUSH2 0x1412 DUP3 PUSH2 0x13E9 JUMP JUMPDEST SWAP1 POP SWAP2 SWAP1 POP JUMP JUMPDEST PUSH2 0x1422 DUP2 PUSH2 0x1408 JUMP JUMPDEST DUP3 MSTORE POP POP JUMP JUMPDEST PUSH0 PUSH1 0x20 DUP3 ADD SWAP1 POP PUSH2 0x143B PUSH0 DUP4 ADD DUP5 PUSH2 0x1419 JUMP JUMPDEST SWAP3 SWAP2 POP POP JUMP JUMPDEST PUSH0 DUP2 MLOAD SWAP1 POP SWAP2 SWAP1 POP JUMP JUMPDEST PUSH0 DUP3 DUP3 MSTORE PUSH1 0x20 DUP3 ADD SWAP1 POP SWAP3 SWAP2 POP POP JUMP JUMPDEST PUSH0 DUP2 SWAP1 POP PUSH1 0x20 DUP3 ADD SWAP1 POP SWAP2 SWAP1 POP JUMP JUMPDEST PUSH2 0x1473 DUP2 PUSH2 0x1408 JUMP JUMPDEST DUP3 MSTORE POP POP JUMP JUMPDEST PUSH2 0x1482 DUP2 PUSH2 0x1328 JUMP JUMPDEST DUP3 MSTORE POP POP JUMP JUMPDEST PUSH1 0x60 DUP3 ADD PUSH0 DUP3 ADD MLOAD PUSH2 0x149C PUSH0 DUP6 ADD DUP3 PUSH2 0x146A JUMP JUMPDEST POP PUSH1 0x20 DUP3 ADD MLOAD PUSH2 0x14AF PUSH1 0x20 DUP6 ADD DUP3 PUSH2 0x1479 JUMP JUMPDEST POP PUSH1 0x40 DUP3 ADD MLOAD PUSH2 0x14C2 PUSH1 0x40 DUP6 ADD DUP3 PUSH2 0x1479 JUMP JUMPDEST POP POP POP POP JUMP JUMPDEST PUSH0 PUSH2 0x14D3 DUP4 DUP4 PUSH2 0x1488 JUMP JUMPDEST PUSH1 0x60 DUP4 ADD SWAP1 POP SWAP3 SWAP2 POP POP JUMP JUMPDEST PUSH0 PUSH1 0x20 DUP3 ADD SWAP1 POP SWAP2 SWAP1 POP JUMP JUMPDEST PUSH0 PUSH2 0x14F5 DUP3 PUSH2 0x1441 JUMP JUMPDEST PUSH2 0x14FF DUP2 DUP6 PUSH2 0x144B JUMP JUMPDEST SWAP4 POP PUSH2 0x150A DUP4 PUSH2 0x145B JUMP JUMPDEST DUP1 PUSH0 JUMPDEST DUP4 DUP2 LT ISZERO PUSH2 0x153A JUMPI DUP2 MLOAD PUSH2 0x1521 DUP9 DUP3 PUSH2 0x14C8 JUMP JUMPDEST SWAP8 POP PUSH2 0x152C DUP4 PUSH2 0x14DF JUMP JUMPDEST SWAP3 POP POP PUSH1 0x1 DUP2 ADD SWAP1 POP PUSH2 0x150D JUMP JUMPDEST POP DUP6 SWAP4 POP POP POP POP SWAP3 SWAP2 POP POP JUMP JUMPDEST PUSH0 PUSH1 0x20 DUP3 ADD SWAP1 POP DUP2 DUP2 SUB PUSH0 DUP4 ADD MSTORE PUSH2 0x155F DUP2 DUP5 PUSH2 0x14EB JUMP JUMPDEST SWAP1 POP SWAP3 SWAP2 POP POP JUMP JUMPDEST PUSH0 DUP1 REVERT JUMPDEST PUSH2 0x1574 DUP2 PUSH2 0x1408 JUMP JUMPDEST DUP2 EQ PUSH2 0x157E JUMPI PUSH0 DUP1 REVERT JUMPDEST POP JUMP JUMPDEST PUSH0 DUP2 CALLDATALOAD SWAP1 POP PUSH2 0x158F DUP2 PUSH2 0x156B JUMP JUMPDEST SWAP3 SWAP2 POP POP JUMP JUMPDEST PUSH0 PUSH1 0x20 DUP3 DUP5 SUB SLT ISZERO PUSH2 0x15AA JUMPI PUSH2 0x15A9 PUSH2 0x1567 JUMP JUMPDEST JUMPDEST PUSH0 PUSH2 0x15B7 DUP5 DUP3 DUP6 ADD PUSH2 0x1581 JUMP JUMPDEST SWAP2 POP POP SWAP3 SWAP2 POP POP JUMP JUMPDEST PUSH32 0x5468652061756374696F6E20686173206E6F7420656E646564207965742E0000 PUSH0 DUP3 ADD MSTORE POP JUMP JUMPDEST PUSH0 PUSH2 0x15F4 PUSH1 0x1E DUP4 PUSH2 0x1363 JUMP JUMPDEST SWAP2 POP PUSH2 0x15FF DUP3 PUSH2 0x15C0 JUMP JUMPDEST PUSH1 0x20 DUP3 ADD SWAP1 POP SWAP2 SWAP1 POP JUMP JUMPDEST PUSH0 PUSH1 0x20 DUP3 ADD SWAP1 POP DUP2 DUP2 SUB PUSH0 DUP4 ADD MSTORE PUSH2 0x1621 DUP2 PUSH2 0x15E8 JUMP JUMPDEST SWAP1 POP SWAP2 SWAP1 POP JUMP JUMPDEST PUSH32 0x5468652077696E6E65722063616E6E6F7420726566756E642E00000000000000 PUSH0 DUP3 ADD MSTORE POP JUMP JUMPDEST PUSH0 PUSH2 0x165C PUSH1 0x19 DUP4 PUSH2 0x1363 JUMP JUMPDEST SWAP2 POP PUSH2 0x1667 DUP3 PUSH2 0x1628 JUMP JUMPDEST PUSH1 0x20 DUP3 ADD SWAP1 POP SWAP2 SWAP1 POP JUMP JUMPDEST PUSH0 PUSH1 0x20 DUP3 ADD SWAP1 POP DUP2 DUP2 SUB PUSH0 DUP4 ADD MSTORE PUSH2 0x1689 DUP2 PUSH2 0x1650 JUMP JUMPDEST SWAP1 POP SWAP2 SWAP1 POP JUMP JUMPDEST PUSH32 0x596F7520617265206E6F74207468652073656C6C65722E000000000000000000 PUSH0 DUP3 ADD MSTORE POP JUMP JUMPDEST PUSH0 PUSH2 0x16C4 PUSH1 0x17 DUP4 PUSH2 0x1363 JUMP JUMPDEST SWAP2 POP PUSH2 0x16CF DUP3 PUSH2 0x1690 JUMP JUMPDEST PUSH1 0x20 DUP3 ADD SWAP1 POP SWAP2 SWAP1 POP JUMP JUMPDEST PUSH0 PUSH1 0x20 DUP3 ADD SWAP1 POP DUP2 DUP2 SUB PUSH0 DUP4 ADD MSTORE PUSH2 0x16F1 DUP2 PUSH2 0x16B8 JUMP JUMPDEST SWAP1 POP SWAP2 SWAP1 POP JUMP JUMPDEST PUSH32 0x5468652061756374696F6E20686173206E6F742073746172746564207965742E PUSH0 DUP3 ADD MSTORE POP JUMP JUMPDEST PUSH0 PUSH2 0x172C PUSH1 0x20 DUP4 PUSH2 0x1363 JUMP JUMPDEST SWAP2 POP PUSH2 0x1737 DUP3 PUSH2 0x16F8 JUMP JUMPDEST PUSH1 0x20 DUP3 ADD SWAP1 POP SWAP2 SWAP1 POP JUMP JUMPDEST PUSH0 PUSH1 0x20 DUP3 ADD SWAP1 POP DUP2 DUP2 SUB PUSH0 DUP4 ADD MSTORE PUSH2 0x1759 DUP2 PUSH2 0x1720 JUMP JUMPDEST SWAP1 POP SWAP2 SWAP1 POP JUMP JUMPDEST PUSH32 0x5468652061756374696F6E2068617320616C726561647920656E6465642E0000 PUSH0 DUP3 ADD MSTORE POP JUMP JUMPDEST PUSH0 PUSH2 0x1794 PUSH1 0x1E DUP4 PUSH2 0x1363 JUMP JUMPDEST SWAP2 POP PUSH2 0x179F DUP3 PUSH2 0x1760 JUMP JUMPDEST PUSH1 0x20 DUP3 ADD SWAP1 POP SWAP2 SWAP1 POP JUMP JUMPDEST PUSH0 PUSH1 0x20 DUP3 ADD SWAP1 POP DUP2 DUP2 SUB PUSH0 DUP4 ADD MSTORE PUSH2 0x17C1 DUP2 PUSH2 0x1788 JUMP JUMPDEST SWAP1 POP SWAP2 SWAP1 POP JUMP JUMPDEST PUSH32 0x4E487B7100000000000000000000000000000000000000000000000000000000 PUSH0 MSTORE PUSH1 0x22 PUSH1 0x4 MSTORE PUSH1 0x24 PUSH0 REVERT JUMPDEST PUSH0 PUSH1 0x2 DUP3 DIV SWAP1 POP PUSH1 0x1 DUP3 AND DUP1 PUSH2 0x180C JUMPI PUSH1 0x7F DUP3 AND SWAP2 POP JUMPDEST PUSH1 0x20 DUP3 LT DUP2 SUB PUSH2 0x181F JUMPI PUSH2 0x181E PUSH2 0x17C8 JUMP JUMPDEST JUMPDEST POP SWAP2 SWAP1 POP JUMP JUMPDEST PUSH32 0x5468652061756374696F6E20686173206265656E20656E6465642E0000000000 PUSH0 DUP3 ADD MSTORE POP JUMP JUMPDEST PUSH0 PUSH2 0x1859 PUSH1 0x1B DUP4 PUSH2 0x1363 JUMP JUMPDEST SWAP2 POP PUSH2 0x1864 DUP3 PUSH2 0x1825 JUMP JUMPDEST PUSH1 0x20 DUP3 ADD SWAP1 POP SWAP2 SWAP1 POP JUMP JUMPDEST PUSH0 PUSH1 0x20 DUP3 ADD SWAP1 POP DUP2 DUP2 SUB PUSH0 DUP4 ADD MSTORE PUSH2 0x1886 DUP2 PUSH2 0x184D JUMP JUMPDEST SWAP1 POP SWAP2 SWAP1 POP JUMP JUMPDEST PUSH32 0x596F752068617665206E6F207065726D697373696F6E732E0000000000000000 PUSH0 DUP3 ADD MSTORE POP JUMP JUMPDEST PUSH0 PUSH2 0x18C1 PUSH1 0x18 DUP4 PUSH2 0x1363 JUMP JUMPDEST SWAP2 POP PUSH2 0x18CC DUP3 PUSH2 0x188D JUMP JUMPDEST PUSH1 0x20 DUP3 ADD SWAP1 POP SWAP2 SWAP1 POP JUMP JUMPDEST PUSH0 PUSH1 0x20 DUP3 ADD SWAP1 POP DUP2 DUP2 SUB PUSH0 DUP4 ADD MSTORE PUSH2 0x18EE DUP2 PUSH2 0x18B5 JUMP JUMPDEST SWAP1 POP SWAP2 SWAP1 POP JUMP JUMPDEST PUSH32 0x4E487B7100000000000000000000000000000000000000000000000000000000 PUSH0 MSTORE PUSH1 0x11 PUSH1 0x4 MSTORE PUSH1 0x24 PUSH0 REVERT JUMPDEST PUSH0 PUSH2 0x192C DUP3 PUSH2 0x1328 JUMP JUMPDEST SWAP2 POP PUSH2 0x1937 DUP4 PUSH2 0x1328 JUMP JUMPDEST SWAP3 POP DUP3 DUP3 ADD SWAP1 POP DUP1 DUP3 GT ISZERO PUSH2 0x194F JUMPI PUSH2 0x194E PUSH2 0x18F5 JUMP JUMPDEST JUMPDEST SWAP3 SWAP2 POP POP JUMP JUMPDEST PUSH32 0x4E487B7100000000000000000000000000000000000000000000000000000000 PUSH0 MSTORE PUSH1 0x12 PUSH1 0x4 MSTORE PUSH1 0x24 PUSH0 REVERT JUMPDEST PUSH0 PUSH2 0x198C DUP3 PUSH2 0x1328 JUMP JUMPDEST SWAP2 POP PUSH2 0x1997 DUP4 PUSH2 0x1328 JUMP JUMPDEST SWAP3 POP DUP3 PUSH2 0x19A7 JUMPI PUSH2 0x19A6 PUSH2 0x1955 JUMP JUMPDEST JUMPDEST DUP3 DUP3 DIV SWAP1 POP SWAP3 SWAP2 POP POP JUMP JUMPDEST PUSH0 DUP2 SWAP1 POP SWAP3 SWAP2 POP POP JUMP JUMPDEST PUSH32 0x4E6F7420656E6F7567682065746865722E2043757272656E7420636F73742070 PUSH0 DUP3 ADD MSTORE PUSH32 0x6C7573206269643A200000000000000000000000000000000000000000000000 PUSH1 0x20 DUP3 ADD MSTORE POP JUMP JUMPDEST PUSH0 PUSH2 0x1A16 PUSH1 0x29 DUP4 PUSH2 0x19B2 JUMP JUMPDEST SWAP2 POP PUSH2 0x1A21 DUP3 PUSH2 0x19BC JUMP JUMPDEST PUSH1 0x29 DUP3 ADD SWAP1 POP SWAP2 SWAP1 POP JUMP JUMPDEST PUSH0 PUSH2 0x1A36 DUP3 PUSH2 0x1359 JUMP JUMPDEST PUSH2 0x1A40 DUP2 DUP6 PUSH2 0x19B2 JUMP JUMPDEST SWAP4 POP PUSH2 0x1A50 DUP2 DUP6 PUSH1 0x20 DUP7 ADD PUSH2 0x1373 JUMP JUMPDEST DUP1 DUP5 ADD SWAP2 POP POP SWAP3 SWAP2 POP POP JUMP JUMPDEST PUSH0 PUSH2 0x1A66 DUP3 PUSH2 0x1A0A JUMP JUMPDEST SWAP2 POP PUSH2 0x1A72 DUP3 DUP5 PUSH2 0x1A2C JUMP JUMPDEST SWAP2 POP DUP2 SWAP1 POP SWAP3 SWAP2 POP POP JUMP JUMPDEST PUSH32 0x596F7520617265206E6F74207468652077696E6E65722E000000000000000000 PUSH0 DUP3 ADD MSTORE POP JUMP JUMPDEST PUSH0 PUSH2 0x1AB1 PUSH1 0x17 DUP4 PUSH2 0x1363 JUMP JUMPDEST SWAP2 POP PUSH2 0x1ABC DUP3 PUSH2 0x1A7D JUMP JUMPDEST PUSH1 0x20 DUP3 ADD SWAP1 POP SWAP2 SWAP1 POP JUMP JUMPDEST PUSH0 PUSH1 0x20 DUP3 ADD SWAP1 POP DUP2 DUP2 SUB PUSH0 DUP4 ADD MSTORE PUSH2 0x1ADE DUP2 PUSH2 0x1AA5 JUMP JUMPDEST SWAP1 POP SWAP2 SWAP1 POP JUMP JUMPDEST PUSH32 0x5468652061756374696F6E2068617320616C726561647920737461727465642E PUSH0 DUP3 ADD MSTORE POP JUMP JUMPDEST PUSH0 PUSH2 0x1B19 PUSH1 0x20 DUP4 PUSH2 0x1363 JUMP JUMPDEST SWAP2 POP PUSH2 0x1B24 DUP3 PUSH2 0x1AE5 JUMP JUMPDEST PUSH1 0x20 DUP3 ADD SWAP1 POP SWAP2 SWAP1 POP JUMP JUMPDEST PUSH0 PUSH1 0x20 DUP3 ADD SWAP1 POP DUP2 DUP2 SUB PUSH0 DUP4 ADD MSTORE PUSH2 0x1B46 DUP2 PUSH2 0x1B0D JUMP JUMPDEST SWAP1 POP SWAP2 SWAP1 POP JUMP JUMPDEST PUSH32 0x4D6178206C696D697420666F72207061727469636970616E74732E0000000000 PUSH0 DUP3 ADD MSTORE POP JUMP JUMPDEST PUSH0 PUSH2 0x1B81 PUSH1 0x1B DUP4 PUSH2 0x1363 JUMP JUMPDEST SWAP2 POP PUSH2 0x1B8C DUP3 PUSH2 0x1B4D JUMP JUMPDEST PUSH1 0x20 DUP3 ADD SWAP1 POP SWAP2 SWAP1 POP JUMP JUMPDEST PUSH0 PUSH1 0x20 DUP3 ADD SWAP1 POP DUP2 DUP2 SUB PUSH0 DUP4 ADD MSTORE PUSH2 0x1BAE DUP2 PUSH2 0x1B75 JUMP JUMPDEST SWAP1 POP SWAP2 SWAP1 POP JUMP JUMPDEST PUSH32 0x4E487B7100000000000000000000000000000000000000000000000000000000 PUSH0 MSTORE PUSH1 0x41 PUSH1 0x4 MSTORE PUSH1 0x24 PUSH0 REVERT INVALID NUMBER PUSH16 0x6E67726174756C6174696F6E73212059 PUSH16 0x7520617265207468652077696E6E6572 0x2E KECCAK256 BASEFEE PUSH6 0x726520697320 PUSH26 0x6F7572206974656D2EA264697066735822122043406F74E97290 0xEF 0xAE PUSH31 0xEB404675D6A38B12B1F37881AC45F90391FAA4EC119464736F6C634300081A STOP CALLER "
				},
				"gasEstimates": {
					"creation": {
						"codeDepositCost": "1449400",
						"executionCost": "infinite",
						"totalCost": "infinite"
					},
					"external": {
						"Bid()": "infinite",
						"BidStep()": "2536",
						"CurrentCost()": "2493",
						"CurrentParticipantsAmount()": "2514",
						"EndAuction()": "infinite",
						"GetBidHistory()": "infinite",
						"GetItem()": "infinite",
						"GetPermission(address)": "infinite",
						"HasEnded()": "2541",
						"HasStarted()": "2576",
						"Item()": "infinite",
						"MaxParticipants()": "2491",
						"Refund()": "infinite",
						"SELLER()": "infinite",
						"StartAuction()": "infinite",
						"StartTime()": "2513",
						"StartingCost()": "2471",
						"StepTime()": "2492",
						"Winner()": "2531"
					},
					"internal": {
						"CheckTimeAndWinner()": "infinite",
						"Withdraw()": "infinite"
					}
				},
				"methodIdentifiers": {
					"Bid()": "6e6452cb",
					"BidStep()": "8611e07b",
					"CurrentCost()": "54a8882d",
					"CurrentParticipantsAmount()": "d0b1bfd0",
					"EndAuction()": "6a7798ee",
					"GetBidHistory()": "d1ee49c2",
					"GetItem()": "85d679f9",
					"GetPermission(address)": "d8346cdf",
					"HasEnded()": "0cbb94e0",
					"HasStarted()": "fc505be9",
					"Item()": "6a7a67f0",
					"MaxParticipants()": "de4b1e42",
					"Refund()": "5d268629",
					"SELLER()": "bca93eba",
					"StartAuction()": "d295ebf0",
					"StartTime()": "fc4a4a1e",
					"StartingCost()": "38699c7f",
					"StepTime()": "cbb12c2d",
					"Winner()": "b2b98ed2"
				}
			},
			"storageLayout": {
				"storage": [
					{
						"astId": 7,
						"contract": "6 занятие/Auction.sol:Auction",
						"label": "Item",
						"offset": 0,
						"slot": "0",
						"type": "t_string_storage"
					},
					{
						"astId": 11,
						"contract": "6 занятие/Auction.sol:Auction",
						"label": "HighestBidder",
						"offset": 0,
						"slot": "1",
						"type": "t_address"
					},
					{
						"astId": 13,
						"contract": "6 занятие/Auction.sol:Auction",
						"label": "Winner",
						"offset": 0,
						"slot": "2",
						"type": "t_address"
					},
					{
						"astId": 15,
						"contract": "6 занятие/Auction.sol:Auction",
						"label": "StartingCost",
						"offset": 0,
						"slot": "3",
						"type": "t_uint256"
					},
					{
						"astId": 17,
						"contract": "6 занятие/Auction.sol:Auction",
						"label": "BidStep",
						"offset": 0,
						"slot": "4",
						"type": "t_uint256"
					},
					{
						"astId": 19,
						"contract": "6 занятие/Auction.sol:Auction",
						"label": "CurrentCost",
						"offset": 0,
						"slot": "5",
						"type": "t_uint256"
					},
					{
						"astId": 21,
						"contract": "6 занятие/Auction.sol:Auction",
						"label": "HasStarted",
						"offset": 0,
						"slot": "6",
						"type": "t_bool"
					},
					{
						"astId": 23,
						"contract": "6 занятие/Auction.sol:Auction",
						"label": "HasEnded",
						"offset": 1,
						"slot": "6",
						"type": "t_bool"
					},
					{
						"astId": 25,
						"contract": "6 занятие/Auction.sol:Auction",
						"label": "StartTime",
						"offset": 0,
						"slot": "7",
						"type": "t_uint256"
					},
					{
						"astId": 27,
						"contract": "6 занятие/Auction.sol:Auction",
						"label": "StepTime",
						"offset": 0,
						"slot": "8",
						"type": "t_uint256"
					},
					{
						"astId": 29,
						"contract": "6 занятие/Auction.sol:Auction",
						"label": "PreviousBidTime",
						"offset": 0,
						"slot": "9",
						"type": "t_uint256"
					},
					{
						"astId": 31,
						"contract": "6 занятие/Auction.sol:Auction",
						"label": "MaxParticipants",
						"offset": 0,
						"slot": "10",
						"type": "t_uint256"
					},
					{
						"astId": 33,
						"contract": "6 занятие/Auction.sol:Auction",
						"label": "CurrentParticipantsAmount",
						"offset": 0,
						"slot": "11",
						"type": "t_uint256"
					},
					{
						"astId": 37,
						"contract": "6 занятие/Auction.sol:Auction",
						"label": "Permissions",
						"offset": 0,
						"slot": "12",
						"type": "t_mapping(t_address,t_bool)"
					},
					{
						"astId": 41,
						"contract": "6 занятие/Auction.sol:Auction",
						"label": "Bids",
						"offset": 0,
						"slot": "13",
						"type": "t_mapping(t_address,t_uint256)"
					},
					{
						"astId": 406,
						"contract": "6 занятие/Auction.sol:Auction",
						"label": "BidHistory",
						"offset": 0,
						"slot": "14",
						"type": "t_array(t_struct(BidRecord)402_storage)dyn_storage"
					}
				],
				"types": {
					"t_address": {
						"encoding": "inplace",
						"label": "address",
						"numberOfBytes": "20"
					},
					"t_array(t_struct(BidRecord)402_storage)dyn_storage": {
						"base": "t_struct(BidRecord)402_storage",
						"encoding": "dynamic_array",
						"label": "struct Auction.BidRecord[]",
						"numberOfBytes": "32"
					},
					"t_bool": {
						"encoding": "inplace",
						"label": "bool",
						"numberOfBytes": "1"
					},
					"t_mapping(t_address,t_bool)": {
						"encoding": "mapping",
						"key": "t_address",
						"label": "mapping(address => bool)",
						"numberOfBytes": "32",
						"value": "t_bool"
					},
					"t_mapping(t_address,t_uint256)": {
						"encoding": "mapping",
						"key": "t_address",
						"label": "mapping(address => uint256)",
						"numberOfBytes": "32",
						"value": "t_uint256"
					},
					"t_string_storage": {
						"encoding": "bytes",
						"label": "string",
						"numberOfBytes": "32"
					},
					"t_struct(BidRecord)402_storage": {
						"encoding": "inplace",
						"label": "struct Auction.BidRecord",
						"members": [
							{
								"astId": 397,
								"contract": "6 занятие/Auction.sol:Auction",
								"label": "bidder",
								"offset": 0,
								"slot": "0",
								"type": "t_address"
							},
							{
								"astId": 399,
								"contract": "6 занятие/Auction.sol:Auction",
								"label": "amount",
								"offset": 0,
								"slot": "1",
								"type": "t_uint256"
							},
							{
								"astId": 401,
								"contract": "6 занятие/Auction.sol:Auction",
								"label": "timestamp",
								"offset": 0,
								"slot": "2",
								"type": "t_uint256"
							}
						],
						"numberOfBytes": "96"
					},
					"t_uint256": {
						"encoding": "inplace",
						"label": "uint256",
						"numberOfBytes": "32"
					}
				}
			},
			"userdoc": {
				"kind": "user",
				"methods": {},
				"version": 1
			}
		}
	}
}